{
	"StargateFacet_flat.sol": {
		"StargateFacet": {
			"abi": [
				{
					"inputs": [],
					"name": "InvalidAmount",
					"type": "error"
				},
				{
					"inputs": [],
					"name": "InvalidConfig",
					"type": "error"
				},
				{
					"inputs": [],
					"name": "InvalidSourcePoolId",
					"type": "error"
				},
				{
					"inputs": [],
					"name": "ReentrancyError",
					"type": "error"
				},
				{
					"inputs": [],
					"name": "SenderNotStargateRouter",
					"type": "error"
				},
				{
					"inputs": [],
					"name": "StargateRouterAddressZero",
					"type": "error"
				},
				{
					"anonymous": false,
					"inputs": [
						{
							"indexed": false,
							"internalType": "uint16",
							"name": "chainId",
							"type": "uint16"
						},
						{
							"indexed": false,
							"internalType": "address",
							"name": "token",
							"type": "address"
						},
						{
							"indexed": false,
							"internalType": "uint16",
							"name": "poolId",
							"type": "uint16"
						}
					],
					"name": "SGAddedPool",
					"type": "event"
				},
				{
					"anonymous": false,
					"inputs": [
						{
							"indexed": false,
							"internalType": "address",
							"name": "stargate",
							"type": "address"
						},
						{
							"indexed": false,
							"internalType": "uint16",
							"name": "chainId",
							"type": "uint16"
						}
					],
					"name": "SGInitialized",
					"type": "event"
				},
				{
					"anonymous": false,
					"inputs": [
						{
							"indexed": false,
							"internalType": "address",
							"name": "token",
							"type": "address"
						},
						{
							"indexed": false,
							"internalType": "uint256",
							"name": "amount",
							"type": "uint256"
						}
					],
					"name": "SGReceivedOnDestination",
					"type": "event"
				},
				{
					"anonymous": false,
					"inputs": [
						{
							"indexed": false,
							"internalType": "string",
							"name": "bridgeUsed",
							"type": "string"
						},
						{
							"indexed": false,
							"internalType": "address",
							"name": "fromToken",
							"type": "address"
						},
						{
							"indexed": false,
							"internalType": "address",
							"name": "toToken",
							"type": "address"
						},
						{
							"indexed": false,
							"internalType": "address",
							"name": "from",
							"type": "address"
						},
						{
							"indexed": false,
							"internalType": "address",
							"name": "to",
							"type": "address"
						},
						{
							"indexed": false,
							"internalType": "uint256",
							"name": "amount",
							"type": "uint256"
						},
						{
							"indexed": false,
							"internalType": "uint16",
							"name": "chainIdTo",
							"type": "uint16"
						}
					],
					"name": "SGTransferStarted",
					"type": "event"
				},
				{
					"anonymous": false,
					"inputs": [
						{
							"indexed": false,
							"internalType": "address",
							"name": "newAddress",
							"type": "address"
						}
					],
					"name": "SGUpdatedRouter",
					"type": "event"
				},
				{
					"anonymous": false,
					"inputs": [
						{
							"indexed": false,
							"internalType": "uint256",
							"name": "newSlippage",
							"type": "uint256"
						}
					],
					"name": "SGUpdatedSlippageTolerance",
					"type": "event"
				},
				{
					"inputs": [
						{
							"internalType": "uint16",
							"name": "_chainId",
							"type": "uint16"
						},
						{
							"internalType": "address",
							"name": "_token",
							"type": "address"
						},
						{
							"internalType": "uint16",
							"name": "_poolId",
							"type": "uint16"
						}
					],
					"name": "sgAddPool",
					"outputs": [],
					"stateMutability": "nonpayable",
					"type": "function"
				},
				{
					"inputs": [
						{
							"components": [
								{
									"internalType": "uint256",
									"name": "qty",
									"type": "uint256"
								},
								{
									"internalType": "address",
									"name": "fromToken",
									"type": "address"
								},
								{
									"internalType": "address",
									"name": "toToken",
									"type": "address"
								},
								{
									"internalType": "uint16",
									"name": "dstChainId",
									"type": "uint16"
								},
								{
									"internalType": "address",
									"name": "to",
									"type": "address"
								},
								{
									"internalType": "address",
									"name": "destStargateComposed",
									"type": "address"
								}
							],
							"internalType": "struct StargateFacet.StargateData",
							"name": "_sgData",
							"type": "tuple"
						}
					],
					"name": "sgBridgeTokens",
					"outputs": [],
					"stateMutability": "payable",
					"type": "function"
				},
				{
					"inputs": [
						{
							"internalType": "uint16",
							"name": "_destChain",
							"type": "uint16"
						},
						{
							"internalType": "address",
							"name": "_receiver",
							"type": "address"
						},
						{
							"internalType": "address",
							"name": "_router",
							"type": "address"
						}
					],
					"name": "sgCalculateFees",
					"outputs": [
						{
							"internalType": "uint256",
							"name": "",
							"type": "uint256"
						}
					],
					"stateMutability": "view",
					"type": "function"
				},
				{
					"inputs": [
						{
							"internalType": "uint16",
							"name": "_chainId",
							"type": "uint16"
						},
						{
							"internalType": "address",
							"name": "_token",
							"type": "address"
						},
						{
							"internalType": "uint16",
							"name": "_poolId",
							"type": "uint16"
						}
					],
					"name": "sgCheckPoolId",
					"outputs": [
						{
							"internalType": "bool",
							"name": "",
							"type": "bool"
						}
					],
					"stateMutability": "view",
					"type": "function"
				},
				{
					"inputs": [
						{
							"internalType": "address",
							"name": "_stargateRouter",
							"type": "address"
						},
						{
							"internalType": "uint16",
							"name": "_chainId",
							"type": "uint16"
						}
					],
					"name": "sgInitialize",
					"outputs": [],
					"stateMutability": "nonpayable",
					"type": "function"
				},
				{
					"inputs": [
						{
							"internalType": "uint256",
							"name": "_amount",
							"type": "uint256"
						}
					],
					"name": "sgMinAmountOut",
					"outputs": [
						{
							"internalType": "uint256",
							"name": "",
							"type": "uint256"
						}
					],
					"stateMutability": "view",
					"type": "function"
				},
				{
					"inputs": [
						{
							"internalType": "uint16",
							"name": "_chainId",
							"type": "uint16"
						},
						{
							"internalType": "bytes",
							"name": "_srcAddress",
							"type": "bytes"
						},
						{
							"internalType": "uint256",
							"name": "_nonce",
							"type": "uint256"
						},
						{
							"internalType": "address",
							"name": "_token",
							"type": "address"
						},
						{
							"internalType": "uint256",
							"name": "amountLD",
							"type": "uint256"
						},
						{
							"internalType": "bytes",
							"name": "_payload",
							"type": "bytes"
						}
					],
					"name": "sgReceive",
					"outputs": [],
					"stateMutability": "nonpayable",
					"type": "function"
				},
				{
					"inputs": [
						{
							"internalType": "uint16",
							"name": "_chainId",
							"type": "uint16"
						},
						{
							"internalType": "address",
							"name": "_token",
							"type": "address"
						}
					],
					"name": "sgRetrievePoolId",
					"outputs": [
						{
							"internalType": "uint16",
							"name": "",
							"type": "uint16"
						}
					],
					"stateMutability": "view",
					"type": "function"
				},
				{
					"inputs": [
						{
							"internalType": "address",
							"name": "_newAddress",
							"type": "address"
						}
					],
					"name": "sgUpdateRouter",
					"outputs": [],
					"stateMutability": "nonpayable",
					"type": "function"
				},
				{
					"inputs": [
						{
							"internalType": "uint256",
							"name": "_newSlippage",
							"type": "uint256"
						}
					],
					"name": "sgUpdateSlippageTolerance",
					"outputs": [],
					"stateMutability": "nonpayable",
					"type": "function"
				},
				{
					"inputs": [
						{
							"internalType": "address",
							"name": "_token",
							"type": "address"
						},
						{
							"internalType": "address",
							"name": "_user",
							"type": "address"
						},
						{
							"internalType": "uint256",
							"name": "_amount",
							"type": "uint256"
						}
					],
					"name": "sgWithdraw",
					"outputs": [],
					"stateMutability": "payable",
					"type": "function"
				},
				{
					"stateMutability": "payable",
					"type": "receive"
				}
			],
			"devdoc": {
				"author": "Luke Wickens <luke@pillarproject.io>",
				"kind": "dev",
				"methods": {
					"sgAddPool(uint16,address,uint16)": {
						"params": {
							"_chainId": "Chain id of new pool (NOT actual chain id - check stargate pool ids docs)",
							"_poolId": "Pool id (check stargate pool ids docs)",
							"_token": "Address of token"
						}
					},
					"sgBridgeTokens((uint256,address,address,uint16,address,address))": {
						"params": {
							"_sgData": "- struct containing information required to execute bridge"
						}
					},
					"sgCalculateFees(uint16,address,address)": {
						"params": {
							"_destChain": "Destination chain id",
							"_receiver": "Receiver on destination chain",
							"_router": "Address of stargate router"
						}
					},
					"sgCheckPoolId(uint16,address,uint16)": {
						"params": {
							"_chainId": "Chain id of new pool (NOT actual chain id - check stargate pool ids docs)",
							"_poolId": "Pool id (check stargate pool ids docs)",
							"_token": "Address of token"
						}
					},
					"sgInitialize(address,uint16)": {
						"params": {
							"_chainId": "- current chain id",
							"_stargateRouter": "- address of the Stargate router contract"
						}
					},
					"sgMinAmountOut(uint256)": {
						"params": {
							"_amount": "Transfer amount"
						}
					},
					"sgReceive(uint16,bytes,uint256,address,uint256,bytes)": {
						"params": {
							"_chainId": "The remote chainId sending the tokens",
							"_nonce": "The message ordering nonce",
							"_payload": "The bytes containing the toAddress",
							"_srcAddress": "The remote Bridge address",
							"_token": "The token contract on the local chain",
							"amountLD": "The qty of local _token contract tokens"
						}
					},
					"sgRetrievePoolId(uint16,address)": {
						"params": {
							"_chainId": "Chain id of new pool (NOT actual chain id - check stargate pool ids docs)",
							"_token": "Address of token"
						}
					},
					"sgUpdateRouter(address)": {
						"params": {
							"_newAddress": "Address of the new router"
						}
					},
					"sgUpdateSlippageTolerance(uint256)": {
						"params": {
							"_newSlippage": "New slippage amount"
						}
					},
					"sgWithdraw(address,address,uint256)": {
						"params": {
							"_amount": "Amount to withdraw",
							"_token": "Address of token",
							"_user": "Address of receiver of tokens"
						}
					}
				},
				"title": "StargateFacet",
				"version": 1
			},
			"evm": {
				"assembly": "    /* \"StargateFacet_flat.sol\":34032:45348  contract StargateFacet is IStargateReceiver, ReentrancyGuard {... */\n  mstore(0x40, 0x80)\n  callvalue\n  dup1\n  iszero\n  tag_1\n  jumpi\n  0x00\n  dup1\n  revert\ntag_1:\n  pop\n  dataSize(sub_0)\n  dup1\n  dataOffset(sub_0)\n  0x00\n  codecopy\n  0x00\n  return\nstop\n\nsub_0: assembly {\n        /* \"StargateFacet_flat.sol\":34032:45348  contract StargateFacet is IStargateReceiver, ReentrancyGuard {... */\n      mstore(0x40, 0x80)\n      jumpi(tag_1, lt(calldatasize, 0x04))\n      shr(0xe0, calldataload(0x00))\n      dup1\n      0x498ee469\n      gt\n      tag_14\n      jumpi\n      dup1\n      0x498ee469\n      eq\n      tag_8\n      jumpi\n      dup1\n      0x4be85c35\n      eq\n      tag_9\n      jumpi\n      dup1\n      0x618c3f29\n      eq\n      tag_10\n      jumpi\n      dup1\n      0xab8236f3\n      eq\n      tag_11\n      jumpi\n      dup1\n      0xb8c06ccc\n      eq\n      tag_12\n      jumpi\n      dup1\n      0xc722a336\n      eq\n      tag_13\n      jumpi\n      jump(tag_2)\n    tag_14:\n      dup1\n      0x1f8097fb\n      eq\n      tag_3\n      jumpi\n      dup1\n      0x217aabb7\n      eq\n      tag_4\n      jumpi\n      dup1\n      0x2a8dcdb7\n      eq\n      tag_5\n      jumpi\n      dup1\n      0x42d910c6\n      eq\n      tag_6\n      jumpi\n      dup1\n      0x430dbc3a\n      eq\n      tag_7\n      jumpi\n      jump(tag_2)\n    tag_1:\n      jumpi(tag_2, calldatasize)\n      stop\n    tag_2:\n      0x00\n      dup1\n      revert\n        /* \"StargateFacet_flat.sol\":37377:40064  function sgBridgeTokens(StargateData memory _sgData)... */\n    tag_3:\n      tag_17\n      0x04\n      dup1\n      calldatasize\n      sub\n      dup2\n      add\n      swap1\n      tag_18\n      swap2\n      swap1\n      tag_19\n      jump\t// in\n    tag_18:\n      tag_20\n      jump\t// in\n    tag_17:\n      stop\n        /* \"StargateFacet_flat.sol\":42596:42846  function sgUpdateSlippageTolerance(uint256 _newSlippage) external {... */\n    tag_4:\n      callvalue\n      dup1\n      iszero\n      tag_21\n      jumpi\n      0x00\n      dup1\n      revert\n    tag_21:\n      pop\n      tag_22\n      0x04\n      dup1\n      calldatasize\n      sub\n      dup2\n      add\n      swap1\n      tag_23\n      swap2\n      swap1\n      tag_24\n      jump\t// in\n    tag_23:\n      tag_25\n      jump\t// in\n    tag_22:\n      stop\n        /* \"StargateFacet_flat.sol\":44177:44425  function sgCheckPoolId(... */\n    tag_5:\n      callvalue\n      dup1\n      iszero\n      tag_26\n      jumpi\n      0x00\n      dup1\n      revert\n    tag_26:\n      pop\n      tag_27\n      0x04\n      dup1\n      calldatasize\n      sub\n      dup2\n      add\n      swap1\n      tag_28\n      swap2\n      swap1\n      tag_29\n      jump\t// in\n    tag_28:\n      tag_30\n      jump\t// in\n    tag_27:\n      mload(0x40)\n      tag_31\n      swap2\n      swap1\n      tag_32\n      jump\t// in\n    tag_31:\n      mload(0x40)\n      dup1\n      swap2\n      sub\n      swap1\n      return\n        /* \"StargateFacet_flat.sol\":41205:41716  function sgCalculateFees(... */\n    tag_6:\n      callvalue\n      dup1\n      iszero\n      tag_33\n      jumpi\n      0x00\n      dup1\n      revert\n    tag_33:\n      pop\n      tag_34\n      0x04\n      dup1\n      calldatasize\n      sub\n      dup2\n      add\n      swap1\n      tag_35\n      swap2\n      swap1\n      tag_36\n      jump\t// in\n    tag_35:\n      tag_37\n      jump\t// in\n    tag_34:\n      mload(0x40)\n      tag_38\n      swap2\n      swap1\n      tag_39\n      jump\t// in\n    tag_38:\n      mload(0x40)\n      dup1\n      swap2\n      sub\n      swap1\n      return\n        /* \"StargateFacet_flat.sol\":44635:44844  function sgRetrievePoolId(uint16 _chainId, address _token)... */\n    tag_7:\n      callvalue\n      dup1\n      iszero\n      tag_40\n      jumpi\n      0x00\n      dup1\n      revert\n    tag_40:\n      pop\n      tag_41\n      0x04\n      dup1\n      calldatasize\n      sub\n      dup2\n      add\n      swap1\n      tag_42\n      swap2\n      swap1\n      tag_43\n      jump\t// in\n    tag_42:\n      tag_44\n      jump\t// in\n    tag_41:\n      mload(0x40)\n      tag_45\n      swap2\n      swap1\n      tag_46\n      jump\t// in\n    tag_45:\n      mload(0x40)\n      dup1\n      swap2\n      sub\n      swap1\n      return\n        /* \"StargateFacet_flat.sol\":35908:37222  function sgInitialize(address _stargateRouter, uint16 _chainId) external {... */\n    tag_8:\n      callvalue\n      dup1\n      iszero\n      tag_47\n      jumpi\n      0x00\n      dup1\n      revert\n    tag_47:\n      pop\n      tag_48\n      0x04\n      dup1\n      calldatasize\n      sub\n      dup2\n      add\n      swap1\n      tag_49\n      swap2\n      swap1\n      tag_50\n      jump\t// in\n    tag_49:\n      tag_51\n      jump\t// in\n    tag_48:\n      stop\n        /* \"StargateFacet_flat.sol\":42177:42492  function sgUpdateRouter(address _newAddress) external {... */\n    tag_9:\n      callvalue\n      dup1\n      iszero\n      tag_52\n      jumpi\n      0x00\n      dup1\n      revert\n    tag_52:\n      pop\n      tag_53\n      0x04\n      dup1\n      calldatasize\n      sub\n      dup2\n      add\n      swap1\n      tag_54\n      swap2\n      swap1\n      tag_55\n      jump\t// in\n    tag_54:\n      tag_56\n      jump\t// in\n    tag_53:\n      stop\n        /* \"StargateFacet_flat.sol\":41836:42051  function sgMinAmountOut(uint256 _amount) public view returns (uint256) {... */\n    tag_10:\n      callvalue\n      dup1\n      iszero\n      tag_57\n      jumpi\n      0x00\n      dup1\n      revert\n    tag_57:\n      pop\n      tag_58\n      0x04\n      dup1\n      calldatasize\n      sub\n      dup2\n      add\n      swap1\n      tag_59\n      swap2\n      swap1\n      tag_24\n      jump\t// in\n    tag_59:\n      tag_60\n      jump\t// in\n    tag_58:\n      mload(0x40)\n      tag_61\n      swap2\n      swap1\n      tag_39\n      jump\t// in\n    tag_61:\n      mload(0x40)\n      dup1\n      swap2\n      sub\n      swap1\n      return\n        /* \"StargateFacet_flat.sol\":40481:41004  function sgReceive(... */\n    tag_11:\n      callvalue\n      dup1\n      iszero\n      tag_62\n      jumpi\n      0x00\n      dup1\n      revert\n    tag_62:\n      pop\n      tag_63\n      0x04\n      dup1\n      calldatasize\n      sub\n      dup2\n      add\n      swap1\n      tag_64\n      swap2\n      swap1\n      tag_65\n      jump\t// in\n    tag_64:\n      tag_66\n      jump\t// in\n    tag_63:\n      stop\n        /* \"StargateFacet_flat.sol\":43609:43908  function sgAddPool(... */\n    tag_12:\n      callvalue\n      dup1\n      iszero\n      tag_67\n      jumpi\n      0x00\n      dup1\n      revert\n    tag_67:\n      pop\n      tag_68\n      0x04\n      dup1\n      calldatasize\n      sub\n      dup2\n      add\n      swap1\n      tag_69\n      swap2\n      swap1\n      tag_29\n      jump\t// in\n    tag_69:\n      tag_70\n      jump\t// in\n    tag_68:\n      stop\n        /* \"StargateFacet_flat.sol\":43029:43341  function sgWithdraw(... */\n    tag_13:\n      tag_71\n      0x04\n      dup1\n      calldatasize\n      sub\n      dup2\n      add\n      swap1\n      tag_72\n      swap2\n      swap1\n      tag_73\n      jump\t// in\n    tag_72:\n      tag_74\n      jump\t// in\n    tag_71:\n      stop\n        /* \"StargateFacet_flat.sol\":37377:40064  function sgBridgeTokens(StargateData memory _sgData)... */\n    tag_20:\n        /* \"StargateFacet_flat.sol\":13013:13040  ReentrancyStorage storage s */\n      0x00\n        /* \"StargateFacet_flat.sol\":13043:13062  reentrancyStorage() */\n      tag_76\n        /* \"StargateFacet_flat.sol\":13043:13060  reentrancyStorage */\n      tag_77\n        /* \"StargateFacet_flat.sol\":13043:13062  reentrancyStorage() */\n      jump\t// in\n    tag_76:\n        /* \"StargateFacet_flat.sol\":13013:13062  ReentrancyStorage storage s = reentrancyStorage() */\n      swap1\n      pop\n        /* \"StargateFacet_flat.sol\":12768:12769  1 */\n      0x01\n        /* \"StargateFacet_flat.sol\":13076:13077  s */\n      dup2\n        /* \"StargateFacet_flat.sol\":13076:13084  s.status */\n      0x00\n      add\n      sload\n        /* \"StargateFacet_flat.sol\":13076:13096  s.status == _ENTERED */\n      eq\n        /* \"StargateFacet_flat.sol\":13072:13122  if (s.status == _ENTERED) revert ReentrancyError() */\n      iszero\n      tag_78\n      jumpi\n        /* \"StargateFacet_flat.sol\":13105:13122  ReentrancyError() */\n      mload(0x40)\n      0x29f745a700000000000000000000000000000000000000000000000000000000\n      dup2\n      mstore\n      0x04\n      add\n      mload(0x40)\n      dup1\n      swap2\n      sub\n      swap1\n      revert\n        /* \"StargateFacet_flat.sol\":13072:13122  if (s.status == _ENTERED) revert ReentrancyError() */\n    tag_78:\n        /* \"StargateFacet_flat.sol\":12768:12769  1 */\n      0x01\n        /* \"StargateFacet_flat.sol\":13132:13133  s */\n      dup2\n        /* \"StargateFacet_flat.sol\":13132:13140  s.status */\n      0x00\n      add\n        /* \"StargateFacet_flat.sol\":13132:13151  s.status = _ENTERED */\n      dup2\n      swap1\n      sstore\n      pop\n        /* \"StargateFacet_flat.sol\":37589:37590  0 */\n      0x00\n        /* \"StargateFacet_flat.sol\":37574:37581  _sgData */\n      dup3\n        /* \"StargateFacet_flat.sol\":37574:37585  _sgData.qty */\n      0x00\n      add\n      mload\n        /* \"StargateFacet_flat.sol\":37574:37590  _sgData.qty <= 0 */\n      gt\n        /* \"StargateFacet_flat.sol\":37570:37614  if (_sgData.qty <= 0) revert InvalidAmount() */\n      tag_80\n      jumpi\n        /* \"StargateFacet_flat.sol\":37599:37614  InvalidAmount() */\n      mload(0x40)\n      0x2c5211c600000000000000000000000000000000000000000000000000000000\n      dup2\n      mstore\n      0x04\n      add\n      mload(0x40)\n      dup1\n      swap2\n      sub\n      swap1\n      revert\n        /* \"StargateFacet_flat.sol\":37570:37614  if (_sgData.qty <= 0) revert InvalidAmount() */\n    tag_80:\n        /* \"StargateFacet_flat.sol\":37670:37671  0 */\n      0x00\n        /* \"StargateFacet_flat.sol\":37641:37672  _sgData.fromToken == address(0) */\n      0xffffffffffffffffffffffffffffffffffffffff\n      and\n        /* \"StargateFacet_flat.sol\":37641:37648  _sgData */\n      dup3\n        /* \"StargateFacet_flat.sol\":37641:37658  _sgData.fromToken */\n      0x20\n      add\n      mload\n        /* \"StargateFacet_flat.sol\":37641:37672  _sgData.fromToken == address(0) */\n      0xffffffffffffffffffffffffffffffffffffffff\n      and\n      eq\n        /* \"StargateFacet_flat.sol\":37641:37717  _sgData.fromToken == address(0) ||... */\n      dup1\n      tag_81\n      jumpi\n      pop\n        /* \"StargateFacet_flat.sol\":37715:37716  0 */\n      0x00\n        /* \"StargateFacet_flat.sol\":37688:37717  _sgData.toToken == address(0) */\n      0xffffffffffffffffffffffffffffffffffffffff\n      and\n        /* \"StargateFacet_flat.sol\":37688:37695  _sgData */\n      dup3\n        /* \"StargateFacet_flat.sol\":37688:37703  _sgData.toToken */\n      0x40\n      add\n      mload\n        /* \"StargateFacet_flat.sol\":37688:37717  _sgData.toToken == address(0) */\n      0xffffffffffffffffffffffffffffffffffffffff\n      and\n      eq\n        /* \"StargateFacet_flat.sol\":37641:37717  _sgData.fromToken == address(0) ||... */\n    tag_81:\n        /* \"StargateFacet_flat.sol\":37641:37757  _sgData.fromToken == address(0) ||... */\n      dup1\n      tag_82\n      jumpi\n      pop\n        /* \"StargateFacet_flat.sol\":37755:37756  0 */\n      0x00\n        /* \"StargateFacet_flat.sol\":37733:37757  _sgData.to == address(0) */\n      0xffffffffffffffffffffffffffffffffffffffff\n      and\n        /* \"StargateFacet_flat.sol\":37733:37740  _sgData */\n      dup3\n        /* \"StargateFacet_flat.sol\":37733:37743  _sgData.to */\n      0x80\n      add\n      mload\n        /* \"StargateFacet_flat.sol\":37733:37757  _sgData.to == address(0) */\n      0xffffffffffffffffffffffffffffffffffffffff\n      and\n      eq\n        /* \"StargateFacet_flat.sol\":37641:37757  _sgData.fromToken == address(0) ||... */\n    tag_82:\n        /* \"StargateFacet_flat.sol\":37641:37815  _sgData.fromToken == address(0) ||... */\n      dup1\n      tag_83\n      jumpi\n      pop\n        /* \"StargateFacet_flat.sol\":37813:37814  0 */\n      0x00\n        /* \"StargateFacet_flat.sol\":37773:37815  _sgData.destStargateComposed == address(0) */\n      0xffffffffffffffffffffffffffffffffffffffff\n      and\n        /* \"StargateFacet_flat.sol\":37773:37780  _sgData */\n      dup3\n        /* \"StargateFacet_flat.sol\":37773:37801  _sgData.destStargateComposed */\n      0xa0\n      add\n      mload\n        /* \"StargateFacet_flat.sol\":37773:37815  _sgData.destStargateComposed == address(0) */\n      0xffffffffffffffffffffffffffffffffffffffff\n      and\n      eq\n        /* \"StargateFacet_flat.sol\":37641:37815  _sgData.fromToken == address(0) ||... */\n    tag_83:\n        /* \"StargateFacet_flat.sol\":37624:37848  if (... */\n      iszero\n      tag_84\n      jumpi\n        /* \"StargateFacet_flat.sol\":37833:37848  InvalidConfig() */\n      mload(0x40)\n      0x35be3ac800000000000000000000000000000000000000000000000000000000\n      dup2\n      mstore\n      0x04\n      add\n      mload(0x40)\n      dup1\n      swap2\n      sub\n      swap1\n      revert\n        /* \"StargateFacet_flat.sol\":37624:37848  if (... */\n    tag_84:\n        /* \"StargateFacet_flat.sol\":37885:37902  Storage storage s */\n      0x00\n        /* \"StargateFacet_flat.sol\":37905:37917  getStorage() */\n      tag_85\n        /* \"StargateFacet_flat.sol\":37905:37915  getStorage */\n      tag_86\n        /* \"StargateFacet_flat.sol\":37905:37917  getStorage() */\n      jump\t// in\n    tag_85:\n        /* \"StargateFacet_flat.sol\":37885:37917  Storage storage s = getStorage() */\n      swap1\n      pop\n        /* \"StargateFacet_flat.sol\":37964:37980  uint16 srcPoolId */\n      0x00\n        /* \"StargateFacet_flat.sol\":37983:38029  sgRetrievePoolId(s.chainId, _sgData.fromToken) */\n      tag_87\n        /* \"StargateFacet_flat.sol\":38000:38001  s */\n      dup3\n        /* \"StargateFacet_flat.sol\":38000:38009  s.chainId */\n      0x00\n      add\n      0x14\n      swap1\n      sload\n      swap1\n      0x0100\n      exp\n      swap1\n      div\n      0xffff\n      and\n        /* \"StargateFacet_flat.sol\":38011:38018  _sgData */\n      dup6\n        /* \"StargateFacet_flat.sol\":38011:38028  _sgData.fromToken */\n      0x20\n      add\n      mload\n        /* \"StargateFacet_flat.sol\":37983:37999  sgRetrievePoolId */\n      tag_44\n        /* \"StargateFacet_flat.sol\":37983:38029  sgRetrievePoolId(s.chainId, _sgData.fromToken) */\n      jump\t// in\n    tag_87:\n        /* \"StargateFacet_flat.sol\":37964:38029  uint16 srcPoolId = sgRetrievePoolId(s.chainId, _sgData.fromToken) */\n      swap1\n      pop\n        /* \"StargateFacet_flat.sol\":38056:38057  0 */\n      0x00\n        /* \"StargateFacet_flat.sol\":38043:38052  srcPoolId */\n      dup2\n        /* \"StargateFacet_flat.sol\":38043:38057  srcPoolId == 0 */\n      0xffff\n      and\n      eq\n        /* \"StargateFacet_flat.sol\":38039:38087  if (srcPoolId == 0) revert InvalidSourcePoolId() */\n      iszero\n      tag_88\n      jumpi\n        /* \"StargateFacet_flat.sol\":38066:38087  InvalidSourcePoolId() */\n      mload(0x40)\n      0x7790ca9900000000000000000000000000000000000000000000000000000000\n      dup2\n      mstore\n      0x04\n      add\n      mload(0x40)\n      dup1\n      swap2\n      sub\n      swap1\n      revert\n        /* \"StargateFacet_flat.sol\":38039:38087  if (srcPoolId == 0) revert InvalidSourcePoolId() */\n    tag_88:\n        /* \"StargateFacet_flat.sol\":38097:38113  uint16 dstPoolId */\n      0x00\n        /* \"StargateFacet_flat.sol\":38116:38203  sgRetrievePoolId(... */\n      tag_89\n        /* \"StargateFacet_flat.sol\":38146:38153  _sgData */\n      dup6\n        /* \"StargateFacet_flat.sol\":38146:38164  _sgData.dstChainId */\n      0x60\n      add\n      mload\n        /* \"StargateFacet_flat.sol\":38178:38185  _sgData */\n      dup7\n        /* \"StargateFacet_flat.sol\":38178:38193  _sgData.toToken */\n      0x40\n      add\n      mload\n        /* \"StargateFacet_flat.sol\":38116:38132  sgRetrievePoolId */\n      tag_44\n        /* \"StargateFacet_flat.sol\":38116:38203  sgRetrievePoolId(... */\n      jump\t// in\n    tag_89:\n        /* \"StargateFacet_flat.sol\":38097:38203  uint16 dstPoolId = sgRetrievePoolId(... */\n      swap1\n      pop\n        /* \"StargateFacet_flat.sol\":38252:38264  uint256 fees */\n      0x00\n        /* \"StargateFacet_flat.sol\":38267:38378  sgCalculateFees(... */\n      tag_90\n        /* \"StargateFacet_flat.sol\":38296:38303  _sgData */\n      dup7\n        /* \"StargateFacet_flat.sol\":38296:38314  _sgData.dstChainId */\n      0x60\n      add\n      mload\n        /* \"StargateFacet_flat.sol\":38328:38335  _sgData */\n      dup8\n        /* \"StargateFacet_flat.sol\":38328:38338  _sgData.to */\n      0x80\n      add\n      mload\n        /* \"StargateFacet_flat.sol\":38352:38353  s */\n      dup7\n        /* \"StargateFacet_flat.sol\":38352:38368  s.stargateRouter */\n      0x00\n      add\n      0x00\n      swap1\n      sload\n      swap1\n      0x0100\n      exp\n      swap1\n      div\n      0xffffffffffffffffffffffffffffffffffffffff\n      and\n        /* \"StargateFacet_flat.sol\":38267:38282  sgCalculateFees */\n      tag_37\n        /* \"StargateFacet_flat.sol\":38267:38378  sgCalculateFees(... */\n      jump\t// in\n    tag_90:\n        /* \"StargateFacet_flat.sol\":38252:38378  uint256 fees = sgCalculateFees(... */\n      swap1\n      pop\n        /* \"StargateFacet_flat.sol\":38419:38439  uint256 minAmountOut */\n      0x00\n        /* \"StargateFacet_flat.sol\":38442:38469  sgMinAmountOut(_sgData.qty) */\n      tag_91\n        /* \"StargateFacet_flat.sol\":38457:38464  _sgData */\n      dup8\n        /* \"StargateFacet_flat.sol\":38457:38468  _sgData.qty */\n      0x00\n      add\n      mload\n        /* \"StargateFacet_flat.sol\":38442:38456  sgMinAmountOut */\n      tag_60\n        /* \"StargateFacet_flat.sol\":38442:38469  sgMinAmountOut(_sgData.qty) */\n      jump\t// in\n    tag_91:\n        /* \"StargateFacet_flat.sol\":38419:38469  uint256 minAmountOut = sgMinAmountOut(_sgData.qty) */\n      swap1\n      pop\n        /* \"StargateFacet_flat.sol\":38520:38544  bytes memory destination */\n      0x00\n        /* \"StargateFacet_flat.sol\":38577:38584  _sgData */\n      dup8\n        /* \"StargateFacet_flat.sol\":38577:38605  _sgData.destStargateComposed */\n      0xa0\n      add\n      mload\n        /* \"StargateFacet_flat.sol\":38547:38615  abi.encodePacked(... */\n      add(0x20, mload(0x40))\n      tag_92\n      swap2\n      swap1\n      tag_93\n      jump\t// in\n    tag_92:\n      mload(0x40)\n      0x20\n      dup2\n      dup4\n      sub\n      sub\n      dup2\n      mstore\n      swap1\n      0x40\n      mstore\n        /* \"StargateFacet_flat.sol\":38520:38615  bytes memory destination = abi.encodePacked(... */\n      swap1\n      pop\n        /* \"StargateFacet_flat.sol\":38728:38748  bytes memory payload */\n      0x00\n        /* \"StargateFacet_flat.sol\":38762:38769  _sgData */\n      dup9\n        /* \"StargateFacet_flat.sol\":38762:38772  _sgData.to */\n      0x80\n      add\n      mload\n        /* \"StargateFacet_flat.sol\":38751:38773  abi.encode(_sgData.to) */\n      add(0x20, mload(0x40))\n      tag_94\n      swap2\n      swap1\n      tag_95\n      jump\t// in\n    tag_94:\n      mload(0x40)\n      0x20\n      dup2\n      dup4\n      sub\n      sub\n      dup2\n      mstore\n      swap1\n      0x40\n      mstore\n        /* \"StargateFacet_flat.sol\":38728:38773  bytes memory payload = abi.encode(_sgData.to) */\n      swap1\n      pop\n        /* \"StargateFacet_flat.sol\":38831:38959  IERC20(_sgData.fromToken).safeTransferFrom(... */\n      tag_96\n        /* \"StargateFacet_flat.sol\":38887:38897  msg.sender */\n      caller\n        /* \"StargateFacet_flat.sol\":38919:38923  this */\n      address\n        /* \"StargateFacet_flat.sol\":38938:38945  _sgData */\n      dup12\n        /* \"StargateFacet_flat.sol\":38938:38949  _sgData.qty */\n      0x00\n      add\n      mload\n        /* \"StargateFacet_flat.sol\":38838:38845  _sgData */\n      dup13\n        /* \"StargateFacet_flat.sol\":38838:38855  _sgData.fromToken */\n      0x20\n      add\n      mload\n        /* \"StargateFacet_flat.sol\":38831:38873  IERC20(_sgData.fromToken).safeTransferFrom */\n      0xffffffffffffffffffffffffffffffffffffffff\n      and\n      tag_97\n      swap1\n        /* \"StargateFacet_flat.sol\":38831:38959  IERC20(_sgData.fromToken).safeTransferFrom(... */\n      swap4\n      swap3\n      swap2\n      swap1\n      0xffffffff\n      and\n      jump\t// in\n    tag_96:\n        /* \"StargateFacet_flat.sol\":38970:39081  IERC20(_sgData.fromToken).safeApprove(... */\n      tag_98\n        /* \"StargateFacet_flat.sol\":39029:39030  s */\n      dup8\n        /* \"StargateFacet_flat.sol\":39029:39045  s.stargateRouter */\n      0x00\n      add\n      0x00\n      swap1\n      sload\n      swap1\n      0x0100\n      exp\n      swap1\n      div\n      0xffffffffffffffffffffffffffffffffffffffff\n      and\n        /* \"StargateFacet_flat.sol\":39060:39067  _sgData */\n      dup11\n        /* \"StargateFacet_flat.sol\":39060:39071  _sgData.qty */\n      0x00\n      add\n      mload\n        /* \"StargateFacet_flat.sol\":38977:38984  _sgData */\n      dup12\n        /* \"StargateFacet_flat.sol\":38977:38994  _sgData.fromToken */\n      0x20\n      add\n      mload\n        /* \"StargateFacet_flat.sol\":38970:39007  IERC20(_sgData.fromToken).safeApprove */\n      0xffffffffffffffffffffffffffffffffffffffff\n      and\n      tag_99\n      swap1\n        /* \"StargateFacet_flat.sol\":38970:39081  IERC20(_sgData.fromToken).safeApprove(... */\n      swap3\n      swap2\n      swap1\n      0xffffffff\n      and\n      jump\t// in\n    tag_98:\n        /* \"StargateFacet_flat.sol\":39196:39197  s */\n      dup7\n        /* \"StargateFacet_flat.sol\":39196:39212  s.stargateRouter */\n      0x00\n      add\n      0x00\n      swap1\n      sload\n      swap1\n      0x0100\n      exp\n      swap1\n      div\n      0xffffffffffffffffffffffffffffffffffffffff\n      and\n        /* \"StargateFacet_flat.sol\":39180:39218  IStargateRouter(s.stargateRouter).swap */\n      0xffffffffffffffffffffffffffffffffffffffff\n      and\n      0x9fbf10fc\n        /* \"StargateFacet_flat.sol\":39226:39230  fees */\n      dup6\n        /* \"StargateFacet_flat.sol\":39245:39252  _sgData */\n      dup12\n        /* \"StargateFacet_flat.sol\":39245:39263  _sgData.dstChainId */\n      0x60\n      add\n      mload\n        /* \"StargateFacet_flat.sol\":39305:39314  srcPoolId */\n      dup10\n        /* \"StargateFacet_flat.sol\":39358:39367  dstPoolId */\n      dup10\n        /* \"StargateFacet_flat.sol\":39424:39434  msg.sender */\n      caller\n        /* \"StargateFacet_flat.sol\":39519:39526  _sgData */\n      dup16\n        /* \"StargateFacet_flat.sol\":39519:39530  _sgData.qty */\n      0x00\n      add\n      mload\n        /* \"StargateFacet_flat.sol\":39589:39601  minAmountOut */\n      dup11\n        /* \"StargateFacet_flat.sol\":39641:39681  IStargateRouter.lzTxObj(200000, 0, \"0x\") */\n      mload(0x40)\n      dup1\n      0x60\n      add\n      0x40\n      mstore\n      dup1\n        /* \"StargateFacet_flat.sol\":39665:39671  200000 */\n      0x030d40\n        /* \"StargateFacet_flat.sol\":39641:39681  IStargateRouter.lzTxObj(200000, 0, \"0x\") */\n      dup2\n      mstore\n      0x20\n      add\n        /* \"StargateFacet_flat.sol\":39673:39674  0 */\n      0x00\n        /* \"StargateFacet_flat.sol\":39641:39681  IStargateRouter.lzTxObj(200000, 0, \"0x\") */\n      dup2\n      mstore\n      0x20\n      add\n      mload(0x40)\n      dup1\n      0x40\n      add\n      0x40\n      mstore\n      dup1\n      0x02\n      dup2\n      mstore\n      0x20\n      add\n      0x3078000000000000000000000000000000000000000000000000000000000000\n      dup2\n      mstore\n      pop\n      dup2\n      mstore\n      pop\n        /* \"StargateFacet_flat.sol\":39714:39725  destination */\n      dup12\n        /* \"StargateFacet_flat.sol\":39791:39798  payload */\n      dup12\n        /* \"StargateFacet_flat.sol\":39180:39825  IStargateRouter(s.stargateRouter).swap{value: fees}(... */\n      mload(0x40)\n      dup12\n      0xffffffff\n      and\n      0xe0\n      shl\n      dup2\n      mstore\n      0x04\n      add\n      tag_100\n      swap10\n      swap9\n      swap8\n      swap7\n      swap6\n      swap5\n      swap4\n      swap3\n      swap2\n      swap1\n      tag_101\n      jump\t// in\n    tag_100:\n      0x00\n      mload(0x40)\n      dup1\n      dup4\n      sub\n      dup2\n      dup6\n      dup9\n      dup1\n      extcodesize\n      iszero\n      dup1\n      iszero\n      tag_102\n      jumpi\n      0x00\n      dup1\n      revert\n    tag_102:\n      pop\n      gas\n      call\n      iszero\n      dup1\n      iszero\n      tag_104\n      jumpi\n      returndatasize\n      0x00\n      dup1\n      returndatacopy\n      revert(0x00, returndatasize)\n    tag_104:\n      pop\n      pop\n      pop\n      pop\n      pop\n        /* \"StargateFacet_flat.sol\":39841:40057  SGTransferStarted(... */\n      0x7a72e6f4a3d77f8a5a6c536a973421c5bf00107f9aec7995661537673b8be087\n        /* \"StargateFacet_flat.sol\":39896:39903  _sgData */\n      dup10\n        /* \"StargateFacet_flat.sol\":39896:39913  _sgData.fromToken */\n      0x20\n      add\n      mload\n        /* \"StargateFacet_flat.sol\":39927:39934  _sgData */\n      dup11\n        /* \"StargateFacet_flat.sol\":39927:39942  _sgData.toToken */\n      0x40\n      add\n      mload\n        /* \"StargateFacet_flat.sol\":39956:39966  msg.sender */\n      caller\n        /* \"StargateFacet_flat.sol\":39980:39987  _sgData */\n      dup13\n        /* \"StargateFacet_flat.sol\":39980:39990  _sgData.to */\n      0x80\n      add\n      mload\n        /* \"StargateFacet_flat.sol\":40004:40011  _sgData */\n      dup14\n        /* \"StargateFacet_flat.sol\":40004:40015  _sgData.qty */\n      0x00\n      add\n      mload\n        /* \"StargateFacet_flat.sol\":40029:40036  _sgData */\n      dup15\n        /* \"StargateFacet_flat.sol\":40029:40047  _sgData.dstChainId */\n      0x60\n      add\n      mload\n        /* \"StargateFacet_flat.sol\":39841:40057  SGTransferStarted(... */\n      mload(0x40)\n      tag_105\n      swap7\n      swap6\n      swap5\n      swap4\n      swap3\n      swap2\n      swap1\n      tag_106\n      jump\t// in\n    tag_105:\n      mload(0x40)\n      dup1\n      swap2\n      sub\n      swap1\n      log1\n        /* \"StargateFacet_flat.sol\":13161:13162  _ */\n      pop\n      pop\n      pop\n      pop\n      pop\n      pop\n      pop\n        /* \"StargateFacet_flat.sol\":12725:12726  0 */\n      0x00\n        /* \"StargateFacet_flat.sol\":13172:13173  s */\n      dup2\n        /* \"StargateFacet_flat.sol\":13172:13180  s.status */\n      0x00\n      add\n        /* \"StargateFacet_flat.sol\":13172:13195  s.status = _NOT_ENTERED */\n      dup2\n      swap1\n      sstore\n      pop\n        /* \"StargateFacet_flat.sol\":37377:40064  function sgBridgeTokens(StargateData memory _sgData)... */\n      pop\n      pop\n      jump\t// out\n        /* \"StargateFacet_flat.sol\":42596:42846  function sgUpdateSlippageTolerance(uint256 _newSlippage) external {... */\n    tag_25:\n        /* \"StargateFacet_flat.sol\":42672:42707  LibDiamond.enforceIsContractOwner() */\n      tag_108\n        /* \"StargateFacet_flat.sol\":42672:42705  LibDiamond.enforceIsContractOwner */\n      tag_109\n        /* \"StargateFacet_flat.sol\":42672:42707  LibDiamond.enforceIsContractOwner() */\n      jump\t// in\n    tag_108:\n        /* \"StargateFacet_flat.sol\":42717:42734  Storage storage s */\n      0x00\n        /* \"StargateFacet_flat.sol\":42737:42749  getStorage() */\n      tag_110\n        /* \"StargateFacet_flat.sol\":42737:42747  getStorage */\n      tag_86\n        /* \"StargateFacet_flat.sol\":42737:42749  getStorage() */\n      jump\t// in\n    tag_110:\n        /* \"StargateFacet_flat.sol\":42717:42749  Storage storage s = getStorage() */\n      swap1\n      pop\n        /* \"StargateFacet_flat.sol\":42772:42784  _newSlippage */\n      dup2\n        /* \"StargateFacet_flat.sol\":42759:42760  s */\n      dup2\n        /* \"StargateFacet_flat.sol\":42759:42769  s.slippage */\n      0x02\n      add\n        /* \"StargateFacet_flat.sol\":42759:42784  s.slippage = _newSlippage */\n      dup2\n      swap1\n      sstore\n      pop\n        /* \"StargateFacet_flat.sol\":42799:42839  SGUpdatedSlippageTolerance(_newSlippage) */\n      0x45934903f6b10aff9d3435b8362d284d95d14ca68e8554f05f04c7856a6003c0\n        /* \"StargateFacet_flat.sol\":42826:42838  _newSlippage */\n      dup3\n        /* \"StargateFacet_flat.sol\":42799:42839  SGUpdatedSlippageTolerance(_newSlippage) */\n      mload(0x40)\n      tag_111\n      swap2\n      swap1\n      tag_39\n      jump\t// in\n    tag_111:\n      mload(0x40)\n      dup1\n      swap2\n      sub\n      swap1\n      log1\n        /* \"StargateFacet_flat.sol\":42596:42846  function sgUpdateSlippageTolerance(uint256 _newSlippage) external {... */\n      pop\n      pop\n      jump\t// out\n        /* \"StargateFacet_flat.sol\":44177:44425  function sgCheckPoolId(... */\n    tag_30:\n        /* \"StargateFacet_flat.sol\":44300:44304  bool */\n      0x00\n        /* \"StargateFacet_flat.sol\":44316:44333  Storage storage s */\n      dup1\n        /* \"StargateFacet_flat.sol\":44336:44348  getStorage() */\n      tag_113\n        /* \"StargateFacet_flat.sol\":44336:44346  getStorage */\n      tag_86\n        /* \"StargateFacet_flat.sol\":44336:44348  getStorage() */\n      jump\t// in\n    tag_113:\n        /* \"StargateFacet_flat.sol\":44316:44348  Storage storage s = getStorage() */\n      swap1\n      pop\n        /* \"StargateFacet_flat.sol\":44396:44403  _poolId */\n      dup3\n        /* \"StargateFacet_flat.sol\":44365:44403  s.poolIds[_chainId][_token] == _poolId */\n      0xffff\n      and\n        /* \"StargateFacet_flat.sol\":44365:44366  s */\n      dup2\n        /* \"StargateFacet_flat.sol\":44365:44374  s.poolIds */\n      0x03\n      add\n        /* \"StargateFacet_flat.sol\":44365:44384  s.poolIds[_chainId] */\n      0x00\n        /* \"StargateFacet_flat.sol\":44375:44383  _chainId */\n      dup8\n        /* \"StargateFacet_flat.sol\":44365:44384  s.poolIds[_chainId] */\n      0xffff\n      and\n      0xffff\n      and\n      dup2\n      mstore\n      0x20\n      add\n      swap1\n      dup2\n      mstore\n      0x20\n      add\n      0x00\n      keccak256\n        /* \"StargateFacet_flat.sol\":44365:44392  s.poolIds[_chainId][_token] */\n      0x00\n        /* \"StargateFacet_flat.sol\":44385:44391  _token */\n      dup7\n        /* \"StargateFacet_flat.sol\":44365:44392  s.poolIds[_chainId][_token] */\n      0xffffffffffffffffffffffffffffffffffffffff\n      and\n      0xffffffffffffffffffffffffffffffffffffffff\n      and\n      dup2\n      mstore\n      0x20\n      add\n      swap1\n      dup2\n      mstore\n      0x20\n      add\n      0x00\n      keccak256\n      0x00\n      swap1\n      sload\n      swap1\n      0x0100\n      exp\n      swap1\n      div\n      0xffff\n      and\n        /* \"StargateFacet_flat.sol\":44365:44403  s.poolIds[_chainId][_token] == _poolId */\n      0xffff\n      and\n      eq\n        /* \"StargateFacet_flat.sol\":44365:44418  s.poolIds[_chainId][_token] == _poolId ? true : false */\n      tag_114\n      jumpi\n        /* \"StargateFacet_flat.sol\":44413:44418  false */\n      0x00\n        /* \"StargateFacet_flat.sol\":44365:44418  s.poolIds[_chainId][_token] == _poolId ? true : false */\n      jump(tag_115)\n    tag_114:\n        /* \"StargateFacet_flat.sol\":44406:44410  true */\n      0x01\n        /* \"StargateFacet_flat.sol\":44365:44418  s.poolIds[_chainId][_token] == _poolId ? true : false */\n    tag_115:\n        /* \"StargateFacet_flat.sol\":44358:44418  return s.poolIds[_chainId][_token] == _poolId ? true : false */\n      swap2\n      pop\n      pop\n        /* \"StargateFacet_flat.sol\":44177:44425  function sgCheckPoolId(... */\n      swap4\n      swap3\n      pop\n      pop\n      pop\n      jump\t// out\n        /* \"StargateFacet_flat.sol\":41205:41716  function sgCalculateFees(... */\n    tag_37:\n        /* \"StargateFacet_flat.sol\":41336:41343  uint256 */\n      0x00\n        /* \"StargateFacet_flat.sol\":41356:41373  uint256 nativeFee */\n      dup1\n        /* \"StargateFacet_flat.sol\":41395:41402  _router */\n      dup3\n        /* \"StargateFacet_flat.sol\":41379:41421  IStargateRouter(_router).quoteLayerZeroFee */\n      0xffffffffffffffffffffffffffffffffffffffff\n      and\n      0x0a512369\n        /* \"StargateFacet_flat.sol\":41435:41445  _destChain */\n      dup7\n        /* \"StargateFacet_flat.sol\":41483:41484  1 */\n      0x01\n        /* \"StargateFacet_flat.sol\":41527:41536  _receiver */\n      dup8\n        /* \"StargateFacet_flat.sol\":41510:41537  abi.encodePacked(_receiver) */\n      add(0x20, mload(0x40))\n      tag_117\n      swap2\n      swap1\n      tag_93\n      jump\t// in\n    tag_117:\n      mload(0x40)\n      0x20\n      dup2\n      dup4\n      sub\n      sub\n      dup2\n      mstore\n      swap1\n      0x40\n      mstore\n        /* \"StargateFacet_flat.sol\":41633:41673  IStargateRouter.lzTxObj(200000, 0, \"0x\") */\n      mload(0x40)\n      dup1\n      0x60\n      add\n      0x40\n      mstore\n      dup1\n        /* \"StargateFacet_flat.sol\":41657:41663  200000 */\n      0x030d40\n        /* \"StargateFacet_flat.sol\":41633:41673  IStargateRouter.lzTxObj(200000, 0, \"0x\") */\n      dup2\n      mstore\n      0x20\n      add\n        /* \"StargateFacet_flat.sol\":41665:41666  0 */\n      0x00\n        /* \"StargateFacet_flat.sol\":41633:41673  IStargateRouter.lzTxObj(200000, 0, \"0x\") */\n      dup2\n      mstore\n      0x20\n      add\n      mload(0x40)\n      dup1\n      0x40\n      add\n      0x40\n      mstore\n      dup1\n      0x02\n      dup2\n      mstore\n      0x20\n      add\n      0x3078000000000000000000000000000000000000000000000000000000000000\n      dup2\n      mstore\n      pop\n      dup2\n      mstore\n      pop\n        /* \"StargateFacet_flat.sol\":41379:41683  IStargateRouter(_router).quoteLayerZeroFee(... */\n      mload(0x40)\n      dup6\n      0xffffffff\n      and\n      0xe0\n      shl\n      dup2\n      mstore\n      0x04\n      add\n      tag_118\n      swap5\n      swap4\n      swap3\n      swap2\n      swap1\n      tag_119\n      jump\t// in\n    tag_118:\n      0x40\n      dup1\n      mload\n      dup1\n      dup4\n      sub\n      dup2\n      dup7\n      dup1\n      extcodesize\n      iszero\n      dup1\n      iszero\n      tag_120\n      jumpi\n      0x00\n      dup1\n      revert\n    tag_120:\n      pop\n      gas\n      staticcall\n      iszero\n      dup1\n      iszero\n      tag_122\n      jumpi\n      returndatasize\n      0x00\n      dup1\n      returndatacopy\n      revert(0x00, returndatasize)\n    tag_122:\n      pop\n      pop\n      pop\n      pop\n      mload(0x40)\n      returndatasize\n      not(0x1f)\n      0x1f\n      dup3\n      add\n      and\n      dup3\n      add\n      dup1\n      0x40\n      mstore\n      pop\n      dup2\n      add\n      swap1\n      tag_123\n      swap2\n      swap1\n      tag_124\n      jump\t// in\n    tag_123:\n        /* \"StargateFacet_flat.sol\":41355:41683  (uint256 nativeFee, ) = IStargateRouter(_router).quoteLayerZeroFee(... */\n      pop\n      swap1\n      pop\n        /* \"StargateFacet_flat.sol\":41700:41709  nativeFee */\n      dup1\n        /* \"StargateFacet_flat.sol\":41693:41709  return nativeFee */\n      swap2\n      pop\n      pop\n        /* \"StargateFacet_flat.sol\":41205:41716  function sgCalculateFees(... */\n      swap4\n      swap3\n      pop\n      pop\n      pop\n      jump\t// out\n        /* \"StargateFacet_flat.sol\":44635:44844  function sgRetrievePoolId(uint16 _chainId, address _token)... */\n    tag_44:\n        /* \"StargateFacet_flat.sol\":44739:44745  uint16 */\n      0x00\n        /* \"StargateFacet_flat.sol\":44761:44778  Storage storage s */\n      dup1\n        /* \"StargateFacet_flat.sol\":44781:44793  getStorage() */\n      tag_126\n        /* \"StargateFacet_flat.sol\":44781:44791  getStorage */\n      tag_86\n        /* \"StargateFacet_flat.sol\":44781:44793  getStorage() */\n      jump\t// in\n    tag_126:\n        /* \"StargateFacet_flat.sol\":44761:44793  Storage storage s = getStorage() */\n      swap1\n      pop\n        /* \"StargateFacet_flat.sol\":44810:44811  s */\n      dup1\n        /* \"StargateFacet_flat.sol\":44810:44819  s.poolIds */\n      0x03\n      add\n        /* \"StargateFacet_flat.sol\":44810:44829  s.poolIds[_chainId] */\n      0x00\n        /* \"StargateFacet_flat.sol\":44820:44828  _chainId */\n      dup6\n        /* \"StargateFacet_flat.sol\":44810:44829  s.poolIds[_chainId] */\n      0xffff\n      and\n      0xffff\n      and\n      dup2\n      mstore\n      0x20\n      add\n      swap1\n      dup2\n      mstore\n      0x20\n      add\n      0x00\n      keccak256\n        /* \"StargateFacet_flat.sol\":44810:44837  s.poolIds[_chainId][_token] */\n      0x00\n        /* \"StargateFacet_flat.sol\":44830:44836  _token */\n      dup5\n        /* \"StargateFacet_flat.sol\":44810:44837  s.poolIds[_chainId][_token] */\n      0xffffffffffffffffffffffffffffffffffffffff\n      and\n      0xffffffffffffffffffffffffffffffffffffffff\n      and\n      dup2\n      mstore\n      0x20\n      add\n      swap1\n      dup2\n      mstore\n      0x20\n      add\n      0x00\n      keccak256\n      0x00\n      swap1\n      sload\n      swap1\n      0x0100\n      exp\n      swap1\n      div\n      0xffff\n      and\n        /* \"StargateFacet_flat.sol\":44803:44837  return s.poolIds[_chainId][_token] */\n      swap2\n      pop\n      pop\n        /* \"StargateFacet_flat.sol\":44635:44844  function sgRetrievePoolId(uint16 _chainId, address _token)... */\n      swap3\n      swap2\n      pop\n      pop\n      jump\t// out\n        /* \"StargateFacet_flat.sol\":35908:37222  function sgInitialize(address _stargateRouter, uint16 _chainId) external {... */\n    tag_51:\n        /* \"StargateFacet_flat.sol\":36022:36023  0 */\n      0x00\n        /* \"StargateFacet_flat.sol\":35995:36024  _stargateRouter == address(0) */\n      0xffffffffffffffffffffffffffffffffffffffff\n      and\n        /* \"StargateFacet_flat.sol\":35995:36010  _stargateRouter */\n      dup3\n        /* \"StargateFacet_flat.sol\":35995:36024  _stargateRouter == address(0) */\n      0xffffffffffffffffffffffffffffffffffffffff\n      and\n      eq\n        /* \"StargateFacet_flat.sol\":35991:36048  if (_stargateRouter == address(0)) revert InvalidConfig() */\n      iszero\n      tag_128\n      jumpi\n        /* \"StargateFacet_flat.sol\":36033:36048  InvalidConfig() */\n      mload(0x40)\n      0x35be3ac800000000000000000000000000000000000000000000000000000000\n      dup2\n      mstore\n      0x04\n      add\n      mload(0x40)\n      dup1\n      swap2\n      sub\n      swap1\n      revert\n        /* \"StargateFacet_flat.sol\":35991:36048  if (_stargateRouter == address(0)) revert InvalidConfig() */\n    tag_128:\n        /* \"StargateFacet_flat.sol\":36058:36093  LibDiamond.enforceIsContractOwner() */\n      tag_129\n        /* \"StargateFacet_flat.sol\":36058:36091  LibDiamond.enforceIsContractOwner */\n      tag_109\n        /* \"StargateFacet_flat.sol\":36058:36093  LibDiamond.enforceIsContractOwner() */\n      jump\t// in\n    tag_129:\n        /* \"StargateFacet_flat.sol\":36103:36120  Storage storage s */\n      0x00\n        /* \"StargateFacet_flat.sol\":36123:36135  getStorage() */\n      tag_130\n        /* \"StargateFacet_flat.sol\":36123:36133  getStorage */\n      tag_86\n        /* \"StargateFacet_flat.sol\":36123:36135  getStorage() */\n      jump\t// in\n    tag_130:\n        /* \"StargateFacet_flat.sol\":36103:36135  Storage storage s = getStorage() */\n      swap1\n      pop\n        /* \"StargateFacet_flat.sol\":36172:36187  _stargateRouter */\n      dup3\n        /* \"StargateFacet_flat.sol\":36145:36146  s */\n      dup2\n        /* \"StargateFacet_flat.sol\":36145:36161  s.stargateRouter */\n      0x00\n      add\n      0x00\n        /* \"StargateFacet_flat.sol\":36145:36188  s.stargateRouter = address(_stargateRouter) */\n      0x0100\n      exp\n      dup2\n      sload\n      dup2\n      0xffffffffffffffffffffffffffffffffffffffff\n      mul\n      not\n      and\n      swap1\n      dup4\n      0xffffffffffffffffffffffffffffffffffffffff\n      and\n      mul\n      or\n      swap1\n      sstore\n      pop\n        /* \"StargateFacet_flat.sol\":36210:36218  _chainId */\n      dup2\n        /* \"StargateFacet_flat.sol\":36198:36199  s */\n      dup2\n        /* \"StargateFacet_flat.sol\":36198:36207  s.chainId */\n      0x00\n      add\n      0x14\n        /* \"StargateFacet_flat.sol\":36198:36218  s.chainId = _chainId */\n      0x0100\n      exp\n      dup2\n      sload\n      dup2\n      0xffff\n      mul\n      not\n      and\n      swap1\n      dup4\n      0xffff\n      and\n      mul\n      or\n      swap1\n      sstore\n      pop\n        /* \"StargateFacet_flat.sol\":36241:36243  50 */\n      0x32\n        /* \"StargateFacet_flat.sol\":36228:36229  s */\n      dup2\n        /* \"StargateFacet_flat.sol\":36228:36238  s.slippage */\n      0x02\n      add\n        /* \"StargateFacet_flat.sol\":36228:36243  s.slippage = 50 */\n      dup2\n      swap1\n      sstore\n      pop\n        /* \"StargateFacet_flat.sol\":36338:36397  sgAddPool(1, 0xA0b86991c6218b36c1d19D4a2e9Eb0cE3606eB48, 1) */\n      tag_131\n        /* \"StargateFacet_flat.sol\":36348:36349  1 */\n      0x01\n        /* \"StargateFacet_flat.sol\":36351:36393  0xA0b86991c6218b36c1d19D4a2e9Eb0cE3606eB48 */\n      0xa0b86991c6218b36c1d19d4a2e9eb0ce3606eb48\n        /* \"StargateFacet_flat.sol\":36395:36396  1 */\n      0x01\n        /* \"StargateFacet_flat.sol\":36338:36347  sgAddPool */\n      tag_70\n        /* \"StargateFacet_flat.sol\":36338:36397  sgAddPool(1, 0xA0b86991c6218b36c1d19D4a2e9Eb0cE3606eB48, 1) */\n      jump\t// in\n    tag_131:\n        /* \"StargateFacet_flat.sol\":36407:36466  sgAddPool(1, 0xdAC17F958D2ee523a2206206994597C13D831ec7, 2) */\n      tag_132\n        /* \"StargateFacet_flat.sol\":36417:36418  1 */\n      0x01\n        /* \"StargateFacet_flat.sol\":36420:36462  0xdAC17F958D2ee523a2206206994597C13D831ec7 */\n      0xdac17f958d2ee523a2206206994597c13d831ec7\n        /* \"StargateFacet_flat.sol\":36464:36465  2 */\n      0x02\n        /* \"StargateFacet_flat.sol\":36407:36416  sgAddPool */\n      tag_70\n        /* \"StargateFacet_flat.sol\":36407:36466  sgAddPool(1, 0xdAC17F958D2ee523a2206206994597C13D831ec7, 2) */\n      jump\t// in\n    tag_132:\n        /* \"StargateFacet_flat.sol\":36476:36535  sgAddPool(2, 0x55d398326f99059fF775485246999027B3197955, 2) */\n      tag_133\n        /* \"StargateFacet_flat.sol\":36486:36487  2 */\n      0x02\n        /* \"StargateFacet_flat.sol\":36489:36531  0x55d398326f99059fF775485246999027B3197955 */\n      0x55d398326f99059ff775485246999027b3197955\n        /* \"StargateFacet_flat.sol\":36533:36534  2 */\n      0x02\n        /* \"StargateFacet_flat.sol\":36476:36485  sgAddPool */\n      tag_70\n        /* \"StargateFacet_flat.sol\":36476:36535  sgAddPool(2, 0x55d398326f99059fF775485246999027B3197955, 2) */\n      jump\t// in\n    tag_133:\n        /* \"StargateFacet_flat.sol\":36545:36604  sgAddPool(2, 0xe9e7CEA3DedcA5984780Bafc599bD69ADd087D56, 5) */\n      tag_134\n        /* \"StargateFacet_flat.sol\":36555:36556  2 */\n      0x02\n        /* \"StargateFacet_flat.sol\":36558:36600  0xe9e7CEA3DedcA5984780Bafc599bD69ADd087D56 */\n      0xe9e7cea3dedca5984780bafc599bd69add087d56\n        /* \"StargateFacet_flat.sol\":36602:36603  5 */\n      0x05\n        /* \"StargateFacet_flat.sol\":36545:36554  sgAddPool */\n      tag_70\n        /* \"StargateFacet_flat.sol\":36545:36604  sgAddPool(2, 0xe9e7CEA3DedcA5984780Bafc599bD69ADd087D56, 5) */\n      jump\t// in\n    tag_134:\n        /* \"StargateFacet_flat.sol\":36614:36673  sgAddPool(6, 0xB97EF9Ef8734C71904D8002F8b6Bc66Dd9c48a6E, 1) */\n      tag_135\n        /* \"StargateFacet_flat.sol\":36624:36625  6 */\n      0x06\n        /* \"StargateFacet_flat.sol\":36627:36669  0xB97EF9Ef8734C71904D8002F8b6Bc66Dd9c48a6E */\n      0xb97ef9ef8734c71904d8002f8b6bc66dd9c48a6e\n        /* \"StargateFacet_flat.sol\":36671:36672  1 */\n      0x01\n        /* \"StargateFacet_flat.sol\":36614:36623  sgAddPool */\n      tag_70\n        /* \"StargateFacet_flat.sol\":36614:36673  sgAddPool(6, 0xB97EF9Ef8734C71904D8002F8b6Bc66Dd9c48a6E, 1) */\n      jump\t// in\n    tag_135:\n        /* \"StargateFacet_flat.sol\":36683:36742  sgAddPool(6, 0x9702230A8Ea53601f5cD2dc00fDBc13d4dF4A8c7, 2) */\n      tag_136\n        /* \"StargateFacet_flat.sol\":36693:36694  6 */\n      0x06\n        /* \"StargateFacet_flat.sol\":36696:36738  0x9702230A8Ea53601f5cD2dc00fDBc13d4dF4A8c7 */\n      0x9702230a8ea53601f5cd2dc00fdbc13d4df4a8c7\n        /* \"StargateFacet_flat.sol\":36740:36741  2 */\n      0x02\n        /* \"StargateFacet_flat.sol\":36683:36692  sgAddPool */\n      tag_70\n        /* \"StargateFacet_flat.sol\":36683:36742  sgAddPool(6, 0x9702230A8Ea53601f5cD2dc00fDBc13d4dF4A8c7, 2) */\n      jump\t// in\n    tag_136:\n        /* \"StargateFacet_flat.sol\":36752:36811  sgAddPool(9, 0x2791Bca1f2de4661ED88A30C99A7a9449Aa84174, 1) */\n      tag_137\n        /* \"StargateFacet_flat.sol\":36762:36763  9 */\n      0x09\n        /* \"StargateFacet_flat.sol\":36765:36807  0x2791Bca1f2de4661ED88A30C99A7a9449Aa84174 */\n      0x2791bca1f2de4661ed88a30c99a7a9449aa84174\n        /* \"StargateFacet_flat.sol\":36809:36810  1 */\n      0x01\n        /* \"StargateFacet_flat.sol\":36752:36761  sgAddPool */\n      tag_70\n        /* \"StargateFacet_flat.sol\":36752:36811  sgAddPool(9, 0x2791Bca1f2de4661ED88A30C99A7a9449Aa84174, 1) */\n      jump\t// in\n    tag_137:\n        /* \"StargateFacet_flat.sol\":36821:36880  sgAddPool(9, 0xc2132D05D31c914a87C6611C10748AEb04B58e8F, 2) */\n      tag_138\n        /* \"StargateFacet_flat.sol\":36831:36832  9 */\n      0x09\n        /* \"StargateFacet_flat.sol\":36834:36876  0xc2132D05D31c914a87C6611C10748AEb04B58e8F */\n      0xc2132d05d31c914a87c6611c10748aeb04b58e8f\n        /* \"StargateFacet_flat.sol\":36878:36879  2 */\n      0x02\n        /* \"StargateFacet_flat.sol\":36821:36830  sgAddPool */\n      tag_70\n        /* \"StargateFacet_flat.sol\":36821:36880  sgAddPool(9, 0xc2132D05D31c914a87C6611C10748AEb04B58e8F, 2) */\n      jump\t// in\n    tag_138:\n        /* \"StargateFacet_flat.sol\":36890:36950  sgAddPool(10, 0xFF970A61A04b1cA14834A43f5dE4533eBDDB5CC8, 1) */\n      tag_139\n        /* \"StargateFacet_flat.sol\":36900:36902  10 */\n      0x0a\n        /* \"StargateFacet_flat.sol\":36904:36946  0xFF970A61A04b1cA14834A43f5dE4533eBDDB5CC8 */\n      0xff970a61a04b1ca14834a43f5de4533ebddb5cc8\n        /* \"StargateFacet_flat.sol\":36948:36949  1 */\n      0x01\n        /* \"StargateFacet_flat.sol\":36890:36899  sgAddPool */\n      tag_70\n        /* \"StargateFacet_flat.sol\":36890:36950  sgAddPool(10, 0xFF970A61A04b1cA14834A43f5dE4533eBDDB5CC8, 1) */\n      jump\t// in\n    tag_139:\n        /* \"StargateFacet_flat.sol\":36960:37020  sgAddPool(10, 0xFd086bC7CD5C481DCC9C85ebE478A1C0b69FCbb9, 2) */\n      tag_140\n        /* \"StargateFacet_flat.sol\":36970:36972  10 */\n      0x0a\n        /* \"StargateFacet_flat.sol\":36974:37016  0xFd086bC7CD5C481DCC9C85ebE478A1C0b69FCbb9 */\n      0xfd086bc7cd5c481dcc9c85ebe478a1c0b69fcbb9\n        /* \"StargateFacet_flat.sol\":37018:37019  2 */\n      0x02\n        /* \"StargateFacet_flat.sol\":36960:36969  sgAddPool */\n      tag_70\n        /* \"StargateFacet_flat.sol\":36960:37020  sgAddPool(10, 0xFd086bC7CD5C481DCC9C85ebE478A1C0b69FCbb9, 2) */\n      jump\t// in\n    tag_140:\n        /* \"StargateFacet_flat.sol\":37030:37090  sgAddPool(11, 0x7F5c764cBc14f9669B88837ca1490cCa17c31607, 1) */\n      tag_141\n        /* \"StargateFacet_flat.sol\":37040:37042  11 */\n      0x0b\n        /* \"StargateFacet_flat.sol\":37044:37086  0x7F5c764cBc14f9669B88837ca1490cCa17c31607 */\n      0x7f5c764cbc14f9669b88837ca1490cca17c31607\n        /* \"StargateFacet_flat.sol\":37088:37089  1 */\n      0x01\n        /* \"StargateFacet_flat.sol\":37030:37039  sgAddPool */\n      tag_70\n        /* \"StargateFacet_flat.sol\":37030:37090  sgAddPool(11, 0x7F5c764cBc14f9669B88837ca1490cCa17c31607, 1) */\n      jump\t// in\n    tag_141:\n        /* \"StargateFacet_flat.sol\":37100:37160  sgAddPool(12, 0x04068DA6C83AFCFA0e13ba15A6696662335D5B75, 1) */\n      tag_142\n        /* \"StargateFacet_flat.sol\":37110:37112  12 */\n      0x0c\n        /* \"StargateFacet_flat.sol\":37114:37156  0x04068DA6C83AFCFA0e13ba15A6696662335D5B75 */\n      0x04068da6c83afcfa0e13ba15a6696662335d5b75\n        /* \"StargateFacet_flat.sol\":37158:37159  1 */\n      0x01\n        /* \"StargateFacet_flat.sol\":37100:37109  sgAddPool */\n      tag_70\n        /* \"StargateFacet_flat.sol\":37100:37160  sgAddPool(12, 0x04068DA6C83AFCFA0e13ba15A6696662335D5B75, 1) */\n      jump\t// in\n    tag_142:\n        /* \"StargateFacet_flat.sol\":37175:37215  SGInitialized(_stargateRouter, _chainId) */\n      0xc8ec31998a27444f477c01de93c393769fd4fc017fb63163f71f8a8ab72ccd50\n        /* \"StargateFacet_flat.sol\":37189:37204  _stargateRouter */\n      dup4\n        /* \"StargateFacet_flat.sol\":37206:37214  _chainId */\n      dup4\n        /* \"StargateFacet_flat.sol\":37175:37215  SGInitialized(_stargateRouter, _chainId) */\n      mload(0x40)\n      tag_143\n      swap3\n      swap2\n      swap1\n      tag_144\n      jump\t// in\n    tag_143:\n      mload(0x40)\n      dup1\n      swap2\n      sub\n      swap1\n      log1\n        /* \"StargateFacet_flat.sol\":35908:37222  function sgInitialize(address _stargateRouter, uint16 _chainId) external {... */\n      pop\n      pop\n      pop\n      jump\t// out\n        /* \"StargateFacet_flat.sol\":42177:42492  function sgUpdateRouter(address _newAddress) external {... */\n    tag_56:\n        /* \"StargateFacet_flat.sol\":42241:42276  LibDiamond.enforceIsContractOwner() */\n      tag_146\n        /* \"StargateFacet_flat.sol\":42241:42274  LibDiamond.enforceIsContractOwner */\n      tag_109\n        /* \"StargateFacet_flat.sol\":42241:42276  LibDiamond.enforceIsContractOwner() */\n      jump\t// in\n    tag_146:\n        /* \"StargateFacet_flat.sol\":42313:42314  0 */\n      0x00\n        /* \"StargateFacet_flat.sol\":42290:42315  _newAddress == address(0) */\n      0xffffffffffffffffffffffffffffffffffffffff\n      and\n        /* \"StargateFacet_flat.sol\":42290:42301  _newAddress */\n      dup2\n        /* \"StargateFacet_flat.sol\":42290:42315  _newAddress == address(0) */\n      0xffffffffffffffffffffffffffffffffffffffff\n      and\n      eq\n        /* \"StargateFacet_flat.sol\":42286:42351  if (_newAddress == address(0)) revert StargateRouterAddressZero() */\n      iszero\n      tag_147\n      jumpi\n        /* \"StargateFacet_flat.sol\":42324:42351  StargateRouterAddressZero() */\n      mload(0x40)\n      0x3911c65500000000000000000000000000000000000000000000000000000000\n      dup2\n      mstore\n      0x04\n      add\n      mload(0x40)\n      dup1\n      swap2\n      sub\n      swap1\n      revert\n        /* \"StargateFacet_flat.sol\":42286:42351  if (_newAddress == address(0)) revert StargateRouterAddressZero() */\n    tag_147:\n        /* \"StargateFacet_flat.sol\":42361:42378  Storage storage s */\n      0x00\n        /* \"StargateFacet_flat.sol\":42381:42393  getStorage() */\n      tag_148\n        /* \"StargateFacet_flat.sol\":42381:42391  getStorage */\n      tag_86\n        /* \"StargateFacet_flat.sol\":42381:42393  getStorage() */\n      jump\t// in\n    tag_148:\n        /* \"StargateFacet_flat.sol\":42361:42393  Storage storage s = getStorage() */\n      swap1\n      pop\n        /* \"StargateFacet_flat.sol\":42430:42441  _newAddress */\n      dup2\n        /* \"StargateFacet_flat.sol\":42403:42404  s */\n      dup2\n        /* \"StargateFacet_flat.sol\":42403:42419  s.stargateRouter */\n      0x00\n      add\n      0x00\n        /* \"StargateFacet_flat.sol\":42403:42442  s.stargateRouter = address(_newAddress) */\n      0x0100\n      exp\n      dup2\n      sload\n      dup2\n      0xffffffffffffffffffffffffffffffffffffffff\n      mul\n      not\n      and\n      swap1\n      dup4\n      0xffffffffffffffffffffffffffffffffffffffff\n      and\n      mul\n      or\n      swap1\n      sstore\n      pop\n        /* \"StargateFacet_flat.sol\":42457:42485  SGUpdatedRouter(_newAddress) */\n      0x9ac04272c4559bf7459414abb5568dc1df58ab649f0af4afd1510074f5cc2fec\n        /* \"StargateFacet_flat.sol\":42473:42484  _newAddress */\n      dup3\n        /* \"StargateFacet_flat.sol\":42457:42485  SGUpdatedRouter(_newAddress) */\n      mload(0x40)\n      tag_149\n      swap2\n      swap1\n      tag_95\n      jump\t// in\n    tag_149:\n      mload(0x40)\n      dup1\n      swap2\n      sub\n      swap1\n      log1\n        /* \"StargateFacet_flat.sol\":42177:42492  function sgUpdateRouter(address _newAddress) external {... */\n      pop\n      pop\n      jump\t// out\n        /* \"StargateFacet_flat.sol\":41836:42051  function sgMinAmountOut(uint256 _amount) public view returns (uint256) {... */\n    tag_60:\n        /* \"StargateFacet_flat.sol\":41898:41905  uint256 */\n      0x00\n        /* \"StargateFacet_flat.sol\":41917:41934  Storage storage s */\n      dup1\n        /* \"StargateFacet_flat.sol\":41937:41949  getStorage() */\n      tag_151\n        /* \"StargateFacet_flat.sol\":41937:41947  getStorage */\n      tag_86\n        /* \"StargateFacet_flat.sol\":41937:41949  getStorage() */\n      jump\t// in\n    tag_151:\n        /* \"StargateFacet_flat.sol\":41917:41949  Storage storage s = getStorage() */\n      swap1\n      pop\n        /* \"StargateFacet_flat.sol\":42038:42043  10000 */\n      0x2710\n        /* \"StargateFacet_flat.sol\":42022:42023  s */\n      dup2\n        /* \"StargateFacet_flat.sol\":42022:42032  s.slippage */\n      0x02\n      add\n      sload\n        /* \"StargateFacet_flat.sol\":42014:42019  10000 */\n      0x2710\n        /* \"StargateFacet_flat.sol\":42014:42032  10000 - s.slippage */\n      tag_152\n      swap2\n      swap1\n      tag_153\n      jump\t// in\n    tag_152:\n        /* \"StargateFacet_flat.sol\":42003:42010  _amount */\n      dup5\n        /* \"StargateFacet_flat.sol\":42003:42033  _amount * (10000 - s.slippage) */\n      tag_154\n      swap2\n      swap1\n      tag_155\n      jump\t// in\n    tag_154:\n        /* \"StargateFacet_flat.sol\":42002:42044  (_amount * (10000 - s.slippage)) / (10000) */\n      tag_156\n      swap2\n      swap1\n      tag_157\n      jump\t// in\n    tag_156:\n        /* \"StargateFacet_flat.sol\":41995:42044  return (_amount * (10000 - s.slippage)) / (10000) */\n      swap2\n      pop\n      pop\n        /* \"StargateFacet_flat.sol\":41836:42051  function sgMinAmountOut(uint256 _amount) public view returns (uint256) {... */\n      swap2\n      swap1\n      pop\n      jump\t// out\n        /* \"StargateFacet_flat.sol\":40481:41004  function sgReceive(... */\n    tag_66:\n        /* \"StargateFacet_flat.sol\":40698:40715  Storage storage s */\n      0x00\n        /* \"StargateFacet_flat.sol\":40718:40730  getStorage() */\n      tag_159\n        /* \"StargateFacet_flat.sol\":40718:40728  getStorage */\n      tag_86\n        /* \"StargateFacet_flat.sol\":40718:40730  getStorage() */\n      jump\t// in\n    tag_159:\n        /* \"StargateFacet_flat.sol\":40698:40730  Storage storage s = getStorage() */\n      swap1\n      pop\n        /* \"StargateFacet_flat.sol\":40766:40767  s */\n      dup1\n        /* \"StargateFacet_flat.sol\":40766:40782  s.stargateRouter */\n      0x00\n      add\n      0x00\n      swap1\n      sload\n      swap1\n      0x0100\n      exp\n      swap1\n      div\n      0xffffffffffffffffffffffffffffffffffffffff\n      and\n        /* \"StargateFacet_flat.sol\":40744:40783  msg.sender != address(s.stargateRouter) */\n      0xffffffffffffffffffffffffffffffffffffffff\n      and\n        /* \"StargateFacet_flat.sol\":40744:40754  msg.sender */\n      caller\n        /* \"StargateFacet_flat.sol\":40744:40783  msg.sender != address(s.stargateRouter) */\n      0xffffffffffffffffffffffffffffffffffffffff\n      and\n      eq\n        /* \"StargateFacet_flat.sol\":40740:40829  if (msg.sender != address(s.stargateRouter))... */\n      tag_160\n      jumpi\n        /* \"StargateFacet_flat.sol\":40804:40829  SenderNotStargateRouter() */\n      mload(0x40)\n      0xdade3c7100000000000000000000000000000000000000000000000000000000\n      dup2\n      mstore\n      0x04\n      add\n      mload(0x40)\n      dup1\n      swap2\n      sub\n      swap1\n      revert\n        /* \"StargateFacet_flat.sol\":40740:40829  if (msg.sender != address(s.stargateRouter))... */\n    tag_160:\n        /* \"StargateFacet_flat.sol\":40840:40855  address _toAddr */\n      0x00\n        /* \"StargateFacet_flat.sol\":40869:40877  _payload */\n      dup3\n        /* \"StargateFacet_flat.sol\":40858:40889  abi.decode(_payload, (address)) */\n      dup1\n      0x20\n      add\n      swap1\n      mload\n      dup2\n      add\n      swap1\n      tag_161\n      swap2\n      swap1\n      tag_162\n      jump\t// in\n    tag_161:\n        /* \"StargateFacet_flat.sol\":40840:40889  address _toAddr = abi.decode(_payload, (address)) */\n      swap1\n      pop\n        /* \"StargateFacet_flat.sol\":40906:40912  _token */\n      dup5\n        /* \"StargateFacet_flat.sol\":40899:40922  IERC20(_token).transfer */\n      0xffffffffffffffffffffffffffffffffffffffff\n      and\n      0xa9059cbb\n        /* \"StargateFacet_flat.sol\":40923:40930  _toAddr */\n      dup3\n        /* \"StargateFacet_flat.sol\":40932:40940  amountLD */\n      dup7\n        /* \"StargateFacet_flat.sol\":40899:40941  IERC20(_token).transfer(_toAddr, amountLD) */\n      mload(0x40)\n      dup4\n      0xffffffff\n      and\n      0xe0\n      shl\n      dup2\n      mstore\n      0x04\n      add\n      tag_163\n      swap3\n      swap2\n      swap1\n      tag_164\n      jump\t// in\n    tag_163:\n      0x20\n      mload(0x40)\n      dup1\n      dup4\n      sub\n      dup2\n      0x00\n      dup8\n      dup1\n      extcodesize\n      iszero\n      dup1\n      iszero\n      tag_165\n      jumpi\n      0x00\n      dup1\n      revert\n    tag_165:\n      pop\n      gas\n      call\n      iszero\n      dup1\n      iszero\n      tag_167\n      jumpi\n      returndatasize\n      0x00\n      dup1\n      returndatacopy\n      revert(0x00, returndatasize)\n    tag_167:\n      pop\n      pop\n      pop\n      pop\n      mload(0x40)\n      returndatasize\n      not(0x1f)\n      0x1f\n      dup3\n      add\n      and\n      dup3\n      add\n      dup1\n      0x40\n      mstore\n      pop\n      dup2\n      add\n      swap1\n      tag_168\n      swap2\n      swap1\n      tag_169\n      jump\t// in\n    tag_168:\n      pop\n        /* \"StargateFacet_flat.sol\":40956:40997  SGReceivedOnDestination(_token, amountLD) */\n      0x827e3293895509ef037b7438d4e009f37ad7b2562a14695d9dfd9cb065984218\n        /* \"StargateFacet_flat.sol\":40980:40986  _token */\n      dup6\n        /* \"StargateFacet_flat.sol\":40988:40996  amountLD */\n      dup6\n        /* \"StargateFacet_flat.sol\":40956:40997  SGReceivedOnDestination(_token, amountLD) */\n      mload(0x40)\n      tag_170\n      swap3\n      swap2\n      swap1\n      tag_164\n      jump\t// in\n    tag_170:\n      mload(0x40)\n      dup1\n      swap2\n      sub\n      swap1\n      log1\n        /* \"StargateFacet_flat.sol\":40481:41004  function sgReceive(... */\n      pop\n      pop\n      pop\n      pop\n      pop\n      pop\n      pop\n      pop\n      jump\t// out\n        /* \"StargateFacet_flat.sol\":43609:43908  function sgAddPool(... */\n    tag_70:\n        /* \"StargateFacet_flat.sol\":43724:43759  LibDiamond.enforceIsContractOwner() */\n      tag_172\n        /* \"StargateFacet_flat.sol\":43724:43757  LibDiamond.enforceIsContractOwner */\n      tag_109\n        /* \"StargateFacet_flat.sol\":43724:43759  LibDiamond.enforceIsContractOwner() */\n      jump\t// in\n    tag_172:\n        /* \"StargateFacet_flat.sol\":43769:43786  Storage storage s */\n      0x00\n        /* \"StargateFacet_flat.sol\":43789:43801  getStorage() */\n      tag_173\n        /* \"StargateFacet_flat.sol\":43789:43799  getStorage */\n      tag_86\n        /* \"StargateFacet_flat.sol\":43789:43801  getStorage() */\n      jump\t// in\n    tag_173:\n        /* \"StargateFacet_flat.sol\":43769:43801  Storage storage s = getStorage() */\n      swap1\n      pop\n        /* \"StargateFacet_flat.sol\":43841:43848  _poolId */\n      dup2\n        /* \"StargateFacet_flat.sol\":43811:43812  s */\n      dup2\n        /* \"StargateFacet_flat.sol\":43811:43820  s.poolIds */\n      0x03\n      add\n        /* \"StargateFacet_flat.sol\":43811:43830  s.poolIds[_chainId] */\n      0x00\n        /* \"StargateFacet_flat.sol\":43821:43829  _chainId */\n      dup7\n        /* \"StargateFacet_flat.sol\":43811:43830  s.poolIds[_chainId] */\n      0xffff\n      and\n      0xffff\n      and\n      dup2\n      mstore\n      0x20\n      add\n      swap1\n      dup2\n      mstore\n      0x20\n      add\n      0x00\n      keccak256\n        /* \"StargateFacet_flat.sol\":43811:43838  s.poolIds[_chainId][_token] */\n      0x00\n        /* \"StargateFacet_flat.sol\":43831:43837  _token */\n      dup6\n        /* \"StargateFacet_flat.sol\":43811:43838  s.poolIds[_chainId][_token] */\n      0xffffffffffffffffffffffffffffffffffffffff\n      and\n      0xffffffffffffffffffffffffffffffffffffffff\n      and\n      dup2\n      mstore\n      0x20\n      add\n      swap1\n      dup2\n      mstore\n      0x20\n      add\n      0x00\n      keccak256\n      0x00\n        /* \"StargateFacet_flat.sol\":43811:43848  s.poolIds[_chainId][_token] = _poolId */\n      0x0100\n      exp\n      dup2\n      sload\n      dup2\n      0xffff\n      mul\n      not\n      and\n      swap1\n      dup4\n      0xffff\n      and\n      mul\n      or\n      swap1\n      sstore\n      pop\n        /* \"StargateFacet_flat.sol\":43863:43901  SGAddedPool(_chainId, _token, _poolId) */\n      0x85adba3a23dc45072c12199244adfbf4c1d736a46ac453eb732f4e5158af5867\n        /* \"StargateFacet_flat.sol\":43875:43883  _chainId */\n      dup5\n        /* \"StargateFacet_flat.sol\":43885:43891  _token */\n      dup5\n        /* \"StargateFacet_flat.sol\":43893:43900  _poolId */\n      dup5\n        /* \"StargateFacet_flat.sol\":43863:43901  SGAddedPool(_chainId, _token, _poolId) */\n      mload(0x40)\n      tag_174\n      swap4\n      swap3\n      swap2\n      swap1\n      tag_175\n      jump\t// in\n    tag_174:\n      mload(0x40)\n      dup1\n      swap2\n      sub\n      swap1\n      log1\n        /* \"StargateFacet_flat.sol\":43609:43908  function sgAddPool(... */\n      pop\n      pop\n      pop\n      pop\n      jump\t// out\n        /* \"StargateFacet_flat.sol\":43029:43341  function sgWithdraw(... */\n    tag_74:\n        /* \"StargateFacet_flat.sol\":13013:13040  ReentrancyStorage storage s */\n      0x00\n        /* \"StargateFacet_flat.sol\":13043:13062  reentrancyStorage() */\n      tag_177\n        /* \"StargateFacet_flat.sol\":13043:13060  reentrancyStorage */\n      tag_77\n        /* \"StargateFacet_flat.sol\":13043:13062  reentrancyStorage() */\n      jump\t// in\n    tag_177:\n        /* \"StargateFacet_flat.sol\":13013:13062  ReentrancyStorage storage s = reentrancyStorage() */\n      swap1\n      pop\n        /* \"StargateFacet_flat.sol\":12768:12769  1 */\n      0x01\n        /* \"StargateFacet_flat.sol\":13076:13077  s */\n      dup2\n        /* \"StargateFacet_flat.sol\":13076:13084  s.status */\n      0x00\n      add\n      sload\n        /* \"StargateFacet_flat.sol\":13076:13096  s.status == _ENTERED */\n      eq\n        /* \"StargateFacet_flat.sol\":13072:13122  if (s.status == _ENTERED) revert ReentrancyError() */\n      iszero\n      tag_178\n      jumpi\n        /* \"StargateFacet_flat.sol\":13105:13122  ReentrancyError() */\n      mload(0x40)\n      0x29f745a700000000000000000000000000000000000000000000000000000000\n      dup2\n      mstore\n      0x04\n      add\n      mload(0x40)\n      dup1\n      swap2\n      sub\n      swap1\n      revert\n        /* \"StargateFacet_flat.sol\":13072:13122  if (s.status == _ENTERED) revert ReentrancyError() */\n    tag_178:\n        /* \"StargateFacet_flat.sol\":12768:12769  1 */\n      0x01\n        /* \"StargateFacet_flat.sol\":13132:13133  s */\n      dup2\n        /* \"StargateFacet_flat.sol\":13132:13140  s.status */\n      0x00\n      add\n        /* \"StargateFacet_flat.sol\":13132:13151  s.status = _ENTERED */\n      dup2\n      swap1\n      sstore\n      pop\n        /* \"StargateFacet_flat.sol\":43167:43202  LibDiamond.enforceIsContractOwner() */\n      tag_180\n        /* \"StargateFacet_flat.sol\":43167:43200  LibDiamond.enforceIsContractOwner */\n      tag_109\n        /* \"StargateFacet_flat.sol\":43167:43202  LibDiamond.enforceIsContractOwner() */\n      jump\t// in\n    tag_180:\n        /* \"StargateFacet_flat.sol\":43212:43262  IERC20(_token).safeApprove(address(this), _amount) */\n      tag_181\n        /* \"StargateFacet_flat.sol\":43247:43251  this */\n      address\n        /* \"StargateFacet_flat.sol\":43254:43261  _amount */\n      dup4\n        /* \"StargateFacet_flat.sol\":43219:43225  _token */\n      dup7\n        /* \"StargateFacet_flat.sol\":43212:43238  IERC20(_token).safeApprove */\n      0xffffffffffffffffffffffffffffffffffffffff\n      and\n      tag_99\n      swap1\n        /* \"StargateFacet_flat.sol\":43212:43262  IERC20(_token).safeApprove(address(this), _amount) */\n      swap3\n      swap2\n      swap1\n      0xffffffff\n      and\n      jump\t// in\n    tag_181:\n        /* \"StargateFacet_flat.sol\":43272:43334  IERC20(_token).safeTransferFrom(address(this), _user, _amount) */\n      tag_182\n        /* \"StargateFacet_flat.sol\":43312:43316  this */\n      address\n        /* \"StargateFacet_flat.sol\":43319:43324  _user */\n      dup5\n        /* \"StargateFacet_flat.sol\":43326:43333  _amount */\n      dup5\n        /* \"StargateFacet_flat.sol\":43279:43285  _token */\n      dup8\n        /* \"StargateFacet_flat.sol\":43272:43303  IERC20(_token).safeTransferFrom */\n      0xffffffffffffffffffffffffffffffffffffffff\n      and\n      tag_97\n      swap1\n        /* \"StargateFacet_flat.sol\":43272:43334  IERC20(_token).safeTransferFrom(address(this), _user, _amount) */\n      swap4\n      swap3\n      swap2\n      swap1\n      0xffffffff\n      and\n      jump\t// in\n    tag_182:\n        /* \"StargateFacet_flat.sol\":12725:12726  0 */\n      0x00\n        /* \"StargateFacet_flat.sol\":13172:13173  s */\n      dup2\n        /* \"StargateFacet_flat.sol\":13172:13180  s.status */\n      0x00\n      add\n        /* \"StargateFacet_flat.sol\":13172:13195  s.status = _NOT_ENTERED */\n      dup2\n      swap1\n      sstore\n      pop\n        /* \"StargateFacet_flat.sol\":43029:43341  function sgWithdraw(... */\n      pop\n      pop\n      pop\n      pop\n      jump\t// out\n        /* \"StargateFacet_flat.sol\":13443:13718  function reentrancyStorage()... */\n    tag_77:\n        /* \"StargateFacet_flat.sol\":13518:13548  ReentrancyStorage storage data */\n      0x00\n        /* \"StargateFacet_flat.sol\":13564:13580  bytes32 position */\n      dup1\n        /* \"StargateFacet_flat.sol\":11931:11980  keccak256(\"io.etherspot.helpers.reentrancyguard\") */\n      0xc59b5acc5a6673a6c49ca2de898f87adbd9fdfdff36f689476b1c9e0c50964b4\n        /* \"StargateFacet_flat.sol\":13564:13592  bytes32 position = NAMESPACE */\n      swap1\n      pop\n        /* \"StargateFacet_flat.sol\":13694:13702  position */\n      dup1\n        /* \"StargateFacet_flat.sol\":13681:13702  data.slot := position */\n      swap2\n      pop\n        /* \"StargateFacet_flat.sol\":13667:13712  {... */\n      pop\n      swap1\n      jump\t// out\n        /* \"StargateFacet_flat.sol\":45120:45346  function getStorage() private pure returns (Storage storage s) {... */\n    tag_86:\n        /* \"StargateFacet_flat.sol\":45164:45181  Storage storage s */\n      0x00\n        /* \"StargateFacet_flat.sol\":45193:45210  bytes32 namespace */\n      dup1\n        /* \"StargateFacet_flat.sol\":35088:35129  keccak256(\"io.etherspot.facets.stargate\") */\n      0xbaeadb48cbcf0176d6c6ac156b0140abe0fb28a100a9a6a8b5df37e55693b1c8\n        /* \"StargateFacet_flat.sol\":45193:45222  bytes32 namespace = NAMESPACE */\n      swap1\n      pop\n        /* \"StargateFacet_flat.sol\":45321:45330  namespace */\n      dup1\n        /* \"StargateFacet_flat.sol\":45311:45330  s.slot := namespace */\n      swap2\n      pop\n        /* \"StargateFacet_flat.sol\":45297:45340  {... */\n      pop\n      swap1\n      jump\t// out\n        /* \"StargateFacet_flat.sol\":28049:28290  function safeTransferFrom(... */\n    tag_97:\n        /* \"StargateFacet_flat.sol\":28187:28283  _callOptionalReturn(token, abi.encodeWithSelector(token.transferFrom.selector, from, to, value)) */\n      tag_186\n        /* \"StargateFacet_flat.sol\":28207:28212  token */\n      dup5\n        /* \"StargateFacet_flat.sol\":28237:28264  token.transferFrom.selector */\n      shl(0xe0, 0x23b872dd)\n        /* \"StargateFacet_flat.sol\":28266:28270  from */\n      dup6\n        /* \"StargateFacet_flat.sol\":28272:28274  to */\n      dup6\n        /* \"StargateFacet_flat.sol\":28276:28281  value */\n      dup6\n        /* \"StargateFacet_flat.sol\":28214:28282  abi.encodeWithSelector(token.transferFrom.selector, from, to, value) */\n      add(0x24, mload(0x40))\n      tag_187\n      swap4\n      swap3\n      swap2\n      swap1\n      tag_188\n      jump\t// in\n    tag_187:\n      mload(0x40)\n      0x20\n      dup2\n      dup4\n      sub\n      sub\n      dup2\n      mstore\n      swap1\n      0x40\n      mstore\n      swap1\n      not(0xffffffffffffffffffffffffffffffffffffffffffffffffffffffff)\n      and\n      0x20\n      dup3\n      add\n      dup1\n      mload\n      0xffffffffffffffffffffffffffffffffffffffffffffffffffffffff\n      dup4\n      dup2\n      dup4\n      and\n      or\n      dup4\n      mstore\n      pop\n      pop\n      pop\n      pop\n        /* \"StargateFacet_flat.sol\":28187:28206  _callOptionalReturn */\n      tag_189\n        /* \"StargateFacet_flat.sol\":28187:28283  _callOptionalReturn(token, abi.encodeWithSelector(token.transferFrom.selector, from, to, value)) */\n      jump\t// in\n    tag_186:\n        /* \"StargateFacet_flat.sol\":28049:28290  function safeTransferFrom(... */\n      pop\n      pop\n      pop\n      pop\n      jump\t// out\n        /* \"StargateFacet_flat.sol\":28550:29153  function safeApprove(... */\n    tag_99:\n        /* \"StargateFacet_flat.sol\":28914:28915  0 */\n      0x00\n        /* \"StargateFacet_flat.sol\":28905:28910  value */\n      dup2\n        /* \"StargateFacet_flat.sol\":28905:28915  value == 0 */\n      eq\n        /* \"StargateFacet_flat.sol\":28904:28966  (value == 0) || (token.allowance(address(this), spender) == 0) */\n      dup1\n      tag_191\n      jumpi\n      pop\n        /* \"StargateFacet_flat.sol\":28964:28965  0 */\n      0x00\n        /* \"StargateFacet_flat.sol\":28921:28926  token */\n      dup4\n        /* \"StargateFacet_flat.sol\":28921:28936  token.allowance */\n      0xffffffffffffffffffffffffffffffffffffffff\n      and\n      0xdd62ed3e\n        /* \"StargateFacet_flat.sol\":28945:28949  this */\n      address\n        /* \"StargateFacet_flat.sol\":28952:28959  spender */\n      dup6\n        /* \"StargateFacet_flat.sol\":28921:28960  token.allowance(address(this), spender) */\n      mload(0x40)\n      dup4\n      0xffffffff\n      and\n      0xe0\n      shl\n      dup2\n      mstore\n      0x04\n      add\n      tag_192\n      swap3\n      swap2\n      swap1\n      tag_193\n      jump\t// in\n    tag_192:\n      0x20\n      mload(0x40)\n      dup1\n      dup4\n      sub\n      dup2\n      dup7\n      dup1\n      extcodesize\n      iszero\n      dup1\n      iszero\n      tag_194\n      jumpi\n      0x00\n      dup1\n      revert\n    tag_194:\n      pop\n      gas\n      staticcall\n      iszero\n      dup1\n      iszero\n      tag_196\n      jumpi\n      returndatasize\n      0x00\n      dup1\n      returndatacopy\n      revert(0x00, returndatasize)\n    tag_196:\n      pop\n      pop\n      pop\n      pop\n      mload(0x40)\n      returndatasize\n      not(0x1f)\n      0x1f\n      dup3\n      add\n      and\n      dup3\n      add\n      dup1\n      0x40\n      mstore\n      pop\n      dup2\n      add\n      swap1\n      tag_197\n      swap2\n      swap1\n      tag_198\n      jump\t// in\n    tag_197:\n        /* \"StargateFacet_flat.sol\":28921:28965  token.allowance(address(this), spender) == 0 */\n      eq\n        /* \"StargateFacet_flat.sol\":28904:28966  (value == 0) || (token.allowance(address(this), spender) == 0) */\n    tag_191:\n        /* \"StargateFacet_flat.sol\":28883:29046  require(... */\n      tag_199\n      jumpi\n      mload(0x40)\n      0x08c379a000000000000000000000000000000000000000000000000000000000\n      dup2\n      mstore\n      0x04\n      add\n      tag_200\n      swap1\n      tag_201\n      jump\t// in\n    tag_200:\n      mload(0x40)\n      dup1\n      swap2\n      sub\n      swap1\n      revert\n    tag_199:\n        /* \"StargateFacet_flat.sol\":29056:29146  _callOptionalReturn(token, abi.encodeWithSelector(token.approve.selector, spender, value)) */\n      tag_202\n        /* \"StargateFacet_flat.sol\":29076:29081  token */\n      dup4\n        /* \"StargateFacet_flat.sol\":29106:29128  token.approve.selector */\n      shl(0xe0, 0x095ea7b3)\n        /* \"StargateFacet_flat.sol\":29130:29137  spender */\n      dup5\n        /* \"StargateFacet_flat.sol\":29139:29144  value */\n      dup5\n        /* \"StargateFacet_flat.sol\":29083:29145  abi.encodeWithSelector(token.approve.selector, spender, value) */\n      add(0x24, mload(0x40))\n      tag_203\n      swap3\n      swap2\n      swap1\n      tag_164\n      jump\t// in\n    tag_203:\n      mload(0x40)\n      0x20\n      dup2\n      dup4\n      sub\n      sub\n      dup2\n      mstore\n      swap1\n      0x40\n      mstore\n      swap1\n      not(0xffffffffffffffffffffffffffffffffffffffffffffffffffffffff)\n      and\n      0x20\n      dup3\n      add\n      dup1\n      mload\n      0xffffffffffffffffffffffffffffffffffffffffffffffffffffffff\n      dup4\n      dup2\n      dup4\n      and\n      or\n      dup4\n      mstore\n      pop\n      pop\n      pop\n      pop\n        /* \"StargateFacet_flat.sol\":29056:29075  _callOptionalReturn */\n      tag_189\n        /* \"StargateFacet_flat.sol\":29056:29146  _callOptionalReturn(token, abi.encodeWithSelector(token.approve.selector, spender, value)) */\n      jump\t// in\n    tag_202:\n        /* \"StargateFacet_flat.sol\":28550:29153  function safeApprove(... */\n      pop\n      pop\n      pop\n      jump\t// out\n        /* \"StargateFacet_flat.sol\":2785:2935  function enforceIsContractOwner() internal view {... */\n    tag_109:\n        /* \"StargateFacet_flat.sol\":2861:2877  diamondStorage() */\n      tag_205\n        /* \"StargateFacet_flat.sol\":2861:2875  diamondStorage */\n      tag_206\n        /* \"StargateFacet_flat.sol\":2861:2877  diamondStorage() */\n      jump\t// in\n    tag_205:\n        /* \"StargateFacet_flat.sol\":2861:2891  diamondStorage().contractOwner */\n      0x04\n      add\n      0x00\n      swap1\n      sload\n      swap1\n      0x0100\n      exp\n      swap1\n      div\n      0xffffffffffffffffffffffffffffffffffffffff\n      and\n        /* \"StargateFacet_flat.sol\":2847:2891  msg.sender == diamondStorage().contractOwner */\n      0xffffffffffffffffffffffffffffffffffffffff\n      and\n        /* \"StargateFacet_flat.sol\":2847:2857  msg.sender */\n      caller\n        /* \"StargateFacet_flat.sol\":2847:2891  msg.sender == diamondStorage().contractOwner */\n      0xffffffffffffffffffffffffffffffffffffffff\n      and\n      eq\n        /* \"StargateFacet_flat.sol\":2839:2930  require(msg.sender == diamondStorage().contractOwner, \"LibDiamond: Must be contract owner\") */\n      tag_207\n      jumpi\n      mload(0x40)\n      0x08c379a000000000000000000000000000000000000000000000000000000000\n      dup2\n      mstore\n      0x04\n      add\n      tag_208\n      swap1\n      tag_209\n      jump\t// in\n    tag_208:\n      mload(0x40)\n      dup1\n      swap2\n      sub\n      swap1\n      revert\n    tag_207:\n        /* \"StargateFacet_flat.sol\":2785:2935  function enforceIsContractOwner() internal view {... */\n      jump\t// out\n        /* \"StargateFacet_flat.sol\":30822:31528  function _callOptionalReturn(IERC20 token, bytes memory data) private {... */\n    tag_189:\n        /* \"StargateFacet_flat.sol\":31241:31264  bytes memory returndata */\n      0x00\n        /* \"StargateFacet_flat.sol\":31267:31336  address(token).functionCall(data, \"SafeERC20: low-level call failed\") */\n      tag_211\n        /* \"StargateFacet_flat.sol\":31295:31299  data */\n      dup3\n        /* \"StargateFacet_flat.sol\":31267:31336  address(token).functionCall(data, \"SafeERC20: low-level call failed\") */\n      mload(0x40)\n      dup1\n      0x40\n      add\n      0x40\n      mstore\n      dup1\n      0x20\n      dup2\n      mstore\n      0x20\n      add\n      0x5361666545524332303a206c6f772d6c6576656c2063616c6c206661696c6564\n      dup2\n      mstore\n      pop\n        /* \"StargateFacet_flat.sol\":31275:31280  token */\n      dup6\n        /* \"StargateFacet_flat.sol\":31267:31294  address(token).functionCall */\n      0xffffffffffffffffffffffffffffffffffffffff\n      and\n      tag_212\n      swap1\n        /* \"StargateFacet_flat.sol\":31267:31336  address(token).functionCall(data, \"SafeERC20: low-level call failed\") */\n      swap3\n      swap2\n      swap1\n      0xffffffff\n      and\n      jump\t// in\n    tag_211:\n        /* \"StargateFacet_flat.sol\":31241:31336  bytes memory returndata = address(token).functionCall(data, \"SafeERC20: low-level call failed\") */\n      swap1\n      pop\n        /* \"StargateFacet_flat.sol\":31370:31371  0 */\n      0x00\n        /* \"StargateFacet_flat.sol\":31350:31360  returndata */\n      dup2\n        /* \"StargateFacet_flat.sol\":31350:31367  returndata.length */\n      mload\n        /* \"StargateFacet_flat.sol\":31350:31371  returndata.length > 0 */\n      gt\n        /* \"StargateFacet_flat.sol\":31346:31522  if (returndata.length > 0) {... */\n      iszero\n      tag_213\n      jumpi\n        /* \"StargateFacet_flat.sol\":31445:31455  returndata */\n      dup1\n        /* \"StargateFacet_flat.sol\":31434:31464  abi.decode(returndata, (bool)) */\n      dup1\n      0x20\n      add\n      swap1\n      mload\n      dup2\n      add\n      swap1\n      tag_214\n      swap2\n      swap1\n      tag_169\n      jump\t// in\n    tag_214:\n        /* \"StargateFacet_flat.sol\":31426:31511  require(abi.decode(returndata, (bool)), \"SafeERC20: ERC20 operation did not succeed\") */\n      tag_215\n      jumpi\n      mload(0x40)\n      0x08c379a000000000000000000000000000000000000000000000000000000000\n      dup2\n      mstore\n      0x04\n      add\n      tag_216\n      swap1\n      tag_217\n      jump\t// in\n    tag_216:\n      mload(0x40)\n      dup1\n      swap2\n      sub\n      swap1\n      revert\n    tag_215:\n        /* \"StargateFacet_flat.sol\":31346:31522  if (returndata.length > 0) {... */\n    tag_213:\n        /* \"StargateFacet_flat.sol\":30822:31528  function _callOptionalReturn(IERC20 token, bytes memory data) private {... */\n      pop\n      pop\n      pop\n      jump\t// out\n        /* \"StargateFacet_flat.sol\":2078:2309  function diamondStorage() internal pure returns (DiamondStorage storage ds) {... */\n    tag_206:\n        /* \"StargateFacet_flat.sol\":2127:2152  DiamondStorage storage ds */\n      0x00\n        /* \"StargateFacet_flat.sol\":2160:2176  bytes32 position */\n      dup1\n        /* \"StargateFacet_flat.sol\":1090:1135  keccak256(\"diamond.standard.diamond.storage\") */\n      0xc8fcad8db84d3cc18b4c41d551ea0ee66dd599cde068d998e57d5e09332c131c\n        /* \"StargateFacet_flat.sol\":2160:2203  bytes32 position = DIAMOND_STORAGE_POSITION */\n      swap1\n      pop\n        /* \"StargateFacet_flat.sol\":2291:2299  position */\n      dup1\n        /* \"StargateFacet_flat.sol\":2280:2299  ds.slot := position */\n      swap2\n      pop\n        /* \"StargateFacet_flat.sol\":2270:2305  {... */\n      pop\n      swap1\n      jump\t// out\n        /* \"StargateFacet_flat.sol\":17604:17827  function functionCall(... */\n    tag_212:\n        /* \"StargateFacet_flat.sol\":17737:17749  bytes memory */\n      0x60\n        /* \"StargateFacet_flat.sol\":17768:17820  functionCallWithValue(target, data, 0, errorMessage) */\n      tag_220\n        /* \"StargateFacet_flat.sol\":17790:17796  target */\n      dup5\n        /* \"StargateFacet_flat.sol\":17798:17802  data */\n      dup5\n        /* \"StargateFacet_flat.sol\":17804:17805  0 */\n      0x00\n        /* \"StargateFacet_flat.sol\":17807:17819  errorMessage */\n      dup6\n        /* \"StargateFacet_flat.sol\":17768:17789  functionCallWithValue */\n      tag_221\n        /* \"StargateFacet_flat.sol\":17768:17820  functionCallWithValue(target, data, 0, errorMessage) */\n      jump\t// in\n    tag_220:\n        /* \"StargateFacet_flat.sol\":17761:17820  return functionCallWithValue(target, data, 0, errorMessage) */\n      swap1\n      pop\n        /* \"StargateFacet_flat.sol\":17604:17827  function functionCall(... */\n      swap4\n      swap3\n      pop\n      pop\n      pop\n      jump\t// out\n        /* \"StargateFacet_flat.sol\":18691:19190  function functionCallWithValue(... */\n    tag_221:\n        /* \"StargateFacet_flat.sol\":18856:18868  bytes memory */\n      0x60\n        /* \"StargateFacet_flat.sol\":18913:18918  value */\n      dup3\n        /* \"StargateFacet_flat.sol\":18888:18909  address(this).balance */\n      selfbalance\n        /* \"StargateFacet_flat.sol\":18888:18918  address(this).balance >= value */\n      lt\n      iszero\n        /* \"StargateFacet_flat.sol\":18880:18961  require(address(this).balance >= value, \"Address: insufficient balance for call\") */\n      tag_223\n      jumpi\n      mload(0x40)\n      0x08c379a000000000000000000000000000000000000000000000000000000000\n      dup2\n      mstore\n      0x04\n      add\n      tag_224\n      swap1\n      tag_225\n      jump\t// in\n    tag_224:\n      mload(0x40)\n      dup1\n      swap2\n      sub\n      swap1\n      revert\n    tag_223:\n        /* \"StargateFacet_flat.sol\":18979:18997  isContract(target) */\n      tag_226\n        /* \"StargateFacet_flat.sol\":18990:18996  target */\n      dup6\n        /* \"StargateFacet_flat.sol\":18979:18989  isContract */\n      tag_227\n        /* \"StargateFacet_flat.sol\":18979:18997  isContract(target) */\n      jump\t// in\n    tag_226:\n        /* \"StargateFacet_flat.sol\":18971:19031  require(isContract(target), \"Address: call to non-contract\") */\n      tag_228\n      jumpi\n      mload(0x40)\n      0x08c379a000000000000000000000000000000000000000000000000000000000\n      dup2\n      mstore\n      0x04\n      add\n      tag_229\n      swap1\n      tag_230\n      jump\t// in\n    tag_229:\n      mload(0x40)\n      dup1\n      swap2\n      sub\n      swap1\n      revert\n    tag_228:\n        /* \"StargateFacet_flat.sol\":19043:19055  bool success */\n      0x00\n        /* \"StargateFacet_flat.sol\":19057:19080  bytes memory returndata */\n      dup1\n        /* \"StargateFacet_flat.sol\":19084:19090  target */\n      dup7\n        /* \"StargateFacet_flat.sol\":19084:19095  target.call */\n      0xffffffffffffffffffffffffffffffffffffffff\n      and\n        /* \"StargateFacet_flat.sol\":19103:19108  value */\n      dup6\n        /* \"StargateFacet_flat.sol\":19110:19114  data */\n      dup8\n        /* \"StargateFacet_flat.sol\":19084:19115  target.call{value: value}(data) */\n      mload(0x40)\n      tag_231\n      swap2\n      swap1\n      tag_232\n      jump\t// in\n    tag_231:\n      0x00\n      mload(0x40)\n      dup1\n      dup4\n      sub\n      dup2\n      dup6\n      dup8\n      gas\n      call\n      swap3\n      pop\n      pop\n      pop\n      returndatasize\n      dup1\n      0x00\n      dup2\n      eq\n      tag_235\n      jumpi\n      mload(0x40)\n      swap2\n      pop\n      and(add(returndatasize, 0x3f), not(0x1f))\n      dup3\n      add\n      0x40\n      mstore\n      returndatasize\n      dup3\n      mstore\n      returndatasize\n      0x00\n      0x20\n      dup5\n      add\n      returndatacopy\n      jump(tag_234)\n    tag_235:\n      0x60\n      swap2\n      pop\n    tag_234:\n      pop\n        /* \"StargateFacet_flat.sol\":19042:19115  (bool success, bytes memory returndata) = target.call{value: value}(data) */\n      swap2\n      pop\n      swap2\n      pop\n        /* \"StargateFacet_flat.sol\":19132:19183  verifyCallResult(success, returndata, errorMessage) */\n      tag_236\n        /* \"StargateFacet_flat.sol\":19149:19156  success */\n      dup3\n        /* \"StargateFacet_flat.sol\":19158:19168  returndata */\n      dup3\n        /* \"StargateFacet_flat.sol\":19170:19182  errorMessage */\n      dup7\n        /* \"StargateFacet_flat.sol\":19132:19148  verifyCallResult */\n      tag_237\n        /* \"StargateFacet_flat.sol\":19132:19183  verifyCallResult(success, returndata, errorMessage) */\n      jump\t// in\n    tag_236:\n        /* \"StargateFacet_flat.sol\":19125:19183  return verifyCallResult(success, returndata, errorMessage) */\n      swap3\n      pop\n      pop\n      pop\n        /* \"StargateFacet_flat.sol\":18691:19190  function functionCallWithValue(... */\n      swap5\n      swap4\n      pop\n      pop\n      pop\n      pop\n      jump\t// out\n        /* \"StargateFacet_flat.sol\":14918:15238  function isContract(address account) internal view returns (bool) {... */\n    tag_227:\n        /* \"StargateFacet_flat.sol\":14978:14982  bool */\n      0x00\n        /* \"StargateFacet_flat.sol\":15230:15231  0 */\n      dup1\n        /* \"StargateFacet_flat.sol\":15208:15215  account */\n      dup3\n        /* \"StargateFacet_flat.sol\":15208:15227  account.code.length */\n      0xffffffffffffffffffffffffffffffffffffffff\n      and\n      extcodesize\n        /* \"StargateFacet_flat.sol\":15208:15231  account.code.length > 0 */\n      gt\n        /* \"StargateFacet_flat.sol\":15201:15231  return account.code.length > 0 */\n      swap1\n      pop\n        /* \"StargateFacet_flat.sol\":14918:15238  function isContract(address account) internal view returns (bool) {... */\n      swap2\n      swap1\n      pop\n      jump\t// out\n        /* \"StargateFacet_flat.sol\":21304:22046  function verifyCallResult(... */\n    tag_237:\n        /* \"StargateFacet_flat.sol\":21450:21462  bytes memory */\n      0x60\n        /* \"StargateFacet_flat.sol\":21478:21485  success */\n      dup4\n        /* \"StargateFacet_flat.sol\":21474:22040  if (success) {... */\n      iszero\n      tag_240\n      jumpi\n        /* \"StargateFacet_flat.sol\":21508:21518  returndata */\n      dup3\n        /* \"StargateFacet_flat.sol\":21501:21518  return returndata */\n      swap1\n      pop\n      jump(tag_239)\n        /* \"StargateFacet_flat.sol\":21474:22040  if (success) {... */\n    tag_240:\n        /* \"StargateFacet_flat.sol\":21639:21640  0 */\n      0x00\n        /* \"StargateFacet_flat.sol\":21619:21629  returndata */\n      dup4\n        /* \"StargateFacet_flat.sol\":21619:21636  returndata.length */\n      mload\n        /* \"StargateFacet_flat.sol\":21619:21640  returndata.length > 0 */\n      gt\n        /* \"StargateFacet_flat.sol\":21615:22030  if (returndata.length > 0) {... */\n      iszero\n      tag_242\n      jumpi\n        /* \"StargateFacet_flat.sol\":21863:21873  returndata */\n      dup3\n        /* \"StargateFacet_flat.sol\":21857:21874  mload(returndata) */\n      mload\n        /* \"StargateFacet_flat.sol\":21923:21938  returndata_size */\n      dup1\n        /* \"StargateFacet_flat.sol\":21910:21920  returndata */\n      dup5\n        /* \"StargateFacet_flat.sol\":21906:21908  32 */\n      0x20\n        /* \"StargateFacet_flat.sol\":21902:21921  add(32, returndata) */\n      add\n        /* \"StargateFacet_flat.sol\":21895:21939  revert(add(32, returndata), returndata_size) */\n      revert\n        /* \"StargateFacet_flat.sol\":21812:21957  {... */\n    tag_242:\n        /* \"StargateFacet_flat.sol\":22002:22014  errorMessage */\n      dup2\n        /* \"StargateFacet_flat.sol\":21995:22015  revert(errorMessage) */\n      mload(0x40)\n      0x08c379a000000000000000000000000000000000000000000000000000000000\n      dup2\n      mstore\n      0x04\n      add\n      tag_244\n      swap2\n      swap1\n      tag_245\n      jump\t// in\n    tag_244:\n      mload(0x40)\n      dup1\n      swap2\n      sub\n      swap1\n      revert\n        /* \"StargateFacet_flat.sol\":21304:22046  function verifyCallResult(... */\n    tag_239:\n      swap4\n      swap3\n      pop\n      pop\n      pop\n      jump\t// out\n        /* \"#utility.yul\":7:350   */\n    tag_247:\n        /* \"#utility.yul\":84:89   */\n      0x00\n        /* \"#utility.yul\":109:174   */\n      tag_249\n        /* \"#utility.yul\":125:173   */\n      tag_250\n        /* \"#utility.yul\":166:172   */\n      dup5\n        /* \"#utility.yul\":125:173   */\n      tag_251\n      jump\t// in\n    tag_250:\n        /* \"#utility.yul\":109:174   */\n      tag_252\n      jump\t// in\n    tag_249:\n        /* \"#utility.yul\":100:174   */\n      swap1\n      pop\n        /* \"#utility.yul\":197:203   */\n      dup3\n        /* \"#utility.yul\":190:195   */\n      dup2\n        /* \"#utility.yul\":183:204   */\n      mstore\n        /* \"#utility.yul\":235:239   */\n      0x20\n        /* \"#utility.yul\":228:233   */\n      dup2\n        /* \"#utility.yul\":224:240   */\n      add\n        /* \"#utility.yul\":273:276   */\n      dup5\n        /* \"#utility.yul\":264:270   */\n      dup5\n        /* \"#utility.yul\":259:262   */\n      dup5\n        /* \"#utility.yul\":255:271   */\n      add\n        /* \"#utility.yul\":252:277   */\n      gt\n        /* \"#utility.yul\":249:251   */\n      iszero\n      tag_253\n      jumpi\n        /* \"#utility.yul\":290:291   */\n      0x00\n        /* \"#utility.yul\":287:288   */\n      dup1\n        /* \"#utility.yul\":280:292   */\n      revert\n        /* \"#utility.yul\":249:251   */\n    tag_253:\n        /* \"#utility.yul\":303:344   */\n      tag_254\n        /* \"#utility.yul\":337:343   */\n      dup5\n        /* \"#utility.yul\":332:335   */\n      dup3\n        /* \"#utility.yul\":327:330   */\n      dup6\n        /* \"#utility.yul\":303:344   */\n      tag_255\n      jump\t// in\n    tag_254:\n        /* \"#utility.yul\":90:350   */\n      pop\n      swap4\n      swap3\n      pop\n      pop\n      pop\n      jump\t// out\n        /* \"#utility.yul\":356:495   */\n    tag_256:\n        /* \"#utility.yul\":402:407   */\n      0x00\n        /* \"#utility.yul\":440:446   */\n      dup2\n        /* \"#utility.yul\":427:447   */\n      calldataload\n        /* \"#utility.yul\":418:447   */\n      swap1\n      pop\n        /* \"#utility.yul\":456:489   */\n      tag_258\n        /* \"#utility.yul\":483:488   */\n      dup2\n        /* \"#utility.yul\":456:489   */\n      tag_259\n      jump\t// in\n    tag_258:\n        /* \"#utility.yul\":408:495   */\n      swap3\n      swap2\n      pop\n      pop\n      jump\t// out\n        /* \"#utility.yul\":501:660   */\n    tag_260:\n        /* \"#utility.yul\":566:571   */\n      0x00\n        /* \"#utility.yul\":597:603   */\n      dup2\n        /* \"#utility.yul\":591:604   */\n      mload\n        /* \"#utility.yul\":582:604   */\n      swap1\n      pop\n        /* \"#utility.yul\":613:654   */\n      tag_262\n        /* \"#utility.yul\":648:653   */\n      dup2\n        /* \"#utility.yul\":613:654   */\n      tag_263\n      jump\t// in\n    tag_262:\n        /* \"#utility.yul\":572:660   */\n      swap3\n      swap2\n      pop\n      pop\n      jump\t// out\n        /* \"#utility.yul\":666:803   */\n    tag_264:\n        /* \"#utility.yul\":720:725   */\n      0x00\n        /* \"#utility.yul\":751:757   */\n      dup2\n        /* \"#utility.yul\":745:758   */\n      mload\n        /* \"#utility.yul\":736:758   */\n      swap1\n      pop\n        /* \"#utility.yul\":767:797   */\n      tag_266\n        /* \"#utility.yul\":791:796   */\n      dup2\n        /* \"#utility.yul\":767:797   */\n      tag_267\n      jump\t// in\n    tag_266:\n        /* \"#utility.yul\":726:803   */\n      swap3\n      swap2\n      pop\n      pop\n      jump\t// out\n        /* \"#utility.yul\":822:1093   */\n    tag_268:\n        /* \"#utility.yul\":877:882   */\n      0x00\n        /* \"#utility.yul\":926:929   */\n      dup3\n        /* \"#utility.yul\":919:923   */\n      0x1f\n        /* \"#utility.yul\":911:917   */\n      dup4\n        /* \"#utility.yul\":907:924   */\n      add\n        /* \"#utility.yul\":903:930   */\n      slt\n        /* \"#utility.yul\":893:895   */\n      tag_270\n      jumpi\n        /* \"#utility.yul\":944:945   */\n      0x00\n        /* \"#utility.yul\":941:942   */\n      dup1\n        /* \"#utility.yul\":934:946   */\n      revert\n        /* \"#utility.yul\":893:895   */\n    tag_270:\n        /* \"#utility.yul\":984:990   */\n      dup2\n        /* \"#utility.yul\":971:991   */\n      calldataload\n        /* \"#utility.yul\":1009:1087   */\n      tag_271\n        /* \"#utility.yul\":1083:1086   */\n      dup5\n        /* \"#utility.yul\":1075:1081   */\n      dup3\n        /* \"#utility.yul\":1068:1072   */\n      0x20\n        /* \"#utility.yul\":1060:1066   */\n      dup7\n        /* \"#utility.yul\":1056:1073   */\n      add\n        /* \"#utility.yul\":1009:1087   */\n      tag_247\n      jump\t// in\n    tag_271:\n        /* \"#utility.yul\":1000:1087   */\n      swap2\n      pop\n        /* \"#utility.yul\":883:1093   */\n      pop\n      swap3\n      swap2\n      pop\n      pop\n      jump\t// out\n        /* \"#utility.yul\":1140:2324   */\n    tag_272:\n        /* \"#utility.yul\":1219:1224   */\n      0x00\n        /* \"#utility.yul\":1263:1267   */\n      0xc0\n        /* \"#utility.yul\":1251:1260   */\n      dup3\n        /* \"#utility.yul\":1246:1249   */\n      dup5\n        /* \"#utility.yul\":1242:1261   */\n      sub\n        /* \"#utility.yul\":1238:1268   */\n      slt\n        /* \"#utility.yul\":1235:1237   */\n      iszero\n      tag_274\n      jumpi\n        /* \"#utility.yul\":1281:1282   */\n      0x00\n        /* \"#utility.yul\":1278:1279   */\n      dup1\n        /* \"#utility.yul\":1271:1283   */\n      revert\n        /* \"#utility.yul\":1235:1237   */\n    tag_274:\n        /* \"#utility.yul\":1303:1324   */\n      tag_275\n        /* \"#utility.yul\":1319:1323   */\n      0xc0\n        /* \"#utility.yul\":1303:1324   */\n      tag_252\n      jump\t// in\n    tag_275:\n        /* \"#utility.yul\":1294:1324   */\n      swap1\n      pop\n        /* \"#utility.yul\":1382:1383   */\n      0x00\n        /* \"#utility.yul\":1422:1471   */\n      tag_276\n        /* \"#utility.yul\":1467:1470   */\n      dup5\n        /* \"#utility.yul\":1458:1464   */\n      dup3\n        /* \"#utility.yul\":1447:1456   */\n      dup6\n        /* \"#utility.yul\":1443:1465   */\n      add\n        /* \"#utility.yul\":1422:1471   */\n      tag_277\n      jump\t// in\n    tag_276:\n        /* \"#utility.yul\":1415:1419   */\n      0x00\n        /* \"#utility.yul\":1408:1413   */\n      dup4\n        /* \"#utility.yul\":1404:1420   */\n      add\n        /* \"#utility.yul\":1397:1472   */\n      mstore\n        /* \"#utility.yul\":1334:1483   */\n      pop\n        /* \"#utility.yul\":1547:1549   */\n      0x20\n        /* \"#utility.yul\":1588:1637   */\n      tag_278\n        /* \"#utility.yul\":1633:1636   */\n      dup5\n        /* \"#utility.yul\":1624:1630   */\n      dup3\n        /* \"#utility.yul\":1613:1622   */\n      dup6\n        /* \"#utility.yul\":1609:1631   */\n      add\n        /* \"#utility.yul\":1588:1637   */\n      tag_256\n      jump\t// in\n    tag_278:\n        /* \"#utility.yul\":1581:1585   */\n      0x20\n        /* \"#utility.yul\":1574:1579   */\n      dup4\n        /* \"#utility.yul\":1570:1586   */\n      add\n        /* \"#utility.yul\":1563:1638   */\n      mstore\n        /* \"#utility.yul\":1493:1649   */\n      pop\n        /* \"#utility.yul\":1711:1713   */\n      0x40\n        /* \"#utility.yul\":1752:1801   */\n      tag_279\n        /* \"#utility.yul\":1797:1800   */\n      dup5\n        /* \"#utility.yul\":1788:1794   */\n      dup3\n        /* \"#utility.yul\":1777:1786   */\n      dup6\n        /* \"#utility.yul\":1773:1795   */\n      add\n        /* \"#utility.yul\":1752:1801   */\n      tag_256\n      jump\t// in\n    tag_279:\n        /* \"#utility.yul\":1745:1749   */\n      0x40\n        /* \"#utility.yul\":1738:1743   */\n      dup4\n        /* \"#utility.yul\":1734:1750   */\n      add\n        /* \"#utility.yul\":1727:1802   */\n      mstore\n        /* \"#utility.yul\":1659:1813   */\n      pop\n        /* \"#utility.yul\":1878:1880   */\n      0x60\n        /* \"#utility.yul\":1919:1967   */\n      tag_280\n        /* \"#utility.yul\":1963:1966   */\n      dup5\n        /* \"#utility.yul\":1954:1960   */\n      dup3\n        /* \"#utility.yul\":1943:1952   */\n      dup6\n        /* \"#utility.yul\":1939:1961   */\n      add\n        /* \"#utility.yul\":1919:1967   */\n      tag_281\n      jump\t// in\n    tag_280:\n        /* \"#utility.yul\":1912:1916   */\n      0x60\n        /* \"#utility.yul\":1905:1910   */\n      dup4\n        /* \"#utility.yul\":1901:1917   */\n      add\n        /* \"#utility.yul\":1894:1968   */\n      mstore\n        /* \"#utility.yul\":1823:1979   */\n      pop\n        /* \"#utility.yul\":2036:2039   */\n      0x80\n        /* \"#utility.yul\":2078:2127   */\n      tag_282\n        /* \"#utility.yul\":2123:2126   */\n      dup5\n        /* \"#utility.yul\":2114:2120   */\n      dup3\n        /* \"#utility.yul\":2103:2112   */\n      dup6\n        /* \"#utility.yul\":2099:2121   */\n      add\n        /* \"#utility.yul\":2078:2127   */\n      tag_256\n      jump\t// in\n    tag_282:\n        /* \"#utility.yul\":2071:2075   */\n      0x80\n        /* \"#utility.yul\":2064:2069   */\n      dup4\n        /* \"#utility.yul\":2060:2076   */\n      add\n        /* \"#utility.yul\":2053:2128   */\n      mstore\n        /* \"#utility.yul\":1989:2139   */\n      pop\n        /* \"#utility.yul\":2214:2217   */\n      0xa0\n        /* \"#utility.yul\":2256:2305   */\n      tag_283\n        /* \"#utility.yul\":2301:2304   */\n      dup5\n        /* \"#utility.yul\":2292:2298   */\n      dup3\n        /* \"#utility.yul\":2281:2290   */\n      dup6\n        /* \"#utility.yul\":2277:2299   */\n      add\n        /* \"#utility.yul\":2256:2305   */\n      tag_256\n      jump\t// in\n    tag_283:\n        /* \"#utility.yul\":2249:2253   */\n      0xa0\n        /* \"#utility.yul\":2242:2247   */\n      dup4\n        /* \"#utility.yul\":2238:2254   */\n      add\n        /* \"#utility.yul\":2231:2306   */\n      mstore\n        /* \"#utility.yul\":2149:2317   */\n      pop\n        /* \"#utility.yul\":1225:2324   */\n      swap3\n      swap2\n      pop\n      pop\n      jump\t// out\n        /* \"#utility.yul\":2330:2467   */\n    tag_281:\n        /* \"#utility.yul\":2375:2380   */\n      0x00\n        /* \"#utility.yul\":2413:2419   */\n      dup2\n        /* \"#utility.yul\":2400:2420   */\n      calldataload\n        /* \"#utility.yul\":2391:2420   */\n      swap1\n      pop\n        /* \"#utility.yul\":2429:2461   */\n      tag_285\n        /* \"#utility.yul\":2455:2460   */\n      dup2\n        /* \"#utility.yul\":2429:2461   */\n      tag_286\n      jump\t// in\n    tag_285:\n        /* \"#utility.yul\":2381:2467   */\n      swap3\n      swap2\n      pop\n      pop\n      jump\t// out\n        /* \"#utility.yul\":2473:2612   */\n    tag_277:\n        /* \"#utility.yul\":2519:2524   */\n      0x00\n        /* \"#utility.yul\":2557:2563   */\n      dup2\n        /* \"#utility.yul\":2544:2564   */\n      calldataload\n        /* \"#utility.yul\":2535:2564   */\n      swap1\n      pop\n        /* \"#utility.yul\":2573:2606   */\n      tag_288\n        /* \"#utility.yul\":2600:2605   */\n      dup2\n        /* \"#utility.yul\":2573:2606   */\n      tag_289\n      jump\t// in\n    tag_288:\n        /* \"#utility.yul\":2525:2612   */\n      swap3\n      swap2\n      pop\n      pop\n      jump\t// out\n        /* \"#utility.yul\":2618:2761   */\n    tag_290:\n        /* \"#utility.yul\":2675:2680   */\n      0x00\n        /* \"#utility.yul\":2706:2712   */\n      dup2\n        /* \"#utility.yul\":2700:2713   */\n      mload\n        /* \"#utility.yul\":2691:2713   */\n      swap1\n      pop\n        /* \"#utility.yul\":2722:2755   */\n      tag_292\n        /* \"#utility.yul\":2749:2754   */\n      dup2\n        /* \"#utility.yul\":2722:2755   */\n      tag_289\n      jump\t// in\n    tag_292:\n        /* \"#utility.yul\":2681:2761   */\n      swap3\n      swap2\n      pop\n      pop\n      jump\t// out\n        /* \"#utility.yul\":2767:3029   */\n    tag_55:\n        /* \"#utility.yul\":2826:2832   */\n      0x00\n        /* \"#utility.yul\":2875:2877   */\n      0x20\n        /* \"#utility.yul\":2863:2872   */\n      dup3\n        /* \"#utility.yul\":2854:2861   */\n      dup5\n        /* \"#utility.yul\":2850:2873   */\n      sub\n        /* \"#utility.yul\":2846:2878   */\n      slt\n        /* \"#utility.yul\":2843:2845   */\n      iszero\n      tag_294\n      jumpi\n        /* \"#utility.yul\":2891:2892   */\n      0x00\n        /* \"#utility.yul\":2888:2889   */\n      dup1\n        /* \"#utility.yul\":2881:2893   */\n      revert\n        /* \"#utility.yul\":2843:2845   */\n    tag_294:\n        /* \"#utility.yul\":2934:2935   */\n      0x00\n        /* \"#utility.yul\":2959:3012   */\n      tag_295\n        /* \"#utility.yul\":3004:3011   */\n      dup5\n        /* \"#utility.yul\":2995:3001   */\n      dup3\n        /* \"#utility.yul\":2984:2993   */\n      dup6\n        /* \"#utility.yul\":2980:3002   */\n      add\n        /* \"#utility.yul\":2959:3012   */\n      tag_256\n      jump\t// in\n    tag_295:\n        /* \"#utility.yul\":2949:3012   */\n      swap2\n      pop\n        /* \"#utility.yul\":2905:3022   */\n      pop\n        /* \"#utility.yul\":2833:3029   */\n      swap3\n      swap2\n      pop\n      pop\n      jump\t// out\n        /* \"#utility.yul\":3035:3335   */\n    tag_162:\n        /* \"#utility.yul\":3113:3119   */\n      0x00\n        /* \"#utility.yul\":3162:3164   */\n      0x20\n        /* \"#utility.yul\":3150:3159   */\n      dup3\n        /* \"#utility.yul\":3141:3148   */\n      dup5\n        /* \"#utility.yul\":3137:3160   */\n      sub\n        /* \"#utility.yul\":3133:3165   */\n      slt\n        /* \"#utility.yul\":3130:3132   */\n      iszero\n      tag_297\n      jumpi\n        /* \"#utility.yul\":3178:3179   */\n      0x00\n        /* \"#utility.yul\":3175:3176   */\n      dup1\n        /* \"#utility.yul\":3168:3180   */\n      revert\n        /* \"#utility.yul\":3130:3132   */\n    tag_297:\n        /* \"#utility.yul\":3221:3222   */\n      0x00\n        /* \"#utility.yul\":3246:3318   */\n      tag_298\n        /* \"#utility.yul\":3310:3317   */\n      dup5\n        /* \"#utility.yul\":3301:3307   */\n      dup3\n        /* \"#utility.yul\":3290:3299   */\n      dup6\n        /* \"#utility.yul\":3286:3308   */\n      add\n        /* \"#utility.yul\":3246:3318   */\n      tag_260\n      jump\t// in\n    tag_298:\n        /* \"#utility.yul\":3236:3318   */\n      swap2\n      pop\n        /* \"#utility.yul\":3192:3328   */\n      pop\n        /* \"#utility.yul\":3120:3335   */\n      swap3\n      swap2\n      pop\n      pop\n      jump\t// out\n        /* \"#utility.yul\":3341:3893   */\n    tag_73:\n        /* \"#utility.yul\":3418:3424   */\n      0x00\n        /* \"#utility.yul\":3426:3432   */\n      dup1\n        /* \"#utility.yul\":3434:3440   */\n      0x00\n        /* \"#utility.yul\":3483:3485   */\n      0x60\n        /* \"#utility.yul\":3471:3480   */\n      dup5\n        /* \"#utility.yul\":3462:3469   */\n      dup7\n        /* \"#utility.yul\":3458:3481   */\n      sub\n        /* \"#utility.yul\":3454:3486   */\n      slt\n        /* \"#utility.yul\":3451:3453   */\n      iszero\n      tag_300\n      jumpi\n        /* \"#utility.yul\":3499:3500   */\n      0x00\n        /* \"#utility.yul\":3496:3497   */\n      dup1\n        /* \"#utility.yul\":3489:3501   */\n      revert\n        /* \"#utility.yul\":3451:3453   */\n    tag_300:\n        /* \"#utility.yul\":3542:3543   */\n      0x00\n        /* \"#utility.yul\":3567:3620   */\n      tag_301\n        /* \"#utility.yul\":3612:3619   */\n      dup7\n        /* \"#utility.yul\":3603:3609   */\n      dup3\n        /* \"#utility.yul\":3592:3601   */\n      dup8\n        /* \"#utility.yul\":3588:3610   */\n      add\n        /* \"#utility.yul\":3567:3620   */\n      tag_256\n      jump\t// in\n    tag_301:\n        /* \"#utility.yul\":3557:3620   */\n      swap4\n      pop\n        /* \"#utility.yul\":3513:3630   */\n      pop\n        /* \"#utility.yul\":3669:3671   */\n      0x20\n        /* \"#utility.yul\":3695:3748   */\n      tag_302\n        /* \"#utility.yul\":3740:3747   */\n      dup7\n        /* \"#utility.yul\":3731:3737   */\n      dup3\n        /* \"#utility.yul\":3720:3729   */\n      dup8\n        /* \"#utility.yul\":3716:3738   */\n      add\n        /* \"#utility.yul\":3695:3748   */\n      tag_256\n      jump\t// in\n    tag_302:\n        /* \"#utility.yul\":3685:3748   */\n      swap3\n      pop\n        /* \"#utility.yul\":3640:3758   */\n      pop\n        /* \"#utility.yul\":3797:3799   */\n      0x40\n        /* \"#utility.yul\":3823:3876   */\n      tag_303\n        /* \"#utility.yul\":3868:3875   */\n      dup7\n        /* \"#utility.yul\":3859:3865   */\n      dup3\n        /* \"#utility.yul\":3848:3857   */\n      dup8\n        /* \"#utility.yul\":3844:3866   */\n      add\n        /* \"#utility.yul\":3823:3876   */\n      tag_277\n      jump\t// in\n    tag_303:\n        /* \"#utility.yul\":3813:3876   */\n      swap2\n      pop\n        /* \"#utility.yul\":3768:3886   */\n      pop\n        /* \"#utility.yul\":3441:3893   */\n      swap3\n      pop\n      swap3\n      pop\n      swap3\n      jump\t// out\n        /* \"#utility.yul\":3899:4304   */\n    tag_50:\n        /* \"#utility.yul\":3966:3972   */\n      0x00\n        /* \"#utility.yul\":3974:3980   */\n      dup1\n        /* \"#utility.yul\":4023:4025   */\n      0x40\n        /* \"#utility.yul\":4011:4020   */\n      dup4\n        /* \"#utility.yul\":4002:4009   */\n      dup6\n        /* \"#utility.yul\":3998:4021   */\n      sub\n        /* \"#utility.yul\":3994:4026   */\n      slt\n        /* \"#utility.yul\":3991:3993   */\n      iszero\n      tag_305\n      jumpi\n        /* \"#utility.yul\":4039:4040   */\n      0x00\n        /* \"#utility.yul\":4036:4037   */\n      dup1\n        /* \"#utility.yul\":4029:4041   */\n      revert\n        /* \"#utility.yul\":3991:3993   */\n    tag_305:\n        /* \"#utility.yul\":4082:4083   */\n      0x00\n        /* \"#utility.yul\":4107:4160   */\n      tag_306\n        /* \"#utility.yul\":4152:4159   */\n      dup6\n        /* \"#utility.yul\":4143:4149   */\n      dup3\n        /* \"#utility.yul\":4132:4141   */\n      dup7\n        /* \"#utility.yul\":4128:4150   */\n      add\n        /* \"#utility.yul\":4107:4160   */\n      tag_256\n      jump\t// in\n    tag_306:\n        /* \"#utility.yul\":4097:4160   */\n      swap3\n      pop\n        /* \"#utility.yul\":4053:4170   */\n      pop\n        /* \"#utility.yul\":4209:4211   */\n      0x20\n        /* \"#utility.yul\":4235:4287   */\n      tag_307\n        /* \"#utility.yul\":4279:4286   */\n      dup6\n        /* \"#utility.yul\":4270:4276   */\n      dup3\n        /* \"#utility.yul\":4259:4268   */\n      dup7\n        /* \"#utility.yul\":4255:4277   */\n      add\n        /* \"#utility.yul\":4235:4287   */\n      tag_281\n      jump\t// in\n    tag_307:\n        /* \"#utility.yul\":4225:4287   */\n      swap2\n      pop\n        /* \"#utility.yul\":4180:4297   */\n      pop\n        /* \"#utility.yul\":3981:4304   */\n      swap3\n      pop\n      swap3\n      swap1\n      pop\n      jump\t// out\n        /* \"#utility.yul\":4310:4588   */\n    tag_169:\n        /* \"#utility.yul\":4377:4383   */\n      0x00\n        /* \"#utility.yul\":4426:4428   */\n      0x20\n        /* \"#utility.yul\":4414:4423   */\n      dup3\n        /* \"#utility.yul\":4405:4412   */\n      dup5\n        /* \"#utility.yul\":4401:4424   */\n      sub\n        /* \"#utility.yul\":4397:4429   */\n      slt\n        /* \"#utility.yul\":4394:4396   */\n      iszero\n      tag_309\n      jumpi\n        /* \"#utility.yul\":4442:4443   */\n      0x00\n        /* \"#utility.yul\":4439:4440   */\n      dup1\n        /* \"#utility.yul\":4432:4444   */\n      revert\n        /* \"#utility.yul\":4394:4396   */\n    tag_309:\n        /* \"#utility.yul\":4485:4486   */\n      0x00\n        /* \"#utility.yul\":4510:4571   */\n      tag_310\n        /* \"#utility.yul\":4563:4570   */\n      dup5\n        /* \"#utility.yul\":4554:4560   */\n      dup3\n        /* \"#utility.yul\":4543:4552   */\n      dup6\n        /* \"#utility.yul\":4539:4561   */\n      add\n        /* \"#utility.yul\":4510:4571   */\n      tag_264\n      jump\t// in\n    tag_310:\n        /* \"#utility.yul\":4500:4571   */\n      swap2\n      pop\n        /* \"#utility.yul\":4456:4581   */\n      pop\n        /* \"#utility.yul\":4384:4588   */\n      swap3\n      swap2\n      pop\n      pop\n      jump\t// out\n        /* \"#utility.yul\":4594:4917   */\n    tag_19:\n        /* \"#utility.yul\":4683:4689   */\n      0x00\n        /* \"#utility.yul\":4732:4735   */\n      0xc0\n        /* \"#utility.yul\":4720:4729   */\n      dup3\n        /* \"#utility.yul\":4711:4718   */\n      dup5\n        /* \"#utility.yul\":4707:4730   */\n      sub\n        /* \"#utility.yul\":4703:4736   */\n      slt\n        /* \"#utility.yul\":4700:4702   */\n      iszero\n      tag_312\n      jumpi\n        /* \"#utility.yul\":4749:4750   */\n      0x00\n        /* \"#utility.yul\":4746:4747   */\n      dup1\n        /* \"#utility.yul\":4739:4751   */\n      revert\n        /* \"#utility.yul\":4700:4702   */\n    tag_312:\n        /* \"#utility.yul\":4792:4793   */\n      0x00\n        /* \"#utility.yul\":4817:4900   */\n      tag_313\n        /* \"#utility.yul\":4892:4899   */\n      dup5\n        /* \"#utility.yul\":4883:4889   */\n      dup3\n        /* \"#utility.yul\":4872:4881   */\n      dup6\n        /* \"#utility.yul\":4868:4890   */\n      add\n        /* \"#utility.yul\":4817:4900   */\n      tag_272\n      jump\t// in\n    tag_313:\n        /* \"#utility.yul\":4807:4900   */\n      swap2\n      pop\n        /* \"#utility.yul\":4763:4910   */\n      pop\n        /* \"#utility.yul\":4690:4917   */\n      swap3\n      swap2\n      pop\n      pop\n      jump\t// out\n        /* \"#utility.yul\":4923:5328   */\n    tag_43:\n        /* \"#utility.yul\":4990:4996   */\n      0x00\n        /* \"#utility.yul\":4998:5004   */\n      dup1\n        /* \"#utility.yul\":5047:5049   */\n      0x40\n        /* \"#utility.yul\":5035:5044   */\n      dup4\n        /* \"#utility.yul\":5026:5033   */\n      dup6\n        /* \"#utility.yul\":5022:5045   */\n      sub\n        /* \"#utility.yul\":5018:5050   */\n      slt\n        /* \"#utility.yul\":5015:5017   */\n      iszero\n      tag_315\n      jumpi\n        /* \"#utility.yul\":5063:5064   */\n      0x00\n        /* \"#utility.yul\":5060:5061   */\n      dup1\n        /* \"#utility.yul\":5053:5065   */\n      revert\n        /* \"#utility.yul\":5015:5017   */\n    tag_315:\n        /* \"#utility.yul\":5106:5107   */\n      0x00\n        /* \"#utility.yul\":5131:5183   */\n      tag_316\n        /* \"#utility.yul\":5175:5182   */\n      dup6\n        /* \"#utility.yul\":5166:5172   */\n      dup3\n        /* \"#utility.yul\":5155:5164   */\n      dup7\n        /* \"#utility.yul\":5151:5173   */\n      add\n        /* \"#utility.yul\":5131:5183   */\n      tag_281\n      jump\t// in\n    tag_316:\n        /* \"#utility.yul\":5121:5183   */\n      swap3\n      pop\n        /* \"#utility.yul\":5077:5193   */\n      pop\n        /* \"#utility.yul\":5232:5234   */\n      0x20\n        /* \"#utility.yul\":5258:5311   */\n      tag_317\n        /* \"#utility.yul\":5303:5310   */\n      dup6\n        /* \"#utility.yul\":5294:5300   */\n      dup3\n        /* \"#utility.yul\":5283:5292   */\n      dup7\n        /* \"#utility.yul\":5279:5301   */\n      add\n        /* \"#utility.yul\":5258:5311   */\n      tag_256\n      jump\t// in\n    tag_317:\n        /* \"#utility.yul\":5248:5311   */\n      swap2\n      pop\n        /* \"#utility.yul\":5203:5321   */\n      pop\n        /* \"#utility.yul\":5005:5328   */\n      swap3\n      pop\n      swap3\n      swap1\n      pop\n      jump\t// out\n        /* \"#utility.yul\":5334:5884   */\n    tag_36:\n        /* \"#utility.yul\":5410:5416   */\n      0x00\n        /* \"#utility.yul\":5418:5424   */\n      dup1\n        /* \"#utility.yul\":5426:5432   */\n      0x00\n        /* \"#utility.yul\":5475:5477   */\n      0x60\n        /* \"#utility.yul\":5463:5472   */\n      dup5\n        /* \"#utility.yul\":5454:5461   */\n      dup7\n        /* \"#utility.yul\":5450:5473   */\n      sub\n        /* \"#utility.yul\":5446:5478   */\n      slt\n        /* \"#utility.yul\":5443:5445   */\n      iszero\n      tag_319\n      jumpi\n        /* \"#utility.yul\":5491:5492   */\n      0x00\n        /* \"#utility.yul\":5488:5489   */\n      dup1\n        /* \"#utility.yul\":5481:5493   */\n      revert\n        /* \"#utility.yul\":5443:5445   */\n    tag_319:\n        /* \"#utility.yul\":5534:5535   */\n      0x00\n        /* \"#utility.yul\":5559:5611   */\n      tag_320\n        /* \"#utility.yul\":5603:5610   */\n      dup7\n        /* \"#utility.yul\":5594:5600   */\n      dup3\n        /* \"#utility.yul\":5583:5592   */\n      dup8\n        /* \"#utility.yul\":5579:5601   */\n      add\n        /* \"#utility.yul\":5559:5611   */\n      tag_281\n      jump\t// in\n    tag_320:\n        /* \"#utility.yul\":5549:5611   */\n      swap4\n      pop\n        /* \"#utility.yul\":5505:5621   */\n      pop\n        /* \"#utility.yul\":5660:5662   */\n      0x20\n        /* \"#utility.yul\":5686:5739   */\n      tag_321\n        /* \"#utility.yul\":5731:5738   */\n      dup7\n        /* \"#utility.yul\":5722:5728   */\n      dup3\n        /* \"#utility.yul\":5711:5720   */\n      dup8\n        /* \"#utility.yul\":5707:5729   */\n      add\n        /* \"#utility.yul\":5686:5739   */\n      tag_256\n      jump\t// in\n    tag_321:\n        /* \"#utility.yul\":5676:5739   */\n      swap3\n      pop\n        /* \"#utility.yul\":5631:5749   */\n      pop\n        /* \"#utility.yul\":5788:5790   */\n      0x40\n        /* \"#utility.yul\":5814:5867   */\n      tag_322\n        /* \"#utility.yul\":5859:5866   */\n      dup7\n        /* \"#utility.yul\":5850:5856   */\n      dup3\n        /* \"#utility.yul\":5839:5848   */\n      dup8\n        /* \"#utility.yul\":5835:5857   */\n      add\n        /* \"#utility.yul\":5814:5867   */\n      tag_256\n      jump\t// in\n    tag_322:\n        /* \"#utility.yul\":5804:5867   */\n      swap2\n      pop\n        /* \"#utility.yul\":5759:5877   */\n      pop\n        /* \"#utility.yul\":5433:5884   */\n      swap3\n      pop\n      swap3\n      pop\n      swap3\n      jump\t// out\n        /* \"#utility.yul\":5890:6438   */\n    tag_29:\n        /* \"#utility.yul\":5965:5971   */\n      0x00\n        /* \"#utility.yul\":5973:5979   */\n      dup1\n        /* \"#utility.yul\":5981:5987   */\n      0x00\n        /* \"#utility.yul\":6030:6032   */\n      0x60\n        /* \"#utility.yul\":6018:6027   */\n      dup5\n        /* \"#utility.yul\":6009:6016   */\n      dup7\n        /* \"#utility.yul\":6005:6028   */\n      sub\n        /* \"#utility.yul\":6001:6033   */\n      slt\n        /* \"#utility.yul\":5998:6000   */\n      iszero\n      tag_324\n      jumpi\n        /* \"#utility.yul\":6046:6047   */\n      0x00\n        /* \"#utility.yul\":6043:6044   */\n      dup1\n        /* \"#utility.yul\":6036:6048   */\n      revert\n        /* \"#utility.yul\":5998:6000   */\n    tag_324:\n        /* \"#utility.yul\":6089:6090   */\n      0x00\n        /* \"#utility.yul\":6114:6166   */\n      tag_325\n        /* \"#utility.yul\":6158:6165   */\n      dup7\n        /* \"#utility.yul\":6149:6155   */\n      dup3\n        /* \"#utility.yul\":6138:6147   */\n      dup8\n        /* \"#utility.yul\":6134:6156   */\n      add\n        /* \"#utility.yul\":6114:6166   */\n      tag_281\n      jump\t// in\n    tag_325:\n        /* \"#utility.yul\":6104:6166   */\n      swap4\n      pop\n        /* \"#utility.yul\":6060:6176   */\n      pop\n        /* \"#utility.yul\":6215:6217   */\n      0x20\n        /* \"#utility.yul\":6241:6294   */\n      tag_326\n        /* \"#utility.yul\":6286:6293   */\n      dup7\n        /* \"#utility.yul\":6277:6283   */\n      dup3\n        /* \"#utility.yul\":6266:6275   */\n      dup8\n        /* \"#utility.yul\":6262:6284   */\n      add\n        /* \"#utility.yul\":6241:6294   */\n      tag_256\n      jump\t// in\n    tag_326:\n        /* \"#utility.yul\":6231:6294   */\n      swap3\n      pop\n        /* \"#utility.yul\":6186:6304   */\n      pop\n        /* \"#utility.yul\":6343:6345   */\n      0x40\n        /* \"#utility.yul\":6369:6421   */\n      tag_327\n        /* \"#utility.yul\":6413:6420   */\n      dup7\n        /* \"#utility.yul\":6404:6410   */\n      dup3\n        /* \"#utility.yul\":6393:6402   */\n      dup8\n        /* \"#utility.yul\":6389:6411   */\n      add\n        /* \"#utility.yul\":6369:6421   */\n      tag_281\n      jump\t// in\n    tag_327:\n        /* \"#utility.yul\":6359:6421   */\n      swap2\n      pop\n        /* \"#utility.yul\":6314:6431   */\n      pop\n        /* \"#utility.yul\":5988:6438   */\n      swap3\n      pop\n      swap3\n      pop\n      swap3\n      jump\t// out\n        /* \"#utility.yul\":6444:7654   */\n    tag_65:\n        /* \"#utility.yul\":6565:6571   */\n      0x00\n        /* \"#utility.yul\":6573:6579   */\n      dup1\n        /* \"#utility.yul\":6581:6587   */\n      0x00\n        /* \"#utility.yul\":6589:6595   */\n      dup1\n        /* \"#utility.yul\":6597:6603   */\n      0x00\n        /* \"#utility.yul\":6605:6611   */\n      dup1\n        /* \"#utility.yul\":6654:6657   */\n      0xc0\n        /* \"#utility.yul\":6642:6651   */\n      dup8\n        /* \"#utility.yul\":6633:6640   */\n      dup10\n        /* \"#utility.yul\":6629:6652   */\n      sub\n        /* \"#utility.yul\":6625:6658   */\n      slt\n        /* \"#utility.yul\":6622:6624   */\n      iszero\n      tag_329\n      jumpi\n        /* \"#utility.yul\":6671:6672   */\n      0x00\n        /* \"#utility.yul\":6668:6669   */\n      dup1\n        /* \"#utility.yul\":6661:6673   */\n      revert\n        /* \"#utility.yul\":6622:6624   */\n    tag_329:\n        /* \"#utility.yul\":6714:6715   */\n      0x00\n        /* \"#utility.yul\":6739:6791   */\n      tag_330\n        /* \"#utility.yul\":6783:6790   */\n      dup10\n        /* \"#utility.yul\":6774:6780   */\n      dup3\n        /* \"#utility.yul\":6763:6772   */\n      dup11\n        /* \"#utility.yul\":6759:6781   */\n      add\n        /* \"#utility.yul\":6739:6791   */\n      tag_281\n      jump\t// in\n    tag_330:\n        /* \"#utility.yul\":6729:6791   */\n      swap7\n      pop\n        /* \"#utility.yul\":6685:6801   */\n      pop\n        /* \"#utility.yul\":6868:6870   */\n      0x20\n        /* \"#utility.yul\":6857:6866   */\n      dup8\n        /* \"#utility.yul\":6853:6871   */\n      add\n        /* \"#utility.yul\":6840:6872   */\n      calldataload\n        /* \"#utility.yul\":6899:6917   */\n      0xffffffffffffffff\n        /* \"#utility.yul\":6891:6897   */\n      dup2\n        /* \"#utility.yul\":6888:6918   */\n      gt\n        /* \"#utility.yul\":6885:6887   */\n      iszero\n      tag_331\n      jumpi\n        /* \"#utility.yul\":6931:6932   */\n      0x00\n        /* \"#utility.yul\":6928:6929   */\n      dup1\n        /* \"#utility.yul\":6921:6933   */\n      revert\n        /* \"#utility.yul\":6885:6887   */\n    tag_331:\n        /* \"#utility.yul\":6959:7021   */\n      tag_332\n        /* \"#utility.yul\":7013:7020   */\n      dup10\n        /* \"#utility.yul\":7004:7010   */\n      dup3\n        /* \"#utility.yul\":6993:7002   */\n      dup11\n        /* \"#utility.yul\":6989:7011   */\n      add\n        /* \"#utility.yul\":6959:7021   */\n      tag_268\n      jump\t// in\n    tag_332:\n        /* \"#utility.yul\":6949:7021   */\n      swap6\n      pop\n        /* \"#utility.yul\":6811:7031   */\n      pop\n        /* \"#utility.yul\":7070:7072   */\n      0x40\n        /* \"#utility.yul\":7096:7149   */\n      tag_333\n        /* \"#utility.yul\":7141:7148   */\n      dup10\n        /* \"#utility.yul\":7132:7138   */\n      dup3\n        /* \"#utility.yul\":7121:7130   */\n      dup11\n        /* \"#utility.yul\":7117:7139   */\n      add\n        /* \"#utility.yul\":7096:7149   */\n      tag_277\n      jump\t// in\n    tag_333:\n        /* \"#utility.yul\":7086:7149   */\n      swap5\n      pop\n        /* \"#utility.yul\":7041:7159   */\n      pop\n        /* \"#utility.yul\":7198:7200   */\n      0x60\n        /* \"#utility.yul\":7224:7277   */\n      tag_334\n        /* \"#utility.yul\":7269:7276   */\n      dup10\n        /* \"#utility.yul\":7260:7266   */\n      dup3\n        /* \"#utility.yul\":7249:7258   */\n      dup11\n        /* \"#utility.yul\":7245:7267   */\n      add\n        /* \"#utility.yul\":7224:7277   */\n      tag_256\n      jump\t// in\n    tag_334:\n        /* \"#utility.yul\":7214:7277   */\n      swap4\n      pop\n        /* \"#utility.yul\":7169:7287   */\n      pop\n        /* \"#utility.yul\":7326:7329   */\n      0x80\n        /* \"#utility.yul\":7353:7406   */\n      tag_335\n        /* \"#utility.yul\":7398:7405   */\n      dup10\n        /* \"#utility.yul\":7389:7395   */\n      dup3\n        /* \"#utility.yul\":7378:7387   */\n      dup11\n        /* \"#utility.yul\":7374:7396   */\n      add\n        /* \"#utility.yul\":7353:7406   */\n      tag_277\n      jump\t// in\n    tag_335:\n        /* \"#utility.yul\":7343:7406   */\n      swap3\n      pop\n        /* \"#utility.yul\":7297:7416   */\n      pop\n        /* \"#utility.yul\":7483:7486   */\n      0xa0\n        /* \"#utility.yul\":7472:7481   */\n      dup8\n        /* \"#utility.yul\":7468:7487   */\n      add\n        /* \"#utility.yul\":7455:7488   */\n      calldataload\n        /* \"#utility.yul\":7515:7533   */\n      0xffffffffffffffff\n        /* \"#utility.yul\":7507:7513   */\n      dup2\n        /* \"#utility.yul\":7504:7534   */\n      gt\n        /* \"#utility.yul\":7501:7503   */\n      iszero\n      tag_336\n      jumpi\n        /* \"#utility.yul\":7547:7548   */\n      0x00\n        /* \"#utility.yul\":7544:7545   */\n      dup1\n        /* \"#utility.yul\":7537:7549   */\n      revert\n        /* \"#utility.yul\":7501:7503   */\n    tag_336:\n        /* \"#utility.yul\":7575:7637   */\n      tag_337\n        /* \"#utility.yul\":7629:7636   */\n      dup10\n        /* \"#utility.yul\":7620:7626   */\n      dup3\n        /* \"#utility.yul\":7609:7618   */\n      dup11\n        /* \"#utility.yul\":7605:7627   */\n      add\n        /* \"#utility.yul\":7575:7637   */\n      tag_268\n      jump\t// in\n    tag_337:\n        /* \"#utility.yul\":7565:7637   */\n      swap2\n      pop\n        /* \"#utility.yul\":7426:7647   */\n      pop\n        /* \"#utility.yul\":6612:7654   */\n      swap3\n      swap6\n      pop\n      swap3\n      swap6\n      pop\n      swap3\n      swap6\n      jump\t// out\n        /* \"#utility.yul\":7660:7922   */\n    tag_24:\n        /* \"#utility.yul\":7719:7725   */\n      0x00\n        /* \"#utility.yul\":7768:7770   */\n      0x20\n        /* \"#utility.yul\":7756:7765   */\n      dup3\n        /* \"#utility.yul\":7747:7754   */\n      dup5\n        /* \"#utility.yul\":7743:7766   */\n      sub\n        /* \"#utility.yul\":7739:7771   */\n      slt\n        /* \"#utility.yul\":7736:7738   */\n      iszero\n      tag_339\n      jumpi\n        /* \"#utility.yul\":7784:7785   */\n      0x00\n        /* \"#utility.yul\":7781:7782   */\n      dup1\n        /* \"#utility.yul\":7774:7786   */\n      revert\n        /* \"#utility.yul\":7736:7738   */\n    tag_339:\n        /* \"#utility.yul\":7827:7828   */\n      0x00\n        /* \"#utility.yul\":7852:7905   */\n      tag_340\n        /* \"#utility.yul\":7897:7904   */\n      dup5\n        /* \"#utility.yul\":7888:7894   */\n      dup3\n        /* \"#utility.yul\":7877:7886   */\n      dup6\n        /* \"#utility.yul\":7873:7895   */\n      add\n        /* \"#utility.yul\":7852:7905   */\n      tag_277\n      jump\t// in\n    tag_340:\n        /* \"#utility.yul\":7842:7905   */\n      swap2\n      pop\n        /* \"#utility.yul\":7798:7915   */\n      pop\n        /* \"#utility.yul\":7726:7922   */\n      swap3\n      swap2\n      pop\n      pop\n      jump\t// out\n        /* \"#utility.yul\":7928:8212   */\n    tag_198:\n        /* \"#utility.yul\":7998:8004   */\n      0x00\n        /* \"#utility.yul\":8047:8049   */\n      0x20\n        /* \"#utility.yul\":8035:8044   */\n      dup3\n        /* \"#utility.yul\":8026:8033   */\n      dup5\n        /* \"#utility.yul\":8022:8045   */\n      sub\n        /* \"#utility.yul\":8018:8050   */\n      slt\n        /* \"#utility.yul\":8015:8017   */\n      iszero\n      tag_342\n      jumpi\n        /* \"#utility.yul\":8063:8064   */\n      0x00\n        /* \"#utility.yul\":8060:8061   */\n      dup1\n        /* \"#utility.yul\":8053:8065   */\n      revert\n        /* \"#utility.yul\":8015:8017   */\n    tag_342:\n        /* \"#utility.yul\":8106:8107   */\n      0x00\n        /* \"#utility.yul\":8131:8195   */\n      tag_343\n        /* \"#utility.yul\":8187:8194   */\n      dup5\n        /* \"#utility.yul\":8178:8184   */\n      dup3\n        /* \"#utility.yul\":8167:8176   */\n      dup6\n        /* \"#utility.yul\":8163:8185   */\n      add\n        /* \"#utility.yul\":8131:8195   */\n      tag_290\n      jump\t// in\n    tag_343:\n        /* \"#utility.yul\":8121:8195   */\n      swap2\n      pop\n        /* \"#utility.yul\":8077:8205   */\n      pop\n        /* \"#utility.yul\":8005:8212   */\n      swap3\n      swap2\n      pop\n      pop\n      jump\t// out\n        /* \"#utility.yul\":8218:8658   */\n    tag_124:\n        /* \"#utility.yul\":8297:8303   */\n      0x00\n        /* \"#utility.yul\":8305:8311   */\n      dup1\n        /* \"#utility.yul\":8354:8356   */\n      0x40\n        /* \"#utility.yul\":8342:8351   */\n      dup4\n        /* \"#utility.yul\":8333:8340   */\n      dup6\n        /* \"#utility.yul\":8329:8352   */\n      sub\n        /* \"#utility.yul\":8325:8357   */\n      slt\n        /* \"#utility.yul\":8322:8324   */\n      iszero\n      tag_345\n      jumpi\n        /* \"#utility.yul\":8370:8371   */\n      0x00\n        /* \"#utility.yul\":8367:8368   */\n      dup1\n        /* \"#utility.yul\":8360:8372   */\n      revert\n        /* \"#utility.yul\":8322:8324   */\n    tag_345:\n        /* \"#utility.yul\":8413:8414   */\n      0x00\n        /* \"#utility.yul\":8438:8502   */\n      tag_346\n        /* \"#utility.yul\":8494:8501   */\n      dup6\n        /* \"#utility.yul\":8485:8491   */\n      dup3\n        /* \"#utility.yul\":8474:8483   */\n      dup7\n        /* \"#utility.yul\":8470:8492   */\n      add\n        /* \"#utility.yul\":8438:8502   */\n      tag_290\n      jump\t// in\n    tag_346:\n        /* \"#utility.yul\":8428:8502   */\n      swap3\n      pop\n        /* \"#utility.yul\":8384:8512   */\n      pop\n        /* \"#utility.yul\":8551:8553   */\n      0x20\n        /* \"#utility.yul\":8577:8641   */\n      tag_347\n        /* \"#utility.yul\":8633:8640   */\n      dup6\n        /* \"#utility.yul\":8624:8630   */\n      dup3\n        /* \"#utility.yul\":8613:8622   */\n      dup7\n        /* \"#utility.yul\":8609:8631   */\n      add\n        /* \"#utility.yul\":8577:8641   */\n      tag_290\n      jump\t// in\n    tag_347:\n        /* \"#utility.yul\":8567:8641   */\n      swap2\n      pop\n        /* \"#utility.yul\":8522:8651   */\n      pop\n        /* \"#utility.yul\":8312:8658   */\n      swap3\n      pop\n      swap3\n      swap1\n      pop\n      jump\t// out\n        /* \"#utility.yul\":8664:8806   */\n    tag_348:\n        /* \"#utility.yul\":8767:8799   */\n      tag_350\n        /* \"#utility.yul\":8793:8798   */\n      dup2\n        /* \"#utility.yul\":8767:8799   */\n      tag_351\n      jump\t// in\n    tag_350:\n        /* \"#utility.yul\":8762:8765   */\n      dup3\n        /* \"#utility.yul\":8755:8800   */\n      mstore\n        /* \"#utility.yul\":8745:8806   */\n      pop\n      pop\n      jump\t// out\n        /* \"#utility.yul\":8812:8930   */\n    tag_352:\n        /* \"#utility.yul\":8899:8923   */\n      tag_354\n        /* \"#utility.yul\":8917:8922   */\n      dup2\n        /* \"#utility.yul\":8899:8923   */\n      tag_355\n      jump\t// in\n    tag_354:\n        /* \"#utility.yul\":8894:8897   */\n      dup3\n        /* \"#utility.yul\":8887:8924   */\n      mstore\n        /* \"#utility.yul\":8877:8930   */\n      pop\n      pop\n      jump\t// out\n        /* \"#utility.yul\":8936:9093   */\n    tag_356:\n        /* \"#utility.yul\":9041:9086   */\n      tag_358\n        /* \"#utility.yul\":9061:9085   */\n      tag_359\n        /* \"#utility.yul\":9079:9084   */\n      dup3\n        /* \"#utility.yul\":9061:9085   */\n      tag_355\n      jump\t// in\n    tag_359:\n        /* \"#utility.yul\":9041:9086   */\n      tag_360\n      jump\t// in\n    tag_358:\n        /* \"#utility.yul\":9036:9039   */\n      dup3\n        /* \"#utility.yul\":9029:9087   */\n      mstore\n        /* \"#utility.yul\":9019:9093   */\n      pop\n      pop\n      jump\t// out\n        /* \"#utility.yul\":9099:9208   */\n    tag_361:\n        /* \"#utility.yul\":9180:9201   */\n      tag_363\n        /* \"#utility.yul\":9195:9200   */\n      dup2\n        /* \"#utility.yul\":9180:9201   */\n      tag_364\n      jump\t// in\n    tag_363:\n        /* \"#utility.yul\":9175:9178   */\n      dup3\n        /* \"#utility.yul\":9168:9202   */\n      mstore\n        /* \"#utility.yul\":9158:9208   */\n      pop\n      pop\n      jump\t// out\n        /* \"#utility.yul\":9214:9554   */\n    tag_365:\n        /* \"#utility.yul\":9290:9293   */\n      0x00\n        /* \"#utility.yul\":9318:9356   */\n      tag_367\n        /* \"#utility.yul\":9350:9355   */\n      dup3\n        /* \"#utility.yul\":9318:9356   */\n      tag_368\n      jump\t// in\n    tag_367:\n        /* \"#utility.yul\":9372:9432   */\n      tag_369\n        /* \"#utility.yul\":9425:9431   */\n      dup2\n        /* \"#utility.yul\":9420:9423   */\n      dup6\n        /* \"#utility.yul\":9372:9432   */\n      tag_370\n      jump\t// in\n    tag_369:\n        /* \"#utility.yul\":9365:9432   */\n      swap4\n      pop\n        /* \"#utility.yul\":9441:9493   */\n      tag_371\n        /* \"#utility.yul\":9486:9492   */\n      dup2\n        /* \"#utility.yul\":9481:9484   */\n      dup6\n        /* \"#utility.yul\":9474:9478   */\n      0x20\n        /* \"#utility.yul\":9467:9472   */\n      dup7\n        /* \"#utility.yul\":9463:9479   */\n      add\n        /* \"#utility.yul\":9441:9493   */\n      tag_372\n      jump\t// in\n    tag_371:\n        /* \"#utility.yul\":9518:9547   */\n      tag_373\n        /* \"#utility.yul\":9540:9546   */\n      dup2\n        /* \"#utility.yul\":9518:9547   */\n      tag_374\n      jump\t// in\n    tag_373:\n        /* \"#utility.yul\":9513:9516   */\n      dup5\n        /* \"#utility.yul\":9509:9548   */\n      add\n        /* \"#utility.yul\":9502:9548   */\n      swap2\n      pop\n        /* \"#utility.yul\":9294:9554   */\n      pop\n      swap3\n      swap2\n      pop\n      pop\n      jump\t// out\n        /* \"#utility.yul\":9560:9920   */\n    tag_375:\n        /* \"#utility.yul\":9646:9649   */\n      0x00\n        /* \"#utility.yul\":9674:9712   */\n      tag_377\n        /* \"#utility.yul\":9706:9711   */\n      dup3\n        /* \"#utility.yul\":9674:9712   */\n      tag_368\n      jump\t// in\n    tag_377:\n        /* \"#utility.yul\":9728:9798   */\n      tag_378\n        /* \"#utility.yul\":9791:9797   */\n      dup2\n        /* \"#utility.yul\":9786:9789   */\n      dup6\n        /* \"#utility.yul\":9728:9798   */\n      tag_379\n      jump\t// in\n    tag_378:\n        /* \"#utility.yul\":9721:9798   */\n      swap4\n      pop\n        /* \"#utility.yul\":9807:9859   */\n      tag_380\n        /* \"#utility.yul\":9852:9858   */\n      dup2\n        /* \"#utility.yul\":9847:9850   */\n      dup6\n        /* \"#utility.yul\":9840:9844   */\n      0x20\n        /* \"#utility.yul\":9833:9838   */\n      dup7\n        /* \"#utility.yul\":9829:9845   */\n      add\n        /* \"#utility.yul\":9807:9859   */\n      tag_372\n      jump\t// in\n    tag_380:\n        /* \"#utility.yul\":9884:9913   */\n      tag_381\n        /* \"#utility.yul\":9906:9912   */\n      dup2\n        /* \"#utility.yul\":9884:9913   */\n      tag_374\n      jump\t// in\n    tag_381:\n        /* \"#utility.yul\":9879:9882   */\n      dup5\n        /* \"#utility.yul\":9875:9914   */\n      add\n        /* \"#utility.yul\":9868:9914   */\n      swap2\n      pop\n        /* \"#utility.yul\":9650:9920   */\n      pop\n      swap3\n      swap2\n      pop\n      pop\n      jump\t// out\n        /* \"#utility.yul\":9926:10299   */\n    tag_382:\n        /* \"#utility.yul\":10030:10033   */\n      0x00\n        /* \"#utility.yul\":10058:10096   */\n      tag_384\n        /* \"#utility.yul\":10090:10095   */\n      dup3\n        /* \"#utility.yul\":10058:10096   */\n      tag_368\n      jump\t// in\n    tag_384:\n        /* \"#utility.yul\":10112:10200   */\n      tag_385\n        /* \"#utility.yul\":10193:10199   */\n      dup2\n        /* \"#utility.yul\":10188:10191   */\n      dup6\n        /* \"#utility.yul\":10112:10200   */\n      tag_386\n      jump\t// in\n    tag_385:\n        /* \"#utility.yul\":10105:10200   */\n      swap4\n      pop\n        /* \"#utility.yul\":10209:10261   */\n      tag_387\n        /* \"#utility.yul\":10254:10260   */\n      dup2\n        /* \"#utility.yul\":10249:10252   */\n      dup6\n        /* \"#utility.yul\":10242:10246   */\n      0x20\n        /* \"#utility.yul\":10235:10240   */\n      dup7\n        /* \"#utility.yul\":10231:10247   */\n      add\n        /* \"#utility.yul\":10209:10261   */\n      tag_372\n      jump\t// in\n    tag_387:\n        /* \"#utility.yul\":10286:10292   */\n      dup1\n        /* \"#utility.yul\":10281:10284   */\n      dup5\n        /* \"#utility.yul\":10277:10293   */\n      add\n        /* \"#utility.yul\":10270:10293   */\n      swap2\n      pop\n        /* \"#utility.yul\":10034:10299   */\n      pop\n      swap3\n      swap2\n      pop\n      pop\n      jump\t// out\n        /* \"#utility.yul\":10305:10448   */\n    tag_388:\n        /* \"#utility.yul\":10398:10441   */\n      tag_390\n        /* \"#utility.yul\":10435:10440   */\n      dup2\n        /* \"#utility.yul\":10398:10441   */\n      tag_391\n      jump\t// in\n    tag_390:\n        /* \"#utility.yul\":10393:10396   */\n      dup3\n        /* \"#utility.yul\":10386:10442   */\n      mstore\n        /* \"#utility.yul\":10376:10448   */\n      pop\n      pop\n      jump\t// out\n        /* \"#utility.yul\":10454:10818   */\n    tag_392:\n        /* \"#utility.yul\":10542:10545   */\n      0x00\n        /* \"#utility.yul\":10570:10609   */\n      tag_394\n        /* \"#utility.yul\":10603:10608   */\n      dup3\n        /* \"#utility.yul\":10570:10609   */\n      tag_395\n      jump\t// in\n    tag_394:\n        /* \"#utility.yul\":10625:10696   */\n      tag_396\n        /* \"#utility.yul\":10689:10695   */\n      dup2\n        /* \"#utility.yul\":10684:10687   */\n      dup6\n        /* \"#utility.yul\":10625:10696   */\n      tag_397\n      jump\t// in\n    tag_396:\n        /* \"#utility.yul\":10618:10696   */\n      swap4\n      pop\n        /* \"#utility.yul\":10705:10757   */\n      tag_398\n        /* \"#utility.yul\":10750:10756   */\n      dup2\n        /* \"#utility.yul\":10745:10748   */\n      dup6\n        /* \"#utility.yul\":10738:10742   */\n      0x20\n        /* \"#utility.yul\":10731:10736   */\n      dup7\n        /* \"#utility.yul\":10727:10743   */\n      add\n        /* \"#utility.yul\":10705:10757   */\n      tag_372\n      jump\t// in\n    tag_398:\n        /* \"#utility.yul\":10782:10811   */\n      tag_399\n        /* \"#utility.yul\":10804:10810   */\n      dup2\n        /* \"#utility.yul\":10782:10811   */\n      tag_374\n      jump\t// in\n    tag_399:\n        /* \"#utility.yul\":10777:10780   */\n      dup5\n        /* \"#utility.yul\":10773:10812   */\n      add\n        /* \"#utility.yul\":10766:10812   */\n      swap2\n      pop\n        /* \"#utility.yul\":10546:10818   */\n      pop\n      swap3\n      swap2\n      pop\n      pop\n      jump\t// out\n        /* \"#utility.yul\":10824:11190   */\n    tag_400:\n        /* \"#utility.yul\":10966:10969   */\n      0x00\n        /* \"#utility.yul\":10987:11054   */\n      tag_402\n        /* \"#utility.yul\":11051:11053   */\n      0x22\n        /* \"#utility.yul\":11046:11049   */\n      dup4\n        /* \"#utility.yul\":10987:11054   */\n      tag_397\n      jump\t// in\n    tag_402:\n        /* \"#utility.yul\":10980:11054   */\n      swap2\n      pop\n        /* \"#utility.yul\":11063:11156   */\n      tag_403\n        /* \"#utility.yul\":11152:11155   */\n      dup3\n        /* \"#utility.yul\":11063:11156   */\n      tag_404\n      jump\t// in\n    tag_403:\n        /* \"#utility.yul\":11181:11183   */\n      0x40\n        /* \"#utility.yul\":11176:11179   */\n      dup3\n        /* \"#utility.yul\":11172:11184   */\n      add\n        /* \"#utility.yul\":11165:11184   */\n      swap1\n      pop\n        /* \"#utility.yul\":10970:11190   */\n      swap2\n      swap1\n      pop\n      jump\t// out\n        /* \"#utility.yul\":11196:11559   */\n    tag_405:\n        /* \"#utility.yul\":11337:11340   */\n      0x00\n        /* \"#utility.yul\":11358:11423   */\n      tag_407\n        /* \"#utility.yul\":11421:11422   */\n      0x02\n        /* \"#utility.yul\":11416:11419   */\n      dup4\n        /* \"#utility.yul\":11358:11423   */\n      tag_379\n      jump\t// in\n    tag_407:\n        /* \"#utility.yul\":11351:11423   */\n      swap2\n      pop\n        /* \"#utility.yul\":11432:11525   */\n      tag_408\n        /* \"#utility.yul\":11521:11524   */\n      dup3\n        /* \"#utility.yul\":11432:11525   */\n      tag_409\n      jump\t// in\n    tag_408:\n        /* \"#utility.yul\":11550:11552   */\n      0x20\n        /* \"#utility.yul\":11545:11548   */\n      dup3\n        /* \"#utility.yul\":11541:11553   */\n      add\n        /* \"#utility.yul\":11534:11553   */\n      swap1\n      pop\n        /* \"#utility.yul\":11341:11559   */\n      swap2\n      swap1\n      pop\n      jump\t// out\n        /* \"#utility.yul\":11565:11931   */\n    tag_410:\n        /* \"#utility.yul\":11707:11710   */\n      0x00\n        /* \"#utility.yul\":11728:11795   */\n      tag_412\n        /* \"#utility.yul\":11792:11794   */\n      0x26\n        /* \"#utility.yul\":11787:11790   */\n      dup4\n        /* \"#utility.yul\":11728:11795   */\n      tag_397\n      jump\t// in\n    tag_412:\n        /* \"#utility.yul\":11721:11795   */\n      swap2\n      pop\n        /* \"#utility.yul\":11804:11897   */\n      tag_413\n        /* \"#utility.yul\":11893:11896   */\n      dup3\n        /* \"#utility.yul\":11804:11897   */\n      tag_414\n      jump\t// in\n    tag_413:\n        /* \"#utility.yul\":11922:11924   */\n      0x40\n        /* \"#utility.yul\":11917:11920   */\n      dup3\n        /* \"#utility.yul\":11913:11925   */\n      add\n        /* \"#utility.yul\":11906:11925   */\n      swap1\n      pop\n        /* \"#utility.yul\":11711:11931   */\n      swap2\n      swap1\n      pop\n      jump\t// out\n        /* \"#utility.yul\":11937:12302   */\n    tag_415:\n        /* \"#utility.yul\":12079:12082   */\n      0x00\n        /* \"#utility.yul\":12100:12166   */\n      tag_417\n        /* \"#utility.yul\":12164:12165   */\n      0x08\n        /* \"#utility.yul\":12159:12162   */\n      dup4\n        /* \"#utility.yul\":12100:12166   */\n      tag_397\n      jump\t// in\n    tag_417:\n        /* \"#utility.yul\":12093:12166   */\n      swap2\n      pop\n        /* \"#utility.yul\":12175:12268   */\n      tag_418\n        /* \"#utility.yul\":12264:12267   */\n      dup3\n        /* \"#utility.yul\":12175:12268   */\n      tag_419\n      jump\t// in\n    tag_418:\n        /* \"#utility.yul\":12293:12295   */\n      0x20\n        /* \"#utility.yul\":12288:12291   */\n      dup3\n        /* \"#utility.yul\":12284:12296   */\n      add\n        /* \"#utility.yul\":12277:12296   */\n      swap1\n      pop\n        /* \"#utility.yul\":12083:12302   */\n      swap2\n      swap1\n      pop\n      jump\t// out\n        /* \"#utility.yul\":12308:12674   */\n    tag_420:\n        /* \"#utility.yul\":12450:12453   */\n      0x00\n        /* \"#utility.yul\":12471:12538   */\n      tag_422\n        /* \"#utility.yul\":12535:12537   */\n      0x1d\n        /* \"#utility.yul\":12530:12533   */\n      dup4\n        /* \"#utility.yul\":12471:12538   */\n      tag_397\n      jump\t// in\n    tag_422:\n        /* \"#utility.yul\":12464:12538   */\n      swap2\n      pop\n        /* \"#utility.yul\":12547:12640   */\n      tag_423\n        /* \"#utility.yul\":12636:12639   */\n      dup3\n        /* \"#utility.yul\":12547:12640   */\n      tag_424\n      jump\t// in\n    tag_423:\n        /* \"#utility.yul\":12665:12667   */\n      0x20\n        /* \"#utility.yul\":12660:12663   */\n      dup3\n        /* \"#utility.yul\":12656:12668   */\n      add\n        /* \"#utility.yul\":12649:12668   */\n      swap1\n      pop\n        /* \"#utility.yul\":12454:12674   */\n      swap2\n      swap1\n      pop\n      jump\t// out\n        /* \"#utility.yul\":12680:13046   */\n    tag_425:\n        /* \"#utility.yul\":12822:12825   */\n      0x00\n        /* \"#utility.yul\":12843:12910   */\n      tag_427\n        /* \"#utility.yul\":12907:12909   */\n      0x2a\n        /* \"#utility.yul\":12902:12905   */\n      dup4\n        /* \"#utility.yul\":12843:12910   */\n      tag_397\n      jump\t// in\n    tag_427:\n        /* \"#utility.yul\":12836:12910   */\n      swap2\n      pop\n        /* \"#utility.yul\":12919:13012   */\n      tag_428\n        /* \"#utility.yul\":13008:13011   */\n      dup3\n        /* \"#utility.yul\":12919:13012   */\n      tag_429\n      jump\t// in\n    tag_428:\n        /* \"#utility.yul\":13037:13039   */\n      0x40\n        /* \"#utility.yul\":13032:13035   */\n      dup3\n        /* \"#utility.yul\":13028:13040   */\n      add\n        /* \"#utility.yul\":13021:13040   */\n      swap1\n      pop\n        /* \"#utility.yul\":12826:13046   */\n      swap2\n      swap1\n      pop\n      jump\t// out\n        /* \"#utility.yul\":13052:13418   */\n    tag_430:\n        /* \"#utility.yul\":13194:13197   */\n      0x00\n        /* \"#utility.yul\":13215:13282   */\n      tag_432\n        /* \"#utility.yul\":13279:13281   */\n      0x36\n        /* \"#utility.yul\":13274:13277   */\n      dup4\n        /* \"#utility.yul\":13215:13282   */\n      tag_397\n      jump\t// in\n    tag_432:\n        /* \"#utility.yul\":13208:13282   */\n      swap2\n      pop\n        /* \"#utility.yul\":13291:13384   */\n      tag_433\n        /* \"#utility.yul\":13380:13383   */\n      dup3\n        /* \"#utility.yul\":13291:13384   */\n      tag_434\n      jump\t// in\n    tag_433:\n        /* \"#utility.yul\":13409:13411   */\n      0x40\n        /* \"#utility.yul\":13404:13407   */\n      dup3\n        /* \"#utility.yul\":13400:13412   */\n      add\n        /* \"#utility.yul\":13393:13412   */\n      swap1\n      pop\n        /* \"#utility.yul\":13198:13418   */\n      swap2\n      swap1\n      pop\n      jump\t// out\n        /* \"#utility.yul\":13496:14303   */\n    tag_435:\n        /* \"#utility.yul\":13615:13618   */\n      0x00\n        /* \"#utility.yul\":13651:13655   */\n      0x60\n        /* \"#utility.yul\":13646:13649   */\n      dup4\n        /* \"#utility.yul\":13642:13656   */\n      add\n        /* \"#utility.yul\":13747:13751   */\n      0x00\n        /* \"#utility.yul\":13740:13745   */\n      dup4\n        /* \"#utility.yul\":13736:13752   */\n      add\n        /* \"#utility.yul\":13730:13753   */\n      mload\n        /* \"#utility.yul\":13766:13829   */\n      tag_437\n        /* \"#utility.yul\":13823:13827   */\n      0x00\n        /* \"#utility.yul\":13818:13821   */\n      dup7\n        /* \"#utility.yul\":13814:13828   */\n      add\n        /* \"#utility.yul\":13800:13812   */\n      dup3\n        /* \"#utility.yul\":13766:13829   */\n      tag_438\n      jump\t// in\n    tag_437:\n        /* \"#utility.yul\":13666:13839   */\n      pop\n        /* \"#utility.yul\":13932:13936   */\n      0x20\n        /* \"#utility.yul\":13925:13930   */\n      dup4\n        /* \"#utility.yul\":13921:13937   */\n      add\n        /* \"#utility.yul\":13915:13938   */\n      mload\n        /* \"#utility.yul\":13951:14014   */\n      tag_439\n        /* \"#utility.yul\":14008:14012   */\n      0x20\n        /* \"#utility.yul\":14003:14006   */\n      dup7\n        /* \"#utility.yul\":13999:14013   */\n      add\n        /* \"#utility.yul\":13985:13997   */\n      dup3\n        /* \"#utility.yul\":13951:14014   */\n      tag_438\n      jump\t// in\n    tag_439:\n        /* \"#utility.yul\":13849:14024   */\n      pop\n        /* \"#utility.yul\":14115:14119   */\n      0x40\n        /* \"#utility.yul\":14108:14113   */\n      dup4\n        /* \"#utility.yul\":14104:14120   */\n      add\n        /* \"#utility.yul\":14098:14121   */\n      mload\n        /* \"#utility.yul\":14168:14171   */\n      dup5\n        /* \"#utility.yul\":14162:14166   */\n      dup3\n        /* \"#utility.yul\":14158:14172   */\n      sub\n        /* \"#utility.yul\":14151:14155   */\n      0x40\n        /* \"#utility.yul\":14146:14149   */\n      dup7\n        /* \"#utility.yul\":14142:14156   */\n      add\n        /* \"#utility.yul\":14135:14173   */\n      mstore\n        /* \"#utility.yul\":14194:14265   */\n      tag_440\n        /* \"#utility.yul\":14260:14264   */\n      dup3\n        /* \"#utility.yul\":14246:14258   */\n      dup3\n        /* \"#utility.yul\":14194:14265   */\n      tag_365\n      jump\t// in\n    tag_440:\n        /* \"#utility.yul\":14186:14265   */\n      swap2\n      pop\n        /* \"#utility.yul\":14034:14276   */\n      pop\n        /* \"#utility.yul\":14293:14297   */\n      dup1\n        /* \"#utility.yul\":14286:14297   */\n      swap2\n      pop\n        /* \"#utility.yul\":13620:14303   */\n      pop\n      swap3\n      swap2\n      pop\n      pop\n      jump\t// out\n        /* \"#utility.yul\":14309:14424   */\n    tag_441:\n        /* \"#utility.yul\":14394:14417   */\n      tag_443\n        /* \"#utility.yul\":14411:14416   */\n      dup2\n        /* \"#utility.yul\":14394:14417   */\n      tag_444\n      jump\t// in\n    tag_443:\n        /* \"#utility.yul\":14389:14392   */\n      dup3\n        /* \"#utility.yul\":14382:14418   */\n      mstore\n        /* \"#utility.yul\":14372:14424   */\n      pop\n      pop\n      jump\t// out\n        /* \"#utility.yul\":14430:14559   */\n    tag_445:\n        /* \"#utility.yul\":14516:14552   */\n      tag_447\n        /* \"#utility.yul\":14546:14551   */\n      dup2\n        /* \"#utility.yul\":14516:14552   */\n      tag_448\n      jump\t// in\n    tag_447:\n        /* \"#utility.yul\":14511:14514   */\n      dup3\n        /* \"#utility.yul\":14504:14553   */\n      mstore\n        /* \"#utility.yul\":14494:14559   */\n      pop\n      pop\n      jump\t// out\n        /* \"#utility.yul\":14565:14673   */\n    tag_438:\n        /* \"#utility.yul\":14642:14666   */\n      tag_450\n        /* \"#utility.yul\":14660:14665   */\n      dup2\n        /* \"#utility.yul\":14642:14666   */\n      tag_451\n      jump\t// in\n    tag_450:\n        /* \"#utility.yul\":14637:14640   */\n      dup3\n        /* \"#utility.yul\":14630:14667   */\n      mstore\n        /* \"#utility.yul\":14620:14673   */\n      pop\n      pop\n      jump\t// out\n        /* \"#utility.yul\":14679:14797   */\n    tag_452:\n        /* \"#utility.yul\":14766:14790   */\n      tag_454\n        /* \"#utility.yul\":14784:14789   */\n      dup2\n        /* \"#utility.yul\":14766:14790   */\n      tag_451\n      jump\t// in\n    tag_454:\n        /* \"#utility.yul\":14761:14764   */\n      dup3\n        /* \"#utility.yul\":14754:14791   */\n      mstore\n        /* \"#utility.yul\":14744:14797   */\n      pop\n      pop\n      jump\t// out\n        /* \"#utility.yul\":14803:15059   */\n    tag_93:\n        /* \"#utility.yul\":14915:14918   */\n      0x00\n        /* \"#utility.yul\":14930:15005   */\n      tag_456\n        /* \"#utility.yul\":15001:15004   */\n      dup3\n        /* \"#utility.yul\":14992:14998   */\n      dup5\n        /* \"#utility.yul\":14930:15005   */\n      tag_356\n      jump\t// in\n    tag_456:\n        /* \"#utility.yul\":15030:15032   */\n      0x14\n        /* \"#utility.yul\":15025:15028   */\n      dup3\n        /* \"#utility.yul\":15021:15033   */\n      add\n        /* \"#utility.yul\":15014:15033   */\n      swap2\n      pop\n        /* \"#utility.yul\":15050:15053   */\n      dup2\n        /* \"#utility.yul\":15043:15053   */\n      swap1\n      pop\n        /* \"#utility.yul\":14919:15059   */\n      swap3\n      swap2\n      pop\n      pop\n      jump\t// out\n        /* \"#utility.yul\":15065:15336   */\n    tag_232:\n        /* \"#utility.yul\":15195:15198   */\n      0x00\n        /* \"#utility.yul\":15217:15310   */\n      tag_458\n        /* \"#utility.yul\":15306:15309   */\n      dup3\n        /* \"#utility.yul\":15297:15303   */\n      dup5\n        /* \"#utility.yul\":15217:15310   */\n      tag_382\n      jump\t// in\n    tag_458:\n        /* \"#utility.yul\":15210:15310   */\n      swap2\n      pop\n        /* \"#utility.yul\":15327:15330   */\n      dup2\n        /* \"#utility.yul\":15320:15330   */\n      swap1\n      pop\n        /* \"#utility.yul\":15199:15336   */\n      swap3\n      swap2\n      pop\n      pop\n      jump\t// out\n        /* \"#utility.yul\":15342:15564   */\n    tag_95:\n        /* \"#utility.yul\":15435:15439   */\n      0x00\n        /* \"#utility.yul\":15473:15475   */\n      0x20\n        /* \"#utility.yul\":15462:15471   */\n      dup3\n        /* \"#utility.yul\":15458:15476   */\n      add\n        /* \"#utility.yul\":15450:15476   */\n      swap1\n      pop\n        /* \"#utility.yul\":15486:15557   */\n      tag_460\n        /* \"#utility.yul\":15554:15555   */\n      0x00\n        /* \"#utility.yul\":15543:15552   */\n      dup4\n        /* \"#utility.yul\":15539:15556   */\n      add\n        /* \"#utility.yul\":15530:15536   */\n      dup5\n        /* \"#utility.yul\":15486:15557   */\n      tag_352\n      jump\t// in\n    tag_460:\n        /* \"#utility.yul\":15440:15564   */\n      swap3\n      swap2\n      pop\n      pop\n      jump\t// out\n        /* \"#utility.yul\":15570:15902   */\n    tag_193:\n        /* \"#utility.yul\":15691:15695   */\n      0x00\n        /* \"#utility.yul\":15729:15731   */\n      0x40\n        /* \"#utility.yul\":15718:15727   */\n      dup3\n        /* \"#utility.yul\":15714:15732   */\n      add\n        /* \"#utility.yul\":15706:15732   */\n      swap1\n      pop\n        /* \"#utility.yul\":15742:15813   */\n      tag_462\n        /* \"#utility.yul\":15810:15811   */\n      0x00\n        /* \"#utility.yul\":15799:15808   */\n      dup4\n        /* \"#utility.yul\":15795:15812   */\n      add\n        /* \"#utility.yul\":15786:15792   */\n      dup6\n        /* \"#utility.yul\":15742:15813   */\n      tag_352\n      jump\t// in\n    tag_462:\n        /* \"#utility.yul\":15823:15895   */\n      tag_463\n        /* \"#utility.yul\":15891:15893   */\n      0x20\n        /* \"#utility.yul\":15880:15889   */\n      dup4\n        /* \"#utility.yul\":15876:15894   */\n      add\n        /* \"#utility.yul\":15867:15873   */\n      dup5\n        /* \"#utility.yul\":15823:15895   */\n      tag_352\n      jump\t// in\n    tag_463:\n        /* \"#utility.yul\":15696:15902   */\n      swap4\n      swap3\n      pop\n      pop\n      pop\n      jump\t// out\n        /* \"#utility.yul\":15908:16350   */\n    tag_188:\n        /* \"#utility.yul\":16057:16061   */\n      0x00\n        /* \"#utility.yul\":16095:16097   */\n      0x60\n        /* \"#utility.yul\":16084:16093   */\n      dup3\n        /* \"#utility.yul\":16080:16098   */\n      add\n        /* \"#utility.yul\":16072:16098   */\n      swap1\n      pop\n        /* \"#utility.yul\":16108:16179   */\n      tag_465\n        /* \"#utility.yul\":16176:16177   */\n      0x00\n        /* \"#utility.yul\":16165:16174   */\n      dup4\n        /* \"#utility.yul\":16161:16178   */\n      add\n        /* \"#utility.yul\":16152:16158   */\n      dup7\n        /* \"#utility.yul\":16108:16179   */\n      tag_352\n      jump\t// in\n    tag_465:\n        /* \"#utility.yul\":16189:16261   */\n      tag_466\n        /* \"#utility.yul\":16257:16259   */\n      0x20\n        /* \"#utility.yul\":16246:16255   */\n      dup4\n        /* \"#utility.yul\":16242:16260   */\n      add\n        /* \"#utility.yul\":16233:16239   */\n      dup6\n        /* \"#utility.yul\":16189:16261   */\n      tag_352\n      jump\t// in\n    tag_466:\n        /* \"#utility.yul\":16271:16343   */\n      tag_467\n        /* \"#utility.yul\":16339:16341   */\n      0x40\n        /* \"#utility.yul\":16328:16337   */\n      dup4\n        /* \"#utility.yul\":16324:16342   */\n      add\n        /* \"#utility.yul\":16315:16321   */\n      dup5\n        /* \"#utility.yul\":16271:16343   */\n      tag_452\n      jump\t// in\n    tag_467:\n        /* \"#utility.yul\":16062:16350   */\n      swap5\n      swap4\n      pop\n      pop\n      pop\n      pop\n      jump\t// out\n        /* \"#utility.yul\":16356:16684   */\n    tag_144:\n        /* \"#utility.yul\":16475:16479   */\n      0x00\n        /* \"#utility.yul\":16513:16515   */\n      0x40\n        /* \"#utility.yul\":16502:16511   */\n      dup3\n        /* \"#utility.yul\":16498:16516   */\n      add\n        /* \"#utility.yul\":16490:16516   */\n      swap1\n      pop\n        /* \"#utility.yul\":16526:16597   */\n      tag_469\n        /* \"#utility.yul\":16594:16595   */\n      0x00\n        /* \"#utility.yul\":16583:16592   */\n      dup4\n        /* \"#utility.yul\":16579:16596   */\n      add\n        /* \"#utility.yul\":16570:16576   */\n      dup6\n        /* \"#utility.yul\":16526:16597   */\n      tag_352\n      jump\t// in\n    tag_469:\n        /* \"#utility.yul\":16607:16677   */\n      tag_470\n        /* \"#utility.yul\":16673:16675   */\n      0x20\n        /* \"#utility.yul\":16662:16671   */\n      dup4\n        /* \"#utility.yul\":16658:16676   */\n      add\n        /* \"#utility.yul\":16649:16655   */\n      dup5\n        /* \"#utility.yul\":16607:16677   */\n      tag_441\n      jump\t// in\n    tag_470:\n        /* \"#utility.yul\":16480:16684   */\n      swap4\n      swap3\n      pop\n      pop\n      pop\n      jump\t// out\n        /* \"#utility.yul\":16690:17022   */\n    tag_164:\n        /* \"#utility.yul\":16811:16815   */\n      0x00\n        /* \"#utility.yul\":16849:16851   */\n      0x40\n        /* \"#utility.yul\":16838:16847   */\n      dup3\n        /* \"#utility.yul\":16834:16852   */\n      add\n        /* \"#utility.yul\":16826:16852   */\n      swap1\n      pop\n        /* \"#utility.yul\":16862:16933   */\n      tag_472\n        /* \"#utility.yul\":16930:16931   */\n      0x00\n        /* \"#utility.yul\":16919:16928   */\n      dup4\n        /* \"#utility.yul\":16915:16932   */\n      add\n        /* \"#utility.yul\":16906:16912   */\n      dup6\n        /* \"#utility.yul\":16862:16933   */\n      tag_352\n      jump\t// in\n    tag_472:\n        /* \"#utility.yul\":16943:17015   */\n      tag_473\n        /* \"#utility.yul\":17011:17013   */\n      0x20\n        /* \"#utility.yul\":17000:17009   */\n      dup4\n        /* \"#utility.yul\":16996:17014   */\n      add\n        /* \"#utility.yul\":16987:16993   */\n      dup5\n        /* \"#utility.yul\":16943:17015   */\n      tag_452\n      jump\t// in\n    tag_473:\n        /* \"#utility.yul\":16816:17022   */\n      swap4\n      swap3\n      pop\n      pop\n      pop\n      jump\t// out\n        /* \"#utility.yul\":17028:17238   */\n    tag_32:\n        /* \"#utility.yul\":17115:17119   */\n      0x00\n        /* \"#utility.yul\":17153:17155   */\n      0x20\n        /* \"#utility.yul\":17142:17151   */\n      dup3\n        /* \"#utility.yul\":17138:17156   */\n      add\n        /* \"#utility.yul\":17130:17156   */\n      swap1\n      pop\n        /* \"#utility.yul\":17166:17231   */\n      tag_475\n        /* \"#utility.yul\":17228:17229   */\n      0x00\n        /* \"#utility.yul\":17217:17226   */\n      dup4\n        /* \"#utility.yul\":17213:17230   */\n      add\n        /* \"#utility.yul\":17204:17210   */\n      dup5\n        /* \"#utility.yul\":17166:17231   */\n      tag_361\n      jump\t// in\n    tag_475:\n        /* \"#utility.yul\":17120:17238   */\n      swap3\n      swap2\n      pop\n      pop\n      jump\t// out\n        /* \"#utility.yul\":17244:17557   */\n    tag_245:\n        /* \"#utility.yul\":17357:17361   */\n      0x00\n        /* \"#utility.yul\":17395:17397   */\n      0x20\n        /* \"#utility.yul\":17384:17393   */\n      dup3\n        /* \"#utility.yul\":17380:17398   */\n      add\n        /* \"#utility.yul\":17372:17398   */\n      swap1\n      pop\n        /* \"#utility.yul\":17444:17453   */\n      dup2\n        /* \"#utility.yul\":17438:17442   */\n      dup2\n        /* \"#utility.yul\":17434:17454   */\n      sub\n        /* \"#utility.yul\":17430:17431   */\n      0x00\n        /* \"#utility.yul\":17419:17428   */\n      dup4\n        /* \"#utility.yul\":17415:17432   */\n      add\n        /* \"#utility.yul\":17408:17455   */\n      mstore\n        /* \"#utility.yul\":17472:17550   */\n      tag_477\n        /* \"#utility.yul\":17545:17549   */\n      dup2\n        /* \"#utility.yul\":17536:17542   */\n      dup5\n        /* \"#utility.yul\":17472:17550   */\n      tag_392\n      jump\t// in\n    tag_477:\n        /* \"#utility.yul\":17464:17550   */\n      swap1\n      pop\n        /* \"#utility.yul\":17362:17557   */\n      swap3\n      swap2\n      pop\n      pop\n      jump\t// out\n        /* \"#utility.yul\":17563:17982   */\n    tag_209:\n        /* \"#utility.yul\":17729:17733   */\n      0x00\n        /* \"#utility.yul\":17767:17769   */\n      0x20\n        /* \"#utility.yul\":17756:17765   */\n      dup3\n        /* \"#utility.yul\":17752:17770   */\n      add\n        /* \"#utility.yul\":17744:17770   */\n      swap1\n      pop\n        /* \"#utility.yul\":17816:17825   */\n      dup2\n        /* \"#utility.yul\":17810:17814   */\n      dup2\n        /* \"#utility.yul\":17806:17826   */\n      sub\n        /* \"#utility.yul\":17802:17803   */\n      0x00\n        /* \"#utility.yul\":17791:17800   */\n      dup4\n        /* \"#utility.yul\":17787:17804   */\n      add\n        /* \"#utility.yul\":17780:17827   */\n      mstore\n        /* \"#utility.yul\":17844:17975   */\n      tag_479\n        /* \"#utility.yul\":17970:17974   */\n      dup2\n        /* \"#utility.yul\":17844:17975   */\n      tag_400\n      jump\t// in\n    tag_479:\n        /* \"#utility.yul\":17836:17975   */\n      swap1\n      pop\n        /* \"#utility.yul\":17734:17982   */\n      swap2\n      swap1\n      pop\n      jump\t// out\n        /* \"#utility.yul\":17988:18407   */\n    tag_225:\n        /* \"#utility.yul\":18154:18158   */\n      0x00\n        /* \"#utility.yul\":18192:18194   */\n      0x20\n        /* \"#utility.yul\":18181:18190   */\n      dup3\n        /* \"#utility.yul\":18177:18195   */\n      add\n        /* \"#utility.yul\":18169:18195   */\n      swap1\n      pop\n        /* \"#utility.yul\":18241:18250   */\n      dup2\n        /* \"#utility.yul\":18235:18239   */\n      dup2\n        /* \"#utility.yul\":18231:18251   */\n      sub\n        /* \"#utility.yul\":18227:18228   */\n      0x00\n        /* \"#utility.yul\":18216:18225   */\n      dup4\n        /* \"#utility.yul\":18212:18229   */\n      add\n        /* \"#utility.yul\":18205:18252   */\n      mstore\n        /* \"#utility.yul\":18269:18400   */\n      tag_481\n        /* \"#utility.yul\":18395:18399   */\n      dup2\n        /* \"#utility.yul\":18269:18400   */\n      tag_410\n      jump\t// in\n    tag_481:\n        /* \"#utility.yul\":18261:18400   */\n      swap1\n      pop\n        /* \"#utility.yul\":18159:18407   */\n      swap2\n      swap1\n      pop\n      jump\t// out\n        /* \"#utility.yul\":18413:19492   */\n    tag_106:\n        /* \"#utility.yul\":18745:18749   */\n      0x00\n        /* \"#utility.yul\":18783:18786   */\n      0xe0\n        /* \"#utility.yul\":18772:18781   */\n      dup3\n        /* \"#utility.yul\":18768:18787   */\n      add\n        /* \"#utility.yul\":18760:18787   */\n      swap1\n      pop\n        /* \"#utility.yul\":18833:18842   */\n      dup2\n        /* \"#utility.yul\":18827:18831   */\n      dup2\n        /* \"#utility.yul\":18823:18843   */\n      sub\n        /* \"#utility.yul\":18819:18820   */\n      0x00\n        /* \"#utility.yul\":18808:18817   */\n      dup4\n        /* \"#utility.yul\":18804:18821   */\n      add\n        /* \"#utility.yul\":18797:18844   */\n      mstore\n        /* \"#utility.yul\":18861:18992   */\n      tag_483\n        /* \"#utility.yul\":18987:18991   */\n      dup2\n        /* \"#utility.yul\":18861:18992   */\n      tag_415\n      jump\t// in\n    tag_483:\n        /* \"#utility.yul\":18853:18992   */\n      swap1\n      pop\n        /* \"#utility.yul\":19002:19074   */\n      tag_484\n        /* \"#utility.yul\":19070:19072   */\n      0x20\n        /* \"#utility.yul\":19059:19068   */\n      dup4\n        /* \"#utility.yul\":19055:19073   */\n      add\n        /* \"#utility.yul\":19046:19052   */\n      dup10\n        /* \"#utility.yul\":19002:19074   */\n      tag_352\n      jump\t// in\n    tag_484:\n        /* \"#utility.yul\":19084:19156   */\n      tag_485\n        /* \"#utility.yul\":19152:19154   */\n      0x40\n        /* \"#utility.yul\":19141:19150   */\n      dup4\n        /* \"#utility.yul\":19137:19155   */\n      add\n        /* \"#utility.yul\":19128:19134   */\n      dup9\n        /* \"#utility.yul\":19084:19156   */\n      tag_352\n      jump\t// in\n    tag_485:\n        /* \"#utility.yul\":19166:19238   */\n      tag_486\n        /* \"#utility.yul\":19234:19236   */\n      0x60\n        /* \"#utility.yul\":19223:19232   */\n      dup4\n        /* \"#utility.yul\":19219:19237   */\n      add\n        /* \"#utility.yul\":19210:19216   */\n      dup8\n        /* \"#utility.yul\":19166:19238   */\n      tag_352\n      jump\t// in\n    tag_486:\n        /* \"#utility.yul\":19248:19321   */\n      tag_487\n        /* \"#utility.yul\":19316:19319   */\n      0x80\n        /* \"#utility.yul\":19305:19314   */\n      dup4\n        /* \"#utility.yul\":19301:19320   */\n      add\n        /* \"#utility.yul\":19292:19298   */\n      dup7\n        /* \"#utility.yul\":19248:19321   */\n      tag_352\n      jump\t// in\n    tag_487:\n        /* \"#utility.yul\":19331:19404   */\n      tag_488\n        /* \"#utility.yul\":19399:19402   */\n      0xa0\n        /* \"#utility.yul\":19388:19397   */\n      dup4\n        /* \"#utility.yul\":19384:19403   */\n      add\n        /* \"#utility.yul\":19375:19381   */\n      dup6\n        /* \"#utility.yul\":19331:19404   */\n      tag_452\n      jump\t// in\n    tag_488:\n        /* \"#utility.yul\":19414:19485   */\n      tag_489\n        /* \"#utility.yul\":19480:19483   */\n      0xc0\n        /* \"#utility.yul\":19469:19478   */\n      dup4\n        /* \"#utility.yul\":19465:19484   */\n      add\n        /* \"#utility.yul\":19456:19462   */\n      dup5\n        /* \"#utility.yul\":19414:19485   */\n      tag_441\n      jump\t// in\n    tag_489:\n        /* \"#utility.yul\":18750:19492   */\n      swap8\n      swap7\n      pop\n      pop\n      pop\n      pop\n      pop\n      pop\n      pop\n      jump\t// out\n        /* \"#utility.yul\":19498:19917   */\n    tag_230:\n        /* \"#utility.yul\":19664:19668   */\n      0x00\n        /* \"#utility.yul\":19702:19704   */\n      0x20\n        /* \"#utility.yul\":19691:19700   */\n      dup3\n        /* \"#utility.yul\":19687:19705   */\n      add\n        /* \"#utility.yul\":19679:19705   */\n      swap1\n      pop\n        /* \"#utility.yul\":19751:19760   */\n      dup2\n        /* \"#utility.yul\":19745:19749   */\n      dup2\n        /* \"#utility.yul\":19741:19761   */\n      sub\n        /* \"#utility.yul\":19737:19738   */\n      0x00\n        /* \"#utility.yul\":19726:19735   */\n      dup4\n        /* \"#utility.yul\":19722:19739   */\n      add\n        /* \"#utility.yul\":19715:19762   */\n      mstore\n        /* \"#utility.yul\":19779:19910   */\n      tag_491\n        /* \"#utility.yul\":19905:19909   */\n      dup2\n        /* \"#utility.yul\":19779:19910   */\n      tag_420\n      jump\t// in\n    tag_491:\n        /* \"#utility.yul\":19771:19910   */\n      swap1\n      pop\n        /* \"#utility.yul\":19669:19917   */\n      swap2\n      swap1\n      pop\n      jump\t// out\n        /* \"#utility.yul\":19923:20342   */\n    tag_217:\n        /* \"#utility.yul\":20089:20093   */\n      0x00\n        /* \"#utility.yul\":20127:20129   */\n      0x20\n        /* \"#utility.yul\":20116:20125   */\n      dup3\n        /* \"#utility.yul\":20112:20130   */\n      add\n        /* \"#utility.yul\":20104:20130   */\n      swap1\n      pop\n        /* \"#utility.yul\":20176:20185   */\n      dup2\n        /* \"#utility.yul\":20170:20174   */\n      dup2\n        /* \"#utility.yul\":20166:20186   */\n      sub\n        /* \"#utility.yul\":20162:20163   */\n      0x00\n        /* \"#utility.yul\":20151:20160   */\n      dup4\n        /* \"#utility.yul\":20147:20164   */\n      add\n        /* \"#utility.yul\":20140:20187   */\n      mstore\n        /* \"#utility.yul\":20204:20335   */\n      tag_493\n        /* \"#utility.yul\":20330:20334   */\n      dup2\n        /* \"#utility.yul\":20204:20335   */\n      tag_425\n      jump\t// in\n    tag_493:\n        /* \"#utility.yul\":20196:20335   */\n      swap1\n      pop\n        /* \"#utility.yul\":20094:20342   */\n      swap2\n      swap1\n      pop\n      jump\t// out\n        /* \"#utility.yul\":20348:20767   */\n    tag_201:\n        /* \"#utility.yul\":20514:20518   */\n      0x00\n        /* \"#utility.yul\":20552:20554   */\n      0x20\n        /* \"#utility.yul\":20541:20550   */\n      dup3\n        /* \"#utility.yul\":20537:20555   */\n      add\n        /* \"#utility.yul\":20529:20555   */\n      swap1\n      pop\n        /* \"#utility.yul\":20601:20610   */\n      dup2\n        /* \"#utility.yul\":20595:20599   */\n      dup2\n        /* \"#utility.yul\":20591:20611   */\n      sub\n        /* \"#utility.yul\":20587:20588   */\n      0x00\n        /* \"#utility.yul\":20576:20585   */\n      dup4\n        /* \"#utility.yul\":20572:20589   */\n      add\n        /* \"#utility.yul\":20565:20612   */\n      mstore\n        /* \"#utility.yul\":20629:20760   */\n      tag_495\n        /* \"#utility.yul\":20755:20759   */\n      dup2\n        /* \"#utility.yul\":20629:20760   */\n      tag_430\n      jump\t// in\n    tag_495:\n        /* \"#utility.yul\":20621:20760   */\n      swap1\n      pop\n        /* \"#utility.yul\":20519:20767   */\n      swap2\n      swap1\n      pop\n      jump\t// out\n        /* \"#utility.yul\":20773:20991   */\n    tag_46:\n        /* \"#utility.yul\":20864:20868   */\n      0x00\n        /* \"#utility.yul\":20902:20904   */\n      0x20\n        /* \"#utility.yul\":20891:20900   */\n      dup3\n        /* \"#utility.yul\":20887:20905   */\n      add\n        /* \"#utility.yul\":20879:20905   */\n      swap1\n      pop\n        /* \"#utility.yul\":20915:20984   */\n      tag_497\n        /* \"#utility.yul\":20981:20982   */\n      0x00\n        /* \"#utility.yul\":20970:20979   */\n      dup4\n        /* \"#utility.yul\":20966:20983   */\n      add\n        /* \"#utility.yul\":20957:20963   */\n      dup5\n        /* \"#utility.yul\":20915:20984   */\n      tag_441\n      jump\t// in\n    tag_497:\n        /* \"#utility.yul\":20869:20991   */\n      swap3\n      swap2\n      pop\n      pop\n      jump\t// out\n        /* \"#utility.yul\":20997:21431   */\n    tag_175:\n        /* \"#utility.yul\":21142:21146   */\n      0x00\n        /* \"#utility.yul\":21180:21182   */\n      0x60\n        /* \"#utility.yul\":21169:21178   */\n      dup3\n        /* \"#utility.yul\":21165:21183   */\n      add\n        /* \"#utility.yul\":21157:21183   */\n      swap1\n      pop\n        /* \"#utility.yul\":21193:21262   */\n      tag_499\n        /* \"#utility.yul\":21259:21260   */\n      0x00\n        /* \"#utility.yul\":21248:21257   */\n      dup4\n        /* \"#utility.yul\":21244:21261   */\n      add\n        /* \"#utility.yul\":21235:21241   */\n      dup7\n        /* \"#utility.yul\":21193:21262   */\n      tag_441\n      jump\t// in\n    tag_499:\n        /* \"#utility.yul\":21272:21344   */\n      tag_500\n        /* \"#utility.yul\":21340:21342   */\n      0x20\n        /* \"#utility.yul\":21329:21338   */\n      dup4\n        /* \"#utility.yul\":21325:21343   */\n      add\n        /* \"#utility.yul\":21316:21322   */\n      dup6\n        /* \"#utility.yul\":21272:21344   */\n      tag_352\n      jump\t// in\n    tag_500:\n        /* \"#utility.yul\":21354:21424   */\n      tag_501\n        /* \"#utility.yul\":21420:21422   */\n      0x40\n        /* \"#utility.yul\":21409:21418   */\n      dup4\n        /* \"#utility.yul\":21405:21423   */\n      add\n        /* \"#utility.yul\":21396:21402   */\n      dup5\n        /* \"#utility.yul\":21354:21424   */\n      tag_441\n      jump\t// in\n    tag_501:\n        /* \"#utility.yul\":21147:21431   */\n      swap5\n      swap4\n      pop\n      pop\n      pop\n      pop\n      jump\t// out\n        /* \"#utility.yul\":21437:22542   */\n    tag_119:\n        /* \"#utility.yul\":21786:21790   */\n      0x00\n        /* \"#utility.yul\":21824:21827   */\n      0xa0\n        /* \"#utility.yul\":21813:21822   */\n      dup3\n        /* \"#utility.yul\":21809:21828   */\n      add\n        /* \"#utility.yul\":21801:21828   */\n      swap1\n      pop\n        /* \"#utility.yul\":21838:21907   */\n      tag_503\n        /* \"#utility.yul\":21904:21905   */\n      0x00\n        /* \"#utility.yul\":21893:21902   */\n      dup4\n        /* \"#utility.yul\":21889:21906   */\n      add\n        /* \"#utility.yul\":21880:21886   */\n      dup8\n        /* \"#utility.yul\":21838:21907   */\n      tag_441\n      jump\t// in\n    tag_503:\n        /* \"#utility.yul\":21917:21995   */\n      tag_504\n        /* \"#utility.yul\":21991:21993   */\n      0x20\n        /* \"#utility.yul\":21980:21989   */\n      dup4\n        /* \"#utility.yul\":21976:21994   */\n      add\n        /* \"#utility.yul\":21967:21973   */\n      dup7\n        /* \"#utility.yul\":21917:21995   */\n      tag_388\n      jump\t// in\n    tag_504:\n        /* \"#utility.yul\":22042:22051   */\n      dup2\n        /* \"#utility.yul\":22036:22040   */\n      dup2\n        /* \"#utility.yul\":22032:22052   */\n      sub\n        /* \"#utility.yul\":22027:22029   */\n      0x40\n        /* \"#utility.yul\":22016:22025   */\n      dup4\n        /* \"#utility.yul\":22012:22030   */\n      add\n        /* \"#utility.yul\":22005:22053   */\n      mstore\n        /* \"#utility.yul\":22070:22146   */\n      tag_505\n        /* \"#utility.yul\":22141:22145   */\n      dup2\n        /* \"#utility.yul\":22132:22138   */\n      dup6\n        /* \"#utility.yul\":22070:22146   */\n      tag_375\n      jump\t// in\n    tag_505:\n        /* \"#utility.yul\":22062:22146   */\n      swap1\n      pop\n        /* \"#utility.yul\":22193:22202   */\n      dup2\n        /* \"#utility.yul\":22187:22191   */\n      dup2\n        /* \"#utility.yul\":22183:22203   */\n      sub\n        /* \"#utility.yul\":22178:22180   */\n      0x60\n        /* \"#utility.yul\":22167:22176   */\n      dup4\n        /* \"#utility.yul\":22163:22181   */\n      add\n        /* \"#utility.yul\":22156:22204   */\n      mstore\n        /* \"#utility.yul\":22221:22351   */\n      tag_506\n        /* \"#utility.yul\":22346:22350   */\n      dup2\n        /* \"#utility.yul\":22221:22351   */\n      tag_405\n      jump\t// in\n    tag_506:\n        /* \"#utility.yul\":22213:22351   */\n      swap1\n      pop\n        /* \"#utility.yul\":22399:22408   */\n      dup2\n        /* \"#utility.yul\":22393:22397   */\n      dup2\n        /* \"#utility.yul\":22389:22409   */\n      sub\n        /* \"#utility.yul\":22383:22386   */\n      0x80\n        /* \"#utility.yul\":22372:22381   */\n      dup4\n        /* \"#utility.yul\":22368:22387   */\n      add\n        /* \"#utility.yul\":22361:22410   */\n      mstore\n        /* \"#utility.yul\":22427:22535   */\n      tag_507\n        /* \"#utility.yul\":22530:22534   */\n      dup2\n        /* \"#utility.yul\":22521:22527   */\n      dup5\n        /* \"#utility.yul\":22427:22535   */\n      tag_435\n      jump\t// in\n    tag_507:\n        /* \"#utility.yul\":22419:22535   */\n      swap1\n      pop\n        /* \"#utility.yul\":21791:22542   */\n      swap6\n      swap5\n      pop\n      pop\n      pop\n      pop\n      pop\n      jump\t// out\n        /* \"#utility.yul\":22548:24005   */\n    tag_101:\n        /* \"#utility.yul\":22963:22967   */\n      0x00\n        /* \"#utility.yul\":23001:23004   */\n      0x0120\n        /* \"#utility.yul\":22990:22999   */\n      dup3\n        /* \"#utility.yul\":22986:23005   */\n      add\n        /* \"#utility.yul\":22978:23005   */\n      swap1\n      pop\n        /* \"#utility.yul\":23015:23084   */\n      tag_509\n        /* \"#utility.yul\":23081:23082   */\n      0x00\n        /* \"#utility.yul\":23070:23079   */\n      dup4\n        /* \"#utility.yul\":23066:23083   */\n      add\n        /* \"#utility.yul\":23057:23063   */\n      dup13\n        /* \"#utility.yul\":23015:23084   */\n      tag_441\n      jump\t// in\n    tag_509:\n        /* \"#utility.yul\":23094:23165   */\n      tag_510\n        /* \"#utility.yul\":23161:23163   */\n      0x20\n        /* \"#utility.yul\":23150:23159   */\n      dup4\n        /* \"#utility.yul\":23146:23164   */\n      add\n        /* \"#utility.yul\":23137:23143   */\n      dup12\n        /* \"#utility.yul\":23094:23165   */\n      tag_445\n      jump\t// in\n    tag_510:\n        /* \"#utility.yul\":23175:23246   */\n      tag_511\n        /* \"#utility.yul\":23242:23244   */\n      0x40\n        /* \"#utility.yul\":23231:23240   */\n      dup4\n        /* \"#utility.yul\":23227:23245   */\n      add\n        /* \"#utility.yul\":23218:23224   */\n      dup11\n        /* \"#utility.yul\":23175:23246   */\n      tag_445\n      jump\t// in\n    tag_511:\n        /* \"#utility.yul\":23256:23344   */\n      tag_512\n        /* \"#utility.yul\":23340:23342   */\n      0x60\n        /* \"#utility.yul\":23329:23338   */\n      dup4\n        /* \"#utility.yul\":23325:23343   */\n      add\n        /* \"#utility.yul\":23316:23322   */\n      dup10\n        /* \"#utility.yul\":23256:23344   */\n      tag_348\n      jump\t// in\n    tag_512:\n        /* \"#utility.yul\":23354:23427   */\n      tag_513\n        /* \"#utility.yul\":23422:23425   */\n      0x80\n        /* \"#utility.yul\":23411:23420   */\n      dup4\n        /* \"#utility.yul\":23407:23426   */\n      add\n        /* \"#utility.yul\":23398:23404   */\n      dup9\n        /* \"#utility.yul\":23354:23427   */\n      tag_452\n      jump\t// in\n    tag_513:\n        /* \"#utility.yul\":23437:23510   */\n      tag_514\n        /* \"#utility.yul\":23505:23508   */\n      0xa0\n        /* \"#utility.yul\":23494:23503   */\n      dup4\n        /* \"#utility.yul\":23490:23509   */\n      add\n        /* \"#utility.yul\":23481:23487   */\n      dup8\n        /* \"#utility.yul\":23437:23510   */\n      tag_452\n      jump\t// in\n    tag_514:\n        /* \"#utility.yul\":23558:23567   */\n      dup2\n        /* \"#utility.yul\":23552:23556   */\n      dup2\n        /* \"#utility.yul\":23548:23568   */\n      sub\n        /* \"#utility.yul\":23542:23545   */\n      0xc0\n        /* \"#utility.yul\":23531:23540   */\n      dup4\n        /* \"#utility.yul\":23527:23546   */\n      add\n        /* \"#utility.yul\":23520:23569   */\n      mstore\n        /* \"#utility.yul\":23586:23694   */\n      tag_515\n        /* \"#utility.yul\":23689:23693   */\n      dup2\n        /* \"#utility.yul\":23680:23686   */\n      dup7\n        /* \"#utility.yul\":23586:23694   */\n      tag_435\n      jump\t// in\n    tag_515:\n        /* \"#utility.yul\":23578:23694   */\n      swap1\n      pop\n        /* \"#utility.yul\":23742:23751   */\n      dup2\n        /* \"#utility.yul\":23736:23740   */\n      dup2\n        /* \"#utility.yul\":23732:23752   */\n      sub\n        /* \"#utility.yul\":23726:23729   */\n      0xe0\n        /* \"#utility.yul\":23715:23724   */\n      dup4\n        /* \"#utility.yul\":23711:23730   */\n      add\n        /* \"#utility.yul\":23704:23753   */\n      mstore\n        /* \"#utility.yul\":23770:23846   */\n      tag_516\n        /* \"#utility.yul\":23841:23845   */\n      dup2\n        /* \"#utility.yul\":23832:23838   */\n      dup6\n        /* \"#utility.yul\":23770:23846   */\n      tag_375\n      jump\t// in\n    tag_516:\n        /* \"#utility.yul\":23762:23846   */\n      swap1\n      pop\n        /* \"#utility.yul\":23894:23903   */\n      dup2\n        /* \"#utility.yul\":23888:23892   */\n      dup2\n        /* \"#utility.yul\":23884:23904   */\n      sub\n        /* \"#utility.yul\":23878:23881   */\n      0x0100\n        /* \"#utility.yul\":23867:23876   */\n      dup4\n        /* \"#utility.yul\":23863:23882   */\n      add\n        /* \"#utility.yul\":23856:23905   */\n      mstore\n        /* \"#utility.yul\":23922:23998   */\n      tag_517\n        /* \"#utility.yul\":23993:23997   */\n      dup2\n        /* \"#utility.yul\":23984:23990   */\n      dup5\n        /* \"#utility.yul\":23922:23998   */\n      tag_375\n      jump\t// in\n    tag_517:\n        /* \"#utility.yul\":23914:23998   */\n      swap1\n      pop\n        /* \"#utility.yul\":22968:24005   */\n      swap11\n      swap10\n      pop\n      pop\n      pop\n      pop\n      pop\n      pop\n      pop\n      pop\n      pop\n      pop\n      jump\t// out\n        /* \"#utility.yul\":24011:24233   */\n    tag_39:\n        /* \"#utility.yul\":24104:24108   */\n      0x00\n        /* \"#utility.yul\":24142:24144   */\n      0x20\n        /* \"#utility.yul\":24131:24140   */\n      dup3\n        /* \"#utility.yul\":24127:24145   */\n      add\n        /* \"#utility.yul\":24119:24145   */\n      swap1\n      pop\n        /* \"#utility.yul\":24155:24226   */\n      tag_519\n        /* \"#utility.yul\":24223:24224   */\n      0x00\n        /* \"#utility.yul\":24212:24221   */\n      dup4\n        /* \"#utility.yul\":24208:24225   */\n      add\n        /* \"#utility.yul\":24199:24205   */\n      dup5\n        /* \"#utility.yul\":24155:24226   */\n      tag_452\n      jump\t// in\n    tag_519:\n        /* \"#utility.yul\":24109:24233   */\n      swap3\n      swap2\n      pop\n      pop\n      jump\t// out\n        /* \"#utility.yul\":24239:24368   */\n    tag_252:\n        /* \"#utility.yul\":24273:24279   */\n      0x00\n        /* \"#utility.yul\":24300:24320   */\n      tag_521\n      tag_522\n      jump\t// in\n    tag_521:\n        /* \"#utility.yul\":24290:24320   */\n      swap1\n      pop\n        /* \"#utility.yul\":24329:24362   */\n      tag_523\n        /* \"#utility.yul\":24357:24361   */\n      dup3\n        /* \"#utility.yul\":24349:24355   */\n      dup3\n        /* \"#utility.yul\":24329:24362   */\n      tag_524\n      jump\t// in\n    tag_523:\n        /* \"#utility.yul\":24280:24368   */\n      swap2\n      swap1\n      pop\n      jump\t// out\n        /* \"#utility.yul\":24374:24449   */\n    tag_522:\n        /* \"#utility.yul\":24407:24413   */\n      0x00\n        /* \"#utility.yul\":24440:24442   */\n      0x40\n        /* \"#utility.yul\":24434:24443   */\n      mload\n        /* \"#utility.yul\":24424:24443   */\n      swap1\n      pop\n        /* \"#utility.yul\":24414:24449   */\n      swap1\n      jump\t// out\n        /* \"#utility.yul\":24455:24762   */\n    tag_251:\n        /* \"#utility.yul\":24516:24520   */\n      0x00\n        /* \"#utility.yul\":24606:24624   */\n      0xffffffffffffffff\n        /* \"#utility.yul\":24598:24604   */\n      dup3\n        /* \"#utility.yul\":24595:24625   */\n      gt\n        /* \"#utility.yul\":24592:24594   */\n      iszero\n      tag_527\n      jumpi\n        /* \"#utility.yul\":24628:24646   */\n      tag_528\n      tag_529\n      jump\t// in\n    tag_528:\n        /* \"#utility.yul\":24592:24594   */\n    tag_527:\n        /* \"#utility.yul\":24666:24695   */\n      tag_530\n        /* \"#utility.yul\":24688:24694   */\n      dup3\n        /* \"#utility.yul\":24666:24695   */\n      tag_374\n      jump\t// in\n    tag_530:\n        /* \"#utility.yul\":24658:24695   */\n      swap1\n      pop\n        /* \"#utility.yul\":24750:24754   */\n      0x20\n        /* \"#utility.yul\":24744:24748   */\n      dup2\n        /* \"#utility.yul\":24740:24755   */\n      add\n        /* \"#utility.yul\":24732:24755   */\n      swap1\n      pop\n        /* \"#utility.yul\":24521:24762   */\n      swap2\n      swap1\n      pop\n      jump\t// out\n        /* \"#utility.yul\":24768:24866   */\n    tag_368:\n        /* \"#utility.yul\":24819:24825   */\n      0x00\n        /* \"#utility.yul\":24853:24858   */\n      dup2\n        /* \"#utility.yul\":24847:24859   */\n      mload\n        /* \"#utility.yul\":24837:24859   */\n      swap1\n      pop\n        /* \"#utility.yul\":24826:24866   */\n      swap2\n      swap1\n      pop\n      jump\t// out\n        /* \"#utility.yul\":24872:24971   */\n    tag_395:\n        /* \"#utility.yul\":24924:24930   */\n      0x00\n        /* \"#utility.yul\":24958:24963   */\n      dup2\n        /* \"#utility.yul\":24952:24964   */\n      mload\n        /* \"#utility.yul\":24942:24964   */\n      swap1\n      pop\n        /* \"#utility.yul\":24931:24971   */\n      swap2\n      swap1\n      pop\n      jump\t// out\n        /* \"#utility.yul\":24977:25135   */\n    tag_370:\n        /* \"#utility.yul\":25050:25061   */\n      0x00\n        /* \"#utility.yul\":25084:25090   */\n      dup3\n        /* \"#utility.yul\":25079:25082   */\n      dup3\n        /* \"#utility.yul\":25072:25091   */\n      mstore\n        /* \"#utility.yul\":25124:25128   */\n      0x20\n        /* \"#utility.yul\":25119:25122   */\n      dup3\n        /* \"#utility.yul\":25115:25129   */\n      add\n        /* \"#utility.yul\":25100:25129   */\n      swap1\n      pop\n        /* \"#utility.yul\":25062:25135   */\n      swap3\n      swap2\n      pop\n      pop\n      jump\t// out\n        /* \"#utility.yul\":25141:25309   */\n    tag_379:\n        /* \"#utility.yul\":25224:25235   */\n      0x00\n        /* \"#utility.yul\":25258:25264   */\n      dup3\n        /* \"#utility.yul\":25253:25256   */\n      dup3\n        /* \"#utility.yul\":25246:25265   */\n      mstore\n        /* \"#utility.yul\":25298:25302   */\n      0x20\n        /* \"#utility.yul\":25293:25296   */\n      dup3\n        /* \"#utility.yul\":25289:25303   */\n      add\n        /* \"#utility.yul\":25274:25303   */\n      swap1\n      pop\n        /* \"#utility.yul\":25236:25309   */\n      swap3\n      swap2\n      pop\n      pop\n      jump\t// out\n        /* \"#utility.yul\":25315:25462   */\n    tag_386:\n        /* \"#utility.yul\":25416:25427   */\n      0x00\n        /* \"#utility.yul\":25453:25456   */\n      dup2\n        /* \"#utility.yul\":25438:25456   */\n      swap1\n      pop\n        /* \"#utility.yul\":25428:25462   */\n      swap3\n      swap2\n      pop\n      pop\n      jump\t// out\n        /* \"#utility.yul\":25468:25637   */\n    tag_397:\n        /* \"#utility.yul\":25552:25563   */\n      0x00\n        /* \"#utility.yul\":25586:25592   */\n      dup3\n        /* \"#utility.yul\":25581:25584   */\n      dup3\n        /* \"#utility.yul\":25574:25593   */\n      mstore\n        /* \"#utility.yul\":25626:25630   */\n      0x20\n        /* \"#utility.yul\":25621:25624   */\n      dup3\n        /* \"#utility.yul\":25617:25631   */\n      add\n        /* \"#utility.yul\":25602:25631   */\n      swap1\n      pop\n        /* \"#utility.yul\":25564:25637   */\n      swap3\n      swap2\n      pop\n      pop\n      jump\t// out\n        /* \"#utility.yul\":25643:25828   */\n    tag_157:\n        /* \"#utility.yul\":25683:25684   */\n      0x00\n        /* \"#utility.yul\":25700:25720   */\n      tag_538\n        /* \"#utility.yul\":25718:25719   */\n      dup3\n        /* \"#utility.yul\":25700:25720   */\n      tag_451\n      jump\t// in\n    tag_538:\n        /* \"#utility.yul\":25695:25720   */\n      swap2\n      pop\n        /* \"#utility.yul\":25734:25754   */\n      tag_539\n        /* \"#utility.yul\":25752:25753   */\n      dup4\n        /* \"#utility.yul\":25734:25754   */\n      tag_451\n      jump\t// in\n    tag_539:\n        /* \"#utility.yul\":25729:25754   */\n      swap3\n      pop\n        /* \"#utility.yul\":25773:25774   */\n      dup3\n        /* \"#utility.yul\":25763:25765   */\n      tag_540\n      jumpi\n        /* \"#utility.yul\":25778:25796   */\n      tag_541\n      tag_542\n      jump\t// in\n    tag_541:\n        /* \"#utility.yul\":25763:25765   */\n    tag_540:\n        /* \"#utility.yul\":25820:25821   */\n      dup3\n        /* \"#utility.yul\":25817:25818   */\n      dup3\n        /* \"#utility.yul\":25813:25822   */\n      div\n        /* \"#utility.yul\":25808:25822   */\n      swap1\n      pop\n        /* \"#utility.yul\":25685:25828   */\n      swap3\n      swap2\n      pop\n      pop\n      jump\t// out\n        /* \"#utility.yul\":25834:26182   */\n    tag_155:\n        /* \"#utility.yul\":25874:25881   */\n      0x00\n        /* \"#utility.yul\":25897:25917   */\n      tag_544\n        /* \"#utility.yul\":25915:25916   */\n      dup3\n        /* \"#utility.yul\":25897:25917   */\n      tag_451\n      jump\t// in\n    tag_544:\n        /* \"#utility.yul\":25892:25917   */\n      swap2\n      pop\n        /* \"#utility.yul\":25931:25951   */\n      tag_545\n        /* \"#utility.yul\":25949:25950   */\n      dup4\n        /* \"#utility.yul\":25931:25951   */\n      tag_451\n      jump\t// in\n    tag_545:\n        /* \"#utility.yul\":25926:25951   */\n      swap3\n      pop\n        /* \"#utility.yul\":26119:26120   */\n      dup2\n        /* \"#utility.yul\":26051:26117   */\n      0xffffffffffffffffffffffffffffffffffffffffffffffffffffffffffffffff\n        /* \"#utility.yul\":26047:26121   */\n      div\n        /* \"#utility.yul\":26044:26045   */\n      dup4\n        /* \"#utility.yul\":26041:26122   */\n      gt\n        /* \"#utility.yul\":26036:26037   */\n      dup3\n        /* \"#utility.yul\":26029:26038   */\n      iszero\n        /* \"#utility.yul\":26022:26039   */\n      iszero\n        /* \"#utility.yul\":26018:26123   */\n      and\n        /* \"#utility.yul\":26015:26017   */\n      iszero\n      tag_546\n      jumpi\n        /* \"#utility.yul\":26126:26144   */\n      tag_547\n      tag_548\n      jump\t// in\n    tag_547:\n        /* \"#utility.yul\":26015:26017   */\n    tag_546:\n        /* \"#utility.yul\":26174:26175   */\n      dup3\n        /* \"#utility.yul\":26171:26172   */\n      dup3\n        /* \"#utility.yul\":26167:26176   */\n      mul\n        /* \"#utility.yul\":26156:26176   */\n      swap1\n      pop\n        /* \"#utility.yul\":25882:26182   */\n      swap3\n      swap2\n      pop\n      pop\n      jump\t// out\n        /* \"#utility.yul\":26188:26379   */\n    tag_153:\n        /* \"#utility.yul\":26228:26232   */\n      0x00\n        /* \"#utility.yul\":26248:26268   */\n      tag_550\n        /* \"#utility.yul\":26266:26267   */\n      dup3\n        /* \"#utility.yul\":26248:26268   */\n      tag_451\n      jump\t// in\n    tag_550:\n        /* \"#utility.yul\":26243:26268   */\n      swap2\n      pop\n        /* \"#utility.yul\":26282:26302   */\n      tag_551\n        /* \"#utility.yul\":26300:26301   */\n      dup4\n        /* \"#utility.yul\":26282:26302   */\n      tag_451\n      jump\t// in\n    tag_551:\n        /* \"#utility.yul\":26277:26302   */\n      swap3\n      pop\n        /* \"#utility.yul\":26321:26322   */\n      dup3\n        /* \"#utility.yul\":26318:26319   */\n      dup3\n        /* \"#utility.yul\":26315:26323   */\n      lt\n        /* \"#utility.yul\":26312:26314   */\n      iszero\n      tag_552\n      jumpi\n        /* \"#utility.yul\":26326:26344   */\n      tag_553\n      tag_548\n      jump\t// in\n    tag_553:\n        /* \"#utility.yul\":26312:26314   */\n    tag_552:\n        /* \"#utility.yul\":26371:26372   */\n      dup3\n        /* \"#utility.yul\":26368:26369   */\n      dup3\n        /* \"#utility.yul\":26364:26373   */\n      sub\n        /* \"#utility.yul\":26356:26373   */\n      swap1\n      pop\n        /* \"#utility.yul\":26233:26379   */\n      swap3\n      swap2\n      pop\n      pop\n      jump\t// out\n        /* \"#utility.yul\":26385:26481   */\n    tag_355:\n        /* \"#utility.yul\":26422:26429   */\n      0x00\n        /* \"#utility.yul\":26451:26475   */\n      tag_555\n        /* \"#utility.yul\":26469:26474   */\n      dup3\n        /* \"#utility.yul\":26451:26475   */\n      tag_556\n      jump\t// in\n    tag_555:\n        /* \"#utility.yul\":26440:26475   */\n      swap1\n      pop\n        /* \"#utility.yul\":26430:26481   */\n      swap2\n      swap1\n      pop\n      jump\t// out\n        /* \"#utility.yul\":26487:26591   */\n    tag_351:\n        /* \"#utility.yul\":26532:26539   */\n      0x00\n        /* \"#utility.yul\":26561:26585   */\n      tag_558\n        /* \"#utility.yul\":26579:26584   */\n      dup3\n        /* \"#utility.yul\":26561:26585   */\n      tag_556\n      jump\t// in\n    tag_558:\n        /* \"#utility.yul\":26550:26585   */\n      swap1\n      pop\n        /* \"#utility.yul\":26540:26591   */\n      swap2\n      swap1\n      pop\n      jump\t// out\n        /* \"#utility.yul\":26597:26687   */\n    tag_364:\n        /* \"#utility.yul\":26631:26638   */\n      0x00\n        /* \"#utility.yul\":26674:26679   */\n      dup2\n        /* \"#utility.yul\":26667:26680   */\n      iszero\n        /* \"#utility.yul\":26660:26681   */\n      iszero\n        /* \"#utility.yul\":26649:26681   */\n      swap1\n      pop\n        /* \"#utility.yul\":26639:26687   */\n      swap2\n      swap1\n      pop\n      jump\t// out\n        /* \"#utility.yul\":26693:26782   */\n    tag_444:\n        /* \"#utility.yul\":26729:26736   */\n      0x00\n        /* \"#utility.yul\":26769:26775   */\n      0xffff\n        /* \"#utility.yul\":26762:26767   */\n      dup3\n        /* \"#utility.yul\":26758:26776   */\n      and\n        /* \"#utility.yul\":26747:26776   */\n      swap1\n      pop\n        /* \"#utility.yul\":26737:26782   */\n      swap2\n      swap1\n      pop\n      jump\t// out\n        /* \"#utility.yul\":26788:26914   */\n    tag_556:\n        /* \"#utility.yul\":26825:26832   */\n      0x00\n        /* \"#utility.yul\":26865:26907   */\n      0xffffffffffffffffffffffffffffffffffffffff\n        /* \"#utility.yul\":26858:26863   */\n      dup3\n        /* \"#utility.yul\":26854:26908   */\n      and\n        /* \"#utility.yul\":26843:26908   */\n      swap1\n      pop\n        /* \"#utility.yul\":26833:26914   */\n      swap2\n      swap1\n      pop\n      jump\t// out\n        /* \"#utility.yul\":26920:26997   */\n    tag_451:\n        /* \"#utility.yul\":26957:26964   */\n      0x00\n        /* \"#utility.yul\":26986:26991   */\n      dup2\n        /* \"#utility.yul\":26975:26991   */\n      swap1\n      pop\n        /* \"#utility.yul\":26965:26997   */\n      swap2\n      swap1\n      pop\n      jump\t// out\n        /* \"#utility.yul\":27003:27089   */\n    tag_563:\n        /* \"#utility.yul\":27038:27045   */\n      0x00\n        /* \"#utility.yul\":27078:27082   */\n      0xff\n        /* \"#utility.yul\":27071:27076   */\n      dup3\n        /* \"#utility.yul\":27067:27083   */\n      and\n        /* \"#utility.yul\":27056:27083   */\n      swap1\n      pop\n        /* \"#utility.yul\":27046:27089   */\n      swap2\n      swap1\n      pop\n      jump\t// out\n        /* \"#utility.yul\":27095:27212   */\n    tag_391:\n        /* \"#utility.yul\":27151:27160   */\n      0x00\n        /* \"#utility.yul\":27184:27206   */\n      tag_566\n        /* \"#utility.yul\":27200:27205   */\n      dup3\n        /* \"#utility.yul\":27184:27206   */\n      tag_563\n      jump\t// in\n    tag_566:\n        /* \"#utility.yul\":27171:27206   */\n      swap1\n      pop\n        /* \"#utility.yul\":27161:27212   */\n      swap2\n      swap1\n      pop\n      jump\t// out\n        /* \"#utility.yul\":27218:27329   */\n    tag_448:\n        /* \"#utility.yul\":27267:27276   */\n      0x00\n        /* \"#utility.yul\":27300:27323   */\n      tag_568\n        /* \"#utility.yul\":27317:27322   */\n      dup3\n        /* \"#utility.yul\":27300:27323   */\n      tag_444\n      jump\t// in\n    tag_568:\n        /* \"#utility.yul\":27287:27323   */\n      swap1\n      pop\n        /* \"#utility.yul\":27277:27329   */\n      swap2\n      swap1\n      pop\n      jump\t// out\n        /* \"#utility.yul\":27335:27489   */\n    tag_255:\n        /* \"#utility.yul\":27419:27425   */\n      dup3\n        /* \"#utility.yul\":27414:27417   */\n      dup2\n        /* \"#utility.yul\":27409:27412   */\n      dup4\n        /* \"#utility.yul\":27396:27426   */\n      calldatacopy\n        /* \"#utility.yul\":27481:27482   */\n      0x00\n        /* \"#utility.yul\":27472:27478   */\n      dup4\n        /* \"#utility.yul\":27467:27470   */\n      dup4\n        /* \"#utility.yul\":27463:27479   */\n      add\n        /* \"#utility.yul\":27456:27483   */\n      mstore\n        /* \"#utility.yul\":27386:27489   */\n      pop\n      pop\n      pop\n      jump\t// out\n        /* \"#utility.yul\":27495:27802   */\n    tag_372:\n        /* \"#utility.yul\":27563:27564   */\n      0x00\n        /* \"#utility.yul\":27573:27686   */\n    tag_571:\n        /* \"#utility.yul\":27587:27593   */\n      dup4\n        /* \"#utility.yul\":27584:27585   */\n      dup2\n        /* \"#utility.yul\":27581:27594   */\n      lt\n        /* \"#utility.yul\":27573:27686   */\n      iszero\n      tag_573\n      jumpi\n        /* \"#utility.yul\":27672:27673   */\n      dup1\n        /* \"#utility.yul\":27667:27670   */\n      dup3\n        /* \"#utility.yul\":27663:27674   */\n      add\n        /* \"#utility.yul\":27657:27675   */\n      mload\n        /* \"#utility.yul\":27653:27654   */\n      dup2\n        /* \"#utility.yul\":27648:27651   */\n      dup5\n        /* \"#utility.yul\":27644:27655   */\n      add\n        /* \"#utility.yul\":27637:27676   */\n      mstore\n        /* \"#utility.yul\":27609:27611   */\n      0x20\n        /* \"#utility.yul\":27606:27607   */\n      dup2\n        /* \"#utility.yul\":27602:27612   */\n      add\n        /* \"#utility.yul\":27597:27612   */\n      swap1\n      pop\n        /* \"#utility.yul\":27573:27686   */\n      jump(tag_571)\n    tag_573:\n        /* \"#utility.yul\":27704:27710   */\n      dup4\n        /* \"#utility.yul\":27701:27702   */\n      dup2\n        /* \"#utility.yul\":27698:27711   */\n      gt\n        /* \"#utility.yul\":27695:27697   */\n      iszero\n      tag_574\n      jumpi\n        /* \"#utility.yul\":27784:27785   */\n      0x00\n        /* \"#utility.yul\":27775:27781   */\n      dup5\n        /* \"#utility.yul\":27770:27773   */\n      dup5\n        /* \"#utility.yul\":27766:27782   */\n      add\n        /* \"#utility.yul\":27759:27786   */\n      mstore\n        /* \"#utility.yul\":27695:27697   */\n    tag_574:\n        /* \"#utility.yul\":27544:27802   */\n      pop\n      pop\n      pop\n      pop\n      jump\t// out\n        /* \"#utility.yul\":27808:28089   */\n    tag_524:\n        /* \"#utility.yul\":27891:27918   */\n      tag_576\n        /* \"#utility.yul\":27913:27917   */\n      dup3\n        /* \"#utility.yul\":27891:27918   */\n      tag_374\n      jump\t// in\n    tag_576:\n        /* \"#utility.yul\":27883:27889   */\n      dup2\n        /* \"#utility.yul\":27879:27919   */\n      add\n        /* \"#utility.yul\":28021:28027   */\n      dup2\n        /* \"#utility.yul\":28009:28019   */\n      dup2\n        /* \"#utility.yul\":28006:28028   */\n      lt\n        /* \"#utility.yul\":27985:28003   */\n      0xffffffffffffffff\n        /* \"#utility.yul\":27973:27983   */\n      dup3\n        /* \"#utility.yul\":27970:28004   */\n      gt\n        /* \"#utility.yul\":27967:28029   */\n      or\n        /* \"#utility.yul\":27964:27966   */\n      iszero\n      tag_577\n      jumpi\n        /* \"#utility.yul\":28032:28050   */\n      tag_578\n      tag_529\n      jump\t// in\n    tag_578:\n        /* \"#utility.yul\":27964:27966   */\n    tag_577:\n        /* \"#utility.yul\":28072:28082   */\n      dup1\n        /* \"#utility.yul\":28068:28070   */\n      0x40\n        /* \"#utility.yul\":28061:28083   */\n      mstore\n        /* \"#utility.yul\":27851:28089   */\n      pop\n      pop\n      pop\n      jump\t// out\n        /* \"#utility.yul\":28095:28195   */\n    tag_360:\n        /* \"#utility.yul\":28134:28141   */\n      0x00\n        /* \"#utility.yul\":28163:28189   */\n      tag_580\n        /* \"#utility.yul\":28183:28188   */\n      dup3\n        /* \"#utility.yul\":28163:28189   */\n      tag_581\n      jump\t// in\n    tag_580:\n        /* \"#utility.yul\":28152:28189   */\n      swap1\n      pop\n        /* \"#utility.yul\":28142:28195   */\n      swap2\n      swap1\n      pop\n      jump\t// out\n        /* \"#utility.yul\":28201:28295   */\n    tag_581:\n        /* \"#utility.yul\":28240:28247   */\n      0x00\n        /* \"#utility.yul\":28269:28289   */\n      tag_583\n        /* \"#utility.yul\":28283:28288   */\n      dup3\n        /* \"#utility.yul\":28269:28289   */\n      tag_584\n      jump\t// in\n    tag_583:\n        /* \"#utility.yul\":28258:28289   */\n      swap1\n      pop\n        /* \"#utility.yul\":28248:28295   */\n      swap2\n      swap1\n      pop\n      jump\t// out\n        /* \"#utility.yul\":28301:28481   */\n    tag_548:\n        /* \"#utility.yul\":28349:28426   */\n      0x4e487b7100000000000000000000000000000000000000000000000000000000\n        /* \"#utility.yul\":28346:28347   */\n      0x00\n        /* \"#utility.yul\":28339:28427   */\n      mstore\n        /* \"#utility.yul\":28446:28450   */\n      0x11\n        /* \"#utility.yul\":28443:28444   */\n      0x04\n        /* \"#utility.yul\":28436:28451   */\n      mstore\n        /* \"#utility.yul\":28470:28474   */\n      0x24\n        /* \"#utility.yul\":28467:28468   */\n      0x00\n        /* \"#utility.yul\":28460:28475   */\n      revert\n        /* \"#utility.yul\":28487:28667   */\n    tag_542:\n        /* \"#utility.yul\":28535:28612   */\n      0x4e487b7100000000000000000000000000000000000000000000000000000000\n        /* \"#utility.yul\":28532:28533   */\n      0x00\n        /* \"#utility.yul\":28525:28613   */\n      mstore\n        /* \"#utility.yul\":28632:28636   */\n      0x12\n        /* \"#utility.yul\":28629:28630   */\n      0x04\n        /* \"#utility.yul\":28622:28637   */\n      mstore\n        /* \"#utility.yul\":28656:28660   */\n      0x24\n        /* \"#utility.yul\":28653:28654   */\n      0x00\n        /* \"#utility.yul\":28646:28661   */\n      revert\n        /* \"#utility.yul\":28673:28853   */\n    tag_529:\n        /* \"#utility.yul\":28721:28798   */\n      0x4e487b7100000000000000000000000000000000000000000000000000000000\n        /* \"#utility.yul\":28718:28719   */\n      0x00\n        /* \"#utility.yul\":28711:28799   */\n      mstore\n        /* \"#utility.yul\":28818:28822   */\n      0x41\n        /* \"#utility.yul\":28815:28816   */\n      0x04\n        /* \"#utility.yul\":28808:28823   */\n      mstore\n        /* \"#utility.yul\":28842:28846   */\n      0x24\n        /* \"#utility.yul\":28839:28840   */\n      0x00\n        /* \"#utility.yul\":28832:28847   */\n      revert\n        /* \"#utility.yul\":28859:28961   */\n    tag_374:\n        /* \"#utility.yul\":28900:28906   */\n      0x00\n        /* \"#utility.yul\":28951:28953   */\n      0x1f\n        /* \"#utility.yul\":28947:28954   */\n      not\n        /* \"#utility.yul\":28942:28944   */\n      0x1f\n        /* \"#utility.yul\":28935:28940   */\n      dup4\n        /* \"#utility.yul\":28931:28945   */\n      add\n        /* \"#utility.yul\":28927:28955   */\n      and\n        /* \"#utility.yul\":28917:28955   */\n      swap1\n      pop\n        /* \"#utility.yul\":28907:28961   */\n      swap2\n      swap1\n      pop\n      jump\t// out\n        /* \"#utility.yul\":28967:29061   */\n    tag_584:\n        /* \"#utility.yul\":29000:29008   */\n      0x00\n        /* \"#utility.yul\":29048:29053   */\n      dup2\n        /* \"#utility.yul\":29044:29046   */\n      0x60\n        /* \"#utility.yul\":29040:29054   */\n      shl\n        /* \"#utility.yul\":29019:29054   */\n      swap1\n      pop\n        /* \"#utility.yul\":29009:29061   */\n      swap2\n      swap1\n      pop\n      jump\t// out\n        /* \"#utility.yul\":29067:29288   */\n    tag_404:\n        /* \"#utility.yul\":29207:29241   */\n      0x4c69624469616d6f6e643a204d75737420626520636f6e7472616374206f776e\n        /* \"#utility.yul\":29203:29204   */\n      0x00\n        /* \"#utility.yul\":29195:29201   */\n      dup3\n        /* \"#utility.yul\":29191:29205   */\n      add\n        /* \"#utility.yul\":29184:29242   */\n      mstore\n        /* \"#utility.yul\":29276:29280   */\n      0x6572000000000000000000000000000000000000000000000000000000000000\n        /* \"#utility.yul\":29271:29273   */\n      0x20\n        /* \"#utility.yul\":29263:29269   */\n      dup3\n        /* \"#utility.yul\":29259:29274   */\n      add\n        /* \"#utility.yul\":29252:29281   */\n      mstore\n        /* \"#utility.yul\":29173:29288   */\n      pop\n      jump\t// out\n        /* \"#utility.yul\":29294:29446   */\n    tag_409:\n        /* \"#utility.yul\":29434:29438   */\n      0x3078000000000000000000000000000000000000000000000000000000000000\n        /* \"#utility.yul\":29430:29431   */\n      0x00\n        /* \"#utility.yul\":29422:29428   */\n      dup3\n        /* \"#utility.yul\":29418:29432   */\n      add\n        /* \"#utility.yul\":29411:29439   */\n      mstore\n        /* \"#utility.yul\":29400:29446   */\n      pop\n      jump\t// out\n        /* \"#utility.yul\":29452:29677   */\n    tag_414:\n        /* \"#utility.yul\":29592:29626   */\n      0x416464726573733a20696e73756666696369656e742062616c616e636520666f\n        /* \"#utility.yul\":29588:29589   */\n      0x00\n        /* \"#utility.yul\":29580:29586   */\n      dup3\n        /* \"#utility.yul\":29576:29590   */\n      add\n        /* \"#utility.yul\":29569:29627   */\n      mstore\n        /* \"#utility.yul\":29661:29669   */\n      0x722063616c6c0000000000000000000000000000000000000000000000000000\n        /* \"#utility.yul\":29656:29658   */\n      0x20\n        /* \"#utility.yul\":29648:29654   */\n      dup3\n        /* \"#utility.yul\":29644:29659   */\n      add\n        /* \"#utility.yul\":29637:29670   */\n      mstore\n        /* \"#utility.yul\":29558:29677   */\n      pop\n      jump\t// out\n        /* \"#utility.yul\":29683:29841   */\n    tag_419:\n        /* \"#utility.yul\":29823:29833   */\n      0x7374617267617465000000000000000000000000000000000000000000000000\n        /* \"#utility.yul\":29819:29820   */\n      0x00\n        /* \"#utility.yul\":29811:29817   */\n      dup3\n        /* \"#utility.yul\":29807:29821   */\n      add\n        /* \"#utility.yul\":29800:29834   */\n      mstore\n        /* \"#utility.yul\":29789:29841   */\n      pop\n      jump\t// out\n        /* \"#utility.yul\":29847:30026   */\n    tag_424:\n        /* \"#utility.yul\":29987:30018   */\n      0x416464726573733a2063616c6c20746f206e6f6e2d636f6e7472616374000000\n        /* \"#utility.yul\":29983:29984   */\n      0x00\n        /* \"#utility.yul\":29975:29981   */\n      dup3\n        /* \"#utility.yul\":29971:29985   */\n      add\n        /* \"#utility.yul\":29964:30019   */\n      mstore\n        /* \"#utility.yul\":29953:30026   */\n      pop\n      jump\t// out\n        /* \"#utility.yul\":30032:30261   */\n    tag_429:\n        /* \"#utility.yul\":30172:30206   */\n      0x5361666545524332303a204552433230206f7065726174696f6e20646964206e\n        /* \"#utility.yul\":30168:30169   */\n      0x00\n        /* \"#utility.yul\":30160:30166   */\n      dup3\n        /* \"#utility.yul\":30156:30170   */\n      add\n        /* \"#utility.yul\":30149:30207   */\n      mstore\n        /* \"#utility.yul\":30241:30253   */\n      0x6f74207375636365656400000000000000000000000000000000000000000000\n        /* \"#utility.yul\":30236:30238   */\n      0x20\n        /* \"#utility.yul\":30228:30234   */\n      dup3\n        /* \"#utility.yul\":30224:30239   */\n      add\n        /* \"#utility.yul\":30217:30254   */\n      mstore\n        /* \"#utility.yul\":30138:30261   */\n      pop\n      jump\t// out\n        /* \"#utility.yul\":30267:30508   */\n    tag_434:\n        /* \"#utility.yul\":30407:30441   */\n      0x5361666545524332303a20617070726f76652066726f6d206e6f6e2d7a65726f\n        /* \"#utility.yul\":30403:30404   */\n      0x00\n        /* \"#utility.yul\":30395:30401   */\n      dup3\n        /* \"#utility.yul\":30391:30405   */\n      add\n        /* \"#utility.yul\":30384:30442   */\n      mstore\n        /* \"#utility.yul\":30476:30500   */\n      0x20746f206e6f6e2d7a65726f20616c6c6f77616e636500000000000000000000\n        /* \"#utility.yul\":30471:30473   */\n      0x20\n        /* \"#utility.yul\":30463:30469   */\n      dup3\n        /* \"#utility.yul\":30459:30474   */\n      add\n        /* \"#utility.yul\":30452:30501   */\n      mstore\n        /* \"#utility.yul\":30373:30508   */\n      pop\n      jump\t// out\n        /* \"#utility.yul\":30514:30636   */\n    tag_259:\n        /* \"#utility.yul\":30587:30611   */\n      tag_598\n        /* \"#utility.yul\":30605:30610   */\n      dup2\n        /* \"#utility.yul\":30587:30611   */\n      tag_355\n      jump\t// in\n    tag_598:\n        /* \"#utility.yul\":30580:30585   */\n      dup2\n        /* \"#utility.yul\":30577:30612   */\n      eq\n        /* \"#utility.yul\":30567:30569   */\n      tag_599\n      jumpi\n        /* \"#utility.yul\":30626:30627   */\n      0x00\n        /* \"#utility.yul\":30623:30624   */\n      dup1\n        /* \"#utility.yul\":30616:30628   */\n      revert\n        /* \"#utility.yul\":30567:30569   */\n    tag_599:\n        /* \"#utility.yul\":30557:30636   */\n      pop\n      jump\t// out\n        /* \"#utility.yul\":30642:30780   */\n    tag_263:\n        /* \"#utility.yul\":30723:30755   */\n      tag_601\n        /* \"#utility.yul\":30749:30754   */\n      dup2\n        /* \"#utility.yul\":30723:30755   */\n      tag_351\n      jump\t// in\n    tag_601:\n        /* \"#utility.yul\":30716:30721   */\n      dup2\n        /* \"#utility.yul\":30713:30756   */\n      eq\n        /* \"#utility.yul\":30703:30705   */\n      tag_602\n      jumpi\n        /* \"#utility.yul\":30770:30771   */\n      0x00\n        /* \"#utility.yul\":30767:30768   */\n      dup1\n        /* \"#utility.yul\":30760:30772   */\n      revert\n        /* \"#utility.yul\":30703:30705   */\n    tag_602:\n        /* \"#utility.yul\":30693:30780   */\n      pop\n      jump\t// out\n        /* \"#utility.yul\":30786:30902   */\n    tag_267:\n        /* \"#utility.yul\":30856:30877   */\n      tag_604\n        /* \"#utility.yul\":30871:30876   */\n      dup2\n        /* \"#utility.yul\":30856:30877   */\n      tag_364\n      jump\t// in\n    tag_604:\n        /* \"#utility.yul\":30849:30854   */\n      dup2\n        /* \"#utility.yul\":30846:30878   */\n      eq\n        /* \"#utility.yul\":30836:30838   */\n      tag_605\n      jumpi\n        /* \"#utility.yul\":30892:30893   */\n      0x00\n        /* \"#utility.yul\":30889:30890   */\n      dup1\n        /* \"#utility.yul\":30882:30894   */\n      revert\n        /* \"#utility.yul\":30836:30838   */\n    tag_605:\n        /* \"#utility.yul\":30826:30902   */\n      pop\n      jump\t// out\n        /* \"#utility.yul\":30908:31028   */\n    tag_286:\n        /* \"#utility.yul\":30980:31003   */\n      tag_607\n        /* \"#utility.yul\":30997:31002   */\n      dup2\n        /* \"#utility.yul\":30980:31003   */\n      tag_444\n      jump\t// in\n    tag_607:\n        /* \"#utility.yul\":30973:30978   */\n      dup2\n        /* \"#utility.yul\":30970:31004   */\n      eq\n        /* \"#utility.yul\":30960:30962   */\n      tag_608\n      jumpi\n        /* \"#utility.yul\":31018:31019   */\n      0x00\n        /* \"#utility.yul\":31015:31016   */\n      dup1\n        /* \"#utility.yul\":31008:31020   */\n      revert\n        /* \"#utility.yul\":30960:30962   */\n    tag_608:\n        /* \"#utility.yul\":30950:31028   */\n      pop\n      jump\t// out\n        /* \"#utility.yul\":31034:31156   */\n    tag_289:\n        /* \"#utility.yul\":31107:31131   */\n      tag_610\n        /* \"#utility.yul\":31125:31130   */\n      dup2\n        /* \"#utility.yul\":31107:31131   */\n      tag_451\n      jump\t// in\n    tag_610:\n        /* \"#utility.yul\":31100:31105   */\n      dup2\n        /* \"#utility.yul\":31097:31132   */\n      eq\n        /* \"#utility.yul\":31087:31089   */\n      tag_611\n      jumpi\n        /* \"#utility.yul\":31146:31147   */\n      0x00\n        /* \"#utility.yul\":31143:31144   */\n      dup1\n        /* \"#utility.yul\":31136:31148   */\n      revert\n        /* \"#utility.yul\":31087:31089   */\n    tag_611:\n        /* \"#utility.yul\":31077:31156   */\n      pop\n      jump\t// out\n\n    auxdata: 0xa2646970667358221220db5b7b2efa4ebc62d5514dbfcd31559e9977ea832a1ea654793cd921fee7691364736f6c63430008040033\n}\n",
				"bytecode": {
					"linkReferences": {},
					"object": "608060405234801561001057600080fd5b5061274e806100206000396000f3fe6080604052600436106100a05760003560e01c8063498ee46911610064578063498ee469146101a85780634be85c35146101d1578063618c3f29146101fa578063ab8236f314610237578063b8c06ccc14610260578063c722a33614610289576100a7565b80631f8097fb146100ac578063217aabb7146100c85780632a8dcdb7146100f157806342d910c61461012e578063430dbc3a1461016b576100a7565b366100a757005b600080fd5b6100c660048036038101906100c191906118eb565b6102a5565b005b3480156100d457600080fd5b506100ef60048036038101906100ea9190611aa7565b610766565b005b3480156100fd57600080fd5b506101186004803603810190610113919061199f565b6107be565b6040516101259190611ee4565b60405180910390f35b34801561013a57600080fd5b5061015560048036038101906101509190611950565b610856565b604051610162919061218f565b60405180910390f35b34801561017757600080fd5b50610192600480360381019061018d9190611914565b610968565b60405161019f9190612035565b60405180910390f35b3480156101b457600080fd5b506101cf60048036038101906101ca9190611886565b6109e7565b005b3480156101dd57600080fd5b506101f860048036038101906101f391906117e5565b610c98565b005b34801561020657600080fd5b50610221600480360381019061021c9190611aa7565b610d91565b60405161022e919061218f565b60405180910390f35b34801561024357600080fd5b5061025e600480360381019061025991906119ee565b610dd0565b005b34801561026c57600080fd5b506102876004803603810190610282919061199f565b610f4e565b005b6102a3600480360381019061029e9190611837565b611018565b005b60006102af6110dd565b90506001816000015414156102f0576040517f29f745a700000000000000000000000000000000000000000000000000000000815260040160405180910390fd5b600181600001819055506000826000015111610338576040517f2c5211c600000000000000000000000000000000000000000000000000000000815260040160405180910390fd5b600073ffffffffffffffffffffffffffffffffffffffff16826020015173ffffffffffffffffffffffffffffffffffffffff1614806103a75750600073ffffffffffffffffffffffffffffffffffffffff16826040015173ffffffffffffffffffffffffffffffffffffffff16145b806103e25750600073ffffffffffffffffffffffffffffffffffffffff16826080015173ffffffffffffffffffffffffffffffffffffffff16145b8061041d5750600073ffffffffffffffffffffffffffffffffffffffff168260a0015173ffffffffffffffffffffffffffffffffffffffff16145b15610454576040517f35be3ac800000000000000000000000000000000000000000000000000000000815260040160405180910390fd5b600061045e61110a565b905060006104828260000160149054906101000a900461ffff168560200151610968565b905060008161ffff1614156104c3576040517f7790ca9900000000000000000000000000000000000000000000000000000000815260040160405180910390fd5b60006104d785606001518660400151610968565b90506000610512866060015187608001518660000160009054906101000a900473ffffffffffffffffffffffffffffffffffffffff16610856565b905060006105238760000151610d91565b905060008760a0015160405160200161053c9190611de5565b6040516020818303038152906040529050600088608001516040516020016105649190611e17565b60405160208183030381529060405290506105aa33308b600001518c6020015173ffffffffffffffffffffffffffffffffffffffff16611137909392919063ffffffff16565b6106018760000160009054906101000a900473ffffffffffffffffffffffffffffffffffffffff168a600001518b6020015173ffffffffffffffffffffffffffffffffffffffff166111c09092919063ffffffff16565b8660000160009054906101000a900473ffffffffffffffffffffffffffffffffffffffff1673ffffffffffffffffffffffffffffffffffffffff16639fbf10fc858b606001518989338f600001518a604051806060016040528062030d408152602001600081526020016040518060400160405280600281526020017f30780000000000000000000000000000000000000000000000000000000000008152508152508b8b6040518b63ffffffff1660e01b81526004016106ca999897969594939291906120ed565b6000604051808303818588803b1580156106e357600080fd5b505af11580156106f7573d6000803e3d6000fd5b50505050507f7a72e6f4a3d77f8a5a6c536a973421c5bf00107f9aec7995661537673b8be08789602001518a60400151338c608001518d600001518e6060015160405161074996959493929190611f61565b60405180910390a150505050505050600081600001819055505050565b61076e61131e565b600061077861110a565b90508181600201819055507f45934903f6b10aff9d3435b8362d284d95d14ca68e8554f05f04c7856a6003c0826040516107b2919061218f565b60405180910390a15050565b6000806107c961110a565b90508261ffff168160030160008761ffff1661ffff16815260200190815260200160002060008673ffffffffffffffffffffffffffffffffffffffff1673ffffffffffffffffffffffffffffffffffffffff16815260200190815260200160002060009054906101000a900461ffff1661ffff161461084957600061084c565b60015b9150509392505050565b6000808273ffffffffffffffffffffffffffffffffffffffff16630a512369866001876040516020016108899190611de5565b604051602081830303815290604052604051806060016040528062030d408152602001600081526020016040518060400160405280600281526020017f30780000000000000000000000000000000000000000000000000000000000008152508152506040518563ffffffff1660e01b815260040161090b9493929190612087565b604080518083038186803b15801561092257600080fd5b505afa158015610936573d6000803e3d6000fd5b505050506040513d601f19601f8201168201806040525081019061095a9190611af9565b509050809150509392505050565b60008061097361110a565b90508060030160008561ffff1661ffff16815260200190815260200160002060008473ffffffffffffffffffffffffffffffffffffffff1673ffffffffffffffffffffffffffffffffffffffff16815260200190815260200160002060009054906101000a900461ffff1691505092915050565b600073ffffffffffffffffffffffffffffffffffffffff168273ffffffffffffffffffffffffffffffffffffffff161415610a4e576040517f35be3ac800000000000000000000000000000000000000000000000000000000815260040160405180910390fd5b610a5661131e565b6000610a6061110a565b9050828160000160006101000a81548173ffffffffffffffffffffffffffffffffffffffff021916908373ffffffffffffffffffffffffffffffffffffffff160217905550818160000160146101000a81548161ffff021916908361ffff16021790555060328160020181905550610aef600173a0b86991c6218b36c1d19d4a2e9eb0ce3606eb486001610f4e565b610b10600173dac17f958d2ee523a2206206994597c13d831ec76002610f4e565b610b3160027355d398326f99059ff775485246999027b31979556002610f4e565b610b52600273e9e7cea3dedca5984780bafc599bd69add087d566005610f4e565b610b73600673b97ef9ef8734c71904d8002f8b6bc66dd9c48a6e6001610f4e565b610b946006739702230a8ea53601f5cd2dc00fdbc13d4df4a8c76002610f4e565b610bb56009732791bca1f2de4661ed88a30c99a7a9449aa841746001610f4e565b610bd6600973c2132d05d31c914a87c6611c10748aeb04b58e8f6002610f4e565b610bf7600a73ff970a61a04b1ca14834a43f5de4533ebddb5cc86001610f4e565b610c18600a73fd086bc7cd5c481dcc9c85ebe478a1c0b69fcbb96002610f4e565b610c39600b737f5c764cbc14f9669b88837ca1490cca17c316076001610f4e565b610c5a600c7304068da6c83afcfa0e13ba15a6696662335d5b756001610f4e565b7fc8ec31998a27444f477c01de93c393769fd4fc017fb63163f71f8a8ab72ccd508383604051610c8b929190611e92565b60405180910390a1505050565b610ca061131e565b600073ffffffffffffffffffffffffffffffffffffffff168173ffffffffffffffffffffffffffffffffffffffff161415610d07576040517f3911c65500000000000000000000000000000000000000000000000000000000815260040160405180910390fd5b6000610d1161110a565b9050818160000160006101000a81548173ffffffffffffffffffffffffffffffffffffffff021916908373ffffffffffffffffffffffffffffffffffffffff1602179055507f9ac04272c4559bf7459414abb5568dc1df58ab649f0af4afd1510074f5cc2fec82604051610d859190611e17565b60405180910390a15050565b600080610d9c61110a565b90506127108160020154612710610db391906122df565b84610dbe9190612285565b610dc89190612254565b915050919050565b6000610dda61110a565b90508060000160009054906101000a900473ffffffffffffffffffffffffffffffffffffffff1673ffffffffffffffffffffffffffffffffffffffff163373ffffffffffffffffffffffffffffffffffffffff1614610e65576040517fdade3c7100000000000000000000000000000000000000000000000000000000815260040160405180910390fd5b600082806020019051810190610e7b919061180e565b90508473ffffffffffffffffffffffffffffffffffffffff1663a9059cbb82866040518363ffffffff1660e01b8152600401610eb8929190611ebb565b602060405180830381600087803b158015610ed257600080fd5b505af1158015610ee6573d6000803e3d6000fd5b505050506040513d601f19601f82011682018060405250810190610f0a91906118c2565b507f827e3293895509ef037b7438d4e009f37ad7b2562a14695d9dfd9cb0659842188585604051610f3c929190611ebb565b60405180910390a15050505050505050565b610f5661131e565b6000610f6061110a565b9050818160030160008661ffff1661ffff16815260200190815260200160002060008573ffffffffffffffffffffffffffffffffffffffff1673ffffffffffffffffffffffffffffffffffffffff16815260200190815260200160002060006101000a81548161ffff021916908361ffff1602179055507f85adba3a23dc45072c12199244adfbf4c1d736a46ac453eb732f4e5158af586784848460405161100a93929190612050565b60405180910390a150505050565b60006110226110dd565b9050600181600001541415611063576040517f29f745a700000000000000000000000000000000000000000000000000000000815260040160405180910390fd5b6001816000018190555061107561131e565b6110a030838673ffffffffffffffffffffffffffffffffffffffff166111c09092919063ffffffff16565b6110cd3084848773ffffffffffffffffffffffffffffffffffffffff16611137909392919063ffffffff16565b6000816000018190555050505050565b6000807fc59b5acc5a6673a6c49ca2de898f87adbd9fdfdff36f689476b1c9e0c50964b490508091505090565b6000807fbaeadb48cbcf0176d6c6ac156b0140abe0fb28a100a9a6a8b5df37e55693b1c890508091505090565b6111ba846323b872dd60e01b85858560405160240161115893929190611e5b565b604051602081830303815290604052907bffffffffffffffffffffffffffffffffffffffffffffffffffffffff19166020820180517bffffffffffffffffffffffffffffffffffffffffffffffffffffffff83818316178352505050506113b9565b50505050565b6000811480611259575060008373ffffffffffffffffffffffffffffffffffffffff1663dd62ed3e30856040518363ffffffff1660e01b8152600401611207929190611e32565b60206040518083038186803b15801561121f57600080fd5b505afa158015611233573d6000803e3d6000fd5b505050506040513d601f19601f820116820180604052508101906112579190611ad0565b145b611298576040517f08c379a000000000000000000000000000000000000000000000000000000000815260040161128f90612015565b60405180910390fd5b6113198363095ea7b360e01b84846040516024016112b7929190611ebb565b604051602081830303815290604052907bffffffffffffffffffffffffffffffffffffffffffffffffffffffff19166020820180517bffffffffffffffffffffffffffffffffffffffffffffffffffffffff83818316178352505050506113b9565b505050565b611326611480565b60040160009054906101000a900473ffffffffffffffffffffffffffffffffffffffff1673ffffffffffffffffffffffffffffffffffffffff163373ffffffffffffffffffffffffffffffffffffffff16146113b7576040517f08c379a00000000000000000000000000000000000000000000000000000000081526004016113ae90611f21565b60405180910390fd5b565b600061141b826040518060400160405280602081526020017f5361666545524332303a206c6f772d6c6576656c2063616c6c206661696c65648152508573ffffffffffffffffffffffffffffffffffffffff166114ad9092919063ffffffff16565b905060008151111561147b578080602001905181019061143b91906118c2565b61147a576040517f08c379a000000000000000000000000000000000000000000000000000000000815260040161147190611ff5565b60405180910390fd5b5b505050565b6000807fc8fcad8db84d3cc18b4c41d551ea0ee66dd599cde068d998e57d5e09332c131c90508091505090565b60606114bc84846000856114c5565b90509392505050565b60608247101561150a576040517f08c379a000000000000000000000000000000000000000000000000000000000815260040161150190611f41565b60405180910390fd5b611513856115d9565b611552576040517f08c379a000000000000000000000000000000000000000000000000000000000815260040161154990611fd5565b60405180910390fd5b6000808673ffffffffffffffffffffffffffffffffffffffff16858760405161157b9190611e00565b60006040518083038185875af1925050503d80600081146115b8576040519150601f19603f3d011682016040523d82523d6000602084013e6115bd565b606091505b50915091506115cd8282866115fc565b92505050949350505050565b6000808273ffffffffffffffffffffffffffffffffffffffff163b119050919050565b6060831561160c5782905061165c565b60008351111561161f5782518084602001fd5b816040517f08c379a00000000000000000000000000000000000000000000000000000000081526004016116539190611eff565b60405180910390fd5b9392505050565b6000611676611671846121cf565b6121aa565b90508281526020810184848401111561168e57600080fd5b6116998482856123ac565b509392505050565b6000813590506116b0816126a5565b92915050565b6000815190506116c5816126bc565b92915050565b6000815190506116da816126d3565b92915050565b600082601f8301126116f157600080fd5b8135611701848260208601611663565b91505092915050565b600060c0828403121561171c57600080fd5b61172660c06121aa565b90506000611736848285016117bb565b600083015250602061174a848285016116a1565b602083015250604061175e848285016116a1565b6040830152506060611772848285016117a6565b6060830152506080611786848285016116a1565b60808301525060a061179a848285016116a1565b60a08301525092915050565b6000813590506117b5816126ea565b92915050565b6000813590506117ca81612701565b92915050565b6000815190506117df81612701565b92915050565b6000602082840312156117f757600080fd5b6000611805848285016116a1565b91505092915050565b60006020828403121561182057600080fd5b600061182e848285016116b6565b91505092915050565b60008060006060848603121561184c57600080fd5b600061185a868287016116a1565b935050602061186b868287016116a1565b925050604061187c868287016117bb565b9150509250925092565b6000806040838503121561189957600080fd5b60006118a7858286016116a1565b92505060206118b8858286016117a6565b9150509250929050565b6000602082840312156118d457600080fd5b60006118e2848285016116cb565b91505092915050565b600060c082840312156118fd57600080fd5b600061190b8482850161170a565b91505092915050565b6000806040838503121561192757600080fd5b6000611935858286016117a6565b9250506020611946858286016116a1565b9150509250929050565b60008060006060848603121561196557600080fd5b6000611973868287016117a6565b9350506020611984868287016116a1565b9250506040611995868287016116a1565b9150509250925092565b6000806000606084860312156119b457600080fd5b60006119c2868287016117a6565b93505060206119d3868287016116a1565b92505060406119e4868287016117a6565b9150509250925092565b60008060008060008060c08789031215611a0757600080fd5b6000611a1589828a016117a6565b965050602087013567ffffffffffffffff811115611a3257600080fd5b611a3e89828a016116e0565b9550506040611a4f89828a016117bb565b9450506060611a6089828a016116a1565b9350506080611a7189828a016117bb565b92505060a087013567ffffffffffffffff811115611a8e57600080fd5b611a9a89828a016116e0565b9150509295509295509295565b600060208284031215611ab957600080fd5b6000611ac7848285016117bb565b91505092915050565b600060208284031215611ae257600080fd5b6000611af0848285016117d0565b91505092915050565b60008060408385031215611b0c57600080fd5b6000611b1a858286016117d0565b9250506020611b2b858286016117d0565b9150509250929050565b611b3e81612325565b82525050565b611b4d81612313565b82525050565b611b64611b5f82612313565b61241f565b82525050565b611b7381612337565b82525050565b6000611b8482612200565b611b8e8185612216565b9350611b9e8185602086016123bb565b611ba7816124d0565b840191505092915050565b6000611bbd82612200565b611bc78185612227565b9350611bd78185602086016123bb565b611be0816124d0565b840191505092915050565b6000611bf682612200565b611c008185612238565b9350611c108185602086016123bb565b80840191505092915050565b611c2581612388565b82525050565b6000611c368261220b565b611c408185612243565b9350611c508185602086016123bb565b611c59816124d0565b840191505092915050565b6000611c71602283612243565b9150611c7c826124ee565b604082019050919050565b6000611c94600283612227565b9150611c9f8261253d565b602082019050919050565b6000611cb7602683612243565b9150611cc282612566565b604082019050919050565b6000611cda600883612243565b9150611ce5826125b5565b602082019050919050565b6000611cfd601d83612243565b9150611d08826125de565b602082019050919050565b6000611d20602a83612243565b9150611d2b82612607565b604082019050919050565b6000611d43603683612243565b9150611d4e82612656565b604082019050919050565b6000606083016000830151611d716000860182611dc7565b506020830151611d846020860182611dc7565b5060408301518482036040860152611d9c8282611b79565b9150508091505092915050565b611db281612343565b82525050565b611dc18161239a565b82525050565b611dd081612371565b82525050565b611ddf81612371565b82525050565b6000611df18284611b53565b60148201915081905092915050565b6000611e0c8284611beb565b915081905092915050565b6000602082019050611e2c6000830184611b44565b92915050565b6000604082019050611e476000830185611b44565b611e546020830184611b44565b9392505050565b6000606082019050611e706000830186611b44565b611e7d6020830185611b44565b611e8a6040830184611dd6565b949350505050565b6000604082019050611ea76000830185611b44565b611eb46020830184611da9565b9392505050565b6000604082019050611ed06000830185611b44565b611edd6020830184611dd6565b9392505050565b6000602082019050611ef96000830184611b6a565b92915050565b60006020820190508181036000830152611f198184611c2b565b905092915050565b60006020820190508181036000830152611f3a81611c64565b9050919050565b60006020820190508181036000830152611f5a81611caa565b9050919050565b600060e0820190508181036000830152611f7a81611ccd565b9050611f896020830189611b44565b611f966040830188611b44565b611fa36060830187611b44565b611fb06080830186611b44565b611fbd60a0830185611dd6565b611fca60c0830184611da9565b979650505050505050565b60006020820190508181036000830152611fee81611cf0565b9050919050565b6000602082019050818103600083015261200e81611d13565b9050919050565b6000602082019050818103600083015261202e81611d36565b9050919050565b600060208201905061204a6000830184611da9565b92915050565b60006060820190506120656000830186611da9565b6120726020830185611b44565b61207f6040830184611da9565b949350505050565b600060a08201905061209c6000830187611da9565b6120a96020830186611c1c565b81810360408301526120bb8185611bb2565b905081810360608301526120ce81611c87565b905081810360808301526120e28184611d59565b905095945050505050565b600061012082019050612103600083018c611da9565b612110602083018b611db8565b61211d604083018a611db8565b61212a6060830189611b35565b6121376080830188611dd6565b61214460a0830187611dd6565b81810360c08301526121568186611d59565b905081810360e083015261216a8185611bb2565b905081810361010083015261217f8184611bb2565b90509a9950505050505050505050565b60006020820190506121a46000830184611dd6565b92915050565b60006121b46121c5565b90506121c082826123ee565b919050565b6000604051905090565b600067ffffffffffffffff8211156121ea576121e96124a1565b5b6121f3826124d0565b9050602081019050919050565b600081519050919050565b600081519050919050565b600082825260208201905092915050565b600082825260208201905092915050565b600081905092915050565b600082825260208201905092915050565b600061225f82612371565b915061226a83612371565b92508261227a57612279612472565b5b828204905092915050565b600061229082612371565b915061229b83612371565b9250817fffffffffffffffffffffffffffffffffffffffffffffffffffffffffffffffff04831182151516156122d4576122d3612443565b5b828202905092915050565b60006122ea82612371565b91506122f583612371565b92508282101561230857612307612443565b5b828203905092915050565b600061231e82612351565b9050919050565b600061233082612351565b9050919050565b60008115159050919050565b600061ffff82169050919050565b600073ffffffffffffffffffffffffffffffffffffffff82169050919050565b6000819050919050565b600060ff82169050919050565b60006123938261237b565b9050919050565b60006123a582612343565b9050919050565b82818337600083830152505050565b60005b838110156123d95780820151818401526020810190506123be565b838111156123e8576000848401525b50505050565b6123f7826124d0565b810181811067ffffffffffffffff82111715612416576124156124a1565b5b80604052505050565b600061242a82612431565b9050919050565b600061243c826124e1565b9050919050565b7f4e487b7100000000000000000000000000000000000000000000000000000000600052601160045260246000fd5b7f4e487b7100000000000000000000000000000000000000000000000000000000600052601260045260246000fd5b7f4e487b7100000000000000000000000000000000000000000000000000000000600052604160045260246000fd5b6000601f19601f8301169050919050565b60008160601b9050919050565b7f4c69624469616d6f6e643a204d75737420626520636f6e7472616374206f776e60008201527f6572000000000000000000000000000000000000000000000000000000000000602082015250565b7f3078000000000000000000000000000000000000000000000000000000000000600082015250565b7f416464726573733a20696e73756666696369656e742062616c616e636520666f60008201527f722063616c6c0000000000000000000000000000000000000000000000000000602082015250565b7f7374617267617465000000000000000000000000000000000000000000000000600082015250565b7f416464726573733a2063616c6c20746f206e6f6e2d636f6e7472616374000000600082015250565b7f5361666545524332303a204552433230206f7065726174696f6e20646964206e60008201527f6f74207375636365656400000000000000000000000000000000000000000000602082015250565b7f5361666545524332303a20617070726f76652066726f6d206e6f6e2d7a65726f60008201527f20746f206e6f6e2d7a65726f20616c6c6f77616e636500000000000000000000602082015250565b6126ae81612313565b81146126b957600080fd5b50565b6126c581612325565b81146126d057600080fd5b50565b6126dc81612337565b81146126e757600080fd5b50565b6126f381612343565b81146126fe57600080fd5b50565b61270a81612371565b811461271557600080fd5b5056fea2646970667358221220db5b7b2efa4ebc62d5514dbfcd31559e9977ea832a1ea654793cd921fee7691364736f6c63430008040033",
					"opcodes": "PUSH1 0x80 PUSH1 0x40 MSTORE CALLVALUE DUP1 ISZERO PUSH2 0x10 JUMPI PUSH1 0x0 DUP1 REVERT JUMPDEST POP PUSH2 0x274E DUP1 PUSH2 0x20 PUSH1 0x0 CODECOPY PUSH1 0x0 RETURN INVALID PUSH1 0x80 PUSH1 0x40 MSTORE PUSH1 0x4 CALLDATASIZE LT PUSH2 0xA0 JUMPI PUSH1 0x0 CALLDATALOAD PUSH1 0xE0 SHR DUP1 PUSH4 0x498EE469 GT PUSH2 0x64 JUMPI DUP1 PUSH4 0x498EE469 EQ PUSH2 0x1A8 JUMPI DUP1 PUSH4 0x4BE85C35 EQ PUSH2 0x1D1 JUMPI DUP1 PUSH4 0x618C3F29 EQ PUSH2 0x1FA JUMPI DUP1 PUSH4 0xAB8236F3 EQ PUSH2 0x237 JUMPI DUP1 PUSH4 0xB8C06CCC EQ PUSH2 0x260 JUMPI DUP1 PUSH4 0xC722A336 EQ PUSH2 0x289 JUMPI PUSH2 0xA7 JUMP JUMPDEST DUP1 PUSH4 0x1F8097FB EQ PUSH2 0xAC JUMPI DUP1 PUSH4 0x217AABB7 EQ PUSH2 0xC8 JUMPI DUP1 PUSH4 0x2A8DCDB7 EQ PUSH2 0xF1 JUMPI DUP1 PUSH4 0x42D910C6 EQ PUSH2 0x12E JUMPI DUP1 PUSH4 0x430DBC3A EQ PUSH2 0x16B JUMPI PUSH2 0xA7 JUMP JUMPDEST CALLDATASIZE PUSH2 0xA7 JUMPI STOP JUMPDEST PUSH1 0x0 DUP1 REVERT JUMPDEST PUSH2 0xC6 PUSH1 0x4 DUP1 CALLDATASIZE SUB DUP2 ADD SWAP1 PUSH2 0xC1 SWAP2 SWAP1 PUSH2 0x18EB JUMP JUMPDEST PUSH2 0x2A5 JUMP JUMPDEST STOP JUMPDEST CALLVALUE DUP1 ISZERO PUSH2 0xD4 JUMPI PUSH1 0x0 DUP1 REVERT JUMPDEST POP PUSH2 0xEF PUSH1 0x4 DUP1 CALLDATASIZE SUB DUP2 ADD SWAP1 PUSH2 0xEA SWAP2 SWAP1 PUSH2 0x1AA7 JUMP JUMPDEST PUSH2 0x766 JUMP JUMPDEST STOP JUMPDEST CALLVALUE DUP1 ISZERO PUSH2 0xFD JUMPI PUSH1 0x0 DUP1 REVERT JUMPDEST POP PUSH2 0x118 PUSH1 0x4 DUP1 CALLDATASIZE SUB DUP2 ADD SWAP1 PUSH2 0x113 SWAP2 SWAP1 PUSH2 0x199F JUMP JUMPDEST PUSH2 0x7BE JUMP JUMPDEST PUSH1 0x40 MLOAD PUSH2 0x125 SWAP2 SWAP1 PUSH2 0x1EE4 JUMP JUMPDEST PUSH1 0x40 MLOAD DUP1 SWAP2 SUB SWAP1 RETURN JUMPDEST CALLVALUE DUP1 ISZERO PUSH2 0x13A JUMPI PUSH1 0x0 DUP1 REVERT JUMPDEST POP PUSH2 0x155 PUSH1 0x4 DUP1 CALLDATASIZE SUB DUP2 ADD SWAP1 PUSH2 0x150 SWAP2 SWAP1 PUSH2 0x1950 JUMP JUMPDEST PUSH2 0x856 JUMP JUMPDEST PUSH1 0x40 MLOAD PUSH2 0x162 SWAP2 SWAP1 PUSH2 0x218F JUMP JUMPDEST PUSH1 0x40 MLOAD DUP1 SWAP2 SUB SWAP1 RETURN JUMPDEST CALLVALUE DUP1 ISZERO PUSH2 0x177 JUMPI PUSH1 0x0 DUP1 REVERT JUMPDEST POP PUSH2 0x192 PUSH1 0x4 DUP1 CALLDATASIZE SUB DUP2 ADD SWAP1 PUSH2 0x18D SWAP2 SWAP1 PUSH2 0x1914 JUMP JUMPDEST PUSH2 0x968 JUMP JUMPDEST PUSH1 0x40 MLOAD PUSH2 0x19F SWAP2 SWAP1 PUSH2 0x2035 JUMP JUMPDEST PUSH1 0x40 MLOAD DUP1 SWAP2 SUB SWAP1 RETURN JUMPDEST CALLVALUE DUP1 ISZERO PUSH2 0x1B4 JUMPI PUSH1 0x0 DUP1 REVERT JUMPDEST POP PUSH2 0x1CF PUSH1 0x4 DUP1 CALLDATASIZE SUB DUP2 ADD SWAP1 PUSH2 0x1CA SWAP2 SWAP1 PUSH2 0x1886 JUMP JUMPDEST PUSH2 0x9E7 JUMP JUMPDEST STOP JUMPDEST CALLVALUE DUP1 ISZERO PUSH2 0x1DD JUMPI PUSH1 0x0 DUP1 REVERT JUMPDEST POP PUSH2 0x1F8 PUSH1 0x4 DUP1 CALLDATASIZE SUB DUP2 ADD SWAP1 PUSH2 0x1F3 SWAP2 SWAP1 PUSH2 0x17E5 JUMP JUMPDEST PUSH2 0xC98 JUMP JUMPDEST STOP JUMPDEST CALLVALUE DUP1 ISZERO PUSH2 0x206 JUMPI PUSH1 0x0 DUP1 REVERT JUMPDEST POP PUSH2 0x221 PUSH1 0x4 DUP1 CALLDATASIZE SUB DUP2 ADD SWAP1 PUSH2 0x21C SWAP2 SWAP1 PUSH2 0x1AA7 JUMP JUMPDEST PUSH2 0xD91 JUMP JUMPDEST PUSH1 0x40 MLOAD PUSH2 0x22E SWAP2 SWAP1 PUSH2 0x218F JUMP JUMPDEST PUSH1 0x40 MLOAD DUP1 SWAP2 SUB SWAP1 RETURN JUMPDEST CALLVALUE DUP1 ISZERO PUSH2 0x243 JUMPI PUSH1 0x0 DUP1 REVERT JUMPDEST POP PUSH2 0x25E PUSH1 0x4 DUP1 CALLDATASIZE SUB DUP2 ADD SWAP1 PUSH2 0x259 SWAP2 SWAP1 PUSH2 0x19EE JUMP JUMPDEST PUSH2 0xDD0 JUMP JUMPDEST STOP JUMPDEST CALLVALUE DUP1 ISZERO PUSH2 0x26C JUMPI PUSH1 0x0 DUP1 REVERT JUMPDEST POP PUSH2 0x287 PUSH1 0x4 DUP1 CALLDATASIZE SUB DUP2 ADD SWAP1 PUSH2 0x282 SWAP2 SWAP1 PUSH2 0x199F JUMP JUMPDEST PUSH2 0xF4E JUMP JUMPDEST STOP JUMPDEST PUSH2 0x2A3 PUSH1 0x4 DUP1 CALLDATASIZE SUB DUP2 ADD SWAP1 PUSH2 0x29E SWAP2 SWAP1 PUSH2 0x1837 JUMP JUMPDEST PUSH2 0x1018 JUMP JUMPDEST STOP JUMPDEST PUSH1 0x0 PUSH2 0x2AF PUSH2 0x10DD JUMP JUMPDEST SWAP1 POP PUSH1 0x1 DUP2 PUSH1 0x0 ADD SLOAD EQ ISZERO PUSH2 0x2F0 JUMPI PUSH1 0x40 MLOAD PUSH32 0x29F745A700000000000000000000000000000000000000000000000000000000 DUP2 MSTORE PUSH1 0x4 ADD PUSH1 0x40 MLOAD DUP1 SWAP2 SUB SWAP1 REVERT JUMPDEST PUSH1 0x1 DUP2 PUSH1 0x0 ADD DUP2 SWAP1 SSTORE POP PUSH1 0x0 DUP3 PUSH1 0x0 ADD MLOAD GT PUSH2 0x338 JUMPI PUSH1 0x40 MLOAD PUSH32 0x2C5211C600000000000000000000000000000000000000000000000000000000 DUP2 MSTORE PUSH1 0x4 ADD PUSH1 0x40 MLOAD DUP1 SWAP2 SUB SWAP1 REVERT JUMPDEST PUSH1 0x0 PUSH20 0xFFFFFFFFFFFFFFFFFFFFFFFFFFFFFFFFFFFFFFFF AND DUP3 PUSH1 0x20 ADD MLOAD PUSH20 0xFFFFFFFFFFFFFFFFFFFFFFFFFFFFFFFFFFFFFFFF AND EQ DUP1 PUSH2 0x3A7 JUMPI POP PUSH1 0x0 PUSH20 0xFFFFFFFFFFFFFFFFFFFFFFFFFFFFFFFFFFFFFFFF AND DUP3 PUSH1 0x40 ADD MLOAD PUSH20 0xFFFFFFFFFFFFFFFFFFFFFFFFFFFFFFFFFFFFFFFF AND EQ JUMPDEST DUP1 PUSH2 0x3E2 JUMPI POP PUSH1 0x0 PUSH20 0xFFFFFFFFFFFFFFFFFFFFFFFFFFFFFFFFFFFFFFFF AND DUP3 PUSH1 0x80 ADD MLOAD PUSH20 0xFFFFFFFFFFFFFFFFFFFFFFFFFFFFFFFFFFFFFFFF AND EQ JUMPDEST DUP1 PUSH2 0x41D JUMPI POP PUSH1 0x0 PUSH20 0xFFFFFFFFFFFFFFFFFFFFFFFFFFFFFFFFFFFFFFFF AND DUP3 PUSH1 0xA0 ADD MLOAD PUSH20 0xFFFFFFFFFFFFFFFFFFFFFFFFFFFFFFFFFFFFFFFF AND EQ JUMPDEST ISZERO PUSH2 0x454 JUMPI PUSH1 0x40 MLOAD PUSH32 0x35BE3AC800000000000000000000000000000000000000000000000000000000 DUP2 MSTORE PUSH1 0x4 ADD PUSH1 0x40 MLOAD DUP1 SWAP2 SUB SWAP1 REVERT JUMPDEST PUSH1 0x0 PUSH2 0x45E PUSH2 0x110A JUMP JUMPDEST SWAP1 POP PUSH1 0x0 PUSH2 0x482 DUP3 PUSH1 0x0 ADD PUSH1 0x14 SWAP1 SLOAD SWAP1 PUSH2 0x100 EXP SWAP1 DIV PUSH2 0xFFFF AND DUP6 PUSH1 0x20 ADD MLOAD PUSH2 0x968 JUMP JUMPDEST SWAP1 POP PUSH1 0x0 DUP2 PUSH2 0xFFFF AND EQ ISZERO PUSH2 0x4C3 JUMPI PUSH1 0x40 MLOAD PUSH32 0x7790CA9900000000000000000000000000000000000000000000000000000000 DUP2 MSTORE PUSH1 0x4 ADD PUSH1 0x40 MLOAD DUP1 SWAP2 SUB SWAP1 REVERT JUMPDEST PUSH1 0x0 PUSH2 0x4D7 DUP6 PUSH1 0x60 ADD MLOAD DUP7 PUSH1 0x40 ADD MLOAD PUSH2 0x968 JUMP JUMPDEST SWAP1 POP PUSH1 0x0 PUSH2 0x512 DUP7 PUSH1 0x60 ADD MLOAD DUP8 PUSH1 0x80 ADD MLOAD DUP7 PUSH1 0x0 ADD PUSH1 0x0 SWAP1 SLOAD SWAP1 PUSH2 0x100 EXP SWAP1 DIV PUSH20 0xFFFFFFFFFFFFFFFFFFFFFFFFFFFFFFFFFFFFFFFF AND PUSH2 0x856 JUMP JUMPDEST SWAP1 POP PUSH1 0x0 PUSH2 0x523 DUP8 PUSH1 0x0 ADD MLOAD PUSH2 0xD91 JUMP JUMPDEST SWAP1 POP PUSH1 0x0 DUP8 PUSH1 0xA0 ADD MLOAD PUSH1 0x40 MLOAD PUSH1 0x20 ADD PUSH2 0x53C SWAP2 SWAP1 PUSH2 0x1DE5 JUMP JUMPDEST PUSH1 0x40 MLOAD PUSH1 0x20 DUP2 DUP4 SUB SUB DUP2 MSTORE SWAP1 PUSH1 0x40 MSTORE SWAP1 POP PUSH1 0x0 DUP9 PUSH1 0x80 ADD MLOAD PUSH1 0x40 MLOAD PUSH1 0x20 ADD PUSH2 0x564 SWAP2 SWAP1 PUSH2 0x1E17 JUMP JUMPDEST PUSH1 0x40 MLOAD PUSH1 0x20 DUP2 DUP4 SUB SUB DUP2 MSTORE SWAP1 PUSH1 0x40 MSTORE SWAP1 POP PUSH2 0x5AA CALLER ADDRESS DUP12 PUSH1 0x0 ADD MLOAD DUP13 PUSH1 0x20 ADD MLOAD PUSH20 0xFFFFFFFFFFFFFFFFFFFFFFFFFFFFFFFFFFFFFFFF AND PUSH2 0x1137 SWAP1 SWAP4 SWAP3 SWAP2 SWAP1 PUSH4 0xFFFFFFFF AND JUMP JUMPDEST PUSH2 0x601 DUP8 PUSH1 0x0 ADD PUSH1 0x0 SWAP1 SLOAD SWAP1 PUSH2 0x100 EXP SWAP1 DIV PUSH20 0xFFFFFFFFFFFFFFFFFFFFFFFFFFFFFFFFFFFFFFFF AND DUP11 PUSH1 0x0 ADD MLOAD DUP12 PUSH1 0x20 ADD MLOAD PUSH20 0xFFFFFFFFFFFFFFFFFFFFFFFFFFFFFFFFFFFFFFFF AND PUSH2 0x11C0 SWAP1 SWAP3 SWAP2 SWAP1 PUSH4 0xFFFFFFFF AND JUMP JUMPDEST DUP7 PUSH1 0x0 ADD PUSH1 0x0 SWAP1 SLOAD SWAP1 PUSH2 0x100 EXP SWAP1 DIV PUSH20 0xFFFFFFFFFFFFFFFFFFFFFFFFFFFFFFFFFFFFFFFF AND PUSH20 0xFFFFFFFFFFFFFFFFFFFFFFFFFFFFFFFFFFFFFFFF AND PUSH4 0x9FBF10FC DUP6 DUP12 PUSH1 0x60 ADD MLOAD DUP10 DUP10 CALLER DUP16 PUSH1 0x0 ADD MLOAD DUP11 PUSH1 0x40 MLOAD DUP1 PUSH1 0x60 ADD PUSH1 0x40 MSTORE DUP1 PUSH3 0x30D40 DUP2 MSTORE PUSH1 0x20 ADD PUSH1 0x0 DUP2 MSTORE PUSH1 0x20 ADD PUSH1 0x40 MLOAD DUP1 PUSH1 0x40 ADD PUSH1 0x40 MSTORE DUP1 PUSH1 0x2 DUP2 MSTORE PUSH1 0x20 ADD PUSH32 0x3078000000000000000000000000000000000000000000000000000000000000 DUP2 MSTORE POP DUP2 MSTORE POP DUP12 DUP12 PUSH1 0x40 MLOAD DUP12 PUSH4 0xFFFFFFFF AND PUSH1 0xE0 SHL DUP2 MSTORE PUSH1 0x4 ADD PUSH2 0x6CA SWAP10 SWAP9 SWAP8 SWAP7 SWAP6 SWAP5 SWAP4 SWAP3 SWAP2 SWAP1 PUSH2 0x20ED JUMP JUMPDEST PUSH1 0x0 PUSH1 0x40 MLOAD DUP1 DUP4 SUB DUP2 DUP6 DUP9 DUP1 EXTCODESIZE ISZERO DUP1 ISZERO PUSH2 0x6E3 JUMPI PUSH1 0x0 DUP1 REVERT JUMPDEST POP GAS CALL ISZERO DUP1 ISZERO PUSH2 0x6F7 JUMPI RETURNDATASIZE PUSH1 0x0 DUP1 RETURNDATACOPY RETURNDATASIZE PUSH1 0x0 REVERT JUMPDEST POP POP POP POP POP PUSH32 0x7A72E6F4A3D77F8A5A6C536A973421C5BF00107F9AEC7995661537673B8BE087 DUP10 PUSH1 0x20 ADD MLOAD DUP11 PUSH1 0x40 ADD MLOAD CALLER DUP13 PUSH1 0x80 ADD MLOAD DUP14 PUSH1 0x0 ADD MLOAD DUP15 PUSH1 0x60 ADD MLOAD PUSH1 0x40 MLOAD PUSH2 0x749 SWAP7 SWAP6 SWAP5 SWAP4 SWAP3 SWAP2 SWAP1 PUSH2 0x1F61 JUMP JUMPDEST PUSH1 0x40 MLOAD DUP1 SWAP2 SUB SWAP1 LOG1 POP POP POP POP POP POP POP PUSH1 0x0 DUP2 PUSH1 0x0 ADD DUP2 SWAP1 SSTORE POP POP POP JUMP JUMPDEST PUSH2 0x76E PUSH2 0x131E JUMP JUMPDEST PUSH1 0x0 PUSH2 0x778 PUSH2 0x110A JUMP JUMPDEST SWAP1 POP DUP2 DUP2 PUSH1 0x2 ADD DUP2 SWAP1 SSTORE POP PUSH32 0x45934903F6B10AFF9D3435B8362D284D95D14CA68E8554F05F04C7856A6003C0 DUP3 PUSH1 0x40 MLOAD PUSH2 0x7B2 SWAP2 SWAP1 PUSH2 0x218F JUMP JUMPDEST PUSH1 0x40 MLOAD DUP1 SWAP2 SUB SWAP1 LOG1 POP POP JUMP JUMPDEST PUSH1 0x0 DUP1 PUSH2 0x7C9 PUSH2 0x110A JUMP JUMPDEST SWAP1 POP DUP3 PUSH2 0xFFFF AND DUP2 PUSH1 0x3 ADD PUSH1 0x0 DUP8 PUSH2 0xFFFF AND PUSH2 0xFFFF AND DUP2 MSTORE PUSH1 0x20 ADD SWAP1 DUP2 MSTORE PUSH1 0x20 ADD PUSH1 0x0 KECCAK256 PUSH1 0x0 DUP7 PUSH20 0xFFFFFFFFFFFFFFFFFFFFFFFFFFFFFFFFFFFFFFFF AND PUSH20 0xFFFFFFFFFFFFFFFFFFFFFFFFFFFFFFFFFFFFFFFF AND DUP2 MSTORE PUSH1 0x20 ADD SWAP1 DUP2 MSTORE PUSH1 0x20 ADD PUSH1 0x0 KECCAK256 PUSH1 0x0 SWAP1 SLOAD SWAP1 PUSH2 0x100 EXP SWAP1 DIV PUSH2 0xFFFF AND PUSH2 0xFFFF AND EQ PUSH2 0x849 JUMPI PUSH1 0x0 PUSH2 0x84C JUMP JUMPDEST PUSH1 0x1 JUMPDEST SWAP2 POP POP SWAP4 SWAP3 POP POP POP JUMP JUMPDEST PUSH1 0x0 DUP1 DUP3 PUSH20 0xFFFFFFFFFFFFFFFFFFFFFFFFFFFFFFFFFFFFFFFF AND PUSH4 0xA512369 DUP7 PUSH1 0x1 DUP8 PUSH1 0x40 MLOAD PUSH1 0x20 ADD PUSH2 0x889 SWAP2 SWAP1 PUSH2 0x1DE5 JUMP JUMPDEST PUSH1 0x40 MLOAD PUSH1 0x20 DUP2 DUP4 SUB SUB DUP2 MSTORE SWAP1 PUSH1 0x40 MSTORE PUSH1 0x40 MLOAD DUP1 PUSH1 0x60 ADD PUSH1 0x40 MSTORE DUP1 PUSH3 0x30D40 DUP2 MSTORE PUSH1 0x20 ADD PUSH1 0x0 DUP2 MSTORE PUSH1 0x20 ADD PUSH1 0x40 MLOAD DUP1 PUSH1 0x40 ADD PUSH1 0x40 MSTORE DUP1 PUSH1 0x2 DUP2 MSTORE PUSH1 0x20 ADD PUSH32 0x3078000000000000000000000000000000000000000000000000000000000000 DUP2 MSTORE POP DUP2 MSTORE POP PUSH1 0x40 MLOAD DUP6 PUSH4 0xFFFFFFFF AND PUSH1 0xE0 SHL DUP2 MSTORE PUSH1 0x4 ADD PUSH2 0x90B SWAP5 SWAP4 SWAP3 SWAP2 SWAP1 PUSH2 0x2087 JUMP JUMPDEST PUSH1 0x40 DUP1 MLOAD DUP1 DUP4 SUB DUP2 DUP7 DUP1 EXTCODESIZE ISZERO DUP1 ISZERO PUSH2 0x922 JUMPI PUSH1 0x0 DUP1 REVERT JUMPDEST POP GAS STATICCALL ISZERO DUP1 ISZERO PUSH2 0x936 JUMPI RETURNDATASIZE PUSH1 0x0 DUP1 RETURNDATACOPY RETURNDATASIZE PUSH1 0x0 REVERT JUMPDEST POP POP POP POP PUSH1 0x40 MLOAD RETURNDATASIZE PUSH1 0x1F NOT PUSH1 0x1F DUP3 ADD AND DUP3 ADD DUP1 PUSH1 0x40 MSTORE POP DUP2 ADD SWAP1 PUSH2 0x95A SWAP2 SWAP1 PUSH2 0x1AF9 JUMP JUMPDEST POP SWAP1 POP DUP1 SWAP2 POP POP SWAP4 SWAP3 POP POP POP JUMP JUMPDEST PUSH1 0x0 DUP1 PUSH2 0x973 PUSH2 0x110A JUMP JUMPDEST SWAP1 POP DUP1 PUSH1 0x3 ADD PUSH1 0x0 DUP6 PUSH2 0xFFFF AND PUSH2 0xFFFF AND DUP2 MSTORE PUSH1 0x20 ADD SWAP1 DUP2 MSTORE PUSH1 0x20 ADD PUSH1 0x0 KECCAK256 PUSH1 0x0 DUP5 PUSH20 0xFFFFFFFFFFFFFFFFFFFFFFFFFFFFFFFFFFFFFFFF AND PUSH20 0xFFFFFFFFFFFFFFFFFFFFFFFFFFFFFFFFFFFFFFFF AND DUP2 MSTORE PUSH1 0x20 ADD SWAP1 DUP2 MSTORE PUSH1 0x20 ADD PUSH1 0x0 KECCAK256 PUSH1 0x0 SWAP1 SLOAD SWAP1 PUSH2 0x100 EXP SWAP1 DIV PUSH2 0xFFFF AND SWAP2 POP POP SWAP3 SWAP2 POP POP JUMP JUMPDEST PUSH1 0x0 PUSH20 0xFFFFFFFFFFFFFFFFFFFFFFFFFFFFFFFFFFFFFFFF AND DUP3 PUSH20 0xFFFFFFFFFFFFFFFFFFFFFFFFFFFFFFFFFFFFFFFF AND EQ ISZERO PUSH2 0xA4E JUMPI PUSH1 0x40 MLOAD PUSH32 0x35BE3AC800000000000000000000000000000000000000000000000000000000 DUP2 MSTORE PUSH1 0x4 ADD PUSH1 0x40 MLOAD DUP1 SWAP2 SUB SWAP1 REVERT JUMPDEST PUSH2 0xA56 PUSH2 0x131E JUMP JUMPDEST PUSH1 0x0 PUSH2 0xA60 PUSH2 0x110A JUMP JUMPDEST SWAP1 POP DUP3 DUP2 PUSH1 0x0 ADD PUSH1 0x0 PUSH2 0x100 EXP DUP2 SLOAD DUP2 PUSH20 0xFFFFFFFFFFFFFFFFFFFFFFFFFFFFFFFFFFFFFFFF MUL NOT AND SWAP1 DUP4 PUSH20 0xFFFFFFFFFFFFFFFFFFFFFFFFFFFFFFFFFFFFFFFF AND MUL OR SWAP1 SSTORE POP DUP2 DUP2 PUSH1 0x0 ADD PUSH1 0x14 PUSH2 0x100 EXP DUP2 SLOAD DUP2 PUSH2 0xFFFF MUL NOT AND SWAP1 DUP4 PUSH2 0xFFFF AND MUL OR SWAP1 SSTORE POP PUSH1 0x32 DUP2 PUSH1 0x2 ADD DUP2 SWAP1 SSTORE POP PUSH2 0xAEF PUSH1 0x1 PUSH20 0xA0B86991C6218B36C1D19D4A2E9EB0CE3606EB48 PUSH1 0x1 PUSH2 0xF4E JUMP JUMPDEST PUSH2 0xB10 PUSH1 0x1 PUSH20 0xDAC17F958D2EE523A2206206994597C13D831EC7 PUSH1 0x2 PUSH2 0xF4E JUMP JUMPDEST PUSH2 0xB31 PUSH1 0x2 PUSH20 0x55D398326F99059FF775485246999027B3197955 PUSH1 0x2 PUSH2 0xF4E JUMP JUMPDEST PUSH2 0xB52 PUSH1 0x2 PUSH20 0xE9E7CEA3DEDCA5984780BAFC599BD69ADD087D56 PUSH1 0x5 PUSH2 0xF4E JUMP JUMPDEST PUSH2 0xB73 PUSH1 0x6 PUSH20 0xB97EF9EF8734C71904D8002F8B6BC66DD9C48A6E PUSH1 0x1 PUSH2 0xF4E JUMP JUMPDEST PUSH2 0xB94 PUSH1 0x6 PUSH20 0x9702230A8EA53601F5CD2DC00FDBC13D4DF4A8C7 PUSH1 0x2 PUSH2 0xF4E JUMP JUMPDEST PUSH2 0xBB5 PUSH1 0x9 PUSH20 0x2791BCA1F2DE4661ED88A30C99A7A9449AA84174 PUSH1 0x1 PUSH2 0xF4E JUMP JUMPDEST PUSH2 0xBD6 PUSH1 0x9 PUSH20 0xC2132D05D31C914A87C6611C10748AEB04B58E8F PUSH1 0x2 PUSH2 0xF4E JUMP JUMPDEST PUSH2 0xBF7 PUSH1 0xA PUSH20 0xFF970A61A04B1CA14834A43F5DE4533EBDDB5CC8 PUSH1 0x1 PUSH2 0xF4E JUMP JUMPDEST PUSH2 0xC18 PUSH1 0xA PUSH20 0xFD086BC7CD5C481DCC9C85EBE478A1C0B69FCBB9 PUSH1 0x2 PUSH2 0xF4E JUMP JUMPDEST PUSH2 0xC39 PUSH1 0xB PUSH20 0x7F5C764CBC14F9669B88837CA1490CCA17C31607 PUSH1 0x1 PUSH2 0xF4E JUMP JUMPDEST PUSH2 0xC5A PUSH1 0xC PUSH20 0x4068DA6C83AFCFA0E13BA15A6696662335D5B75 PUSH1 0x1 PUSH2 0xF4E JUMP JUMPDEST PUSH32 0xC8EC31998A27444F477C01DE93C393769FD4FC017FB63163F71F8A8AB72CCD50 DUP4 DUP4 PUSH1 0x40 MLOAD PUSH2 0xC8B SWAP3 SWAP2 SWAP1 PUSH2 0x1E92 JUMP JUMPDEST PUSH1 0x40 MLOAD DUP1 SWAP2 SUB SWAP1 LOG1 POP POP POP JUMP JUMPDEST PUSH2 0xCA0 PUSH2 0x131E JUMP JUMPDEST PUSH1 0x0 PUSH20 0xFFFFFFFFFFFFFFFFFFFFFFFFFFFFFFFFFFFFFFFF AND DUP2 PUSH20 0xFFFFFFFFFFFFFFFFFFFFFFFFFFFFFFFFFFFFFFFF AND EQ ISZERO PUSH2 0xD07 JUMPI PUSH1 0x40 MLOAD PUSH32 0x3911C65500000000000000000000000000000000000000000000000000000000 DUP2 MSTORE PUSH1 0x4 ADD PUSH1 0x40 MLOAD DUP1 SWAP2 SUB SWAP1 REVERT JUMPDEST PUSH1 0x0 PUSH2 0xD11 PUSH2 0x110A JUMP JUMPDEST SWAP1 POP DUP2 DUP2 PUSH1 0x0 ADD PUSH1 0x0 PUSH2 0x100 EXP DUP2 SLOAD DUP2 PUSH20 0xFFFFFFFFFFFFFFFFFFFFFFFFFFFFFFFFFFFFFFFF MUL NOT AND SWAP1 DUP4 PUSH20 0xFFFFFFFFFFFFFFFFFFFFFFFFFFFFFFFFFFFFFFFF AND MUL OR SWAP1 SSTORE POP PUSH32 0x9AC04272C4559BF7459414ABB5568DC1DF58AB649F0AF4AFD1510074F5CC2FEC DUP3 PUSH1 0x40 MLOAD PUSH2 0xD85 SWAP2 SWAP1 PUSH2 0x1E17 JUMP JUMPDEST PUSH1 0x40 MLOAD DUP1 SWAP2 SUB SWAP1 LOG1 POP POP JUMP JUMPDEST PUSH1 0x0 DUP1 PUSH2 0xD9C PUSH2 0x110A JUMP JUMPDEST SWAP1 POP PUSH2 0x2710 DUP2 PUSH1 0x2 ADD SLOAD PUSH2 0x2710 PUSH2 0xDB3 SWAP2 SWAP1 PUSH2 0x22DF JUMP JUMPDEST DUP5 PUSH2 0xDBE SWAP2 SWAP1 PUSH2 0x2285 JUMP JUMPDEST PUSH2 0xDC8 SWAP2 SWAP1 PUSH2 0x2254 JUMP JUMPDEST SWAP2 POP POP SWAP2 SWAP1 POP JUMP JUMPDEST PUSH1 0x0 PUSH2 0xDDA PUSH2 0x110A JUMP JUMPDEST SWAP1 POP DUP1 PUSH1 0x0 ADD PUSH1 0x0 SWAP1 SLOAD SWAP1 PUSH2 0x100 EXP SWAP1 DIV PUSH20 0xFFFFFFFFFFFFFFFFFFFFFFFFFFFFFFFFFFFFFFFF AND PUSH20 0xFFFFFFFFFFFFFFFFFFFFFFFFFFFFFFFFFFFFFFFF AND CALLER PUSH20 0xFFFFFFFFFFFFFFFFFFFFFFFFFFFFFFFFFFFFFFFF AND EQ PUSH2 0xE65 JUMPI PUSH1 0x40 MLOAD PUSH32 0xDADE3C7100000000000000000000000000000000000000000000000000000000 DUP2 MSTORE PUSH1 0x4 ADD PUSH1 0x40 MLOAD DUP1 SWAP2 SUB SWAP1 REVERT JUMPDEST PUSH1 0x0 DUP3 DUP1 PUSH1 0x20 ADD SWAP1 MLOAD DUP2 ADD SWAP1 PUSH2 0xE7B SWAP2 SWAP1 PUSH2 0x180E JUMP JUMPDEST SWAP1 POP DUP5 PUSH20 0xFFFFFFFFFFFFFFFFFFFFFFFFFFFFFFFFFFFFFFFF AND PUSH4 0xA9059CBB DUP3 DUP7 PUSH1 0x40 MLOAD DUP4 PUSH4 0xFFFFFFFF AND PUSH1 0xE0 SHL DUP2 MSTORE PUSH1 0x4 ADD PUSH2 0xEB8 SWAP3 SWAP2 SWAP1 PUSH2 0x1EBB JUMP JUMPDEST PUSH1 0x20 PUSH1 0x40 MLOAD DUP1 DUP4 SUB DUP2 PUSH1 0x0 DUP8 DUP1 EXTCODESIZE ISZERO DUP1 ISZERO PUSH2 0xED2 JUMPI PUSH1 0x0 DUP1 REVERT JUMPDEST POP GAS CALL ISZERO DUP1 ISZERO PUSH2 0xEE6 JUMPI RETURNDATASIZE PUSH1 0x0 DUP1 RETURNDATACOPY RETURNDATASIZE PUSH1 0x0 REVERT JUMPDEST POP POP POP POP PUSH1 0x40 MLOAD RETURNDATASIZE PUSH1 0x1F NOT PUSH1 0x1F DUP3 ADD AND DUP3 ADD DUP1 PUSH1 0x40 MSTORE POP DUP2 ADD SWAP1 PUSH2 0xF0A SWAP2 SWAP1 PUSH2 0x18C2 JUMP JUMPDEST POP PUSH32 0x827E3293895509EF037B7438D4E009F37AD7B2562A14695D9DFD9CB065984218 DUP6 DUP6 PUSH1 0x40 MLOAD PUSH2 0xF3C SWAP3 SWAP2 SWAP1 PUSH2 0x1EBB JUMP JUMPDEST PUSH1 0x40 MLOAD DUP1 SWAP2 SUB SWAP1 LOG1 POP POP POP POP POP POP POP POP JUMP JUMPDEST PUSH2 0xF56 PUSH2 0x131E JUMP JUMPDEST PUSH1 0x0 PUSH2 0xF60 PUSH2 0x110A JUMP JUMPDEST SWAP1 POP DUP2 DUP2 PUSH1 0x3 ADD PUSH1 0x0 DUP7 PUSH2 0xFFFF AND PUSH2 0xFFFF AND DUP2 MSTORE PUSH1 0x20 ADD SWAP1 DUP2 MSTORE PUSH1 0x20 ADD PUSH1 0x0 KECCAK256 PUSH1 0x0 DUP6 PUSH20 0xFFFFFFFFFFFFFFFFFFFFFFFFFFFFFFFFFFFFFFFF AND PUSH20 0xFFFFFFFFFFFFFFFFFFFFFFFFFFFFFFFFFFFFFFFF AND DUP2 MSTORE PUSH1 0x20 ADD SWAP1 DUP2 MSTORE PUSH1 0x20 ADD PUSH1 0x0 KECCAK256 PUSH1 0x0 PUSH2 0x100 EXP DUP2 SLOAD DUP2 PUSH2 0xFFFF MUL NOT AND SWAP1 DUP4 PUSH2 0xFFFF AND MUL OR SWAP1 SSTORE POP PUSH32 0x85ADBA3A23DC45072C12199244ADFBF4C1D736A46AC453EB732F4E5158AF5867 DUP5 DUP5 DUP5 PUSH1 0x40 MLOAD PUSH2 0x100A SWAP4 SWAP3 SWAP2 SWAP1 PUSH2 0x2050 JUMP JUMPDEST PUSH1 0x40 MLOAD DUP1 SWAP2 SUB SWAP1 LOG1 POP POP POP POP JUMP JUMPDEST PUSH1 0x0 PUSH2 0x1022 PUSH2 0x10DD JUMP JUMPDEST SWAP1 POP PUSH1 0x1 DUP2 PUSH1 0x0 ADD SLOAD EQ ISZERO PUSH2 0x1063 JUMPI PUSH1 0x40 MLOAD PUSH32 0x29F745A700000000000000000000000000000000000000000000000000000000 DUP2 MSTORE PUSH1 0x4 ADD PUSH1 0x40 MLOAD DUP1 SWAP2 SUB SWAP1 REVERT JUMPDEST PUSH1 0x1 DUP2 PUSH1 0x0 ADD DUP2 SWAP1 SSTORE POP PUSH2 0x1075 PUSH2 0x131E JUMP JUMPDEST PUSH2 0x10A0 ADDRESS DUP4 DUP7 PUSH20 0xFFFFFFFFFFFFFFFFFFFFFFFFFFFFFFFFFFFFFFFF AND PUSH2 0x11C0 SWAP1 SWAP3 SWAP2 SWAP1 PUSH4 0xFFFFFFFF AND JUMP JUMPDEST PUSH2 0x10CD ADDRESS DUP5 DUP5 DUP8 PUSH20 0xFFFFFFFFFFFFFFFFFFFFFFFFFFFFFFFFFFFFFFFF AND PUSH2 0x1137 SWAP1 SWAP4 SWAP3 SWAP2 SWAP1 PUSH4 0xFFFFFFFF AND JUMP JUMPDEST PUSH1 0x0 DUP2 PUSH1 0x0 ADD DUP2 SWAP1 SSTORE POP POP POP POP POP JUMP JUMPDEST PUSH1 0x0 DUP1 PUSH32 0xC59B5ACC5A6673A6C49CA2DE898F87ADBD9FDFDFF36F689476B1C9E0C50964B4 SWAP1 POP DUP1 SWAP2 POP POP SWAP1 JUMP JUMPDEST PUSH1 0x0 DUP1 PUSH32 0xBAEADB48CBCF0176D6C6AC156B0140ABE0FB28A100A9A6A8B5DF37E55693B1C8 SWAP1 POP DUP1 SWAP2 POP POP SWAP1 JUMP JUMPDEST PUSH2 0x11BA DUP5 PUSH4 0x23B872DD PUSH1 0xE0 SHL DUP6 DUP6 DUP6 PUSH1 0x40 MLOAD PUSH1 0x24 ADD PUSH2 0x1158 SWAP4 SWAP3 SWAP2 SWAP1 PUSH2 0x1E5B JUMP JUMPDEST PUSH1 0x40 MLOAD PUSH1 0x20 DUP2 DUP4 SUB SUB DUP2 MSTORE SWAP1 PUSH1 0x40 MSTORE SWAP1 PUSH28 0xFFFFFFFFFFFFFFFFFFFFFFFFFFFFFFFFFFFFFFFFFFFFFFFFFFFFFFFF NOT AND PUSH1 0x20 DUP3 ADD DUP1 MLOAD PUSH28 0xFFFFFFFFFFFFFFFFFFFFFFFFFFFFFFFFFFFFFFFFFFFFFFFFFFFFFFFF DUP4 DUP2 DUP4 AND OR DUP4 MSTORE POP POP POP POP PUSH2 0x13B9 JUMP JUMPDEST POP POP POP POP JUMP JUMPDEST PUSH1 0x0 DUP2 EQ DUP1 PUSH2 0x1259 JUMPI POP PUSH1 0x0 DUP4 PUSH20 0xFFFFFFFFFFFFFFFFFFFFFFFFFFFFFFFFFFFFFFFF AND PUSH4 0xDD62ED3E ADDRESS DUP6 PUSH1 0x40 MLOAD DUP4 PUSH4 0xFFFFFFFF AND PUSH1 0xE0 SHL DUP2 MSTORE PUSH1 0x4 ADD PUSH2 0x1207 SWAP3 SWAP2 SWAP1 PUSH2 0x1E32 JUMP JUMPDEST PUSH1 0x20 PUSH1 0x40 MLOAD DUP1 DUP4 SUB DUP2 DUP7 DUP1 EXTCODESIZE ISZERO DUP1 ISZERO PUSH2 0x121F JUMPI PUSH1 0x0 DUP1 REVERT JUMPDEST POP GAS STATICCALL ISZERO DUP1 ISZERO PUSH2 0x1233 JUMPI RETURNDATASIZE PUSH1 0x0 DUP1 RETURNDATACOPY RETURNDATASIZE PUSH1 0x0 REVERT JUMPDEST POP POP POP POP PUSH1 0x40 MLOAD RETURNDATASIZE PUSH1 0x1F NOT PUSH1 0x1F DUP3 ADD AND DUP3 ADD DUP1 PUSH1 0x40 MSTORE POP DUP2 ADD SWAP1 PUSH2 0x1257 SWAP2 SWAP1 PUSH2 0x1AD0 JUMP JUMPDEST EQ JUMPDEST PUSH2 0x1298 JUMPI PUSH1 0x40 MLOAD PUSH32 0x8C379A000000000000000000000000000000000000000000000000000000000 DUP2 MSTORE PUSH1 0x4 ADD PUSH2 0x128F SWAP1 PUSH2 0x2015 JUMP JUMPDEST PUSH1 0x40 MLOAD DUP1 SWAP2 SUB SWAP1 REVERT JUMPDEST PUSH2 0x1319 DUP4 PUSH4 0x95EA7B3 PUSH1 0xE0 SHL DUP5 DUP5 PUSH1 0x40 MLOAD PUSH1 0x24 ADD PUSH2 0x12B7 SWAP3 SWAP2 SWAP1 PUSH2 0x1EBB JUMP JUMPDEST PUSH1 0x40 MLOAD PUSH1 0x20 DUP2 DUP4 SUB SUB DUP2 MSTORE SWAP1 PUSH1 0x40 MSTORE SWAP1 PUSH28 0xFFFFFFFFFFFFFFFFFFFFFFFFFFFFFFFFFFFFFFFFFFFFFFFFFFFFFFFF NOT AND PUSH1 0x20 DUP3 ADD DUP1 MLOAD PUSH28 0xFFFFFFFFFFFFFFFFFFFFFFFFFFFFFFFFFFFFFFFFFFFFFFFFFFFFFFFF DUP4 DUP2 DUP4 AND OR DUP4 MSTORE POP POP POP POP PUSH2 0x13B9 JUMP JUMPDEST POP POP POP JUMP JUMPDEST PUSH2 0x1326 PUSH2 0x1480 JUMP JUMPDEST PUSH1 0x4 ADD PUSH1 0x0 SWAP1 SLOAD SWAP1 PUSH2 0x100 EXP SWAP1 DIV PUSH20 0xFFFFFFFFFFFFFFFFFFFFFFFFFFFFFFFFFFFFFFFF AND PUSH20 0xFFFFFFFFFFFFFFFFFFFFFFFFFFFFFFFFFFFFFFFF AND CALLER PUSH20 0xFFFFFFFFFFFFFFFFFFFFFFFFFFFFFFFFFFFFFFFF AND EQ PUSH2 0x13B7 JUMPI PUSH1 0x40 MLOAD PUSH32 0x8C379A000000000000000000000000000000000000000000000000000000000 DUP2 MSTORE PUSH1 0x4 ADD PUSH2 0x13AE SWAP1 PUSH2 0x1F21 JUMP JUMPDEST PUSH1 0x40 MLOAD DUP1 SWAP2 SUB SWAP1 REVERT JUMPDEST JUMP JUMPDEST PUSH1 0x0 PUSH2 0x141B DUP3 PUSH1 0x40 MLOAD DUP1 PUSH1 0x40 ADD PUSH1 0x40 MSTORE DUP1 PUSH1 0x20 DUP2 MSTORE PUSH1 0x20 ADD PUSH32 0x5361666545524332303A206C6F772D6C6576656C2063616C6C206661696C6564 DUP2 MSTORE POP DUP6 PUSH20 0xFFFFFFFFFFFFFFFFFFFFFFFFFFFFFFFFFFFFFFFF AND PUSH2 0x14AD SWAP1 SWAP3 SWAP2 SWAP1 PUSH4 0xFFFFFFFF AND JUMP JUMPDEST SWAP1 POP PUSH1 0x0 DUP2 MLOAD GT ISZERO PUSH2 0x147B JUMPI DUP1 DUP1 PUSH1 0x20 ADD SWAP1 MLOAD DUP2 ADD SWAP1 PUSH2 0x143B SWAP2 SWAP1 PUSH2 0x18C2 JUMP JUMPDEST PUSH2 0x147A JUMPI PUSH1 0x40 MLOAD PUSH32 0x8C379A000000000000000000000000000000000000000000000000000000000 DUP2 MSTORE PUSH1 0x4 ADD PUSH2 0x1471 SWAP1 PUSH2 0x1FF5 JUMP JUMPDEST PUSH1 0x40 MLOAD DUP1 SWAP2 SUB SWAP1 REVERT JUMPDEST JUMPDEST POP POP POP JUMP JUMPDEST PUSH1 0x0 DUP1 PUSH32 0xC8FCAD8DB84D3CC18B4C41D551EA0EE66DD599CDE068D998E57D5E09332C131C SWAP1 POP DUP1 SWAP2 POP POP SWAP1 JUMP JUMPDEST PUSH1 0x60 PUSH2 0x14BC DUP5 DUP5 PUSH1 0x0 DUP6 PUSH2 0x14C5 JUMP JUMPDEST SWAP1 POP SWAP4 SWAP3 POP POP POP JUMP JUMPDEST PUSH1 0x60 DUP3 SELFBALANCE LT ISZERO PUSH2 0x150A JUMPI PUSH1 0x40 MLOAD PUSH32 0x8C379A000000000000000000000000000000000000000000000000000000000 DUP2 MSTORE PUSH1 0x4 ADD PUSH2 0x1501 SWAP1 PUSH2 0x1F41 JUMP JUMPDEST PUSH1 0x40 MLOAD DUP1 SWAP2 SUB SWAP1 REVERT JUMPDEST PUSH2 0x1513 DUP6 PUSH2 0x15D9 JUMP JUMPDEST PUSH2 0x1552 JUMPI PUSH1 0x40 MLOAD PUSH32 0x8C379A000000000000000000000000000000000000000000000000000000000 DUP2 MSTORE PUSH1 0x4 ADD PUSH2 0x1549 SWAP1 PUSH2 0x1FD5 JUMP JUMPDEST PUSH1 0x40 MLOAD DUP1 SWAP2 SUB SWAP1 REVERT JUMPDEST PUSH1 0x0 DUP1 DUP7 PUSH20 0xFFFFFFFFFFFFFFFFFFFFFFFFFFFFFFFFFFFFFFFF AND DUP6 DUP8 PUSH1 0x40 MLOAD PUSH2 0x157B SWAP2 SWAP1 PUSH2 0x1E00 JUMP JUMPDEST PUSH1 0x0 PUSH1 0x40 MLOAD DUP1 DUP4 SUB DUP2 DUP6 DUP8 GAS CALL SWAP3 POP POP POP RETURNDATASIZE DUP1 PUSH1 0x0 DUP2 EQ PUSH2 0x15B8 JUMPI PUSH1 0x40 MLOAD SWAP2 POP PUSH1 0x1F NOT PUSH1 0x3F RETURNDATASIZE ADD AND DUP3 ADD PUSH1 0x40 MSTORE RETURNDATASIZE DUP3 MSTORE RETURNDATASIZE PUSH1 0x0 PUSH1 0x20 DUP5 ADD RETURNDATACOPY PUSH2 0x15BD JUMP JUMPDEST PUSH1 0x60 SWAP2 POP JUMPDEST POP SWAP2 POP SWAP2 POP PUSH2 0x15CD DUP3 DUP3 DUP7 PUSH2 0x15FC JUMP JUMPDEST SWAP3 POP POP POP SWAP5 SWAP4 POP POP POP POP JUMP JUMPDEST PUSH1 0x0 DUP1 DUP3 PUSH20 0xFFFFFFFFFFFFFFFFFFFFFFFFFFFFFFFFFFFFFFFF AND EXTCODESIZE GT SWAP1 POP SWAP2 SWAP1 POP JUMP JUMPDEST PUSH1 0x60 DUP4 ISZERO PUSH2 0x160C JUMPI DUP3 SWAP1 POP PUSH2 0x165C JUMP JUMPDEST PUSH1 0x0 DUP4 MLOAD GT ISZERO PUSH2 0x161F JUMPI DUP3 MLOAD DUP1 DUP5 PUSH1 0x20 ADD REVERT JUMPDEST DUP2 PUSH1 0x40 MLOAD PUSH32 0x8C379A000000000000000000000000000000000000000000000000000000000 DUP2 MSTORE PUSH1 0x4 ADD PUSH2 0x1653 SWAP2 SWAP1 PUSH2 0x1EFF JUMP JUMPDEST PUSH1 0x40 MLOAD DUP1 SWAP2 SUB SWAP1 REVERT JUMPDEST SWAP4 SWAP3 POP POP POP JUMP JUMPDEST PUSH1 0x0 PUSH2 0x1676 PUSH2 0x1671 DUP5 PUSH2 0x21CF JUMP JUMPDEST PUSH2 0x21AA JUMP JUMPDEST SWAP1 POP DUP3 DUP2 MSTORE PUSH1 0x20 DUP2 ADD DUP5 DUP5 DUP5 ADD GT ISZERO PUSH2 0x168E JUMPI PUSH1 0x0 DUP1 REVERT JUMPDEST PUSH2 0x1699 DUP5 DUP3 DUP6 PUSH2 0x23AC JUMP JUMPDEST POP SWAP4 SWAP3 POP POP POP JUMP JUMPDEST PUSH1 0x0 DUP2 CALLDATALOAD SWAP1 POP PUSH2 0x16B0 DUP2 PUSH2 0x26A5 JUMP JUMPDEST SWAP3 SWAP2 POP POP JUMP JUMPDEST PUSH1 0x0 DUP2 MLOAD SWAP1 POP PUSH2 0x16C5 DUP2 PUSH2 0x26BC JUMP JUMPDEST SWAP3 SWAP2 POP POP JUMP JUMPDEST PUSH1 0x0 DUP2 MLOAD SWAP1 POP PUSH2 0x16DA DUP2 PUSH2 0x26D3 JUMP JUMPDEST SWAP3 SWAP2 POP POP JUMP JUMPDEST PUSH1 0x0 DUP3 PUSH1 0x1F DUP4 ADD SLT PUSH2 0x16F1 JUMPI PUSH1 0x0 DUP1 REVERT JUMPDEST DUP2 CALLDATALOAD PUSH2 0x1701 DUP5 DUP3 PUSH1 0x20 DUP7 ADD PUSH2 0x1663 JUMP JUMPDEST SWAP2 POP POP SWAP3 SWAP2 POP POP JUMP JUMPDEST PUSH1 0x0 PUSH1 0xC0 DUP3 DUP5 SUB SLT ISZERO PUSH2 0x171C JUMPI PUSH1 0x0 DUP1 REVERT JUMPDEST PUSH2 0x1726 PUSH1 0xC0 PUSH2 0x21AA JUMP JUMPDEST SWAP1 POP PUSH1 0x0 PUSH2 0x1736 DUP5 DUP3 DUP6 ADD PUSH2 0x17BB JUMP JUMPDEST PUSH1 0x0 DUP4 ADD MSTORE POP PUSH1 0x20 PUSH2 0x174A DUP5 DUP3 DUP6 ADD PUSH2 0x16A1 JUMP JUMPDEST PUSH1 0x20 DUP4 ADD MSTORE POP PUSH1 0x40 PUSH2 0x175E DUP5 DUP3 DUP6 ADD PUSH2 0x16A1 JUMP JUMPDEST PUSH1 0x40 DUP4 ADD MSTORE POP PUSH1 0x60 PUSH2 0x1772 DUP5 DUP3 DUP6 ADD PUSH2 0x17A6 JUMP JUMPDEST PUSH1 0x60 DUP4 ADD MSTORE POP PUSH1 0x80 PUSH2 0x1786 DUP5 DUP3 DUP6 ADD PUSH2 0x16A1 JUMP JUMPDEST PUSH1 0x80 DUP4 ADD MSTORE POP PUSH1 0xA0 PUSH2 0x179A DUP5 DUP3 DUP6 ADD PUSH2 0x16A1 JUMP JUMPDEST PUSH1 0xA0 DUP4 ADD MSTORE POP SWAP3 SWAP2 POP POP JUMP JUMPDEST PUSH1 0x0 DUP2 CALLDATALOAD SWAP1 POP PUSH2 0x17B5 DUP2 PUSH2 0x26EA JUMP JUMPDEST SWAP3 SWAP2 POP POP JUMP JUMPDEST PUSH1 0x0 DUP2 CALLDATALOAD SWAP1 POP PUSH2 0x17CA DUP2 PUSH2 0x2701 JUMP JUMPDEST SWAP3 SWAP2 POP POP JUMP JUMPDEST PUSH1 0x0 DUP2 MLOAD SWAP1 POP PUSH2 0x17DF DUP2 PUSH2 0x2701 JUMP JUMPDEST SWAP3 SWAP2 POP POP JUMP JUMPDEST PUSH1 0x0 PUSH1 0x20 DUP3 DUP5 SUB SLT ISZERO PUSH2 0x17F7 JUMPI PUSH1 0x0 DUP1 REVERT JUMPDEST PUSH1 0x0 PUSH2 0x1805 DUP5 DUP3 DUP6 ADD PUSH2 0x16A1 JUMP JUMPDEST SWAP2 POP POP SWAP3 SWAP2 POP POP JUMP JUMPDEST PUSH1 0x0 PUSH1 0x20 DUP3 DUP5 SUB SLT ISZERO PUSH2 0x1820 JUMPI PUSH1 0x0 DUP1 REVERT JUMPDEST PUSH1 0x0 PUSH2 0x182E DUP5 DUP3 DUP6 ADD PUSH2 0x16B6 JUMP JUMPDEST SWAP2 POP POP SWAP3 SWAP2 POP POP JUMP JUMPDEST PUSH1 0x0 DUP1 PUSH1 0x0 PUSH1 0x60 DUP5 DUP7 SUB SLT ISZERO PUSH2 0x184C JUMPI PUSH1 0x0 DUP1 REVERT JUMPDEST PUSH1 0x0 PUSH2 0x185A DUP7 DUP3 DUP8 ADD PUSH2 0x16A1 JUMP JUMPDEST SWAP4 POP POP PUSH1 0x20 PUSH2 0x186B DUP7 DUP3 DUP8 ADD PUSH2 0x16A1 JUMP JUMPDEST SWAP3 POP POP PUSH1 0x40 PUSH2 0x187C DUP7 DUP3 DUP8 ADD PUSH2 0x17BB JUMP JUMPDEST SWAP2 POP POP SWAP3 POP SWAP3 POP SWAP3 JUMP JUMPDEST PUSH1 0x0 DUP1 PUSH1 0x40 DUP4 DUP6 SUB SLT ISZERO PUSH2 0x1899 JUMPI PUSH1 0x0 DUP1 REVERT JUMPDEST PUSH1 0x0 PUSH2 0x18A7 DUP6 DUP3 DUP7 ADD PUSH2 0x16A1 JUMP JUMPDEST SWAP3 POP POP PUSH1 0x20 PUSH2 0x18B8 DUP6 DUP3 DUP7 ADD PUSH2 0x17A6 JUMP JUMPDEST SWAP2 POP POP SWAP3 POP SWAP3 SWAP1 POP JUMP JUMPDEST PUSH1 0x0 PUSH1 0x20 DUP3 DUP5 SUB SLT ISZERO PUSH2 0x18D4 JUMPI PUSH1 0x0 DUP1 REVERT JUMPDEST PUSH1 0x0 PUSH2 0x18E2 DUP5 DUP3 DUP6 ADD PUSH2 0x16CB JUMP JUMPDEST SWAP2 POP POP SWAP3 SWAP2 POP POP JUMP JUMPDEST PUSH1 0x0 PUSH1 0xC0 DUP3 DUP5 SUB SLT ISZERO PUSH2 0x18FD JUMPI PUSH1 0x0 DUP1 REVERT JUMPDEST PUSH1 0x0 PUSH2 0x190B DUP5 DUP3 DUP6 ADD PUSH2 0x170A JUMP JUMPDEST SWAP2 POP POP SWAP3 SWAP2 POP POP JUMP JUMPDEST PUSH1 0x0 DUP1 PUSH1 0x40 DUP4 DUP6 SUB SLT ISZERO PUSH2 0x1927 JUMPI PUSH1 0x0 DUP1 REVERT JUMPDEST PUSH1 0x0 PUSH2 0x1935 DUP6 DUP3 DUP7 ADD PUSH2 0x17A6 JUMP JUMPDEST SWAP3 POP POP PUSH1 0x20 PUSH2 0x1946 DUP6 DUP3 DUP7 ADD PUSH2 0x16A1 JUMP JUMPDEST SWAP2 POP POP SWAP3 POP SWAP3 SWAP1 POP JUMP JUMPDEST PUSH1 0x0 DUP1 PUSH1 0x0 PUSH1 0x60 DUP5 DUP7 SUB SLT ISZERO PUSH2 0x1965 JUMPI PUSH1 0x0 DUP1 REVERT JUMPDEST PUSH1 0x0 PUSH2 0x1973 DUP7 DUP3 DUP8 ADD PUSH2 0x17A6 JUMP JUMPDEST SWAP4 POP POP PUSH1 0x20 PUSH2 0x1984 DUP7 DUP3 DUP8 ADD PUSH2 0x16A1 JUMP JUMPDEST SWAP3 POP POP PUSH1 0x40 PUSH2 0x1995 DUP7 DUP3 DUP8 ADD PUSH2 0x16A1 JUMP JUMPDEST SWAP2 POP POP SWAP3 POP SWAP3 POP SWAP3 JUMP JUMPDEST PUSH1 0x0 DUP1 PUSH1 0x0 PUSH1 0x60 DUP5 DUP7 SUB SLT ISZERO PUSH2 0x19B4 JUMPI PUSH1 0x0 DUP1 REVERT JUMPDEST PUSH1 0x0 PUSH2 0x19C2 DUP7 DUP3 DUP8 ADD PUSH2 0x17A6 JUMP JUMPDEST SWAP4 POP POP PUSH1 0x20 PUSH2 0x19D3 DUP7 DUP3 DUP8 ADD PUSH2 0x16A1 JUMP JUMPDEST SWAP3 POP POP PUSH1 0x40 PUSH2 0x19E4 DUP7 DUP3 DUP8 ADD PUSH2 0x17A6 JUMP JUMPDEST SWAP2 POP POP SWAP3 POP SWAP3 POP SWAP3 JUMP JUMPDEST PUSH1 0x0 DUP1 PUSH1 0x0 DUP1 PUSH1 0x0 DUP1 PUSH1 0xC0 DUP8 DUP10 SUB SLT ISZERO PUSH2 0x1A07 JUMPI PUSH1 0x0 DUP1 REVERT JUMPDEST PUSH1 0x0 PUSH2 0x1A15 DUP10 DUP3 DUP11 ADD PUSH2 0x17A6 JUMP JUMPDEST SWAP7 POP POP PUSH1 0x20 DUP8 ADD CALLDATALOAD PUSH8 0xFFFFFFFFFFFFFFFF DUP2 GT ISZERO PUSH2 0x1A32 JUMPI PUSH1 0x0 DUP1 REVERT JUMPDEST PUSH2 0x1A3E DUP10 DUP3 DUP11 ADD PUSH2 0x16E0 JUMP JUMPDEST SWAP6 POP POP PUSH1 0x40 PUSH2 0x1A4F DUP10 DUP3 DUP11 ADD PUSH2 0x17BB JUMP JUMPDEST SWAP5 POP POP PUSH1 0x60 PUSH2 0x1A60 DUP10 DUP3 DUP11 ADD PUSH2 0x16A1 JUMP JUMPDEST SWAP4 POP POP PUSH1 0x80 PUSH2 0x1A71 DUP10 DUP3 DUP11 ADD PUSH2 0x17BB JUMP JUMPDEST SWAP3 POP POP PUSH1 0xA0 DUP8 ADD CALLDATALOAD PUSH8 0xFFFFFFFFFFFFFFFF DUP2 GT ISZERO PUSH2 0x1A8E JUMPI PUSH1 0x0 DUP1 REVERT JUMPDEST PUSH2 0x1A9A DUP10 DUP3 DUP11 ADD PUSH2 0x16E0 JUMP JUMPDEST SWAP2 POP POP SWAP3 SWAP6 POP SWAP3 SWAP6 POP SWAP3 SWAP6 JUMP JUMPDEST PUSH1 0x0 PUSH1 0x20 DUP3 DUP5 SUB SLT ISZERO PUSH2 0x1AB9 JUMPI PUSH1 0x0 DUP1 REVERT JUMPDEST PUSH1 0x0 PUSH2 0x1AC7 DUP5 DUP3 DUP6 ADD PUSH2 0x17BB JUMP JUMPDEST SWAP2 POP POP SWAP3 SWAP2 POP POP JUMP JUMPDEST PUSH1 0x0 PUSH1 0x20 DUP3 DUP5 SUB SLT ISZERO PUSH2 0x1AE2 JUMPI PUSH1 0x0 DUP1 REVERT JUMPDEST PUSH1 0x0 PUSH2 0x1AF0 DUP5 DUP3 DUP6 ADD PUSH2 0x17D0 JUMP JUMPDEST SWAP2 POP POP SWAP3 SWAP2 POP POP JUMP JUMPDEST PUSH1 0x0 DUP1 PUSH1 0x40 DUP4 DUP6 SUB SLT ISZERO PUSH2 0x1B0C JUMPI PUSH1 0x0 DUP1 REVERT JUMPDEST PUSH1 0x0 PUSH2 0x1B1A DUP6 DUP3 DUP7 ADD PUSH2 0x17D0 JUMP JUMPDEST SWAP3 POP POP PUSH1 0x20 PUSH2 0x1B2B DUP6 DUP3 DUP7 ADD PUSH2 0x17D0 JUMP JUMPDEST SWAP2 POP POP SWAP3 POP SWAP3 SWAP1 POP JUMP JUMPDEST PUSH2 0x1B3E DUP2 PUSH2 0x2325 JUMP JUMPDEST DUP3 MSTORE POP POP JUMP JUMPDEST PUSH2 0x1B4D DUP2 PUSH2 0x2313 JUMP JUMPDEST DUP3 MSTORE POP POP JUMP JUMPDEST PUSH2 0x1B64 PUSH2 0x1B5F DUP3 PUSH2 0x2313 JUMP JUMPDEST PUSH2 0x241F JUMP JUMPDEST DUP3 MSTORE POP POP JUMP JUMPDEST PUSH2 0x1B73 DUP2 PUSH2 0x2337 JUMP JUMPDEST DUP3 MSTORE POP POP JUMP JUMPDEST PUSH1 0x0 PUSH2 0x1B84 DUP3 PUSH2 0x2200 JUMP JUMPDEST PUSH2 0x1B8E DUP2 DUP6 PUSH2 0x2216 JUMP JUMPDEST SWAP4 POP PUSH2 0x1B9E DUP2 DUP6 PUSH1 0x20 DUP7 ADD PUSH2 0x23BB JUMP JUMPDEST PUSH2 0x1BA7 DUP2 PUSH2 0x24D0 JUMP JUMPDEST DUP5 ADD SWAP2 POP POP SWAP3 SWAP2 POP POP JUMP JUMPDEST PUSH1 0x0 PUSH2 0x1BBD DUP3 PUSH2 0x2200 JUMP JUMPDEST PUSH2 0x1BC7 DUP2 DUP6 PUSH2 0x2227 JUMP JUMPDEST SWAP4 POP PUSH2 0x1BD7 DUP2 DUP6 PUSH1 0x20 DUP7 ADD PUSH2 0x23BB JUMP JUMPDEST PUSH2 0x1BE0 DUP2 PUSH2 0x24D0 JUMP JUMPDEST DUP5 ADD SWAP2 POP POP SWAP3 SWAP2 POP POP JUMP JUMPDEST PUSH1 0x0 PUSH2 0x1BF6 DUP3 PUSH2 0x2200 JUMP JUMPDEST PUSH2 0x1C00 DUP2 DUP6 PUSH2 0x2238 JUMP JUMPDEST SWAP4 POP PUSH2 0x1C10 DUP2 DUP6 PUSH1 0x20 DUP7 ADD PUSH2 0x23BB JUMP JUMPDEST DUP1 DUP5 ADD SWAP2 POP POP SWAP3 SWAP2 POP POP JUMP JUMPDEST PUSH2 0x1C25 DUP2 PUSH2 0x2388 JUMP JUMPDEST DUP3 MSTORE POP POP JUMP JUMPDEST PUSH1 0x0 PUSH2 0x1C36 DUP3 PUSH2 0x220B JUMP JUMPDEST PUSH2 0x1C40 DUP2 DUP6 PUSH2 0x2243 JUMP JUMPDEST SWAP4 POP PUSH2 0x1C50 DUP2 DUP6 PUSH1 0x20 DUP7 ADD PUSH2 0x23BB JUMP JUMPDEST PUSH2 0x1C59 DUP2 PUSH2 0x24D0 JUMP JUMPDEST DUP5 ADD SWAP2 POP POP SWAP3 SWAP2 POP POP JUMP JUMPDEST PUSH1 0x0 PUSH2 0x1C71 PUSH1 0x22 DUP4 PUSH2 0x2243 JUMP JUMPDEST SWAP2 POP PUSH2 0x1C7C DUP3 PUSH2 0x24EE JUMP JUMPDEST PUSH1 0x40 DUP3 ADD SWAP1 POP SWAP2 SWAP1 POP JUMP JUMPDEST PUSH1 0x0 PUSH2 0x1C94 PUSH1 0x2 DUP4 PUSH2 0x2227 JUMP JUMPDEST SWAP2 POP PUSH2 0x1C9F DUP3 PUSH2 0x253D JUMP JUMPDEST PUSH1 0x20 DUP3 ADD SWAP1 POP SWAP2 SWAP1 POP JUMP JUMPDEST PUSH1 0x0 PUSH2 0x1CB7 PUSH1 0x26 DUP4 PUSH2 0x2243 JUMP JUMPDEST SWAP2 POP PUSH2 0x1CC2 DUP3 PUSH2 0x2566 JUMP JUMPDEST PUSH1 0x40 DUP3 ADD SWAP1 POP SWAP2 SWAP1 POP JUMP JUMPDEST PUSH1 0x0 PUSH2 0x1CDA PUSH1 0x8 DUP4 PUSH2 0x2243 JUMP JUMPDEST SWAP2 POP PUSH2 0x1CE5 DUP3 PUSH2 0x25B5 JUMP JUMPDEST PUSH1 0x20 DUP3 ADD SWAP1 POP SWAP2 SWAP1 POP JUMP JUMPDEST PUSH1 0x0 PUSH2 0x1CFD PUSH1 0x1D DUP4 PUSH2 0x2243 JUMP JUMPDEST SWAP2 POP PUSH2 0x1D08 DUP3 PUSH2 0x25DE JUMP JUMPDEST PUSH1 0x20 DUP3 ADD SWAP1 POP SWAP2 SWAP1 POP JUMP JUMPDEST PUSH1 0x0 PUSH2 0x1D20 PUSH1 0x2A DUP4 PUSH2 0x2243 JUMP JUMPDEST SWAP2 POP PUSH2 0x1D2B DUP3 PUSH2 0x2607 JUMP JUMPDEST PUSH1 0x40 DUP3 ADD SWAP1 POP SWAP2 SWAP1 POP JUMP JUMPDEST PUSH1 0x0 PUSH2 0x1D43 PUSH1 0x36 DUP4 PUSH2 0x2243 JUMP JUMPDEST SWAP2 POP PUSH2 0x1D4E DUP3 PUSH2 0x2656 JUMP JUMPDEST PUSH1 0x40 DUP3 ADD SWAP1 POP SWAP2 SWAP1 POP JUMP JUMPDEST PUSH1 0x0 PUSH1 0x60 DUP4 ADD PUSH1 0x0 DUP4 ADD MLOAD PUSH2 0x1D71 PUSH1 0x0 DUP7 ADD DUP3 PUSH2 0x1DC7 JUMP JUMPDEST POP PUSH1 0x20 DUP4 ADD MLOAD PUSH2 0x1D84 PUSH1 0x20 DUP7 ADD DUP3 PUSH2 0x1DC7 JUMP JUMPDEST POP PUSH1 0x40 DUP4 ADD MLOAD DUP5 DUP3 SUB PUSH1 0x40 DUP7 ADD MSTORE PUSH2 0x1D9C DUP3 DUP3 PUSH2 0x1B79 JUMP JUMPDEST SWAP2 POP POP DUP1 SWAP2 POP POP SWAP3 SWAP2 POP POP JUMP JUMPDEST PUSH2 0x1DB2 DUP2 PUSH2 0x2343 JUMP JUMPDEST DUP3 MSTORE POP POP JUMP JUMPDEST PUSH2 0x1DC1 DUP2 PUSH2 0x239A JUMP JUMPDEST DUP3 MSTORE POP POP JUMP JUMPDEST PUSH2 0x1DD0 DUP2 PUSH2 0x2371 JUMP JUMPDEST DUP3 MSTORE POP POP JUMP JUMPDEST PUSH2 0x1DDF DUP2 PUSH2 0x2371 JUMP JUMPDEST DUP3 MSTORE POP POP JUMP JUMPDEST PUSH1 0x0 PUSH2 0x1DF1 DUP3 DUP5 PUSH2 0x1B53 JUMP JUMPDEST PUSH1 0x14 DUP3 ADD SWAP2 POP DUP2 SWAP1 POP SWAP3 SWAP2 POP POP JUMP JUMPDEST PUSH1 0x0 PUSH2 0x1E0C DUP3 DUP5 PUSH2 0x1BEB JUMP JUMPDEST SWAP2 POP DUP2 SWAP1 POP SWAP3 SWAP2 POP POP JUMP JUMPDEST PUSH1 0x0 PUSH1 0x20 DUP3 ADD SWAP1 POP PUSH2 0x1E2C PUSH1 0x0 DUP4 ADD DUP5 PUSH2 0x1B44 JUMP JUMPDEST SWAP3 SWAP2 POP POP JUMP JUMPDEST PUSH1 0x0 PUSH1 0x40 DUP3 ADD SWAP1 POP PUSH2 0x1E47 PUSH1 0x0 DUP4 ADD DUP6 PUSH2 0x1B44 JUMP JUMPDEST PUSH2 0x1E54 PUSH1 0x20 DUP4 ADD DUP5 PUSH2 0x1B44 JUMP JUMPDEST SWAP4 SWAP3 POP POP POP JUMP JUMPDEST PUSH1 0x0 PUSH1 0x60 DUP3 ADD SWAP1 POP PUSH2 0x1E70 PUSH1 0x0 DUP4 ADD DUP7 PUSH2 0x1B44 JUMP JUMPDEST PUSH2 0x1E7D PUSH1 0x20 DUP4 ADD DUP6 PUSH2 0x1B44 JUMP JUMPDEST PUSH2 0x1E8A PUSH1 0x40 DUP4 ADD DUP5 PUSH2 0x1DD6 JUMP JUMPDEST SWAP5 SWAP4 POP POP POP POP JUMP JUMPDEST PUSH1 0x0 PUSH1 0x40 DUP3 ADD SWAP1 POP PUSH2 0x1EA7 PUSH1 0x0 DUP4 ADD DUP6 PUSH2 0x1B44 JUMP JUMPDEST PUSH2 0x1EB4 PUSH1 0x20 DUP4 ADD DUP5 PUSH2 0x1DA9 JUMP JUMPDEST SWAP4 SWAP3 POP POP POP JUMP JUMPDEST PUSH1 0x0 PUSH1 0x40 DUP3 ADD SWAP1 POP PUSH2 0x1ED0 PUSH1 0x0 DUP4 ADD DUP6 PUSH2 0x1B44 JUMP JUMPDEST PUSH2 0x1EDD PUSH1 0x20 DUP4 ADD DUP5 PUSH2 0x1DD6 JUMP JUMPDEST SWAP4 SWAP3 POP POP POP JUMP JUMPDEST PUSH1 0x0 PUSH1 0x20 DUP3 ADD SWAP1 POP PUSH2 0x1EF9 PUSH1 0x0 DUP4 ADD DUP5 PUSH2 0x1B6A JUMP JUMPDEST SWAP3 SWAP2 POP POP JUMP JUMPDEST PUSH1 0x0 PUSH1 0x20 DUP3 ADD SWAP1 POP DUP2 DUP2 SUB PUSH1 0x0 DUP4 ADD MSTORE PUSH2 0x1F19 DUP2 DUP5 PUSH2 0x1C2B JUMP JUMPDEST SWAP1 POP SWAP3 SWAP2 POP POP JUMP JUMPDEST PUSH1 0x0 PUSH1 0x20 DUP3 ADD SWAP1 POP DUP2 DUP2 SUB PUSH1 0x0 DUP4 ADD MSTORE PUSH2 0x1F3A DUP2 PUSH2 0x1C64 JUMP JUMPDEST SWAP1 POP SWAP2 SWAP1 POP JUMP JUMPDEST PUSH1 0x0 PUSH1 0x20 DUP3 ADD SWAP1 POP DUP2 DUP2 SUB PUSH1 0x0 DUP4 ADD MSTORE PUSH2 0x1F5A DUP2 PUSH2 0x1CAA JUMP JUMPDEST SWAP1 POP SWAP2 SWAP1 POP JUMP JUMPDEST PUSH1 0x0 PUSH1 0xE0 DUP3 ADD SWAP1 POP DUP2 DUP2 SUB PUSH1 0x0 DUP4 ADD MSTORE PUSH2 0x1F7A DUP2 PUSH2 0x1CCD JUMP JUMPDEST SWAP1 POP PUSH2 0x1F89 PUSH1 0x20 DUP4 ADD DUP10 PUSH2 0x1B44 JUMP JUMPDEST PUSH2 0x1F96 PUSH1 0x40 DUP4 ADD DUP9 PUSH2 0x1B44 JUMP JUMPDEST PUSH2 0x1FA3 PUSH1 0x60 DUP4 ADD DUP8 PUSH2 0x1B44 JUMP JUMPDEST PUSH2 0x1FB0 PUSH1 0x80 DUP4 ADD DUP7 PUSH2 0x1B44 JUMP JUMPDEST PUSH2 0x1FBD PUSH1 0xA0 DUP4 ADD DUP6 PUSH2 0x1DD6 JUMP JUMPDEST PUSH2 0x1FCA PUSH1 0xC0 DUP4 ADD DUP5 PUSH2 0x1DA9 JUMP JUMPDEST SWAP8 SWAP7 POP POP POP POP POP POP POP JUMP JUMPDEST PUSH1 0x0 PUSH1 0x20 DUP3 ADD SWAP1 POP DUP2 DUP2 SUB PUSH1 0x0 DUP4 ADD MSTORE PUSH2 0x1FEE DUP2 PUSH2 0x1CF0 JUMP JUMPDEST SWAP1 POP SWAP2 SWAP1 POP JUMP JUMPDEST PUSH1 0x0 PUSH1 0x20 DUP3 ADD SWAP1 POP DUP2 DUP2 SUB PUSH1 0x0 DUP4 ADD MSTORE PUSH2 0x200E DUP2 PUSH2 0x1D13 JUMP JUMPDEST SWAP1 POP SWAP2 SWAP1 POP JUMP JUMPDEST PUSH1 0x0 PUSH1 0x20 DUP3 ADD SWAP1 POP DUP2 DUP2 SUB PUSH1 0x0 DUP4 ADD MSTORE PUSH2 0x202E DUP2 PUSH2 0x1D36 JUMP JUMPDEST SWAP1 POP SWAP2 SWAP1 POP JUMP JUMPDEST PUSH1 0x0 PUSH1 0x20 DUP3 ADD SWAP1 POP PUSH2 0x204A PUSH1 0x0 DUP4 ADD DUP5 PUSH2 0x1DA9 JUMP JUMPDEST SWAP3 SWAP2 POP POP JUMP JUMPDEST PUSH1 0x0 PUSH1 0x60 DUP3 ADD SWAP1 POP PUSH2 0x2065 PUSH1 0x0 DUP4 ADD DUP7 PUSH2 0x1DA9 JUMP JUMPDEST PUSH2 0x2072 PUSH1 0x20 DUP4 ADD DUP6 PUSH2 0x1B44 JUMP JUMPDEST PUSH2 0x207F PUSH1 0x40 DUP4 ADD DUP5 PUSH2 0x1DA9 JUMP JUMPDEST SWAP5 SWAP4 POP POP POP POP JUMP JUMPDEST PUSH1 0x0 PUSH1 0xA0 DUP3 ADD SWAP1 POP PUSH2 0x209C PUSH1 0x0 DUP4 ADD DUP8 PUSH2 0x1DA9 JUMP JUMPDEST PUSH2 0x20A9 PUSH1 0x20 DUP4 ADD DUP7 PUSH2 0x1C1C JUMP JUMPDEST DUP2 DUP2 SUB PUSH1 0x40 DUP4 ADD MSTORE PUSH2 0x20BB DUP2 DUP6 PUSH2 0x1BB2 JUMP JUMPDEST SWAP1 POP DUP2 DUP2 SUB PUSH1 0x60 DUP4 ADD MSTORE PUSH2 0x20CE DUP2 PUSH2 0x1C87 JUMP JUMPDEST SWAP1 POP DUP2 DUP2 SUB PUSH1 0x80 DUP4 ADD MSTORE PUSH2 0x20E2 DUP2 DUP5 PUSH2 0x1D59 JUMP JUMPDEST SWAP1 POP SWAP6 SWAP5 POP POP POP POP POP JUMP JUMPDEST PUSH1 0x0 PUSH2 0x120 DUP3 ADD SWAP1 POP PUSH2 0x2103 PUSH1 0x0 DUP4 ADD DUP13 PUSH2 0x1DA9 JUMP JUMPDEST PUSH2 0x2110 PUSH1 0x20 DUP4 ADD DUP12 PUSH2 0x1DB8 JUMP JUMPDEST PUSH2 0x211D PUSH1 0x40 DUP4 ADD DUP11 PUSH2 0x1DB8 JUMP JUMPDEST PUSH2 0x212A PUSH1 0x60 DUP4 ADD DUP10 PUSH2 0x1B35 JUMP JUMPDEST PUSH2 0x2137 PUSH1 0x80 DUP4 ADD DUP9 PUSH2 0x1DD6 JUMP JUMPDEST PUSH2 0x2144 PUSH1 0xA0 DUP4 ADD DUP8 PUSH2 0x1DD6 JUMP JUMPDEST DUP2 DUP2 SUB PUSH1 0xC0 DUP4 ADD MSTORE PUSH2 0x2156 DUP2 DUP7 PUSH2 0x1D59 JUMP JUMPDEST SWAP1 POP DUP2 DUP2 SUB PUSH1 0xE0 DUP4 ADD MSTORE PUSH2 0x216A DUP2 DUP6 PUSH2 0x1BB2 JUMP JUMPDEST SWAP1 POP DUP2 DUP2 SUB PUSH2 0x100 DUP4 ADD MSTORE PUSH2 0x217F DUP2 DUP5 PUSH2 0x1BB2 JUMP JUMPDEST SWAP1 POP SWAP11 SWAP10 POP POP POP POP POP POP POP POP POP POP JUMP JUMPDEST PUSH1 0x0 PUSH1 0x20 DUP3 ADD SWAP1 POP PUSH2 0x21A4 PUSH1 0x0 DUP4 ADD DUP5 PUSH2 0x1DD6 JUMP JUMPDEST SWAP3 SWAP2 POP POP JUMP JUMPDEST PUSH1 0x0 PUSH2 0x21B4 PUSH2 0x21C5 JUMP JUMPDEST SWAP1 POP PUSH2 0x21C0 DUP3 DUP3 PUSH2 0x23EE JUMP JUMPDEST SWAP2 SWAP1 POP JUMP JUMPDEST PUSH1 0x0 PUSH1 0x40 MLOAD SWAP1 POP SWAP1 JUMP JUMPDEST PUSH1 0x0 PUSH8 0xFFFFFFFFFFFFFFFF DUP3 GT ISZERO PUSH2 0x21EA JUMPI PUSH2 0x21E9 PUSH2 0x24A1 JUMP JUMPDEST JUMPDEST PUSH2 0x21F3 DUP3 PUSH2 0x24D0 JUMP JUMPDEST SWAP1 POP PUSH1 0x20 DUP2 ADD SWAP1 POP SWAP2 SWAP1 POP JUMP JUMPDEST PUSH1 0x0 DUP2 MLOAD SWAP1 POP SWAP2 SWAP1 POP JUMP JUMPDEST PUSH1 0x0 DUP2 MLOAD SWAP1 POP SWAP2 SWAP1 POP JUMP JUMPDEST PUSH1 0x0 DUP3 DUP3 MSTORE PUSH1 0x20 DUP3 ADD SWAP1 POP SWAP3 SWAP2 POP POP JUMP JUMPDEST PUSH1 0x0 DUP3 DUP3 MSTORE PUSH1 0x20 DUP3 ADD SWAP1 POP SWAP3 SWAP2 POP POP JUMP JUMPDEST PUSH1 0x0 DUP2 SWAP1 POP SWAP3 SWAP2 POP POP JUMP JUMPDEST PUSH1 0x0 DUP3 DUP3 MSTORE PUSH1 0x20 DUP3 ADD SWAP1 POP SWAP3 SWAP2 POP POP JUMP JUMPDEST PUSH1 0x0 PUSH2 0x225F DUP3 PUSH2 0x2371 JUMP JUMPDEST SWAP2 POP PUSH2 0x226A DUP4 PUSH2 0x2371 JUMP JUMPDEST SWAP3 POP DUP3 PUSH2 0x227A JUMPI PUSH2 0x2279 PUSH2 0x2472 JUMP JUMPDEST JUMPDEST DUP3 DUP3 DIV SWAP1 POP SWAP3 SWAP2 POP POP JUMP JUMPDEST PUSH1 0x0 PUSH2 0x2290 DUP3 PUSH2 0x2371 JUMP JUMPDEST SWAP2 POP PUSH2 0x229B DUP4 PUSH2 0x2371 JUMP JUMPDEST SWAP3 POP DUP2 PUSH32 0xFFFFFFFFFFFFFFFFFFFFFFFFFFFFFFFFFFFFFFFFFFFFFFFFFFFFFFFFFFFFFFFF DIV DUP4 GT DUP3 ISZERO ISZERO AND ISZERO PUSH2 0x22D4 JUMPI PUSH2 0x22D3 PUSH2 0x2443 JUMP JUMPDEST JUMPDEST DUP3 DUP3 MUL SWAP1 POP SWAP3 SWAP2 POP POP JUMP JUMPDEST PUSH1 0x0 PUSH2 0x22EA DUP3 PUSH2 0x2371 JUMP JUMPDEST SWAP2 POP PUSH2 0x22F5 DUP4 PUSH2 0x2371 JUMP JUMPDEST SWAP3 POP DUP3 DUP3 LT ISZERO PUSH2 0x2308 JUMPI PUSH2 0x2307 PUSH2 0x2443 JUMP JUMPDEST JUMPDEST DUP3 DUP3 SUB SWAP1 POP SWAP3 SWAP2 POP POP JUMP JUMPDEST PUSH1 0x0 PUSH2 0x231E DUP3 PUSH2 0x2351 JUMP JUMPDEST SWAP1 POP SWAP2 SWAP1 POP JUMP JUMPDEST PUSH1 0x0 PUSH2 0x2330 DUP3 PUSH2 0x2351 JUMP JUMPDEST SWAP1 POP SWAP2 SWAP1 POP JUMP JUMPDEST PUSH1 0x0 DUP2 ISZERO ISZERO SWAP1 POP SWAP2 SWAP1 POP JUMP JUMPDEST PUSH1 0x0 PUSH2 0xFFFF DUP3 AND SWAP1 POP SWAP2 SWAP1 POP JUMP JUMPDEST PUSH1 0x0 PUSH20 0xFFFFFFFFFFFFFFFFFFFFFFFFFFFFFFFFFFFFFFFF DUP3 AND SWAP1 POP SWAP2 SWAP1 POP JUMP JUMPDEST PUSH1 0x0 DUP2 SWAP1 POP SWAP2 SWAP1 POP JUMP JUMPDEST PUSH1 0x0 PUSH1 0xFF DUP3 AND SWAP1 POP SWAP2 SWAP1 POP JUMP JUMPDEST PUSH1 0x0 PUSH2 0x2393 DUP3 PUSH2 0x237B JUMP JUMPDEST SWAP1 POP SWAP2 SWAP1 POP JUMP JUMPDEST PUSH1 0x0 PUSH2 0x23A5 DUP3 PUSH2 0x2343 JUMP JUMPDEST SWAP1 POP SWAP2 SWAP1 POP JUMP JUMPDEST DUP3 DUP2 DUP4 CALLDATACOPY PUSH1 0x0 DUP4 DUP4 ADD MSTORE POP POP POP JUMP JUMPDEST PUSH1 0x0 JUMPDEST DUP4 DUP2 LT ISZERO PUSH2 0x23D9 JUMPI DUP1 DUP3 ADD MLOAD DUP2 DUP5 ADD MSTORE PUSH1 0x20 DUP2 ADD SWAP1 POP PUSH2 0x23BE JUMP JUMPDEST DUP4 DUP2 GT ISZERO PUSH2 0x23E8 JUMPI PUSH1 0x0 DUP5 DUP5 ADD MSTORE JUMPDEST POP POP POP POP JUMP JUMPDEST PUSH2 0x23F7 DUP3 PUSH2 0x24D0 JUMP JUMPDEST DUP2 ADD DUP2 DUP2 LT PUSH8 0xFFFFFFFFFFFFFFFF DUP3 GT OR ISZERO PUSH2 0x2416 JUMPI PUSH2 0x2415 PUSH2 0x24A1 JUMP JUMPDEST JUMPDEST DUP1 PUSH1 0x40 MSTORE POP POP POP JUMP JUMPDEST PUSH1 0x0 PUSH2 0x242A DUP3 PUSH2 0x2431 JUMP JUMPDEST SWAP1 POP SWAP2 SWAP1 POP JUMP JUMPDEST PUSH1 0x0 PUSH2 0x243C DUP3 PUSH2 0x24E1 JUMP JUMPDEST SWAP1 POP SWAP2 SWAP1 POP JUMP JUMPDEST PUSH32 0x4E487B7100000000000000000000000000000000000000000000000000000000 PUSH1 0x0 MSTORE PUSH1 0x11 PUSH1 0x4 MSTORE PUSH1 0x24 PUSH1 0x0 REVERT JUMPDEST PUSH32 0x4E487B7100000000000000000000000000000000000000000000000000000000 PUSH1 0x0 MSTORE PUSH1 0x12 PUSH1 0x4 MSTORE PUSH1 0x24 PUSH1 0x0 REVERT JUMPDEST PUSH32 0x4E487B7100000000000000000000000000000000000000000000000000000000 PUSH1 0x0 MSTORE PUSH1 0x41 PUSH1 0x4 MSTORE PUSH1 0x24 PUSH1 0x0 REVERT JUMPDEST PUSH1 0x0 PUSH1 0x1F NOT PUSH1 0x1F DUP4 ADD AND SWAP1 POP SWAP2 SWAP1 POP JUMP JUMPDEST PUSH1 0x0 DUP2 PUSH1 0x60 SHL SWAP1 POP SWAP2 SWAP1 POP JUMP JUMPDEST PUSH32 0x4C69624469616D6F6E643A204D75737420626520636F6E7472616374206F776E PUSH1 0x0 DUP3 ADD MSTORE PUSH32 0x6572000000000000000000000000000000000000000000000000000000000000 PUSH1 0x20 DUP3 ADD MSTORE POP JUMP JUMPDEST PUSH32 0x3078000000000000000000000000000000000000000000000000000000000000 PUSH1 0x0 DUP3 ADD MSTORE POP JUMP JUMPDEST PUSH32 0x416464726573733A20696E73756666696369656E742062616C616E636520666F PUSH1 0x0 DUP3 ADD MSTORE PUSH32 0x722063616C6C0000000000000000000000000000000000000000000000000000 PUSH1 0x20 DUP3 ADD MSTORE POP JUMP JUMPDEST PUSH32 0x7374617267617465000000000000000000000000000000000000000000000000 PUSH1 0x0 DUP3 ADD MSTORE POP JUMP JUMPDEST PUSH32 0x416464726573733A2063616C6C20746F206E6F6E2D636F6E7472616374000000 PUSH1 0x0 DUP3 ADD MSTORE POP JUMP JUMPDEST PUSH32 0x5361666545524332303A204552433230206F7065726174696F6E20646964206E PUSH1 0x0 DUP3 ADD MSTORE PUSH32 0x6F74207375636365656400000000000000000000000000000000000000000000 PUSH1 0x20 DUP3 ADD MSTORE POP JUMP JUMPDEST PUSH32 0x5361666545524332303A20617070726F76652066726F6D206E6F6E2D7A65726F PUSH1 0x0 DUP3 ADD MSTORE PUSH32 0x20746F206E6F6E2D7A65726F20616C6C6F77616E636500000000000000000000 PUSH1 0x20 DUP3 ADD MSTORE POP JUMP JUMPDEST PUSH2 0x26AE DUP2 PUSH2 0x2313 JUMP JUMPDEST DUP2 EQ PUSH2 0x26B9 JUMPI PUSH1 0x0 DUP1 REVERT JUMPDEST POP JUMP JUMPDEST PUSH2 0x26C5 DUP2 PUSH2 0x2325 JUMP JUMPDEST DUP2 EQ PUSH2 0x26D0 JUMPI PUSH1 0x0 DUP1 REVERT JUMPDEST POP JUMP JUMPDEST PUSH2 0x26DC DUP2 PUSH2 0x2337 JUMP JUMPDEST DUP2 EQ PUSH2 0x26E7 JUMPI PUSH1 0x0 DUP1 REVERT JUMPDEST POP JUMP JUMPDEST PUSH2 0x26F3 DUP2 PUSH2 0x2343 JUMP JUMPDEST DUP2 EQ PUSH2 0x26FE JUMPI PUSH1 0x0 DUP1 REVERT JUMPDEST POP JUMP JUMPDEST PUSH2 0x270A DUP2 PUSH2 0x2371 JUMP JUMPDEST DUP2 EQ PUSH2 0x2715 JUMPI PUSH1 0x0 DUP1 REVERT JUMPDEST POP JUMP INVALID LOG2 PUSH5 0x6970667358 0x22 SLT KECCAK256 0xDB JUMPDEST PUSH28 0x2EFA4EBC62D5514DBFCD31559E9977EA832A1EA654793CD921FEE769 SGT PUSH5 0x736F6C6343 STOP ADDMOD DIV STOP CALLER "
				},
				"gasEstimates": {
					"creation": {
						"codeDepositCost": "2012400",
						"executionCost": "2134",
						"totalCost": "2014534"
					},
					"external": {
						"sgAddPool(uint16,address,uint16)": "infinite",
						"sgBridgeTokens((uint256,address,address,uint16,address,address))": "infinite",
						"sgCalculateFees(uint16,address,address)": "infinite",
						"sgCheckPoolId(uint16,address,uint16)": "infinite",
						"sgInitialize(address,uint16)": "infinite",
						"sgMinAmountOut(uint256)": "infinite",
						"sgReceive(uint16,bytes,uint256,address,uint256,bytes)": "infinite",
						"sgRetrievePoolId(uint16,address)": "infinite",
						"sgUpdateRouter(address)": "infinite",
						"sgUpdateSlippageTolerance(uint256)": "infinite",
						"sgWithdraw(address,address,uint256)": "infinite"
					},
					"internal": {
						"getStorage()": "36"
					}
				},
				"methodIdentifiers": {
					"sgAddPool(uint16,address,uint16)": "b8c06ccc",
					"sgBridgeTokens((uint256,address,address,uint16,address,address))": "1f8097fb",
					"sgCalculateFees(uint16,address,address)": "42d910c6",
					"sgCheckPoolId(uint16,address,uint16)": "2a8dcdb7",
					"sgInitialize(address,uint16)": "498ee469",
					"sgMinAmountOut(uint256)": "618c3f29",
					"sgReceive(uint16,bytes,uint256,address,uint256,bytes)": "ab8236f3",
					"sgRetrievePoolId(uint16,address)": "430dbc3a",
					"sgUpdateRouter(address)": "4be85c35",
					"sgUpdateSlippageTolerance(uint256)": "217aabb7",
					"sgWithdraw(address,address,uint256)": "c722a336"
				}
			},
			"storageLayout": {
				"storage": [],
				"types": null
			},
			"userdoc": {
				"kind": "user",
				"methods": {
					"sgAddPool(uint16,address,uint16)": {
						"notice": "Adds a new pool for a specific token and chain"
					},
					"sgBridgeTokens((uint256,address,address,uint16,address,address))": {
						"notice": "initializes state variables for the stargate facet"
					},
					"sgCalculateFees(uint16,address,address)": {
						"notice": "Calculates cross chain fee"
					},
					"sgCheckPoolId(uint16,address,uint16)": {
						"notice": "Checks for a valid token pool on specific chain"
					},
					"sgInitialize(address,uint16)": {
						"notice": "initializes state variables for the Stargate facet"
					},
					"sgMinAmountOut(uint256)": {
						"notice": "Calculates the minimum amount out using slippage tolerance"
					},
					"sgReceive(uint16,bytes,uint256,address,uint256,bytes)": {
						"notice": "required to receive tokens on destination chain"
					},
					"sgRetrievePoolId(uint16,address)": {
						"notice": "Retrieves pool id for a token on a specified chain"
					},
					"sgUpdateRouter(address)": {
						"notice": "Updates stargate router address for deployed chain"
					},
					"sgUpdateSlippageTolerance(uint256)": {
						"notice": "Updates slippage tolerance amount"
					},
					"sgWithdraw(address,address,uint256)": {
						"notice": "Withdraws tokens on contract"
					}
				},
				"notice": "Stargate/LayerZero intergration for bridging tokens",
				"version": 1
			}
		}
	}
}