{
  "address": "0xBEd52610518788B931f7825301909e7616273d47",
  "abi": [
    {
      "inputs": [],
      "stateMutability": "nonpayable",
      "type": "constructor"
    },
    {
      "anonymous": false,
      "inputs": [
        {
          "indexed": false,
          "internalType": "address",
          "name": "sender",
          "type": "address"
        },
        {
          "indexed": false,
          "internalType": "bytes",
          "name": "batch",
          "type": "bytes"
        },
        {
          "indexed": false,
          "internalType": "bool",
          "name": "succeeded",
          "type": "bool"
        }
      ],
      "name": "BatchDelegated",
      "type": "event"
    },
    {
      "anonymous": false,
      "inputs": [
        {
          "indexed": false,
          "internalType": "address",
          "name": "sender",
          "type": "address"
        },
        {
          "indexed": false,
          "internalType": "address",
          "name": "guardian",
          "type": "address"
        }
      ],
      "name": "GuardianAdded",
      "type": "event"
    },
    {
      "anonymous": false,
      "inputs": [
        {
          "indexed": false,
          "internalType": "address",
          "name": "sender",
          "type": "address"
        },
        {
          "indexed": false,
          "internalType": "address",
          "name": "guardian",
          "type": "address"
        }
      ],
      "name": "GuardianRemoved",
      "type": "event"
    },
    {
      "anonymous": false,
      "inputs": [
        {
          "indexed": false,
          "internalType": "address",
          "name": "initializer",
          "type": "address"
        }
      ],
      "name": "Initialized",
      "type": "event"
    },
    {
      "inputs": [
        {
          "internalType": "address",
          "name": "guardian",
          "type": "address"
        }
      ],
      "name": "addGuardian",
      "outputs": [],
      "stateMutability": "nonpayable",
      "type": "function"
    },
    {
      "inputs": [],
      "name": "chainId",
      "outputs": [
        {
          "internalType": "uint256",
          "name": "",
          "type": "uint256"
        }
      ],
      "stateMutability": "view",
      "type": "function"
    },
    {
      "inputs": [
        {
          "internalType": "address",
          "name": "account",
          "type": "address"
        },
        {
          "internalType": "uint256",
          "name": "nonce",
          "type": "uint256"
        },
        {
          "internalType": "address[]",
          "name": "to",
          "type": "address[]"
        },
        {
          "internalType": "bytes[]",
          "name": "data",
          "type": "bytes[]"
        },
        {
          "internalType": "bytes",
          "name": "senderSignature",
          "type": "bytes"
        }
      ],
      "name": "delegateBatch",
      "outputs": [],
      "stateMutability": "nonpayable",
      "type": "function"
    },
    {
      "inputs": [
        {
          "internalType": "address",
          "name": "account",
          "type": "address"
        },
        {
          "internalType": "uint256",
          "name": "nonce",
          "type": "uint256"
        },
        {
          "internalType": "address[]",
          "name": "to",
          "type": "address[]"
        },
        {
          "internalType": "bytes[]",
          "name": "data",
          "type": "bytes[]"
        },
        {
          "internalType": "bytes",
          "name": "senderSignature",
          "type": "bytes"
        }
      ],
      "name": "delegateBatchGuarded",
      "outputs": [],
      "stateMutability": "nonpayable",
      "type": "function"
    },
    {
      "inputs": [
        {
          "internalType": "address",
          "name": "account",
          "type": "address"
        },
        {
          "internalType": "uint256",
          "name": "nonce",
          "type": "uint256"
        },
        {
          "internalType": "address[]",
          "name": "to",
          "type": "address[]"
        },
        {
          "internalType": "bytes[]",
          "name": "data",
          "type": "bytes[]"
        },
        {
          "internalType": "bytes",
          "name": "senderSignature",
          "type": "bytes"
        }
      ],
      "name": "delegateBatchWithGasPrice",
      "outputs": [],
      "stateMutability": "nonpayable",
      "type": "function"
    },
    {
      "inputs": [
        {
          "internalType": "address",
          "name": "account",
          "type": "address"
        },
        {
          "internalType": "uint256",
          "name": "nonce",
          "type": "uint256"
        },
        {
          "internalType": "address[]",
          "name": "to",
          "type": "address[]"
        },
        {
          "internalType": "bytes[]",
          "name": "data",
          "type": "bytes[]"
        },
        {
          "internalType": "bytes",
          "name": "senderSignature",
          "type": "bytes"
        }
      ],
      "name": "delegateBatchWithGasPriceGuarded",
      "outputs": [],
      "stateMutability": "nonpayable",
      "type": "function"
    },
    {
      "inputs": [
        {
          "internalType": "bytes[]",
          "name": "batches",
          "type": "bytes[]"
        },
        {
          "internalType": "bool",
          "name": "revertOnFailure",
          "type": "bool"
        }
      ],
      "name": "delegateBatches",
      "outputs": [],
      "stateMutability": "nonpayable",
      "type": "function"
    },
    {
      "inputs": [
        {
          "internalType": "bytes[]",
          "name": "batches",
          "type": "bytes[]"
        },
        {
          "internalType": "bool",
          "name": "revertOnFailure",
          "type": "bool"
        }
      ],
      "name": "delegateBatchesGuarded",
      "outputs": [],
      "stateMutability": "nonpayable",
      "type": "function"
    },
    {
      "inputs": [],
      "name": "externalAccountRegistry",
      "outputs": [
        {
          "internalType": "contract ExternalAccountRegistry",
          "name": "",
          "type": "address"
        }
      ],
      "stateMutability": "view",
      "type": "function"
    },
    {
      "inputs": [
        {
          "internalType": "address",
          "name": "account",
          "type": "address"
        }
      ],
      "name": "getAccountNextNonce",
      "outputs": [
        {
          "internalType": "uint256",
          "name": "",
          "type": "uint256"
        }
      ],
      "stateMutability": "view",
      "type": "function"
    },
    {
      "inputs": [
        {
          "components": [
            {
              "internalType": "address",
              "name": "account",
              "type": "address"
            },
            {
              "internalType": "uint256",
              "name": "nonce",
              "type": "uint256"
            },
            {
              "internalType": "address[]",
              "name": "to",
              "type": "address[]"
            },
            {
              "internalType": "bytes[]",
              "name": "data",
              "type": "bytes[]"
            }
          ],
          "internalType": "struct GatewayV2.DelegatedBatch",
          "name": "delegatedBatch",
          "type": "tuple"
        }
      ],
      "name": "hashDelegatedBatch",
      "outputs": [
        {
          "internalType": "bytes32",
          "name": "",
          "type": "bytes32"
        }
      ],
      "stateMutability": "view",
      "type": "function"
    },
    {
      "inputs": [
        {
          "components": [
            {
              "internalType": "address",
              "name": "account",
              "type": "address"
            },
            {
              "internalType": "uint256",
              "name": "nonce",
              "type": "uint256"
            },
            {
              "internalType": "address[]",
              "name": "to",
              "type": "address[]"
            },
            {
              "internalType": "bytes[]",
              "name": "data",
              "type": "bytes[]"
            },
            {
              "internalType": "uint256",
              "name": "gasPrice",
              "type": "uint256"
            }
          ],
          "internalType": "struct GatewayV2.DelegatedBatchWithGasPrice",
          "name": "delegatedBatch",
          "type": "tuple"
        }
      ],
      "name": "hashDelegatedBatchWithGasPrice",
      "outputs": [
        {
          "internalType": "bytes32",
          "name": "",
          "type": "bytes32"
        }
      ],
      "stateMutability": "view",
      "type": "function"
    },
    {
      "inputs": [
        {
          "internalType": "contract ExternalAccountRegistry",
          "name": "externalAccountRegistry_",
          "type": "address"
        },
        {
          "internalType": "contract PersonalAccountRegistry",
          "name": "personalAccountRegistry_",
          "type": "address"
        }
      ],
      "name": "initialize",
      "outputs": [],
      "stateMutability": "nonpayable",
      "type": "function"
    },
    {
      "inputs": [
        {
          "internalType": "address",
          "name": "guardian",
          "type": "address"
        }
      ],
      "name": "isGuardian",
      "outputs": [
        {
          "internalType": "bool",
          "name": "",
          "type": "bool"
        }
      ],
      "stateMutability": "view",
      "type": "function"
    },
    {
      "inputs": [],
      "name": "isInitialized",
      "outputs": [
        {
          "internalType": "bool",
          "name": "",
          "type": "bool"
        }
      ],
      "stateMutability": "view",
      "type": "function"
    },
    {
      "inputs": [],
      "name": "personalAccountRegistry",
      "outputs": [
        {
          "internalType": "contract PersonalAccountRegistry",
          "name": "",
          "type": "address"
        }
      ],
      "stateMutability": "view",
      "type": "function"
    },
    {
      "inputs": [
        {
          "internalType": "address",
          "name": "guardian",
          "type": "address"
        }
      ],
      "name": "removeGuardian",
      "outputs": [],
      "stateMutability": "nonpayable",
      "type": "function"
    },
    {
      "inputs": [
        {
          "internalType": "address[]",
          "name": "to",
          "type": "address[]"
        },
        {
          "internalType": "bytes[]",
          "name": "data",
          "type": "bytes[]"
        }
      ],
      "name": "sendBatch",
      "outputs": [],
      "stateMutability": "nonpayable",
      "type": "function"
    },
    {
      "inputs": [
        {
          "internalType": "address",
          "name": "account",
          "type": "address"
        },
        {
          "internalType": "address[]",
          "name": "to",
          "type": "address[]"
        },
        {
          "internalType": "bytes[]",
          "name": "data",
          "type": "bytes[]"
        }
      ],
      "name": "sendBatchFromAccount",
      "outputs": [],
      "stateMutability": "nonpayable",
      "type": "function"
    },
    {
      "inputs": [
        {
          "internalType": "address",
          "name": "account",
          "type": "address"
        },
        {
          "internalType": "address[]",
          "name": "to",
          "type": "address[]"
        },
        {
          "internalType": "bytes[]",
          "name": "data",
          "type": "bytes[]"
        }
      ],
      "name": "sendBatchFromAccountGuarded",
      "outputs": [],
      "stateMutability": "nonpayable",
      "type": "function"
    },
    {
      "inputs": [
        {
          "internalType": "address[]",
          "name": "to",
          "type": "address[]"
        },
        {
          "internalType": "bytes[]",
          "name": "data",
          "type": "bytes[]"
        }
      ],
      "name": "sendBatchGuarded",
      "outputs": [],
      "stateMutability": "nonpayable",
      "type": "function"
    },
    {
      "inputs": [
        {
          "internalType": "bytes32",
          "name": "messageHash",
          "type": "bytes32"
        },
        {
          "internalType": "bytes",
          "name": "signature",
          "type": "bytes"
        }
      ],
      "name": "verifyGuardianSignature",
      "outputs": [
        {
          "internalType": "bool",
          "name": "",
          "type": "bool"
        }
      ],
      "stateMutability": "view",
      "type": "function"
    }
  ],
  "transactionHash": "0x3a66776afcfe3f3f337d501653f713f5b7ed7920a52e7d9fa5fd9e11d2c1e511",
  "args": [],
  "solcInputHash": "8f6f179d2c9d29fd59e34814c3f7994c",
  "bytecode": "0x608060405234801561001057600080fd5b50326000806101000a81548173ffffffffffffffffffffffffffffffffffffffff021916908373ffffffffffffffffffffffffffffffffffffffff1602179055506000469050806001819055505061315e8061006d6000396000f3fe608060405234801561001057600080fd5b50600436106101425760003560e01c806387d31313116100b8578063b5021b161161007c578063b5021b1614610349578063d0f710d614610365578063d2c83b9a14610395578063d305d0db146103b3578063d9f13021146103cf578063f92c5f7c146103eb57610142565b806387d31313146102b95780639a8a0592146102d75780639f255626146102f5578063a526d83b14610311578063ac2a08cd1461032d57610142565b8063538901341161010a57806353890134146101e95780635afaa7bb14610205578063714041561461022157806373e5a13f1461023d57806376db2b4c1461026d578063867519c61461029d57610142565b80630c68ba2114610147578063231badaf14610177578063371aa71a14610193578063392e53cd146101af578063485cc955146101cd575b600080fd5b610161600480360381019061015c9190611e5b565b61041b565b60405161016e9190612b23565b60405180910390f35b610191600480360381019061018c9190611f03565b610471565b005b6101ad60048036038101906101a89190611f03565b61056c565b005b6101b761060c565b6040516101c49190612b23565b60405180910390f35b6101e760048036038101906101e29190612103565b610662565b005b61020360048036038101906101fe9190611fc2565b6107fa565b005b61021f600480360381019061021a919061202e565b610894565b005b61023b60048036038101906102369190611e5b565b610a6c565b005b61025760048036038101906102529190612180565b610c87565b6040516102649190612b3e565b60405180910390f35b6102876004803603810190610282919061213f565b610cac565b6040516102949190612b3e565b60405180910390f35b6102b760048036038101906102b29190611e84565b610cd6565b005b6102c1610ce7565b6040516102ce9190612bb9565b60405180910390f35b6102df610d0d565b6040516102ec9190612df4565b60405180910390f35b61030f600480360381019061030a9190611fc2565b610d13565b005b61032b60048036038101906103269190611e5b565b610d23565b005b61034760048036038101906103429190611f03565b610dbb565b005b610363600480360381019061035e9190611f03565b610e5b565b005b61037f600480360381019061037a91906120ab565b610f57565b60405161038c9190612b23565b60405180910390f35b61039d610fb0565b6040516103aa9190612b9e565b60405180910390f35b6103cd60048036038101906103c89190611e84565b610fd6565b005b6103e960048036038101906103e4919061202e565b611072565b005b61040560048036038101906104009190611e5b565b61110c565b6040516104129190612df4565b60405180910390f35b6000600260008373ffffffffffffffffffffffffffffffffffffffff1673ffffffffffffffffffffffffffffffffffffffff16815260200190815260200160002060009054906101000a900460ff169050919050565b600560008673ffffffffffffffffffffffffffffffffffffffff1673ffffffffffffffffffffffffffffffffffffffff1681526020019081526020016000205484116104f2576040517f08c379a00000000000000000000000000000000000000000000000000000000081526004016104e990612c54565b60405180910390fd5b60006105128261050488888888611168565b6111cb90919063ffffffff16565b905084600560008873ffffffffffffffffffffffffffffffffffffffff1673ffffffffffffffffffffffffffffffffffffffff1681526020019081526020016000208190555061056486828686611286565b505050505050565b600260003273ffffffffffffffffffffffffffffffffffffffff1673ffffffffffffffffffffffffffffffffffffffff16815260200190815260200160002060009054906101000a900460ff166105f8576040517f08c379a00000000000000000000000000000000000000000000000000000000081526004016105ef90612cf4565b60405180910390fd5b6106058585858585610e5b565b5050505050565b60008073ffffffffffffffffffffffffffffffffffffffff1660008054906101000a900473ffffffffffffffffffffffffffffffffffffffff1673ffffffffffffffffffffffffffffffffffffffff1614905090565b60008054906101000a900473ffffffffffffffffffffffffffffffffffffffff1673ffffffffffffffffffffffffffffffffffffffff163273ffffffffffffffffffffffffffffffffffffffff16146106f0576040517f08c379a00000000000000000000000000000000000000000000000000000000081526004016106e790612c14565b60405180910390fd5b60008060006101000a81548173ffffffffffffffffffffffffffffffffffffffff021916908373ffffffffffffffffffffffffffffffffffffffff16021790555081600360006101000a81548173ffffffffffffffffffffffffffffffffffffffff021916908373ffffffffffffffffffffffffffffffffffffffff16021790555080600460006101000a81548173ffffffffffffffffffffffffffffffffffffffff021916908373ffffffffffffffffffffffffffffffffffffffff16021790555060606107be816116f1565b507f908408e307fc569b417f6cbec5d5a06f44a0a505ac0479b47d421a4b2fd6a1e6326040516107ee9190612a78565b60405180910390a15050565b600260003273ffffffffffffffffffffffffffffffffffffffff1673ffffffffffffffffffffffffffffffffffffffff16815260200190815260200160002060009054906101000a900460ff16610886576040517f08c379a000000000000000000000000000000000000000000000000000000000815260040161087d90612cf4565b60405180910390fd5b6108908282610d13565b5050565b60008251116108d8576040517f08c379a00000000000000000000000000000000000000000000000000000000081526004016108cf90612c94565b60405180910390fd5b600080600090505b8351811015610a265760003073ffffffffffffffffffffffffffffffffffffffff1685838151811061090e57fe5b60200260200101516040516109239190612994565b6000604051808303816000865af19150503d8060008114610960576040519150601f19603f3d011682016040523d82523d6000602084013e610965565b606091505b5050905083156109b457806109af576040517f08c379a00000000000000000000000000000000000000000000000000000000081526004016109a690612c34565b60405180910390fd5b6109ca565b8080156109bf575082155b156109c957600192505b5b7f361c14722cc344132c73396113f7164232448b09c544a149f09048648b43d872338684815181106109f857fe5b602002602001015183604051610a1093929190612abc565b60405180910390a15080806001019150506108e0565b5080610a67576040517f08c379a0000000000000000000000000000000000000000000000000000000008152600401610a5e90612dd4565b60405180910390fd5b505050565b600260003273ffffffffffffffffffffffffffffffffffffffff1673ffffffffffffffffffffffffffffffffffffffff16815260200190815260200160002060009054906101000a900460ff16610af8576040517f08c379a0000000000000000000000000000000000000000000000000000000008152600401610aef90612cf4565b60405180910390fd5b8073ffffffffffffffffffffffffffffffffffffffff163273ffffffffffffffffffffffffffffffffffffffff161415610b67576040517f08c379a0000000000000000000000000000000000000000000000000000000008152600401610b5e90612db4565b60405180910390fd5b600260008273ffffffffffffffffffffffffffffffffffffffff1673ffffffffffffffffffffffffffffffffffffffff16815260200190815260200160002060009054906101000a900460ff16610bf3576040517f08c379a0000000000000000000000000000000000000000000000000000000008152600401610bea90612d14565b60405180910390fd5b6000600260008373ffffffffffffffffffffffffffffffffffffffff1673ffffffffffffffffffffffffffffffffffffffff16815260200190815260200160002060006101000a81548160ff0219169083151502179055507fee943cdb81826d5909c559c6b1ae6908fcaf2dbc16c4b730346736b486283e8b3282604051610c7c929190612a93565b60405180910390a150565b6000610ca58260000151836020015184604001518560600151611168565b9050919050565b6000610ccf82600001518360200151846040015185606001518660800151611749565b9050919050565b610ce283338484611286565b505050565b600460009054906101000a900473ffffffffffffffffffffffffffffffffffffffff1681565b60015481565b610d1f33338484611286565b5050565b600260003273ffffffffffffffffffffffffffffffffffffffff1673ffffffffffffffffffffffffffffffffffffffff16815260200190815260200160002060009054906101000a900460ff16610daf576040517f08c379a0000000000000000000000000000000000000000000000000000000008152600401610da690612cf4565b60405180910390fd5b610db8816117af565b50565b600260003273ffffffffffffffffffffffffffffffffffffffff1673ffffffffffffffffffffffffffffffffffffffff16815260200190815260200160002060009054906101000a900460ff16610e47576040517f08c379a0000000000000000000000000000000000000000000000000000000008152600401610e3e90612cf4565b60405180910390fd5b610e548585858585610471565b5050505050565b600560008673ffffffffffffffffffffffffffffffffffffffff1673ffffffffffffffffffffffffffffffffffffffff168152602001908152602001600020548411610edc576040517f08c379a0000000000000000000000000000000000000000000000000000000008152600401610ed390612c54565b60405180910390fd5b6000610efd82610eef888888883a611749565b6111cb90919063ffffffff16565b905084600560008873ffffffffffffffffffffffffffffffffffffffff1673ffffffffffffffffffffffffffffffffffffffff16815260200190815260200160002081905550610f4f86828686611286565b505050505050565b6000610fa78484848080601f016020809104026020016040519081016040528093929190818152602001838380828437600081840152601f19601f82011690508083019250505050505050611940565b90509392505050565b600360009054906101000a900473ffffffffffffffffffffffffffffffffffffffff1681565b600260003273ffffffffffffffffffffffffffffffffffffffff1673ffffffffffffffffffffffffffffffffffffffff16815260200190815260200160002060009054906101000a900460ff16611062576040517f08c379a000000000000000000000000000000000000000000000000000000000815260040161105990612cf4565b60405180910390fd5b61106d838383610cd6565b505050565b600260003273ffffffffffffffffffffffffffffffffffffffff1673ffffffffffffffffffffffffffffffffffffffff16815260200190815260200160002060009054906101000a900460ff166110fe576040517f08c379a00000000000000000000000000000000000000000000000000000000081526004016110f590612cf4565b60405180910390fd5b6111088282610894565b5050565b60006111616001600560008573ffffffffffffffffffffffffffffffffffffffff1673ffffffffffffffffffffffffffffffffffffffff168152602001908152602001600020546119ae90919063ffffffff16565b9050919050565b60006111c17f6848d0622081db2451400280dead7a739a080cb93852607c381af11e289769b286868661119a87611a03565b6040516020016111ad94939291906128f7565b604051602081830303815290604052611a66565b9050949350505050565b6000806000905060418351141561127c5760008060006020860151925060408601519150606086015160001a9050601b8160ff16101561120c57601b810190505b601b8160ff1614806112215750601c8160ff16145b1561127857600187828585604051600081526020016040526040516112499493929190612b59565b6020604051602081039080840390855afa15801561126b573d6000803e3d6000fd5b5050506020604051035193505b5050505b8091505092915050565b600073ffffffffffffffffffffffffffffffffffffffff168473ffffffffffffffffffffffffffffffffffffffff1614156112f6576040517f08c379a00000000000000000000000000000000000000000000000000000000081526004016112ed90612c74565b60405180910390fd5b600082511161133a576040517f08c379a000000000000000000000000000000000000000000000000000000000815260040161133190612d94565b60405180910390fd5b815181511461137e576040517f08c379a000000000000000000000000000000000000000000000000000000000815260040161137590612cd4565b60405180910390fd5b8273ffffffffffffffffffffffffffffffffffffffff168473ffffffffffffffffffffffffffffffffffffffff161461155257600460009054906101000a900473ffffffffffffffffffffffffffffffffffffffff1673ffffffffffffffffffffffffffffffffffffffff1663bb890d3f85856040518363ffffffff1660e01b815260040161140e929190612afa565b60206040518083038186803b15801561142657600080fd5b505afa15801561143a573d6000803e3d6000fd5b505050506040513d601f19601f8201168201806040525081019061145e9190612082565b806115125750600360009054906101000a900473ffffffffffffffffffffffffffffffffffffffff1673ffffffffffffffffffffffffffffffffffffffff1663bb890d3f85856040518363ffffffff1660e01b81526004016114c1929190612afa565b60206040518083038186803b1580156114d957600080fd5b505afa1580156114ed573d6000803e3d6000fd5b505050506040513d601f19601f820116820180604052508101906115119190612082565b5b611551576040517f08c379a000000000000000000000000000000000000000000000000000000000815260040161154890612cb4565b60405180910390fd5b5b600080600090505b82518110156116e957600073ffffffffffffffffffffffffffffffffffffffff1684828151811061158757fe5b602002602001015173ffffffffffffffffffffffffffffffffffffffff1614156115e6576040517f08c379a00000000000000000000000000000000000000000000000000000000081526004016115dd90612bd4565b60405180910390fd5b8381815181106115f257fe5b602002602001015173ffffffffffffffffffffffffffffffffffffffff1683828151811061161c57fe5b60200260200101518787604051602001611638939291906129ab565b6040516020818303038152906040526040516116549190612994565b6000604051808303816000865af19150503d8060008114611691576040519150601f19603f3d011682016040523d82523d6000602084013e611696565b606091505b505080925050816116dc576040517f08c379a00000000000000000000000000000000000000000000000000000000081526004016116d390612d34565b60405180910390fd5b808060010191505061155a565b505050505050565b60008151141561170957611704326117af565b611746565b60008151905060005b818110156117435761173683828151811061172957fe5b60200260200101516117af565b8080600101915050611712565b50505b50565b60006117a47f6f4e1b2b1e5e49f4269e19e16e67a00cb0a796d96d30be3e4b540d3732e8bcad87878761177b88611a03565b8760405160200161179095949392919061293d565b604051602081830303815290604052611a66565b905095945050505050565b600073ffffffffffffffffffffffffffffffffffffffff168173ffffffffffffffffffffffffffffffffffffffff16141561181f576040517f08c379a000000000000000000000000000000000000000000000000000000000815260040161181690612bf4565b60405180910390fd5b600260008273ffffffffffffffffffffffffffffffffffffffff1673ffffffffffffffffffffffffffffffffffffffff16815260200190815260200160002060009054906101000a900460ff16156118ac576040517f08c379a00000000000000000000000000000000000000000000000000000000081526004016118a390612d74565b60405180910390fd5b6001600260008373ffffffffffffffffffffffffffffffffffffffff1673ffffffffffffffffffffffffffffffffffffffff16815260200190815260200160002060006101000a81548160ff0219169083151502179055507fbc3292102fa77e083913064b282926717cdfaede4d35f553d66366c0a3da755a3282604051611935929190612a93565b60405180910390a150565b60008061195683856111cb90919063ffffffff16565b9050600260008273ffffffffffffffffffffffffffffffffffffffff1673ffffffffffffffffffffffffffffffffffffffff16815260200190815260200160002060009054906101000a900460ff1691505092915050565b6000808284019050838110156119f9576040517f08c379a00000000000000000000000000000000000000000000000000000000081526004016119f090612d54565b60405180910390fd5b8091505092915050565b60608060008351905060005b81811015611a5b5782858281518110611a2457fe5b6020026020010151604051602001611a3d9291906129e4565b60405160208183030381529060405292508080600101915050611a0f565b508192505050919050565b6000611a9f600154308585604051602001611a849493929190612a2e565b60405160208183030381529060405280519060200120611aa7565b905092915050565b600081604051602001611aba9190612a08565b604051602081830303815290604052805190602001209050919050565b600081359050611ae6816130c7565b92915050565b600082601f830112611afd57600080fd5b8135611b10611b0b82612e3c565b612e0f565b91508181835260208401935060208101905083856020840282011115611b3557600080fd5b60005b83811015611b655781611b4b8882611ad7565b845260208401935060208301925050600181019050611b38565b5050505092915050565b600082601f830112611b8057600080fd5b8135611b93611b8e82612e64565b612e0f565b9150818183526020840193506020810190508360005b83811015611bd95781358601611bbf8882611c6c565b845260208401935060208301925050600181019050611ba9565b5050505092915050565b600081359050611bf2816130de565b92915050565b600081519050611c07816130de565b92915050565b600081359050611c1c816130f5565b92915050565b60008083601f840112611c3457600080fd5b8235905067ffffffffffffffff811115611c4d57600080fd5b602083019150836001820283011115611c6557600080fd5b9250929050565b600082601f830112611c7d57600080fd5b8135611c90611c8b82612e8c565b612e0f565b91508082526020830160208301858383011115611cac57600080fd5b611cb783828461302f565b50505092915050565b600081359050611ccf8161310c565b92915050565b600081359050611ce481613123565b92915050565b600060a08284031215611cfc57600080fd5b611d0660a0612e0f565b90506000611d1684828501611ad7565b6000830152506020611d2a84828501611e46565b602083015250604082013567ffffffffffffffff811115611d4a57600080fd5b611d5684828501611aec565b604083015250606082013567ffffffffffffffff811115611d7657600080fd5b611d8284828501611b6f565b6060830152506080611d9684828501611e46565b60808301525092915050565b600060808284031215611db457600080fd5b611dbe6080612e0f565b90506000611dce84828501611ad7565b6000830152506020611de284828501611e46565b602083015250604082013567ffffffffffffffff811115611e0257600080fd5b611e0e84828501611aec565b604083015250606082013567ffffffffffffffff811115611e2e57600080fd5b611e3a84828501611b6f565b60608301525092915050565b600081359050611e558161313a565b92915050565b600060208284031215611e6d57600080fd5b6000611e7b84828501611ad7565b91505092915050565b600080600060608486031215611e9957600080fd5b6000611ea786828701611ad7565b935050602084013567ffffffffffffffff811115611ec457600080fd5b611ed086828701611aec565b925050604084013567ffffffffffffffff811115611eed57600080fd5b611ef986828701611b6f565b9150509250925092565b600080600080600060a08688031215611f1b57600080fd5b6000611f2988828901611ad7565b9550506020611f3a88828901611e46565b945050604086013567ffffffffffffffff811115611f5757600080fd5b611f6388828901611aec565b935050606086013567ffffffffffffffff811115611f8057600080fd5b611f8c88828901611b6f565b925050608086013567ffffffffffffffff811115611fa957600080fd5b611fb588828901611c6c565b9150509295509295909350565b60008060408385031215611fd557600080fd5b600083013567ffffffffffffffff811115611fef57600080fd5b611ffb85828601611aec565b925050602083013567ffffffffffffffff81111561201857600080fd5b61202485828601611b6f565b9150509250929050565b6000806040838503121561204157600080fd5b600083013567ffffffffffffffff81111561205b57600080fd5b61206785828601611b6f565b925050602061207885828601611be3565b9150509250929050565b60006020828403121561209457600080fd5b60006120a284828501611bf8565b91505092915050565b6000806000604084860312156120c057600080fd5b60006120ce86828701611c0d565b935050602084013567ffffffffffffffff8111156120eb57600080fd5b6120f786828701611c22565b92509250509250925092565b6000806040838503121561211657600080fd5b600061212485828601611cc0565b925050602061213585828601611cd5565b9150509250929050565b60006020828403121561215157600080fd5b600082013567ffffffffffffffff81111561216b57600080fd5b61217784828501611cea565b91505092915050565b60006020828403121561219257600080fd5b600082013567ffffffffffffffff8111156121ac57600080fd5b6121b884828501611da2565b91505092915050565b60006121cd83836121f7565b60208301905092915050565b6121e281612fb1565b82525050565b6121f181612f2e565b82525050565b61220081612f2e565b82525050565b61221761221282612f2e565b613071565b82525050565b600061222882612ec8565b6122328185612eeb565b935061223d83612eb8565b8060005b8381101561226e57815161225588826121c1565b975061226083612ede565b925050600181019050612241565b5085935050505092915050565b61228481612f40565b82525050565b61229381612f4c565b82525050565b6122aa6122a582612f4c565b613083565b82525050565b60006122bb82612ed3565b6122c58185612ef6565b93506122d581856020860161303e565b6122de816130a9565b840191505092915050565b60006122f482612ed3565b6122fe8185612f07565b935061230e81856020860161303e565b80840191505092915050565b61232381612fc3565b82525050565b61233281612fe7565b82525050565b6000612345601b83612f12565b91507f476174657761793a2063616e6e6f742073656e6420746f2030783000000000006000830152602082019050919050565b6000612385601c83612f23565b91507f19457468657265756d205369676e6564204d6573736167653a0a3332000000006000830152601c82019050919050565b60006123c5602083612f12565b91507f477561726465643a2063616e6e6f74206164642030783020677561726469616e6000830152602082019050919050565b6000612405602f83612f12565b91507f496e697469616c697a61626c653a2074782e6f726967696e206973206e6f742060008301527f74686520696e697469616c697a657200000000000000000000000000000000006020830152604082019050919050565b600061246b601783612f12565b91507f476174657761793a2062617463682072657665727465640000000000000000006000830152602082019050919050565b60006124ab603283612f12565b91507f476174657761793a206e6f6e6365206973206c6f776572207468616e2063757260008301527f72656e74206163636f756e74206e6f6e636500000000000000000000000000006020830152604082019050919050565b6000612511602583612f12565b91507f476174657761793a2063616e6e6f742073656e642066726f6d2030783020616360008301527f636f756e740000000000000000000000000000000000000000000000000000006020830152604082019050919050565b6000612577602683612f12565b91507f476174657761793a2063616e6e6f742064656c656761746520656d707479206260008301527f61746368657300000000000000000000000000000000000000000000000000006020830152604082019050919050565b60006125dd602883612f12565b91507f476174657761793a2073656e646572206973206e6f7420746865206163636f7560008301527f6e74206f776e65720000000000000000000000000000000000000000000000006020830152604082019050919050565b6000612643601683612f12565b91507f476174657761793a20696e76616c6964206261746368000000000000000000006000830152602082019050919050565b6000612683602683612f12565b91507f477561726465643a2074782e6f726967696e206973206e6f742074686520677560008301527f61726469616e00000000000000000000000000000000000000000000000000006020830152604082019050919050565b60006126e9601f83612f12565b91507f477561726465643a20677561726469616e20646f65736e2774206578697374006000830152602082019050919050565b6000612729602383612f12565b91507f476174657761793a206261746368207472616e73616374696f6e20726576657260008301527f74656400000000000000000000000000000000000000000000000000000000006020830152604082019050919050565b600061278f601e83612f12565b91507f536166654d6174684c69623a206164646974696f6e206f766572666c6f7700006000830152602082019050919050565b60006127cf602083612f12565b91507f477561726465643a20677561726469616e20616c7265616479206578697374736000830152602082019050919050565b600061280f602083612f12565b91507f476174657761793a2063616e6e6f742073656e6420656d7074792062617463686000830152602082019050919050565b600061284f601b83612f12565b91507f477561726465643a2063616e6e6f742072656d6f76652073656c6600000000006000830152602082019050919050565b600061288f601d83612f12565b91507f476174657761793a20616c6c20626174636865732072657665727465640000006000830152602082019050919050565b6128cb81612f9a565b82525050565b6128e26128dd82612f9a565b61309f565b82525050565b6128f181612fa4565b82525050565b60006129038287612206565b60148201915061291382866128d1565b602082019150612923828561221d565b915061292f82846122e9565b915081905095945050505050565b60006129498288612206565b60148201915061295982876128d1565b602082019150612969828661221d565b915061297582856122e9565b915061298182846128d1565b6020820191508190509695505050505050565b60006129a082846122e9565b915081905092915050565b60006129b782866122e9565b91506129c38285612206565b6014820191506129d38284612206565b601482019150819050949350505050565b60006129f082856122e9565b91506129fc82846122e9565b91508190509392505050565b6000612a1382612378565b9150612a1f8284612299565b60208201915081905092915050565b6000612a3a82876128d1565b602082019150612a4a8286612206565b601482019150612a5a8285612299565b602082019150612a6a82846122e9565b915081905095945050505050565b6000602082019050612a8d60008301846121d9565b92915050565b6000604082019050612aa860008301856121d9565b612ab560208301846121e8565b9392505050565b6000606082019050612ad160008301866121d9565b8181036020830152612ae381856122b0565b9050612af2604083018461227b565b949350505050565b6000604082019050612b0f60008301856121e8565b612b1c60208301846121e8565b9392505050565b6000602082019050612b38600083018461227b565b92915050565b6000602082019050612b53600083018461228a565b92915050565b6000608082019050612b6e600083018761228a565b612b7b60208301866128e8565b612b88604083018561228a565b612b95606083018461228a565b95945050505050565b6000602082019050612bb3600083018461231a565b92915050565b6000602082019050612bce6000830184612329565b92915050565b60006020820190508181036000830152612bed81612338565b9050919050565b60006020820190508181036000830152612c0d816123b8565b9050919050565b60006020820190508181036000830152612c2d816123f8565b9050919050565b60006020820190508181036000830152612c4d8161245e565b9050919050565b60006020820190508181036000830152612c6d8161249e565b9050919050565b60006020820190508181036000830152612c8d81612504565b9050919050565b60006020820190508181036000830152612cad8161256a565b9050919050565b60006020820190508181036000830152612ccd816125d0565b9050919050565b60006020820190508181036000830152612ced81612636565b9050919050565b60006020820190508181036000830152612d0d81612676565b9050919050565b60006020820190508181036000830152612d2d816126dc565b9050919050565b60006020820190508181036000830152612d4d8161271c565b9050919050565b60006020820190508181036000830152612d6d81612782565b9050919050565b60006020820190508181036000830152612d8d816127c2565b9050919050565b60006020820190508181036000830152612dad81612802565b9050919050565b60006020820190508181036000830152612dcd81612842565b9050919050565b60006020820190508181036000830152612ded81612882565b9050919050565b6000602082019050612e0960008301846128c2565b92915050565b6000604051905081810181811067ffffffffffffffff82111715612e3257600080fd5b8060405250919050565b600067ffffffffffffffff821115612e5357600080fd5b602082029050602081019050919050565b600067ffffffffffffffff821115612e7b57600080fd5b602082029050602081019050919050565b600067ffffffffffffffff821115612ea357600080fd5b601f19601f8301169050602081019050919050565b6000819050602082019050919050565b600081519050919050565b600081519050919050565b6000602082019050919050565b600081905092915050565b600082825260208201905092915050565b600081905092915050565b600082825260208201905092915050565b600081905092915050565b6000612f3982612f7a565b9050919050565b60008115159050919050565b6000819050919050565b6000612f6182612f2e565b9050919050565b6000612f7382612f2e565b9050919050565b600073ffffffffffffffffffffffffffffffffffffffff82169050919050565b6000819050919050565b600060ff82169050919050565b6000612fbc8261300b565b9050919050565b6000612fce82612fd5565b9050919050565b6000612fe082612f7a565b9050919050565b6000612ff282612ff9565b9050919050565b600061300482612f7a565b9050919050565b60006130168261301d565b9050919050565b600061302882612f7a565b9050919050565b82818337600083830152505050565b60005b8381101561305c578082015181840152602081019050613041565b8381111561306b576000848401525b50505050565b600061307c8261308d565b9050919050565b6000819050919050565b6000613098826130ba565b9050919050565b6000819050919050565b6000601f19601f8301169050919050565b60008160601b9050919050565b6130d081612f2e565b81146130db57600080fd5b50565b6130e781612f40565b81146130f257600080fd5b50565b6130fe81612f4c565b811461310957600080fd5b50565b61311581612f56565b811461312057600080fd5b50565b61312c81612f68565b811461313757600080fd5b50565b61314381612f9a565b811461314e57600080fd5b5056fea164736f6c634300060c000a",
  "devdoc": {
    "author": "Utkir Sobirov <sobirovutkir@gmail.io>",
    "events": {
      "BatchDelegated(address,bytes,bool)": {
        "details": "Emitted when the single batch is delegated",
        "params": {
          "batch": "batch",
          "sender": "sender address",
          "succeeded": "if succeeded"
        }
      }
    },
    "kind": "dev",
    "methods": {
      "addGuardian(address)": {
        "params": {
          "guardian": "guardian address"
        }
      },
      "constructor": {
        "details": "Public constructor"
      },
      "delegateBatch(address,uint256,address[],bytes[],bytes)": {
        "details": "Use `hashDelegatedBatch` to create sender message payload. `GatewayRecipient` context api: `_getContextAccount` will return `account` arg `_getContextSender` will return recovered address from `senderSignature` arg",
        "params": {
          "account": "account address",
          "data": "array of batch data",
          "nonce": "next account nonce",
          "senderSignature": "sender signature",
          "to": "array of batch recipients contracts"
        }
      },
      "delegateBatchGuarded(address,uint256,address[],bytes[],bytes)": {
        "details": "Use `hashDelegatedBatch` to create sender message payload. `GatewayRecipient` context api: `_getContextAccount` will return `account` arg `_getContextSender` will return recovered address from `senderSignature` arg",
        "params": {
          "account": "account address",
          "data": "array of batch data",
          "nonce": "next account nonce",
          "senderSignature": "sender signature",
          "to": "array of batch recipients contracts"
        }
      },
      "delegateBatchWithGasPrice(address,uint256,address[],bytes[],bytes)": {
        "details": "Use `hashDelegatedBatchWithGasPrice` to create sender message payload (tx.gasprice as gasPrice) `GatewayRecipient` context api: `_getContextAccount` will return `account` arg `_getContextSender` will return recovered address from `senderSignature` arg",
        "params": {
          "account": "account address",
          "data": "array of batch data",
          "nonce": "next account nonce",
          "senderSignature": "sender signature",
          "to": "array of batch recipients contracts"
        }
      },
      "delegateBatchWithGasPriceGuarded(address,uint256,address[],bytes[],bytes)": {
        "details": "Use `hashDelegatedBatchWithGasPrice` to create sender message payload (tx.gasprice as gasPrice) `GatewayRecipient` context api: `_getContextAccount` will return `account` arg `_getContextSender` will return recovered address from `senderSignature` arg",
        "params": {
          "account": "account address",
          "data": "array of batch data",
          "nonce": "next account nonce",
          "senderSignature": "sender signature",
          "to": "array of batch recipients contracts"
        }
      },
      "delegateBatches(bytes[],bool)": {
        "details": "It will revert when all batches fail",
        "params": {
          "batches": "array of batches",
          "revertOnFailure": "reverts on any error"
        }
      },
      "delegateBatchesGuarded(bytes[],bool)": {
        "details": "It will revert when all batches fail",
        "params": {
          "batches": "array of batches",
          "revertOnFailure": "reverts on any error"
        }
      },
      "getAccountNextNonce(address)": {
        "params": {
          "account": "account address"
        },
        "returns": {
          "_0": "next nonce"
        }
      },
      "hashDelegatedBatch((address,uint256,address[],bytes[]))": {
        "params": {
          "delegatedBatch": "struct"
        },
        "returns": {
          "_0": "hash"
        }
      },
      "hashDelegatedBatchWithGasPrice((address,uint256,address[],bytes[],uint256))": {
        "params": {
          "delegatedBatch": "struct"
        },
        "returns": {
          "_0": "hash"
        }
      },
      "initialize(address,address)": {
        "params": {
          "externalAccountRegistry_": "`ExternalAccountRegistry` contract address",
          "personalAccountRegistry_": "`PersonalAccountRegistry` contract address"
        }
      },
      "isGuardian(address)": {
        "params": {
          "guardian": "guardian address"
        },
        "returns": {
          "_0": "true when guardian exists"
        }
      },
      "isInitialized()": {
        "returns": {
          "_0": "true when contract is initialized"
        }
      },
      "removeGuardian(address)": {
        "params": {
          "guardian": "guardian address"
        }
      },
      "sendBatch(address[],bytes[])": {
        "details": "`GatewayRecipient` context api: `_getContextAccount` will return `msg.sender` `_getContextSender` will return `msg.sender`",
        "params": {
          "data": "array of batch data",
          "to": "array of batch recipients contracts"
        }
      },
      "sendBatchFromAccount(address,address[],bytes[])": {
        "details": "`GatewayRecipient` context api: `_getContextAccount` will return `account` arg `_getContextSender` will return `msg.sender`",
        "params": {
          "account": "account address",
          "data": "array of batch data",
          "to": "array of batch recipients contracts"
        }
      },
      "sendBatchFromAccountGuarded(address,address[],bytes[])": {
        "details": "`GatewayRecipient` context api: `_getContextAccount` will return `account` arg `_getContextSender` will return `msg.sender`",
        "params": {
          "account": "account address",
          "data": "array of batch data",
          "to": "array of batch recipients contracts"
        }
      },
      "sendBatchGuarded(address[],bytes[])": {
        "details": "`GatewayRecipient` context api: `_getContextAccount` will return `msg.sender` `_getContextSender` will return `msg.sender`",
        "params": {
          "data": "array of batch data",
          "to": "array of batch recipients contracts"
        }
      },
      "verifyGuardianSignature(bytes32,bytes)": {
        "params": {
          "messageHash": "message hash",
          "signature": "signature"
        },
        "returns": {
          "_0": "true on correct guardian signature"
        }
      }
    },
    "title": "Gateway V2 with guarded batching functions",
    "version": 1
  },
  "userdoc": {
    "kind": "user",
    "methods": {
      "addGuardian(address)": {
        "notice": "Adds a new guardian"
      },
      "delegateBatch(address,uint256,address[],bytes[],bytes)": {
        "notice": "Delegates batch from the account"
      },
      "delegateBatchGuarded(address,uint256,address[],bytes[],bytes)": {
        "notice": "Delegates guarded batch from the account"
      },
      "delegateBatchWithGasPrice(address,uint256,address[],bytes[],bytes)": {
        "notice": "Delegates batch from the account (with gas price)"
      },
      "delegateBatchWithGasPriceGuarded(address,uint256,address[],bytes[],bytes)": {
        "notice": "Delegates guarded batch from the account (with gas price)"
      },
      "delegateBatches(bytes[],bool)": {
        "notice": "Delegates multiple batches"
      },
      "delegateBatchesGuarded(bytes[],bool)": {
        "notice": "Delegates multiple guarded batches"
      },
      "getAccountNextNonce(address)": {
        "notice": "Gets next account nonce"
      },
      "hashDelegatedBatch((address,uint256,address[],bytes[]))": {
        "notice": "Hashes `DelegatedBatch` message payload"
      },
      "hashDelegatedBatchWithGasPrice((address,uint256,address[],bytes[],uint256))": {
        "notice": "Hashes `DelegatedBatchWithGasPrice` message payload"
      },
      "initialize(address,address)": {
        "notice": "Initializes `Gateway` contract"
      },
      "isGuardian(address)": {
        "notice": "Check if guardian exists"
      },
      "isInitialized()": {
        "notice": "Check if contract is initialized"
      },
      "removeGuardian(address)": {
        "notice": "Removes the existing guardian"
      },
      "sendBatch(address[],bytes[])": {
        "notice": "Sends batch"
      },
      "sendBatchFromAccount(address,address[],bytes[])": {
        "notice": "Sends batch from the account"
      },
      "sendBatchFromAccountGuarded(address,address[],bytes[])": {
        "notice": "Sends guarded batch from the account"
      },
      "sendBatchGuarded(address[],bytes[])": {
        "notice": "Sends guarded batch"
      },
      "verifyGuardianSignature(bytes32,bytes)": {
        "notice": "Verifies guardian signature"
      }
    },
    "notice": "GSN replacement",
    "version": 1
  },
  "storageLayout": {
    "storage": [
      {
        "astId": 1227,
        "contract": "src/gateway/GatewayV2.sol:GatewayV2",
        "label": "initializer",
        "offset": 0,
        "slot": "0",
        "type": "t_address"
      },
      {
        "astId": 1291,
        "contract": "src/gateway/GatewayV2.sol:GatewayV2",
        "label": "chainId",
        "offset": 0,
        "slot": "1",
        "type": "t_uint256"
      },
      {
        "astId": 40,
        "contract": "src/gateway/GatewayV2.sol:GatewayV2",
        "label": "guardians",
        "offset": 0,
        "slot": "2",
        "type": "t_mapping(t_address,t_bool)"
      },
      {
        "astId": 2826,
        "contract": "src/gateway/GatewayV2.sol:GatewayV2",
        "label": "externalAccountRegistry",
        "offset": 0,
        "slot": "3",
        "type": "t_contract(ExternalAccountRegistry)2009"
      },
      {
        "astId": 2828,
        "contract": "src/gateway/GatewayV2.sol:GatewayV2",
        "label": "personalAccountRegistry",
        "offset": 0,
        "slot": "4",
        "type": "t_contract(PersonalAccountRegistry)4188"
      },
      {
        "astId": 2832,
        "contract": "src/gateway/GatewayV2.sol:GatewayV2",
        "label": "accountNonce",
        "offset": 0,
        "slot": "5",
        "type": "t_mapping(t_address,t_uint256)"
      }
    ],
    "types": {
      "t_address": {
        "encoding": "inplace",
        "label": "address",
        "numberOfBytes": "20"
      },
      "t_bool": {
        "encoding": "inplace",
        "label": "bool",
        "numberOfBytes": "1"
      },
      "t_contract(ExternalAccountRegistry)2009": {
        "encoding": "inplace",
        "label": "contract ExternalAccountRegistry",
        "numberOfBytes": "20"
      },
      "t_contract(PersonalAccountRegistry)4188": {
        "encoding": "inplace",
        "label": "contract PersonalAccountRegistry",
        "numberOfBytes": "20"
      },
      "t_mapping(t_address,t_bool)": {
        "encoding": "mapping",
        "key": "t_address",
        "label": "mapping(address => bool)",
        "numberOfBytes": "32",
        "value": "t_bool"
      },
      "t_mapping(t_address,t_uint256)": {
        "encoding": "mapping",
        "key": "t_address",
        "label": "mapping(address => uint256)",
        "numberOfBytes": "32",
        "value": "t_uint256"
      },
      "t_uint256": {
        "encoding": "inplace",
        "label": "uint256",
        "numberOfBytes": "32"
      }
    }
  }
}