{
  "address": "0xa6C165E3539A2bE6d55e2935EC9979D8C850A21b",
  "abi": [
    {
      "inputs": [
        {
          "internalType": "address[]",
          "name": "accounts",
          "type": "address[]"
        },
        {
          "internalType": "address[]",
          "name": "tokens",
          "type": "address[]"
        }
      ],
      "name": "getBalances",
      "outputs": [
        {
          "internalType": "uint256[]",
          "name": "",
          "type": "uint256[]"
        }
      ],
      "stateMutability": "view",
      "type": "function"
    }
  ],
  "transactionHash": "0x01a151aa8fa8fb37b78ae343818ff7d400390ac7f5c74eedbbc392bf20f7399b",
  "args": [],
  "solcInputHash": "1bdf84d4bd28700579af1cc4796e2cae",
  "bytecode": "0x608060405234801561001057600080fd5b506106a2806100206000396000f3fe608060405234801561001057600080fd5b506004361061002b5760003560e01c8063ef5bfc3714610030575b600080fd5b6100fc6004803603604081101561004657600080fd5b810190808035906020019064010000000081111561006357600080fd5b82018360208201111561007557600080fd5b8035906020019184602083028401116401000000008311171561009757600080fd5b9091929391929390803590602001906401000000008111156100b857600080fd5b8201836020820111156100ca57600080fd5b803590602001918460208302840111640100000000831117156100ec57600080fd5b9091929391929390505050610153565b6040518080602001828103825283818151815260200191508051906020019060200280838360005b8381101561013f578082015181840152602081019050610124565b505050509050019250505060405180910390f35b60608061016f848490508787905061035490919063ffffffff16565b67ffffffffffffffff8111801561018557600080fd5b506040519080825280602002602001820160405280156101b45781602001602082028036833780820191505090505b50905060005b868690508110156103475760005b858590508110156103395760006101fd6101ee848989905061035490919063ffffffff16565b836103da90919063ffffffff16565b9050600073ffffffffffffffffffffffffffffffffffffffff1687878481811061022357fe5b9050602002013573ffffffffffffffffffffffffffffffffffffffff1673ffffffffffffffffffffffffffffffffffffffff16146102d2576102b589898581811061026a57fe5b9050602002013573ffffffffffffffffffffffffffffffffffffffff1688888581811061029357fe5b9050602002013573ffffffffffffffffffffffffffffffffffffffff16610462565b8482815181106102c157fe5b60200260200101818152505061032b565b8888848181106102de57fe5b9050602002013573ffffffffffffffffffffffffffffffffffffffff1673ffffffffffffffffffffffffffffffffffffffff163184828151811061031e57fe5b6020026020010181815250505b5080806001019150506101c8565b5080806001019150506101ba565b5080915050949350505050565b60008083141561036757600090506103d4565b600082840290508284828161037857fe5b04146103cf576040517f08c379a00000000000000000000000000000000000000000000000000000000081526004018080602001828103825260248152602001806106726024913960400191505060405180910390fd5b809150505b92915050565b600080828401905083811015610458576040517f08c379a000000000000000000000000000000000000000000000000000000000815260040180806020018281038252601e8152602001807f536166654d6174684c69623a206164646974696f6e206f766572666c6f77000081525060200191505060405180910390fd5b8091505092915050565b600080600090506000833b905060008111156106665760008473ffffffffffffffffffffffffffffffffffffffff166370a0823160e01b87604051602401808273ffffffffffffffffffffffffffffffffffffffff168152602001915050604051602081830303815290604052907bffffffffffffffffffffffffffffffffffffffffffffffffffffffff19166020820180517bffffffffffffffffffffffffffffffffffffffffffffffffffffffff83818316178352505050506040518082805190602001908083835b60208310610550578051825260208201915060208101905060208303925061052d565b6001836020036101000a038019825116818451168082178552505050505050905001915050600060405180830381855afa9150503d80600081146105b0576040519150601f19603f3d011682016040523d82523d6000602084013e6105b5565b606091505b505090508015610664578473ffffffffffffffffffffffffffffffffffffffff166370a08231876040518263ffffffff1660e01b8152600401808273ffffffffffffffffffffffffffffffffffffffff16815260200191505060206040518083038186803b15801561062657600080fd5b505afa15801561063a573d6000803e3d6000fd5b505050506040513d602081101561065057600080fd5b810190808051906020019092919050505092505b505b81925050509291505056fe536166654d6174684c69623a206d756c7469706c69636174696f6e206f766572666c6f77a164736f6c634300060c000a",
  "devdoc": {
    "author": "Jegor Sidorenko <jegor@pillarproject.io>Stanisław Głogowski <stan@pillarproject.io>",
    "kind": "dev",
    "methods": {
      "getBalances(address[],address[])": {
        "details": "Pass 0x0 as a \"token\" address to get ETH balance. Possible error throws: - extremely large arrays for account and or tokens (gas cost too high)",
        "params": {
          "accounts": "array of accounts addresses",
          "tokens": "array of tokens addresses"
        },
        "returns": {
          "_0": "a one-dimensional that's user.length * tokens.length long. The array is ordered by all of the 0th accounts token balances, then the 1th user, and so on."
        }
      }
    },
    "title": "Balances helper",
    "version": 1
  },
  "userdoc": {
    "kind": "user",
    "methods": {
      "getBalances(address[],address[])": {
        "notice": "Checks the token balances of accounts for multiple tokens."
      }
    },
    "version": 1
  },
  "storageLayout": {
    "storage": [],
    "types": null
  }
}