{
  "address": "0x0CA8EC9f23938FA9c1766BE8A2d2Ce37ea1D4918",
  "abi": [
    {
      "inputs": [],
      "stateMutability": "nonpayable",
      "type": "constructor"
    },
    {
      "anonymous": false,
      "inputs": [
        {
          "indexed": true,
          "internalType": "bytes32",
          "name": "node",
          "type": "bytes32"
        },
        {
          "indexed": false,
          "internalType": "address",
          "name": "addr",
          "type": "address"
        }
      ],
      "name": "AddrChanged",
      "type": "event"
    },
    {
      "anonymous": false,
      "inputs": [
        {
          "indexed": false,
          "internalType": "address",
          "name": "sender",
          "type": "address"
        },
        {
          "indexed": false,
          "internalType": "address",
          "name": "guardian",
          "type": "address"
        }
      ],
      "name": "GuardianAdded",
      "type": "event"
    },
    {
      "anonymous": false,
      "inputs": [
        {
          "indexed": false,
          "internalType": "address",
          "name": "sender",
          "type": "address"
        },
        {
          "indexed": false,
          "internalType": "address",
          "name": "guardian",
          "type": "address"
        }
      ],
      "name": "GuardianRemoved",
      "type": "event"
    },
    {
      "anonymous": false,
      "inputs": [
        {
          "indexed": false,
          "internalType": "address",
          "name": "initializer",
          "type": "address"
        }
      ],
      "name": "Initialized",
      "type": "event"
    },
    {
      "anonymous": false,
      "inputs": [
        {
          "indexed": false,
          "internalType": "bytes32",
          "name": "node",
          "type": "bytes32"
        },
        {
          "indexed": false,
          "internalType": "address",
          "name": "owner",
          "type": "address"
        }
      ],
      "name": "NodeReleased",
      "type": "event"
    },
    {
      "anonymous": false,
      "inputs": [
        {
          "indexed": false,
          "internalType": "bytes32",
          "name": "node",
          "type": "bytes32"
        },
        {
          "indexed": false,
          "internalType": "address",
          "name": "owner",
          "type": "address"
        }
      ],
      "name": "NodeSubmitted",
      "type": "event"
    },
    {
      "anonymous": false,
      "inputs": [
        {
          "indexed": false,
          "internalType": "bytes32",
          "name": "node",
          "type": "bytes32"
        }
      ],
      "name": "NodeVerified",
      "type": "event"
    },
    {
      "anonymous": false,
      "inputs": [
        {
          "indexed": false,
          "internalType": "address",
          "name": "registry",
          "type": "address"
        }
      ],
      "name": "RegistryChanged",
      "type": "event"
    },
    {
      "inputs": [
        {
          "internalType": "address",
          "name": "guardian",
          "type": "address"
        }
      ],
      "name": "addGuardian",
      "outputs": [],
      "stateMutability": "nonpayable",
      "type": "function"
    },
    {
      "inputs": [
        {
          "internalType": "bytes32",
          "name": "node",
          "type": "bytes32"
        }
      ],
      "name": "addr",
      "outputs": [
        {
          "internalType": "address",
          "name": "",
          "type": "address"
        }
      ],
      "stateMutability": "view",
      "type": "function"
    },
    {
      "inputs": [],
      "name": "gateway",
      "outputs": [
        {
          "internalType": "address",
          "name": "",
          "type": "address"
        }
      ],
      "stateMutability": "view",
      "type": "function"
    },
    {
      "inputs": [
        {
          "components": [
            {
              "internalType": "address",
              "name": "account",
              "type": "address"
            },
            {
              "internalType": "bytes32",
              "name": "node",
              "type": "bytes32"
            },
            {
              "internalType": "bytes32",
              "name": "label",
              "type": "bytes32"
            }
          ],
          "internalType": "struct ENSController.SubNodeRegistration",
          "name": "subNodeRegistration",
          "type": "tuple"
        }
      ],
      "name": "hashSubNodeRegistration",
      "outputs": [
        {
          "internalType": "bytes32",
          "name": "",
          "type": "bytes32"
        }
      ],
      "stateMutability": "view",
      "type": "function"
    },
    {
      "inputs": [
        {
          "internalType": "contract ENSRegistry",
          "name": "registry_",
          "type": "address"
        },
        {
          "internalType": "address[]",
          "name": "guardians_",
          "type": "address[]"
        },
        {
          "internalType": "address",
          "name": "gateway_",
          "type": "address"
        },
        {
          "internalType": "bytes32",
          "name": "typedDataDomainNameHash",
          "type": "bytes32"
        },
        {
          "internalType": "bytes32",
          "name": "typedDataDomainVersionHash",
          "type": "bytes32"
        },
        {
          "internalType": "bytes32",
          "name": "typedDataDomainSalt",
          "type": "bytes32"
        }
      ],
      "name": "initialize",
      "outputs": [],
      "stateMutability": "nonpayable",
      "type": "function"
    },
    {
      "inputs": [
        {
          "internalType": "address",
          "name": "guardian",
          "type": "address"
        }
      ],
      "name": "isGuardian",
      "outputs": [
        {
          "internalType": "bool",
          "name": "",
          "type": "bool"
        }
      ],
      "stateMutability": "view",
      "type": "function"
    },
    {
      "inputs": [],
      "name": "isInitialized",
      "outputs": [
        {
          "internalType": "bool",
          "name": "",
          "type": "bool"
        }
      ],
      "stateMutability": "view",
      "type": "function"
    },
    {
      "inputs": [
        {
          "internalType": "bytes32",
          "name": "node",
          "type": "bytes32"
        },
        {
          "internalType": "bytes32",
          "name": "label",
          "type": "bytes32"
        },
        {
          "internalType": "bytes",
          "name": "guardianSignature",
          "type": "bytes"
        }
      ],
      "name": "registerSubNode",
      "outputs": [],
      "stateMutability": "nonpayable",
      "type": "function"
    },
    {
      "inputs": [],
      "name": "registry",
      "outputs": [
        {
          "internalType": "contract ENSRegistry",
          "name": "",
          "type": "address"
        }
      ],
      "stateMutability": "view",
      "type": "function"
    },
    {
      "inputs": [
        {
          "internalType": "bytes32",
          "name": "node",
          "type": "bytes32"
        }
      ],
      "name": "releaseNode",
      "outputs": [],
      "stateMutability": "nonpayable",
      "type": "function"
    },
    {
      "inputs": [
        {
          "internalType": "address",
          "name": "guardian",
          "type": "address"
        }
      ],
      "name": "removeGuardian",
      "outputs": [],
      "stateMutability": "nonpayable",
      "type": "function"
    },
    {
      "inputs": [
        {
          "internalType": "bytes32",
          "name": "node",
          "type": "bytes32"
        },
        {
          "internalType": "address",
          "name": "addr",
          "type": "address"
        }
      ],
      "name": "setAddr",
      "outputs": [],
      "stateMutability": "nonpayable",
      "type": "function"
    },
    {
      "inputs": [
        {
          "internalType": "contract ENSRegistry",
          "name": "registry_",
          "type": "address"
        }
      ],
      "name": "setRegistry",
      "outputs": [],
      "stateMutability": "nonpayable",
      "type": "function"
    },
    {
      "inputs": [
        {
          "internalType": "bytes32",
          "name": "node",
          "type": "bytes32"
        }
      ],
      "name": "submitNode",
      "outputs": [],
      "stateMutability": "nonpayable",
      "type": "function"
    },
    {
      "inputs": [
        {
          "internalType": "bytes4",
          "name": "interfaceID",
          "type": "bytes4"
        }
      ],
      "name": "supportsInterface",
      "outputs": [
        {
          "internalType": "bool",
          "name": "",
          "type": "bool"
        }
      ],
      "stateMutability": "pure",
      "type": "function"
    },
    {
      "inputs": [],
      "name": "typedDataDomainSeparator",
      "outputs": [
        {
          "internalType": "bytes32",
          "name": "",
          "type": "bytes32"
        }
      ],
      "stateMutability": "view",
      "type": "function"
    },
    {
      "inputs": [
        {
          "internalType": "bytes32",
          "name": "messageHash",
          "type": "bytes32"
        },
        {
          "internalType": "bytes",
          "name": "signature",
          "type": "bytes"
        }
      ],
      "name": "verifyGuardianSignature",
      "outputs": [
        {
          "internalType": "bool",
          "name": "",
          "type": "bool"
        }
      ],
      "stateMutability": "view",
      "type": "function"
    },
    {
      "inputs": [
        {
          "internalType": "bytes32",
          "name": "node",
          "type": "bytes32"
        }
      ],
      "name": "verifyNode",
      "outputs": [],
      "stateMutability": "nonpayable",
      "type": "function"
    }
  ],
  "transactionHash": "0x92087de6533f2395ae6c220a8233f3213351404f1a95a6e50da51f9283e1a1e2",
  "args": [],
  "solcInputHash": "ea35c89096a4158a540bab69cab65944",
  "bytecode": "0x608060405234801561001057600080fd5b5032600160006101000a81548173ffffffffffffffffffffffffffffffffffffffff021916908373ffffffffffffffffffffffffffffffffffffffff1602179055506133cd806100616000396000f3fe608060405234801561001057600080fd5b50600436106101165760003560e01c806371404156116100a2578063a91ee0dc11610071578063a91ee0dc146102dd578063bd106a02146102f9578063c8cc2aee14610317578063d0f710d614610333578063d5fa2b001461036357610116565b8063714041561461026b5780637b103999146102875780637d0e0e7e146102a5578063a526d83b146102c157610116565b8063392e53cd116100e9578063392e53cd146101b55780633b3b57de146101d357806346386f73146102035780635773fd1d1461021f5780636df0cf421461023b57610116565b806301ffc9a71461011b5780630c68ba211461014b578063116191b61461017b57806329ae6a7e14610199575b600080fd5b61013560048036038101906101309190612468565b61037f565b6040516101429190612dad565b60405180910390f35b610165600480360381019061016091906122ed565b6103e1565b6040516101729190612dad565b60405180910390f35b610183610436565b6040516101909190612d4e565b60405180910390f35b6101b360048036038101906101ae919061233f565b61045c565b005b6101bd6106ee565b6040516101ca9190612dad565b60405180910390f35b6101ed60048036038101906101e8919061233f565b610746565b6040516101fa9190612d4e565b60405180910390f35b61021d600480360381019061021891906123a4565b610786565b005b610239600480360381019061023491906124ba565b610bf1565b005b61025560048036038101906102509190612561565b610e12565b6040516102629190612dc8565b60405180910390f35b610285600480360381019061028091906122ed565b610e3a565b005b61028f611052565b60405161029c9190612f2e565b60405180910390f35b6102bf60048036038101906102ba919061233f565b611078565b005b6102db60048036038101906102d691906122ed565b611378565b005b6102f760048036038101906102f29190612491565b61140f565b005b610301611638565b60405161030e9190612dc8565b60405180910390f35b610331600480360381019061032c919061233f565b61163e565b005b61034d60048036038101906103489190612410565b6119ca565b60405161035a9190612dad565b60405180910390f35b61037d60048036038101906103789190612368565b611a23565b005b60006301ffc9a760e01b827bffffffffffffffffffffffffffffffffffffffffffffffffffffffff191614806103da5750633b3b57de60e01b827bffffffffffffffffffffffffffffffffffffffffffffffffffffffff1916145b9050919050565b60008060008373ffffffffffffffffffffffffffffffffffffffff1673ffffffffffffffffffffffffffffffffffffffff16815260200190815260200160002060009054906101000a900460ff169050919050565b600360009054906101000a900473ffffffffffffffffffffffffffffffffffffffff1681565b6000610466611b5f565b90503073ffffffffffffffffffffffffffffffffffffffff166005600084815260200190815260200160002060000160009054906101000a900473ffffffffffffffffffffffffffffffffffffffff1673ffffffffffffffffffffffffffffffffffffffff161461050c576040517f08c379a000000000000000000000000000000000000000000000000000000000815260040161050390613009565b60405180910390fd5b8073ffffffffffffffffffffffffffffffffffffffff166005600084815260200190815260200160002060010160009054906101000a900473ffffffffffffffffffffffffffffffffffffffff1673ffffffffffffffffffffffffffffffffffffffff16146105b0576040517f08c379a00000000000000000000000000000000000000000000000000000000081526004016105a790612f49565b60405180910390fd5b600460009054906101000a900473ffffffffffffffffffffffffffffffffffffffff1673ffffffffffffffffffffffffffffffffffffffff16635b0fc9c383836040518363ffffffff1660e01b815260040161060d929190612de3565b600060405180830381600087803b15801561062757600080fd5b505af115801561063b573d6000803e3d6000fd5b505050506005600083815260200190815260200160002060000160006101000a81549073ffffffffffffffffffffffffffffffffffffffff02191690556005600083815260200190815260200160002060010160006101000a81549073ffffffffffffffffffffffffffffffffffffffff02191690557f7803a16d95f9ca635bdec561006625e7444d8a9f8463866643cc03af011779d382826040516106e2929190612de3565b60405180910390a15050565b60008073ffffffffffffffffffffffffffffffffffffffff16600160009054906101000a900473ffffffffffffffffffffffffffffffffffffffff1673ffffffffffffffffffffffffffffffffffffffff1614905090565b60006005600083815260200190815260200160002060000160009054906101000a900473ffffffffffffffffffffffffffffffffffffffff169050919050565b6000610790611b5f565b905060006107a76107a2838888611b70565b611bc8565b90506107f78185858080601f016020809104026020016040519081016040528093929190818152602001838380828437600081840152601f19601f82011690508083019250505050505050611c33565b610836576040517f08c379a000000000000000000000000000000000000000000000000000000000815260040161082d90612f69565b60405180910390fd5b6000868660405160200161084b929190612ce9565b6040516020818303038152906040528051906020012090503073ffffffffffffffffffffffffffffffffffffffff166005600089815260200190815260200160002060000160009054906101000a900473ffffffffffffffffffffffffffffffffffffffff1673ffffffffffffffffffffffffffffffffffffffff1614610907576040517f08c379a00000000000000000000000000000000000000000000000000000000081526004016108fe90612fe9565b60405180910390fd5b600073ffffffffffffffffffffffffffffffffffffffff166005600083815260200190815260200160002060000160009054906101000a900473ffffffffffffffffffffffffffffffffffffffff1673ffffffffffffffffffffffffffffffffffffffff16146109ac576040517f08c379a00000000000000000000000000000000000000000000000000000000081526004016109a390612f89565b60405180910390fd5b826005600083815260200190815260200160002060000160006101000a81548173ffffffffffffffffffffffffffffffffffffffff021916908373ffffffffffffffffffffffffffffffffffffffff160217905550600460009054906101000a900473ffffffffffffffffffffffffffffffffffffffff1673ffffffffffffffffffffffffffffffffffffffff166306ab59238888306040518463ffffffff1660e01b8152600401610a6093929190612e51565b600060405180830381600087803b158015610a7a57600080fd5b505af1158015610a8e573d6000803e3d6000fd5b50505050600460009054906101000a900473ffffffffffffffffffffffffffffffffffffffff1673ffffffffffffffffffffffffffffffffffffffff16631896f70a82306040518363ffffffff1660e01b8152600401610aef929190612de3565b600060405180830381600087803b158015610b0957600080fd5b505af1158015610b1d573d6000803e3d6000fd5b50505050600460009054906101000a900473ffffffffffffffffffffffffffffffffffffffff1673ffffffffffffffffffffffffffffffffffffffff16635b0fc9c382856040518363ffffffff1660e01b8152600401610b7e929190612de3565b600060405180830381600087803b158015610b9857600080fd5b505af1158015610bac573d6000803e3d6000fd5b50505050807f52d7d861f09ab3d26239d492e8968629f95e9e318cf0b73bfddc441522a15fd284604051610be09190612d4e565b60405180910390a250505050505050565b600160009054906101000a900473ffffffffffffffffffffffffffffffffffffffff1673ffffffffffffffffffffffffffffffffffffffff163273ffffffffffffffffffffffffffffffffffffffff1614610c81576040517f08c379a0000000000000000000000000000000000000000000000000000000008152600401610c7890612fc9565b60405180910390fd5b6000600160006101000a81548173ffffffffffffffffffffffffffffffffffffffff021916908373ffffffffffffffffffffffffffffffffffffffff160217905550600073ffffffffffffffffffffffffffffffffffffffff168773ffffffffffffffffffffffffffffffffffffffff161415610d33576040517f08c379a0000000000000000000000000000000000000000000000000000000008152600401610d2a90613089565b60405180910390fd5b86600460006101000a81548173ffffffffffffffffffffffffffffffffffffffff021916908373ffffffffffffffffffffffffffffffffffffffff160217905550610dbe868680806020026020016040519081016040528093929190818152602001838360200280828437600081840152601f19601f82011690508083019250505050505050611ca0565b610dc784611cf8565b610dd2838383611d3c565b7f908408e307fc569b417f6cbec5d5a06f44a0a505ac0479b47d421a4b2fd6a1e632604051610e019190612d69565b60405180910390a150505050505050565b6000610e33610e2e836000015184602001518560400151611b70565b611bc8565b9050919050565b6000803273ffffffffffffffffffffffffffffffffffffffff1673ffffffffffffffffffffffffffffffffffffffff16815260200190815260200160002060009054906101000a900460ff16610ec5576040517f08c379a0000000000000000000000000000000000000000000000000000000008152600401610ebc90613069565b60405180910390fd5b8073ffffffffffffffffffffffffffffffffffffffff163273ffffffffffffffffffffffffffffffffffffffff161415610f34576040517f08c379a0000000000000000000000000000000000000000000000000000000008152600401610f2b90613149565b60405180910390fd5b6000808273ffffffffffffffffffffffffffffffffffffffff1673ffffffffffffffffffffffffffffffffffffffff16815260200190815260200160002060009054906101000a900460ff16610fbf576040517f08c379a0000000000000000000000000000000000000000000000000000000008152600401610fb6906130e9565b60405180910390fd5b60008060008373ffffffffffffffffffffffffffffffffffffffff1673ffffffffffffffffffffffffffffffffffffffff16815260200190815260200160002060006101000a81548160ff0219169083151502179055507fee943cdb81826d5909c559c6b1ae6908fcaf2dbc16c4b730346736b486283e8b3282604051611047929190612d84565b60405180910390a150565b600460009054906101000a900473ffffffffffffffffffffffffffffffffffffffff1681565b6000611082611b5f565b9050600073ffffffffffffffffffffffffffffffffffffffff166005600084815260200190815260200160002060000160009054906101000a900473ffffffffffffffffffffffffffffffffffffffff1673ffffffffffffffffffffffffffffffffffffffff1614611129576040517f08c379a0000000000000000000000000000000000000000000000000000000008152600401611120906130c9565b60405180910390fd5b600073ffffffffffffffffffffffffffffffffffffffff166005600084815260200190815260200160002060010160009054906101000a900473ffffffffffffffffffffffffffffffffffffffff1673ffffffffffffffffffffffffffffffffffffffff16146111ce576040517f08c379a00000000000000000000000000000000000000000000000000000000081526004016111c5906130a9565b60405180910390fd5b8073ffffffffffffffffffffffffffffffffffffffff16600460009054906101000a900473ffffffffffffffffffffffffffffffffffffffff1673ffffffffffffffffffffffffffffffffffffffff166302571be3846040518263ffffffff1660e01b81526004016112409190612dc8565b60206040518083038186803b15801561125857600080fd5b505afa15801561126c573d6000803e3d6000fd5b505050506040513d601f19601f820116820180604052508101906112909190612316565b73ffffffffffffffffffffffffffffffffffffffff16146112e6576040517f08c379a00000000000000000000000000000000000000000000000000000000081526004016112dd90613109565b60405180910390fd5b806005600084815260200190815260200160002060010160006101000a81548173ffffffffffffffffffffffffffffffffffffffff021916908373ffffffffffffffffffffffffffffffffffffffff1602179055507fc1e082a8c26f27c26e1bf5d0ce7ddd579ec7f6d7eb3ea90d8abd6c40991bae36828260405161136c929190612de3565b60405180910390a15050565b6000803273ffffffffffffffffffffffffffffffffffffffff1673ffffffffffffffffffffffffffffffffffffffff16815260200190815260200160002060009054906101000a900460ff16611403576040517f08c379a00000000000000000000000000000000000000000000000000000000081526004016113fa90613069565b60405180910390fd5b61140c81611d9e565b50565b6000803273ffffffffffffffffffffffffffffffffffffffff1673ffffffffffffffffffffffffffffffffffffffff16815260200190815260200160002060009054906101000a900460ff1661149a576040517f08c379a000000000000000000000000000000000000000000000000000000000815260040161149190613069565b60405180910390fd5b600073ffffffffffffffffffffffffffffffffffffffff168173ffffffffffffffffffffffffffffffffffffffff16141561150a576040517f08c379a000000000000000000000000000000000000000000000000000000000815260040161150190613089565b60405180910390fd5b600460009054906101000a900473ffffffffffffffffffffffffffffffffffffffff1673ffffffffffffffffffffffffffffffffffffffff168173ffffffffffffffffffffffffffffffffffffffff16141561159b576040517f08c379a000000000000000000000000000000000000000000000000000000000815260040161159290613189565b60405180910390fd5b80600460006101000a81548173ffffffffffffffffffffffffffffffffffffffff021916908373ffffffffffffffffffffffffffffffffffffffff1602179055507fdb0239c63d4033dcdd21bd44f8dd479a03efbae12f6bbe27c0a5f923d26514cc600460009054906101000a900473ffffffffffffffffffffffffffffffffffffffff1660405161162d9190612d4e565b60405180910390a150565b60025481565b6000611648611b5f565b9050600073ffffffffffffffffffffffffffffffffffffffff166005600084815260200190815260200160002060000160009054906101000a900473ffffffffffffffffffffffffffffffffffffffff1673ffffffffffffffffffffffffffffffffffffffff16146116ef576040517f08c379a00000000000000000000000000000000000000000000000000000000081526004016116e6906130c9565b60405180910390fd5b8073ffffffffffffffffffffffffffffffffffffffff166005600084815260200190815260200160002060010160009054906101000a900473ffffffffffffffffffffffffffffffffffffffff1673ffffffffffffffffffffffffffffffffffffffff1614611793576040517f08c379a000000000000000000000000000000000000000000000000000000000815260040161178a90612f49565b60405180910390fd5b3073ffffffffffffffffffffffffffffffffffffffff16600460009054906101000a900473ffffffffffffffffffffffffffffffffffffffff1673ffffffffffffffffffffffffffffffffffffffff166302571be3846040518263ffffffff1660e01b81526004016118059190612dc8565b60206040518083038186803b15801561181d57600080fd5b505afa158015611831573d6000803e3d6000fd5b505050506040513d601f19601f820116820180604052508101906118559190612316565b73ffffffffffffffffffffffffffffffffffffffff16146118ab576040517f08c379a00000000000000000000000000000000000000000000000000000000081526004016118a290613109565b60405180910390fd5b306005600084815260200190815260200160002060000160006101000a81548173ffffffffffffffffffffffffffffffffffffffff021916908373ffffffffffffffffffffffffffffffffffffffff160217905550600460009054906101000a900473ffffffffffffffffffffffffffffffffffffffff1673ffffffffffffffffffffffffffffffffffffffff16631896f70a83306040518363ffffffff1660e01b815260040161195d929190612de3565b600060405180830381600087803b15801561197757600080fd5b505af115801561198b573d6000803e3d6000fd5b505050507fcefbe9dbadcf675eef14e23810996ff38541fc26b4dd77cd6724b0eedc96f200826040516119be9190612dc8565b60405180910390a15050565b6000611a1a8484848080601f016020809104026020016040519081016040528093929190818152602001838380828437600081840152601f19601f82011690508083019250505050505050611c33565b90509392505050565b611a2b611b5f565b73ffffffffffffffffffffffffffffffffffffffff166005600084815260200190815260200160002060000160009054906101000a900473ffffffffffffffffffffffffffffffffffffffff1673ffffffffffffffffffffffffffffffffffffffff1614611ace576040517f08c379a0000000000000000000000000000000000000000000000000000000008152600401611ac590613049565b60405180910390fd5b806005600084815260200190815260200160002060000160006101000a81548173ffffffffffffffffffffffffffffffffffffffff021916908373ffffffffffffffffffffffffffffffffffffffff160217905550817f52d7d861f09ab3d26239d492e8968629f95e9e318cf0b73bfddc441522a15fd282604051611b539190612d4e565b60405180910390a25050565b6000611b6b6028611f2d565b905090565b60007f621363c539a3aa1024c8837ca1dc095db03b7f9512b3a95ecb429aae7fd953ed848484604051602001611ba99493929190612e0c565b6040516020818303038152906040528051906020012090509392505050565b60006040518060400160405280600281526020017f190100000000000000000000000000000000000000000000000000000000000081525060025483604051602001611c1693929190612d15565b604051602081830303815290604052805190602001209050919050565b600080611c498385611fc290919063ffffffff16565b90506000808273ffffffffffffffffffffffffffffffffffffffff1673ffffffffffffffffffffffffffffffffffffffff16815260200190815260200160002060009054906101000a900460ff1691505092915050565b600081511415611cb857611cb332611d9e565b611cf5565b60008151905060005b81811015611cf257611ce5838281518110611cd857fe5b6020026020010151611d9e565b8080600101915050611cc1565b50505b50565b80600360006101000a81548173ffffffffffffffffffffffffffffffffffffffff021916908373ffffffffffffffffffffffffffffffffffffffff16021790555050565b60004690507fd87cd6ef79d4e2b95e15ce8abf732db51ec771f1ca2edccf22a46c729ac564728484833086604051602001611d7c96959493929190612e88565b6040516020818303038152906040528051906020012060028190555050505050565b600073ffffffffffffffffffffffffffffffffffffffff168173ffffffffffffffffffffffffffffffffffffffff161415611e0e576040517f08c379a0000000000000000000000000000000000000000000000000000000008152600401611e0590612fa9565b60405180910390fd5b6000808273ffffffffffffffffffffffffffffffffffffffff1673ffffffffffffffffffffffffffffffffffffffff16815260200190815260200160002060009054906101000a900460ff1615611e9a576040517f08c379a0000000000000000000000000000000000000000000000000000000008152600401611e9190613129565b60405180910390fd5b60016000808373ffffffffffffffffffffffffffffffffffffffff1673ffffffffffffffffffffffffffffffffffffffff16815260200190815260200160002060006101000a81548160ff0219169083151502179055507fbc3292102fa77e083913064b282926717cdfaede4d35f553d66366c0a3da755a3282604051611f22929190612d84565b60405180910390a150565b60008060009050611f3c61207d565b15611fb5576000836000369050039050611fad60003683906014850192611f65939291906131fd565b8080601f016020809104026020016040519081016040528093929190818152602001838380828437600081840152601f19601f8201169050808301925050505050505061212a565b915050611fb9565b3390505b80915050919050565b600080600090506041835114156120735760008060006020860151925060408601519150606086015160001a9050601b8160ff16101561200357601b810190505b601b8160ff1614806120185750601c8160ff16145b1561206f57600187828585604051600081526020016040526040516120409493929190612ee9565b6020604051602081039080840390855afa158015612062573d6000803e3d6000fd5b5050506020604051035193505b5050505b8091505092915050565b600080600360009054906101000a900473ffffffffffffffffffffffffffffffffffffffff1673ffffffffffffffffffffffffffffffffffffffff163373ffffffffffffffffffffffffffffffffffffffff16141561212357602c6000369050101561211e576040517f08c379a000000000000000000000000000000000000000000000000000000000815260040161211590613029565b60405180910390fd5b600190505b8091505090565b6000806014835114612171576040517f08c379a000000000000000000000000000000000000000000000000000000000815260040161216890613169565b60405180910390fd5b6c01000000000000000000000000602084015104905080915050919050565b60008135905061219f81613364565b92915050565b6000815190506121b481613364565b92915050565b60008083601f8401126121cc57600080fd5b8235905067ffffffffffffffff8111156121e557600080fd5b6020830191508360208202830111156121fd57600080fd5b9250929050565b6000813590506122138161337b565b92915050565b60008135905061222881613392565b92915050565b60008083601f84011261224057600080fd5b8235905067ffffffffffffffff81111561225957600080fd5b60208301915083600182028301111561227157600080fd5b9250929050565b600081359050612287816133a9565b92915050565b60006060828403121561229f57600080fd5b6122a960606131a9565b905060006122b984828501612190565b60008301525060206122cd84828501612204565b60208301525060406122e184828501612204565b60408301525092915050565b6000602082840312156122ff57600080fd5b600061230d84828501612190565b91505092915050565b60006020828403121561232857600080fd5b6000612336848285016121a5565b91505092915050565b60006020828403121561235157600080fd5b600061235f84828501612204565b91505092915050565b6000806040838503121561237b57600080fd5b600061238985828601612204565b925050602061239a85828601612190565b9150509250929050565b600080600080606085870312156123ba57600080fd5b60006123c887828801612204565b94505060206123d987828801612204565b935050604085013567ffffffffffffffff8111156123f657600080fd5b6124028782880161222e565b925092505092959194509250565b60008060006040848603121561242557600080fd5b600061243386828701612204565b935050602084013567ffffffffffffffff81111561245057600080fd5b61245c8682870161222e565b92509250509250925092565b60006020828403121561247a57600080fd5b600061248884828501612219565b91505092915050565b6000602082840312156124a357600080fd5b60006124b184828501612278565b91505092915050565b600080600080600080600060c0888a0312156124d557600080fd5b60006124e38a828b01612278565b975050602088013567ffffffffffffffff81111561250057600080fd5b61250c8a828b016121ba565b9650965050604061251f8a828b01612190565b94505060606125308a828b01612204565b93505060806125418a828b01612204565b92505060a06125528a828b01612204565b91505092959891949750929550565b60006060828403121561257357600080fd5b60006125818482850161228d565b91505092915050565b612593816132cd565b82525050565b6125a281613230565b82525050565b6125b181613242565b82525050565b6125c08161324e565b82525050565b6125d76125d28261324e565b61335a565b82525050565b6125e6816132df565b82525050565b60006125f7826131d6565b61260181856131f2565b9350612611818560208601613327565b80840191505092915050565b600061262a6021836131e1565b91507f454e53436f6e74726f6c6c65723a20696e76616c6964206e6f6465206f776e6560008301527f72000000000000000000000000000000000000000000000000000000000000006020830152604082019050919050565b60006126906029836131e1565b91507f454e53436f6e74726f6c6c65723a20696e76616c696420677561726469616e2060008301527f7369676e617475726500000000000000000000000000000000000000000000006020830152604082019050919050565b60006126f66022836131e1565b91507f454e53436f6e74726f6c6c65723a206c6162656c20616c72656164792074616b60008301527f656e0000000000000000000000000000000000000000000000000000000000006020830152604082019050919050565b600061275c6020836131e1565b91507f477561726465643a2063616e6e6f74206164642030783020677561726469616e6000830152602082019050919050565b600061279c602f836131e1565b91507f496e697469616c697a61626c653a2074782e6f726967696e206973206e6f742060008301527f74686520696e697469616c697a657200000000000000000000000000000000006020830152604082019050919050565b6000612802601b836131e1565b91507f454e53436f6e74726f6c6c65723a20696e76616c6964206e6f646500000000006000830152602082019050919050565b60006128426021836131e1565b91507f454e53436f6e74726f6c6c65723a206e6f646520646f65736e2774206578697360008301527f74000000000000000000000000000000000000000000000000000000000000006020830152604082019050919050565b60006128a86022836131e1565b91507f47617465776179526563697069656e743a20696e76616c6964206d73672e646160008301527f74610000000000000000000000000000000000000000000000000000000000006020830152604082019050919050565b600061290e602b836131e1565b91507f454e53436f6e74726f6c6c65723a2063616c6c6572206973206e6f742074686560008301527f206e6f6465206f776e65720000000000000000000000000000000000000000006020830152604082019050919050565b60006129746026836131e1565b91507f477561726465643a2074782e6f726967696e206973206e6f742074686520677560008301527f61726469616e00000000000000000000000000000000000000000000000000006020830152604082019050919050565b60006129da6026836131e1565b91507f454e53436f6e74726f6c6c65723a2063616e6e6f74207365742030783020726560008301527f67697374727900000000000000000000000000000000000000000000000000006020830152604082019050919050565b6000612a406025836131e1565b91507f454e53436f6e74726f6c6c65723a206e6f646520616c7265616479207375626d60008301527f69747465640000000000000000000000000000000000000000000000000000006020830152604082019050919050565b6000612aa66022836131e1565b91507f454e53436f6e74726f6c6c65723a206e6f646520616c7265616479206578697360008301527f74730000000000000000000000000000000000000000000000000000000000006020830152604082019050919050565b6000612b0c601f836131e1565b91507f477561726465643a20677561726469616e20646f65736e2774206578697374006000830152602082019050919050565b6000612b4c6025836131e1565b91507f454e53436f6e74726f6c6c65723a20696e76616c696420656e73206e6f64652060008301527f6f776e65720000000000000000000000000000000000000000000000000000006020830152604082019050919050565b6000612bb26020836131e1565b91507f477561726465643a20677561726469616e20616c7265616479206578697374736000830152602082019050919050565b6000612bf2601b836131e1565b91507f477561726465643a2063616e6e6f742072656d6f76652073656c6600000000006000830152602082019050919050565b6000612c32601d836131e1565b91507f42797465734c69623a20696e76616c69642064617461206c656e6774680000006000830152602082019050919050565b6000612c726023836131e1565b91507f454e53436f6e74726f6c6c65723a20726567697374727920616c72656164792060008301527f73657400000000000000000000000000000000000000000000000000000000006020830152604082019050919050565b612cd4816132b6565b82525050565b612ce3816132c0565b82525050565b6000612cf582856125c6565b602082019150612d0582846125c6565b6020820191508190509392505050565b6000612d2182866125ec565b9150612d2d82856125c6565b602082019150612d3d82846125c6565b602082019150819050949350505050565b6000602082019050612d636000830184612599565b92915050565b6000602082019050612d7e600083018461258a565b92915050565b6000604082019050612d99600083018561258a565b612da66020830184612599565b9392505050565b6000602082019050612dc260008301846125a8565b92915050565b6000602082019050612ddd60008301846125b7565b92915050565b6000604082019050612df860008301856125b7565b612e056020830184612599565b9392505050565b6000608082019050612e2160008301876125b7565b612e2e6020830186612599565b612e3b60408301856125b7565b612e4860608301846125b7565b95945050505050565b6000606082019050612e6660008301866125b7565b612e7360208301856125b7565b612e806040830184612599565b949350505050565b600060c082019050612e9d60008301896125b7565b612eaa60208301886125b7565b612eb760408301876125b7565b612ec46060830186612ccb565b612ed16080830185612599565b612ede60a08301846125b7565b979650505050505050565b6000608082019050612efe60008301876125b7565b612f0b6020830186612cda565b612f1860408301856125b7565b612f2560608301846125b7565b95945050505050565b6000602082019050612f4360008301846125dd565b92915050565b60006020820190508181036000830152612f628161261d565b9050919050565b60006020820190508181036000830152612f8281612683565b9050919050565b60006020820190508181036000830152612fa2816126e9565b9050919050565b60006020820190508181036000830152612fc28161274f565b9050919050565b60006020820190508181036000830152612fe28161278f565b9050919050565b60006020820190508181036000830152613002816127f5565b9050919050565b6000602082019050818103600083015261302281612835565b9050919050565b600060208201905081810360008301526130428161289b565b9050919050565b6000602082019050818103600083015261306281612901565b9050919050565b6000602082019050818103600083015261308281612967565b9050919050565b600060208201905081810360008301526130a2816129cd565b9050919050565b600060208201905081810360008301526130c281612a33565b9050919050565b600060208201905081810360008301526130e281612a99565b9050919050565b6000602082019050818103600083015261310281612aff565b9050919050565b6000602082019050818103600083015261312281612b3f565b9050919050565b6000602082019050818103600083015261314281612ba5565b9050919050565b6000602082019050818103600083015261316281612be5565b9050919050565b6000602082019050818103600083015261318281612c25565b9050919050565b600060208201905081810360008301526131a281612c65565b9050919050565b6000604051905081810181811067ffffffffffffffff821117156131cc57600080fd5b8060405250919050565b600081519050919050565b600082825260208201905092915050565b600081905092915050565b6000808585111561320d57600080fd5b8386111561321a57600080fd5b6001850283019150848603905094509492505050565b600061323b82613296565b9050919050565b60008115159050919050565b6000819050919050565b60007fffffffff0000000000000000000000000000000000000000000000000000000082169050919050565b600061328f82613230565b9050919050565b600073ffffffffffffffffffffffffffffffffffffffff82169050919050565b6000819050919050565b600060ff82169050919050565b60006132d882613303565b9050919050565b60006132ea826132f1565b9050919050565b60006132fc82613296565b9050919050565b600061330e82613315565b9050919050565b600061332082613296565b9050919050565b60005b8381101561334557808201518184015260208101905061332a565b83811115613354576000848401525b50505050565b6000819050919050565b61336d81613230565b811461337857600080fd5b50565b6133848161324e565b811461338f57600080fd5b50565b61339b81613258565b81146133a657600080fd5b50565b6133b281613284565b81146133bd57600080fd5b5056fea164736f6c634300060c000a",
  "devdoc": {
    "author": "Stanisaw Gogowski <stan@pillarproject.io>",
    "details": "The process of adding root node consists of 3 steps: 1. `submitNode` - should be called from ENS node owner, 2. Change ENS node owner in ENS registry to ENS controller, 3. `verifyNode` - should be called from previous ENS node owner, To register sub node, `msg.sender` need to send valid signature from one of guardian key. Once registration is complete `msg.sender` becoming both node owner and `addr` record value. After registration sub node cannot be replaced.",
    "events": {
      "AddrChanged(bytes32,address)": {
        "details": "Emitted when the address field in node resolver is changed",
        "params": {
          "addr": "new address",
          "node": "node name hash"
        }
      },
      "NodeReleased(bytes32,address)": {
        "details": "Emitted when new node is released",
        "params": {
          "node": "node name hash",
          "owner": "owner address"
        }
      },
      "NodeSubmitted(bytes32,address)": {
        "details": "Emitted when new node is submitted",
        "params": {
          "node": "node name hash",
          "owner": "owner address"
        }
      },
      "NodeVerified(bytes32)": {
        "details": "Emitted when the existing owner is verified",
        "params": {
          "node": "node name hash"
        }
      },
      "RegistryChanged(address)": {
        "details": "Emitted when ENS registry address is changed",
        "params": {
          "registry": "registry address"
        }
      }
    },
    "kind": "dev",
    "methods": {
      "addGuardian(address)": {
        "params": {
          "guardian": "guardian address"
        }
      },
      "addr(bytes32)": {
        "details": "Used in address resolver",
        "params": {
          "node": "node name hash"
        }
      },
      "constructor": {
        "details": "Public constructor"
      },
      "hashSubNodeRegistration((address,bytes32,bytes32))": {
        "params": {
          "subNodeRegistration": "struct"
        },
        "returns": {
          "_0": "hash"
        }
      },
      "initialize(address,address[],address,bytes32,bytes32,bytes32)": {
        "params": {
          "gateway_": "gateway address",
          "registry_": "ENS registry address",
          "typedDataDomainNameHash": "hash of a typed data domain name",
          "typedDataDomainSalt": "typed data salt",
          "typedDataDomainVersionHash": "hash of a typed data domain version"
        }
      },
      "isGuardian(address)": {
        "params": {
          "guardian": "guardian address"
        },
        "returns": {
          "_0": "true when guardian exists"
        }
      },
      "isInitialized()": {
        "returns": {
          "_0": "true when contract is initialized"
        }
      },
      "registerSubNode(bytes32,bytes32,bytes)": {
        "params": {
          "guardianSignature": "guardian signature",
          "label": "label hash",
          "node": "node name hash"
        }
      },
      "releaseNode(bytes32)": {
        "details": "Should be called from the previous ENS node owner",
        "params": {
          "node": "node name hash"
        }
      },
      "removeGuardian(address)": {
        "params": {
          "guardian": "guardian address"
        }
      },
      "setAddr(bytes32,address)": {
        "details": "Used in address resolver",
        "params": {
          "addr": "address",
          "node": "node name hash"
        }
      },
      "setRegistry(address)": {
        "params": {
          "registry_": "registry address"
        }
      },
      "submitNode(bytes32)": {
        "details": "Should be called from the current ENS node owner",
        "params": {
          "node": "node name hash"
        }
      },
      "supportsInterface(bytes4)": {
        "params": {
          "interfaceID": "method signature"
        },
        "returns": {
          "_0": "true when contract supports interface"
        }
      },
      "verifyGuardianSignature(bytes32,bytes)": {
        "params": {
          "messageHash": "message hash",
          "signature": "signature"
        },
        "returns": {
          "_0": "true on correct guardian signature"
        }
      },
      "verifyNode(bytes32)": {
        "details": "Should be called from the previous ENS node owner",
        "params": {
          "node": "node name hash"
        }
      }
    },
    "title": "ENS controller",
    "version": 1
  },
  "userdoc": {
    "kind": "user",
    "methods": {
      "addGuardian(address)": {
        "notice": "Adds a new guardian"
      },
      "addr(bytes32)": {
        "notice": "Gets address"
      },
      "hashSubNodeRegistration((address,bytes32,bytes32))": {
        "notice": "Hashes `SubNodeRegistration` typed data"
      },
      "initialize(address,address[],address,bytes32,bytes32,bytes32)": {
        "notice": "Initializes `ENSController` contract"
      },
      "isGuardian(address)": {
        "notice": "Check if guardian exists"
      },
      "isInitialized()": {
        "notice": "Check if contract is initialized"
      },
      "registerSubNode(bytes32,bytes32,bytes)": {
        "notice": "Registers sub node"
      },
      "releaseNode(bytes32)": {
        "notice": "Releases node"
      },
      "removeGuardian(address)": {
        "notice": "Removes existing guardian"
      },
      "setAddr(bytes32,address)": {
        "notice": "Sets address"
      },
      "setRegistry(address)": {
        "notice": "Sets registry"
      },
      "submitNode(bytes32)": {
        "notice": "Submits node"
      },
      "supportsInterface(bytes4)": {
        "notice": "Checks if contract supports interface"
      },
      "verifyGuardianSignature(bytes32,bytes)": {
        "notice": "Verifies guardian signature"
      },
      "verifyNode(bytes32)": {
        "notice": "Verifies node"
      }
    },
    "notice": "ENS subnode registrar",
    "version": 1
  },
  "storageLayout": {
    "storage": [
      {
        "astId": 40,
        "contract": "src/ens/ENSController.sol:ENSController",
        "label": "guardians",
        "offset": 0,
        "slot": "0",
        "type": "t_mapping(t_address,t_bool)"
      },
      {
        "astId": 824,
        "contract": "src/ens/ENSController.sol:ENSController",
        "label": "initializer",
        "offset": 0,
        "slot": "1",
        "type": "t_address"
      },
      {
        "astId": 1252,
        "contract": "src/ens/ENSController.sol:ENSController",
        "label": "typedDataDomainSeparator",
        "offset": 0,
        "slot": "2",
        "type": "t_bytes32"
      },
      {
        "astId": 3074,
        "contract": "src/ens/ENSController.sol:ENSController",
        "label": "gateway",
        "offset": 0,
        "slot": "3",
        "type": "t_address"
      },
      {
        "astId": 1344,
        "contract": "src/ens/ENSController.sol:ENSController",
        "label": "registry",
        "offset": 0,
        "slot": "4",
        "type": "t_contract(ENSRegistry)2102"
      },
      {
        "astId": 1348,
        "contract": "src/ens/ENSController.sol:ENSController",
        "label": "nodes",
        "offset": 0,
        "slot": "5",
        "type": "t_mapping(t_bytes32,t_struct(Node)1330_storage)"
      }
    ],
    "types": {
      "t_address": {
        "encoding": "inplace",
        "label": "address",
        "numberOfBytes": "20"
      },
      "t_bool": {
        "encoding": "inplace",
        "label": "bool",
        "numberOfBytes": "1"
      },
      "t_bytes32": {
        "encoding": "inplace",
        "label": "bytes32",
        "numberOfBytes": "32"
      },
      "t_contract(ENSRegistry)2102": {
        "encoding": "inplace",
        "label": "contract ENSRegistry",
        "numberOfBytes": "20"
      },
      "t_mapping(t_address,t_bool)": {
        "encoding": "mapping",
        "key": "t_address",
        "label": "mapping(address => bool)",
        "numberOfBytes": "32",
        "value": "t_bool"
      },
      "t_mapping(t_bytes32,t_struct(Node)1330_storage)": {
        "encoding": "mapping",
        "key": "t_bytes32",
        "label": "mapping(bytes32 => struct ENSController.Node)",
        "numberOfBytes": "32",
        "value": "t_struct(Node)1330_storage"
      },
      "t_struct(Node)1330_storage": {
        "encoding": "inplace",
        "label": "struct ENSController.Node",
        "members": [
          {
            "astId": 1327,
            "contract": "src/ens/ENSController.sol:ENSController",
            "label": "addr",
            "offset": 0,
            "slot": "0",
            "type": "t_address"
          },
          {
            "astId": 1329,
            "contract": "src/ens/ENSController.sol:ENSController",
            "label": "owner",
            "offset": 0,
            "slot": "1",
            "type": "t_address"
          }
        ],
        "numberOfBytes": "64"
      }
    }
  }
}