{
  "address": "0xCa93E45039C131ed036ACc0e3BC4805EFeC4e334",
  "abi": [
    {
      "inputs": [],
      "stateMutability": "nonpayable",
      "type": "constructor"
    },
    {
      "anonymous": false,
      "inputs": [
        {
          "indexed": true,
          "internalType": "bytes32",
          "name": "node",
          "type": "bytes32"
        },
        {
          "indexed": false,
          "internalType": "address",
          "name": "addr",
          "type": "address"
        }
      ],
      "name": "AddrChanged",
      "type": "event"
    },
    {
      "anonymous": false,
      "inputs": [
        {
          "indexed": false,
          "internalType": "address",
          "name": "sender",
          "type": "address"
        },
        {
          "indexed": false,
          "internalType": "address",
          "name": "guardian",
          "type": "address"
        }
      ],
      "name": "GuardianAdded",
      "type": "event"
    },
    {
      "anonymous": false,
      "inputs": [
        {
          "indexed": false,
          "internalType": "address",
          "name": "sender",
          "type": "address"
        },
        {
          "indexed": false,
          "internalType": "address",
          "name": "guardian",
          "type": "address"
        }
      ],
      "name": "GuardianRemoved",
      "type": "event"
    },
    {
      "anonymous": false,
      "inputs": [
        {
          "indexed": false,
          "internalType": "address",
          "name": "initializer",
          "type": "address"
        }
      ],
      "name": "Initialized",
      "type": "event"
    },
    {
      "anonymous": false,
      "inputs": [
        {
          "indexed": false,
          "internalType": "bytes32",
          "name": "node",
          "type": "bytes32"
        },
        {
          "indexed": false,
          "internalType": "address",
          "name": "owner",
          "type": "address"
        }
      ],
      "name": "NodeReleased",
      "type": "event"
    },
    {
      "anonymous": false,
      "inputs": [
        {
          "indexed": false,
          "internalType": "bytes32",
          "name": "node",
          "type": "bytes32"
        },
        {
          "indexed": false,
          "internalType": "address",
          "name": "owner",
          "type": "address"
        }
      ],
      "name": "NodeSubmitted",
      "type": "event"
    },
    {
      "anonymous": false,
      "inputs": [
        {
          "indexed": false,
          "internalType": "bytes32",
          "name": "node",
          "type": "bytes32"
        }
      ],
      "name": "NodeVerified",
      "type": "event"
    },
    {
      "anonymous": false,
      "inputs": [
        {
          "indexed": false,
          "internalType": "address",
          "name": "registry",
          "type": "address"
        }
      ],
      "name": "RegistryChanged",
      "type": "event"
    },
    {
      "inputs": [
        {
          "internalType": "address",
          "name": "guardian",
          "type": "address"
        }
      ],
      "name": "addGuardian",
      "outputs": [],
      "stateMutability": "nonpayable",
      "type": "function"
    },
    {
      "inputs": [
        {
          "internalType": "bytes32",
          "name": "node",
          "type": "bytes32"
        }
      ],
      "name": "addr",
      "outputs": [
        {
          "internalType": "address",
          "name": "",
          "type": "address"
        }
      ],
      "stateMutability": "view",
      "type": "function"
    },
    {
      "inputs": [],
      "name": "gateway",
      "outputs": [
        {
          "internalType": "address",
          "name": "",
          "type": "address"
        }
      ],
      "stateMutability": "view",
      "type": "function"
    },
    {
      "inputs": [
        {
          "components": [
            {
              "internalType": "address",
              "name": "account",
              "type": "address"
            },
            {
              "internalType": "bytes32",
              "name": "node",
              "type": "bytes32"
            },
            {
              "internalType": "bytes32",
              "name": "label",
              "type": "bytes32"
            }
          ],
          "internalType": "struct ENSController.SubNodeRegistration",
          "name": "subNodeRegistration",
          "type": "tuple"
        }
      ],
      "name": "hashSubNodeRegistration",
      "outputs": [
        {
          "internalType": "bytes32",
          "name": "",
          "type": "bytes32"
        }
      ],
      "stateMutability": "view",
      "type": "function"
    },
    {
      "inputs": [
        {
          "internalType": "contract ENSRegistry",
          "name": "registry_",
          "type": "address"
        },
        {
          "internalType": "address[]",
          "name": "guardians_",
          "type": "address[]"
        },
        {
          "internalType": "address",
          "name": "gateway_",
          "type": "address"
        },
        {
          "internalType": "bytes32",
          "name": "typedDataDomainNameHash",
          "type": "bytes32"
        },
        {
          "internalType": "bytes32",
          "name": "typedDataDomainVersionHash",
          "type": "bytes32"
        },
        {
          "internalType": "bytes32",
          "name": "typedDataDomainSalt",
          "type": "bytes32"
        }
      ],
      "name": "initialize",
      "outputs": [],
      "stateMutability": "nonpayable",
      "type": "function"
    },
    {
      "inputs": [
        {
          "internalType": "address",
          "name": "guardian",
          "type": "address"
        }
      ],
      "name": "isGuardian",
      "outputs": [
        {
          "internalType": "bool",
          "name": "",
          "type": "bool"
        }
      ],
      "stateMutability": "view",
      "type": "function"
    },
    {
      "inputs": [],
      "name": "isInitialized",
      "outputs": [
        {
          "internalType": "bool",
          "name": "",
          "type": "bool"
        }
      ],
      "stateMutability": "view",
      "type": "function"
    },
    {
      "inputs": [
        {
          "internalType": "bytes32",
          "name": "node",
          "type": "bytes32"
        },
        {
          "internalType": "bytes32",
          "name": "label",
          "type": "bytes32"
        },
        {
          "internalType": "bytes",
          "name": "guardianSignature",
          "type": "bytes"
        }
      ],
      "name": "registerSubNode",
      "outputs": [],
      "stateMutability": "nonpayable",
      "type": "function"
    },
    {
      "inputs": [],
      "name": "registry",
      "outputs": [
        {
          "internalType": "contract ENSRegistry",
          "name": "",
          "type": "address"
        }
      ],
      "stateMutability": "view",
      "type": "function"
    },
    {
      "inputs": [
        {
          "internalType": "bytes32",
          "name": "node",
          "type": "bytes32"
        }
      ],
      "name": "releaseNode",
      "outputs": [],
      "stateMutability": "nonpayable",
      "type": "function"
    },
    {
      "inputs": [
        {
          "internalType": "address",
          "name": "guardian",
          "type": "address"
        }
      ],
      "name": "removeGuardian",
      "outputs": [],
      "stateMutability": "nonpayable",
      "type": "function"
    },
    {
      "inputs": [
        {
          "internalType": "bytes32",
          "name": "node",
          "type": "bytes32"
        },
        {
          "internalType": "address",
          "name": "addr",
          "type": "address"
        }
      ],
      "name": "setAddr",
      "outputs": [],
      "stateMutability": "nonpayable",
      "type": "function"
    },
    {
      "inputs": [
        {
          "internalType": "contract ENSRegistry",
          "name": "registry_",
          "type": "address"
        }
      ],
      "name": "setRegistry",
      "outputs": [],
      "stateMutability": "nonpayable",
      "type": "function"
    },
    {
      "inputs": [
        {
          "internalType": "bytes32",
          "name": "node",
          "type": "bytes32"
        }
      ],
      "name": "submitNode",
      "outputs": [],
      "stateMutability": "nonpayable",
      "type": "function"
    },
    {
      "inputs": [
        {
          "internalType": "bytes4",
          "name": "interfaceID",
          "type": "bytes4"
        }
      ],
      "name": "supportsInterface",
      "outputs": [
        {
          "internalType": "bool",
          "name": "",
          "type": "bool"
        }
      ],
      "stateMutability": "pure",
      "type": "function"
    },
    {
      "inputs": [
        {
          "internalType": "bytes32",
          "name": "node",
          "type": "bytes32"
        }
      ],
      "name": "syncAddr",
      "outputs": [],
      "stateMutability": "nonpayable",
      "type": "function"
    },
    {
      "inputs": [],
      "name": "typedDataDomainSeparator",
      "outputs": [
        {
          "internalType": "bytes32",
          "name": "",
          "type": "bytes32"
        }
      ],
      "stateMutability": "view",
      "type": "function"
    },
    {
      "inputs": [
        {
          "internalType": "bytes32",
          "name": "messageHash",
          "type": "bytes32"
        },
        {
          "internalType": "bytes",
          "name": "signature",
          "type": "bytes"
        }
      ],
      "name": "verifyGuardianSignature",
      "outputs": [
        {
          "internalType": "bool",
          "name": "",
          "type": "bool"
        }
      ],
      "stateMutability": "view",
      "type": "function"
    },
    {
      "inputs": [
        {
          "internalType": "bytes32",
          "name": "node",
          "type": "bytes32"
        }
      ],
      "name": "verifyNode",
      "outputs": [],
      "stateMutability": "nonpayable",
      "type": "function"
    }
  ],
  "transactionHash": "0x5a37860f1c52fc19dd3577c6c5582bccbef591fbd28b9f3dcfdfee61365d73bc",
  "args": [],
  "solcInputHash": "353faa9b830e20b3c7149e0844dbf57e",
  "bytecode": "0x608060405234801561001057600080fd5b5032600160006101000a81548173ffffffffffffffffffffffffffffffffffffffff021916908373ffffffffffffffffffffffffffffffffffffffff160217905550613872806100616000396000f3fe608060405234801561001057600080fd5b50600436106101215760003560e01c80636df0cf42116100ad578063a91ee0dc11610071578063a91ee0dc14610304578063bd106a0214610320578063c8cc2aee1461033e578063d0f710d61461035a578063d5fa2b001461038a57610121565b80636df0cf421461026257806371404156146102925780637b103999146102ae5780637d0e0e7e146102cc578063a526d83b146102e857610121565b8063392e53cd116100f4578063392e53cd146101c05780633b3b57de146101de57806346386f731461020e57806355800f871461022a5780635773fd1d1461024657610121565b806301ffc9a7146101265780630c68ba2114610156578063116191b61461018657806329ae6a7e146101a4575b600080fd5b610140600480360381019061013b9190612801565b6103a6565b60405161014d9190613212565b60405180910390f35b610170600480360381019061016b9190612686565b610408565b60405161017d9190613212565b60405180910390f35b61018e61045d565b60405161019b91906131b3565b60405180910390f35b6101be60048036038101906101b991906126d8565b610483565b005b6101c8610715565b6040516101d59190613212565b60405180910390f35b6101f860048036038101906101f391906126d8565b61076d565b60405161020591906131b3565b60405180910390f35b6102286004803603810190610223919061273d565b6107ad565b005b610244600480360381019061023f91906126d8565b610c18565b005b610260600480360381019061025b9190612853565b610f8a565b005b61027c600480360381019061027791906128fa565b6111ab565b604051610289919061322d565b60405180910390f35b6102ac60048036038101906102a79190612686565b6111d3565b005b6102b66113eb565b6040516102c39190613393565b60405180910390f35b6102e660048036038101906102e191906126d8565b611411565b005b61030260048036038101906102fd9190612686565b611711565b005b61031e6004803603810190610319919061282a565b6117a8565b005b6103286119d1565b604051610335919061322d565b60405180910390f35b610358600480360381019061035391906126d8565b6119d7565b005b610374600480360381019061036f91906127a9565b611d63565b6040516103819190613212565b60405180910390f35b6103a4600480360381019061039f9190612701565b611dbc565b005b60006301ffc9a760e01b827bffffffffffffffffffffffffffffffffffffffffffffffffffffffff191614806104015750633b3b57de60e01b827bffffffffffffffffffffffffffffffffffffffffffffffffffffffff1916145b9050919050565b60008060008373ffffffffffffffffffffffffffffffffffffffff1673ffffffffffffffffffffffffffffffffffffffff16815260200190815260200160002060009054906101000a900460ff169050919050565b600360009054906101000a900473ffffffffffffffffffffffffffffffffffffffff1681565b600061048d611ef8565b90503073ffffffffffffffffffffffffffffffffffffffff166005600084815260200190815260200160002060000160009054906101000a900473ffffffffffffffffffffffffffffffffffffffff1673ffffffffffffffffffffffffffffffffffffffff1614610533576040517f08c379a000000000000000000000000000000000000000000000000000000000815260040161052a9061348e565b60405180910390fd5b8073ffffffffffffffffffffffffffffffffffffffff166005600084815260200190815260200160002060010160009054906101000a900473ffffffffffffffffffffffffffffffffffffffff1673ffffffffffffffffffffffffffffffffffffffff16146105d7576040517f08c379a00000000000000000000000000000000000000000000000000000000081526004016105ce906133ce565b60405180910390fd5b600460009054906101000a900473ffffffffffffffffffffffffffffffffffffffff1673ffffffffffffffffffffffffffffffffffffffff16635b0fc9c383836040518363ffffffff1660e01b8152600401610634929190613248565b600060405180830381600087803b15801561064e57600080fd5b505af1158015610662573d6000803e3d6000fd5b505050506005600083815260200190815260200160002060000160006101000a81549073ffffffffffffffffffffffffffffffffffffffff02191690556005600083815260200190815260200160002060010160006101000a81549073ffffffffffffffffffffffffffffffffffffffff02191690557f7803a16d95f9ca635bdec561006625e7444d8a9f8463866643cc03af011779d38282604051610709929190613248565b60405180910390a15050565b60008073ffffffffffffffffffffffffffffffffffffffff16600160009054906101000a900473ffffffffffffffffffffffffffffffffffffffff1673ffffffffffffffffffffffffffffffffffffffff1614905090565b60006005600083815260200190815260200160002060000160009054906101000a900473ffffffffffffffffffffffffffffffffffffffff169050919050565b60006107b7611ef8565b905060006107ce6107c9838888611f09565b611f61565b905061081e8185858080601f016020809104026020016040519081016040528093929190818152602001838380828437600081840152601f19601f82011690508083019250505050505050611fcc565b61085d576040517f08c379a0000000000000000000000000000000000000000000000000000000008152600401610854906133ee565b60405180910390fd5b6000868660405160200161087292919061314e565b6040516020818303038152906040528051906020012090503073ffffffffffffffffffffffffffffffffffffffff166005600089815260200190815260200160002060000160009054906101000a900473ffffffffffffffffffffffffffffffffffffffff1673ffffffffffffffffffffffffffffffffffffffff161461092e576040517f08c379a00000000000000000000000000000000000000000000000000000000081526004016109259061346e565b60405180910390fd5b600073ffffffffffffffffffffffffffffffffffffffff166005600083815260200190815260200160002060000160009054906101000a900473ffffffffffffffffffffffffffffffffffffffff1673ffffffffffffffffffffffffffffffffffffffff16146109d3576040517f08c379a00000000000000000000000000000000000000000000000000000000081526004016109ca9061340e565b60405180910390fd5b826005600083815260200190815260200160002060000160006101000a81548173ffffffffffffffffffffffffffffffffffffffff021916908373ffffffffffffffffffffffffffffffffffffffff160217905550600460009054906101000a900473ffffffffffffffffffffffffffffffffffffffff1673ffffffffffffffffffffffffffffffffffffffff166306ab59238888306040518463ffffffff1660e01b8152600401610a87939291906132b6565b600060405180830381600087803b158015610aa157600080fd5b505af1158015610ab5573d6000803e3d6000fd5b50505050600460009054906101000a900473ffffffffffffffffffffffffffffffffffffffff1673ffffffffffffffffffffffffffffffffffffffff16631896f70a82306040518363ffffffff1660e01b8152600401610b16929190613248565b600060405180830381600087803b158015610b3057600080fd5b505af1158015610b44573d6000803e3d6000fd5b50505050600460009054906101000a900473ffffffffffffffffffffffffffffffffffffffff1673ffffffffffffffffffffffffffffffffffffffff16635b0fc9c382856040518363ffffffff1660e01b8152600401610ba5929190613248565b600060405180830381600087803b158015610bbf57600080fd5b505af1158015610bd3573d6000803e3d6000fd5b50505050807f52d7d861f09ab3d26239d492e8968629f95e9e318cf0b73bfddc441522a15fd284604051610c0791906131b3565b60405180910390a250505050505050565b6000610c22611ef8565b9050600460009054906101000a900473ffffffffffffffffffffffffffffffffffffffff1673ffffffffffffffffffffffffffffffffffffffff166302571be3836040518263ffffffff1660e01b8152600401610c7f919061322d565b60206040518083038186803b158015610c9757600080fd5b505afa158015610cab573d6000803e3d6000fd5b505050506040513d601f19601f82011682018060405250810190610ccf91906126af565b73ffffffffffffffffffffffffffffffffffffffff168173ffffffffffffffffffffffffffffffffffffffff1614610d3c576040517f08c379a0000000000000000000000000000000000000000000000000000000008152600401610d33906134ce565b60405180910390fd5b3073ffffffffffffffffffffffffffffffffffffffff16600460009054906101000a900473ffffffffffffffffffffffffffffffffffffffff1673ffffffffffffffffffffffffffffffffffffffff16630178b8bf846040518263ffffffff1660e01b8152600401610dae919061322d565b60206040518083038186803b158015610dc657600080fd5b505afa158015610dda573d6000803e3d6000fd5b505050506040513d601f19601f82011682018060405250810190610dfe91906126af565b73ffffffffffffffffffffffffffffffffffffffff1614610e54576040517f08c379a0000000000000000000000000000000000000000000000000000000008152600401610e4b906133ae565b60405180910390fd5b600073ffffffffffffffffffffffffffffffffffffffff166005600084815260200190815260200160002060000160009054906101000a900473ffffffffffffffffffffffffffffffffffffffff1673ffffffffffffffffffffffffffffffffffffffff1614610ef9576040517f08c379a0000000000000000000000000000000000000000000000000000000008152600401610ef09061356e565b60405180910390fd5b806005600084815260200190815260200160002060000160006101000a81548173ffffffffffffffffffffffffffffffffffffffff021916908373ffffffffffffffffffffffffffffffffffffffff160217905550817f52d7d861f09ab3d26239d492e8968629f95e9e318cf0b73bfddc441522a15fd282604051610f7e91906131b3565b60405180910390a25050565b600160009054906101000a900473ffffffffffffffffffffffffffffffffffffffff1673ffffffffffffffffffffffffffffffffffffffff163273ffffffffffffffffffffffffffffffffffffffff161461101a576040517f08c379a00000000000000000000000000000000000000000000000000000000081526004016110119061344e565b60405180910390fd5b6000600160006101000a81548173ffffffffffffffffffffffffffffffffffffffff021916908373ffffffffffffffffffffffffffffffffffffffff160217905550600073ffffffffffffffffffffffffffffffffffffffff168773ffffffffffffffffffffffffffffffffffffffff1614156110cc576040517f08c379a00000000000000000000000000000000000000000000000000000000081526004016110c39061350e565b60405180910390fd5b86600460006101000a81548173ffffffffffffffffffffffffffffffffffffffff021916908373ffffffffffffffffffffffffffffffffffffffff160217905550611157868680806020026020016040519081016040528093929190818152602001838360200280828437600081840152601f19601f82011690508083019250505050505050612039565b61116084612091565b61116b8383836120d5565b7f908408e307fc569b417f6cbec5d5a06f44a0a505ac0479b47d421a4b2fd6a1e63260405161119a91906131ce565b60405180910390a150505050505050565b60006111cc6111c7836000015184602001518560400151611f09565b611f61565b9050919050565b6000803273ffffffffffffffffffffffffffffffffffffffff1673ffffffffffffffffffffffffffffffffffffffff16815260200190815260200160002060009054906101000a900460ff1661125e576040517f08c379a0000000000000000000000000000000000000000000000000000000008152600401611255906134ee565b60405180910390fd5b8073ffffffffffffffffffffffffffffffffffffffff163273ffffffffffffffffffffffffffffffffffffffff1614156112cd576040517f08c379a00000000000000000000000000000000000000000000000000000000081526004016112c4906135ee565b60405180910390fd5b6000808273ffffffffffffffffffffffffffffffffffffffff1673ffffffffffffffffffffffffffffffffffffffff16815260200190815260200160002060009054906101000a900460ff16611358576040517f08c379a000000000000000000000000000000000000000000000000000000000815260040161134f9061358e565b60405180910390fd5b60008060008373ffffffffffffffffffffffffffffffffffffffff1673ffffffffffffffffffffffffffffffffffffffff16815260200190815260200160002060006101000a81548160ff0219169083151502179055507fee943cdb81826d5909c559c6b1ae6908fcaf2dbc16c4b730346736b486283e8b32826040516113e09291906131e9565b60405180910390a150565b600460009054906101000a900473ffffffffffffffffffffffffffffffffffffffff1681565b600061141b611ef8565b9050600073ffffffffffffffffffffffffffffffffffffffff166005600084815260200190815260200160002060000160009054906101000a900473ffffffffffffffffffffffffffffffffffffffff1673ffffffffffffffffffffffffffffffffffffffff16146114c2576040517f08c379a00000000000000000000000000000000000000000000000000000000081526004016114b99061354e565b60405180910390fd5b600073ffffffffffffffffffffffffffffffffffffffff166005600084815260200190815260200160002060010160009054906101000a900473ffffffffffffffffffffffffffffffffffffffff1673ffffffffffffffffffffffffffffffffffffffff1614611567576040517f08c379a000000000000000000000000000000000000000000000000000000000815260040161155e9061352e565b60405180910390fd5b8073ffffffffffffffffffffffffffffffffffffffff16600460009054906101000a900473ffffffffffffffffffffffffffffffffffffffff1673ffffffffffffffffffffffffffffffffffffffff166302571be3846040518263ffffffff1660e01b81526004016115d9919061322d565b60206040518083038186803b1580156115f157600080fd5b505afa158015611605573d6000803e3d6000fd5b505050506040513d601f19601f8201168201806040525081019061162991906126af565b73ffffffffffffffffffffffffffffffffffffffff161461167f576040517f08c379a0000000000000000000000000000000000000000000000000000000008152600401611676906135ae565b60405180910390fd5b806005600084815260200190815260200160002060010160006101000a81548173ffffffffffffffffffffffffffffffffffffffff021916908373ffffffffffffffffffffffffffffffffffffffff1602179055507fc1e082a8c26f27c26e1bf5d0ce7ddd579ec7f6d7eb3ea90d8abd6c40991bae368282604051611705929190613248565b60405180910390a15050565b6000803273ffffffffffffffffffffffffffffffffffffffff1673ffffffffffffffffffffffffffffffffffffffff16815260200190815260200160002060009054906101000a900460ff1661179c576040517f08c379a0000000000000000000000000000000000000000000000000000000008152600401611793906134ee565b60405180910390fd5b6117a581612137565b50565b6000803273ffffffffffffffffffffffffffffffffffffffff1673ffffffffffffffffffffffffffffffffffffffff16815260200190815260200160002060009054906101000a900460ff16611833576040517f08c379a000000000000000000000000000000000000000000000000000000000815260040161182a906134ee565b60405180910390fd5b600073ffffffffffffffffffffffffffffffffffffffff168173ffffffffffffffffffffffffffffffffffffffff1614156118a3576040517f08c379a000000000000000000000000000000000000000000000000000000000815260040161189a9061350e565b60405180910390fd5b600460009054906101000a900473ffffffffffffffffffffffffffffffffffffffff1673ffffffffffffffffffffffffffffffffffffffff168173ffffffffffffffffffffffffffffffffffffffff161415611934576040517f08c379a000000000000000000000000000000000000000000000000000000000815260040161192b9061362e565b60405180910390fd5b80600460006101000a81548173ffffffffffffffffffffffffffffffffffffffff021916908373ffffffffffffffffffffffffffffffffffffffff1602179055507fdb0239c63d4033dcdd21bd44f8dd479a03efbae12f6bbe27c0a5f923d26514cc600460009054906101000a900473ffffffffffffffffffffffffffffffffffffffff166040516119c691906131b3565b60405180910390a150565b60025481565b60006119e1611ef8565b9050600073ffffffffffffffffffffffffffffffffffffffff166005600084815260200190815260200160002060000160009054906101000a900473ffffffffffffffffffffffffffffffffffffffff1673ffffffffffffffffffffffffffffffffffffffff1614611a88576040517f08c379a0000000000000000000000000000000000000000000000000000000008152600401611a7f9061354e565b60405180910390fd5b8073ffffffffffffffffffffffffffffffffffffffff166005600084815260200190815260200160002060010160009054906101000a900473ffffffffffffffffffffffffffffffffffffffff1673ffffffffffffffffffffffffffffffffffffffff1614611b2c576040517f08c379a0000000000000000000000000000000000000000000000000000000008152600401611b23906133ce565b60405180910390fd5b3073ffffffffffffffffffffffffffffffffffffffff16600460009054906101000a900473ffffffffffffffffffffffffffffffffffffffff1673ffffffffffffffffffffffffffffffffffffffff166302571be3846040518263ffffffff1660e01b8152600401611b9e919061322d565b60206040518083038186803b158015611bb657600080fd5b505afa158015611bca573d6000803e3d6000fd5b505050506040513d601f19601f82011682018060405250810190611bee91906126af565b73ffffffffffffffffffffffffffffffffffffffff1614611c44576040517f08c379a0000000000000000000000000000000000000000000000000000000008152600401611c3b906135ae565b60405180910390fd5b306005600084815260200190815260200160002060000160006101000a81548173ffffffffffffffffffffffffffffffffffffffff021916908373ffffffffffffffffffffffffffffffffffffffff160217905550600460009054906101000a900473ffffffffffffffffffffffffffffffffffffffff1673ffffffffffffffffffffffffffffffffffffffff16631896f70a83306040518363ffffffff1660e01b8152600401611cf6929190613248565b600060405180830381600087803b158015611d1057600080fd5b505af1158015611d24573d6000803e3d6000fd5b505050507fcefbe9dbadcf675eef14e23810996ff38541fc26b4dd77cd6724b0eedc96f20082604051611d57919061322d565b60405180910390a15050565b6000611db38484848080601f016020809104026020016040519081016040528093929190818152602001838380828437600081840152601f19601f82011690508083019250505050505050611fcc565b90509392505050565b611dc4611ef8565b73ffffffffffffffffffffffffffffffffffffffff166005600084815260200190815260200160002060000160009054906101000a900473ffffffffffffffffffffffffffffffffffffffff1673ffffffffffffffffffffffffffffffffffffffff1614611e67576040517f08c379a0000000000000000000000000000000000000000000000000000000008152600401611e5e906134ce565b60405180910390fd5b806005600084815260200190815260200160002060000160006101000a81548173ffffffffffffffffffffffffffffffffffffffff021916908373ffffffffffffffffffffffffffffffffffffffff160217905550817f52d7d861f09ab3d26239d492e8968629f95e9e318cf0b73bfddc441522a15fd282604051611eec91906131b3565b60405180910390a25050565b6000611f0460286122c6565b905090565b60007f621363c539a3aa1024c8837ca1dc095db03b7f9512b3a95ecb429aae7fd953ed848484604051602001611f429493929190613271565b6040516020818303038152906040528051906020012090509392505050565b60006040518060400160405280600281526020017f190100000000000000000000000000000000000000000000000000000000000081525060025483604051602001611faf9392919061317a565b604051602081830303815290604052805190602001209050919050565b600080611fe2838561235b90919063ffffffff16565b90506000808273ffffffffffffffffffffffffffffffffffffffff1673ffffffffffffffffffffffffffffffffffffffff16815260200190815260200160002060009054906101000a900460ff1691505092915050565b6000815114156120515761204c32612137565b61208e565b60008151905060005b8181101561208b5761207e83828151811061207157fe5b6020026020010151612137565b808060010191505061205a565b50505b50565b80600360006101000a81548173ffffffffffffffffffffffffffffffffffffffff021916908373ffffffffffffffffffffffffffffffffffffffff16021790555050565b60004690507fd87cd6ef79d4e2b95e15ce8abf732db51ec771f1ca2edccf22a46c729ac564728484833086604051602001612115969594939291906132ed565b6040516020818303038152906040528051906020012060028190555050505050565b600073ffffffffffffffffffffffffffffffffffffffff168173ffffffffffffffffffffffffffffffffffffffff1614156121a7576040517f08c379a000000000000000000000000000000000000000000000000000000000815260040161219e9061342e565b60405180910390fd5b6000808273ffffffffffffffffffffffffffffffffffffffff1673ffffffffffffffffffffffffffffffffffffffff16815260200190815260200160002060009054906101000a900460ff1615612233576040517f08c379a000000000000000000000000000000000000000000000000000000000815260040161222a906135ce565b60405180910390fd5b60016000808373ffffffffffffffffffffffffffffffffffffffff1673ffffffffffffffffffffffffffffffffffffffff16815260200190815260200160002060006101000a81548160ff0219169083151502179055507fbc3292102fa77e083913064b282926717cdfaede4d35f553d66366c0a3da755a32826040516122bb9291906131e9565b60405180910390a150565b600080600090506122d5612416565b1561234e576000836000369050039050612346600036839060148501926122fe939291906136a2565b8080601f016020809104026020016040519081016040528093929190818152602001838380828437600081840152601f19601f820116905080830192505050505050506124c3565b915050612352565b3390505b80915050919050565b6000806000905060418351141561240c5760008060006020860151925060408601519150606086015160001a9050601b8160ff16101561239c57601b810190505b601b8160ff1614806123b15750601c8160ff16145b1561240857600187828585604051600081526020016040526040516123d9949392919061334e565b6020604051602081039080840390855afa1580156123fb573d6000803e3d6000fd5b5050506020604051035193505b5050505b8091505092915050565b600080600360009054906101000a900473ffffffffffffffffffffffffffffffffffffffff1673ffffffffffffffffffffffffffffffffffffffff163373ffffffffffffffffffffffffffffffffffffffff1614156124bc57602c600036905010156124b7576040517f08c379a00000000000000000000000000000000000000000000000000000000081526004016124ae906134ae565b60405180910390fd5b600190505b8091505090565b600080601483511461250a576040517f08c379a00000000000000000000000000000000000000000000000000000000081526004016125019061360e565b60405180910390fd5b6c01000000000000000000000000602084015104905080915050919050565b60008135905061253881613809565b92915050565b60008151905061254d81613809565b92915050565b60008083601f84011261256557600080fd5b8235905067ffffffffffffffff81111561257e57600080fd5b60208301915083602082028301111561259657600080fd5b9250929050565b6000813590506125ac81613820565b92915050565b6000813590506125c181613837565b92915050565b60008083601f8401126125d957600080fd5b8235905067ffffffffffffffff8111156125f257600080fd5b60208301915083600182028301111561260a57600080fd5b9250929050565b6000813590506126208161384e565b92915050565b60006060828403121561263857600080fd5b612642606061364e565b9050600061265284828501612529565b60008301525060206126668482850161259d565b602083015250604061267a8482850161259d565b60408301525092915050565b60006020828403121561269857600080fd5b60006126a684828501612529565b91505092915050565b6000602082840312156126c157600080fd5b60006126cf8482850161253e565b91505092915050565b6000602082840312156126ea57600080fd5b60006126f88482850161259d565b91505092915050565b6000806040838503121561271457600080fd5b60006127228582860161259d565b925050602061273385828601612529565b9150509250929050565b6000806000806060858703121561275357600080fd5b60006127618782880161259d565b94505060206127728782880161259d565b935050604085013567ffffffffffffffff81111561278f57600080fd5b61279b878288016125c7565b925092505092959194509250565b6000806000604084860312156127be57600080fd5b60006127cc8682870161259d565b935050602084013567ffffffffffffffff8111156127e957600080fd5b6127f5868287016125c7565b92509250509250925092565b60006020828403121561281357600080fd5b6000612821848285016125b2565b91505092915050565b60006020828403121561283c57600080fd5b600061284a84828501612611565b91505092915050565b600080600080600080600060c0888a03121561286e57600080fd5b600061287c8a828b01612611565b975050602088013567ffffffffffffffff81111561289957600080fd5b6128a58a828b01612553565b965096505060406128b88a828b01612529565b94505060606128c98a828b0161259d565b93505060806128da8a828b0161259d565b92505060a06128eb8a828b0161259d565b91505092959891949750929550565b60006060828403121561290c57600080fd5b600061291a84828501612626565b91505092915050565b61292c81613772565b82525050565b61293b816136d5565b82525050565b61294a816136e7565b82525050565b612959816136f3565b82525050565b61297061296b826136f3565b6137ff565b82525050565b61297f81613784565b82525050565b60006129908261367b565b61299a8185613697565b93506129aa8185602086016137cc565b80840191505092915050565b60006129c3602483613686565b91507f454e53436f6e74726f6c6c65723a20696e76616c6964206e6f6465207265736f60008301527f6c766572000000000000000000000000000000000000000000000000000000006020830152604082019050919050565b6000612a29602183613686565b91507f454e53436f6e74726f6c6c65723a20696e76616c6964206e6f6465206f776e6560008301527f72000000000000000000000000000000000000000000000000000000000000006020830152604082019050919050565b6000612a8f602983613686565b91507f454e53436f6e74726f6c6c65723a20696e76616c696420677561726469616e2060008301527f7369676e617475726500000000000000000000000000000000000000000000006020830152604082019050919050565b6000612af5602283613686565b91507f454e53436f6e74726f6c6c65723a206c6162656c20616c72656164792074616b60008301527f656e0000000000000000000000000000000000000000000000000000000000006020830152604082019050919050565b6000612b5b602083613686565b91507f477561726465643a2063616e6e6f74206164642030783020677561726469616e6000830152602082019050919050565b6000612b9b602f83613686565b91507f496e697469616c697a61626c653a2074782e6f726967696e206973206e6f742060008301527f74686520696e697469616c697a657200000000000000000000000000000000006020830152604082019050919050565b6000612c01601b83613686565b91507f454e53436f6e74726f6c6c65723a20696e76616c6964206e6f646500000000006000830152602082019050919050565b6000612c41602183613686565b91507f454e53436f6e74726f6c6c65723a206e6f646520646f65736e2774206578697360008301527f74000000000000000000000000000000000000000000000000000000000000006020830152604082019050919050565b6000612ca7602283613686565b91507f47617465776179526563697069656e743a20696e76616c6964206d73672e646160008301527f74610000000000000000000000000000000000000000000000000000000000006020830152604082019050919050565b6000612d0d602b83613686565b91507f454e53436f6e74726f6c6c65723a2063616c6c6572206973206e6f742074686560008301527f206e6f6465206f776e65720000000000000000000000000000000000000000006020830152604082019050919050565b6000612d73602683613686565b91507f477561726465643a2074782e6f726967696e206973206e6f742074686520677560008301527f61726469616e00000000000000000000000000000000000000000000000000006020830152604082019050919050565b6000612dd9602683613686565b91507f454e53436f6e74726f6c6c65723a2063616e6e6f74207365742030783020726560008301527f67697374727900000000000000000000000000000000000000000000000000006020830152604082019050919050565b6000612e3f602583613686565b91507f454e53436f6e74726f6c6c65723a206e6f646520616c7265616479207375626d60008301527f69747465640000000000000000000000000000000000000000000000000000006020830152604082019050919050565b6000612ea5602283613686565b91507f454e53436f6e74726f6c6c65723a206e6f646520616c7265616479206578697360008301527f74730000000000000000000000000000000000000000000000000000000000006020830152604082019050919050565b6000612f0b602383613686565b91507f454e53436f6e74726f6c6c65723a206e6f646520616c726561647920696e207360008301527f796e6300000000000000000000000000000000000000000000000000000000006020830152604082019050919050565b6000612f71601f83613686565b91507f477561726465643a20677561726469616e20646f65736e2774206578697374006000830152602082019050919050565b6000612fb1602583613686565b91507f454e53436f6e74726f6c6c65723a20696e76616c696420656e73206e6f64652060008301527f6f776e65720000000000000000000000000000000000000000000000000000006020830152604082019050919050565b6000613017602083613686565b91507f477561726465643a20677561726469616e20616c7265616479206578697374736000830152602082019050919050565b6000613057601b83613686565b91507f477561726465643a2063616e6e6f742072656d6f76652073656c6600000000006000830152602082019050919050565b6000613097601d83613686565b91507f42797465734c69623a20696e76616c69642064617461206c656e6774680000006000830152602082019050919050565b60006130d7602383613686565b91507f454e53436f6e74726f6c6c65723a20726567697374727920616c72656164792060008301527f73657400000000000000000000000000000000000000000000000000000000006020830152604082019050919050565b6131398161375b565b82525050565b61314881613765565b82525050565b600061315a828561295f565b60208201915061316a828461295f565b6020820191508190509392505050565b60006131868286612985565b9150613192828561295f565b6020820191506131a2828461295f565b602082019150819050949350505050565b60006020820190506131c86000830184612932565b92915050565b60006020820190506131e36000830184612923565b92915050565b60006040820190506131fe6000830185612923565b61320b6020830184612932565b9392505050565b60006020820190506132276000830184612941565b92915050565b60006020820190506132426000830184612950565b92915050565b600060408201905061325d6000830185612950565b61326a6020830184612932565b9392505050565b60006080820190506132866000830187612950565b6132936020830186612932565b6132a06040830185612950565b6132ad6060830184612950565b95945050505050565b60006060820190506132cb6000830186612950565b6132d86020830185612950565b6132e56040830184612932565b949350505050565b600060c0820190506133026000830189612950565b61330f6020830188612950565b61331c6040830187612950565b6133296060830186613130565b6133366080830185612932565b61334360a0830184612950565b979650505050505050565b60006080820190506133636000830187612950565b613370602083018661313f565b61337d6040830185612950565b61338a6060830184612950565b95945050505050565b60006020820190506133a86000830184612976565b92915050565b600060208201905081810360008301526133c7816129b6565b9050919050565b600060208201905081810360008301526133e781612a1c565b9050919050565b6000602082019050818103600083015261340781612a82565b9050919050565b6000602082019050818103600083015261342781612ae8565b9050919050565b6000602082019050818103600083015261344781612b4e565b9050919050565b6000602082019050818103600083015261346781612b8e565b9050919050565b6000602082019050818103600083015261348781612bf4565b9050919050565b600060208201905081810360008301526134a781612c34565b9050919050565b600060208201905081810360008301526134c781612c9a565b9050919050565b600060208201905081810360008301526134e781612d00565b9050919050565b6000602082019050818103600083015261350781612d66565b9050919050565b6000602082019050818103600083015261352781612dcc565b9050919050565b6000602082019050818103600083015261354781612e32565b9050919050565b6000602082019050818103600083015261356781612e98565b9050919050565b6000602082019050818103600083015261358781612efe565b9050919050565b600060208201905081810360008301526135a781612f64565b9050919050565b600060208201905081810360008301526135c781612fa4565b9050919050565b600060208201905081810360008301526135e78161300a565b9050919050565b600060208201905081810360008301526136078161304a565b9050919050565b600060208201905081810360008301526136278161308a565b9050919050565b60006020820190508181036000830152613647816130ca565b9050919050565b6000604051905081810181811067ffffffffffffffff8211171561367157600080fd5b8060405250919050565b600081519050919050565b600082825260208201905092915050565b600081905092915050565b600080858511156136b257600080fd5b838611156136bf57600080fd5b6001850283019150848603905094509492505050565b60006136e08261373b565b9050919050565b60008115159050919050565b6000819050919050565b60007fffffffff0000000000000000000000000000000000000000000000000000000082169050919050565b6000613734826136d5565b9050919050565b600073ffffffffffffffffffffffffffffffffffffffff82169050919050565b6000819050919050565b600060ff82169050919050565b600061377d826137a8565b9050919050565b600061378f82613796565b9050919050565b60006137a18261373b565b9050919050565b60006137b3826137ba565b9050919050565b60006137c58261373b565b9050919050565b60005b838110156137ea5780820151818401526020810190506137cf565b838111156137f9576000848401525b50505050565b6000819050919050565b613812816136d5565b811461381d57600080fd5b50565b613829816136f3565b811461383457600080fd5b50565b613840816136fd565b811461384b57600080fd5b50565b61385781613729565b811461386257600080fd5b5056fea164736f6c634300060c000a",
  "devdoc": {
    "author": "Stanisaw Gogowski <stan@pillarproject.io>",
    "details": "The process of adding root node consists of 3 steps: 1. `submitNode` - should be called from ENS node owner, 2. Change ENS node owner in ENS registry to ENS controller, 3. `verifyNode` - should be called from previous ENS node owner, To register sub node, `msg.sender` need to send valid signature from one of guardian key. Once registration is complete `msg.sender` becoming both node owner and `addr` record value. After registration sub node cannot be replaced.",
    "events": {
      "AddrChanged(bytes32,address)": {
        "details": "Emitted when the address field in node resolver is changed",
        "params": {
          "addr": "new address",
          "node": "node name hash"
        }
      },
      "NodeReleased(bytes32,address)": {
        "details": "Emitted when new node is released",
        "params": {
          "node": "node name hash",
          "owner": "owner address"
        }
      },
      "NodeSubmitted(bytes32,address)": {
        "details": "Emitted when new node is submitted",
        "params": {
          "node": "node name hash",
          "owner": "owner address"
        }
      },
      "NodeVerified(bytes32)": {
        "details": "Emitted when the existing owner is verified",
        "params": {
          "node": "node name hash"
        }
      },
      "RegistryChanged(address)": {
        "details": "Emitted when ENS registry address is changed",
        "params": {
          "registry": "registry address"
        }
      }
    },
    "kind": "dev",
    "methods": {
      "addGuardian(address)": {
        "params": {
          "guardian": "guardian address"
        }
      },
      "addr(bytes32)": {
        "details": "Used in address resolver",
        "params": {
          "node": "node name hash"
        }
      },
      "constructor": {
        "details": "Public constructor"
      },
      "hashSubNodeRegistration((address,bytes32,bytes32))": {
        "params": {
          "subNodeRegistration": "struct"
        },
        "returns": {
          "_0": "hash"
        }
      },
      "initialize(address,address[],address,bytes32,bytes32,bytes32)": {
        "params": {
          "gateway_": "gateway address",
          "registry_": "ENS registry address",
          "typedDataDomainNameHash": "hash of a typed data domain name",
          "typedDataDomainSalt": "typed data salt",
          "typedDataDomainVersionHash": "hash of a typed data domain version"
        }
      },
      "isGuardian(address)": {
        "params": {
          "guardian": "guardian address"
        },
        "returns": {
          "_0": "true when guardian exists"
        }
      },
      "isInitialized()": {
        "returns": {
          "_0": "true when contract is initialized"
        }
      },
      "registerSubNode(bytes32,bytes32,bytes)": {
        "params": {
          "guardianSignature": "guardian signature",
          "label": "label hash",
          "node": "node name hash"
        }
      },
      "releaseNode(bytes32)": {
        "details": "Should be called from the previous ENS node owner",
        "params": {
          "node": "node name hash"
        }
      },
      "removeGuardian(address)": {
        "params": {
          "guardian": "guardian address"
        }
      },
      "setAddr(bytes32,address)": {
        "details": "Used in address resolver",
        "params": {
          "addr": "address",
          "node": "node name hash"
        }
      },
      "setRegistry(address)": {
        "params": {
          "registry_": "registry address"
        }
      },
      "submitNode(bytes32)": {
        "details": "Should be called from the current ENS node owner",
        "params": {
          "node": "node name hash"
        }
      },
      "supportsInterface(bytes4)": {
        "params": {
          "interfaceID": "method signature"
        },
        "returns": {
          "_0": "true when contract supports interface"
        }
      },
      "syncAddr(bytes32)": {
        "params": {
          "node": "node name hash"
        }
      },
      "verifyGuardianSignature(bytes32,bytes)": {
        "params": {
          "messageHash": "message hash",
          "signature": "signature"
        },
        "returns": {
          "_0": "true on correct guardian signature"
        }
      },
      "verifyNode(bytes32)": {
        "details": "Should be called from the previous ENS node owner",
        "params": {
          "node": "node name hash"
        }
      }
    },
    "title": "ENS controller",
    "version": 1
  },
  "userdoc": {
    "kind": "user",
    "methods": {
      "addGuardian(address)": {
        "notice": "Adds a new guardian"
      },
      "addr(bytes32)": {
        "notice": "Gets address"
      },
      "hashSubNodeRegistration((address,bytes32,bytes32))": {
        "notice": "Hashes `SubNodeRegistration` typed data"
      },
      "initialize(address,address[],address,bytes32,bytes32,bytes32)": {
        "notice": "Initializes `ENSController` contract"
      },
      "isGuardian(address)": {
        "notice": "Check if guardian exists"
      },
      "isInitialized()": {
        "notice": "Check if contract is initialized"
      },
      "registerSubNode(bytes32,bytes32,bytes)": {
        "notice": "Registers sub node"
      },
      "releaseNode(bytes32)": {
        "notice": "Releases node"
      },
      "removeGuardian(address)": {
        "notice": "Removes the existing guardian"
      },
      "setAddr(bytes32,address)": {
        "notice": "Sets address"
      },
      "setRegistry(address)": {
        "notice": "Sets registry"
      },
      "submitNode(bytes32)": {
        "notice": "Submits node"
      },
      "supportsInterface(bytes4)": {
        "notice": "Checks if contract supports interface"
      },
      "syncAddr(bytes32)": {
        "notice": "Sync address"
      },
      "verifyGuardianSignature(bytes32,bytes)": {
        "notice": "Verifies guardian signature"
      },
      "verifyNode(bytes32)": {
        "notice": "Verifies node"
      }
    },
    "notice": "ENS subnode registrar",
    "version": 1
  },
  "storageLayout": {
    "storage": [
      {
        "astId": 40,
        "contract": "src/ens/ENSController.sol:ENSController",
        "label": "guardians",
        "offset": 0,
        "slot": "0",
        "type": "t_mapping(t_address,t_bool)"
      },
      {
        "astId": 824,
        "contract": "src/ens/ENSController.sol:ENSController",
        "label": "initializer",
        "offset": 0,
        "slot": "1",
        "type": "t_address"
      },
      {
        "astId": 1252,
        "contract": "src/ens/ENSController.sol:ENSController",
        "label": "typedDataDomainSeparator",
        "offset": 0,
        "slot": "2",
        "type": "t_bytes32"
      },
      {
        "astId": 3150,
        "contract": "src/ens/ENSController.sol:ENSController",
        "label": "gateway",
        "offset": 0,
        "slot": "3",
        "type": "t_address"
      },
      {
        "astId": 1344,
        "contract": "src/ens/ENSController.sol:ENSController",
        "label": "registry",
        "offset": 0,
        "slot": "4",
        "type": "t_contract(ENSRegistry)2162"
      },
      {
        "astId": 1348,
        "contract": "src/ens/ENSController.sol:ENSController",
        "label": "nodes",
        "offset": 0,
        "slot": "5",
        "type": "t_mapping(t_bytes32,t_struct(Node)1330_storage)"
      }
    ],
    "types": {
      "t_address": {
        "encoding": "inplace",
        "label": "address",
        "numberOfBytes": "20"
      },
      "t_bool": {
        "encoding": "inplace",
        "label": "bool",
        "numberOfBytes": "1"
      },
      "t_bytes32": {
        "encoding": "inplace",
        "label": "bytes32",
        "numberOfBytes": "32"
      },
      "t_contract(ENSRegistry)2162": {
        "encoding": "inplace",
        "label": "contract ENSRegistry",
        "numberOfBytes": "20"
      },
      "t_mapping(t_address,t_bool)": {
        "encoding": "mapping",
        "key": "t_address",
        "label": "mapping(address => bool)",
        "numberOfBytes": "32",
        "value": "t_bool"
      },
      "t_mapping(t_bytes32,t_struct(Node)1330_storage)": {
        "encoding": "mapping",
        "key": "t_bytes32",
        "label": "mapping(bytes32 => struct ENSController.Node)",
        "numberOfBytes": "32",
        "value": "t_struct(Node)1330_storage"
      },
      "t_struct(Node)1330_storage": {
        "encoding": "inplace",
        "label": "struct ENSController.Node",
        "members": [
          {
            "astId": 1327,
            "contract": "src/ens/ENSController.sol:ENSController",
            "label": "addr",
            "offset": 0,
            "slot": "0",
            "type": "t_address"
          },
          {
            "astId": 1329,
            "contract": "src/ens/ENSController.sol:ENSController",
            "label": "owner",
            "offset": 0,
            "slot": "1",
            "type": "t_address"
          }
        ],
        "numberOfBytes": "64"
      }
    }
  }
}