{
  "address": "0x523C92966e9d2067ba547f59D51E907c20FD8761",
  "abi": [
    {
      "inputs": [],
      "stateMutability": "nonpayable",
      "type": "constructor"
    },
    {
      "anonymous": false,
      "inputs": [
        {
          "indexed": false,
          "internalType": "address",
          "name": "initializer",
          "type": "address"
        }
      ],
      "name": "Initialized",
      "type": "event"
    },
    {
      "inputs": [],
      "name": "ADDR_REVERSE_NODE",
      "outputs": [
        {
          "internalType": "bytes32",
          "name": "",
          "type": "bytes32"
        }
      ],
      "stateMutability": "view",
      "type": "function"
    },
    {
      "inputs": [
        {
          "internalType": "address",
          "name": "owner",
          "type": "address"
        }
      ],
      "name": "claim",
      "outputs": [
        {
          "internalType": "bytes32",
          "name": "",
          "type": "bytes32"
        }
      ],
      "stateMutability": "nonpayable",
      "type": "function"
    },
    {
      "inputs": [
        {
          "internalType": "address",
          "name": "owner",
          "type": "address"
        },
        {
          "internalType": "address",
          "name": "resolver_",
          "type": "address"
        }
      ],
      "name": "claimWithResolver",
      "outputs": [
        {
          "internalType": "bytes32",
          "name": "",
          "type": "bytes32"
        }
      ],
      "stateMutability": "nonpayable",
      "type": "function"
    },
    {
      "inputs": [
        {
          "internalType": "contract ENSRegistry",
          "name": "registry_",
          "type": "address"
        },
        {
          "internalType": "contract ENSNameResolver",
          "name": "resolver_",
          "type": "address"
        }
      ],
      "name": "initialize",
      "outputs": [],
      "stateMutability": "nonpayable",
      "type": "function"
    },
    {
      "inputs": [],
      "name": "isInitialized",
      "outputs": [
        {
          "internalType": "bool",
          "name": "",
          "type": "bool"
        }
      ],
      "stateMutability": "view",
      "type": "function"
    },
    {
      "inputs": [
        {
          "internalType": "address",
          "name": "addr_",
          "type": "address"
        }
      ],
      "name": "node",
      "outputs": [
        {
          "internalType": "bytes32",
          "name": "",
          "type": "bytes32"
        }
      ],
      "stateMutability": "pure",
      "type": "function"
    },
    {
      "inputs": [],
      "name": "registry",
      "outputs": [
        {
          "internalType": "contract ENSRegistry",
          "name": "",
          "type": "address"
        }
      ],
      "stateMutability": "view",
      "type": "function"
    },
    {
      "inputs": [],
      "name": "resolver",
      "outputs": [
        {
          "internalType": "contract ENSNameResolver",
          "name": "",
          "type": "address"
        }
      ],
      "stateMutability": "view",
      "type": "function"
    },
    {
      "inputs": [
        {
          "internalType": "string",
          "name": "name",
          "type": "string"
        }
      ],
      "name": "setName",
      "outputs": [
        {
          "internalType": "bytes32",
          "name": "",
          "type": "bytes32"
        }
      ],
      "stateMutability": "nonpayable",
      "type": "function"
    }
  ],
  "transactionHash": "0x86ff6b53349a71efc14b4b911857b68df96de3f4d06b5a632aadb845933f71b1",
  "args": [],
  "solcInputHash": "1bdf84d4bd28700579af1cc4796e2cae",
  "bytecode": "0x608060405234801561001057600080fd5b50326000806101000a81548173ffffffffffffffffffffffffffffffffffffffff021916908373ffffffffffffffffffffffffffffffffffffffff160217905550610df8806100606000396000f3fe608060405234801561001057600080fd5b50600436106100935760003560e01c8063485cc95511610066578063485cc955146101bc5780637b103999146102205780637cf8a2eb14610254578063bffbe61c14610272578063c47f0027146102ca57610093565b806304f3bcec146100985780630f5a5466146100cc5780631e83409a14610144578063392e53cd1461019c575b600080fd5b6100a0610399565b604051808273ffffffffffffffffffffffffffffffffffffffff16815260200191505060405180910390f35b61012e600480360360408110156100e257600080fd5b81019080803573ffffffffffffffffffffffffffffffffffffffff169060200190929190803573ffffffffffffffffffffffffffffffffffffffff1690602001909291905050506103bf565b6040518082815260200191505060405180910390f35b6101866004803603602081101561015a57600080fd5b81019080803573ffffffffffffffffffffffffffffffffffffffff1690602001909291905050506103d3565b6040518082815260200191505060405180910390f35b6101a46103e7565b60405180821515815260200191505060405180910390f35b61021e600480360360408110156101d257600080fd5b81019080803573ffffffffffffffffffffffffffffffffffffffff169060200190929190803573ffffffffffffffffffffffffffffffffffffffff16906020019092919050505061043d565b005b6102286105f5565b604051808273ffffffffffffffffffffffffffffffffffffffff16815260200191505060405180910390f35b61025c61061b565b6040518082815260200191505060405180910390f35b6102b46004803603602081101561028857600080fd5b81019080803573ffffffffffffffffffffffffffffffffffffffff169060200190929190505050610642565b6040518082815260200191505060405180910390f35b610383600480360360208110156102e057600080fd5b81019080803590602001906401000000008111156102fd57600080fd5b82018360208201111561030f57600080fd5b8035906020019184600183028401116401000000008311171561033157600080fd5b91908080601f016020809104026020016040519081016040528093929190818152602001838380828437600081840152601f19601f8201169050808301925050505050505091929192905050506106bb565b6040518082815260200191505060405180910390f35b600260009054906101000a900473ffffffffffffffffffffffffffffffffffffffff1681565b60006103cb83836107ef565b905092915050565b60006103e08260006107ef565b9050919050565b60008073ffffffffffffffffffffffffffffffffffffffff1660008054906101000a900473ffffffffffffffffffffffffffffffffffffffff1673ffffffffffffffffffffffffffffffffffffffff1614905090565b60008054906101000a900473ffffffffffffffffffffffffffffffffffffffff1673ffffffffffffffffffffffffffffffffffffffff163273ffffffffffffffffffffffffffffffffffffffff16146104e1576040517f08c379a000000000000000000000000000000000000000000000000000000000815260040180806020018281038252602f815260200180610dbd602f913960400191505060405180910390fd5b60008060006101000a81548173ffffffffffffffffffffffffffffffffffffffff021916908373ffffffffffffffffffffffffffffffffffffffff16021790555081600160006101000a81548173ffffffffffffffffffffffffffffffffffffffff021916908373ffffffffffffffffffffffffffffffffffffffff16021790555080600260006101000a81548173ffffffffffffffffffffffffffffffffffffffff021916908373ffffffffffffffffffffffffffffffffffffffff1602179055507f908408e307fc569b417f6cbec5d5a06f44a0a505ac0479b47d421a4b2fd6a1e632604051808273ffffffffffffffffffffffffffffffffffffffff16815260200191505060405180910390a15050565b600160009054906101000a900473ffffffffffffffffffffffffffffffffffffffff1681565b7f91d1777781884d03a6757a803996e38de2a42967fb37eeaca72729271025a9e260001b81565b60007f91d1777781884d03a6757a803996e38de2a42967fb37eeaca72729271025a9e260001b6106878373ffffffffffffffffffffffffffffffffffffffff16610d4d565b6040516020018083815260200182815260200192505050604051602081830303815290604052805190602001209050919050565b6000806106ea30600260009054906101000a900473ffffffffffffffffffffffffffffffffffffffff166107ef565b9050600260009054906101000a900473ffffffffffffffffffffffffffffffffffffffff1673ffffffffffffffffffffffffffffffffffffffff16637737221382856040518363ffffffff1660e01b81526004018083815260200180602001828103825283818151815260200191508051906020019080838360005b83811015610781578082015181840152602081019050610766565b50505050905090810190601f1680156107ae5780820380516001836020036101000a031916815260200191505b509350505050600060405180830381600087803b1580156107ce57600080fd5b505af11580156107e2573d6000803e3d6000fd5b5050505080915050919050565b6000806108113373ffffffffffffffffffffffffffffffffffffffff16610d4d565b905060007f91d1777781884d03a6757a803996e38de2a42967fb37eeaca72729271025a9e260001b8260405160200180838152602001828152602001925050506040516020818303038152906040528051906020012090506000600160009054906101000a900473ffffffffffffffffffffffffffffffffffffffff1673ffffffffffffffffffffffffffffffffffffffff166302571be3836040518263ffffffff1660e01b81526004018082815260200191505060206040518083038186803b1580156108de57600080fd5b505afa1580156108f2573d6000803e3d6000fd5b505050506040513d602081101561090857600080fd5b81019080805190602001909291905050509050600073ffffffffffffffffffffffffffffffffffffffff168573ffffffffffffffffffffffffffffffffffffffff1614158015610a315750600160009054906101000a900473ffffffffffffffffffffffffffffffffffffffff1673ffffffffffffffffffffffffffffffffffffffff16630178b8bf836040518263ffffffff1660e01b81526004018082815260200191505060206040518083038186803b1580156109c657600080fd5b505afa1580156109da573d6000803e3d6000fd5b505050506040513d60208110156109f057600080fd5b810190808051906020019092919050505073ffffffffffffffffffffffffffffffffffffffff168573ffffffffffffffffffffffffffffffffffffffff1614155b15610c13573073ffffffffffffffffffffffffffffffffffffffff168173ffffffffffffffffffffffffffffffffffffffff1614610b6757600160009054906101000a900473ffffffffffffffffffffffffffffffffffffffff1673ffffffffffffffffffffffffffffffffffffffff166306ab59237f91d1777781884d03a6757a803996e38de2a42967fb37eeaca72729271025a9e260001b85306040518463ffffffff1660e01b8152600401808481526020018381526020018273ffffffffffffffffffffffffffffffffffffffff1681526020019350505050602060405180830381600087803b158015610b2757600080fd5b505af1158015610b3b573d6000803e3d6000fd5b505050506040513d6020811015610b5157600080fd5b8101908080519060200190929190505050503090505b600160009054906101000a900473ffffffffffffffffffffffffffffffffffffffff1673ffffffffffffffffffffffffffffffffffffffff16631896f70a83876040518363ffffffff1660e01b8152600401808381526020018273ffffffffffffffffffffffffffffffffffffffff16815260200192505050600060405180830381600087803b158015610bfa57600080fd5b505af1158015610c0e573d6000803e3d6000fd5b505050505b8573ffffffffffffffffffffffffffffffffffffffff168173ffffffffffffffffffffffffffffffffffffffff1614610d4157600160009054906101000a900473ffffffffffffffffffffffffffffffffffffffff1673ffffffffffffffffffffffffffffffffffffffff166306ab59237f91d1777781884d03a6757a803996e38de2a42967fb37eeaca72729271025a9e260001b85896040518463ffffffff1660e01b8152600401808481526020018381526020018273ffffffffffffffffffffffffffffffffffffffff1681526020019350505050602060405180830381600087803b158015610d0457600080fd5b505af1158015610d18573d6000803e3d6000fd5b505050506040513d6020811015610d2e57600080fd5b8101908080519060200190929190505050505b81935050505092915050565b6000807f303132333435363738396162636465660000000000000000000000000000000060285b6000811115610daa5760018103905081600f86161a815360108504945060018103905081600f86161a8153601085049450610d74565b5060286000209150508091505091905056fe496e697469616c697a61626c653a2074782e6f726967696e206973206e6f742074686520696e697469616c697a6572a164736f6c634300060c000a",
  "devdoc": {
    "details": "Base on https://github.com/ensdomains/ens/blob/ff0f41747c05f1598973b0fe7ad0d9e09565dfcd/contracts/ReverseRegistrar.sol",
    "kind": "dev",
    "methods": {
      "constructor": {
        "details": "Public constructor"
      },
      "initialize(address,address)": {
        "params": {
          "registry_": "ENS registry address",
          "resolver_": "ENS name resolver address"
        }
      },
      "isInitialized()": {
        "returns": {
          "_0": "true when contract is initialized"
        }
      }
    },
    "title": "ENS reverse registrar",
    "version": 1
  },
  "userdoc": {
    "kind": "user",
    "methods": {
      "initialize(address,address)": {
        "notice": "Initializes `ENSReverseRegistrar` contract"
      },
      "isInitialized()": {
        "notice": "Check if contract is initialized"
      }
    },
    "version": 1
  },
  "storageLayout": {
    "storage": [
      {
        "astId": 1871,
        "contract": "src/ens/ENSReverseRegistrar.sol:ENSReverseRegistrar",
        "label": "initializer",
        "offset": 0,
        "slot": "0",
        "type": "t_address"
      },
      {
        "astId": 3581,
        "contract": "src/ens/ENSReverseRegistrar.sol:ENSReverseRegistrar",
        "label": "registry",
        "offset": 0,
        "slot": "1",
        "type": "t_contract(ENSRegistry)3564"
      },
      {
        "astId": 3583,
        "contract": "src/ens/ENSReverseRegistrar.sol:ENSReverseRegistrar",
        "label": "resolver",
        "offset": 0,
        "slot": "2",
        "type": "t_contract(ENSNameResolver)4114"
      }
    ],
    "types": {
      "t_address": {
        "encoding": "inplace",
        "label": "address",
        "numberOfBytes": "20"
      },
      "t_contract(ENSNameResolver)4114": {
        "encoding": "inplace",
        "label": "contract ENSNameResolver",
        "numberOfBytes": "20"
      },
      "t_contract(ENSRegistry)3564": {
        "encoding": "inplace",
        "label": "contract ENSRegistry",
        "numberOfBytes": "20"
      }
    }
  }
}