{
  "address": "0x66E5F42662a4826Ad4ae65A3ac04Fc8F2d5958C2",
  "abi": [
    {
      "anonymous": false,
      "inputs": [
        {
          "indexed": false,
          "internalType": "address",
          "name": "account",
          "type": "address"
        },
        {
          "indexed": false,
          "internalType": "bytes32",
          "name": "hash",
          "type": "bytes32"
        }
      ],
      "name": "AccountProofAdded",
      "type": "event"
    },
    {
      "anonymous": false,
      "inputs": [
        {
          "indexed": false,
          "internalType": "address",
          "name": "account",
          "type": "address"
        },
        {
          "indexed": false,
          "internalType": "bytes32",
          "name": "hash",
          "type": "bytes32"
        }
      ],
      "name": "AccountProofRemoved",
      "type": "event"
    },
    {
      "inputs": [
        {
          "internalType": "bytes32",
          "name": "hash",
          "type": "bytes32"
        }
      ],
      "name": "addAccountProof",
      "outputs": [],
      "stateMutability": "nonpayable",
      "type": "function"
    },
    {
      "inputs": [
        {
          "internalType": "bytes32",
          "name": "hash",
          "type": "bytes32"
        }
      ],
      "name": "removeAccountProof",
      "outputs": [],
      "stateMutability": "nonpayable",
      "type": "function"
    },
    {
      "inputs": [
        {
          "internalType": "address",
          "name": "account",
          "type": "address"
        },
        {
          "internalType": "bytes32",
          "name": "hash",
          "type": "bytes32"
        }
      ],
      "name": "verifyAccountProof",
      "outputs": [
        {
          "internalType": "bool",
          "name": "",
          "type": "bool"
        }
      ],
      "stateMutability": "view",
      "type": "function"
    },
    {
      "inputs": [
        {
          "internalType": "address",
          "name": "account",
          "type": "address"
        },
        {
          "internalType": "bytes32",
          "name": "hash",
          "type": "bytes32"
        },
        {
          "internalType": "uint256",
          "name": "blockNumber",
          "type": "uint256"
        }
      ],
      "name": "verifyAccountProofAtBlock",
      "outputs": [
        {
          "internalType": "bool",
          "name": "",
          "type": "bool"
        }
      ],
      "stateMutability": "view",
      "type": "function"
    }
  ],
  "transactionHash": "0xe3368bc8fcbd16da74d37d2f11cbf1c8aaebc76ee9900702c1cae023db2d4d66",
  "args": [],
  "solcInputHash": "d3df566cd311e2cad327d1b461b99b1b",
  "bytecode": "0x608060405234801561001057600080fd5b50610335806100206000396000f3fe608060405234801561001057600080fd5b506004361061004c5760003560e01c806359b52ef8146100515780638a3133781461009757806394000b02146100c3578063d543c34a146100e2575b600080fd5b6100836004803603606081101561006757600080fd5b506001600160a01b0381351690602081013590604001356100ff565b604080519115158252519081900360200190f35b610083600480360360408110156100ad57600080fd5b506001600160a01b03813516906020013561014e565b6100e0600480360360208110156100d957600080fd5b503561019b565b005b6100e0600480360360208110156100f857600080fd5b5035610238565b6001600160a01b03831660009081526020818152604080832085845282528083208151808301909252805460ff1615158252600101549181019190915261014690836102e0565b949350505050565b6001600160a01b03821660009081526020818152604080832084845282528083208151808301909252805460ff1615158252600101549181019190915261019490610316565b9392505050565b336000908152602081815260408083208484528252918290208251808401909352805460ff161515835260010154908201526101d690610316565b6101df57600080fd5b33600081815260208181526040808320858452825291829020436001909101558151928352820183905280517f87dde712783ad4895642c7a875998317a71cf424a2444eb79545ce3795431ff99281900390910190a150565b336000908152602081815260408083208484528252918290208251808401909352805460ff1615158352600101549082015261027390610316565b1561027d57600080fd5b336000818152602081815260408083208584528252808320805460ff19166001908117825501929092558151928352820183905280517f4075b367eed0513a54aa39c287c66d6ae98e5df6f73ac087b26b8f89d05d1aa89281900390910190a150565b81516000908190156101945760208401516102fd57506001610194565b8261030a57506001610194565b50506020909101511190565b600061032282436102e0565b9291505056fea164736f6c634300060c000a",
  "devdoc": {
    "kind": "dev",
    "methods": {},
    "title": "AccountProofRegistry",
    "version": 1
  },
  "userdoc": {
    "kind": "user",
    "methods": {},
    "version": 1
  },
  "storageLayout": {
    "storage": [
      {
        "astId": 155,
        "contract": "src/account/AccountProofRegistry.sol:AccountProofRegistry",
        "label": "accountProofs",
        "offset": 0,
        "slot": "0",
        "type": "t_mapping(t_address,t_mapping(t_bytes32,t_struct(BlockRelated)700_storage))"
      }
    ],
    "types": {
      "t_address": {
        "encoding": "inplace",
        "label": "address",
        "numberOfBytes": "20"
      },
      "t_bool": {
        "encoding": "inplace",
        "label": "bool",
        "numberOfBytes": "1"
      },
      "t_bytes32": {
        "encoding": "inplace",
        "label": "bytes32",
        "numberOfBytes": "32"
      },
      "t_mapping(t_address,t_mapping(t_bytes32,t_struct(BlockRelated)700_storage))": {
        "encoding": "mapping",
        "key": "t_address",
        "label": "mapping(address => mapping(bytes32 => struct BlockLib.BlockRelated))",
        "numberOfBytes": "32",
        "value": "t_mapping(t_bytes32,t_struct(BlockRelated)700_storage)"
      },
      "t_mapping(t_bytes32,t_struct(BlockRelated)700_storage)": {
        "encoding": "mapping",
        "key": "t_bytes32",
        "label": "mapping(bytes32 => struct BlockLib.BlockRelated)",
        "numberOfBytes": "32",
        "value": "t_struct(BlockRelated)700_storage"
      },
      "t_struct(BlockRelated)700_storage": {
        "encoding": "inplace",
        "label": "struct BlockLib.BlockRelated",
        "members": [
          {
            "astId": 697,
            "contract": "src/account/AccountProofRegistry.sol:AccountProofRegistry",
            "label": "added",
            "offset": 0,
            "slot": "0",
            "type": "t_bool"
          },
          {
            "astId": 699,
            "contract": "src/account/AccountProofRegistry.sol:AccountProofRegistry",
            "label": "removedAtBlockNumber",
            "offset": 0,
            "slot": "1",
            "type": "t_uint256"
          }
        ],
        "numberOfBytes": "64"
      },
      "t_uint256": {
        "encoding": "inplace",
        "label": "uint256",
        "numberOfBytes": "32"
      }
    }
  }
}