{
  "address": "0xe5A160F89f330cc933816E896a3F36376DE0a835",
  "abi": [
    {
      "inputs": [],
      "stateMutability": "nonpayable",
      "type": "constructor"
    },
    {
      "inputs": [
        {
          "internalType": "address",
          "name": "account",
          "type": "address"
        },
        {
          "internalType": "address",
          "name": "token",
          "type": "address"
        }
      ],
      "name": "AccountZeroAddress",
      "type": "error"
    },
    {
      "inputs": [
        {
          "internalType": "address",
          "name": "account",
          "type": "address"
        },
        {
          "internalType": "address",
          "name": "token",
          "type": "address"
        }
      ],
      "name": "TokenZeroAddress",
      "type": "error"
    },
    {
      "inputs": [
        {
          "internalType": "address[]",
          "name": "accounts",
          "type": "address[]"
        },
        {
          "internalType": "address[]",
          "name": "tokens",
          "type": "address[]"
        }
      ],
      "name": "getBalances",
      "outputs": [
        {
          "internalType": "uint256[]",
          "name": "",
          "type": "uint256[]"
        }
      ],
      "stateMutability": "view",
      "type": "function"
    },
    {
      "inputs": [
        {
          "internalType": "address[]",
          "name": "accounts",
          "type": "address[]"
        },
        {
          "internalType": "address[]",
          "name": "tokens",
          "type": "address[]"
        }
      ],
      "name": "getSuperfluidWrappedTokenBalances",
      "outputs": [
        {
          "internalType": "int256[]",
          "name": "",
          "type": "int256[]"
        }
      ],
      "stateMutability": "view",
      "type": "function"
    }
  ],
  "transactionHash": "0x7d157cb0e07f0fb7a32440f6289d4b0c56db4e783eb83530765b942fc93b20cd",
  "args": [],
  "solcInputHash": "6ff48c01406545b171c1098ac74d4555",
  "bytecode": "0x608060405234801561001057600080fd5b5061108a806100206000396000f3fe608060405234801561001057600080fd5b50600436106100365760003560e01c806350c5a7101461003b578063ef5bfc371461006b575b600080fd5b610055600480360381019061005091906109e6565b61009b565b6040516100629190610ce8565b60405180910390f35b610085600480360381019061008091906109e6565b610279565b6040516100929190610d0a565b60405180910390f35b6060600083839050868690506100b19190610e68565b67ffffffffffffffff8111156100f0577f4e487b7100000000000000000000000000000000000000000000000000000000600052604160045260246000fd5b60405190808252806020026020018201604052801561011e5781602001602082028036833780820191505090505b50905060005b8686905081101561026c5760005b85859050811015610258576000828787905061014e9190610e68565b826101599190610e12565b90506101ff898985818110610197577f4e487b7100000000000000000000000000000000000000000000000000000000600052603260045260246000fd5b90506020020160208101906101ac91906109bd565b8888858181106101e5577f4e487b7100000000000000000000000000000000000000000000000000000000600052603260045260246000fd5b90506020020160208101906101fa91906109bd565b610457565b848281518110610238577f4e487b7100000000000000000000000000000000000000000000000000000000600052603260045260246000fd5b60200260200101818152505050808061025090610f3b565b915050610132565b50808061026490610f3b565b915050610124565b5080915050949350505050565b60606000838390508686905061028f9190610e68565b67ffffffffffffffff8111156102ce577f4e487b7100000000000000000000000000000000000000000000000000000000600052604160045260246000fd5b6040519080825280602002602001820160405280156102fc5781602001602082028036833780820191505090505b50905060005b8686905081101561044a5760005b85859050811015610436576000828787905061032c9190610e68565b826103379190610e12565b90506103dd898985818110610375577f4e487b7100000000000000000000000000000000000000000000000000000000600052603260045260246000fd5b905060200201602081019061038a91906109bd565b8888858181106103c3577f4e487b7100000000000000000000000000000000000000000000000000000000600052603260045260246000fd5b90506020020160208101906103d891906109bd565b610608565b848281518110610416577f4e487b7100000000000000000000000000000000000000000000000000000000600052603260045260246000fd5b60200260200101818152505050808061042e90610f3b565b915050610310565b50808061044290610f3b565b915050610302565b5080915050949350505050565b60008073ffffffffffffffffffffffffffffffffffffffff168373ffffffffffffffffffffffffffffffffffffffff1614156104cc5782826040517f484305ff0000000000000000000000000000000000000000000000000000000081526004016104c3929190610cbf565b60405180910390fd5b600073ffffffffffffffffffffffffffffffffffffffff168273ffffffffffffffffffffffffffffffffffffffff1614156105405782826040517f41f93bdf000000000000000000000000000000000000000000000000000000008152600401610537929190610cbf565b60405180910390fd5b60006105e0632ec8eec760e01b8560405160240161055e9190610ca4565b604051602081830303815290604052907bffffffffffffffffffffffffffffffffffffffffffffffffffffffff19166020820180517bffffffffffffffffffffffffffffffffffffffffffffffffffffffff83818316178352505050508473ffffffffffffffffffffffffffffffffffffffff166107b090919063ffffffff16565b90506000818060200190518101906105f89190610a5b565b5050509050809250505092915050565b60008073ffffffffffffffffffffffffffffffffffffffff168373ffffffffffffffffffffffffffffffffffffffff16141561067d5782826040517f484305ff000000000000000000000000000000000000000000000000000000008152600401610674929190610cbf565b60405180910390fd5b600073ffffffffffffffffffffffffffffffffffffffff168273ffffffffffffffffffffffffffffffffffffffff1614156106f15782826040517f41f93bdf0000000000000000000000000000000000000000000000000000000081526004016106e8929190610cbf565b60405180910390fd5b60006107916370a0823160e01b8560405160240161070f9190610ca4565b604051602081830303815290604052907bffffffffffffffffffffffffffffffffffffffffffffffffffffffff19166020820180517bffffffffffffffffffffffffffffffffffffffffffffffffffffffff83818316178352505050508473ffffffffffffffffffffffffffffffffffffffff166107b090919063ffffffff16565b9050808060200190518101906107a79190610abe565b91505092915050565b60606107d58383604051806060016040528060258152602001611059602591396107dd565b905092915050565b60606107e8846108aa565b610827576040517f08c379a000000000000000000000000000000000000000000000000000000000815260040161081e90610d4e565b60405180910390fd5b6000808573ffffffffffffffffffffffffffffffffffffffff168560405161084f9190610c8d565b600060405180830381855afa9150503d806000811461088a576040519150601f19603f3d011682016040523d82523d6000602084013e61088f565b606091505b509150915061089f8282866108cd565b925050509392505050565b6000808273ffffffffffffffffffffffffffffffffffffffff163b119050919050565b606083156108dd5782905061092d565b6000835111156108f05782518084602001fd5b816040517f08c379a00000000000000000000000000000000000000000000000000000000081526004016109249190610d2c565b60405180910390fd5b9392505050565b60008135905061094381611013565b92915050565b60008083601f84011261095b57600080fd5b8235905067ffffffffffffffff81111561097457600080fd5b60208301915083602082028301111561098c57600080fd5b9250929050565b6000815190506109a28161102a565b92915050565b6000815190506109b781611041565b92915050565b6000602082840312156109cf57600080fd5b60006109dd84828501610934565b91505092915050565b600080600080604085870312156109fc57600080fd5b600085013567ffffffffffffffff811115610a1657600080fd5b610a2287828801610949565b9450945050602085013567ffffffffffffffff811115610a4157600080fd5b610a4d87828801610949565b925092505092959194509250565b60008060008060808587031215610a7157600080fd5b6000610a7f87828801610993565b9450506020610a90878288016109a8565b9350506040610aa1878288016109a8565b9250506060610ab2878288016109a8565b91505092959194509250565b600060208284031215610ad057600080fd5b6000610ade848285016109a8565b91505092915050565b6000610af38383610c13565b60208301905092915050565b6000610b0b8383610c7e565b60208301905092915050565b610b2081610ec2565b82525050565b6000610b3182610d8e565b610b3b8185610dd4565b9350610b4683610d6e565b8060005b83811015610b77578151610b5e8882610ae7565b9750610b6983610dba565b925050600181019050610b4a565b5085935050505092915050565b6000610b8f82610d99565b610b998185610de5565b9350610ba483610d7e565b8060005b83811015610bd5578151610bbc8882610aff565b9750610bc783610dc7565b925050600181019050610ba8565b5085935050505092915050565b6000610bed82610da4565b610bf78185610df6565b9350610c07818560208601610f08565b80840191505092915050565b610c1c81610ed4565b82525050565b6000610c2d82610daf565b610c378185610e01565b9350610c47818560208601610f08565b610c5081610fb3565b840191505092915050565b6000610c68602483610e01565b9150610c7382610fc4565b604082019050919050565b610c8781610efe565b82525050565b6000610c998284610be2565b915081905092915050565b6000602082019050610cb96000830184610b17565b92915050565b6000604082019050610cd46000830185610b17565b610ce16020830184610b17565b9392505050565b60006020820190508181036000830152610d028184610b26565b905092915050565b60006020820190508181036000830152610d248184610b84565b905092915050565b60006020820190508181036000830152610d468184610c22565b905092915050565b60006020820190508181036000830152610d6781610c5b565b9050919050565b6000819050602082019050919050565b6000819050602082019050919050565b600081519050919050565b600081519050919050565b600081519050919050565b600081519050919050565b6000602082019050919050565b6000602082019050919050565b600082825260208201905092915050565b600082825260208201905092915050565b600081905092915050565b600082825260208201905092915050565b6000610e1d82610efe565b9150610e2883610efe565b9250827fffffffffffffffffffffffffffffffffffffffffffffffffffffffffffffffff03821115610e5d57610e5c610f84565b5b828201905092915050565b6000610e7382610efe565b9150610e7e83610efe565b9250817fffffffffffffffffffffffffffffffffffffffffffffffffffffffffffffffff0483118215151615610eb757610eb6610f84565b5b828202905092915050565b6000610ecd82610ede565b9050919050565b6000819050919050565b600073ffffffffffffffffffffffffffffffffffffffff82169050919050565b6000819050919050565b60005b83811015610f26578082015181840152602081019050610f0b565b83811115610f35576000848401525b50505050565b6000610f4682610efe565b91507fffffffffffffffffffffffffffffffffffffffffffffffffffffffffffffffff821415610f7957610f78610f84565b5b600182019050919050565b7f4e487b7100000000000000000000000000000000000000000000000000000000600052601160045260246000fd5b6000601f19601f8301169050919050565b7f416464726573733a207374617469632063616c6c20746f206e6f6e2d636f6e7460008201527f7261637400000000000000000000000000000000000000000000000000000000602082015250565b61101c81610ec2565b811461102757600080fd5b50565b61103381610ed4565b811461103e57600080fd5b50565b61104a81610efe565b811461105557600080fd5b5056fe416464726573733a206c6f772d6c6576656c207374617469632063616c6c206661696c6564a164736f6c6343000804000a",
  "devdoc": {
    "kind": "dev",
    "methods": {
      "getBalances(address[],address[])": {
        "details": "Error thrown if: account or token address is address(0), large arrays of accounts/tokens are passed in could cause gas block limit issue",
        "params": {
          "accounts": "= Array of accounts addresses",
          "tokens": "= Array of tokens addresses"
        },
        "returns": {
          "_0": "One-dimensional that's accounts.length * tokens.length long. The array is ordered by all of accounts[0] token balances, then accounts[1] etc."
        }
      },
      "getSuperfluidWrappedTokenBalances(address[],address[])": {
        "details": "Error thrown if: account or token address is address(0), large arrays of accounts/tokens are passed in could cause gas block limit issue",
        "params": {
          "accounts": "=  Array of accounts addresses",
          "tokens": "= Array of tokens addresses"
        },
        "returns": {
          "_0": "One-dimensional that's accounts.length * tokens.length long. The array is ordered by all of accounts[0] token balances, then accounts[1] etc."
        }
      }
    },
    "version": 1
  },
  "userdoc": {
    "errors": {
      "AccountZeroAddress(address,address)": [
        {
          "notice": "Custom errors to handle address(0)"
        }
      ]
    },
    "kind": "user",
    "methods": {
      "getBalances(address[],address[])": {
        "notice": "Returns balances of accounts for multiple ERC20 tokens."
      },
      "getSuperfluidWrappedTokenBalances(address[],address[])": {
        "notice": "Returns balances of accounts for multiple Wrapped Super Tokens."
      }
    },
    "version": 1
  },
  "storageLayout": {
    "storage": [],
    "types": null
  }
}