{
  "address": "0x9d70f5253949Eb67850C3f1e7371f15b955ee073",
  "abi": [
    {
      "inputs": [],
      "name": "CBSlippageTooLow",
      "type": "error"
    },
    {
      "inputs": [],
      "name": "CannotBridgeToSameNetwork",
      "type": "error"
    },
    {
      "inputs": [],
      "name": "InvalidAmount",
      "type": "error"
    },
    {
      "inputs": [],
      "name": "ReentrancyError",
      "type": "error"
    },
    {
      "inputs": [],
      "name": "TokenAddressIsZero",
      "type": "error"
    },
    {
      "inputs": [],
      "name": "ZeroAddressProvided",
      "type": "error"
    },
    {
      "anonymous": false,
      "inputs": [
        {
          "indexed": false,
          "internalType": "address",
          "name": "cBridge",
          "type": "address"
        },
        {
          "indexed": false,
          "internalType": "uint256",
          "name": "chainId",
          "type": "uint256"
        }
      ],
      "name": "CBInitialized",
      "type": "event"
    },
    {
      "anonymous": false,
      "inputs": [
        {
          "indexed": false,
          "internalType": "string",
          "name": "bridgeUsed",
          "type": "string"
        },
        {
          "indexed": false,
          "internalType": "address",
          "name": "token",
          "type": "address"
        },
        {
          "indexed": false,
          "internalType": "address",
          "name": "from",
          "type": "address"
        },
        {
          "indexed": false,
          "internalType": "address",
          "name": "to",
          "type": "address"
        },
        {
          "indexed": false,
          "internalType": "uint256",
          "name": "qty",
          "type": "uint256"
        },
        {
          "indexed": false,
          "internalType": "uint256",
          "name": "chainIdTo",
          "type": "uint256"
        }
      ],
      "name": "CBTransferStarted",
      "type": "event"
    },
    {
      "anonymous": false,
      "inputs": [
        {
          "indexed": false,
          "internalType": "address",
          "name": "newAddress",
          "type": "address"
        }
      ],
      "name": "CBUpdatedBridge",
      "type": "event"
    },
    {
      "anonymous": false,
      "inputs": [
        {
          "indexed": false,
          "internalType": "uint256",
          "name": "newSlippage",
          "type": "uint256"
        }
      ],
      "name": "CBUpdatedSlippageTolerance",
      "type": "event"
    },
    {
      "inputs": [
        {
          "components": [
            {
              "internalType": "uint64",
              "name": "dstChainId",
              "type": "uint64"
            },
            {
              "internalType": "uint64",
              "name": "nonce",
              "type": "uint64"
            },
            {
              "internalType": "uint256",
              "name": "qty",
              "type": "uint256"
            },
            {
              "internalType": "address",
              "name": "to",
              "type": "address"
            },
            {
              "internalType": "address",
              "name": "token",
              "type": "address"
            }
          ],
          "internalType": "struct CBridgeFacet.CBridgeData",
          "name": "_cbData",
          "type": "tuple"
        }
      ],
      "name": "cbBridgeTokens",
      "outputs": [],
      "stateMutability": "payable",
      "type": "function"
    },
    {
      "inputs": [
        {
          "internalType": "address",
          "name": "_cbBridge",
          "type": "address"
        }
      ],
      "name": "cbInitialize",
      "outputs": [],
      "stateMutability": "nonpayable",
      "type": "function"
    },
    {
      "inputs": [
        {
          "internalType": "address",
          "name": "_newAddress",
          "type": "address"
        }
      ],
      "name": "cbUpdateBridge",
      "outputs": [],
      "stateMutability": "nonpayable",
      "type": "function"
    },
    {
      "inputs": [
        {
          "internalType": "uint32",
          "name": "_newSlippage",
          "type": "uint32"
        }
      ],
      "name": "cbUpdateSlippageTolerance",
      "outputs": [],
      "stateMutability": "nonpayable",
      "type": "function"
    }
  ],
  "transactionHash": "0x6b2f2dfd2f724949422b80464b10ad71fd064efe6bafbdefb2d26e464d6a388e",
  "args": [],
  "solcInputHash": "8d42885a5f19da22f710ffc8b637c191",
  "bytecode": "0x608060405234801561001057600080fd5b506115ab806100206000396000f3fe60806040526004361061003f5760003560e01c806340d280a21461004457806352434c6e1461006d5780636f395e60146100895780639e32e2e6146100b2575b600080fd5b34801561005057600080fd5b5061006b60048036038101906100669190610dac565b6100db565b005b61008760048036038101906100829190610dfe565b610204565b005b34801561009557600080fd5b506100b060048036038101906100ab9190610dac565b6105f6565b005b3480156100be57600080fd5b506100d960048036038101906100d49190610e50565b6106ef565b005b6100e36107a2565b600073ffffffffffffffffffffffffffffffffffffffff168173ffffffffffffffffffffffffffffffffffffffff16141561014a576040517f8474420100000000000000000000000000000000000000000000000000000000815260040160405180910390fd5b600061015461083d565b9050818160000160006101000a81548173ffffffffffffffffffffffffffffffffffffffff021916908373ffffffffffffffffffffffffffffffffffffffff1602179055504681600101819055506127108160020160006101000a81548163ffffffff021916908363ffffffff1602179055507fcbfd47a07530fc4fffba96f5686a7127e5661fe26dd01503239ca2f66fcad99082466040516101f892919061112b565b60405180910390a15050565b600061020e61086a565b905060018160000154141561024f576040517f29f745a700000000000000000000000000000000000000000000000000000000815260040160405180910390fd5b6001816000018190555081600001602081019061026c9190610e79565b67ffffffffffffffff164614156102af576040517f4ac09ad300000000000000000000000000000000000000000000000000000000815260040160405180910390fd5b600073ffffffffffffffffffffffffffffffffffffffff168260600160208101906102da9190610dac565b73ffffffffffffffffffffffffffffffffffffffff161415610328576040517f8474420100000000000000000000000000000000000000000000000000000000815260040160405180910390fd5b6000826040013511610366576040517f2c5211c600000000000000000000000000000000000000000000000000000000815260040160405180910390fd5b600073ffffffffffffffffffffffffffffffffffffffff168260800160208101906103919190610dac565b73ffffffffffffffffffffffffffffffffffffffff1614156103df576040517fdc2e5e8d00000000000000000000000000000000000000000000000000000000815260040160405180910390fd5b60006103e961083d565b905060008160000160009054906101000a900473ffffffffffffffffffffffffffffffffffffffff169050610457333086604001358760800160208101906104319190610dac565b73ffffffffffffffffffffffffffffffffffffffff16610897909392919063ffffffff16565b6104988185604001358660800160208101906104739190610dac565b73ffffffffffffffffffffffffffffffffffffffff166109209092919063ffffffff16565b8073ffffffffffffffffffffffffffffffffffffffff1663a5977fbb8560600160208101906104c79190610dac565b8660800160208101906104da9190610dac565b87604001358860000160208101906104f29190610e79565b8960200160208101906105059190610e79565b8860020160009054906101000a900463ffffffff166040518763ffffffff1660e01b815260040161053b969594939291906110ca565b600060405180830381600087803b15801561055557600080fd5b505af1158015610569573d6000803e3d6000fd5b505050507fd565a5cf794050de1a171170c91acd5d14cbf11877dc3fa020e9975495ab17578460800160208101906105a19190610dac565b338660600160208101906105b59190610dac565b87604001358860000160208101906105cd9190610e79565b6040516105de9594939291906111b6565b60405180910390a15050600081600001819055505050565b6105fe6107a2565b600073ffffffffffffffffffffffffffffffffffffffff168173ffffffffffffffffffffffffffffffffffffffff161415610665576040517f8474420100000000000000000000000000000000000000000000000000000000815260040160405180910390fd5b600061066f61083d565b9050818160000160006101000a81548173ffffffffffffffffffffffffffffffffffffffff021916908373ffffffffffffffffffffffffffffffffffffffff1602179055507f4ae67faf3cf135d9eca1b5490d3613096d2d0610fca7496112fa46ef019fbd4e826040516106e3919061104f565b60405180910390a15050565b6113888163ffffffff1611610730576040517f9ff4125000000000000000000000000000000000000000000000000000000000815260040160405180910390fd5b6107386107a2565b600061074261083d565b9050818160020160006101000a81548163ffffffff021916908363ffffffff1602179055507f8d5e80c35df41e151b58f1a100ad605ae1ebcda3d0c329b22820b232767a773082604051610796919061127c565b60405180910390a15050565b6107aa610a7e565b60040160009054906101000a900473ffffffffffffffffffffffffffffffffffffffff1673ffffffffffffffffffffffffffffffffffffffff163373ffffffffffffffffffffffffffffffffffffffff161461083b576040517f08c379a000000000000000000000000000000000000000000000000000000000815260040161083290611176565b60405180910390fd5b565b6000807f9d7253cc9498e9cc54011bbbe9471a68adbc99d0ac1eef42369f5a452e814c4a90508091505090565b6000807fc59b5acc5a6673a6c49ca2de898f87adbd9fdfdff36f689476b1c9e0c50964b490508091505090565b61091a846323b872dd60e01b8585856040516024016108b893929190611093565b604051602081830303815290604052907bffffffffffffffffffffffffffffffffffffffffffffffffffffffff19166020820180517bffffffffffffffffffffffffffffffffffffffffffffffffffffffff8381831617835250505050610aab565b50505050565b60008114806109b9575060008373ffffffffffffffffffffffffffffffffffffffff1663dd62ed3e30856040518363ffffffff1660e01b815260040161096792919061106a565b60206040518083038186803b15801561097f57600080fd5b505afa158015610993573d6000803e3d6000fd5b505050506040513d601f19601f820116820180604052508101906109b79190610e27565b145b6109f8576040517f08c379a00000000000000000000000000000000000000000000000000000000081526004016109ef9061125c565b60405180910390fd5b610a798363095ea7b360e01b8484604051602401610a1792919061112b565b604051602081830303815290604052907bffffffffffffffffffffffffffffffffffffffffffffffffffffffff19166020820180517bffffffffffffffffffffffffffffffffffffffffffffffffffffffff8381831617835250505050610aab565b505050565b6000807fc8fcad8db84d3cc18b4c41d551ea0ee66dd599cde068d998e57d5e09332c131c90508091505090565b6000610b0d826040518060400160405280602081526020017f5361666545524332303a206c6f772d6c6576656c2063616c6c206661696c65648152508573ffffffffffffffffffffffffffffffffffffffff16610b729092919063ffffffff16565b9050600081511115610b6d5780806020019051810190610b2d9190610dd5565b610b6c576040517f08c379a0000000000000000000000000000000000000000000000000000000008152600401610b639061123c565b60405180910390fd5b5b505050565b6060610b818484600085610b8a565b90509392505050565b606082471015610bcf576040517f08c379a0000000000000000000000000000000000000000000000000000000008152600401610bc690611196565b60405180910390fd5b610bd885610c9e565b610c17576040517f08c379a0000000000000000000000000000000000000000000000000000000008152600401610c0e9061121c565b60405180910390fd5b6000808673ffffffffffffffffffffffffffffffffffffffff168587604051610c409190611038565b60006040518083038185875af1925050503d8060008114610c7d576040519150601f19603f3d011682016040523d82523d6000602084013e610c82565b606091505b5091509150610c92828286610cc1565b92505050949350505050565b6000808273ffffffffffffffffffffffffffffffffffffffff163b119050919050565b60608315610cd157829050610d21565b600083511115610ce45782518084602001fd5b816040517f08c379a0000000000000000000000000000000000000000000000000000000008152600401610d189190611154565b60405180910390fd5b9392505050565b600081359050610d378161152b565b92915050565b600081519050610d4c81611542565b92915050565b600060a08284031215610d6457600080fd5b81905092915050565b600081519050610d7c81611559565b92915050565b600081359050610d9181611570565b92915050565b600081359050610da681611587565b92915050565b600060208284031215610dbe57600080fd5b6000610dcc84828501610d28565b91505092915050565b600060208284031215610de757600080fd5b6000610df584828501610d3d565b91505092915050565b600060a08284031215610e1057600080fd5b6000610e1e84828501610d52565b91505092915050565b600060208284031215610e3957600080fd5b6000610e4784828501610d6d565b91505092915050565b600060208284031215610e6257600080fd5b6000610e7084828501610d82565b91505092915050565b600060208284031215610e8b57600080fd5b6000610e9984828501610d97565b91505092915050565b610eab816112c9565b82525050565b6000610ebc82611297565b610ec681856112ad565b9350610ed6818560208601611359565b80840191505092915050565b6000610eed826112a2565b610ef781856112b8565b9350610f07818560208601611359565b610f108161138c565b840191505092915050565b6000610f286022836112b8565b9150610f338261139d565b604082019050919050565b6000610f4b6026836112b8565b9150610f56826113ec565b604082019050919050565b6000610f6e6007836112b8565b9150610f798261143b565b602082019050919050565b6000610f91601d836112b8565b9150610f9c82611464565b602082019050919050565b6000610fb4602a836112b8565b9150610fbf8261148d565b604082019050919050565b6000610fd76036836112b8565b9150610fe2826114dc565b604082019050919050565b610ff681611307565b82525050565b61100581611335565b82525050565b61101481611311565b82525050565b61102381611347565b82525050565b61103281611321565b82525050565b60006110448284610eb1565b915081905092915050565b60006020820190506110646000830184610ea2565b92915050565b600060408201905061107f6000830185610ea2565b61108c6020830184610ea2565b9392505050565b60006060820190506110a86000830186610ea2565b6110b56020830185610ea2565b6110c26040830184610fed565b949350505050565b600060c0820190506110df6000830189610ea2565b6110ec6020830188610ea2565b6110f96040830187610fed565b6111066060830186611029565b6111136080830185611029565b61112060a083018461100b565b979650505050505050565b60006040820190506111406000830185610ea2565b61114d6020830184610fed565b9392505050565b6000602082019050818103600083015261116e8184610ee2565b905092915050565b6000602082019050818103600083015261118f81610f1b565b9050919050565b600060208201905081810360008301526111af81610f3e565b9050919050565b600060c08201905081810360008301526111cf81610f61565b90506111de6020830188610ea2565b6111eb6040830187610ea2565b6111f86060830186610ea2565b6112056080830185610fed565b61121260a083018461101a565b9695505050505050565b6000602082019050818103600083015261123581610f84565b9050919050565b6000602082019050818103600083015261125581610fa7565b9050919050565b6000602082019050818103600083015261127581610fca565b9050919050565b60006020820190506112916000830184610ffc565b92915050565b600081519050919050565b600081519050919050565b600081905092915050565b600082825260208201905092915050565b60006112d4826112e7565b9050919050565b60008115159050919050565b600073ffffffffffffffffffffffffffffffffffffffff82169050919050565b6000819050919050565b600063ffffffff82169050919050565b600067ffffffffffffffff82169050919050565b600061134082611311565b9050919050565b600061135282611321565b9050919050565b60005b8381101561137757808201518184015260208101905061135c565b83811115611386576000848401525b50505050565b6000601f19601f8301169050919050565b7f4c69624469616d6f6e643a204d75737420626520636f6e7472616374206f776e60008201527f6572000000000000000000000000000000000000000000000000000000000000602082015250565b7f416464726573733a20696e73756666696369656e742062616c616e636520666f60008201527f722063616c6c0000000000000000000000000000000000000000000000000000602082015250565b7f6362726964676500000000000000000000000000000000000000000000000000600082015250565b7f416464726573733a2063616c6c20746f206e6f6e2d636f6e7472616374000000600082015250565b7f5361666545524332303a204552433230206f7065726174696f6e20646964206e60008201527f6f74207375636365656400000000000000000000000000000000000000000000602082015250565b7f5361666545524332303a20617070726f76652066726f6d206e6f6e2d7a65726f60008201527f20746f206e6f6e2d7a65726f20616c6c6f77616e636500000000000000000000602082015250565b611534816112c9565b811461153f57600080fd5b50565b61154b816112db565b811461155657600080fd5b50565b61156281611307565b811461156d57600080fd5b50565b61157981611311565b811461158457600080fd5b50565b61159081611321565b811461159b57600080fd5b5056fea164736f6c6343000804000a",
  "devdoc": {
    "kind": "dev",
    "methods": {
      "cbBridgeTokens((uint64,uint64,uint256,address,address))": {
        "params": {
          "_cbData": ": provides necessary data for cBridge transfer"
        }
      },
      "cbInitialize(address)": {
        "params": {
          "_cbBridge": "address of the CBridge router contract"
        }
      }
    },
    "version": 1
  },
  "userdoc": {
    "kind": "user",
    "methods": {
      "cbBridgeTokens((uint64,uint64,uint256,address,address))": {
        "notice": "initiates token bridging"
      },
      "cbInitialize(address)": {
        "notice": "initializes state variables for the cBridge facet"
      }
    },
    "version": 1
  },
  "storageLayout": {
    "storage": [],
    "types": null
  }
}