{
  "address": "0xF330b17e19474762E6F408D7dCf0327264d4A2C0",
  "abi": [
    {
      "inputs": [],
      "stateMutability": "nonpayable",
      "type": "constructor"
    },
    {
      "anonymous": false,
      "inputs": [
        {
          "indexed": false,
          "internalType": "address",
          "name": "initializer",
          "type": "address"
        }
      ],
      "name": "Initialized",
      "type": "event"
    },
    {
      "inputs": [
        {
          "internalType": "bytes32[]",
          "name": "nodes",
          "type": "bytes32[]"
        }
      ],
      "name": "getAddresses",
      "outputs": [
        {
          "internalType": "address[]",
          "name": "",
          "type": "address[]"
        }
      ],
      "stateMutability": "view",
      "type": "function"
    },
    {
      "inputs": [
        {
          "internalType": "bytes32[]",
          "name": "nodes",
          "type": "bytes32[]"
        }
      ],
      "name": "getNames",
      "outputs": [
        {
          "internalType": "string[]",
          "name": "",
          "type": "string[]"
        }
      ],
      "stateMutability": "view",
      "type": "function"
    },
    {
      "inputs": [
        {
          "internalType": "contract ENSRegistry",
          "name": "registry_",
          "type": "address"
        }
      ],
      "name": "initialize",
      "outputs": [],
      "stateMutability": "nonpayable",
      "type": "function"
    },
    {
      "inputs": [],
      "name": "isInitialized",
      "outputs": [
        {
          "internalType": "bool",
          "name": "",
          "type": "bool"
        }
      ],
      "stateMutability": "view",
      "type": "function"
    },
    {
      "inputs": [],
      "name": "registry",
      "outputs": [
        {
          "internalType": "contract ENSRegistry",
          "name": "",
          "type": "address"
        }
      ],
      "stateMutability": "view",
      "type": "function"
    }
  ],
  "transactionHash": "0xd521061a3ca737a5ded981bf49c13534b0c3a4666466152d9395eb5f740f8051",
  "args": [],
  "solcInputHash": "1bdf84d4bd28700579af1cc4796e2cae",
  "bytecode": "0x608060405234801561001057600080fd5b50326000806101000a81548173ffffffffffffffffffffffffffffffffffffffff021916908373ffffffffffffffffffffffffffffffffffffffff160217905550610e74806100606000396000f3fe608060405234801561001057600080fd5b50600436106100575760003560e01c806338bc01b51461005c578063392e53cd1461008c5780637b103999146100aa578063c4d66de8146100c8578063dc6008e2146100e4575b600080fd5b610076600480360381019061007191906108a6565b610114565b6040516100839190610b55565b60405180910390f35b6100946101ec565b6040516100a19190610b99565b60405180910390f35b6100b2610242565b6040516100bf9190610bcf565b60405180910390f35b6100e260048036038101906100dd91906108e7565b610268565b005b6100fe60048036038101906100f991906108a6565b6103b2565b60405161010b9190610b77565b60405180910390f35b606060008251905060608167ffffffffffffffff8111801561013557600080fd5b506040519080825280602002602001820160405280156101645781602001602082028036833780820191505090505b50905060005b828110156101e15761018e85828151811061018157fe5b6020026020010151610460565b82828151811061019a57fe5b602002602001019073ffffffffffffffffffffffffffffffffffffffff16908173ffffffffffffffffffffffffffffffffffffffff1681525050808060010191505061016a565b508092505050919050565b60008073ffffffffffffffffffffffffffffffffffffffff1660008054906101000a900473ffffffffffffffffffffffffffffffffffffffff1673ffffffffffffffffffffffffffffffffffffffff1614905090565b600160009054906101000a900473ffffffffffffffffffffffffffffffffffffffff1681565b60008054906101000a900473ffffffffffffffffffffffffffffffffffffffff1673ffffffffffffffffffffffffffffffffffffffff163273ffffffffffffffffffffffffffffffffffffffff16146102f6576040517f08c379a00000000000000000000000000000000000000000000000000000000081526004016102ed90610bea565b60405180910390fd5b60008060006101000a81548173ffffffffffffffffffffffffffffffffffffffff021916908373ffffffffffffffffffffffffffffffffffffffff16021790555080600160006101000a81548173ffffffffffffffffffffffffffffffffffffffff021916908373ffffffffffffffffffffffffffffffffffffffff1602179055507f908408e307fc569b417f6cbec5d5a06f44a0a505ac0479b47d421a4b2fd6a1e6326040516103a79190610b3a565b60405180910390a150565b606060008251905060608167ffffffffffffffff811180156103d357600080fd5b5060405190808252806020026020018201604052801561040757816020015b60608152602001906001900390816103f25790505b50905060005b828110156104555761043185828151811061042457fe5b60200260200101516105e1565b82828151811061043d57fe5b6020026020010181905250808060010191505061040d565b508092505050919050565b6000806000600160009054906101000a900473ffffffffffffffffffffffffffffffffffffffff1673ffffffffffffffffffffffffffffffffffffffff16630178b8bf856040518263ffffffff1660e01b81526004016104c09190610bb4565b60206040518083038186803b1580156104d857600080fd5b505afa1580156104ec573d6000803e3d6000fd5b505050506040513d601f19601f82011682018060405250810190610510919061087d565b9050600073ffffffffffffffffffffffffffffffffffffffff168173ffffffffffffffffffffffffffffffffffffffff16146105d7578073ffffffffffffffffffffffffffffffffffffffff16633b3b57de856040518263ffffffff1660e01b815260040161057f9190610bb4565b60206040518083038186803b15801561059757600080fd5b505afa9250505080156105c857506040513d601f19601f820116820180604052508101906105c5919061087d565b60015b6105d1576105d6565b809250505b5b8192505050919050565b6060806000600160009054906101000a900473ffffffffffffffffffffffffffffffffffffffff1673ffffffffffffffffffffffffffffffffffffffff16630178b8bf856040518263ffffffff1660e01b81526004016106419190610bb4565b60206040518083038186803b15801561065957600080fd5b505afa15801561066d573d6000803e3d6000fd5b505050506040513d601f19601f82011682018060405250810190610691919061087d565b9050600073ffffffffffffffffffffffffffffffffffffffff168173ffffffffffffffffffffffffffffffffffffffff161461075d578073ffffffffffffffffffffffffffffffffffffffff1663691f3431856040518263ffffffff1660e01b81526004016107009190610bb4565b60006040518083038186803b15801561071857600080fd5b505afa92505050801561074e57506040513d6000823e3d601f19601f8201168201806040525081019061074b9190610910565b60015b6107575761075c565b809250505b5b8192505050919050565b60008151905061077681610e22565b92915050565b600082601f83011261078d57600080fd5b81356107a061079b82610c37565b610c0a565b915081818352602084019350602081019050838560208402820111156107c557600080fd5b60005b838110156107f557816107db88826107ff565b8452602084019350602083019250506001810190506107c8565b5050505092915050565b60008135905061080e81610e39565b92915050565b60008135905061082381610e50565b92915050565b600082601f83011261083a57600080fd5b815161084d61084882610c5f565b610c0a565b9150808252602083016020830185838301111561086957600080fd5b610874838284610dde565b50505092915050565b60006020828403121561088f57600080fd5b600061089d84828501610767565b91505092915050565b6000602082840312156108b857600080fd5b600082013567ffffffffffffffff8111156108d257600080fd5b6108de8482850161077c565b91505092915050565b6000602082840312156108f957600080fd5b600061090784828501610814565b91505092915050565b60006020828403121561092257600080fd5b600082015167ffffffffffffffff81111561093c57600080fd5b61094884828501610829565b91505092915050565b600061095d838361098c565b60208301905092915050565b60006109758383610a9b565b905092915050565b61098681610d84565b82525050565b61099581610d2a565b82525050565b60006109a682610cab565b6109b08185610ce6565b93506109bb83610c8b565b8060005b838110156109ec5781516109d38882610951565b97506109de83610ccc565b9250506001810190506109bf565b5085935050505092915050565b6000610a0482610cb6565b610a0e8185610cf7565b935083602082028501610a2085610c9b565b8060005b85811015610a5c5784840389528151610a3d8582610969565b9450610a4883610cd9565b925060208a01995050600181019050610a24565b50829750879550505050505092915050565b610a7781610d3c565b82525050565b610a8681610d48565b82525050565b610a9581610d96565b82525050565b6000610aa682610cc1565b610ab08185610d08565b9350610ac0818560208601610dde565b610ac981610e11565b840191505092915050565b6000610ae1602f83610d19565b91507f496e697469616c697a61626c653a2074782e6f726967696e206973206e6f742060008301527f74686520696e697469616c697a657200000000000000000000000000000000006020830152604082019050919050565b6000602082019050610b4f600083018461097d565b92915050565b60006020820190508181036000830152610b6f818461099b565b905092915050565b60006020820190508181036000830152610b9181846109f9565b905092915050565b6000602082019050610bae6000830184610a6e565b92915050565b6000602082019050610bc96000830184610a7d565b92915050565b6000602082019050610be46000830184610a8c565b92915050565b60006020820190508181036000830152610c0381610ad4565b9050919050565b6000604051905081810181811067ffffffffffffffff82111715610c2d57600080fd5b8060405250919050565b600067ffffffffffffffff821115610c4e57600080fd5b602082029050602081019050919050565b600067ffffffffffffffff821115610c7657600080fd5b601f19601f8301169050602081019050919050565b6000819050602082019050919050565b6000819050602082019050919050565b600081519050919050565b600081519050919050565b600081519050919050565b6000602082019050919050565b6000602082019050919050565b600082825260208201905092915050565b600082825260208201905092915050565b600082825260208201905092915050565b600082825260208201905092915050565b6000610d3582610d64565b9050919050565b60008115159050919050565b6000819050919050565b6000610d5d82610d2a565b9050919050565b600073ffffffffffffffffffffffffffffffffffffffff82169050919050565b6000610d8f82610dba565b9050919050565b6000610da182610da8565b9050919050565b6000610db382610d64565b9050919050565b6000610dc582610dcc565b9050919050565b6000610dd782610d64565b9050919050565b60005b83811015610dfc578082015181840152602081019050610de1565b83811115610e0b576000848401525b50505050565b6000601f19601f8301169050919050565b610e2b81610d2a565b8114610e3657600080fd5b50565b610e4281610d48565b8114610e4d57600080fd5b50565b610e5981610d52565b8114610e6457600080fd5b5056fea164736f6c634300060c000a",
  "devdoc": {
    "author": "Stanisław Głogowski <stan@pillarproject.io>",
    "kind": "dev",
    "methods": {
      "constructor": {
        "details": "Public constructor"
      },
      "getAddresses(bytes32[])": {
        "params": {
          "nodes": "array of nodes"
        },
        "returns": {
          "_0": "nodes addresses"
        }
      },
      "getNames(bytes32[])": {
        "params": {
          "nodes": "array of nodes"
        },
        "returns": {
          "_0": "nodes names"
        }
      },
      "initialize(address)": {
        "params": {
          "registry_": "ENS registry address"
        }
      },
      "isInitialized()": {
        "returns": {
          "_0": "true when contract is initialized"
        }
      }
    },
    "title": "ENS helper",
    "version": 1
  },
  "userdoc": {
    "kind": "user",
    "methods": {
      "getAddresses(bytes32[])": {
        "notice": "Gets nodes addresses"
      },
      "getNames(bytes32[])": {
        "notice": "Gets nodes names"
      },
      "initialize(address)": {
        "notice": "Initializes `ENSLookupHelper` contract"
      },
      "isInitialized()": {
        "notice": "Check if contract is initialized"
      }
    },
    "version": 1
  },
  "storageLayout": {
    "storage": [
      {
        "astId": 1871,
        "contract": "src/ens/ENSHelper.sol:ENSHelper",
        "label": "initializer",
        "offset": 0,
        "slot": "0",
        "type": "t_address"
      },
      {
        "astId": 2929,
        "contract": "src/ens/ENSHelper.sol:ENSHelper",
        "label": "registry",
        "offset": 0,
        "slot": "1",
        "type": "t_contract(ENSRegistry)3564"
      }
    ],
    "types": {
      "t_address": {
        "encoding": "inplace",
        "label": "address",
        "numberOfBytes": "20"
      },
      "t_contract(ENSRegistry)3564": {
        "encoding": "inplace",
        "label": "contract ENSRegistry",
        "numberOfBytes": "20"
      }
    }
  }
}