{
  "address": "0x432defD2b3733e6fEBb1bD4B17Ed85D15b882163",
  "abi": [
    {
      "inputs": [],
      "stateMutability": "nonpayable",
      "type": "constructor"
    },
    {
      "anonymous": false,
      "inputs": [
        {
          "indexed": false,
          "internalType": "address",
          "name": "sender",
          "type": "address"
        },
        {
          "indexed": false,
          "internalType": "bytes",
          "name": "batch",
          "type": "bytes"
        },
        {
          "indexed": false,
          "internalType": "bool",
          "name": "succeeded",
          "type": "bool"
        }
      ],
      "name": "BatchDelegated",
      "type": "event"
    },
    {
      "anonymous": false,
      "inputs": [
        {
          "indexed": false,
          "internalType": "address",
          "name": "initializer",
          "type": "address"
        }
      ],
      "name": "Initialized",
      "type": "event"
    },
    {
      "inputs": [],
      "name": "chainId",
      "outputs": [
        {
          "internalType": "uint256",
          "name": "",
          "type": "uint256"
        }
      ],
      "stateMutability": "view",
      "type": "function"
    },
    {
      "inputs": [
        {
          "internalType": "address",
          "name": "account",
          "type": "address"
        },
        {
          "internalType": "uint256",
          "name": "nonce",
          "type": "uint256"
        },
        {
          "internalType": "address[]",
          "name": "to",
          "type": "address[]"
        },
        {
          "internalType": "bytes[]",
          "name": "data",
          "type": "bytes[]"
        },
        {
          "internalType": "bytes",
          "name": "senderSignature",
          "type": "bytes"
        }
      ],
      "name": "delegateBatch",
      "outputs": [],
      "stateMutability": "nonpayable",
      "type": "function"
    },
    {
      "inputs": [
        {
          "internalType": "address",
          "name": "account",
          "type": "address"
        },
        {
          "internalType": "uint256",
          "name": "nonce",
          "type": "uint256"
        },
        {
          "internalType": "address[]",
          "name": "to",
          "type": "address[]"
        },
        {
          "internalType": "bytes[]",
          "name": "data",
          "type": "bytes[]"
        },
        {
          "internalType": "bytes",
          "name": "senderSignature",
          "type": "bytes"
        }
      ],
      "name": "delegateBatchWithGasPrice",
      "outputs": [],
      "stateMutability": "nonpayable",
      "type": "function"
    },
    {
      "inputs": [
        {
          "internalType": "bytes[]",
          "name": "batches",
          "type": "bytes[]"
        },
        {
          "internalType": "bool",
          "name": "revertOnFailure",
          "type": "bool"
        }
      ],
      "name": "delegateBatches",
      "outputs": [],
      "stateMutability": "nonpayable",
      "type": "function"
    },
    {
      "inputs": [],
      "name": "externalAccountRegistry",
      "outputs": [
        {
          "internalType": "contract ExternalAccountRegistry",
          "name": "",
          "type": "address"
        }
      ],
      "stateMutability": "view",
      "type": "function"
    },
    {
      "inputs": [
        {
          "internalType": "address",
          "name": "account",
          "type": "address"
        }
      ],
      "name": "getAccountNextNonce",
      "outputs": [
        {
          "internalType": "uint256",
          "name": "",
          "type": "uint256"
        }
      ],
      "stateMutability": "view",
      "type": "function"
    },
    {
      "inputs": [
        {
          "components": [
            {
              "internalType": "address",
              "name": "account",
              "type": "address"
            },
            {
              "internalType": "uint256",
              "name": "nonce",
              "type": "uint256"
            },
            {
              "internalType": "address[]",
              "name": "to",
              "type": "address[]"
            },
            {
              "internalType": "bytes[]",
              "name": "data",
              "type": "bytes[]"
            }
          ],
          "internalType": "struct Gateway.DelegatedBatch",
          "name": "delegatedBatch",
          "type": "tuple"
        }
      ],
      "name": "hashDelegatedBatch",
      "outputs": [
        {
          "internalType": "bytes32",
          "name": "",
          "type": "bytes32"
        }
      ],
      "stateMutability": "view",
      "type": "function"
    },
    {
      "inputs": [
        {
          "components": [
            {
              "internalType": "address",
              "name": "account",
              "type": "address"
            },
            {
              "internalType": "uint256",
              "name": "nonce",
              "type": "uint256"
            },
            {
              "internalType": "address[]",
              "name": "to",
              "type": "address[]"
            },
            {
              "internalType": "bytes[]",
              "name": "data",
              "type": "bytes[]"
            },
            {
              "internalType": "uint256",
              "name": "gasPrice",
              "type": "uint256"
            }
          ],
          "internalType": "struct Gateway.DelegatedBatchWithGasPrice",
          "name": "delegatedBatch",
          "type": "tuple"
        }
      ],
      "name": "hashDelegatedBatchWithGasPrice",
      "outputs": [
        {
          "internalType": "bytes32",
          "name": "",
          "type": "bytes32"
        }
      ],
      "stateMutability": "view",
      "type": "function"
    },
    {
      "inputs": [
        {
          "internalType": "contract ExternalAccountRegistry",
          "name": "externalAccountRegistry_",
          "type": "address"
        },
        {
          "internalType": "contract PersonalAccountRegistry",
          "name": "personalAccountRegistry_",
          "type": "address"
        }
      ],
      "name": "initialize",
      "outputs": [],
      "stateMutability": "nonpayable",
      "type": "function"
    },
    {
      "inputs": [],
      "name": "isInitialized",
      "outputs": [
        {
          "internalType": "bool",
          "name": "",
          "type": "bool"
        }
      ],
      "stateMutability": "view",
      "type": "function"
    },
    {
      "inputs": [],
      "name": "personalAccountRegistry",
      "outputs": [
        {
          "internalType": "contract PersonalAccountRegistry",
          "name": "",
          "type": "address"
        }
      ],
      "stateMutability": "view",
      "type": "function"
    },
    {
      "inputs": [
        {
          "internalType": "address[]",
          "name": "to",
          "type": "address[]"
        },
        {
          "internalType": "bytes[]",
          "name": "data",
          "type": "bytes[]"
        }
      ],
      "name": "sendBatch",
      "outputs": [],
      "stateMutability": "nonpayable",
      "type": "function"
    },
    {
      "inputs": [
        {
          "internalType": "address",
          "name": "account",
          "type": "address"
        },
        {
          "internalType": "address[]",
          "name": "to",
          "type": "address[]"
        },
        {
          "internalType": "bytes[]",
          "name": "data",
          "type": "bytes[]"
        }
      ],
      "name": "sendBatchFromAccount",
      "outputs": [],
      "stateMutability": "nonpayable",
      "type": "function"
    }
  ],
  "transactionHash": "0x0e1283e7e56fa753e9a038894a4dc28c7c8d8ceb5792eb90c408efa5284039b7",
  "args": [],
  "solcInputHash": "1bdf84d4bd28700579af1cc4796e2cae",
  "bytecode": "0x608060405234801561001057600080fd5b50326000806101000a81548173ffffffffffffffffffffffffffffffffffffffff021916908373ffffffffffffffffffffffffffffffffffffffff160217905550600046905080600181905550506123f58061006d6000396000f3fe608060405234801561001057600080fd5b50600436106100cf5760003560e01c8063867519c61161008c5780639f255626116100665780639f255626146101fe578063b5021b161461021a578063d2c83b9a14610236578063f92c5f7c14610254576100cf565b8063867519c6146101a657806387d31313146101c25780639a8a0592146101e0576100cf565b8063231badaf146100d4578063392e53cd146100f0578063485cc9551461010e5780635afaa7bb1461012a57806373e5a13f1461014657806376db2b4c14610176575b600080fd5b6100ee60048036038101906100e99190611438565b610284565b005b6100f861037f565b6040516101059190611e71565b60405180910390f35b610128600480360381019061012391906115e0565b6103d5565b005b610144600480360381019061013f9190611563565b610561565b005b610160600480360381019061015b919061165d565b610739565b60405161016d9190611e8c565b60405180910390f35b610190600480360381019061018b919061161c565b61075e565b60405161019d9190611e8c565b60405180910390f35b6101c060048036038101906101bb91906113b9565b610788565b005b6101ca610799565b6040516101d79190611f07565b60405180910390f35b6101e86107bf565b6040516101f591906120a2565b60405180910390f35b610218600480360381019061021391906114f7565b6107c5565b005b610234600480360381019061022f9190611438565b6107d5565b005b61023e6108d1565b60405161024b9190611eec565b60405180910390f35b61026e60048036038101906102699190611390565b6108f7565b60405161027b91906120a2565b60405180910390f35b600460008673ffffffffffffffffffffffffffffffffffffffff1673ffffffffffffffffffffffffffffffffffffffff168152602001908152602001600020548411610305576040517f08c379a00000000000000000000000000000000000000000000000000000000081526004016102fc90611f82565b60405180910390fd5b60006103258261031788888888610953565b6109b690919063ffffffff16565b905084600460008873ffffffffffffffffffffffffffffffffffffffff1673ffffffffffffffffffffffffffffffffffffffff1681526020019081526020016000208190555061037786828686610a71565b505050505050565b60008073ffffffffffffffffffffffffffffffffffffffff1660008054906101000a900473ffffffffffffffffffffffffffffffffffffffff1673ffffffffffffffffffffffffffffffffffffffff1614905090565b60008054906101000a900473ffffffffffffffffffffffffffffffffffffffff1673ffffffffffffffffffffffffffffffffffffffff163273ffffffffffffffffffffffffffffffffffffffff1614610463576040517f08c379a000000000000000000000000000000000000000000000000000000000815260040161045a90611f42565b60405180910390fd5b60008060006101000a81548173ffffffffffffffffffffffffffffffffffffffff021916908373ffffffffffffffffffffffffffffffffffffffff16021790555081600260006101000a81548173ffffffffffffffffffffffffffffffffffffffff021916908373ffffffffffffffffffffffffffffffffffffffff16021790555080600360006101000a81548173ffffffffffffffffffffffffffffffffffffffff021916908373ffffffffffffffffffffffffffffffffffffffff1602179055507f908408e307fc569b417f6cbec5d5a06f44a0a505ac0479b47d421a4b2fd6a1e6326040516105559190611def565b60405180910390a15050565b60008251116105a5576040517f08c379a000000000000000000000000000000000000000000000000000000000815260040161059c90611fc2565b60405180910390fd5b600080600090505b83518110156106f35760003073ffffffffffffffffffffffffffffffffffffffff168583815181106105db57fe5b60200260200101516040516105f09190611d0b565b6000604051808303816000865af19150503d806000811461062d576040519150601f19603f3d011682016040523d82523d6000602084013e610632565b606091505b505090508315610681578061067c576040517f08c379a000000000000000000000000000000000000000000000000000000000815260040161067390611f62565b60405180910390fd5b610697565b80801561068c575082155b1561069657600192505b5b7f361c14722cc344132c73396113f7164232448b09c544a149f09048648b43d872338684815181106106c557fe5b6020026020010151836040516106dd93929190611e0a565b60405180910390a15080806001019150506105ad565b5080610734576040517f08c379a000000000000000000000000000000000000000000000000000000000815260040161072b90612082565b60405180910390fd5b505050565b60006107578260000151836020015184604001518560600151610953565b9050919050565b600061078182600001518360200151846040015185606001518660800151610edc565b9050919050565b61079483338484610a71565b505050565b600360009054906101000a900473ffffffffffffffffffffffffffffffffffffffff1681565b60015481565b6107d133338484610a71565b5050565b600460008673ffffffffffffffffffffffffffffffffffffffff1673ffffffffffffffffffffffffffffffffffffffff168152602001908152602001600020548411610856576040517f08c379a000000000000000000000000000000000000000000000000000000000815260040161084d90611f82565b60405180910390fd5b600061087782610869888888883a610edc565b6109b690919063ffffffff16565b905084600460008873ffffffffffffffffffffffffffffffffffffffff1673ffffffffffffffffffffffffffffffffffffffff168152602001908152602001600020819055506108c986828686610a71565b505050505050565b600260009054906101000a900473ffffffffffffffffffffffffffffffffffffffff1681565b600061094c6001600460008573ffffffffffffffffffffffffffffffffffffffff1673ffffffffffffffffffffffffffffffffffffffff16815260200190815260200160002054610f4290919063ffffffff16565b9050919050565b60006109ac7f6848d0622081db2451400280dead7a739a080cb93852607c381af11e289769b286868661098587610f97565b6040516020016109989493929190611c6e565b604051602081830303815290604052610ffa565b9050949350505050565b60008060009050604183511415610a675760008060006020860151925060408601519150606086015160001a9050601b8160ff1610156109f757601b810190505b601b8160ff161480610a0c5750601c8160ff16145b15610a635760018782858560405160008152602001604052604051610a349493929190611ea7565b6020604051602081039080840390855afa158015610a56573d6000803e3d6000fd5b5050506020604051035193505b5050505b8091505092915050565b600073ffffffffffffffffffffffffffffffffffffffff168473ffffffffffffffffffffffffffffffffffffffff161415610ae1576040517f08c379a0000000000000000000000000000000000000000000000000000000008152600401610ad890611fa2565b60405180910390fd5b6000825111610b25576040517f08c379a0000000000000000000000000000000000000000000000000000000008152600401610b1c90612062565b60405180910390fd5b8151815114610b69576040517f08c379a0000000000000000000000000000000000000000000000000000000008152600401610b6090612002565b60405180910390fd5b8273ffffffffffffffffffffffffffffffffffffffff168473ffffffffffffffffffffffffffffffffffffffff1614610d3d57600360009054906101000a900473ffffffffffffffffffffffffffffffffffffffff1673ffffffffffffffffffffffffffffffffffffffff1663bb890d3f85856040518363ffffffff1660e01b8152600401610bf9929190611e48565b60206040518083038186803b158015610c1157600080fd5b505afa158015610c25573d6000803e3d6000fd5b505050506040513d601f19601f82011682018060405250810190610c4991906115b7565b80610cfd5750600260009054906101000a900473ffffffffffffffffffffffffffffffffffffffff1673ffffffffffffffffffffffffffffffffffffffff1663bb890d3f85856040518363ffffffff1660e01b8152600401610cac929190611e48565b60206040518083038186803b158015610cc457600080fd5b505afa158015610cd8573d6000803e3d6000fd5b505050506040513d601f19601f82011682018060405250810190610cfc91906115b7565b5b610d3c576040517f08c379a0000000000000000000000000000000000000000000000000000000008152600401610d3390611fe2565b60405180910390fd5b5b600080600090505b8251811015610ed457600073ffffffffffffffffffffffffffffffffffffffff16848281518110610d7257fe5b602002602001015173ffffffffffffffffffffffffffffffffffffffff161415610dd1576040517f08c379a0000000000000000000000000000000000000000000000000000000008152600401610dc890611f22565b60405180910390fd5b838181518110610ddd57fe5b602002602001015173ffffffffffffffffffffffffffffffffffffffff16838281518110610e0757fe5b60200260200101518787604051602001610e2393929190611d22565b604051602081830303815290604052604051610e3f9190611d0b565b6000604051808303816000865af19150503d8060008114610e7c576040519150601f19603f3d011682016040523d82523d6000602084013e610e81565b606091505b50508092505081610ec7576040517f08c379a0000000000000000000000000000000000000000000000000000000008152600401610ebe90612022565b60405180910390fd5b8080600101915050610d45565b505050505050565b6000610f377f6f4e1b2b1e5e49f4269e19e16e67a00cb0a796d96d30be3e4b540d3732e8bcad878787610f0e88610f97565b87604051602001610f23959493929190611cb4565b604051602081830303815290604052610ffa565b905095945050505050565b600080828401905083811015610f8d576040517f08c379a0000000000000000000000000000000000000000000000000000000008152600401610f8490612042565b60405180910390fd5b8091505092915050565b60608060008351905060005b81811015610fef5782858281518110610fb857fe5b6020026020010151604051602001610fd1929190611d5b565b60405160208183030381529060405292508080600101915050610fa3565b508192505050919050565b60006110336001543085856040516020016110189493929190611da5565b6040516020818303038152906040528051906020012061103b565b905092915050565b60008160405160200161104e9190611d7f565b604051602081830303815290604052805190602001209050919050565b60008135905061107a81612375565b92915050565b600082601f83011261109157600080fd5b81356110a461109f826120ea565b6120bd565b915081818352602084019350602081019050838560208402820111156110c957600080fd5b60005b838110156110f957816110df888261106b565b8452602084019350602083019250506001810190506110cc565b5050505092915050565b600082601f83011261111457600080fd5b813561112761112282612112565b6120bd565b9150818183526020840193506020810190508360005b8381101561116d578135860161115388826111a1565b84526020840193506020830192505060018101905061113d565b5050505092915050565b6000813590506111868161238c565b92915050565b60008151905061119b8161238c565b92915050565b600082601f8301126111b257600080fd5b81356111c56111c08261213a565b6120bd565b915080825260208301602083018583830111156111e157600080fd5b6111ec8382846122dd565b50505092915050565b600081359050611204816123a3565b92915050565b600081359050611219816123ba565b92915050565b600060a0828403121561123157600080fd5b61123b60a06120bd565b9050600061124b8482850161106b565b600083015250602061125f8482850161137b565b602083015250604082013567ffffffffffffffff81111561127f57600080fd5b61128b84828501611080565b604083015250606082013567ffffffffffffffff8111156112ab57600080fd5b6112b784828501611103565b60608301525060806112cb8482850161137b565b60808301525092915050565b6000608082840312156112e957600080fd5b6112f360806120bd565b905060006113038482850161106b565b60008301525060206113178482850161137b565b602083015250604082013567ffffffffffffffff81111561133757600080fd5b61134384828501611080565b604083015250606082013567ffffffffffffffff81111561136357600080fd5b61136f84828501611103565b60608301525092915050565b60008135905061138a816123d1565b92915050565b6000602082840312156113a257600080fd5b60006113b08482850161106b565b91505092915050565b6000806000606084860312156113ce57600080fd5b60006113dc8682870161106b565b935050602084013567ffffffffffffffff8111156113f957600080fd5b61140586828701611080565b925050604084013567ffffffffffffffff81111561142257600080fd5b61142e86828701611103565b9150509250925092565b600080600080600060a0868803121561145057600080fd5b600061145e8882890161106b565b955050602061146f8882890161137b565b945050604086013567ffffffffffffffff81111561148c57600080fd5b61149888828901611080565b935050606086013567ffffffffffffffff8111156114b557600080fd5b6114c188828901611103565b925050608086013567ffffffffffffffff8111156114de57600080fd5b6114ea888289016111a1565b9150509295509295909350565b6000806040838503121561150a57600080fd5b600083013567ffffffffffffffff81111561152457600080fd5b61153085828601611080565b925050602083013567ffffffffffffffff81111561154d57600080fd5b61155985828601611103565b9150509250929050565b6000806040838503121561157657600080fd5b600083013567ffffffffffffffff81111561159057600080fd5b61159c85828601611103565b92505060206115ad85828601611177565b9150509250929050565b6000602082840312156115c957600080fd5b60006115d78482850161118c565b91505092915050565b600080604083850312156115f357600080fd5b6000611601858286016111f5565b92505060206116128582860161120a565b9150509250929050565b60006020828403121561162e57600080fd5b600082013567ffffffffffffffff81111561164857600080fd5b6116548482850161121f565b91505092915050565b60006020828403121561166f57600080fd5b600082013567ffffffffffffffff81111561168957600080fd5b611695848285016112d7565b91505092915050565b60006116aa83836116d4565b60208301905092915050565b6116bf8161225f565b82525050565b6116ce816121dc565b82525050565b6116dd816121dc565b82525050565b6116f46116ef826121dc565b61231f565b82525050565b600061170582612176565b61170f8185612199565b935061171a83612166565b8060005b8381101561174b578151611732888261169e565b975061173d8361218c565b92505060018101905061171e565b5085935050505092915050565b611761816121ee565b82525050565b611770816121fa565b82525050565b611787611782826121fa565b612331565b82525050565b600061179882612181565b6117a281856121a4565b93506117b28185602086016122ec565b6117bb81612357565b840191505092915050565b60006117d182612181565b6117db81856121b5565b93506117eb8185602086016122ec565b80840191505092915050565b61180081612271565b82525050565b61180f81612295565b82525050565b6000611822601b836121c0565b91507f476174657761793a2063616e6e6f742073656e6420746f2030783000000000006000830152602082019050919050565b6000611862601c836121d1565b91507f19457468657265756d205369676e6564204d6573736167653a0a3332000000006000830152601c82019050919050565b60006118a2602f836121c0565b91507f496e697469616c697a61626c653a2074782e6f726967696e206973206e6f742060008301527f74686520696e697469616c697a657200000000000000000000000000000000006020830152604082019050919050565b60006119086017836121c0565b91507f476174657761793a2062617463682072657665727465640000000000000000006000830152602082019050919050565b60006119486032836121c0565b91507f476174657761793a206e6f6e6365206973206c6f776572207468616e2063757260008301527f72656e74206163636f756e74206e6f6e636500000000000000000000000000006020830152604082019050919050565b60006119ae6025836121c0565b91507f476174657761793a2063616e6e6f742073656e642066726f6d2030783020616360008301527f636f756e740000000000000000000000000000000000000000000000000000006020830152604082019050919050565b6000611a146026836121c0565b91507f476174657761793a2063616e6e6f742064656c656761746520656d707479206260008301527f61746368657300000000000000000000000000000000000000000000000000006020830152604082019050919050565b6000611a7a6028836121c0565b91507f476174657761793a2073656e646572206973206e6f7420746865206163636f7560008301527f6e74206f776e65720000000000000000000000000000000000000000000000006020830152604082019050919050565b6000611ae06016836121c0565b91507f476174657761793a20696e76616c6964206261746368000000000000000000006000830152602082019050919050565b6000611b206023836121c0565b91507f476174657761793a206261746368207472616e73616374696f6e20726576657260008301527f74656400000000000000000000000000000000000000000000000000000000006020830152604082019050919050565b6000611b86601e836121c0565b91507f536166654d6174684c69623a206164646974696f6e206f766572666c6f7700006000830152602082019050919050565b6000611bc66020836121c0565b91507f476174657761793a2063616e6e6f742073656e6420656d7074792062617463686000830152602082019050919050565b6000611c06601d836121c0565b91507f476174657761793a20616c6c20626174636865732072657665727465640000006000830152602082019050919050565b611c4281612248565b82525050565b611c59611c5482612248565b61234d565b82525050565b611c6881612252565b82525050565b6000611c7a82876116e3565b601482019150611c8a8286611c48565b602082019150611c9a82856116fa565b9150611ca682846117c6565b915081905095945050505050565b6000611cc082886116e3565b601482019150611cd08287611c48565b602082019150611ce082866116fa565b9150611cec82856117c6565b9150611cf88284611c48565b6020820191508190509695505050505050565b6000611d1782846117c6565b915081905092915050565b6000611d2e82866117c6565b9150611d3a82856116e3565b601482019150611d4a82846116e3565b601482019150819050949350505050565b6000611d6782856117c6565b9150611d7382846117c6565b91508190509392505050565b6000611d8a82611855565b9150611d968284611776565b60208201915081905092915050565b6000611db18287611c48565b602082019150611dc182866116e3565b601482019150611dd18285611776565b602082019150611de182846117c6565b915081905095945050505050565b6000602082019050611e0460008301846116b6565b92915050565b6000606082019050611e1f60008301866116b6565b8181036020830152611e31818561178d565b9050611e406040830184611758565b949350505050565b6000604082019050611e5d60008301856116c5565b611e6a60208301846116c5565b9392505050565b6000602082019050611e866000830184611758565b92915050565b6000602082019050611ea16000830184611767565b92915050565b6000608082019050611ebc6000830187611767565b611ec96020830186611c5f565b611ed66040830185611767565b611ee36060830184611767565b95945050505050565b6000602082019050611f0160008301846117f7565b92915050565b6000602082019050611f1c6000830184611806565b92915050565b60006020820190508181036000830152611f3b81611815565b9050919050565b60006020820190508181036000830152611f5b81611895565b9050919050565b60006020820190508181036000830152611f7b816118fb565b9050919050565b60006020820190508181036000830152611f9b8161193b565b9050919050565b60006020820190508181036000830152611fbb816119a1565b9050919050565b60006020820190508181036000830152611fdb81611a07565b9050919050565b60006020820190508181036000830152611ffb81611a6d565b9050919050565b6000602082019050818103600083015261201b81611ad3565b9050919050565b6000602082019050818103600083015261203b81611b13565b9050919050565b6000602082019050818103600083015261205b81611b79565b9050919050565b6000602082019050818103600083015261207b81611bb9565b9050919050565b6000602082019050818103600083015261209b81611bf9565b9050919050565b60006020820190506120b76000830184611c39565b92915050565b6000604051905081810181811067ffffffffffffffff821117156120e057600080fd5b8060405250919050565b600067ffffffffffffffff82111561210157600080fd5b602082029050602081019050919050565b600067ffffffffffffffff82111561212957600080fd5b602082029050602081019050919050565b600067ffffffffffffffff82111561215157600080fd5b601f19601f8301169050602081019050919050565b6000819050602082019050919050565b600081519050919050565b600081519050919050565b6000602082019050919050565b600081905092915050565b600082825260208201905092915050565b600081905092915050565b600082825260208201905092915050565b600081905092915050565b60006121e782612228565b9050919050565b60008115159050919050565b6000819050919050565b600061220f826121dc565b9050919050565b6000612221826121dc565b9050919050565b600073ffffffffffffffffffffffffffffffffffffffff82169050919050565b6000819050919050565b600060ff82169050919050565b600061226a826122b9565b9050919050565b600061227c82612283565b9050919050565b600061228e82612228565b9050919050565b60006122a0826122a7565b9050919050565b60006122b282612228565b9050919050565b60006122c4826122cb565b9050919050565b60006122d682612228565b9050919050565b82818337600083830152505050565b60005b8381101561230a5780820151818401526020810190506122ef565b83811115612319576000848401525b50505050565b600061232a8261233b565b9050919050565b6000819050919050565b600061234682612368565b9050919050565b6000819050919050565b6000601f19601f8301169050919050565b60008160601b9050919050565b61237e816121dc565b811461238957600080fd5b50565b612395816121ee565b81146123a057600080fd5b50565b6123ac81612204565b81146123b757600080fd5b50565b6123c381612216565b81146123ce57600080fd5b50565b6123da81612248565b81146123e557600080fd5b5056fea164736f6c634300060c000a",
  "devdoc": {
    "author": "Stanisaw Gogowski <stan@pillarproject.io>",
    "events": {
      "BatchDelegated(address,bytes,bool)": {
        "details": "Emitted when the single batch is delegated",
        "params": {
          "batch": "batch",
          "sender": "sender address",
          "succeeded": "if succeeded"
        }
      }
    },
    "kind": "dev",
    "methods": {
      "constructor": {
        "details": "Public constructor"
      },
      "delegateBatch(address,uint256,address[],bytes[],bytes)": {
        "details": "Use `hashDelegatedBatch` to create sender message payload. `GatewayRecipient` context api: `_getContextAccount` will return `account` arg `_getContextSender` will return recovered address from `senderSignature` arg",
        "params": {
          "account": "account address",
          "data": "array of batch data",
          "nonce": "next account nonce",
          "senderSignature": "sender signature",
          "to": "array of batch recipients contracts"
        }
      },
      "delegateBatchWithGasPrice(address,uint256,address[],bytes[],bytes)": {
        "details": "Use `hashDelegatedBatchWithGasPrice` to create sender message payload (tx.gasprice as gasPrice) `GatewayRecipient` context api: `_getContextAccount` will return `account` arg `_getContextSender` will return recovered address from `senderSignature` arg",
        "params": {
          "account": "account address",
          "data": "array of batch data",
          "nonce": "next account nonce",
          "senderSignature": "sender signature",
          "to": "array of batch recipients contracts"
        }
      },
      "delegateBatches(bytes[],bool)": {
        "details": "It will revert when all batches fail",
        "params": {
          "batches": "array of batches",
          "revertOnFailure": "reverts on any error"
        }
      },
      "getAccountNextNonce(address)": {
        "params": {
          "account": "account address"
        },
        "returns": {
          "_0": "next nonce"
        }
      },
      "hashDelegatedBatch((address,uint256,address[],bytes[]))": {
        "params": {
          "delegatedBatch": "struct"
        },
        "returns": {
          "_0": "hash"
        }
      },
      "hashDelegatedBatchWithGasPrice((address,uint256,address[],bytes[],uint256))": {
        "params": {
          "delegatedBatch": "struct"
        },
        "returns": {
          "_0": "hash"
        }
      },
      "initialize(address,address)": {
        "params": {
          "externalAccountRegistry_": "`ExternalAccountRegistry` contract address",
          "personalAccountRegistry_": "`PersonalAccountRegistry` contract address"
        }
      },
      "isInitialized()": {
        "returns": {
          "_0": "true when contract is initialized"
        }
      },
      "sendBatch(address[],bytes[])": {
        "details": "`GatewayRecipient` context api: `_getContextAccount` will return `msg.sender` `_getContextSender` will return `msg.sender`",
        "params": {
          "data": "array of batch data",
          "to": "array of batch recipients contracts"
        }
      },
      "sendBatchFromAccount(address,address[],bytes[])": {
        "details": "`GatewayRecipient` context api: `_getContextAccount` will return `account` arg `_getContextSender` will return `msg.sender`",
        "params": {
          "account": "account address",
          "data": "array of batch data",
          "to": "array of batch recipients contracts"
        }
      }
    },
    "title": "Gateway",
    "version": 1
  },
  "userdoc": {
    "kind": "user",
    "methods": {
      "delegateBatch(address,uint256,address[],bytes[],bytes)": {
        "notice": "Delegates batch from the account"
      },
      "delegateBatchWithGasPrice(address,uint256,address[],bytes[],bytes)": {
        "notice": "Delegates batch from the account (with gas price)"
      },
      "delegateBatches(bytes[],bool)": {
        "notice": "Delegates multiple batches"
      },
      "getAccountNextNonce(address)": {
        "notice": "Gets next account nonce"
      },
      "hashDelegatedBatch((address,uint256,address[],bytes[]))": {
        "notice": "Hashes `DelegatedBatch` message payload"
      },
      "hashDelegatedBatchWithGasPrice((address,uint256,address[],bytes[],uint256))": {
        "notice": "Hashes `DelegatedBatchWithGasPrice` message payload"
      },
      "initialize(address,address)": {
        "notice": "Initializes `Gateway` contract"
      },
      "isInitialized()": {
        "notice": "Check if contract is initialized"
      },
      "sendBatch(address[],bytes[])": {
        "notice": "Sends batch"
      },
      "sendBatchFromAccount(address,address[],bytes[])": {
        "notice": "Sends batch from the account"
      }
    },
    "notice": "GSN replacement",
    "version": 1
  },
  "storageLayout": {
    "storage": [
      {
        "astId": 1871,
        "contract": "src/gateway/Gateway.sol:Gateway",
        "label": "initializer",
        "offset": 0,
        "slot": "0",
        "type": "t_address"
      },
      {
        "astId": 1935,
        "contract": "src/gateway/Gateway.sol:Gateway",
        "label": "chainId",
        "offset": 0,
        "slot": "1",
        "type": "t_uint256"
      },
      {
        "astId": 4647,
        "contract": "src/gateway/Gateway.sol:Gateway",
        "label": "externalAccountRegistry",
        "offset": 0,
        "slot": "2",
        "type": "t_contract(ExternalAccountRegistry)4591"
      },
      {
        "astId": 4649,
        "contract": "src/gateway/Gateway.sol:Gateway",
        "label": "personalAccountRegistry",
        "offset": 0,
        "slot": "3",
        "type": "t_contract(PersonalAccountRegistry)7452"
      },
      {
        "astId": 4653,
        "contract": "src/gateway/Gateway.sol:Gateway",
        "label": "accountNonce",
        "offset": 0,
        "slot": "4",
        "type": "t_mapping(t_address,t_uint256)"
      }
    ],
    "types": {
      "t_address": {
        "encoding": "inplace",
        "label": "address",
        "numberOfBytes": "20"
      },
      "t_contract(ExternalAccountRegistry)4591": {
        "encoding": "inplace",
        "label": "contract ExternalAccountRegistry",
        "numberOfBytes": "20"
      },
      "t_contract(PersonalAccountRegistry)7452": {
        "encoding": "inplace",
        "label": "contract PersonalAccountRegistry",
        "numberOfBytes": "20"
      },
      "t_mapping(t_address,t_uint256)": {
        "encoding": "mapping",
        "key": "t_address",
        "label": "mapping(address => uint256)",
        "numberOfBytes": "32",
        "value": "t_uint256"
      },
      "t_uint256": {
        "encoding": "inplace",
        "label": "uint256",
        "numberOfBytes": "32"
      }
    }
  }
}