{
	"bridges/facets/StargateFacet.sol": {
		"StargateFacet": {
			"abi": [
				{
					"inputs": [],
					"name": "InvalidAmount",
					"type": "error"
				},
				{
					"inputs": [],
					"name": "InvalidConfig",
					"type": "error"
				},
				{
					"inputs": [],
					"name": "InvalidDestinationPoolId",
					"type": "error"
				},
				{
					"inputs": [],
					"name": "InvalidSourcePoolId",
					"type": "error"
				},
				{
					"inputs": [],
					"name": "NoMsgValueForCrossChainMessage",
					"type": "error"
				},
				{
					"inputs": [],
					"name": "ReentrancyError",
					"type": "error"
				},
				{
					"inputs": [],
					"name": "SenderNotStargateRouter",
					"type": "error"
				},
				{
					"inputs": [],
					"name": "StargateRouterAddressZero",
					"type": "error"
				},
				{
					"anonymous": false,
					"inputs": [
						{
							"indexed": false,
							"internalType": "uint16",
							"name": "chainId",
							"type": "uint16"
						},
						{
							"indexed": false,
							"internalType": "address",
							"name": "token",
							"type": "address"
						},
						{
							"indexed": false,
							"internalType": "uint256",
							"name": "poolId",
							"type": "uint256"
						}
					],
					"name": "SGAddedPool",
					"type": "event"
				},
				{
					"anonymous": false,
					"inputs": [
						{
							"indexed": false,
							"internalType": "address",
							"name": "stargate",
							"type": "address"
						},
						{
							"indexed": false,
							"internalType": "uint16",
							"name": "chainId",
							"type": "uint16"
						}
					],
					"name": "SGInitialized",
					"type": "event"
				},
				{
					"anonymous": false,
					"inputs": [
						{
							"indexed": false,
							"internalType": "address",
							"name": "token",
							"type": "address"
						},
						{
							"indexed": false,
							"internalType": "uint256",
							"name": "amount",
							"type": "uint256"
						}
					],
					"name": "SGReceivedOnDestination",
					"type": "event"
				},
				{
					"anonymous": false,
					"inputs": [
						{
							"indexed": false,
							"internalType": "string",
							"name": "bridgeUsed",
							"type": "string"
						},
						{
							"indexed": false,
							"internalType": "address",
							"name": "fromToken",
							"type": "address"
						},
						{
							"indexed": false,
							"internalType": "address",
							"name": "toToken",
							"type": "address"
						},
						{
							"indexed": false,
							"internalType": "address",
							"name": "from",
							"type": "address"
						},
						{
							"indexed": false,
							"internalType": "address",
							"name": "to",
							"type": "address"
						},
						{
							"indexed": false,
							"internalType": "uint256",
							"name": "amount",
							"type": "uint256"
						},
						{
							"indexed": false,
							"internalType": "uint16",
							"name": "chainIdTo",
							"type": "uint16"
						}
					],
					"name": "SGTransferStarted",
					"type": "event"
				},
				{
					"anonymous": false,
					"inputs": [
						{
							"indexed": false,
							"internalType": "address",
							"name": "newAddress",
							"type": "address"
						}
					],
					"name": "SGUpdatedRouter",
					"type": "event"
				},
				{
					"anonymous": false,
					"inputs": [
						{
							"indexed": false,
							"internalType": "uint256",
							"name": "newSlippage",
							"type": "uint256"
						}
					],
					"name": "SGUpdatedSlippageTolerance",
					"type": "event"
				},
				{
					"inputs": [
						{
							"internalType": "uint16",
							"name": "_chainId",
							"type": "uint16"
						},
						{
							"internalType": "address",
							"name": "_token",
							"type": "address"
						},
						{
							"internalType": "uint256",
							"name": "_poolId",
							"type": "uint256"
						}
					],
					"name": "sgAddPool",
					"outputs": [],
					"stateMutability": "nonpayable",
					"type": "function"
				},
				{
					"inputs": [
						{
							"components": [
								{
									"internalType": "uint256",
									"name": "qty",
									"type": "uint256"
								},
								{
									"internalType": "address",
									"name": "fromToken",
									"type": "address"
								},
								{
									"internalType": "address",
									"name": "toToken",
									"type": "address"
								},
								{
									"internalType": "uint16",
									"name": "dstChainId",
									"type": "uint16"
								},
								{
									"internalType": "uint16",
									"name": "srcPoolId",
									"type": "uint16"
								},
								{
									"internalType": "uint16",
									"name": "dstPoolId",
									"type": "uint16"
								},
								{
									"internalType": "address payable",
									"name": "to",
									"type": "address"
								},
								{
									"internalType": "address",
									"name": "destStargateComposed",
									"type": "address"
								}
							],
							"internalType": "struct StargateFacet.StargateData",
							"name": "_sgData",
							"type": "tuple"
						}
					],
					"name": "sgBridgeTokens",
					"outputs": [
						{
							"internalType": "bool",
							"name": "",
							"type": "bool"
						}
					],
					"stateMutability": "payable",
					"type": "function"
				},
				{
					"inputs": [
						{
							"internalType": "uint16",
							"name": "_destChain",
							"type": "uint16"
						},
						{
							"internalType": "address",
							"name": "_receiver",
							"type": "address"
						},
						{
							"internalType": "address",
							"name": "_router",
							"type": "address"
						}
					],
					"name": "sgCalculateFees",
					"outputs": [
						{
							"internalType": "uint256",
							"name": "",
							"type": "uint256"
						}
					],
					"stateMutability": "view",
					"type": "function"
				},
				{
					"inputs": [
						{
							"internalType": "uint16",
							"name": "_chainId",
							"type": "uint16"
						},
						{
							"internalType": "address",
							"name": "_token",
							"type": "address"
						},
						{
							"internalType": "uint256",
							"name": "_poolId",
							"type": "uint256"
						}
					],
					"name": "sgCheckPoolId",
					"outputs": [
						{
							"internalType": "bool",
							"name": "",
							"type": "bool"
						}
					],
					"stateMutability": "view",
					"type": "function"
				},
				{
					"inputs": [
						{
							"internalType": "address",
							"name": "_stargateRouter",
							"type": "address"
						},
						{
							"internalType": "uint16",
							"name": "_chainId",
							"type": "uint16"
						}
					],
					"name": "sgInitialize",
					"outputs": [],
					"stateMutability": "nonpayable",
					"type": "function"
				},
				{
					"inputs": [
						{
							"internalType": "uint256",
							"name": "_amount",
							"type": "uint256"
						}
					],
					"name": "sgMinAmountOut",
					"outputs": [
						{
							"internalType": "uint256",
							"name": "",
							"type": "uint256"
						}
					],
					"stateMutability": "view",
					"type": "function"
				},
				{
					"inputs": [
						{
							"internalType": "uint16",
							"name": "_chainId",
							"type": "uint16"
						},
						{
							"internalType": "bytes",
							"name": "_srcAddress",
							"type": "bytes"
						},
						{
							"internalType": "uint256",
							"name": "_nonce",
							"type": "uint256"
						},
						{
							"internalType": "address",
							"name": "_token",
							"type": "address"
						},
						{
							"internalType": "uint256",
							"name": "amountLD",
							"type": "uint256"
						},
						{
							"internalType": "bytes",
							"name": "_payload",
							"type": "bytes"
						}
					],
					"name": "sgReceive",
					"outputs": [],
					"stateMutability": "nonpayable",
					"type": "function"
				},
				{
					"inputs": [
						{
							"internalType": "address",
							"name": "_newAddress",
							"type": "address"
						}
					],
					"name": "sgUpdateRouter",
					"outputs": [],
					"stateMutability": "nonpayable",
					"type": "function"
				},
				{
					"inputs": [
						{
							"internalType": "uint256",
							"name": "_newSlippage",
							"type": "uint256"
						}
					],
					"name": "sgUpdateSlippageTolerance",
					"outputs": [],
					"stateMutability": "nonpayable",
					"type": "function"
				},
				{
					"inputs": [
						{
							"internalType": "address",
							"name": "_token",
							"type": "address"
						},
						{
							"internalType": "address",
							"name": "_user",
							"type": "address"
						},
						{
							"internalType": "uint256",
							"name": "_amount",
							"type": "uint256"
						}
					],
					"name": "sgWithdraw",
					"outputs": [],
					"stateMutability": "payable",
					"type": "function"
				},
				{
					"stateMutability": "payable",
					"type": "receive"
				}
			],
			"devdoc": {
				"author": "Luke Wickens <luke@pillarproject.io>",
				"kind": "dev",
				"methods": {
					"sgBridgeTokens((uint256,address,address,uint16,uint16,uint16,address,address))": {
						"params": {
							"_sgData": "- struct containing information required to execute bridge"
						}
					},
					"sgInitialize(address,uint16)": {
						"params": {
							"_chainId": "- current chain id",
							"_stargateRouter": "- address of the Stargate router contract"
						}
					},
					"sgReceive(uint16,bytes,uint256,address,uint256,bytes)": {
						"params": {
							"_chainId": "The remote chainId sending the tokens",
							"_nonce": "The message ordering nonce",
							"_payload": "The bytes containing the toAddress",
							"_srcAddress": "The remote Bridge address",
							"_token": "The token contract on the local chain",
							"amountLD": "The qty of local _token contract tokens"
						}
					}
				},
				"title": "StargateFacet",
				"version": 1
			},
			"evm": {
				"assembly": "    /* \"bridges/facets/StargateFacet.sol\":880:10295  contract StargateFacet is IStargateReceiver, ReentrancyGuard {... */\n  mstore(0x40, 0x80)\n  callvalue\n  dup1\n  iszero\n  tag_1\n  jumpi\n  0x00\n  dup1\n  revert\ntag_1:\n  pop\n  dataSize(sub_0)\n  dup1\n  dataOffset(sub_0)\n  0x00\n  codecopy\n  0x00\n  return\nstop\n\nsub_0: assembly {\n        /* \"bridges/facets/StargateFacet.sol\":880:10295  contract StargateFacet is IStargateReceiver, ReentrancyGuard {... */\n      mstore(0x40, 0x80)\n      jumpi(tag_1, lt(calldatasize, 0x04))\n      shr(0xe0, calldataload(0x00))\n      dup1\n      0x618c3f29\n      gt\n      tag_13\n      jumpi\n      dup1\n      0x618c3f29\n      eq\n      tag_8\n      jumpi\n      dup1\n      0x6acf5e3f\n      eq\n      tag_9\n      jumpi\n      dup1\n      0x90f12364\n      eq\n      tag_10\n      jumpi\n      dup1\n      0xab8236f3\n      eq\n      tag_11\n      jumpi\n      dup1\n      0xc722a336\n      eq\n      tag_12\n      jumpi\n      jump(tag_2)\n    tag_13:\n      dup1\n      0x217aabb7\n      eq\n      tag_3\n      jumpi\n      dup1\n      0x2aad46e3\n      eq\n      tag_4\n      jumpi\n      dup1\n      0x42d910c6\n      eq\n      tag_5\n      jumpi\n      dup1\n      0x498ee469\n      eq\n      tag_6\n      jumpi\n      dup1\n      0x4be85c35\n      eq\n      tag_7\n      jumpi\n      jump(tag_2)\n    tag_1:\n      jumpi(tag_2, calldatasize)\n      stop\n    tag_2:\n      0x00\n      dup1\n      revert\n        /* \"bridges/facets/StargateFacet.sol\":8662:8912  function sgUpdateSlippageTolerance(uint256 _newSlippage) external {... */\n    tag_3:\n      callvalue\n      dup1\n      iszero\n      tag_16\n      jumpi\n      0x00\n      dup1\n      revert\n    tag_16:\n      pop\n      tag_17\n      0x04\n      dup1\n      calldatasize\n      sub\n      dup2\n      add\n      swap1\n      tag_18\n      swap2\n      swap1\n      tag_19\n      jump\t// in\n    tag_18:\n      tag_20\n      jump\t// in\n    tag_17:\n      stop\n        /* \"bridges/facets/StargateFacet.sol\":9236:9536  function sgAddPool(... */\n    tag_4:\n      callvalue\n      dup1\n      iszero\n      tag_21\n      jumpi\n      0x00\n      dup1\n      revert\n    tag_21:\n      pop\n      tag_22\n      0x04\n      dup1\n      calldatasize\n      sub\n      dup2\n      add\n      swap1\n      tag_23\n      swap2\n      swap1\n      tag_24\n      jump\t// in\n    tag_23:\n      tag_25\n      jump\t// in\n    tag_22:\n      stop\n        /* \"bridges/facets/StargateFacet.sol\":7603:8114  function sgCalculateFees(... */\n    tag_5:\n      callvalue\n      dup1\n      iszero\n      tag_26\n      jumpi\n      0x00\n      dup1\n      revert\n    tag_26:\n      pop\n      tag_27\n      0x04\n      dup1\n      calldatasize\n      sub\n      dup2\n      add\n      swap1\n      tag_28\n      swap2\n      swap1\n      tag_29\n      jump\t// in\n    tag_28:\n      tag_30\n      jump\t// in\n    tag_27:\n      mload(0x40)\n      tag_31\n      swap2\n      swap1\n      tag_32\n      jump\t// in\n    tag_31:\n      mload(0x40)\n      dup1\n      swap2\n      sub\n      swap1\n      return\n        /* \"bridges/facets/StargateFacet.sol\":2818:4132  function sgInitialize(address _stargateRouter, uint16 _chainId) external {... */\n    tag_6:\n      callvalue\n      dup1\n      iszero\n      tag_33\n      jumpi\n      0x00\n      dup1\n      revert\n    tag_33:\n      pop\n      tag_34\n      0x04\n      dup1\n      calldatasize\n      sub\n      dup2\n      add\n      swap1\n      tag_35\n      swap2\n      swap1\n      tag_36\n      jump\t// in\n    tag_35:\n      tag_37\n      jump\t// in\n    tag_34:\n      stop\n        /* \"bridges/facets/StargateFacet.sol\":8341:8656  function sgUpdateRouter(address _newAddress) external {... */\n    tag_7:\n      callvalue\n      dup1\n      iszero\n      tag_38\n      jumpi\n      0x00\n      dup1\n      revert\n    tag_38:\n      pop\n      tag_39\n      0x04\n      dup1\n      calldatasize\n      sub\n      dup2\n      add\n      swap1\n      tag_40\n      swap2\n      swap1\n      tag_41\n      jump\t// in\n    tag_40:\n      tag_42\n      jump\t// in\n    tag_39:\n      stop\n        /* \"bridges/facets/StargateFacet.sol\":8120:8335  function sgMinAmountOut(uint256 _amount) public view returns (uint256) {... */\n    tag_8:\n      callvalue\n      dup1\n      iszero\n      tag_43\n      jumpi\n      0x00\n      dup1\n      revert\n    tag_43:\n      pop\n      tag_44\n      0x04\n      dup1\n      calldatasize\n      sub\n      dup2\n      add\n      swap1\n      tag_45\n      swap2\n      swap1\n      tag_19\n      jump\t// in\n    tag_45:\n      tag_46\n      jump\t// in\n    tag_44:\n      mload(0x40)\n      tag_47\n      swap2\n      swap1\n      tag_32\n      jump\t// in\n    tag_47:\n      mload(0x40)\n      dup1\n      swap2\n      sub\n      swap1\n      return\n        /* \"bridges/facets/StargateFacet.sol\":4220:6721  function sgBridgeTokens(StargateData memory _sgData)... */\n    tag_9:\n      tag_48\n      0x04\n      dup1\n      calldatasize\n      sub\n      dup2\n      add\n      swap1\n      tag_49\n      swap2\n      swap1\n      tag_50\n      jump\t// in\n    tag_49:\n      tag_51\n      jump\t// in\n    tag_48:\n      mload(0x40)\n      tag_52\n      swap2\n      swap1\n      tag_53\n      jump\t// in\n    tag_52:\n      mload(0x40)\n      dup1\n      swap2\n      sub\n      swap1\n      return\n        /* \"bridges/facets/StargateFacet.sol\":9542:9791  function sgCheckPoolId(... */\n    tag_10:\n      callvalue\n      dup1\n      iszero\n      tag_54\n      jumpi\n      0x00\n      dup1\n      revert\n    tag_54:\n      pop\n      tag_55\n      0x04\n      dup1\n      calldatasize\n      sub\n      dup2\n      add\n      swap1\n      tag_56\n      swap2\n      swap1\n      tag_24\n      jump\t// in\n    tag_56:\n      tag_57\n      jump\t// in\n    tag_55:\n      mload(0x40)\n      tag_58\n      swap2\n      swap1\n      tag_53\n      jump\t// in\n    tag_58:\n      mload(0x40)\n      dup1\n      swap2\n      sub\n      swap1\n      return\n        /* \"bridges/facets/StargateFacet.sol\":7074:7597  function sgReceive(... */\n    tag_11:\n      callvalue\n      dup1\n      iszero\n      tag_59\n      jumpi\n      0x00\n      dup1\n      revert\n    tag_59:\n      pop\n      tag_60\n      0x04\n      dup1\n      calldatasize\n      sub\n      dup2\n      add\n      swap1\n      tag_61\n      swap2\n      swap1\n      tag_62\n      jump\t// in\n    tag_61:\n      tag_63\n      jump\t// in\n    tag_60:\n      stop\n        /* \"bridges/facets/StargateFacet.sol\":8918:9230  function sgWithdraw(... */\n    tag_12:\n      tag_64\n      0x04\n      dup1\n      calldatasize\n      sub\n      dup2\n      add\n      swap1\n      tag_65\n      swap2\n      swap1\n      tag_66\n      jump\t// in\n    tag_65:\n      tag_67\n      jump\t// in\n    tag_64:\n      stop\n        /* \"bridges/facets/StargateFacet.sol\":8662:8912  function sgUpdateSlippageTolerance(uint256 _newSlippage) external {... */\n    tag_20:\n        /* \"bridges/facets/StargateFacet.sol\":8738:8773  LibDiamond.enforceIsContractOwner() */\n      tag_69\n        /* \"bridges/facets/StargateFacet.sol\":8738:8771  LibDiamond.enforceIsContractOwner */\n      tag_70\n        /* \"bridges/facets/StargateFacet.sol\":8738:8773  LibDiamond.enforceIsContractOwner() */\n      jump\t// in\n    tag_69:\n        /* \"bridges/facets/StargateFacet.sol\":8783:8800  Storage storage s */\n      0x00\n        /* \"bridges/facets/StargateFacet.sol\":8803:8815  getStorage() */\n      tag_71\n        /* \"bridges/facets/StargateFacet.sol\":8803:8813  getStorage */\n      tag_72\n        /* \"bridges/facets/StargateFacet.sol\":8803:8815  getStorage() */\n      jump\t// in\n    tag_71:\n        /* \"bridges/facets/StargateFacet.sol\":8783:8815  Storage storage s = getStorage() */\n      swap1\n      pop\n        /* \"bridges/facets/StargateFacet.sol\":8838:8850  _newSlippage */\n      dup2\n        /* \"bridges/facets/StargateFacet.sol\":8825:8826  s */\n      dup2\n        /* \"bridges/facets/StargateFacet.sol\":8825:8835  s.slippage */\n      0x02\n      add\n        /* \"bridges/facets/StargateFacet.sol\":8825:8850  s.slippage = _newSlippage */\n      dup2\n      swap1\n      sstore\n      pop\n        /* \"bridges/facets/StargateFacet.sol\":8865:8905  SGUpdatedSlippageTolerance(_newSlippage) */\n      0x45934903f6b10aff9d3435b8362d284d95d14ca68e8554f05f04c7856a6003c0\n        /* \"bridges/facets/StargateFacet.sol\":8892:8904  _newSlippage */\n      dup3\n        /* \"bridges/facets/StargateFacet.sol\":8865:8905  SGUpdatedSlippageTolerance(_newSlippage) */\n      mload(0x40)\n      tag_73\n      swap2\n      swap1\n      tag_32\n      jump\t// in\n    tag_73:\n      mload(0x40)\n      dup1\n      swap2\n      sub\n      swap1\n      log1\n        /* \"bridges/facets/StargateFacet.sol\":8662:8912  function sgUpdateSlippageTolerance(uint256 _newSlippage) external {... */\n      pop\n      pop\n      jump\t// out\n        /* \"bridges/facets/StargateFacet.sol\":9236:9536  function sgAddPool(... */\n    tag_25:\n        /* \"bridges/facets/StargateFacet.sol\":9352:9387  LibDiamond.enforceIsContractOwner() */\n      tag_75\n        /* \"bridges/facets/StargateFacet.sol\":9352:9385  LibDiamond.enforceIsContractOwner */\n      tag_70\n        /* \"bridges/facets/StargateFacet.sol\":9352:9387  LibDiamond.enforceIsContractOwner() */\n      jump\t// in\n    tag_75:\n        /* \"bridges/facets/StargateFacet.sol\":9397:9414  Storage storage s */\n      0x00\n        /* \"bridges/facets/StargateFacet.sol\":9417:9429  getStorage() */\n      tag_76\n        /* \"bridges/facets/StargateFacet.sol\":9417:9427  getStorage */\n      tag_72\n        /* \"bridges/facets/StargateFacet.sol\":9417:9429  getStorage() */\n      jump\t// in\n    tag_76:\n        /* \"bridges/facets/StargateFacet.sol\":9397:9429  Storage storage s = getStorage() */\n      swap1\n      pop\n        /* \"bridges/facets/StargateFacet.sol\":9469:9476  _poolId */\n      dup2\n        /* \"bridges/facets/StargateFacet.sol\":9439:9440  s */\n      dup2\n        /* \"bridges/facets/StargateFacet.sol\":9439:9448  s.poolIds */\n      0x03\n      add\n        /* \"bridges/facets/StargateFacet.sol\":9439:9458  s.poolIds[_chainId] */\n      0x00\n        /* \"bridges/facets/StargateFacet.sol\":9449:9457  _chainId */\n      dup7\n        /* \"bridges/facets/StargateFacet.sol\":9439:9458  s.poolIds[_chainId] */\n      0xffff\n      and\n      0xffff\n      and\n      dup2\n      mstore\n      0x20\n      add\n      swap1\n      dup2\n      mstore\n      0x20\n      add\n      0x00\n      keccak256\n        /* \"bridges/facets/StargateFacet.sol\":9439:9466  s.poolIds[_chainId][_token] */\n      0x00\n        /* \"bridges/facets/StargateFacet.sol\":9459:9465  _token */\n      dup6\n        /* \"bridges/facets/StargateFacet.sol\":9439:9466  s.poolIds[_chainId][_token] */\n      0xffffffffffffffffffffffffffffffffffffffff\n      and\n      0xffffffffffffffffffffffffffffffffffffffff\n      and\n      dup2\n      mstore\n      0x20\n      add\n      swap1\n      dup2\n      mstore\n      0x20\n      add\n      0x00\n      keccak256\n        /* \"bridges/facets/StargateFacet.sol\":9439:9476  s.poolIds[_chainId][_token] = _poolId */\n      dup2\n      swap1\n      sstore\n      pop\n        /* \"bridges/facets/StargateFacet.sol\":9491:9529  SGAddedPool(_chainId, _token, _poolId) */\n      0x5a600144b7b71ca7ee988e17e7745e8d46eb24056d4818716be29fa976393a8e\n        /* \"bridges/facets/StargateFacet.sol\":9503:9511  _chainId */\n      dup5\n        /* \"bridges/facets/StargateFacet.sol\":9513:9519  _token */\n      dup5\n        /* \"bridges/facets/StargateFacet.sol\":9521:9528  _poolId */\n      dup5\n        /* \"bridges/facets/StargateFacet.sol\":9491:9529  SGAddedPool(_chainId, _token, _poolId) */\n      mload(0x40)\n      tag_77\n      swap4\n      swap3\n      swap2\n      swap1\n      tag_78\n      jump\t// in\n    tag_77:\n      mload(0x40)\n      dup1\n      swap2\n      sub\n      swap1\n      log1\n        /* \"bridges/facets/StargateFacet.sol\":9236:9536  function sgAddPool(... */\n      pop\n      pop\n      pop\n      pop\n      jump\t// out\n        /* \"bridges/facets/StargateFacet.sol\":7603:8114  function sgCalculateFees(... */\n    tag_30:\n        /* \"bridges/facets/StargateFacet.sol\":7734:7741  uint256 */\n      0x00\n        /* \"bridges/facets/StargateFacet.sol\":7754:7771  uint256 nativeFee */\n      dup1\n        /* \"bridges/facets/StargateFacet.sol\":7793:7800  _router */\n      dup3\n        /* \"bridges/facets/StargateFacet.sol\":7777:7819  IStargateRouter(_router).quoteLayerZeroFee */\n      0xffffffffffffffffffffffffffffffffffffffff\n      and\n      0x0a512369\n        /* \"bridges/facets/StargateFacet.sol\":7833:7843  _destChain */\n      dup7\n        /* \"bridges/facets/StargateFacet.sol\":7881:7882  1 */\n      0x01\n        /* \"bridges/facets/StargateFacet.sol\":7925:7934  _receiver */\n      dup8\n        /* \"bridges/facets/StargateFacet.sol\":7908:7935  abi.encodePacked(_receiver) */\n      add(0x20, mload(0x40))\n      tag_80\n      swap2\n      swap1\n      tag_81\n      jump\t// in\n    tag_80:\n      mload(0x40)\n      0x20\n      dup2\n      dup4\n      sub\n      sub\n      dup2\n      mstore\n      swap1\n      0x40\n      mstore\n        /* \"bridges/facets/StargateFacet.sol\":8031:8071  IStargateRouter.lzTxObj(200000, 0, \"0x\") */\n      mload(0x40)\n      dup1\n      0x60\n      add\n      0x40\n      mstore\n      dup1\n        /* \"bridges/facets/StargateFacet.sol\":8055:8061  200000 */\n      0x030d40\n        /* \"bridges/facets/StargateFacet.sol\":8031:8071  IStargateRouter.lzTxObj(200000, 0, \"0x\") */\n      dup2\n      mstore\n      0x20\n      add\n        /* \"bridges/facets/StargateFacet.sol\":8063:8064  0 */\n      0x00\n        /* \"bridges/facets/StargateFacet.sol\":8031:8071  IStargateRouter.lzTxObj(200000, 0, \"0x\") */\n      dup2\n      mstore\n      0x20\n      add\n      mload(0x40)\n      dup1\n      0x40\n      add\n      0x40\n      mstore\n      dup1\n      0x02\n      dup2\n      mstore\n      0x20\n      add\n      0x3078000000000000000000000000000000000000000000000000000000000000\n      dup2\n      mstore\n      pop\n      dup2\n      mstore\n      pop\n        /* \"bridges/facets/StargateFacet.sol\":7777:8081  IStargateRouter(_router).quoteLayerZeroFee(... */\n      mload(0x40)\n      dup6\n      0xffffffff\n      and\n      0xe0\n      shl\n      dup2\n      mstore\n      0x04\n      add\n      tag_82\n      swap5\n      swap4\n      swap3\n      swap2\n      swap1\n      tag_83\n      jump\t// in\n    tag_82:\n      0x40\n      dup1\n      mload\n      dup1\n      dup4\n      sub\n      dup2\n      dup7\n      dup1\n      extcodesize\n      iszero\n      dup1\n      iszero\n      tag_84\n      jumpi\n      0x00\n      dup1\n      revert\n    tag_84:\n      pop\n      gas\n      staticcall\n      iszero\n      dup1\n      iszero\n      tag_86\n      jumpi\n      returndatasize\n      0x00\n      dup1\n      returndatacopy\n      revert(0x00, returndatasize)\n    tag_86:\n      pop\n      pop\n      pop\n      pop\n      mload(0x40)\n      returndatasize\n      not(0x1f)\n      0x1f\n      dup3\n      add\n      and\n      dup3\n      add\n      dup1\n      0x40\n      mstore\n      pop\n      dup2\n      add\n      swap1\n      tag_87\n      swap2\n      swap1\n      tag_88\n      jump\t// in\n    tag_87:\n        /* \"bridges/facets/StargateFacet.sol\":7753:8081  (uint256 nativeFee, ) = IStargateRouter(_router).quoteLayerZeroFee(... */\n      pop\n      swap1\n      pop\n        /* \"bridges/facets/StargateFacet.sol\":8098:8107  nativeFee */\n      dup1\n        /* \"bridges/facets/StargateFacet.sol\":8091:8107  return nativeFee */\n      swap2\n      pop\n      pop\n        /* \"bridges/facets/StargateFacet.sol\":7603:8114  function sgCalculateFees(... */\n      swap4\n      swap3\n      pop\n      pop\n      pop\n      jump\t// out\n        /* \"bridges/facets/StargateFacet.sol\":2818:4132  function sgInitialize(address _stargateRouter, uint16 _chainId) external {... */\n    tag_37:\n        /* \"bridges/facets/StargateFacet.sol\":2932:2933  0 */\n      0x00\n        /* \"bridges/facets/StargateFacet.sol\":2905:2934  _stargateRouter == address(0) */\n      0xffffffffffffffffffffffffffffffffffffffff\n      and\n        /* \"bridges/facets/StargateFacet.sol\":2905:2920  _stargateRouter */\n      dup3\n        /* \"bridges/facets/StargateFacet.sol\":2905:2934  _stargateRouter == address(0) */\n      0xffffffffffffffffffffffffffffffffffffffff\n      and\n      eq\n        /* \"bridges/facets/StargateFacet.sol\":2901:2958  if (_stargateRouter == address(0)) revert InvalidConfig() */\n      iszero\n      tag_90\n      jumpi\n        /* \"bridges/facets/StargateFacet.sol\":2943:2958  InvalidConfig() */\n      mload(0x40)\n      0x35be3ac800000000000000000000000000000000000000000000000000000000\n      dup2\n      mstore\n      0x04\n      add\n      mload(0x40)\n      dup1\n      swap2\n      sub\n      swap1\n      revert\n        /* \"bridges/facets/StargateFacet.sol\":2901:2958  if (_stargateRouter == address(0)) revert InvalidConfig() */\n    tag_90:\n        /* \"bridges/facets/StargateFacet.sol\":2968:3003  LibDiamond.enforceIsContractOwner() */\n      tag_91\n        /* \"bridges/facets/StargateFacet.sol\":2968:3001  LibDiamond.enforceIsContractOwner */\n      tag_70\n        /* \"bridges/facets/StargateFacet.sol\":2968:3003  LibDiamond.enforceIsContractOwner() */\n      jump\t// in\n    tag_91:\n        /* \"bridges/facets/StargateFacet.sol\":3013:3030  Storage storage s */\n      0x00\n        /* \"bridges/facets/StargateFacet.sol\":3033:3045  getStorage() */\n      tag_92\n        /* \"bridges/facets/StargateFacet.sol\":3033:3043  getStorage */\n      tag_72\n        /* \"bridges/facets/StargateFacet.sol\":3033:3045  getStorage() */\n      jump\t// in\n    tag_92:\n        /* \"bridges/facets/StargateFacet.sol\":3013:3045  Storage storage s = getStorage() */\n      swap1\n      pop\n        /* \"bridges/facets/StargateFacet.sol\":3082:3097  _stargateRouter */\n      dup3\n        /* \"bridges/facets/StargateFacet.sol\":3055:3056  s */\n      dup2\n        /* \"bridges/facets/StargateFacet.sol\":3055:3071  s.stargateRouter */\n      0x00\n      add\n      0x00\n        /* \"bridges/facets/StargateFacet.sol\":3055:3098  s.stargateRouter = address(_stargateRouter) */\n      0x0100\n      exp\n      dup2\n      sload\n      dup2\n      0xffffffffffffffffffffffffffffffffffffffff\n      mul\n      not\n      and\n      swap1\n      dup4\n      0xffffffffffffffffffffffffffffffffffffffff\n      and\n      mul\n      or\n      swap1\n      sstore\n      pop\n        /* \"bridges/facets/StargateFacet.sol\":3120:3128  _chainId */\n      dup2\n        /* \"bridges/facets/StargateFacet.sol\":3108:3109  s */\n      dup2\n        /* \"bridges/facets/StargateFacet.sol\":3108:3117  s.chainId */\n      0x00\n      add\n      0x14\n        /* \"bridges/facets/StargateFacet.sol\":3108:3128  s.chainId = _chainId */\n      0x0100\n      exp\n      dup2\n      sload\n      dup2\n      0xffff\n      mul\n      not\n      and\n      swap1\n      dup4\n      0xffff\n      and\n      mul\n      or\n      swap1\n      sstore\n      pop\n        /* \"bridges/facets/StargateFacet.sol\":3151:3153  50 */\n      0x32\n        /* \"bridges/facets/StargateFacet.sol\":3138:3139  s */\n      dup2\n        /* \"bridges/facets/StargateFacet.sol\":3138:3148  s.slippage */\n      0x02\n      add\n        /* \"bridges/facets/StargateFacet.sol\":3138:3153  s.slippage = 50 */\n      dup2\n      swap1\n      sstore\n      pop\n        /* \"bridges/facets/StargateFacet.sol\":3248:3307  sgAddPool(1, 0xA0b86991c6218b36c1d19D4a2e9Eb0cE3606eB48, 1) */\n      tag_93\n        /* \"bridges/facets/StargateFacet.sol\":3258:3259  1 */\n      0x01\n        /* \"bridges/facets/StargateFacet.sol\":3261:3303  0xA0b86991c6218b36c1d19D4a2e9Eb0cE3606eB48 */\n      0xa0b86991c6218b36c1d19d4a2e9eb0ce3606eb48\n        /* \"bridges/facets/StargateFacet.sol\":3305:3306  1 */\n      0x01\n        /* \"bridges/facets/StargateFacet.sol\":3248:3257  sgAddPool */\n      tag_25\n        /* \"bridges/facets/StargateFacet.sol\":3248:3307  sgAddPool(1, 0xA0b86991c6218b36c1d19D4a2e9Eb0cE3606eB48, 1) */\n      jump\t// in\n    tag_93:\n        /* \"bridges/facets/StargateFacet.sol\":3317:3376  sgAddPool(1, 0xdAC17F958D2ee523a2206206994597C13D831ec7, 2) */\n      tag_94\n        /* \"bridges/facets/StargateFacet.sol\":3327:3328  1 */\n      0x01\n        /* \"bridges/facets/StargateFacet.sol\":3330:3372  0xdAC17F958D2ee523a2206206994597C13D831ec7 */\n      0xdac17f958d2ee523a2206206994597c13d831ec7\n        /* \"bridges/facets/StargateFacet.sol\":3374:3375  2 */\n      0x02\n        /* \"bridges/facets/StargateFacet.sol\":3317:3326  sgAddPool */\n      tag_25\n        /* \"bridges/facets/StargateFacet.sol\":3317:3376  sgAddPool(1, 0xdAC17F958D2ee523a2206206994597C13D831ec7, 2) */\n      jump\t// in\n    tag_94:\n        /* \"bridges/facets/StargateFacet.sol\":3386:3445  sgAddPool(2, 0x55d398326f99059fF775485246999027B3197955, 2) */\n      tag_95\n        /* \"bridges/facets/StargateFacet.sol\":3396:3397  2 */\n      0x02\n        /* \"bridges/facets/StargateFacet.sol\":3399:3441  0x55d398326f99059fF775485246999027B3197955 */\n      0x55d398326f99059ff775485246999027b3197955\n        /* \"bridges/facets/StargateFacet.sol\":3443:3444  2 */\n      0x02\n        /* \"bridges/facets/StargateFacet.sol\":3386:3395  sgAddPool */\n      tag_25\n        /* \"bridges/facets/StargateFacet.sol\":3386:3445  sgAddPool(2, 0x55d398326f99059fF775485246999027B3197955, 2) */\n      jump\t// in\n    tag_95:\n        /* \"bridges/facets/StargateFacet.sol\":3455:3514  sgAddPool(2, 0xe9e7CEA3DedcA5984780Bafc599bD69ADd087D56, 5) */\n      tag_96\n        /* \"bridges/facets/StargateFacet.sol\":3465:3466  2 */\n      0x02\n        /* \"bridges/facets/StargateFacet.sol\":3468:3510  0xe9e7CEA3DedcA5984780Bafc599bD69ADd087D56 */\n      0xe9e7cea3dedca5984780bafc599bd69add087d56\n        /* \"bridges/facets/StargateFacet.sol\":3512:3513  5 */\n      0x05\n        /* \"bridges/facets/StargateFacet.sol\":3455:3464  sgAddPool */\n      tag_25\n        /* \"bridges/facets/StargateFacet.sol\":3455:3514  sgAddPool(2, 0xe9e7CEA3DedcA5984780Bafc599bD69ADd087D56, 5) */\n      jump\t// in\n    tag_96:\n        /* \"bridges/facets/StargateFacet.sol\":3524:3583  sgAddPool(6, 0xB97EF9Ef8734C71904D8002F8b6Bc66Dd9c48a6E, 1) */\n      tag_97\n        /* \"bridges/facets/StargateFacet.sol\":3534:3535  6 */\n      0x06\n        /* \"bridges/facets/StargateFacet.sol\":3537:3579  0xB97EF9Ef8734C71904D8002F8b6Bc66Dd9c48a6E */\n      0xb97ef9ef8734c71904d8002f8b6bc66dd9c48a6e\n        /* \"bridges/facets/StargateFacet.sol\":3581:3582  1 */\n      0x01\n        /* \"bridges/facets/StargateFacet.sol\":3524:3533  sgAddPool */\n      tag_25\n        /* \"bridges/facets/StargateFacet.sol\":3524:3583  sgAddPool(6, 0xB97EF9Ef8734C71904D8002F8b6Bc66Dd9c48a6E, 1) */\n      jump\t// in\n    tag_97:\n        /* \"bridges/facets/StargateFacet.sol\":3593:3652  sgAddPool(6, 0x9702230A8Ea53601f5cD2dc00fDBc13d4dF4A8c7, 2) */\n      tag_98\n        /* \"bridges/facets/StargateFacet.sol\":3603:3604  6 */\n      0x06\n        /* \"bridges/facets/StargateFacet.sol\":3606:3648  0x9702230A8Ea53601f5cD2dc00fDBc13d4dF4A8c7 */\n      0x9702230a8ea53601f5cd2dc00fdbc13d4df4a8c7\n        /* \"bridges/facets/StargateFacet.sol\":3650:3651  2 */\n      0x02\n        /* \"bridges/facets/StargateFacet.sol\":3593:3602  sgAddPool */\n      tag_25\n        /* \"bridges/facets/StargateFacet.sol\":3593:3652  sgAddPool(6, 0x9702230A8Ea53601f5cD2dc00fDBc13d4dF4A8c7, 2) */\n      jump\t// in\n    tag_98:\n        /* \"bridges/facets/StargateFacet.sol\":3662:3721  sgAddPool(9, 0x2791Bca1f2de4661ED88A30C99A7a9449Aa84174, 1) */\n      tag_99\n        /* \"bridges/facets/StargateFacet.sol\":3672:3673  9 */\n      0x09\n        /* \"bridges/facets/StargateFacet.sol\":3675:3717  0x2791Bca1f2de4661ED88A30C99A7a9449Aa84174 */\n      0x2791bca1f2de4661ed88a30c99a7a9449aa84174\n        /* \"bridges/facets/StargateFacet.sol\":3719:3720  1 */\n      0x01\n        /* \"bridges/facets/StargateFacet.sol\":3662:3671  sgAddPool */\n      tag_25\n        /* \"bridges/facets/StargateFacet.sol\":3662:3721  sgAddPool(9, 0x2791Bca1f2de4661ED88A30C99A7a9449Aa84174, 1) */\n      jump\t// in\n    tag_99:\n        /* \"bridges/facets/StargateFacet.sol\":3731:3790  sgAddPool(9, 0xc2132D05D31c914a87C6611C10748AEb04B58e8F, 2) */\n      tag_100\n        /* \"bridges/facets/StargateFacet.sol\":3741:3742  9 */\n      0x09\n        /* \"bridges/facets/StargateFacet.sol\":3744:3786  0xc2132D05D31c914a87C6611C10748AEb04B58e8F */\n      0xc2132d05d31c914a87c6611c10748aeb04b58e8f\n        /* \"bridges/facets/StargateFacet.sol\":3788:3789  2 */\n      0x02\n        /* \"bridges/facets/StargateFacet.sol\":3731:3740  sgAddPool */\n      tag_25\n        /* \"bridges/facets/StargateFacet.sol\":3731:3790  sgAddPool(9, 0xc2132D05D31c914a87C6611C10748AEb04B58e8F, 2) */\n      jump\t// in\n    tag_100:\n        /* \"bridges/facets/StargateFacet.sol\":3800:3860  sgAddPool(10, 0xFF970A61A04b1cA14834A43f5dE4533eBDDB5CC8, 1) */\n      tag_101\n        /* \"bridges/facets/StargateFacet.sol\":3810:3812  10 */\n      0x0a\n        /* \"bridges/facets/StargateFacet.sol\":3814:3856  0xFF970A61A04b1cA14834A43f5dE4533eBDDB5CC8 */\n      0xff970a61a04b1ca14834a43f5de4533ebddb5cc8\n        /* \"bridges/facets/StargateFacet.sol\":3858:3859  1 */\n      0x01\n        /* \"bridges/facets/StargateFacet.sol\":3800:3809  sgAddPool */\n      tag_25\n        /* \"bridges/facets/StargateFacet.sol\":3800:3860  sgAddPool(10, 0xFF970A61A04b1cA14834A43f5dE4533eBDDB5CC8, 1) */\n      jump\t// in\n    tag_101:\n        /* \"bridges/facets/StargateFacet.sol\":3870:3930  sgAddPool(10, 0xFd086bC7CD5C481DCC9C85ebE478A1C0b69FCbb9, 2) */\n      tag_102\n        /* \"bridges/facets/StargateFacet.sol\":3880:3882  10 */\n      0x0a\n        /* \"bridges/facets/StargateFacet.sol\":3884:3926  0xFd086bC7CD5C481DCC9C85ebE478A1C0b69FCbb9 */\n      0xfd086bc7cd5c481dcc9c85ebe478a1c0b69fcbb9\n        /* \"bridges/facets/StargateFacet.sol\":3928:3929  2 */\n      0x02\n        /* \"bridges/facets/StargateFacet.sol\":3870:3879  sgAddPool */\n      tag_25\n        /* \"bridges/facets/StargateFacet.sol\":3870:3930  sgAddPool(10, 0xFd086bC7CD5C481DCC9C85ebE478A1C0b69FCbb9, 2) */\n      jump\t// in\n    tag_102:\n        /* \"bridges/facets/StargateFacet.sol\":3940:4000  sgAddPool(11, 0x7F5c764cBc14f9669B88837ca1490cCa17c31607, 1) */\n      tag_103\n        /* \"bridges/facets/StargateFacet.sol\":3950:3952  11 */\n      0x0b\n        /* \"bridges/facets/StargateFacet.sol\":3954:3996  0x7F5c764cBc14f9669B88837ca1490cCa17c31607 */\n      0x7f5c764cbc14f9669b88837ca1490cca17c31607\n        /* \"bridges/facets/StargateFacet.sol\":3998:3999  1 */\n      0x01\n        /* \"bridges/facets/StargateFacet.sol\":3940:3949  sgAddPool */\n      tag_25\n        /* \"bridges/facets/StargateFacet.sol\":3940:4000  sgAddPool(11, 0x7F5c764cBc14f9669B88837ca1490cCa17c31607, 1) */\n      jump\t// in\n    tag_103:\n        /* \"bridges/facets/StargateFacet.sol\":4010:4070  sgAddPool(12, 0x04068DA6C83AFCFA0e13ba15A6696662335D5B75, 1) */\n      tag_104\n        /* \"bridges/facets/StargateFacet.sol\":4020:4022  12 */\n      0x0c\n        /* \"bridges/facets/StargateFacet.sol\":4024:4066  0x04068DA6C83AFCFA0e13ba15A6696662335D5B75 */\n      0x04068da6c83afcfa0e13ba15a6696662335d5b75\n        /* \"bridges/facets/StargateFacet.sol\":4068:4069  1 */\n      0x01\n        /* \"bridges/facets/StargateFacet.sol\":4010:4019  sgAddPool */\n      tag_25\n        /* \"bridges/facets/StargateFacet.sol\":4010:4070  sgAddPool(12, 0x04068DA6C83AFCFA0e13ba15A6696662335D5B75, 1) */\n      jump\t// in\n    tag_104:\n        /* \"bridges/facets/StargateFacet.sol\":4085:4125  SGInitialized(_stargateRouter, _chainId) */\n      0xc8ec31998a27444f477c01de93c393769fd4fc017fb63163f71f8a8ab72ccd50\n        /* \"bridges/facets/StargateFacet.sol\":4099:4114  _stargateRouter */\n      dup4\n        /* \"bridges/facets/StargateFacet.sol\":4116:4124  _chainId */\n      dup4\n        /* \"bridges/facets/StargateFacet.sol\":4085:4125  SGInitialized(_stargateRouter, _chainId) */\n      mload(0x40)\n      tag_105\n      swap3\n      swap2\n      swap1\n      tag_106\n      jump\t// in\n    tag_105:\n      mload(0x40)\n      dup1\n      swap2\n      sub\n      swap1\n      log1\n        /* \"bridges/facets/StargateFacet.sol\":2818:4132  function sgInitialize(address _stargateRouter, uint16 _chainId) external {... */\n      pop\n      pop\n      pop\n      jump\t// out\n        /* \"bridges/facets/StargateFacet.sol\":8341:8656  function sgUpdateRouter(address _newAddress) external {... */\n    tag_42:\n        /* \"bridges/facets/StargateFacet.sol\":8405:8440  LibDiamond.enforceIsContractOwner() */\n      tag_108\n        /* \"bridges/facets/StargateFacet.sol\":8405:8438  LibDiamond.enforceIsContractOwner */\n      tag_70\n        /* \"bridges/facets/StargateFacet.sol\":8405:8440  LibDiamond.enforceIsContractOwner() */\n      jump\t// in\n    tag_108:\n        /* \"bridges/facets/StargateFacet.sol\":8477:8478  0 */\n      0x00\n        /* \"bridges/facets/StargateFacet.sol\":8454:8479  _newAddress == address(0) */\n      0xffffffffffffffffffffffffffffffffffffffff\n      and\n        /* \"bridges/facets/StargateFacet.sol\":8454:8465  _newAddress */\n      dup2\n        /* \"bridges/facets/StargateFacet.sol\":8454:8479  _newAddress == address(0) */\n      0xffffffffffffffffffffffffffffffffffffffff\n      and\n      eq\n        /* \"bridges/facets/StargateFacet.sol\":8450:8515  if (_newAddress == address(0)) revert StargateRouterAddressZero() */\n      iszero\n      tag_109\n      jumpi\n        /* \"bridges/facets/StargateFacet.sol\":8488:8515  StargateRouterAddressZero() */\n      mload(0x40)\n      0x3911c65500000000000000000000000000000000000000000000000000000000\n      dup2\n      mstore\n      0x04\n      add\n      mload(0x40)\n      dup1\n      swap2\n      sub\n      swap1\n      revert\n        /* \"bridges/facets/StargateFacet.sol\":8450:8515  if (_newAddress == address(0)) revert StargateRouterAddressZero() */\n    tag_109:\n        /* \"bridges/facets/StargateFacet.sol\":8525:8542  Storage storage s */\n      0x00\n        /* \"bridges/facets/StargateFacet.sol\":8545:8557  getStorage() */\n      tag_110\n        /* \"bridges/facets/StargateFacet.sol\":8545:8555  getStorage */\n      tag_72\n        /* \"bridges/facets/StargateFacet.sol\":8545:8557  getStorage() */\n      jump\t// in\n    tag_110:\n        /* \"bridges/facets/StargateFacet.sol\":8525:8557  Storage storage s = getStorage() */\n      swap1\n      pop\n        /* \"bridges/facets/StargateFacet.sol\":8594:8605  _newAddress */\n      dup2\n        /* \"bridges/facets/StargateFacet.sol\":8567:8568  s */\n      dup2\n        /* \"bridges/facets/StargateFacet.sol\":8567:8583  s.stargateRouter */\n      0x00\n      add\n      0x00\n        /* \"bridges/facets/StargateFacet.sol\":8567:8606  s.stargateRouter = address(_newAddress) */\n      0x0100\n      exp\n      dup2\n      sload\n      dup2\n      0xffffffffffffffffffffffffffffffffffffffff\n      mul\n      not\n      and\n      swap1\n      dup4\n      0xffffffffffffffffffffffffffffffffffffffff\n      and\n      mul\n      or\n      swap1\n      sstore\n      pop\n        /* \"bridges/facets/StargateFacet.sol\":8621:8649  SGUpdatedRouter(_newAddress) */\n      0x9ac04272c4559bf7459414abb5568dc1df58ab649f0af4afd1510074f5cc2fec\n        /* \"bridges/facets/StargateFacet.sol\":8637:8648  _newAddress */\n      dup3\n        /* \"bridges/facets/StargateFacet.sol\":8621:8649  SGUpdatedRouter(_newAddress) */\n      mload(0x40)\n      tag_111\n      swap2\n      swap1\n      tag_112\n      jump\t// in\n    tag_111:\n      mload(0x40)\n      dup1\n      swap2\n      sub\n      swap1\n      log1\n        /* \"bridges/facets/StargateFacet.sol\":8341:8656  function sgUpdateRouter(address _newAddress) external {... */\n      pop\n      pop\n      jump\t// out\n        /* \"bridges/facets/StargateFacet.sol\":8120:8335  function sgMinAmountOut(uint256 _amount) public view returns (uint256) {... */\n    tag_46:\n        /* \"bridges/facets/StargateFacet.sol\":8182:8189  uint256 */\n      0x00\n        /* \"bridges/facets/StargateFacet.sol\":8201:8218  Storage storage s */\n      dup1\n        /* \"bridges/facets/StargateFacet.sol\":8221:8233  getStorage() */\n      tag_114\n        /* \"bridges/facets/StargateFacet.sol\":8221:8231  getStorage */\n      tag_72\n        /* \"bridges/facets/StargateFacet.sol\":8221:8233  getStorage() */\n      jump\t// in\n    tag_114:\n        /* \"bridges/facets/StargateFacet.sol\":8201:8233  Storage storage s = getStorage() */\n      swap1\n      pop\n        /* \"bridges/facets/StargateFacet.sol\":8322:8327  10000 */\n      0x2710\n        /* \"bridges/facets/StargateFacet.sol\":8306:8307  s */\n      dup2\n        /* \"bridges/facets/StargateFacet.sol\":8306:8316  s.slippage */\n      0x02\n      add\n      sload\n        /* \"bridges/facets/StargateFacet.sol\":8298:8303  10000 */\n      0x2710\n        /* \"bridges/facets/StargateFacet.sol\":8298:8316  10000 - s.slippage */\n      tag_115\n      swap2\n      swap1\n      tag_116\n      jump\t// in\n    tag_115:\n        /* \"bridges/facets/StargateFacet.sol\":8287:8294  _amount */\n      dup5\n        /* \"bridges/facets/StargateFacet.sol\":8287:8317  _amount * (10000 - s.slippage) */\n      tag_117\n      swap2\n      swap1\n      tag_118\n      jump\t// in\n    tag_117:\n        /* \"bridges/facets/StargateFacet.sol\":8286:8328  (_amount * (10000 - s.slippage)) / (10000) */\n      tag_119\n      swap2\n      swap1\n      tag_120\n      jump\t// in\n    tag_119:\n        /* \"bridges/facets/StargateFacet.sol\":8279:8328  return (_amount * (10000 - s.slippage)) / (10000) */\n      swap2\n      pop\n      pop\n        /* \"bridges/facets/StargateFacet.sol\":8120:8335  function sgMinAmountOut(uint256 _amount) public view returns (uint256) {... */\n      swap2\n      swap1\n      pop\n      jump\t// out\n        /* \"bridges/facets/StargateFacet.sol\":4220:6721  function sgBridgeTokens(StargateData memory _sgData)... */\n    tag_51:\n        /* \"bridges/facets/StargateFacet.sol\":4344:4348  bool */\n      0x00\n        /* \"bridges/helpers/ReentrancyGuard.sol\":680:707  ReentrancyStorage storage s */\n      dup1\n        /* \"bridges/helpers/ReentrancyGuard.sol\":710:729  reentrancyStorage() */\n      tag_122\n        /* \"bridges/helpers/ReentrancyGuard.sol\":710:727  reentrancyStorage */\n      tag_123\n        /* \"bridges/helpers/ReentrancyGuard.sol\":710:729  reentrancyStorage() */\n      jump\t// in\n    tag_122:\n        /* \"bridges/helpers/ReentrancyGuard.sol\":680:729  ReentrancyStorage storage s = reentrancyStorage() */\n      swap1\n      pop\n        /* \"bridges/helpers/ReentrancyGuard.sol\":615:616  1 */\n      0x01\n        /* \"bridges/helpers/ReentrancyGuard.sol\":743:744  s */\n      dup2\n        /* \"bridges/helpers/ReentrancyGuard.sol\":743:751  s.status */\n      0x00\n      add\n      sload\n        /* \"bridges/helpers/ReentrancyGuard.sol\":743:763  s.status == _ENTERED */\n      eq\n        /* \"bridges/helpers/ReentrancyGuard.sol\":739:789  if (s.status == _ENTERED) revert ReentrancyError() */\n      iszero\n      tag_124\n      jumpi\n        /* \"bridges/helpers/ReentrancyGuard.sol\":772:789  ReentrancyError() */\n      mload(0x40)\n      0x29f745a700000000000000000000000000000000000000000000000000000000\n      dup2\n      mstore\n      0x04\n      add\n      mload(0x40)\n      dup1\n      swap2\n      sub\n      swap1\n      revert\n        /* \"bridges/helpers/ReentrancyGuard.sol\":739:789  if (s.status == _ENTERED) revert ReentrancyError() */\n    tag_124:\n        /* \"bridges/helpers/ReentrancyGuard.sol\":615:616  1 */\n      0x01\n        /* \"bridges/helpers/ReentrancyGuard.sol\":799:800  s */\n      dup2\n        /* \"bridges/helpers/ReentrancyGuard.sol\":799:807  s.status */\n      0x00\n      add\n        /* \"bridges/helpers/ReentrancyGuard.sol\":799:818  s.status = _ENTERED */\n      dup2\n      swap1\n      sstore\n      pop\n        /* \"bridges/facets/StargateFacet.sol\":4381:4382  0 */\n      0x00\n        /* \"bridges/facets/StargateFacet.sol\":4368:4377  msg.value */\n      callvalue\n        /* \"bridges/facets/StargateFacet.sol\":4368:4382  msg.value <= 0 */\n      gt\n        /* \"bridges/facets/StargateFacet.sol\":4364:4423  if (msg.value <= 0) revert NoMsgValueForCrossChainMessage() */\n      tag_126\n      jumpi\n        /* \"bridges/facets/StargateFacet.sol\":4391:4423  NoMsgValueForCrossChainMessage() */\n      mload(0x40)\n      0xb7586d1900000000000000000000000000000000000000000000000000000000\n      dup2\n      mstore\n      0x04\n      add\n      mload(0x40)\n      dup1\n      swap2\n      sub\n      swap1\n      revert\n        /* \"bridges/facets/StargateFacet.sol\":4364:4423  if (msg.value <= 0) revert NoMsgValueForCrossChainMessage() */\n    tag_126:\n        /* \"bridges/facets/StargateFacet.sol\":4452:4453  0 */\n      0x00\n        /* \"bridges/facets/StargateFacet.sol\":4437:4444  _sgData */\n      dup4\n        /* \"bridges/facets/StargateFacet.sol\":4437:4448  _sgData.qty */\n      0x00\n      add\n      mload\n        /* \"bridges/facets/StargateFacet.sol\":4437:4453  _sgData.qty <= 0 */\n      gt\n        /* \"bridges/facets/StargateFacet.sol\":4433:4477  if (_sgData.qty <= 0) revert InvalidAmount() */\n      tag_127\n      jumpi\n        /* \"bridges/facets/StargateFacet.sol\":4462:4477  InvalidAmount() */\n      mload(0x40)\n      0x2c5211c600000000000000000000000000000000000000000000000000000000\n      dup2\n      mstore\n      0x04\n      add\n      mload(0x40)\n      dup1\n      swap2\n      sub\n      swap1\n      revert\n        /* \"bridges/facets/StargateFacet.sol\":4433:4477  if (_sgData.qty <= 0) revert InvalidAmount() */\n    tag_127:\n        /* \"bridges/facets/StargateFacet.sol\":4533:4534  0 */\n      0x00\n        /* \"bridges/facets/StargateFacet.sol\":4504:4535  _sgData.fromToken == address(0) */\n      0xffffffffffffffffffffffffffffffffffffffff\n      and\n        /* \"bridges/facets/StargateFacet.sol\":4504:4511  _sgData */\n      dup4\n        /* \"bridges/facets/StargateFacet.sol\":4504:4521  _sgData.fromToken */\n      0x20\n      add\n      mload\n        /* \"bridges/facets/StargateFacet.sol\":4504:4535  _sgData.fromToken == address(0) */\n      0xffffffffffffffffffffffffffffffffffffffff\n      and\n      eq\n        /* \"bridges/facets/StargateFacet.sol\":4504:4580  _sgData.fromToken == address(0) ||... */\n      dup1\n      tag_128\n      jumpi\n      pop\n        /* \"bridges/facets/StargateFacet.sol\":4578:4579  0 */\n      0x00\n        /* \"bridges/facets/StargateFacet.sol\":4551:4580  _sgData.toToken == address(0) */\n      0xffffffffffffffffffffffffffffffffffffffff\n      and\n        /* \"bridges/facets/StargateFacet.sol\":4551:4558  _sgData */\n      dup4\n        /* \"bridges/facets/StargateFacet.sol\":4551:4566  _sgData.toToken */\n      0x40\n      add\n      mload\n        /* \"bridges/facets/StargateFacet.sol\":4551:4580  _sgData.toToken == address(0) */\n      0xffffffffffffffffffffffffffffffffffffffff\n      and\n      eq\n        /* \"bridges/facets/StargateFacet.sol\":4504:4580  _sgData.fromToken == address(0) ||... */\n    tag_128:\n        /* \"bridges/facets/StargateFacet.sol\":4504:4620  _sgData.fromToken == address(0) ||... */\n      dup1\n      tag_129\n      jumpi\n      pop\n        /* \"bridges/facets/StargateFacet.sol\":4618:4619  0 */\n      0x00\n        /* \"bridges/facets/StargateFacet.sol\":4596:4620  _sgData.to == address(0) */\n      0xffffffffffffffffffffffffffffffffffffffff\n      and\n        /* \"bridges/facets/StargateFacet.sol\":4596:4603  _sgData */\n      dup4\n        /* \"bridges/facets/StargateFacet.sol\":4596:4606  _sgData.to */\n      0xc0\n      add\n      mload\n        /* \"bridges/facets/StargateFacet.sol\":4596:4620  _sgData.to == address(0) */\n      0xffffffffffffffffffffffffffffffffffffffff\n      and\n      eq\n        /* \"bridges/facets/StargateFacet.sol\":4504:4620  _sgData.fromToken == address(0) ||... */\n    tag_129:\n        /* \"bridges/facets/StargateFacet.sol\":4504:4678  _sgData.fromToken == address(0) ||... */\n      dup1\n      tag_130\n      jumpi\n      pop\n        /* \"bridges/facets/StargateFacet.sol\":4676:4677  0 */\n      0x00\n        /* \"bridges/facets/StargateFacet.sol\":4636:4678  _sgData.destStargateComposed == address(0) */\n      0xffffffffffffffffffffffffffffffffffffffff\n      and\n        /* \"bridges/facets/StargateFacet.sol\":4636:4643  _sgData */\n      dup4\n        /* \"bridges/facets/StargateFacet.sol\":4636:4664  _sgData.destStargateComposed */\n      0xe0\n      add\n      mload\n        /* \"bridges/facets/StargateFacet.sol\":4636:4678  _sgData.destStargateComposed == address(0) */\n      0xffffffffffffffffffffffffffffffffffffffff\n      and\n      eq\n        /* \"bridges/facets/StargateFacet.sol\":4504:4678  _sgData.fromToken == address(0) ||... */\n    tag_130:\n        /* \"bridges/facets/StargateFacet.sol\":4487:4711  if (... */\n      iszero\n      tag_131\n      jumpi\n        /* \"bridges/facets/StargateFacet.sol\":4696:4711  InvalidConfig() */\n      mload(0x40)\n      0x35be3ac800000000000000000000000000000000000000000000000000000000\n      dup2\n      mstore\n      0x04\n      add\n      mload(0x40)\n      dup1\n      swap2\n      sub\n      swap1\n      revert\n        /* \"bridges/facets/StargateFacet.sol\":4487:4711  if (... */\n    tag_131:\n        /* \"bridges/facets/StargateFacet.sol\":4748:4765  Storage storage s */\n      0x00\n        /* \"bridges/facets/StargateFacet.sol\":4768:4780  getStorage() */\n      tag_132\n        /* \"bridges/facets/StargateFacet.sol\":4768:4778  getStorage */\n      tag_72\n        /* \"bridges/facets/StargateFacet.sol\":4768:4780  getStorage() */\n      jump\t// in\n    tag_132:\n        /* \"bridges/facets/StargateFacet.sol\":4748:4780  Storage storage s = getStorage() */\n      swap1\n      pop\n        /* \"bridges/facets/StargateFacet.sol\":4796:4858  sgCheckPoolId(s.chainId, _sgData.fromToken, _sgData.srcPoolId) */\n      tag_133\n        /* \"bridges/facets/StargateFacet.sol\":4810:4811  s */\n      dup2\n        /* \"bridges/facets/StargateFacet.sol\":4810:4819  s.chainId */\n      0x00\n      add\n      0x14\n      swap1\n      sload\n      swap1\n      0x0100\n      exp\n      swap1\n      div\n      0xffff\n      and\n        /* \"bridges/facets/StargateFacet.sol\":4821:4828  _sgData */\n      dup6\n        /* \"bridges/facets/StargateFacet.sol\":4821:4838  _sgData.fromToken */\n      0x20\n      add\n      mload\n        /* \"bridges/facets/StargateFacet.sol\":4840:4847  _sgData */\n      dup7\n        /* \"bridges/facets/StargateFacet.sol\":4840:4857  _sgData.srcPoolId */\n      0x80\n      add\n      mload\n        /* \"bridges/facets/StargateFacet.sol\":4796:4858  sgCheckPoolId(s.chainId, _sgData.fromToken, _sgData.srcPoolId) */\n      0xffff\n      and\n        /* \"bridges/facets/StargateFacet.sol\":4796:4809  sgCheckPoolId */\n      tag_57\n        /* \"bridges/facets/StargateFacet.sol\":4796:4858  sgCheckPoolId(s.chainId, _sgData.fromToken, _sgData.srcPoolId) */\n      jump\t// in\n    tag_133:\n        /* \"bridges/facets/StargateFacet.sol\":4791:4900  if (!sgCheckPoolId(s.chainId, _sgData.fromToken, _sgData.srcPoolId))... */\n      tag_134\n      jumpi\n        /* \"bridges/facets/StargateFacet.sol\":4879:4900  InvalidSourcePoolId() */\n      mload(0x40)\n      0x7790ca9900000000000000000000000000000000000000000000000000000000\n      dup2\n      mstore\n      0x04\n      add\n      mload(0x40)\n      dup1\n      swap2\n      sub\n      swap1\n      revert\n        /* \"bridges/facets/StargateFacet.sol\":4791:4900  if (!sgCheckPoolId(s.chainId, _sgData.fromToken, _sgData.srcPoolId))... */\n    tag_134:\n        /* \"bridges/facets/StargateFacet.sol\":4928:5059  sgCheckPoolId(... */\n      tag_135\n        /* \"bridges/facets/StargateFacet.sol\":4959:4966  _sgData */\n      dup5\n        /* \"bridges/facets/StargateFacet.sol\":4959:4977  _sgData.dstChainId */\n      0x60\n      add\n      mload\n        /* \"bridges/facets/StargateFacet.sol\":4995:5002  _sgData */\n      dup6\n        /* \"bridges/facets/StargateFacet.sol\":4995:5010  _sgData.toToken */\n      0x40\n      add\n      mload\n        /* \"bridges/facets/StargateFacet.sol\":5028:5035  _sgData */\n      dup7\n        /* \"bridges/facets/StargateFacet.sol\":5028:5045  _sgData.dstPoolId */\n      0xa0\n      add\n      mload\n        /* \"bridges/facets/StargateFacet.sol\":4928:5059  sgCheckPoolId(... */\n      0xffff\n      and\n        /* \"bridges/facets/StargateFacet.sol\":4928:4941  sgCheckPoolId */\n      tag_57\n        /* \"bridges/facets/StargateFacet.sol\":4928:5059  sgCheckPoolId(... */\n      jump\t// in\n    tag_135:\n        /* \"bridges/facets/StargateFacet.sol\":4910:5103  if (... */\n      tag_136\n      jumpi\n        /* \"bridges/facets/StargateFacet.sol\":5077:5103  InvalidDestinationPoolId() */\n      mload(0x40)\n      0x186c877f00000000000000000000000000000000000000000000000000000000\n      dup2\n      mstore\n      0x04\n      add\n      mload(0x40)\n      dup1\n      swap2\n      sub\n      swap1\n      revert\n        /* \"bridges/facets/StargateFacet.sol\":4910:5103  if (... */\n    tag_136:\n        /* \"bridges/facets/StargateFacet.sol\":5144:5164  uint256 minAmountOut */\n      0x00\n        /* \"bridges/facets/StargateFacet.sol\":5167:5194  sgMinAmountOut(_sgData.qty) */\n      tag_137\n        /* \"bridges/facets/StargateFacet.sol\":5182:5189  _sgData */\n      dup6\n        /* \"bridges/facets/StargateFacet.sol\":5182:5193  _sgData.qty */\n      0x00\n      add\n      mload\n        /* \"bridges/facets/StargateFacet.sol\":5167:5181  sgMinAmountOut */\n      tag_46\n        /* \"bridges/facets/StargateFacet.sol\":5167:5194  sgMinAmountOut(_sgData.qty) */\n      jump\t// in\n    tag_137:\n        /* \"bridges/facets/StargateFacet.sol\":5144:5194  uint256 minAmountOut = sgMinAmountOut(_sgData.qty) */\n      swap1\n      pop\n        /* \"bridges/facets/StargateFacet.sol\":5307:5327  bytes memory payload */\n      0x00\n        /* \"bridges/facets/StargateFacet.sol\":5341:5348  _sgData */\n      dup6\n        /* \"bridges/facets/StargateFacet.sol\":5341:5351  _sgData.to */\n      0xc0\n      add\n      mload\n        /* \"bridges/facets/StargateFacet.sol\":5330:5352  abi.encode(_sgData.to) */\n      add(0x20, mload(0x40))\n      tag_138\n      swap2\n      swap1\n      tag_139\n      jump\t// in\n    tag_138:\n      mload(0x40)\n      0x20\n      dup2\n      dup4\n      sub\n      sub\n      dup2\n      mstore\n      swap1\n      0x40\n      mstore\n        /* \"bridges/facets/StargateFacet.sol\":5307:5352  bytes memory payload = abi.encode(_sgData.to) */\n      swap1\n      pop\n        /* \"bridges/facets/StargateFacet.sol\":5410:5538  IERC20(_sgData.fromToken).safeTransferFrom(... */\n      tag_140\n        /* \"bridges/facets/StargateFacet.sol\":5466:5476  msg.sender */\n      caller\n        /* \"bridges/facets/StargateFacet.sol\":5498:5502  this */\n      address\n        /* \"bridges/facets/StargateFacet.sol\":5517:5524  _sgData */\n      dup9\n        /* \"bridges/facets/StargateFacet.sol\":5517:5528  _sgData.qty */\n      0x00\n      add\n      mload\n        /* \"bridges/facets/StargateFacet.sol\":5417:5424  _sgData */\n      dup10\n        /* \"bridges/facets/StargateFacet.sol\":5417:5434  _sgData.fromToken */\n      0x20\n      add\n      mload\n        /* \"bridges/facets/StargateFacet.sol\":5410:5452  IERC20(_sgData.fromToken).safeTransferFrom */\n      0xffffffffffffffffffffffffffffffffffffffff\n      and\n      tag_141\n      swap1\n        /* \"bridges/facets/StargateFacet.sol\":5410:5538  IERC20(_sgData.fromToken).safeTransferFrom(... */\n      swap4\n      swap3\n      swap2\n      swap1\n      0xffffffff\n      and\n      jump\t// in\n    tag_140:\n        /* \"bridges/facets/StargateFacet.sol\":5549:5660  IERC20(_sgData.fromToken).safeApprove(... */\n      tag_142\n        /* \"bridges/facets/StargateFacet.sol\":5608:5609  s */\n      dup4\n        /* \"bridges/facets/StargateFacet.sol\":5608:5624  s.stargateRouter */\n      0x00\n      add\n      0x00\n      swap1\n      sload\n      swap1\n      0x0100\n      exp\n      swap1\n      div\n      0xffffffffffffffffffffffffffffffffffffffff\n      and\n        /* \"bridges/facets/StargateFacet.sol\":5639:5646  _sgData */\n      dup8\n        /* \"bridges/facets/StargateFacet.sol\":5639:5650  _sgData.qty */\n      0x00\n      add\n      mload\n        /* \"bridges/facets/StargateFacet.sol\":5556:5563  _sgData */\n      dup9\n        /* \"bridges/facets/StargateFacet.sol\":5556:5573  _sgData.fromToken */\n      0x20\n      add\n      mload\n        /* \"bridges/facets/StargateFacet.sol\":5549:5586  IERC20(_sgData.fromToken).safeApprove */\n      0xffffffffffffffffffffffffffffffffffffffff\n      and\n      tag_143\n      swap1\n        /* \"bridges/facets/StargateFacet.sol\":5549:5660  IERC20(_sgData.fromToken).safeApprove(... */\n      swap3\n      swap2\n      swap1\n      0xffffffff\n      and\n      jump\t// in\n    tag_142:\n        /* \"bridges/facets/StargateFacet.sol\":5775:5776  s */\n      dup3\n        /* \"bridges/facets/StargateFacet.sol\":5775:5791  s.stargateRouter */\n      0x00\n      add\n      0x00\n      swap1\n      sload\n      swap1\n      0x0100\n      exp\n      swap1\n      div\n      0xffffffffffffffffffffffffffffffffffffffff\n      and\n        /* \"bridges/facets/StargateFacet.sol\":5759:5797  IStargateRouter(s.stargateRouter).swap */\n      0xffffffffffffffffffffffffffffffffffffffff\n      and\n      0x9fbf10fc\n        /* \"bridges/facets/StargateFacet.sol\":5805:5814  msg.value */\n      callvalue\n        /* \"bridges/facets/StargateFacet.sol\":5829:5836  _sgData */\n      dup9\n        /* \"bridges/facets/StargateFacet.sol\":5829:5847  _sgData.dstChainId */\n      0x60\n      add\n      mload\n        /* \"bridges/facets/StargateFacet.sol\":5889:5896  _sgData */\n      dup10\n        /* \"bridges/facets/StargateFacet.sol\":5889:5906  _sgData.srcPoolId */\n      0x80\n      add\n      mload\n        /* \"bridges/facets/StargateFacet.sol\":5950:5957  _sgData */\n      dup11\n        /* \"bridges/facets/StargateFacet.sol\":5950:5967  _sgData.dstPoolId */\n      0xa0\n      add\n      mload\n        /* \"bridges/facets/StargateFacet.sol\":6024:6034  msg.sender */\n      caller\n        /* \"bridges/facets/StargateFacet.sol\":6119:6126  _sgData */\n      dup13\n        /* \"bridges/facets/StargateFacet.sol\":6119:6130  _sgData.qty */\n      0x00\n      add\n      mload\n        /* \"bridges/facets/StargateFacet.sol\":6189:6201  minAmountOut */\n      dup10\n        /* \"bridges/facets/StargateFacet.sol\":6241:6281  IStargateRouter.lzTxObj(200000, 0, \"0x\") */\n      mload(0x40)\n      dup1\n      0x60\n      add\n      0x40\n      mstore\n      dup1\n        /* \"bridges/facets/StargateFacet.sol\":6265:6271  200000 */\n      0x030d40\n        /* \"bridges/facets/StargateFacet.sol\":6241:6281  IStargateRouter.lzTxObj(200000, 0, \"0x\") */\n      dup2\n      mstore\n      0x20\n      add\n        /* \"bridges/facets/StargateFacet.sol\":6273:6274  0 */\n      0x00\n        /* \"bridges/facets/StargateFacet.sol\":6241:6281  IStargateRouter.lzTxObj(200000, 0, \"0x\") */\n      dup2\n      mstore\n      0x20\n      add\n      mload(0x40)\n      dup1\n      0x40\n      add\n      0x40\n      mstore\n      dup1\n      0x02\n      dup2\n      mstore\n      0x20\n      add\n      0x3078000000000000000000000000000000000000000000000000000000000000\n      dup2\n      mstore\n      pop\n      dup2\n      mstore\n      pop\n        /* \"bridges/facets/StargateFacet.sol\":6331:6338  _sgData */\n      dup16\n        /* \"bridges/facets/StargateFacet.sol\":6331:6359  _sgData.destStargateComposed */\n      0xe0\n      add\n      mload\n        /* \"bridges/facets/StargateFacet.sol\":6314:6360  abi.encodePacked(_sgData.destStargateComposed) */\n      add(0x20, mload(0x40))\n      tag_144\n      swap2\n      swap1\n      tag_81\n      jump\t// in\n    tag_144:\n      mload(0x40)\n      0x20\n      dup2\n      dup4\n      sub\n      sub\n      dup2\n      mstore\n      swap1\n      0x40\n      mstore\n        /* \"bridges/facets/StargateFacet.sol\":6426:6433  payload */\n      dup12\n        /* \"bridges/facets/StargateFacet.sol\":5759:6460  IStargateRouter(s.stargateRouter).swap{value: msg.value}(... */\n      mload(0x40)\n      dup12\n      0xffffffff\n      and\n      0xe0\n      shl\n      dup2\n      mstore\n      0x04\n      add\n      tag_145\n      swap10\n      swap9\n      swap8\n      swap7\n      swap6\n      swap5\n      swap4\n      swap3\n      swap2\n      swap1\n      tag_146\n      jump\t// in\n    tag_145:\n      0x00\n      mload(0x40)\n      dup1\n      dup4\n      sub\n      dup2\n      dup6\n      dup9\n      dup1\n      extcodesize\n      iszero\n      dup1\n      iszero\n      tag_147\n      jumpi\n      0x00\n      dup1\n      revert\n    tag_147:\n      pop\n      gas\n      call\n      iszero\n      dup1\n      iszero\n      tag_149\n      jumpi\n      returndatasize\n      0x00\n      dup1\n      returndatacopy\n      revert(0x00, returndatasize)\n    tag_149:\n      pop\n      pop\n      pop\n      pop\n      pop\n        /* \"bridges/facets/StargateFacet.sol\":6476:6692  SGTransferStarted(... */\n      0x7a72e6f4a3d77f8a5a6c536a973421c5bf00107f9aec7995661537673b8be087\n        /* \"bridges/facets/StargateFacet.sol\":6531:6538  _sgData */\n      dup7\n        /* \"bridges/facets/StargateFacet.sol\":6531:6548  _sgData.fromToken */\n      0x20\n      add\n      mload\n        /* \"bridges/facets/StargateFacet.sol\":6562:6569  _sgData */\n      dup8\n        /* \"bridges/facets/StargateFacet.sol\":6562:6577  _sgData.toToken */\n      0x40\n      add\n      mload\n        /* \"bridges/facets/StargateFacet.sol\":6591:6601  msg.sender */\n      caller\n        /* \"bridges/facets/StargateFacet.sol\":6615:6622  _sgData */\n      dup10\n        /* \"bridges/facets/StargateFacet.sol\":6615:6625  _sgData.to */\n      0xc0\n      add\n      mload\n        /* \"bridges/facets/StargateFacet.sol\":6639:6646  _sgData */\n      dup11\n        /* \"bridges/facets/StargateFacet.sol\":6639:6650  _sgData.qty */\n      0x00\n      add\n      mload\n        /* \"bridges/facets/StargateFacet.sol\":6664:6671  _sgData */\n      dup12\n        /* \"bridges/facets/StargateFacet.sol\":6664:6682  _sgData.dstChainId */\n      0x60\n      add\n      mload\n        /* \"bridges/facets/StargateFacet.sol\":6476:6692  SGTransferStarted(... */\n      mload(0x40)\n      tag_150\n      swap7\n      swap6\n      swap5\n      swap4\n      swap3\n      swap2\n      swap1\n      tag_151\n      jump\t// in\n    tag_150:\n      mload(0x40)\n      dup1\n      swap2\n      sub\n      swap1\n      log1\n        /* \"bridges/facets/StargateFacet.sol\":6710:6714  true */\n      0x01\n        /* \"bridges/facets/StargateFacet.sol\":6703:6714  return true */\n      swap5\n      pop\n      pop\n      pop\n      pop\n        /* \"bridges/helpers/ReentrancyGuard.sol\":572:573  0 */\n      0x00\n        /* \"bridges/helpers/ReentrancyGuard.sol\":839:840  s */\n      dup2\n        /* \"bridges/helpers/ReentrancyGuard.sol\":839:847  s.status */\n      0x00\n      add\n        /* \"bridges/helpers/ReentrancyGuard.sol\":839:862  s.status = _NOT_ENTERED */\n      dup2\n      swap1\n      sstore\n      pop\n        /* \"bridges/facets/StargateFacet.sol\":4220:6721  function sgBridgeTokens(StargateData memory _sgData)... */\n      pop\n      swap2\n      swap1\n      pop\n      jump\t// out\n        /* \"bridges/facets/StargateFacet.sol\":9542:9791  function sgCheckPoolId(... */\n    tag_57:\n        /* \"bridges/facets/StargateFacet.sol\":9666:9670  bool */\n      0x00\n        /* \"bridges/facets/StargateFacet.sol\":9682:9699  Storage storage s */\n      dup1\n        /* \"bridges/facets/StargateFacet.sol\":9702:9714  getStorage() */\n      tag_153\n        /* \"bridges/facets/StargateFacet.sol\":9702:9712  getStorage */\n      tag_72\n        /* \"bridges/facets/StargateFacet.sol\":9702:9714  getStorage() */\n      jump\t// in\n    tag_153:\n        /* \"bridges/facets/StargateFacet.sol\":9682:9714  Storage storage s = getStorage() */\n      swap1\n      pop\n        /* \"bridges/facets/StargateFacet.sol\":9762:9769  _poolId */\n      dup3\n        /* \"bridges/facets/StargateFacet.sol\":9731:9732  s */\n      dup2\n        /* \"bridges/facets/StargateFacet.sol\":9731:9740  s.poolIds */\n      0x03\n      add\n        /* \"bridges/facets/StargateFacet.sol\":9731:9750  s.poolIds[_chainId] */\n      0x00\n        /* \"bridges/facets/StargateFacet.sol\":9741:9749  _chainId */\n      dup8\n        /* \"bridges/facets/StargateFacet.sol\":9731:9750  s.poolIds[_chainId] */\n      0xffff\n      and\n      0xffff\n      and\n      dup2\n      mstore\n      0x20\n      add\n      swap1\n      dup2\n      mstore\n      0x20\n      add\n      0x00\n      keccak256\n        /* \"bridges/facets/StargateFacet.sol\":9731:9758  s.poolIds[_chainId][_token] */\n      0x00\n        /* \"bridges/facets/StargateFacet.sol\":9751:9757  _token */\n      dup7\n        /* \"bridges/facets/StargateFacet.sol\":9731:9758  s.poolIds[_chainId][_token] */\n      0xffffffffffffffffffffffffffffffffffffffff\n      and\n      0xffffffffffffffffffffffffffffffffffffffff\n      and\n      dup2\n      mstore\n      0x20\n      add\n      swap1\n      dup2\n      mstore\n      0x20\n      add\n      0x00\n      keccak256\n      sload\n        /* \"bridges/facets/StargateFacet.sol\":9731:9769  s.poolIds[_chainId][_token] == _poolId */\n      eq\n        /* \"bridges/facets/StargateFacet.sol\":9731:9784  s.poolIds[_chainId][_token] == _poolId ? true : false */\n      tag_154\n      jumpi\n        /* \"bridges/facets/StargateFacet.sol\":9779:9784  false */\n      0x00\n        /* \"bridges/facets/StargateFacet.sol\":9731:9784  s.poolIds[_chainId][_token] == _poolId ? true : false */\n      jump(tag_155)\n    tag_154:\n        /* \"bridges/facets/StargateFacet.sol\":9772:9776  true */\n      0x01\n        /* \"bridges/facets/StargateFacet.sol\":9731:9784  s.poolIds[_chainId][_token] == _poolId ? true : false */\n    tag_155:\n        /* \"bridges/facets/StargateFacet.sol\":9724:9784  return s.poolIds[_chainId][_token] == _poolId ? true : false */\n      swap2\n      pop\n      pop\n        /* \"bridges/facets/StargateFacet.sol\":9542:9791  function sgCheckPoolId(... */\n      swap4\n      swap3\n      pop\n      pop\n      pop\n      jump\t// out\n        /* \"bridges/facets/StargateFacet.sol\":7074:7597  function sgReceive(... */\n    tag_63:\n        /* \"bridges/facets/StargateFacet.sol\":7291:7308  Storage storage s */\n      0x00\n        /* \"bridges/facets/StargateFacet.sol\":7311:7323  getStorage() */\n      tag_157\n        /* \"bridges/facets/StargateFacet.sol\":7311:7321  getStorage */\n      tag_72\n        /* \"bridges/facets/StargateFacet.sol\":7311:7323  getStorage() */\n      jump\t// in\n    tag_157:\n        /* \"bridges/facets/StargateFacet.sol\":7291:7323  Storage storage s = getStorage() */\n      swap1\n      pop\n        /* \"bridges/facets/StargateFacet.sol\":7359:7360  s */\n      dup1\n        /* \"bridges/facets/StargateFacet.sol\":7359:7375  s.stargateRouter */\n      0x00\n      add\n      0x00\n      swap1\n      sload\n      swap1\n      0x0100\n      exp\n      swap1\n      div\n      0xffffffffffffffffffffffffffffffffffffffff\n      and\n        /* \"bridges/facets/StargateFacet.sol\":7337:7376  msg.sender != address(s.stargateRouter) */\n      0xffffffffffffffffffffffffffffffffffffffff\n      and\n        /* \"bridges/facets/StargateFacet.sol\":7337:7347  msg.sender */\n      caller\n        /* \"bridges/facets/StargateFacet.sol\":7337:7376  msg.sender != address(s.stargateRouter) */\n      0xffffffffffffffffffffffffffffffffffffffff\n      and\n      eq\n        /* \"bridges/facets/StargateFacet.sol\":7333:7422  if (msg.sender != address(s.stargateRouter))... */\n      tag_158\n      jumpi\n        /* \"bridges/facets/StargateFacet.sol\":7397:7422  SenderNotStargateRouter() */\n      mload(0x40)\n      0xdade3c7100000000000000000000000000000000000000000000000000000000\n      dup2\n      mstore\n      0x04\n      add\n      mload(0x40)\n      dup1\n      swap2\n      sub\n      swap1\n      revert\n        /* \"bridges/facets/StargateFacet.sol\":7333:7422  if (msg.sender != address(s.stargateRouter))... */\n    tag_158:\n        /* \"bridges/facets/StargateFacet.sol\":7433:7448  address _toAddr */\n      0x00\n        /* \"bridges/facets/StargateFacet.sol\":7462:7470  _payload */\n      dup3\n        /* \"bridges/facets/StargateFacet.sol\":7451:7482  abi.decode(_payload, (address)) */\n      dup1\n      0x20\n      add\n      swap1\n      mload\n      dup2\n      add\n      swap1\n      tag_159\n      swap2\n      swap1\n      tag_160\n      jump\t// in\n    tag_159:\n        /* \"bridges/facets/StargateFacet.sol\":7433:7482  address _toAddr = abi.decode(_payload, (address)) */\n      swap1\n      pop\n        /* \"bridges/facets/StargateFacet.sol\":7499:7505  _token */\n      dup5\n        /* \"bridges/facets/StargateFacet.sol\":7492:7515  IERC20(_token).transfer */\n      0xffffffffffffffffffffffffffffffffffffffff\n      and\n      0xa9059cbb\n        /* \"bridges/facets/StargateFacet.sol\":7516:7523  _toAddr */\n      dup3\n        /* \"bridges/facets/StargateFacet.sol\":7525:7533  amountLD */\n      dup7\n        /* \"bridges/facets/StargateFacet.sol\":7492:7534  IERC20(_token).transfer(_toAddr, amountLD) */\n      mload(0x40)\n      dup4\n      0xffffffff\n      and\n      0xe0\n      shl\n      dup2\n      mstore\n      0x04\n      add\n      tag_161\n      swap3\n      swap2\n      swap1\n      tag_162\n      jump\t// in\n    tag_161:\n      0x20\n      mload(0x40)\n      dup1\n      dup4\n      sub\n      dup2\n      0x00\n      dup8\n      dup1\n      extcodesize\n      iszero\n      dup1\n      iszero\n      tag_163\n      jumpi\n      0x00\n      dup1\n      revert\n    tag_163:\n      pop\n      gas\n      call\n      iszero\n      dup1\n      iszero\n      tag_165\n      jumpi\n      returndatasize\n      0x00\n      dup1\n      returndatacopy\n      revert(0x00, returndatasize)\n    tag_165:\n      pop\n      pop\n      pop\n      pop\n      mload(0x40)\n      returndatasize\n      not(0x1f)\n      0x1f\n      dup3\n      add\n      and\n      dup3\n      add\n      dup1\n      0x40\n      mstore\n      pop\n      dup2\n      add\n      swap1\n      tag_166\n      swap2\n      swap1\n      tag_167\n      jump\t// in\n    tag_166:\n      pop\n        /* \"bridges/facets/StargateFacet.sol\":7549:7590  SGReceivedOnDestination(_token, amountLD) */\n      0x827e3293895509ef037b7438d4e009f37ad7b2562a14695d9dfd9cb065984218\n        /* \"bridges/facets/StargateFacet.sol\":7573:7579  _token */\n      dup6\n        /* \"bridges/facets/StargateFacet.sol\":7581:7589  amountLD */\n      dup6\n        /* \"bridges/facets/StargateFacet.sol\":7549:7590  SGReceivedOnDestination(_token, amountLD) */\n      mload(0x40)\n      tag_168\n      swap3\n      swap2\n      swap1\n      tag_162\n      jump\t// in\n    tag_168:\n      mload(0x40)\n      dup1\n      swap2\n      sub\n      swap1\n      log1\n        /* \"bridges/facets/StargateFacet.sol\":7074:7597  function sgReceive(... */\n      pop\n      pop\n      pop\n      pop\n      pop\n      pop\n      pop\n      pop\n      jump\t// out\n        /* \"bridges/facets/StargateFacet.sol\":8918:9230  function sgWithdraw(... */\n    tag_67:\n        /* \"bridges/helpers/ReentrancyGuard.sol\":680:707  ReentrancyStorage storage s */\n      0x00\n        /* \"bridges/helpers/ReentrancyGuard.sol\":710:729  reentrancyStorage() */\n      tag_170\n        /* \"bridges/helpers/ReentrancyGuard.sol\":710:727  reentrancyStorage */\n      tag_123\n        /* \"bridges/helpers/ReentrancyGuard.sol\":710:729  reentrancyStorage() */\n      jump\t// in\n    tag_170:\n        /* \"bridges/helpers/ReentrancyGuard.sol\":680:729  ReentrancyStorage storage s = reentrancyStorage() */\n      swap1\n      pop\n        /* \"bridges/helpers/ReentrancyGuard.sol\":615:616  1 */\n      0x01\n        /* \"bridges/helpers/ReentrancyGuard.sol\":743:744  s */\n      dup2\n        /* \"bridges/helpers/ReentrancyGuard.sol\":743:751  s.status */\n      0x00\n      add\n      sload\n        /* \"bridges/helpers/ReentrancyGuard.sol\":743:763  s.status == _ENTERED */\n      eq\n        /* \"bridges/helpers/ReentrancyGuard.sol\":739:789  if (s.status == _ENTERED) revert ReentrancyError() */\n      iszero\n      tag_171\n      jumpi\n        /* \"bridges/helpers/ReentrancyGuard.sol\":772:789  ReentrancyError() */\n      mload(0x40)\n      0x29f745a700000000000000000000000000000000000000000000000000000000\n      dup2\n      mstore\n      0x04\n      add\n      mload(0x40)\n      dup1\n      swap2\n      sub\n      swap1\n      revert\n        /* \"bridges/helpers/ReentrancyGuard.sol\":739:789  if (s.status == _ENTERED) revert ReentrancyError() */\n    tag_171:\n        /* \"bridges/helpers/ReentrancyGuard.sol\":615:616  1 */\n      0x01\n        /* \"bridges/helpers/ReentrancyGuard.sol\":799:800  s */\n      dup2\n        /* \"bridges/helpers/ReentrancyGuard.sol\":799:807  s.status */\n      0x00\n      add\n        /* \"bridges/helpers/ReentrancyGuard.sol\":799:818  s.status = _ENTERED */\n      dup2\n      swap1\n      sstore\n      pop\n        /* \"bridges/facets/StargateFacet.sol\":9056:9091  LibDiamond.enforceIsContractOwner() */\n      tag_173\n        /* \"bridges/facets/StargateFacet.sol\":9056:9089  LibDiamond.enforceIsContractOwner */\n      tag_70\n        /* \"bridges/facets/StargateFacet.sol\":9056:9091  LibDiamond.enforceIsContractOwner() */\n      jump\t// in\n    tag_173:\n        /* \"bridges/facets/StargateFacet.sol\":9101:9151  IERC20(_token).safeApprove(address(this), _amount) */\n      tag_174\n        /* \"bridges/facets/StargateFacet.sol\":9136:9140  this */\n      address\n        /* \"bridges/facets/StargateFacet.sol\":9143:9150  _amount */\n      dup4\n        /* \"bridges/facets/StargateFacet.sol\":9108:9114  _token */\n      dup7\n        /* \"bridges/facets/StargateFacet.sol\":9101:9127  IERC20(_token).safeApprove */\n      0xffffffffffffffffffffffffffffffffffffffff\n      and\n      tag_143\n      swap1\n        /* \"bridges/facets/StargateFacet.sol\":9101:9151  IERC20(_token).safeApprove(address(this), _amount) */\n      swap3\n      swap2\n      swap1\n      0xffffffff\n      and\n      jump\t// in\n    tag_174:\n        /* \"bridges/facets/StargateFacet.sol\":9161:9223  IERC20(_token).safeTransferFrom(address(this), _user, _amount) */\n      tag_175\n        /* \"bridges/facets/StargateFacet.sol\":9201:9205  this */\n      address\n        /* \"bridges/facets/StargateFacet.sol\":9208:9213  _user */\n      dup5\n        /* \"bridges/facets/StargateFacet.sol\":9215:9222  _amount */\n      dup5\n        /* \"bridges/facets/StargateFacet.sol\":9168:9174  _token */\n      dup8\n        /* \"bridges/facets/StargateFacet.sol\":9161:9192  IERC20(_token).safeTransferFrom */\n      0xffffffffffffffffffffffffffffffffffffffff\n      and\n      tag_141\n      swap1\n        /* \"bridges/facets/StargateFacet.sol\":9161:9223  IERC20(_token).safeTransferFrom(address(this), _user, _amount) */\n      swap4\n      swap3\n      swap2\n      swap1\n      0xffffffff\n      and\n      jump\t// in\n    tag_175:\n        /* \"bridges/helpers/ReentrancyGuard.sol\":572:573  0 */\n      0x00\n        /* \"bridges/helpers/ReentrancyGuard.sol\":839:840  s */\n      dup2\n        /* \"bridges/helpers/ReentrancyGuard.sol\":839:847  s.status */\n      0x00\n      add\n        /* \"bridges/helpers/ReentrancyGuard.sol\":839:862  s.status = _NOT_ENTERED */\n      dup2\n      swap1\n      sstore\n      pop\n        /* \"bridges/facets/StargateFacet.sol\":8918:9230  function sgWithdraw(... */\n      pop\n      pop\n      pop\n      pop\n      jump\t// out\n        /* \"bridges/libs/LibDiamond.sol\":1898:2048  function enforceIsContractOwner() internal view {... */\n    tag_70:\n        /* \"bridges/libs/LibDiamond.sol\":1974:1990  diamondStorage() */\n      tag_177\n        /* \"bridges/libs/LibDiamond.sol\":1974:1988  diamondStorage */\n      tag_178\n        /* \"bridges/libs/LibDiamond.sol\":1974:1990  diamondStorage() */\n      jump\t// in\n    tag_177:\n        /* \"bridges/libs/LibDiamond.sol\":1974:2004  diamondStorage().contractOwner */\n      0x04\n      add\n      0x00\n      swap1\n      sload\n      swap1\n      0x0100\n      exp\n      swap1\n      div\n      0xffffffffffffffffffffffffffffffffffffffff\n      and\n        /* \"bridges/libs/LibDiamond.sol\":1960:2004  msg.sender == diamondStorage().contractOwner */\n      0xffffffffffffffffffffffffffffffffffffffff\n      and\n        /* \"bridges/libs/LibDiamond.sol\":1960:1970  msg.sender */\n      caller\n        /* \"bridges/libs/LibDiamond.sol\":1960:2004  msg.sender == diamondStorage().contractOwner */\n      0xffffffffffffffffffffffffffffffffffffffff\n      and\n      eq\n        /* \"bridges/libs/LibDiamond.sol\":1952:2043  require(msg.sender == diamondStorage().contractOwner, \"LibDiamond: Must be contract owner\") */\n      tag_179\n      jumpi\n      mload(0x40)\n      0x08c379a000000000000000000000000000000000000000000000000000000000\n      dup2\n      mstore\n      0x04\n      add\n      tag_180\n      swap1\n      tag_181\n      jump\t// in\n    tag_180:\n      mload(0x40)\n      dup1\n      swap2\n      sub\n      swap1\n      revert\n    tag_179:\n        /* \"bridges/libs/LibDiamond.sol\":1898:2048  function enforceIsContractOwner() internal view {... */\n      jump\t// out\n        /* \"bridges/facets/StargateFacet.sol\":10067:10293  function getStorage() private pure returns (Storage storage s) {... */\n    tag_72:\n        /* \"bridges/facets/StargateFacet.sol\":10111:10128  Storage storage s */\n      0x00\n        /* \"bridges/facets/StargateFacet.sol\":10140:10157  bytes32 namespace */\n      dup1\n        /* \"bridges/facets/StargateFacet.sol\":1936:1977  keccak256(\"io.etherspot.facets.stargate\") */\n      0xbaeadb48cbcf0176d6c6ac156b0140abe0fb28a100a9a6a8b5df37e55693b1c8\n        /* \"bridges/facets/StargateFacet.sol\":10140:10169  bytes32 namespace = NAMESPACE */\n      swap1\n      pop\n        /* \"bridges/facets/StargateFacet.sol\":10268:10277  namespace */\n      dup1\n        /* \"bridges/facets/StargateFacet.sol\":10258:10277  s.slot := namespace */\n      swap2\n      pop\n        /* \"bridges/facets/StargateFacet.sol\":10244:10287  {... */\n      pop\n      swap1\n      jump\t// out\n        /* \"bridges/helpers/ReentrancyGuard.sol\":937:1212  function reentrancyStorage()... */\n    tag_123:\n        /* \"bridges/helpers/ReentrancyGuard.sol\":1012:1042  ReentrancyStorage storage data */\n      0x00\n        /* \"bridges/helpers/ReentrancyGuard.sol\":1058:1074  bytes32 position */\n      dup1\n        /* \"bridges/helpers/ReentrancyGuard.sol\":1077:1086  NAMESPACE */\n      0xa65bb2f450488ab0858c00edc14abc5297769bf42adb48cfb77752890e8b697b\n        /* \"bridges/helpers/ReentrancyGuard.sol\":1058:1086  bytes32 position = NAMESPACE */\n      swap1\n      pop\n        /* \"bridges/helpers/ReentrancyGuard.sol\":1188:1196  position */\n      dup1\n        /* \"bridges/helpers/ReentrancyGuard.sol\":1175:1196  data.slot := position */\n      swap2\n      pop\n        /* \"bridges/helpers/ReentrancyGuard.sol\":1161:1206  {... */\n      pop\n      swap1\n      jump\t// out\n        /* \"@openzeppelin/contracts/token/ERC20/utils/SafeERC20.sol\":974:1215  function safeTransferFrom(... */\n    tag_141:\n        /* \"@openzeppelin/contracts/token/ERC20/utils/SafeERC20.sol\":1112:1208  _callOptionalReturn(token, abi.encodeWithSelector(token.transferFrom.selector, from, to, value)) */\n      tag_185\n        /* \"@openzeppelin/contracts/token/ERC20/utils/SafeERC20.sol\":1132:1137  token */\n      dup5\n        /* \"@openzeppelin/contracts/token/ERC20/utils/SafeERC20.sol\":1162:1189  token.transferFrom.selector */\n      shl(0xe0, 0x23b872dd)\n        /* \"@openzeppelin/contracts/token/ERC20/utils/SafeERC20.sol\":1191:1195  from */\n      dup6\n        /* \"@openzeppelin/contracts/token/ERC20/utils/SafeERC20.sol\":1197:1199  to */\n      dup6\n        /* \"@openzeppelin/contracts/token/ERC20/utils/SafeERC20.sol\":1201:1206  value */\n      dup6\n        /* \"@openzeppelin/contracts/token/ERC20/utils/SafeERC20.sol\":1139:1207  abi.encodeWithSelector(token.transferFrom.selector, from, to, value) */\n      add(0x24, mload(0x40))\n      tag_186\n      swap4\n      swap3\n      swap2\n      swap1\n      tag_187\n      jump\t// in\n    tag_186:\n      mload(0x40)\n      0x20\n      dup2\n      dup4\n      sub\n      sub\n      dup2\n      mstore\n      swap1\n      0x40\n      mstore\n      swap1\n      not(0xffffffffffffffffffffffffffffffffffffffffffffffffffffffff)\n      and\n      0x20\n      dup3\n      add\n      dup1\n      mload\n      0xffffffffffffffffffffffffffffffffffffffffffffffffffffffff\n      dup4\n      dup2\n      dup4\n      and\n      or\n      dup4\n      mstore\n      pop\n      pop\n      pop\n      pop\n        /* \"@openzeppelin/contracts/token/ERC20/utils/SafeERC20.sol\":1112:1131  _callOptionalReturn */\n      tag_188\n        /* \"@openzeppelin/contracts/token/ERC20/utils/SafeERC20.sol\":1112:1208  _callOptionalReturn(token, abi.encodeWithSelector(token.transferFrom.selector, from, to, value)) */\n      jump\t// in\n    tag_185:\n        /* \"@openzeppelin/contracts/token/ERC20/utils/SafeERC20.sol\":974:1215  function safeTransferFrom(... */\n      pop\n      pop\n      pop\n      pop\n      jump\t// out\n        /* \"@openzeppelin/contracts/token/ERC20/utils/SafeERC20.sol\":1475:2078  function safeApprove(... */\n    tag_143:\n        /* \"@openzeppelin/contracts/token/ERC20/utils/SafeERC20.sol\":1839:1840  0 */\n      0x00\n        /* \"@openzeppelin/contracts/token/ERC20/utils/SafeERC20.sol\":1830:1835  value */\n      dup2\n        /* \"@openzeppelin/contracts/token/ERC20/utils/SafeERC20.sol\":1830:1840  value == 0 */\n      eq\n        /* \"@openzeppelin/contracts/token/ERC20/utils/SafeERC20.sol\":1829:1891  (value == 0) || (token.allowance(address(this), spender) == 0) */\n      dup1\n      tag_190\n      jumpi\n      pop\n        /* \"@openzeppelin/contracts/token/ERC20/utils/SafeERC20.sol\":1889:1890  0 */\n      0x00\n        /* \"@openzeppelin/contracts/token/ERC20/utils/SafeERC20.sol\":1846:1851  token */\n      dup4\n        /* \"@openzeppelin/contracts/token/ERC20/utils/SafeERC20.sol\":1846:1861  token.allowance */\n      0xffffffffffffffffffffffffffffffffffffffff\n      and\n      0xdd62ed3e\n        /* \"@openzeppelin/contracts/token/ERC20/utils/SafeERC20.sol\":1870:1874  this */\n      address\n        /* \"@openzeppelin/contracts/token/ERC20/utils/SafeERC20.sol\":1877:1884  spender */\n      dup6\n        /* \"@openzeppelin/contracts/token/ERC20/utils/SafeERC20.sol\":1846:1885  token.allowance(address(this), spender) */\n      mload(0x40)\n      dup4\n      0xffffffff\n      and\n      0xe0\n      shl\n      dup2\n      mstore\n      0x04\n      add\n      tag_191\n      swap3\n      swap2\n      swap1\n      tag_192\n      jump\t// in\n    tag_191:\n      0x20\n      mload(0x40)\n      dup1\n      dup4\n      sub\n      dup2\n      dup7\n      dup1\n      extcodesize\n      iszero\n      dup1\n      iszero\n      tag_193\n      jumpi\n      0x00\n      dup1\n      revert\n    tag_193:\n      pop\n      gas\n      staticcall\n      iszero\n      dup1\n      iszero\n      tag_195\n      jumpi\n      returndatasize\n      0x00\n      dup1\n      returndatacopy\n      revert(0x00, returndatasize)\n    tag_195:\n      pop\n      pop\n      pop\n      pop\n      mload(0x40)\n      returndatasize\n      not(0x1f)\n      0x1f\n      dup3\n      add\n      and\n      dup3\n      add\n      dup1\n      0x40\n      mstore\n      pop\n      dup2\n      add\n      swap1\n      tag_196\n      swap2\n      swap1\n      tag_197\n      jump\t// in\n    tag_196:\n        /* \"@openzeppelin/contracts/token/ERC20/utils/SafeERC20.sol\":1846:1890  token.allowance(address(this), spender) == 0 */\n      eq\n        /* \"@openzeppelin/contracts/token/ERC20/utils/SafeERC20.sol\":1829:1891  (value == 0) || (token.allowance(address(this), spender) == 0) */\n    tag_190:\n        /* \"@openzeppelin/contracts/token/ERC20/utils/SafeERC20.sol\":1808:1971  require(... */\n      tag_198\n      jumpi\n      mload(0x40)\n      0x08c379a000000000000000000000000000000000000000000000000000000000\n      dup2\n      mstore\n      0x04\n      add\n      tag_199\n      swap1\n      tag_200\n      jump\t// in\n    tag_199:\n      mload(0x40)\n      dup1\n      swap2\n      sub\n      swap1\n      revert\n    tag_198:\n        /* \"@openzeppelin/contracts/token/ERC20/utils/SafeERC20.sol\":1981:2071  _callOptionalReturn(token, abi.encodeWithSelector(token.approve.selector, spender, value)) */\n      tag_201\n        /* \"@openzeppelin/contracts/token/ERC20/utils/SafeERC20.sol\":2001:2006  token */\n      dup4\n        /* \"@openzeppelin/contracts/token/ERC20/utils/SafeERC20.sol\":2031:2053  token.approve.selector */\n      shl(0xe0, 0x095ea7b3)\n        /* \"@openzeppelin/contracts/token/ERC20/utils/SafeERC20.sol\":2055:2062  spender */\n      dup5\n        /* \"@openzeppelin/contracts/token/ERC20/utils/SafeERC20.sol\":2064:2069  value */\n      dup5\n        /* \"@openzeppelin/contracts/token/ERC20/utils/SafeERC20.sol\":2008:2070  abi.encodeWithSelector(token.approve.selector, spender, value) */\n      add(0x24, mload(0x40))\n      tag_202\n      swap3\n      swap2\n      swap1\n      tag_162\n      jump\t// in\n    tag_202:\n      mload(0x40)\n      0x20\n      dup2\n      dup4\n      sub\n      sub\n      dup2\n      mstore\n      swap1\n      0x40\n      mstore\n      swap1\n      not(0xffffffffffffffffffffffffffffffffffffffffffffffffffffffff)\n      and\n      0x20\n      dup3\n      add\n      dup1\n      mload\n      0xffffffffffffffffffffffffffffffffffffffffffffffffffffffff\n      dup4\n      dup2\n      dup4\n      and\n      or\n      dup4\n      mstore\n      pop\n      pop\n      pop\n      pop\n        /* \"@openzeppelin/contracts/token/ERC20/utils/SafeERC20.sol\":1981:2000  _callOptionalReturn */\n      tag_188\n        /* \"@openzeppelin/contracts/token/ERC20/utils/SafeERC20.sol\":1981:2071  _callOptionalReturn(token, abi.encodeWithSelector(token.approve.selector, spender, value)) */\n      jump\t// in\n    tag_201:\n        /* \"@openzeppelin/contracts/token/ERC20/utils/SafeERC20.sol\":1475:2078  function safeApprove(... */\n      pop\n      pop\n      pop\n      jump\t// out\n        /* \"bridges/libs/LibDiamond.sol\":1191:1422  function diamondStorage() internal pure returns (DiamondStorage storage ds) {... */\n    tag_178:\n        /* \"bridges/libs/LibDiamond.sol\":1240:1265  DiamondStorage storage ds */\n      0x00\n        /* \"bridges/libs/LibDiamond.sol\":1273:1289  bytes32 position */\n      dup1\n        /* \"bridges/libs/LibDiamond.sol\":203:248  keccak256(\"diamond.standard.diamond.storage\") */\n      0xc8fcad8db84d3cc18b4c41d551ea0ee66dd599cde068d998e57d5e09332c131c\n        /* \"bridges/libs/LibDiamond.sol\":1273:1316  bytes32 position = DIAMOND_STORAGE_POSITION */\n      swap1\n      pop\n        /* \"bridges/libs/LibDiamond.sol\":1404:1412  position */\n      dup1\n        /* \"bridges/libs/LibDiamond.sol\":1393:1412  ds.slot := position */\n      swap2\n      pop\n        /* \"bridges/libs/LibDiamond.sol\":1383:1418  {... */\n      pop\n      swap1\n      jump\t// out\n        /* \"@openzeppelin/contracts/token/ERC20/utils/SafeERC20.sol\":3747:4453  function _callOptionalReturn(IERC20 token, bytes memory data) private {... */\n    tag_188:\n        /* \"@openzeppelin/contracts/token/ERC20/utils/SafeERC20.sol\":4166:4189  bytes memory returndata */\n      0x00\n        /* \"@openzeppelin/contracts/token/ERC20/utils/SafeERC20.sol\":4192:4261  address(token).functionCall(data, \"SafeERC20: low-level call failed\") */\n      tag_205\n        /* \"@openzeppelin/contracts/token/ERC20/utils/SafeERC20.sol\":4220:4224  data */\n      dup3\n        /* \"@openzeppelin/contracts/token/ERC20/utils/SafeERC20.sol\":4192:4261  address(token).functionCall(data, \"SafeERC20: low-level call failed\") */\n      mload(0x40)\n      dup1\n      0x40\n      add\n      0x40\n      mstore\n      dup1\n      0x20\n      dup2\n      mstore\n      0x20\n      add\n      0x5361666545524332303a206c6f772d6c6576656c2063616c6c206661696c6564\n      dup2\n      mstore\n      pop\n        /* \"@openzeppelin/contracts/token/ERC20/utils/SafeERC20.sol\":4200:4205  token */\n      dup6\n        /* \"@openzeppelin/contracts/token/ERC20/utils/SafeERC20.sol\":4192:4219  address(token).functionCall */\n      0xffffffffffffffffffffffffffffffffffffffff\n      and\n      tag_206\n      swap1\n        /* \"@openzeppelin/contracts/token/ERC20/utils/SafeERC20.sol\":4192:4261  address(token).functionCall(data, \"SafeERC20: low-level call failed\") */\n      swap3\n      swap2\n      swap1\n      0xffffffff\n      and\n      jump\t// in\n    tag_205:\n        /* \"@openzeppelin/contracts/token/ERC20/utils/SafeERC20.sol\":4166:4261  bytes memory returndata = address(token).functionCall(data, \"SafeERC20: low-level call failed\") */\n      swap1\n      pop\n        /* \"@openzeppelin/contracts/token/ERC20/utils/SafeERC20.sol\":4295:4296  0 */\n      0x00\n        /* \"@openzeppelin/contracts/token/ERC20/utils/SafeERC20.sol\":4275:4285  returndata */\n      dup2\n        /* \"@openzeppelin/contracts/token/ERC20/utils/SafeERC20.sol\":4275:4292  returndata.length */\n      mload\n        /* \"@openzeppelin/contracts/token/ERC20/utils/SafeERC20.sol\":4275:4296  returndata.length > 0 */\n      gt\n        /* \"@openzeppelin/contracts/token/ERC20/utils/SafeERC20.sol\":4271:4447  if (returndata.length > 0) {... */\n      iszero\n      tag_207\n      jumpi\n        /* \"@openzeppelin/contracts/token/ERC20/utils/SafeERC20.sol\":4370:4380  returndata */\n      dup1\n        /* \"@openzeppelin/contracts/token/ERC20/utils/SafeERC20.sol\":4359:4389  abi.decode(returndata, (bool)) */\n      dup1\n      0x20\n      add\n      swap1\n      mload\n      dup2\n      add\n      swap1\n      tag_208\n      swap2\n      swap1\n      tag_167\n      jump\t// in\n    tag_208:\n        /* \"@openzeppelin/contracts/token/ERC20/utils/SafeERC20.sol\":4351:4436  require(abi.decode(returndata, (bool)), \"SafeERC20: ERC20 operation did not succeed\") */\n      tag_209\n      jumpi\n      mload(0x40)\n      0x08c379a000000000000000000000000000000000000000000000000000000000\n      dup2\n      mstore\n      0x04\n      add\n      tag_210\n      swap1\n      tag_211\n      jump\t// in\n    tag_210:\n      mload(0x40)\n      dup1\n      swap2\n      sub\n      swap1\n      revert\n    tag_209:\n        /* \"@openzeppelin/contracts/token/ERC20/utils/SafeERC20.sol\":4271:4447  if (returndata.length > 0) {... */\n    tag_207:\n        /* \"@openzeppelin/contracts/token/ERC20/utils/SafeERC20.sol\":3747:4453  function _callOptionalReturn(IERC20 token, bytes memory data) private {... */\n      pop\n      pop\n      pop\n      jump\t// out\n        /* \"@openzeppelin/contracts/utils/Address.sol\":3861:4084  function functionCall(... */\n    tag_206:\n        /* \"@openzeppelin/contracts/utils/Address.sol\":3994:4006  bytes memory */\n      0x60\n        /* \"@openzeppelin/contracts/utils/Address.sol\":4025:4077  functionCallWithValue(target, data, 0, errorMessage) */\n      tag_213\n        /* \"@openzeppelin/contracts/utils/Address.sol\":4047:4053  target */\n      dup5\n        /* \"@openzeppelin/contracts/utils/Address.sol\":4055:4059  data */\n      dup5\n        /* \"@openzeppelin/contracts/utils/Address.sol\":4061:4062  0 */\n      0x00\n        /* \"@openzeppelin/contracts/utils/Address.sol\":4064:4076  errorMessage */\n      dup6\n        /* \"@openzeppelin/contracts/utils/Address.sol\":4025:4046  functionCallWithValue */\n      tag_214\n        /* \"@openzeppelin/contracts/utils/Address.sol\":4025:4077  functionCallWithValue(target, data, 0, errorMessage) */\n      jump\t// in\n    tag_213:\n        /* \"@openzeppelin/contracts/utils/Address.sol\":4018:4077  return functionCallWithValue(target, data, 0, errorMessage) */\n      swap1\n      pop\n        /* \"@openzeppelin/contracts/utils/Address.sol\":3861:4084  function functionCall(... */\n      swap4\n      swap3\n      pop\n      pop\n      pop\n      jump\t// out\n        /* \"@openzeppelin/contracts/utils/Address.sol\":4948:5447  function functionCallWithValue(... */\n    tag_214:\n        /* \"@openzeppelin/contracts/utils/Address.sol\":5113:5125  bytes memory */\n      0x60\n        /* \"@openzeppelin/contracts/utils/Address.sol\":5170:5175  value */\n      dup3\n        /* \"@openzeppelin/contracts/utils/Address.sol\":5145:5166  address(this).balance */\n      selfbalance\n        /* \"@openzeppelin/contracts/utils/Address.sol\":5145:5175  address(this).balance >= value */\n      lt\n      iszero\n        /* \"@openzeppelin/contracts/utils/Address.sol\":5137:5218  require(address(this).balance >= value, \"Address: insufficient balance for call\") */\n      tag_216\n      jumpi\n      mload(0x40)\n      0x08c379a000000000000000000000000000000000000000000000000000000000\n      dup2\n      mstore\n      0x04\n      add\n      tag_217\n      swap1\n      tag_218\n      jump\t// in\n    tag_217:\n      mload(0x40)\n      dup1\n      swap2\n      sub\n      swap1\n      revert\n    tag_216:\n        /* \"@openzeppelin/contracts/utils/Address.sol\":5236:5254  isContract(target) */\n      tag_219\n        /* \"@openzeppelin/contracts/utils/Address.sol\":5247:5253  target */\n      dup6\n        /* \"@openzeppelin/contracts/utils/Address.sol\":5236:5246  isContract */\n      tag_220\n        /* \"@openzeppelin/contracts/utils/Address.sol\":5236:5254  isContract(target) */\n      jump\t// in\n    tag_219:\n        /* \"@openzeppelin/contracts/utils/Address.sol\":5228:5288  require(isContract(target), \"Address: call to non-contract\") */\n      tag_221\n      jumpi\n      mload(0x40)\n      0x08c379a000000000000000000000000000000000000000000000000000000000\n      dup2\n      mstore\n      0x04\n      add\n      tag_222\n      swap1\n      tag_223\n      jump\t// in\n    tag_222:\n      mload(0x40)\n      dup1\n      swap2\n      sub\n      swap1\n      revert\n    tag_221:\n        /* \"@openzeppelin/contracts/utils/Address.sol\":5300:5312  bool success */\n      0x00\n        /* \"@openzeppelin/contracts/utils/Address.sol\":5314:5337  bytes memory returndata */\n      dup1\n        /* \"@openzeppelin/contracts/utils/Address.sol\":5341:5347  target */\n      dup7\n        /* \"@openzeppelin/contracts/utils/Address.sol\":5341:5352  target.call */\n      0xffffffffffffffffffffffffffffffffffffffff\n      and\n        /* \"@openzeppelin/contracts/utils/Address.sol\":5360:5365  value */\n      dup6\n        /* \"@openzeppelin/contracts/utils/Address.sol\":5367:5371  data */\n      dup8\n        /* \"@openzeppelin/contracts/utils/Address.sol\":5341:5372  target.call{value: value}(data) */\n      mload(0x40)\n      tag_224\n      swap2\n      swap1\n      tag_225\n      jump\t// in\n    tag_224:\n      0x00\n      mload(0x40)\n      dup1\n      dup4\n      sub\n      dup2\n      dup6\n      dup8\n      gas\n      call\n      swap3\n      pop\n      pop\n      pop\n      returndatasize\n      dup1\n      0x00\n      dup2\n      eq\n      tag_228\n      jumpi\n      mload(0x40)\n      swap2\n      pop\n      and(add(returndatasize, 0x3f), not(0x1f))\n      dup3\n      add\n      0x40\n      mstore\n      returndatasize\n      dup3\n      mstore\n      returndatasize\n      0x00\n      0x20\n      dup5\n      add\n      returndatacopy\n      jump(tag_227)\n    tag_228:\n      0x60\n      swap2\n      pop\n    tag_227:\n      pop\n        /* \"@openzeppelin/contracts/utils/Address.sol\":5299:5372  (bool success, bytes memory returndata) = target.call{value: value}(data) */\n      swap2\n      pop\n      swap2\n      pop\n        /* \"@openzeppelin/contracts/utils/Address.sol\":5389:5440  verifyCallResult(success, returndata, errorMessage) */\n      tag_229\n        /* \"@openzeppelin/contracts/utils/Address.sol\":5406:5413  success */\n      dup3\n        /* \"@openzeppelin/contracts/utils/Address.sol\":5415:5425  returndata */\n      dup3\n        /* \"@openzeppelin/contracts/utils/Address.sol\":5427:5439  errorMessage */\n      dup7\n        /* \"@openzeppelin/contracts/utils/Address.sol\":5389:5405  verifyCallResult */\n      tag_230\n        /* \"@openzeppelin/contracts/utils/Address.sol\":5389:5440  verifyCallResult(success, returndata, errorMessage) */\n      jump\t// in\n    tag_229:\n        /* \"@openzeppelin/contracts/utils/Address.sol\":5382:5440  return verifyCallResult(success, returndata, errorMessage) */\n      swap3\n      pop\n      pop\n      pop\n        /* \"@openzeppelin/contracts/utils/Address.sol\":4948:5447  function functionCallWithValue(... */\n      swap5\n      swap4\n      pop\n      pop\n      pop\n      pop\n      jump\t// out\n        /* \"@openzeppelin/contracts/utils/Address.sol\":1175:1495  function isContract(address account) internal view returns (bool) {... */\n    tag_220:\n        /* \"@openzeppelin/contracts/utils/Address.sol\":1235:1239  bool */\n      0x00\n        /* \"@openzeppelin/contracts/utils/Address.sol\":1487:1488  0 */\n      dup1\n        /* \"@openzeppelin/contracts/utils/Address.sol\":1465:1472  account */\n      dup3\n        /* \"@openzeppelin/contracts/utils/Address.sol\":1465:1484  account.code.length */\n      0xffffffffffffffffffffffffffffffffffffffff\n      and\n      extcodesize\n        /* \"@openzeppelin/contracts/utils/Address.sol\":1465:1488  account.code.length > 0 */\n      gt\n        /* \"@openzeppelin/contracts/utils/Address.sol\":1458:1488  return account.code.length > 0 */\n      swap1\n      pop\n        /* \"@openzeppelin/contracts/utils/Address.sol\":1175:1495  function isContract(address account) internal view returns (bool) {... */\n      swap2\n      swap1\n      pop\n      jump\t// out\n        /* \"@openzeppelin/contracts/utils/Address.sol\":7561:8303  function verifyCallResult(... */\n    tag_230:\n        /* \"@openzeppelin/contracts/utils/Address.sol\":7707:7719  bytes memory */\n      0x60\n        /* \"@openzeppelin/contracts/utils/Address.sol\":7735:7742  success */\n      dup4\n        /* \"@openzeppelin/contracts/utils/Address.sol\":7731:8297  if (success) {... */\n      iszero\n      tag_233\n      jumpi\n        /* \"@openzeppelin/contracts/utils/Address.sol\":7765:7775  returndata */\n      dup3\n        /* \"@openzeppelin/contracts/utils/Address.sol\":7758:7775  return returndata */\n      swap1\n      pop\n      jump(tag_232)\n        /* \"@openzeppelin/contracts/utils/Address.sol\":7731:8297  if (success) {... */\n    tag_233:\n        /* \"@openzeppelin/contracts/utils/Address.sol\":7896:7897  0 */\n      0x00\n        /* \"@openzeppelin/contracts/utils/Address.sol\":7876:7886  returndata */\n      dup4\n        /* \"@openzeppelin/contracts/utils/Address.sol\":7876:7893  returndata.length */\n      mload\n        /* \"@openzeppelin/contracts/utils/Address.sol\":7876:7897  returndata.length > 0 */\n      gt\n        /* \"@openzeppelin/contracts/utils/Address.sol\":7872:8287  if (returndata.length > 0) {... */\n      iszero\n      tag_235\n      jumpi\n        /* \"@openzeppelin/contracts/utils/Address.sol\":8120:8130  returndata */\n      dup3\n        /* \"@openzeppelin/contracts/utils/Address.sol\":8114:8131  mload(returndata) */\n      mload\n        /* \"@openzeppelin/contracts/utils/Address.sol\":8180:8195  returndata_size */\n      dup1\n        /* \"@openzeppelin/contracts/utils/Address.sol\":8167:8177  returndata */\n      dup5\n        /* \"@openzeppelin/contracts/utils/Address.sol\":8163:8165  32 */\n      0x20\n        /* \"@openzeppelin/contracts/utils/Address.sol\":8159:8178  add(32, returndata) */\n      add\n        /* \"@openzeppelin/contracts/utils/Address.sol\":8152:8196  revert(add(32, returndata), returndata_size) */\n      revert\n        /* \"@openzeppelin/contracts/utils/Address.sol\":8069:8214  {... */\n    tag_235:\n        /* \"@openzeppelin/contracts/utils/Address.sol\":8259:8271  errorMessage */\n      dup2\n        /* \"@openzeppelin/contracts/utils/Address.sol\":8252:8272  revert(errorMessage) */\n      mload(0x40)\n      0x08c379a000000000000000000000000000000000000000000000000000000000\n      dup2\n      mstore\n      0x04\n      add\n      tag_237\n      swap2\n      swap1\n      tag_238\n      jump\t// in\n    tag_237:\n      mload(0x40)\n      dup1\n      swap2\n      sub\n      swap1\n      revert\n        /* \"@openzeppelin/contracts/utils/Address.sol\":7561:8303  function verifyCallResult(... */\n    tag_232:\n      swap4\n      swap3\n      pop\n      pop\n      pop\n      jump\t// out\n        /* \"#utility.yul\":7:350   */\n    tag_240:\n        /* \"#utility.yul\":84:89   */\n      0x00\n        /* \"#utility.yul\":109:174   */\n      tag_242\n        /* \"#utility.yul\":125:173   */\n      tag_243\n        /* \"#utility.yul\":166:172   */\n      dup5\n        /* \"#utility.yul\":125:173   */\n      tag_244\n      jump\t// in\n    tag_243:\n        /* \"#utility.yul\":109:174   */\n      tag_245\n      jump\t// in\n    tag_242:\n        /* \"#utility.yul\":100:174   */\n      swap1\n      pop\n        /* \"#utility.yul\":197:203   */\n      dup3\n        /* \"#utility.yul\":190:195   */\n      dup2\n        /* \"#utility.yul\":183:204   */\n      mstore\n        /* \"#utility.yul\":235:239   */\n      0x20\n        /* \"#utility.yul\":228:233   */\n      dup2\n        /* \"#utility.yul\":224:240   */\n      add\n        /* \"#utility.yul\":273:276   */\n      dup5\n        /* \"#utility.yul\":264:270   */\n      dup5\n        /* \"#utility.yul\":259:262   */\n      dup5\n        /* \"#utility.yul\":255:271   */\n      add\n        /* \"#utility.yul\":252:277   */\n      gt\n        /* \"#utility.yul\":249:251   */\n      iszero\n      tag_246\n      jumpi\n        /* \"#utility.yul\":290:291   */\n      0x00\n        /* \"#utility.yul\":287:288   */\n      dup1\n        /* \"#utility.yul\":280:292   */\n      revert\n        /* \"#utility.yul\":249:251   */\n    tag_246:\n        /* \"#utility.yul\":303:344   */\n      tag_247\n        /* \"#utility.yul\":337:343   */\n      dup5\n        /* \"#utility.yul\":332:335   */\n      dup3\n        /* \"#utility.yul\":327:330   */\n      dup6\n        /* \"#utility.yul\":303:344   */\n      tag_248\n      jump\t// in\n    tag_247:\n        /* \"#utility.yul\":90:350   */\n      pop\n      swap4\n      swap3\n      pop\n      pop\n      pop\n      jump\t// out\n        /* \"#utility.yul\":356:495   */\n    tag_249:\n        /* \"#utility.yul\":402:407   */\n      0x00\n        /* \"#utility.yul\":440:446   */\n      dup2\n        /* \"#utility.yul\":427:447   */\n      calldataload\n        /* \"#utility.yul\":418:447   */\n      swap1\n      pop\n        /* \"#utility.yul\":456:489   */\n      tag_251\n        /* \"#utility.yul\":483:488   */\n      dup2\n        /* \"#utility.yul\":456:489   */\n      tag_252\n      jump\t// in\n    tag_251:\n        /* \"#utility.yul\":408:495   */\n      swap3\n      swap2\n      pop\n      pop\n      jump\t// out\n        /* \"#utility.yul\":501:656   */\n    tag_253:\n        /* \"#utility.yul\":555:560   */\n      0x00\n        /* \"#utility.yul\":593:599   */\n      dup2\n        /* \"#utility.yul\":580:600   */\n      calldataload\n        /* \"#utility.yul\":571:600   */\n      swap1\n      pop\n        /* \"#utility.yul\":609:650   */\n      tag_255\n        /* \"#utility.yul\":644:649   */\n      dup2\n        /* \"#utility.yul\":609:650   */\n      tag_256\n      jump\t// in\n    tag_255:\n        /* \"#utility.yul\":561:656   */\n      swap3\n      swap2\n      pop\n      pop\n      jump\t// out\n        /* \"#utility.yul\":662:821   */\n    tag_257:\n        /* \"#utility.yul\":727:732   */\n      0x00\n        /* \"#utility.yul\":758:764   */\n      dup2\n        /* \"#utility.yul\":752:765   */\n      mload\n        /* \"#utility.yul\":743:765   */\n      swap1\n      pop\n        /* \"#utility.yul\":774:815   */\n      tag_259\n        /* \"#utility.yul\":809:814   */\n      dup2\n        /* \"#utility.yul\":774:815   */\n      tag_256\n      jump\t// in\n    tag_259:\n        /* \"#utility.yul\":733:821   */\n      swap3\n      swap2\n      pop\n      pop\n      jump\t// out\n        /* \"#utility.yul\":827:964   */\n    tag_260:\n        /* \"#utility.yul\":881:886   */\n      0x00\n        /* \"#utility.yul\":912:918   */\n      dup2\n        /* \"#utility.yul\":906:919   */\n      mload\n        /* \"#utility.yul\":897:919   */\n      swap1\n      pop\n        /* \"#utility.yul\":928:958   */\n      tag_262\n        /* \"#utility.yul\":952:957   */\n      dup2\n        /* \"#utility.yul\":928:958   */\n      tag_263\n      jump\t// in\n    tag_262:\n        /* \"#utility.yul\":887:964   */\n      swap3\n      swap2\n      pop\n      pop\n      jump\t// out\n        /* \"#utility.yul\":983:1254   */\n    tag_264:\n        /* \"#utility.yul\":1038:1043   */\n      0x00\n        /* \"#utility.yul\":1087:1090   */\n      dup3\n        /* \"#utility.yul\":1080:1084   */\n      0x1f\n        /* \"#utility.yul\":1072:1078   */\n      dup4\n        /* \"#utility.yul\":1068:1085   */\n      add\n        /* \"#utility.yul\":1064:1091   */\n      slt\n        /* \"#utility.yul\":1054:1056   */\n      tag_266\n      jumpi\n        /* \"#utility.yul\":1105:1106   */\n      0x00\n        /* \"#utility.yul\":1102:1103   */\n      dup1\n        /* \"#utility.yul\":1095:1107   */\n      revert\n        /* \"#utility.yul\":1054:1056   */\n    tag_266:\n        /* \"#utility.yul\":1145:1151   */\n      dup2\n        /* \"#utility.yul\":1132:1152   */\n      calldataload\n        /* \"#utility.yul\":1170:1248   */\n      tag_267\n        /* \"#utility.yul\":1244:1247   */\n      dup5\n        /* \"#utility.yul\":1236:1242   */\n      dup3\n        /* \"#utility.yul\":1229:1233   */\n      0x20\n        /* \"#utility.yul\":1221:1227   */\n      dup7\n        /* \"#utility.yul\":1217:1234   */\n      add\n        /* \"#utility.yul\":1170:1248   */\n      tag_240\n      jump\t// in\n    tag_267:\n        /* \"#utility.yul\":1161:1248   */\n      swap2\n      pop\n        /* \"#utility.yul\":1044:1254   */\n      pop\n      swap3\n      swap2\n      pop\n      pop\n      jump\t// out\n        /* \"#utility.yul\":1301:2828   */\n    tag_268:\n        /* \"#utility.yul\":1379:1384   */\n      0x00\n        /* \"#utility.yul\":1423:1429   */\n      0x0100\n        /* \"#utility.yul\":1411:1420   */\n      dup3\n        /* \"#utility.yul\":1406:1409   */\n      dup5\n        /* \"#utility.yul\":1402:1421   */\n      sub\n        /* \"#utility.yul\":1398:1430   */\n      slt\n        /* \"#utility.yul\":1395:1397   */\n      iszero\n      tag_270\n      jumpi\n        /* \"#utility.yul\":1443:1444   */\n      0x00\n        /* \"#utility.yul\":1440:1441   */\n      dup1\n        /* \"#utility.yul\":1433:1445   */\n      revert\n        /* \"#utility.yul\":1395:1397   */\n    tag_270:\n        /* \"#utility.yul\":1465:1488   */\n      tag_271\n        /* \"#utility.yul\":1481:1487   */\n      0x0100\n        /* \"#utility.yul\":1465:1488   */\n      tag_245\n      jump\t// in\n    tag_271:\n        /* \"#utility.yul\":1456:1488   */\n      swap1\n      pop\n        /* \"#utility.yul\":1546:1547   */\n      0x00\n        /* \"#utility.yul\":1586:1635   */\n      tag_272\n        /* \"#utility.yul\":1631:1634   */\n      dup5\n        /* \"#utility.yul\":1622:1628   */\n      dup3\n        /* \"#utility.yul\":1611:1620   */\n      dup6\n        /* \"#utility.yul\":1607:1629   */\n      add\n        /* \"#utility.yul\":1586:1635   */\n      tag_273\n      jump\t// in\n    tag_272:\n        /* \"#utility.yul\":1579:1583   */\n      0x00\n        /* \"#utility.yul\":1572:1577   */\n      dup4\n        /* \"#utility.yul\":1568:1584   */\n      add\n        /* \"#utility.yul\":1561:1636   */\n      mstore\n        /* \"#utility.yul\":1498:1647   */\n      pop\n        /* \"#utility.yul\":1711:1713   */\n      0x20\n        /* \"#utility.yul\":1752:1801   */\n      tag_274\n        /* \"#utility.yul\":1797:1800   */\n      dup5\n        /* \"#utility.yul\":1788:1794   */\n      dup3\n        /* \"#utility.yul\":1777:1786   */\n      dup6\n        /* \"#utility.yul\":1773:1795   */\n      add\n        /* \"#utility.yul\":1752:1801   */\n      tag_249\n      jump\t// in\n    tag_274:\n        /* \"#utility.yul\":1745:1749   */\n      0x20\n        /* \"#utility.yul\":1738:1743   */\n      dup4\n        /* \"#utility.yul\":1734:1750   */\n      add\n        /* \"#utility.yul\":1727:1802   */\n      mstore\n        /* \"#utility.yul\":1657:1813   */\n      pop\n        /* \"#utility.yul\":1875:1877   */\n      0x40\n        /* \"#utility.yul\":1916:1965   */\n      tag_275\n        /* \"#utility.yul\":1961:1964   */\n      dup5\n        /* \"#utility.yul\":1952:1958   */\n      dup3\n        /* \"#utility.yul\":1941:1950   */\n      dup6\n        /* \"#utility.yul\":1937:1959   */\n      add\n        /* \"#utility.yul\":1916:1965   */\n      tag_249\n      jump\t// in\n    tag_275:\n        /* \"#utility.yul\":1909:1913   */\n      0x40\n        /* \"#utility.yul\":1902:1907   */\n      dup4\n        /* \"#utility.yul\":1898:1914   */\n      add\n        /* \"#utility.yul\":1891:1966   */\n      mstore\n        /* \"#utility.yul\":1823:1977   */\n      pop\n        /* \"#utility.yul\":2042:2044   */\n      0x60\n        /* \"#utility.yul\":2083:2131   */\n      tag_276\n        /* \"#utility.yul\":2127:2130   */\n      dup5\n        /* \"#utility.yul\":2118:2124   */\n      dup3\n        /* \"#utility.yul\":2107:2116   */\n      dup6\n        /* \"#utility.yul\":2103:2125   */\n      add\n        /* \"#utility.yul\":2083:2131   */\n      tag_277\n      jump\t// in\n    tag_276:\n        /* \"#utility.yul\":2076:2080   */\n      0x60\n        /* \"#utility.yul\":2069:2074   */\n      dup4\n        /* \"#utility.yul\":2065:2081   */\n      add\n        /* \"#utility.yul\":2058:2132   */\n      mstore\n        /* \"#utility.yul\":1987:2143   */\n      pop\n        /* \"#utility.yul\":2207:2210   */\n      0x80\n        /* \"#utility.yul\":2249:2297   */\n      tag_278\n        /* \"#utility.yul\":2293:2296   */\n      dup5\n        /* \"#utility.yul\":2284:2290   */\n      dup3\n        /* \"#utility.yul\":2273:2282   */\n      dup6\n        /* \"#utility.yul\":2269:2291   */\n      add\n        /* \"#utility.yul\":2249:2297   */\n      tag_277\n      jump\t// in\n    tag_278:\n        /* \"#utility.yul\":2242:2246   */\n      0x80\n        /* \"#utility.yul\":2235:2240   */\n      dup4\n        /* \"#utility.yul\":2231:2247   */\n      add\n        /* \"#utility.yul\":2224:2298   */\n      mstore\n        /* \"#utility.yul\":2153:2309   */\n      pop\n        /* \"#utility.yul\":2373:2376   */\n      0xa0\n        /* \"#utility.yul\":2415:2463   */\n      tag_279\n        /* \"#utility.yul\":2459:2462   */\n      dup5\n        /* \"#utility.yul\":2450:2456   */\n      dup3\n        /* \"#utility.yul\":2439:2448   */\n      dup6\n        /* \"#utility.yul\":2435:2457   */\n      add\n        /* \"#utility.yul\":2415:2463   */\n      tag_277\n      jump\t// in\n    tag_279:\n        /* \"#utility.yul\":2408:2412   */\n      0xa0\n        /* \"#utility.yul\":2401:2406   */\n      dup4\n        /* \"#utility.yul\":2397:2413   */\n      add\n        /* \"#utility.yul\":2390:2464   */\n      mstore\n        /* \"#utility.yul\":2319:2475   */\n      pop\n        /* \"#utility.yul\":2532:2535   */\n      0xc0\n        /* \"#utility.yul\":2574:2631   */\n      tag_280\n        /* \"#utility.yul\":2627:2630   */\n      dup5\n        /* \"#utility.yul\":2618:2624   */\n      dup3\n        /* \"#utility.yul\":2607:2616   */\n      dup6\n        /* \"#utility.yul\":2603:2625   */\n      add\n        /* \"#utility.yul\":2574:2631   */\n      tag_253\n      jump\t// in\n    tag_280:\n        /* \"#utility.yul\":2567:2571   */\n      0xc0\n        /* \"#utility.yul\":2560:2565   */\n      dup4\n        /* \"#utility.yul\":2556:2572   */\n      add\n        /* \"#utility.yul\":2549:2632   */\n      mstore\n        /* \"#utility.yul\":2485:2643   */\n      pop\n        /* \"#utility.yul\":2718:2721   */\n      0xe0\n        /* \"#utility.yul\":2760:2809   */\n      tag_281\n        /* \"#utility.yul\":2805:2808   */\n      dup5\n        /* \"#utility.yul\":2796:2802   */\n      dup3\n        /* \"#utility.yul\":2785:2794   */\n      dup6\n        /* \"#utility.yul\":2781:2803   */\n      add\n        /* \"#utility.yul\":2760:2809   */\n      tag_249\n      jump\t// in\n    tag_281:\n        /* \"#utility.yul\":2753:2757   */\n      0xe0\n        /* \"#utility.yul\":2746:2751   */\n      dup4\n        /* \"#utility.yul\":2742:2758   */\n      add\n        /* \"#utility.yul\":2735:2810   */\n      mstore\n        /* \"#utility.yul\":2653:2821   */\n      pop\n        /* \"#utility.yul\":1385:2828   */\n      swap3\n      swap2\n      pop\n      pop\n      jump\t// out\n        /* \"#utility.yul\":2834:2971   */\n    tag_277:\n        /* \"#utility.yul\":2879:2884   */\n      0x00\n        /* \"#utility.yul\":2917:2923   */\n      dup2\n        /* \"#utility.yul\":2904:2924   */\n      calldataload\n        /* \"#utility.yul\":2895:2924   */\n      swap1\n      pop\n        /* \"#utility.yul\":2933:2965   */\n      tag_283\n        /* \"#utility.yul\":2959:2964   */\n      dup2\n        /* \"#utility.yul\":2933:2965   */\n      tag_284\n      jump\t// in\n    tag_283:\n        /* \"#utility.yul\":2885:2971   */\n      swap3\n      swap2\n      pop\n      pop\n      jump\t// out\n        /* \"#utility.yul\":2977:3116   */\n    tag_273:\n        /* \"#utility.yul\":3023:3028   */\n      0x00\n        /* \"#utility.yul\":3061:3067   */\n      dup2\n        /* \"#utility.yul\":3048:3068   */\n      calldataload\n        /* \"#utility.yul\":3039:3068   */\n      swap1\n      pop\n        /* \"#utility.yul\":3077:3110   */\n      tag_286\n        /* \"#utility.yul\":3104:3109   */\n      dup2\n        /* \"#utility.yul\":3077:3110   */\n      tag_287\n      jump\t// in\n    tag_286:\n        /* \"#utility.yul\":3029:3116   */\n      swap3\n      swap2\n      pop\n      pop\n      jump\t// out\n        /* \"#utility.yul\":3122:3265   */\n    tag_288:\n        /* \"#utility.yul\":3179:3184   */\n      0x00\n        /* \"#utility.yul\":3210:3216   */\n      dup2\n        /* \"#utility.yul\":3204:3217   */\n      mload\n        /* \"#utility.yul\":3195:3217   */\n      swap1\n      pop\n        /* \"#utility.yul\":3226:3259   */\n      tag_290\n        /* \"#utility.yul\":3253:3258   */\n      dup2\n        /* \"#utility.yul\":3226:3259   */\n      tag_287\n      jump\t// in\n    tag_290:\n        /* \"#utility.yul\":3185:3265   */\n      swap3\n      swap2\n      pop\n      pop\n      jump\t// out\n        /* \"#utility.yul\":3271:3533   */\n    tag_41:\n        /* \"#utility.yul\":3330:3336   */\n      0x00\n        /* \"#utility.yul\":3379:3381   */\n      0x20\n        /* \"#utility.yul\":3367:3376   */\n      dup3\n        /* \"#utility.yul\":3358:3365   */\n      dup5\n        /* \"#utility.yul\":3354:3377   */\n      sub\n        /* \"#utility.yul\":3350:3382   */\n      slt\n        /* \"#utility.yul\":3347:3349   */\n      iszero\n      tag_292\n      jumpi\n        /* \"#utility.yul\":3395:3396   */\n      0x00\n        /* \"#utility.yul\":3392:3393   */\n      dup1\n        /* \"#utility.yul\":3385:3397   */\n      revert\n        /* \"#utility.yul\":3347:3349   */\n    tag_292:\n        /* \"#utility.yul\":3438:3439   */\n      0x00\n        /* \"#utility.yul\":3463:3516   */\n      tag_293\n        /* \"#utility.yul\":3508:3515   */\n      dup5\n        /* \"#utility.yul\":3499:3505   */\n      dup3\n        /* \"#utility.yul\":3488:3497   */\n      dup6\n        /* \"#utility.yul\":3484:3506   */\n      add\n        /* \"#utility.yul\":3463:3516   */\n      tag_249\n      jump\t// in\n    tag_293:\n        /* \"#utility.yul\":3453:3516   */\n      swap2\n      pop\n        /* \"#utility.yul\":3409:3526   */\n      pop\n        /* \"#utility.yul\":3337:3533   */\n      swap3\n      swap2\n      pop\n      pop\n      jump\t// out\n        /* \"#utility.yul\":3539:3839   */\n    tag_160:\n        /* \"#utility.yul\":3617:3623   */\n      0x00\n        /* \"#utility.yul\":3666:3668   */\n      0x20\n        /* \"#utility.yul\":3654:3663   */\n      dup3\n        /* \"#utility.yul\":3645:3652   */\n      dup5\n        /* \"#utility.yul\":3641:3664   */\n      sub\n        /* \"#utility.yul\":3637:3669   */\n      slt\n        /* \"#utility.yul\":3634:3636   */\n      iszero\n      tag_295\n      jumpi\n        /* \"#utility.yul\":3682:3683   */\n      0x00\n        /* \"#utility.yul\":3679:3680   */\n      dup1\n        /* \"#utility.yul\":3672:3684   */\n      revert\n        /* \"#utility.yul\":3634:3636   */\n    tag_295:\n        /* \"#utility.yul\":3725:3726   */\n      0x00\n        /* \"#utility.yul\":3750:3822   */\n      tag_296\n        /* \"#utility.yul\":3814:3821   */\n      dup5\n        /* \"#utility.yul\":3805:3811   */\n      dup3\n        /* \"#utility.yul\":3794:3803   */\n      dup6\n        /* \"#utility.yul\":3790:3812   */\n      add\n        /* \"#utility.yul\":3750:3822   */\n      tag_257\n      jump\t// in\n    tag_296:\n        /* \"#utility.yul\":3740:3822   */\n      swap2\n      pop\n        /* \"#utility.yul\":3696:3832   */\n      pop\n        /* \"#utility.yul\":3624:3839   */\n      swap3\n      swap2\n      pop\n      pop\n      jump\t// out\n        /* \"#utility.yul\":3845:4397   */\n    tag_66:\n        /* \"#utility.yul\":3922:3928   */\n      0x00\n        /* \"#utility.yul\":3930:3936   */\n      dup1\n        /* \"#utility.yul\":3938:3944   */\n      0x00\n        /* \"#utility.yul\":3987:3989   */\n      0x60\n        /* \"#utility.yul\":3975:3984   */\n      dup5\n        /* \"#utility.yul\":3966:3973   */\n      dup7\n        /* \"#utility.yul\":3962:3985   */\n      sub\n        /* \"#utility.yul\":3958:3990   */\n      slt\n        /* \"#utility.yul\":3955:3957   */\n      iszero\n      tag_298\n      jumpi\n        /* \"#utility.yul\":4003:4004   */\n      0x00\n        /* \"#utility.yul\":4000:4001   */\n      dup1\n        /* \"#utility.yul\":3993:4005   */\n      revert\n        /* \"#utility.yul\":3955:3957   */\n    tag_298:\n        /* \"#utility.yul\":4046:4047   */\n      0x00\n        /* \"#utility.yul\":4071:4124   */\n      tag_299\n        /* \"#utility.yul\":4116:4123   */\n      dup7\n        /* \"#utility.yul\":4107:4113   */\n      dup3\n        /* \"#utility.yul\":4096:4105   */\n      dup8\n        /* \"#utility.yul\":4092:4114   */\n      add\n        /* \"#utility.yul\":4071:4124   */\n      tag_249\n      jump\t// in\n    tag_299:\n        /* \"#utility.yul\":4061:4124   */\n      swap4\n      pop\n        /* \"#utility.yul\":4017:4134   */\n      pop\n        /* \"#utility.yul\":4173:4175   */\n      0x20\n        /* \"#utility.yul\":4199:4252   */\n      tag_300\n        /* \"#utility.yul\":4244:4251   */\n      dup7\n        /* \"#utility.yul\":4235:4241   */\n      dup3\n        /* \"#utility.yul\":4224:4233   */\n      dup8\n        /* \"#utility.yul\":4220:4242   */\n      add\n        /* \"#utility.yul\":4199:4252   */\n      tag_249\n      jump\t// in\n    tag_300:\n        /* \"#utility.yul\":4189:4252   */\n      swap3\n      pop\n        /* \"#utility.yul\":4144:4262   */\n      pop\n        /* \"#utility.yul\":4301:4303   */\n      0x40\n        /* \"#utility.yul\":4327:4380   */\n      tag_301\n        /* \"#utility.yul\":4372:4379   */\n      dup7\n        /* \"#utility.yul\":4363:4369   */\n      dup3\n        /* \"#utility.yul\":4352:4361   */\n      dup8\n        /* \"#utility.yul\":4348:4370   */\n      add\n        /* \"#utility.yul\":4327:4380   */\n      tag_273\n      jump\t// in\n    tag_301:\n        /* \"#utility.yul\":4317:4380   */\n      swap2\n      pop\n        /* \"#utility.yul\":4272:4390   */\n      pop\n        /* \"#utility.yul\":3945:4397   */\n      swap3\n      pop\n      swap3\n      pop\n      swap3\n      jump\t// out\n        /* \"#utility.yul\":4403:4808   */\n    tag_36:\n        /* \"#utility.yul\":4470:4476   */\n      0x00\n        /* \"#utility.yul\":4478:4484   */\n      dup1\n        /* \"#utility.yul\":4527:4529   */\n      0x40\n        /* \"#utility.yul\":4515:4524   */\n      dup4\n        /* \"#utility.yul\":4506:4513   */\n      dup6\n        /* \"#utility.yul\":4502:4525   */\n      sub\n        /* \"#utility.yul\":4498:4530   */\n      slt\n        /* \"#utility.yul\":4495:4497   */\n      iszero\n      tag_303\n      jumpi\n        /* \"#utility.yul\":4543:4544   */\n      0x00\n        /* \"#utility.yul\":4540:4541   */\n      dup1\n        /* \"#utility.yul\":4533:4545   */\n      revert\n        /* \"#utility.yul\":4495:4497   */\n    tag_303:\n        /* \"#utility.yul\":4586:4587   */\n      0x00\n        /* \"#utility.yul\":4611:4664   */\n      tag_304\n        /* \"#utility.yul\":4656:4663   */\n      dup6\n        /* \"#utility.yul\":4647:4653   */\n      dup3\n        /* \"#utility.yul\":4636:4645   */\n      dup7\n        /* \"#utility.yul\":4632:4654   */\n      add\n        /* \"#utility.yul\":4611:4664   */\n      tag_249\n      jump\t// in\n    tag_304:\n        /* \"#utility.yul\":4601:4664   */\n      swap3\n      pop\n        /* \"#utility.yul\":4557:4674   */\n      pop\n        /* \"#utility.yul\":4713:4715   */\n      0x20\n        /* \"#utility.yul\":4739:4791   */\n      tag_305\n        /* \"#utility.yul\":4783:4790   */\n      dup6\n        /* \"#utility.yul\":4774:4780   */\n      dup3\n        /* \"#utility.yul\":4763:4772   */\n      dup7\n        /* \"#utility.yul\":4759:4781   */\n      add\n        /* \"#utility.yul\":4739:4791   */\n      tag_277\n      jump\t// in\n    tag_305:\n        /* \"#utility.yul\":4729:4791   */\n      swap2\n      pop\n        /* \"#utility.yul\":4684:4801   */\n      pop\n        /* \"#utility.yul\":4485:4808   */\n      swap3\n      pop\n      swap3\n      swap1\n      pop\n      jump\t// out\n        /* \"#utility.yul\":4814:5092   */\n    tag_167:\n        /* \"#utility.yul\":4881:4887   */\n      0x00\n        /* \"#utility.yul\":4930:4932   */\n      0x20\n        /* \"#utility.yul\":4918:4927   */\n      dup3\n        /* \"#utility.yul\":4909:4916   */\n      dup5\n        /* \"#utility.yul\":4905:4928   */\n      sub\n        /* \"#utility.yul\":4901:4933   */\n      slt\n        /* \"#utility.yul\":4898:4900   */\n      iszero\n      tag_307\n      jumpi\n        /* \"#utility.yul\":4946:4947   */\n      0x00\n        /* \"#utility.yul\":4943:4944   */\n      dup1\n        /* \"#utility.yul\":4936:4948   */\n      revert\n        /* \"#utility.yul\":4898:4900   */\n    tag_307:\n        /* \"#utility.yul\":4989:4990   */\n      0x00\n        /* \"#utility.yul\":5014:5075   */\n      tag_308\n        /* \"#utility.yul\":5067:5074   */\n      dup5\n        /* \"#utility.yul\":5058:5064   */\n      dup3\n        /* \"#utility.yul\":5047:5056   */\n      dup6\n        /* \"#utility.yul\":5043:5065   */\n      add\n        /* \"#utility.yul\":5014:5075   */\n      tag_260\n      jump\t// in\n    tag_308:\n        /* \"#utility.yul\":5004:5075   */\n      swap2\n      pop\n        /* \"#utility.yul\":4960:5085   */\n      pop\n        /* \"#utility.yul\":4888:5092   */\n      swap3\n      swap2\n      pop\n      pop\n      jump\t// out\n        /* \"#utility.yul\":5098:5419   */\n    tag_50:\n        /* \"#utility.yul\":5186:5192   */\n      0x00\n        /* \"#utility.yul\":5235:5238   */\n      0x0100\n        /* \"#utility.yul\":5223:5232   */\n      dup3\n        /* \"#utility.yul\":5214:5221   */\n      dup5\n        /* \"#utility.yul\":5210:5233   */\n      sub\n        /* \"#utility.yul\":5206:5239   */\n      slt\n        /* \"#utility.yul\":5203:5205   */\n      iszero\n      tag_310\n      jumpi\n        /* \"#utility.yul\":5252:5253   */\n      0x00\n        /* \"#utility.yul\":5249:5250   */\n      dup1\n        /* \"#utility.yul\":5242:5254   */\n      revert\n        /* \"#utility.yul\":5203:5205   */\n    tag_310:\n        /* \"#utility.yul\":5295:5296   */\n      0x00\n        /* \"#utility.yul\":5320:5402   */\n      tag_311\n        /* \"#utility.yul\":5394:5401   */\n      dup5\n        /* \"#utility.yul\":5385:5391   */\n      dup3\n        /* \"#utility.yul\":5374:5383   */\n      dup6\n        /* \"#utility.yul\":5370:5392   */\n      add\n        /* \"#utility.yul\":5320:5402   */\n      tag_268\n      jump\t// in\n    tag_311:\n        /* \"#utility.yul\":5310:5402   */\n      swap2\n      pop\n        /* \"#utility.yul\":5266:5412   */\n      pop\n        /* \"#utility.yul\":5193:5419   */\n      swap3\n      swap2\n      pop\n      pop\n      jump\t// out\n        /* \"#utility.yul\":5425:5975   */\n    tag_29:\n        /* \"#utility.yul\":5501:5507   */\n      0x00\n        /* \"#utility.yul\":5509:5515   */\n      dup1\n        /* \"#utility.yul\":5517:5523   */\n      0x00\n        /* \"#utility.yul\":5566:5568   */\n      0x60\n        /* \"#utility.yul\":5554:5563   */\n      dup5\n        /* \"#utility.yul\":5545:5552   */\n      dup7\n        /* \"#utility.yul\":5541:5564   */\n      sub\n        /* \"#utility.yul\":5537:5569   */\n      slt\n        /* \"#utility.yul\":5534:5536   */\n      iszero\n      tag_313\n      jumpi\n        /* \"#utility.yul\":5582:5583   */\n      0x00\n        /* \"#utility.yul\":5579:5580   */\n      dup1\n        /* \"#utility.yul\":5572:5584   */\n      revert\n        /* \"#utility.yul\":5534:5536   */\n    tag_313:\n        /* \"#utility.yul\":5625:5626   */\n      0x00\n        /* \"#utility.yul\":5650:5702   */\n      tag_314\n        /* \"#utility.yul\":5694:5701   */\n      dup7\n        /* \"#utility.yul\":5685:5691   */\n      dup3\n        /* \"#utility.yul\":5674:5683   */\n      dup8\n        /* \"#utility.yul\":5670:5692   */\n      add\n        /* \"#utility.yul\":5650:5702   */\n      tag_277\n      jump\t// in\n    tag_314:\n        /* \"#utility.yul\":5640:5702   */\n      swap4\n      pop\n        /* \"#utility.yul\":5596:5712   */\n      pop\n        /* \"#utility.yul\":5751:5753   */\n      0x20\n        /* \"#utility.yul\":5777:5830   */\n      tag_315\n        /* \"#utility.yul\":5822:5829   */\n      dup7\n        /* \"#utility.yul\":5813:5819   */\n      dup3\n        /* \"#utility.yul\":5802:5811   */\n      dup8\n        /* \"#utility.yul\":5798:5820   */\n      add\n        /* \"#utility.yul\":5777:5830   */\n      tag_249\n      jump\t// in\n    tag_315:\n        /* \"#utility.yul\":5767:5830   */\n      swap3\n      pop\n        /* \"#utility.yul\":5722:5840   */\n      pop\n        /* \"#utility.yul\":5879:5881   */\n      0x40\n        /* \"#utility.yul\":5905:5958   */\n      tag_316\n        /* \"#utility.yul\":5950:5957   */\n      dup7\n        /* \"#utility.yul\":5941:5947   */\n      dup3\n        /* \"#utility.yul\":5930:5939   */\n      dup8\n        /* \"#utility.yul\":5926:5948   */\n      add\n        /* \"#utility.yul\":5905:5958   */\n      tag_249\n      jump\t// in\n    tag_316:\n        /* \"#utility.yul\":5895:5958   */\n      swap2\n      pop\n        /* \"#utility.yul\":5850:5968   */\n      pop\n        /* \"#utility.yul\":5524:5975   */\n      swap3\n      pop\n      swap3\n      pop\n      swap3\n      jump\t// out\n        /* \"#utility.yul\":5981:6531   */\n    tag_24:\n        /* \"#utility.yul\":6057:6063   */\n      0x00\n        /* \"#utility.yul\":6065:6071   */\n      dup1\n        /* \"#utility.yul\":6073:6079   */\n      0x00\n        /* \"#utility.yul\":6122:6124   */\n      0x60\n        /* \"#utility.yul\":6110:6119   */\n      dup5\n        /* \"#utility.yul\":6101:6108   */\n      dup7\n        /* \"#utility.yul\":6097:6120   */\n      sub\n        /* \"#utility.yul\":6093:6125   */\n      slt\n        /* \"#utility.yul\":6090:6092   */\n      iszero\n      tag_318\n      jumpi\n        /* \"#utility.yul\":6138:6139   */\n      0x00\n        /* \"#utility.yul\":6135:6136   */\n      dup1\n        /* \"#utility.yul\":6128:6140   */\n      revert\n        /* \"#utility.yul\":6090:6092   */\n    tag_318:\n        /* \"#utility.yul\":6181:6182   */\n      0x00\n        /* \"#utility.yul\":6206:6258   */\n      tag_319\n        /* \"#utility.yul\":6250:6257   */\n      dup7\n        /* \"#utility.yul\":6241:6247   */\n      dup3\n        /* \"#utility.yul\":6230:6239   */\n      dup8\n        /* \"#utility.yul\":6226:6248   */\n      add\n        /* \"#utility.yul\":6206:6258   */\n      tag_277\n      jump\t// in\n    tag_319:\n        /* \"#utility.yul\":6196:6258   */\n      swap4\n      pop\n        /* \"#utility.yul\":6152:6268   */\n      pop\n        /* \"#utility.yul\":6307:6309   */\n      0x20\n        /* \"#utility.yul\":6333:6386   */\n      tag_320\n        /* \"#utility.yul\":6378:6385   */\n      dup7\n        /* \"#utility.yul\":6369:6375   */\n      dup3\n        /* \"#utility.yul\":6358:6367   */\n      dup8\n        /* \"#utility.yul\":6354:6376   */\n      add\n        /* \"#utility.yul\":6333:6386   */\n      tag_249\n      jump\t// in\n    tag_320:\n        /* \"#utility.yul\":6323:6386   */\n      swap3\n      pop\n        /* \"#utility.yul\":6278:6396   */\n      pop\n        /* \"#utility.yul\":6435:6437   */\n      0x40\n        /* \"#utility.yul\":6461:6514   */\n      tag_321\n        /* \"#utility.yul\":6506:6513   */\n      dup7\n        /* \"#utility.yul\":6497:6503   */\n      dup3\n        /* \"#utility.yul\":6486:6495   */\n      dup8\n        /* \"#utility.yul\":6482:6504   */\n      add\n        /* \"#utility.yul\":6461:6514   */\n      tag_273\n      jump\t// in\n    tag_321:\n        /* \"#utility.yul\":6451:6514   */\n      swap2\n      pop\n        /* \"#utility.yul\":6406:6524   */\n      pop\n        /* \"#utility.yul\":6080:6531   */\n      swap3\n      pop\n      swap3\n      pop\n      swap3\n      jump\t// out\n        /* \"#utility.yul\":6537:7747   */\n    tag_62:\n        /* \"#utility.yul\":6658:6664   */\n      0x00\n        /* \"#utility.yul\":6666:6672   */\n      dup1\n        /* \"#utility.yul\":6674:6680   */\n      0x00\n        /* \"#utility.yul\":6682:6688   */\n      dup1\n        /* \"#utility.yul\":6690:6696   */\n      0x00\n        /* \"#utility.yul\":6698:6704   */\n      dup1\n        /* \"#utility.yul\":6747:6750   */\n      0xc0\n        /* \"#utility.yul\":6735:6744   */\n      dup8\n        /* \"#utility.yul\":6726:6733   */\n      dup10\n        /* \"#utility.yul\":6722:6745   */\n      sub\n        /* \"#utility.yul\":6718:6751   */\n      slt\n        /* \"#utility.yul\":6715:6717   */\n      iszero\n      tag_323\n      jumpi\n        /* \"#utility.yul\":6764:6765   */\n      0x00\n        /* \"#utility.yul\":6761:6762   */\n      dup1\n        /* \"#utility.yul\":6754:6766   */\n      revert\n        /* \"#utility.yul\":6715:6717   */\n    tag_323:\n        /* \"#utility.yul\":6807:6808   */\n      0x00\n        /* \"#utility.yul\":6832:6884   */\n      tag_324\n        /* \"#utility.yul\":6876:6883   */\n      dup10\n        /* \"#utility.yul\":6867:6873   */\n      dup3\n        /* \"#utility.yul\":6856:6865   */\n      dup11\n        /* \"#utility.yul\":6852:6874   */\n      add\n        /* \"#utility.yul\":6832:6884   */\n      tag_277\n      jump\t// in\n    tag_324:\n        /* \"#utility.yul\":6822:6884   */\n      swap7\n      pop\n        /* \"#utility.yul\":6778:6894   */\n      pop\n        /* \"#utility.yul\":6961:6963   */\n      0x20\n        /* \"#utility.yul\":6950:6959   */\n      dup8\n        /* \"#utility.yul\":6946:6964   */\n      add\n        /* \"#utility.yul\":6933:6965   */\n      calldataload\n        /* \"#utility.yul\":6992:7010   */\n      0xffffffffffffffff\n        /* \"#utility.yul\":6984:6990   */\n      dup2\n        /* \"#utility.yul\":6981:7011   */\n      gt\n        /* \"#utility.yul\":6978:6980   */\n      iszero\n      tag_325\n      jumpi\n        /* \"#utility.yul\":7024:7025   */\n      0x00\n        /* \"#utility.yul\":7021:7022   */\n      dup1\n        /* \"#utility.yul\":7014:7026   */\n      revert\n        /* \"#utility.yul\":6978:6980   */\n    tag_325:\n        /* \"#utility.yul\":7052:7114   */\n      tag_326\n        /* \"#utility.yul\":7106:7113   */\n      dup10\n        /* \"#utility.yul\":7097:7103   */\n      dup3\n        /* \"#utility.yul\":7086:7095   */\n      dup11\n        /* \"#utility.yul\":7082:7104   */\n      add\n        /* \"#utility.yul\":7052:7114   */\n      tag_264\n      jump\t// in\n    tag_326:\n        /* \"#utility.yul\":7042:7114   */\n      swap6\n      pop\n        /* \"#utility.yul\":6904:7124   */\n      pop\n        /* \"#utility.yul\":7163:7165   */\n      0x40\n        /* \"#utility.yul\":7189:7242   */\n      tag_327\n        /* \"#utility.yul\":7234:7241   */\n      dup10\n        /* \"#utility.yul\":7225:7231   */\n      dup3\n        /* \"#utility.yul\":7214:7223   */\n      dup11\n        /* \"#utility.yul\":7210:7232   */\n      add\n        /* \"#utility.yul\":7189:7242   */\n      tag_273\n      jump\t// in\n    tag_327:\n        /* \"#utility.yul\":7179:7242   */\n      swap5\n      pop\n        /* \"#utility.yul\":7134:7252   */\n      pop\n        /* \"#utility.yul\":7291:7293   */\n      0x60\n        /* \"#utility.yul\":7317:7370   */\n      tag_328\n        /* \"#utility.yul\":7362:7369   */\n      dup10\n        /* \"#utility.yul\":7353:7359   */\n      dup3\n        /* \"#utility.yul\":7342:7351   */\n      dup11\n        /* \"#utility.yul\":7338:7360   */\n      add\n        /* \"#utility.yul\":7317:7370   */\n      tag_249\n      jump\t// in\n    tag_328:\n        /* \"#utility.yul\":7307:7370   */\n      swap4\n      pop\n        /* \"#utility.yul\":7262:7380   */\n      pop\n        /* \"#utility.yul\":7419:7422   */\n      0x80\n        /* \"#utility.yul\":7446:7499   */\n      tag_329\n        /* \"#utility.yul\":7491:7498   */\n      dup10\n        /* \"#utility.yul\":7482:7488   */\n      dup3\n        /* \"#utility.yul\":7471:7480   */\n      dup11\n        /* \"#utility.yul\":7467:7489   */\n      add\n        /* \"#utility.yul\":7446:7499   */\n      tag_273\n      jump\t// in\n    tag_329:\n        /* \"#utility.yul\":7436:7499   */\n      swap3\n      pop\n        /* \"#utility.yul\":7390:7509   */\n      pop\n        /* \"#utility.yul\":7576:7579   */\n      0xa0\n        /* \"#utility.yul\":7565:7574   */\n      dup8\n        /* \"#utility.yul\":7561:7580   */\n      add\n        /* \"#utility.yul\":7548:7581   */\n      calldataload\n        /* \"#utility.yul\":7608:7626   */\n      0xffffffffffffffff\n        /* \"#utility.yul\":7600:7606   */\n      dup2\n        /* \"#utility.yul\":7597:7627   */\n      gt\n        /* \"#utility.yul\":7594:7596   */\n      iszero\n      tag_330\n      jumpi\n        /* \"#utility.yul\":7640:7641   */\n      0x00\n        /* \"#utility.yul\":7637:7638   */\n      dup1\n        /* \"#utility.yul\":7630:7642   */\n      revert\n        /* \"#utility.yul\":7594:7596   */\n    tag_330:\n        /* \"#utility.yul\":7668:7730   */\n      tag_331\n        /* \"#utility.yul\":7722:7729   */\n      dup10\n        /* \"#utility.yul\":7713:7719   */\n      dup3\n        /* \"#utility.yul\":7702:7711   */\n      dup11\n        /* \"#utility.yul\":7698:7720   */\n      add\n        /* \"#utility.yul\":7668:7730   */\n      tag_264\n      jump\t// in\n    tag_331:\n        /* \"#utility.yul\":7658:7730   */\n      swap2\n      pop\n        /* \"#utility.yul\":7519:7740   */\n      pop\n        /* \"#utility.yul\":6705:7747   */\n      swap3\n      swap6\n      pop\n      swap3\n      swap6\n      pop\n      swap3\n      swap6\n      jump\t// out\n        /* \"#utility.yul\":7753:8015   */\n    tag_19:\n        /* \"#utility.yul\":7812:7818   */\n      0x00\n        /* \"#utility.yul\":7861:7863   */\n      0x20\n        /* \"#utility.yul\":7849:7858   */\n      dup3\n        /* \"#utility.yul\":7840:7847   */\n      dup5\n        /* \"#utility.yul\":7836:7859   */\n      sub\n        /* \"#utility.yul\":7832:7864   */\n      slt\n        /* \"#utility.yul\":7829:7831   */\n      iszero\n      tag_333\n      jumpi\n        /* \"#utility.yul\":7877:7878   */\n      0x00\n        /* \"#utility.yul\":7874:7875   */\n      dup1\n        /* \"#utility.yul\":7867:7879   */\n      revert\n        /* \"#utility.yul\":7829:7831   */\n    tag_333:\n        /* \"#utility.yul\":7920:7921   */\n      0x00\n        /* \"#utility.yul\":7945:7998   */\n      tag_334\n        /* \"#utility.yul\":7990:7997   */\n      dup5\n        /* \"#utility.yul\":7981:7987   */\n      dup3\n        /* \"#utility.yul\":7970:7979   */\n      dup6\n        /* \"#utility.yul\":7966:7988   */\n      add\n        /* \"#utility.yul\":7945:7998   */\n      tag_273\n      jump\t// in\n    tag_334:\n        /* \"#utility.yul\":7935:7998   */\n      swap2\n      pop\n        /* \"#utility.yul\":7891:8008   */\n      pop\n        /* \"#utility.yul\":7819:8015   */\n      swap3\n      swap2\n      pop\n      pop\n      jump\t// out\n        /* \"#utility.yul\":8021:8305   */\n    tag_197:\n        /* \"#utility.yul\":8091:8097   */\n      0x00\n        /* \"#utility.yul\":8140:8142   */\n      0x20\n        /* \"#utility.yul\":8128:8137   */\n      dup3\n        /* \"#utility.yul\":8119:8126   */\n      dup5\n        /* \"#utility.yul\":8115:8138   */\n      sub\n        /* \"#utility.yul\":8111:8143   */\n      slt\n        /* \"#utility.yul\":8108:8110   */\n      iszero\n      tag_336\n      jumpi\n        /* \"#utility.yul\":8156:8157   */\n      0x00\n        /* \"#utility.yul\":8153:8154   */\n      dup1\n        /* \"#utility.yul\":8146:8158   */\n      revert\n        /* \"#utility.yul\":8108:8110   */\n    tag_336:\n        /* \"#utility.yul\":8199:8200   */\n      0x00\n        /* \"#utility.yul\":8224:8288   */\n      tag_337\n        /* \"#utility.yul\":8280:8287   */\n      dup5\n        /* \"#utility.yul\":8271:8277   */\n      dup3\n        /* \"#utility.yul\":8260:8269   */\n      dup6\n        /* \"#utility.yul\":8256:8278   */\n      add\n        /* \"#utility.yul\":8224:8288   */\n      tag_288\n      jump\t// in\n    tag_337:\n        /* \"#utility.yul\":8214:8288   */\n      swap2\n      pop\n        /* \"#utility.yul\":8170:8298   */\n      pop\n        /* \"#utility.yul\":8098:8305   */\n      swap3\n      swap2\n      pop\n      pop\n      jump\t// out\n        /* \"#utility.yul\":8311:8751   */\n    tag_88:\n        /* \"#utility.yul\":8390:8396   */\n      0x00\n        /* \"#utility.yul\":8398:8404   */\n      dup1\n        /* \"#utility.yul\":8447:8449   */\n      0x40\n        /* \"#utility.yul\":8435:8444   */\n      dup4\n        /* \"#utility.yul\":8426:8433   */\n      dup6\n        /* \"#utility.yul\":8422:8445   */\n      sub\n        /* \"#utility.yul\":8418:8450   */\n      slt\n        /* \"#utility.yul\":8415:8417   */\n      iszero\n      tag_339\n      jumpi\n        /* \"#utility.yul\":8463:8464   */\n      0x00\n        /* \"#utility.yul\":8460:8461   */\n      dup1\n        /* \"#utility.yul\":8453:8465   */\n      revert\n        /* \"#utility.yul\":8415:8417   */\n    tag_339:\n        /* \"#utility.yul\":8506:8507   */\n      0x00\n        /* \"#utility.yul\":8531:8595   */\n      tag_340\n        /* \"#utility.yul\":8587:8594   */\n      dup6\n        /* \"#utility.yul\":8578:8584   */\n      dup3\n        /* \"#utility.yul\":8567:8576   */\n      dup7\n        /* \"#utility.yul\":8563:8585   */\n      add\n        /* \"#utility.yul\":8531:8595   */\n      tag_288\n      jump\t// in\n    tag_340:\n        /* \"#utility.yul\":8521:8595   */\n      swap3\n      pop\n        /* \"#utility.yul\":8477:8605   */\n      pop\n        /* \"#utility.yul\":8644:8646   */\n      0x20\n        /* \"#utility.yul\":8670:8734   */\n      tag_341\n        /* \"#utility.yul\":8726:8733   */\n      dup6\n        /* \"#utility.yul\":8717:8723   */\n      dup3\n        /* \"#utility.yul\":8706:8715   */\n      dup7\n        /* \"#utility.yul\":8702:8724   */\n      add\n        /* \"#utility.yul\":8670:8734   */\n      tag_288\n      jump\t// in\n    tag_341:\n        /* \"#utility.yul\":8660:8734   */\n      swap2\n      pop\n        /* \"#utility.yul\":8615:8744   */\n      pop\n        /* \"#utility.yul\":8405:8751   */\n      swap3\n      pop\n      swap3\n      swap1\n      pop\n      jump\t// out\n        /* \"#utility.yul\":8757:8904   */\n    tag_342:\n        /* \"#utility.yul\":8852:8897   */\n      tag_344\n        /* \"#utility.yul\":8891:8896   */\n      dup2\n        /* \"#utility.yul\":8852:8897   */\n      tag_345\n      jump\t// in\n    tag_344:\n        /* \"#utility.yul\":8847:8850   */\n      dup3\n        /* \"#utility.yul\":8840:8898   */\n      mstore\n        /* \"#utility.yul\":8830:8904   */\n      pop\n      pop\n      jump\t// out\n        /* \"#utility.yul\":8910:9052   */\n    tag_346:\n        /* \"#utility.yul\":9013:9045   */\n      tag_348\n        /* \"#utility.yul\":9039:9044   */\n      dup2\n        /* \"#utility.yul\":9013:9045   */\n      tag_349\n      jump\t// in\n    tag_348:\n        /* \"#utility.yul\":9008:9011   */\n      dup3\n        /* \"#utility.yul\":9001:9046   */\n      mstore\n        /* \"#utility.yul\":8991:9052   */\n      pop\n      pop\n      jump\t// out\n        /* \"#utility.yul\":9058:9176   */\n    tag_350:\n        /* \"#utility.yul\":9145:9169   */\n      tag_352\n        /* \"#utility.yul\":9163:9168   */\n      dup2\n        /* \"#utility.yul\":9145:9169   */\n      tag_353\n      jump\t// in\n    tag_352:\n        /* \"#utility.yul\":9140:9143   */\n      dup3\n        /* \"#utility.yul\":9133:9170   */\n      mstore\n        /* \"#utility.yul\":9123:9176   */\n      pop\n      pop\n      jump\t// out\n        /* \"#utility.yul\":9182:9339   */\n    tag_354:\n        /* \"#utility.yul\":9287:9332   */\n      tag_356\n        /* \"#utility.yul\":9307:9331   */\n      tag_357\n        /* \"#utility.yul\":9325:9330   */\n      dup3\n        /* \"#utility.yul\":9307:9331   */\n      tag_353\n      jump\t// in\n    tag_357:\n        /* \"#utility.yul\":9287:9332   */\n      tag_358\n      jump\t// in\n    tag_356:\n        /* \"#utility.yul\":9282:9285   */\n      dup3\n        /* \"#utility.yul\":9275:9333   */\n      mstore\n        /* \"#utility.yul\":9265:9339   */\n      pop\n      pop\n      jump\t// out\n        /* \"#utility.yul\":9345:9454   */\n    tag_359:\n        /* \"#utility.yul\":9426:9447   */\n      tag_361\n        /* \"#utility.yul\":9441:9446   */\n      dup2\n        /* \"#utility.yul\":9426:9447   */\n      tag_362\n      jump\t// in\n    tag_361:\n        /* \"#utility.yul\":9421:9424   */\n      dup3\n        /* \"#utility.yul\":9414:9448   */\n      mstore\n        /* \"#utility.yul\":9404:9454   */\n      pop\n      pop\n      jump\t// out\n        /* \"#utility.yul\":9460:9800   */\n    tag_363:\n        /* \"#utility.yul\":9536:9539   */\n      0x00\n        /* \"#utility.yul\":9564:9602   */\n      tag_365\n        /* \"#utility.yul\":9596:9601   */\n      dup3\n        /* \"#utility.yul\":9564:9602   */\n      tag_366\n      jump\t// in\n    tag_365:\n        /* \"#utility.yul\":9618:9678   */\n      tag_367\n        /* \"#utility.yul\":9671:9677   */\n      dup2\n        /* \"#utility.yul\":9666:9669   */\n      dup6\n        /* \"#utility.yul\":9618:9678   */\n      tag_368\n      jump\t// in\n    tag_367:\n        /* \"#utility.yul\":9611:9678   */\n      swap4\n      pop\n        /* \"#utility.yul\":9687:9739   */\n      tag_369\n        /* \"#utility.yul\":9732:9738   */\n      dup2\n        /* \"#utility.yul\":9727:9730   */\n      dup6\n        /* \"#utility.yul\":9720:9724   */\n      0x20\n        /* \"#utility.yul\":9713:9718   */\n      dup7\n        /* \"#utility.yul\":9709:9725   */\n      add\n        /* \"#utility.yul\":9687:9739   */\n      tag_370\n      jump\t// in\n    tag_369:\n        /* \"#utility.yul\":9764:9793   */\n      tag_371\n        /* \"#utility.yul\":9786:9792   */\n      dup2\n        /* \"#utility.yul\":9764:9793   */\n      tag_372\n      jump\t// in\n    tag_371:\n        /* \"#utility.yul\":9759:9762   */\n      dup5\n        /* \"#utility.yul\":9755:9794   */\n      add\n        /* \"#utility.yul\":9748:9794   */\n      swap2\n      pop\n        /* \"#utility.yul\":9540:9800   */\n      pop\n      swap3\n      swap2\n      pop\n      pop\n      jump\t// out\n        /* \"#utility.yul\":9806:10166   */\n    tag_373:\n        /* \"#utility.yul\":9892:9895   */\n      0x00\n        /* \"#utility.yul\":9920:9958   */\n      tag_375\n        /* \"#utility.yul\":9952:9957   */\n      dup3\n        /* \"#utility.yul\":9920:9958   */\n      tag_366\n      jump\t// in\n    tag_375:\n        /* \"#utility.yul\":9974:10044   */\n      tag_376\n        /* \"#utility.yul\":10037:10043   */\n      dup2\n        /* \"#utility.yul\":10032:10035   */\n      dup6\n        /* \"#utility.yul\":9974:10044   */\n      tag_377\n      jump\t// in\n    tag_376:\n        /* \"#utility.yul\":9967:10044   */\n      swap4\n      pop\n        /* \"#utility.yul\":10053:10105   */\n      tag_378\n        /* \"#utility.yul\":10098:10104   */\n      dup2\n        /* \"#utility.yul\":10093:10096   */\n      dup6\n        /* \"#utility.yul\":10086:10090   */\n      0x20\n        /* \"#utility.yul\":10079:10084   */\n      dup7\n        /* \"#utility.yul\":10075:10091   */\n      add\n        /* \"#utility.yul\":10053:10105   */\n      tag_370\n      jump\t// in\n    tag_378:\n        /* \"#utility.yul\":10130:10159   */\n      tag_379\n        /* \"#utility.yul\":10152:10158   */\n      dup2\n        /* \"#utility.yul\":10130:10159   */\n      tag_372\n      jump\t// in\n    tag_379:\n        /* \"#utility.yul\":10125:10128   */\n      dup5\n        /* \"#utility.yul\":10121:10160   */\n      add\n        /* \"#utility.yul\":10114:10160   */\n      swap2\n      pop\n        /* \"#utility.yul\":9896:10166   */\n      pop\n      swap3\n      swap2\n      pop\n      pop\n      jump\t// out\n        /* \"#utility.yul\":10172:10545   */\n    tag_380:\n        /* \"#utility.yul\":10276:10279   */\n      0x00\n        /* \"#utility.yul\":10304:10342   */\n      tag_382\n        /* \"#utility.yul\":10336:10341   */\n      dup3\n        /* \"#utility.yul\":10304:10342   */\n      tag_366\n      jump\t// in\n    tag_382:\n        /* \"#utility.yul\":10358:10446   */\n      tag_383\n        /* \"#utility.yul\":10439:10445   */\n      dup2\n        /* \"#utility.yul\":10434:10437   */\n      dup6\n        /* \"#utility.yul\":10358:10446   */\n      tag_384\n      jump\t// in\n    tag_383:\n        /* \"#utility.yul\":10351:10446   */\n      swap4\n      pop\n        /* \"#utility.yul\":10455:10507   */\n      tag_385\n        /* \"#utility.yul\":10500:10506   */\n      dup2\n        /* \"#utility.yul\":10495:10498   */\n      dup6\n        /* \"#utility.yul\":10488:10492   */\n      0x20\n        /* \"#utility.yul\":10481:10486   */\n      dup7\n        /* \"#utility.yul\":10477:10493   */\n      add\n        /* \"#utility.yul\":10455:10507   */\n      tag_370\n      jump\t// in\n    tag_385:\n        /* \"#utility.yul\":10532:10538   */\n      dup1\n        /* \"#utility.yul\":10527:10530   */\n      dup5\n        /* \"#utility.yul\":10523:10539   */\n      add\n        /* \"#utility.yul\":10516:10539   */\n      swap2\n      pop\n        /* \"#utility.yul\":10280:10545   */\n      pop\n      swap3\n      swap2\n      pop\n      pop\n      jump\t// out\n        /* \"#utility.yul\":10551:10694   */\n    tag_386:\n        /* \"#utility.yul\":10644:10687   */\n      tag_388\n        /* \"#utility.yul\":10681:10686   */\n      dup2\n        /* \"#utility.yul\":10644:10687   */\n      tag_389\n      jump\t// in\n    tag_388:\n        /* \"#utility.yul\":10639:10642   */\n      dup3\n        /* \"#utility.yul\":10632:10688   */\n      mstore\n        /* \"#utility.yul\":10622:10694   */\n      pop\n      pop\n      jump\t// out\n        /* \"#utility.yul\":10700:11064   */\n    tag_390:\n        /* \"#utility.yul\":10788:10791   */\n      0x00\n        /* \"#utility.yul\":10816:10855   */\n      tag_392\n        /* \"#utility.yul\":10849:10854   */\n      dup3\n        /* \"#utility.yul\":10816:10855   */\n      tag_393\n      jump\t// in\n    tag_392:\n        /* \"#utility.yul\":10871:10942   */\n      tag_394\n        /* \"#utility.yul\":10935:10941   */\n      dup2\n        /* \"#utility.yul\":10930:10933   */\n      dup6\n        /* \"#utility.yul\":10871:10942   */\n      tag_395\n      jump\t// in\n    tag_394:\n        /* \"#utility.yul\":10864:10942   */\n      swap4\n      pop\n        /* \"#utility.yul\":10951:11003   */\n      tag_396\n        /* \"#utility.yul\":10996:11002   */\n      dup2\n        /* \"#utility.yul\":10991:10994   */\n      dup6\n        /* \"#utility.yul\":10984:10988   */\n      0x20\n        /* \"#utility.yul\":10977:10982   */\n      dup7\n        /* \"#utility.yul\":10973:10989   */\n      add\n        /* \"#utility.yul\":10951:11003   */\n      tag_370\n      jump\t// in\n    tag_396:\n        /* \"#utility.yul\":11028:11057   */\n      tag_397\n        /* \"#utility.yul\":11050:11056   */\n      dup2\n        /* \"#utility.yul\":11028:11057   */\n      tag_372\n      jump\t// in\n    tag_397:\n        /* \"#utility.yul\":11023:11026   */\n      dup5\n        /* \"#utility.yul\":11019:11058   */\n      add\n        /* \"#utility.yul\":11012:11058   */\n      swap2\n      pop\n        /* \"#utility.yul\":10792:11064   */\n      pop\n      swap3\n      swap2\n      pop\n      pop\n      jump\t// out\n        /* \"#utility.yul\":11070:11436   */\n    tag_398:\n        /* \"#utility.yul\":11212:11215   */\n      0x00\n        /* \"#utility.yul\":11233:11300   */\n      tag_400\n        /* \"#utility.yul\":11297:11299   */\n      0x22\n        /* \"#utility.yul\":11292:11295   */\n      dup4\n        /* \"#utility.yul\":11233:11300   */\n      tag_395\n      jump\t// in\n    tag_400:\n        /* \"#utility.yul\":11226:11300   */\n      swap2\n      pop\n        /* \"#utility.yul\":11309:11402   */\n      tag_401\n        /* \"#utility.yul\":11398:11401   */\n      dup3\n        /* \"#utility.yul\":11309:11402   */\n      tag_402\n      jump\t// in\n    tag_401:\n        /* \"#utility.yul\":11427:11429   */\n      0x40\n        /* \"#utility.yul\":11422:11425   */\n      dup3\n        /* \"#utility.yul\":11418:11430   */\n      add\n        /* \"#utility.yul\":11411:11430   */\n      swap1\n      pop\n        /* \"#utility.yul\":11216:11436   */\n      swap2\n      swap1\n      pop\n      jump\t// out\n        /* \"#utility.yul\":11442:11805   */\n    tag_403:\n        /* \"#utility.yul\":11583:11586   */\n      0x00\n        /* \"#utility.yul\":11604:11669   */\n      tag_405\n        /* \"#utility.yul\":11667:11668   */\n      0x02\n        /* \"#utility.yul\":11662:11665   */\n      dup4\n        /* \"#utility.yul\":11604:11669   */\n      tag_377\n      jump\t// in\n    tag_405:\n        /* \"#utility.yul\":11597:11669   */\n      swap2\n      pop\n        /* \"#utility.yul\":11678:11771   */\n      tag_406\n        /* \"#utility.yul\":11767:11770   */\n      dup3\n        /* \"#utility.yul\":11678:11771   */\n      tag_407\n      jump\t// in\n    tag_406:\n        /* \"#utility.yul\":11796:11798   */\n      0x20\n        /* \"#utility.yul\":11791:11794   */\n      dup3\n        /* \"#utility.yul\":11787:11799   */\n      add\n        /* \"#utility.yul\":11780:11799   */\n      swap1\n      pop\n        /* \"#utility.yul\":11587:11805   */\n      swap2\n      swap1\n      pop\n      jump\t// out\n        /* \"#utility.yul\":11811:12177   */\n    tag_408:\n        /* \"#utility.yul\":11953:11956   */\n      0x00\n        /* \"#utility.yul\":11974:12041   */\n      tag_410\n        /* \"#utility.yul\":12038:12040   */\n      0x26\n        /* \"#utility.yul\":12033:12036   */\n      dup4\n        /* \"#utility.yul\":11974:12041   */\n      tag_395\n      jump\t// in\n    tag_410:\n        /* \"#utility.yul\":11967:12041   */\n      swap2\n      pop\n        /* \"#utility.yul\":12050:12143   */\n      tag_411\n        /* \"#utility.yul\":12139:12142   */\n      dup3\n        /* \"#utility.yul\":12050:12143   */\n      tag_412\n      jump\t// in\n    tag_411:\n        /* \"#utility.yul\":12168:12170   */\n      0x40\n        /* \"#utility.yul\":12163:12166   */\n      dup3\n        /* \"#utility.yul\":12159:12171   */\n      add\n        /* \"#utility.yul\":12152:12171   */\n      swap1\n      pop\n        /* \"#utility.yul\":11957:12177   */\n      swap2\n      swap1\n      pop\n      jump\t// out\n        /* \"#utility.yul\":12183:12548   */\n    tag_413:\n        /* \"#utility.yul\":12325:12328   */\n      0x00\n        /* \"#utility.yul\":12346:12412   */\n      tag_415\n        /* \"#utility.yul\":12410:12411   */\n      0x08\n        /* \"#utility.yul\":12405:12408   */\n      dup4\n        /* \"#utility.yul\":12346:12412   */\n      tag_395\n      jump\t// in\n    tag_415:\n        /* \"#utility.yul\":12339:12412   */\n      swap2\n      pop\n        /* \"#utility.yul\":12421:12514   */\n      tag_416\n        /* \"#utility.yul\":12510:12513   */\n      dup3\n        /* \"#utility.yul\":12421:12514   */\n      tag_417\n      jump\t// in\n    tag_416:\n        /* \"#utility.yul\":12539:12541   */\n      0x20\n        /* \"#utility.yul\":12534:12537   */\n      dup3\n        /* \"#utility.yul\":12530:12542   */\n      add\n        /* \"#utility.yul\":12523:12542   */\n      swap1\n      pop\n        /* \"#utility.yul\":12329:12548   */\n      swap2\n      swap1\n      pop\n      jump\t// out\n        /* \"#utility.yul\":12554:12920   */\n    tag_418:\n        /* \"#utility.yul\":12696:12699   */\n      0x00\n        /* \"#utility.yul\":12717:12784   */\n      tag_420\n        /* \"#utility.yul\":12781:12783   */\n      0x1d\n        /* \"#utility.yul\":12776:12779   */\n      dup4\n        /* \"#utility.yul\":12717:12784   */\n      tag_395\n      jump\t// in\n    tag_420:\n        /* \"#utility.yul\":12710:12784   */\n      swap2\n      pop\n        /* \"#utility.yul\":12793:12886   */\n      tag_421\n        /* \"#utility.yul\":12882:12885   */\n      dup3\n        /* \"#utility.yul\":12793:12886   */\n      tag_422\n      jump\t// in\n    tag_421:\n        /* \"#utility.yul\":12911:12913   */\n      0x20\n        /* \"#utility.yul\":12906:12909   */\n      dup3\n        /* \"#utility.yul\":12902:12914   */\n      add\n        /* \"#utility.yul\":12895:12914   */\n      swap1\n      pop\n        /* \"#utility.yul\":12700:12920   */\n      swap2\n      swap1\n      pop\n      jump\t// out\n        /* \"#utility.yul\":12926:13292   */\n    tag_423:\n        /* \"#utility.yul\":13068:13071   */\n      0x00\n        /* \"#utility.yul\":13089:13156   */\n      tag_425\n        /* \"#utility.yul\":13153:13155   */\n      0x2a\n        /* \"#utility.yul\":13148:13151   */\n      dup4\n        /* \"#utility.yul\":13089:13156   */\n      tag_395\n      jump\t// in\n    tag_425:\n        /* \"#utility.yul\":13082:13156   */\n      swap2\n      pop\n        /* \"#utility.yul\":13165:13258   */\n      tag_426\n        /* \"#utility.yul\":13254:13257   */\n      dup3\n        /* \"#utility.yul\":13165:13258   */\n      tag_427\n      jump\t// in\n    tag_426:\n        /* \"#utility.yul\":13283:13285   */\n      0x40\n        /* \"#utility.yul\":13278:13281   */\n      dup3\n        /* \"#utility.yul\":13274:13286   */\n      add\n        /* \"#utility.yul\":13267:13286   */\n      swap1\n      pop\n        /* \"#utility.yul\":13072:13292   */\n      swap2\n      swap1\n      pop\n      jump\t// out\n        /* \"#utility.yul\":13298:13664   */\n    tag_428:\n        /* \"#utility.yul\":13440:13443   */\n      0x00\n        /* \"#utility.yul\":13461:13528   */\n      tag_430\n        /* \"#utility.yul\":13525:13527   */\n      0x36\n        /* \"#utility.yul\":13520:13523   */\n      dup4\n        /* \"#utility.yul\":13461:13528   */\n      tag_395\n      jump\t// in\n    tag_430:\n        /* \"#utility.yul\":13454:13528   */\n      swap2\n      pop\n        /* \"#utility.yul\":13537:13630   */\n      tag_431\n        /* \"#utility.yul\":13626:13629   */\n      dup3\n        /* \"#utility.yul\":13537:13630   */\n      tag_432\n      jump\t// in\n    tag_431:\n        /* \"#utility.yul\":13655:13657   */\n      0x40\n        /* \"#utility.yul\":13650:13653   */\n      dup3\n        /* \"#utility.yul\":13646:13658   */\n      add\n        /* \"#utility.yul\":13639:13658   */\n      swap1\n      pop\n        /* \"#utility.yul\":13444:13664   */\n      swap2\n      swap1\n      pop\n      jump\t// out\n        /* \"#utility.yul\":13742:14549   */\n    tag_433:\n        /* \"#utility.yul\":13861:13864   */\n      0x00\n        /* \"#utility.yul\":13897:13901   */\n      0x60\n        /* \"#utility.yul\":13892:13895   */\n      dup4\n        /* \"#utility.yul\":13888:13902   */\n      add\n        /* \"#utility.yul\":13993:13997   */\n      0x00\n        /* \"#utility.yul\":13986:13991   */\n      dup4\n        /* \"#utility.yul\":13982:13998   */\n      add\n        /* \"#utility.yul\":13976:13999   */\n      mload\n        /* \"#utility.yul\":14012:14075   */\n      tag_435\n        /* \"#utility.yul\":14069:14073   */\n      0x00\n        /* \"#utility.yul\":14064:14067   */\n      dup7\n        /* \"#utility.yul\":14060:14074   */\n      add\n        /* \"#utility.yul\":14046:14058   */\n      dup3\n        /* \"#utility.yul\":14012:14075   */\n      tag_436\n      jump\t// in\n    tag_435:\n        /* \"#utility.yul\":13912:14085   */\n      pop\n        /* \"#utility.yul\":14178:14182   */\n      0x20\n        /* \"#utility.yul\":14171:14176   */\n      dup4\n        /* \"#utility.yul\":14167:14183   */\n      add\n        /* \"#utility.yul\":14161:14184   */\n      mload\n        /* \"#utility.yul\":14197:14260   */\n      tag_437\n        /* \"#utility.yul\":14254:14258   */\n      0x20\n        /* \"#utility.yul\":14249:14252   */\n      dup7\n        /* \"#utility.yul\":14245:14259   */\n      add\n        /* \"#utility.yul\":14231:14243   */\n      dup3\n        /* \"#utility.yul\":14197:14260   */\n      tag_436\n      jump\t// in\n    tag_437:\n        /* \"#utility.yul\":14095:14270   */\n      pop\n        /* \"#utility.yul\":14361:14365   */\n      0x40\n        /* \"#utility.yul\":14354:14359   */\n      dup4\n        /* \"#utility.yul\":14350:14366   */\n      add\n        /* \"#utility.yul\":14344:14367   */\n      mload\n        /* \"#utility.yul\":14414:14417   */\n      dup5\n        /* \"#utility.yul\":14408:14412   */\n      dup3\n        /* \"#utility.yul\":14404:14418   */\n      sub\n        /* \"#utility.yul\":14397:14401   */\n      0x40\n        /* \"#utility.yul\":14392:14395   */\n      dup7\n        /* \"#utility.yul\":14388:14402   */\n      add\n        /* \"#utility.yul\":14381:14419   */\n      mstore\n        /* \"#utility.yul\":14440:14511   */\n      tag_438\n        /* \"#utility.yul\":14506:14510   */\n      dup3\n        /* \"#utility.yul\":14492:14504   */\n      dup3\n        /* \"#utility.yul\":14440:14511   */\n      tag_363\n      jump\t// in\n    tag_438:\n        /* \"#utility.yul\":14432:14511   */\n      swap2\n      pop\n        /* \"#utility.yul\":14280:14522   */\n      pop\n        /* \"#utility.yul\":14539:14543   */\n      dup1\n        /* \"#utility.yul\":14532:14543   */\n      swap2\n      pop\n        /* \"#utility.yul\":13866:14549   */\n      pop\n      swap3\n      swap2\n      pop\n      pop\n      jump\t// out\n        /* \"#utility.yul\":14555:14670   */\n    tag_439:\n        /* \"#utility.yul\":14640:14663   */\n      tag_441\n        /* \"#utility.yul\":14657:14662   */\n      dup2\n        /* \"#utility.yul\":14640:14663   */\n      tag_442\n      jump\t// in\n    tag_441:\n        /* \"#utility.yul\":14635:14638   */\n      dup3\n        /* \"#utility.yul\":14628:14664   */\n      mstore\n        /* \"#utility.yul\":14618:14670   */\n      pop\n      pop\n      jump\t// out\n        /* \"#utility.yul\":14676:14805   */\n    tag_443:\n        /* \"#utility.yul\":14762:14798   */\n      tag_445\n        /* \"#utility.yul\":14792:14797   */\n      dup2\n        /* \"#utility.yul\":14762:14798   */\n      tag_446\n      jump\t// in\n    tag_445:\n        /* \"#utility.yul\":14757:14760   */\n      dup3\n        /* \"#utility.yul\":14750:14799   */\n      mstore\n        /* \"#utility.yul\":14740:14805   */\n      pop\n      pop\n      jump\t// out\n        /* \"#utility.yul\":14811:14919   */\n    tag_436:\n        /* \"#utility.yul\":14888:14912   */\n      tag_448\n        /* \"#utility.yul\":14906:14911   */\n      dup2\n        /* \"#utility.yul\":14888:14912   */\n      tag_449\n      jump\t// in\n    tag_448:\n        /* \"#utility.yul\":14883:14886   */\n      dup3\n        /* \"#utility.yul\":14876:14913   */\n      mstore\n        /* \"#utility.yul\":14866:14919   */\n      pop\n      pop\n      jump\t// out\n        /* \"#utility.yul\":14925:15043   */\n    tag_450:\n        /* \"#utility.yul\":15012:15036   */\n      tag_452\n        /* \"#utility.yul\":15030:15035   */\n      dup2\n        /* \"#utility.yul\":15012:15036   */\n      tag_449\n      jump\t// in\n    tag_452:\n        /* \"#utility.yul\":15007:15010   */\n      dup3\n        /* \"#utility.yul\":15000:15037   */\n      mstore\n        /* \"#utility.yul\":14990:15043   */\n      pop\n      pop\n      jump\t// out\n        /* \"#utility.yul\":15049:15305   */\n    tag_81:\n        /* \"#utility.yul\":15161:15164   */\n      0x00\n        /* \"#utility.yul\":15176:15251   */\n      tag_454\n        /* \"#utility.yul\":15247:15250   */\n      dup3\n        /* \"#utility.yul\":15238:15244   */\n      dup5\n        /* \"#utility.yul\":15176:15251   */\n      tag_354\n      jump\t// in\n    tag_454:\n        /* \"#utility.yul\":15276:15278   */\n      0x14\n        /* \"#utility.yul\":15271:15274   */\n      dup3\n        /* \"#utility.yul\":15267:15279   */\n      add\n        /* \"#utility.yul\":15260:15279   */\n      swap2\n      pop\n        /* \"#utility.yul\":15296:15299   */\n      dup2\n        /* \"#utility.yul\":15289:15299   */\n      swap1\n      pop\n        /* \"#utility.yul\":15165:15305   */\n      swap3\n      swap2\n      pop\n      pop\n      jump\t// out\n        /* \"#utility.yul\":15311:15582   */\n    tag_225:\n        /* \"#utility.yul\":15441:15444   */\n      0x00\n        /* \"#utility.yul\":15463:15556   */\n      tag_456\n        /* \"#utility.yul\":15552:15555   */\n      dup3\n        /* \"#utility.yul\":15543:15549   */\n      dup5\n        /* \"#utility.yul\":15463:15556   */\n      tag_380\n      jump\t// in\n    tag_456:\n        /* \"#utility.yul\":15456:15556   */\n      swap2\n      pop\n        /* \"#utility.yul\":15573:15576   */\n      dup2\n        /* \"#utility.yul\":15566:15576   */\n      swap1\n      pop\n        /* \"#utility.yul\":15445:15582   */\n      swap3\n      swap2\n      pop\n      pop\n      jump\t// out\n        /* \"#utility.yul\":15588:15810   */\n    tag_112:\n        /* \"#utility.yul\":15681:15685   */\n      0x00\n        /* \"#utility.yul\":15719:15721   */\n      0x20\n        /* \"#utility.yul\":15708:15717   */\n      dup3\n        /* \"#utility.yul\":15704:15722   */\n      add\n        /* \"#utility.yul\":15696:15722   */\n      swap1\n      pop\n        /* \"#utility.yul\":15732:15803   */\n      tag_458\n        /* \"#utility.yul\":15800:15801   */\n      0x00\n        /* \"#utility.yul\":15789:15798   */\n      dup4\n        /* \"#utility.yul\":15785:15802   */\n      add\n        /* \"#utility.yul\":15776:15782   */\n      dup5\n        /* \"#utility.yul\":15732:15803   */\n      tag_350\n      jump\t// in\n    tag_458:\n        /* \"#utility.yul\":15686:15810   */\n      swap3\n      swap2\n      pop\n      pop\n      jump\t// out\n        /* \"#utility.yul\":15816:16070   */\n    tag_139:\n        /* \"#utility.yul\":15925:15929   */\n      0x00\n        /* \"#utility.yul\":15963:15965   */\n      0x20\n        /* \"#utility.yul\":15952:15961   */\n      dup3\n        /* \"#utility.yul\":15948:15966   */\n      add\n        /* \"#utility.yul\":15940:15966   */\n      swap1\n      pop\n        /* \"#utility.yul\":15976:16063   */\n      tag_460\n        /* \"#utility.yul\":16060:16061   */\n      0x00\n        /* \"#utility.yul\":16049:16058   */\n      dup4\n        /* \"#utility.yul\":16045:16062   */\n      add\n        /* \"#utility.yul\":16036:16042   */\n      dup5\n        /* \"#utility.yul\":15976:16063   */\n      tag_346\n      jump\t// in\n    tag_460:\n        /* \"#utility.yul\":15930:16070   */\n      swap3\n      swap2\n      pop\n      pop\n      jump\t// out\n        /* \"#utility.yul\":16076:16408   */\n    tag_192:\n        /* \"#utility.yul\":16197:16201   */\n      0x00\n        /* \"#utility.yul\":16235:16237   */\n      0x40\n        /* \"#utility.yul\":16224:16233   */\n      dup3\n        /* \"#utility.yul\":16220:16238   */\n      add\n        /* \"#utility.yul\":16212:16238   */\n      swap1\n      pop\n        /* \"#utility.yul\":16248:16319   */\n      tag_462\n        /* \"#utility.yul\":16316:16317   */\n      0x00\n        /* \"#utility.yul\":16305:16314   */\n      dup4\n        /* \"#utility.yul\":16301:16318   */\n      add\n        /* \"#utility.yul\":16292:16298   */\n      dup6\n        /* \"#utility.yul\":16248:16319   */\n      tag_350\n      jump\t// in\n    tag_462:\n        /* \"#utility.yul\":16329:16401   */\n      tag_463\n        /* \"#utility.yul\":16397:16399   */\n      0x20\n        /* \"#utility.yul\":16386:16395   */\n      dup4\n        /* \"#utility.yul\":16382:16400   */\n      add\n        /* \"#utility.yul\":16373:16379   */\n      dup5\n        /* \"#utility.yul\":16329:16401   */\n      tag_350\n      jump\t// in\n    tag_463:\n        /* \"#utility.yul\":16202:16408   */\n      swap4\n      swap3\n      pop\n      pop\n      pop\n      jump\t// out\n        /* \"#utility.yul\":16414:16856   */\n    tag_187:\n        /* \"#utility.yul\":16563:16567   */\n      0x00\n        /* \"#utility.yul\":16601:16603   */\n      0x60\n        /* \"#utility.yul\":16590:16599   */\n      dup3\n        /* \"#utility.yul\":16586:16604   */\n      add\n        /* \"#utility.yul\":16578:16604   */\n      swap1\n      pop\n        /* \"#utility.yul\":16614:16685   */\n      tag_465\n        /* \"#utility.yul\":16682:16683   */\n      0x00\n        /* \"#utility.yul\":16671:16680   */\n      dup4\n        /* \"#utility.yul\":16667:16684   */\n      add\n        /* \"#utility.yul\":16658:16664   */\n      dup7\n        /* \"#utility.yul\":16614:16685   */\n      tag_350\n      jump\t// in\n    tag_465:\n        /* \"#utility.yul\":16695:16767   */\n      tag_466\n        /* \"#utility.yul\":16763:16765   */\n      0x20\n        /* \"#utility.yul\":16752:16761   */\n      dup4\n        /* \"#utility.yul\":16748:16766   */\n      add\n        /* \"#utility.yul\":16739:16745   */\n      dup6\n        /* \"#utility.yul\":16695:16767   */\n      tag_350\n      jump\t// in\n    tag_466:\n        /* \"#utility.yul\":16777:16849   */\n      tag_467\n        /* \"#utility.yul\":16845:16847   */\n      0x40\n        /* \"#utility.yul\":16834:16843   */\n      dup4\n        /* \"#utility.yul\":16830:16848   */\n      add\n        /* \"#utility.yul\":16821:16827   */\n      dup5\n        /* \"#utility.yul\":16777:16849   */\n      tag_450\n      jump\t// in\n    tag_467:\n        /* \"#utility.yul\":16568:16856   */\n      swap5\n      swap4\n      pop\n      pop\n      pop\n      pop\n      jump\t// out\n        /* \"#utility.yul\":16862:17190   */\n    tag_106:\n        /* \"#utility.yul\":16981:16985   */\n      0x00\n        /* \"#utility.yul\":17019:17021   */\n      0x40\n        /* \"#utility.yul\":17008:17017   */\n      dup3\n        /* \"#utility.yul\":17004:17022   */\n      add\n        /* \"#utility.yul\":16996:17022   */\n      swap1\n      pop\n        /* \"#utility.yul\":17032:17103   */\n      tag_469\n        /* \"#utility.yul\":17100:17101   */\n      0x00\n        /* \"#utility.yul\":17089:17098   */\n      dup4\n        /* \"#utility.yul\":17085:17102   */\n      add\n        /* \"#utility.yul\":17076:17082   */\n      dup6\n        /* \"#utility.yul\":17032:17103   */\n      tag_350\n      jump\t// in\n    tag_469:\n        /* \"#utility.yul\":17113:17183   */\n      tag_470\n        /* \"#utility.yul\":17179:17181   */\n      0x20\n        /* \"#utility.yul\":17168:17177   */\n      dup4\n        /* \"#utility.yul\":17164:17182   */\n      add\n        /* \"#utility.yul\":17155:17161   */\n      dup5\n        /* \"#utility.yul\":17113:17183   */\n      tag_439\n      jump\t// in\n    tag_470:\n        /* \"#utility.yul\":16986:17190   */\n      swap4\n      swap3\n      pop\n      pop\n      pop\n      jump\t// out\n        /* \"#utility.yul\":17196:17528   */\n    tag_162:\n        /* \"#utility.yul\":17317:17321   */\n      0x00\n        /* \"#utility.yul\":17355:17357   */\n      0x40\n        /* \"#utility.yul\":17344:17353   */\n      dup3\n        /* \"#utility.yul\":17340:17358   */\n      add\n        /* \"#utility.yul\":17332:17358   */\n      swap1\n      pop\n        /* \"#utility.yul\":17368:17439   */\n      tag_472\n        /* \"#utility.yul\":17436:17437   */\n      0x00\n        /* \"#utility.yul\":17425:17434   */\n      dup4\n        /* \"#utility.yul\":17421:17438   */\n      add\n        /* \"#utility.yul\":17412:17418   */\n      dup6\n        /* \"#utility.yul\":17368:17439   */\n      tag_350\n      jump\t// in\n    tag_472:\n        /* \"#utility.yul\":17449:17521   */\n      tag_473\n        /* \"#utility.yul\":17517:17519   */\n      0x20\n        /* \"#utility.yul\":17506:17515   */\n      dup4\n        /* \"#utility.yul\":17502:17520   */\n      add\n        /* \"#utility.yul\":17493:17499   */\n      dup5\n        /* \"#utility.yul\":17449:17521   */\n      tag_450\n      jump\t// in\n    tag_473:\n        /* \"#utility.yul\":17322:17528   */\n      swap4\n      swap3\n      pop\n      pop\n      pop\n      jump\t// out\n        /* \"#utility.yul\":17534:17744   */\n    tag_53:\n        /* \"#utility.yul\":17621:17625   */\n      0x00\n        /* \"#utility.yul\":17659:17661   */\n      0x20\n        /* \"#utility.yul\":17648:17657   */\n      dup3\n        /* \"#utility.yul\":17644:17662   */\n      add\n        /* \"#utility.yul\":17636:17662   */\n      swap1\n      pop\n        /* \"#utility.yul\":17672:17737   */\n      tag_475\n        /* \"#utility.yul\":17734:17735   */\n      0x00\n        /* \"#utility.yul\":17723:17732   */\n      dup4\n        /* \"#utility.yul\":17719:17736   */\n      add\n        /* \"#utility.yul\":17710:17716   */\n      dup5\n        /* \"#utility.yul\":17672:17737   */\n      tag_359\n      jump\t// in\n    tag_475:\n        /* \"#utility.yul\":17626:17744   */\n      swap3\n      swap2\n      pop\n      pop\n      jump\t// out\n        /* \"#utility.yul\":17750:18063   */\n    tag_238:\n        /* \"#utility.yul\":17863:17867   */\n      0x00\n        /* \"#utility.yul\":17901:17903   */\n      0x20\n        /* \"#utility.yul\":17890:17899   */\n      dup3\n        /* \"#utility.yul\":17886:17904   */\n      add\n        /* \"#utility.yul\":17878:17904   */\n      swap1\n      pop\n        /* \"#utility.yul\":17950:17959   */\n      dup2\n        /* \"#utility.yul\":17944:17948   */\n      dup2\n        /* \"#utility.yul\":17940:17960   */\n      sub\n        /* \"#utility.yul\":17936:17937   */\n      0x00\n        /* \"#utility.yul\":17925:17934   */\n      dup4\n        /* \"#utility.yul\":17921:17938   */\n      add\n        /* \"#utility.yul\":17914:17961   */\n      mstore\n        /* \"#utility.yul\":17978:18056   */\n      tag_477\n        /* \"#utility.yul\":18051:18055   */\n      dup2\n        /* \"#utility.yul\":18042:18048   */\n      dup5\n        /* \"#utility.yul\":17978:18056   */\n      tag_390\n      jump\t// in\n    tag_477:\n        /* \"#utility.yul\":17970:18056   */\n      swap1\n      pop\n        /* \"#utility.yul\":17868:18063   */\n      swap3\n      swap2\n      pop\n      pop\n      jump\t// out\n        /* \"#utility.yul\":18069:18488   */\n    tag_181:\n        /* \"#utility.yul\":18235:18239   */\n      0x00\n        /* \"#utility.yul\":18273:18275   */\n      0x20\n        /* \"#utility.yul\":18262:18271   */\n      dup3\n        /* \"#utility.yul\":18258:18276   */\n      add\n        /* \"#utility.yul\":18250:18276   */\n      swap1\n      pop\n        /* \"#utility.yul\":18322:18331   */\n      dup2\n        /* \"#utility.yul\":18316:18320   */\n      dup2\n        /* \"#utility.yul\":18312:18332   */\n      sub\n        /* \"#utility.yul\":18308:18309   */\n      0x00\n        /* \"#utility.yul\":18297:18306   */\n      dup4\n        /* \"#utility.yul\":18293:18310   */\n      add\n        /* \"#utility.yul\":18286:18333   */\n      mstore\n        /* \"#utility.yul\":18350:18481   */\n      tag_479\n        /* \"#utility.yul\":18476:18480   */\n      dup2\n        /* \"#utility.yul\":18350:18481   */\n      tag_398\n      jump\t// in\n    tag_479:\n        /* \"#utility.yul\":18342:18481   */\n      swap1\n      pop\n        /* \"#utility.yul\":18240:18488   */\n      swap2\n      swap1\n      pop\n      jump\t// out\n        /* \"#utility.yul\":18494:18913   */\n    tag_218:\n        /* \"#utility.yul\":18660:18664   */\n      0x00\n        /* \"#utility.yul\":18698:18700   */\n      0x20\n        /* \"#utility.yul\":18687:18696   */\n      dup3\n        /* \"#utility.yul\":18683:18701   */\n      add\n        /* \"#utility.yul\":18675:18701   */\n      swap1\n      pop\n        /* \"#utility.yul\":18747:18756   */\n      dup2\n        /* \"#utility.yul\":18741:18745   */\n      dup2\n        /* \"#utility.yul\":18737:18757   */\n      sub\n        /* \"#utility.yul\":18733:18734   */\n      0x00\n        /* \"#utility.yul\":18722:18731   */\n      dup4\n        /* \"#utility.yul\":18718:18735   */\n      add\n        /* \"#utility.yul\":18711:18758   */\n      mstore\n        /* \"#utility.yul\":18775:18906   */\n      tag_481\n        /* \"#utility.yul\":18901:18905   */\n      dup2\n        /* \"#utility.yul\":18775:18906   */\n      tag_408\n      jump\t// in\n    tag_481:\n        /* \"#utility.yul\":18767:18906   */\n      swap1\n      pop\n        /* \"#utility.yul\":18665:18913   */\n      swap2\n      swap1\n      pop\n      jump\t// out\n        /* \"#utility.yul\":18919:20014   */\n    tag_151:\n        /* \"#utility.yul\":19259:19263   */\n      0x00\n        /* \"#utility.yul\":19297:19300   */\n      0xe0\n        /* \"#utility.yul\":19286:19295   */\n      dup3\n        /* \"#utility.yul\":19282:19301   */\n      add\n        /* \"#utility.yul\":19274:19301   */\n      swap1\n      pop\n        /* \"#utility.yul\":19347:19356   */\n      dup2\n        /* \"#utility.yul\":19341:19345   */\n      dup2\n        /* \"#utility.yul\":19337:19357   */\n      sub\n        /* \"#utility.yul\":19333:19334   */\n      0x00\n        /* \"#utility.yul\":19322:19331   */\n      dup4\n        /* \"#utility.yul\":19318:19335   */\n      add\n        /* \"#utility.yul\":19311:19358   */\n      mstore\n        /* \"#utility.yul\":19375:19506   */\n      tag_483\n        /* \"#utility.yul\":19501:19505   */\n      dup2\n        /* \"#utility.yul\":19375:19506   */\n      tag_413\n      jump\t// in\n    tag_483:\n        /* \"#utility.yul\":19367:19506   */\n      swap1\n      pop\n        /* \"#utility.yul\":19516:19588   */\n      tag_484\n        /* \"#utility.yul\":19584:19586   */\n      0x20\n        /* \"#utility.yul\":19573:19582   */\n      dup4\n        /* \"#utility.yul\":19569:19587   */\n      add\n        /* \"#utility.yul\":19560:19566   */\n      dup10\n        /* \"#utility.yul\":19516:19588   */\n      tag_350\n      jump\t// in\n    tag_484:\n        /* \"#utility.yul\":19598:19670   */\n      tag_485\n        /* \"#utility.yul\":19666:19668   */\n      0x40\n        /* \"#utility.yul\":19655:19664   */\n      dup4\n        /* \"#utility.yul\":19651:19669   */\n      add\n        /* \"#utility.yul\":19642:19648   */\n      dup9\n        /* \"#utility.yul\":19598:19670   */\n      tag_350\n      jump\t// in\n    tag_485:\n        /* \"#utility.yul\":19680:19752   */\n      tag_486\n        /* \"#utility.yul\":19748:19750   */\n      0x60\n        /* \"#utility.yul\":19737:19746   */\n      dup4\n        /* \"#utility.yul\":19733:19751   */\n      add\n        /* \"#utility.yul\":19724:19730   */\n      dup8\n        /* \"#utility.yul\":19680:19752   */\n      tag_350\n      jump\t// in\n    tag_486:\n        /* \"#utility.yul\":19762:19843   */\n      tag_487\n        /* \"#utility.yul\":19838:19841   */\n      0x80\n        /* \"#utility.yul\":19827:19836   */\n      dup4\n        /* \"#utility.yul\":19823:19842   */\n      add\n        /* \"#utility.yul\":19814:19820   */\n      dup7\n        /* \"#utility.yul\":19762:19843   */\n      tag_342\n      jump\t// in\n    tag_487:\n        /* \"#utility.yul\":19853:19926   */\n      tag_488\n        /* \"#utility.yul\":19921:19924   */\n      0xa0\n        /* \"#utility.yul\":19910:19919   */\n      dup4\n        /* \"#utility.yul\":19906:19925   */\n      add\n        /* \"#utility.yul\":19897:19903   */\n      dup6\n        /* \"#utility.yul\":19853:19926   */\n      tag_450\n      jump\t// in\n    tag_488:\n        /* \"#utility.yul\":19936:20007   */\n      tag_489\n        /* \"#utility.yul\":20002:20005   */\n      0xc0\n        /* \"#utility.yul\":19991:20000   */\n      dup4\n        /* \"#utility.yul\":19987:20006   */\n      add\n        /* \"#utility.yul\":19978:19984   */\n      dup5\n        /* \"#utility.yul\":19936:20007   */\n      tag_439\n      jump\t// in\n    tag_489:\n        /* \"#utility.yul\":19264:20014   */\n      swap8\n      swap7\n      pop\n      pop\n      pop\n      pop\n      pop\n      pop\n      pop\n      jump\t// out\n        /* \"#utility.yul\":20020:20439   */\n    tag_223:\n        /* \"#utility.yul\":20186:20190   */\n      0x00\n        /* \"#utility.yul\":20224:20226   */\n      0x20\n        /* \"#utility.yul\":20213:20222   */\n      dup3\n        /* \"#utility.yul\":20209:20227   */\n      add\n        /* \"#utility.yul\":20201:20227   */\n      swap1\n      pop\n        /* \"#utility.yul\":20273:20282   */\n      dup2\n        /* \"#utility.yul\":20267:20271   */\n      dup2\n        /* \"#utility.yul\":20263:20283   */\n      sub\n        /* \"#utility.yul\":20259:20260   */\n      0x00\n        /* \"#utility.yul\":20248:20257   */\n      dup4\n        /* \"#utility.yul\":20244:20261   */\n      add\n        /* \"#utility.yul\":20237:20284   */\n      mstore\n        /* \"#utility.yul\":20301:20432   */\n      tag_491\n        /* \"#utility.yul\":20427:20431   */\n      dup2\n        /* \"#utility.yul\":20301:20432   */\n      tag_418\n      jump\t// in\n    tag_491:\n        /* \"#utility.yul\":20293:20432   */\n      swap1\n      pop\n        /* \"#utility.yul\":20191:20439   */\n      swap2\n      swap1\n      pop\n      jump\t// out\n        /* \"#utility.yul\":20445:20864   */\n    tag_211:\n        /* \"#utility.yul\":20611:20615   */\n      0x00\n        /* \"#utility.yul\":20649:20651   */\n      0x20\n        /* \"#utility.yul\":20638:20647   */\n      dup3\n        /* \"#utility.yul\":20634:20652   */\n      add\n        /* \"#utility.yul\":20626:20652   */\n      swap1\n      pop\n        /* \"#utility.yul\":20698:20707   */\n      dup2\n        /* \"#utility.yul\":20692:20696   */\n      dup2\n        /* \"#utility.yul\":20688:20708   */\n      sub\n        /* \"#utility.yul\":20684:20685   */\n      0x00\n        /* \"#utility.yul\":20673:20682   */\n      dup4\n        /* \"#utility.yul\":20669:20686   */\n      add\n        /* \"#utility.yul\":20662:20709   */\n      mstore\n        /* \"#utility.yul\":20726:20857   */\n      tag_493\n        /* \"#utility.yul\":20852:20856   */\n      dup2\n        /* \"#utility.yul\":20726:20857   */\n      tag_423\n      jump\t// in\n    tag_493:\n        /* \"#utility.yul\":20718:20857   */\n      swap1\n      pop\n        /* \"#utility.yul\":20616:20864   */\n      swap2\n      swap1\n      pop\n      jump\t// out\n        /* \"#utility.yul\":20870:21289   */\n    tag_200:\n        /* \"#utility.yul\":21036:21040   */\n      0x00\n        /* \"#utility.yul\":21074:21076   */\n      0x20\n        /* \"#utility.yul\":21063:21072   */\n      dup3\n        /* \"#utility.yul\":21059:21077   */\n      add\n        /* \"#utility.yul\":21051:21077   */\n      swap1\n      pop\n        /* \"#utility.yul\":21123:21132   */\n      dup2\n        /* \"#utility.yul\":21117:21121   */\n      dup2\n        /* \"#utility.yul\":21113:21133   */\n      sub\n        /* \"#utility.yul\":21109:21110   */\n      0x00\n        /* \"#utility.yul\":21098:21107   */\n      dup4\n        /* \"#utility.yul\":21094:21111   */\n      add\n        /* \"#utility.yul\":21087:21134   */\n      mstore\n        /* \"#utility.yul\":21151:21282   */\n      tag_495\n        /* \"#utility.yul\":21277:21281   */\n      dup2\n        /* \"#utility.yul\":21151:21282   */\n      tag_428\n      jump\t// in\n    tag_495:\n        /* \"#utility.yul\":21143:21282   */\n      swap1\n      pop\n        /* \"#utility.yul\":21041:21289   */\n      swap2\n      swap1\n      pop\n      jump\t// out\n        /* \"#utility.yul\":21295:21733   */\n    tag_78:\n        /* \"#utility.yul\":21442:21446   */\n      0x00\n        /* \"#utility.yul\":21480:21482   */\n      0x60\n        /* \"#utility.yul\":21469:21478   */\n      dup3\n        /* \"#utility.yul\":21465:21483   */\n      add\n        /* \"#utility.yul\":21457:21483   */\n      swap1\n      pop\n        /* \"#utility.yul\":21493:21562   */\n      tag_497\n        /* \"#utility.yul\":21559:21560   */\n      0x00\n        /* \"#utility.yul\":21548:21557   */\n      dup4\n        /* \"#utility.yul\":21544:21561   */\n      add\n        /* \"#utility.yul\":21535:21541   */\n      dup7\n        /* \"#utility.yul\":21493:21562   */\n      tag_439\n      jump\t// in\n    tag_497:\n        /* \"#utility.yul\":21572:21644   */\n      tag_498\n        /* \"#utility.yul\":21640:21642   */\n      0x20\n        /* \"#utility.yul\":21629:21638   */\n      dup4\n        /* \"#utility.yul\":21625:21643   */\n      add\n        /* \"#utility.yul\":21616:21622   */\n      dup6\n        /* \"#utility.yul\":21572:21644   */\n      tag_350\n      jump\t// in\n    tag_498:\n        /* \"#utility.yul\":21654:21726   */\n      tag_499\n        /* \"#utility.yul\":21722:21724   */\n      0x40\n        /* \"#utility.yul\":21711:21720   */\n      dup4\n        /* \"#utility.yul\":21707:21725   */\n      add\n        /* \"#utility.yul\":21698:21704   */\n      dup5\n        /* \"#utility.yul\":21654:21726   */\n      tag_450\n      jump\t// in\n    tag_499:\n        /* \"#utility.yul\":21447:21733   */\n      swap5\n      swap4\n      pop\n      pop\n      pop\n      pop\n      jump\t// out\n        /* \"#utility.yul\":21739:22844   */\n    tag_83:\n        /* \"#utility.yul\":22088:22092   */\n      0x00\n        /* \"#utility.yul\":22126:22129   */\n      0xa0\n        /* \"#utility.yul\":22115:22124   */\n      dup3\n        /* \"#utility.yul\":22111:22130   */\n      add\n        /* \"#utility.yul\":22103:22130   */\n      swap1\n      pop\n        /* \"#utility.yul\":22140:22209   */\n      tag_501\n        /* \"#utility.yul\":22206:22207   */\n      0x00\n        /* \"#utility.yul\":22195:22204   */\n      dup4\n        /* \"#utility.yul\":22191:22208   */\n      add\n        /* \"#utility.yul\":22182:22188   */\n      dup8\n        /* \"#utility.yul\":22140:22209   */\n      tag_439\n      jump\t// in\n    tag_501:\n        /* \"#utility.yul\":22219:22297   */\n      tag_502\n        /* \"#utility.yul\":22293:22295   */\n      0x20\n        /* \"#utility.yul\":22282:22291   */\n      dup4\n        /* \"#utility.yul\":22278:22296   */\n      add\n        /* \"#utility.yul\":22269:22275   */\n      dup7\n        /* \"#utility.yul\":22219:22297   */\n      tag_386\n      jump\t// in\n    tag_502:\n        /* \"#utility.yul\":22344:22353   */\n      dup2\n        /* \"#utility.yul\":22338:22342   */\n      dup2\n        /* \"#utility.yul\":22334:22354   */\n      sub\n        /* \"#utility.yul\":22329:22331   */\n      0x40\n        /* \"#utility.yul\":22318:22327   */\n      dup4\n        /* \"#utility.yul\":22314:22332   */\n      add\n        /* \"#utility.yul\":22307:22355   */\n      mstore\n        /* \"#utility.yul\":22372:22448   */\n      tag_503\n        /* \"#utility.yul\":22443:22447   */\n      dup2\n        /* \"#utility.yul\":22434:22440   */\n      dup6\n        /* \"#utility.yul\":22372:22448   */\n      tag_373\n      jump\t// in\n    tag_503:\n        /* \"#utility.yul\":22364:22448   */\n      swap1\n      pop\n        /* \"#utility.yul\":22495:22504   */\n      dup2\n        /* \"#utility.yul\":22489:22493   */\n      dup2\n        /* \"#utility.yul\":22485:22505   */\n      sub\n        /* \"#utility.yul\":22480:22482   */\n      0x60\n        /* \"#utility.yul\":22469:22478   */\n      dup4\n        /* \"#utility.yul\":22465:22483   */\n      add\n        /* \"#utility.yul\":22458:22506   */\n      mstore\n        /* \"#utility.yul\":22523:22653   */\n      tag_504\n        /* \"#utility.yul\":22648:22652   */\n      dup2\n        /* \"#utility.yul\":22523:22653   */\n      tag_403\n      jump\t// in\n    tag_504:\n        /* \"#utility.yul\":22515:22653   */\n      swap1\n      pop\n        /* \"#utility.yul\":22701:22710   */\n      dup2\n        /* \"#utility.yul\":22695:22699   */\n      dup2\n        /* \"#utility.yul\":22691:22711   */\n      sub\n        /* \"#utility.yul\":22685:22688   */\n      0x80\n        /* \"#utility.yul\":22674:22683   */\n      dup4\n        /* \"#utility.yul\":22670:22689   */\n      add\n        /* \"#utility.yul\":22663:22712   */\n      mstore\n        /* \"#utility.yul\":22729:22837   */\n      tag_505\n        /* \"#utility.yul\":22832:22836   */\n      dup2\n        /* \"#utility.yul\":22823:22829   */\n      dup5\n        /* \"#utility.yul\":22729:22837   */\n      tag_433\n      jump\t// in\n    tag_505:\n        /* \"#utility.yul\":22721:22837   */\n      swap1\n      pop\n        /* \"#utility.yul\":22093:22844   */\n      swap6\n      swap5\n      pop\n      pop\n      pop\n      pop\n      pop\n      jump\t// out\n        /* \"#utility.yul\":22850:24307   */\n    tag_146:\n        /* \"#utility.yul\":23265:23269   */\n      0x00\n        /* \"#utility.yul\":23303:23306   */\n      0x0120\n        /* \"#utility.yul\":23292:23301   */\n      dup3\n        /* \"#utility.yul\":23288:23307   */\n      add\n        /* \"#utility.yul\":23280:23307   */\n      swap1\n      pop\n        /* \"#utility.yul\":23317:23386   */\n      tag_507\n        /* \"#utility.yul\":23383:23384   */\n      0x00\n        /* \"#utility.yul\":23372:23381   */\n      dup4\n        /* \"#utility.yul\":23368:23385   */\n      add\n        /* \"#utility.yul\":23359:23365   */\n      dup13\n        /* \"#utility.yul\":23317:23386   */\n      tag_439\n      jump\t// in\n    tag_507:\n        /* \"#utility.yul\":23396:23467   */\n      tag_508\n        /* \"#utility.yul\":23463:23465   */\n      0x20\n        /* \"#utility.yul\":23452:23461   */\n      dup4\n        /* \"#utility.yul\":23448:23466   */\n      add\n        /* \"#utility.yul\":23439:23445   */\n      dup12\n        /* \"#utility.yul\":23396:23467   */\n      tag_443\n      jump\t// in\n    tag_508:\n        /* \"#utility.yul\":23477:23548   */\n      tag_509\n        /* \"#utility.yul\":23544:23546   */\n      0x40\n        /* \"#utility.yul\":23533:23542   */\n      dup4\n        /* \"#utility.yul\":23529:23547   */\n      add\n        /* \"#utility.yul\":23520:23526   */\n      dup11\n        /* \"#utility.yul\":23477:23548   */\n      tag_443\n      jump\t// in\n    tag_509:\n        /* \"#utility.yul\":23558:23646   */\n      tag_510\n        /* \"#utility.yul\":23642:23644   */\n      0x60\n        /* \"#utility.yul\":23631:23640   */\n      dup4\n        /* \"#utility.yul\":23627:23645   */\n      add\n        /* \"#utility.yul\":23618:23624   */\n      dup10\n        /* \"#utility.yul\":23558:23646   */\n      tag_346\n      jump\t// in\n    tag_510:\n        /* \"#utility.yul\":23656:23729   */\n      tag_511\n        /* \"#utility.yul\":23724:23727   */\n      0x80\n        /* \"#utility.yul\":23713:23722   */\n      dup4\n        /* \"#utility.yul\":23709:23728   */\n      add\n        /* \"#utility.yul\":23700:23706   */\n      dup9\n        /* \"#utility.yul\":23656:23729   */\n      tag_450\n      jump\t// in\n    tag_511:\n        /* \"#utility.yul\":23739:23812   */\n      tag_512\n        /* \"#utility.yul\":23807:23810   */\n      0xa0\n        /* \"#utility.yul\":23796:23805   */\n      dup4\n        /* \"#utility.yul\":23792:23811   */\n      add\n        /* \"#utility.yul\":23783:23789   */\n      dup8\n        /* \"#utility.yul\":23739:23812   */\n      tag_450\n      jump\t// in\n    tag_512:\n        /* \"#utility.yul\":23860:23869   */\n      dup2\n        /* \"#utility.yul\":23854:23858   */\n      dup2\n        /* \"#utility.yul\":23850:23870   */\n      sub\n        /* \"#utility.yul\":23844:23847   */\n      0xc0\n        /* \"#utility.yul\":23833:23842   */\n      dup4\n        /* \"#utility.yul\":23829:23848   */\n      add\n        /* \"#utility.yul\":23822:23871   */\n      mstore\n        /* \"#utility.yul\":23888:23996   */\n      tag_513\n        /* \"#utility.yul\":23991:23995   */\n      dup2\n        /* \"#utility.yul\":23982:23988   */\n      dup7\n        /* \"#utility.yul\":23888:23996   */\n      tag_433\n      jump\t// in\n    tag_513:\n        /* \"#utility.yul\":23880:23996   */\n      swap1\n      pop\n        /* \"#utility.yul\":24044:24053   */\n      dup2\n        /* \"#utility.yul\":24038:24042   */\n      dup2\n        /* \"#utility.yul\":24034:24054   */\n      sub\n        /* \"#utility.yul\":24028:24031   */\n      0xe0\n        /* \"#utility.yul\":24017:24026   */\n      dup4\n        /* \"#utility.yul\":24013:24032   */\n      add\n        /* \"#utility.yul\":24006:24055   */\n      mstore\n        /* \"#utility.yul\":24072:24148   */\n      tag_514\n        /* \"#utility.yul\":24143:24147   */\n      dup2\n        /* \"#utility.yul\":24134:24140   */\n      dup6\n        /* \"#utility.yul\":24072:24148   */\n      tag_373\n      jump\t// in\n    tag_514:\n        /* \"#utility.yul\":24064:24148   */\n      swap1\n      pop\n        /* \"#utility.yul\":24196:24205   */\n      dup2\n        /* \"#utility.yul\":24190:24194   */\n      dup2\n        /* \"#utility.yul\":24186:24206   */\n      sub\n        /* \"#utility.yul\":24180:24183   */\n      0x0100\n        /* \"#utility.yul\":24169:24178   */\n      dup4\n        /* \"#utility.yul\":24165:24184   */\n      add\n        /* \"#utility.yul\":24158:24207   */\n      mstore\n        /* \"#utility.yul\":24224:24300   */\n      tag_515\n        /* \"#utility.yul\":24295:24299   */\n      dup2\n        /* \"#utility.yul\":24286:24292   */\n      dup5\n        /* \"#utility.yul\":24224:24300   */\n      tag_373\n      jump\t// in\n    tag_515:\n        /* \"#utility.yul\":24216:24300   */\n      swap1\n      pop\n        /* \"#utility.yul\":23270:24307   */\n      swap11\n      swap10\n      pop\n      pop\n      pop\n      pop\n      pop\n      pop\n      pop\n      pop\n      pop\n      pop\n      jump\t// out\n        /* \"#utility.yul\":24313:24535   */\n    tag_32:\n        /* \"#utility.yul\":24406:24410   */\n      0x00\n        /* \"#utility.yul\":24444:24446   */\n      0x20\n        /* \"#utility.yul\":24433:24442   */\n      dup3\n        /* \"#utility.yul\":24429:24447   */\n      add\n        /* \"#utility.yul\":24421:24447   */\n      swap1\n      pop\n        /* \"#utility.yul\":24457:24528   */\n      tag_517\n        /* \"#utility.yul\":24525:24526   */\n      0x00\n        /* \"#utility.yul\":24514:24523   */\n      dup4\n        /* \"#utility.yul\":24510:24527   */\n      add\n        /* \"#utility.yul\":24501:24507   */\n      dup5\n        /* \"#utility.yul\":24457:24528   */\n      tag_450\n      jump\t// in\n    tag_517:\n        /* \"#utility.yul\":24411:24535   */\n      swap3\n      swap2\n      pop\n      pop\n      jump\t// out\n        /* \"#utility.yul\":24541:24670   */\n    tag_245:\n        /* \"#utility.yul\":24575:24581   */\n      0x00\n        /* \"#utility.yul\":24602:24622   */\n      tag_519\n      tag_520\n      jump\t// in\n    tag_519:\n        /* \"#utility.yul\":24592:24622   */\n      swap1\n      pop\n        /* \"#utility.yul\":24631:24664   */\n      tag_521\n        /* \"#utility.yul\":24659:24663   */\n      dup3\n        /* \"#utility.yul\":24651:24657   */\n      dup3\n        /* \"#utility.yul\":24631:24664   */\n      tag_522\n      jump\t// in\n    tag_521:\n        /* \"#utility.yul\":24582:24670   */\n      swap2\n      swap1\n      pop\n      jump\t// out\n        /* \"#utility.yul\":24676:24751   */\n    tag_520:\n        /* \"#utility.yul\":24709:24715   */\n      0x00\n        /* \"#utility.yul\":24742:24744   */\n      0x40\n        /* \"#utility.yul\":24736:24745   */\n      mload\n        /* \"#utility.yul\":24726:24745   */\n      swap1\n      pop\n        /* \"#utility.yul\":24716:24751   */\n      swap1\n      jump\t// out\n        /* \"#utility.yul\":24757:25064   */\n    tag_244:\n        /* \"#utility.yul\":24818:24822   */\n      0x00\n        /* \"#utility.yul\":24908:24926   */\n      0xffffffffffffffff\n        /* \"#utility.yul\":24900:24906   */\n      dup3\n        /* \"#utility.yul\":24897:24927   */\n      gt\n        /* \"#utility.yul\":24894:24896   */\n      iszero\n      tag_525\n      jumpi\n        /* \"#utility.yul\":24930:24948   */\n      tag_526\n      tag_527\n      jump\t// in\n    tag_526:\n        /* \"#utility.yul\":24894:24896   */\n    tag_525:\n        /* \"#utility.yul\":24968:24997   */\n      tag_528\n        /* \"#utility.yul\":24990:24996   */\n      dup3\n        /* \"#utility.yul\":24968:24997   */\n      tag_372\n      jump\t// in\n    tag_528:\n        /* \"#utility.yul\":24960:24997   */\n      swap1\n      pop\n        /* \"#utility.yul\":25052:25056   */\n      0x20\n        /* \"#utility.yul\":25046:25050   */\n      dup2\n        /* \"#utility.yul\":25042:25057   */\n      add\n        /* \"#utility.yul\":25034:25057   */\n      swap1\n      pop\n        /* \"#utility.yul\":24823:25064   */\n      swap2\n      swap1\n      pop\n      jump\t// out\n        /* \"#utility.yul\":25070:25168   */\n    tag_366:\n        /* \"#utility.yul\":25121:25127   */\n      0x00\n        /* \"#utility.yul\":25155:25160   */\n      dup2\n        /* \"#utility.yul\":25149:25161   */\n      mload\n        /* \"#utility.yul\":25139:25161   */\n      swap1\n      pop\n        /* \"#utility.yul\":25128:25168   */\n      swap2\n      swap1\n      pop\n      jump\t// out\n        /* \"#utility.yul\":25174:25273   */\n    tag_393:\n        /* \"#utility.yul\":25226:25232   */\n      0x00\n        /* \"#utility.yul\":25260:25265   */\n      dup2\n        /* \"#utility.yul\":25254:25266   */\n      mload\n        /* \"#utility.yul\":25244:25266   */\n      swap1\n      pop\n        /* \"#utility.yul\":25233:25273   */\n      swap2\n      swap1\n      pop\n      jump\t// out\n        /* \"#utility.yul\":25279:25437   */\n    tag_368:\n        /* \"#utility.yul\":25352:25363   */\n      0x00\n        /* \"#utility.yul\":25386:25392   */\n      dup3\n        /* \"#utility.yul\":25381:25384   */\n      dup3\n        /* \"#utility.yul\":25374:25393   */\n      mstore\n        /* \"#utility.yul\":25426:25430   */\n      0x20\n        /* \"#utility.yul\":25421:25424   */\n      dup3\n        /* \"#utility.yul\":25417:25431   */\n      add\n        /* \"#utility.yul\":25402:25431   */\n      swap1\n      pop\n        /* \"#utility.yul\":25364:25437   */\n      swap3\n      swap2\n      pop\n      pop\n      jump\t// out\n        /* \"#utility.yul\":25443:25611   */\n    tag_377:\n        /* \"#utility.yul\":25526:25537   */\n      0x00\n        /* \"#utility.yul\":25560:25566   */\n      dup3\n        /* \"#utility.yul\":25555:25558   */\n      dup3\n        /* \"#utility.yul\":25548:25567   */\n      mstore\n        /* \"#utility.yul\":25600:25604   */\n      0x20\n        /* \"#utility.yul\":25595:25598   */\n      dup3\n        /* \"#utility.yul\":25591:25605   */\n      add\n        /* \"#utility.yul\":25576:25605   */\n      swap1\n      pop\n        /* \"#utility.yul\":25538:25611   */\n      swap3\n      swap2\n      pop\n      pop\n      jump\t// out\n        /* \"#utility.yul\":25617:25764   */\n    tag_384:\n        /* \"#utility.yul\":25718:25729   */\n      0x00\n        /* \"#utility.yul\":25755:25758   */\n      dup2\n        /* \"#utility.yul\":25740:25758   */\n      swap1\n      pop\n        /* \"#utility.yul\":25730:25764   */\n      swap3\n      swap2\n      pop\n      pop\n      jump\t// out\n        /* \"#utility.yul\":25770:25939   */\n    tag_395:\n        /* \"#utility.yul\":25854:25865   */\n      0x00\n        /* \"#utility.yul\":25888:25894   */\n      dup3\n        /* \"#utility.yul\":25883:25886   */\n      dup3\n        /* \"#utility.yul\":25876:25895   */\n      mstore\n        /* \"#utility.yul\":25928:25932   */\n      0x20\n        /* \"#utility.yul\":25923:25926   */\n      dup3\n        /* \"#utility.yul\":25919:25933   */\n      add\n        /* \"#utility.yul\":25904:25933   */\n      swap1\n      pop\n        /* \"#utility.yul\":25866:25939   */\n      swap3\n      swap2\n      pop\n      pop\n      jump\t// out\n        /* \"#utility.yul\":25945:26130   */\n    tag_120:\n        /* \"#utility.yul\":25985:25986   */\n      0x00\n        /* \"#utility.yul\":26002:26022   */\n      tag_536\n        /* \"#utility.yul\":26020:26021   */\n      dup3\n        /* \"#utility.yul\":26002:26022   */\n      tag_449\n      jump\t// in\n    tag_536:\n        /* \"#utility.yul\":25997:26022   */\n      swap2\n      pop\n        /* \"#utility.yul\":26036:26056   */\n      tag_537\n        /* \"#utility.yul\":26054:26055   */\n      dup4\n        /* \"#utility.yul\":26036:26056   */\n      tag_449\n      jump\t// in\n    tag_537:\n        /* \"#utility.yul\":26031:26056   */\n      swap3\n      pop\n        /* \"#utility.yul\":26075:26076   */\n      dup3\n        /* \"#utility.yul\":26065:26067   */\n      tag_538\n      jumpi\n        /* \"#utility.yul\":26080:26098   */\n      tag_539\n      tag_540\n      jump\t// in\n    tag_539:\n        /* \"#utility.yul\":26065:26067   */\n    tag_538:\n        /* \"#utility.yul\":26122:26123   */\n      dup3\n        /* \"#utility.yul\":26119:26120   */\n      dup3\n        /* \"#utility.yul\":26115:26124   */\n      div\n        /* \"#utility.yul\":26110:26124   */\n      swap1\n      pop\n        /* \"#utility.yul\":25987:26130   */\n      swap3\n      swap2\n      pop\n      pop\n      jump\t// out\n        /* \"#utility.yul\":26136:26484   */\n    tag_118:\n        /* \"#utility.yul\":26176:26183   */\n      0x00\n        /* \"#utility.yul\":26199:26219   */\n      tag_542\n        /* \"#utility.yul\":26217:26218   */\n      dup3\n        /* \"#utility.yul\":26199:26219   */\n      tag_449\n      jump\t// in\n    tag_542:\n        /* \"#utility.yul\":26194:26219   */\n      swap2\n      pop\n        /* \"#utility.yul\":26233:26253   */\n      tag_543\n        /* \"#utility.yul\":26251:26252   */\n      dup4\n        /* \"#utility.yul\":26233:26253   */\n      tag_449\n      jump\t// in\n    tag_543:\n        /* \"#utility.yul\":26228:26253   */\n      swap3\n      pop\n        /* \"#utility.yul\":26421:26422   */\n      dup2\n        /* \"#utility.yul\":26353:26419   */\n      0xffffffffffffffffffffffffffffffffffffffffffffffffffffffffffffffff\n        /* \"#utility.yul\":26349:26423   */\n      div\n        /* \"#utility.yul\":26346:26347   */\n      dup4\n        /* \"#utility.yul\":26343:26424   */\n      gt\n        /* \"#utility.yul\":26338:26339   */\n      dup3\n        /* \"#utility.yul\":26331:26340   */\n      iszero\n        /* \"#utility.yul\":26324:26341   */\n      iszero\n        /* \"#utility.yul\":26320:26425   */\n      and\n        /* \"#utility.yul\":26317:26319   */\n      iszero\n      tag_544\n      jumpi\n        /* \"#utility.yul\":26428:26446   */\n      tag_545\n      tag_546\n      jump\t// in\n    tag_545:\n        /* \"#utility.yul\":26317:26319   */\n    tag_544:\n        /* \"#utility.yul\":26476:26477   */\n      dup3\n        /* \"#utility.yul\":26473:26474   */\n      dup3\n        /* \"#utility.yul\":26469:26478   */\n      mul\n        /* \"#utility.yul\":26458:26478   */\n      swap1\n      pop\n        /* \"#utility.yul\":26184:26484   */\n      swap3\n      swap2\n      pop\n      pop\n      jump\t// out\n        /* \"#utility.yul\":26490:26681   */\n    tag_116:\n        /* \"#utility.yul\":26530:26534   */\n      0x00\n        /* \"#utility.yul\":26550:26570   */\n      tag_548\n        /* \"#utility.yul\":26568:26569   */\n      dup3\n        /* \"#utility.yul\":26550:26570   */\n      tag_449\n      jump\t// in\n    tag_548:\n        /* \"#utility.yul\":26545:26570   */\n      swap2\n      pop\n        /* \"#utility.yul\":26584:26604   */\n      tag_549\n        /* \"#utility.yul\":26602:26603   */\n      dup4\n        /* \"#utility.yul\":26584:26604   */\n      tag_449\n      jump\t// in\n    tag_549:\n        /* \"#utility.yul\":26579:26604   */\n      swap3\n      pop\n        /* \"#utility.yul\":26623:26624   */\n      dup3\n        /* \"#utility.yul\":26620:26621   */\n      dup3\n        /* \"#utility.yul\":26617:26625   */\n      lt\n        /* \"#utility.yul\":26614:26616   */\n      iszero\n      tag_550\n      jumpi\n        /* \"#utility.yul\":26628:26646   */\n      tag_551\n      tag_546\n      jump\t// in\n    tag_551:\n        /* \"#utility.yul\":26614:26616   */\n    tag_550:\n        /* \"#utility.yul\":26673:26674   */\n      dup3\n        /* \"#utility.yul\":26670:26671   */\n      dup3\n        /* \"#utility.yul\":26666:26675   */\n      sub\n        /* \"#utility.yul\":26658:26675   */\n      swap1\n      pop\n        /* \"#utility.yul\":26535:26681   */\n      swap3\n      swap2\n      pop\n      pop\n      jump\t// out\n        /* \"#utility.yul\":26687:26783   */\n    tag_353:\n        /* \"#utility.yul\":26724:26731   */\n      0x00\n        /* \"#utility.yul\":26753:26777   */\n      tag_553\n        /* \"#utility.yul\":26771:26776   */\n      dup3\n        /* \"#utility.yul\":26753:26777   */\n      tag_554\n      jump\t// in\n    tag_553:\n        /* \"#utility.yul\":26742:26777   */\n      swap1\n      pop\n        /* \"#utility.yul\":26732:26783   */\n      swap2\n      swap1\n      pop\n      jump\t// out\n        /* \"#utility.yul\":26789:26893   */\n    tag_349:\n        /* \"#utility.yul\":26834:26841   */\n      0x00\n        /* \"#utility.yul\":26863:26887   */\n      tag_556\n        /* \"#utility.yul\":26881:26886   */\n      dup3\n        /* \"#utility.yul\":26863:26887   */\n      tag_554\n      jump\t// in\n    tag_556:\n        /* \"#utility.yul\":26852:26887   */\n      swap1\n      pop\n        /* \"#utility.yul\":26842:26893   */\n      swap2\n      swap1\n      pop\n      jump\t// out\n        /* \"#utility.yul\":26899:26989   */\n    tag_362:\n        /* \"#utility.yul\":26933:26940   */\n      0x00\n        /* \"#utility.yul\":26976:26981   */\n      dup2\n        /* \"#utility.yul\":26969:26982   */\n      iszero\n        /* \"#utility.yul\":26962:26983   */\n      iszero\n        /* \"#utility.yul\":26951:26983   */\n      swap1\n      pop\n        /* \"#utility.yul\":26941:26989   */\n      swap2\n      swap1\n      pop\n      jump\t// out\n        /* \"#utility.yul\":26995:27084   */\n    tag_442:\n        /* \"#utility.yul\":27031:27038   */\n      0x00\n        /* \"#utility.yul\":27071:27077   */\n      0xffff\n        /* \"#utility.yul\":27064:27069   */\n      dup3\n        /* \"#utility.yul\":27060:27078   */\n      and\n        /* \"#utility.yul\":27049:27078   */\n      swap1\n      pop\n        /* \"#utility.yul\":27039:27084   */\n      swap2\n      swap1\n      pop\n      jump\t// out\n        /* \"#utility.yul\":27090:27216   */\n    tag_554:\n        /* \"#utility.yul\":27127:27134   */\n      0x00\n        /* \"#utility.yul\":27167:27209   */\n      0xffffffffffffffffffffffffffffffffffffffff\n        /* \"#utility.yul\":27160:27165   */\n      dup3\n        /* \"#utility.yul\":27156:27210   */\n      and\n        /* \"#utility.yul\":27145:27210   */\n      swap1\n      pop\n        /* \"#utility.yul\":27135:27216   */\n      swap2\n      swap1\n      pop\n      jump\t// out\n        /* \"#utility.yul\":27222:27299   */\n    tag_449:\n        /* \"#utility.yul\":27259:27266   */\n      0x00\n        /* \"#utility.yul\":27288:27293   */\n      dup2\n        /* \"#utility.yul\":27277:27293   */\n      swap1\n      pop\n        /* \"#utility.yul\":27267:27299   */\n      swap2\n      swap1\n      pop\n      jump\t// out\n        /* \"#utility.yul\":27305:27391   */\n    tag_561:\n        /* \"#utility.yul\":27340:27347   */\n      0x00\n        /* \"#utility.yul\":27380:27384   */\n      0xff\n        /* \"#utility.yul\":27373:27378   */\n      dup3\n        /* \"#utility.yul\":27369:27385   */\n      and\n        /* \"#utility.yul\":27358:27385   */\n      swap1\n      pop\n        /* \"#utility.yul\":27348:27391   */\n      swap2\n      swap1\n      pop\n      jump\t// out\n        /* \"#utility.yul\":27397:27531   */\n    tag_345:\n        /* \"#utility.yul\":27455:27464   */\n      0x00\n        /* \"#utility.yul\":27488:27525   */\n      tag_564\n        /* \"#utility.yul\":27519:27524   */\n      dup3\n        /* \"#utility.yul\":27488:27525   */\n      tag_565\n      jump\t// in\n    tag_564:\n        /* \"#utility.yul\":27475:27525   */\n      swap1\n      pop\n        /* \"#utility.yul\":27465:27531   */\n      swap2\n      swap1\n      pop\n      jump\t// out\n        /* \"#utility.yul\":27537:27654   */\n    tag_389:\n        /* \"#utility.yul\":27593:27602   */\n      0x00\n        /* \"#utility.yul\":27626:27648   */\n      tag_567\n        /* \"#utility.yul\":27642:27647   */\n      dup3\n        /* \"#utility.yul\":27626:27648   */\n      tag_561\n      jump\t// in\n    tag_567:\n        /* \"#utility.yul\":27613:27648   */\n      swap1\n      pop\n        /* \"#utility.yul\":27603:27654   */\n      swap2\n      swap1\n      pop\n      jump\t// out\n        /* \"#utility.yul\":27660:27786   */\n    tag_565:\n        /* \"#utility.yul\":27710:27719   */\n      0x00\n        /* \"#utility.yul\":27743:27780   */\n      tag_569\n        /* \"#utility.yul\":27774:27779   */\n      dup3\n        /* \"#utility.yul\":27743:27780   */\n      tag_570\n      jump\t// in\n    tag_569:\n        /* \"#utility.yul\":27730:27780   */\n      swap1\n      pop\n        /* \"#utility.yul\":27720:27786   */\n      swap2\n      swap1\n      pop\n      jump\t// out\n        /* \"#utility.yul\":27792:27905   */\n    tag_570:\n        /* \"#utility.yul\":27842:27851   */\n      0x00\n        /* \"#utility.yul\":27875:27899   */\n      tag_572\n        /* \"#utility.yul\":27893:27898   */\n      dup3\n        /* \"#utility.yul\":27875:27899   */\n      tag_554\n      jump\t// in\n    tag_572:\n        /* \"#utility.yul\":27862:27899   */\n      swap1\n      pop\n        /* \"#utility.yul\":27852:27905   */\n      swap2\n      swap1\n      pop\n      jump\t// out\n        /* \"#utility.yul\":27911:28022   */\n    tag_446:\n        /* \"#utility.yul\":27960:27969   */\n      0x00\n        /* \"#utility.yul\":27993:28016   */\n      tag_574\n        /* \"#utility.yul\":28010:28015   */\n      dup3\n        /* \"#utility.yul\":27993:28016   */\n      tag_442\n      jump\t// in\n    tag_574:\n        /* \"#utility.yul\":27980:28016   */\n      swap1\n      pop\n        /* \"#utility.yul\":27970:28022   */\n      swap2\n      swap1\n      pop\n      jump\t// out\n        /* \"#utility.yul\":28028:28182   */\n    tag_248:\n        /* \"#utility.yul\":28112:28118   */\n      dup3\n        /* \"#utility.yul\":28107:28110   */\n      dup2\n        /* \"#utility.yul\":28102:28105   */\n      dup4\n        /* \"#utility.yul\":28089:28119   */\n      calldatacopy\n        /* \"#utility.yul\":28174:28175   */\n      0x00\n        /* \"#utility.yul\":28165:28171   */\n      dup4\n        /* \"#utility.yul\":28160:28163   */\n      dup4\n        /* \"#utility.yul\":28156:28172   */\n      add\n        /* \"#utility.yul\":28149:28176   */\n      mstore\n        /* \"#utility.yul\":28079:28182   */\n      pop\n      pop\n      pop\n      jump\t// out\n        /* \"#utility.yul\":28188:28495   */\n    tag_370:\n        /* \"#utility.yul\":28256:28257   */\n      0x00\n        /* \"#utility.yul\":28266:28379   */\n    tag_577:\n        /* \"#utility.yul\":28280:28286   */\n      dup4\n        /* \"#utility.yul\":28277:28278   */\n      dup2\n        /* \"#utility.yul\":28274:28287   */\n      lt\n        /* \"#utility.yul\":28266:28379   */\n      iszero\n      tag_579\n      jumpi\n        /* \"#utility.yul\":28365:28366   */\n      dup1\n        /* \"#utility.yul\":28360:28363   */\n      dup3\n        /* \"#utility.yul\":28356:28367   */\n      add\n        /* \"#utility.yul\":28350:28368   */\n      mload\n        /* \"#utility.yul\":28346:28347   */\n      dup2\n        /* \"#utility.yul\":28341:28344   */\n      dup5\n        /* \"#utility.yul\":28337:28348   */\n      add\n        /* \"#utility.yul\":28330:28369   */\n      mstore\n        /* \"#utility.yul\":28302:28304   */\n      0x20\n        /* \"#utility.yul\":28299:28300   */\n      dup2\n        /* \"#utility.yul\":28295:28305   */\n      add\n        /* \"#utility.yul\":28290:28305   */\n      swap1\n      pop\n        /* \"#utility.yul\":28266:28379   */\n      jump(tag_577)\n    tag_579:\n        /* \"#utility.yul\":28397:28403   */\n      dup4\n        /* \"#utility.yul\":28394:28395   */\n      dup2\n        /* \"#utility.yul\":28391:28404   */\n      gt\n        /* \"#utility.yul\":28388:28390   */\n      iszero\n      tag_580\n      jumpi\n        /* \"#utility.yul\":28477:28478   */\n      0x00\n        /* \"#utility.yul\":28468:28474   */\n      dup5\n        /* \"#utility.yul\":28463:28466   */\n      dup5\n        /* \"#utility.yul\":28459:28475   */\n      add\n        /* \"#utility.yul\":28452:28479   */\n      mstore\n        /* \"#utility.yul\":28388:28390   */\n    tag_580:\n        /* \"#utility.yul\":28237:28495   */\n      pop\n      pop\n      pop\n      pop\n      jump\t// out\n        /* \"#utility.yul\":28501:28782   */\n    tag_522:\n        /* \"#utility.yul\":28584:28611   */\n      tag_582\n        /* \"#utility.yul\":28606:28610   */\n      dup3\n        /* \"#utility.yul\":28584:28611   */\n      tag_372\n      jump\t// in\n    tag_582:\n        /* \"#utility.yul\":28576:28582   */\n      dup2\n        /* \"#utility.yul\":28572:28612   */\n      add\n        /* \"#utility.yul\":28714:28720   */\n      dup2\n        /* \"#utility.yul\":28702:28712   */\n      dup2\n        /* \"#utility.yul\":28699:28721   */\n      lt\n        /* \"#utility.yul\":28678:28696   */\n      0xffffffffffffffff\n        /* \"#utility.yul\":28666:28676   */\n      dup3\n        /* \"#utility.yul\":28663:28697   */\n      gt\n        /* \"#utility.yul\":28660:28722   */\n      or\n        /* \"#utility.yul\":28657:28659   */\n      iszero\n      tag_583\n      jumpi\n        /* \"#utility.yul\":28725:28743   */\n      tag_584\n      tag_527\n      jump\t// in\n    tag_584:\n        /* \"#utility.yul\":28657:28659   */\n    tag_583:\n        /* \"#utility.yul\":28765:28775   */\n      dup1\n        /* \"#utility.yul\":28761:28763   */\n      0x40\n        /* \"#utility.yul\":28754:28776   */\n      mstore\n        /* \"#utility.yul\":28544:28782   */\n      pop\n      pop\n      pop\n      jump\t// out\n        /* \"#utility.yul\":28788:28888   */\n    tag_358:\n        /* \"#utility.yul\":28827:28834   */\n      0x00\n        /* \"#utility.yul\":28856:28882   */\n      tag_586\n        /* \"#utility.yul\":28876:28881   */\n      dup3\n        /* \"#utility.yul\":28856:28882   */\n      tag_587\n      jump\t// in\n    tag_586:\n        /* \"#utility.yul\":28845:28882   */\n      swap1\n      pop\n        /* \"#utility.yul\":28835:28888   */\n      swap2\n      swap1\n      pop\n      jump\t// out\n        /* \"#utility.yul\":28894:28988   */\n    tag_587:\n        /* \"#utility.yul\":28933:28940   */\n      0x00\n        /* \"#utility.yul\":28962:28982   */\n      tag_589\n        /* \"#utility.yul\":28976:28981   */\n      dup3\n        /* \"#utility.yul\":28962:28982   */\n      tag_590\n      jump\t// in\n    tag_589:\n        /* \"#utility.yul\":28951:28982   */\n      swap1\n      pop\n        /* \"#utility.yul\":28941:28988   */\n      swap2\n      swap1\n      pop\n      jump\t// out\n        /* \"#utility.yul\":28994:29174   */\n    tag_546:\n        /* \"#utility.yul\":29042:29119   */\n      0x4e487b7100000000000000000000000000000000000000000000000000000000\n        /* \"#utility.yul\":29039:29040   */\n      0x00\n        /* \"#utility.yul\":29032:29120   */\n      mstore\n        /* \"#utility.yul\":29139:29143   */\n      0x11\n        /* \"#utility.yul\":29136:29137   */\n      0x04\n        /* \"#utility.yul\":29129:29144   */\n      mstore\n        /* \"#utility.yul\":29163:29167   */\n      0x24\n        /* \"#utility.yul\":29160:29161   */\n      0x00\n        /* \"#utility.yul\":29153:29168   */\n      revert\n        /* \"#utility.yul\":29180:29360   */\n    tag_540:\n        /* \"#utility.yul\":29228:29305   */\n      0x4e487b7100000000000000000000000000000000000000000000000000000000\n        /* \"#utility.yul\":29225:29226   */\n      0x00\n        /* \"#utility.yul\":29218:29306   */\n      mstore\n        /* \"#utility.yul\":29325:29329   */\n      0x12\n        /* \"#utility.yul\":29322:29323   */\n      0x04\n        /* \"#utility.yul\":29315:29330   */\n      mstore\n        /* \"#utility.yul\":29349:29353   */\n      0x24\n        /* \"#utility.yul\":29346:29347   */\n      0x00\n        /* \"#utility.yul\":29339:29354   */\n      revert\n        /* \"#utility.yul\":29366:29546   */\n    tag_527:\n        /* \"#utility.yul\":29414:29491   */\n      0x4e487b7100000000000000000000000000000000000000000000000000000000\n        /* \"#utility.yul\":29411:29412   */\n      0x00\n        /* \"#utility.yul\":29404:29492   */\n      mstore\n        /* \"#utility.yul\":29511:29515   */\n      0x41\n        /* \"#utility.yul\":29508:29509   */\n      0x04\n        /* \"#utility.yul\":29501:29516   */\n      mstore\n        /* \"#utility.yul\":29535:29539   */\n      0x24\n        /* \"#utility.yul\":29532:29533   */\n      0x00\n        /* \"#utility.yul\":29525:29540   */\n      revert\n        /* \"#utility.yul\":29552:29654   */\n    tag_372:\n        /* \"#utility.yul\":29593:29599   */\n      0x00\n        /* \"#utility.yul\":29644:29646   */\n      0x1f\n        /* \"#utility.yul\":29640:29647   */\n      not\n        /* \"#utility.yul\":29635:29637   */\n      0x1f\n        /* \"#utility.yul\":29628:29633   */\n      dup4\n        /* \"#utility.yul\":29624:29638   */\n      add\n        /* \"#utility.yul\":29620:29648   */\n      and\n        /* \"#utility.yul\":29610:29648   */\n      swap1\n      pop\n        /* \"#utility.yul\":29600:29654   */\n      swap2\n      swap1\n      pop\n      jump\t// out\n        /* \"#utility.yul\":29660:29754   */\n    tag_590:\n        /* \"#utility.yul\":29693:29701   */\n      0x00\n        /* \"#utility.yul\":29741:29746   */\n      dup2\n        /* \"#utility.yul\":29737:29739   */\n      0x60\n        /* \"#utility.yul\":29733:29747   */\n      shl\n        /* \"#utility.yul\":29712:29747   */\n      swap1\n      pop\n        /* \"#utility.yul\":29702:29754   */\n      swap2\n      swap1\n      pop\n      jump\t// out\n        /* \"#utility.yul\":29760:29981   */\n    tag_402:\n        /* \"#utility.yul\":29900:29934   */\n      0x4c69624469616d6f6e643a204d75737420626520636f6e7472616374206f776e\n        /* \"#utility.yul\":29896:29897   */\n      0x00\n        /* \"#utility.yul\":29888:29894   */\n      dup3\n        /* \"#utility.yul\":29884:29898   */\n      add\n        /* \"#utility.yul\":29877:29935   */\n      mstore\n        /* \"#utility.yul\":29969:29973   */\n      0x6572000000000000000000000000000000000000000000000000000000000000\n        /* \"#utility.yul\":29964:29966   */\n      0x20\n        /* \"#utility.yul\":29956:29962   */\n      dup3\n        /* \"#utility.yul\":29952:29967   */\n      add\n        /* \"#utility.yul\":29945:29974   */\n      mstore\n        /* \"#utility.yul\":29866:29981   */\n      pop\n      jump\t// out\n        /* \"#utility.yul\":29987:30139   */\n    tag_407:\n        /* \"#utility.yul\":30127:30131   */\n      0x3078000000000000000000000000000000000000000000000000000000000000\n        /* \"#utility.yul\":30123:30124   */\n      0x00\n        /* \"#utility.yul\":30115:30121   */\n      dup3\n        /* \"#utility.yul\":30111:30125   */\n      add\n        /* \"#utility.yul\":30104:30132   */\n      mstore\n        /* \"#utility.yul\":30093:30139   */\n      pop\n      jump\t// out\n        /* \"#utility.yul\":30145:30370   */\n    tag_412:\n        /* \"#utility.yul\":30285:30319   */\n      0x416464726573733a20696e73756666696369656e742062616c616e636520666f\n        /* \"#utility.yul\":30281:30282   */\n      0x00\n        /* \"#utility.yul\":30273:30279   */\n      dup3\n        /* \"#utility.yul\":30269:30283   */\n      add\n        /* \"#utility.yul\":30262:30320   */\n      mstore\n        /* \"#utility.yul\":30354:30362   */\n      0x722063616c6c0000000000000000000000000000000000000000000000000000\n        /* \"#utility.yul\":30349:30351   */\n      0x20\n        /* \"#utility.yul\":30341:30347   */\n      dup3\n        /* \"#utility.yul\":30337:30352   */\n      add\n        /* \"#utility.yul\":30330:30363   */\n      mstore\n        /* \"#utility.yul\":30251:30370   */\n      pop\n      jump\t// out\n        /* \"#utility.yul\":30376:30534   */\n    tag_417:\n        /* \"#utility.yul\":30516:30526   */\n      0x7374617267617465000000000000000000000000000000000000000000000000\n        /* \"#utility.yul\":30512:30513   */\n      0x00\n        /* \"#utility.yul\":30504:30510   */\n      dup3\n        /* \"#utility.yul\":30500:30514   */\n      add\n        /* \"#utility.yul\":30493:30527   */\n      mstore\n        /* \"#utility.yul\":30482:30534   */\n      pop\n      jump\t// out\n        /* \"#utility.yul\":30540:30719   */\n    tag_422:\n        /* \"#utility.yul\":30680:30711   */\n      0x416464726573733a2063616c6c20746f206e6f6e2d636f6e7472616374000000\n        /* \"#utility.yul\":30676:30677   */\n      0x00\n        /* \"#utility.yul\":30668:30674   */\n      dup3\n        /* \"#utility.yul\":30664:30678   */\n      add\n        /* \"#utility.yul\":30657:30712   */\n      mstore\n        /* \"#utility.yul\":30646:30719   */\n      pop\n      jump\t// out\n        /* \"#utility.yul\":30725:30954   */\n    tag_427:\n        /* \"#utility.yul\":30865:30899   */\n      0x5361666545524332303a204552433230206f7065726174696f6e20646964206e\n        /* \"#utility.yul\":30861:30862   */\n      0x00\n        /* \"#utility.yul\":30853:30859   */\n      dup3\n        /* \"#utility.yul\":30849:30863   */\n      add\n        /* \"#utility.yul\":30842:30900   */\n      mstore\n        /* \"#utility.yul\":30934:30946   */\n      0x6f74207375636365656400000000000000000000000000000000000000000000\n        /* \"#utility.yul\":30929:30931   */\n      0x20\n        /* \"#utility.yul\":30921:30927   */\n      dup3\n        /* \"#utility.yul\":30917:30932   */\n      add\n        /* \"#utility.yul\":30910:30947   */\n      mstore\n        /* \"#utility.yul\":30831:30954   */\n      pop\n      jump\t// out\n        /* \"#utility.yul\":30960:31201   */\n    tag_432:\n        /* \"#utility.yul\":31100:31134   */\n      0x5361666545524332303a20617070726f76652066726f6d206e6f6e2d7a65726f\n        /* \"#utility.yul\":31096:31097   */\n      0x00\n        /* \"#utility.yul\":31088:31094   */\n      dup3\n        /* \"#utility.yul\":31084:31098   */\n      add\n        /* \"#utility.yul\":31077:31135   */\n      mstore\n        /* \"#utility.yul\":31169:31193   */\n      0x20746f206e6f6e2d7a65726f20616c6c6f77616e636500000000000000000000\n        /* \"#utility.yul\":31164:31166   */\n      0x20\n        /* \"#utility.yul\":31156:31162   */\n      dup3\n        /* \"#utility.yul\":31152:31167   */\n      add\n        /* \"#utility.yul\":31145:31194   */\n      mstore\n        /* \"#utility.yul\":31066:31201   */\n      pop\n      jump\t// out\n        /* \"#utility.yul\":31207:31329   */\n    tag_252:\n        /* \"#utility.yul\":31280:31304   */\n      tag_604\n        /* \"#utility.yul\":31298:31303   */\n      dup2\n        /* \"#utility.yul\":31280:31304   */\n      tag_353\n      jump\t// in\n    tag_604:\n        /* \"#utility.yul\":31273:31278   */\n      dup2\n        /* \"#utility.yul\":31270:31305   */\n      eq\n        /* \"#utility.yul\":31260:31262   */\n      tag_605\n      jumpi\n        /* \"#utility.yul\":31319:31320   */\n      0x00\n        /* \"#utility.yul\":31316:31317   */\n      dup1\n        /* \"#utility.yul\":31309:31321   */\n      revert\n        /* \"#utility.yul\":31260:31262   */\n    tag_605:\n        /* \"#utility.yul\":31250:31329   */\n      pop\n      jump\t// out\n        /* \"#utility.yul\":31335:31473   */\n    tag_256:\n        /* \"#utility.yul\":31416:31448   */\n      tag_607\n        /* \"#utility.yul\":31442:31447   */\n      dup2\n        /* \"#utility.yul\":31416:31448   */\n      tag_349\n      jump\t// in\n    tag_607:\n        /* \"#utility.yul\":31409:31414   */\n      dup2\n        /* \"#utility.yul\":31406:31449   */\n      eq\n        /* \"#utility.yul\":31396:31398   */\n      tag_608\n      jumpi\n        /* \"#utility.yul\":31463:31464   */\n      0x00\n        /* \"#utility.yul\":31460:31461   */\n      dup1\n        /* \"#utility.yul\":31453:31465   */\n      revert\n        /* \"#utility.yul\":31396:31398   */\n    tag_608:\n        /* \"#utility.yul\":31386:31473   */\n      pop\n      jump\t// out\n        /* \"#utility.yul\":31479:31595   */\n    tag_263:\n        /* \"#utility.yul\":31549:31570   */\n      tag_610\n        /* \"#utility.yul\":31564:31569   */\n      dup2\n        /* \"#utility.yul\":31549:31570   */\n      tag_362\n      jump\t// in\n    tag_610:\n        /* \"#utility.yul\":31542:31547   */\n      dup2\n        /* \"#utility.yul\":31539:31571   */\n      eq\n        /* \"#utility.yul\":31529:31531   */\n      tag_611\n      jumpi\n        /* \"#utility.yul\":31585:31586   */\n      0x00\n        /* \"#utility.yul\":31582:31583   */\n      dup1\n        /* \"#utility.yul\":31575:31587   */\n      revert\n        /* \"#utility.yul\":31529:31531   */\n    tag_611:\n        /* \"#utility.yul\":31519:31595   */\n      pop\n      jump\t// out\n        /* \"#utility.yul\":31601:31721   */\n    tag_284:\n        /* \"#utility.yul\":31673:31696   */\n      tag_613\n        /* \"#utility.yul\":31690:31695   */\n      dup2\n        /* \"#utility.yul\":31673:31696   */\n      tag_442\n      jump\t// in\n    tag_613:\n        /* \"#utility.yul\":31666:31671   */\n      dup2\n        /* \"#utility.yul\":31663:31697   */\n      eq\n        /* \"#utility.yul\":31653:31655   */\n      tag_614\n      jumpi\n        /* \"#utility.yul\":31711:31712   */\n      0x00\n        /* \"#utility.yul\":31708:31709   */\n      dup1\n        /* \"#utility.yul\":31701:31713   */\n      revert\n        /* \"#utility.yul\":31653:31655   */\n    tag_614:\n        /* \"#utility.yul\":31643:31721   */\n      pop\n      jump\t// out\n        /* \"#utility.yul\":31727:31849   */\n    tag_287:\n        /* \"#utility.yul\":31800:31824   */\n      tag_616\n        /* \"#utility.yul\":31818:31823   */\n      dup2\n        /* \"#utility.yul\":31800:31824   */\n      tag_449\n      jump\t// in\n    tag_616:\n        /* \"#utility.yul\":31793:31798   */\n      dup2\n        /* \"#utility.yul\":31790:31825   */\n      eq\n        /* \"#utility.yul\":31780:31782   */\n      tag_617\n      jumpi\n        /* \"#utility.yul\":31839:31840   */\n      0x00\n        /* \"#utility.yul\":31836:31837   */\n      dup1\n        /* \"#utility.yul\":31829:31841   */\n      revert\n        /* \"#utility.yul\":31780:31782   */\n    tag_617:\n        /* \"#utility.yul\":31770:31849   */\n      pop\n      jump\t// out\n\n    auxdata: 0xa26469706673582212200f23424d792c902c43a7f7bd4e075a69ff490a40b415fecc1cfd99806eec326e64736f6c63430008040033\n}\n",
				"bytecode": {
					"linkReferences": {},
					"object": "608060405234801561001057600080fd5b506126f4806100206000396000f3fe6080604052600436106100955760003560e01c8063618c3f2911610059578063618c3f29146101825780636acf5e3f146101bf57806390f12364146101ef578063ab8236f31461022c578063c722a336146102555761009c565b8063217aabb7146100a15780632aad46e3146100ca57806342d910c6146100f3578063498ee469146101305780634be85c35146101595761009c565b3661009c57005b600080fd5b3480156100ad57600080fd5b506100c860048036038101906100c39190611a08565b610271565b005b3480156100d657600080fd5b506100f160048036038101906100ec9190611900565b6102c9565b005b3480156100ff57600080fd5b5061011a600480360381019061011591906118b1565b61037d565b60405161012791906120ff565b60405180910390f35b34801561013c57600080fd5b5061015760048036038101906101529190611822565b61048f565b005b34801561016557600080fd5b50610180600480360381019061017b9190611781565b610740565b005b34801561018e57600080fd5b506101a960048036038101906101a49190611a08565b610839565b6040516101b691906120ff565b60405180910390f35b6101d960048036038101906101d49190611887565b610878565b6040516101e69190611e6f565b60405180910390f35b3480156101fb57600080fd5b5061021660048036038101906102119190611900565b610d75565b6040516102239190611e6f565b60405180910390f35b34801561023857600080fd5b50610253600480360381019061024e919061194f565b610df7565b005b61026f600480360381019061026a91906117d3565b610f75565b005b61027961103a565b60006102836110d5565b90508181600201819055507f45934903f6b10aff9d3435b8362d284d95d14ca68e8554f05f04c7856a6003c0826040516102bd91906120ff565b60405180910390a15050565b6102d161103a565b60006102db6110d5565b9050818160030160008661ffff1661ffff16815260200190815260200160002060008573ffffffffffffffffffffffffffffffffffffffff1673ffffffffffffffffffffffffffffffffffffffff168152602001908152602001600020819055507f5a600144b7b71ca7ee988e17e7745e8d46eb24056d4818716be29fa976393a8e84848460405161036f93929190611fc0565b60405180910390a150505050565b6000808273ffffffffffffffffffffffffffffffffffffffff16630a512369866001876040516020016103b09190611d55565b604051602081830303815290604052604051806060016040528062030d408152602001600081526020016040518060400160405280600281526020017f30780000000000000000000000000000000000000000000000000000000000008152508152506040518563ffffffff1660e01b81526004016104329493929190611ff7565b604080518083038186803b15801561044957600080fd5b505afa15801561045d573d6000803e3d6000fd5b505050506040513d601f19601f820116820180604052508101906104819190611a5a565b509050809150509392505050565b600073ffffffffffffffffffffffffffffffffffffffff168273ffffffffffffffffffffffffffffffffffffffff1614156104f6576040517f35be3ac800000000000000000000000000000000000000000000000000000000815260040160405180910390fd5b6104fe61103a565b60006105086110d5565b9050828160000160006101000a81548173ffffffffffffffffffffffffffffffffffffffff021916908373ffffffffffffffffffffffffffffffffffffffff160217905550818160000160146101000a81548161ffff021916908361ffff16021790555060328160020181905550610597600173a0b86991c6218b36c1d19d4a2e9eb0ce3606eb4860016102c9565b6105b8600173dac17f958d2ee523a2206206994597c13d831ec760026102c9565b6105d960027355d398326f99059ff775485246999027b319795560026102c9565b6105fa600273e9e7cea3dedca5984780bafc599bd69add087d5660056102c9565b61061b600673b97ef9ef8734c71904d8002f8b6bc66dd9c48a6e60016102c9565b61063c6006739702230a8ea53601f5cd2dc00fdbc13d4df4a8c760026102c9565b61065d6009732791bca1f2de4661ed88a30c99a7a9449aa8417460016102c9565b61067e600973c2132d05d31c914a87c6611c10748aeb04b58e8f60026102c9565b61069f600a73ff970a61a04b1ca14834a43f5de4533ebddb5cc860016102c9565b6106c0600a73fd086bc7cd5c481dcc9c85ebe478a1c0b69fcbb960026102c9565b6106e1600b737f5c764cbc14f9669b88837ca1490cca17c3160760016102c9565b610702600c7304068da6c83afcfa0e13ba15a6696662335d5b7560016102c9565b7fc8ec31998a27444f477c01de93c393769fd4fc017fb63163f71f8a8ab72ccd508383604051610733929190611e1d565b60405180910390a1505050565b61074861103a565b600073ffffffffffffffffffffffffffffffffffffffff168173ffffffffffffffffffffffffffffffffffffffff1614156107af576040517f3911c65500000000000000000000000000000000000000000000000000000000815260040160405180910390fd5b60006107b96110d5565b9050818160000160006101000a81548173ffffffffffffffffffffffffffffffffffffffff021916908373ffffffffffffffffffffffffffffffffffffffff1602179055507f9ac04272c4559bf7459414abb5568dc1df58ab649f0af4afd1510074f5cc2fec8260405161082d9190611d87565b60405180910390a15050565b6000806108446110d5565b9050612710816002015461271061085b919061224f565b8461086691906121f5565b61087091906121c4565b915050919050565b600080610883611102565b90506001816000015414156108c4576040517f29f745a700000000000000000000000000000000000000000000000000000000815260040160405180910390fd5b6001816000018190555060003411610908576040517fb7586d1900000000000000000000000000000000000000000000000000000000815260040160405180910390fd5b6000836000015111610946576040517f2c5211c600000000000000000000000000000000000000000000000000000000815260040160405180910390fd5b600073ffffffffffffffffffffffffffffffffffffffff16836020015173ffffffffffffffffffffffffffffffffffffffff1614806109b55750600073ffffffffffffffffffffffffffffffffffffffff16836040015173ffffffffffffffffffffffffffffffffffffffff16145b806109f05750600073ffffffffffffffffffffffffffffffffffffffff168360c0015173ffffffffffffffffffffffffffffffffffffffff16145b80610a2b5750600073ffffffffffffffffffffffffffffffffffffffff168360e0015173ffffffffffffffffffffffffffffffffffffffff16145b15610a62576040517f35be3ac800000000000000000000000000000000000000000000000000000000815260040160405180910390fd5b6000610a6c6110d5565b9050610a978160000160149054906101000a900461ffff168560200151866080015161ffff16610d75565b610acd576040517f7790ca9900000000000000000000000000000000000000000000000000000000815260040160405180910390fd5b610ae8846060015185604001518660a0015161ffff16610d75565b610b1e576040517f186c877f00000000000000000000000000000000000000000000000000000000815260040160405180910390fd5b6000610b2d8560000151610839565b905060008560c00151604051602001610b469190611da2565b6040516020818303038152906040529050610b8c33308860000151896020015173ffffffffffffffffffffffffffffffffffffffff1661112f909392919063ffffffff16565b610be38360000160009054906101000a900473ffffffffffffffffffffffffffffffffffffffff168760000151886020015173ffffffffffffffffffffffffffffffffffffffff166111b89092919063ffffffff16565b8260000160009054906101000a900473ffffffffffffffffffffffffffffffffffffffff1673ffffffffffffffffffffffffffffffffffffffff16639fbf10fc34886060015189608001518a60a00151338c6000015189604051806060016040528062030d408152602001600081526020016040518060400160405280600281526020017f30780000000000000000000000000000000000000000000000000000000000008152508152508f60e00151604051602001610ca39190611d55565b6040516020818303038152906040528b6040518b63ffffffff1660e01b8152600401610cd79998979695949392919061205d565b6000604051808303818588803b158015610cf057600080fd5b505af1158015610d04573d6000803e3d6000fd5b50505050507f7a72e6f4a3d77f8a5a6c536a973421c5bf00107f9aec7995661537673b8be08786602001518760400151338960c001518a600001518b60600151604051610d5696959493929190611eec565b60405180910390a1600194505050506000816000018190555050919050565b600080610d806110d5565b9050828160030160008761ffff1661ffff16815260200190815260200160002060008673ffffffffffffffffffffffffffffffffffffffff1673ffffffffffffffffffffffffffffffffffffffff1681526020019081526020016000205414610dea576000610ded565b60015b9150509392505050565b6000610e016110d5565b90508060000160009054906101000a900473ffffffffffffffffffffffffffffffffffffffff1673ffffffffffffffffffffffffffffffffffffffff163373ffffffffffffffffffffffffffffffffffffffff1614610e8c576040517fdade3c7100000000000000000000000000000000000000000000000000000000815260040160405180910390fd5b600082806020019051810190610ea291906117aa565b90508473ffffffffffffffffffffffffffffffffffffffff1663a9059cbb82866040518363ffffffff1660e01b8152600401610edf929190611e46565b602060405180830381600087803b158015610ef957600080fd5b505af1158015610f0d573d6000803e3d6000fd5b505050506040513d601f19601f82011682018060405250810190610f31919061185e565b507f827e3293895509ef037b7438d4e009f37ad7b2562a14695d9dfd9cb0659842188585604051610f63929190611e46565b60405180910390a15050505050505050565b6000610f7f611102565b9050600181600001541415610fc0576040517f29f745a700000000000000000000000000000000000000000000000000000000815260040160405180910390fd5b60018160000181905550610fd261103a565b610ffd30838673ffffffffffffffffffffffffffffffffffffffff166111b89092919063ffffffff16565b61102a3084848773ffffffffffffffffffffffffffffffffffffffff1661112f909392919063ffffffff16565b6000816000018190555050505050565b611042611316565b60040160009054906101000a900473ffffffffffffffffffffffffffffffffffffffff1673ffffffffffffffffffffffffffffffffffffffff163373ffffffffffffffffffffffffffffffffffffffff16146110d3576040517f08c379a00000000000000000000000000000000000000000000000000000000081526004016110ca90611eac565b60405180910390fd5b565b6000807fbaeadb48cbcf0176d6c6ac156b0140abe0fb28a100a9a6a8b5df37e55693b1c890508091505090565b6000807fa65bb2f450488ab0858c00edc14abc5297769bf42adb48cfb77752890e8b697b90508091505090565b6111b2846323b872dd60e01b85858560405160240161115093929190611de6565b604051602081830303815290604052907bffffffffffffffffffffffffffffffffffffffffffffffffffffffff19166020820180517bffffffffffffffffffffffffffffffffffffffffffffffffffffffff8381831617835250505050611343565b50505050565b6000811480611251575060008373ffffffffffffffffffffffffffffffffffffffff1663dd62ed3e30856040518363ffffffff1660e01b81526004016111ff929190611dbd565b60206040518083038186803b15801561121757600080fd5b505afa15801561122b573d6000803e3d6000fd5b505050506040513d601f19601f8201168201806040525081019061124f9190611a31565b145b611290576040517f08c379a000000000000000000000000000000000000000000000000000000000815260040161128790611fa0565b60405180910390fd5b6113118363095ea7b360e01b84846040516024016112af929190611e46565b604051602081830303815290604052907bffffffffffffffffffffffffffffffffffffffffffffffffffffffff19166020820180517bffffffffffffffffffffffffffffffffffffffffffffffffffffffff8381831617835250505050611343565b505050565b6000807fc8fcad8db84d3cc18b4c41d551ea0ee66dd599cde068d998e57d5e09332c131c90508091505090565b60006113a5826040518060400160405280602081526020017f5361666545524332303a206c6f772d6c6576656c2063616c6c206661696c65648152508573ffffffffffffffffffffffffffffffffffffffff1661140a9092919063ffffffff16565b905060008151111561140557808060200190518101906113c5919061185e565b611404576040517f08c379a00000000000000000000000000000000000000000000000000000000081526004016113fb90611f80565b60405180910390fd5b5b505050565b60606114198484600085611422565b90509392505050565b606082471015611467576040517f08c379a000000000000000000000000000000000000000000000000000000000815260040161145e90611ecc565b60405180910390fd5b61147085611536565b6114af576040517f08c379a00000000000000000000000000000000000000000000000000000000081526004016114a690611f60565b60405180910390fd5b6000808673ffffffffffffffffffffffffffffffffffffffff1685876040516114d89190611d70565b60006040518083038185875af1925050503d8060008114611515576040519150601f19603f3d011682016040523d82523d6000602084013e61151a565b606091505b509150915061152a828286611559565b92505050949350505050565b6000808273ffffffffffffffffffffffffffffffffffffffff163b119050919050565b60608315611569578290506115b9565b60008351111561157c5782518084602001fd5b816040517f08c379a00000000000000000000000000000000000000000000000000000000081526004016115b09190611e8a565b60405180910390fd5b9392505050565b60006115d36115ce8461213f565b61211a565b9050828152602081018484840111156115eb57600080fd5b6115f6848285612352565b509392505050565b60008135905061160d8161264b565b92915050565b60008135905061162281612662565b92915050565b60008151905061163781612662565b92915050565b60008151905061164c81612679565b92915050565b600082601f83011261166357600080fd5b81356116738482602086016115c0565b91505092915050565b6000610100828403121561168f57600080fd5b61169a61010061211a565b905060006116aa84828501611757565b60008301525060206116be848285016115fe565b60208301525060406116d2848285016115fe565b60408301525060606116e684828501611742565b60608301525060806116fa84828501611742565b60808301525060a061170e84828501611742565b60a08301525060c061172284828501611613565b60c08301525060e0611736848285016115fe565b60e08301525092915050565b60008135905061175181612690565b92915050565b600081359050611766816126a7565b92915050565b60008151905061177b816126a7565b92915050565b60006020828403121561179357600080fd5b60006117a1848285016115fe565b91505092915050565b6000602082840312156117bc57600080fd5b60006117ca84828501611628565b91505092915050565b6000806000606084860312156117e857600080fd5b60006117f6868287016115fe565b9350506020611807868287016115fe565b925050604061181886828701611757565b9150509250925092565b6000806040838503121561183557600080fd5b6000611843858286016115fe565b925050602061185485828601611742565b9150509250929050565b60006020828403121561187057600080fd5b600061187e8482850161163d565b91505092915050565b6000610100828403121561189a57600080fd5b60006118a88482850161167c565b91505092915050565b6000806000606084860312156118c657600080fd5b60006118d486828701611742565b93505060206118e5868287016115fe565b92505060406118f6868287016115fe565b9150509250925092565b60008060006060848603121561191557600080fd5b600061192386828701611742565b9350506020611934868287016115fe565b925050604061194586828701611757565b9150509250925092565b60008060008060008060c0878903121561196857600080fd5b600061197689828a01611742565b965050602087013567ffffffffffffffff81111561199357600080fd5b61199f89828a01611652565b95505060406119b089828a01611757565b94505060606119c189828a016115fe565b93505060806119d289828a01611757565b92505060a087013567ffffffffffffffff8111156119ef57600080fd5b6119fb89828a01611652565b9150509295509295509295565b600060208284031215611a1a57600080fd5b6000611a2884828501611757565b91505092915050565b600060208284031215611a4357600080fd5b6000611a518482850161176c565b91505092915050565b60008060408385031215611a6d57600080fd5b6000611a7b8582860161176c565b9250506020611a8c8582860161176c565b9150509250929050565b611a9f816122f8565b82525050565b611aae81612295565b82525050565b611abd81612283565b82525050565b611ad4611acf82612283565b6123c5565b82525050565b611ae3816122a7565b82525050565b6000611af482612170565b611afe8185612186565b9350611b0e818560208601612361565b611b1781612476565b840191505092915050565b6000611b2d82612170565b611b378185612197565b9350611b47818560208601612361565b611b5081612476565b840191505092915050565b6000611b6682612170565b611b7081856121a8565b9350611b80818560208601612361565b80840191505092915050565b611b958161230a565b82525050565b6000611ba68261217b565b611bb081856121b3565b9350611bc0818560208601612361565b611bc981612476565b840191505092915050565b6000611be16022836121b3565b9150611bec82612494565b604082019050919050565b6000611c04600283612197565b9150611c0f826124e3565b602082019050919050565b6000611c276026836121b3565b9150611c328261250c565b604082019050919050565b6000611c4a6008836121b3565b9150611c558261255b565b602082019050919050565b6000611c6d601d836121b3565b9150611c7882612584565b602082019050919050565b6000611c90602a836121b3565b9150611c9b826125ad565b604082019050919050565b6000611cb36036836121b3565b9150611cbe826125fc565b604082019050919050565b6000606083016000830151611ce16000860182611d37565b506020830151611cf46020860182611d37565b5060408301518482036040860152611d0c8282611ae9565b9150508091505092915050565b611d22816122b3565b82525050565b611d3181612340565b82525050565b611d40816122e1565b82525050565b611d4f816122e1565b82525050565b6000611d618284611ac3565b60148201915081905092915050565b6000611d7c8284611b5b565b915081905092915050565b6000602082019050611d9c6000830184611ab4565b92915050565b6000602082019050611db76000830184611aa5565b92915050565b6000604082019050611dd26000830185611ab4565b611ddf6020830184611ab4565b9392505050565b6000606082019050611dfb6000830186611ab4565b611e086020830185611ab4565b611e156040830184611d46565b949350505050565b6000604082019050611e326000830185611ab4565b611e3f6020830184611d19565b9392505050565b6000604082019050611e5b6000830185611ab4565b611e686020830184611d46565b9392505050565b6000602082019050611e846000830184611ada565b92915050565b60006020820190508181036000830152611ea48184611b9b565b905092915050565b60006020820190508181036000830152611ec581611bd4565b9050919050565b60006020820190508181036000830152611ee581611c1a565b9050919050565b600060e0820190508181036000830152611f0581611c3d565b9050611f146020830189611ab4565b611f216040830188611ab4565b611f2e6060830187611ab4565b611f3b6080830186611a96565b611f4860a0830185611d46565b611f5560c0830184611d19565b979650505050505050565b60006020820190508181036000830152611f7981611c60565b9050919050565b60006020820190508181036000830152611f9981611c83565b9050919050565b60006020820190508181036000830152611fb981611ca6565b9050919050565b6000606082019050611fd56000830186611d19565b611fe26020830185611ab4565b611fef6040830184611d46565b949350505050565b600060a08201905061200c6000830187611d19565b6120196020830186611b8c565b818103604083015261202b8185611b22565b9050818103606083015261203e81611bf7565b905081810360808301526120528184611cc9565b905095945050505050565b600061012082019050612073600083018c611d19565b612080602083018b611d28565b61208d604083018a611d28565b61209a6060830189611aa5565b6120a76080830188611d46565b6120b460a0830187611d46565b81810360c08301526120c68186611cc9565b905081810360e08301526120da8185611b22565b90508181036101008301526120ef8184611b22565b90509a9950505050505050505050565b60006020820190506121146000830184611d46565b92915050565b6000612124612135565b90506121308282612394565b919050565b6000604051905090565b600067ffffffffffffffff82111561215a57612159612447565b5b61216382612476565b9050602081019050919050565b600081519050919050565b600081519050919050565b600082825260208201905092915050565b600082825260208201905092915050565b600081905092915050565b600082825260208201905092915050565b60006121cf826122e1565b91506121da836122e1565b9250826121ea576121e9612418565b5b828204905092915050565b6000612200826122e1565b915061220b836122e1565b9250817fffffffffffffffffffffffffffffffffffffffffffffffffffffffffffffffff0483118215151615612244576122436123e9565b5b828202905092915050565b600061225a826122e1565b9150612265836122e1565b925082821015612278576122776123e9565b5b828203905092915050565b600061228e826122c1565b9050919050565b60006122a0826122c1565b9050919050565b60008115159050919050565b600061ffff82169050919050565b600073ffffffffffffffffffffffffffffffffffffffff82169050919050565b6000819050919050565b600060ff82169050919050565b60006123038261231c565b9050919050565b6000612315826122eb565b9050919050565b60006123278261232e565b9050919050565b6000612339826122c1565b9050919050565b600061234b826122b3565b9050919050565b82818337600083830152505050565b60005b8381101561237f578082015181840152602081019050612364565b8381111561238e576000848401525b50505050565b61239d82612476565b810181811067ffffffffffffffff821117156123bc576123bb612447565b5b80604052505050565b60006123d0826123d7565b9050919050565b60006123e282612487565b9050919050565b7f4e487b7100000000000000000000000000000000000000000000000000000000600052601160045260246000fd5b7f4e487b7100000000000000000000000000000000000000000000000000000000600052601260045260246000fd5b7f4e487b7100000000000000000000000000000000000000000000000000000000600052604160045260246000fd5b6000601f19601f8301169050919050565b60008160601b9050919050565b7f4c69624469616d6f6e643a204d75737420626520636f6e7472616374206f776e60008201527f6572000000000000000000000000000000000000000000000000000000000000602082015250565b7f3078000000000000000000000000000000000000000000000000000000000000600082015250565b7f416464726573733a20696e73756666696369656e742062616c616e636520666f60008201527f722063616c6c0000000000000000000000000000000000000000000000000000602082015250565b7f7374617267617465000000000000000000000000000000000000000000000000600082015250565b7f416464726573733a2063616c6c20746f206e6f6e2d636f6e7472616374000000600082015250565b7f5361666545524332303a204552433230206f7065726174696f6e20646964206e60008201527f6f74207375636365656400000000000000000000000000000000000000000000602082015250565b7f5361666545524332303a20617070726f76652066726f6d206e6f6e2d7a65726f60008201527f20746f206e6f6e2d7a65726f20616c6c6f77616e636500000000000000000000602082015250565b61265481612283565b811461265f57600080fd5b50565b61266b81612295565b811461267657600080fd5b50565b612682816122a7565b811461268d57600080fd5b50565b612699816122b3565b81146126a457600080fd5b50565b6126b0816122e1565b81146126bb57600080fd5b5056fea26469706673582212200f23424d792c902c43a7f7bd4e075a69ff490a40b415fecc1cfd99806eec326e64736f6c63430008040033",
					"opcodes": "PUSH1 0x80 PUSH1 0x40 MSTORE CALLVALUE DUP1 ISZERO PUSH2 0x10 JUMPI PUSH1 0x0 DUP1 REVERT JUMPDEST POP PUSH2 0x26F4 DUP1 PUSH2 0x20 PUSH1 0x0 CODECOPY PUSH1 0x0 RETURN INVALID PUSH1 0x80 PUSH1 0x40 MSTORE PUSH1 0x4 CALLDATASIZE LT PUSH2 0x95 JUMPI PUSH1 0x0 CALLDATALOAD PUSH1 0xE0 SHR DUP1 PUSH4 0x618C3F29 GT PUSH2 0x59 JUMPI DUP1 PUSH4 0x618C3F29 EQ PUSH2 0x182 JUMPI DUP1 PUSH4 0x6ACF5E3F EQ PUSH2 0x1BF JUMPI DUP1 PUSH4 0x90F12364 EQ PUSH2 0x1EF JUMPI DUP1 PUSH4 0xAB8236F3 EQ PUSH2 0x22C JUMPI DUP1 PUSH4 0xC722A336 EQ PUSH2 0x255 JUMPI PUSH2 0x9C JUMP JUMPDEST DUP1 PUSH4 0x217AABB7 EQ PUSH2 0xA1 JUMPI DUP1 PUSH4 0x2AAD46E3 EQ PUSH2 0xCA JUMPI DUP1 PUSH4 0x42D910C6 EQ PUSH2 0xF3 JUMPI DUP1 PUSH4 0x498EE469 EQ PUSH2 0x130 JUMPI DUP1 PUSH4 0x4BE85C35 EQ PUSH2 0x159 JUMPI PUSH2 0x9C JUMP JUMPDEST CALLDATASIZE PUSH2 0x9C JUMPI STOP JUMPDEST PUSH1 0x0 DUP1 REVERT JUMPDEST CALLVALUE DUP1 ISZERO PUSH2 0xAD JUMPI PUSH1 0x0 DUP1 REVERT JUMPDEST POP PUSH2 0xC8 PUSH1 0x4 DUP1 CALLDATASIZE SUB DUP2 ADD SWAP1 PUSH2 0xC3 SWAP2 SWAP1 PUSH2 0x1A08 JUMP JUMPDEST PUSH2 0x271 JUMP JUMPDEST STOP JUMPDEST CALLVALUE DUP1 ISZERO PUSH2 0xD6 JUMPI PUSH1 0x0 DUP1 REVERT JUMPDEST POP PUSH2 0xF1 PUSH1 0x4 DUP1 CALLDATASIZE SUB DUP2 ADD SWAP1 PUSH2 0xEC SWAP2 SWAP1 PUSH2 0x1900 JUMP JUMPDEST PUSH2 0x2C9 JUMP JUMPDEST STOP JUMPDEST CALLVALUE DUP1 ISZERO PUSH2 0xFF JUMPI PUSH1 0x0 DUP1 REVERT JUMPDEST POP PUSH2 0x11A PUSH1 0x4 DUP1 CALLDATASIZE SUB DUP2 ADD SWAP1 PUSH2 0x115 SWAP2 SWAP1 PUSH2 0x18B1 JUMP JUMPDEST PUSH2 0x37D JUMP JUMPDEST PUSH1 0x40 MLOAD PUSH2 0x127 SWAP2 SWAP1 PUSH2 0x20FF JUMP JUMPDEST PUSH1 0x40 MLOAD DUP1 SWAP2 SUB SWAP1 RETURN JUMPDEST CALLVALUE DUP1 ISZERO PUSH2 0x13C JUMPI PUSH1 0x0 DUP1 REVERT JUMPDEST POP PUSH2 0x157 PUSH1 0x4 DUP1 CALLDATASIZE SUB DUP2 ADD SWAP1 PUSH2 0x152 SWAP2 SWAP1 PUSH2 0x1822 JUMP JUMPDEST PUSH2 0x48F JUMP JUMPDEST STOP JUMPDEST CALLVALUE DUP1 ISZERO PUSH2 0x165 JUMPI PUSH1 0x0 DUP1 REVERT JUMPDEST POP PUSH2 0x180 PUSH1 0x4 DUP1 CALLDATASIZE SUB DUP2 ADD SWAP1 PUSH2 0x17B SWAP2 SWAP1 PUSH2 0x1781 JUMP JUMPDEST PUSH2 0x740 JUMP JUMPDEST STOP JUMPDEST CALLVALUE DUP1 ISZERO PUSH2 0x18E JUMPI PUSH1 0x0 DUP1 REVERT JUMPDEST POP PUSH2 0x1A9 PUSH1 0x4 DUP1 CALLDATASIZE SUB DUP2 ADD SWAP1 PUSH2 0x1A4 SWAP2 SWAP1 PUSH2 0x1A08 JUMP JUMPDEST PUSH2 0x839 JUMP JUMPDEST PUSH1 0x40 MLOAD PUSH2 0x1B6 SWAP2 SWAP1 PUSH2 0x20FF JUMP JUMPDEST PUSH1 0x40 MLOAD DUP1 SWAP2 SUB SWAP1 RETURN JUMPDEST PUSH2 0x1D9 PUSH1 0x4 DUP1 CALLDATASIZE SUB DUP2 ADD SWAP1 PUSH2 0x1D4 SWAP2 SWAP1 PUSH2 0x1887 JUMP JUMPDEST PUSH2 0x878 JUMP JUMPDEST PUSH1 0x40 MLOAD PUSH2 0x1E6 SWAP2 SWAP1 PUSH2 0x1E6F JUMP JUMPDEST PUSH1 0x40 MLOAD DUP1 SWAP2 SUB SWAP1 RETURN JUMPDEST CALLVALUE DUP1 ISZERO PUSH2 0x1FB JUMPI PUSH1 0x0 DUP1 REVERT JUMPDEST POP PUSH2 0x216 PUSH1 0x4 DUP1 CALLDATASIZE SUB DUP2 ADD SWAP1 PUSH2 0x211 SWAP2 SWAP1 PUSH2 0x1900 JUMP JUMPDEST PUSH2 0xD75 JUMP JUMPDEST PUSH1 0x40 MLOAD PUSH2 0x223 SWAP2 SWAP1 PUSH2 0x1E6F JUMP JUMPDEST PUSH1 0x40 MLOAD DUP1 SWAP2 SUB SWAP1 RETURN JUMPDEST CALLVALUE DUP1 ISZERO PUSH2 0x238 JUMPI PUSH1 0x0 DUP1 REVERT JUMPDEST POP PUSH2 0x253 PUSH1 0x4 DUP1 CALLDATASIZE SUB DUP2 ADD SWAP1 PUSH2 0x24E SWAP2 SWAP1 PUSH2 0x194F JUMP JUMPDEST PUSH2 0xDF7 JUMP JUMPDEST STOP JUMPDEST PUSH2 0x26F PUSH1 0x4 DUP1 CALLDATASIZE SUB DUP2 ADD SWAP1 PUSH2 0x26A SWAP2 SWAP1 PUSH2 0x17D3 JUMP JUMPDEST PUSH2 0xF75 JUMP JUMPDEST STOP JUMPDEST PUSH2 0x279 PUSH2 0x103A JUMP JUMPDEST PUSH1 0x0 PUSH2 0x283 PUSH2 0x10D5 JUMP JUMPDEST SWAP1 POP DUP2 DUP2 PUSH1 0x2 ADD DUP2 SWAP1 SSTORE POP PUSH32 0x45934903F6B10AFF9D3435B8362D284D95D14CA68E8554F05F04C7856A6003C0 DUP3 PUSH1 0x40 MLOAD PUSH2 0x2BD SWAP2 SWAP1 PUSH2 0x20FF JUMP JUMPDEST PUSH1 0x40 MLOAD DUP1 SWAP2 SUB SWAP1 LOG1 POP POP JUMP JUMPDEST PUSH2 0x2D1 PUSH2 0x103A JUMP JUMPDEST PUSH1 0x0 PUSH2 0x2DB PUSH2 0x10D5 JUMP JUMPDEST SWAP1 POP DUP2 DUP2 PUSH1 0x3 ADD PUSH1 0x0 DUP7 PUSH2 0xFFFF AND PUSH2 0xFFFF AND DUP2 MSTORE PUSH1 0x20 ADD SWAP1 DUP2 MSTORE PUSH1 0x20 ADD PUSH1 0x0 KECCAK256 PUSH1 0x0 DUP6 PUSH20 0xFFFFFFFFFFFFFFFFFFFFFFFFFFFFFFFFFFFFFFFF AND PUSH20 0xFFFFFFFFFFFFFFFFFFFFFFFFFFFFFFFFFFFFFFFF AND DUP2 MSTORE PUSH1 0x20 ADD SWAP1 DUP2 MSTORE PUSH1 0x20 ADD PUSH1 0x0 KECCAK256 DUP2 SWAP1 SSTORE POP PUSH32 0x5A600144B7B71CA7EE988E17E7745E8D46EB24056D4818716BE29FA976393A8E DUP5 DUP5 DUP5 PUSH1 0x40 MLOAD PUSH2 0x36F SWAP4 SWAP3 SWAP2 SWAP1 PUSH2 0x1FC0 JUMP JUMPDEST PUSH1 0x40 MLOAD DUP1 SWAP2 SUB SWAP1 LOG1 POP POP POP POP JUMP JUMPDEST PUSH1 0x0 DUP1 DUP3 PUSH20 0xFFFFFFFFFFFFFFFFFFFFFFFFFFFFFFFFFFFFFFFF AND PUSH4 0xA512369 DUP7 PUSH1 0x1 DUP8 PUSH1 0x40 MLOAD PUSH1 0x20 ADD PUSH2 0x3B0 SWAP2 SWAP1 PUSH2 0x1D55 JUMP JUMPDEST PUSH1 0x40 MLOAD PUSH1 0x20 DUP2 DUP4 SUB SUB DUP2 MSTORE SWAP1 PUSH1 0x40 MSTORE PUSH1 0x40 MLOAD DUP1 PUSH1 0x60 ADD PUSH1 0x40 MSTORE DUP1 PUSH3 0x30D40 DUP2 MSTORE PUSH1 0x20 ADD PUSH1 0x0 DUP2 MSTORE PUSH1 0x20 ADD PUSH1 0x40 MLOAD DUP1 PUSH1 0x40 ADD PUSH1 0x40 MSTORE DUP1 PUSH1 0x2 DUP2 MSTORE PUSH1 0x20 ADD PUSH32 0x3078000000000000000000000000000000000000000000000000000000000000 DUP2 MSTORE POP DUP2 MSTORE POP PUSH1 0x40 MLOAD DUP6 PUSH4 0xFFFFFFFF AND PUSH1 0xE0 SHL DUP2 MSTORE PUSH1 0x4 ADD PUSH2 0x432 SWAP5 SWAP4 SWAP3 SWAP2 SWAP1 PUSH2 0x1FF7 JUMP JUMPDEST PUSH1 0x40 DUP1 MLOAD DUP1 DUP4 SUB DUP2 DUP7 DUP1 EXTCODESIZE ISZERO DUP1 ISZERO PUSH2 0x449 JUMPI PUSH1 0x0 DUP1 REVERT JUMPDEST POP GAS STATICCALL ISZERO DUP1 ISZERO PUSH2 0x45D JUMPI RETURNDATASIZE PUSH1 0x0 DUP1 RETURNDATACOPY RETURNDATASIZE PUSH1 0x0 REVERT JUMPDEST POP POP POP POP PUSH1 0x40 MLOAD RETURNDATASIZE PUSH1 0x1F NOT PUSH1 0x1F DUP3 ADD AND DUP3 ADD DUP1 PUSH1 0x40 MSTORE POP DUP2 ADD SWAP1 PUSH2 0x481 SWAP2 SWAP1 PUSH2 0x1A5A JUMP JUMPDEST POP SWAP1 POP DUP1 SWAP2 POP POP SWAP4 SWAP3 POP POP POP JUMP JUMPDEST PUSH1 0x0 PUSH20 0xFFFFFFFFFFFFFFFFFFFFFFFFFFFFFFFFFFFFFFFF AND DUP3 PUSH20 0xFFFFFFFFFFFFFFFFFFFFFFFFFFFFFFFFFFFFFFFF AND EQ ISZERO PUSH2 0x4F6 JUMPI PUSH1 0x40 MLOAD PUSH32 0x35BE3AC800000000000000000000000000000000000000000000000000000000 DUP2 MSTORE PUSH1 0x4 ADD PUSH1 0x40 MLOAD DUP1 SWAP2 SUB SWAP1 REVERT JUMPDEST PUSH2 0x4FE PUSH2 0x103A JUMP JUMPDEST PUSH1 0x0 PUSH2 0x508 PUSH2 0x10D5 JUMP JUMPDEST SWAP1 POP DUP3 DUP2 PUSH1 0x0 ADD PUSH1 0x0 PUSH2 0x100 EXP DUP2 SLOAD DUP2 PUSH20 0xFFFFFFFFFFFFFFFFFFFFFFFFFFFFFFFFFFFFFFFF MUL NOT AND SWAP1 DUP4 PUSH20 0xFFFFFFFFFFFFFFFFFFFFFFFFFFFFFFFFFFFFFFFF AND MUL OR SWAP1 SSTORE POP DUP2 DUP2 PUSH1 0x0 ADD PUSH1 0x14 PUSH2 0x100 EXP DUP2 SLOAD DUP2 PUSH2 0xFFFF MUL NOT AND SWAP1 DUP4 PUSH2 0xFFFF AND MUL OR SWAP1 SSTORE POP PUSH1 0x32 DUP2 PUSH1 0x2 ADD DUP2 SWAP1 SSTORE POP PUSH2 0x597 PUSH1 0x1 PUSH20 0xA0B86991C6218B36C1D19D4A2E9EB0CE3606EB48 PUSH1 0x1 PUSH2 0x2C9 JUMP JUMPDEST PUSH2 0x5B8 PUSH1 0x1 PUSH20 0xDAC17F958D2EE523A2206206994597C13D831EC7 PUSH1 0x2 PUSH2 0x2C9 JUMP JUMPDEST PUSH2 0x5D9 PUSH1 0x2 PUSH20 0x55D398326F99059FF775485246999027B3197955 PUSH1 0x2 PUSH2 0x2C9 JUMP JUMPDEST PUSH2 0x5FA PUSH1 0x2 PUSH20 0xE9E7CEA3DEDCA5984780BAFC599BD69ADD087D56 PUSH1 0x5 PUSH2 0x2C9 JUMP JUMPDEST PUSH2 0x61B PUSH1 0x6 PUSH20 0xB97EF9EF8734C71904D8002F8B6BC66DD9C48A6E PUSH1 0x1 PUSH2 0x2C9 JUMP JUMPDEST PUSH2 0x63C PUSH1 0x6 PUSH20 0x9702230A8EA53601F5CD2DC00FDBC13D4DF4A8C7 PUSH1 0x2 PUSH2 0x2C9 JUMP JUMPDEST PUSH2 0x65D PUSH1 0x9 PUSH20 0x2791BCA1F2DE4661ED88A30C99A7A9449AA84174 PUSH1 0x1 PUSH2 0x2C9 JUMP JUMPDEST PUSH2 0x67E PUSH1 0x9 PUSH20 0xC2132D05D31C914A87C6611C10748AEB04B58E8F PUSH1 0x2 PUSH2 0x2C9 JUMP JUMPDEST PUSH2 0x69F PUSH1 0xA PUSH20 0xFF970A61A04B1CA14834A43F5DE4533EBDDB5CC8 PUSH1 0x1 PUSH2 0x2C9 JUMP JUMPDEST PUSH2 0x6C0 PUSH1 0xA PUSH20 0xFD086BC7CD5C481DCC9C85EBE478A1C0B69FCBB9 PUSH1 0x2 PUSH2 0x2C9 JUMP JUMPDEST PUSH2 0x6E1 PUSH1 0xB PUSH20 0x7F5C764CBC14F9669B88837CA1490CCA17C31607 PUSH1 0x1 PUSH2 0x2C9 JUMP JUMPDEST PUSH2 0x702 PUSH1 0xC PUSH20 0x4068DA6C83AFCFA0E13BA15A6696662335D5B75 PUSH1 0x1 PUSH2 0x2C9 JUMP JUMPDEST PUSH32 0xC8EC31998A27444F477C01DE93C393769FD4FC017FB63163F71F8A8AB72CCD50 DUP4 DUP4 PUSH1 0x40 MLOAD PUSH2 0x733 SWAP3 SWAP2 SWAP1 PUSH2 0x1E1D JUMP JUMPDEST PUSH1 0x40 MLOAD DUP1 SWAP2 SUB SWAP1 LOG1 POP POP POP JUMP JUMPDEST PUSH2 0x748 PUSH2 0x103A JUMP JUMPDEST PUSH1 0x0 PUSH20 0xFFFFFFFFFFFFFFFFFFFFFFFFFFFFFFFFFFFFFFFF AND DUP2 PUSH20 0xFFFFFFFFFFFFFFFFFFFFFFFFFFFFFFFFFFFFFFFF AND EQ ISZERO PUSH2 0x7AF JUMPI PUSH1 0x40 MLOAD PUSH32 0x3911C65500000000000000000000000000000000000000000000000000000000 DUP2 MSTORE PUSH1 0x4 ADD PUSH1 0x40 MLOAD DUP1 SWAP2 SUB SWAP1 REVERT JUMPDEST PUSH1 0x0 PUSH2 0x7B9 PUSH2 0x10D5 JUMP JUMPDEST SWAP1 POP DUP2 DUP2 PUSH1 0x0 ADD PUSH1 0x0 PUSH2 0x100 EXP DUP2 SLOAD DUP2 PUSH20 0xFFFFFFFFFFFFFFFFFFFFFFFFFFFFFFFFFFFFFFFF MUL NOT AND SWAP1 DUP4 PUSH20 0xFFFFFFFFFFFFFFFFFFFFFFFFFFFFFFFFFFFFFFFF AND MUL OR SWAP1 SSTORE POP PUSH32 0x9AC04272C4559BF7459414ABB5568DC1DF58AB649F0AF4AFD1510074F5CC2FEC DUP3 PUSH1 0x40 MLOAD PUSH2 0x82D SWAP2 SWAP1 PUSH2 0x1D87 JUMP JUMPDEST PUSH1 0x40 MLOAD DUP1 SWAP2 SUB SWAP1 LOG1 POP POP JUMP JUMPDEST PUSH1 0x0 DUP1 PUSH2 0x844 PUSH2 0x10D5 JUMP JUMPDEST SWAP1 POP PUSH2 0x2710 DUP2 PUSH1 0x2 ADD SLOAD PUSH2 0x2710 PUSH2 0x85B SWAP2 SWAP1 PUSH2 0x224F JUMP JUMPDEST DUP5 PUSH2 0x866 SWAP2 SWAP1 PUSH2 0x21F5 JUMP JUMPDEST PUSH2 0x870 SWAP2 SWAP1 PUSH2 0x21C4 JUMP JUMPDEST SWAP2 POP POP SWAP2 SWAP1 POP JUMP JUMPDEST PUSH1 0x0 DUP1 PUSH2 0x883 PUSH2 0x1102 JUMP JUMPDEST SWAP1 POP PUSH1 0x1 DUP2 PUSH1 0x0 ADD SLOAD EQ ISZERO PUSH2 0x8C4 JUMPI PUSH1 0x40 MLOAD PUSH32 0x29F745A700000000000000000000000000000000000000000000000000000000 DUP2 MSTORE PUSH1 0x4 ADD PUSH1 0x40 MLOAD DUP1 SWAP2 SUB SWAP1 REVERT JUMPDEST PUSH1 0x1 DUP2 PUSH1 0x0 ADD DUP2 SWAP1 SSTORE POP PUSH1 0x0 CALLVALUE GT PUSH2 0x908 JUMPI PUSH1 0x40 MLOAD PUSH32 0xB7586D1900000000000000000000000000000000000000000000000000000000 DUP2 MSTORE PUSH1 0x4 ADD PUSH1 0x40 MLOAD DUP1 SWAP2 SUB SWAP1 REVERT JUMPDEST PUSH1 0x0 DUP4 PUSH1 0x0 ADD MLOAD GT PUSH2 0x946 JUMPI PUSH1 0x40 MLOAD PUSH32 0x2C5211C600000000000000000000000000000000000000000000000000000000 DUP2 MSTORE PUSH1 0x4 ADD PUSH1 0x40 MLOAD DUP1 SWAP2 SUB SWAP1 REVERT JUMPDEST PUSH1 0x0 PUSH20 0xFFFFFFFFFFFFFFFFFFFFFFFFFFFFFFFFFFFFFFFF AND DUP4 PUSH1 0x20 ADD MLOAD PUSH20 0xFFFFFFFFFFFFFFFFFFFFFFFFFFFFFFFFFFFFFFFF AND EQ DUP1 PUSH2 0x9B5 JUMPI POP PUSH1 0x0 PUSH20 0xFFFFFFFFFFFFFFFFFFFFFFFFFFFFFFFFFFFFFFFF AND DUP4 PUSH1 0x40 ADD MLOAD PUSH20 0xFFFFFFFFFFFFFFFFFFFFFFFFFFFFFFFFFFFFFFFF AND EQ JUMPDEST DUP1 PUSH2 0x9F0 JUMPI POP PUSH1 0x0 PUSH20 0xFFFFFFFFFFFFFFFFFFFFFFFFFFFFFFFFFFFFFFFF AND DUP4 PUSH1 0xC0 ADD MLOAD PUSH20 0xFFFFFFFFFFFFFFFFFFFFFFFFFFFFFFFFFFFFFFFF AND EQ JUMPDEST DUP1 PUSH2 0xA2B JUMPI POP PUSH1 0x0 PUSH20 0xFFFFFFFFFFFFFFFFFFFFFFFFFFFFFFFFFFFFFFFF AND DUP4 PUSH1 0xE0 ADD MLOAD PUSH20 0xFFFFFFFFFFFFFFFFFFFFFFFFFFFFFFFFFFFFFFFF AND EQ JUMPDEST ISZERO PUSH2 0xA62 JUMPI PUSH1 0x40 MLOAD PUSH32 0x35BE3AC800000000000000000000000000000000000000000000000000000000 DUP2 MSTORE PUSH1 0x4 ADD PUSH1 0x40 MLOAD DUP1 SWAP2 SUB SWAP1 REVERT JUMPDEST PUSH1 0x0 PUSH2 0xA6C PUSH2 0x10D5 JUMP JUMPDEST SWAP1 POP PUSH2 0xA97 DUP2 PUSH1 0x0 ADD PUSH1 0x14 SWAP1 SLOAD SWAP1 PUSH2 0x100 EXP SWAP1 DIV PUSH2 0xFFFF AND DUP6 PUSH1 0x20 ADD MLOAD DUP7 PUSH1 0x80 ADD MLOAD PUSH2 0xFFFF AND PUSH2 0xD75 JUMP JUMPDEST PUSH2 0xACD JUMPI PUSH1 0x40 MLOAD PUSH32 0x7790CA9900000000000000000000000000000000000000000000000000000000 DUP2 MSTORE PUSH1 0x4 ADD PUSH1 0x40 MLOAD DUP1 SWAP2 SUB SWAP1 REVERT JUMPDEST PUSH2 0xAE8 DUP5 PUSH1 0x60 ADD MLOAD DUP6 PUSH1 0x40 ADD MLOAD DUP7 PUSH1 0xA0 ADD MLOAD PUSH2 0xFFFF AND PUSH2 0xD75 JUMP JUMPDEST PUSH2 0xB1E JUMPI PUSH1 0x40 MLOAD PUSH32 0x186C877F00000000000000000000000000000000000000000000000000000000 DUP2 MSTORE PUSH1 0x4 ADD PUSH1 0x40 MLOAD DUP1 SWAP2 SUB SWAP1 REVERT JUMPDEST PUSH1 0x0 PUSH2 0xB2D DUP6 PUSH1 0x0 ADD MLOAD PUSH2 0x839 JUMP JUMPDEST SWAP1 POP PUSH1 0x0 DUP6 PUSH1 0xC0 ADD MLOAD PUSH1 0x40 MLOAD PUSH1 0x20 ADD PUSH2 0xB46 SWAP2 SWAP1 PUSH2 0x1DA2 JUMP JUMPDEST PUSH1 0x40 MLOAD PUSH1 0x20 DUP2 DUP4 SUB SUB DUP2 MSTORE SWAP1 PUSH1 0x40 MSTORE SWAP1 POP PUSH2 0xB8C CALLER ADDRESS DUP9 PUSH1 0x0 ADD MLOAD DUP10 PUSH1 0x20 ADD MLOAD PUSH20 0xFFFFFFFFFFFFFFFFFFFFFFFFFFFFFFFFFFFFFFFF AND PUSH2 0x112F SWAP1 SWAP4 SWAP3 SWAP2 SWAP1 PUSH4 0xFFFFFFFF AND JUMP JUMPDEST PUSH2 0xBE3 DUP4 PUSH1 0x0 ADD PUSH1 0x0 SWAP1 SLOAD SWAP1 PUSH2 0x100 EXP SWAP1 DIV PUSH20 0xFFFFFFFFFFFFFFFFFFFFFFFFFFFFFFFFFFFFFFFF AND DUP8 PUSH1 0x0 ADD MLOAD DUP9 PUSH1 0x20 ADD MLOAD PUSH20 0xFFFFFFFFFFFFFFFFFFFFFFFFFFFFFFFFFFFFFFFF AND PUSH2 0x11B8 SWAP1 SWAP3 SWAP2 SWAP1 PUSH4 0xFFFFFFFF AND JUMP JUMPDEST DUP3 PUSH1 0x0 ADD PUSH1 0x0 SWAP1 SLOAD SWAP1 PUSH2 0x100 EXP SWAP1 DIV PUSH20 0xFFFFFFFFFFFFFFFFFFFFFFFFFFFFFFFFFFFFFFFF AND PUSH20 0xFFFFFFFFFFFFFFFFFFFFFFFFFFFFFFFFFFFFFFFF AND PUSH4 0x9FBF10FC CALLVALUE DUP9 PUSH1 0x60 ADD MLOAD DUP10 PUSH1 0x80 ADD MLOAD DUP11 PUSH1 0xA0 ADD MLOAD CALLER DUP13 PUSH1 0x0 ADD MLOAD DUP10 PUSH1 0x40 MLOAD DUP1 PUSH1 0x60 ADD PUSH1 0x40 MSTORE DUP1 PUSH3 0x30D40 DUP2 MSTORE PUSH1 0x20 ADD PUSH1 0x0 DUP2 MSTORE PUSH1 0x20 ADD PUSH1 0x40 MLOAD DUP1 PUSH1 0x40 ADD PUSH1 0x40 MSTORE DUP1 PUSH1 0x2 DUP2 MSTORE PUSH1 0x20 ADD PUSH32 0x3078000000000000000000000000000000000000000000000000000000000000 DUP2 MSTORE POP DUP2 MSTORE POP DUP16 PUSH1 0xE0 ADD MLOAD PUSH1 0x40 MLOAD PUSH1 0x20 ADD PUSH2 0xCA3 SWAP2 SWAP1 PUSH2 0x1D55 JUMP JUMPDEST PUSH1 0x40 MLOAD PUSH1 0x20 DUP2 DUP4 SUB SUB DUP2 MSTORE SWAP1 PUSH1 0x40 MSTORE DUP12 PUSH1 0x40 MLOAD DUP12 PUSH4 0xFFFFFFFF AND PUSH1 0xE0 SHL DUP2 MSTORE PUSH1 0x4 ADD PUSH2 0xCD7 SWAP10 SWAP9 SWAP8 SWAP7 SWAP6 SWAP5 SWAP4 SWAP3 SWAP2 SWAP1 PUSH2 0x205D JUMP JUMPDEST PUSH1 0x0 PUSH1 0x40 MLOAD DUP1 DUP4 SUB DUP2 DUP6 DUP9 DUP1 EXTCODESIZE ISZERO DUP1 ISZERO PUSH2 0xCF0 JUMPI PUSH1 0x0 DUP1 REVERT JUMPDEST POP GAS CALL ISZERO DUP1 ISZERO PUSH2 0xD04 JUMPI RETURNDATASIZE PUSH1 0x0 DUP1 RETURNDATACOPY RETURNDATASIZE PUSH1 0x0 REVERT JUMPDEST POP POP POP POP POP PUSH32 0x7A72E6F4A3D77F8A5A6C536A973421C5BF00107F9AEC7995661537673B8BE087 DUP7 PUSH1 0x20 ADD MLOAD DUP8 PUSH1 0x40 ADD MLOAD CALLER DUP10 PUSH1 0xC0 ADD MLOAD DUP11 PUSH1 0x0 ADD MLOAD DUP12 PUSH1 0x60 ADD MLOAD PUSH1 0x40 MLOAD PUSH2 0xD56 SWAP7 SWAP6 SWAP5 SWAP4 SWAP3 SWAP2 SWAP1 PUSH2 0x1EEC JUMP JUMPDEST PUSH1 0x40 MLOAD DUP1 SWAP2 SUB SWAP1 LOG1 PUSH1 0x1 SWAP5 POP POP POP POP PUSH1 0x0 DUP2 PUSH1 0x0 ADD DUP2 SWAP1 SSTORE POP POP SWAP2 SWAP1 POP JUMP JUMPDEST PUSH1 0x0 DUP1 PUSH2 0xD80 PUSH2 0x10D5 JUMP JUMPDEST SWAP1 POP DUP3 DUP2 PUSH1 0x3 ADD PUSH1 0x0 DUP8 PUSH2 0xFFFF AND PUSH2 0xFFFF AND DUP2 MSTORE PUSH1 0x20 ADD SWAP1 DUP2 MSTORE PUSH1 0x20 ADD PUSH1 0x0 KECCAK256 PUSH1 0x0 DUP7 PUSH20 0xFFFFFFFFFFFFFFFFFFFFFFFFFFFFFFFFFFFFFFFF AND PUSH20 0xFFFFFFFFFFFFFFFFFFFFFFFFFFFFFFFFFFFFFFFF AND DUP2 MSTORE PUSH1 0x20 ADD SWAP1 DUP2 MSTORE PUSH1 0x20 ADD PUSH1 0x0 KECCAK256 SLOAD EQ PUSH2 0xDEA JUMPI PUSH1 0x0 PUSH2 0xDED JUMP JUMPDEST PUSH1 0x1 JUMPDEST SWAP2 POP POP SWAP4 SWAP3 POP POP POP JUMP JUMPDEST PUSH1 0x0 PUSH2 0xE01 PUSH2 0x10D5 JUMP JUMPDEST SWAP1 POP DUP1 PUSH1 0x0 ADD PUSH1 0x0 SWAP1 SLOAD SWAP1 PUSH2 0x100 EXP SWAP1 DIV PUSH20 0xFFFFFFFFFFFFFFFFFFFFFFFFFFFFFFFFFFFFFFFF AND PUSH20 0xFFFFFFFFFFFFFFFFFFFFFFFFFFFFFFFFFFFFFFFF AND CALLER PUSH20 0xFFFFFFFFFFFFFFFFFFFFFFFFFFFFFFFFFFFFFFFF AND EQ PUSH2 0xE8C JUMPI PUSH1 0x40 MLOAD PUSH32 0xDADE3C7100000000000000000000000000000000000000000000000000000000 DUP2 MSTORE PUSH1 0x4 ADD PUSH1 0x40 MLOAD DUP1 SWAP2 SUB SWAP1 REVERT JUMPDEST PUSH1 0x0 DUP3 DUP1 PUSH1 0x20 ADD SWAP1 MLOAD DUP2 ADD SWAP1 PUSH2 0xEA2 SWAP2 SWAP1 PUSH2 0x17AA JUMP JUMPDEST SWAP1 POP DUP5 PUSH20 0xFFFFFFFFFFFFFFFFFFFFFFFFFFFFFFFFFFFFFFFF AND PUSH4 0xA9059CBB DUP3 DUP7 PUSH1 0x40 MLOAD DUP4 PUSH4 0xFFFFFFFF AND PUSH1 0xE0 SHL DUP2 MSTORE PUSH1 0x4 ADD PUSH2 0xEDF SWAP3 SWAP2 SWAP1 PUSH2 0x1E46 JUMP JUMPDEST PUSH1 0x20 PUSH1 0x40 MLOAD DUP1 DUP4 SUB DUP2 PUSH1 0x0 DUP8 DUP1 EXTCODESIZE ISZERO DUP1 ISZERO PUSH2 0xEF9 JUMPI PUSH1 0x0 DUP1 REVERT JUMPDEST POP GAS CALL ISZERO DUP1 ISZERO PUSH2 0xF0D JUMPI RETURNDATASIZE PUSH1 0x0 DUP1 RETURNDATACOPY RETURNDATASIZE PUSH1 0x0 REVERT JUMPDEST POP POP POP POP PUSH1 0x40 MLOAD RETURNDATASIZE PUSH1 0x1F NOT PUSH1 0x1F DUP3 ADD AND DUP3 ADD DUP1 PUSH1 0x40 MSTORE POP DUP2 ADD SWAP1 PUSH2 0xF31 SWAP2 SWAP1 PUSH2 0x185E JUMP JUMPDEST POP PUSH32 0x827E3293895509EF037B7438D4E009F37AD7B2562A14695D9DFD9CB065984218 DUP6 DUP6 PUSH1 0x40 MLOAD PUSH2 0xF63 SWAP3 SWAP2 SWAP1 PUSH2 0x1E46 JUMP JUMPDEST PUSH1 0x40 MLOAD DUP1 SWAP2 SUB SWAP1 LOG1 POP POP POP POP POP POP POP POP JUMP JUMPDEST PUSH1 0x0 PUSH2 0xF7F PUSH2 0x1102 JUMP JUMPDEST SWAP1 POP PUSH1 0x1 DUP2 PUSH1 0x0 ADD SLOAD EQ ISZERO PUSH2 0xFC0 JUMPI PUSH1 0x40 MLOAD PUSH32 0x29F745A700000000000000000000000000000000000000000000000000000000 DUP2 MSTORE PUSH1 0x4 ADD PUSH1 0x40 MLOAD DUP1 SWAP2 SUB SWAP1 REVERT JUMPDEST PUSH1 0x1 DUP2 PUSH1 0x0 ADD DUP2 SWAP1 SSTORE POP PUSH2 0xFD2 PUSH2 0x103A JUMP JUMPDEST PUSH2 0xFFD ADDRESS DUP4 DUP7 PUSH20 0xFFFFFFFFFFFFFFFFFFFFFFFFFFFFFFFFFFFFFFFF AND PUSH2 0x11B8 SWAP1 SWAP3 SWAP2 SWAP1 PUSH4 0xFFFFFFFF AND JUMP JUMPDEST PUSH2 0x102A ADDRESS DUP5 DUP5 DUP8 PUSH20 0xFFFFFFFFFFFFFFFFFFFFFFFFFFFFFFFFFFFFFFFF AND PUSH2 0x112F SWAP1 SWAP4 SWAP3 SWAP2 SWAP1 PUSH4 0xFFFFFFFF AND JUMP JUMPDEST PUSH1 0x0 DUP2 PUSH1 0x0 ADD DUP2 SWAP1 SSTORE POP POP POP POP POP JUMP JUMPDEST PUSH2 0x1042 PUSH2 0x1316 JUMP JUMPDEST PUSH1 0x4 ADD PUSH1 0x0 SWAP1 SLOAD SWAP1 PUSH2 0x100 EXP SWAP1 DIV PUSH20 0xFFFFFFFFFFFFFFFFFFFFFFFFFFFFFFFFFFFFFFFF AND PUSH20 0xFFFFFFFFFFFFFFFFFFFFFFFFFFFFFFFFFFFFFFFF AND CALLER PUSH20 0xFFFFFFFFFFFFFFFFFFFFFFFFFFFFFFFFFFFFFFFF AND EQ PUSH2 0x10D3 JUMPI PUSH1 0x40 MLOAD PUSH32 0x8C379A000000000000000000000000000000000000000000000000000000000 DUP2 MSTORE PUSH1 0x4 ADD PUSH2 0x10CA SWAP1 PUSH2 0x1EAC JUMP JUMPDEST PUSH1 0x40 MLOAD DUP1 SWAP2 SUB SWAP1 REVERT JUMPDEST JUMP JUMPDEST PUSH1 0x0 DUP1 PUSH32 0xBAEADB48CBCF0176D6C6AC156B0140ABE0FB28A100A9A6A8B5DF37E55693B1C8 SWAP1 POP DUP1 SWAP2 POP POP SWAP1 JUMP JUMPDEST PUSH1 0x0 DUP1 PUSH32 0xA65BB2F450488AB0858C00EDC14ABC5297769BF42ADB48CFB77752890E8B697B SWAP1 POP DUP1 SWAP2 POP POP SWAP1 JUMP JUMPDEST PUSH2 0x11B2 DUP5 PUSH4 0x23B872DD PUSH1 0xE0 SHL DUP6 DUP6 DUP6 PUSH1 0x40 MLOAD PUSH1 0x24 ADD PUSH2 0x1150 SWAP4 SWAP3 SWAP2 SWAP1 PUSH2 0x1DE6 JUMP JUMPDEST PUSH1 0x40 MLOAD PUSH1 0x20 DUP2 DUP4 SUB SUB DUP2 MSTORE SWAP1 PUSH1 0x40 MSTORE SWAP1 PUSH28 0xFFFFFFFFFFFFFFFFFFFFFFFFFFFFFFFFFFFFFFFFFFFFFFFFFFFFFFFF NOT AND PUSH1 0x20 DUP3 ADD DUP1 MLOAD PUSH28 0xFFFFFFFFFFFFFFFFFFFFFFFFFFFFFFFFFFFFFFFFFFFFFFFFFFFFFFFF DUP4 DUP2 DUP4 AND OR DUP4 MSTORE POP POP POP POP PUSH2 0x1343 JUMP JUMPDEST POP POP POP POP JUMP JUMPDEST PUSH1 0x0 DUP2 EQ DUP1 PUSH2 0x1251 JUMPI POP PUSH1 0x0 DUP4 PUSH20 0xFFFFFFFFFFFFFFFFFFFFFFFFFFFFFFFFFFFFFFFF AND PUSH4 0xDD62ED3E ADDRESS DUP6 PUSH1 0x40 MLOAD DUP4 PUSH4 0xFFFFFFFF AND PUSH1 0xE0 SHL DUP2 MSTORE PUSH1 0x4 ADD PUSH2 0x11FF SWAP3 SWAP2 SWAP1 PUSH2 0x1DBD JUMP JUMPDEST PUSH1 0x20 PUSH1 0x40 MLOAD DUP1 DUP4 SUB DUP2 DUP7 DUP1 EXTCODESIZE ISZERO DUP1 ISZERO PUSH2 0x1217 JUMPI PUSH1 0x0 DUP1 REVERT JUMPDEST POP GAS STATICCALL ISZERO DUP1 ISZERO PUSH2 0x122B JUMPI RETURNDATASIZE PUSH1 0x0 DUP1 RETURNDATACOPY RETURNDATASIZE PUSH1 0x0 REVERT JUMPDEST POP POP POP POP PUSH1 0x40 MLOAD RETURNDATASIZE PUSH1 0x1F NOT PUSH1 0x1F DUP3 ADD AND DUP3 ADD DUP1 PUSH1 0x40 MSTORE POP DUP2 ADD SWAP1 PUSH2 0x124F SWAP2 SWAP1 PUSH2 0x1A31 JUMP JUMPDEST EQ JUMPDEST PUSH2 0x1290 JUMPI PUSH1 0x40 MLOAD PUSH32 0x8C379A000000000000000000000000000000000000000000000000000000000 DUP2 MSTORE PUSH1 0x4 ADD PUSH2 0x1287 SWAP1 PUSH2 0x1FA0 JUMP JUMPDEST PUSH1 0x40 MLOAD DUP1 SWAP2 SUB SWAP1 REVERT JUMPDEST PUSH2 0x1311 DUP4 PUSH4 0x95EA7B3 PUSH1 0xE0 SHL DUP5 DUP5 PUSH1 0x40 MLOAD PUSH1 0x24 ADD PUSH2 0x12AF SWAP3 SWAP2 SWAP1 PUSH2 0x1E46 JUMP JUMPDEST PUSH1 0x40 MLOAD PUSH1 0x20 DUP2 DUP4 SUB SUB DUP2 MSTORE SWAP1 PUSH1 0x40 MSTORE SWAP1 PUSH28 0xFFFFFFFFFFFFFFFFFFFFFFFFFFFFFFFFFFFFFFFFFFFFFFFFFFFFFFFF NOT AND PUSH1 0x20 DUP3 ADD DUP1 MLOAD PUSH28 0xFFFFFFFFFFFFFFFFFFFFFFFFFFFFFFFFFFFFFFFFFFFFFFFFFFFFFFFF DUP4 DUP2 DUP4 AND OR DUP4 MSTORE POP POP POP POP PUSH2 0x1343 JUMP JUMPDEST POP POP POP JUMP JUMPDEST PUSH1 0x0 DUP1 PUSH32 0xC8FCAD8DB84D3CC18B4C41D551EA0EE66DD599CDE068D998E57D5E09332C131C SWAP1 POP DUP1 SWAP2 POP POP SWAP1 JUMP JUMPDEST PUSH1 0x0 PUSH2 0x13A5 DUP3 PUSH1 0x40 MLOAD DUP1 PUSH1 0x40 ADD PUSH1 0x40 MSTORE DUP1 PUSH1 0x20 DUP2 MSTORE PUSH1 0x20 ADD PUSH32 0x5361666545524332303A206C6F772D6C6576656C2063616C6C206661696C6564 DUP2 MSTORE POP DUP6 PUSH20 0xFFFFFFFFFFFFFFFFFFFFFFFFFFFFFFFFFFFFFFFF AND PUSH2 0x140A SWAP1 SWAP3 SWAP2 SWAP1 PUSH4 0xFFFFFFFF AND JUMP JUMPDEST SWAP1 POP PUSH1 0x0 DUP2 MLOAD GT ISZERO PUSH2 0x1405 JUMPI DUP1 DUP1 PUSH1 0x20 ADD SWAP1 MLOAD DUP2 ADD SWAP1 PUSH2 0x13C5 SWAP2 SWAP1 PUSH2 0x185E JUMP JUMPDEST PUSH2 0x1404 JUMPI PUSH1 0x40 MLOAD PUSH32 0x8C379A000000000000000000000000000000000000000000000000000000000 DUP2 MSTORE PUSH1 0x4 ADD PUSH2 0x13FB SWAP1 PUSH2 0x1F80 JUMP JUMPDEST PUSH1 0x40 MLOAD DUP1 SWAP2 SUB SWAP1 REVERT JUMPDEST JUMPDEST POP POP POP JUMP JUMPDEST PUSH1 0x60 PUSH2 0x1419 DUP5 DUP5 PUSH1 0x0 DUP6 PUSH2 0x1422 JUMP JUMPDEST SWAP1 POP SWAP4 SWAP3 POP POP POP JUMP JUMPDEST PUSH1 0x60 DUP3 SELFBALANCE LT ISZERO PUSH2 0x1467 JUMPI PUSH1 0x40 MLOAD PUSH32 0x8C379A000000000000000000000000000000000000000000000000000000000 DUP2 MSTORE PUSH1 0x4 ADD PUSH2 0x145E SWAP1 PUSH2 0x1ECC JUMP JUMPDEST PUSH1 0x40 MLOAD DUP1 SWAP2 SUB SWAP1 REVERT JUMPDEST PUSH2 0x1470 DUP6 PUSH2 0x1536 JUMP JUMPDEST PUSH2 0x14AF JUMPI PUSH1 0x40 MLOAD PUSH32 0x8C379A000000000000000000000000000000000000000000000000000000000 DUP2 MSTORE PUSH1 0x4 ADD PUSH2 0x14A6 SWAP1 PUSH2 0x1F60 JUMP JUMPDEST PUSH1 0x40 MLOAD DUP1 SWAP2 SUB SWAP1 REVERT JUMPDEST PUSH1 0x0 DUP1 DUP7 PUSH20 0xFFFFFFFFFFFFFFFFFFFFFFFFFFFFFFFFFFFFFFFF AND DUP6 DUP8 PUSH1 0x40 MLOAD PUSH2 0x14D8 SWAP2 SWAP1 PUSH2 0x1D70 JUMP JUMPDEST PUSH1 0x0 PUSH1 0x40 MLOAD DUP1 DUP4 SUB DUP2 DUP6 DUP8 GAS CALL SWAP3 POP POP POP RETURNDATASIZE DUP1 PUSH1 0x0 DUP2 EQ PUSH2 0x1515 JUMPI PUSH1 0x40 MLOAD SWAP2 POP PUSH1 0x1F NOT PUSH1 0x3F RETURNDATASIZE ADD AND DUP3 ADD PUSH1 0x40 MSTORE RETURNDATASIZE DUP3 MSTORE RETURNDATASIZE PUSH1 0x0 PUSH1 0x20 DUP5 ADD RETURNDATACOPY PUSH2 0x151A JUMP JUMPDEST PUSH1 0x60 SWAP2 POP JUMPDEST POP SWAP2 POP SWAP2 POP PUSH2 0x152A DUP3 DUP3 DUP7 PUSH2 0x1559 JUMP JUMPDEST SWAP3 POP POP POP SWAP5 SWAP4 POP POP POP POP JUMP JUMPDEST PUSH1 0x0 DUP1 DUP3 PUSH20 0xFFFFFFFFFFFFFFFFFFFFFFFFFFFFFFFFFFFFFFFF AND EXTCODESIZE GT SWAP1 POP SWAP2 SWAP1 POP JUMP JUMPDEST PUSH1 0x60 DUP4 ISZERO PUSH2 0x1569 JUMPI DUP3 SWAP1 POP PUSH2 0x15B9 JUMP JUMPDEST PUSH1 0x0 DUP4 MLOAD GT ISZERO PUSH2 0x157C JUMPI DUP3 MLOAD DUP1 DUP5 PUSH1 0x20 ADD REVERT JUMPDEST DUP2 PUSH1 0x40 MLOAD PUSH32 0x8C379A000000000000000000000000000000000000000000000000000000000 DUP2 MSTORE PUSH1 0x4 ADD PUSH2 0x15B0 SWAP2 SWAP1 PUSH2 0x1E8A JUMP JUMPDEST PUSH1 0x40 MLOAD DUP1 SWAP2 SUB SWAP1 REVERT JUMPDEST SWAP4 SWAP3 POP POP POP JUMP JUMPDEST PUSH1 0x0 PUSH2 0x15D3 PUSH2 0x15CE DUP5 PUSH2 0x213F JUMP JUMPDEST PUSH2 0x211A JUMP JUMPDEST SWAP1 POP DUP3 DUP2 MSTORE PUSH1 0x20 DUP2 ADD DUP5 DUP5 DUP5 ADD GT ISZERO PUSH2 0x15EB JUMPI PUSH1 0x0 DUP1 REVERT JUMPDEST PUSH2 0x15F6 DUP5 DUP3 DUP6 PUSH2 0x2352 JUMP JUMPDEST POP SWAP4 SWAP3 POP POP POP JUMP JUMPDEST PUSH1 0x0 DUP2 CALLDATALOAD SWAP1 POP PUSH2 0x160D DUP2 PUSH2 0x264B JUMP JUMPDEST SWAP3 SWAP2 POP POP JUMP JUMPDEST PUSH1 0x0 DUP2 CALLDATALOAD SWAP1 POP PUSH2 0x1622 DUP2 PUSH2 0x2662 JUMP JUMPDEST SWAP3 SWAP2 POP POP JUMP JUMPDEST PUSH1 0x0 DUP2 MLOAD SWAP1 POP PUSH2 0x1637 DUP2 PUSH2 0x2662 JUMP JUMPDEST SWAP3 SWAP2 POP POP JUMP JUMPDEST PUSH1 0x0 DUP2 MLOAD SWAP1 POP PUSH2 0x164C DUP2 PUSH2 0x2679 JUMP JUMPDEST SWAP3 SWAP2 POP POP JUMP JUMPDEST PUSH1 0x0 DUP3 PUSH1 0x1F DUP4 ADD SLT PUSH2 0x1663 JUMPI PUSH1 0x0 DUP1 REVERT JUMPDEST DUP2 CALLDATALOAD PUSH2 0x1673 DUP5 DUP3 PUSH1 0x20 DUP7 ADD PUSH2 0x15C0 JUMP JUMPDEST SWAP2 POP POP SWAP3 SWAP2 POP POP JUMP JUMPDEST PUSH1 0x0 PUSH2 0x100 DUP3 DUP5 SUB SLT ISZERO PUSH2 0x168F JUMPI PUSH1 0x0 DUP1 REVERT JUMPDEST PUSH2 0x169A PUSH2 0x100 PUSH2 0x211A JUMP JUMPDEST SWAP1 POP PUSH1 0x0 PUSH2 0x16AA DUP5 DUP3 DUP6 ADD PUSH2 0x1757 JUMP JUMPDEST PUSH1 0x0 DUP4 ADD MSTORE POP PUSH1 0x20 PUSH2 0x16BE DUP5 DUP3 DUP6 ADD PUSH2 0x15FE JUMP JUMPDEST PUSH1 0x20 DUP4 ADD MSTORE POP PUSH1 0x40 PUSH2 0x16D2 DUP5 DUP3 DUP6 ADD PUSH2 0x15FE JUMP JUMPDEST PUSH1 0x40 DUP4 ADD MSTORE POP PUSH1 0x60 PUSH2 0x16E6 DUP5 DUP3 DUP6 ADD PUSH2 0x1742 JUMP JUMPDEST PUSH1 0x60 DUP4 ADD MSTORE POP PUSH1 0x80 PUSH2 0x16FA DUP5 DUP3 DUP6 ADD PUSH2 0x1742 JUMP JUMPDEST PUSH1 0x80 DUP4 ADD MSTORE POP PUSH1 0xA0 PUSH2 0x170E DUP5 DUP3 DUP6 ADD PUSH2 0x1742 JUMP JUMPDEST PUSH1 0xA0 DUP4 ADD MSTORE POP PUSH1 0xC0 PUSH2 0x1722 DUP5 DUP3 DUP6 ADD PUSH2 0x1613 JUMP JUMPDEST PUSH1 0xC0 DUP4 ADD MSTORE POP PUSH1 0xE0 PUSH2 0x1736 DUP5 DUP3 DUP6 ADD PUSH2 0x15FE JUMP JUMPDEST PUSH1 0xE0 DUP4 ADD MSTORE POP SWAP3 SWAP2 POP POP JUMP JUMPDEST PUSH1 0x0 DUP2 CALLDATALOAD SWAP1 POP PUSH2 0x1751 DUP2 PUSH2 0x2690 JUMP JUMPDEST SWAP3 SWAP2 POP POP JUMP JUMPDEST PUSH1 0x0 DUP2 CALLDATALOAD SWAP1 POP PUSH2 0x1766 DUP2 PUSH2 0x26A7 JUMP JUMPDEST SWAP3 SWAP2 POP POP JUMP JUMPDEST PUSH1 0x0 DUP2 MLOAD SWAP1 POP PUSH2 0x177B DUP2 PUSH2 0x26A7 JUMP JUMPDEST SWAP3 SWAP2 POP POP JUMP JUMPDEST PUSH1 0x0 PUSH1 0x20 DUP3 DUP5 SUB SLT ISZERO PUSH2 0x1793 JUMPI PUSH1 0x0 DUP1 REVERT JUMPDEST PUSH1 0x0 PUSH2 0x17A1 DUP5 DUP3 DUP6 ADD PUSH2 0x15FE JUMP JUMPDEST SWAP2 POP POP SWAP3 SWAP2 POP POP JUMP JUMPDEST PUSH1 0x0 PUSH1 0x20 DUP3 DUP5 SUB SLT ISZERO PUSH2 0x17BC JUMPI PUSH1 0x0 DUP1 REVERT JUMPDEST PUSH1 0x0 PUSH2 0x17CA DUP5 DUP3 DUP6 ADD PUSH2 0x1628 JUMP JUMPDEST SWAP2 POP POP SWAP3 SWAP2 POP POP JUMP JUMPDEST PUSH1 0x0 DUP1 PUSH1 0x0 PUSH1 0x60 DUP5 DUP7 SUB SLT ISZERO PUSH2 0x17E8 JUMPI PUSH1 0x0 DUP1 REVERT JUMPDEST PUSH1 0x0 PUSH2 0x17F6 DUP7 DUP3 DUP8 ADD PUSH2 0x15FE JUMP JUMPDEST SWAP4 POP POP PUSH1 0x20 PUSH2 0x1807 DUP7 DUP3 DUP8 ADD PUSH2 0x15FE JUMP JUMPDEST SWAP3 POP POP PUSH1 0x40 PUSH2 0x1818 DUP7 DUP3 DUP8 ADD PUSH2 0x1757 JUMP JUMPDEST SWAP2 POP POP SWAP3 POP SWAP3 POP SWAP3 JUMP JUMPDEST PUSH1 0x0 DUP1 PUSH1 0x40 DUP4 DUP6 SUB SLT ISZERO PUSH2 0x1835 JUMPI PUSH1 0x0 DUP1 REVERT JUMPDEST PUSH1 0x0 PUSH2 0x1843 DUP6 DUP3 DUP7 ADD PUSH2 0x15FE JUMP JUMPDEST SWAP3 POP POP PUSH1 0x20 PUSH2 0x1854 DUP6 DUP3 DUP7 ADD PUSH2 0x1742 JUMP JUMPDEST SWAP2 POP POP SWAP3 POP SWAP3 SWAP1 POP JUMP JUMPDEST PUSH1 0x0 PUSH1 0x20 DUP3 DUP5 SUB SLT ISZERO PUSH2 0x1870 JUMPI PUSH1 0x0 DUP1 REVERT JUMPDEST PUSH1 0x0 PUSH2 0x187E DUP5 DUP3 DUP6 ADD PUSH2 0x163D JUMP JUMPDEST SWAP2 POP POP SWAP3 SWAP2 POP POP JUMP JUMPDEST PUSH1 0x0 PUSH2 0x100 DUP3 DUP5 SUB SLT ISZERO PUSH2 0x189A JUMPI PUSH1 0x0 DUP1 REVERT JUMPDEST PUSH1 0x0 PUSH2 0x18A8 DUP5 DUP3 DUP6 ADD PUSH2 0x167C JUMP JUMPDEST SWAP2 POP POP SWAP3 SWAP2 POP POP JUMP JUMPDEST PUSH1 0x0 DUP1 PUSH1 0x0 PUSH1 0x60 DUP5 DUP7 SUB SLT ISZERO PUSH2 0x18C6 JUMPI PUSH1 0x0 DUP1 REVERT JUMPDEST PUSH1 0x0 PUSH2 0x18D4 DUP7 DUP3 DUP8 ADD PUSH2 0x1742 JUMP JUMPDEST SWAP4 POP POP PUSH1 0x20 PUSH2 0x18E5 DUP7 DUP3 DUP8 ADD PUSH2 0x15FE JUMP JUMPDEST SWAP3 POP POP PUSH1 0x40 PUSH2 0x18F6 DUP7 DUP3 DUP8 ADD PUSH2 0x15FE JUMP JUMPDEST SWAP2 POP POP SWAP3 POP SWAP3 POP SWAP3 JUMP JUMPDEST PUSH1 0x0 DUP1 PUSH1 0x0 PUSH1 0x60 DUP5 DUP7 SUB SLT ISZERO PUSH2 0x1915 JUMPI PUSH1 0x0 DUP1 REVERT JUMPDEST PUSH1 0x0 PUSH2 0x1923 DUP7 DUP3 DUP8 ADD PUSH2 0x1742 JUMP JUMPDEST SWAP4 POP POP PUSH1 0x20 PUSH2 0x1934 DUP7 DUP3 DUP8 ADD PUSH2 0x15FE JUMP JUMPDEST SWAP3 POP POP PUSH1 0x40 PUSH2 0x1945 DUP7 DUP3 DUP8 ADD PUSH2 0x1757 JUMP JUMPDEST SWAP2 POP POP SWAP3 POP SWAP3 POP SWAP3 JUMP JUMPDEST PUSH1 0x0 DUP1 PUSH1 0x0 DUP1 PUSH1 0x0 DUP1 PUSH1 0xC0 DUP8 DUP10 SUB SLT ISZERO PUSH2 0x1968 JUMPI PUSH1 0x0 DUP1 REVERT JUMPDEST PUSH1 0x0 PUSH2 0x1976 DUP10 DUP3 DUP11 ADD PUSH2 0x1742 JUMP JUMPDEST SWAP7 POP POP PUSH1 0x20 DUP8 ADD CALLDATALOAD PUSH8 0xFFFFFFFFFFFFFFFF DUP2 GT ISZERO PUSH2 0x1993 JUMPI PUSH1 0x0 DUP1 REVERT JUMPDEST PUSH2 0x199F DUP10 DUP3 DUP11 ADD PUSH2 0x1652 JUMP JUMPDEST SWAP6 POP POP PUSH1 0x40 PUSH2 0x19B0 DUP10 DUP3 DUP11 ADD PUSH2 0x1757 JUMP JUMPDEST SWAP5 POP POP PUSH1 0x60 PUSH2 0x19C1 DUP10 DUP3 DUP11 ADD PUSH2 0x15FE JUMP JUMPDEST SWAP4 POP POP PUSH1 0x80 PUSH2 0x19D2 DUP10 DUP3 DUP11 ADD PUSH2 0x1757 JUMP JUMPDEST SWAP3 POP POP PUSH1 0xA0 DUP8 ADD CALLDATALOAD PUSH8 0xFFFFFFFFFFFFFFFF DUP2 GT ISZERO PUSH2 0x19EF JUMPI PUSH1 0x0 DUP1 REVERT JUMPDEST PUSH2 0x19FB DUP10 DUP3 DUP11 ADD PUSH2 0x1652 JUMP JUMPDEST SWAP2 POP POP SWAP3 SWAP6 POP SWAP3 SWAP6 POP SWAP3 SWAP6 JUMP JUMPDEST PUSH1 0x0 PUSH1 0x20 DUP3 DUP5 SUB SLT ISZERO PUSH2 0x1A1A JUMPI PUSH1 0x0 DUP1 REVERT JUMPDEST PUSH1 0x0 PUSH2 0x1A28 DUP5 DUP3 DUP6 ADD PUSH2 0x1757 JUMP JUMPDEST SWAP2 POP POP SWAP3 SWAP2 POP POP JUMP JUMPDEST PUSH1 0x0 PUSH1 0x20 DUP3 DUP5 SUB SLT ISZERO PUSH2 0x1A43 JUMPI PUSH1 0x0 DUP1 REVERT JUMPDEST PUSH1 0x0 PUSH2 0x1A51 DUP5 DUP3 DUP6 ADD PUSH2 0x176C JUMP JUMPDEST SWAP2 POP POP SWAP3 SWAP2 POP POP JUMP JUMPDEST PUSH1 0x0 DUP1 PUSH1 0x40 DUP4 DUP6 SUB SLT ISZERO PUSH2 0x1A6D JUMPI PUSH1 0x0 DUP1 REVERT JUMPDEST PUSH1 0x0 PUSH2 0x1A7B DUP6 DUP3 DUP7 ADD PUSH2 0x176C JUMP JUMPDEST SWAP3 POP POP PUSH1 0x20 PUSH2 0x1A8C DUP6 DUP3 DUP7 ADD PUSH2 0x176C JUMP JUMPDEST SWAP2 POP POP SWAP3 POP SWAP3 SWAP1 POP JUMP JUMPDEST PUSH2 0x1A9F DUP2 PUSH2 0x22F8 JUMP JUMPDEST DUP3 MSTORE POP POP JUMP JUMPDEST PUSH2 0x1AAE DUP2 PUSH2 0x2295 JUMP JUMPDEST DUP3 MSTORE POP POP JUMP JUMPDEST PUSH2 0x1ABD DUP2 PUSH2 0x2283 JUMP JUMPDEST DUP3 MSTORE POP POP JUMP JUMPDEST PUSH2 0x1AD4 PUSH2 0x1ACF DUP3 PUSH2 0x2283 JUMP JUMPDEST PUSH2 0x23C5 JUMP JUMPDEST DUP3 MSTORE POP POP JUMP JUMPDEST PUSH2 0x1AE3 DUP2 PUSH2 0x22A7 JUMP JUMPDEST DUP3 MSTORE POP POP JUMP JUMPDEST PUSH1 0x0 PUSH2 0x1AF4 DUP3 PUSH2 0x2170 JUMP JUMPDEST PUSH2 0x1AFE DUP2 DUP6 PUSH2 0x2186 JUMP JUMPDEST SWAP4 POP PUSH2 0x1B0E DUP2 DUP6 PUSH1 0x20 DUP7 ADD PUSH2 0x2361 JUMP JUMPDEST PUSH2 0x1B17 DUP2 PUSH2 0x2476 JUMP JUMPDEST DUP5 ADD SWAP2 POP POP SWAP3 SWAP2 POP POP JUMP JUMPDEST PUSH1 0x0 PUSH2 0x1B2D DUP3 PUSH2 0x2170 JUMP JUMPDEST PUSH2 0x1B37 DUP2 DUP6 PUSH2 0x2197 JUMP JUMPDEST SWAP4 POP PUSH2 0x1B47 DUP2 DUP6 PUSH1 0x20 DUP7 ADD PUSH2 0x2361 JUMP JUMPDEST PUSH2 0x1B50 DUP2 PUSH2 0x2476 JUMP JUMPDEST DUP5 ADD SWAP2 POP POP SWAP3 SWAP2 POP POP JUMP JUMPDEST PUSH1 0x0 PUSH2 0x1B66 DUP3 PUSH2 0x2170 JUMP JUMPDEST PUSH2 0x1B70 DUP2 DUP6 PUSH2 0x21A8 JUMP JUMPDEST SWAP4 POP PUSH2 0x1B80 DUP2 DUP6 PUSH1 0x20 DUP7 ADD PUSH2 0x2361 JUMP JUMPDEST DUP1 DUP5 ADD SWAP2 POP POP SWAP3 SWAP2 POP POP JUMP JUMPDEST PUSH2 0x1B95 DUP2 PUSH2 0x230A JUMP JUMPDEST DUP3 MSTORE POP POP JUMP JUMPDEST PUSH1 0x0 PUSH2 0x1BA6 DUP3 PUSH2 0x217B JUMP JUMPDEST PUSH2 0x1BB0 DUP2 DUP6 PUSH2 0x21B3 JUMP JUMPDEST SWAP4 POP PUSH2 0x1BC0 DUP2 DUP6 PUSH1 0x20 DUP7 ADD PUSH2 0x2361 JUMP JUMPDEST PUSH2 0x1BC9 DUP2 PUSH2 0x2476 JUMP JUMPDEST DUP5 ADD SWAP2 POP POP SWAP3 SWAP2 POP POP JUMP JUMPDEST PUSH1 0x0 PUSH2 0x1BE1 PUSH1 0x22 DUP4 PUSH2 0x21B3 JUMP JUMPDEST SWAP2 POP PUSH2 0x1BEC DUP3 PUSH2 0x2494 JUMP JUMPDEST PUSH1 0x40 DUP3 ADD SWAP1 POP SWAP2 SWAP1 POP JUMP JUMPDEST PUSH1 0x0 PUSH2 0x1C04 PUSH1 0x2 DUP4 PUSH2 0x2197 JUMP JUMPDEST SWAP2 POP PUSH2 0x1C0F DUP3 PUSH2 0x24E3 JUMP JUMPDEST PUSH1 0x20 DUP3 ADD SWAP1 POP SWAP2 SWAP1 POP JUMP JUMPDEST PUSH1 0x0 PUSH2 0x1C27 PUSH1 0x26 DUP4 PUSH2 0x21B3 JUMP JUMPDEST SWAP2 POP PUSH2 0x1C32 DUP3 PUSH2 0x250C JUMP JUMPDEST PUSH1 0x40 DUP3 ADD SWAP1 POP SWAP2 SWAP1 POP JUMP JUMPDEST PUSH1 0x0 PUSH2 0x1C4A PUSH1 0x8 DUP4 PUSH2 0x21B3 JUMP JUMPDEST SWAP2 POP PUSH2 0x1C55 DUP3 PUSH2 0x255B JUMP JUMPDEST PUSH1 0x20 DUP3 ADD SWAP1 POP SWAP2 SWAP1 POP JUMP JUMPDEST PUSH1 0x0 PUSH2 0x1C6D PUSH1 0x1D DUP4 PUSH2 0x21B3 JUMP JUMPDEST SWAP2 POP PUSH2 0x1C78 DUP3 PUSH2 0x2584 JUMP JUMPDEST PUSH1 0x20 DUP3 ADD SWAP1 POP SWAP2 SWAP1 POP JUMP JUMPDEST PUSH1 0x0 PUSH2 0x1C90 PUSH1 0x2A DUP4 PUSH2 0x21B3 JUMP JUMPDEST SWAP2 POP PUSH2 0x1C9B DUP3 PUSH2 0x25AD JUMP JUMPDEST PUSH1 0x40 DUP3 ADD SWAP1 POP SWAP2 SWAP1 POP JUMP JUMPDEST PUSH1 0x0 PUSH2 0x1CB3 PUSH1 0x36 DUP4 PUSH2 0x21B3 JUMP JUMPDEST SWAP2 POP PUSH2 0x1CBE DUP3 PUSH2 0x25FC JUMP JUMPDEST PUSH1 0x40 DUP3 ADD SWAP1 POP SWAP2 SWAP1 POP JUMP JUMPDEST PUSH1 0x0 PUSH1 0x60 DUP4 ADD PUSH1 0x0 DUP4 ADD MLOAD PUSH2 0x1CE1 PUSH1 0x0 DUP7 ADD DUP3 PUSH2 0x1D37 JUMP JUMPDEST POP PUSH1 0x20 DUP4 ADD MLOAD PUSH2 0x1CF4 PUSH1 0x20 DUP7 ADD DUP3 PUSH2 0x1D37 JUMP JUMPDEST POP PUSH1 0x40 DUP4 ADD MLOAD DUP5 DUP3 SUB PUSH1 0x40 DUP7 ADD MSTORE PUSH2 0x1D0C DUP3 DUP3 PUSH2 0x1AE9 JUMP JUMPDEST SWAP2 POP POP DUP1 SWAP2 POP POP SWAP3 SWAP2 POP POP JUMP JUMPDEST PUSH2 0x1D22 DUP2 PUSH2 0x22B3 JUMP JUMPDEST DUP3 MSTORE POP POP JUMP JUMPDEST PUSH2 0x1D31 DUP2 PUSH2 0x2340 JUMP JUMPDEST DUP3 MSTORE POP POP JUMP JUMPDEST PUSH2 0x1D40 DUP2 PUSH2 0x22E1 JUMP JUMPDEST DUP3 MSTORE POP POP JUMP JUMPDEST PUSH2 0x1D4F DUP2 PUSH2 0x22E1 JUMP JUMPDEST DUP3 MSTORE POP POP JUMP JUMPDEST PUSH1 0x0 PUSH2 0x1D61 DUP3 DUP5 PUSH2 0x1AC3 JUMP JUMPDEST PUSH1 0x14 DUP3 ADD SWAP2 POP DUP2 SWAP1 POP SWAP3 SWAP2 POP POP JUMP JUMPDEST PUSH1 0x0 PUSH2 0x1D7C DUP3 DUP5 PUSH2 0x1B5B JUMP JUMPDEST SWAP2 POP DUP2 SWAP1 POP SWAP3 SWAP2 POP POP JUMP JUMPDEST PUSH1 0x0 PUSH1 0x20 DUP3 ADD SWAP1 POP PUSH2 0x1D9C PUSH1 0x0 DUP4 ADD DUP5 PUSH2 0x1AB4 JUMP JUMPDEST SWAP3 SWAP2 POP POP JUMP JUMPDEST PUSH1 0x0 PUSH1 0x20 DUP3 ADD SWAP1 POP PUSH2 0x1DB7 PUSH1 0x0 DUP4 ADD DUP5 PUSH2 0x1AA5 JUMP JUMPDEST SWAP3 SWAP2 POP POP JUMP JUMPDEST PUSH1 0x0 PUSH1 0x40 DUP3 ADD SWAP1 POP PUSH2 0x1DD2 PUSH1 0x0 DUP4 ADD DUP6 PUSH2 0x1AB4 JUMP JUMPDEST PUSH2 0x1DDF PUSH1 0x20 DUP4 ADD DUP5 PUSH2 0x1AB4 JUMP JUMPDEST SWAP4 SWAP3 POP POP POP JUMP JUMPDEST PUSH1 0x0 PUSH1 0x60 DUP3 ADD SWAP1 POP PUSH2 0x1DFB PUSH1 0x0 DUP4 ADD DUP7 PUSH2 0x1AB4 JUMP JUMPDEST PUSH2 0x1E08 PUSH1 0x20 DUP4 ADD DUP6 PUSH2 0x1AB4 JUMP JUMPDEST PUSH2 0x1E15 PUSH1 0x40 DUP4 ADD DUP5 PUSH2 0x1D46 JUMP JUMPDEST SWAP5 SWAP4 POP POP POP POP JUMP JUMPDEST PUSH1 0x0 PUSH1 0x40 DUP3 ADD SWAP1 POP PUSH2 0x1E32 PUSH1 0x0 DUP4 ADD DUP6 PUSH2 0x1AB4 JUMP JUMPDEST PUSH2 0x1E3F PUSH1 0x20 DUP4 ADD DUP5 PUSH2 0x1D19 JUMP JUMPDEST SWAP4 SWAP3 POP POP POP JUMP JUMPDEST PUSH1 0x0 PUSH1 0x40 DUP3 ADD SWAP1 POP PUSH2 0x1E5B PUSH1 0x0 DUP4 ADD DUP6 PUSH2 0x1AB4 JUMP JUMPDEST PUSH2 0x1E68 PUSH1 0x20 DUP4 ADD DUP5 PUSH2 0x1D46 JUMP JUMPDEST SWAP4 SWAP3 POP POP POP JUMP JUMPDEST PUSH1 0x0 PUSH1 0x20 DUP3 ADD SWAP1 POP PUSH2 0x1E84 PUSH1 0x0 DUP4 ADD DUP5 PUSH2 0x1ADA JUMP JUMPDEST SWAP3 SWAP2 POP POP JUMP JUMPDEST PUSH1 0x0 PUSH1 0x20 DUP3 ADD SWAP1 POP DUP2 DUP2 SUB PUSH1 0x0 DUP4 ADD MSTORE PUSH2 0x1EA4 DUP2 DUP5 PUSH2 0x1B9B JUMP JUMPDEST SWAP1 POP SWAP3 SWAP2 POP POP JUMP JUMPDEST PUSH1 0x0 PUSH1 0x20 DUP3 ADD SWAP1 POP DUP2 DUP2 SUB PUSH1 0x0 DUP4 ADD MSTORE PUSH2 0x1EC5 DUP2 PUSH2 0x1BD4 JUMP JUMPDEST SWAP1 POP SWAP2 SWAP1 POP JUMP JUMPDEST PUSH1 0x0 PUSH1 0x20 DUP3 ADD SWAP1 POP DUP2 DUP2 SUB PUSH1 0x0 DUP4 ADD MSTORE PUSH2 0x1EE5 DUP2 PUSH2 0x1C1A JUMP JUMPDEST SWAP1 POP SWAP2 SWAP1 POP JUMP JUMPDEST PUSH1 0x0 PUSH1 0xE0 DUP3 ADD SWAP1 POP DUP2 DUP2 SUB PUSH1 0x0 DUP4 ADD MSTORE PUSH2 0x1F05 DUP2 PUSH2 0x1C3D JUMP JUMPDEST SWAP1 POP PUSH2 0x1F14 PUSH1 0x20 DUP4 ADD DUP10 PUSH2 0x1AB4 JUMP JUMPDEST PUSH2 0x1F21 PUSH1 0x40 DUP4 ADD DUP9 PUSH2 0x1AB4 JUMP JUMPDEST PUSH2 0x1F2E PUSH1 0x60 DUP4 ADD DUP8 PUSH2 0x1AB4 JUMP JUMPDEST PUSH2 0x1F3B PUSH1 0x80 DUP4 ADD DUP7 PUSH2 0x1A96 JUMP JUMPDEST PUSH2 0x1F48 PUSH1 0xA0 DUP4 ADD DUP6 PUSH2 0x1D46 JUMP JUMPDEST PUSH2 0x1F55 PUSH1 0xC0 DUP4 ADD DUP5 PUSH2 0x1D19 JUMP JUMPDEST SWAP8 SWAP7 POP POP POP POP POP POP POP JUMP JUMPDEST PUSH1 0x0 PUSH1 0x20 DUP3 ADD SWAP1 POP DUP2 DUP2 SUB PUSH1 0x0 DUP4 ADD MSTORE PUSH2 0x1F79 DUP2 PUSH2 0x1C60 JUMP JUMPDEST SWAP1 POP SWAP2 SWAP1 POP JUMP JUMPDEST PUSH1 0x0 PUSH1 0x20 DUP3 ADD SWAP1 POP DUP2 DUP2 SUB PUSH1 0x0 DUP4 ADD MSTORE PUSH2 0x1F99 DUP2 PUSH2 0x1C83 JUMP JUMPDEST SWAP1 POP SWAP2 SWAP1 POP JUMP JUMPDEST PUSH1 0x0 PUSH1 0x20 DUP3 ADD SWAP1 POP DUP2 DUP2 SUB PUSH1 0x0 DUP4 ADD MSTORE PUSH2 0x1FB9 DUP2 PUSH2 0x1CA6 JUMP JUMPDEST SWAP1 POP SWAP2 SWAP1 POP JUMP JUMPDEST PUSH1 0x0 PUSH1 0x60 DUP3 ADD SWAP1 POP PUSH2 0x1FD5 PUSH1 0x0 DUP4 ADD DUP7 PUSH2 0x1D19 JUMP JUMPDEST PUSH2 0x1FE2 PUSH1 0x20 DUP4 ADD DUP6 PUSH2 0x1AB4 JUMP JUMPDEST PUSH2 0x1FEF PUSH1 0x40 DUP4 ADD DUP5 PUSH2 0x1D46 JUMP JUMPDEST SWAP5 SWAP4 POP POP POP POP JUMP JUMPDEST PUSH1 0x0 PUSH1 0xA0 DUP3 ADD SWAP1 POP PUSH2 0x200C PUSH1 0x0 DUP4 ADD DUP8 PUSH2 0x1D19 JUMP JUMPDEST PUSH2 0x2019 PUSH1 0x20 DUP4 ADD DUP7 PUSH2 0x1B8C JUMP JUMPDEST DUP2 DUP2 SUB PUSH1 0x40 DUP4 ADD MSTORE PUSH2 0x202B DUP2 DUP6 PUSH2 0x1B22 JUMP JUMPDEST SWAP1 POP DUP2 DUP2 SUB PUSH1 0x60 DUP4 ADD MSTORE PUSH2 0x203E DUP2 PUSH2 0x1BF7 JUMP JUMPDEST SWAP1 POP DUP2 DUP2 SUB PUSH1 0x80 DUP4 ADD MSTORE PUSH2 0x2052 DUP2 DUP5 PUSH2 0x1CC9 JUMP JUMPDEST SWAP1 POP SWAP6 SWAP5 POP POP POP POP POP JUMP JUMPDEST PUSH1 0x0 PUSH2 0x120 DUP3 ADD SWAP1 POP PUSH2 0x2073 PUSH1 0x0 DUP4 ADD DUP13 PUSH2 0x1D19 JUMP JUMPDEST PUSH2 0x2080 PUSH1 0x20 DUP4 ADD DUP12 PUSH2 0x1D28 JUMP JUMPDEST PUSH2 0x208D PUSH1 0x40 DUP4 ADD DUP11 PUSH2 0x1D28 JUMP JUMPDEST PUSH2 0x209A PUSH1 0x60 DUP4 ADD DUP10 PUSH2 0x1AA5 JUMP JUMPDEST PUSH2 0x20A7 PUSH1 0x80 DUP4 ADD DUP9 PUSH2 0x1D46 JUMP JUMPDEST PUSH2 0x20B4 PUSH1 0xA0 DUP4 ADD DUP8 PUSH2 0x1D46 JUMP JUMPDEST DUP2 DUP2 SUB PUSH1 0xC0 DUP4 ADD MSTORE PUSH2 0x20C6 DUP2 DUP7 PUSH2 0x1CC9 JUMP JUMPDEST SWAP1 POP DUP2 DUP2 SUB PUSH1 0xE0 DUP4 ADD MSTORE PUSH2 0x20DA DUP2 DUP6 PUSH2 0x1B22 JUMP JUMPDEST SWAP1 POP DUP2 DUP2 SUB PUSH2 0x100 DUP4 ADD MSTORE PUSH2 0x20EF DUP2 DUP5 PUSH2 0x1B22 JUMP JUMPDEST SWAP1 POP SWAP11 SWAP10 POP POP POP POP POP POP POP POP POP POP JUMP JUMPDEST PUSH1 0x0 PUSH1 0x20 DUP3 ADD SWAP1 POP PUSH2 0x2114 PUSH1 0x0 DUP4 ADD DUP5 PUSH2 0x1D46 JUMP JUMPDEST SWAP3 SWAP2 POP POP JUMP JUMPDEST PUSH1 0x0 PUSH2 0x2124 PUSH2 0x2135 JUMP JUMPDEST SWAP1 POP PUSH2 0x2130 DUP3 DUP3 PUSH2 0x2394 JUMP JUMPDEST SWAP2 SWAP1 POP JUMP JUMPDEST PUSH1 0x0 PUSH1 0x40 MLOAD SWAP1 POP SWAP1 JUMP JUMPDEST PUSH1 0x0 PUSH8 0xFFFFFFFFFFFFFFFF DUP3 GT ISZERO PUSH2 0x215A JUMPI PUSH2 0x2159 PUSH2 0x2447 JUMP JUMPDEST JUMPDEST PUSH2 0x2163 DUP3 PUSH2 0x2476 JUMP JUMPDEST SWAP1 POP PUSH1 0x20 DUP2 ADD SWAP1 POP SWAP2 SWAP1 POP JUMP JUMPDEST PUSH1 0x0 DUP2 MLOAD SWAP1 POP SWAP2 SWAP1 POP JUMP JUMPDEST PUSH1 0x0 DUP2 MLOAD SWAP1 POP SWAP2 SWAP1 POP JUMP JUMPDEST PUSH1 0x0 DUP3 DUP3 MSTORE PUSH1 0x20 DUP3 ADD SWAP1 POP SWAP3 SWAP2 POP POP JUMP JUMPDEST PUSH1 0x0 DUP3 DUP3 MSTORE PUSH1 0x20 DUP3 ADD SWAP1 POP SWAP3 SWAP2 POP POP JUMP JUMPDEST PUSH1 0x0 DUP2 SWAP1 POP SWAP3 SWAP2 POP POP JUMP JUMPDEST PUSH1 0x0 DUP3 DUP3 MSTORE PUSH1 0x20 DUP3 ADD SWAP1 POP SWAP3 SWAP2 POP POP JUMP JUMPDEST PUSH1 0x0 PUSH2 0x21CF DUP3 PUSH2 0x22E1 JUMP JUMPDEST SWAP2 POP PUSH2 0x21DA DUP4 PUSH2 0x22E1 JUMP JUMPDEST SWAP3 POP DUP3 PUSH2 0x21EA JUMPI PUSH2 0x21E9 PUSH2 0x2418 JUMP JUMPDEST JUMPDEST DUP3 DUP3 DIV SWAP1 POP SWAP3 SWAP2 POP POP JUMP JUMPDEST PUSH1 0x0 PUSH2 0x2200 DUP3 PUSH2 0x22E1 JUMP JUMPDEST SWAP2 POP PUSH2 0x220B DUP4 PUSH2 0x22E1 JUMP JUMPDEST SWAP3 POP DUP2 PUSH32 0xFFFFFFFFFFFFFFFFFFFFFFFFFFFFFFFFFFFFFFFFFFFFFFFFFFFFFFFFFFFFFFFF DIV DUP4 GT DUP3 ISZERO ISZERO AND ISZERO PUSH2 0x2244 JUMPI PUSH2 0x2243 PUSH2 0x23E9 JUMP JUMPDEST JUMPDEST DUP3 DUP3 MUL SWAP1 POP SWAP3 SWAP2 POP POP JUMP JUMPDEST PUSH1 0x0 PUSH2 0x225A DUP3 PUSH2 0x22E1 JUMP JUMPDEST SWAP2 POP PUSH2 0x2265 DUP4 PUSH2 0x22E1 JUMP JUMPDEST SWAP3 POP DUP3 DUP3 LT ISZERO PUSH2 0x2278 JUMPI PUSH2 0x2277 PUSH2 0x23E9 JUMP JUMPDEST JUMPDEST DUP3 DUP3 SUB SWAP1 POP SWAP3 SWAP2 POP POP JUMP JUMPDEST PUSH1 0x0 PUSH2 0x228E DUP3 PUSH2 0x22C1 JUMP JUMPDEST SWAP1 POP SWAP2 SWAP1 POP JUMP JUMPDEST PUSH1 0x0 PUSH2 0x22A0 DUP3 PUSH2 0x22C1 JUMP JUMPDEST SWAP1 POP SWAP2 SWAP1 POP JUMP JUMPDEST PUSH1 0x0 DUP2 ISZERO ISZERO SWAP1 POP SWAP2 SWAP1 POP JUMP JUMPDEST PUSH1 0x0 PUSH2 0xFFFF DUP3 AND SWAP1 POP SWAP2 SWAP1 POP JUMP JUMPDEST PUSH1 0x0 PUSH20 0xFFFFFFFFFFFFFFFFFFFFFFFFFFFFFFFFFFFFFFFF DUP3 AND SWAP1 POP SWAP2 SWAP1 POP JUMP JUMPDEST PUSH1 0x0 DUP2 SWAP1 POP SWAP2 SWAP1 POP JUMP JUMPDEST PUSH1 0x0 PUSH1 0xFF DUP3 AND SWAP1 POP SWAP2 SWAP1 POP JUMP JUMPDEST PUSH1 0x0 PUSH2 0x2303 DUP3 PUSH2 0x231C JUMP JUMPDEST SWAP1 POP SWAP2 SWAP1 POP JUMP JUMPDEST PUSH1 0x0 PUSH2 0x2315 DUP3 PUSH2 0x22EB JUMP JUMPDEST SWAP1 POP SWAP2 SWAP1 POP JUMP JUMPDEST PUSH1 0x0 PUSH2 0x2327 DUP3 PUSH2 0x232E JUMP JUMPDEST SWAP1 POP SWAP2 SWAP1 POP JUMP JUMPDEST PUSH1 0x0 PUSH2 0x2339 DUP3 PUSH2 0x22C1 JUMP JUMPDEST SWAP1 POP SWAP2 SWAP1 POP JUMP JUMPDEST PUSH1 0x0 PUSH2 0x234B DUP3 PUSH2 0x22B3 JUMP JUMPDEST SWAP1 POP SWAP2 SWAP1 POP JUMP JUMPDEST DUP3 DUP2 DUP4 CALLDATACOPY PUSH1 0x0 DUP4 DUP4 ADD MSTORE POP POP POP JUMP JUMPDEST PUSH1 0x0 JUMPDEST DUP4 DUP2 LT ISZERO PUSH2 0x237F JUMPI DUP1 DUP3 ADD MLOAD DUP2 DUP5 ADD MSTORE PUSH1 0x20 DUP2 ADD SWAP1 POP PUSH2 0x2364 JUMP JUMPDEST DUP4 DUP2 GT ISZERO PUSH2 0x238E JUMPI PUSH1 0x0 DUP5 DUP5 ADD MSTORE JUMPDEST POP POP POP POP JUMP JUMPDEST PUSH2 0x239D DUP3 PUSH2 0x2476 JUMP JUMPDEST DUP2 ADD DUP2 DUP2 LT PUSH8 0xFFFFFFFFFFFFFFFF DUP3 GT OR ISZERO PUSH2 0x23BC JUMPI PUSH2 0x23BB PUSH2 0x2447 JUMP JUMPDEST JUMPDEST DUP1 PUSH1 0x40 MSTORE POP POP POP JUMP JUMPDEST PUSH1 0x0 PUSH2 0x23D0 DUP3 PUSH2 0x23D7 JUMP JUMPDEST SWAP1 POP SWAP2 SWAP1 POP JUMP JUMPDEST PUSH1 0x0 PUSH2 0x23E2 DUP3 PUSH2 0x2487 JUMP JUMPDEST SWAP1 POP SWAP2 SWAP1 POP JUMP JUMPDEST PUSH32 0x4E487B7100000000000000000000000000000000000000000000000000000000 PUSH1 0x0 MSTORE PUSH1 0x11 PUSH1 0x4 MSTORE PUSH1 0x24 PUSH1 0x0 REVERT JUMPDEST PUSH32 0x4E487B7100000000000000000000000000000000000000000000000000000000 PUSH1 0x0 MSTORE PUSH1 0x12 PUSH1 0x4 MSTORE PUSH1 0x24 PUSH1 0x0 REVERT JUMPDEST PUSH32 0x4E487B7100000000000000000000000000000000000000000000000000000000 PUSH1 0x0 MSTORE PUSH1 0x41 PUSH1 0x4 MSTORE PUSH1 0x24 PUSH1 0x0 REVERT JUMPDEST PUSH1 0x0 PUSH1 0x1F NOT PUSH1 0x1F DUP4 ADD AND SWAP1 POP SWAP2 SWAP1 POP JUMP JUMPDEST PUSH1 0x0 DUP2 PUSH1 0x60 SHL SWAP1 POP SWAP2 SWAP1 POP JUMP JUMPDEST PUSH32 0x4C69624469616D6F6E643A204D75737420626520636F6E7472616374206F776E PUSH1 0x0 DUP3 ADD MSTORE PUSH32 0x6572000000000000000000000000000000000000000000000000000000000000 PUSH1 0x20 DUP3 ADD MSTORE POP JUMP JUMPDEST PUSH32 0x3078000000000000000000000000000000000000000000000000000000000000 PUSH1 0x0 DUP3 ADD MSTORE POP JUMP JUMPDEST PUSH32 0x416464726573733A20696E73756666696369656E742062616C616E636520666F PUSH1 0x0 DUP3 ADD MSTORE PUSH32 0x722063616C6C0000000000000000000000000000000000000000000000000000 PUSH1 0x20 DUP3 ADD MSTORE POP JUMP JUMPDEST PUSH32 0x7374617267617465000000000000000000000000000000000000000000000000 PUSH1 0x0 DUP3 ADD MSTORE POP JUMP JUMPDEST PUSH32 0x416464726573733A2063616C6C20746F206E6F6E2D636F6E7472616374000000 PUSH1 0x0 DUP3 ADD MSTORE POP JUMP JUMPDEST PUSH32 0x5361666545524332303A204552433230206F7065726174696F6E20646964206E PUSH1 0x0 DUP3 ADD MSTORE PUSH32 0x6F74207375636365656400000000000000000000000000000000000000000000 PUSH1 0x20 DUP3 ADD MSTORE POP JUMP JUMPDEST PUSH32 0x5361666545524332303A20617070726F76652066726F6D206E6F6E2D7A65726F PUSH1 0x0 DUP3 ADD MSTORE PUSH32 0x20746F206E6F6E2D7A65726F20616C6C6F77616E636500000000000000000000 PUSH1 0x20 DUP3 ADD MSTORE POP JUMP JUMPDEST PUSH2 0x2654 DUP2 PUSH2 0x2283 JUMP JUMPDEST DUP2 EQ PUSH2 0x265F JUMPI PUSH1 0x0 DUP1 REVERT JUMPDEST POP JUMP JUMPDEST PUSH2 0x266B DUP2 PUSH2 0x2295 JUMP JUMPDEST DUP2 EQ PUSH2 0x2676 JUMPI PUSH1 0x0 DUP1 REVERT JUMPDEST POP JUMP JUMPDEST PUSH2 0x2682 DUP2 PUSH2 0x22A7 JUMP JUMPDEST DUP2 EQ PUSH2 0x268D JUMPI PUSH1 0x0 DUP1 REVERT JUMPDEST POP JUMP JUMPDEST PUSH2 0x2699 DUP2 PUSH2 0x22B3 JUMP JUMPDEST DUP2 EQ PUSH2 0x26A4 JUMPI PUSH1 0x0 DUP1 REVERT JUMPDEST POP JUMP JUMPDEST PUSH2 0x26B0 DUP2 PUSH2 0x22E1 JUMP JUMPDEST DUP2 EQ PUSH2 0x26BB JUMPI PUSH1 0x0 DUP1 REVERT JUMPDEST POP JUMP INVALID LOG2 PUSH5 0x6970667358 0x22 SLT KECCAK256 0xF 0x23 TIMESTAMP 0x4D PUSH26 0x2C902C43A7F7BD4E075A69FF490A40B415FECC1CFD99806EEC32 PUSH15 0x64736F6C6343000804003300000000 "
				},
				"gasEstimates": {
					"creation": {
						"codeDepositCost": "1994400",
						"executionCost": "2113",
						"totalCost": "1996513"
					},
					"external": {
						"sgAddPool(uint16,address,uint256)": "infinite",
						"sgBridgeTokens((uint256,address,address,uint16,uint16,uint16,address,address))": "infinite",
						"sgCalculateFees(uint16,address,address)": "infinite",
						"sgCheckPoolId(uint16,address,uint256)": "2131",
						"sgInitialize(address,uint16)": "infinite",
						"sgMinAmountOut(uint256)": "infinite",
						"sgReceive(uint16,bytes,uint256,address,uint256,bytes)": "infinite",
						"sgUpdateRouter(address)": "infinite",
						"sgUpdateSlippageTolerance(uint256)": "infinite",
						"sgWithdraw(address,address,uint256)": "infinite"
					},
					"internal": {
						"getStorage()": "36"
					}
				},
				"methodIdentifiers": {
					"sgAddPool(uint16,address,uint256)": "2aad46e3",
					"sgBridgeTokens((uint256,address,address,uint16,uint16,uint16,address,address))": "6acf5e3f",
					"sgCalculateFees(uint16,address,address)": "42d910c6",
					"sgCheckPoolId(uint16,address,uint256)": "90f12364",
					"sgInitialize(address,uint16)": "498ee469",
					"sgMinAmountOut(uint256)": "618c3f29",
					"sgReceive(uint16,bytes,uint256,address,uint256,bytes)": "ab8236f3",
					"sgUpdateRouter(address)": "4be85c35",
					"sgUpdateSlippageTolerance(uint256)": "217aabb7",
					"sgWithdraw(address,address,uint256)": "c722a336"
				}
			},
			"storageLayout": {
				"storage": [],
				"types": null
			},
			"userdoc": {
				"errors": {
					"ReentrancyError()": [
						{
							"notice": "Errors ///"
						}
					]
				},
				"kind": "user",
				"methods": {
					"sgInitialize(address,uint16)": {
						"notice": "initializes state variables for the Stargate facet"
					}
				},
				"notice": "Stargate/LayerZero intergration for bridging tokens",
				"version": 1
			}
		}
	}
}