{
	"bridges/facets/CBridgeFacet.sol": {
		"CBridgeFacet": {
			"abi": [
				{
					"inputs": [],
					"name": "CannotBridgeToSameNetwork",
					"type": "error"
				},
				{
					"inputs": [],
					"name": "InvalidAmount",
					"type": "error"
				},
				{
					"inputs": [],
					"name": "InvalidConfig",
					"type": "error"
				},
				{
					"inputs": [],
					"name": "NativeValueWithERC",
					"type": "error"
				},
				{
					"inputs": [],
					"name": "NoTransferToNullAddress",
					"type": "error"
				},
				{
					"inputs": [],
					"name": "NullAddrIsNotAValidSpender",
					"type": "error"
				},
				{
					"inputs": [],
					"name": "NullAddrIsNotAnERC20Token",
					"type": "error"
				},
				{
					"anonymous": false,
					"inputs": [
						{
							"indexed": false,
							"internalType": "address",
							"name": "cBridge",
							"type": "address"
						},
						{
							"indexed": false,
							"internalType": "uint256",
							"name": "chainId",
							"type": "uint256"
						}
					],
					"name": "CBridgeInitialized",
					"type": "event"
				},
				{
					"anonymous": false,
					"inputs": [
						{
							"indexed": false,
							"internalType": "string",
							"name": "bridgeUsed",
							"type": "string"
						},
						{
							"indexed": false,
							"internalType": "address",
							"name": "tokenAddress",
							"type": "address"
						},
						{
							"indexed": false,
							"internalType": "address",
							"name": "from",
							"type": "address"
						},
						{
							"indexed": false,
							"internalType": "address",
							"name": "to",
							"type": "address"
						},
						{
							"indexed": false,
							"internalType": "uint256",
							"name": "amount",
							"type": "uint256"
						},
						{
							"indexed": false,
							"internalType": "uint256",
							"name": "chainIdTo",
							"type": "uint256"
						}
					],
					"name": "TransferStarted",
					"type": "event"
				},
				{
					"anonymous": false,
					"inputs": [
						{
							"indexed": false,
							"internalType": "address",
							"name": "newAddress",
							"type": "address"
						}
					],
					"name": "UpdatedCBridgeAddress",
					"type": "event"
				},
				{
					"inputs": [
						{
							"components": [
								{
									"internalType": "uint32",
									"name": "maxSlippage",
									"type": "uint32"
								},
								{
									"internalType": "uint64",
									"name": "dstChainId",
									"type": "uint64"
								},
								{
									"internalType": "uint64",
									"name": "nonce",
									"type": "uint64"
								},
								{
									"internalType": "uint256",
									"name": "amount",
									"type": "uint256"
								},
								{
									"internalType": "address",
									"name": "receiver",
									"type": "address"
								},
								{
									"internalType": "address",
									"name": "token",
									"type": "address"
								}
							],
							"internalType": "struct CBridgeFacet.CBridgeData",
							"name": "_cBridgeData",
							"type": "tuple"
						}
					],
					"name": "bridgeTokensCBridge",
					"outputs": [],
					"stateMutability": "payable",
					"type": "function"
				},
				{
					"inputs": [],
					"name": "cBridge",
					"outputs": [
						{
							"internalType": "address",
							"name": "",
							"type": "address"
						}
					],
					"stateMutability": "view",
					"type": "function"
				},
				{
					"inputs": [],
					"name": "chainId",
					"outputs": [
						{
							"internalType": "uint256",
							"name": "",
							"type": "uint256"
						}
					],
					"stateMutability": "view",
					"type": "function"
				},
				{
					"inputs": [
						{
							"internalType": "address",
							"name": "_cBridge",
							"type": "address"
						},
						{
							"internalType": "uint256",
							"name": "_chainId",
							"type": "uint256"
						}
					],
					"name": "initializeCBridge",
					"outputs": [],
					"stateMutability": "nonpayable",
					"type": "function"
				}
			],
			"devdoc": {
				"kind": "dev",
				"methods": {
					"bridgeTokensCBridge((uint32,uint64,uint64,uint256,address,address))": {
						"params": {
							"_cBridgeData": ": provides necessary data for cBridge transfer"
						}
					},
					"initializeCBridge(address,uint256)": {
						"params": {
							"_cBridge": "address of the canonical CBridge router contract",
							"_chainId": "chainId of this deployed contract"
						}
					}
				},
				"version": 1
			},
			"evm": {
				"assembly": "    /* \"bridges/facets/CBridgeFacet.sol\":673:3822  contract CBridgeFacet is ReentrancyGuard {... */\n  mstore(0x40, 0x80)\n  callvalue\n  dup1\n  iszero\n  tag_1\n  jumpi\n  0x00\n  dup1\n  revert\ntag_1:\n  pop\n    /* \"@openzeppelin/contracts/security/ReentrancyGuard.sol\":1701:1702  1 */\n  0x01\n    /* \"@openzeppelin/contracts/security/ReentrancyGuard.sol\":1806:1813  _status */\n  0x00\n    /* \"@openzeppelin/contracts/security/ReentrancyGuard.sol\":1806:1828  _status = _NOT_ENTERED */\n  dup2\n  swap1\n  sstore\n  pop\n    /* \"bridges/facets/CBridgeFacet.sol\":673:3822  contract CBridgeFacet is ReentrancyGuard {... */\n  dataSize(sub_0)\n  dup1\n  dataOffset(sub_0)\n  0x00\n  codecopy\n  0x00\n  return\nstop\n\nsub_0: assembly {\n        /* \"bridges/facets/CBridgeFacet.sol\":673:3822  contract CBridgeFacet is ReentrancyGuard {... */\n      mstore(0x40, 0x80)\n      jumpi(tag_1, lt(calldatasize, 0x04))\n      shr(0xe0, calldataload(0x00))\n      dup1\n      0x36d4b75f\n      eq\n      tag_2\n      jumpi\n      dup1\n      0x5277cbc7\n      eq\n      tag_3\n      jumpi\n      dup1\n      0x9a8a0592\n      eq\n      tag_4\n      jumpi\n      dup1\n      0xfc613675\n      eq\n      tag_5\n      jumpi\n    tag_1:\n      0x00\n      dup1\n      revert\n        /* \"bridges/facets/CBridgeFacet.sol\":1807:1829  address public cBridge */\n    tag_2:\n      callvalue\n      dup1\n      iszero\n      tag_6\n      jumpi\n      0x00\n      dup1\n      revert\n    tag_6:\n      pop\n      tag_7\n      tag_8\n      jump\t// in\n    tag_7:\n      mload(0x40)\n      tag_9\n      swap2\n      swap1\n      tag_10\n      jump\t// in\n    tag_9:\n      mload(0x40)\n      dup1\n      swap2\n      sub\n      swap1\n      return\n        /* \"bridges/facets/CBridgeFacet.sol\":2551:3013  function bridgeTokensCBridge(CBridgeData calldata _cBridgeData)... */\n    tag_3:\n      tag_11\n      0x04\n      dup1\n      calldatasize\n      sub\n      dup2\n      add\n      swap1\n      tag_12\n      swap2\n      swap1\n      tag_13\n      jump\t// in\n    tag_12:\n      tag_14\n      jump\t// in\n    tag_11:\n      stop\n        /* \"bridges/facets/CBridgeFacet.sol\":1835:1857  uint256 public chainId */\n    tag_4:\n      callvalue\n      dup1\n      iszero\n      tag_15\n      jumpi\n      0x00\n      dup1\n      revert\n    tag_15:\n      pop\n      tag_16\n      tag_17\n      jump\t// in\n    tag_16:\n      mload(0x40)\n      tag_18\n      swap2\n      swap1\n      tag_19\n      jump\t// in\n    tag_18:\n      mload(0x40)\n      dup1\n      swap2\n      sub\n      swap1\n      return\n        /* \"bridges/facets/CBridgeFacet.sol\":2061:2429  function initializeCBridge(address _cBridge, uint256 _chainId) external {... */\n    tag_5:\n      callvalue\n      dup1\n      iszero\n      tag_20\n      jumpi\n      0x00\n      dup1\n      revert\n    tag_20:\n      pop\n      tag_21\n      0x04\n      dup1\n      calldatasize\n      sub\n      dup2\n      add\n      swap1\n      tag_22\n      swap2\n      swap1\n      tag_23\n      jump\t// in\n    tag_22:\n      tag_24\n      jump\t// in\n    tag_21:\n      stop\n        /* \"bridges/facets/CBridgeFacet.sol\":1807:1829  address public cBridge */\n    tag_8:\n      0x01\n      0x00\n      swap1\n      sload\n      swap1\n      0x0100\n      exp\n      swap1\n      div\n      0xffffffffffffffffffffffffffffffffffffffff\n      and\n      dup2\n      jump\t// out\n        /* \"bridges/facets/CBridgeFacet.sol\":2551:3013  function bridgeTokensCBridge(CBridgeData calldata _cBridgeData)... */\n    tag_14:\n        /* \"@openzeppelin/contracts/security/ReentrancyGuard.sol\":1744:1745  2 */\n      0x02\n        /* \"@openzeppelin/contracts/security/ReentrancyGuard.sol\":2325:2332  _status */\n      sload(0x00)\n        /* \"@openzeppelin/contracts/security/ReentrancyGuard.sol\":2325:2344  _status != _ENTERED */\n      eq\n      iszero\n        /* \"@openzeppelin/contracts/security/ReentrancyGuard.sol\":2317:2380  require(_status != _ENTERED, \"ReentrancyGuard: reentrant call\") */\n      tag_26\n      jumpi\n      mload(0x40)\n      0x08c379a000000000000000000000000000000000000000000000000000000000\n      dup2\n      mstore\n      0x04\n      add\n      tag_27\n      swap1\n      tag_28\n      jump\t// in\n    tag_27:\n      mload(0x40)\n      dup1\n      swap2\n      sub\n      swap1\n      revert\n    tag_26:\n        /* \"@openzeppelin/contracts/security/ReentrancyGuard.sol\":1744:1745  2 */\n      0x02\n        /* \"@openzeppelin/contracts/security/ReentrancyGuard.sol\":2455:2462  _status */\n      0x00\n        /* \"@openzeppelin/contracts/security/ReentrancyGuard.sol\":2455:2473  _status = _ENTERED */\n      dup2\n      swap1\n      sstore\n      pop\n        /* \"bridges/facets/CBridgeFacet.sol\":2683:2745  LibAsset.depositAsset(_cBridgeData.token, _cBridgeData.amount) */\n      tag_30\n        /* \"bridges/facets/CBridgeFacet.sol\":2705:2717  _cBridgeData */\n      dup2\n        /* \"bridges/facets/CBridgeFacet.sol\":2705:2723  _cBridgeData.token */\n      0xa0\n      add\n      0x20\n      dup2\n      add\n      swap1\n      tag_31\n      swap2\n      swap1\n      tag_32\n      jump\t// in\n    tag_31:\n        /* \"bridges/facets/CBridgeFacet.sol\":2725:2737  _cBridgeData */\n      dup3\n        /* \"bridges/facets/CBridgeFacet.sol\":2725:2744  _cBridgeData.amount */\n      0x60\n      add\n      calldataload\n        /* \"bridges/facets/CBridgeFacet.sol\":2683:2704  LibAsset.depositAsset */\n      tag_33\n        /* \"bridges/facets/CBridgeFacet.sol\":2683:2745  LibAsset.depositAsset(_cBridgeData.token, _cBridgeData.amount) */\n      jump\t// in\n    tag_30:\n        /* \"bridges/facets/CBridgeFacet.sol\":2755:2781  _startBridge(_cBridgeData) */\n      tag_34\n        /* \"bridges/facets/CBridgeFacet.sol\":2768:2780  _cBridgeData */\n      dup2\n        /* \"bridges/facets/CBridgeFacet.sol\":2755:2781  _startBridge(_cBridgeData) */\n      dup1\n      calldatasize\n      sub\n      dup2\n      add\n      swap1\n      tag_35\n      swap2\n      swap1\n      tag_36\n      jump\t// in\n    tag_35:\n        /* \"bridges/facets/CBridgeFacet.sol\":2755:2767  _startBridge */\n      tag_37\n        /* \"bridges/facets/CBridgeFacet.sol\":2755:2781  _startBridge(_cBridgeData) */\n      jump\t// in\n    tag_34:\n        /* \"bridges/facets/CBridgeFacet.sol\":2797:3006  TransferStarted(... */\n      0x83bd4b75444b26482a091d91d32e43a65722f9fd8267a590beadccd9e61539e8\n        /* \"bridges/facets/CBridgeFacet.sol\":2849:2861  _cBridgeData */\n      dup2\n        /* \"bridges/facets/CBridgeFacet.sol\":2849:2867  _cBridgeData.token */\n      0xa0\n      add\n      0x20\n      dup2\n      add\n      swap1\n      tag_38\n      swap2\n      swap1\n      tag_32\n      jump\t// in\n    tag_38:\n        /* \"bridges/facets/CBridgeFacet.sol\":2881:2891  msg.sender */\n      caller\n        /* \"bridges/facets/CBridgeFacet.sol\":2905:2917  _cBridgeData */\n      dup4\n        /* \"bridges/facets/CBridgeFacet.sol\":2905:2926  _cBridgeData.receiver */\n      0x80\n      add\n      0x20\n      dup2\n      add\n      swap1\n      tag_39\n      swap2\n      swap1\n      tag_32\n      jump\t// in\n    tag_39:\n        /* \"bridges/facets/CBridgeFacet.sol\":2940:2952  _cBridgeData */\n      dup5\n        /* \"bridges/facets/CBridgeFacet.sol\":2940:2959  _cBridgeData.amount */\n      0x60\n      add\n      calldataload\n        /* \"bridges/facets/CBridgeFacet.sol\":2973:2985  _cBridgeData */\n      dup6\n        /* \"bridges/facets/CBridgeFacet.sol\":2973:2996  _cBridgeData.dstChainId */\n      0x20\n      add\n      0x20\n      dup2\n      add\n      swap1\n      tag_40\n      swap2\n      swap1\n      tag_41\n      jump\t// in\n    tag_40:\n        /* \"bridges/facets/CBridgeFacet.sol\":2797:3006  TransferStarted(... */\n      mload(0x40)\n      tag_42\n      swap6\n      swap5\n      swap4\n      swap3\n      swap2\n      swap1\n      tag_43\n      jump\t// in\n    tag_42:\n      mload(0x40)\n      dup1\n      swap2\n      sub\n      swap1\n      log1\n        /* \"@openzeppelin/contracts/security/ReentrancyGuard.sol\":1701:1702  1 */\n      0x01\n        /* \"@openzeppelin/contracts/security/ReentrancyGuard.sol\":2628:2635  _status */\n      0x00\n        /* \"@openzeppelin/contracts/security/ReentrancyGuard.sol\":2628:2650  _status = _NOT_ENTERED */\n      dup2\n      swap1\n      sstore\n      pop\n        /* \"bridges/facets/CBridgeFacet.sol\":2551:3013  function bridgeTokensCBridge(CBridgeData calldata _cBridgeData)... */\n      pop\n      jump\t// out\n        /* \"bridges/facets/CBridgeFacet.sol\":1835:1857  uint256 public chainId */\n    tag_17:\n      sload(0x02)\n      dup2\n      jump\t// out\n        /* \"bridges/facets/CBridgeFacet.sol\":2061:2429  function initializeCBridge(address _cBridge, uint256 _chainId) external {... */\n    tag_24:\n        /* \"bridges/facets/CBridgeFacet.sol\":2270:2271  0 */\n      0x00\n        /* \"bridges/facets/CBridgeFacet.sol\":2250:2272  _cBridge == address(0) */\n      0xffffffffffffffffffffffffffffffffffffffff\n      and\n        /* \"bridges/facets/CBridgeFacet.sol\":2250:2258  _cBridge */\n      dup3\n        /* \"bridges/facets/CBridgeFacet.sol\":2250:2272  _cBridge == address(0) */\n      0xffffffffffffffffffffffffffffffffffffffff\n      and\n      eq\n        /* \"bridges/facets/CBridgeFacet.sol\":2250:2289  _cBridge == address(0) || _chainId == 0 */\n      dup1\n      tag_45\n      jumpi\n      pop\n        /* \"bridges/facets/CBridgeFacet.sol\":2288:2289  0 */\n      0x00\n        /* \"bridges/facets/CBridgeFacet.sol\":2276:2284  _chainId */\n      dup2\n        /* \"bridges/facets/CBridgeFacet.sol\":2276:2289  _chainId == 0 */\n      eq\n        /* \"bridges/facets/CBridgeFacet.sol\":2250:2289  _cBridge == address(0) || _chainId == 0 */\n    tag_45:\n        /* \"bridges/facets/CBridgeFacet.sol\":2246:2313  if (_cBridge == address(0) || _chainId == 0) revert InvalidConfig() */\n      iszero\n      tag_46\n      jumpi\n        /* \"bridges/facets/CBridgeFacet.sol\":2298:2313  InvalidConfig() */\n      mload(0x40)\n      0x35be3ac800000000000000000000000000000000000000000000000000000000\n      dup2\n      mstore\n      0x04\n      add\n      mload(0x40)\n      dup1\n      swap2\n      sub\n      swap1\n      revert\n        /* \"bridges/facets/CBridgeFacet.sol\":2246:2313  if (_cBridge == address(0) || _chainId == 0) revert InvalidConfig() */\n    tag_46:\n        /* \"bridges/facets/CBridgeFacet.sol\":2333:2341  _cBridge */\n      dup2\n        /* \"bridges/facets/CBridgeFacet.sol\":2323:2330  cBridge */\n      0x01\n      0x00\n        /* \"bridges/facets/CBridgeFacet.sol\":2323:2341  cBridge = _cBridge */\n      0x0100\n      exp\n      dup2\n      sload\n      dup2\n      0xffffffffffffffffffffffffffffffffffffffff\n      mul\n      not\n      and\n      swap1\n      dup4\n      0xffffffffffffffffffffffffffffffffffffffff\n      and\n      mul\n      or\n      swap1\n      sstore\n      pop\n        /* \"bridges/facets/CBridgeFacet.sol\":2361:2369  _chainId */\n      dup1\n        /* \"bridges/facets/CBridgeFacet.sol\":2351:2358  chainId */\n      0x02\n        /* \"bridges/facets/CBridgeFacet.sol\":2351:2369  chainId = _chainId */\n      dup2\n      swap1\n      sstore\n      pop\n        /* \"bridges/facets/CBridgeFacet.sol\":2384:2422  CBridgeInitialized(_cBridge, _chainId) */\n      0x5b114a545b5a08e3628017ac6e1af1f29e3f593dde50a4a93ab76f2a2220cd38\n        /* \"bridges/facets/CBridgeFacet.sol\":2403:2411  _cBridge */\n      dup3\n        /* \"bridges/facets/CBridgeFacet.sol\":2413:2421  _chainId */\n      dup3\n        /* \"bridges/facets/CBridgeFacet.sol\":2384:2422  CBridgeInitialized(_cBridge, _chainId) */\n      mload(0x40)\n      tag_47\n      swap3\n      swap2\n      swap1\n      tag_48\n      jump\t// in\n    tag_47:\n      mload(0x40)\n      dup1\n      swap2\n      sub\n      swap1\n      log1\n        /* \"bridges/facets/CBridgeFacet.sol\":2061:2429  function initializeCBridge(address _cBridge, uint256 _chainId) external {... */\n      pop\n      pop\n      jump\t// out\n        /* \"bridges/libs/LibAsset.sol\":4970:5114  function depositAsset(address tokenId, uint256 amount) internal {... */\n    tag_33:\n        /* \"bridges/libs/LibAsset.sol\":5051:5107  depositAsset(tokenId, amount, tokenId == NATIVE_ASSETID) */\n      tag_50\n        /* \"bridges/libs/LibAsset.sol\":5064:5071  tokenId */\n      dup3\n        /* \"bridges/libs/LibAsset.sol\":5073:5079  amount */\n      dup3\n        /* \"bridges/libs/LibAsset.sol\":811:853  0x0000000000000000000000000000000000000000 */\n      0x00\n        /* \"bridges/libs/LibAsset.sol\":5081:5106  tokenId == NATIVE_ASSETID */\n      0xffffffffffffffffffffffffffffffffffffffff\n      and\n        /* \"bridges/libs/LibAsset.sol\":5081:5088  tokenId */\n      dup6\n        /* \"bridges/libs/LibAsset.sol\":5081:5106  tokenId == NATIVE_ASSETID */\n      0xffffffffffffffffffffffffffffffffffffffff\n      and\n      eq\n        /* \"bridges/libs/LibAsset.sol\":5051:5063  depositAsset */\n      tag_51\n        /* \"bridges/libs/LibAsset.sol\":5051:5107  depositAsset(tokenId, amount, tokenId == NATIVE_ASSETID) */\n      jump\t// in\n    tag_50:\n        /* \"bridges/libs/LibAsset.sol\":4970:5114  function depositAsset(address tokenId, uint256 amount) internal {... */\n      pop\n      pop\n      jump\t// out\n        /* \"bridges/facets/CBridgeFacet.sol\":3221:3820  function _startBridge(CBridgeData memory _cBridgeData) private {... */\n    tag_37:\n        /* \"bridges/facets/CBridgeFacet.sol\":3309:3321  _cBridgeData */\n      dup1\n        /* \"bridges/facets/CBridgeFacet.sol\":3309:3332  _cBridgeData.dstChainId */\n      0x20\n      add\n      mload\n        /* \"bridges/facets/CBridgeFacet.sol\":3298:3332  chainId == _cBridgeData.dstChainId */\n      0xffffffffffffffff\n      and\n        /* \"bridges/facets/CBridgeFacet.sol\":3298:3305  chainId */\n      sload(0x02)\n        /* \"bridges/facets/CBridgeFacet.sol\":3298:3332  chainId == _cBridgeData.dstChainId */\n      eq\n        /* \"bridges/facets/CBridgeFacet.sol\":3294:3380  if (chainId == _cBridgeData.dstChainId)... */\n      iszero\n      tag_53\n      jumpi\n        /* \"bridges/facets/CBridgeFacet.sol\":3353:3380  CannotBridgeToSameNetwork() */\n      mload(0x40)\n      0x4ac09ad300000000000000000000000000000000000000000000000000000000\n      dup2\n      mstore\n      0x04\n      add\n      mload(0x40)\n      dup1\n      swap2\n      sub\n      swap1\n      revert\n        /* \"bridges/facets/CBridgeFacet.sol\":3294:3380  if (chainId == _cBridgeData.dstChainId)... */\n    tag_53:\n        /* \"bridges/facets/CBridgeFacet.sol\":3391:3519  LibAsset.maxApproveERC20(... */\n      tag_54\n        /* \"bridges/facets/CBridgeFacet.sol\":3436:3448  _cBridgeData */\n      dup2\n        /* \"bridges/facets/CBridgeFacet.sol\":3436:3454  _cBridgeData.token */\n      0xa0\n      add\n      mload\n        /* \"bridges/facets/CBridgeFacet.sol\":3469:3476  cBridge */\n      0x01\n      0x00\n      swap1\n      sload\n      swap1\n      0x0100\n      exp\n      swap1\n      div\n      0xffffffffffffffffffffffffffffffffffffffff\n      and\n        /* \"bridges/facets/CBridgeFacet.sol\":3490:3502  _cBridgeData */\n      dup4\n        /* \"bridges/facets/CBridgeFacet.sol\":3490:3509  _cBridgeData.amount */\n      0x60\n      add\n      mload\n        /* \"bridges/facets/CBridgeFacet.sol\":3391:3415  LibAsset.maxApproveERC20 */\n      tag_55\n        /* \"bridges/facets/CBridgeFacet.sol\":3391:3519  LibAsset.maxApproveERC20(... */\n      jump\t// in\n    tag_54:\n        /* \"bridges/facets/CBridgeFacet.sol\":3583:3590  cBridge */\n      0x01\n      0x00\n      swap1\n      sload\n      swap1\n      0x0100\n      exp\n      swap1\n      div\n      0xffffffffffffffffffffffffffffffffffffffff\n      and\n        /* \"bridges/facets/CBridgeFacet.sol\":3574:3596  ICBridge(cBridge).send */\n      0xffffffffffffffffffffffffffffffffffffffff\n      and\n      0xa5977fbb\n        /* \"bridges/facets/CBridgeFacet.sol\":3610:3622  _cBridgeData */\n      dup3\n        /* \"bridges/facets/CBridgeFacet.sol\":3610:3631  _cBridgeData.receiver */\n      0x80\n      add\n      mload\n        /* \"bridges/facets/CBridgeFacet.sol\":3645:3657  _cBridgeData */\n      dup4\n        /* \"bridges/facets/CBridgeFacet.sol\":3645:3663  _cBridgeData.token */\n      0xa0\n      add\n      mload\n        /* \"bridges/facets/CBridgeFacet.sol\":3677:3689  _cBridgeData */\n      dup5\n        /* \"bridges/facets/CBridgeFacet.sol\":3677:3696  _cBridgeData.amount */\n      0x60\n      add\n      mload\n        /* \"bridges/facets/CBridgeFacet.sol\":3710:3722  _cBridgeData */\n      dup6\n        /* \"bridges/facets/CBridgeFacet.sol\":3710:3733  _cBridgeData.dstChainId */\n      0x20\n      add\n      mload\n        /* \"bridges/facets/CBridgeFacet.sol\":3747:3759  _cBridgeData */\n      dup7\n        /* \"bridges/facets/CBridgeFacet.sol\":3747:3765  _cBridgeData.nonce */\n      0x40\n      add\n      mload\n        /* \"bridges/facets/CBridgeFacet.sol\":3779:3791  _cBridgeData */\n      dup8\n        /* \"bridges/facets/CBridgeFacet.sol\":3779:3803  _cBridgeData.maxSlippage */\n      0x00\n      add\n      mload\n        /* \"bridges/facets/CBridgeFacet.sol\":3574:3813  ICBridge(cBridge).send(... */\n      mload(0x40)\n      dup8\n      0xffffffff\n      and\n      0xe0\n      shl\n      dup2\n      mstore\n      0x04\n      add\n      tag_56\n      swap7\n      swap6\n      swap5\n      swap4\n      swap3\n      swap2\n      swap1\n      tag_57\n      jump\t// in\n    tag_56:\n      0x00\n      mload(0x40)\n      dup1\n      dup4\n      sub\n      dup2\n      0x00\n      dup8\n      dup1\n      extcodesize\n      iszero\n      dup1\n      iszero\n      tag_58\n      jumpi\n      0x00\n      dup1\n      revert\n    tag_58:\n      pop\n      gas\n      call\n      iszero\n      dup1\n      iszero\n      tag_60\n      jumpi\n      returndatasize\n      0x00\n      dup1\n      returndatacopy\n      revert(0x00, returndatasize)\n    tag_60:\n      pop\n      pop\n      pop\n      pop\n        /* \"bridges/facets/CBridgeFacet.sol\":3221:3820  function _startBridge(CBridgeData memory _cBridgeData) private {... */\n      pop\n      jump\t// out\n        /* \"bridges/libs/LibAsset.sol\":4102:4794  function depositAsset(... */\n    tag_51:\n        /* \"bridges/libs/LibAsset.sol\":4235:4236  0 */\n      0x00\n        /* \"bridges/libs/LibAsset.sol\":4225:4231  amount */\n      dup3\n        /* \"bridges/libs/LibAsset.sol\":4225:4236  amount == 0 */\n      eq\n        /* \"bridges/libs/LibAsset.sol\":4221:4260  if (amount == 0) revert InvalidAmount() */\n      iszero\n      tag_62\n      jumpi\n        /* \"bridges/libs/LibAsset.sol\":4245:4260  InvalidAmount() */\n      mload(0x40)\n      0x2c5211c600000000000000000000000000000000000000000000000000000000\n      dup2\n      mstore\n      0x04\n      add\n      mload(0x40)\n      dup1\n      swap2\n      sub\n      swap1\n      revert\n        /* \"bridges/libs/LibAsset.sol\":4221:4260  if (amount == 0) revert InvalidAmount() */\n    tag_62:\n        /* \"bridges/libs/LibAsset.sol\":4274:4282  isNative */\n      dup1\n        /* \"bridges/libs/LibAsset.sol\":4270:4788  if (isNative) {... */\n      iszero\n      tag_63\n      jumpi\n        /* \"bridges/libs/LibAsset.sol\":4315:4321  amount */\n      dup2\n        /* \"bridges/libs/LibAsset.sol\":4302:4311  msg.value */\n      callvalue\n        /* \"bridges/libs/LibAsset.sol\":4302:4321  msg.value != amount */\n      eq\n        /* \"bridges/libs/LibAsset.sol\":4298:4345  if (msg.value != amount) revert InvalidAmount() */\n      tag_64\n      jumpi\n        /* \"bridges/libs/LibAsset.sol\":4330:4345  InvalidAmount() */\n      mload(0x40)\n      0x2c5211c600000000000000000000000000000000000000000000000000000000\n      dup2\n      mstore\n      0x04\n      add\n      mload(0x40)\n      dup1\n      swap2\n      sub\n      swap1\n      revert\n        /* \"bridges/libs/LibAsset.sol\":4298:4345  if (msg.value != amount) revert InvalidAmount() */\n    tag_64:\n        /* \"bridges/libs/LibAsset.sol\":4270:4788  if (isNative) {... */\n      jump(tag_65)\n    tag_63:\n        /* \"bridges/libs/LibAsset.sol\":4393:4394  0 */\n      0x00\n        /* \"bridges/libs/LibAsset.sol\":4380:4389  msg.value */\n      callvalue\n        /* \"bridges/libs/LibAsset.sol\":4380:4394  msg.value != 0 */\n      eq\n        /* \"bridges/libs/LibAsset.sol\":4376:4423  if (msg.value != 0) revert NativeValueWithERC() */\n      tag_66\n      jumpi\n        /* \"bridges/libs/LibAsset.sol\":4403:4423  NativeValueWithERC() */\n      mload(0x40)\n      0x3f45b500000000000000000000000000000000000000000000000000000000\n      dup2\n      mstore\n      0x04\n      add\n      mload(0x40)\n      dup1\n      swap2\n      sub\n      swap1\n      revert\n        /* \"bridges/libs/LibAsset.sol\":4376:4423  if (msg.value != 0) revert NativeValueWithERC() */\n    tag_66:\n        /* \"bridges/libs/LibAsset.sol\":4437:4462  uint256 _fromTokenBalance */\n      0x00\n        /* \"bridges/libs/LibAsset.sol\":4465:4496  LibAsset.getOwnBalance(tokenId) */\n      tag_67\n        /* \"bridges/libs/LibAsset.sol\":4488:4495  tokenId */\n      dup5\n        /* \"bridges/libs/LibAsset.sol\":4465:4487  LibAsset.getOwnBalance */\n      tag_68\n        /* \"bridges/libs/LibAsset.sol\":4465:4496  LibAsset.getOwnBalance(tokenId) */\n      jump\t// in\n    tag_67:\n        /* \"bridges/libs/LibAsset.sol\":4437:4496  uint256 _fromTokenBalance = LibAsset.getOwnBalance(tokenId) */\n      swap1\n      pop\n        /* \"bridges/libs/LibAsset.sol\":4510:4658  LibAsset.transferFromERC20(... */\n      tag_69\n        /* \"bridges/libs/LibAsset.sol\":4554:4561  tokenId */\n      dup5\n        /* \"bridges/libs/LibAsset.sol\":4579:4589  msg.sender */\n      caller\n        /* \"bridges/libs/LibAsset.sol\":4615:4619  this */\n      address\n        /* \"bridges/libs/LibAsset.sol\":4638:4644  amount */\n      dup7\n        /* \"bridges/libs/LibAsset.sol\":4510:4536  LibAsset.transferFromERC20 */\n      tag_70\n        /* \"bridges/libs/LibAsset.sol\":4510:4658  LibAsset.transferFromERC20(... */\n      jump\t// in\n    tag_69:\n        /* \"bridges/libs/LibAsset.sol\":4731:4737  amount */\n      dup3\n        /* \"bridges/libs/LibAsset.sol\":4710:4727  _fromTokenBalance */\n      dup2\n        /* \"bridges/libs/LibAsset.sol\":4676:4707  LibAsset.getOwnBalance(tokenId) */\n      tag_71\n        /* \"bridges/libs/LibAsset.sol\":4699:4706  tokenId */\n      dup7\n        /* \"bridges/libs/LibAsset.sol\":4676:4698  LibAsset.getOwnBalance */\n      tag_68\n        /* \"bridges/libs/LibAsset.sol\":4676:4707  LibAsset.getOwnBalance(tokenId) */\n      jump\t// in\n    tag_71:\n        /* \"bridges/libs/LibAsset.sol\":4676:4727  LibAsset.getOwnBalance(tokenId) - _fromTokenBalance */\n      tag_72\n      swap2\n      swap1\n      tag_73\n      jump\t// in\n    tag_72:\n        /* \"bridges/libs/LibAsset.sol\":4676:4737  LibAsset.getOwnBalance(tokenId) - _fromTokenBalance != amount */\n      eq\n        /* \"bridges/libs/LibAsset.sol\":4672:4777  if (LibAsset.getOwnBalance(tokenId) - _fromTokenBalance != amount)... */\n      tag_74\n      jumpi\n        /* \"bridges/libs/LibAsset.sol\":4762:4777  InvalidAmount() */\n      mload(0x40)\n      0x2c5211c600000000000000000000000000000000000000000000000000000000\n      dup2\n      mstore\n      0x04\n      add\n      mload(0x40)\n      dup1\n      swap2\n      sub\n      swap1\n      revert\n        /* \"bridges/libs/LibAsset.sol\":4672:4777  if (LibAsset.getOwnBalance(tokenId) - _fromTokenBalance != amount)... */\n    tag_74:\n        /* \"bridges/libs/LibAsset.sol\":4270:4788  if (isNative) {... */\n      pop\n    tag_65:\n        /* \"bridges/libs/LibAsset.sol\":4102:4794  function depositAsset(... */\n      pop\n      pop\n      pop\n      jump\t// out\n        /* \"bridges/libs/LibAsset.sol\":2284:2707  function maxApproveERC20(... */\n    tag_55:\n        /* \"bridges/libs/LibAsset.sol\":811:853  0x0000000000000000000000000000000000000000 */\n      0x00\n        /* \"bridges/libs/LibAsset.sol\":2411:2445  address(assetId) == NATIVE_ASSETID */\n      0xffffffffffffffffffffffffffffffffffffffff\n      and\n        /* \"bridges/libs/LibAsset.sol\":2419:2426  assetId */\n      dup4\n        /* \"bridges/libs/LibAsset.sol\":2411:2445  address(assetId) == NATIVE_ASSETID */\n      0xffffffffffffffffffffffffffffffffffffffff\n      and\n      eq\n        /* \"bridges/libs/LibAsset.sol\":2407:2454  if (address(assetId) == NATIVE_ASSETID) return; */\n      iszero\n      tag_76\n      jumpi\n        /* \"bridges/libs/LibAsset.sol\":2447:2454  return; */\n      jump(tag_75)\n        /* \"bridges/libs/LibAsset.sol\":2407:2454  if (address(assetId) == NATIVE_ASSETID) return; */\n    tag_76:\n        /* \"bridges/libs/LibAsset.sol\":811:853  0x0000000000000000000000000000000000000000 */\n      0x00\n        /* \"bridges/libs/LibAsset.sol\":2467:2490  spender == NULL_ADDRESS */\n      0xffffffffffffffffffffffffffffffffffffffff\n      and\n        /* \"bridges/libs/LibAsset.sol\":2467:2474  spender */\n      dup3\n        /* \"bridges/libs/LibAsset.sol\":2467:2490  spender == NULL_ADDRESS */\n      0xffffffffffffffffffffffffffffffffffffffff\n      and\n      eq\n        /* \"bridges/libs/LibAsset.sol\":2463:2527  if (spender == NULL_ADDRESS) revert NullAddrIsNotAValidSpender() */\n      iszero\n      tag_77\n      jumpi\n        /* \"bridges/libs/LibAsset.sol\":2499:2527  NullAddrIsNotAValidSpender() */\n      mload(0x40)\n      0x63ba9bff00000000000000000000000000000000000000000000000000000000\n      dup2\n      mstore\n      0x04\n      add\n      mload(0x40)\n      dup1\n      swap2\n      sub\n      swap1\n      revert\n        /* \"bridges/libs/LibAsset.sol\":2463:2527  if (spender == NULL_ADDRESS) revert NullAddrIsNotAValidSpender() */\n    tag_77:\n        /* \"bridges/libs/LibAsset.sol\":2537:2554  uint256 allowance */\n      0x00\n        /* \"bridges/libs/LibAsset.sol\":2557:2564  assetId */\n      dup4\n        /* \"bridges/libs/LibAsset.sol\":2557:2574  assetId.allowance */\n      0xffffffffffffffffffffffffffffffffffffffff\n      and\n      0xdd62ed3e\n        /* \"bridges/libs/LibAsset.sol\":2583:2587  this */\n      address\n        /* \"bridges/libs/LibAsset.sol\":2590:2597  spender */\n      dup6\n        /* \"bridges/libs/LibAsset.sol\":2557:2598  assetId.allowance(address(this), spender) */\n      mload(0x40)\n      dup4\n      0xffffffff\n      and\n      0xe0\n      shl\n      dup2\n      mstore\n      0x04\n      add\n      tag_78\n      swap3\n      swap2\n      swap1\n      tag_79\n      jump\t// in\n    tag_78:\n      0x20\n      mload(0x40)\n      dup1\n      dup4\n      sub\n      dup2\n      dup7\n      dup1\n      extcodesize\n      iszero\n      dup1\n      iszero\n      tag_80\n      jumpi\n      0x00\n      dup1\n      revert\n    tag_80:\n      pop\n      gas\n      staticcall\n      iszero\n      dup1\n      iszero\n      tag_82\n      jumpi\n      returndatasize\n      0x00\n      dup1\n      returndatacopy\n      revert(0x00, returndatasize)\n    tag_82:\n      pop\n      pop\n      pop\n      pop\n      mload(0x40)\n      returndatasize\n      not(0x1f)\n      0x1f\n      dup3\n      add\n      and\n      dup3\n      add\n      dup1\n      0x40\n      mstore\n      pop\n      dup2\n      add\n      swap1\n      tag_83\n      swap2\n      swap1\n      tag_84\n      jump\t// in\n    tag_83:\n        /* \"bridges/libs/LibAsset.sol\":2537:2598  uint256 allowance = assetId.allowance(address(this), spender) */\n      swap1\n      pop\n        /* \"bridges/libs/LibAsset.sol\":2624:2630  amount */\n      dup2\n        /* \"bridges/libs/LibAsset.sol\":2612:2621  allowance */\n      dup2\n        /* \"bridges/libs/LibAsset.sol\":2612:2630  allowance < amount */\n      lt\n        /* \"bridges/libs/LibAsset.sol\":2608:2700  if (allowance < amount)... */\n      iszero\n      tag_85\n      jumpi\n        /* \"bridges/libs/LibAsset.sol\":2644:2700  SafeERC20.safeApprove(IERC20(assetId), spender, MAX_INT) */\n      tag_86\n        /* \"bridges/libs/LibAsset.sol\":2673:2680  assetId */\n      dup5\n        /* \"bridges/libs/LibAsset.sol\":2683:2690  spender */\n      dup5\n        /* \"bridges/libs/LibAsset.sol\":738:755  type(uint256).max */\n      0xffffffffffffffffffffffffffffffffffffffffffffffffffffffffffffffff\n        /* \"bridges/libs/LibAsset.sol\":2644:2665  SafeERC20.safeApprove */\n      tag_87\n        /* \"bridges/libs/LibAsset.sol\":2644:2700  SafeERC20.safeApprove(IERC20(assetId), spender, MAX_INT) */\n      jump\t// in\n    tag_86:\n        /* \"bridges/libs/LibAsset.sol\":2608:2700  if (allowance < amount)... */\n    tag_85:\n        /* \"bridges/libs/LibAsset.sol\":2284:2707  function maxApproveERC20(... */\n      pop\n    tag_75:\n      pop\n      pop\n      pop\n      jump\t// out\n        /* \"bridges/libs/LibAsset.sol\":1255:1487  function getOwnBalance(address assetId) internal view returns (uint256) {... */\n    tag_68:\n        /* \"bridges/libs/LibAsset.sol\":1318:1325  uint256 */\n      0x00\n        /* \"bridges/libs/LibAsset.sol\":811:853  0x0000000000000000000000000000000000000000 */\n      dup1\n        /* \"bridges/libs/LibAsset.sol\":1356:1381  assetId == NATIVE_ASSETID */\n      0xffffffffffffffffffffffffffffffffffffffff\n      and\n        /* \"bridges/libs/LibAsset.sol\":1356:1363  assetId */\n      dup3\n        /* \"bridges/libs/LibAsset.sol\":1356:1381  assetId == NATIVE_ASSETID */\n      0xffffffffffffffffffffffffffffffffffffffff\n      and\n      eq\n        /* \"bridges/libs/LibAsset.sol\":1356:1480  assetId == NATIVE_ASSETID... */\n      tag_89\n      jumpi\n        /* \"bridges/libs/LibAsset.sol\":1447:1454  assetId */\n      dup2\n        /* \"bridges/libs/LibAsset.sol\":1440:1465  IERC20(assetId).balanceOf */\n      0xffffffffffffffffffffffffffffffffffffffff\n      and\n      0x70a08231\n        /* \"bridges/libs/LibAsset.sol\":1474:1478  this */\n      address\n        /* \"bridges/libs/LibAsset.sol\":1440:1480  IERC20(assetId).balanceOf(address(this)) */\n      mload(0x40)\n      dup3\n      0xffffffff\n      and\n      0xe0\n      shl\n      dup2\n      mstore\n      0x04\n      add\n      tag_90\n      swap2\n      swap1\n      tag_10\n      jump\t// in\n    tag_90:\n      0x20\n      mload(0x40)\n      dup1\n      dup4\n      sub\n      dup2\n      dup7\n      dup1\n      extcodesize\n      iszero\n      dup1\n      iszero\n      tag_91\n      jumpi\n      0x00\n      dup1\n      revert\n    tag_91:\n      pop\n      gas\n      staticcall\n      iszero\n      dup1\n      iszero\n      tag_93\n      jumpi\n      returndatasize\n      0x00\n      dup1\n      returndatacopy\n      revert(0x00, returndatasize)\n    tag_93:\n      pop\n      pop\n      pop\n      pop\n      mload(0x40)\n      returndatasize\n      not(0x1f)\n      0x1f\n      dup3\n      add\n      and\n      dup3\n      add\n      dup1\n      0x40\n      mstore\n      pop\n      dup2\n      add\n      swap1\n      tag_94\n      swap2\n      swap1\n      tag_84\n      jump\t// in\n    tag_94:\n        /* \"bridges/libs/LibAsset.sol\":1356:1480  assetId == NATIVE_ASSETID... */\n      jump(tag_95)\n    tag_89:\n        /* \"bridges/libs/LibAsset.sol\":1400:1421  address(this).balance */\n      selfbalance\n        /* \"bridges/libs/LibAsset.sol\":1356:1480  assetId == NATIVE_ASSETID... */\n    tag_95:\n        /* \"bridges/libs/LibAsset.sol\":1337:1480  return... */\n      swap1\n      pop\n        /* \"bridges/libs/LibAsset.sol\":1255:1487  function getOwnBalance(address assetId) internal view returns (uint256) {... */\n      swap2\n      swap1\n      pop\n      jump\t// out\n        /* \"bridges/libs/LibAsset.sol\":3504:3856  function transferFromERC20(... */\n    tag_70:\n        /* \"bridges/libs/LibAsset.sol\":811:853  0x0000000000000000000000000000000000000000 */\n      0x00\n        /* \"bridges/libs/LibAsset.sol\":3651:3676  assetId == NATIVE_ASSETID */\n      0xffffffffffffffffffffffffffffffffffffffff\n      and\n        /* \"bridges/libs/LibAsset.sol\":3651:3658  assetId */\n      dup5\n        /* \"bridges/libs/LibAsset.sol\":3651:3676  assetId == NATIVE_ASSETID */\n      0xffffffffffffffffffffffffffffffffffffffff\n      and\n      eq\n        /* \"bridges/libs/LibAsset.sol\":3647:3712  if (assetId == NATIVE_ASSETID) revert NullAddrIsNotAnERC20Token() */\n      iszero\n      tag_97\n      jumpi\n        /* \"bridges/libs/LibAsset.sol\":3685:3712  NullAddrIsNotAnERC20Token() */\n      mload(0x40)\n      0xd1bebf0c00000000000000000000000000000000000000000000000000000000\n      dup2\n      mstore\n      0x04\n      add\n      mload(0x40)\n      dup1\n      swap2\n      sub\n      swap1\n      revert\n        /* \"bridges/libs/LibAsset.sol\":3647:3712  if (assetId == NATIVE_ASSETID) revert NullAddrIsNotAnERC20Token() */\n    tag_97:\n        /* \"bridges/libs/LibAsset.sol\":811:853  0x0000000000000000000000000000000000000000 */\n      0x00\n        /* \"bridges/libs/LibAsset.sol\":3726:3744  to == NULL_ADDRESS */\n      0xffffffffffffffffffffffffffffffffffffffff\n      and\n        /* \"bridges/libs/LibAsset.sol\":3726:3728  to */\n      dup3\n        /* \"bridges/libs/LibAsset.sol\":3726:3744  to == NULL_ADDRESS */\n      0xffffffffffffffffffffffffffffffffffffffff\n      and\n      eq\n        /* \"bridges/libs/LibAsset.sol\":3722:3778  if (to == NULL_ADDRESS) revert NoTransferToNullAddress() */\n      iszero\n      tag_98\n      jumpi\n        /* \"bridges/libs/LibAsset.sol\":3753:3778  NoTransferToNullAddress() */\n      mload(0x40)\n      0x21f7434500000000000000000000000000000000000000000000000000000000\n      dup2\n      mstore\n      0x04\n      add\n      mload(0x40)\n      dup1\n      swap2\n      sub\n      swap1\n      revert\n        /* \"bridges/libs/LibAsset.sol\":3722:3778  if (to == NULL_ADDRESS) revert NoTransferToNullAddress() */\n    tag_98:\n        /* \"bridges/libs/LibAsset.sol\":3788:3849  SafeERC20.safeTransferFrom(IERC20(assetId), from, to, amount) */\n      tag_99\n        /* \"bridges/libs/LibAsset.sol\":3822:3829  assetId */\n      dup5\n        /* \"bridges/libs/LibAsset.sol\":3832:3836  from */\n      dup5\n        /* \"bridges/libs/LibAsset.sol\":3838:3840  to */\n      dup5\n        /* \"bridges/libs/LibAsset.sol\":3842:3848  amount */\n      dup5\n        /* \"bridges/libs/LibAsset.sol\":3788:3814  SafeERC20.safeTransferFrom */\n      tag_100\n        /* \"bridges/libs/LibAsset.sol\":3788:3849  SafeERC20.safeTransferFrom(IERC20(assetId), from, to, amount) */\n      jump\t// in\n    tag_99:\n        /* \"bridges/libs/LibAsset.sol\":3504:3856  function transferFromERC20(... */\n      pop\n      pop\n      pop\n      pop\n      jump\t// out\n        /* \"@openzeppelin/contracts/token/ERC20/utils/SafeERC20.sol\":1475:2078  function safeApprove(... */\n    tag_87:\n        /* \"@openzeppelin/contracts/token/ERC20/utils/SafeERC20.sol\":1839:1840  0 */\n      0x00\n        /* \"@openzeppelin/contracts/token/ERC20/utils/SafeERC20.sol\":1830:1835  value */\n      dup2\n        /* \"@openzeppelin/contracts/token/ERC20/utils/SafeERC20.sol\":1830:1840  value == 0 */\n      eq\n        /* \"@openzeppelin/contracts/token/ERC20/utils/SafeERC20.sol\":1829:1891  (value == 0) || (token.allowance(address(this), spender) == 0) */\n      dup1\n      tag_102\n      jumpi\n      pop\n        /* \"@openzeppelin/contracts/token/ERC20/utils/SafeERC20.sol\":1889:1890  0 */\n      0x00\n        /* \"@openzeppelin/contracts/token/ERC20/utils/SafeERC20.sol\":1846:1851  token */\n      dup4\n        /* \"@openzeppelin/contracts/token/ERC20/utils/SafeERC20.sol\":1846:1861  token.allowance */\n      0xffffffffffffffffffffffffffffffffffffffff\n      and\n      0xdd62ed3e\n        /* \"@openzeppelin/contracts/token/ERC20/utils/SafeERC20.sol\":1870:1874  this */\n      address\n        /* \"@openzeppelin/contracts/token/ERC20/utils/SafeERC20.sol\":1877:1884  spender */\n      dup6\n        /* \"@openzeppelin/contracts/token/ERC20/utils/SafeERC20.sol\":1846:1885  token.allowance(address(this), spender) */\n      mload(0x40)\n      dup4\n      0xffffffff\n      and\n      0xe0\n      shl\n      dup2\n      mstore\n      0x04\n      add\n      tag_103\n      swap3\n      swap2\n      swap1\n      tag_79\n      jump\t// in\n    tag_103:\n      0x20\n      mload(0x40)\n      dup1\n      dup4\n      sub\n      dup2\n      dup7\n      dup1\n      extcodesize\n      iszero\n      dup1\n      iszero\n      tag_104\n      jumpi\n      0x00\n      dup1\n      revert\n    tag_104:\n      pop\n      gas\n      staticcall\n      iszero\n      dup1\n      iszero\n      tag_106\n      jumpi\n      returndatasize\n      0x00\n      dup1\n      returndatacopy\n      revert(0x00, returndatasize)\n    tag_106:\n      pop\n      pop\n      pop\n      pop\n      mload(0x40)\n      returndatasize\n      not(0x1f)\n      0x1f\n      dup3\n      add\n      and\n      dup3\n      add\n      dup1\n      0x40\n      mstore\n      pop\n      dup2\n      add\n      swap1\n      tag_107\n      swap2\n      swap1\n      tag_84\n      jump\t// in\n    tag_107:\n        /* \"@openzeppelin/contracts/token/ERC20/utils/SafeERC20.sol\":1846:1890  token.allowance(address(this), spender) == 0 */\n      eq\n        /* \"@openzeppelin/contracts/token/ERC20/utils/SafeERC20.sol\":1829:1891  (value == 0) || (token.allowance(address(this), spender) == 0) */\n    tag_102:\n        /* \"@openzeppelin/contracts/token/ERC20/utils/SafeERC20.sol\":1808:1971  require(... */\n      tag_108\n      jumpi\n      mload(0x40)\n      0x08c379a000000000000000000000000000000000000000000000000000000000\n      dup2\n      mstore\n      0x04\n      add\n      tag_109\n      swap1\n      tag_110\n      jump\t// in\n    tag_109:\n      mload(0x40)\n      dup1\n      swap2\n      sub\n      swap1\n      revert\n    tag_108:\n        /* \"@openzeppelin/contracts/token/ERC20/utils/SafeERC20.sol\":1981:2071  _callOptionalReturn(token, abi.encodeWithSelector(token.approve.selector, spender, value)) */\n      tag_111\n        /* \"@openzeppelin/contracts/token/ERC20/utils/SafeERC20.sol\":2001:2006  token */\n      dup4\n        /* \"@openzeppelin/contracts/token/ERC20/utils/SafeERC20.sol\":2031:2053  token.approve.selector */\n      shl(0xe0, 0x095ea7b3)\n        /* \"@openzeppelin/contracts/token/ERC20/utils/SafeERC20.sol\":2055:2062  spender */\n      dup5\n        /* \"@openzeppelin/contracts/token/ERC20/utils/SafeERC20.sol\":2064:2069  value */\n      dup5\n        /* \"@openzeppelin/contracts/token/ERC20/utils/SafeERC20.sol\":2008:2070  abi.encodeWithSelector(token.approve.selector, spender, value) */\n      add(0x24, mload(0x40))\n      tag_112\n      swap3\n      swap2\n      swap1\n      tag_48\n      jump\t// in\n    tag_112:\n      mload(0x40)\n      0x20\n      dup2\n      dup4\n      sub\n      sub\n      dup2\n      mstore\n      swap1\n      0x40\n      mstore\n      swap1\n      not(0xffffffffffffffffffffffffffffffffffffffffffffffffffffffff)\n      and\n      0x20\n      dup3\n      add\n      dup1\n      mload\n      0xffffffffffffffffffffffffffffffffffffffffffffffffffffffff\n      dup4\n      dup2\n      dup4\n      and\n      or\n      dup4\n      mstore\n      pop\n      pop\n      pop\n      pop\n        /* \"@openzeppelin/contracts/token/ERC20/utils/SafeERC20.sol\":1981:2000  _callOptionalReturn */\n      tag_113\n        /* \"@openzeppelin/contracts/token/ERC20/utils/SafeERC20.sol\":1981:2071  _callOptionalReturn(token, abi.encodeWithSelector(token.approve.selector, spender, value)) */\n      jump\t// in\n    tag_111:\n        /* \"@openzeppelin/contracts/token/ERC20/utils/SafeERC20.sol\":1475:2078  function safeApprove(... */\n      pop\n      pop\n      pop\n      jump\t// out\n        /* \"@openzeppelin/contracts/token/ERC20/utils/SafeERC20.sol\":974:1215  function safeTransferFrom(... */\n    tag_100:\n        /* \"@openzeppelin/contracts/token/ERC20/utils/SafeERC20.sol\":1112:1208  _callOptionalReturn(token, abi.encodeWithSelector(token.transferFrom.selector, from, to, value)) */\n      tag_115\n        /* \"@openzeppelin/contracts/token/ERC20/utils/SafeERC20.sol\":1132:1137  token */\n      dup5\n        /* \"@openzeppelin/contracts/token/ERC20/utils/SafeERC20.sol\":1162:1189  token.transferFrom.selector */\n      shl(0xe0, 0x23b872dd)\n        /* \"@openzeppelin/contracts/token/ERC20/utils/SafeERC20.sol\":1191:1195  from */\n      dup6\n        /* \"@openzeppelin/contracts/token/ERC20/utils/SafeERC20.sol\":1197:1199  to */\n      dup6\n        /* \"@openzeppelin/contracts/token/ERC20/utils/SafeERC20.sol\":1201:1206  value */\n      dup6\n        /* \"@openzeppelin/contracts/token/ERC20/utils/SafeERC20.sol\":1139:1207  abi.encodeWithSelector(token.transferFrom.selector, from, to, value) */\n      add(0x24, mload(0x40))\n      tag_116\n      swap4\n      swap3\n      swap2\n      swap1\n      tag_117\n      jump\t// in\n    tag_116:\n      mload(0x40)\n      0x20\n      dup2\n      dup4\n      sub\n      sub\n      dup2\n      mstore\n      swap1\n      0x40\n      mstore\n      swap1\n      not(0xffffffffffffffffffffffffffffffffffffffffffffffffffffffff)\n      and\n      0x20\n      dup3\n      add\n      dup1\n      mload\n      0xffffffffffffffffffffffffffffffffffffffffffffffffffffffff\n      dup4\n      dup2\n      dup4\n      and\n      or\n      dup4\n      mstore\n      pop\n      pop\n      pop\n      pop\n        /* \"@openzeppelin/contracts/token/ERC20/utils/SafeERC20.sol\":1112:1131  _callOptionalReturn */\n      tag_113\n        /* \"@openzeppelin/contracts/token/ERC20/utils/SafeERC20.sol\":1112:1208  _callOptionalReturn(token, abi.encodeWithSelector(token.transferFrom.selector, from, to, value)) */\n      jump\t// in\n    tag_115:\n        /* \"@openzeppelin/contracts/token/ERC20/utils/SafeERC20.sol\":974:1215  function safeTransferFrom(... */\n      pop\n      pop\n      pop\n      pop\n      jump\t// out\n        /* \"@openzeppelin/contracts/token/ERC20/utils/SafeERC20.sol\":3747:4453  function _callOptionalReturn(IERC20 token, bytes memory data) private {... */\n    tag_113:\n        /* \"@openzeppelin/contracts/token/ERC20/utils/SafeERC20.sol\":4166:4189  bytes memory returndata */\n      0x00\n        /* \"@openzeppelin/contracts/token/ERC20/utils/SafeERC20.sol\":4192:4261  address(token).functionCall(data, \"SafeERC20: low-level call failed\") */\n      tag_119\n        /* \"@openzeppelin/contracts/token/ERC20/utils/SafeERC20.sol\":4220:4224  data */\n      dup3\n        /* \"@openzeppelin/contracts/token/ERC20/utils/SafeERC20.sol\":4192:4261  address(token).functionCall(data, \"SafeERC20: low-level call failed\") */\n      mload(0x40)\n      dup1\n      0x40\n      add\n      0x40\n      mstore\n      dup1\n      0x20\n      dup2\n      mstore\n      0x20\n      add\n      0x5361666545524332303a206c6f772d6c6576656c2063616c6c206661696c6564\n      dup2\n      mstore\n      pop\n        /* \"@openzeppelin/contracts/token/ERC20/utils/SafeERC20.sol\":4200:4205  token */\n      dup6\n        /* \"@openzeppelin/contracts/token/ERC20/utils/SafeERC20.sol\":4192:4219  address(token).functionCall */\n      0xffffffffffffffffffffffffffffffffffffffff\n      and\n      tag_120\n      swap1\n        /* \"@openzeppelin/contracts/token/ERC20/utils/SafeERC20.sol\":4192:4261  address(token).functionCall(data, \"SafeERC20: low-level call failed\") */\n      swap3\n      swap2\n      swap1\n      0xffffffff\n      and\n      jump\t// in\n    tag_119:\n        /* \"@openzeppelin/contracts/token/ERC20/utils/SafeERC20.sol\":4166:4261  bytes memory returndata = address(token).functionCall(data, \"SafeERC20: low-level call failed\") */\n      swap1\n      pop\n        /* \"@openzeppelin/contracts/token/ERC20/utils/SafeERC20.sol\":4295:4296  0 */\n      0x00\n        /* \"@openzeppelin/contracts/token/ERC20/utils/SafeERC20.sol\":4275:4285  returndata */\n      dup2\n        /* \"@openzeppelin/contracts/token/ERC20/utils/SafeERC20.sol\":4275:4292  returndata.length */\n      mload\n        /* \"@openzeppelin/contracts/token/ERC20/utils/SafeERC20.sol\":4275:4296  returndata.length > 0 */\n      gt\n        /* \"@openzeppelin/contracts/token/ERC20/utils/SafeERC20.sol\":4271:4447  if (returndata.length > 0) {... */\n      iszero\n      tag_121\n      jumpi\n        /* \"@openzeppelin/contracts/token/ERC20/utils/SafeERC20.sol\":4370:4380  returndata */\n      dup1\n        /* \"@openzeppelin/contracts/token/ERC20/utils/SafeERC20.sol\":4359:4389  abi.decode(returndata, (bool)) */\n      dup1\n      0x20\n      add\n      swap1\n      mload\n      dup2\n      add\n      swap1\n      tag_122\n      swap2\n      swap1\n      tag_123\n      jump\t// in\n    tag_122:\n        /* \"@openzeppelin/contracts/token/ERC20/utils/SafeERC20.sol\":4351:4436  require(abi.decode(returndata, (bool)), \"SafeERC20: ERC20 operation did not succeed\") */\n      tag_124\n      jumpi\n      mload(0x40)\n      0x08c379a000000000000000000000000000000000000000000000000000000000\n      dup2\n      mstore\n      0x04\n      add\n      tag_125\n      swap1\n      tag_126\n      jump\t// in\n    tag_125:\n      mload(0x40)\n      dup1\n      swap2\n      sub\n      swap1\n      revert\n    tag_124:\n        /* \"@openzeppelin/contracts/token/ERC20/utils/SafeERC20.sol\":4271:4447  if (returndata.length > 0) {... */\n    tag_121:\n        /* \"@openzeppelin/contracts/token/ERC20/utils/SafeERC20.sol\":3747:4453  function _callOptionalReturn(IERC20 token, bytes memory data) private {... */\n      pop\n      pop\n      pop\n      jump\t// out\n        /* \"@openzeppelin/contracts/utils/Address.sol\":3861:4084  function functionCall(... */\n    tag_120:\n        /* \"@openzeppelin/contracts/utils/Address.sol\":3994:4006  bytes memory */\n      0x60\n        /* \"@openzeppelin/contracts/utils/Address.sol\":4025:4077  functionCallWithValue(target, data, 0, errorMessage) */\n      tag_128\n        /* \"@openzeppelin/contracts/utils/Address.sol\":4047:4053  target */\n      dup5\n        /* \"@openzeppelin/contracts/utils/Address.sol\":4055:4059  data */\n      dup5\n        /* \"@openzeppelin/contracts/utils/Address.sol\":4061:4062  0 */\n      0x00\n        /* \"@openzeppelin/contracts/utils/Address.sol\":4064:4076  errorMessage */\n      dup6\n        /* \"@openzeppelin/contracts/utils/Address.sol\":4025:4046  functionCallWithValue */\n      tag_129\n        /* \"@openzeppelin/contracts/utils/Address.sol\":4025:4077  functionCallWithValue(target, data, 0, errorMessage) */\n      jump\t// in\n    tag_128:\n        /* \"@openzeppelin/contracts/utils/Address.sol\":4018:4077  return functionCallWithValue(target, data, 0, errorMessage) */\n      swap1\n      pop\n        /* \"@openzeppelin/contracts/utils/Address.sol\":3861:4084  function functionCall(... */\n      swap4\n      swap3\n      pop\n      pop\n      pop\n      jump\t// out\n        /* \"@openzeppelin/contracts/utils/Address.sol\":4948:5447  function functionCallWithValue(... */\n    tag_129:\n        /* \"@openzeppelin/contracts/utils/Address.sol\":5113:5125  bytes memory */\n      0x60\n        /* \"@openzeppelin/contracts/utils/Address.sol\":5170:5175  value */\n      dup3\n        /* \"@openzeppelin/contracts/utils/Address.sol\":5145:5166  address(this).balance */\n      selfbalance\n        /* \"@openzeppelin/contracts/utils/Address.sol\":5145:5175  address(this).balance >= value */\n      lt\n      iszero\n        /* \"@openzeppelin/contracts/utils/Address.sol\":5137:5218  require(address(this).balance >= value, \"Address: insufficient balance for call\") */\n      tag_131\n      jumpi\n      mload(0x40)\n      0x08c379a000000000000000000000000000000000000000000000000000000000\n      dup2\n      mstore\n      0x04\n      add\n      tag_132\n      swap1\n      tag_133\n      jump\t// in\n    tag_132:\n      mload(0x40)\n      dup1\n      swap2\n      sub\n      swap1\n      revert\n    tag_131:\n        /* \"@openzeppelin/contracts/utils/Address.sol\":5236:5254  isContract(target) */\n      tag_134\n        /* \"@openzeppelin/contracts/utils/Address.sol\":5247:5253  target */\n      dup6\n        /* \"@openzeppelin/contracts/utils/Address.sol\":5236:5246  isContract */\n      tag_135\n        /* \"@openzeppelin/contracts/utils/Address.sol\":5236:5254  isContract(target) */\n      jump\t// in\n    tag_134:\n        /* \"@openzeppelin/contracts/utils/Address.sol\":5228:5288  require(isContract(target), \"Address: call to non-contract\") */\n      tag_136\n      jumpi\n      mload(0x40)\n      0x08c379a000000000000000000000000000000000000000000000000000000000\n      dup2\n      mstore\n      0x04\n      add\n      tag_137\n      swap1\n      tag_138\n      jump\t// in\n    tag_137:\n      mload(0x40)\n      dup1\n      swap2\n      sub\n      swap1\n      revert\n    tag_136:\n        /* \"@openzeppelin/contracts/utils/Address.sol\":5300:5312  bool success */\n      0x00\n        /* \"@openzeppelin/contracts/utils/Address.sol\":5314:5337  bytes memory returndata */\n      dup1\n        /* \"@openzeppelin/contracts/utils/Address.sol\":5341:5347  target */\n      dup7\n        /* \"@openzeppelin/contracts/utils/Address.sol\":5341:5352  target.call */\n      0xffffffffffffffffffffffffffffffffffffffff\n      and\n        /* \"@openzeppelin/contracts/utils/Address.sol\":5360:5365  value */\n      dup6\n        /* \"@openzeppelin/contracts/utils/Address.sol\":5367:5371  data */\n      dup8\n        /* \"@openzeppelin/contracts/utils/Address.sol\":5341:5372  target.call{value: value}(data) */\n      mload(0x40)\n      tag_139\n      swap2\n      swap1\n      tag_140\n      jump\t// in\n    tag_139:\n      0x00\n      mload(0x40)\n      dup1\n      dup4\n      sub\n      dup2\n      dup6\n      dup8\n      gas\n      call\n      swap3\n      pop\n      pop\n      pop\n      returndatasize\n      dup1\n      0x00\n      dup2\n      eq\n      tag_143\n      jumpi\n      mload(0x40)\n      swap2\n      pop\n      and(add(returndatasize, 0x3f), not(0x1f))\n      dup3\n      add\n      0x40\n      mstore\n      returndatasize\n      dup3\n      mstore\n      returndatasize\n      0x00\n      0x20\n      dup5\n      add\n      returndatacopy\n      jump(tag_142)\n    tag_143:\n      0x60\n      swap2\n      pop\n    tag_142:\n      pop\n        /* \"@openzeppelin/contracts/utils/Address.sol\":5299:5372  (bool success, bytes memory returndata) = target.call{value: value}(data) */\n      swap2\n      pop\n      swap2\n      pop\n        /* \"@openzeppelin/contracts/utils/Address.sol\":5389:5440  verifyCallResult(success, returndata, errorMessage) */\n      tag_144\n        /* \"@openzeppelin/contracts/utils/Address.sol\":5406:5413  success */\n      dup3\n        /* \"@openzeppelin/contracts/utils/Address.sol\":5415:5425  returndata */\n      dup3\n        /* \"@openzeppelin/contracts/utils/Address.sol\":5427:5439  errorMessage */\n      dup7\n        /* \"@openzeppelin/contracts/utils/Address.sol\":5389:5405  verifyCallResult */\n      tag_145\n        /* \"@openzeppelin/contracts/utils/Address.sol\":5389:5440  verifyCallResult(success, returndata, errorMessage) */\n      jump\t// in\n    tag_144:\n        /* \"@openzeppelin/contracts/utils/Address.sol\":5382:5440  return verifyCallResult(success, returndata, errorMessage) */\n      swap3\n      pop\n      pop\n      pop\n        /* \"@openzeppelin/contracts/utils/Address.sol\":4948:5447  function functionCallWithValue(... */\n      swap5\n      swap4\n      pop\n      pop\n      pop\n      pop\n      jump\t// out\n        /* \"@openzeppelin/contracts/utils/Address.sol\":1175:1495  function isContract(address account) internal view returns (bool) {... */\n    tag_135:\n        /* \"@openzeppelin/contracts/utils/Address.sol\":1235:1239  bool */\n      0x00\n        /* \"@openzeppelin/contracts/utils/Address.sol\":1487:1488  0 */\n      dup1\n        /* \"@openzeppelin/contracts/utils/Address.sol\":1465:1472  account */\n      dup3\n        /* \"@openzeppelin/contracts/utils/Address.sol\":1465:1484  account.code.length */\n      0xffffffffffffffffffffffffffffffffffffffff\n      and\n      extcodesize\n        /* \"@openzeppelin/contracts/utils/Address.sol\":1465:1488  account.code.length > 0 */\n      gt\n        /* \"@openzeppelin/contracts/utils/Address.sol\":1458:1488  return account.code.length > 0 */\n      swap1\n      pop\n        /* \"@openzeppelin/contracts/utils/Address.sol\":1175:1495  function isContract(address account) internal view returns (bool) {... */\n      swap2\n      swap1\n      pop\n      jump\t// out\n        /* \"@openzeppelin/contracts/utils/Address.sol\":7561:8303  function verifyCallResult(... */\n    tag_145:\n        /* \"@openzeppelin/contracts/utils/Address.sol\":7707:7719  bytes memory */\n      0x60\n        /* \"@openzeppelin/contracts/utils/Address.sol\":7735:7742  success */\n      dup4\n        /* \"@openzeppelin/contracts/utils/Address.sol\":7731:8297  if (success) {... */\n      iszero\n      tag_148\n      jumpi\n        /* \"@openzeppelin/contracts/utils/Address.sol\":7765:7775  returndata */\n      dup3\n        /* \"@openzeppelin/contracts/utils/Address.sol\":7758:7775  return returndata */\n      swap1\n      pop\n      jump(tag_147)\n        /* \"@openzeppelin/contracts/utils/Address.sol\":7731:8297  if (success) {... */\n    tag_148:\n        /* \"@openzeppelin/contracts/utils/Address.sol\":7896:7897  0 */\n      0x00\n        /* \"@openzeppelin/contracts/utils/Address.sol\":7876:7886  returndata */\n      dup4\n        /* \"@openzeppelin/contracts/utils/Address.sol\":7876:7893  returndata.length */\n      mload\n        /* \"@openzeppelin/contracts/utils/Address.sol\":7876:7897  returndata.length > 0 */\n      gt\n        /* \"@openzeppelin/contracts/utils/Address.sol\":7872:8287  if (returndata.length > 0) {... */\n      iszero\n      tag_150\n      jumpi\n        /* \"@openzeppelin/contracts/utils/Address.sol\":8120:8130  returndata */\n      dup3\n        /* \"@openzeppelin/contracts/utils/Address.sol\":8114:8131  mload(returndata) */\n      mload\n        /* \"@openzeppelin/contracts/utils/Address.sol\":8180:8195  returndata_size */\n      dup1\n        /* \"@openzeppelin/contracts/utils/Address.sol\":8167:8177  returndata */\n      dup5\n        /* \"@openzeppelin/contracts/utils/Address.sol\":8163:8165  32 */\n      0x20\n        /* \"@openzeppelin/contracts/utils/Address.sol\":8159:8178  add(32, returndata) */\n      add\n        /* \"@openzeppelin/contracts/utils/Address.sol\":8152:8196  revert(add(32, returndata), returndata_size) */\n      revert\n        /* \"@openzeppelin/contracts/utils/Address.sol\":8069:8214  {... */\n    tag_150:\n        /* \"@openzeppelin/contracts/utils/Address.sol\":8259:8271  errorMessage */\n      dup2\n        /* \"@openzeppelin/contracts/utils/Address.sol\":8252:8272  revert(errorMessage) */\n      mload(0x40)\n      0x08c379a000000000000000000000000000000000000000000000000000000000\n      dup2\n      mstore\n      0x04\n      add\n      tag_152\n      swap2\n      swap1\n      tag_153\n      jump\t// in\n    tag_152:\n      mload(0x40)\n      dup1\n      swap2\n      sub\n      swap1\n      revert\n        /* \"@openzeppelin/contracts/utils/Address.sol\":7561:8303  function verifyCallResult(... */\n    tag_147:\n      swap4\n      swap3\n      pop\n      pop\n      pop\n      jump\t// out\n        /* \"#utility.yul\":7:146   */\n    tag_155:\n        /* \"#utility.yul\":53:58   */\n      0x00\n        /* \"#utility.yul\":91:97   */\n      dup2\n        /* \"#utility.yul\":78:98   */\n      calldataload\n        /* \"#utility.yul\":69:98   */\n      swap1\n      pop\n        /* \"#utility.yul\":107:140   */\n      tag_157\n        /* \"#utility.yul\":134:139   */\n      dup2\n        /* \"#utility.yul\":107:140   */\n      tag_158\n      jump\t// in\n    tag_157:\n        /* \"#utility.yul\":59:146   */\n      swap3\n      swap2\n      pop\n      pop\n      jump\t// out\n        /* \"#utility.yul\":152:289   */\n    tag_159:\n        /* \"#utility.yul\":206:211   */\n      0x00\n        /* \"#utility.yul\":237:243   */\n      dup2\n        /* \"#utility.yul\":231:244   */\n      mload\n        /* \"#utility.yul\":222:244   */\n      swap1\n      pop\n        /* \"#utility.yul\":253:283   */\n      tag_161\n        /* \"#utility.yul\":277:282   */\n      dup2\n        /* \"#utility.yul\":253:283   */\n      tag_162\n      jump\t// in\n    tag_161:\n        /* \"#utility.yul\":212:289   */\n      swap3\n      swap2\n      pop\n      pop\n      jump\t// out\n        /* \"#utility.yul\":334:502   */\n    tag_163:\n        /* \"#utility.yul\":410:415   */\n      0x00\n        /* \"#utility.yul\":451:454   */\n      0xc0\n        /* \"#utility.yul\":442:448   */\n      dup3\n        /* \"#utility.yul\":437:440   */\n      dup5\n        /* \"#utility.yul\":433:449   */\n      sub\n        /* \"#utility.yul\":429:455   */\n      slt\n        /* \"#utility.yul\":426:428   */\n      iszero\n      tag_165\n      jumpi\n        /* \"#utility.yul\":468:469   */\n      0x00\n        /* \"#utility.yul\":465:466   */\n      dup1\n        /* \"#utility.yul\":458:470   */\n      revert\n        /* \"#utility.yul\":426:428   */\n    tag_165:\n        /* \"#utility.yul\":490:496   */\n      dup2\n        /* \"#utility.yul\":481:496   */\n      swap1\n      pop\n        /* \"#utility.yul\":416:502   */\n      swap3\n      swap2\n      pop\n      pop\n      jump\t// out\n        /* \"#utility.yul\":547:1721   */\n    tag_166:\n        /* \"#utility.yul\":624:629   */\n      0x00\n        /* \"#utility.yul\":668:672   */\n      0xc0\n        /* \"#utility.yul\":656:665   */\n      dup3\n        /* \"#utility.yul\":651:654   */\n      dup5\n        /* \"#utility.yul\":647:666   */\n      sub\n        /* \"#utility.yul\":643:673   */\n      slt\n        /* \"#utility.yul\":640:642   */\n      iszero\n      tag_168\n      jumpi\n        /* \"#utility.yul\":686:687   */\n      0x00\n        /* \"#utility.yul\":683:684   */\n      dup1\n        /* \"#utility.yul\":676:688   */\n      revert\n        /* \"#utility.yul\":640:642   */\n    tag_168:\n        /* \"#utility.yul\":708:729   */\n      tag_169\n        /* \"#utility.yul\":724:728   */\n      0xc0\n        /* \"#utility.yul\":708:729   */\n      tag_170\n      jump\t// in\n    tag_169:\n        /* \"#utility.yul\":699:729   */\n      swap1\n      pop\n        /* \"#utility.yul\":795:796   */\n      0x00\n        /* \"#utility.yul\":835:883   */\n      tag_171\n        /* \"#utility.yul\":879:882   */\n      dup5\n        /* \"#utility.yul\":870:876   */\n      dup3\n        /* \"#utility.yul\":859:868   */\n      dup6\n        /* \"#utility.yul\":855:877   */\n      add\n        /* \"#utility.yul\":835:883   */\n      tag_172\n      jump\t// in\n    tag_171:\n        /* \"#utility.yul\":828:832   */\n      0x00\n        /* \"#utility.yul\":821:826   */\n      dup4\n        /* \"#utility.yul\":817:833   */\n      add\n        /* \"#utility.yul\":810:884   */\n      mstore\n        /* \"#utility.yul\":739:895   */\n      pop\n        /* \"#utility.yul\":960:962   */\n      0x20\n        /* \"#utility.yul\":1001:1049   */\n      tag_173\n        /* \"#utility.yul\":1045:1048   */\n      dup5\n        /* \"#utility.yul\":1036:1042   */\n      dup3\n        /* \"#utility.yul\":1025:1034   */\n      dup6\n        /* \"#utility.yul\":1021:1043   */\n      add\n        /* \"#utility.yul\":1001:1049   */\n      tag_174\n      jump\t// in\n    tag_173:\n        /* \"#utility.yul\":994:998   */\n      0x20\n        /* \"#utility.yul\":987:992   */\n      dup4\n        /* \"#utility.yul\":983:999   */\n      add\n        /* \"#utility.yul\":976:1050   */\n      mstore\n        /* \"#utility.yul\":905:1061   */\n      pop\n        /* \"#utility.yul\":1121:1123   */\n      0x40\n        /* \"#utility.yul\":1162:1210   */\n      tag_175\n        /* \"#utility.yul\":1206:1209   */\n      dup5\n        /* \"#utility.yul\":1197:1203   */\n      dup3\n        /* \"#utility.yul\":1186:1195   */\n      dup6\n        /* \"#utility.yul\":1182:1204   */\n      add\n        /* \"#utility.yul\":1162:1210   */\n      tag_174\n      jump\t// in\n    tag_175:\n        /* \"#utility.yul\":1155:1159   */\n      0x40\n        /* \"#utility.yul\":1148:1153   */\n      dup4\n        /* \"#utility.yul\":1144:1160   */\n      add\n        /* \"#utility.yul\":1137:1211   */\n      mstore\n        /* \"#utility.yul\":1071:1222   */\n      pop\n        /* \"#utility.yul\":1283:1285   */\n      0x60\n        /* \"#utility.yul\":1324:1373   */\n      tag_176\n        /* \"#utility.yul\":1369:1372   */\n      dup5\n        /* \"#utility.yul\":1360:1366   */\n      dup3\n        /* \"#utility.yul\":1349:1358   */\n      dup6\n        /* \"#utility.yul\":1345:1367   */\n      add\n        /* \"#utility.yul\":1324:1373   */\n      tag_177\n      jump\t// in\n    tag_176:\n        /* \"#utility.yul\":1317:1321   */\n      0x60\n        /* \"#utility.yul\":1310:1315   */\n      dup4\n        /* \"#utility.yul\":1306:1322   */\n      add\n        /* \"#utility.yul\":1299:1374   */\n      mstore\n        /* \"#utility.yul\":1232:1385   */\n      pop\n        /* \"#utility.yul\":1448:1451   */\n      0x80\n        /* \"#utility.yul\":1490:1539   */\n      tag_178\n        /* \"#utility.yul\":1535:1538   */\n      dup5\n        /* \"#utility.yul\":1526:1532   */\n      dup3\n        /* \"#utility.yul\":1515:1524   */\n      dup6\n        /* \"#utility.yul\":1511:1533   */\n      add\n        /* \"#utility.yul\":1490:1539   */\n      tag_155\n      jump\t// in\n    tag_178:\n        /* \"#utility.yul\":1483:1487   */\n      0x80\n        /* \"#utility.yul\":1476:1481   */\n      dup4\n        /* \"#utility.yul\":1472:1488   */\n      add\n        /* \"#utility.yul\":1465:1540   */\n      mstore\n        /* \"#utility.yul\":1395:1551   */\n      pop\n        /* \"#utility.yul\":1611:1614   */\n      0xa0\n        /* \"#utility.yul\":1653:1702   */\n      tag_179\n        /* \"#utility.yul\":1698:1701   */\n      dup5\n        /* \"#utility.yul\":1689:1695   */\n      dup3\n        /* \"#utility.yul\":1678:1687   */\n      dup6\n        /* \"#utility.yul\":1674:1696   */\n      add\n        /* \"#utility.yul\":1653:1702   */\n      tag_155\n      jump\t// in\n    tag_179:\n        /* \"#utility.yul\":1646:1650   */\n      0xa0\n        /* \"#utility.yul\":1639:1644   */\n      dup4\n        /* \"#utility.yul\":1635:1651   */\n      add\n        /* \"#utility.yul\":1628:1703   */\n      mstore\n        /* \"#utility.yul\":1561:1714   */\n      pop\n        /* \"#utility.yul\":630:1721   */\n      swap3\n      swap2\n      pop\n      pop\n      jump\t// out\n        /* \"#utility.yul\":1727:1866   */\n    tag_177:\n        /* \"#utility.yul\":1773:1778   */\n      0x00\n        /* \"#utility.yul\":1811:1817   */\n      dup2\n        /* \"#utility.yul\":1798:1818   */\n      calldataload\n        /* \"#utility.yul\":1789:1818   */\n      swap1\n      pop\n        /* \"#utility.yul\":1827:1860   */\n      tag_181\n        /* \"#utility.yul\":1854:1859   */\n      dup2\n        /* \"#utility.yul\":1827:1860   */\n      tag_182\n      jump\t// in\n    tag_181:\n        /* \"#utility.yul\":1779:1866   */\n      swap3\n      swap2\n      pop\n      pop\n      jump\t// out\n        /* \"#utility.yul\":1872:2015   */\n    tag_183:\n        /* \"#utility.yul\":1929:1934   */\n      0x00\n        /* \"#utility.yul\":1960:1966   */\n      dup2\n        /* \"#utility.yul\":1954:1967   */\n      mload\n        /* \"#utility.yul\":1945:1967   */\n      swap1\n      pop\n        /* \"#utility.yul\":1976:2009   */\n      tag_185\n        /* \"#utility.yul\":2003:2008   */\n      dup2\n        /* \"#utility.yul\":1976:2009   */\n      tag_182\n      jump\t// in\n    tag_185:\n        /* \"#utility.yul\":1935:2015   */\n      swap3\n      swap2\n      pop\n      pop\n      jump\t// out\n        /* \"#utility.yul\":2021:2158   */\n    tag_172:\n        /* \"#utility.yul\":2066:2071   */\n      0x00\n        /* \"#utility.yul\":2104:2110   */\n      dup2\n        /* \"#utility.yul\":2091:2111   */\n      calldataload\n        /* \"#utility.yul\":2082:2111   */\n      swap1\n      pop\n        /* \"#utility.yul\":2120:2152   */\n      tag_187\n        /* \"#utility.yul\":2146:2151   */\n      dup2\n        /* \"#utility.yul\":2120:2152   */\n      tag_188\n      jump\t// in\n    tag_187:\n        /* \"#utility.yul\":2072:2158   */\n      swap3\n      swap2\n      pop\n      pop\n      jump\t// out\n        /* \"#utility.yul\":2164:2301   */\n    tag_174:\n        /* \"#utility.yul\":2209:2214   */\n      0x00\n        /* \"#utility.yul\":2247:2253   */\n      dup2\n        /* \"#utility.yul\":2234:2254   */\n      calldataload\n        /* \"#utility.yul\":2225:2254   */\n      swap1\n      pop\n        /* \"#utility.yul\":2263:2295   */\n      tag_190\n        /* \"#utility.yul\":2289:2294   */\n      dup2\n        /* \"#utility.yul\":2263:2295   */\n      tag_191\n      jump\t// in\n    tag_190:\n        /* \"#utility.yul\":2215:2301   */\n      swap3\n      swap2\n      pop\n      pop\n      jump\t// out\n        /* \"#utility.yul\":2307:2569   */\n    tag_32:\n        /* \"#utility.yul\":2366:2372   */\n      0x00\n        /* \"#utility.yul\":2415:2417   */\n      0x20\n        /* \"#utility.yul\":2403:2412   */\n      dup3\n        /* \"#utility.yul\":2394:2401   */\n      dup5\n        /* \"#utility.yul\":2390:2413   */\n      sub\n        /* \"#utility.yul\":2386:2418   */\n      slt\n        /* \"#utility.yul\":2383:2385   */\n      iszero\n      tag_193\n      jumpi\n        /* \"#utility.yul\":2431:2432   */\n      0x00\n        /* \"#utility.yul\":2428:2429   */\n      dup1\n        /* \"#utility.yul\":2421:2433   */\n      revert\n        /* \"#utility.yul\":2383:2385   */\n    tag_193:\n        /* \"#utility.yul\":2474:2475   */\n      0x00\n        /* \"#utility.yul\":2499:2552   */\n      tag_194\n        /* \"#utility.yul\":2544:2551   */\n      dup5\n        /* \"#utility.yul\":2535:2541   */\n      dup3\n        /* \"#utility.yul\":2524:2533   */\n      dup6\n        /* \"#utility.yul\":2520:2542   */\n      add\n        /* \"#utility.yul\":2499:2552   */\n      tag_155\n      jump\t// in\n    tag_194:\n        /* \"#utility.yul\":2489:2552   */\n      swap2\n      pop\n        /* \"#utility.yul\":2445:2562   */\n      pop\n        /* \"#utility.yul\":2373:2569   */\n      swap3\n      swap2\n      pop\n      pop\n      jump\t// out\n        /* \"#utility.yul\":2575:2982   */\n    tag_23:\n        /* \"#utility.yul\":2643:2649   */\n      0x00\n        /* \"#utility.yul\":2651:2657   */\n      dup1\n        /* \"#utility.yul\":2700:2702   */\n      0x40\n        /* \"#utility.yul\":2688:2697   */\n      dup4\n        /* \"#utility.yul\":2679:2686   */\n      dup6\n        /* \"#utility.yul\":2675:2698   */\n      sub\n        /* \"#utility.yul\":2671:2703   */\n      slt\n        /* \"#utility.yul\":2668:2670   */\n      iszero\n      tag_196\n      jumpi\n        /* \"#utility.yul\":2716:2717   */\n      0x00\n        /* \"#utility.yul\":2713:2714   */\n      dup1\n        /* \"#utility.yul\":2706:2718   */\n      revert\n        /* \"#utility.yul\":2668:2670   */\n    tag_196:\n        /* \"#utility.yul\":2759:2760   */\n      0x00\n        /* \"#utility.yul\":2784:2837   */\n      tag_197\n        /* \"#utility.yul\":2829:2836   */\n      dup6\n        /* \"#utility.yul\":2820:2826   */\n      dup3\n        /* \"#utility.yul\":2809:2818   */\n      dup7\n        /* \"#utility.yul\":2805:2827   */\n      add\n        /* \"#utility.yul\":2784:2837   */\n      tag_155\n      jump\t// in\n    tag_197:\n        /* \"#utility.yul\":2774:2837   */\n      swap3\n      pop\n        /* \"#utility.yul\":2730:2847   */\n      pop\n        /* \"#utility.yul\":2886:2888   */\n      0x20\n        /* \"#utility.yul\":2912:2965   */\n      tag_198\n        /* \"#utility.yul\":2957:2964   */\n      dup6\n        /* \"#utility.yul\":2948:2954   */\n      dup3\n        /* \"#utility.yul\":2937:2946   */\n      dup7\n        /* \"#utility.yul\":2933:2955   */\n      add\n        /* \"#utility.yul\":2912:2965   */\n      tag_177\n      jump\t// in\n    tag_198:\n        /* \"#utility.yul\":2902:2965   */\n      swap2\n      pop\n        /* \"#utility.yul\":2857:2975   */\n      pop\n        /* \"#utility.yul\":2658:2982   */\n      swap3\n      pop\n      swap3\n      swap1\n      pop\n      jump\t// out\n        /* \"#utility.yul\":2988:3266   */\n    tag_123:\n        /* \"#utility.yul\":3055:3061   */\n      0x00\n        /* \"#utility.yul\":3104:3106   */\n      0x20\n        /* \"#utility.yul\":3092:3101   */\n      dup3\n        /* \"#utility.yul\":3083:3090   */\n      dup5\n        /* \"#utility.yul\":3079:3102   */\n      sub\n        /* \"#utility.yul\":3075:3107   */\n      slt\n        /* \"#utility.yul\":3072:3074   */\n      iszero\n      tag_200\n      jumpi\n        /* \"#utility.yul\":3120:3121   */\n      0x00\n        /* \"#utility.yul\":3117:3118   */\n      dup1\n        /* \"#utility.yul\":3110:3122   */\n      revert\n        /* \"#utility.yul\":3072:3074   */\n    tag_200:\n        /* \"#utility.yul\":3163:3164   */\n      0x00\n        /* \"#utility.yul\":3188:3249   */\n      tag_201\n        /* \"#utility.yul\":3241:3248   */\n      dup5\n        /* \"#utility.yul\":3232:3238   */\n      dup3\n        /* \"#utility.yul\":3221:3230   */\n      dup6\n        /* \"#utility.yul\":3217:3239   */\n      add\n        /* \"#utility.yul\":3188:3249   */\n      tag_159\n      jump\t// in\n    tag_201:\n        /* \"#utility.yul\":3178:3249   */\n      swap2\n      pop\n        /* \"#utility.yul\":3134:3259   */\n      pop\n        /* \"#utility.yul\":3062:3266   */\n      swap3\n      swap2\n      pop\n      pop\n      jump\t// out\n        /* \"#utility.yul\":3272:3595   */\n    tag_13:\n        /* \"#utility.yul\":3361:3367   */\n      0x00\n        /* \"#utility.yul\":3410:3413   */\n      0xc0\n        /* \"#utility.yul\":3398:3407   */\n      dup3\n        /* \"#utility.yul\":3389:3396   */\n      dup5\n        /* \"#utility.yul\":3385:3408   */\n      sub\n        /* \"#utility.yul\":3381:3414   */\n      slt\n        /* \"#utility.yul\":3378:3380   */\n      iszero\n      tag_203\n      jumpi\n        /* \"#utility.yul\":3427:3428   */\n      0x00\n        /* \"#utility.yul\":3424:3425   */\n      dup1\n        /* \"#utility.yul\":3417:3429   */\n      revert\n        /* \"#utility.yul\":3378:3380   */\n    tag_203:\n        /* \"#utility.yul\":3470:3471   */\n      0x00\n        /* \"#utility.yul\":3495:3578   */\n      tag_204\n        /* \"#utility.yul\":3570:3577   */\n      dup5\n        /* \"#utility.yul\":3561:3567   */\n      dup3\n        /* \"#utility.yul\":3550:3559   */\n      dup6\n        /* \"#utility.yul\":3546:3568   */\n      add\n        /* \"#utility.yul\":3495:3578   */\n      tag_163\n      jump\t// in\n    tag_204:\n        /* \"#utility.yul\":3485:3578   */\n      swap2\n      pop\n        /* \"#utility.yul\":3441:3588   */\n      pop\n        /* \"#utility.yul\":3368:3595   */\n      swap3\n      swap2\n      pop\n      pop\n      jump\t// out\n        /* \"#utility.yul\":3601:3920   */\n    tag_36:\n        /* \"#utility.yul\":3688:3694   */\n      0x00\n        /* \"#utility.yul\":3737:3740   */\n      0xc0\n        /* \"#utility.yul\":3725:3734   */\n      dup3\n        /* \"#utility.yul\":3716:3723   */\n      dup5\n        /* \"#utility.yul\":3712:3735   */\n      sub\n        /* \"#utility.yul\":3708:3741   */\n      slt\n        /* \"#utility.yul\":3705:3707   */\n      iszero\n      tag_206\n      jumpi\n        /* \"#utility.yul\":3754:3755   */\n      0x00\n        /* \"#utility.yul\":3751:3752   */\n      dup1\n        /* \"#utility.yul\":3744:3756   */\n      revert\n        /* \"#utility.yul\":3705:3707   */\n    tag_206:\n        /* \"#utility.yul\":3797:3798   */\n      0x00\n        /* \"#utility.yul\":3822:3903   */\n      tag_207\n        /* \"#utility.yul\":3895:3902   */\n      dup5\n        /* \"#utility.yul\":3886:3892   */\n      dup3\n        /* \"#utility.yul\":3875:3884   */\n      dup6\n        /* \"#utility.yul\":3871:3893   */\n      add\n        /* \"#utility.yul\":3822:3903   */\n      tag_166\n      jump\t// in\n    tag_207:\n        /* \"#utility.yul\":3812:3903   */\n      swap2\n      pop\n        /* \"#utility.yul\":3768:3913   */\n      pop\n        /* \"#utility.yul\":3695:3920   */\n      swap3\n      swap2\n      pop\n      pop\n      jump\t// out\n        /* \"#utility.yul\":3926:4210   */\n    tag_84:\n        /* \"#utility.yul\":3996:4002   */\n      0x00\n        /* \"#utility.yul\":4045:4047   */\n      0x20\n        /* \"#utility.yul\":4033:4042   */\n      dup3\n        /* \"#utility.yul\":4024:4031   */\n      dup5\n        /* \"#utility.yul\":4020:4043   */\n      sub\n        /* \"#utility.yul\":4016:4048   */\n      slt\n        /* \"#utility.yul\":4013:4015   */\n      iszero\n      tag_209\n      jumpi\n        /* \"#utility.yul\":4061:4062   */\n      0x00\n        /* \"#utility.yul\":4058:4059   */\n      dup1\n        /* \"#utility.yul\":4051:4063   */\n      revert\n        /* \"#utility.yul\":4013:4015   */\n    tag_209:\n        /* \"#utility.yul\":4104:4105   */\n      0x00\n        /* \"#utility.yul\":4129:4193   */\n      tag_210\n        /* \"#utility.yul\":4185:4192   */\n      dup5\n        /* \"#utility.yul\":4176:4182   */\n      dup3\n        /* \"#utility.yul\":4165:4174   */\n      dup6\n        /* \"#utility.yul\":4161:4183   */\n      add\n        /* \"#utility.yul\":4129:4193   */\n      tag_183\n      jump\t// in\n    tag_210:\n        /* \"#utility.yul\":4119:4193   */\n      swap2\n      pop\n        /* \"#utility.yul\":4075:4203   */\n      pop\n        /* \"#utility.yul\":4003:4210   */\n      swap3\n      swap2\n      pop\n      pop\n      jump\t// out\n        /* \"#utility.yul\":4216:4476   */\n    tag_41:\n        /* \"#utility.yul\":4274:4280   */\n      0x00\n        /* \"#utility.yul\":4323:4325   */\n      0x20\n        /* \"#utility.yul\":4311:4320   */\n      dup3\n        /* \"#utility.yul\":4302:4309   */\n      dup5\n        /* \"#utility.yul\":4298:4321   */\n      sub\n        /* \"#utility.yul\":4294:4326   */\n      slt\n        /* \"#utility.yul\":4291:4293   */\n      iszero\n      tag_212\n      jumpi\n        /* \"#utility.yul\":4339:4340   */\n      0x00\n        /* \"#utility.yul\":4336:4337   */\n      dup1\n        /* \"#utility.yul\":4329:4341   */\n      revert\n        /* \"#utility.yul\":4291:4293   */\n    tag_212:\n        /* \"#utility.yul\":4382:4383   */\n      0x00\n        /* \"#utility.yul\":4407:4459   */\n      tag_213\n        /* \"#utility.yul\":4451:4458   */\n      dup5\n        /* \"#utility.yul\":4442:4448   */\n      dup3\n        /* \"#utility.yul\":4431:4440   */\n      dup6\n        /* \"#utility.yul\":4427:4449   */\n      add\n        /* \"#utility.yul\":4407:4459   */\n      tag_174\n      jump\t// in\n    tag_213:\n        /* \"#utility.yul\":4397:4459   */\n      swap2\n      pop\n        /* \"#utility.yul\":4353:4469   */\n      pop\n        /* \"#utility.yul\":4281:4476   */\n      swap3\n      swap2\n      pop\n      pop\n      jump\t// out\n        /* \"#utility.yul\":4482:4600   */\n    tag_214:\n        /* \"#utility.yul\":4569:4593   */\n      tag_216\n        /* \"#utility.yul\":4587:4592   */\n      dup2\n        /* \"#utility.yul\":4569:4593   */\n      tag_217\n      jump\t// in\n    tag_216:\n        /* \"#utility.yul\":4564:4567   */\n      dup3\n        /* \"#utility.yul\":4557:4594   */\n      mstore\n        /* \"#utility.yul\":4547:4600   */\n      pop\n      pop\n      jump\t// out\n        /* \"#utility.yul\":4606:4979   */\n    tag_218:\n        /* \"#utility.yul\":4710:4713   */\n      0x00\n        /* \"#utility.yul\":4738:4776   */\n      tag_220\n        /* \"#utility.yul\":4770:4775   */\n      dup3\n        /* \"#utility.yul\":4738:4776   */\n      tag_221\n      jump\t// in\n    tag_220:\n        /* \"#utility.yul\":4792:4880   */\n      tag_222\n        /* \"#utility.yul\":4873:4879   */\n      dup2\n        /* \"#utility.yul\":4868:4871   */\n      dup6\n        /* \"#utility.yul\":4792:4880   */\n      tag_223\n      jump\t// in\n    tag_222:\n        /* \"#utility.yul\":4785:4880   */\n      swap4\n      pop\n        /* \"#utility.yul\":4889:4941   */\n      tag_224\n        /* \"#utility.yul\":4934:4940   */\n      dup2\n        /* \"#utility.yul\":4929:4932   */\n      dup6\n        /* \"#utility.yul\":4922:4926   */\n      0x20\n        /* \"#utility.yul\":4915:4920   */\n      dup7\n        /* \"#utility.yul\":4911:4927   */\n      add\n        /* \"#utility.yul\":4889:4941   */\n      tag_225\n      jump\t// in\n    tag_224:\n        /* \"#utility.yul\":4966:4972   */\n      dup1\n        /* \"#utility.yul\":4961:4964   */\n      dup5\n        /* \"#utility.yul\":4957:4973   */\n      add\n        /* \"#utility.yul\":4950:4973   */\n      swap2\n      pop\n        /* \"#utility.yul\":4714:4979   */\n      pop\n      swap3\n      swap2\n      pop\n      pop\n      jump\t// out\n        /* \"#utility.yul\":4985:5349   */\n    tag_226:\n        /* \"#utility.yul\":5073:5076   */\n      0x00\n        /* \"#utility.yul\":5101:5140   */\n      tag_228\n        /* \"#utility.yul\":5134:5139   */\n      dup3\n        /* \"#utility.yul\":5101:5140   */\n      tag_229\n      jump\t// in\n    tag_228:\n        /* \"#utility.yul\":5156:5227   */\n      tag_230\n        /* \"#utility.yul\":5220:5226   */\n      dup2\n        /* \"#utility.yul\":5215:5218   */\n      dup6\n        /* \"#utility.yul\":5156:5227   */\n      tag_231\n      jump\t// in\n    tag_230:\n        /* \"#utility.yul\":5149:5227   */\n      swap4\n      pop\n        /* \"#utility.yul\":5236:5288   */\n      tag_232\n        /* \"#utility.yul\":5281:5287   */\n      dup2\n        /* \"#utility.yul\":5276:5279   */\n      dup6\n        /* \"#utility.yul\":5269:5273   */\n      0x20\n        /* \"#utility.yul\":5262:5267   */\n      dup7\n        /* \"#utility.yul\":5258:5274   */\n      add\n        /* \"#utility.yul\":5236:5288   */\n      tag_225\n      jump\t// in\n    tag_232:\n        /* \"#utility.yul\":5313:5342   */\n      tag_233\n        /* \"#utility.yul\":5335:5341   */\n      dup2\n        /* \"#utility.yul\":5313:5342   */\n      tag_234\n      jump\t// in\n    tag_233:\n        /* \"#utility.yul\":5308:5311   */\n      dup5\n        /* \"#utility.yul\":5304:5343   */\n      add\n        /* \"#utility.yul\":5297:5343   */\n      swap2\n      pop\n        /* \"#utility.yul\":5077:5349   */\n      pop\n      swap3\n      swap2\n      pop\n      pop\n      jump\t// out\n        /* \"#utility.yul\":5355:5721   */\n    tag_235:\n        /* \"#utility.yul\":5497:5500   */\n      0x00\n        /* \"#utility.yul\":5518:5585   */\n      tag_237\n        /* \"#utility.yul\":5582:5584   */\n      0x26\n        /* \"#utility.yul\":5577:5580   */\n      dup4\n        /* \"#utility.yul\":5518:5585   */\n      tag_231\n      jump\t// in\n    tag_237:\n        /* \"#utility.yul\":5511:5585   */\n      swap2\n      pop\n        /* \"#utility.yul\":5594:5687   */\n      tag_238\n        /* \"#utility.yul\":5683:5686   */\n      dup3\n        /* \"#utility.yul\":5594:5687   */\n      tag_239\n      jump\t// in\n    tag_238:\n        /* \"#utility.yul\":5712:5714   */\n      0x40\n        /* \"#utility.yul\":5707:5710   */\n      dup3\n        /* \"#utility.yul\":5703:5715   */\n      add\n        /* \"#utility.yul\":5696:5715   */\n      swap1\n      pop\n        /* \"#utility.yul\":5501:5721   */\n      swap2\n      swap1\n      pop\n      jump\t// out\n        /* \"#utility.yul\":5727:6092   */\n    tag_240:\n        /* \"#utility.yul\":5869:5872   */\n      0x00\n        /* \"#utility.yul\":5890:5956   */\n      tag_242\n        /* \"#utility.yul\":5954:5955   */\n      0x07\n        /* \"#utility.yul\":5949:5952   */\n      dup4\n        /* \"#utility.yul\":5890:5956   */\n      tag_231\n      jump\t// in\n    tag_242:\n        /* \"#utility.yul\":5883:5956   */\n      swap2\n      pop\n        /* \"#utility.yul\":5965:6058   */\n      tag_243\n        /* \"#utility.yul\":6054:6057   */\n      dup3\n        /* \"#utility.yul\":5965:6058   */\n      tag_244\n      jump\t// in\n    tag_243:\n        /* \"#utility.yul\":6083:6085   */\n      0x20\n        /* \"#utility.yul\":6078:6081   */\n      dup3\n        /* \"#utility.yul\":6074:6086   */\n      add\n        /* \"#utility.yul\":6067:6086   */\n      swap1\n      pop\n        /* \"#utility.yul\":5873:6092   */\n      swap2\n      swap1\n      pop\n      jump\t// out\n        /* \"#utility.yul\":6098:6464   */\n    tag_245:\n        /* \"#utility.yul\":6240:6243   */\n      0x00\n        /* \"#utility.yul\":6261:6328   */\n      tag_247\n        /* \"#utility.yul\":6325:6327   */\n      0x1d\n        /* \"#utility.yul\":6320:6323   */\n      dup4\n        /* \"#utility.yul\":6261:6328   */\n      tag_231\n      jump\t// in\n    tag_247:\n        /* \"#utility.yul\":6254:6328   */\n      swap2\n      pop\n        /* \"#utility.yul\":6337:6430   */\n      tag_248\n        /* \"#utility.yul\":6426:6429   */\n      dup3\n        /* \"#utility.yul\":6337:6430   */\n      tag_249\n      jump\t// in\n    tag_248:\n        /* \"#utility.yul\":6455:6457   */\n      0x20\n        /* \"#utility.yul\":6450:6453   */\n      dup3\n        /* \"#utility.yul\":6446:6458   */\n      add\n        /* \"#utility.yul\":6439:6458   */\n      swap1\n      pop\n        /* \"#utility.yul\":6244:6464   */\n      swap2\n      swap1\n      pop\n      jump\t// out\n        /* \"#utility.yul\":6470:6836   */\n    tag_250:\n        /* \"#utility.yul\":6612:6615   */\n      0x00\n        /* \"#utility.yul\":6633:6700   */\n      tag_252\n        /* \"#utility.yul\":6697:6699   */\n      0x2a\n        /* \"#utility.yul\":6692:6695   */\n      dup4\n        /* \"#utility.yul\":6633:6700   */\n      tag_231\n      jump\t// in\n    tag_252:\n        /* \"#utility.yul\":6626:6700   */\n      swap2\n      pop\n        /* \"#utility.yul\":6709:6802   */\n      tag_253\n        /* \"#utility.yul\":6798:6801   */\n      dup3\n        /* \"#utility.yul\":6709:6802   */\n      tag_254\n      jump\t// in\n    tag_253:\n        /* \"#utility.yul\":6827:6829   */\n      0x40\n        /* \"#utility.yul\":6822:6825   */\n      dup3\n        /* \"#utility.yul\":6818:6830   */\n      add\n        /* \"#utility.yul\":6811:6830   */\n      swap1\n      pop\n        /* \"#utility.yul\":6616:6836   */\n      swap2\n      swap1\n      pop\n      jump\t// out\n        /* \"#utility.yul\":6842:7208   */\n    tag_255:\n        /* \"#utility.yul\":6984:6987   */\n      0x00\n        /* \"#utility.yul\":7005:7072   */\n      tag_257\n        /* \"#utility.yul\":7069:7071   */\n      0x1f\n        /* \"#utility.yul\":7064:7067   */\n      dup4\n        /* \"#utility.yul\":7005:7072   */\n      tag_231\n      jump\t// in\n    tag_257:\n        /* \"#utility.yul\":6998:7072   */\n      swap2\n      pop\n        /* \"#utility.yul\":7081:7174   */\n      tag_258\n        /* \"#utility.yul\":7170:7173   */\n      dup3\n        /* \"#utility.yul\":7081:7174   */\n      tag_259\n      jump\t// in\n    tag_258:\n        /* \"#utility.yul\":7199:7201   */\n      0x20\n        /* \"#utility.yul\":7194:7197   */\n      dup3\n        /* \"#utility.yul\":7190:7202   */\n      add\n        /* \"#utility.yul\":7183:7202   */\n      swap1\n      pop\n        /* \"#utility.yul\":6988:7208   */\n      swap2\n      swap1\n      pop\n      jump\t// out\n        /* \"#utility.yul\":7214:7580   */\n    tag_260:\n        /* \"#utility.yul\":7356:7359   */\n      0x00\n        /* \"#utility.yul\":7377:7444   */\n      tag_262\n        /* \"#utility.yul\":7441:7443   */\n      0x36\n        /* \"#utility.yul\":7436:7439   */\n      dup4\n        /* \"#utility.yul\":7377:7444   */\n      tag_231\n      jump\t// in\n    tag_262:\n        /* \"#utility.yul\":7370:7444   */\n      swap2\n      pop\n        /* \"#utility.yul\":7453:7546   */\n      tag_263\n        /* \"#utility.yul\":7542:7545   */\n      dup3\n        /* \"#utility.yul\":7453:7546   */\n      tag_264\n      jump\t// in\n    tag_263:\n        /* \"#utility.yul\":7571:7573   */\n      0x40\n        /* \"#utility.yul\":7566:7569   */\n      dup3\n        /* \"#utility.yul\":7562:7574   */\n      add\n        /* \"#utility.yul\":7555:7574   */\n      swap1\n      pop\n        /* \"#utility.yul\":7360:7580   */\n      swap2\n      swap1\n      pop\n      jump\t// out\n        /* \"#utility.yul\":7586:7704   */\n    tag_265:\n        /* \"#utility.yul\":7673:7697   */\n      tag_267\n        /* \"#utility.yul\":7691:7696   */\n      dup2\n        /* \"#utility.yul\":7673:7697   */\n      tag_268\n      jump\t// in\n    tag_267:\n        /* \"#utility.yul\":7668:7671   */\n      dup3\n        /* \"#utility.yul\":7661:7698   */\n      mstore\n        /* \"#utility.yul\":7651:7704   */\n      pop\n      pop\n      jump\t// out\n        /* \"#utility.yul\":7710:7825   */\n    tag_269:\n        /* \"#utility.yul\":7795:7818   */\n      tag_271\n        /* \"#utility.yul\":7812:7817   */\n      dup2\n        /* \"#utility.yul\":7795:7818   */\n      tag_272\n      jump\t// in\n    tag_271:\n        /* \"#utility.yul\":7790:7793   */\n      dup3\n        /* \"#utility.yul\":7783:7819   */\n      mstore\n        /* \"#utility.yul\":7773:7825   */\n      pop\n      pop\n      jump\t// out\n        /* \"#utility.yul\":7831:7960   */\n    tag_273:\n        /* \"#utility.yul\":7917:7953   */\n      tag_275\n        /* \"#utility.yul\":7947:7952   */\n      dup2\n        /* \"#utility.yul\":7917:7953   */\n      tag_276\n      jump\t// in\n    tag_275:\n        /* \"#utility.yul\":7912:7915   */\n      dup3\n        /* \"#utility.yul\":7905:7954   */\n      mstore\n        /* \"#utility.yul\":7895:7960   */\n      pop\n      pop\n      jump\t// out\n        /* \"#utility.yul\":7966:8081   */\n    tag_277:\n        /* \"#utility.yul\":8051:8074   */\n      tag_279\n        /* \"#utility.yul\":8068:8073   */\n      dup2\n        /* \"#utility.yul\":8051:8074   */\n      tag_280\n      jump\t// in\n    tag_279:\n        /* \"#utility.yul\":8046:8049   */\n      dup3\n        /* \"#utility.yul\":8039:8075   */\n      mstore\n        /* \"#utility.yul\":8029:8081   */\n      pop\n      pop\n      jump\t// out\n        /* \"#utility.yul\":8087:8358   */\n    tag_140:\n        /* \"#utility.yul\":8217:8220   */\n      0x00\n        /* \"#utility.yul\":8239:8332   */\n      tag_282\n        /* \"#utility.yul\":8328:8331   */\n      dup3\n        /* \"#utility.yul\":8319:8325   */\n      dup5\n        /* \"#utility.yul\":8239:8332   */\n      tag_218\n      jump\t// in\n    tag_282:\n        /* \"#utility.yul\":8232:8332   */\n      swap2\n      pop\n        /* \"#utility.yul\":8349:8352   */\n      dup2\n        /* \"#utility.yul\":8342:8352   */\n      swap1\n      pop\n        /* \"#utility.yul\":8221:8358   */\n      swap3\n      swap2\n      pop\n      pop\n      jump\t// out\n        /* \"#utility.yul\":8364:8586   */\n    tag_10:\n        /* \"#utility.yul\":8457:8461   */\n      0x00\n        /* \"#utility.yul\":8495:8497   */\n      0x20\n        /* \"#utility.yul\":8484:8493   */\n      dup3\n        /* \"#utility.yul\":8480:8498   */\n      add\n        /* \"#utility.yul\":8472:8498   */\n      swap1\n      pop\n        /* \"#utility.yul\":8508:8579   */\n      tag_284\n        /* \"#utility.yul\":8576:8577   */\n      0x00\n        /* \"#utility.yul\":8565:8574   */\n      dup4\n        /* \"#utility.yul\":8561:8578   */\n      add\n        /* \"#utility.yul\":8552:8558   */\n      dup5\n        /* \"#utility.yul\":8508:8579   */\n      tag_214\n      jump\t// in\n    tag_284:\n        /* \"#utility.yul\":8462:8586   */\n      swap3\n      swap2\n      pop\n      pop\n      jump\t// out\n        /* \"#utility.yul\":8592:8924   */\n    tag_79:\n        /* \"#utility.yul\":8713:8717   */\n      0x00\n        /* \"#utility.yul\":8751:8753   */\n      0x40\n        /* \"#utility.yul\":8740:8749   */\n      dup3\n        /* \"#utility.yul\":8736:8754   */\n      add\n        /* \"#utility.yul\":8728:8754   */\n      swap1\n      pop\n        /* \"#utility.yul\":8764:8835   */\n      tag_286\n        /* \"#utility.yul\":8832:8833   */\n      0x00\n        /* \"#utility.yul\":8821:8830   */\n      dup4\n        /* \"#utility.yul\":8817:8834   */\n      add\n        /* \"#utility.yul\":8808:8814   */\n      dup6\n        /* \"#utility.yul\":8764:8835   */\n      tag_214\n      jump\t// in\n    tag_286:\n        /* \"#utility.yul\":8845:8917   */\n      tag_287\n        /* \"#utility.yul\":8913:8915   */\n      0x20\n        /* \"#utility.yul\":8902:8911   */\n      dup4\n        /* \"#utility.yul\":8898:8916   */\n      add\n        /* \"#utility.yul\":8889:8895   */\n      dup5\n        /* \"#utility.yul\":8845:8917   */\n      tag_214\n      jump\t// in\n    tag_287:\n        /* \"#utility.yul\":8718:8924   */\n      swap4\n      swap3\n      pop\n      pop\n      pop\n      jump\t// out\n        /* \"#utility.yul\":8930:9372   */\n    tag_117:\n        /* \"#utility.yul\":9079:9083   */\n      0x00\n        /* \"#utility.yul\":9117:9119   */\n      0x60\n        /* \"#utility.yul\":9106:9115   */\n      dup3\n        /* \"#utility.yul\":9102:9120   */\n      add\n        /* \"#utility.yul\":9094:9120   */\n      swap1\n      pop\n        /* \"#utility.yul\":9130:9201   */\n      tag_289\n        /* \"#utility.yul\":9198:9199   */\n      0x00\n        /* \"#utility.yul\":9187:9196   */\n      dup4\n        /* \"#utility.yul\":9183:9200   */\n      add\n        /* \"#utility.yul\":9174:9180   */\n      dup7\n        /* \"#utility.yul\":9130:9201   */\n      tag_214\n      jump\t// in\n    tag_289:\n        /* \"#utility.yul\":9211:9283   */\n      tag_290\n        /* \"#utility.yul\":9279:9281   */\n      0x20\n        /* \"#utility.yul\":9268:9277   */\n      dup4\n        /* \"#utility.yul\":9264:9282   */\n      add\n        /* \"#utility.yul\":9255:9261   */\n      dup6\n        /* \"#utility.yul\":9211:9283   */\n      tag_214\n      jump\t// in\n    tag_290:\n        /* \"#utility.yul\":9293:9365   */\n      tag_291\n        /* \"#utility.yul\":9361:9363   */\n      0x40\n        /* \"#utility.yul\":9350:9359   */\n      dup4\n        /* \"#utility.yul\":9346:9364   */\n      add\n        /* \"#utility.yul\":9337:9343   */\n      dup5\n        /* \"#utility.yul\":9293:9365   */\n      tag_265\n      jump\t// in\n    tag_291:\n        /* \"#utility.yul\":9084:9372   */\n      swap5\n      swap4\n      pop\n      pop\n      pop\n      pop\n      jump\t// out\n        /* \"#utility.yul\":9378:10141   */\n    tag_57:\n        /* \"#utility.yul\":9605:9609   */\n      0x00\n        /* \"#utility.yul\":9643:9646   */\n      0xc0\n        /* \"#utility.yul\":9632:9641   */\n      dup3\n        /* \"#utility.yul\":9628:9647   */\n      add\n        /* \"#utility.yul\":9620:9647   */\n      swap1\n      pop\n        /* \"#utility.yul\":9657:9728   */\n      tag_293\n        /* \"#utility.yul\":9725:9726   */\n      0x00\n        /* \"#utility.yul\":9714:9723   */\n      dup4\n        /* \"#utility.yul\":9710:9727   */\n      add\n        /* \"#utility.yul\":9701:9707   */\n      dup10\n        /* \"#utility.yul\":9657:9728   */\n      tag_214\n      jump\t// in\n    tag_293:\n        /* \"#utility.yul\":9738:9810   */\n      tag_294\n        /* \"#utility.yul\":9806:9808   */\n      0x20\n        /* \"#utility.yul\":9795:9804   */\n      dup4\n        /* \"#utility.yul\":9791:9809   */\n      add\n        /* \"#utility.yul\":9782:9788   */\n      dup9\n        /* \"#utility.yul\":9738:9810   */\n      tag_214\n      jump\t// in\n    tag_294:\n        /* \"#utility.yul\":9820:9892   */\n      tag_295\n        /* \"#utility.yul\":9888:9890   */\n      0x40\n        /* \"#utility.yul\":9877:9886   */\n      dup4\n        /* \"#utility.yul\":9873:9891   */\n      add\n        /* \"#utility.yul\":9864:9870   */\n      dup8\n        /* \"#utility.yul\":9820:9892   */\n      tag_265\n      jump\t// in\n    tag_295:\n        /* \"#utility.yul\":9902:9972   */\n      tag_296\n        /* \"#utility.yul\":9968:9970   */\n      0x60\n        /* \"#utility.yul\":9957:9966   */\n      dup4\n        /* \"#utility.yul\":9953:9971   */\n      add\n        /* \"#utility.yul\":9944:9950   */\n      dup7\n        /* \"#utility.yul\":9902:9972   */\n      tag_277\n      jump\t// in\n    tag_296:\n        /* \"#utility.yul\":9982:10053   */\n      tag_297\n        /* \"#utility.yul\":10048:10051   */\n      0x80\n        /* \"#utility.yul\":10037:10046   */\n      dup4\n        /* \"#utility.yul\":10033:10052   */\n      add\n        /* \"#utility.yul\":10024:10030   */\n      dup6\n        /* \"#utility.yul\":9982:10053   */\n      tag_277\n      jump\t// in\n    tag_297:\n        /* \"#utility.yul\":10063:10134   */\n      tag_298\n        /* \"#utility.yul\":10129:10132   */\n      0xa0\n        /* \"#utility.yul\":10118:10127   */\n      dup4\n        /* \"#utility.yul\":10114:10133   */\n      add\n        /* \"#utility.yul\":10105:10111   */\n      dup5\n        /* \"#utility.yul\":10063:10134   */\n      tag_269\n      jump\t// in\n    tag_298:\n        /* \"#utility.yul\":9610:10141   */\n      swap8\n      swap7\n      pop\n      pop\n      pop\n      pop\n      pop\n      pop\n      pop\n      jump\t// out\n        /* \"#utility.yul\":10147:10479   */\n    tag_48:\n        /* \"#utility.yul\":10268:10272   */\n      0x00\n        /* \"#utility.yul\":10306:10308   */\n      0x40\n        /* \"#utility.yul\":10295:10304   */\n      dup3\n        /* \"#utility.yul\":10291:10309   */\n      add\n        /* \"#utility.yul\":10283:10309   */\n      swap1\n      pop\n        /* \"#utility.yul\":10319:10390   */\n      tag_300\n        /* \"#utility.yul\":10387:10388   */\n      0x00\n        /* \"#utility.yul\":10376:10385   */\n      dup4\n        /* \"#utility.yul\":10372:10389   */\n      add\n        /* \"#utility.yul\":10363:10369   */\n      dup6\n        /* \"#utility.yul\":10319:10390   */\n      tag_214\n      jump\t// in\n    tag_300:\n        /* \"#utility.yul\":10400:10472   */\n      tag_301\n        /* \"#utility.yul\":10468:10470   */\n      0x20\n        /* \"#utility.yul\":10457:10466   */\n      dup4\n        /* \"#utility.yul\":10453:10471   */\n      add\n        /* \"#utility.yul\":10444:10450   */\n      dup5\n        /* \"#utility.yul\":10400:10472   */\n      tag_265\n      jump\t// in\n    tag_301:\n        /* \"#utility.yul\":10273:10479   */\n      swap4\n      swap3\n      pop\n      pop\n      pop\n      jump\t// out\n        /* \"#utility.yul\":10485:10798   */\n    tag_153:\n        /* \"#utility.yul\":10598:10602   */\n      0x00\n        /* \"#utility.yul\":10636:10638   */\n      0x20\n        /* \"#utility.yul\":10625:10634   */\n      dup3\n        /* \"#utility.yul\":10621:10639   */\n      add\n        /* \"#utility.yul\":10613:10639   */\n      swap1\n      pop\n        /* \"#utility.yul\":10685:10694   */\n      dup2\n        /* \"#utility.yul\":10679:10683   */\n      dup2\n        /* \"#utility.yul\":10675:10695   */\n      sub\n        /* \"#utility.yul\":10671:10672   */\n      0x00\n        /* \"#utility.yul\":10660:10669   */\n      dup4\n        /* \"#utility.yul\":10656:10673   */\n      add\n        /* \"#utility.yul\":10649:10696   */\n      mstore\n        /* \"#utility.yul\":10713:10791   */\n      tag_303\n        /* \"#utility.yul\":10786:10790   */\n      dup2\n        /* \"#utility.yul\":10777:10783   */\n      dup5\n        /* \"#utility.yul\":10713:10791   */\n      tag_226\n      jump\t// in\n    tag_303:\n        /* \"#utility.yul\":10705:10791   */\n      swap1\n      pop\n        /* \"#utility.yul\":10603:10798   */\n      swap3\n      swap2\n      pop\n      pop\n      jump\t// out\n        /* \"#utility.yul\":10804:11223   */\n    tag_133:\n        /* \"#utility.yul\":10970:10974   */\n      0x00\n        /* \"#utility.yul\":11008:11010   */\n      0x20\n        /* \"#utility.yul\":10997:11006   */\n      dup3\n        /* \"#utility.yul\":10993:11011   */\n      add\n        /* \"#utility.yul\":10985:11011   */\n      swap1\n      pop\n        /* \"#utility.yul\":11057:11066   */\n      dup2\n        /* \"#utility.yul\":11051:11055   */\n      dup2\n        /* \"#utility.yul\":11047:11067   */\n      sub\n        /* \"#utility.yul\":11043:11044   */\n      0x00\n        /* \"#utility.yul\":11032:11041   */\n      dup4\n        /* \"#utility.yul\":11028:11045   */\n      add\n        /* \"#utility.yul\":11021:11068   */\n      mstore\n        /* \"#utility.yul\":11085:11216   */\n      tag_305\n        /* \"#utility.yul\":11211:11215   */\n      dup2\n        /* \"#utility.yul\":11085:11216   */\n      tag_235\n      jump\t// in\n    tag_305:\n        /* \"#utility.yul\":11077:11216   */\n      swap1\n      pop\n        /* \"#utility.yul\":10975:11223   */\n      swap2\n      swap1\n      pop\n      jump\t// out\n        /* \"#utility.yul\":11229:12199   */\n    tag_43:\n        /* \"#utility.yul\":11534:11538   */\n      0x00\n        /* \"#utility.yul\":11572:11575   */\n      0xc0\n        /* \"#utility.yul\":11561:11570   */\n      dup3\n        /* \"#utility.yul\":11557:11576   */\n      add\n        /* \"#utility.yul\":11549:11576   */\n      swap1\n      pop\n        /* \"#utility.yul\":11622:11631   */\n      dup2\n        /* \"#utility.yul\":11616:11620   */\n      dup2\n        /* \"#utility.yul\":11612:11632   */\n      sub\n        /* \"#utility.yul\":11608:11609   */\n      0x00\n        /* \"#utility.yul\":11597:11606   */\n      dup4\n        /* \"#utility.yul\":11593:11610   */\n      add\n        /* \"#utility.yul\":11586:11633   */\n      mstore\n        /* \"#utility.yul\":11650:11781   */\n      tag_307\n        /* \"#utility.yul\":11776:11780   */\n      dup2\n        /* \"#utility.yul\":11650:11781   */\n      tag_240\n      jump\t// in\n    tag_307:\n        /* \"#utility.yul\":11642:11781   */\n      swap1\n      pop\n        /* \"#utility.yul\":11791:11863   */\n      tag_308\n        /* \"#utility.yul\":11859:11861   */\n      0x20\n        /* \"#utility.yul\":11848:11857   */\n      dup4\n        /* \"#utility.yul\":11844:11862   */\n      add\n        /* \"#utility.yul\":11835:11841   */\n      dup9\n        /* \"#utility.yul\":11791:11863   */\n      tag_214\n      jump\t// in\n    tag_308:\n        /* \"#utility.yul\":11873:11945   */\n      tag_309\n        /* \"#utility.yul\":11941:11943   */\n      0x40\n        /* \"#utility.yul\":11930:11939   */\n      dup4\n        /* \"#utility.yul\":11926:11944   */\n      add\n        /* \"#utility.yul\":11917:11923   */\n      dup8\n        /* \"#utility.yul\":11873:11945   */\n      tag_214\n      jump\t// in\n    tag_309:\n        /* \"#utility.yul\":11955:12027   */\n      tag_310\n        /* \"#utility.yul\":12023:12025   */\n      0x60\n        /* \"#utility.yul\":12012:12021   */\n      dup4\n        /* \"#utility.yul\":12008:12026   */\n      add\n        /* \"#utility.yul\":11999:12005   */\n      dup7\n        /* \"#utility.yul\":11955:12027   */\n      tag_214\n      jump\t// in\n    tag_310:\n        /* \"#utility.yul\":12037:12110   */\n      tag_311\n        /* \"#utility.yul\":12105:12108   */\n      0x80\n        /* \"#utility.yul\":12094:12103   */\n      dup4\n        /* \"#utility.yul\":12090:12109   */\n      add\n        /* \"#utility.yul\":12081:12087   */\n      dup6\n        /* \"#utility.yul\":12037:12110   */\n      tag_265\n      jump\t// in\n    tag_311:\n        /* \"#utility.yul\":12120:12192   */\n      tag_312\n        /* \"#utility.yul\":12187:12190   */\n      0xa0\n        /* \"#utility.yul\":12176:12185   */\n      dup4\n        /* \"#utility.yul\":12172:12191   */\n      add\n        /* \"#utility.yul\":12163:12169   */\n      dup5\n        /* \"#utility.yul\":12120:12192   */\n      tag_273\n      jump\t// in\n    tag_312:\n        /* \"#utility.yul\":11539:12199   */\n      swap7\n      swap6\n      pop\n      pop\n      pop\n      pop\n      pop\n      pop\n      jump\t// out\n        /* \"#utility.yul\":12205:12624   */\n    tag_138:\n        /* \"#utility.yul\":12371:12375   */\n      0x00\n        /* \"#utility.yul\":12409:12411   */\n      0x20\n        /* \"#utility.yul\":12398:12407   */\n      dup3\n        /* \"#utility.yul\":12394:12412   */\n      add\n        /* \"#utility.yul\":12386:12412   */\n      swap1\n      pop\n        /* \"#utility.yul\":12458:12467   */\n      dup2\n        /* \"#utility.yul\":12452:12456   */\n      dup2\n        /* \"#utility.yul\":12448:12468   */\n      sub\n        /* \"#utility.yul\":12444:12445   */\n      0x00\n        /* \"#utility.yul\":12433:12442   */\n      dup4\n        /* \"#utility.yul\":12429:12446   */\n      add\n        /* \"#utility.yul\":12422:12469   */\n      mstore\n        /* \"#utility.yul\":12486:12617   */\n      tag_314\n        /* \"#utility.yul\":12612:12616   */\n      dup2\n        /* \"#utility.yul\":12486:12617   */\n      tag_245\n      jump\t// in\n    tag_314:\n        /* \"#utility.yul\":12478:12617   */\n      swap1\n      pop\n        /* \"#utility.yul\":12376:12624   */\n      swap2\n      swap1\n      pop\n      jump\t// out\n        /* \"#utility.yul\":12630:13049   */\n    tag_126:\n        /* \"#utility.yul\":12796:12800   */\n      0x00\n        /* \"#utility.yul\":12834:12836   */\n      0x20\n        /* \"#utility.yul\":12823:12832   */\n      dup3\n        /* \"#utility.yul\":12819:12837   */\n      add\n        /* \"#utility.yul\":12811:12837   */\n      swap1\n      pop\n        /* \"#utility.yul\":12883:12892   */\n      dup2\n        /* \"#utility.yul\":12877:12881   */\n      dup2\n        /* \"#utility.yul\":12873:12893   */\n      sub\n        /* \"#utility.yul\":12869:12870   */\n      0x00\n        /* \"#utility.yul\":12858:12867   */\n      dup4\n        /* \"#utility.yul\":12854:12871   */\n      add\n        /* \"#utility.yul\":12847:12894   */\n      mstore\n        /* \"#utility.yul\":12911:13042   */\n      tag_316\n        /* \"#utility.yul\":13037:13041   */\n      dup2\n        /* \"#utility.yul\":12911:13042   */\n      tag_250\n      jump\t// in\n    tag_316:\n        /* \"#utility.yul\":12903:13042   */\n      swap1\n      pop\n        /* \"#utility.yul\":12801:13049   */\n      swap2\n      swap1\n      pop\n      jump\t// out\n        /* \"#utility.yul\":13055:13474   */\n    tag_28:\n        /* \"#utility.yul\":13221:13225   */\n      0x00\n        /* \"#utility.yul\":13259:13261   */\n      0x20\n        /* \"#utility.yul\":13248:13257   */\n      dup3\n        /* \"#utility.yul\":13244:13262   */\n      add\n        /* \"#utility.yul\":13236:13262   */\n      swap1\n      pop\n        /* \"#utility.yul\":13308:13317   */\n      dup2\n        /* \"#utility.yul\":13302:13306   */\n      dup2\n        /* \"#utility.yul\":13298:13318   */\n      sub\n        /* \"#utility.yul\":13294:13295   */\n      0x00\n        /* \"#utility.yul\":13283:13292   */\n      dup4\n        /* \"#utility.yul\":13279:13296   */\n      add\n        /* \"#utility.yul\":13272:13319   */\n      mstore\n        /* \"#utility.yul\":13336:13467   */\n      tag_318\n        /* \"#utility.yul\":13462:13466   */\n      dup2\n        /* \"#utility.yul\":13336:13467   */\n      tag_255\n      jump\t// in\n    tag_318:\n        /* \"#utility.yul\":13328:13467   */\n      swap1\n      pop\n        /* \"#utility.yul\":13226:13474   */\n      swap2\n      swap1\n      pop\n      jump\t// out\n        /* \"#utility.yul\":13480:13899   */\n    tag_110:\n        /* \"#utility.yul\":13646:13650   */\n      0x00\n        /* \"#utility.yul\":13684:13686   */\n      0x20\n        /* \"#utility.yul\":13673:13682   */\n      dup3\n        /* \"#utility.yul\":13669:13687   */\n      add\n        /* \"#utility.yul\":13661:13687   */\n      swap1\n      pop\n        /* \"#utility.yul\":13733:13742   */\n      dup2\n        /* \"#utility.yul\":13727:13731   */\n      dup2\n        /* \"#utility.yul\":13723:13743   */\n      sub\n        /* \"#utility.yul\":13719:13720   */\n      0x00\n        /* \"#utility.yul\":13708:13717   */\n      dup4\n        /* \"#utility.yul\":13704:13721   */\n      add\n        /* \"#utility.yul\":13697:13744   */\n      mstore\n        /* \"#utility.yul\":13761:13892   */\n      tag_320\n        /* \"#utility.yul\":13887:13891   */\n      dup2\n        /* \"#utility.yul\":13761:13892   */\n      tag_260\n      jump\t// in\n    tag_320:\n        /* \"#utility.yul\":13753:13892   */\n      swap1\n      pop\n        /* \"#utility.yul\":13651:13899   */\n      swap2\n      swap1\n      pop\n      jump\t// out\n        /* \"#utility.yul\":13905:14127   */\n    tag_19:\n        /* \"#utility.yul\":13998:14002   */\n      0x00\n        /* \"#utility.yul\":14036:14038   */\n      0x20\n        /* \"#utility.yul\":14025:14034   */\n      dup3\n        /* \"#utility.yul\":14021:14039   */\n      add\n        /* \"#utility.yul\":14013:14039   */\n      swap1\n      pop\n        /* \"#utility.yul\":14049:14120   */\n      tag_322\n        /* \"#utility.yul\":14117:14118   */\n      0x00\n        /* \"#utility.yul\":14106:14115   */\n      dup4\n        /* \"#utility.yul\":14102:14119   */\n      add\n        /* \"#utility.yul\":14093:14099   */\n      dup5\n        /* \"#utility.yul\":14049:14120   */\n      tag_265\n      jump\t// in\n    tag_322:\n        /* \"#utility.yul\":14003:14127   */\n      swap3\n      swap2\n      pop\n      pop\n      jump\t// out\n        /* \"#utility.yul\":14133:14262   */\n    tag_170:\n        /* \"#utility.yul\":14167:14173   */\n      0x00\n        /* \"#utility.yul\":14194:14214   */\n      tag_324\n      tag_325\n      jump\t// in\n    tag_324:\n        /* \"#utility.yul\":14184:14214   */\n      swap1\n      pop\n        /* \"#utility.yul\":14223:14256   */\n      tag_326\n        /* \"#utility.yul\":14251:14255   */\n      dup3\n        /* \"#utility.yul\":14243:14249   */\n      dup3\n        /* \"#utility.yul\":14223:14256   */\n      tag_327\n      jump\t// in\n    tag_326:\n        /* \"#utility.yul\":14174:14262   */\n      swap2\n      swap1\n      pop\n      jump\t// out\n        /* \"#utility.yul\":14268:14343   */\n    tag_325:\n        /* \"#utility.yul\":14301:14307   */\n      0x00\n        /* \"#utility.yul\":14334:14336   */\n      0x40\n        /* \"#utility.yul\":14328:14337   */\n      mload\n        /* \"#utility.yul\":14318:14337   */\n      swap1\n      pop\n        /* \"#utility.yul\":14308:14343   */\n      swap1\n      jump\t// out\n        /* \"#utility.yul\":14349:14447   */\n    tag_221:\n        /* \"#utility.yul\":14400:14406   */\n      0x00\n        /* \"#utility.yul\":14434:14439   */\n      dup2\n        /* \"#utility.yul\":14428:14440   */\n      mload\n        /* \"#utility.yul\":14418:14440   */\n      swap1\n      pop\n        /* \"#utility.yul\":14407:14447   */\n      swap2\n      swap1\n      pop\n      jump\t// out\n        /* \"#utility.yul\":14453:14552   */\n    tag_229:\n        /* \"#utility.yul\":14505:14511   */\n      0x00\n        /* \"#utility.yul\":14539:14544   */\n      dup2\n        /* \"#utility.yul\":14533:14545   */\n      mload\n        /* \"#utility.yul\":14523:14545   */\n      swap1\n      pop\n        /* \"#utility.yul\":14512:14552   */\n      swap2\n      swap1\n      pop\n      jump\t// out\n        /* \"#utility.yul\":14558:14705   */\n    tag_223:\n        /* \"#utility.yul\":14659:14670   */\n      0x00\n        /* \"#utility.yul\":14696:14699   */\n      dup2\n        /* \"#utility.yul\":14681:14699   */\n      swap1\n      pop\n        /* \"#utility.yul\":14671:14705   */\n      swap3\n      swap2\n      pop\n      pop\n      jump\t// out\n        /* \"#utility.yul\":14711:14880   */\n    tag_231:\n        /* \"#utility.yul\":14795:14806   */\n      0x00\n        /* \"#utility.yul\":14829:14835   */\n      dup3\n        /* \"#utility.yul\":14824:14827   */\n      dup3\n        /* \"#utility.yul\":14817:14836   */\n      mstore\n        /* \"#utility.yul\":14869:14873   */\n      0x20\n        /* \"#utility.yul\":14864:14867   */\n      dup3\n        /* \"#utility.yul\":14860:14874   */\n      add\n        /* \"#utility.yul\":14845:14874   */\n      swap1\n      pop\n        /* \"#utility.yul\":14807:14880   */\n      swap3\n      swap2\n      pop\n      pop\n      jump\t// out\n        /* \"#utility.yul\":14886:15077   */\n    tag_73:\n        /* \"#utility.yul\":14926:14930   */\n      0x00\n        /* \"#utility.yul\":14946:14966   */\n      tag_334\n        /* \"#utility.yul\":14964:14965   */\n      dup3\n        /* \"#utility.yul\":14946:14966   */\n      tag_268\n      jump\t// in\n    tag_334:\n        /* \"#utility.yul\":14941:14966   */\n      swap2\n      pop\n        /* \"#utility.yul\":14980:15000   */\n      tag_335\n        /* \"#utility.yul\":14998:14999   */\n      dup4\n        /* \"#utility.yul\":14980:15000   */\n      tag_268\n      jump\t// in\n    tag_335:\n        /* \"#utility.yul\":14975:15000   */\n      swap3\n      pop\n        /* \"#utility.yul\":15019:15020   */\n      dup3\n        /* \"#utility.yul\":15016:15017   */\n      dup3\n        /* \"#utility.yul\":15013:15021   */\n      lt\n        /* \"#utility.yul\":15010:15012   */\n      iszero\n      tag_336\n      jumpi\n        /* \"#utility.yul\":15024:15042   */\n      tag_337\n      tag_338\n      jump\t// in\n    tag_337:\n        /* \"#utility.yul\":15010:15012   */\n    tag_336:\n        /* \"#utility.yul\":15069:15070   */\n      dup3\n        /* \"#utility.yul\":15066:15067   */\n      dup3\n        /* \"#utility.yul\":15062:15071   */\n      sub\n        /* \"#utility.yul\":15054:15071   */\n      swap1\n      pop\n        /* \"#utility.yul\":14931:15077   */\n      swap3\n      swap2\n      pop\n      pop\n      jump\t// out\n        /* \"#utility.yul\":15083:15179   */\n    tag_217:\n        /* \"#utility.yul\":15120:15127   */\n      0x00\n        /* \"#utility.yul\":15149:15173   */\n      tag_340\n        /* \"#utility.yul\":15167:15172   */\n      dup3\n        /* \"#utility.yul\":15149:15173   */\n      tag_341\n      jump\t// in\n    tag_340:\n        /* \"#utility.yul\":15138:15173   */\n      swap1\n      pop\n        /* \"#utility.yul\":15128:15179   */\n      swap2\n      swap1\n      pop\n      jump\t// out\n        /* \"#utility.yul\":15185:15275   */\n    tag_342:\n        /* \"#utility.yul\":15219:15226   */\n      0x00\n        /* \"#utility.yul\":15262:15267   */\n      dup2\n        /* \"#utility.yul\":15255:15268   */\n      iszero\n        /* \"#utility.yul\":15248:15269   */\n      iszero\n        /* \"#utility.yul\":15237:15269   */\n      swap1\n      pop\n        /* \"#utility.yul\":15227:15275   */\n      swap2\n      swap1\n      pop\n      jump\t// out\n        /* \"#utility.yul\":15281:15407   */\n    tag_341:\n        /* \"#utility.yul\":15318:15325   */\n      0x00\n        /* \"#utility.yul\":15358:15400   */\n      0xffffffffffffffffffffffffffffffffffffffff\n        /* \"#utility.yul\":15351:15356   */\n      dup3\n        /* \"#utility.yul\":15347:15401   */\n      and\n        /* \"#utility.yul\":15336:15401   */\n      swap1\n      pop\n        /* \"#utility.yul\":15326:15407   */\n      swap2\n      swap1\n      pop\n      jump\t// out\n        /* \"#utility.yul\":15413:15490   */\n    tag_268:\n        /* \"#utility.yul\":15450:15457   */\n      0x00\n        /* \"#utility.yul\":15479:15484   */\n      dup2\n        /* \"#utility.yul\":15468:15484   */\n      swap1\n      pop\n        /* \"#utility.yul\":15458:15490   */\n      swap2\n      swap1\n      pop\n      jump\t// out\n        /* \"#utility.yul\":15496:15589   */\n    tag_272:\n        /* \"#utility.yul\":15532:15539   */\n      0x00\n        /* \"#utility.yul\":15572:15582   */\n      0xffffffff\n        /* \"#utility.yul\":15565:15570   */\n      dup3\n        /* \"#utility.yul\":15561:15583   */\n      and\n        /* \"#utility.yul\":15550:15583   */\n      swap1\n      pop\n        /* \"#utility.yul\":15540:15589   */\n      swap2\n      swap1\n      pop\n      jump\t// out\n        /* \"#utility.yul\":15595:15696   */\n    tag_280:\n        /* \"#utility.yul\":15631:15638   */\n      0x00\n        /* \"#utility.yul\":15671:15689   */\n      0xffffffffffffffff\n        /* \"#utility.yul\":15664:15669   */\n      dup3\n        /* \"#utility.yul\":15660:15690   */\n      and\n        /* \"#utility.yul\":15649:15690   */\n      swap1\n      pop\n        /* \"#utility.yul\":15639:15696   */\n      swap2\n      swap1\n      pop\n      jump\t// out\n        /* \"#utility.yul\":15702:15813   */\n    tag_276:\n        /* \"#utility.yul\":15751:15760   */\n      0x00\n        /* \"#utility.yul\":15784:15807   */\n      tag_349\n        /* \"#utility.yul\":15801:15806   */\n      dup3\n        /* \"#utility.yul\":15784:15807   */\n      tag_280\n      jump\t// in\n    tag_349:\n        /* \"#utility.yul\":15771:15807   */\n      swap1\n      pop\n        /* \"#utility.yul\":15761:15813   */\n      swap2\n      swap1\n      pop\n      jump\t// out\n        /* \"#utility.yul\":15819:16126   */\n    tag_225:\n        /* \"#utility.yul\":15887:15888   */\n      0x00\n        /* \"#utility.yul\":15897:16010   */\n    tag_351:\n        /* \"#utility.yul\":15911:15917   */\n      dup4\n        /* \"#utility.yul\":15908:15909   */\n      dup2\n        /* \"#utility.yul\":15905:15918   */\n      lt\n        /* \"#utility.yul\":15897:16010   */\n      iszero\n      tag_353\n      jumpi\n        /* \"#utility.yul\":15996:15997   */\n      dup1\n        /* \"#utility.yul\":15991:15994   */\n      dup3\n        /* \"#utility.yul\":15987:15998   */\n      add\n        /* \"#utility.yul\":15981:15999   */\n      mload\n        /* \"#utility.yul\":15977:15978   */\n      dup2\n        /* \"#utility.yul\":15972:15975   */\n      dup5\n        /* \"#utility.yul\":15968:15979   */\n      add\n        /* \"#utility.yul\":15961:16000   */\n      mstore\n        /* \"#utility.yul\":15933:15935   */\n      0x20\n        /* \"#utility.yul\":15930:15931   */\n      dup2\n        /* \"#utility.yul\":15926:15936   */\n      add\n        /* \"#utility.yul\":15921:15936   */\n      swap1\n      pop\n        /* \"#utility.yul\":15897:16010   */\n      jump(tag_351)\n    tag_353:\n        /* \"#utility.yul\":16028:16034   */\n      dup4\n        /* \"#utility.yul\":16025:16026   */\n      dup2\n        /* \"#utility.yul\":16022:16035   */\n      gt\n        /* \"#utility.yul\":16019:16021   */\n      iszero\n      tag_354\n      jumpi\n        /* \"#utility.yul\":16108:16109   */\n      0x00\n        /* \"#utility.yul\":16099:16105   */\n      dup5\n        /* \"#utility.yul\":16094:16097   */\n      dup5\n        /* \"#utility.yul\":16090:16106   */\n      add\n        /* \"#utility.yul\":16083:16110   */\n      mstore\n        /* \"#utility.yul\":16019:16021   */\n    tag_354:\n        /* \"#utility.yul\":15868:16126   */\n      pop\n      pop\n      pop\n      pop\n      jump\t// out\n        /* \"#utility.yul\":16132:16413   */\n    tag_327:\n        /* \"#utility.yul\":16215:16242   */\n      tag_356\n        /* \"#utility.yul\":16237:16241   */\n      dup3\n        /* \"#utility.yul\":16215:16242   */\n      tag_234\n      jump\t// in\n    tag_356:\n        /* \"#utility.yul\":16207:16213   */\n      dup2\n        /* \"#utility.yul\":16203:16243   */\n      add\n        /* \"#utility.yul\":16345:16351   */\n      dup2\n        /* \"#utility.yul\":16333:16343   */\n      dup2\n        /* \"#utility.yul\":16330:16352   */\n      lt\n        /* \"#utility.yul\":16309:16327   */\n      0xffffffffffffffff\n        /* \"#utility.yul\":16297:16307   */\n      dup3\n        /* \"#utility.yul\":16294:16328   */\n      gt\n        /* \"#utility.yul\":16291:16353   */\n      or\n        /* \"#utility.yul\":16288:16290   */\n      iszero\n      tag_357\n      jumpi\n        /* \"#utility.yul\":16356:16374   */\n      tag_358\n      tag_359\n      jump\t// in\n    tag_358:\n        /* \"#utility.yul\":16288:16290   */\n    tag_357:\n        /* \"#utility.yul\":16396:16406   */\n      dup1\n        /* \"#utility.yul\":16392:16394   */\n      0x40\n        /* \"#utility.yul\":16385:16407   */\n      mstore\n        /* \"#utility.yul\":16175:16413   */\n      pop\n      pop\n      pop\n      jump\t// out\n        /* \"#utility.yul\":16419:16599   */\n    tag_338:\n        /* \"#utility.yul\":16467:16544   */\n      0x4e487b7100000000000000000000000000000000000000000000000000000000\n        /* \"#utility.yul\":16464:16465   */\n      0x00\n        /* \"#utility.yul\":16457:16545   */\n      mstore\n        /* \"#utility.yul\":16564:16568   */\n      0x11\n        /* \"#utility.yul\":16561:16562   */\n      0x04\n        /* \"#utility.yul\":16554:16569   */\n      mstore\n        /* \"#utility.yul\":16588:16592   */\n      0x24\n        /* \"#utility.yul\":16585:16586   */\n      0x00\n        /* \"#utility.yul\":16578:16593   */\n      revert\n        /* \"#utility.yul\":16605:16785   */\n    tag_359:\n        /* \"#utility.yul\":16653:16730   */\n      0x4e487b7100000000000000000000000000000000000000000000000000000000\n        /* \"#utility.yul\":16650:16651   */\n      0x00\n        /* \"#utility.yul\":16643:16731   */\n      mstore\n        /* \"#utility.yul\":16750:16754   */\n      0x41\n        /* \"#utility.yul\":16747:16748   */\n      0x04\n        /* \"#utility.yul\":16740:16755   */\n      mstore\n        /* \"#utility.yul\":16774:16778   */\n      0x24\n        /* \"#utility.yul\":16771:16772   */\n      0x00\n        /* \"#utility.yul\":16764:16779   */\n      revert\n        /* \"#utility.yul\":16791:16893   */\n    tag_234:\n        /* \"#utility.yul\":16832:16838   */\n      0x00\n        /* \"#utility.yul\":16883:16885   */\n      0x1f\n        /* \"#utility.yul\":16879:16886   */\n      not\n        /* \"#utility.yul\":16874:16876   */\n      0x1f\n        /* \"#utility.yul\":16867:16872   */\n      dup4\n        /* \"#utility.yul\":16863:16877   */\n      add\n        /* \"#utility.yul\":16859:16887   */\n      and\n        /* \"#utility.yul\":16849:16887   */\n      swap1\n      pop\n        /* \"#utility.yul\":16839:16893   */\n      swap2\n      swap1\n      pop\n      jump\t// out\n        /* \"#utility.yul\":16899:17124   */\n    tag_239:\n        /* \"#utility.yul\":17039:17073   */\n      0x416464726573733a20696e73756666696369656e742062616c616e636520666f\n        /* \"#utility.yul\":17035:17036   */\n      0x00\n        /* \"#utility.yul\":17027:17033   */\n      dup3\n        /* \"#utility.yul\":17023:17037   */\n      add\n        /* \"#utility.yul\":17016:17074   */\n      mstore\n        /* \"#utility.yul\":17108:17116   */\n      0x722063616c6c0000000000000000000000000000000000000000000000000000\n        /* \"#utility.yul\":17103:17105   */\n      0x20\n        /* \"#utility.yul\":17095:17101   */\n      dup3\n        /* \"#utility.yul\":17091:17106   */\n      add\n        /* \"#utility.yul\":17084:17117   */\n      mstore\n        /* \"#utility.yul\":17005:17124   */\n      pop\n      jump\t// out\n        /* \"#utility.yul\":17130:17287   */\n    tag_244:\n        /* \"#utility.yul\":17270:17279   */\n      0x6342726964676500000000000000000000000000000000000000000000000000\n        /* \"#utility.yul\":17266:17267   */\n      0x00\n        /* \"#utility.yul\":17258:17264   */\n      dup3\n        /* \"#utility.yul\":17254:17268   */\n      add\n        /* \"#utility.yul\":17247:17280   */\n      mstore\n        /* \"#utility.yul\":17236:17287   */\n      pop\n      jump\t// out\n        /* \"#utility.yul\":17293:17472   */\n    tag_249:\n        /* \"#utility.yul\":17433:17464   */\n      0x416464726573733a2063616c6c20746f206e6f6e2d636f6e7472616374000000\n        /* \"#utility.yul\":17429:17430   */\n      0x00\n        /* \"#utility.yul\":17421:17427   */\n      dup3\n        /* \"#utility.yul\":17417:17431   */\n      add\n        /* \"#utility.yul\":17410:17465   */\n      mstore\n        /* \"#utility.yul\":17399:17472   */\n      pop\n      jump\t// out\n        /* \"#utility.yul\":17478:17707   */\n    tag_254:\n        /* \"#utility.yul\":17618:17652   */\n      0x5361666545524332303a204552433230206f7065726174696f6e20646964206e\n        /* \"#utility.yul\":17614:17615   */\n      0x00\n        /* \"#utility.yul\":17606:17612   */\n      dup3\n        /* \"#utility.yul\":17602:17616   */\n      add\n        /* \"#utility.yul\":17595:17653   */\n      mstore\n        /* \"#utility.yul\":17687:17699   */\n      0x6f74207375636365656400000000000000000000000000000000000000000000\n        /* \"#utility.yul\":17682:17684   */\n      0x20\n        /* \"#utility.yul\":17674:17680   */\n      dup3\n        /* \"#utility.yul\":17670:17685   */\n      add\n        /* \"#utility.yul\":17663:17700   */\n      mstore\n        /* \"#utility.yul\":17584:17707   */\n      pop\n      jump\t// out\n        /* \"#utility.yul\":17713:17894   */\n    tag_259:\n        /* \"#utility.yul\":17853:17886   */\n      0x5265656e7472616e637947756172643a207265656e7472616e742063616c6c00\n        /* \"#utility.yul\":17849:17850   */\n      0x00\n        /* \"#utility.yul\":17841:17847   */\n      dup3\n        /* \"#utility.yul\":17837:17851   */\n      add\n        /* \"#utility.yul\":17830:17887   */\n      mstore\n        /* \"#utility.yul\":17819:17894   */\n      pop\n      jump\t// out\n        /* \"#utility.yul\":17900:18141   */\n    tag_264:\n        /* \"#utility.yul\":18040:18074   */\n      0x5361666545524332303a20617070726f76652066726f6d206e6f6e2d7a65726f\n        /* \"#utility.yul\":18036:18037   */\n      0x00\n        /* \"#utility.yul\":18028:18034   */\n      dup3\n        /* \"#utility.yul\":18024:18038   */\n      add\n        /* \"#utility.yul\":18017:18075   */\n      mstore\n        /* \"#utility.yul\":18109:18133   */\n      0x20746f206e6f6e2d7a65726f20616c6c6f77616e636500000000000000000000\n        /* \"#utility.yul\":18104:18106   */\n      0x20\n        /* \"#utility.yul\":18096:18102   */\n      dup3\n        /* \"#utility.yul\":18092:18107   */\n      add\n        /* \"#utility.yul\":18085:18134   */\n      mstore\n        /* \"#utility.yul\":18006:18141   */\n      pop\n      jump\t// out\n        /* \"#utility.yul\":18147:18269   */\n    tag_158:\n        /* \"#utility.yul\":18220:18244   */\n      tag_370\n        /* \"#utility.yul\":18238:18243   */\n      dup2\n        /* \"#utility.yul\":18220:18244   */\n      tag_217\n      jump\t// in\n    tag_370:\n        /* \"#utility.yul\":18213:18218   */\n      dup2\n        /* \"#utility.yul\":18210:18245   */\n      eq\n        /* \"#utility.yul\":18200:18202   */\n      tag_371\n      jumpi\n        /* \"#utility.yul\":18259:18260   */\n      0x00\n        /* \"#utility.yul\":18256:18257   */\n      dup1\n        /* \"#utility.yul\":18249:18261   */\n      revert\n        /* \"#utility.yul\":18200:18202   */\n    tag_371:\n        /* \"#utility.yul\":18190:18269   */\n      pop\n      jump\t// out\n        /* \"#utility.yul\":18275:18391   */\n    tag_162:\n        /* \"#utility.yul\":18345:18366   */\n      tag_373\n        /* \"#utility.yul\":18360:18365   */\n      dup2\n        /* \"#utility.yul\":18345:18366   */\n      tag_342\n      jump\t// in\n    tag_373:\n        /* \"#utility.yul\":18338:18343   */\n      dup2\n        /* \"#utility.yul\":18335:18367   */\n      eq\n        /* \"#utility.yul\":18325:18327   */\n      tag_374\n      jumpi\n        /* \"#utility.yul\":18381:18382   */\n      0x00\n        /* \"#utility.yul\":18378:18379   */\n      dup1\n        /* \"#utility.yul\":18371:18383   */\n      revert\n        /* \"#utility.yul\":18325:18327   */\n    tag_374:\n        /* \"#utility.yul\":18315:18391   */\n      pop\n      jump\t// out\n        /* \"#utility.yul\":18397:18519   */\n    tag_182:\n        /* \"#utility.yul\":18470:18494   */\n      tag_376\n        /* \"#utility.yul\":18488:18493   */\n      dup2\n        /* \"#utility.yul\":18470:18494   */\n      tag_268\n      jump\t// in\n    tag_376:\n        /* \"#utility.yul\":18463:18468   */\n      dup2\n        /* \"#utility.yul\":18460:18495   */\n      eq\n        /* \"#utility.yul\":18450:18452   */\n      tag_377\n      jumpi\n        /* \"#utility.yul\":18509:18510   */\n      0x00\n        /* \"#utility.yul\":18506:18507   */\n      dup1\n        /* \"#utility.yul\":18499:18511   */\n      revert\n        /* \"#utility.yul\":18450:18452   */\n    tag_377:\n        /* \"#utility.yul\":18440:18519   */\n      pop\n      jump\t// out\n        /* \"#utility.yul\":18525:18645   */\n    tag_188:\n        /* \"#utility.yul\":18597:18620   */\n      tag_379\n        /* \"#utility.yul\":18614:18619   */\n      dup2\n        /* \"#utility.yul\":18597:18620   */\n      tag_272\n      jump\t// in\n    tag_379:\n        /* \"#utility.yul\":18590:18595   */\n      dup2\n        /* \"#utility.yul\":18587:18621   */\n      eq\n        /* \"#utility.yul\":18577:18579   */\n      tag_380\n      jumpi\n        /* \"#utility.yul\":18635:18636   */\n      0x00\n        /* \"#utility.yul\":18632:18633   */\n      dup1\n        /* \"#utility.yul\":18625:18637   */\n      revert\n        /* \"#utility.yul\":18577:18579   */\n    tag_380:\n        /* \"#utility.yul\":18567:18645   */\n      pop\n      jump\t// out\n        /* \"#utility.yul\":18651:18771   */\n    tag_191:\n        /* \"#utility.yul\":18723:18746   */\n      tag_382\n        /* \"#utility.yul\":18740:18745   */\n      dup2\n        /* \"#utility.yul\":18723:18746   */\n      tag_280\n      jump\t// in\n    tag_382:\n        /* \"#utility.yul\":18716:18721   */\n      dup2\n        /* \"#utility.yul\":18713:18747   */\n      eq\n        /* \"#utility.yul\":18703:18705   */\n      tag_383\n      jumpi\n        /* \"#utility.yul\":18761:18762   */\n      0x00\n        /* \"#utility.yul\":18758:18759   */\n      dup1\n        /* \"#utility.yul\":18751:18763   */\n      revert\n        /* \"#utility.yul\":18703:18705   */\n    tag_383:\n        /* \"#utility.yul\":18693:18771   */\n      pop\n      jump\t// out\n\n    auxdata: 0xa26469706673582212203a5ad79ca78a1157bed5779b9688cfeda8d9f7dab43e6d4ce0dc43040f22ba5e64736f6c63430008040033\n}\n",
				"bytecode": {
					"linkReferences": {},
					"object": "608060405234801561001057600080fd5b506001600081905550611755806100286000396000f3fe60806040526004361061003f5760003560e01c806336d4b75f146100445780635277cbc71461006f5780639a8a05921461008b578063fc613675146100b6575b600080fd5b34801561005057600080fd5b506100596100df565b6040516100669190611120565b60405180910390f35b61008960048036038101906100849190610ede565b610105565b005b34801561009757600080fd5b506100a0610210565b6040516100ad919061134d565b60405180910390f35b3480156100c257600080fd5b506100dd60048036038101906100d89190610e79565b610216565b005b600160009054906101000a900473ffffffffffffffffffffffffffffffffffffffff1681565b6002600054141561014b576040517f08c379a00000000000000000000000000000000000000000000000000000000081526004016101429061130d565b60405180910390fd5b60026000819055506101738160a00160208101906101699190610e50565b826060013561030d565b61018c818036038101906101879190610f07565b61034b565b7f83bd4b75444b26482a091d91d32e43a65722f9fd8267a590beadccd9e61539e88160a00160208101906101c09190610e50565b338360800160208101906101d49190610e50565b84606001358560200160208101906101ec9190610f59565b6040516101fd959493929190611267565b60405180910390a1600160008190555050565b60025481565b600073ffffffffffffffffffffffffffffffffffffffff168273ffffffffffffffffffffffffffffffffffffffff1614806102515750600081145b15610288576040517f35be3ac800000000000000000000000000000000000000000000000000000000815260040160405180910390fd5b81600160006101000a81548173ffffffffffffffffffffffffffffffffffffffff021916908373ffffffffffffffffffffffffffffffffffffffff160217905550806002819055507f5b114a545b5a08e3628017ac6e1af1f29e3f593dde50a4a93ab76f2a2220cd3882826040516103019291906111fc565b60405180910390a15050565b6103478282600073ffffffffffffffffffffffffffffffffffffffff168573ffffffffffffffffffffffffffffffffffffffff161461047c565b5050565b806020015167ffffffffffffffff166002541415610395576040517f4ac09ad300000000000000000000000000000000000000000000000000000000815260040160405180910390fd5b6103ca8160a00151600160009054906101000a900473ffffffffffffffffffffffffffffffffffffffff1683606001516105a0565b600160009054906101000a900473ffffffffffffffffffffffffffffffffffffffff1673ffffffffffffffffffffffffffffffffffffffff1663a5977fbb82608001518360a0015184606001518560200151866040015187600001516040518763ffffffff1660e01b81526004016104479695949392919061119b565b600060405180830381600087803b15801561046157600080fd5b505af1158015610475573d6000803e3d6000fd5b5050505050565b60008214156104b7576040517f2c5211c600000000000000000000000000000000000000000000000000000000815260040160405180910390fd5b80156104fb578134146104f6576040517f2c5211c600000000000000000000000000000000000000000000000000000000815260040160405180910390fd5b61059b565b60003414610534576040517e3f45b500000000000000000000000000000000000000000000000000000000815260040160405180910390fd5b600061053f8461070b565b905061054d843330866107d7565b82816105588661070b565b61056291906113bf565b14610599576040517f2c5211c600000000000000000000000000000000000000000000000000000000815260040160405180910390fd5b505b505050565b600073ffffffffffffffffffffffffffffffffffffffff168373ffffffffffffffffffffffffffffffffffffffff1614156105da57610706565b600073ffffffffffffffffffffffffffffffffffffffff168273ffffffffffffffffffffffffffffffffffffffff161415610641576040517f63ba9bff00000000000000000000000000000000000000000000000000000000815260040160405180910390fd5b60008373ffffffffffffffffffffffffffffffffffffffff1663dd62ed3e30856040518363ffffffff1660e01b815260040161067e92919061113b565b60206040518083038186803b15801561069657600080fd5b505afa1580156106aa573d6000803e3d6000fd5b505050506040513d601f19601f820116820180604052508101906106ce9190610f30565b9050818110156107045761070384847fffffffffffffffffffffffffffffffffffffffffffffffffffffffffffffffff6108b7565b5b505b505050565b60008073ffffffffffffffffffffffffffffffffffffffff168273ffffffffffffffffffffffffffffffffffffffff16146107ce578173ffffffffffffffffffffffffffffffffffffffff166370a08231306040518263ffffffff1660e01b81526004016107799190611120565b60206040518083038186803b15801561079157600080fd5b505afa1580156107a5573d6000803e3d6000fd5b505050506040513d601f19601f820116820180604052508101906107c99190610f30565b6107d0565b475b9050919050565b600073ffffffffffffffffffffffffffffffffffffffff168473ffffffffffffffffffffffffffffffffffffffff16141561083e576040517fd1bebf0c00000000000000000000000000000000000000000000000000000000815260040160405180910390fd5b600073ffffffffffffffffffffffffffffffffffffffff168273ffffffffffffffffffffffffffffffffffffffff1614156108a5576040517f21f7434500000000000000000000000000000000000000000000000000000000815260040160405180910390fd5b6108b184848484610a15565b50505050565b6000811480610950575060008373ffffffffffffffffffffffffffffffffffffffff1663dd62ed3e30856040518363ffffffff1660e01b81526004016108fe92919061113b565b60206040518083038186803b15801561091657600080fd5b505afa15801561092a573d6000803e3d6000fd5b505050506040513d601f19601f8201168201806040525081019061094e9190610f30565b145b61098f576040517f08c379a00000000000000000000000000000000000000000000000000000000081526004016109869061132d565b60405180910390fd5b610a108363095ea7b360e01b84846040516024016109ae9291906111fc565b604051602081830303815290604052907bffffffffffffffffffffffffffffffffffffffffffffffffffffffff19166020820180517bffffffffffffffffffffffffffffffffffffffffffffffffffffffff8381831617835250505050610a9e565b505050565b610a98846323b872dd60e01b858585604051602401610a3693929190611164565b604051602081830303815290604052907bffffffffffffffffffffffffffffffffffffffffffffffffffffffff19166020820180517bffffffffffffffffffffffffffffffffffffffffffffffffffffffff8381831617835250505050610a9e565b50505050565b6000610b00826040518060400160405280602081526020017f5361666545524332303a206c6f772d6c6576656c2063616c6c206661696c65648152508573ffffffffffffffffffffffffffffffffffffffff16610b659092919063ffffffff16565b9050600081511115610b605780806020019051810190610b209190610eb5565b610b5f576040517f08c379a0000000000000000000000000000000000000000000000000000000008152600401610b56906112ed565b60405180910390fd5b5b505050565b6060610b748484600085610b7d565b90509392505050565b606082471015610bc2576040517f08c379a0000000000000000000000000000000000000000000000000000000008152600401610bb990611247565b60405180910390fd5b610bcb85610c91565b610c0a576040517f08c379a0000000000000000000000000000000000000000000000000000000008152600401610c01906112cd565b60405180910390fd5b6000808673ffffffffffffffffffffffffffffffffffffffff168587604051610c339190611109565b60006040518083038185875af1925050503d8060008114610c70576040519150601f19603f3d011682016040523d82523d6000602084013e610c75565b606091505b5091509150610c85828286610cb4565b92505050949350505050565b6000808273ffffffffffffffffffffffffffffffffffffffff163b119050919050565b60608315610cc457829050610d14565b600083511115610cd75782518084602001fd5b816040517f08c379a0000000000000000000000000000000000000000000000000000000008152600401610d0b9190611225565b60405180910390fd5b9392505050565b600081359050610d2a816116ac565b92915050565b600081519050610d3f816116c3565b92915050565b600060c08284031215610d5757600080fd5b81905092915050565b600060c08284031215610d7257600080fd5b610d7c60c0611368565b90506000610d8c84828501610e26565b6000830152506020610da084828501610e3b565b6020830152506040610db484828501610e3b565b6040830152506060610dc884828501610dfc565b6060830152506080610ddc84828501610d1b565b60808301525060a0610df084828501610d1b565b60a08301525092915050565b600081359050610e0b816116da565b92915050565b600081519050610e20816116da565b92915050565b600081359050610e35816116f1565b92915050565b600081359050610e4a81611708565b92915050565b600060208284031215610e6257600080fd5b6000610e7084828501610d1b565b91505092915050565b60008060408385031215610e8c57600080fd5b6000610e9a85828601610d1b565b9250506020610eab85828601610dfc565b9150509250929050565b600060208284031215610ec757600080fd5b6000610ed584828501610d30565b91505092915050565b600060c08284031215610ef057600080fd5b6000610efe84828501610d45565b91505092915050565b600060c08284031215610f1957600080fd5b6000610f2784828501610d60565b91505092915050565b600060208284031215610f4257600080fd5b6000610f5084828501610e11565b91505092915050565b600060208284031215610f6b57600080fd5b6000610f7984828501610e3b565b91505092915050565b610f8b816113f3565b82525050565b6000610f9c8261138d565b610fa681856113a3565b9350610fb6818560208601611471565b80840191505092915050565b6000610fcd82611398565b610fd781856113ae565b9350610fe7818560208601611471565b610ff081611533565b840191505092915050565b60006110086026836113ae565b915061101382611544565b604082019050919050565b600061102b6007836113ae565b915061103682611593565b602082019050919050565b600061104e601d836113ae565b9150611059826115bc565b602082019050919050565b6000611071602a836113ae565b915061107c826115e5565b604082019050919050565b6000611094601f836113ae565b915061109f82611634565b602082019050919050565b60006110b76036836113ae565b91506110c28261165d565b604082019050919050565b6110d681611431565b82525050565b6110e58161143b565b82525050565b6110f48161145f565b82525050565b6111038161144b565b82525050565b60006111158284610f91565b915081905092915050565b60006020820190506111356000830184610f82565b92915050565b60006040820190506111506000830185610f82565b61115d6020830184610f82565b9392505050565b60006060820190506111796000830186610f82565b6111866020830185610f82565b61119360408301846110cd565b949350505050565b600060c0820190506111b06000830189610f82565b6111bd6020830188610f82565b6111ca60408301876110cd565b6111d760608301866110fa565b6111e460808301856110fa565b6111f160a08301846110dc565b979650505050505050565b60006040820190506112116000830185610f82565b61121e60208301846110cd565b9392505050565b6000602082019050818103600083015261123f8184610fc2565b905092915050565b6000602082019050818103600083015261126081610ffb565b9050919050565b600060c08201905081810360008301526112808161101e565b905061128f6020830188610f82565b61129c6040830187610f82565b6112a96060830186610f82565b6112b660808301856110cd565b6112c360a08301846110eb565b9695505050505050565b600060208201905081810360008301526112e681611041565b9050919050565b6000602082019050818103600083015261130681611064565b9050919050565b6000602082019050818103600083015261132681611087565b9050919050565b60006020820190508181036000830152611346816110aa565b9050919050565b600060208201905061136260008301846110cd565b92915050565b6000611372611383565b905061137e82826114a4565b919050565b6000604051905090565b600081519050919050565b600081519050919050565b600081905092915050565b600082825260208201905092915050565b60006113ca82611431565b91506113d583611431565b9250828210156113e8576113e76114d5565b5b828203905092915050565b60006113fe82611411565b9050919050565b60008115159050919050565b600073ffffffffffffffffffffffffffffffffffffffff82169050919050565b6000819050919050565b600063ffffffff82169050919050565b600067ffffffffffffffff82169050919050565b600061146a8261144b565b9050919050565b60005b8381101561148f578082015181840152602081019050611474565b8381111561149e576000848401525b50505050565b6114ad82611533565b810181811067ffffffffffffffff821117156114cc576114cb611504565b5b80604052505050565b7f4e487b7100000000000000000000000000000000000000000000000000000000600052601160045260246000fd5b7f4e487b7100000000000000000000000000000000000000000000000000000000600052604160045260246000fd5b6000601f19601f8301169050919050565b7f416464726573733a20696e73756666696369656e742062616c616e636520666f60008201527f722063616c6c0000000000000000000000000000000000000000000000000000602082015250565b7f6342726964676500000000000000000000000000000000000000000000000000600082015250565b7f416464726573733a2063616c6c20746f206e6f6e2d636f6e7472616374000000600082015250565b7f5361666545524332303a204552433230206f7065726174696f6e20646964206e60008201527f6f74207375636365656400000000000000000000000000000000000000000000602082015250565b7f5265656e7472616e637947756172643a207265656e7472616e742063616c6c00600082015250565b7f5361666545524332303a20617070726f76652066726f6d206e6f6e2d7a65726f60008201527f20746f206e6f6e2d7a65726f20616c6c6f77616e636500000000000000000000602082015250565b6116b5816113f3565b81146116c057600080fd5b50565b6116cc81611405565b81146116d757600080fd5b50565b6116e381611431565b81146116ee57600080fd5b50565b6116fa8161143b565b811461170557600080fd5b50565b6117118161144b565b811461171c57600080fd5b5056fea26469706673582212203a5ad79ca78a1157bed5779b9688cfeda8d9f7dab43e6d4ce0dc43040f22ba5e64736f6c63430008040033",
					"opcodes": "PUSH1 0x80 PUSH1 0x40 MSTORE CALLVALUE DUP1 ISZERO PUSH2 0x10 JUMPI PUSH1 0x0 DUP1 REVERT JUMPDEST POP PUSH1 0x1 PUSH1 0x0 DUP2 SWAP1 SSTORE POP PUSH2 0x1755 DUP1 PUSH2 0x28 PUSH1 0x0 CODECOPY PUSH1 0x0 RETURN INVALID PUSH1 0x80 PUSH1 0x40 MSTORE PUSH1 0x4 CALLDATASIZE LT PUSH2 0x3F JUMPI PUSH1 0x0 CALLDATALOAD PUSH1 0xE0 SHR DUP1 PUSH4 0x36D4B75F EQ PUSH2 0x44 JUMPI DUP1 PUSH4 0x5277CBC7 EQ PUSH2 0x6F JUMPI DUP1 PUSH4 0x9A8A0592 EQ PUSH2 0x8B JUMPI DUP1 PUSH4 0xFC613675 EQ PUSH2 0xB6 JUMPI JUMPDEST PUSH1 0x0 DUP1 REVERT JUMPDEST CALLVALUE DUP1 ISZERO PUSH2 0x50 JUMPI PUSH1 0x0 DUP1 REVERT JUMPDEST POP PUSH2 0x59 PUSH2 0xDF JUMP JUMPDEST PUSH1 0x40 MLOAD PUSH2 0x66 SWAP2 SWAP1 PUSH2 0x1120 JUMP JUMPDEST PUSH1 0x40 MLOAD DUP1 SWAP2 SUB SWAP1 RETURN JUMPDEST PUSH2 0x89 PUSH1 0x4 DUP1 CALLDATASIZE SUB DUP2 ADD SWAP1 PUSH2 0x84 SWAP2 SWAP1 PUSH2 0xEDE JUMP JUMPDEST PUSH2 0x105 JUMP JUMPDEST STOP JUMPDEST CALLVALUE DUP1 ISZERO PUSH2 0x97 JUMPI PUSH1 0x0 DUP1 REVERT JUMPDEST POP PUSH2 0xA0 PUSH2 0x210 JUMP JUMPDEST PUSH1 0x40 MLOAD PUSH2 0xAD SWAP2 SWAP1 PUSH2 0x134D JUMP JUMPDEST PUSH1 0x40 MLOAD DUP1 SWAP2 SUB SWAP1 RETURN JUMPDEST CALLVALUE DUP1 ISZERO PUSH2 0xC2 JUMPI PUSH1 0x0 DUP1 REVERT JUMPDEST POP PUSH2 0xDD PUSH1 0x4 DUP1 CALLDATASIZE SUB DUP2 ADD SWAP1 PUSH2 0xD8 SWAP2 SWAP1 PUSH2 0xE79 JUMP JUMPDEST PUSH2 0x216 JUMP JUMPDEST STOP JUMPDEST PUSH1 0x1 PUSH1 0x0 SWAP1 SLOAD SWAP1 PUSH2 0x100 EXP SWAP1 DIV PUSH20 0xFFFFFFFFFFFFFFFFFFFFFFFFFFFFFFFFFFFFFFFF AND DUP2 JUMP JUMPDEST PUSH1 0x2 PUSH1 0x0 SLOAD EQ ISZERO PUSH2 0x14B JUMPI PUSH1 0x40 MLOAD PUSH32 0x8C379A000000000000000000000000000000000000000000000000000000000 DUP2 MSTORE PUSH1 0x4 ADD PUSH2 0x142 SWAP1 PUSH2 0x130D JUMP JUMPDEST PUSH1 0x40 MLOAD DUP1 SWAP2 SUB SWAP1 REVERT JUMPDEST PUSH1 0x2 PUSH1 0x0 DUP2 SWAP1 SSTORE POP PUSH2 0x173 DUP2 PUSH1 0xA0 ADD PUSH1 0x20 DUP2 ADD SWAP1 PUSH2 0x169 SWAP2 SWAP1 PUSH2 0xE50 JUMP JUMPDEST DUP3 PUSH1 0x60 ADD CALLDATALOAD PUSH2 0x30D JUMP JUMPDEST PUSH2 0x18C DUP2 DUP1 CALLDATASIZE SUB DUP2 ADD SWAP1 PUSH2 0x187 SWAP2 SWAP1 PUSH2 0xF07 JUMP JUMPDEST PUSH2 0x34B JUMP JUMPDEST PUSH32 0x83BD4B75444B26482A091D91D32E43A65722F9FD8267A590BEADCCD9E61539E8 DUP2 PUSH1 0xA0 ADD PUSH1 0x20 DUP2 ADD SWAP1 PUSH2 0x1C0 SWAP2 SWAP1 PUSH2 0xE50 JUMP JUMPDEST CALLER DUP4 PUSH1 0x80 ADD PUSH1 0x20 DUP2 ADD SWAP1 PUSH2 0x1D4 SWAP2 SWAP1 PUSH2 0xE50 JUMP JUMPDEST DUP5 PUSH1 0x60 ADD CALLDATALOAD DUP6 PUSH1 0x20 ADD PUSH1 0x20 DUP2 ADD SWAP1 PUSH2 0x1EC SWAP2 SWAP1 PUSH2 0xF59 JUMP JUMPDEST PUSH1 0x40 MLOAD PUSH2 0x1FD SWAP6 SWAP5 SWAP4 SWAP3 SWAP2 SWAP1 PUSH2 0x1267 JUMP JUMPDEST PUSH1 0x40 MLOAD DUP1 SWAP2 SUB SWAP1 LOG1 PUSH1 0x1 PUSH1 0x0 DUP2 SWAP1 SSTORE POP POP JUMP JUMPDEST PUSH1 0x2 SLOAD DUP2 JUMP JUMPDEST PUSH1 0x0 PUSH20 0xFFFFFFFFFFFFFFFFFFFFFFFFFFFFFFFFFFFFFFFF AND DUP3 PUSH20 0xFFFFFFFFFFFFFFFFFFFFFFFFFFFFFFFFFFFFFFFF AND EQ DUP1 PUSH2 0x251 JUMPI POP PUSH1 0x0 DUP2 EQ JUMPDEST ISZERO PUSH2 0x288 JUMPI PUSH1 0x40 MLOAD PUSH32 0x35BE3AC800000000000000000000000000000000000000000000000000000000 DUP2 MSTORE PUSH1 0x4 ADD PUSH1 0x40 MLOAD DUP1 SWAP2 SUB SWAP1 REVERT JUMPDEST DUP2 PUSH1 0x1 PUSH1 0x0 PUSH2 0x100 EXP DUP2 SLOAD DUP2 PUSH20 0xFFFFFFFFFFFFFFFFFFFFFFFFFFFFFFFFFFFFFFFF MUL NOT AND SWAP1 DUP4 PUSH20 0xFFFFFFFFFFFFFFFFFFFFFFFFFFFFFFFFFFFFFFFF AND MUL OR SWAP1 SSTORE POP DUP1 PUSH1 0x2 DUP2 SWAP1 SSTORE POP PUSH32 0x5B114A545B5A08E3628017AC6E1AF1F29E3F593DDE50A4A93AB76F2A2220CD38 DUP3 DUP3 PUSH1 0x40 MLOAD PUSH2 0x301 SWAP3 SWAP2 SWAP1 PUSH2 0x11FC JUMP JUMPDEST PUSH1 0x40 MLOAD DUP1 SWAP2 SUB SWAP1 LOG1 POP POP JUMP JUMPDEST PUSH2 0x347 DUP3 DUP3 PUSH1 0x0 PUSH20 0xFFFFFFFFFFFFFFFFFFFFFFFFFFFFFFFFFFFFFFFF AND DUP6 PUSH20 0xFFFFFFFFFFFFFFFFFFFFFFFFFFFFFFFFFFFFFFFF AND EQ PUSH2 0x47C JUMP JUMPDEST POP POP JUMP JUMPDEST DUP1 PUSH1 0x20 ADD MLOAD PUSH8 0xFFFFFFFFFFFFFFFF AND PUSH1 0x2 SLOAD EQ ISZERO PUSH2 0x395 JUMPI PUSH1 0x40 MLOAD PUSH32 0x4AC09AD300000000000000000000000000000000000000000000000000000000 DUP2 MSTORE PUSH1 0x4 ADD PUSH1 0x40 MLOAD DUP1 SWAP2 SUB SWAP1 REVERT JUMPDEST PUSH2 0x3CA DUP2 PUSH1 0xA0 ADD MLOAD PUSH1 0x1 PUSH1 0x0 SWAP1 SLOAD SWAP1 PUSH2 0x100 EXP SWAP1 DIV PUSH20 0xFFFFFFFFFFFFFFFFFFFFFFFFFFFFFFFFFFFFFFFF AND DUP4 PUSH1 0x60 ADD MLOAD PUSH2 0x5A0 JUMP JUMPDEST PUSH1 0x1 PUSH1 0x0 SWAP1 SLOAD SWAP1 PUSH2 0x100 EXP SWAP1 DIV PUSH20 0xFFFFFFFFFFFFFFFFFFFFFFFFFFFFFFFFFFFFFFFF AND PUSH20 0xFFFFFFFFFFFFFFFFFFFFFFFFFFFFFFFFFFFFFFFF AND PUSH4 0xA5977FBB DUP3 PUSH1 0x80 ADD MLOAD DUP4 PUSH1 0xA0 ADD MLOAD DUP5 PUSH1 0x60 ADD MLOAD DUP6 PUSH1 0x20 ADD MLOAD DUP7 PUSH1 0x40 ADD MLOAD DUP8 PUSH1 0x0 ADD MLOAD PUSH1 0x40 MLOAD DUP8 PUSH4 0xFFFFFFFF AND PUSH1 0xE0 SHL DUP2 MSTORE PUSH1 0x4 ADD PUSH2 0x447 SWAP7 SWAP6 SWAP5 SWAP4 SWAP3 SWAP2 SWAP1 PUSH2 0x119B JUMP JUMPDEST PUSH1 0x0 PUSH1 0x40 MLOAD DUP1 DUP4 SUB DUP2 PUSH1 0x0 DUP8 DUP1 EXTCODESIZE ISZERO DUP1 ISZERO PUSH2 0x461 JUMPI PUSH1 0x0 DUP1 REVERT JUMPDEST POP GAS CALL ISZERO DUP1 ISZERO PUSH2 0x475 JUMPI RETURNDATASIZE PUSH1 0x0 DUP1 RETURNDATACOPY RETURNDATASIZE PUSH1 0x0 REVERT JUMPDEST POP POP POP POP POP JUMP JUMPDEST PUSH1 0x0 DUP3 EQ ISZERO PUSH2 0x4B7 JUMPI PUSH1 0x40 MLOAD PUSH32 0x2C5211C600000000000000000000000000000000000000000000000000000000 DUP2 MSTORE PUSH1 0x4 ADD PUSH1 0x40 MLOAD DUP1 SWAP2 SUB SWAP1 REVERT JUMPDEST DUP1 ISZERO PUSH2 0x4FB JUMPI DUP2 CALLVALUE EQ PUSH2 0x4F6 JUMPI PUSH1 0x40 MLOAD PUSH32 0x2C5211C600000000000000000000000000000000000000000000000000000000 DUP2 MSTORE PUSH1 0x4 ADD PUSH1 0x40 MLOAD DUP1 SWAP2 SUB SWAP1 REVERT JUMPDEST PUSH2 0x59B JUMP JUMPDEST PUSH1 0x0 CALLVALUE EQ PUSH2 0x534 JUMPI PUSH1 0x40 MLOAD PUSH31 0x3F45B500000000000000000000000000000000000000000000000000000000 DUP2 MSTORE PUSH1 0x4 ADD PUSH1 0x40 MLOAD DUP1 SWAP2 SUB SWAP1 REVERT JUMPDEST PUSH1 0x0 PUSH2 0x53F DUP5 PUSH2 0x70B JUMP JUMPDEST SWAP1 POP PUSH2 0x54D DUP5 CALLER ADDRESS DUP7 PUSH2 0x7D7 JUMP JUMPDEST DUP3 DUP2 PUSH2 0x558 DUP7 PUSH2 0x70B JUMP JUMPDEST PUSH2 0x562 SWAP2 SWAP1 PUSH2 0x13BF JUMP JUMPDEST EQ PUSH2 0x599 JUMPI PUSH1 0x40 MLOAD PUSH32 0x2C5211C600000000000000000000000000000000000000000000000000000000 DUP2 MSTORE PUSH1 0x4 ADD PUSH1 0x40 MLOAD DUP1 SWAP2 SUB SWAP1 REVERT JUMPDEST POP JUMPDEST POP POP POP JUMP JUMPDEST PUSH1 0x0 PUSH20 0xFFFFFFFFFFFFFFFFFFFFFFFFFFFFFFFFFFFFFFFF AND DUP4 PUSH20 0xFFFFFFFFFFFFFFFFFFFFFFFFFFFFFFFFFFFFFFFF AND EQ ISZERO PUSH2 0x5DA JUMPI PUSH2 0x706 JUMP JUMPDEST PUSH1 0x0 PUSH20 0xFFFFFFFFFFFFFFFFFFFFFFFFFFFFFFFFFFFFFFFF AND DUP3 PUSH20 0xFFFFFFFFFFFFFFFFFFFFFFFFFFFFFFFFFFFFFFFF AND EQ ISZERO PUSH2 0x641 JUMPI PUSH1 0x40 MLOAD PUSH32 0x63BA9BFF00000000000000000000000000000000000000000000000000000000 DUP2 MSTORE PUSH1 0x4 ADD PUSH1 0x40 MLOAD DUP1 SWAP2 SUB SWAP1 REVERT JUMPDEST PUSH1 0x0 DUP4 PUSH20 0xFFFFFFFFFFFFFFFFFFFFFFFFFFFFFFFFFFFFFFFF AND PUSH4 0xDD62ED3E ADDRESS DUP6 PUSH1 0x40 MLOAD DUP4 PUSH4 0xFFFFFFFF AND PUSH1 0xE0 SHL DUP2 MSTORE PUSH1 0x4 ADD PUSH2 0x67E SWAP3 SWAP2 SWAP1 PUSH2 0x113B JUMP JUMPDEST PUSH1 0x20 PUSH1 0x40 MLOAD DUP1 DUP4 SUB DUP2 DUP7 DUP1 EXTCODESIZE ISZERO DUP1 ISZERO PUSH2 0x696 JUMPI PUSH1 0x0 DUP1 REVERT JUMPDEST POP GAS STATICCALL ISZERO DUP1 ISZERO PUSH2 0x6AA JUMPI RETURNDATASIZE PUSH1 0x0 DUP1 RETURNDATACOPY RETURNDATASIZE PUSH1 0x0 REVERT JUMPDEST POP POP POP POP PUSH1 0x40 MLOAD RETURNDATASIZE PUSH1 0x1F NOT PUSH1 0x1F DUP3 ADD AND DUP3 ADD DUP1 PUSH1 0x40 MSTORE POP DUP2 ADD SWAP1 PUSH2 0x6CE SWAP2 SWAP1 PUSH2 0xF30 JUMP JUMPDEST SWAP1 POP DUP2 DUP2 LT ISZERO PUSH2 0x704 JUMPI PUSH2 0x703 DUP5 DUP5 PUSH32 0xFFFFFFFFFFFFFFFFFFFFFFFFFFFFFFFFFFFFFFFFFFFFFFFFFFFFFFFFFFFFFFFF PUSH2 0x8B7 JUMP JUMPDEST JUMPDEST POP JUMPDEST POP POP POP JUMP JUMPDEST PUSH1 0x0 DUP1 PUSH20 0xFFFFFFFFFFFFFFFFFFFFFFFFFFFFFFFFFFFFFFFF AND DUP3 PUSH20 0xFFFFFFFFFFFFFFFFFFFFFFFFFFFFFFFFFFFFFFFF AND EQ PUSH2 0x7CE JUMPI DUP2 PUSH20 0xFFFFFFFFFFFFFFFFFFFFFFFFFFFFFFFFFFFFFFFF AND PUSH4 0x70A08231 ADDRESS PUSH1 0x40 MLOAD DUP3 PUSH4 0xFFFFFFFF AND PUSH1 0xE0 SHL DUP2 MSTORE PUSH1 0x4 ADD PUSH2 0x779 SWAP2 SWAP1 PUSH2 0x1120 JUMP JUMPDEST PUSH1 0x20 PUSH1 0x40 MLOAD DUP1 DUP4 SUB DUP2 DUP7 DUP1 EXTCODESIZE ISZERO DUP1 ISZERO PUSH2 0x791 JUMPI PUSH1 0x0 DUP1 REVERT JUMPDEST POP GAS STATICCALL ISZERO DUP1 ISZERO PUSH2 0x7A5 JUMPI RETURNDATASIZE PUSH1 0x0 DUP1 RETURNDATACOPY RETURNDATASIZE PUSH1 0x0 REVERT JUMPDEST POP POP POP POP PUSH1 0x40 MLOAD RETURNDATASIZE PUSH1 0x1F NOT PUSH1 0x1F DUP3 ADD AND DUP3 ADD DUP1 PUSH1 0x40 MSTORE POP DUP2 ADD SWAP1 PUSH2 0x7C9 SWAP2 SWAP1 PUSH2 0xF30 JUMP JUMPDEST PUSH2 0x7D0 JUMP JUMPDEST SELFBALANCE JUMPDEST SWAP1 POP SWAP2 SWAP1 POP JUMP JUMPDEST PUSH1 0x0 PUSH20 0xFFFFFFFFFFFFFFFFFFFFFFFFFFFFFFFFFFFFFFFF AND DUP5 PUSH20 0xFFFFFFFFFFFFFFFFFFFFFFFFFFFFFFFFFFFFFFFF AND EQ ISZERO PUSH2 0x83E JUMPI PUSH1 0x40 MLOAD PUSH32 0xD1BEBF0C00000000000000000000000000000000000000000000000000000000 DUP2 MSTORE PUSH1 0x4 ADD PUSH1 0x40 MLOAD DUP1 SWAP2 SUB SWAP1 REVERT JUMPDEST PUSH1 0x0 PUSH20 0xFFFFFFFFFFFFFFFFFFFFFFFFFFFFFFFFFFFFFFFF AND DUP3 PUSH20 0xFFFFFFFFFFFFFFFFFFFFFFFFFFFFFFFFFFFFFFFF AND EQ ISZERO PUSH2 0x8A5 JUMPI PUSH1 0x40 MLOAD PUSH32 0x21F7434500000000000000000000000000000000000000000000000000000000 DUP2 MSTORE PUSH1 0x4 ADD PUSH1 0x40 MLOAD DUP1 SWAP2 SUB SWAP1 REVERT JUMPDEST PUSH2 0x8B1 DUP5 DUP5 DUP5 DUP5 PUSH2 0xA15 JUMP JUMPDEST POP POP POP POP JUMP JUMPDEST PUSH1 0x0 DUP2 EQ DUP1 PUSH2 0x950 JUMPI POP PUSH1 0x0 DUP4 PUSH20 0xFFFFFFFFFFFFFFFFFFFFFFFFFFFFFFFFFFFFFFFF AND PUSH4 0xDD62ED3E ADDRESS DUP6 PUSH1 0x40 MLOAD DUP4 PUSH4 0xFFFFFFFF AND PUSH1 0xE0 SHL DUP2 MSTORE PUSH1 0x4 ADD PUSH2 0x8FE SWAP3 SWAP2 SWAP1 PUSH2 0x113B JUMP JUMPDEST PUSH1 0x20 PUSH1 0x40 MLOAD DUP1 DUP4 SUB DUP2 DUP7 DUP1 EXTCODESIZE ISZERO DUP1 ISZERO PUSH2 0x916 JUMPI PUSH1 0x0 DUP1 REVERT JUMPDEST POP GAS STATICCALL ISZERO DUP1 ISZERO PUSH2 0x92A JUMPI RETURNDATASIZE PUSH1 0x0 DUP1 RETURNDATACOPY RETURNDATASIZE PUSH1 0x0 REVERT JUMPDEST POP POP POP POP PUSH1 0x40 MLOAD RETURNDATASIZE PUSH1 0x1F NOT PUSH1 0x1F DUP3 ADD AND DUP3 ADD DUP1 PUSH1 0x40 MSTORE POP DUP2 ADD SWAP1 PUSH2 0x94E SWAP2 SWAP1 PUSH2 0xF30 JUMP JUMPDEST EQ JUMPDEST PUSH2 0x98F JUMPI PUSH1 0x40 MLOAD PUSH32 0x8C379A000000000000000000000000000000000000000000000000000000000 DUP2 MSTORE PUSH1 0x4 ADD PUSH2 0x986 SWAP1 PUSH2 0x132D JUMP JUMPDEST PUSH1 0x40 MLOAD DUP1 SWAP2 SUB SWAP1 REVERT JUMPDEST PUSH2 0xA10 DUP4 PUSH4 0x95EA7B3 PUSH1 0xE0 SHL DUP5 DUP5 PUSH1 0x40 MLOAD PUSH1 0x24 ADD PUSH2 0x9AE SWAP3 SWAP2 SWAP1 PUSH2 0x11FC JUMP JUMPDEST PUSH1 0x40 MLOAD PUSH1 0x20 DUP2 DUP4 SUB SUB DUP2 MSTORE SWAP1 PUSH1 0x40 MSTORE SWAP1 PUSH28 0xFFFFFFFFFFFFFFFFFFFFFFFFFFFFFFFFFFFFFFFFFFFFFFFFFFFFFFFF NOT AND PUSH1 0x20 DUP3 ADD DUP1 MLOAD PUSH28 0xFFFFFFFFFFFFFFFFFFFFFFFFFFFFFFFFFFFFFFFFFFFFFFFFFFFFFFFF DUP4 DUP2 DUP4 AND OR DUP4 MSTORE POP POP POP POP PUSH2 0xA9E JUMP JUMPDEST POP POP POP JUMP JUMPDEST PUSH2 0xA98 DUP5 PUSH4 0x23B872DD PUSH1 0xE0 SHL DUP6 DUP6 DUP6 PUSH1 0x40 MLOAD PUSH1 0x24 ADD PUSH2 0xA36 SWAP4 SWAP3 SWAP2 SWAP1 PUSH2 0x1164 JUMP JUMPDEST PUSH1 0x40 MLOAD PUSH1 0x20 DUP2 DUP4 SUB SUB DUP2 MSTORE SWAP1 PUSH1 0x40 MSTORE SWAP1 PUSH28 0xFFFFFFFFFFFFFFFFFFFFFFFFFFFFFFFFFFFFFFFFFFFFFFFFFFFFFFFF NOT AND PUSH1 0x20 DUP3 ADD DUP1 MLOAD PUSH28 0xFFFFFFFFFFFFFFFFFFFFFFFFFFFFFFFFFFFFFFFFFFFFFFFFFFFFFFFF DUP4 DUP2 DUP4 AND OR DUP4 MSTORE POP POP POP POP PUSH2 0xA9E JUMP JUMPDEST POP POP POP POP JUMP JUMPDEST PUSH1 0x0 PUSH2 0xB00 DUP3 PUSH1 0x40 MLOAD DUP1 PUSH1 0x40 ADD PUSH1 0x40 MSTORE DUP1 PUSH1 0x20 DUP2 MSTORE PUSH1 0x20 ADD PUSH32 0x5361666545524332303A206C6F772D6C6576656C2063616C6C206661696C6564 DUP2 MSTORE POP DUP6 PUSH20 0xFFFFFFFFFFFFFFFFFFFFFFFFFFFFFFFFFFFFFFFF AND PUSH2 0xB65 SWAP1 SWAP3 SWAP2 SWAP1 PUSH4 0xFFFFFFFF AND JUMP JUMPDEST SWAP1 POP PUSH1 0x0 DUP2 MLOAD GT ISZERO PUSH2 0xB60 JUMPI DUP1 DUP1 PUSH1 0x20 ADD SWAP1 MLOAD DUP2 ADD SWAP1 PUSH2 0xB20 SWAP2 SWAP1 PUSH2 0xEB5 JUMP JUMPDEST PUSH2 0xB5F JUMPI PUSH1 0x40 MLOAD PUSH32 0x8C379A000000000000000000000000000000000000000000000000000000000 DUP2 MSTORE PUSH1 0x4 ADD PUSH2 0xB56 SWAP1 PUSH2 0x12ED JUMP JUMPDEST PUSH1 0x40 MLOAD DUP1 SWAP2 SUB SWAP1 REVERT JUMPDEST JUMPDEST POP POP POP JUMP JUMPDEST PUSH1 0x60 PUSH2 0xB74 DUP5 DUP5 PUSH1 0x0 DUP6 PUSH2 0xB7D JUMP JUMPDEST SWAP1 POP SWAP4 SWAP3 POP POP POP JUMP JUMPDEST PUSH1 0x60 DUP3 SELFBALANCE LT ISZERO PUSH2 0xBC2 JUMPI PUSH1 0x40 MLOAD PUSH32 0x8C379A000000000000000000000000000000000000000000000000000000000 DUP2 MSTORE PUSH1 0x4 ADD PUSH2 0xBB9 SWAP1 PUSH2 0x1247 JUMP JUMPDEST PUSH1 0x40 MLOAD DUP1 SWAP2 SUB SWAP1 REVERT JUMPDEST PUSH2 0xBCB DUP6 PUSH2 0xC91 JUMP JUMPDEST PUSH2 0xC0A JUMPI PUSH1 0x40 MLOAD PUSH32 0x8C379A000000000000000000000000000000000000000000000000000000000 DUP2 MSTORE PUSH1 0x4 ADD PUSH2 0xC01 SWAP1 PUSH2 0x12CD JUMP JUMPDEST PUSH1 0x40 MLOAD DUP1 SWAP2 SUB SWAP1 REVERT JUMPDEST PUSH1 0x0 DUP1 DUP7 PUSH20 0xFFFFFFFFFFFFFFFFFFFFFFFFFFFFFFFFFFFFFFFF AND DUP6 DUP8 PUSH1 0x40 MLOAD PUSH2 0xC33 SWAP2 SWAP1 PUSH2 0x1109 JUMP JUMPDEST PUSH1 0x0 PUSH1 0x40 MLOAD DUP1 DUP4 SUB DUP2 DUP6 DUP8 GAS CALL SWAP3 POP POP POP RETURNDATASIZE DUP1 PUSH1 0x0 DUP2 EQ PUSH2 0xC70 JUMPI PUSH1 0x40 MLOAD SWAP2 POP PUSH1 0x1F NOT PUSH1 0x3F RETURNDATASIZE ADD AND DUP3 ADD PUSH1 0x40 MSTORE RETURNDATASIZE DUP3 MSTORE RETURNDATASIZE PUSH1 0x0 PUSH1 0x20 DUP5 ADD RETURNDATACOPY PUSH2 0xC75 JUMP JUMPDEST PUSH1 0x60 SWAP2 POP JUMPDEST POP SWAP2 POP SWAP2 POP PUSH2 0xC85 DUP3 DUP3 DUP7 PUSH2 0xCB4 JUMP JUMPDEST SWAP3 POP POP POP SWAP5 SWAP4 POP POP POP POP JUMP JUMPDEST PUSH1 0x0 DUP1 DUP3 PUSH20 0xFFFFFFFFFFFFFFFFFFFFFFFFFFFFFFFFFFFFFFFF AND EXTCODESIZE GT SWAP1 POP SWAP2 SWAP1 POP JUMP JUMPDEST PUSH1 0x60 DUP4 ISZERO PUSH2 0xCC4 JUMPI DUP3 SWAP1 POP PUSH2 0xD14 JUMP JUMPDEST PUSH1 0x0 DUP4 MLOAD GT ISZERO PUSH2 0xCD7 JUMPI DUP3 MLOAD DUP1 DUP5 PUSH1 0x20 ADD REVERT JUMPDEST DUP2 PUSH1 0x40 MLOAD PUSH32 0x8C379A000000000000000000000000000000000000000000000000000000000 DUP2 MSTORE PUSH1 0x4 ADD PUSH2 0xD0B SWAP2 SWAP1 PUSH2 0x1225 JUMP JUMPDEST PUSH1 0x40 MLOAD DUP1 SWAP2 SUB SWAP1 REVERT JUMPDEST SWAP4 SWAP3 POP POP POP JUMP JUMPDEST PUSH1 0x0 DUP2 CALLDATALOAD SWAP1 POP PUSH2 0xD2A DUP2 PUSH2 0x16AC JUMP JUMPDEST SWAP3 SWAP2 POP POP JUMP JUMPDEST PUSH1 0x0 DUP2 MLOAD SWAP1 POP PUSH2 0xD3F DUP2 PUSH2 0x16C3 JUMP JUMPDEST SWAP3 SWAP2 POP POP JUMP JUMPDEST PUSH1 0x0 PUSH1 0xC0 DUP3 DUP5 SUB SLT ISZERO PUSH2 0xD57 JUMPI PUSH1 0x0 DUP1 REVERT JUMPDEST DUP2 SWAP1 POP SWAP3 SWAP2 POP POP JUMP JUMPDEST PUSH1 0x0 PUSH1 0xC0 DUP3 DUP5 SUB SLT ISZERO PUSH2 0xD72 JUMPI PUSH1 0x0 DUP1 REVERT JUMPDEST PUSH2 0xD7C PUSH1 0xC0 PUSH2 0x1368 JUMP JUMPDEST SWAP1 POP PUSH1 0x0 PUSH2 0xD8C DUP5 DUP3 DUP6 ADD PUSH2 0xE26 JUMP JUMPDEST PUSH1 0x0 DUP4 ADD MSTORE POP PUSH1 0x20 PUSH2 0xDA0 DUP5 DUP3 DUP6 ADD PUSH2 0xE3B JUMP JUMPDEST PUSH1 0x20 DUP4 ADD MSTORE POP PUSH1 0x40 PUSH2 0xDB4 DUP5 DUP3 DUP6 ADD PUSH2 0xE3B JUMP JUMPDEST PUSH1 0x40 DUP4 ADD MSTORE POP PUSH1 0x60 PUSH2 0xDC8 DUP5 DUP3 DUP6 ADD PUSH2 0xDFC JUMP JUMPDEST PUSH1 0x60 DUP4 ADD MSTORE POP PUSH1 0x80 PUSH2 0xDDC DUP5 DUP3 DUP6 ADD PUSH2 0xD1B JUMP JUMPDEST PUSH1 0x80 DUP4 ADD MSTORE POP PUSH1 0xA0 PUSH2 0xDF0 DUP5 DUP3 DUP6 ADD PUSH2 0xD1B JUMP JUMPDEST PUSH1 0xA0 DUP4 ADD MSTORE POP SWAP3 SWAP2 POP POP JUMP JUMPDEST PUSH1 0x0 DUP2 CALLDATALOAD SWAP1 POP PUSH2 0xE0B DUP2 PUSH2 0x16DA JUMP JUMPDEST SWAP3 SWAP2 POP POP JUMP JUMPDEST PUSH1 0x0 DUP2 MLOAD SWAP1 POP PUSH2 0xE20 DUP2 PUSH2 0x16DA JUMP JUMPDEST SWAP3 SWAP2 POP POP JUMP JUMPDEST PUSH1 0x0 DUP2 CALLDATALOAD SWAP1 POP PUSH2 0xE35 DUP2 PUSH2 0x16F1 JUMP JUMPDEST SWAP3 SWAP2 POP POP JUMP JUMPDEST PUSH1 0x0 DUP2 CALLDATALOAD SWAP1 POP PUSH2 0xE4A DUP2 PUSH2 0x1708 JUMP JUMPDEST SWAP3 SWAP2 POP POP JUMP JUMPDEST PUSH1 0x0 PUSH1 0x20 DUP3 DUP5 SUB SLT ISZERO PUSH2 0xE62 JUMPI PUSH1 0x0 DUP1 REVERT JUMPDEST PUSH1 0x0 PUSH2 0xE70 DUP5 DUP3 DUP6 ADD PUSH2 0xD1B JUMP JUMPDEST SWAP2 POP POP SWAP3 SWAP2 POP POP JUMP JUMPDEST PUSH1 0x0 DUP1 PUSH1 0x40 DUP4 DUP6 SUB SLT ISZERO PUSH2 0xE8C JUMPI PUSH1 0x0 DUP1 REVERT JUMPDEST PUSH1 0x0 PUSH2 0xE9A DUP6 DUP3 DUP7 ADD PUSH2 0xD1B JUMP JUMPDEST SWAP3 POP POP PUSH1 0x20 PUSH2 0xEAB DUP6 DUP3 DUP7 ADD PUSH2 0xDFC JUMP JUMPDEST SWAP2 POP POP SWAP3 POP SWAP3 SWAP1 POP JUMP JUMPDEST PUSH1 0x0 PUSH1 0x20 DUP3 DUP5 SUB SLT ISZERO PUSH2 0xEC7 JUMPI PUSH1 0x0 DUP1 REVERT JUMPDEST PUSH1 0x0 PUSH2 0xED5 DUP5 DUP3 DUP6 ADD PUSH2 0xD30 JUMP JUMPDEST SWAP2 POP POP SWAP3 SWAP2 POP POP JUMP JUMPDEST PUSH1 0x0 PUSH1 0xC0 DUP3 DUP5 SUB SLT ISZERO PUSH2 0xEF0 JUMPI PUSH1 0x0 DUP1 REVERT JUMPDEST PUSH1 0x0 PUSH2 0xEFE DUP5 DUP3 DUP6 ADD PUSH2 0xD45 JUMP JUMPDEST SWAP2 POP POP SWAP3 SWAP2 POP POP JUMP JUMPDEST PUSH1 0x0 PUSH1 0xC0 DUP3 DUP5 SUB SLT ISZERO PUSH2 0xF19 JUMPI PUSH1 0x0 DUP1 REVERT JUMPDEST PUSH1 0x0 PUSH2 0xF27 DUP5 DUP3 DUP6 ADD PUSH2 0xD60 JUMP JUMPDEST SWAP2 POP POP SWAP3 SWAP2 POP POP JUMP JUMPDEST PUSH1 0x0 PUSH1 0x20 DUP3 DUP5 SUB SLT ISZERO PUSH2 0xF42 JUMPI PUSH1 0x0 DUP1 REVERT JUMPDEST PUSH1 0x0 PUSH2 0xF50 DUP5 DUP3 DUP6 ADD PUSH2 0xE11 JUMP JUMPDEST SWAP2 POP POP SWAP3 SWAP2 POP POP JUMP JUMPDEST PUSH1 0x0 PUSH1 0x20 DUP3 DUP5 SUB SLT ISZERO PUSH2 0xF6B JUMPI PUSH1 0x0 DUP1 REVERT JUMPDEST PUSH1 0x0 PUSH2 0xF79 DUP5 DUP3 DUP6 ADD PUSH2 0xE3B JUMP JUMPDEST SWAP2 POP POP SWAP3 SWAP2 POP POP JUMP JUMPDEST PUSH2 0xF8B DUP2 PUSH2 0x13F3 JUMP JUMPDEST DUP3 MSTORE POP POP JUMP JUMPDEST PUSH1 0x0 PUSH2 0xF9C DUP3 PUSH2 0x138D JUMP JUMPDEST PUSH2 0xFA6 DUP2 DUP6 PUSH2 0x13A3 JUMP JUMPDEST SWAP4 POP PUSH2 0xFB6 DUP2 DUP6 PUSH1 0x20 DUP7 ADD PUSH2 0x1471 JUMP JUMPDEST DUP1 DUP5 ADD SWAP2 POP POP SWAP3 SWAP2 POP POP JUMP JUMPDEST PUSH1 0x0 PUSH2 0xFCD DUP3 PUSH2 0x1398 JUMP JUMPDEST PUSH2 0xFD7 DUP2 DUP6 PUSH2 0x13AE JUMP JUMPDEST SWAP4 POP PUSH2 0xFE7 DUP2 DUP6 PUSH1 0x20 DUP7 ADD PUSH2 0x1471 JUMP JUMPDEST PUSH2 0xFF0 DUP2 PUSH2 0x1533 JUMP JUMPDEST DUP5 ADD SWAP2 POP POP SWAP3 SWAP2 POP POP JUMP JUMPDEST PUSH1 0x0 PUSH2 0x1008 PUSH1 0x26 DUP4 PUSH2 0x13AE JUMP JUMPDEST SWAP2 POP PUSH2 0x1013 DUP3 PUSH2 0x1544 JUMP JUMPDEST PUSH1 0x40 DUP3 ADD SWAP1 POP SWAP2 SWAP1 POP JUMP JUMPDEST PUSH1 0x0 PUSH2 0x102B PUSH1 0x7 DUP4 PUSH2 0x13AE JUMP JUMPDEST SWAP2 POP PUSH2 0x1036 DUP3 PUSH2 0x1593 JUMP JUMPDEST PUSH1 0x20 DUP3 ADD SWAP1 POP SWAP2 SWAP1 POP JUMP JUMPDEST PUSH1 0x0 PUSH2 0x104E PUSH1 0x1D DUP4 PUSH2 0x13AE JUMP JUMPDEST SWAP2 POP PUSH2 0x1059 DUP3 PUSH2 0x15BC JUMP JUMPDEST PUSH1 0x20 DUP3 ADD SWAP1 POP SWAP2 SWAP1 POP JUMP JUMPDEST PUSH1 0x0 PUSH2 0x1071 PUSH1 0x2A DUP4 PUSH2 0x13AE JUMP JUMPDEST SWAP2 POP PUSH2 0x107C DUP3 PUSH2 0x15E5 JUMP JUMPDEST PUSH1 0x40 DUP3 ADD SWAP1 POP SWAP2 SWAP1 POP JUMP JUMPDEST PUSH1 0x0 PUSH2 0x1094 PUSH1 0x1F DUP4 PUSH2 0x13AE JUMP JUMPDEST SWAP2 POP PUSH2 0x109F DUP3 PUSH2 0x1634 JUMP JUMPDEST PUSH1 0x20 DUP3 ADD SWAP1 POP SWAP2 SWAP1 POP JUMP JUMPDEST PUSH1 0x0 PUSH2 0x10B7 PUSH1 0x36 DUP4 PUSH2 0x13AE JUMP JUMPDEST SWAP2 POP PUSH2 0x10C2 DUP3 PUSH2 0x165D JUMP JUMPDEST PUSH1 0x40 DUP3 ADD SWAP1 POP SWAP2 SWAP1 POP JUMP JUMPDEST PUSH2 0x10D6 DUP2 PUSH2 0x1431 JUMP JUMPDEST DUP3 MSTORE POP POP JUMP JUMPDEST PUSH2 0x10E5 DUP2 PUSH2 0x143B JUMP JUMPDEST DUP3 MSTORE POP POP JUMP JUMPDEST PUSH2 0x10F4 DUP2 PUSH2 0x145F JUMP JUMPDEST DUP3 MSTORE POP POP JUMP JUMPDEST PUSH2 0x1103 DUP2 PUSH2 0x144B JUMP JUMPDEST DUP3 MSTORE POP POP JUMP JUMPDEST PUSH1 0x0 PUSH2 0x1115 DUP3 DUP5 PUSH2 0xF91 JUMP JUMPDEST SWAP2 POP DUP2 SWAP1 POP SWAP3 SWAP2 POP POP JUMP JUMPDEST PUSH1 0x0 PUSH1 0x20 DUP3 ADD SWAP1 POP PUSH2 0x1135 PUSH1 0x0 DUP4 ADD DUP5 PUSH2 0xF82 JUMP JUMPDEST SWAP3 SWAP2 POP POP JUMP JUMPDEST PUSH1 0x0 PUSH1 0x40 DUP3 ADD SWAP1 POP PUSH2 0x1150 PUSH1 0x0 DUP4 ADD DUP6 PUSH2 0xF82 JUMP JUMPDEST PUSH2 0x115D PUSH1 0x20 DUP4 ADD DUP5 PUSH2 0xF82 JUMP JUMPDEST SWAP4 SWAP3 POP POP POP JUMP JUMPDEST PUSH1 0x0 PUSH1 0x60 DUP3 ADD SWAP1 POP PUSH2 0x1179 PUSH1 0x0 DUP4 ADD DUP7 PUSH2 0xF82 JUMP JUMPDEST PUSH2 0x1186 PUSH1 0x20 DUP4 ADD DUP6 PUSH2 0xF82 JUMP JUMPDEST PUSH2 0x1193 PUSH1 0x40 DUP4 ADD DUP5 PUSH2 0x10CD JUMP JUMPDEST SWAP5 SWAP4 POP POP POP POP JUMP JUMPDEST PUSH1 0x0 PUSH1 0xC0 DUP3 ADD SWAP1 POP PUSH2 0x11B0 PUSH1 0x0 DUP4 ADD DUP10 PUSH2 0xF82 JUMP JUMPDEST PUSH2 0x11BD PUSH1 0x20 DUP4 ADD DUP9 PUSH2 0xF82 JUMP JUMPDEST PUSH2 0x11CA PUSH1 0x40 DUP4 ADD DUP8 PUSH2 0x10CD JUMP JUMPDEST PUSH2 0x11D7 PUSH1 0x60 DUP4 ADD DUP7 PUSH2 0x10FA JUMP JUMPDEST PUSH2 0x11E4 PUSH1 0x80 DUP4 ADD DUP6 PUSH2 0x10FA JUMP JUMPDEST PUSH2 0x11F1 PUSH1 0xA0 DUP4 ADD DUP5 PUSH2 0x10DC JUMP JUMPDEST SWAP8 SWAP7 POP POP POP POP POP POP POP JUMP JUMPDEST PUSH1 0x0 PUSH1 0x40 DUP3 ADD SWAP1 POP PUSH2 0x1211 PUSH1 0x0 DUP4 ADD DUP6 PUSH2 0xF82 JUMP JUMPDEST PUSH2 0x121E PUSH1 0x20 DUP4 ADD DUP5 PUSH2 0x10CD JUMP JUMPDEST SWAP4 SWAP3 POP POP POP JUMP JUMPDEST PUSH1 0x0 PUSH1 0x20 DUP3 ADD SWAP1 POP DUP2 DUP2 SUB PUSH1 0x0 DUP4 ADD MSTORE PUSH2 0x123F DUP2 DUP5 PUSH2 0xFC2 JUMP JUMPDEST SWAP1 POP SWAP3 SWAP2 POP POP JUMP JUMPDEST PUSH1 0x0 PUSH1 0x20 DUP3 ADD SWAP1 POP DUP2 DUP2 SUB PUSH1 0x0 DUP4 ADD MSTORE PUSH2 0x1260 DUP2 PUSH2 0xFFB JUMP JUMPDEST SWAP1 POP SWAP2 SWAP1 POP JUMP JUMPDEST PUSH1 0x0 PUSH1 0xC0 DUP3 ADD SWAP1 POP DUP2 DUP2 SUB PUSH1 0x0 DUP4 ADD MSTORE PUSH2 0x1280 DUP2 PUSH2 0x101E JUMP JUMPDEST SWAP1 POP PUSH2 0x128F PUSH1 0x20 DUP4 ADD DUP9 PUSH2 0xF82 JUMP JUMPDEST PUSH2 0x129C PUSH1 0x40 DUP4 ADD DUP8 PUSH2 0xF82 JUMP JUMPDEST PUSH2 0x12A9 PUSH1 0x60 DUP4 ADD DUP7 PUSH2 0xF82 JUMP JUMPDEST PUSH2 0x12B6 PUSH1 0x80 DUP4 ADD DUP6 PUSH2 0x10CD JUMP JUMPDEST PUSH2 0x12C3 PUSH1 0xA0 DUP4 ADD DUP5 PUSH2 0x10EB JUMP JUMPDEST SWAP7 SWAP6 POP POP POP POP POP POP JUMP JUMPDEST PUSH1 0x0 PUSH1 0x20 DUP3 ADD SWAP1 POP DUP2 DUP2 SUB PUSH1 0x0 DUP4 ADD MSTORE PUSH2 0x12E6 DUP2 PUSH2 0x1041 JUMP JUMPDEST SWAP1 POP SWAP2 SWAP1 POP JUMP JUMPDEST PUSH1 0x0 PUSH1 0x20 DUP3 ADD SWAP1 POP DUP2 DUP2 SUB PUSH1 0x0 DUP4 ADD MSTORE PUSH2 0x1306 DUP2 PUSH2 0x1064 JUMP JUMPDEST SWAP1 POP SWAP2 SWAP1 POP JUMP JUMPDEST PUSH1 0x0 PUSH1 0x20 DUP3 ADD SWAP1 POP DUP2 DUP2 SUB PUSH1 0x0 DUP4 ADD MSTORE PUSH2 0x1326 DUP2 PUSH2 0x1087 JUMP JUMPDEST SWAP1 POP SWAP2 SWAP1 POP JUMP JUMPDEST PUSH1 0x0 PUSH1 0x20 DUP3 ADD SWAP1 POP DUP2 DUP2 SUB PUSH1 0x0 DUP4 ADD MSTORE PUSH2 0x1346 DUP2 PUSH2 0x10AA JUMP JUMPDEST SWAP1 POP SWAP2 SWAP1 POP JUMP JUMPDEST PUSH1 0x0 PUSH1 0x20 DUP3 ADD SWAP1 POP PUSH2 0x1362 PUSH1 0x0 DUP4 ADD DUP5 PUSH2 0x10CD JUMP JUMPDEST SWAP3 SWAP2 POP POP JUMP JUMPDEST PUSH1 0x0 PUSH2 0x1372 PUSH2 0x1383 JUMP JUMPDEST SWAP1 POP PUSH2 0x137E DUP3 DUP3 PUSH2 0x14A4 JUMP JUMPDEST SWAP2 SWAP1 POP JUMP JUMPDEST PUSH1 0x0 PUSH1 0x40 MLOAD SWAP1 POP SWAP1 JUMP JUMPDEST PUSH1 0x0 DUP2 MLOAD SWAP1 POP SWAP2 SWAP1 POP JUMP JUMPDEST PUSH1 0x0 DUP2 MLOAD SWAP1 POP SWAP2 SWAP1 POP JUMP JUMPDEST PUSH1 0x0 DUP2 SWAP1 POP SWAP3 SWAP2 POP POP JUMP JUMPDEST PUSH1 0x0 DUP3 DUP3 MSTORE PUSH1 0x20 DUP3 ADD SWAP1 POP SWAP3 SWAP2 POP POP JUMP JUMPDEST PUSH1 0x0 PUSH2 0x13CA DUP3 PUSH2 0x1431 JUMP JUMPDEST SWAP2 POP PUSH2 0x13D5 DUP4 PUSH2 0x1431 JUMP JUMPDEST SWAP3 POP DUP3 DUP3 LT ISZERO PUSH2 0x13E8 JUMPI PUSH2 0x13E7 PUSH2 0x14D5 JUMP JUMPDEST JUMPDEST DUP3 DUP3 SUB SWAP1 POP SWAP3 SWAP2 POP POP JUMP JUMPDEST PUSH1 0x0 PUSH2 0x13FE DUP3 PUSH2 0x1411 JUMP JUMPDEST SWAP1 POP SWAP2 SWAP1 POP JUMP JUMPDEST PUSH1 0x0 DUP2 ISZERO ISZERO SWAP1 POP SWAP2 SWAP1 POP JUMP JUMPDEST PUSH1 0x0 PUSH20 0xFFFFFFFFFFFFFFFFFFFFFFFFFFFFFFFFFFFFFFFF DUP3 AND SWAP1 POP SWAP2 SWAP1 POP JUMP JUMPDEST PUSH1 0x0 DUP2 SWAP1 POP SWAP2 SWAP1 POP JUMP JUMPDEST PUSH1 0x0 PUSH4 0xFFFFFFFF DUP3 AND SWAP1 POP SWAP2 SWAP1 POP JUMP JUMPDEST PUSH1 0x0 PUSH8 0xFFFFFFFFFFFFFFFF DUP3 AND SWAP1 POP SWAP2 SWAP1 POP JUMP JUMPDEST PUSH1 0x0 PUSH2 0x146A DUP3 PUSH2 0x144B JUMP JUMPDEST SWAP1 POP SWAP2 SWAP1 POP JUMP JUMPDEST PUSH1 0x0 JUMPDEST DUP4 DUP2 LT ISZERO PUSH2 0x148F JUMPI DUP1 DUP3 ADD MLOAD DUP2 DUP5 ADD MSTORE PUSH1 0x20 DUP2 ADD SWAP1 POP PUSH2 0x1474 JUMP JUMPDEST DUP4 DUP2 GT ISZERO PUSH2 0x149E JUMPI PUSH1 0x0 DUP5 DUP5 ADD MSTORE JUMPDEST POP POP POP POP JUMP JUMPDEST PUSH2 0x14AD DUP3 PUSH2 0x1533 JUMP JUMPDEST DUP2 ADD DUP2 DUP2 LT PUSH8 0xFFFFFFFFFFFFFFFF DUP3 GT OR ISZERO PUSH2 0x14CC JUMPI PUSH2 0x14CB PUSH2 0x1504 JUMP JUMPDEST JUMPDEST DUP1 PUSH1 0x40 MSTORE POP POP POP JUMP JUMPDEST PUSH32 0x4E487B7100000000000000000000000000000000000000000000000000000000 PUSH1 0x0 MSTORE PUSH1 0x11 PUSH1 0x4 MSTORE PUSH1 0x24 PUSH1 0x0 REVERT JUMPDEST PUSH32 0x4E487B7100000000000000000000000000000000000000000000000000000000 PUSH1 0x0 MSTORE PUSH1 0x41 PUSH1 0x4 MSTORE PUSH1 0x24 PUSH1 0x0 REVERT JUMPDEST PUSH1 0x0 PUSH1 0x1F NOT PUSH1 0x1F DUP4 ADD AND SWAP1 POP SWAP2 SWAP1 POP JUMP JUMPDEST PUSH32 0x416464726573733A20696E73756666696369656E742062616C616E636520666F PUSH1 0x0 DUP3 ADD MSTORE PUSH32 0x722063616C6C0000000000000000000000000000000000000000000000000000 PUSH1 0x20 DUP3 ADD MSTORE POP JUMP JUMPDEST PUSH32 0x6342726964676500000000000000000000000000000000000000000000000000 PUSH1 0x0 DUP3 ADD MSTORE POP JUMP JUMPDEST PUSH32 0x416464726573733A2063616C6C20746F206E6F6E2D636F6E7472616374000000 PUSH1 0x0 DUP3 ADD MSTORE POP JUMP JUMPDEST PUSH32 0x5361666545524332303A204552433230206F7065726174696F6E20646964206E PUSH1 0x0 DUP3 ADD MSTORE PUSH32 0x6F74207375636365656400000000000000000000000000000000000000000000 PUSH1 0x20 DUP3 ADD MSTORE POP JUMP JUMPDEST PUSH32 0x5265656E7472616E637947756172643A207265656E7472616E742063616C6C00 PUSH1 0x0 DUP3 ADD MSTORE POP JUMP JUMPDEST PUSH32 0x5361666545524332303A20617070726F76652066726F6D206E6F6E2D7A65726F PUSH1 0x0 DUP3 ADD MSTORE PUSH32 0x20746F206E6F6E2D7A65726F20616C6C6F77616E636500000000000000000000 PUSH1 0x20 DUP3 ADD MSTORE POP JUMP JUMPDEST PUSH2 0x16B5 DUP2 PUSH2 0x13F3 JUMP JUMPDEST DUP2 EQ PUSH2 0x16C0 JUMPI PUSH1 0x0 DUP1 REVERT JUMPDEST POP JUMP JUMPDEST PUSH2 0x16CC DUP2 PUSH2 0x1405 JUMP JUMPDEST DUP2 EQ PUSH2 0x16D7 JUMPI PUSH1 0x0 DUP1 REVERT JUMPDEST POP JUMP JUMPDEST PUSH2 0x16E3 DUP2 PUSH2 0x1431 JUMP JUMPDEST DUP2 EQ PUSH2 0x16EE JUMPI PUSH1 0x0 DUP1 REVERT JUMPDEST POP JUMP JUMPDEST PUSH2 0x16FA DUP2 PUSH2 0x143B JUMP JUMPDEST DUP2 EQ PUSH2 0x1705 JUMPI PUSH1 0x0 DUP1 REVERT JUMPDEST POP JUMP JUMPDEST PUSH2 0x1711 DUP2 PUSH2 0x144B JUMP JUMPDEST DUP2 EQ PUSH2 0x171C JUMPI PUSH1 0x0 DUP1 REVERT JUMPDEST POP JUMP INVALID LOG2 PUSH5 0x6970667358 0x22 SLT KECCAK256 GASPRICE GAS 0xD7 SWAP13 0xA7 DUP11 GT JUMPI 0xBE 0xD5 PUSH24 0x9B9688CFEDA8D9F7DAB43E6D4CE0DC43040F22BA5E64736F PUSH13 0x63430008040033000000000000 "
				},
				"gasEstimates": {
					"creation": {
						"codeDepositCost": "1194600",
						"executionCost": "21255",
						"totalCost": "1215855"
					},
					"external": {
						"bridgeTokensCBridge((uint32,uint64,uint64,uint256,address,address))": "infinite",
						"cBridge()": "1192",
						"chainId()": "1151",
						"initializeCBridge(address,uint256)": "infinite"
					},
					"internal": {
						"_startBridge(struct CBridgeFacet.CBridgeData memory)": "infinite"
					}
				},
				"methodIdentifiers": {
					"bridgeTokensCBridge((uint32,uint64,uint64,uint256,address,address))": "5277cbc7",
					"cBridge()": "36d4b75f",
					"chainId()": "9a8a0592",
					"initializeCBridge(address,uint256)": "fc613675"
				}
			},
			"storageLayout": {
				"storage": [
					{
						"astId": 10,
						"contract": "bridges/facets/CBridgeFacet.sol:CBridgeFacet",
						"label": "_status",
						"offset": 0,
						"slot": "0",
						"type": "t_uint256"
					},
					{
						"astId": 814,
						"contract": "bridges/facets/CBridgeFacet.sol:CBridgeFacet",
						"label": "cBridge",
						"offset": 0,
						"slot": "1",
						"type": "t_address"
					},
					{
						"astId": 816,
						"contract": "bridges/facets/CBridgeFacet.sol:CBridgeFacet",
						"label": "chainId",
						"offset": 0,
						"slot": "2",
						"type": "t_uint256"
					}
				],
				"types": {
					"t_address": {
						"encoding": "inplace",
						"label": "address",
						"numberOfBytes": "20"
					},
					"t_uint256": {
						"encoding": "inplace",
						"label": "uint256",
						"numberOfBytes": "32"
					}
				}
			},
			"userdoc": {
				"kind": "user",
				"methods": {
					"bridgeTokensCBridge((uint32,uint64,uint64,uint256,address,address))": {
						"notice": "initiates token bridging"
					},
					"initializeCBridge(address,uint256)": {
						"notice": "initializes state variables for the cBridge facet"
					}
				},
				"version": 1
			}
		}
	}
}