{
	"bridges/facets/StargateFacet.sol": {
		"StargateFacet": {
			"abi": [
				{
					"inputs": [],
					"name": "InvalidAmount",
					"type": "error"
				},
				{
					"inputs": [],
					"name": "InvalidConfig",
					"type": "error"
				},
				{
					"inputs": [],
					"name": "InvalidSourcePoolId",
					"type": "error"
				},
				{
					"inputs": [],
					"name": "ReentrancyError",
					"type": "error"
				},
				{
					"inputs": [],
					"name": "SenderNotStargateRouter",
					"type": "error"
				},
				{
					"inputs": [],
					"name": "StargateRouterAddressZero",
					"type": "error"
				},
				{
					"anonymous": false,
					"inputs": [
						{
							"indexed": false,
							"internalType": "uint16",
							"name": "chainId",
							"type": "uint16"
						},
						{
							"indexed": false,
							"internalType": "address",
							"name": "token",
							"type": "address"
						},
						{
							"indexed": false,
							"internalType": "uint16",
							"name": "poolId",
							"type": "uint16"
						}
					],
					"name": "SGAddedPool",
					"type": "event"
				},
				{
					"anonymous": false,
					"inputs": [
						{
							"indexed": false,
							"internalType": "address",
							"name": "stargate",
							"type": "address"
						},
						{
							"indexed": false,
							"internalType": "uint16",
							"name": "chainId",
							"type": "uint16"
						}
					],
					"name": "SGInitialized",
					"type": "event"
				},
				{
					"anonymous": false,
					"inputs": [
						{
							"indexed": false,
							"internalType": "address",
							"name": "token",
							"type": "address"
						},
						{
							"indexed": false,
							"internalType": "uint256",
							"name": "amount",
							"type": "uint256"
						}
					],
					"name": "SGReceivedOnDestination",
					"type": "event"
				},
				{
					"anonymous": false,
					"inputs": [
						{
							"indexed": false,
							"internalType": "string",
							"name": "bridgeUsed",
							"type": "string"
						},
						{
							"indexed": false,
							"internalType": "address",
							"name": "fromToken",
							"type": "address"
						},
						{
							"indexed": false,
							"internalType": "address",
							"name": "toToken",
							"type": "address"
						},
						{
							"indexed": false,
							"internalType": "address",
							"name": "from",
							"type": "address"
						},
						{
							"indexed": false,
							"internalType": "address",
							"name": "to",
							"type": "address"
						},
						{
							"indexed": false,
							"internalType": "uint256",
							"name": "amount",
							"type": "uint256"
						},
						{
							"indexed": false,
							"internalType": "uint16",
							"name": "chainIdTo",
							"type": "uint16"
						}
					],
					"name": "SGTransferStarted",
					"type": "event"
				},
				{
					"anonymous": false,
					"inputs": [
						{
							"indexed": false,
							"internalType": "address",
							"name": "newAddress",
							"type": "address"
						}
					],
					"name": "SGUpdatedRouter",
					"type": "event"
				},
				{
					"anonymous": false,
					"inputs": [
						{
							"indexed": false,
							"internalType": "uint256",
							"name": "newSlippage",
							"type": "uint256"
						}
					],
					"name": "SGUpdatedSlippageTolerance",
					"type": "event"
				},
				{
					"inputs": [
						{
							"internalType": "uint16",
							"name": "_chainId",
							"type": "uint16"
						},
						{
							"internalType": "address",
							"name": "_token",
							"type": "address"
						},
						{
							"internalType": "uint16",
							"name": "_poolId",
							"type": "uint16"
						}
					],
					"name": "sgAddPool",
					"outputs": [],
					"stateMutability": "nonpayable",
					"type": "function"
				},
				{
					"inputs": [
						{
							"components": [
								{
									"internalType": "uint256",
									"name": "qty",
									"type": "uint256"
								},
								{
									"internalType": "address",
									"name": "fromToken",
									"type": "address"
								},
								{
									"internalType": "address",
									"name": "toToken",
									"type": "address"
								},
								{
									"internalType": "uint16",
									"name": "dstChainId",
									"type": "uint16"
								},
								{
									"internalType": "address",
									"name": "to",
									"type": "address"
								},
								{
									"internalType": "address",
									"name": "destStargateComposed",
									"type": "address"
								}
							],
							"internalType": "struct StargateFacet.StargateData",
							"name": "_sgData",
							"type": "tuple"
						}
					],
					"name": "sgBridgeTokens",
					"outputs": [],
					"stateMutability": "payable",
					"type": "function"
				},
				{
					"inputs": [
						{
							"internalType": "uint16",
							"name": "_destChain",
							"type": "uint16"
						},
						{
							"internalType": "address",
							"name": "_receiver",
							"type": "address"
						},
						{
							"internalType": "address",
							"name": "_router",
							"type": "address"
						}
					],
					"name": "sgCalculateFees",
					"outputs": [
						{
							"internalType": "uint256",
							"name": "",
							"type": "uint256"
						}
					],
					"stateMutability": "view",
					"type": "function"
				},
				{
					"inputs": [
						{
							"internalType": "uint16",
							"name": "_chainId",
							"type": "uint16"
						},
						{
							"internalType": "address",
							"name": "_token",
							"type": "address"
						},
						{
							"internalType": "uint16",
							"name": "_poolId",
							"type": "uint16"
						}
					],
					"name": "sgCheckPoolId",
					"outputs": [
						{
							"internalType": "bool",
							"name": "",
							"type": "bool"
						}
					],
					"stateMutability": "view",
					"type": "function"
				},
				{
					"inputs": [
						{
							"internalType": "address",
							"name": "_stargateRouter",
							"type": "address"
						},
						{
							"internalType": "uint16",
							"name": "_chainId",
							"type": "uint16"
						}
					],
					"name": "sgInitialize",
					"outputs": [],
					"stateMutability": "nonpayable",
					"type": "function"
				},
				{
					"inputs": [
						{
							"internalType": "uint256",
							"name": "_amount",
							"type": "uint256"
						}
					],
					"name": "sgMinAmountOut",
					"outputs": [
						{
							"internalType": "uint256",
							"name": "",
							"type": "uint256"
						}
					],
					"stateMutability": "view",
					"type": "function"
				},
				{
					"inputs": [
						{
							"internalType": "uint16",
							"name": "_chainId",
							"type": "uint16"
						},
						{
							"internalType": "bytes",
							"name": "_srcAddress",
							"type": "bytes"
						},
						{
							"internalType": "uint256",
							"name": "_nonce",
							"type": "uint256"
						},
						{
							"internalType": "address",
							"name": "_token",
							"type": "address"
						},
						{
							"internalType": "uint256",
							"name": "amountLD",
							"type": "uint256"
						},
						{
							"internalType": "bytes",
							"name": "_payload",
							"type": "bytes"
						}
					],
					"name": "sgReceive",
					"outputs": [],
					"stateMutability": "nonpayable",
					"type": "function"
				},
				{
					"inputs": [
						{
							"internalType": "uint16",
							"name": "_chainId",
							"type": "uint16"
						},
						{
							"internalType": "address",
							"name": "_token",
							"type": "address"
						}
					],
					"name": "sgRetrievePoolId",
					"outputs": [
						{
							"internalType": "uint16",
							"name": "",
							"type": "uint16"
						}
					],
					"stateMutability": "view",
					"type": "function"
				},
				{
					"inputs": [
						{
							"internalType": "address",
							"name": "_newAddress",
							"type": "address"
						}
					],
					"name": "sgUpdateRouter",
					"outputs": [],
					"stateMutability": "nonpayable",
					"type": "function"
				},
				{
					"inputs": [
						{
							"internalType": "uint256",
							"name": "_newSlippage",
							"type": "uint256"
						}
					],
					"name": "sgUpdateSlippageTolerance",
					"outputs": [],
					"stateMutability": "nonpayable",
					"type": "function"
				},
				{
					"inputs": [
						{
							"internalType": "address",
							"name": "_token",
							"type": "address"
						},
						{
							"internalType": "address",
							"name": "_user",
							"type": "address"
						},
						{
							"internalType": "uint256",
							"name": "_amount",
							"type": "uint256"
						}
					],
					"name": "sgWithdraw",
					"outputs": [],
					"stateMutability": "payable",
					"type": "function"
				},
				{
					"stateMutability": "payable",
					"type": "receive"
				}
			],
			"devdoc": {
				"author": "Luke Wickens <luke@pillarproject.io>",
				"kind": "dev",
				"methods": {
					"sgAddPool(uint16,address,uint16)": {
						"params": {
							"_chainId": "Chain id of new pool (NOT actual chain id - check stargate pool ids docs)",
							"_poolId": "Pool id (check stargate pool ids docs)",
							"_token": "Address of token"
						}
					},
					"sgBridgeTokens((uint256,address,address,uint16,address,address))": {
						"params": {
							"_sgData": "- struct containing information required to execute bridge"
						}
					},
					"sgCalculateFees(uint16,address,address)": {
						"params": {
							"_destChain": "Destination chain id",
							"_receiver": "Receiver on destination chain",
							"_router": "Address of stargate router"
						}
					},
					"sgCheckPoolId(uint16,address,uint16)": {
						"params": {
							"_chainId": "Chain id of new pool (NOT actual chain id - check stargate pool ids docs)",
							"_poolId": "Pool id (check stargate pool ids docs)",
							"_token": "Address of token"
						}
					},
					"sgInitialize(address,uint16)": {
						"params": {
							"_chainId": "- current chain id",
							"_stargateRouter": "- address of the Stargate router contract"
						}
					},
					"sgMinAmountOut(uint256)": {
						"params": {
							"_amount": "Transfer amount"
						}
					},
					"sgReceive(uint16,bytes,uint256,address,uint256,bytes)": {
						"params": {
							"_chainId": "The remote chainId sending the tokens",
							"_nonce": "The message ordering nonce",
							"_payload": "The bytes containing the toAddress",
							"_srcAddress": "The remote Bridge address",
							"_token": "The token contract on the local chain",
							"amountLD": "The qty of local _token contract tokens"
						}
					},
					"sgRetrievePoolId(uint16,address)": {
						"params": {
							"_chainId": "Chain id of new pool (NOT actual chain id - check stargate pool ids docs)",
							"_token": "Address of token"
						}
					},
					"sgUpdateRouter(address)": {
						"params": {
							"_newAddress": "Address of the new router"
						}
					},
					"sgUpdateSlippageTolerance(uint256)": {
						"params": {
							"_newSlippage": "New slippage amount"
						}
					},
					"sgWithdraw(address,address,uint256)": {
						"params": {
							"_amount": "Amount to withdraw",
							"_token": "Address of token",
							"_user": "Address of receiver of tokens"
						}
					}
				},
				"title": "StargateFacet",
				"version": 1
			},
			"evm": {
				"assembly": "    /* \"bridges/facets/StargateFacet.sol\":897:12215  contract StargateFacet is IStargateReceiver, ReentrancyGuard {... */\n  mstore(0x40, 0x80)\n  callvalue\n  dup1\n  iszero\n  tag_1\n  jumpi\n  0x00\n  dup1\n  revert\ntag_1:\n  pop\n  dataSize(sub_0)\n  dup1\n  dataOffset(sub_0)\n  0x00\n  codecopy\n  0x00\n  return\nstop\n\nsub_0: assembly {\n        /* \"bridges/facets/StargateFacet.sol\":897:12215  contract StargateFacet is IStargateReceiver, ReentrancyGuard {... */\n      mstore(0x40, 0x80)\n      jumpi(tag_1, lt(calldatasize, 0x04))\n      shr(0xe0, calldataload(0x00))\n      dup1\n      0x498ee469\n      gt\n      tag_14\n      jumpi\n      dup1\n      0x498ee469\n      eq\n      tag_8\n      jumpi\n      dup1\n      0x4be85c35\n      eq\n      tag_9\n      jumpi\n      dup1\n      0x618c3f29\n      eq\n      tag_10\n      jumpi\n      dup1\n      0xab8236f3\n      eq\n      tag_11\n      jumpi\n      dup1\n      0xb8c06ccc\n      eq\n      tag_12\n      jumpi\n      dup1\n      0xc722a336\n      eq\n      tag_13\n      jumpi\n      jump(tag_2)\n    tag_14:\n      dup1\n      0x1f8097fb\n      eq\n      tag_3\n      jumpi\n      dup1\n      0x217aabb7\n      eq\n      tag_4\n      jumpi\n      dup1\n      0x2a8dcdb7\n      eq\n      tag_5\n      jumpi\n      dup1\n      0x42d910c6\n      eq\n      tag_6\n      jumpi\n      dup1\n      0x430dbc3a\n      eq\n      tag_7\n      jumpi\n      jump(tag_2)\n    tag_1:\n      jumpi(tag_2, calldatasize)\n      stop\n    tag_2:\n      0x00\n      dup1\n      revert\n        /* \"bridges/facets/StargateFacet.sol\":4242:6929  function sgBridgeTokens(StargateData memory _sgData)... */\n    tag_3:\n      tag_17\n      0x04\n      dup1\n      calldatasize\n      sub\n      dup2\n      add\n      swap1\n      tag_18\n      swap2\n      swap1\n      tag_19\n      jump\t// in\n    tag_18:\n      tag_20\n      jump\t// in\n    tag_17:\n      stop\n        /* \"bridges/facets/StargateFacet.sol\":9461:9711  function sgUpdateSlippageTolerance(uint256 _newSlippage) external {... */\n    tag_4:\n      callvalue\n      dup1\n      iszero\n      tag_21\n      jumpi\n      0x00\n      dup1\n      revert\n    tag_21:\n      pop\n      tag_22\n      0x04\n      dup1\n      calldatasize\n      sub\n      dup2\n      add\n      swap1\n      tag_23\n      swap2\n      swap1\n      tag_24\n      jump\t// in\n    tag_23:\n      tag_25\n      jump\t// in\n    tag_22:\n      stop\n        /* \"bridges/facets/StargateFacet.sol\":11042:11292  function sgCheckPoolId(... */\n    tag_5:\n      callvalue\n      dup1\n      iszero\n      tag_26\n      jumpi\n      0x00\n      dup1\n      revert\n    tag_26:\n      pop\n      tag_27\n      0x04\n      dup1\n      calldatasize\n      sub\n      dup2\n      add\n      swap1\n      tag_28\n      swap2\n      swap1\n      tag_29\n      jump\t// in\n    tag_28:\n      tag_30\n      jump\t// in\n    tag_27:\n      mload(0x40)\n      tag_31\n      swap2\n      swap1\n      tag_32\n      jump\t// in\n    tag_31:\n      mload(0x40)\n      dup1\n      swap2\n      sub\n      swap1\n      return\n        /* \"bridges/facets/StargateFacet.sol\":8070:8581  function sgCalculateFees(... */\n    tag_6:\n      callvalue\n      dup1\n      iszero\n      tag_33\n      jumpi\n      0x00\n      dup1\n      revert\n    tag_33:\n      pop\n      tag_34\n      0x04\n      dup1\n      calldatasize\n      sub\n      dup2\n      add\n      swap1\n      tag_35\n      swap2\n      swap1\n      tag_36\n      jump\t// in\n    tag_35:\n      tag_37\n      jump\t// in\n    tag_34:\n      mload(0x40)\n      tag_38\n      swap2\n      swap1\n      tag_39\n      jump\t// in\n    tag_38:\n      mload(0x40)\n      dup1\n      swap2\n      sub\n      swap1\n      return\n        /* \"bridges/facets/StargateFacet.sol\":11502:11711  function sgRetrievePoolId(uint16 _chainId, address _token)... */\n    tag_7:\n      callvalue\n      dup1\n      iszero\n      tag_40\n      jumpi\n      0x00\n      dup1\n      revert\n    tag_40:\n      pop\n      tag_41\n      0x04\n      dup1\n      calldatasize\n      sub\n      dup2\n      add\n      swap1\n      tag_42\n      swap2\n      swap1\n      tag_43\n      jump\t// in\n    tag_42:\n      tag_44\n      jump\t// in\n    tag_41:\n      mload(0x40)\n      tag_45\n      swap2\n      swap1\n      tag_46\n      jump\t// in\n    tag_45:\n      mload(0x40)\n      dup1\n      swap2\n      sub\n      swap1\n      return\n        /* \"bridges/facets/StargateFacet.sol\":2773:4087  function sgInitialize(address _stargateRouter, uint16 _chainId) external {... */\n    tag_8:\n      callvalue\n      dup1\n      iszero\n      tag_47\n      jumpi\n      0x00\n      dup1\n      revert\n    tag_47:\n      pop\n      tag_48\n      0x04\n      dup1\n      calldatasize\n      sub\n      dup2\n      add\n      swap1\n      tag_49\n      swap2\n      swap1\n      tag_50\n      jump\t// in\n    tag_49:\n      tag_51\n      jump\t// in\n    tag_48:\n      stop\n        /* \"bridges/facets/StargateFacet.sol\":9042:9357  function sgUpdateRouter(address _newAddress) external {... */\n    tag_9:\n      callvalue\n      dup1\n      iszero\n      tag_52\n      jumpi\n      0x00\n      dup1\n      revert\n    tag_52:\n      pop\n      tag_53\n      0x04\n      dup1\n      calldatasize\n      sub\n      dup2\n      add\n      swap1\n      tag_54\n      swap2\n      swap1\n      tag_55\n      jump\t// in\n    tag_54:\n      tag_56\n      jump\t// in\n    tag_53:\n      stop\n        /* \"bridges/facets/StargateFacet.sol\":8701:8916  function sgMinAmountOut(uint256 _amount) public view returns (uint256) {... */\n    tag_10:\n      callvalue\n      dup1\n      iszero\n      tag_57\n      jumpi\n      0x00\n      dup1\n      revert\n    tag_57:\n      pop\n      tag_58\n      0x04\n      dup1\n      calldatasize\n      sub\n      dup2\n      add\n      swap1\n      tag_59\n      swap2\n      swap1\n      tag_24\n      jump\t// in\n    tag_59:\n      tag_60\n      jump\t// in\n    tag_58:\n      mload(0x40)\n      tag_61\n      swap2\n      swap1\n      tag_39\n      jump\t// in\n    tag_61:\n      mload(0x40)\n      dup1\n      swap2\n      sub\n      swap1\n      return\n        /* \"bridges/facets/StargateFacet.sol\":7346:7869  function sgReceive(... */\n    tag_11:\n      callvalue\n      dup1\n      iszero\n      tag_62\n      jumpi\n      0x00\n      dup1\n      revert\n    tag_62:\n      pop\n      tag_63\n      0x04\n      dup1\n      calldatasize\n      sub\n      dup2\n      add\n      swap1\n      tag_64\n      swap2\n      swap1\n      tag_65\n      jump\t// in\n    tag_64:\n      tag_66\n      jump\t// in\n    tag_63:\n      stop\n        /* \"bridges/facets/StargateFacet.sol\":10474:10773  function sgAddPool(... */\n    tag_12:\n      callvalue\n      dup1\n      iszero\n      tag_67\n      jumpi\n      0x00\n      dup1\n      revert\n    tag_67:\n      pop\n      tag_68\n      0x04\n      dup1\n      calldatasize\n      sub\n      dup2\n      add\n      swap1\n      tag_69\n      swap2\n      swap1\n      tag_29\n      jump\t// in\n    tag_69:\n      tag_70\n      jump\t// in\n    tag_68:\n      stop\n        /* \"bridges/facets/StargateFacet.sol\":9894:10206  function sgWithdraw(... */\n    tag_13:\n      tag_71\n      0x04\n      dup1\n      calldatasize\n      sub\n      dup2\n      add\n      swap1\n      tag_72\n      swap2\n      swap1\n      tag_73\n      jump\t// in\n    tag_72:\n      tag_74\n      jump\t// in\n    tag_71:\n      stop\n        /* \"bridges/facets/StargateFacet.sol\":4242:6929  function sgBridgeTokens(StargateData memory _sgData)... */\n    tag_20:\n        /* \"common/helpers/DiamondReentrancyGuard.sol\":1531:1558  ReentrancyStorage storage s */\n      0x00\n        /* \"common/helpers/DiamondReentrancyGuard.sol\":1561:1580  reentrancyStorage() */\n      tag_76\n        /* \"common/helpers/DiamondReentrancyGuard.sol\":1561:1578  reentrancyStorage */\n      tag_77\n        /* \"common/helpers/DiamondReentrancyGuard.sol\":1561:1580  reentrancyStorage() */\n      jump\t// in\n    tag_76:\n        /* \"common/helpers/DiamondReentrancyGuard.sol\":1531:1580  ReentrancyStorage storage s = reentrancyStorage() */\n      swap1\n      pop\n        /* \"common/helpers/DiamondReentrancyGuard.sol\":1286:1287  1 */\n      0x01\n        /* \"common/helpers/DiamondReentrancyGuard.sol\":1594:1595  s */\n      dup2\n        /* \"common/helpers/DiamondReentrancyGuard.sol\":1594:1602  s.status */\n      0x00\n      add\n      sload\n        /* \"common/helpers/DiamondReentrancyGuard.sol\":1594:1614  s.status == _ENTERED */\n      eq\n        /* \"common/helpers/DiamondReentrancyGuard.sol\":1590:1640  if (s.status == _ENTERED) revert ReentrancyError() */\n      iszero\n      tag_78\n      jumpi\n        /* \"common/helpers/DiamondReentrancyGuard.sol\":1623:1640  ReentrancyError() */\n      mload(0x40)\n      0x29f745a700000000000000000000000000000000000000000000000000000000\n      dup2\n      mstore\n      0x04\n      add\n      mload(0x40)\n      dup1\n      swap2\n      sub\n      swap1\n      revert\n        /* \"common/helpers/DiamondReentrancyGuard.sol\":1590:1640  if (s.status == _ENTERED) revert ReentrancyError() */\n    tag_78:\n        /* \"common/helpers/DiamondReentrancyGuard.sol\":1286:1287  1 */\n      0x01\n        /* \"common/helpers/DiamondReentrancyGuard.sol\":1650:1651  s */\n      dup2\n        /* \"common/helpers/DiamondReentrancyGuard.sol\":1650:1658  s.status */\n      0x00\n      add\n        /* \"common/helpers/DiamondReentrancyGuard.sol\":1650:1669  s.status = _ENTERED */\n      dup2\n      swap1\n      sstore\n      pop\n        /* \"bridges/facets/StargateFacet.sol\":4454:4455  0 */\n      0x00\n        /* \"bridges/facets/StargateFacet.sol\":4439:4446  _sgData */\n      dup3\n        /* \"bridges/facets/StargateFacet.sol\":4439:4450  _sgData.qty */\n      0x00\n      add\n      mload\n        /* \"bridges/facets/StargateFacet.sol\":4439:4455  _sgData.qty <= 0 */\n      gt\n        /* \"bridges/facets/StargateFacet.sol\":4435:4479  if (_sgData.qty <= 0) revert InvalidAmount() */\n      tag_80\n      jumpi\n        /* \"bridges/facets/StargateFacet.sol\":4464:4479  InvalidAmount() */\n      mload(0x40)\n      0x2c5211c600000000000000000000000000000000000000000000000000000000\n      dup2\n      mstore\n      0x04\n      add\n      mload(0x40)\n      dup1\n      swap2\n      sub\n      swap1\n      revert\n        /* \"bridges/facets/StargateFacet.sol\":4435:4479  if (_sgData.qty <= 0) revert InvalidAmount() */\n    tag_80:\n        /* \"bridges/facets/StargateFacet.sol\":4535:4536  0 */\n      0x00\n        /* \"bridges/facets/StargateFacet.sol\":4506:4537  _sgData.fromToken == address(0) */\n      0xffffffffffffffffffffffffffffffffffffffff\n      and\n        /* \"bridges/facets/StargateFacet.sol\":4506:4513  _sgData */\n      dup3\n        /* \"bridges/facets/StargateFacet.sol\":4506:4523  _sgData.fromToken */\n      0x20\n      add\n      mload\n        /* \"bridges/facets/StargateFacet.sol\":4506:4537  _sgData.fromToken == address(0) */\n      0xffffffffffffffffffffffffffffffffffffffff\n      and\n      eq\n        /* \"bridges/facets/StargateFacet.sol\":4506:4582  _sgData.fromToken == address(0) ||... */\n      dup1\n      tag_81\n      jumpi\n      pop\n        /* \"bridges/facets/StargateFacet.sol\":4580:4581  0 */\n      0x00\n        /* \"bridges/facets/StargateFacet.sol\":4553:4582  _sgData.toToken == address(0) */\n      0xffffffffffffffffffffffffffffffffffffffff\n      and\n        /* \"bridges/facets/StargateFacet.sol\":4553:4560  _sgData */\n      dup3\n        /* \"bridges/facets/StargateFacet.sol\":4553:4568  _sgData.toToken */\n      0x40\n      add\n      mload\n        /* \"bridges/facets/StargateFacet.sol\":4553:4582  _sgData.toToken == address(0) */\n      0xffffffffffffffffffffffffffffffffffffffff\n      and\n      eq\n        /* \"bridges/facets/StargateFacet.sol\":4506:4582  _sgData.fromToken == address(0) ||... */\n    tag_81:\n        /* \"bridges/facets/StargateFacet.sol\":4506:4622  _sgData.fromToken == address(0) ||... */\n      dup1\n      tag_82\n      jumpi\n      pop\n        /* \"bridges/facets/StargateFacet.sol\":4620:4621  0 */\n      0x00\n        /* \"bridges/facets/StargateFacet.sol\":4598:4622  _sgData.to == address(0) */\n      0xffffffffffffffffffffffffffffffffffffffff\n      and\n        /* \"bridges/facets/StargateFacet.sol\":4598:4605  _sgData */\n      dup3\n        /* \"bridges/facets/StargateFacet.sol\":4598:4608  _sgData.to */\n      0x80\n      add\n      mload\n        /* \"bridges/facets/StargateFacet.sol\":4598:4622  _sgData.to == address(0) */\n      0xffffffffffffffffffffffffffffffffffffffff\n      and\n      eq\n        /* \"bridges/facets/StargateFacet.sol\":4506:4622  _sgData.fromToken == address(0) ||... */\n    tag_82:\n        /* \"bridges/facets/StargateFacet.sol\":4506:4680  _sgData.fromToken == address(0) ||... */\n      dup1\n      tag_83\n      jumpi\n      pop\n        /* \"bridges/facets/StargateFacet.sol\":4678:4679  0 */\n      0x00\n        /* \"bridges/facets/StargateFacet.sol\":4638:4680  _sgData.destStargateComposed == address(0) */\n      0xffffffffffffffffffffffffffffffffffffffff\n      and\n        /* \"bridges/facets/StargateFacet.sol\":4638:4645  _sgData */\n      dup3\n        /* \"bridges/facets/StargateFacet.sol\":4638:4666  _sgData.destStargateComposed */\n      0xa0\n      add\n      mload\n        /* \"bridges/facets/StargateFacet.sol\":4638:4680  _sgData.destStargateComposed == address(0) */\n      0xffffffffffffffffffffffffffffffffffffffff\n      and\n      eq\n        /* \"bridges/facets/StargateFacet.sol\":4506:4680  _sgData.fromToken == address(0) ||... */\n    tag_83:\n        /* \"bridges/facets/StargateFacet.sol\":4489:4713  if (... */\n      iszero\n      tag_84\n      jumpi\n        /* \"bridges/facets/StargateFacet.sol\":4698:4713  InvalidConfig() */\n      mload(0x40)\n      0x35be3ac800000000000000000000000000000000000000000000000000000000\n      dup2\n      mstore\n      0x04\n      add\n      mload(0x40)\n      dup1\n      swap2\n      sub\n      swap1\n      revert\n        /* \"bridges/facets/StargateFacet.sol\":4489:4713  if (... */\n    tag_84:\n        /* \"bridges/facets/StargateFacet.sol\":4750:4767  Storage storage s */\n      0x00\n        /* \"bridges/facets/StargateFacet.sol\":4770:4782  getStorage() */\n      tag_85\n        /* \"bridges/facets/StargateFacet.sol\":4770:4780  getStorage */\n      tag_86\n        /* \"bridges/facets/StargateFacet.sol\":4770:4782  getStorage() */\n      jump\t// in\n    tag_85:\n        /* \"bridges/facets/StargateFacet.sol\":4750:4782  Storage storage s = getStorage() */\n      swap1\n      pop\n        /* \"bridges/facets/StargateFacet.sol\":4829:4845  uint16 srcPoolId */\n      0x00\n        /* \"bridges/facets/StargateFacet.sol\":4848:4894  sgRetrievePoolId(s.chainId, _sgData.fromToken) */\n      tag_87\n        /* \"bridges/facets/StargateFacet.sol\":4865:4866  s */\n      dup3\n        /* \"bridges/facets/StargateFacet.sol\":4865:4874  s.chainId */\n      0x00\n      add\n      0x14\n      swap1\n      sload\n      swap1\n      0x0100\n      exp\n      swap1\n      div\n      0xffff\n      and\n        /* \"bridges/facets/StargateFacet.sol\":4876:4883  _sgData */\n      dup6\n        /* \"bridges/facets/StargateFacet.sol\":4876:4893  _sgData.fromToken */\n      0x20\n      add\n      mload\n        /* \"bridges/facets/StargateFacet.sol\":4848:4864  sgRetrievePoolId */\n      tag_44\n        /* \"bridges/facets/StargateFacet.sol\":4848:4894  sgRetrievePoolId(s.chainId, _sgData.fromToken) */\n      jump\t// in\n    tag_87:\n        /* \"bridges/facets/StargateFacet.sol\":4829:4894  uint16 srcPoolId = sgRetrievePoolId(s.chainId, _sgData.fromToken) */\n      swap1\n      pop\n        /* \"bridges/facets/StargateFacet.sol\":4921:4922  0 */\n      0x00\n        /* \"bridges/facets/StargateFacet.sol\":4908:4917  srcPoolId */\n      dup2\n        /* \"bridges/facets/StargateFacet.sol\":4908:4922  srcPoolId == 0 */\n      0xffff\n      and\n      eq\n        /* \"bridges/facets/StargateFacet.sol\":4904:4952  if (srcPoolId == 0) revert InvalidSourcePoolId() */\n      iszero\n      tag_88\n      jumpi\n        /* \"bridges/facets/StargateFacet.sol\":4931:4952  InvalidSourcePoolId() */\n      mload(0x40)\n      0x7790ca9900000000000000000000000000000000000000000000000000000000\n      dup2\n      mstore\n      0x04\n      add\n      mload(0x40)\n      dup1\n      swap2\n      sub\n      swap1\n      revert\n        /* \"bridges/facets/StargateFacet.sol\":4904:4952  if (srcPoolId == 0) revert InvalidSourcePoolId() */\n    tag_88:\n        /* \"bridges/facets/StargateFacet.sol\":4962:4978  uint16 dstPoolId */\n      0x00\n        /* \"bridges/facets/StargateFacet.sol\":4981:5068  sgRetrievePoolId(... */\n      tag_89\n        /* \"bridges/facets/StargateFacet.sol\":5011:5018  _sgData */\n      dup6\n        /* \"bridges/facets/StargateFacet.sol\":5011:5029  _sgData.dstChainId */\n      0x60\n      add\n      mload\n        /* \"bridges/facets/StargateFacet.sol\":5043:5050  _sgData */\n      dup7\n        /* \"bridges/facets/StargateFacet.sol\":5043:5058  _sgData.toToken */\n      0x40\n      add\n      mload\n        /* \"bridges/facets/StargateFacet.sol\":4981:4997  sgRetrievePoolId */\n      tag_44\n        /* \"bridges/facets/StargateFacet.sol\":4981:5068  sgRetrievePoolId(... */\n      jump\t// in\n    tag_89:\n        /* \"bridges/facets/StargateFacet.sol\":4962:5068  uint16 dstPoolId = sgRetrievePoolId(... */\n      swap1\n      pop\n        /* \"bridges/facets/StargateFacet.sol\":5117:5129  uint256 fees */\n      0x00\n        /* \"bridges/facets/StargateFacet.sol\":5132:5243  sgCalculateFees(... */\n      tag_90\n        /* \"bridges/facets/StargateFacet.sol\":5161:5168  _sgData */\n      dup7\n        /* \"bridges/facets/StargateFacet.sol\":5161:5179  _sgData.dstChainId */\n      0x60\n      add\n      mload\n        /* \"bridges/facets/StargateFacet.sol\":5193:5200  _sgData */\n      dup8\n        /* \"bridges/facets/StargateFacet.sol\":5193:5203  _sgData.to */\n      0x80\n      add\n      mload\n        /* \"bridges/facets/StargateFacet.sol\":5217:5218  s */\n      dup7\n        /* \"bridges/facets/StargateFacet.sol\":5217:5233  s.stargateRouter */\n      0x00\n      add\n      0x00\n      swap1\n      sload\n      swap1\n      0x0100\n      exp\n      swap1\n      div\n      0xffffffffffffffffffffffffffffffffffffffff\n      and\n        /* \"bridges/facets/StargateFacet.sol\":5132:5147  sgCalculateFees */\n      tag_37\n        /* \"bridges/facets/StargateFacet.sol\":5132:5243  sgCalculateFees(... */\n      jump\t// in\n    tag_90:\n        /* \"bridges/facets/StargateFacet.sol\":5117:5243  uint256 fees = sgCalculateFees(... */\n      swap1\n      pop\n        /* \"bridges/facets/StargateFacet.sol\":5284:5304  uint256 minAmountOut */\n      0x00\n        /* \"bridges/facets/StargateFacet.sol\":5307:5334  sgMinAmountOut(_sgData.qty) */\n      tag_91\n        /* \"bridges/facets/StargateFacet.sol\":5322:5329  _sgData */\n      dup8\n        /* \"bridges/facets/StargateFacet.sol\":5322:5333  _sgData.qty */\n      0x00\n      add\n      mload\n        /* \"bridges/facets/StargateFacet.sol\":5307:5321  sgMinAmountOut */\n      tag_60\n        /* \"bridges/facets/StargateFacet.sol\":5307:5334  sgMinAmountOut(_sgData.qty) */\n      jump\t// in\n    tag_91:\n        /* \"bridges/facets/StargateFacet.sol\":5284:5334  uint256 minAmountOut = sgMinAmountOut(_sgData.qty) */\n      swap1\n      pop\n        /* \"bridges/facets/StargateFacet.sol\":5385:5409  bytes memory destination */\n      0x00\n        /* \"bridges/facets/StargateFacet.sol\":5442:5449  _sgData */\n      dup8\n        /* \"bridges/facets/StargateFacet.sol\":5442:5470  _sgData.destStargateComposed */\n      0xa0\n      add\n      mload\n        /* \"bridges/facets/StargateFacet.sol\":5412:5480  abi.encodePacked(... */\n      add(0x20, mload(0x40))\n      tag_92\n      swap2\n      swap1\n      tag_93\n      jump\t// in\n    tag_92:\n      mload(0x40)\n      0x20\n      dup2\n      dup4\n      sub\n      sub\n      dup2\n      mstore\n      swap1\n      0x40\n      mstore\n        /* \"bridges/facets/StargateFacet.sol\":5385:5480  bytes memory destination = abi.encodePacked(... */\n      swap1\n      pop\n        /* \"bridges/facets/StargateFacet.sol\":5593:5613  bytes memory payload */\n      0x00\n        /* \"bridges/facets/StargateFacet.sol\":5627:5634  _sgData */\n      dup9\n        /* \"bridges/facets/StargateFacet.sol\":5627:5637  _sgData.to */\n      0x80\n      add\n      mload\n        /* \"bridges/facets/StargateFacet.sol\":5616:5638  abi.encode(_sgData.to) */\n      add(0x20, mload(0x40))\n      tag_94\n      swap2\n      swap1\n      tag_95\n      jump\t// in\n    tag_94:\n      mload(0x40)\n      0x20\n      dup2\n      dup4\n      sub\n      sub\n      dup2\n      mstore\n      swap1\n      0x40\n      mstore\n        /* \"bridges/facets/StargateFacet.sol\":5593:5638  bytes memory payload = abi.encode(_sgData.to) */\n      swap1\n      pop\n        /* \"bridges/facets/StargateFacet.sol\":5696:5824  IERC20(_sgData.fromToken).safeTransferFrom(... */\n      tag_96\n        /* \"bridges/facets/StargateFacet.sol\":5752:5762  msg.sender */\n      caller\n        /* \"bridges/facets/StargateFacet.sol\":5784:5788  this */\n      address\n        /* \"bridges/facets/StargateFacet.sol\":5803:5810  _sgData */\n      dup12\n        /* \"bridges/facets/StargateFacet.sol\":5803:5814  _sgData.qty */\n      0x00\n      add\n      mload\n        /* \"bridges/facets/StargateFacet.sol\":5703:5710  _sgData */\n      dup13\n        /* \"bridges/facets/StargateFacet.sol\":5703:5720  _sgData.fromToken */\n      0x20\n      add\n      mload\n        /* \"bridges/facets/StargateFacet.sol\":5696:5738  IERC20(_sgData.fromToken).safeTransferFrom */\n      0xffffffffffffffffffffffffffffffffffffffff\n      and\n      tag_97\n      swap1\n        /* \"bridges/facets/StargateFacet.sol\":5696:5824  IERC20(_sgData.fromToken).safeTransferFrom(... */\n      swap4\n      swap3\n      swap2\n      swap1\n      0xffffffff\n      and\n      jump\t// in\n    tag_96:\n        /* \"bridges/facets/StargateFacet.sol\":5835:5946  IERC20(_sgData.fromToken).safeApprove(... */\n      tag_98\n        /* \"bridges/facets/StargateFacet.sol\":5894:5895  s */\n      dup8\n        /* \"bridges/facets/StargateFacet.sol\":5894:5910  s.stargateRouter */\n      0x00\n      add\n      0x00\n      swap1\n      sload\n      swap1\n      0x0100\n      exp\n      swap1\n      div\n      0xffffffffffffffffffffffffffffffffffffffff\n      and\n        /* \"bridges/facets/StargateFacet.sol\":5925:5932  _sgData */\n      dup11\n        /* \"bridges/facets/StargateFacet.sol\":5925:5936  _sgData.qty */\n      0x00\n      add\n      mload\n        /* \"bridges/facets/StargateFacet.sol\":5842:5849  _sgData */\n      dup12\n        /* \"bridges/facets/StargateFacet.sol\":5842:5859  _sgData.fromToken */\n      0x20\n      add\n      mload\n        /* \"bridges/facets/StargateFacet.sol\":5835:5872  IERC20(_sgData.fromToken).safeApprove */\n      0xffffffffffffffffffffffffffffffffffffffff\n      and\n      tag_99\n      swap1\n        /* \"bridges/facets/StargateFacet.sol\":5835:5946  IERC20(_sgData.fromToken).safeApprove(... */\n      swap3\n      swap2\n      swap1\n      0xffffffff\n      and\n      jump\t// in\n    tag_98:\n        /* \"bridges/facets/StargateFacet.sol\":6061:6062  s */\n      dup7\n        /* \"bridges/facets/StargateFacet.sol\":6061:6077  s.stargateRouter */\n      0x00\n      add\n      0x00\n      swap1\n      sload\n      swap1\n      0x0100\n      exp\n      swap1\n      div\n      0xffffffffffffffffffffffffffffffffffffffff\n      and\n        /* \"bridges/facets/StargateFacet.sol\":6045:6083  IStargateRouter(s.stargateRouter).swap */\n      0xffffffffffffffffffffffffffffffffffffffff\n      and\n      0x9fbf10fc\n        /* \"bridges/facets/StargateFacet.sol\":6091:6095  fees */\n      dup6\n        /* \"bridges/facets/StargateFacet.sol\":6110:6117  _sgData */\n      dup12\n        /* \"bridges/facets/StargateFacet.sol\":6110:6128  _sgData.dstChainId */\n      0x60\n      add\n      mload\n        /* \"bridges/facets/StargateFacet.sol\":6170:6179  srcPoolId */\n      dup10\n        /* \"bridges/facets/StargateFacet.sol\":6223:6232  dstPoolId */\n      dup10\n        /* \"bridges/facets/StargateFacet.sol\":6289:6299  msg.sender */\n      caller\n        /* \"bridges/facets/StargateFacet.sol\":6384:6391  _sgData */\n      dup16\n        /* \"bridges/facets/StargateFacet.sol\":6384:6395  _sgData.qty */\n      0x00\n      add\n      mload\n        /* \"bridges/facets/StargateFacet.sol\":6454:6466  minAmountOut */\n      dup11\n        /* \"bridges/facets/StargateFacet.sol\":6506:6546  IStargateRouter.lzTxObj(200000, 0, \"0x\") */\n      mload(0x40)\n      dup1\n      0x60\n      add\n      0x40\n      mstore\n      dup1\n        /* \"bridges/facets/StargateFacet.sol\":6530:6536  200000 */\n      0x030d40\n        /* \"bridges/facets/StargateFacet.sol\":6506:6546  IStargateRouter.lzTxObj(200000, 0, \"0x\") */\n      dup2\n      mstore\n      0x20\n      add\n        /* \"bridges/facets/StargateFacet.sol\":6538:6539  0 */\n      0x00\n        /* \"bridges/facets/StargateFacet.sol\":6506:6546  IStargateRouter.lzTxObj(200000, 0, \"0x\") */\n      dup2\n      mstore\n      0x20\n      add\n      mload(0x40)\n      dup1\n      0x40\n      add\n      0x40\n      mstore\n      dup1\n      0x02\n      dup2\n      mstore\n      0x20\n      add\n      0x3078000000000000000000000000000000000000000000000000000000000000\n      dup2\n      mstore\n      pop\n      dup2\n      mstore\n      pop\n        /* \"bridges/facets/StargateFacet.sol\":6579:6590  destination */\n      dup12\n        /* \"bridges/facets/StargateFacet.sol\":6656:6663  payload */\n      dup12\n        /* \"bridges/facets/StargateFacet.sol\":6045:6690  IStargateRouter(s.stargateRouter).swap{value: fees}(... */\n      mload(0x40)\n      dup12\n      0xffffffff\n      and\n      0xe0\n      shl\n      dup2\n      mstore\n      0x04\n      add\n      tag_100\n      swap10\n      swap9\n      swap8\n      swap7\n      swap6\n      swap5\n      swap4\n      swap3\n      swap2\n      swap1\n      tag_101\n      jump\t// in\n    tag_100:\n      0x00\n      mload(0x40)\n      dup1\n      dup4\n      sub\n      dup2\n      dup6\n      dup9\n      dup1\n      extcodesize\n      iszero\n      dup1\n      iszero\n      tag_102\n      jumpi\n      0x00\n      dup1\n      revert\n    tag_102:\n      pop\n      gas\n      call\n      iszero\n      dup1\n      iszero\n      tag_104\n      jumpi\n      returndatasize\n      0x00\n      dup1\n      returndatacopy\n      revert(0x00, returndatasize)\n    tag_104:\n      pop\n      pop\n      pop\n      pop\n      pop\n        /* \"bridges/facets/StargateFacet.sol\":6706:6922  SGTransferStarted(... */\n      0x7a72e6f4a3d77f8a5a6c536a973421c5bf00107f9aec7995661537673b8be087\n        /* \"bridges/facets/StargateFacet.sol\":6761:6768  _sgData */\n      dup10\n        /* \"bridges/facets/StargateFacet.sol\":6761:6778  _sgData.fromToken */\n      0x20\n      add\n      mload\n        /* \"bridges/facets/StargateFacet.sol\":6792:6799  _sgData */\n      dup11\n        /* \"bridges/facets/StargateFacet.sol\":6792:6807  _sgData.toToken */\n      0x40\n      add\n      mload\n        /* \"bridges/facets/StargateFacet.sol\":6821:6831  msg.sender */\n      caller\n        /* \"bridges/facets/StargateFacet.sol\":6845:6852  _sgData */\n      dup13\n        /* \"bridges/facets/StargateFacet.sol\":6845:6855  _sgData.to */\n      0x80\n      add\n      mload\n        /* \"bridges/facets/StargateFacet.sol\":6869:6876  _sgData */\n      dup14\n        /* \"bridges/facets/StargateFacet.sol\":6869:6880  _sgData.qty */\n      0x00\n      add\n      mload\n        /* \"bridges/facets/StargateFacet.sol\":6894:6901  _sgData */\n      dup15\n        /* \"bridges/facets/StargateFacet.sol\":6894:6912  _sgData.dstChainId */\n      0x60\n      add\n      mload\n        /* \"bridges/facets/StargateFacet.sol\":6706:6922  SGTransferStarted(... */\n      mload(0x40)\n      tag_105\n      swap7\n      swap6\n      swap5\n      swap4\n      swap3\n      swap2\n      swap1\n      tag_106\n      jump\t// in\n    tag_105:\n      mload(0x40)\n      dup1\n      swap2\n      sub\n      swap1\n      log1\n        /* \"common/helpers/DiamondReentrancyGuard.sol\":1679:1680  _ */\n      pop\n      pop\n      pop\n      pop\n      pop\n      pop\n      pop\n        /* \"common/helpers/DiamondReentrancyGuard.sol\":1243:1244  0 */\n      0x00\n        /* \"common/helpers/DiamondReentrancyGuard.sol\":1690:1691  s */\n      dup2\n        /* \"common/helpers/DiamondReentrancyGuard.sol\":1690:1698  s.status */\n      0x00\n      add\n        /* \"common/helpers/DiamondReentrancyGuard.sol\":1690:1713  s.status = _NOT_ENTERED */\n      dup2\n      swap1\n      sstore\n      pop\n        /* \"bridges/facets/StargateFacet.sol\":4242:6929  function sgBridgeTokens(StargateData memory _sgData)... */\n      pop\n      pop\n      jump\t// out\n        /* \"bridges/facets/StargateFacet.sol\":9461:9711  function sgUpdateSlippageTolerance(uint256 _newSlippage) external {... */\n    tag_25:\n        /* \"bridges/facets/StargateFacet.sol\":9537:9572  LibDiamond.enforceIsContractOwner() */\n      tag_108\n        /* \"bridges/facets/StargateFacet.sol\":9537:9570  LibDiamond.enforceIsContractOwner */\n      tag_109\n        /* \"bridges/facets/StargateFacet.sol\":9537:9572  LibDiamond.enforceIsContractOwner() */\n      jump\t// in\n    tag_108:\n        /* \"bridges/facets/StargateFacet.sol\":9582:9599  Storage storage s */\n      0x00\n        /* \"bridges/facets/StargateFacet.sol\":9602:9614  getStorage() */\n      tag_110\n        /* \"bridges/facets/StargateFacet.sol\":9602:9612  getStorage */\n      tag_86\n        /* \"bridges/facets/StargateFacet.sol\":9602:9614  getStorage() */\n      jump\t// in\n    tag_110:\n        /* \"bridges/facets/StargateFacet.sol\":9582:9614  Storage storage s = getStorage() */\n      swap1\n      pop\n        /* \"bridges/facets/StargateFacet.sol\":9637:9649  _newSlippage */\n      dup2\n        /* \"bridges/facets/StargateFacet.sol\":9624:9625  s */\n      dup2\n        /* \"bridges/facets/StargateFacet.sol\":9624:9634  s.slippage */\n      0x02\n      add\n        /* \"bridges/facets/StargateFacet.sol\":9624:9649  s.slippage = _newSlippage */\n      dup2\n      swap1\n      sstore\n      pop\n        /* \"bridges/facets/StargateFacet.sol\":9664:9704  SGUpdatedSlippageTolerance(_newSlippage) */\n      0x45934903f6b10aff9d3435b8362d284d95d14ca68e8554f05f04c7856a6003c0\n        /* \"bridges/facets/StargateFacet.sol\":9691:9703  _newSlippage */\n      dup3\n        /* \"bridges/facets/StargateFacet.sol\":9664:9704  SGUpdatedSlippageTolerance(_newSlippage) */\n      mload(0x40)\n      tag_111\n      swap2\n      swap1\n      tag_39\n      jump\t// in\n    tag_111:\n      mload(0x40)\n      dup1\n      swap2\n      sub\n      swap1\n      log1\n        /* \"bridges/facets/StargateFacet.sol\":9461:9711  function sgUpdateSlippageTolerance(uint256 _newSlippage) external {... */\n      pop\n      pop\n      jump\t// out\n        /* \"bridges/facets/StargateFacet.sol\":11042:11292  function sgCheckPoolId(... */\n    tag_30:\n        /* \"bridges/facets/StargateFacet.sol\":11167:11171  bool */\n      0x00\n        /* \"bridges/facets/StargateFacet.sol\":11183:11200  Storage storage s */\n      dup1\n        /* \"bridges/facets/StargateFacet.sol\":11203:11215  getStorage() */\n      tag_113\n        /* \"bridges/facets/StargateFacet.sol\":11203:11213  getStorage */\n      tag_86\n        /* \"bridges/facets/StargateFacet.sol\":11203:11215  getStorage() */\n      jump\t// in\n    tag_113:\n        /* \"bridges/facets/StargateFacet.sol\":11183:11215  Storage storage s = getStorage() */\n      swap1\n      pop\n        /* \"bridges/facets/StargateFacet.sol\":11263:11270  _poolId */\n      dup3\n        /* \"bridges/facets/StargateFacet.sol\":11232:11270  s.poolIds[_chainId][_token] == _poolId */\n      0xffff\n      and\n        /* \"bridges/facets/StargateFacet.sol\":11232:11233  s */\n      dup2\n        /* \"bridges/facets/StargateFacet.sol\":11232:11241  s.poolIds */\n      0x03\n      add\n        /* \"bridges/facets/StargateFacet.sol\":11232:11251  s.poolIds[_chainId] */\n      0x00\n        /* \"bridges/facets/StargateFacet.sol\":11242:11250  _chainId */\n      dup8\n        /* \"bridges/facets/StargateFacet.sol\":11232:11251  s.poolIds[_chainId] */\n      0xffff\n      and\n      0xffff\n      and\n      dup2\n      mstore\n      0x20\n      add\n      swap1\n      dup2\n      mstore\n      0x20\n      add\n      0x00\n      keccak256\n        /* \"bridges/facets/StargateFacet.sol\":11232:11259  s.poolIds[_chainId][_token] */\n      0x00\n        /* \"bridges/facets/StargateFacet.sol\":11252:11258  _token */\n      dup7\n        /* \"bridges/facets/StargateFacet.sol\":11232:11259  s.poolIds[_chainId][_token] */\n      0xffffffffffffffffffffffffffffffffffffffff\n      and\n      0xffffffffffffffffffffffffffffffffffffffff\n      and\n      dup2\n      mstore\n      0x20\n      add\n      swap1\n      dup2\n      mstore\n      0x20\n      add\n      0x00\n      keccak256\n      0x00\n      swap1\n      sload\n      swap1\n      0x0100\n      exp\n      swap1\n      div\n      0xffff\n      and\n        /* \"bridges/facets/StargateFacet.sol\":11232:11270  s.poolIds[_chainId][_token] == _poolId */\n      0xffff\n      and\n      eq\n        /* \"bridges/facets/StargateFacet.sol\":11232:11285  s.poolIds[_chainId][_token] == _poolId ? true : false */\n      tag_114\n      jumpi\n        /* \"bridges/facets/StargateFacet.sol\":11280:11285  false */\n      0x00\n        /* \"bridges/facets/StargateFacet.sol\":11232:11285  s.poolIds[_chainId][_token] == _poolId ? true : false */\n      jump(tag_115)\n    tag_114:\n        /* \"bridges/facets/StargateFacet.sol\":11273:11277  true */\n      0x01\n        /* \"bridges/facets/StargateFacet.sol\":11232:11285  s.poolIds[_chainId][_token] == _poolId ? true : false */\n    tag_115:\n        /* \"bridges/facets/StargateFacet.sol\":11225:11285  return s.poolIds[_chainId][_token] == _poolId ? true : false */\n      swap2\n      pop\n      pop\n        /* \"bridges/facets/StargateFacet.sol\":11042:11292  function sgCheckPoolId(... */\n      swap4\n      swap3\n      pop\n      pop\n      pop\n      jump\t// out\n        /* \"bridges/facets/StargateFacet.sol\":8070:8581  function sgCalculateFees(... */\n    tag_37:\n        /* \"bridges/facets/StargateFacet.sol\":8201:8208  uint256 */\n      0x00\n        /* \"bridges/facets/StargateFacet.sol\":8221:8238  uint256 nativeFee */\n      dup1\n        /* \"bridges/facets/StargateFacet.sol\":8260:8267  _router */\n      dup3\n        /* \"bridges/facets/StargateFacet.sol\":8244:8286  IStargateRouter(_router).quoteLayerZeroFee */\n      0xffffffffffffffffffffffffffffffffffffffff\n      and\n      0x0a512369\n        /* \"bridges/facets/StargateFacet.sol\":8300:8310  _destChain */\n      dup7\n        /* \"bridges/facets/StargateFacet.sol\":8348:8349  1 */\n      0x01\n        /* \"bridges/facets/StargateFacet.sol\":8392:8401  _receiver */\n      dup8\n        /* \"bridges/facets/StargateFacet.sol\":8375:8402  abi.encodePacked(_receiver) */\n      add(0x20, mload(0x40))\n      tag_117\n      swap2\n      swap1\n      tag_93\n      jump\t// in\n    tag_117:\n      mload(0x40)\n      0x20\n      dup2\n      dup4\n      sub\n      sub\n      dup2\n      mstore\n      swap1\n      0x40\n      mstore\n        /* \"bridges/facets/StargateFacet.sol\":8498:8538  IStargateRouter.lzTxObj(200000, 0, \"0x\") */\n      mload(0x40)\n      dup1\n      0x60\n      add\n      0x40\n      mstore\n      dup1\n        /* \"bridges/facets/StargateFacet.sol\":8522:8528  200000 */\n      0x030d40\n        /* \"bridges/facets/StargateFacet.sol\":8498:8538  IStargateRouter.lzTxObj(200000, 0, \"0x\") */\n      dup2\n      mstore\n      0x20\n      add\n        /* \"bridges/facets/StargateFacet.sol\":8530:8531  0 */\n      0x00\n        /* \"bridges/facets/StargateFacet.sol\":8498:8538  IStargateRouter.lzTxObj(200000, 0, \"0x\") */\n      dup2\n      mstore\n      0x20\n      add\n      mload(0x40)\n      dup1\n      0x40\n      add\n      0x40\n      mstore\n      dup1\n      0x02\n      dup2\n      mstore\n      0x20\n      add\n      0x3078000000000000000000000000000000000000000000000000000000000000\n      dup2\n      mstore\n      pop\n      dup2\n      mstore\n      pop\n        /* \"bridges/facets/StargateFacet.sol\":8244:8548  IStargateRouter(_router).quoteLayerZeroFee(... */\n      mload(0x40)\n      dup6\n      0xffffffff\n      and\n      0xe0\n      shl\n      dup2\n      mstore\n      0x04\n      add\n      tag_118\n      swap5\n      swap4\n      swap3\n      swap2\n      swap1\n      tag_119\n      jump\t// in\n    tag_118:\n      0x40\n      dup1\n      mload\n      dup1\n      dup4\n      sub\n      dup2\n      dup7\n      dup1\n      extcodesize\n      iszero\n      dup1\n      iszero\n      tag_120\n      jumpi\n      0x00\n      dup1\n      revert\n    tag_120:\n      pop\n      gas\n      staticcall\n      iszero\n      dup1\n      iszero\n      tag_122\n      jumpi\n      returndatasize\n      0x00\n      dup1\n      returndatacopy\n      revert(0x00, returndatasize)\n    tag_122:\n      pop\n      pop\n      pop\n      pop\n      mload(0x40)\n      returndatasize\n      not(0x1f)\n      0x1f\n      dup3\n      add\n      and\n      dup3\n      add\n      dup1\n      0x40\n      mstore\n      pop\n      dup2\n      add\n      swap1\n      tag_123\n      swap2\n      swap1\n      tag_124\n      jump\t// in\n    tag_123:\n        /* \"bridges/facets/StargateFacet.sol\":8220:8548  (uint256 nativeFee, ) = IStargateRouter(_router).quoteLayerZeroFee(... */\n      pop\n      swap1\n      pop\n        /* \"bridges/facets/StargateFacet.sol\":8565:8574  nativeFee */\n      dup1\n        /* \"bridges/facets/StargateFacet.sol\":8558:8574  return nativeFee */\n      swap2\n      pop\n      pop\n        /* \"bridges/facets/StargateFacet.sol\":8070:8581  function sgCalculateFees(... */\n      swap4\n      swap3\n      pop\n      pop\n      pop\n      jump\t// out\n        /* \"bridges/facets/StargateFacet.sol\":11502:11711  function sgRetrievePoolId(uint16 _chainId, address _token)... */\n    tag_44:\n        /* \"bridges/facets/StargateFacet.sol\":11606:11612  uint16 */\n      0x00\n        /* \"bridges/facets/StargateFacet.sol\":11628:11645  Storage storage s */\n      dup1\n        /* \"bridges/facets/StargateFacet.sol\":11648:11660  getStorage() */\n      tag_126\n        /* \"bridges/facets/StargateFacet.sol\":11648:11658  getStorage */\n      tag_86\n        /* \"bridges/facets/StargateFacet.sol\":11648:11660  getStorage() */\n      jump\t// in\n    tag_126:\n        /* \"bridges/facets/StargateFacet.sol\":11628:11660  Storage storage s = getStorage() */\n      swap1\n      pop\n        /* \"bridges/facets/StargateFacet.sol\":11677:11678  s */\n      dup1\n        /* \"bridges/facets/StargateFacet.sol\":11677:11686  s.poolIds */\n      0x03\n      add\n        /* \"bridges/facets/StargateFacet.sol\":11677:11696  s.poolIds[_chainId] */\n      0x00\n        /* \"bridges/facets/StargateFacet.sol\":11687:11695  _chainId */\n      dup6\n        /* \"bridges/facets/StargateFacet.sol\":11677:11696  s.poolIds[_chainId] */\n      0xffff\n      and\n      0xffff\n      and\n      dup2\n      mstore\n      0x20\n      add\n      swap1\n      dup2\n      mstore\n      0x20\n      add\n      0x00\n      keccak256\n        /* \"bridges/facets/StargateFacet.sol\":11677:11704  s.poolIds[_chainId][_token] */\n      0x00\n        /* \"bridges/facets/StargateFacet.sol\":11697:11703  _token */\n      dup5\n        /* \"bridges/facets/StargateFacet.sol\":11677:11704  s.poolIds[_chainId][_token] */\n      0xffffffffffffffffffffffffffffffffffffffff\n      and\n      0xffffffffffffffffffffffffffffffffffffffff\n      and\n      dup2\n      mstore\n      0x20\n      add\n      swap1\n      dup2\n      mstore\n      0x20\n      add\n      0x00\n      keccak256\n      0x00\n      swap1\n      sload\n      swap1\n      0x0100\n      exp\n      swap1\n      div\n      0xffff\n      and\n        /* \"bridges/facets/StargateFacet.sol\":11670:11704  return s.poolIds[_chainId][_token] */\n      swap2\n      pop\n      pop\n        /* \"bridges/facets/StargateFacet.sol\":11502:11711  function sgRetrievePoolId(uint16 _chainId, address _token)... */\n      swap3\n      swap2\n      pop\n      pop\n      jump\t// out\n        /* \"bridges/facets/StargateFacet.sol\":2773:4087  function sgInitialize(address _stargateRouter, uint16 _chainId) external {... */\n    tag_51:\n        /* \"bridges/facets/StargateFacet.sol\":2887:2888  0 */\n      0x00\n        /* \"bridges/facets/StargateFacet.sol\":2860:2889  _stargateRouter == address(0) */\n      0xffffffffffffffffffffffffffffffffffffffff\n      and\n        /* \"bridges/facets/StargateFacet.sol\":2860:2875  _stargateRouter */\n      dup3\n        /* \"bridges/facets/StargateFacet.sol\":2860:2889  _stargateRouter == address(0) */\n      0xffffffffffffffffffffffffffffffffffffffff\n      and\n      eq\n        /* \"bridges/facets/StargateFacet.sol\":2856:2913  if (_stargateRouter == address(0)) revert InvalidConfig() */\n      iszero\n      tag_128\n      jumpi\n        /* \"bridges/facets/StargateFacet.sol\":2898:2913  InvalidConfig() */\n      mload(0x40)\n      0x35be3ac800000000000000000000000000000000000000000000000000000000\n      dup2\n      mstore\n      0x04\n      add\n      mload(0x40)\n      dup1\n      swap2\n      sub\n      swap1\n      revert\n        /* \"bridges/facets/StargateFacet.sol\":2856:2913  if (_stargateRouter == address(0)) revert InvalidConfig() */\n    tag_128:\n        /* \"bridges/facets/StargateFacet.sol\":2923:2958  LibDiamond.enforceIsContractOwner() */\n      tag_129\n        /* \"bridges/facets/StargateFacet.sol\":2923:2956  LibDiamond.enforceIsContractOwner */\n      tag_109\n        /* \"bridges/facets/StargateFacet.sol\":2923:2958  LibDiamond.enforceIsContractOwner() */\n      jump\t// in\n    tag_129:\n        /* \"bridges/facets/StargateFacet.sol\":2968:2985  Storage storage s */\n      0x00\n        /* \"bridges/facets/StargateFacet.sol\":2988:3000  getStorage() */\n      tag_130\n        /* \"bridges/facets/StargateFacet.sol\":2988:2998  getStorage */\n      tag_86\n        /* \"bridges/facets/StargateFacet.sol\":2988:3000  getStorage() */\n      jump\t// in\n    tag_130:\n        /* \"bridges/facets/StargateFacet.sol\":2968:3000  Storage storage s = getStorage() */\n      swap1\n      pop\n        /* \"bridges/facets/StargateFacet.sol\":3037:3052  _stargateRouter */\n      dup3\n        /* \"bridges/facets/StargateFacet.sol\":3010:3011  s */\n      dup2\n        /* \"bridges/facets/StargateFacet.sol\":3010:3026  s.stargateRouter */\n      0x00\n      add\n      0x00\n        /* \"bridges/facets/StargateFacet.sol\":3010:3053  s.stargateRouter = address(_stargateRouter) */\n      0x0100\n      exp\n      dup2\n      sload\n      dup2\n      0xffffffffffffffffffffffffffffffffffffffff\n      mul\n      not\n      and\n      swap1\n      dup4\n      0xffffffffffffffffffffffffffffffffffffffff\n      and\n      mul\n      or\n      swap1\n      sstore\n      pop\n        /* \"bridges/facets/StargateFacet.sol\":3075:3083  _chainId */\n      dup2\n        /* \"bridges/facets/StargateFacet.sol\":3063:3064  s */\n      dup2\n        /* \"bridges/facets/StargateFacet.sol\":3063:3072  s.chainId */\n      0x00\n      add\n      0x14\n        /* \"bridges/facets/StargateFacet.sol\":3063:3083  s.chainId = _chainId */\n      0x0100\n      exp\n      dup2\n      sload\n      dup2\n      0xffff\n      mul\n      not\n      and\n      swap1\n      dup4\n      0xffff\n      and\n      mul\n      or\n      swap1\n      sstore\n      pop\n        /* \"bridges/facets/StargateFacet.sol\":3106:3108  50 */\n      0x32\n        /* \"bridges/facets/StargateFacet.sol\":3093:3094  s */\n      dup2\n        /* \"bridges/facets/StargateFacet.sol\":3093:3103  s.slippage */\n      0x02\n      add\n        /* \"bridges/facets/StargateFacet.sol\":3093:3108  s.slippage = 50 */\n      dup2\n      swap1\n      sstore\n      pop\n        /* \"bridges/facets/StargateFacet.sol\":3203:3262  sgAddPool(1, 0xA0b86991c6218b36c1d19D4a2e9Eb0cE3606eB48, 1) */\n      tag_131\n        /* \"bridges/facets/StargateFacet.sol\":3213:3214  1 */\n      0x01\n        /* \"bridges/facets/StargateFacet.sol\":3216:3258  0xA0b86991c6218b36c1d19D4a2e9Eb0cE3606eB48 */\n      0xa0b86991c6218b36c1d19d4a2e9eb0ce3606eb48\n        /* \"bridges/facets/StargateFacet.sol\":3260:3261  1 */\n      0x01\n        /* \"bridges/facets/StargateFacet.sol\":3203:3212  sgAddPool */\n      tag_70\n        /* \"bridges/facets/StargateFacet.sol\":3203:3262  sgAddPool(1, 0xA0b86991c6218b36c1d19D4a2e9Eb0cE3606eB48, 1) */\n      jump\t// in\n    tag_131:\n        /* \"bridges/facets/StargateFacet.sol\":3272:3331  sgAddPool(1, 0xdAC17F958D2ee523a2206206994597C13D831ec7, 2) */\n      tag_132\n        /* \"bridges/facets/StargateFacet.sol\":3282:3283  1 */\n      0x01\n        /* \"bridges/facets/StargateFacet.sol\":3285:3327  0xdAC17F958D2ee523a2206206994597C13D831ec7 */\n      0xdac17f958d2ee523a2206206994597c13d831ec7\n        /* \"bridges/facets/StargateFacet.sol\":3329:3330  2 */\n      0x02\n        /* \"bridges/facets/StargateFacet.sol\":3272:3281  sgAddPool */\n      tag_70\n        /* \"bridges/facets/StargateFacet.sol\":3272:3331  sgAddPool(1, 0xdAC17F958D2ee523a2206206994597C13D831ec7, 2) */\n      jump\t// in\n    tag_132:\n        /* \"bridges/facets/StargateFacet.sol\":3341:3400  sgAddPool(2, 0x55d398326f99059fF775485246999027B3197955, 2) */\n      tag_133\n        /* \"bridges/facets/StargateFacet.sol\":3351:3352  2 */\n      0x02\n        /* \"bridges/facets/StargateFacet.sol\":3354:3396  0x55d398326f99059fF775485246999027B3197955 */\n      0x55d398326f99059ff775485246999027b3197955\n        /* \"bridges/facets/StargateFacet.sol\":3398:3399  2 */\n      0x02\n        /* \"bridges/facets/StargateFacet.sol\":3341:3350  sgAddPool */\n      tag_70\n        /* \"bridges/facets/StargateFacet.sol\":3341:3400  sgAddPool(2, 0x55d398326f99059fF775485246999027B3197955, 2) */\n      jump\t// in\n    tag_133:\n        /* \"bridges/facets/StargateFacet.sol\":3410:3469  sgAddPool(2, 0xe9e7CEA3DedcA5984780Bafc599bD69ADd087D56, 5) */\n      tag_134\n        /* \"bridges/facets/StargateFacet.sol\":3420:3421  2 */\n      0x02\n        /* \"bridges/facets/StargateFacet.sol\":3423:3465  0xe9e7CEA3DedcA5984780Bafc599bD69ADd087D56 */\n      0xe9e7cea3dedca5984780bafc599bd69add087d56\n        /* \"bridges/facets/StargateFacet.sol\":3467:3468  5 */\n      0x05\n        /* \"bridges/facets/StargateFacet.sol\":3410:3419  sgAddPool */\n      tag_70\n        /* \"bridges/facets/StargateFacet.sol\":3410:3469  sgAddPool(2, 0xe9e7CEA3DedcA5984780Bafc599bD69ADd087D56, 5) */\n      jump\t// in\n    tag_134:\n        /* \"bridges/facets/StargateFacet.sol\":3479:3538  sgAddPool(6, 0xB97EF9Ef8734C71904D8002F8b6Bc66Dd9c48a6E, 1) */\n      tag_135\n        /* \"bridges/facets/StargateFacet.sol\":3489:3490  6 */\n      0x06\n        /* \"bridges/facets/StargateFacet.sol\":3492:3534  0xB97EF9Ef8734C71904D8002F8b6Bc66Dd9c48a6E */\n      0xb97ef9ef8734c71904d8002f8b6bc66dd9c48a6e\n        /* \"bridges/facets/StargateFacet.sol\":3536:3537  1 */\n      0x01\n        /* \"bridges/facets/StargateFacet.sol\":3479:3488  sgAddPool */\n      tag_70\n        /* \"bridges/facets/StargateFacet.sol\":3479:3538  sgAddPool(6, 0xB97EF9Ef8734C71904D8002F8b6Bc66Dd9c48a6E, 1) */\n      jump\t// in\n    tag_135:\n        /* \"bridges/facets/StargateFacet.sol\":3548:3607  sgAddPool(6, 0x9702230A8Ea53601f5cD2dc00fDBc13d4dF4A8c7, 2) */\n      tag_136\n        /* \"bridges/facets/StargateFacet.sol\":3558:3559  6 */\n      0x06\n        /* \"bridges/facets/StargateFacet.sol\":3561:3603  0x9702230A8Ea53601f5cD2dc00fDBc13d4dF4A8c7 */\n      0x9702230a8ea53601f5cd2dc00fdbc13d4df4a8c7\n        /* \"bridges/facets/StargateFacet.sol\":3605:3606  2 */\n      0x02\n        /* \"bridges/facets/StargateFacet.sol\":3548:3557  sgAddPool */\n      tag_70\n        /* \"bridges/facets/StargateFacet.sol\":3548:3607  sgAddPool(6, 0x9702230A8Ea53601f5cD2dc00fDBc13d4dF4A8c7, 2) */\n      jump\t// in\n    tag_136:\n        /* \"bridges/facets/StargateFacet.sol\":3617:3676  sgAddPool(9, 0x2791Bca1f2de4661ED88A30C99A7a9449Aa84174, 1) */\n      tag_137\n        /* \"bridges/facets/StargateFacet.sol\":3627:3628  9 */\n      0x09\n        /* \"bridges/facets/StargateFacet.sol\":3630:3672  0x2791Bca1f2de4661ED88A30C99A7a9449Aa84174 */\n      0x2791bca1f2de4661ed88a30c99a7a9449aa84174\n        /* \"bridges/facets/StargateFacet.sol\":3674:3675  1 */\n      0x01\n        /* \"bridges/facets/StargateFacet.sol\":3617:3626  sgAddPool */\n      tag_70\n        /* \"bridges/facets/StargateFacet.sol\":3617:3676  sgAddPool(9, 0x2791Bca1f2de4661ED88A30C99A7a9449Aa84174, 1) */\n      jump\t// in\n    tag_137:\n        /* \"bridges/facets/StargateFacet.sol\":3686:3745  sgAddPool(9, 0xc2132D05D31c914a87C6611C10748AEb04B58e8F, 2) */\n      tag_138\n        /* \"bridges/facets/StargateFacet.sol\":3696:3697  9 */\n      0x09\n        /* \"bridges/facets/StargateFacet.sol\":3699:3741  0xc2132D05D31c914a87C6611C10748AEb04B58e8F */\n      0xc2132d05d31c914a87c6611c10748aeb04b58e8f\n        /* \"bridges/facets/StargateFacet.sol\":3743:3744  2 */\n      0x02\n        /* \"bridges/facets/StargateFacet.sol\":3686:3695  sgAddPool */\n      tag_70\n        /* \"bridges/facets/StargateFacet.sol\":3686:3745  sgAddPool(9, 0xc2132D05D31c914a87C6611C10748AEb04B58e8F, 2) */\n      jump\t// in\n    tag_138:\n        /* \"bridges/facets/StargateFacet.sol\":3755:3815  sgAddPool(10, 0xFF970A61A04b1cA14834A43f5dE4533eBDDB5CC8, 1) */\n      tag_139\n        /* \"bridges/facets/StargateFacet.sol\":3765:3767  10 */\n      0x0a\n        /* \"bridges/facets/StargateFacet.sol\":3769:3811  0xFF970A61A04b1cA14834A43f5dE4533eBDDB5CC8 */\n      0xff970a61a04b1ca14834a43f5de4533ebddb5cc8\n        /* \"bridges/facets/StargateFacet.sol\":3813:3814  1 */\n      0x01\n        /* \"bridges/facets/StargateFacet.sol\":3755:3764  sgAddPool */\n      tag_70\n        /* \"bridges/facets/StargateFacet.sol\":3755:3815  sgAddPool(10, 0xFF970A61A04b1cA14834A43f5dE4533eBDDB5CC8, 1) */\n      jump\t// in\n    tag_139:\n        /* \"bridges/facets/StargateFacet.sol\":3825:3885  sgAddPool(10, 0xFd086bC7CD5C481DCC9C85ebE478A1C0b69FCbb9, 2) */\n      tag_140\n        /* \"bridges/facets/StargateFacet.sol\":3835:3837  10 */\n      0x0a\n        /* \"bridges/facets/StargateFacet.sol\":3839:3881  0xFd086bC7CD5C481DCC9C85ebE478A1C0b69FCbb9 */\n      0xfd086bc7cd5c481dcc9c85ebe478a1c0b69fcbb9\n        /* \"bridges/facets/StargateFacet.sol\":3883:3884  2 */\n      0x02\n        /* \"bridges/facets/StargateFacet.sol\":3825:3834  sgAddPool */\n      tag_70\n        /* \"bridges/facets/StargateFacet.sol\":3825:3885  sgAddPool(10, 0xFd086bC7CD5C481DCC9C85ebE478A1C0b69FCbb9, 2) */\n      jump\t// in\n    tag_140:\n        /* \"bridges/facets/StargateFacet.sol\":3895:3955  sgAddPool(11, 0x7F5c764cBc14f9669B88837ca1490cCa17c31607, 1) */\n      tag_141\n        /* \"bridges/facets/StargateFacet.sol\":3905:3907  11 */\n      0x0b\n        /* \"bridges/facets/StargateFacet.sol\":3909:3951  0x7F5c764cBc14f9669B88837ca1490cCa17c31607 */\n      0x7f5c764cbc14f9669b88837ca1490cca17c31607\n        /* \"bridges/facets/StargateFacet.sol\":3953:3954  1 */\n      0x01\n        /* \"bridges/facets/StargateFacet.sol\":3895:3904  sgAddPool */\n      tag_70\n        /* \"bridges/facets/StargateFacet.sol\":3895:3955  sgAddPool(11, 0x7F5c764cBc14f9669B88837ca1490cCa17c31607, 1) */\n      jump\t// in\n    tag_141:\n        /* \"bridges/facets/StargateFacet.sol\":3965:4025  sgAddPool(12, 0x04068DA6C83AFCFA0e13ba15A6696662335D5B75, 1) */\n      tag_142\n        /* \"bridges/facets/StargateFacet.sol\":3975:3977  12 */\n      0x0c\n        /* \"bridges/facets/StargateFacet.sol\":3979:4021  0x04068DA6C83AFCFA0e13ba15A6696662335D5B75 */\n      0x04068da6c83afcfa0e13ba15a6696662335d5b75\n        /* \"bridges/facets/StargateFacet.sol\":4023:4024  1 */\n      0x01\n        /* \"bridges/facets/StargateFacet.sol\":3965:3974  sgAddPool */\n      tag_70\n        /* \"bridges/facets/StargateFacet.sol\":3965:4025  sgAddPool(12, 0x04068DA6C83AFCFA0e13ba15A6696662335D5B75, 1) */\n      jump\t// in\n    tag_142:\n        /* \"bridges/facets/StargateFacet.sol\":4040:4080  SGInitialized(_stargateRouter, _chainId) */\n      0xc8ec31998a27444f477c01de93c393769fd4fc017fb63163f71f8a8ab72ccd50\n        /* \"bridges/facets/StargateFacet.sol\":4054:4069  _stargateRouter */\n      dup4\n        /* \"bridges/facets/StargateFacet.sol\":4071:4079  _chainId */\n      dup4\n        /* \"bridges/facets/StargateFacet.sol\":4040:4080  SGInitialized(_stargateRouter, _chainId) */\n      mload(0x40)\n      tag_143\n      swap3\n      swap2\n      swap1\n      tag_144\n      jump\t// in\n    tag_143:\n      mload(0x40)\n      dup1\n      swap2\n      sub\n      swap1\n      log1\n        /* \"bridges/facets/StargateFacet.sol\":2773:4087  function sgInitialize(address _stargateRouter, uint16 _chainId) external {... */\n      pop\n      pop\n      pop\n      jump\t// out\n        /* \"bridges/facets/StargateFacet.sol\":9042:9357  function sgUpdateRouter(address _newAddress) external {... */\n    tag_56:\n        /* \"bridges/facets/StargateFacet.sol\":9106:9141  LibDiamond.enforceIsContractOwner() */\n      tag_146\n        /* \"bridges/facets/StargateFacet.sol\":9106:9139  LibDiamond.enforceIsContractOwner */\n      tag_109\n        /* \"bridges/facets/StargateFacet.sol\":9106:9141  LibDiamond.enforceIsContractOwner() */\n      jump\t// in\n    tag_146:\n        /* \"bridges/facets/StargateFacet.sol\":9178:9179  0 */\n      0x00\n        /* \"bridges/facets/StargateFacet.sol\":9155:9180  _newAddress == address(0) */\n      0xffffffffffffffffffffffffffffffffffffffff\n      and\n        /* \"bridges/facets/StargateFacet.sol\":9155:9166  _newAddress */\n      dup2\n        /* \"bridges/facets/StargateFacet.sol\":9155:9180  _newAddress == address(0) */\n      0xffffffffffffffffffffffffffffffffffffffff\n      and\n      eq\n        /* \"bridges/facets/StargateFacet.sol\":9151:9216  if (_newAddress == address(0)) revert StargateRouterAddressZero() */\n      iszero\n      tag_147\n      jumpi\n        /* \"bridges/facets/StargateFacet.sol\":9189:9216  StargateRouterAddressZero() */\n      mload(0x40)\n      0x3911c65500000000000000000000000000000000000000000000000000000000\n      dup2\n      mstore\n      0x04\n      add\n      mload(0x40)\n      dup1\n      swap2\n      sub\n      swap1\n      revert\n        /* \"bridges/facets/StargateFacet.sol\":9151:9216  if (_newAddress == address(0)) revert StargateRouterAddressZero() */\n    tag_147:\n        /* \"bridges/facets/StargateFacet.sol\":9226:9243  Storage storage s */\n      0x00\n        /* \"bridges/facets/StargateFacet.sol\":9246:9258  getStorage() */\n      tag_148\n        /* \"bridges/facets/StargateFacet.sol\":9246:9256  getStorage */\n      tag_86\n        /* \"bridges/facets/StargateFacet.sol\":9246:9258  getStorage() */\n      jump\t// in\n    tag_148:\n        /* \"bridges/facets/StargateFacet.sol\":9226:9258  Storage storage s = getStorage() */\n      swap1\n      pop\n        /* \"bridges/facets/StargateFacet.sol\":9295:9306  _newAddress */\n      dup2\n        /* \"bridges/facets/StargateFacet.sol\":9268:9269  s */\n      dup2\n        /* \"bridges/facets/StargateFacet.sol\":9268:9284  s.stargateRouter */\n      0x00\n      add\n      0x00\n        /* \"bridges/facets/StargateFacet.sol\":9268:9307  s.stargateRouter = address(_newAddress) */\n      0x0100\n      exp\n      dup2\n      sload\n      dup2\n      0xffffffffffffffffffffffffffffffffffffffff\n      mul\n      not\n      and\n      swap1\n      dup4\n      0xffffffffffffffffffffffffffffffffffffffff\n      and\n      mul\n      or\n      swap1\n      sstore\n      pop\n        /* \"bridges/facets/StargateFacet.sol\":9322:9350  SGUpdatedRouter(_newAddress) */\n      0x9ac04272c4559bf7459414abb5568dc1df58ab649f0af4afd1510074f5cc2fec\n        /* \"bridges/facets/StargateFacet.sol\":9338:9349  _newAddress */\n      dup3\n        /* \"bridges/facets/StargateFacet.sol\":9322:9350  SGUpdatedRouter(_newAddress) */\n      mload(0x40)\n      tag_149\n      swap2\n      swap1\n      tag_95\n      jump\t// in\n    tag_149:\n      mload(0x40)\n      dup1\n      swap2\n      sub\n      swap1\n      log1\n        /* \"bridges/facets/StargateFacet.sol\":9042:9357  function sgUpdateRouter(address _newAddress) external {... */\n      pop\n      pop\n      jump\t// out\n        /* \"bridges/facets/StargateFacet.sol\":8701:8916  function sgMinAmountOut(uint256 _amount) public view returns (uint256) {... */\n    tag_60:\n        /* \"bridges/facets/StargateFacet.sol\":8763:8770  uint256 */\n      0x00\n        /* \"bridges/facets/StargateFacet.sol\":8782:8799  Storage storage s */\n      dup1\n        /* \"bridges/facets/StargateFacet.sol\":8802:8814  getStorage() */\n      tag_151\n        /* \"bridges/facets/StargateFacet.sol\":8802:8812  getStorage */\n      tag_86\n        /* \"bridges/facets/StargateFacet.sol\":8802:8814  getStorage() */\n      jump\t// in\n    tag_151:\n        /* \"bridges/facets/StargateFacet.sol\":8782:8814  Storage storage s = getStorage() */\n      swap1\n      pop\n        /* \"bridges/facets/StargateFacet.sol\":8903:8908  10000 */\n      0x2710\n        /* \"bridges/facets/StargateFacet.sol\":8887:8888  s */\n      dup2\n        /* \"bridges/facets/StargateFacet.sol\":8887:8897  s.slippage */\n      0x02\n      add\n      sload\n        /* \"bridges/facets/StargateFacet.sol\":8879:8884  10000 */\n      0x2710\n        /* \"bridges/facets/StargateFacet.sol\":8879:8897  10000 - s.slippage */\n      tag_152\n      swap2\n      swap1\n      tag_153\n      jump\t// in\n    tag_152:\n        /* \"bridges/facets/StargateFacet.sol\":8868:8875  _amount */\n      dup5\n        /* \"bridges/facets/StargateFacet.sol\":8868:8898  _amount * (10000 - s.slippage) */\n      tag_154\n      swap2\n      swap1\n      tag_155\n      jump\t// in\n    tag_154:\n        /* \"bridges/facets/StargateFacet.sol\":8867:8909  (_amount * (10000 - s.slippage)) / (10000) */\n      tag_156\n      swap2\n      swap1\n      tag_157\n      jump\t// in\n    tag_156:\n        /* \"bridges/facets/StargateFacet.sol\":8860:8909  return (_amount * (10000 - s.slippage)) / (10000) */\n      swap2\n      pop\n      pop\n        /* \"bridges/facets/StargateFacet.sol\":8701:8916  function sgMinAmountOut(uint256 _amount) public view returns (uint256) {... */\n      swap2\n      swap1\n      pop\n      jump\t// out\n        /* \"bridges/facets/StargateFacet.sol\":7346:7869  function sgReceive(... */\n    tag_66:\n        /* \"bridges/facets/StargateFacet.sol\":7563:7580  Storage storage s */\n      0x00\n        /* \"bridges/facets/StargateFacet.sol\":7583:7595  getStorage() */\n      tag_159\n        /* \"bridges/facets/StargateFacet.sol\":7583:7593  getStorage */\n      tag_86\n        /* \"bridges/facets/StargateFacet.sol\":7583:7595  getStorage() */\n      jump\t// in\n    tag_159:\n        /* \"bridges/facets/StargateFacet.sol\":7563:7595  Storage storage s = getStorage() */\n      swap1\n      pop\n        /* \"bridges/facets/StargateFacet.sol\":7631:7632  s */\n      dup1\n        /* \"bridges/facets/StargateFacet.sol\":7631:7647  s.stargateRouter */\n      0x00\n      add\n      0x00\n      swap1\n      sload\n      swap1\n      0x0100\n      exp\n      swap1\n      div\n      0xffffffffffffffffffffffffffffffffffffffff\n      and\n        /* \"bridges/facets/StargateFacet.sol\":7609:7648  msg.sender != address(s.stargateRouter) */\n      0xffffffffffffffffffffffffffffffffffffffff\n      and\n        /* \"bridges/facets/StargateFacet.sol\":7609:7619  msg.sender */\n      caller\n        /* \"bridges/facets/StargateFacet.sol\":7609:7648  msg.sender != address(s.stargateRouter) */\n      0xffffffffffffffffffffffffffffffffffffffff\n      and\n      eq\n        /* \"bridges/facets/StargateFacet.sol\":7605:7694  if (msg.sender != address(s.stargateRouter))... */\n      tag_160\n      jumpi\n        /* \"bridges/facets/StargateFacet.sol\":7669:7694  SenderNotStargateRouter() */\n      mload(0x40)\n      0xdade3c7100000000000000000000000000000000000000000000000000000000\n      dup2\n      mstore\n      0x04\n      add\n      mload(0x40)\n      dup1\n      swap2\n      sub\n      swap1\n      revert\n        /* \"bridges/facets/StargateFacet.sol\":7605:7694  if (msg.sender != address(s.stargateRouter))... */\n    tag_160:\n        /* \"bridges/facets/StargateFacet.sol\":7705:7720  address _toAddr */\n      0x00\n        /* \"bridges/facets/StargateFacet.sol\":7734:7742  _payload */\n      dup3\n        /* \"bridges/facets/StargateFacet.sol\":7723:7754  abi.decode(_payload, (address)) */\n      dup1\n      0x20\n      add\n      swap1\n      mload\n      dup2\n      add\n      swap1\n      tag_161\n      swap2\n      swap1\n      tag_162\n      jump\t// in\n    tag_161:\n        /* \"bridges/facets/StargateFacet.sol\":7705:7754  address _toAddr = abi.decode(_payload, (address)) */\n      swap1\n      pop\n        /* \"bridges/facets/StargateFacet.sol\":7771:7777  _token */\n      dup5\n        /* \"bridges/facets/StargateFacet.sol\":7764:7787  IERC20(_token).transfer */\n      0xffffffffffffffffffffffffffffffffffffffff\n      and\n      0xa9059cbb\n        /* \"bridges/facets/StargateFacet.sol\":7788:7795  _toAddr */\n      dup3\n        /* \"bridges/facets/StargateFacet.sol\":7797:7805  amountLD */\n      dup7\n        /* \"bridges/facets/StargateFacet.sol\":7764:7806  IERC20(_token).transfer(_toAddr, amountLD) */\n      mload(0x40)\n      dup4\n      0xffffffff\n      and\n      0xe0\n      shl\n      dup2\n      mstore\n      0x04\n      add\n      tag_163\n      swap3\n      swap2\n      swap1\n      tag_164\n      jump\t// in\n    tag_163:\n      0x20\n      mload(0x40)\n      dup1\n      dup4\n      sub\n      dup2\n      0x00\n      dup8\n      dup1\n      extcodesize\n      iszero\n      dup1\n      iszero\n      tag_165\n      jumpi\n      0x00\n      dup1\n      revert\n    tag_165:\n      pop\n      gas\n      call\n      iszero\n      dup1\n      iszero\n      tag_167\n      jumpi\n      returndatasize\n      0x00\n      dup1\n      returndatacopy\n      revert(0x00, returndatasize)\n    tag_167:\n      pop\n      pop\n      pop\n      pop\n      mload(0x40)\n      returndatasize\n      not(0x1f)\n      0x1f\n      dup3\n      add\n      and\n      dup3\n      add\n      dup1\n      0x40\n      mstore\n      pop\n      dup2\n      add\n      swap1\n      tag_168\n      swap2\n      swap1\n      tag_169\n      jump\t// in\n    tag_168:\n      pop\n        /* \"bridges/facets/StargateFacet.sol\":7821:7862  SGReceivedOnDestination(_token, amountLD) */\n      0x827e3293895509ef037b7438d4e009f37ad7b2562a14695d9dfd9cb065984218\n        /* \"bridges/facets/StargateFacet.sol\":7845:7851  _token */\n      dup6\n        /* \"bridges/facets/StargateFacet.sol\":7853:7861  amountLD */\n      dup6\n        /* \"bridges/facets/StargateFacet.sol\":7821:7862  SGReceivedOnDestination(_token, amountLD) */\n      mload(0x40)\n      tag_170\n      swap3\n      swap2\n      swap1\n      tag_164\n      jump\t// in\n    tag_170:\n      mload(0x40)\n      dup1\n      swap2\n      sub\n      swap1\n      log1\n        /* \"bridges/facets/StargateFacet.sol\":7346:7869  function sgReceive(... */\n      pop\n      pop\n      pop\n      pop\n      pop\n      pop\n      pop\n      pop\n      jump\t// out\n        /* \"bridges/facets/StargateFacet.sol\":10474:10773  function sgAddPool(... */\n    tag_70:\n        /* \"bridges/facets/StargateFacet.sol\":10589:10624  LibDiamond.enforceIsContractOwner() */\n      tag_172\n        /* \"bridges/facets/StargateFacet.sol\":10589:10622  LibDiamond.enforceIsContractOwner */\n      tag_109\n        /* \"bridges/facets/StargateFacet.sol\":10589:10624  LibDiamond.enforceIsContractOwner() */\n      jump\t// in\n    tag_172:\n        /* \"bridges/facets/StargateFacet.sol\":10634:10651  Storage storage s */\n      0x00\n        /* \"bridges/facets/StargateFacet.sol\":10654:10666  getStorage() */\n      tag_173\n        /* \"bridges/facets/StargateFacet.sol\":10654:10664  getStorage */\n      tag_86\n        /* \"bridges/facets/StargateFacet.sol\":10654:10666  getStorage() */\n      jump\t// in\n    tag_173:\n        /* \"bridges/facets/StargateFacet.sol\":10634:10666  Storage storage s = getStorage() */\n      swap1\n      pop\n        /* \"bridges/facets/StargateFacet.sol\":10706:10713  _poolId */\n      dup2\n        /* \"bridges/facets/StargateFacet.sol\":10676:10677  s */\n      dup2\n        /* \"bridges/facets/StargateFacet.sol\":10676:10685  s.poolIds */\n      0x03\n      add\n        /* \"bridges/facets/StargateFacet.sol\":10676:10695  s.poolIds[_chainId] */\n      0x00\n        /* \"bridges/facets/StargateFacet.sol\":10686:10694  _chainId */\n      dup7\n        /* \"bridges/facets/StargateFacet.sol\":10676:10695  s.poolIds[_chainId] */\n      0xffff\n      and\n      0xffff\n      and\n      dup2\n      mstore\n      0x20\n      add\n      swap1\n      dup2\n      mstore\n      0x20\n      add\n      0x00\n      keccak256\n        /* \"bridges/facets/StargateFacet.sol\":10676:10703  s.poolIds[_chainId][_token] */\n      0x00\n        /* \"bridges/facets/StargateFacet.sol\":10696:10702  _token */\n      dup6\n        /* \"bridges/facets/StargateFacet.sol\":10676:10703  s.poolIds[_chainId][_token] */\n      0xffffffffffffffffffffffffffffffffffffffff\n      and\n      0xffffffffffffffffffffffffffffffffffffffff\n      and\n      dup2\n      mstore\n      0x20\n      add\n      swap1\n      dup2\n      mstore\n      0x20\n      add\n      0x00\n      keccak256\n      0x00\n        /* \"bridges/facets/StargateFacet.sol\":10676:10713  s.poolIds[_chainId][_token] = _poolId */\n      0x0100\n      exp\n      dup2\n      sload\n      dup2\n      0xffff\n      mul\n      not\n      and\n      swap1\n      dup4\n      0xffff\n      and\n      mul\n      or\n      swap1\n      sstore\n      pop\n        /* \"bridges/facets/StargateFacet.sol\":10728:10766  SGAddedPool(_chainId, _token, _poolId) */\n      0x85adba3a23dc45072c12199244adfbf4c1d736a46ac453eb732f4e5158af5867\n        /* \"bridges/facets/StargateFacet.sol\":10740:10748  _chainId */\n      dup5\n        /* \"bridges/facets/StargateFacet.sol\":10750:10756  _token */\n      dup5\n        /* \"bridges/facets/StargateFacet.sol\":10758:10765  _poolId */\n      dup5\n        /* \"bridges/facets/StargateFacet.sol\":10728:10766  SGAddedPool(_chainId, _token, _poolId) */\n      mload(0x40)\n      tag_174\n      swap4\n      swap3\n      swap2\n      swap1\n      tag_175\n      jump\t// in\n    tag_174:\n      mload(0x40)\n      dup1\n      swap2\n      sub\n      swap1\n      log1\n        /* \"bridges/facets/StargateFacet.sol\":10474:10773  function sgAddPool(... */\n      pop\n      pop\n      pop\n      pop\n      jump\t// out\n        /* \"bridges/facets/StargateFacet.sol\":9894:10206  function sgWithdraw(... */\n    tag_74:\n        /* \"common/helpers/DiamondReentrancyGuard.sol\":1531:1558  ReentrancyStorage storage s */\n      0x00\n        /* \"common/helpers/DiamondReentrancyGuard.sol\":1561:1580  reentrancyStorage() */\n      tag_177\n        /* \"common/helpers/DiamondReentrancyGuard.sol\":1561:1578  reentrancyStorage */\n      tag_77\n        /* \"common/helpers/DiamondReentrancyGuard.sol\":1561:1580  reentrancyStorage() */\n      jump\t// in\n    tag_177:\n        /* \"common/helpers/DiamondReentrancyGuard.sol\":1531:1580  ReentrancyStorage storage s = reentrancyStorage() */\n      swap1\n      pop\n        /* \"common/helpers/DiamondReentrancyGuard.sol\":1286:1287  1 */\n      0x01\n        /* \"common/helpers/DiamondReentrancyGuard.sol\":1594:1595  s */\n      dup2\n        /* \"common/helpers/DiamondReentrancyGuard.sol\":1594:1602  s.status */\n      0x00\n      add\n      sload\n        /* \"common/helpers/DiamondReentrancyGuard.sol\":1594:1614  s.status == _ENTERED */\n      eq\n        /* \"common/helpers/DiamondReentrancyGuard.sol\":1590:1640  if (s.status == _ENTERED) revert ReentrancyError() */\n      iszero\n      tag_178\n      jumpi\n        /* \"common/helpers/DiamondReentrancyGuard.sol\":1623:1640  ReentrancyError() */\n      mload(0x40)\n      0x29f745a700000000000000000000000000000000000000000000000000000000\n      dup2\n      mstore\n      0x04\n      add\n      mload(0x40)\n      dup1\n      swap2\n      sub\n      swap1\n      revert\n        /* \"common/helpers/DiamondReentrancyGuard.sol\":1590:1640  if (s.status == _ENTERED) revert ReentrancyError() */\n    tag_178:\n        /* \"common/helpers/DiamondReentrancyGuard.sol\":1286:1287  1 */\n      0x01\n        /* \"common/helpers/DiamondReentrancyGuard.sol\":1650:1651  s */\n      dup2\n        /* \"common/helpers/DiamondReentrancyGuard.sol\":1650:1658  s.status */\n      0x00\n      add\n        /* \"common/helpers/DiamondReentrancyGuard.sol\":1650:1669  s.status = _ENTERED */\n      dup2\n      swap1\n      sstore\n      pop\n        /* \"bridges/facets/StargateFacet.sol\":10032:10067  LibDiamond.enforceIsContractOwner() */\n      tag_180\n        /* \"bridges/facets/StargateFacet.sol\":10032:10065  LibDiamond.enforceIsContractOwner */\n      tag_109\n        /* \"bridges/facets/StargateFacet.sol\":10032:10067  LibDiamond.enforceIsContractOwner() */\n      jump\t// in\n    tag_180:\n        /* \"bridges/facets/StargateFacet.sol\":10077:10127  IERC20(_token).safeApprove(address(this), _amount) */\n      tag_181\n        /* \"bridges/facets/StargateFacet.sol\":10112:10116  this */\n      address\n        /* \"bridges/facets/StargateFacet.sol\":10119:10126  _amount */\n      dup4\n        /* \"bridges/facets/StargateFacet.sol\":10084:10090  _token */\n      dup7\n        /* \"bridges/facets/StargateFacet.sol\":10077:10103  IERC20(_token).safeApprove */\n      0xffffffffffffffffffffffffffffffffffffffff\n      and\n      tag_99\n      swap1\n        /* \"bridges/facets/StargateFacet.sol\":10077:10127  IERC20(_token).safeApprove(address(this), _amount) */\n      swap3\n      swap2\n      swap1\n      0xffffffff\n      and\n      jump\t// in\n    tag_181:\n        /* \"bridges/facets/StargateFacet.sol\":10137:10199  IERC20(_token).safeTransferFrom(address(this), _user, _amount) */\n      tag_182\n        /* \"bridges/facets/StargateFacet.sol\":10177:10181  this */\n      address\n        /* \"bridges/facets/StargateFacet.sol\":10184:10189  _user */\n      dup5\n        /* \"bridges/facets/StargateFacet.sol\":10191:10198  _amount */\n      dup5\n        /* \"bridges/facets/StargateFacet.sol\":10144:10150  _token */\n      dup8\n        /* \"bridges/facets/StargateFacet.sol\":10137:10168  IERC20(_token).safeTransferFrom */\n      0xffffffffffffffffffffffffffffffffffffffff\n      and\n      tag_97\n      swap1\n        /* \"bridges/facets/StargateFacet.sol\":10137:10199  IERC20(_token).safeTransferFrom(address(this), _user, _amount) */\n      swap4\n      swap3\n      swap2\n      swap1\n      0xffffffff\n      and\n      jump\t// in\n    tag_182:\n        /* \"common/helpers/DiamondReentrancyGuard.sol\":1243:1244  0 */\n      0x00\n        /* \"common/helpers/DiamondReentrancyGuard.sol\":1690:1691  s */\n      dup2\n        /* \"common/helpers/DiamondReentrancyGuard.sol\":1690:1698  s.status */\n      0x00\n      add\n        /* \"common/helpers/DiamondReentrancyGuard.sol\":1690:1713  s.status = _NOT_ENTERED */\n      dup2\n      swap1\n      sstore\n      pop\n        /* \"bridges/facets/StargateFacet.sol\":9894:10206  function sgWithdraw(... */\n      pop\n      pop\n      pop\n      pop\n      jump\t// out\n        /* \"common/helpers/DiamondReentrancyGuard.sol\":1961:2236  function reentrancyStorage()... */\n    tag_77:\n        /* \"common/helpers/DiamondReentrancyGuard.sol\":2036:2066  ReentrancyStorage storage data */\n      0x00\n        /* \"common/helpers/DiamondReentrancyGuard.sol\":2082:2098  bytes32 position */\n      dup1\n        /* \"common/helpers/DiamondReentrancyGuard.sol\":449:498  keccak256(\"io.etherspot.helpers.reentrancyguard\") */\n      0xc59b5acc5a6673a6c49ca2de898f87adbd9fdfdff36f689476b1c9e0c50964b4\n        /* \"common/helpers/DiamondReentrancyGuard.sol\":2082:2110  bytes32 position = NAMESPACE */\n      swap1\n      pop\n        /* \"common/helpers/DiamondReentrancyGuard.sol\":2212:2220  position */\n      dup1\n        /* \"common/helpers/DiamondReentrancyGuard.sol\":2199:2220  data.slot := position */\n      swap2\n      pop\n        /* \"common/helpers/DiamondReentrancyGuard.sol\":2185:2230  {... */\n      pop\n      swap1\n      jump\t// out\n        /* \"bridges/facets/StargateFacet.sol\":11987:12213  function getStorage() private pure returns (Storage storage s) {... */\n    tag_86:\n        /* \"bridges/facets/StargateFacet.sol\":12031:12048  Storage storage s */\n      0x00\n        /* \"bridges/facets/StargateFacet.sol\":12060:12077  bytes32 namespace */\n      dup1\n        /* \"bridges/facets/StargateFacet.sol\":1953:1994  keccak256(\"io.etherspot.facets.stargate\") */\n      0xbaeadb48cbcf0176d6c6ac156b0140abe0fb28a100a9a6a8b5df37e55693b1c8\n        /* \"bridges/facets/StargateFacet.sol\":12060:12089  bytes32 namespace = NAMESPACE */\n      swap1\n      pop\n        /* \"bridges/facets/StargateFacet.sol\":12188:12197  namespace */\n      dup1\n        /* \"bridges/facets/StargateFacet.sol\":12178:12197  s.slot := namespace */\n      swap2\n      pop\n        /* \"bridges/facets/StargateFacet.sol\":12164:12207  {... */\n      pop\n      swap1\n      jump\t// out\n        /* \"@openzeppelin/contracts/token/ERC20/utils/SafeERC20.sol\":974:1215  function safeTransferFrom(... */\n    tag_97:\n        /* \"@openzeppelin/contracts/token/ERC20/utils/SafeERC20.sol\":1112:1208  _callOptionalReturn(token, abi.encodeWithSelector(token.transferFrom.selector, from, to, value)) */\n      tag_186\n        /* \"@openzeppelin/contracts/token/ERC20/utils/SafeERC20.sol\":1132:1137  token */\n      dup5\n        /* \"@openzeppelin/contracts/token/ERC20/utils/SafeERC20.sol\":1162:1189  token.transferFrom.selector */\n      shl(0xe0, 0x23b872dd)\n        /* \"@openzeppelin/contracts/token/ERC20/utils/SafeERC20.sol\":1191:1195  from */\n      dup6\n        /* \"@openzeppelin/contracts/token/ERC20/utils/SafeERC20.sol\":1197:1199  to */\n      dup6\n        /* \"@openzeppelin/contracts/token/ERC20/utils/SafeERC20.sol\":1201:1206  value */\n      dup6\n        /* \"@openzeppelin/contracts/token/ERC20/utils/SafeERC20.sol\":1139:1207  abi.encodeWithSelector(token.transferFrom.selector, from, to, value) */\n      add(0x24, mload(0x40))\n      tag_187\n      swap4\n      swap3\n      swap2\n      swap1\n      tag_188\n      jump\t// in\n    tag_187:\n      mload(0x40)\n      0x20\n      dup2\n      dup4\n      sub\n      sub\n      dup2\n      mstore\n      swap1\n      0x40\n      mstore\n      swap1\n      not(0xffffffffffffffffffffffffffffffffffffffffffffffffffffffff)\n      and\n      0x20\n      dup3\n      add\n      dup1\n      mload\n      0xffffffffffffffffffffffffffffffffffffffffffffffffffffffff\n      dup4\n      dup2\n      dup4\n      and\n      or\n      dup4\n      mstore\n      pop\n      pop\n      pop\n      pop\n        /* \"@openzeppelin/contracts/token/ERC20/utils/SafeERC20.sol\":1112:1131  _callOptionalReturn */\n      tag_189\n        /* \"@openzeppelin/contracts/token/ERC20/utils/SafeERC20.sol\":1112:1208  _callOptionalReturn(token, abi.encodeWithSelector(token.transferFrom.selector, from, to, value)) */\n      jump\t// in\n    tag_186:\n        /* \"@openzeppelin/contracts/token/ERC20/utils/SafeERC20.sol\":974:1215  function safeTransferFrom(... */\n      pop\n      pop\n      pop\n      pop\n      jump\t// out\n        /* \"@openzeppelin/contracts/token/ERC20/utils/SafeERC20.sol\":1475:2078  function safeApprove(... */\n    tag_99:\n        /* \"@openzeppelin/contracts/token/ERC20/utils/SafeERC20.sol\":1839:1840  0 */\n      0x00\n        /* \"@openzeppelin/contracts/token/ERC20/utils/SafeERC20.sol\":1830:1835  value */\n      dup2\n        /* \"@openzeppelin/contracts/token/ERC20/utils/SafeERC20.sol\":1830:1840  value == 0 */\n      eq\n        /* \"@openzeppelin/contracts/token/ERC20/utils/SafeERC20.sol\":1829:1891  (value == 0) || (token.allowance(address(this), spender) == 0) */\n      dup1\n      tag_191\n      jumpi\n      pop\n        /* \"@openzeppelin/contracts/token/ERC20/utils/SafeERC20.sol\":1889:1890  0 */\n      0x00\n        /* \"@openzeppelin/contracts/token/ERC20/utils/SafeERC20.sol\":1846:1851  token */\n      dup4\n        /* \"@openzeppelin/contracts/token/ERC20/utils/SafeERC20.sol\":1846:1861  token.allowance */\n      0xffffffffffffffffffffffffffffffffffffffff\n      and\n      0xdd62ed3e\n        /* \"@openzeppelin/contracts/token/ERC20/utils/SafeERC20.sol\":1870:1874  this */\n      address\n        /* \"@openzeppelin/contracts/token/ERC20/utils/SafeERC20.sol\":1877:1884  spender */\n      dup6\n        /* \"@openzeppelin/contracts/token/ERC20/utils/SafeERC20.sol\":1846:1885  token.allowance(address(this), spender) */\n      mload(0x40)\n      dup4\n      0xffffffff\n      and\n      0xe0\n      shl\n      dup2\n      mstore\n      0x04\n      add\n      tag_192\n      swap3\n      swap2\n      swap1\n      tag_193\n      jump\t// in\n    tag_192:\n      0x20\n      mload(0x40)\n      dup1\n      dup4\n      sub\n      dup2\n      dup7\n      dup1\n      extcodesize\n      iszero\n      dup1\n      iszero\n      tag_194\n      jumpi\n      0x00\n      dup1\n      revert\n    tag_194:\n      pop\n      gas\n      staticcall\n      iszero\n      dup1\n      iszero\n      tag_196\n      jumpi\n      returndatasize\n      0x00\n      dup1\n      returndatacopy\n      revert(0x00, returndatasize)\n    tag_196:\n      pop\n      pop\n      pop\n      pop\n      mload(0x40)\n      returndatasize\n      not(0x1f)\n      0x1f\n      dup3\n      add\n      and\n      dup3\n      add\n      dup1\n      0x40\n      mstore\n      pop\n      dup2\n      add\n      swap1\n      tag_197\n      swap2\n      swap1\n      tag_198\n      jump\t// in\n    tag_197:\n        /* \"@openzeppelin/contracts/token/ERC20/utils/SafeERC20.sol\":1846:1890  token.allowance(address(this), spender) == 0 */\n      eq\n        /* \"@openzeppelin/contracts/token/ERC20/utils/SafeERC20.sol\":1829:1891  (value == 0) || (token.allowance(address(this), spender) == 0) */\n    tag_191:\n        /* \"@openzeppelin/contracts/token/ERC20/utils/SafeERC20.sol\":1808:1971  require(... */\n      tag_199\n      jumpi\n      mload(0x40)\n      0x08c379a000000000000000000000000000000000000000000000000000000000\n      dup2\n      mstore\n      0x04\n      add\n      tag_200\n      swap1\n      tag_201\n      jump\t// in\n    tag_200:\n      mload(0x40)\n      dup1\n      swap2\n      sub\n      swap1\n      revert\n    tag_199:\n        /* \"@openzeppelin/contracts/token/ERC20/utils/SafeERC20.sol\":1981:2071  _callOptionalReturn(token, abi.encodeWithSelector(token.approve.selector, spender, value)) */\n      tag_202\n        /* \"@openzeppelin/contracts/token/ERC20/utils/SafeERC20.sol\":2001:2006  token */\n      dup4\n        /* \"@openzeppelin/contracts/token/ERC20/utils/SafeERC20.sol\":2031:2053  token.approve.selector */\n      shl(0xe0, 0x095ea7b3)\n        /* \"@openzeppelin/contracts/token/ERC20/utils/SafeERC20.sol\":2055:2062  spender */\n      dup5\n        /* \"@openzeppelin/contracts/token/ERC20/utils/SafeERC20.sol\":2064:2069  value */\n      dup5\n        /* \"@openzeppelin/contracts/token/ERC20/utils/SafeERC20.sol\":2008:2070  abi.encodeWithSelector(token.approve.selector, spender, value) */\n      add(0x24, mload(0x40))\n      tag_203\n      swap3\n      swap2\n      swap1\n      tag_164\n      jump\t// in\n    tag_203:\n      mload(0x40)\n      0x20\n      dup2\n      dup4\n      sub\n      sub\n      dup2\n      mstore\n      swap1\n      0x40\n      mstore\n      swap1\n      not(0xffffffffffffffffffffffffffffffffffffffffffffffffffffffff)\n      and\n      0x20\n      dup3\n      add\n      dup1\n      mload\n      0xffffffffffffffffffffffffffffffffffffffffffffffffffffffff\n      dup4\n      dup2\n      dup4\n      and\n      or\n      dup4\n      mstore\n      pop\n      pop\n      pop\n      pop\n        /* \"@openzeppelin/contracts/token/ERC20/utils/SafeERC20.sol\":1981:2000  _callOptionalReturn */\n      tag_189\n        /* \"@openzeppelin/contracts/token/ERC20/utils/SafeERC20.sol\":1981:2071  _callOptionalReturn(token, abi.encodeWithSelector(token.approve.selector, spender, value)) */\n      jump\t// in\n    tag_202:\n        /* \"@openzeppelin/contracts/token/ERC20/utils/SafeERC20.sol\":1475:2078  function safeApprove(... */\n      pop\n      pop\n      pop\n      jump\t// out\n        /* \"bridges/libs/LibDiamond.sol\":1898:2048  function enforceIsContractOwner() internal view {... */\n    tag_109:\n        /* \"bridges/libs/LibDiamond.sol\":1974:1990  diamondStorage() */\n      tag_205\n        /* \"bridges/libs/LibDiamond.sol\":1974:1988  diamondStorage */\n      tag_206\n        /* \"bridges/libs/LibDiamond.sol\":1974:1990  diamondStorage() */\n      jump\t// in\n    tag_205:\n        /* \"bridges/libs/LibDiamond.sol\":1974:2004  diamondStorage().contractOwner */\n      0x04\n      add\n      0x00\n      swap1\n      sload\n      swap1\n      0x0100\n      exp\n      swap1\n      div\n      0xffffffffffffffffffffffffffffffffffffffff\n      and\n        /* \"bridges/libs/LibDiamond.sol\":1960:2004  msg.sender == diamondStorage().contractOwner */\n      0xffffffffffffffffffffffffffffffffffffffff\n      and\n        /* \"bridges/libs/LibDiamond.sol\":1960:1970  msg.sender */\n      caller\n        /* \"bridges/libs/LibDiamond.sol\":1960:2004  msg.sender == diamondStorage().contractOwner */\n      0xffffffffffffffffffffffffffffffffffffffff\n      and\n      eq\n        /* \"bridges/libs/LibDiamond.sol\":1952:2043  require(msg.sender == diamondStorage().contractOwner, \"LibDiamond: Must be contract owner\") */\n      tag_207\n      jumpi\n      mload(0x40)\n      0x08c379a000000000000000000000000000000000000000000000000000000000\n      dup2\n      mstore\n      0x04\n      add\n      tag_208\n      swap1\n      tag_209\n      jump\t// in\n    tag_208:\n      mload(0x40)\n      dup1\n      swap2\n      sub\n      swap1\n      revert\n    tag_207:\n        /* \"bridges/libs/LibDiamond.sol\":1898:2048  function enforceIsContractOwner() internal view {... */\n      jump\t// out\n        /* \"@openzeppelin/contracts/token/ERC20/utils/SafeERC20.sol\":3747:4453  function _callOptionalReturn(IERC20 token, bytes memory data) private {... */\n    tag_189:\n        /* \"@openzeppelin/contracts/token/ERC20/utils/SafeERC20.sol\":4166:4189  bytes memory returndata */\n      0x00\n        /* \"@openzeppelin/contracts/token/ERC20/utils/SafeERC20.sol\":4192:4261  address(token).functionCall(data, \"SafeERC20: low-level call failed\") */\n      tag_211\n        /* \"@openzeppelin/contracts/token/ERC20/utils/SafeERC20.sol\":4220:4224  data */\n      dup3\n        /* \"@openzeppelin/contracts/token/ERC20/utils/SafeERC20.sol\":4192:4261  address(token).functionCall(data, \"SafeERC20: low-level call failed\") */\n      mload(0x40)\n      dup1\n      0x40\n      add\n      0x40\n      mstore\n      dup1\n      0x20\n      dup2\n      mstore\n      0x20\n      add\n      0x5361666545524332303a206c6f772d6c6576656c2063616c6c206661696c6564\n      dup2\n      mstore\n      pop\n        /* \"@openzeppelin/contracts/token/ERC20/utils/SafeERC20.sol\":4200:4205  token */\n      dup6\n        /* \"@openzeppelin/contracts/token/ERC20/utils/SafeERC20.sol\":4192:4219  address(token).functionCall */\n      0xffffffffffffffffffffffffffffffffffffffff\n      and\n      tag_212\n      swap1\n        /* \"@openzeppelin/contracts/token/ERC20/utils/SafeERC20.sol\":4192:4261  address(token).functionCall(data, \"SafeERC20: low-level call failed\") */\n      swap3\n      swap2\n      swap1\n      0xffffffff\n      and\n      jump\t// in\n    tag_211:\n        /* \"@openzeppelin/contracts/token/ERC20/utils/SafeERC20.sol\":4166:4261  bytes memory returndata = address(token).functionCall(data, \"SafeERC20: low-level call failed\") */\n      swap1\n      pop\n        /* \"@openzeppelin/contracts/token/ERC20/utils/SafeERC20.sol\":4295:4296  0 */\n      0x00\n        /* \"@openzeppelin/contracts/token/ERC20/utils/SafeERC20.sol\":4275:4285  returndata */\n      dup2\n        /* \"@openzeppelin/contracts/token/ERC20/utils/SafeERC20.sol\":4275:4292  returndata.length */\n      mload\n        /* \"@openzeppelin/contracts/token/ERC20/utils/SafeERC20.sol\":4275:4296  returndata.length > 0 */\n      gt\n        /* \"@openzeppelin/contracts/token/ERC20/utils/SafeERC20.sol\":4271:4447  if (returndata.length > 0) {... */\n      iszero\n      tag_213\n      jumpi\n        /* \"@openzeppelin/contracts/token/ERC20/utils/SafeERC20.sol\":4370:4380  returndata */\n      dup1\n        /* \"@openzeppelin/contracts/token/ERC20/utils/SafeERC20.sol\":4359:4389  abi.decode(returndata, (bool)) */\n      dup1\n      0x20\n      add\n      swap1\n      mload\n      dup2\n      add\n      swap1\n      tag_214\n      swap2\n      swap1\n      tag_169\n      jump\t// in\n    tag_214:\n        /* \"@openzeppelin/contracts/token/ERC20/utils/SafeERC20.sol\":4351:4436  require(abi.decode(returndata, (bool)), \"SafeERC20: ERC20 operation did not succeed\") */\n      tag_215\n      jumpi\n      mload(0x40)\n      0x08c379a000000000000000000000000000000000000000000000000000000000\n      dup2\n      mstore\n      0x04\n      add\n      tag_216\n      swap1\n      tag_217\n      jump\t// in\n    tag_216:\n      mload(0x40)\n      dup1\n      swap2\n      sub\n      swap1\n      revert\n    tag_215:\n        /* \"@openzeppelin/contracts/token/ERC20/utils/SafeERC20.sol\":4271:4447  if (returndata.length > 0) {... */\n    tag_213:\n        /* \"@openzeppelin/contracts/token/ERC20/utils/SafeERC20.sol\":3747:4453  function _callOptionalReturn(IERC20 token, bytes memory data) private {... */\n      pop\n      pop\n      pop\n      jump\t// out\n        /* \"bridges/libs/LibDiamond.sol\":1191:1422  function diamondStorage() internal pure returns (DiamondStorage storage ds) {... */\n    tag_206:\n        /* \"bridges/libs/LibDiamond.sol\":1240:1265  DiamondStorage storage ds */\n      0x00\n        /* \"bridges/libs/LibDiamond.sol\":1273:1289  bytes32 position */\n      dup1\n        /* \"bridges/libs/LibDiamond.sol\":203:248  keccak256(\"diamond.standard.diamond.storage\") */\n      0xc8fcad8db84d3cc18b4c41d551ea0ee66dd599cde068d998e57d5e09332c131c\n        /* \"bridges/libs/LibDiamond.sol\":1273:1316  bytes32 position = DIAMOND_STORAGE_POSITION */\n      swap1\n      pop\n        /* \"bridges/libs/LibDiamond.sol\":1404:1412  position */\n      dup1\n        /* \"bridges/libs/LibDiamond.sol\":1393:1412  ds.slot := position */\n      swap2\n      pop\n        /* \"bridges/libs/LibDiamond.sol\":1383:1418  {... */\n      pop\n      swap1\n      jump\t// out\n        /* \"@openzeppelin/contracts/utils/Address.sol\":3861:4084  function functionCall(... */\n    tag_212:\n        /* \"@openzeppelin/contracts/utils/Address.sol\":3994:4006  bytes memory */\n      0x60\n        /* \"@openzeppelin/contracts/utils/Address.sol\":4025:4077  functionCallWithValue(target, data, 0, errorMessage) */\n      tag_220\n        /* \"@openzeppelin/contracts/utils/Address.sol\":4047:4053  target */\n      dup5\n        /* \"@openzeppelin/contracts/utils/Address.sol\":4055:4059  data */\n      dup5\n        /* \"@openzeppelin/contracts/utils/Address.sol\":4061:4062  0 */\n      0x00\n        /* \"@openzeppelin/contracts/utils/Address.sol\":4064:4076  errorMessage */\n      dup6\n        /* \"@openzeppelin/contracts/utils/Address.sol\":4025:4046  functionCallWithValue */\n      tag_221\n        /* \"@openzeppelin/contracts/utils/Address.sol\":4025:4077  functionCallWithValue(target, data, 0, errorMessage) */\n      jump\t// in\n    tag_220:\n        /* \"@openzeppelin/contracts/utils/Address.sol\":4018:4077  return functionCallWithValue(target, data, 0, errorMessage) */\n      swap1\n      pop\n        /* \"@openzeppelin/contracts/utils/Address.sol\":3861:4084  function functionCall(... */\n      swap4\n      swap3\n      pop\n      pop\n      pop\n      jump\t// out\n        /* \"@openzeppelin/contracts/utils/Address.sol\":4948:5447  function functionCallWithValue(... */\n    tag_221:\n        /* \"@openzeppelin/contracts/utils/Address.sol\":5113:5125  bytes memory */\n      0x60\n        /* \"@openzeppelin/contracts/utils/Address.sol\":5170:5175  value */\n      dup3\n        /* \"@openzeppelin/contracts/utils/Address.sol\":5145:5166  address(this).balance */\n      selfbalance\n        /* \"@openzeppelin/contracts/utils/Address.sol\":5145:5175  address(this).balance >= value */\n      lt\n      iszero\n        /* \"@openzeppelin/contracts/utils/Address.sol\":5137:5218  require(address(this).balance >= value, \"Address: insufficient balance for call\") */\n      tag_223\n      jumpi\n      mload(0x40)\n      0x08c379a000000000000000000000000000000000000000000000000000000000\n      dup2\n      mstore\n      0x04\n      add\n      tag_224\n      swap1\n      tag_225\n      jump\t// in\n    tag_224:\n      mload(0x40)\n      dup1\n      swap2\n      sub\n      swap1\n      revert\n    tag_223:\n        /* \"@openzeppelin/contracts/utils/Address.sol\":5236:5254  isContract(target) */\n      tag_226\n        /* \"@openzeppelin/contracts/utils/Address.sol\":5247:5253  target */\n      dup6\n        /* \"@openzeppelin/contracts/utils/Address.sol\":5236:5246  isContract */\n      tag_227\n        /* \"@openzeppelin/contracts/utils/Address.sol\":5236:5254  isContract(target) */\n      jump\t// in\n    tag_226:\n        /* \"@openzeppelin/contracts/utils/Address.sol\":5228:5288  require(isContract(target), \"Address: call to non-contract\") */\n      tag_228\n      jumpi\n      mload(0x40)\n      0x08c379a000000000000000000000000000000000000000000000000000000000\n      dup2\n      mstore\n      0x04\n      add\n      tag_229\n      swap1\n      tag_230\n      jump\t// in\n    tag_229:\n      mload(0x40)\n      dup1\n      swap2\n      sub\n      swap1\n      revert\n    tag_228:\n        /* \"@openzeppelin/contracts/utils/Address.sol\":5300:5312  bool success */\n      0x00\n        /* \"@openzeppelin/contracts/utils/Address.sol\":5314:5337  bytes memory returndata */\n      dup1\n        /* \"@openzeppelin/contracts/utils/Address.sol\":5341:5347  target */\n      dup7\n        /* \"@openzeppelin/contracts/utils/Address.sol\":5341:5352  target.call */\n      0xffffffffffffffffffffffffffffffffffffffff\n      and\n        /* \"@openzeppelin/contracts/utils/Address.sol\":5360:5365  value */\n      dup6\n        /* \"@openzeppelin/contracts/utils/Address.sol\":5367:5371  data */\n      dup8\n        /* \"@openzeppelin/contracts/utils/Address.sol\":5341:5372  target.call{value: value}(data) */\n      mload(0x40)\n      tag_231\n      swap2\n      swap1\n      tag_232\n      jump\t// in\n    tag_231:\n      0x00\n      mload(0x40)\n      dup1\n      dup4\n      sub\n      dup2\n      dup6\n      dup8\n      gas\n      call\n      swap3\n      pop\n      pop\n      pop\n      returndatasize\n      dup1\n      0x00\n      dup2\n      eq\n      tag_235\n      jumpi\n      mload(0x40)\n      swap2\n      pop\n      and(add(returndatasize, 0x3f), not(0x1f))\n      dup3\n      add\n      0x40\n      mstore\n      returndatasize\n      dup3\n      mstore\n      returndatasize\n      0x00\n      0x20\n      dup5\n      add\n      returndatacopy\n      jump(tag_234)\n    tag_235:\n      0x60\n      swap2\n      pop\n    tag_234:\n      pop\n        /* \"@openzeppelin/contracts/utils/Address.sol\":5299:5372  (bool success, bytes memory returndata) = target.call{value: value}(data) */\n      swap2\n      pop\n      swap2\n      pop\n        /* \"@openzeppelin/contracts/utils/Address.sol\":5389:5440  verifyCallResult(success, returndata, errorMessage) */\n      tag_236\n        /* \"@openzeppelin/contracts/utils/Address.sol\":5406:5413  success */\n      dup3\n        /* \"@openzeppelin/contracts/utils/Address.sol\":5415:5425  returndata */\n      dup3\n        /* \"@openzeppelin/contracts/utils/Address.sol\":5427:5439  errorMessage */\n      dup7\n        /* \"@openzeppelin/contracts/utils/Address.sol\":5389:5405  verifyCallResult */\n      tag_237\n        /* \"@openzeppelin/contracts/utils/Address.sol\":5389:5440  verifyCallResult(success, returndata, errorMessage) */\n      jump\t// in\n    tag_236:\n        /* \"@openzeppelin/contracts/utils/Address.sol\":5382:5440  return verifyCallResult(success, returndata, errorMessage) */\n      swap3\n      pop\n      pop\n      pop\n        /* \"@openzeppelin/contracts/utils/Address.sol\":4948:5447  function functionCallWithValue(... */\n      swap5\n      swap4\n      pop\n      pop\n      pop\n      pop\n      jump\t// out\n        /* \"@openzeppelin/contracts/utils/Address.sol\":1175:1495  function isContract(address account) internal view returns (bool) {... */\n    tag_227:\n        /* \"@openzeppelin/contracts/utils/Address.sol\":1235:1239  bool */\n      0x00\n        /* \"@openzeppelin/contracts/utils/Address.sol\":1487:1488  0 */\n      dup1\n        /* \"@openzeppelin/contracts/utils/Address.sol\":1465:1472  account */\n      dup3\n        /* \"@openzeppelin/contracts/utils/Address.sol\":1465:1484  account.code.length */\n      0xffffffffffffffffffffffffffffffffffffffff\n      and\n      extcodesize\n        /* \"@openzeppelin/contracts/utils/Address.sol\":1465:1488  account.code.length > 0 */\n      gt\n        /* \"@openzeppelin/contracts/utils/Address.sol\":1458:1488  return account.code.length > 0 */\n      swap1\n      pop\n        /* \"@openzeppelin/contracts/utils/Address.sol\":1175:1495  function isContract(address account) internal view returns (bool) {... */\n      swap2\n      swap1\n      pop\n      jump\t// out\n        /* \"@openzeppelin/contracts/utils/Address.sol\":7561:8303  function verifyCallResult(... */\n    tag_237:\n        /* \"@openzeppelin/contracts/utils/Address.sol\":7707:7719  bytes memory */\n      0x60\n        /* \"@openzeppelin/contracts/utils/Address.sol\":7735:7742  success */\n      dup4\n        /* \"@openzeppelin/contracts/utils/Address.sol\":7731:8297  if (success) {... */\n      iszero\n      tag_240\n      jumpi\n        /* \"@openzeppelin/contracts/utils/Address.sol\":7765:7775  returndata */\n      dup3\n        /* \"@openzeppelin/contracts/utils/Address.sol\":7758:7775  return returndata */\n      swap1\n      pop\n      jump(tag_239)\n        /* \"@openzeppelin/contracts/utils/Address.sol\":7731:8297  if (success) {... */\n    tag_240:\n        /* \"@openzeppelin/contracts/utils/Address.sol\":7896:7897  0 */\n      0x00\n        /* \"@openzeppelin/contracts/utils/Address.sol\":7876:7886  returndata */\n      dup4\n        /* \"@openzeppelin/contracts/utils/Address.sol\":7876:7893  returndata.length */\n      mload\n        /* \"@openzeppelin/contracts/utils/Address.sol\":7876:7897  returndata.length > 0 */\n      gt\n        /* \"@openzeppelin/contracts/utils/Address.sol\":7872:8287  if (returndata.length > 0) {... */\n      iszero\n      tag_242\n      jumpi\n        /* \"@openzeppelin/contracts/utils/Address.sol\":8120:8130  returndata */\n      dup3\n        /* \"@openzeppelin/contracts/utils/Address.sol\":8114:8131  mload(returndata) */\n      mload\n        /* \"@openzeppelin/contracts/utils/Address.sol\":8180:8195  returndata_size */\n      dup1\n        /* \"@openzeppelin/contracts/utils/Address.sol\":8167:8177  returndata */\n      dup5\n        /* \"@openzeppelin/contracts/utils/Address.sol\":8163:8165  32 */\n      0x20\n        /* \"@openzeppelin/contracts/utils/Address.sol\":8159:8178  add(32, returndata) */\n      add\n        /* \"@openzeppelin/contracts/utils/Address.sol\":8152:8196  revert(add(32, returndata), returndata_size) */\n      revert\n        /* \"@openzeppelin/contracts/utils/Address.sol\":8069:8214  {... */\n    tag_242:\n        /* \"@openzeppelin/contracts/utils/Address.sol\":8259:8271  errorMessage */\n      dup2\n        /* \"@openzeppelin/contracts/utils/Address.sol\":8252:8272  revert(errorMessage) */\n      mload(0x40)\n      0x08c379a000000000000000000000000000000000000000000000000000000000\n      dup2\n      mstore\n      0x04\n      add\n      tag_244\n      swap2\n      swap1\n      tag_245\n      jump\t// in\n    tag_244:\n      mload(0x40)\n      dup1\n      swap2\n      sub\n      swap1\n      revert\n        /* \"@openzeppelin/contracts/utils/Address.sol\":7561:8303  function verifyCallResult(... */\n    tag_239:\n      swap4\n      swap3\n      pop\n      pop\n      pop\n      jump\t// out\n        /* \"#utility.yul\":7:350   */\n    tag_247:\n        /* \"#utility.yul\":84:89   */\n      0x00\n        /* \"#utility.yul\":109:174   */\n      tag_249\n        /* \"#utility.yul\":125:173   */\n      tag_250\n        /* \"#utility.yul\":166:172   */\n      dup5\n        /* \"#utility.yul\":125:173   */\n      tag_251\n      jump\t// in\n    tag_250:\n        /* \"#utility.yul\":109:174   */\n      tag_252\n      jump\t// in\n    tag_249:\n        /* \"#utility.yul\":100:174   */\n      swap1\n      pop\n        /* \"#utility.yul\":197:203   */\n      dup3\n        /* \"#utility.yul\":190:195   */\n      dup2\n        /* \"#utility.yul\":183:204   */\n      mstore\n        /* \"#utility.yul\":235:239   */\n      0x20\n        /* \"#utility.yul\":228:233   */\n      dup2\n        /* \"#utility.yul\":224:240   */\n      add\n        /* \"#utility.yul\":273:276   */\n      dup5\n        /* \"#utility.yul\":264:270   */\n      dup5\n        /* \"#utility.yul\":259:262   */\n      dup5\n        /* \"#utility.yul\":255:271   */\n      add\n        /* \"#utility.yul\":252:277   */\n      gt\n        /* \"#utility.yul\":249:251   */\n      iszero\n      tag_253\n      jumpi\n        /* \"#utility.yul\":290:291   */\n      0x00\n        /* \"#utility.yul\":287:288   */\n      dup1\n        /* \"#utility.yul\":280:292   */\n      revert\n        /* \"#utility.yul\":249:251   */\n    tag_253:\n        /* \"#utility.yul\":303:344   */\n      tag_254\n        /* \"#utility.yul\":337:343   */\n      dup5\n        /* \"#utility.yul\":332:335   */\n      dup3\n        /* \"#utility.yul\":327:330   */\n      dup6\n        /* \"#utility.yul\":303:344   */\n      tag_255\n      jump\t// in\n    tag_254:\n        /* \"#utility.yul\":90:350   */\n      pop\n      swap4\n      swap3\n      pop\n      pop\n      pop\n      jump\t// out\n        /* \"#utility.yul\":356:495   */\n    tag_256:\n        /* \"#utility.yul\":402:407   */\n      0x00\n        /* \"#utility.yul\":440:446   */\n      dup2\n        /* \"#utility.yul\":427:447   */\n      calldataload\n        /* \"#utility.yul\":418:447   */\n      swap1\n      pop\n        /* \"#utility.yul\":456:489   */\n      tag_258\n        /* \"#utility.yul\":483:488   */\n      dup2\n        /* \"#utility.yul\":456:489   */\n      tag_259\n      jump\t// in\n    tag_258:\n        /* \"#utility.yul\":408:495   */\n      swap3\n      swap2\n      pop\n      pop\n      jump\t// out\n        /* \"#utility.yul\":501:660   */\n    tag_260:\n        /* \"#utility.yul\":566:571   */\n      0x00\n        /* \"#utility.yul\":597:603   */\n      dup2\n        /* \"#utility.yul\":591:604   */\n      mload\n        /* \"#utility.yul\":582:604   */\n      swap1\n      pop\n        /* \"#utility.yul\":613:654   */\n      tag_262\n        /* \"#utility.yul\":648:653   */\n      dup2\n        /* \"#utility.yul\":613:654   */\n      tag_263\n      jump\t// in\n    tag_262:\n        /* \"#utility.yul\":572:660   */\n      swap3\n      swap2\n      pop\n      pop\n      jump\t// out\n        /* \"#utility.yul\":666:803   */\n    tag_264:\n        /* \"#utility.yul\":720:725   */\n      0x00\n        /* \"#utility.yul\":751:757   */\n      dup2\n        /* \"#utility.yul\":745:758   */\n      mload\n        /* \"#utility.yul\":736:758   */\n      swap1\n      pop\n        /* \"#utility.yul\":767:797   */\n      tag_266\n        /* \"#utility.yul\":791:796   */\n      dup2\n        /* \"#utility.yul\":767:797   */\n      tag_267\n      jump\t// in\n    tag_266:\n        /* \"#utility.yul\":726:803   */\n      swap3\n      swap2\n      pop\n      pop\n      jump\t// out\n        /* \"#utility.yul\":822:1093   */\n    tag_268:\n        /* \"#utility.yul\":877:882   */\n      0x00\n        /* \"#utility.yul\":926:929   */\n      dup3\n        /* \"#utility.yul\":919:923   */\n      0x1f\n        /* \"#utility.yul\":911:917   */\n      dup4\n        /* \"#utility.yul\":907:924   */\n      add\n        /* \"#utility.yul\":903:930   */\n      slt\n        /* \"#utility.yul\":893:895   */\n      tag_270\n      jumpi\n        /* \"#utility.yul\":944:945   */\n      0x00\n        /* \"#utility.yul\":941:942   */\n      dup1\n        /* \"#utility.yul\":934:946   */\n      revert\n        /* \"#utility.yul\":893:895   */\n    tag_270:\n        /* \"#utility.yul\":984:990   */\n      dup2\n        /* \"#utility.yul\":971:991   */\n      calldataload\n        /* \"#utility.yul\":1009:1087   */\n      tag_271\n        /* \"#utility.yul\":1083:1086   */\n      dup5\n        /* \"#utility.yul\":1075:1081   */\n      dup3\n        /* \"#utility.yul\":1068:1072   */\n      0x20\n        /* \"#utility.yul\":1060:1066   */\n      dup7\n        /* \"#utility.yul\":1056:1073   */\n      add\n        /* \"#utility.yul\":1009:1087   */\n      tag_247\n      jump\t// in\n    tag_271:\n        /* \"#utility.yul\":1000:1087   */\n      swap2\n      pop\n        /* \"#utility.yul\":883:1093   */\n      pop\n      swap3\n      swap2\n      pop\n      pop\n      jump\t// out\n        /* \"#utility.yul\":1140:2323   */\n    tag_272:\n        /* \"#utility.yul\":1218:1223   */\n      0x00\n        /* \"#utility.yul\":1262:1266   */\n      0xc0\n        /* \"#utility.yul\":1250:1259   */\n      dup3\n        /* \"#utility.yul\":1245:1248   */\n      dup5\n        /* \"#utility.yul\":1241:1260   */\n      sub\n        /* \"#utility.yul\":1237:1267   */\n      slt\n        /* \"#utility.yul\":1234:1236   */\n      iszero\n      tag_274\n      jumpi\n        /* \"#utility.yul\":1280:1281   */\n      0x00\n        /* \"#utility.yul\":1277:1278   */\n      dup1\n        /* \"#utility.yul\":1270:1282   */\n      revert\n        /* \"#utility.yul\":1234:1236   */\n    tag_274:\n        /* \"#utility.yul\":1302:1323   */\n      tag_275\n        /* \"#utility.yul\":1318:1322   */\n      0xc0\n        /* \"#utility.yul\":1302:1323   */\n      tag_252\n      jump\t// in\n    tag_275:\n        /* \"#utility.yul\":1293:1323   */\n      swap1\n      pop\n        /* \"#utility.yul\":1381:1382   */\n      0x00\n        /* \"#utility.yul\":1421:1470   */\n      tag_276\n        /* \"#utility.yul\":1466:1469   */\n      dup5\n        /* \"#utility.yul\":1457:1463   */\n      dup3\n        /* \"#utility.yul\":1446:1455   */\n      dup6\n        /* \"#utility.yul\":1442:1464   */\n      add\n        /* \"#utility.yul\":1421:1470   */\n      tag_277\n      jump\t// in\n    tag_276:\n        /* \"#utility.yul\":1414:1418   */\n      0x00\n        /* \"#utility.yul\":1407:1412   */\n      dup4\n        /* \"#utility.yul\":1403:1419   */\n      add\n        /* \"#utility.yul\":1396:1471   */\n      mstore\n        /* \"#utility.yul\":1333:1482   */\n      pop\n        /* \"#utility.yul\":1546:1548   */\n      0x20\n        /* \"#utility.yul\":1587:1636   */\n      tag_278\n        /* \"#utility.yul\":1632:1635   */\n      dup5\n        /* \"#utility.yul\":1623:1629   */\n      dup3\n        /* \"#utility.yul\":1612:1621   */\n      dup6\n        /* \"#utility.yul\":1608:1630   */\n      add\n        /* \"#utility.yul\":1587:1636   */\n      tag_256\n      jump\t// in\n    tag_278:\n        /* \"#utility.yul\":1580:1584   */\n      0x20\n        /* \"#utility.yul\":1573:1578   */\n      dup4\n        /* \"#utility.yul\":1569:1585   */\n      add\n        /* \"#utility.yul\":1562:1637   */\n      mstore\n        /* \"#utility.yul\":1492:1648   */\n      pop\n        /* \"#utility.yul\":1710:1712   */\n      0x40\n        /* \"#utility.yul\":1751:1800   */\n      tag_279\n        /* \"#utility.yul\":1796:1799   */\n      dup5\n        /* \"#utility.yul\":1787:1793   */\n      dup3\n        /* \"#utility.yul\":1776:1785   */\n      dup6\n        /* \"#utility.yul\":1772:1794   */\n      add\n        /* \"#utility.yul\":1751:1800   */\n      tag_256\n      jump\t// in\n    tag_279:\n        /* \"#utility.yul\":1744:1748   */\n      0x40\n        /* \"#utility.yul\":1737:1742   */\n      dup4\n        /* \"#utility.yul\":1733:1749   */\n      add\n        /* \"#utility.yul\":1726:1801   */\n      mstore\n        /* \"#utility.yul\":1658:1812   */\n      pop\n        /* \"#utility.yul\":1877:1879   */\n      0x60\n        /* \"#utility.yul\":1918:1966   */\n      tag_280\n        /* \"#utility.yul\":1962:1965   */\n      dup5\n        /* \"#utility.yul\":1953:1959   */\n      dup3\n        /* \"#utility.yul\":1942:1951   */\n      dup6\n        /* \"#utility.yul\":1938:1960   */\n      add\n        /* \"#utility.yul\":1918:1966   */\n      tag_281\n      jump\t// in\n    tag_280:\n        /* \"#utility.yul\":1911:1915   */\n      0x60\n        /* \"#utility.yul\":1904:1909   */\n      dup4\n        /* \"#utility.yul\":1900:1916   */\n      add\n        /* \"#utility.yul\":1893:1967   */\n      mstore\n        /* \"#utility.yul\":1822:1978   */\n      pop\n        /* \"#utility.yul\":2035:2038   */\n      0x80\n        /* \"#utility.yul\":2077:2126   */\n      tag_282\n        /* \"#utility.yul\":2122:2125   */\n      dup5\n        /* \"#utility.yul\":2113:2119   */\n      dup3\n        /* \"#utility.yul\":2102:2111   */\n      dup6\n        /* \"#utility.yul\":2098:2120   */\n      add\n        /* \"#utility.yul\":2077:2126   */\n      tag_256\n      jump\t// in\n    tag_282:\n        /* \"#utility.yul\":2070:2074   */\n      0x80\n        /* \"#utility.yul\":2063:2068   */\n      dup4\n        /* \"#utility.yul\":2059:2075   */\n      add\n        /* \"#utility.yul\":2052:2127   */\n      mstore\n        /* \"#utility.yul\":1988:2138   */\n      pop\n        /* \"#utility.yul\":2213:2216   */\n      0xa0\n        /* \"#utility.yul\":2255:2304   */\n      tag_283\n        /* \"#utility.yul\":2300:2303   */\n      dup5\n        /* \"#utility.yul\":2291:2297   */\n      dup3\n        /* \"#utility.yul\":2280:2289   */\n      dup6\n        /* \"#utility.yul\":2276:2298   */\n      add\n        /* \"#utility.yul\":2255:2304   */\n      tag_256\n      jump\t// in\n    tag_283:\n        /* \"#utility.yul\":2248:2252   */\n      0xa0\n        /* \"#utility.yul\":2241:2246   */\n      dup4\n        /* \"#utility.yul\":2237:2253   */\n      add\n        /* \"#utility.yul\":2230:2305   */\n      mstore\n        /* \"#utility.yul\":2148:2316   */\n      pop\n        /* \"#utility.yul\":1224:2323   */\n      swap3\n      swap2\n      pop\n      pop\n      jump\t// out\n        /* \"#utility.yul\":2329:2466   */\n    tag_281:\n        /* \"#utility.yul\":2374:2379   */\n      0x00\n        /* \"#utility.yul\":2412:2418   */\n      dup2\n        /* \"#utility.yul\":2399:2419   */\n      calldataload\n        /* \"#utility.yul\":2390:2419   */\n      swap1\n      pop\n        /* \"#utility.yul\":2428:2460   */\n      tag_285\n        /* \"#utility.yul\":2454:2459   */\n      dup2\n        /* \"#utility.yul\":2428:2460   */\n      tag_286\n      jump\t// in\n    tag_285:\n        /* \"#utility.yul\":2380:2466   */\n      swap3\n      swap2\n      pop\n      pop\n      jump\t// out\n        /* \"#utility.yul\":2472:2611   */\n    tag_277:\n        /* \"#utility.yul\":2518:2523   */\n      0x00\n        /* \"#utility.yul\":2556:2562   */\n      dup2\n        /* \"#utility.yul\":2543:2563   */\n      calldataload\n        /* \"#utility.yul\":2534:2563   */\n      swap1\n      pop\n        /* \"#utility.yul\":2572:2605   */\n      tag_288\n        /* \"#utility.yul\":2599:2604   */\n      dup2\n        /* \"#utility.yul\":2572:2605   */\n      tag_289\n      jump\t// in\n    tag_288:\n        /* \"#utility.yul\":2524:2611   */\n      swap3\n      swap2\n      pop\n      pop\n      jump\t// out\n        /* \"#utility.yul\":2617:2760   */\n    tag_290:\n        /* \"#utility.yul\":2674:2679   */\n      0x00\n        /* \"#utility.yul\":2705:2711   */\n      dup2\n        /* \"#utility.yul\":2699:2712   */\n      mload\n        /* \"#utility.yul\":2690:2712   */\n      swap1\n      pop\n        /* \"#utility.yul\":2721:2754   */\n      tag_292\n        /* \"#utility.yul\":2748:2753   */\n      dup2\n        /* \"#utility.yul\":2721:2754   */\n      tag_289\n      jump\t// in\n    tag_292:\n        /* \"#utility.yul\":2680:2760   */\n      swap3\n      swap2\n      pop\n      pop\n      jump\t// out\n        /* \"#utility.yul\":2766:3028   */\n    tag_55:\n        /* \"#utility.yul\":2825:2831   */\n      0x00\n        /* \"#utility.yul\":2874:2876   */\n      0x20\n        /* \"#utility.yul\":2862:2871   */\n      dup3\n        /* \"#utility.yul\":2853:2860   */\n      dup5\n        /* \"#utility.yul\":2849:2872   */\n      sub\n        /* \"#utility.yul\":2845:2877   */\n      slt\n        /* \"#utility.yul\":2842:2844   */\n      iszero\n      tag_294\n      jumpi\n        /* \"#utility.yul\":2890:2891   */\n      0x00\n        /* \"#utility.yul\":2887:2888   */\n      dup1\n        /* \"#utility.yul\":2880:2892   */\n      revert\n        /* \"#utility.yul\":2842:2844   */\n    tag_294:\n        /* \"#utility.yul\":2933:2934   */\n      0x00\n        /* \"#utility.yul\":2958:3011   */\n      tag_295\n        /* \"#utility.yul\":3003:3010   */\n      dup5\n        /* \"#utility.yul\":2994:3000   */\n      dup3\n        /* \"#utility.yul\":2983:2992   */\n      dup6\n        /* \"#utility.yul\":2979:3001   */\n      add\n        /* \"#utility.yul\":2958:3011   */\n      tag_256\n      jump\t// in\n    tag_295:\n        /* \"#utility.yul\":2948:3011   */\n      swap2\n      pop\n        /* \"#utility.yul\":2904:3021   */\n      pop\n        /* \"#utility.yul\":2832:3028   */\n      swap3\n      swap2\n      pop\n      pop\n      jump\t// out\n        /* \"#utility.yul\":3034:3334   */\n    tag_162:\n        /* \"#utility.yul\":3112:3118   */\n      0x00\n        /* \"#utility.yul\":3161:3163   */\n      0x20\n        /* \"#utility.yul\":3149:3158   */\n      dup3\n        /* \"#utility.yul\":3140:3147   */\n      dup5\n        /* \"#utility.yul\":3136:3159   */\n      sub\n        /* \"#utility.yul\":3132:3164   */\n      slt\n        /* \"#utility.yul\":3129:3131   */\n      iszero\n      tag_297\n      jumpi\n        /* \"#utility.yul\":3177:3178   */\n      0x00\n        /* \"#utility.yul\":3174:3175   */\n      dup1\n        /* \"#utility.yul\":3167:3179   */\n      revert\n        /* \"#utility.yul\":3129:3131   */\n    tag_297:\n        /* \"#utility.yul\":3220:3221   */\n      0x00\n        /* \"#utility.yul\":3245:3317   */\n      tag_298\n        /* \"#utility.yul\":3309:3316   */\n      dup5\n        /* \"#utility.yul\":3300:3306   */\n      dup3\n        /* \"#utility.yul\":3289:3298   */\n      dup6\n        /* \"#utility.yul\":3285:3307   */\n      add\n        /* \"#utility.yul\":3245:3317   */\n      tag_260\n      jump\t// in\n    tag_298:\n        /* \"#utility.yul\":3235:3317   */\n      swap2\n      pop\n        /* \"#utility.yul\":3191:3327   */\n      pop\n        /* \"#utility.yul\":3119:3334   */\n      swap3\n      swap2\n      pop\n      pop\n      jump\t// out\n        /* \"#utility.yul\":3340:3892   */\n    tag_73:\n        /* \"#utility.yul\":3417:3423   */\n      0x00\n        /* \"#utility.yul\":3425:3431   */\n      dup1\n        /* \"#utility.yul\":3433:3439   */\n      0x00\n        /* \"#utility.yul\":3482:3484   */\n      0x60\n        /* \"#utility.yul\":3470:3479   */\n      dup5\n        /* \"#utility.yul\":3461:3468   */\n      dup7\n        /* \"#utility.yul\":3457:3480   */\n      sub\n        /* \"#utility.yul\":3453:3485   */\n      slt\n        /* \"#utility.yul\":3450:3452   */\n      iszero\n      tag_300\n      jumpi\n        /* \"#utility.yul\":3498:3499   */\n      0x00\n        /* \"#utility.yul\":3495:3496   */\n      dup1\n        /* \"#utility.yul\":3488:3500   */\n      revert\n        /* \"#utility.yul\":3450:3452   */\n    tag_300:\n        /* \"#utility.yul\":3541:3542   */\n      0x00\n        /* \"#utility.yul\":3566:3619   */\n      tag_301\n        /* \"#utility.yul\":3611:3618   */\n      dup7\n        /* \"#utility.yul\":3602:3608   */\n      dup3\n        /* \"#utility.yul\":3591:3600   */\n      dup8\n        /* \"#utility.yul\":3587:3609   */\n      add\n        /* \"#utility.yul\":3566:3619   */\n      tag_256\n      jump\t// in\n    tag_301:\n        /* \"#utility.yul\":3556:3619   */\n      swap4\n      pop\n        /* \"#utility.yul\":3512:3629   */\n      pop\n        /* \"#utility.yul\":3668:3670   */\n      0x20\n        /* \"#utility.yul\":3694:3747   */\n      tag_302\n        /* \"#utility.yul\":3739:3746   */\n      dup7\n        /* \"#utility.yul\":3730:3736   */\n      dup3\n        /* \"#utility.yul\":3719:3728   */\n      dup8\n        /* \"#utility.yul\":3715:3737   */\n      add\n        /* \"#utility.yul\":3694:3747   */\n      tag_256\n      jump\t// in\n    tag_302:\n        /* \"#utility.yul\":3684:3747   */\n      swap3\n      pop\n        /* \"#utility.yul\":3639:3757   */\n      pop\n        /* \"#utility.yul\":3796:3798   */\n      0x40\n        /* \"#utility.yul\":3822:3875   */\n      tag_303\n        /* \"#utility.yul\":3867:3874   */\n      dup7\n        /* \"#utility.yul\":3858:3864   */\n      dup3\n        /* \"#utility.yul\":3847:3856   */\n      dup8\n        /* \"#utility.yul\":3843:3865   */\n      add\n        /* \"#utility.yul\":3822:3875   */\n      tag_277\n      jump\t// in\n    tag_303:\n        /* \"#utility.yul\":3812:3875   */\n      swap2\n      pop\n        /* \"#utility.yul\":3767:3885   */\n      pop\n        /* \"#utility.yul\":3440:3892   */\n      swap3\n      pop\n      swap3\n      pop\n      swap3\n      jump\t// out\n        /* \"#utility.yul\":3898:4303   */\n    tag_50:\n        /* \"#utility.yul\":3965:3971   */\n      0x00\n        /* \"#utility.yul\":3973:3979   */\n      dup1\n        /* \"#utility.yul\":4022:4024   */\n      0x40\n        /* \"#utility.yul\":4010:4019   */\n      dup4\n        /* \"#utility.yul\":4001:4008   */\n      dup6\n        /* \"#utility.yul\":3997:4020   */\n      sub\n        /* \"#utility.yul\":3993:4025   */\n      slt\n        /* \"#utility.yul\":3990:3992   */\n      iszero\n      tag_305\n      jumpi\n        /* \"#utility.yul\":4038:4039   */\n      0x00\n        /* \"#utility.yul\":4035:4036   */\n      dup1\n        /* \"#utility.yul\":4028:4040   */\n      revert\n        /* \"#utility.yul\":3990:3992   */\n    tag_305:\n        /* \"#utility.yul\":4081:4082   */\n      0x00\n        /* \"#utility.yul\":4106:4159   */\n      tag_306\n        /* \"#utility.yul\":4151:4158   */\n      dup6\n        /* \"#utility.yul\":4142:4148   */\n      dup3\n        /* \"#utility.yul\":4131:4140   */\n      dup7\n        /* \"#utility.yul\":4127:4149   */\n      add\n        /* \"#utility.yul\":4106:4159   */\n      tag_256\n      jump\t// in\n    tag_306:\n        /* \"#utility.yul\":4096:4159   */\n      swap3\n      pop\n        /* \"#utility.yul\":4052:4169   */\n      pop\n        /* \"#utility.yul\":4208:4210   */\n      0x20\n        /* \"#utility.yul\":4234:4286   */\n      tag_307\n        /* \"#utility.yul\":4278:4285   */\n      dup6\n        /* \"#utility.yul\":4269:4275   */\n      dup3\n        /* \"#utility.yul\":4258:4267   */\n      dup7\n        /* \"#utility.yul\":4254:4276   */\n      add\n        /* \"#utility.yul\":4234:4286   */\n      tag_281\n      jump\t// in\n    tag_307:\n        /* \"#utility.yul\":4224:4286   */\n      swap2\n      pop\n        /* \"#utility.yul\":4179:4296   */\n      pop\n        /* \"#utility.yul\":3980:4303   */\n      swap3\n      pop\n      swap3\n      swap1\n      pop\n      jump\t// out\n        /* \"#utility.yul\":4309:4587   */\n    tag_169:\n        /* \"#utility.yul\":4376:4382   */\n      0x00\n        /* \"#utility.yul\":4425:4427   */\n      0x20\n        /* \"#utility.yul\":4413:4422   */\n      dup3\n        /* \"#utility.yul\":4404:4411   */\n      dup5\n        /* \"#utility.yul\":4400:4423   */\n      sub\n        /* \"#utility.yul\":4396:4428   */\n      slt\n        /* \"#utility.yul\":4393:4395   */\n      iszero\n      tag_309\n      jumpi\n        /* \"#utility.yul\":4441:4442   */\n      0x00\n        /* \"#utility.yul\":4438:4439   */\n      dup1\n        /* \"#utility.yul\":4431:4443   */\n      revert\n        /* \"#utility.yul\":4393:4395   */\n    tag_309:\n        /* \"#utility.yul\":4484:4485   */\n      0x00\n        /* \"#utility.yul\":4509:4570   */\n      tag_310\n        /* \"#utility.yul\":4562:4569   */\n      dup5\n        /* \"#utility.yul\":4553:4559   */\n      dup3\n        /* \"#utility.yul\":4542:4551   */\n      dup6\n        /* \"#utility.yul\":4538:4560   */\n      add\n        /* \"#utility.yul\":4509:4570   */\n      tag_264\n      jump\t// in\n    tag_310:\n        /* \"#utility.yul\":4499:4570   */\n      swap2\n      pop\n        /* \"#utility.yul\":4455:4580   */\n      pop\n        /* \"#utility.yul\":4383:4587   */\n      swap3\n      swap2\n      pop\n      pop\n      jump\t// out\n        /* \"#utility.yul\":4593:4914   */\n    tag_19:\n        /* \"#utility.yul\":4681:4687   */\n      0x00\n        /* \"#utility.yul\":4730:4733   */\n      0xc0\n        /* \"#utility.yul\":4718:4727   */\n      dup3\n        /* \"#utility.yul\":4709:4716   */\n      dup5\n        /* \"#utility.yul\":4705:4728   */\n      sub\n        /* \"#utility.yul\":4701:4734   */\n      slt\n        /* \"#utility.yul\":4698:4700   */\n      iszero\n      tag_312\n      jumpi\n        /* \"#utility.yul\":4747:4748   */\n      0x00\n        /* \"#utility.yul\":4744:4745   */\n      dup1\n        /* \"#utility.yul\":4737:4749   */\n      revert\n        /* \"#utility.yul\":4698:4700   */\n    tag_312:\n        /* \"#utility.yul\":4790:4791   */\n      0x00\n        /* \"#utility.yul\":4815:4897   */\n      tag_313\n        /* \"#utility.yul\":4889:4896   */\n      dup5\n        /* \"#utility.yul\":4880:4886   */\n      dup3\n        /* \"#utility.yul\":4869:4878   */\n      dup6\n        /* \"#utility.yul\":4865:4887   */\n      add\n        /* \"#utility.yul\":4815:4897   */\n      tag_272\n      jump\t// in\n    tag_313:\n        /* \"#utility.yul\":4805:4897   */\n      swap2\n      pop\n        /* \"#utility.yul\":4761:4907   */\n      pop\n        /* \"#utility.yul\":4688:4914   */\n      swap3\n      swap2\n      pop\n      pop\n      jump\t// out\n        /* \"#utility.yul\":4920:5325   */\n    tag_43:\n        /* \"#utility.yul\":4987:4993   */\n      0x00\n        /* \"#utility.yul\":4995:5001   */\n      dup1\n        /* \"#utility.yul\":5044:5046   */\n      0x40\n        /* \"#utility.yul\":5032:5041   */\n      dup4\n        /* \"#utility.yul\":5023:5030   */\n      dup6\n        /* \"#utility.yul\":5019:5042   */\n      sub\n        /* \"#utility.yul\":5015:5047   */\n      slt\n        /* \"#utility.yul\":5012:5014   */\n      iszero\n      tag_315\n      jumpi\n        /* \"#utility.yul\":5060:5061   */\n      0x00\n        /* \"#utility.yul\":5057:5058   */\n      dup1\n        /* \"#utility.yul\":5050:5062   */\n      revert\n        /* \"#utility.yul\":5012:5014   */\n    tag_315:\n        /* \"#utility.yul\":5103:5104   */\n      0x00\n        /* \"#utility.yul\":5128:5180   */\n      tag_316\n        /* \"#utility.yul\":5172:5179   */\n      dup6\n        /* \"#utility.yul\":5163:5169   */\n      dup3\n        /* \"#utility.yul\":5152:5161   */\n      dup7\n        /* \"#utility.yul\":5148:5170   */\n      add\n        /* \"#utility.yul\":5128:5180   */\n      tag_281\n      jump\t// in\n    tag_316:\n        /* \"#utility.yul\":5118:5180   */\n      swap3\n      pop\n        /* \"#utility.yul\":5074:5190   */\n      pop\n        /* \"#utility.yul\":5229:5231   */\n      0x20\n        /* \"#utility.yul\":5255:5308   */\n      tag_317\n        /* \"#utility.yul\":5300:5307   */\n      dup6\n        /* \"#utility.yul\":5291:5297   */\n      dup3\n        /* \"#utility.yul\":5280:5289   */\n      dup7\n        /* \"#utility.yul\":5276:5298   */\n      add\n        /* \"#utility.yul\":5255:5308   */\n      tag_256\n      jump\t// in\n    tag_317:\n        /* \"#utility.yul\":5245:5308   */\n      swap2\n      pop\n        /* \"#utility.yul\":5200:5318   */\n      pop\n        /* \"#utility.yul\":5002:5325   */\n      swap3\n      pop\n      swap3\n      swap1\n      pop\n      jump\t// out\n        /* \"#utility.yul\":5331:5881   */\n    tag_36:\n        /* \"#utility.yul\":5407:5413   */\n      0x00\n        /* \"#utility.yul\":5415:5421   */\n      dup1\n        /* \"#utility.yul\":5423:5429   */\n      0x00\n        /* \"#utility.yul\":5472:5474   */\n      0x60\n        /* \"#utility.yul\":5460:5469   */\n      dup5\n        /* \"#utility.yul\":5451:5458   */\n      dup7\n        /* \"#utility.yul\":5447:5470   */\n      sub\n        /* \"#utility.yul\":5443:5475   */\n      slt\n        /* \"#utility.yul\":5440:5442   */\n      iszero\n      tag_319\n      jumpi\n        /* \"#utility.yul\":5488:5489   */\n      0x00\n        /* \"#utility.yul\":5485:5486   */\n      dup1\n        /* \"#utility.yul\":5478:5490   */\n      revert\n        /* \"#utility.yul\":5440:5442   */\n    tag_319:\n        /* \"#utility.yul\":5531:5532   */\n      0x00\n        /* \"#utility.yul\":5556:5608   */\n      tag_320\n        /* \"#utility.yul\":5600:5607   */\n      dup7\n        /* \"#utility.yul\":5591:5597   */\n      dup3\n        /* \"#utility.yul\":5580:5589   */\n      dup8\n        /* \"#utility.yul\":5576:5598   */\n      add\n        /* \"#utility.yul\":5556:5608   */\n      tag_281\n      jump\t// in\n    tag_320:\n        /* \"#utility.yul\":5546:5608   */\n      swap4\n      pop\n        /* \"#utility.yul\":5502:5618   */\n      pop\n        /* \"#utility.yul\":5657:5659   */\n      0x20\n        /* \"#utility.yul\":5683:5736   */\n      tag_321\n        /* \"#utility.yul\":5728:5735   */\n      dup7\n        /* \"#utility.yul\":5719:5725   */\n      dup3\n        /* \"#utility.yul\":5708:5717   */\n      dup8\n        /* \"#utility.yul\":5704:5726   */\n      add\n        /* \"#utility.yul\":5683:5736   */\n      tag_256\n      jump\t// in\n    tag_321:\n        /* \"#utility.yul\":5673:5736   */\n      swap3\n      pop\n        /* \"#utility.yul\":5628:5746   */\n      pop\n        /* \"#utility.yul\":5785:5787   */\n      0x40\n        /* \"#utility.yul\":5811:5864   */\n      tag_322\n        /* \"#utility.yul\":5856:5863   */\n      dup7\n        /* \"#utility.yul\":5847:5853   */\n      dup3\n        /* \"#utility.yul\":5836:5845   */\n      dup8\n        /* \"#utility.yul\":5832:5854   */\n      add\n        /* \"#utility.yul\":5811:5864   */\n      tag_256\n      jump\t// in\n    tag_322:\n        /* \"#utility.yul\":5801:5864   */\n      swap2\n      pop\n        /* \"#utility.yul\":5756:5874   */\n      pop\n        /* \"#utility.yul\":5430:5881   */\n      swap3\n      pop\n      swap3\n      pop\n      swap3\n      jump\t// out\n        /* \"#utility.yul\":5887:6435   */\n    tag_29:\n        /* \"#utility.yul\":5962:5968   */\n      0x00\n        /* \"#utility.yul\":5970:5976   */\n      dup1\n        /* \"#utility.yul\":5978:5984   */\n      0x00\n        /* \"#utility.yul\":6027:6029   */\n      0x60\n        /* \"#utility.yul\":6015:6024   */\n      dup5\n        /* \"#utility.yul\":6006:6013   */\n      dup7\n        /* \"#utility.yul\":6002:6025   */\n      sub\n        /* \"#utility.yul\":5998:6030   */\n      slt\n        /* \"#utility.yul\":5995:5997   */\n      iszero\n      tag_324\n      jumpi\n        /* \"#utility.yul\":6043:6044   */\n      0x00\n        /* \"#utility.yul\":6040:6041   */\n      dup1\n        /* \"#utility.yul\":6033:6045   */\n      revert\n        /* \"#utility.yul\":5995:5997   */\n    tag_324:\n        /* \"#utility.yul\":6086:6087   */\n      0x00\n        /* \"#utility.yul\":6111:6163   */\n      tag_325\n        /* \"#utility.yul\":6155:6162   */\n      dup7\n        /* \"#utility.yul\":6146:6152   */\n      dup3\n        /* \"#utility.yul\":6135:6144   */\n      dup8\n        /* \"#utility.yul\":6131:6153   */\n      add\n        /* \"#utility.yul\":6111:6163   */\n      tag_281\n      jump\t// in\n    tag_325:\n        /* \"#utility.yul\":6101:6163   */\n      swap4\n      pop\n        /* \"#utility.yul\":6057:6173   */\n      pop\n        /* \"#utility.yul\":6212:6214   */\n      0x20\n        /* \"#utility.yul\":6238:6291   */\n      tag_326\n        /* \"#utility.yul\":6283:6290   */\n      dup7\n        /* \"#utility.yul\":6274:6280   */\n      dup3\n        /* \"#utility.yul\":6263:6272   */\n      dup8\n        /* \"#utility.yul\":6259:6281   */\n      add\n        /* \"#utility.yul\":6238:6291   */\n      tag_256\n      jump\t// in\n    tag_326:\n        /* \"#utility.yul\":6228:6291   */\n      swap3\n      pop\n        /* \"#utility.yul\":6183:6301   */\n      pop\n        /* \"#utility.yul\":6340:6342   */\n      0x40\n        /* \"#utility.yul\":6366:6418   */\n      tag_327\n        /* \"#utility.yul\":6410:6417   */\n      dup7\n        /* \"#utility.yul\":6401:6407   */\n      dup3\n        /* \"#utility.yul\":6390:6399   */\n      dup8\n        /* \"#utility.yul\":6386:6408   */\n      add\n        /* \"#utility.yul\":6366:6418   */\n      tag_281\n      jump\t// in\n    tag_327:\n        /* \"#utility.yul\":6356:6418   */\n      swap2\n      pop\n        /* \"#utility.yul\":6311:6428   */\n      pop\n        /* \"#utility.yul\":5985:6435   */\n      swap3\n      pop\n      swap3\n      pop\n      swap3\n      jump\t// out\n        /* \"#utility.yul\":6441:7651   */\n    tag_65:\n        /* \"#utility.yul\":6562:6568   */\n      0x00\n        /* \"#utility.yul\":6570:6576   */\n      dup1\n        /* \"#utility.yul\":6578:6584   */\n      0x00\n        /* \"#utility.yul\":6586:6592   */\n      dup1\n        /* \"#utility.yul\":6594:6600   */\n      0x00\n        /* \"#utility.yul\":6602:6608   */\n      dup1\n        /* \"#utility.yul\":6651:6654   */\n      0xc0\n        /* \"#utility.yul\":6639:6648   */\n      dup8\n        /* \"#utility.yul\":6630:6637   */\n      dup10\n        /* \"#utility.yul\":6626:6649   */\n      sub\n        /* \"#utility.yul\":6622:6655   */\n      slt\n        /* \"#utility.yul\":6619:6621   */\n      iszero\n      tag_329\n      jumpi\n        /* \"#utility.yul\":6668:6669   */\n      0x00\n        /* \"#utility.yul\":6665:6666   */\n      dup1\n        /* \"#utility.yul\":6658:6670   */\n      revert\n        /* \"#utility.yul\":6619:6621   */\n    tag_329:\n        /* \"#utility.yul\":6711:6712   */\n      0x00\n        /* \"#utility.yul\":6736:6788   */\n      tag_330\n        /* \"#utility.yul\":6780:6787   */\n      dup10\n        /* \"#utility.yul\":6771:6777   */\n      dup3\n        /* \"#utility.yul\":6760:6769   */\n      dup11\n        /* \"#utility.yul\":6756:6778   */\n      add\n        /* \"#utility.yul\":6736:6788   */\n      tag_281\n      jump\t// in\n    tag_330:\n        /* \"#utility.yul\":6726:6788   */\n      swap7\n      pop\n        /* \"#utility.yul\":6682:6798   */\n      pop\n        /* \"#utility.yul\":6865:6867   */\n      0x20\n        /* \"#utility.yul\":6854:6863   */\n      dup8\n        /* \"#utility.yul\":6850:6868   */\n      add\n        /* \"#utility.yul\":6837:6869   */\n      calldataload\n        /* \"#utility.yul\":6896:6914   */\n      0xffffffffffffffff\n        /* \"#utility.yul\":6888:6894   */\n      dup2\n        /* \"#utility.yul\":6885:6915   */\n      gt\n        /* \"#utility.yul\":6882:6884   */\n      iszero\n      tag_331\n      jumpi\n        /* \"#utility.yul\":6928:6929   */\n      0x00\n        /* \"#utility.yul\":6925:6926   */\n      dup1\n        /* \"#utility.yul\":6918:6930   */\n      revert\n        /* \"#utility.yul\":6882:6884   */\n    tag_331:\n        /* \"#utility.yul\":6956:7018   */\n      tag_332\n        /* \"#utility.yul\":7010:7017   */\n      dup10\n        /* \"#utility.yul\":7001:7007   */\n      dup3\n        /* \"#utility.yul\":6990:6999   */\n      dup11\n        /* \"#utility.yul\":6986:7008   */\n      add\n        /* \"#utility.yul\":6956:7018   */\n      tag_268\n      jump\t// in\n    tag_332:\n        /* \"#utility.yul\":6946:7018   */\n      swap6\n      pop\n        /* \"#utility.yul\":6808:7028   */\n      pop\n        /* \"#utility.yul\":7067:7069   */\n      0x40\n        /* \"#utility.yul\":7093:7146   */\n      tag_333\n        /* \"#utility.yul\":7138:7145   */\n      dup10\n        /* \"#utility.yul\":7129:7135   */\n      dup3\n        /* \"#utility.yul\":7118:7127   */\n      dup11\n        /* \"#utility.yul\":7114:7136   */\n      add\n        /* \"#utility.yul\":7093:7146   */\n      tag_277\n      jump\t// in\n    tag_333:\n        /* \"#utility.yul\":7083:7146   */\n      swap5\n      pop\n        /* \"#utility.yul\":7038:7156   */\n      pop\n        /* \"#utility.yul\":7195:7197   */\n      0x60\n        /* \"#utility.yul\":7221:7274   */\n      tag_334\n        /* \"#utility.yul\":7266:7273   */\n      dup10\n        /* \"#utility.yul\":7257:7263   */\n      dup3\n        /* \"#utility.yul\":7246:7255   */\n      dup11\n        /* \"#utility.yul\":7242:7264   */\n      add\n        /* \"#utility.yul\":7221:7274   */\n      tag_256\n      jump\t// in\n    tag_334:\n        /* \"#utility.yul\":7211:7274   */\n      swap4\n      pop\n        /* \"#utility.yul\":7166:7284   */\n      pop\n        /* \"#utility.yul\":7323:7326   */\n      0x80\n        /* \"#utility.yul\":7350:7403   */\n      tag_335\n        /* \"#utility.yul\":7395:7402   */\n      dup10\n        /* \"#utility.yul\":7386:7392   */\n      dup3\n        /* \"#utility.yul\":7375:7384   */\n      dup11\n        /* \"#utility.yul\":7371:7393   */\n      add\n        /* \"#utility.yul\":7350:7403   */\n      tag_277\n      jump\t// in\n    tag_335:\n        /* \"#utility.yul\":7340:7403   */\n      swap3\n      pop\n        /* \"#utility.yul\":7294:7413   */\n      pop\n        /* \"#utility.yul\":7480:7483   */\n      0xa0\n        /* \"#utility.yul\":7469:7478   */\n      dup8\n        /* \"#utility.yul\":7465:7484   */\n      add\n        /* \"#utility.yul\":7452:7485   */\n      calldataload\n        /* \"#utility.yul\":7512:7530   */\n      0xffffffffffffffff\n        /* \"#utility.yul\":7504:7510   */\n      dup2\n        /* \"#utility.yul\":7501:7531   */\n      gt\n        /* \"#utility.yul\":7498:7500   */\n      iszero\n      tag_336\n      jumpi\n        /* \"#utility.yul\":7544:7545   */\n      0x00\n        /* \"#utility.yul\":7541:7542   */\n      dup1\n        /* \"#utility.yul\":7534:7546   */\n      revert\n        /* \"#utility.yul\":7498:7500   */\n    tag_336:\n        /* \"#utility.yul\":7572:7634   */\n      tag_337\n        /* \"#utility.yul\":7626:7633   */\n      dup10\n        /* \"#utility.yul\":7617:7623   */\n      dup3\n        /* \"#utility.yul\":7606:7615   */\n      dup11\n        /* \"#utility.yul\":7602:7624   */\n      add\n        /* \"#utility.yul\":7572:7634   */\n      tag_268\n      jump\t// in\n    tag_337:\n        /* \"#utility.yul\":7562:7634   */\n      swap2\n      pop\n        /* \"#utility.yul\":7423:7644   */\n      pop\n        /* \"#utility.yul\":6609:7651   */\n      swap3\n      swap6\n      pop\n      swap3\n      swap6\n      pop\n      swap3\n      swap6\n      jump\t// out\n        /* \"#utility.yul\":7657:7919   */\n    tag_24:\n        /* \"#utility.yul\":7716:7722   */\n      0x00\n        /* \"#utility.yul\":7765:7767   */\n      0x20\n        /* \"#utility.yul\":7753:7762   */\n      dup3\n        /* \"#utility.yul\":7744:7751   */\n      dup5\n        /* \"#utility.yul\":7740:7763   */\n      sub\n        /* \"#utility.yul\":7736:7768   */\n      slt\n        /* \"#utility.yul\":7733:7735   */\n      iszero\n      tag_339\n      jumpi\n        /* \"#utility.yul\":7781:7782   */\n      0x00\n        /* \"#utility.yul\":7778:7779   */\n      dup1\n        /* \"#utility.yul\":7771:7783   */\n      revert\n        /* \"#utility.yul\":7733:7735   */\n    tag_339:\n        /* \"#utility.yul\":7824:7825   */\n      0x00\n        /* \"#utility.yul\":7849:7902   */\n      tag_340\n        /* \"#utility.yul\":7894:7901   */\n      dup5\n        /* \"#utility.yul\":7885:7891   */\n      dup3\n        /* \"#utility.yul\":7874:7883   */\n      dup6\n        /* \"#utility.yul\":7870:7892   */\n      add\n        /* \"#utility.yul\":7849:7902   */\n      tag_277\n      jump\t// in\n    tag_340:\n        /* \"#utility.yul\":7839:7902   */\n      swap2\n      pop\n        /* \"#utility.yul\":7795:7912   */\n      pop\n        /* \"#utility.yul\":7723:7919   */\n      swap3\n      swap2\n      pop\n      pop\n      jump\t// out\n        /* \"#utility.yul\":7925:8209   */\n    tag_198:\n        /* \"#utility.yul\":7995:8001   */\n      0x00\n        /* \"#utility.yul\":8044:8046   */\n      0x20\n        /* \"#utility.yul\":8032:8041   */\n      dup3\n        /* \"#utility.yul\":8023:8030   */\n      dup5\n        /* \"#utility.yul\":8019:8042   */\n      sub\n        /* \"#utility.yul\":8015:8047   */\n      slt\n        /* \"#utility.yul\":8012:8014   */\n      iszero\n      tag_342\n      jumpi\n        /* \"#utility.yul\":8060:8061   */\n      0x00\n        /* \"#utility.yul\":8057:8058   */\n      dup1\n        /* \"#utility.yul\":8050:8062   */\n      revert\n        /* \"#utility.yul\":8012:8014   */\n    tag_342:\n        /* \"#utility.yul\":8103:8104   */\n      0x00\n        /* \"#utility.yul\":8128:8192   */\n      tag_343\n        /* \"#utility.yul\":8184:8191   */\n      dup5\n        /* \"#utility.yul\":8175:8181   */\n      dup3\n        /* \"#utility.yul\":8164:8173   */\n      dup6\n        /* \"#utility.yul\":8160:8182   */\n      add\n        /* \"#utility.yul\":8128:8192   */\n      tag_290\n      jump\t// in\n    tag_343:\n        /* \"#utility.yul\":8118:8192   */\n      swap2\n      pop\n        /* \"#utility.yul\":8074:8202   */\n      pop\n        /* \"#utility.yul\":8002:8209   */\n      swap3\n      swap2\n      pop\n      pop\n      jump\t// out\n        /* \"#utility.yul\":8215:8655   */\n    tag_124:\n        /* \"#utility.yul\":8294:8300   */\n      0x00\n        /* \"#utility.yul\":8302:8308   */\n      dup1\n        /* \"#utility.yul\":8351:8353   */\n      0x40\n        /* \"#utility.yul\":8339:8348   */\n      dup4\n        /* \"#utility.yul\":8330:8337   */\n      dup6\n        /* \"#utility.yul\":8326:8349   */\n      sub\n        /* \"#utility.yul\":8322:8354   */\n      slt\n        /* \"#utility.yul\":8319:8321   */\n      iszero\n      tag_345\n      jumpi\n        /* \"#utility.yul\":8367:8368   */\n      0x00\n        /* \"#utility.yul\":8364:8365   */\n      dup1\n        /* \"#utility.yul\":8357:8369   */\n      revert\n        /* \"#utility.yul\":8319:8321   */\n    tag_345:\n        /* \"#utility.yul\":8410:8411   */\n      0x00\n        /* \"#utility.yul\":8435:8499   */\n      tag_346\n        /* \"#utility.yul\":8491:8498   */\n      dup6\n        /* \"#utility.yul\":8482:8488   */\n      dup3\n        /* \"#utility.yul\":8471:8480   */\n      dup7\n        /* \"#utility.yul\":8467:8489   */\n      add\n        /* \"#utility.yul\":8435:8499   */\n      tag_290\n      jump\t// in\n    tag_346:\n        /* \"#utility.yul\":8425:8499   */\n      swap3\n      pop\n        /* \"#utility.yul\":8381:8509   */\n      pop\n        /* \"#utility.yul\":8548:8550   */\n      0x20\n        /* \"#utility.yul\":8574:8638   */\n      tag_347\n        /* \"#utility.yul\":8630:8637   */\n      dup6\n        /* \"#utility.yul\":8621:8627   */\n      dup3\n        /* \"#utility.yul\":8610:8619   */\n      dup7\n        /* \"#utility.yul\":8606:8628   */\n      add\n        /* \"#utility.yul\":8574:8638   */\n      tag_290\n      jump\t// in\n    tag_347:\n        /* \"#utility.yul\":8564:8638   */\n      swap2\n      pop\n        /* \"#utility.yul\":8519:8648   */\n      pop\n        /* \"#utility.yul\":8309:8655   */\n      swap3\n      pop\n      swap3\n      swap1\n      pop\n      jump\t// out\n        /* \"#utility.yul\":8661:8803   */\n    tag_348:\n        /* \"#utility.yul\":8764:8796   */\n      tag_350\n        /* \"#utility.yul\":8790:8795   */\n      dup2\n        /* \"#utility.yul\":8764:8796   */\n      tag_351\n      jump\t// in\n    tag_350:\n        /* \"#utility.yul\":8759:8762   */\n      dup3\n        /* \"#utility.yul\":8752:8797   */\n      mstore\n        /* \"#utility.yul\":8742:8803   */\n      pop\n      pop\n      jump\t// out\n        /* \"#utility.yul\":8809:8927   */\n    tag_352:\n        /* \"#utility.yul\":8896:8920   */\n      tag_354\n        /* \"#utility.yul\":8914:8919   */\n      dup2\n        /* \"#utility.yul\":8896:8920   */\n      tag_355\n      jump\t// in\n    tag_354:\n        /* \"#utility.yul\":8891:8894   */\n      dup3\n        /* \"#utility.yul\":8884:8921   */\n      mstore\n        /* \"#utility.yul\":8874:8927   */\n      pop\n      pop\n      jump\t// out\n        /* \"#utility.yul\":8933:9090   */\n    tag_356:\n        /* \"#utility.yul\":9038:9083   */\n      tag_358\n        /* \"#utility.yul\":9058:9082   */\n      tag_359\n        /* \"#utility.yul\":9076:9081   */\n      dup3\n        /* \"#utility.yul\":9058:9082   */\n      tag_355\n      jump\t// in\n    tag_359:\n        /* \"#utility.yul\":9038:9083   */\n      tag_360\n      jump\t// in\n    tag_358:\n        /* \"#utility.yul\":9033:9036   */\n      dup3\n        /* \"#utility.yul\":9026:9084   */\n      mstore\n        /* \"#utility.yul\":9016:9090   */\n      pop\n      pop\n      jump\t// out\n        /* \"#utility.yul\":9096:9205   */\n    tag_361:\n        /* \"#utility.yul\":9177:9198   */\n      tag_363\n        /* \"#utility.yul\":9192:9197   */\n      dup2\n        /* \"#utility.yul\":9177:9198   */\n      tag_364\n      jump\t// in\n    tag_363:\n        /* \"#utility.yul\":9172:9175   */\n      dup3\n        /* \"#utility.yul\":9165:9199   */\n      mstore\n        /* \"#utility.yul\":9155:9205   */\n      pop\n      pop\n      jump\t// out\n        /* \"#utility.yul\":9211:9551   */\n    tag_365:\n        /* \"#utility.yul\":9287:9290   */\n      0x00\n        /* \"#utility.yul\":9315:9353   */\n      tag_367\n        /* \"#utility.yul\":9347:9352   */\n      dup3\n        /* \"#utility.yul\":9315:9353   */\n      tag_368\n      jump\t// in\n    tag_367:\n        /* \"#utility.yul\":9369:9429   */\n      tag_369\n        /* \"#utility.yul\":9422:9428   */\n      dup2\n        /* \"#utility.yul\":9417:9420   */\n      dup6\n        /* \"#utility.yul\":9369:9429   */\n      tag_370\n      jump\t// in\n    tag_369:\n        /* \"#utility.yul\":9362:9429   */\n      swap4\n      pop\n        /* \"#utility.yul\":9438:9490   */\n      tag_371\n        /* \"#utility.yul\":9483:9489   */\n      dup2\n        /* \"#utility.yul\":9478:9481   */\n      dup6\n        /* \"#utility.yul\":9471:9475   */\n      0x20\n        /* \"#utility.yul\":9464:9469   */\n      dup7\n        /* \"#utility.yul\":9460:9476   */\n      add\n        /* \"#utility.yul\":9438:9490   */\n      tag_372\n      jump\t// in\n    tag_371:\n        /* \"#utility.yul\":9515:9544   */\n      tag_373\n        /* \"#utility.yul\":9537:9543   */\n      dup2\n        /* \"#utility.yul\":9515:9544   */\n      tag_374\n      jump\t// in\n    tag_373:\n        /* \"#utility.yul\":9510:9513   */\n      dup5\n        /* \"#utility.yul\":9506:9545   */\n      add\n        /* \"#utility.yul\":9499:9545   */\n      swap2\n      pop\n        /* \"#utility.yul\":9291:9551   */\n      pop\n      swap3\n      swap2\n      pop\n      pop\n      jump\t// out\n        /* \"#utility.yul\":9557:9917   */\n    tag_375:\n        /* \"#utility.yul\":9643:9646   */\n      0x00\n        /* \"#utility.yul\":9671:9709   */\n      tag_377\n        /* \"#utility.yul\":9703:9708   */\n      dup3\n        /* \"#utility.yul\":9671:9709   */\n      tag_368\n      jump\t// in\n    tag_377:\n        /* \"#utility.yul\":9725:9795   */\n      tag_378\n        /* \"#utility.yul\":9788:9794   */\n      dup2\n        /* \"#utility.yul\":9783:9786   */\n      dup6\n        /* \"#utility.yul\":9725:9795   */\n      tag_379\n      jump\t// in\n    tag_378:\n        /* \"#utility.yul\":9718:9795   */\n      swap4\n      pop\n        /* \"#utility.yul\":9804:9856   */\n      tag_380\n        /* \"#utility.yul\":9849:9855   */\n      dup2\n        /* \"#utility.yul\":9844:9847   */\n      dup6\n        /* \"#utility.yul\":9837:9841   */\n      0x20\n        /* \"#utility.yul\":9830:9835   */\n      dup7\n        /* \"#utility.yul\":9826:9842   */\n      add\n        /* \"#utility.yul\":9804:9856   */\n      tag_372\n      jump\t// in\n    tag_380:\n        /* \"#utility.yul\":9881:9910   */\n      tag_381\n        /* \"#utility.yul\":9903:9909   */\n      dup2\n        /* \"#utility.yul\":9881:9910   */\n      tag_374\n      jump\t// in\n    tag_381:\n        /* \"#utility.yul\":9876:9879   */\n      dup5\n        /* \"#utility.yul\":9872:9911   */\n      add\n        /* \"#utility.yul\":9865:9911   */\n      swap2\n      pop\n        /* \"#utility.yul\":9647:9917   */\n      pop\n      swap3\n      swap2\n      pop\n      pop\n      jump\t// out\n        /* \"#utility.yul\":9923:10296   */\n    tag_382:\n        /* \"#utility.yul\":10027:10030   */\n      0x00\n        /* \"#utility.yul\":10055:10093   */\n      tag_384\n        /* \"#utility.yul\":10087:10092   */\n      dup3\n        /* \"#utility.yul\":10055:10093   */\n      tag_368\n      jump\t// in\n    tag_384:\n        /* \"#utility.yul\":10109:10197   */\n      tag_385\n        /* \"#utility.yul\":10190:10196   */\n      dup2\n        /* \"#utility.yul\":10185:10188   */\n      dup6\n        /* \"#utility.yul\":10109:10197   */\n      tag_386\n      jump\t// in\n    tag_385:\n        /* \"#utility.yul\":10102:10197   */\n      swap4\n      pop\n        /* \"#utility.yul\":10206:10258   */\n      tag_387\n        /* \"#utility.yul\":10251:10257   */\n      dup2\n        /* \"#utility.yul\":10246:10249   */\n      dup6\n        /* \"#utility.yul\":10239:10243   */\n      0x20\n        /* \"#utility.yul\":10232:10237   */\n      dup7\n        /* \"#utility.yul\":10228:10244   */\n      add\n        /* \"#utility.yul\":10206:10258   */\n      tag_372\n      jump\t// in\n    tag_387:\n        /* \"#utility.yul\":10283:10289   */\n      dup1\n        /* \"#utility.yul\":10278:10281   */\n      dup5\n        /* \"#utility.yul\":10274:10290   */\n      add\n        /* \"#utility.yul\":10267:10290   */\n      swap2\n      pop\n        /* \"#utility.yul\":10031:10296   */\n      pop\n      swap3\n      swap2\n      pop\n      pop\n      jump\t// out\n        /* \"#utility.yul\":10302:10445   */\n    tag_388:\n        /* \"#utility.yul\":10395:10438   */\n      tag_390\n        /* \"#utility.yul\":10432:10437   */\n      dup2\n        /* \"#utility.yul\":10395:10438   */\n      tag_391\n      jump\t// in\n    tag_390:\n        /* \"#utility.yul\":10390:10393   */\n      dup3\n        /* \"#utility.yul\":10383:10439   */\n      mstore\n        /* \"#utility.yul\":10373:10445   */\n      pop\n      pop\n      jump\t// out\n        /* \"#utility.yul\":10451:10815   */\n    tag_392:\n        /* \"#utility.yul\":10539:10542   */\n      0x00\n        /* \"#utility.yul\":10567:10606   */\n      tag_394\n        /* \"#utility.yul\":10600:10605   */\n      dup3\n        /* \"#utility.yul\":10567:10606   */\n      tag_395\n      jump\t// in\n    tag_394:\n        /* \"#utility.yul\":10622:10693   */\n      tag_396\n        /* \"#utility.yul\":10686:10692   */\n      dup2\n        /* \"#utility.yul\":10681:10684   */\n      dup6\n        /* \"#utility.yul\":10622:10693   */\n      tag_397\n      jump\t// in\n    tag_396:\n        /* \"#utility.yul\":10615:10693   */\n      swap4\n      pop\n        /* \"#utility.yul\":10702:10754   */\n      tag_398\n        /* \"#utility.yul\":10747:10753   */\n      dup2\n        /* \"#utility.yul\":10742:10745   */\n      dup6\n        /* \"#utility.yul\":10735:10739   */\n      0x20\n        /* \"#utility.yul\":10728:10733   */\n      dup7\n        /* \"#utility.yul\":10724:10740   */\n      add\n        /* \"#utility.yul\":10702:10754   */\n      tag_372\n      jump\t// in\n    tag_398:\n        /* \"#utility.yul\":10779:10808   */\n      tag_399\n        /* \"#utility.yul\":10801:10807   */\n      dup2\n        /* \"#utility.yul\":10779:10808   */\n      tag_374\n      jump\t// in\n    tag_399:\n        /* \"#utility.yul\":10774:10777   */\n      dup5\n        /* \"#utility.yul\":10770:10809   */\n      add\n        /* \"#utility.yul\":10763:10809   */\n      swap2\n      pop\n        /* \"#utility.yul\":10543:10815   */\n      pop\n      swap3\n      swap2\n      pop\n      pop\n      jump\t// out\n        /* \"#utility.yul\":10821:11187   */\n    tag_400:\n        /* \"#utility.yul\":10963:10966   */\n      0x00\n        /* \"#utility.yul\":10984:11051   */\n      tag_402\n        /* \"#utility.yul\":11048:11050   */\n      0x22\n        /* \"#utility.yul\":11043:11046   */\n      dup4\n        /* \"#utility.yul\":10984:11051   */\n      tag_397\n      jump\t// in\n    tag_402:\n        /* \"#utility.yul\":10977:11051   */\n      swap2\n      pop\n        /* \"#utility.yul\":11060:11153   */\n      tag_403\n        /* \"#utility.yul\":11149:11152   */\n      dup3\n        /* \"#utility.yul\":11060:11153   */\n      tag_404\n      jump\t// in\n    tag_403:\n        /* \"#utility.yul\":11178:11180   */\n      0x40\n        /* \"#utility.yul\":11173:11176   */\n      dup3\n        /* \"#utility.yul\":11169:11181   */\n      add\n        /* \"#utility.yul\":11162:11181   */\n      swap1\n      pop\n        /* \"#utility.yul\":10967:11187   */\n      swap2\n      swap1\n      pop\n      jump\t// out\n        /* \"#utility.yul\":11193:11556   */\n    tag_405:\n        /* \"#utility.yul\":11334:11337   */\n      0x00\n        /* \"#utility.yul\":11355:11420   */\n      tag_407\n        /* \"#utility.yul\":11418:11419   */\n      0x02\n        /* \"#utility.yul\":11413:11416   */\n      dup4\n        /* \"#utility.yul\":11355:11420   */\n      tag_379\n      jump\t// in\n    tag_407:\n        /* \"#utility.yul\":11348:11420   */\n      swap2\n      pop\n        /* \"#utility.yul\":11429:11522   */\n      tag_408\n        /* \"#utility.yul\":11518:11521   */\n      dup3\n        /* \"#utility.yul\":11429:11522   */\n      tag_409\n      jump\t// in\n    tag_408:\n        /* \"#utility.yul\":11547:11549   */\n      0x20\n        /* \"#utility.yul\":11542:11545   */\n      dup3\n        /* \"#utility.yul\":11538:11550   */\n      add\n        /* \"#utility.yul\":11531:11550   */\n      swap1\n      pop\n        /* \"#utility.yul\":11338:11556   */\n      swap2\n      swap1\n      pop\n      jump\t// out\n        /* \"#utility.yul\":11562:11928   */\n    tag_410:\n        /* \"#utility.yul\":11704:11707   */\n      0x00\n        /* \"#utility.yul\":11725:11792   */\n      tag_412\n        /* \"#utility.yul\":11789:11791   */\n      0x26\n        /* \"#utility.yul\":11784:11787   */\n      dup4\n        /* \"#utility.yul\":11725:11792   */\n      tag_397\n      jump\t// in\n    tag_412:\n        /* \"#utility.yul\":11718:11792   */\n      swap2\n      pop\n        /* \"#utility.yul\":11801:11894   */\n      tag_413\n        /* \"#utility.yul\":11890:11893   */\n      dup3\n        /* \"#utility.yul\":11801:11894   */\n      tag_414\n      jump\t// in\n    tag_413:\n        /* \"#utility.yul\":11919:11921   */\n      0x40\n        /* \"#utility.yul\":11914:11917   */\n      dup3\n        /* \"#utility.yul\":11910:11922   */\n      add\n        /* \"#utility.yul\":11903:11922   */\n      swap1\n      pop\n        /* \"#utility.yul\":11708:11928   */\n      swap2\n      swap1\n      pop\n      jump\t// out\n        /* \"#utility.yul\":11934:12299   */\n    tag_415:\n        /* \"#utility.yul\":12076:12079   */\n      0x00\n        /* \"#utility.yul\":12097:12163   */\n      tag_417\n        /* \"#utility.yul\":12161:12162   */\n      0x08\n        /* \"#utility.yul\":12156:12159   */\n      dup4\n        /* \"#utility.yul\":12097:12163   */\n      tag_397\n      jump\t// in\n    tag_417:\n        /* \"#utility.yul\":12090:12163   */\n      swap2\n      pop\n        /* \"#utility.yul\":12172:12265   */\n      tag_418\n        /* \"#utility.yul\":12261:12264   */\n      dup3\n        /* \"#utility.yul\":12172:12265   */\n      tag_419\n      jump\t// in\n    tag_418:\n        /* \"#utility.yul\":12290:12292   */\n      0x20\n        /* \"#utility.yul\":12285:12288   */\n      dup3\n        /* \"#utility.yul\":12281:12293   */\n      add\n        /* \"#utility.yul\":12274:12293   */\n      swap1\n      pop\n        /* \"#utility.yul\":12080:12299   */\n      swap2\n      swap1\n      pop\n      jump\t// out\n        /* \"#utility.yul\":12305:12671   */\n    tag_420:\n        /* \"#utility.yul\":12447:12450   */\n      0x00\n        /* \"#utility.yul\":12468:12535   */\n      tag_422\n        /* \"#utility.yul\":12532:12534   */\n      0x1d\n        /* \"#utility.yul\":12527:12530   */\n      dup4\n        /* \"#utility.yul\":12468:12535   */\n      tag_397\n      jump\t// in\n    tag_422:\n        /* \"#utility.yul\":12461:12535   */\n      swap2\n      pop\n        /* \"#utility.yul\":12544:12637   */\n      tag_423\n        /* \"#utility.yul\":12633:12636   */\n      dup3\n        /* \"#utility.yul\":12544:12637   */\n      tag_424\n      jump\t// in\n    tag_423:\n        /* \"#utility.yul\":12662:12664   */\n      0x20\n        /* \"#utility.yul\":12657:12660   */\n      dup3\n        /* \"#utility.yul\":12653:12665   */\n      add\n        /* \"#utility.yul\":12646:12665   */\n      swap1\n      pop\n        /* \"#utility.yul\":12451:12671   */\n      swap2\n      swap1\n      pop\n      jump\t// out\n        /* \"#utility.yul\":12677:13043   */\n    tag_425:\n        /* \"#utility.yul\":12819:12822   */\n      0x00\n        /* \"#utility.yul\":12840:12907   */\n      tag_427\n        /* \"#utility.yul\":12904:12906   */\n      0x2a\n        /* \"#utility.yul\":12899:12902   */\n      dup4\n        /* \"#utility.yul\":12840:12907   */\n      tag_397\n      jump\t// in\n    tag_427:\n        /* \"#utility.yul\":12833:12907   */\n      swap2\n      pop\n        /* \"#utility.yul\":12916:13009   */\n      tag_428\n        /* \"#utility.yul\":13005:13008   */\n      dup3\n        /* \"#utility.yul\":12916:13009   */\n      tag_429\n      jump\t// in\n    tag_428:\n        /* \"#utility.yul\":13034:13036   */\n      0x40\n        /* \"#utility.yul\":13029:13032   */\n      dup3\n        /* \"#utility.yul\":13025:13037   */\n      add\n        /* \"#utility.yul\":13018:13037   */\n      swap1\n      pop\n        /* \"#utility.yul\":12823:13043   */\n      swap2\n      swap1\n      pop\n      jump\t// out\n        /* \"#utility.yul\":13049:13415   */\n    tag_430:\n        /* \"#utility.yul\":13191:13194   */\n      0x00\n        /* \"#utility.yul\":13212:13279   */\n      tag_432\n        /* \"#utility.yul\":13276:13278   */\n      0x36\n        /* \"#utility.yul\":13271:13274   */\n      dup4\n        /* \"#utility.yul\":13212:13279   */\n      tag_397\n      jump\t// in\n    tag_432:\n        /* \"#utility.yul\":13205:13279   */\n      swap2\n      pop\n        /* \"#utility.yul\":13288:13381   */\n      tag_433\n        /* \"#utility.yul\":13377:13380   */\n      dup3\n        /* \"#utility.yul\":13288:13381   */\n      tag_434\n      jump\t// in\n    tag_433:\n        /* \"#utility.yul\":13406:13408   */\n      0x40\n        /* \"#utility.yul\":13401:13404   */\n      dup3\n        /* \"#utility.yul\":13397:13409   */\n      add\n        /* \"#utility.yul\":13390:13409   */\n      swap1\n      pop\n        /* \"#utility.yul\":13195:13415   */\n      swap2\n      swap1\n      pop\n      jump\t// out\n        /* \"#utility.yul\":13493:14300   */\n    tag_435:\n        /* \"#utility.yul\":13612:13615   */\n      0x00\n        /* \"#utility.yul\":13648:13652   */\n      0x60\n        /* \"#utility.yul\":13643:13646   */\n      dup4\n        /* \"#utility.yul\":13639:13653   */\n      add\n        /* \"#utility.yul\":13744:13748   */\n      0x00\n        /* \"#utility.yul\":13737:13742   */\n      dup4\n        /* \"#utility.yul\":13733:13749   */\n      add\n        /* \"#utility.yul\":13727:13750   */\n      mload\n        /* \"#utility.yul\":13763:13826   */\n      tag_437\n        /* \"#utility.yul\":13820:13824   */\n      0x00\n        /* \"#utility.yul\":13815:13818   */\n      dup7\n        /* \"#utility.yul\":13811:13825   */\n      add\n        /* \"#utility.yul\":13797:13809   */\n      dup3\n        /* \"#utility.yul\":13763:13826   */\n      tag_438\n      jump\t// in\n    tag_437:\n        /* \"#utility.yul\":13663:13836   */\n      pop\n        /* \"#utility.yul\":13929:13933   */\n      0x20\n        /* \"#utility.yul\":13922:13927   */\n      dup4\n        /* \"#utility.yul\":13918:13934   */\n      add\n        /* \"#utility.yul\":13912:13935   */\n      mload\n        /* \"#utility.yul\":13948:14011   */\n      tag_439\n        /* \"#utility.yul\":14005:14009   */\n      0x20\n        /* \"#utility.yul\":14000:14003   */\n      dup7\n        /* \"#utility.yul\":13996:14010   */\n      add\n        /* \"#utility.yul\":13982:13994   */\n      dup3\n        /* \"#utility.yul\":13948:14011   */\n      tag_438\n      jump\t// in\n    tag_439:\n        /* \"#utility.yul\":13846:14021   */\n      pop\n        /* \"#utility.yul\":14112:14116   */\n      0x40\n        /* \"#utility.yul\":14105:14110   */\n      dup4\n        /* \"#utility.yul\":14101:14117   */\n      add\n        /* \"#utility.yul\":14095:14118   */\n      mload\n        /* \"#utility.yul\":14165:14168   */\n      dup5\n        /* \"#utility.yul\":14159:14163   */\n      dup3\n        /* \"#utility.yul\":14155:14169   */\n      sub\n        /* \"#utility.yul\":14148:14152   */\n      0x40\n        /* \"#utility.yul\":14143:14146   */\n      dup7\n        /* \"#utility.yul\":14139:14153   */\n      add\n        /* \"#utility.yul\":14132:14170   */\n      mstore\n        /* \"#utility.yul\":14191:14262   */\n      tag_440\n        /* \"#utility.yul\":14257:14261   */\n      dup3\n        /* \"#utility.yul\":14243:14255   */\n      dup3\n        /* \"#utility.yul\":14191:14262   */\n      tag_365\n      jump\t// in\n    tag_440:\n        /* \"#utility.yul\":14183:14262   */\n      swap2\n      pop\n        /* \"#utility.yul\":14031:14273   */\n      pop\n        /* \"#utility.yul\":14290:14294   */\n      dup1\n        /* \"#utility.yul\":14283:14294   */\n      swap2\n      pop\n        /* \"#utility.yul\":13617:14300   */\n      pop\n      swap3\n      swap2\n      pop\n      pop\n      jump\t// out\n        /* \"#utility.yul\":14306:14421   */\n    tag_441:\n        /* \"#utility.yul\":14391:14414   */\n      tag_443\n        /* \"#utility.yul\":14408:14413   */\n      dup2\n        /* \"#utility.yul\":14391:14414   */\n      tag_444\n      jump\t// in\n    tag_443:\n        /* \"#utility.yul\":14386:14389   */\n      dup3\n        /* \"#utility.yul\":14379:14415   */\n      mstore\n        /* \"#utility.yul\":14369:14421   */\n      pop\n      pop\n      jump\t// out\n        /* \"#utility.yul\":14427:14556   */\n    tag_445:\n        /* \"#utility.yul\":14513:14549   */\n      tag_447\n        /* \"#utility.yul\":14543:14548   */\n      dup2\n        /* \"#utility.yul\":14513:14549   */\n      tag_448\n      jump\t// in\n    tag_447:\n        /* \"#utility.yul\":14508:14511   */\n      dup3\n        /* \"#utility.yul\":14501:14550   */\n      mstore\n        /* \"#utility.yul\":14491:14556   */\n      pop\n      pop\n      jump\t// out\n        /* \"#utility.yul\":14562:14670   */\n    tag_438:\n        /* \"#utility.yul\":14639:14663   */\n      tag_450\n        /* \"#utility.yul\":14657:14662   */\n      dup2\n        /* \"#utility.yul\":14639:14663   */\n      tag_451\n      jump\t// in\n    tag_450:\n        /* \"#utility.yul\":14634:14637   */\n      dup3\n        /* \"#utility.yul\":14627:14664   */\n      mstore\n        /* \"#utility.yul\":14617:14670   */\n      pop\n      pop\n      jump\t// out\n        /* \"#utility.yul\":14676:14794   */\n    tag_452:\n        /* \"#utility.yul\":14763:14787   */\n      tag_454\n        /* \"#utility.yul\":14781:14786   */\n      dup2\n        /* \"#utility.yul\":14763:14787   */\n      tag_451\n      jump\t// in\n    tag_454:\n        /* \"#utility.yul\":14758:14761   */\n      dup3\n        /* \"#utility.yul\":14751:14788   */\n      mstore\n        /* \"#utility.yul\":14741:14794   */\n      pop\n      pop\n      jump\t// out\n        /* \"#utility.yul\":14800:15056   */\n    tag_93:\n        /* \"#utility.yul\":14912:14915   */\n      0x00\n        /* \"#utility.yul\":14927:15002   */\n      tag_456\n        /* \"#utility.yul\":14998:15001   */\n      dup3\n        /* \"#utility.yul\":14989:14995   */\n      dup5\n        /* \"#utility.yul\":14927:15002   */\n      tag_356\n      jump\t// in\n    tag_456:\n        /* \"#utility.yul\":15027:15029   */\n      0x14\n        /* \"#utility.yul\":15022:15025   */\n      dup3\n        /* \"#utility.yul\":15018:15030   */\n      add\n        /* \"#utility.yul\":15011:15030   */\n      swap2\n      pop\n        /* \"#utility.yul\":15047:15050   */\n      dup2\n        /* \"#utility.yul\":15040:15050   */\n      swap1\n      pop\n        /* \"#utility.yul\":14916:15056   */\n      swap3\n      swap2\n      pop\n      pop\n      jump\t// out\n        /* \"#utility.yul\":15062:15333   */\n    tag_232:\n        /* \"#utility.yul\":15192:15195   */\n      0x00\n        /* \"#utility.yul\":15214:15307   */\n      tag_458\n        /* \"#utility.yul\":15303:15306   */\n      dup3\n        /* \"#utility.yul\":15294:15300   */\n      dup5\n        /* \"#utility.yul\":15214:15307   */\n      tag_382\n      jump\t// in\n    tag_458:\n        /* \"#utility.yul\":15207:15307   */\n      swap2\n      pop\n        /* \"#utility.yul\":15324:15327   */\n      dup2\n        /* \"#utility.yul\":15317:15327   */\n      swap1\n      pop\n        /* \"#utility.yul\":15196:15333   */\n      swap3\n      swap2\n      pop\n      pop\n      jump\t// out\n        /* \"#utility.yul\":15339:15561   */\n    tag_95:\n        /* \"#utility.yul\":15432:15436   */\n      0x00\n        /* \"#utility.yul\":15470:15472   */\n      0x20\n        /* \"#utility.yul\":15459:15468   */\n      dup3\n        /* \"#utility.yul\":15455:15473   */\n      add\n        /* \"#utility.yul\":15447:15473   */\n      swap1\n      pop\n        /* \"#utility.yul\":15483:15554   */\n      tag_460\n        /* \"#utility.yul\":15551:15552   */\n      0x00\n        /* \"#utility.yul\":15540:15549   */\n      dup4\n        /* \"#utility.yul\":15536:15553   */\n      add\n        /* \"#utility.yul\":15527:15533   */\n      dup5\n        /* \"#utility.yul\":15483:15554   */\n      tag_352\n      jump\t// in\n    tag_460:\n        /* \"#utility.yul\":15437:15561   */\n      swap3\n      swap2\n      pop\n      pop\n      jump\t// out\n        /* \"#utility.yul\":15567:15899   */\n    tag_193:\n        /* \"#utility.yul\":15688:15692   */\n      0x00\n        /* \"#utility.yul\":15726:15728   */\n      0x40\n        /* \"#utility.yul\":15715:15724   */\n      dup3\n        /* \"#utility.yul\":15711:15729   */\n      add\n        /* \"#utility.yul\":15703:15729   */\n      swap1\n      pop\n        /* \"#utility.yul\":15739:15810   */\n      tag_462\n        /* \"#utility.yul\":15807:15808   */\n      0x00\n        /* \"#utility.yul\":15796:15805   */\n      dup4\n        /* \"#utility.yul\":15792:15809   */\n      add\n        /* \"#utility.yul\":15783:15789   */\n      dup6\n        /* \"#utility.yul\":15739:15810   */\n      tag_352\n      jump\t// in\n    tag_462:\n        /* \"#utility.yul\":15820:15892   */\n      tag_463\n        /* \"#utility.yul\":15888:15890   */\n      0x20\n        /* \"#utility.yul\":15877:15886   */\n      dup4\n        /* \"#utility.yul\":15873:15891   */\n      add\n        /* \"#utility.yul\":15864:15870   */\n      dup5\n        /* \"#utility.yul\":15820:15892   */\n      tag_352\n      jump\t// in\n    tag_463:\n        /* \"#utility.yul\":15693:15899   */\n      swap4\n      swap3\n      pop\n      pop\n      pop\n      jump\t// out\n        /* \"#utility.yul\":15905:16347   */\n    tag_188:\n        /* \"#utility.yul\":16054:16058   */\n      0x00\n        /* \"#utility.yul\":16092:16094   */\n      0x60\n        /* \"#utility.yul\":16081:16090   */\n      dup3\n        /* \"#utility.yul\":16077:16095   */\n      add\n        /* \"#utility.yul\":16069:16095   */\n      swap1\n      pop\n        /* \"#utility.yul\":16105:16176   */\n      tag_465\n        /* \"#utility.yul\":16173:16174   */\n      0x00\n        /* \"#utility.yul\":16162:16171   */\n      dup4\n        /* \"#utility.yul\":16158:16175   */\n      add\n        /* \"#utility.yul\":16149:16155   */\n      dup7\n        /* \"#utility.yul\":16105:16176   */\n      tag_352\n      jump\t// in\n    tag_465:\n        /* \"#utility.yul\":16186:16258   */\n      tag_466\n        /* \"#utility.yul\":16254:16256   */\n      0x20\n        /* \"#utility.yul\":16243:16252   */\n      dup4\n        /* \"#utility.yul\":16239:16257   */\n      add\n        /* \"#utility.yul\":16230:16236   */\n      dup6\n        /* \"#utility.yul\":16186:16258   */\n      tag_352\n      jump\t// in\n    tag_466:\n        /* \"#utility.yul\":16268:16340   */\n      tag_467\n        /* \"#utility.yul\":16336:16338   */\n      0x40\n        /* \"#utility.yul\":16325:16334   */\n      dup4\n        /* \"#utility.yul\":16321:16339   */\n      add\n        /* \"#utility.yul\":16312:16318   */\n      dup5\n        /* \"#utility.yul\":16268:16340   */\n      tag_452\n      jump\t// in\n    tag_467:\n        /* \"#utility.yul\":16059:16347   */\n      swap5\n      swap4\n      pop\n      pop\n      pop\n      pop\n      jump\t// out\n        /* \"#utility.yul\":16353:16681   */\n    tag_144:\n        /* \"#utility.yul\":16472:16476   */\n      0x00\n        /* \"#utility.yul\":16510:16512   */\n      0x40\n        /* \"#utility.yul\":16499:16508   */\n      dup3\n        /* \"#utility.yul\":16495:16513   */\n      add\n        /* \"#utility.yul\":16487:16513   */\n      swap1\n      pop\n        /* \"#utility.yul\":16523:16594   */\n      tag_469\n        /* \"#utility.yul\":16591:16592   */\n      0x00\n        /* \"#utility.yul\":16580:16589   */\n      dup4\n        /* \"#utility.yul\":16576:16593   */\n      add\n        /* \"#utility.yul\":16567:16573   */\n      dup6\n        /* \"#utility.yul\":16523:16594   */\n      tag_352\n      jump\t// in\n    tag_469:\n        /* \"#utility.yul\":16604:16674   */\n      tag_470\n        /* \"#utility.yul\":16670:16672   */\n      0x20\n        /* \"#utility.yul\":16659:16668   */\n      dup4\n        /* \"#utility.yul\":16655:16673   */\n      add\n        /* \"#utility.yul\":16646:16652   */\n      dup5\n        /* \"#utility.yul\":16604:16674   */\n      tag_441\n      jump\t// in\n    tag_470:\n        /* \"#utility.yul\":16477:16681   */\n      swap4\n      swap3\n      pop\n      pop\n      pop\n      jump\t// out\n        /* \"#utility.yul\":16687:17019   */\n    tag_164:\n        /* \"#utility.yul\":16808:16812   */\n      0x00\n        /* \"#utility.yul\":16846:16848   */\n      0x40\n        /* \"#utility.yul\":16835:16844   */\n      dup3\n        /* \"#utility.yul\":16831:16849   */\n      add\n        /* \"#utility.yul\":16823:16849   */\n      swap1\n      pop\n        /* \"#utility.yul\":16859:16930   */\n      tag_472\n        /* \"#utility.yul\":16927:16928   */\n      0x00\n        /* \"#utility.yul\":16916:16925   */\n      dup4\n        /* \"#utility.yul\":16912:16929   */\n      add\n        /* \"#utility.yul\":16903:16909   */\n      dup6\n        /* \"#utility.yul\":16859:16930   */\n      tag_352\n      jump\t// in\n    tag_472:\n        /* \"#utility.yul\":16940:17012   */\n      tag_473\n        /* \"#utility.yul\":17008:17010   */\n      0x20\n        /* \"#utility.yul\":16997:17006   */\n      dup4\n        /* \"#utility.yul\":16993:17011   */\n      add\n        /* \"#utility.yul\":16984:16990   */\n      dup5\n        /* \"#utility.yul\":16940:17012   */\n      tag_452\n      jump\t// in\n    tag_473:\n        /* \"#utility.yul\":16813:17019   */\n      swap4\n      swap3\n      pop\n      pop\n      pop\n      jump\t// out\n        /* \"#utility.yul\":17025:17235   */\n    tag_32:\n        /* \"#utility.yul\":17112:17116   */\n      0x00\n        /* \"#utility.yul\":17150:17152   */\n      0x20\n        /* \"#utility.yul\":17139:17148   */\n      dup3\n        /* \"#utility.yul\":17135:17153   */\n      add\n        /* \"#utility.yul\":17127:17153   */\n      swap1\n      pop\n        /* \"#utility.yul\":17163:17228   */\n      tag_475\n        /* \"#utility.yul\":17225:17226   */\n      0x00\n        /* \"#utility.yul\":17214:17223   */\n      dup4\n        /* \"#utility.yul\":17210:17227   */\n      add\n        /* \"#utility.yul\":17201:17207   */\n      dup5\n        /* \"#utility.yul\":17163:17228   */\n      tag_361\n      jump\t// in\n    tag_475:\n        /* \"#utility.yul\":17117:17235   */\n      swap3\n      swap2\n      pop\n      pop\n      jump\t// out\n        /* \"#utility.yul\":17241:17554   */\n    tag_245:\n        /* \"#utility.yul\":17354:17358   */\n      0x00\n        /* \"#utility.yul\":17392:17394   */\n      0x20\n        /* \"#utility.yul\":17381:17390   */\n      dup3\n        /* \"#utility.yul\":17377:17395   */\n      add\n        /* \"#utility.yul\":17369:17395   */\n      swap1\n      pop\n        /* \"#utility.yul\":17441:17450   */\n      dup2\n        /* \"#utility.yul\":17435:17439   */\n      dup2\n        /* \"#utility.yul\":17431:17451   */\n      sub\n        /* \"#utility.yul\":17427:17428   */\n      0x00\n        /* \"#utility.yul\":17416:17425   */\n      dup4\n        /* \"#utility.yul\":17412:17429   */\n      add\n        /* \"#utility.yul\":17405:17452   */\n      mstore\n        /* \"#utility.yul\":17469:17547   */\n      tag_477\n        /* \"#utility.yul\":17542:17546   */\n      dup2\n        /* \"#utility.yul\":17533:17539   */\n      dup5\n        /* \"#utility.yul\":17469:17547   */\n      tag_392\n      jump\t// in\n    tag_477:\n        /* \"#utility.yul\":17461:17547   */\n      swap1\n      pop\n        /* \"#utility.yul\":17359:17554   */\n      swap3\n      swap2\n      pop\n      pop\n      jump\t// out\n        /* \"#utility.yul\":17560:17979   */\n    tag_209:\n        /* \"#utility.yul\":17726:17730   */\n      0x00\n        /* \"#utility.yul\":17764:17766   */\n      0x20\n        /* \"#utility.yul\":17753:17762   */\n      dup3\n        /* \"#utility.yul\":17749:17767   */\n      add\n        /* \"#utility.yul\":17741:17767   */\n      swap1\n      pop\n        /* \"#utility.yul\":17813:17822   */\n      dup2\n        /* \"#utility.yul\":17807:17811   */\n      dup2\n        /* \"#utility.yul\":17803:17823   */\n      sub\n        /* \"#utility.yul\":17799:17800   */\n      0x00\n        /* \"#utility.yul\":17788:17797   */\n      dup4\n        /* \"#utility.yul\":17784:17801   */\n      add\n        /* \"#utility.yul\":17777:17824   */\n      mstore\n        /* \"#utility.yul\":17841:17972   */\n      tag_479\n        /* \"#utility.yul\":17967:17971   */\n      dup2\n        /* \"#utility.yul\":17841:17972   */\n      tag_400\n      jump\t// in\n    tag_479:\n        /* \"#utility.yul\":17833:17972   */\n      swap1\n      pop\n        /* \"#utility.yul\":17731:17979   */\n      swap2\n      swap1\n      pop\n      jump\t// out\n        /* \"#utility.yul\":17985:18404   */\n    tag_225:\n        /* \"#utility.yul\":18151:18155   */\n      0x00\n        /* \"#utility.yul\":18189:18191   */\n      0x20\n        /* \"#utility.yul\":18178:18187   */\n      dup3\n        /* \"#utility.yul\":18174:18192   */\n      add\n        /* \"#utility.yul\":18166:18192   */\n      swap1\n      pop\n        /* \"#utility.yul\":18238:18247   */\n      dup2\n        /* \"#utility.yul\":18232:18236   */\n      dup2\n        /* \"#utility.yul\":18228:18248   */\n      sub\n        /* \"#utility.yul\":18224:18225   */\n      0x00\n        /* \"#utility.yul\":18213:18222   */\n      dup4\n        /* \"#utility.yul\":18209:18226   */\n      add\n        /* \"#utility.yul\":18202:18249   */\n      mstore\n        /* \"#utility.yul\":18266:18397   */\n      tag_481\n        /* \"#utility.yul\":18392:18396   */\n      dup2\n        /* \"#utility.yul\":18266:18397   */\n      tag_410\n      jump\t// in\n    tag_481:\n        /* \"#utility.yul\":18258:18397   */\n      swap1\n      pop\n        /* \"#utility.yul\":18156:18404   */\n      swap2\n      swap1\n      pop\n      jump\t// out\n        /* \"#utility.yul\":18410:19489   */\n    tag_106:\n        /* \"#utility.yul\":18742:18746   */\n      0x00\n        /* \"#utility.yul\":18780:18783   */\n      0xe0\n        /* \"#utility.yul\":18769:18778   */\n      dup3\n        /* \"#utility.yul\":18765:18784   */\n      add\n        /* \"#utility.yul\":18757:18784   */\n      swap1\n      pop\n        /* \"#utility.yul\":18830:18839   */\n      dup2\n        /* \"#utility.yul\":18824:18828   */\n      dup2\n        /* \"#utility.yul\":18820:18840   */\n      sub\n        /* \"#utility.yul\":18816:18817   */\n      0x00\n        /* \"#utility.yul\":18805:18814   */\n      dup4\n        /* \"#utility.yul\":18801:18818   */\n      add\n        /* \"#utility.yul\":18794:18841   */\n      mstore\n        /* \"#utility.yul\":18858:18989   */\n      tag_483\n        /* \"#utility.yul\":18984:18988   */\n      dup2\n        /* \"#utility.yul\":18858:18989   */\n      tag_415\n      jump\t// in\n    tag_483:\n        /* \"#utility.yul\":18850:18989   */\n      swap1\n      pop\n        /* \"#utility.yul\":18999:19071   */\n      tag_484\n        /* \"#utility.yul\":19067:19069   */\n      0x20\n        /* \"#utility.yul\":19056:19065   */\n      dup4\n        /* \"#utility.yul\":19052:19070   */\n      add\n        /* \"#utility.yul\":19043:19049   */\n      dup10\n        /* \"#utility.yul\":18999:19071   */\n      tag_352\n      jump\t// in\n    tag_484:\n        /* \"#utility.yul\":19081:19153   */\n      tag_485\n        /* \"#utility.yul\":19149:19151   */\n      0x40\n        /* \"#utility.yul\":19138:19147   */\n      dup4\n        /* \"#utility.yul\":19134:19152   */\n      add\n        /* \"#utility.yul\":19125:19131   */\n      dup9\n        /* \"#utility.yul\":19081:19153   */\n      tag_352\n      jump\t// in\n    tag_485:\n        /* \"#utility.yul\":19163:19235   */\n      tag_486\n        /* \"#utility.yul\":19231:19233   */\n      0x60\n        /* \"#utility.yul\":19220:19229   */\n      dup4\n        /* \"#utility.yul\":19216:19234   */\n      add\n        /* \"#utility.yul\":19207:19213   */\n      dup8\n        /* \"#utility.yul\":19163:19235   */\n      tag_352\n      jump\t// in\n    tag_486:\n        /* \"#utility.yul\":19245:19318   */\n      tag_487\n        /* \"#utility.yul\":19313:19316   */\n      0x80\n        /* \"#utility.yul\":19302:19311   */\n      dup4\n        /* \"#utility.yul\":19298:19317   */\n      add\n        /* \"#utility.yul\":19289:19295   */\n      dup7\n        /* \"#utility.yul\":19245:19318   */\n      tag_352\n      jump\t// in\n    tag_487:\n        /* \"#utility.yul\":19328:19401   */\n      tag_488\n        /* \"#utility.yul\":19396:19399   */\n      0xa0\n        /* \"#utility.yul\":19385:19394   */\n      dup4\n        /* \"#utility.yul\":19381:19400   */\n      add\n        /* \"#utility.yul\":19372:19378   */\n      dup6\n        /* \"#utility.yul\":19328:19401   */\n      tag_452\n      jump\t// in\n    tag_488:\n        /* \"#utility.yul\":19411:19482   */\n      tag_489\n        /* \"#utility.yul\":19477:19480   */\n      0xc0\n        /* \"#utility.yul\":19466:19475   */\n      dup4\n        /* \"#utility.yul\":19462:19481   */\n      add\n        /* \"#utility.yul\":19453:19459   */\n      dup5\n        /* \"#utility.yul\":19411:19482   */\n      tag_441\n      jump\t// in\n    tag_489:\n        /* \"#utility.yul\":18747:19489   */\n      swap8\n      swap7\n      pop\n      pop\n      pop\n      pop\n      pop\n      pop\n      pop\n      jump\t// out\n        /* \"#utility.yul\":19495:19914   */\n    tag_230:\n        /* \"#utility.yul\":19661:19665   */\n      0x00\n        /* \"#utility.yul\":19699:19701   */\n      0x20\n        /* \"#utility.yul\":19688:19697   */\n      dup3\n        /* \"#utility.yul\":19684:19702   */\n      add\n        /* \"#utility.yul\":19676:19702   */\n      swap1\n      pop\n        /* \"#utility.yul\":19748:19757   */\n      dup2\n        /* \"#utility.yul\":19742:19746   */\n      dup2\n        /* \"#utility.yul\":19738:19758   */\n      sub\n        /* \"#utility.yul\":19734:19735   */\n      0x00\n        /* \"#utility.yul\":19723:19732   */\n      dup4\n        /* \"#utility.yul\":19719:19736   */\n      add\n        /* \"#utility.yul\":19712:19759   */\n      mstore\n        /* \"#utility.yul\":19776:19907   */\n      tag_491\n        /* \"#utility.yul\":19902:19906   */\n      dup2\n        /* \"#utility.yul\":19776:19907   */\n      tag_420\n      jump\t// in\n    tag_491:\n        /* \"#utility.yul\":19768:19907   */\n      swap1\n      pop\n        /* \"#utility.yul\":19666:19914   */\n      swap2\n      swap1\n      pop\n      jump\t// out\n        /* \"#utility.yul\":19920:20339   */\n    tag_217:\n        /* \"#utility.yul\":20086:20090   */\n      0x00\n        /* \"#utility.yul\":20124:20126   */\n      0x20\n        /* \"#utility.yul\":20113:20122   */\n      dup3\n        /* \"#utility.yul\":20109:20127   */\n      add\n        /* \"#utility.yul\":20101:20127   */\n      swap1\n      pop\n        /* \"#utility.yul\":20173:20182   */\n      dup2\n        /* \"#utility.yul\":20167:20171   */\n      dup2\n        /* \"#utility.yul\":20163:20183   */\n      sub\n        /* \"#utility.yul\":20159:20160   */\n      0x00\n        /* \"#utility.yul\":20148:20157   */\n      dup4\n        /* \"#utility.yul\":20144:20161   */\n      add\n        /* \"#utility.yul\":20137:20184   */\n      mstore\n        /* \"#utility.yul\":20201:20332   */\n      tag_493\n        /* \"#utility.yul\":20327:20331   */\n      dup2\n        /* \"#utility.yul\":20201:20332   */\n      tag_425\n      jump\t// in\n    tag_493:\n        /* \"#utility.yul\":20193:20332   */\n      swap1\n      pop\n        /* \"#utility.yul\":20091:20339   */\n      swap2\n      swap1\n      pop\n      jump\t// out\n        /* \"#utility.yul\":20345:20764   */\n    tag_201:\n        /* \"#utility.yul\":20511:20515   */\n      0x00\n        /* \"#utility.yul\":20549:20551   */\n      0x20\n        /* \"#utility.yul\":20538:20547   */\n      dup3\n        /* \"#utility.yul\":20534:20552   */\n      add\n        /* \"#utility.yul\":20526:20552   */\n      swap1\n      pop\n        /* \"#utility.yul\":20598:20607   */\n      dup2\n        /* \"#utility.yul\":20592:20596   */\n      dup2\n        /* \"#utility.yul\":20588:20608   */\n      sub\n        /* \"#utility.yul\":20584:20585   */\n      0x00\n        /* \"#utility.yul\":20573:20582   */\n      dup4\n        /* \"#utility.yul\":20569:20586   */\n      add\n        /* \"#utility.yul\":20562:20609   */\n      mstore\n        /* \"#utility.yul\":20626:20757   */\n      tag_495\n        /* \"#utility.yul\":20752:20756   */\n      dup2\n        /* \"#utility.yul\":20626:20757   */\n      tag_430\n      jump\t// in\n    tag_495:\n        /* \"#utility.yul\":20618:20757   */\n      swap1\n      pop\n        /* \"#utility.yul\":20516:20764   */\n      swap2\n      swap1\n      pop\n      jump\t// out\n        /* \"#utility.yul\":20770:20988   */\n    tag_46:\n        /* \"#utility.yul\":20861:20865   */\n      0x00\n        /* \"#utility.yul\":20899:20901   */\n      0x20\n        /* \"#utility.yul\":20888:20897   */\n      dup3\n        /* \"#utility.yul\":20884:20902   */\n      add\n        /* \"#utility.yul\":20876:20902   */\n      swap1\n      pop\n        /* \"#utility.yul\":20912:20981   */\n      tag_497\n        /* \"#utility.yul\":20978:20979   */\n      0x00\n        /* \"#utility.yul\":20967:20976   */\n      dup4\n        /* \"#utility.yul\":20963:20980   */\n      add\n        /* \"#utility.yul\":20954:20960   */\n      dup5\n        /* \"#utility.yul\":20912:20981   */\n      tag_441\n      jump\t// in\n    tag_497:\n        /* \"#utility.yul\":20866:20988   */\n      swap3\n      swap2\n      pop\n      pop\n      jump\t// out\n        /* \"#utility.yul\":20994:21428   */\n    tag_175:\n        /* \"#utility.yul\":21139:21143   */\n      0x00\n        /* \"#utility.yul\":21177:21179   */\n      0x60\n        /* \"#utility.yul\":21166:21175   */\n      dup3\n        /* \"#utility.yul\":21162:21180   */\n      add\n        /* \"#utility.yul\":21154:21180   */\n      swap1\n      pop\n        /* \"#utility.yul\":21190:21259   */\n      tag_499\n        /* \"#utility.yul\":21256:21257   */\n      0x00\n        /* \"#utility.yul\":21245:21254   */\n      dup4\n        /* \"#utility.yul\":21241:21258   */\n      add\n        /* \"#utility.yul\":21232:21238   */\n      dup7\n        /* \"#utility.yul\":21190:21259   */\n      tag_441\n      jump\t// in\n    tag_499:\n        /* \"#utility.yul\":21269:21341   */\n      tag_500\n        /* \"#utility.yul\":21337:21339   */\n      0x20\n        /* \"#utility.yul\":21326:21335   */\n      dup4\n        /* \"#utility.yul\":21322:21340   */\n      add\n        /* \"#utility.yul\":21313:21319   */\n      dup6\n        /* \"#utility.yul\":21269:21341   */\n      tag_352\n      jump\t// in\n    tag_500:\n        /* \"#utility.yul\":21351:21421   */\n      tag_501\n        /* \"#utility.yul\":21417:21419   */\n      0x40\n        /* \"#utility.yul\":21406:21415   */\n      dup4\n        /* \"#utility.yul\":21402:21420   */\n      add\n        /* \"#utility.yul\":21393:21399   */\n      dup5\n        /* \"#utility.yul\":21351:21421   */\n      tag_441\n      jump\t// in\n    tag_501:\n        /* \"#utility.yul\":21144:21428   */\n      swap5\n      swap4\n      pop\n      pop\n      pop\n      pop\n      jump\t// out\n        /* \"#utility.yul\":21434:22539   */\n    tag_119:\n        /* \"#utility.yul\":21783:21787   */\n      0x00\n        /* \"#utility.yul\":21821:21824   */\n      0xa0\n        /* \"#utility.yul\":21810:21819   */\n      dup3\n        /* \"#utility.yul\":21806:21825   */\n      add\n        /* \"#utility.yul\":21798:21825   */\n      swap1\n      pop\n        /* \"#utility.yul\":21835:21904   */\n      tag_503\n        /* \"#utility.yul\":21901:21902   */\n      0x00\n        /* \"#utility.yul\":21890:21899   */\n      dup4\n        /* \"#utility.yul\":21886:21903   */\n      add\n        /* \"#utility.yul\":21877:21883   */\n      dup8\n        /* \"#utility.yul\":21835:21904   */\n      tag_441\n      jump\t// in\n    tag_503:\n        /* \"#utility.yul\":21914:21992   */\n      tag_504\n        /* \"#utility.yul\":21988:21990   */\n      0x20\n        /* \"#utility.yul\":21977:21986   */\n      dup4\n        /* \"#utility.yul\":21973:21991   */\n      add\n        /* \"#utility.yul\":21964:21970   */\n      dup7\n        /* \"#utility.yul\":21914:21992   */\n      tag_388\n      jump\t// in\n    tag_504:\n        /* \"#utility.yul\":22039:22048   */\n      dup2\n        /* \"#utility.yul\":22033:22037   */\n      dup2\n        /* \"#utility.yul\":22029:22049   */\n      sub\n        /* \"#utility.yul\":22024:22026   */\n      0x40\n        /* \"#utility.yul\":22013:22022   */\n      dup4\n        /* \"#utility.yul\":22009:22027   */\n      add\n        /* \"#utility.yul\":22002:22050   */\n      mstore\n        /* \"#utility.yul\":22067:22143   */\n      tag_505\n        /* \"#utility.yul\":22138:22142   */\n      dup2\n        /* \"#utility.yul\":22129:22135   */\n      dup6\n        /* \"#utility.yul\":22067:22143   */\n      tag_375\n      jump\t// in\n    tag_505:\n        /* \"#utility.yul\":22059:22143   */\n      swap1\n      pop\n        /* \"#utility.yul\":22190:22199   */\n      dup2\n        /* \"#utility.yul\":22184:22188   */\n      dup2\n        /* \"#utility.yul\":22180:22200   */\n      sub\n        /* \"#utility.yul\":22175:22177   */\n      0x60\n        /* \"#utility.yul\":22164:22173   */\n      dup4\n        /* \"#utility.yul\":22160:22178   */\n      add\n        /* \"#utility.yul\":22153:22201   */\n      mstore\n        /* \"#utility.yul\":22218:22348   */\n      tag_506\n        /* \"#utility.yul\":22343:22347   */\n      dup2\n        /* \"#utility.yul\":22218:22348   */\n      tag_405\n      jump\t// in\n    tag_506:\n        /* \"#utility.yul\":22210:22348   */\n      swap1\n      pop\n        /* \"#utility.yul\":22396:22405   */\n      dup2\n        /* \"#utility.yul\":22390:22394   */\n      dup2\n        /* \"#utility.yul\":22386:22406   */\n      sub\n        /* \"#utility.yul\":22380:22383   */\n      0x80\n        /* \"#utility.yul\":22369:22378   */\n      dup4\n        /* \"#utility.yul\":22365:22384   */\n      add\n        /* \"#utility.yul\":22358:22407   */\n      mstore\n        /* \"#utility.yul\":22424:22532   */\n      tag_507\n        /* \"#utility.yul\":22527:22531   */\n      dup2\n        /* \"#utility.yul\":22518:22524   */\n      dup5\n        /* \"#utility.yul\":22424:22532   */\n      tag_435\n      jump\t// in\n    tag_507:\n        /* \"#utility.yul\":22416:22532   */\n      swap1\n      pop\n        /* \"#utility.yul\":21788:22539   */\n      swap6\n      swap5\n      pop\n      pop\n      pop\n      pop\n      pop\n      jump\t// out\n        /* \"#utility.yul\":22545:24002   */\n    tag_101:\n        /* \"#utility.yul\":22960:22964   */\n      0x00\n        /* \"#utility.yul\":22998:23001   */\n      0x0120\n        /* \"#utility.yul\":22987:22996   */\n      dup3\n        /* \"#utility.yul\":22983:23002   */\n      add\n        /* \"#utility.yul\":22975:23002   */\n      swap1\n      pop\n        /* \"#utility.yul\":23012:23081   */\n      tag_509\n        /* \"#utility.yul\":23078:23079   */\n      0x00\n        /* \"#utility.yul\":23067:23076   */\n      dup4\n        /* \"#utility.yul\":23063:23080   */\n      add\n        /* \"#utility.yul\":23054:23060   */\n      dup13\n        /* \"#utility.yul\":23012:23081   */\n      tag_441\n      jump\t// in\n    tag_509:\n        /* \"#utility.yul\":23091:23162   */\n      tag_510\n        /* \"#utility.yul\":23158:23160   */\n      0x20\n        /* \"#utility.yul\":23147:23156   */\n      dup4\n        /* \"#utility.yul\":23143:23161   */\n      add\n        /* \"#utility.yul\":23134:23140   */\n      dup12\n        /* \"#utility.yul\":23091:23162   */\n      tag_445\n      jump\t// in\n    tag_510:\n        /* \"#utility.yul\":23172:23243   */\n      tag_511\n        /* \"#utility.yul\":23239:23241   */\n      0x40\n        /* \"#utility.yul\":23228:23237   */\n      dup4\n        /* \"#utility.yul\":23224:23242   */\n      add\n        /* \"#utility.yul\":23215:23221   */\n      dup11\n        /* \"#utility.yul\":23172:23243   */\n      tag_445\n      jump\t// in\n    tag_511:\n        /* \"#utility.yul\":23253:23341   */\n      tag_512\n        /* \"#utility.yul\":23337:23339   */\n      0x60\n        /* \"#utility.yul\":23326:23335   */\n      dup4\n        /* \"#utility.yul\":23322:23340   */\n      add\n        /* \"#utility.yul\":23313:23319   */\n      dup10\n        /* \"#utility.yul\":23253:23341   */\n      tag_348\n      jump\t// in\n    tag_512:\n        /* \"#utility.yul\":23351:23424   */\n      tag_513\n        /* \"#utility.yul\":23419:23422   */\n      0x80\n        /* \"#utility.yul\":23408:23417   */\n      dup4\n        /* \"#utility.yul\":23404:23423   */\n      add\n        /* \"#utility.yul\":23395:23401   */\n      dup9\n        /* \"#utility.yul\":23351:23424   */\n      tag_452\n      jump\t// in\n    tag_513:\n        /* \"#utility.yul\":23434:23507   */\n      tag_514\n        /* \"#utility.yul\":23502:23505   */\n      0xa0\n        /* \"#utility.yul\":23491:23500   */\n      dup4\n        /* \"#utility.yul\":23487:23506   */\n      add\n        /* \"#utility.yul\":23478:23484   */\n      dup8\n        /* \"#utility.yul\":23434:23507   */\n      tag_452\n      jump\t// in\n    tag_514:\n        /* \"#utility.yul\":23555:23564   */\n      dup2\n        /* \"#utility.yul\":23549:23553   */\n      dup2\n        /* \"#utility.yul\":23545:23565   */\n      sub\n        /* \"#utility.yul\":23539:23542   */\n      0xc0\n        /* \"#utility.yul\":23528:23537   */\n      dup4\n        /* \"#utility.yul\":23524:23543   */\n      add\n        /* \"#utility.yul\":23517:23566   */\n      mstore\n        /* \"#utility.yul\":23583:23691   */\n      tag_515\n        /* \"#utility.yul\":23686:23690   */\n      dup2\n        /* \"#utility.yul\":23677:23683   */\n      dup7\n        /* \"#utility.yul\":23583:23691   */\n      tag_435\n      jump\t// in\n    tag_515:\n        /* \"#utility.yul\":23575:23691   */\n      swap1\n      pop\n        /* \"#utility.yul\":23739:23748   */\n      dup2\n        /* \"#utility.yul\":23733:23737   */\n      dup2\n        /* \"#utility.yul\":23729:23749   */\n      sub\n        /* \"#utility.yul\":23723:23726   */\n      0xe0\n        /* \"#utility.yul\":23712:23721   */\n      dup4\n        /* \"#utility.yul\":23708:23727   */\n      add\n        /* \"#utility.yul\":23701:23750   */\n      mstore\n        /* \"#utility.yul\":23767:23843   */\n      tag_516\n        /* \"#utility.yul\":23838:23842   */\n      dup2\n        /* \"#utility.yul\":23829:23835   */\n      dup6\n        /* \"#utility.yul\":23767:23843   */\n      tag_375\n      jump\t// in\n    tag_516:\n        /* \"#utility.yul\":23759:23843   */\n      swap1\n      pop\n        /* \"#utility.yul\":23891:23900   */\n      dup2\n        /* \"#utility.yul\":23885:23889   */\n      dup2\n        /* \"#utility.yul\":23881:23901   */\n      sub\n        /* \"#utility.yul\":23875:23878   */\n      0x0100\n        /* \"#utility.yul\":23864:23873   */\n      dup4\n        /* \"#utility.yul\":23860:23879   */\n      add\n        /* \"#utility.yul\":23853:23902   */\n      mstore\n        /* \"#utility.yul\":23919:23995   */\n      tag_517\n        /* \"#utility.yul\":23990:23994   */\n      dup2\n        /* \"#utility.yul\":23981:23987   */\n      dup5\n        /* \"#utility.yul\":23919:23995   */\n      tag_375\n      jump\t// in\n    tag_517:\n        /* \"#utility.yul\":23911:23995   */\n      swap1\n      pop\n        /* \"#utility.yul\":22965:24002   */\n      swap11\n      swap10\n      pop\n      pop\n      pop\n      pop\n      pop\n      pop\n      pop\n      pop\n      pop\n      pop\n      jump\t// out\n        /* \"#utility.yul\":24008:24230   */\n    tag_39:\n        /* \"#utility.yul\":24101:24105   */\n      0x00\n        /* \"#utility.yul\":24139:24141   */\n      0x20\n        /* \"#utility.yul\":24128:24137   */\n      dup3\n        /* \"#utility.yul\":24124:24142   */\n      add\n        /* \"#utility.yul\":24116:24142   */\n      swap1\n      pop\n        /* \"#utility.yul\":24152:24223   */\n      tag_519\n        /* \"#utility.yul\":24220:24221   */\n      0x00\n        /* \"#utility.yul\":24209:24218   */\n      dup4\n        /* \"#utility.yul\":24205:24222   */\n      add\n        /* \"#utility.yul\":24196:24202   */\n      dup5\n        /* \"#utility.yul\":24152:24223   */\n      tag_452\n      jump\t// in\n    tag_519:\n        /* \"#utility.yul\":24106:24230   */\n      swap3\n      swap2\n      pop\n      pop\n      jump\t// out\n        /* \"#utility.yul\":24236:24365   */\n    tag_252:\n        /* \"#utility.yul\":24270:24276   */\n      0x00\n        /* \"#utility.yul\":24297:24317   */\n      tag_521\n      tag_522\n      jump\t// in\n    tag_521:\n        /* \"#utility.yul\":24287:24317   */\n      swap1\n      pop\n        /* \"#utility.yul\":24326:24359   */\n      tag_523\n        /* \"#utility.yul\":24354:24358   */\n      dup3\n        /* \"#utility.yul\":24346:24352   */\n      dup3\n        /* \"#utility.yul\":24326:24359   */\n      tag_524\n      jump\t// in\n    tag_523:\n        /* \"#utility.yul\":24277:24365   */\n      swap2\n      swap1\n      pop\n      jump\t// out\n        /* \"#utility.yul\":24371:24446   */\n    tag_522:\n        /* \"#utility.yul\":24404:24410   */\n      0x00\n        /* \"#utility.yul\":24437:24439   */\n      0x40\n        /* \"#utility.yul\":24431:24440   */\n      mload\n        /* \"#utility.yul\":24421:24440   */\n      swap1\n      pop\n        /* \"#utility.yul\":24411:24446   */\n      swap1\n      jump\t// out\n        /* \"#utility.yul\":24452:24759   */\n    tag_251:\n        /* \"#utility.yul\":24513:24517   */\n      0x00\n        /* \"#utility.yul\":24603:24621   */\n      0xffffffffffffffff\n        /* \"#utility.yul\":24595:24601   */\n      dup3\n        /* \"#utility.yul\":24592:24622   */\n      gt\n        /* \"#utility.yul\":24589:24591   */\n      iszero\n      tag_527\n      jumpi\n        /* \"#utility.yul\":24625:24643   */\n      tag_528\n      tag_529\n      jump\t// in\n    tag_528:\n        /* \"#utility.yul\":24589:24591   */\n    tag_527:\n        /* \"#utility.yul\":24663:24692   */\n      tag_530\n        /* \"#utility.yul\":24685:24691   */\n      dup3\n        /* \"#utility.yul\":24663:24692   */\n      tag_374\n      jump\t// in\n    tag_530:\n        /* \"#utility.yul\":24655:24692   */\n      swap1\n      pop\n        /* \"#utility.yul\":24747:24751   */\n      0x20\n        /* \"#utility.yul\":24741:24745   */\n      dup2\n        /* \"#utility.yul\":24737:24752   */\n      add\n        /* \"#utility.yul\":24729:24752   */\n      swap1\n      pop\n        /* \"#utility.yul\":24518:24759   */\n      swap2\n      swap1\n      pop\n      jump\t// out\n        /* \"#utility.yul\":24765:24863   */\n    tag_368:\n        /* \"#utility.yul\":24816:24822   */\n      0x00\n        /* \"#utility.yul\":24850:24855   */\n      dup2\n        /* \"#utility.yul\":24844:24856   */\n      mload\n        /* \"#utility.yul\":24834:24856   */\n      swap1\n      pop\n        /* \"#utility.yul\":24823:24863   */\n      swap2\n      swap1\n      pop\n      jump\t// out\n        /* \"#utility.yul\":24869:24968   */\n    tag_395:\n        /* \"#utility.yul\":24921:24927   */\n      0x00\n        /* \"#utility.yul\":24955:24960   */\n      dup2\n        /* \"#utility.yul\":24949:24961   */\n      mload\n        /* \"#utility.yul\":24939:24961   */\n      swap1\n      pop\n        /* \"#utility.yul\":24928:24968   */\n      swap2\n      swap1\n      pop\n      jump\t// out\n        /* \"#utility.yul\":24974:25132   */\n    tag_370:\n        /* \"#utility.yul\":25047:25058   */\n      0x00\n        /* \"#utility.yul\":25081:25087   */\n      dup3\n        /* \"#utility.yul\":25076:25079   */\n      dup3\n        /* \"#utility.yul\":25069:25088   */\n      mstore\n        /* \"#utility.yul\":25121:25125   */\n      0x20\n        /* \"#utility.yul\":25116:25119   */\n      dup3\n        /* \"#utility.yul\":25112:25126   */\n      add\n        /* \"#utility.yul\":25097:25126   */\n      swap1\n      pop\n        /* \"#utility.yul\":25059:25132   */\n      swap3\n      swap2\n      pop\n      pop\n      jump\t// out\n        /* \"#utility.yul\":25138:25306   */\n    tag_379:\n        /* \"#utility.yul\":25221:25232   */\n      0x00\n        /* \"#utility.yul\":25255:25261   */\n      dup3\n        /* \"#utility.yul\":25250:25253   */\n      dup3\n        /* \"#utility.yul\":25243:25262   */\n      mstore\n        /* \"#utility.yul\":25295:25299   */\n      0x20\n        /* \"#utility.yul\":25290:25293   */\n      dup3\n        /* \"#utility.yul\":25286:25300   */\n      add\n        /* \"#utility.yul\":25271:25300   */\n      swap1\n      pop\n        /* \"#utility.yul\":25233:25306   */\n      swap3\n      swap2\n      pop\n      pop\n      jump\t// out\n        /* \"#utility.yul\":25312:25459   */\n    tag_386:\n        /* \"#utility.yul\":25413:25424   */\n      0x00\n        /* \"#utility.yul\":25450:25453   */\n      dup2\n        /* \"#utility.yul\":25435:25453   */\n      swap1\n      pop\n        /* \"#utility.yul\":25425:25459   */\n      swap3\n      swap2\n      pop\n      pop\n      jump\t// out\n        /* \"#utility.yul\":25465:25634   */\n    tag_397:\n        /* \"#utility.yul\":25549:25560   */\n      0x00\n        /* \"#utility.yul\":25583:25589   */\n      dup3\n        /* \"#utility.yul\":25578:25581   */\n      dup3\n        /* \"#utility.yul\":25571:25590   */\n      mstore\n        /* \"#utility.yul\":25623:25627   */\n      0x20\n        /* \"#utility.yul\":25618:25621   */\n      dup3\n        /* \"#utility.yul\":25614:25628   */\n      add\n        /* \"#utility.yul\":25599:25628   */\n      swap1\n      pop\n        /* \"#utility.yul\":25561:25634   */\n      swap3\n      swap2\n      pop\n      pop\n      jump\t// out\n        /* \"#utility.yul\":25640:25825   */\n    tag_157:\n        /* \"#utility.yul\":25680:25681   */\n      0x00\n        /* \"#utility.yul\":25697:25717   */\n      tag_538\n        /* \"#utility.yul\":25715:25716   */\n      dup3\n        /* \"#utility.yul\":25697:25717   */\n      tag_451\n      jump\t// in\n    tag_538:\n        /* \"#utility.yul\":25692:25717   */\n      swap2\n      pop\n        /* \"#utility.yul\":25731:25751   */\n      tag_539\n        /* \"#utility.yul\":25749:25750   */\n      dup4\n        /* \"#utility.yul\":25731:25751   */\n      tag_451\n      jump\t// in\n    tag_539:\n        /* \"#utility.yul\":25726:25751   */\n      swap3\n      pop\n        /* \"#utility.yul\":25770:25771   */\n      dup3\n        /* \"#utility.yul\":25760:25762   */\n      tag_540\n      jumpi\n        /* \"#utility.yul\":25775:25793   */\n      tag_541\n      tag_542\n      jump\t// in\n    tag_541:\n        /* \"#utility.yul\":25760:25762   */\n    tag_540:\n        /* \"#utility.yul\":25817:25818   */\n      dup3\n        /* \"#utility.yul\":25814:25815   */\n      dup3\n        /* \"#utility.yul\":25810:25819   */\n      div\n        /* \"#utility.yul\":25805:25819   */\n      swap1\n      pop\n        /* \"#utility.yul\":25682:25825   */\n      swap3\n      swap2\n      pop\n      pop\n      jump\t// out\n        /* \"#utility.yul\":25831:26179   */\n    tag_155:\n        /* \"#utility.yul\":25871:25878   */\n      0x00\n        /* \"#utility.yul\":25894:25914   */\n      tag_544\n        /* \"#utility.yul\":25912:25913   */\n      dup3\n        /* \"#utility.yul\":25894:25914   */\n      tag_451\n      jump\t// in\n    tag_544:\n        /* \"#utility.yul\":25889:25914   */\n      swap2\n      pop\n        /* \"#utility.yul\":25928:25948   */\n      tag_545\n        /* \"#utility.yul\":25946:25947   */\n      dup4\n        /* \"#utility.yul\":25928:25948   */\n      tag_451\n      jump\t// in\n    tag_545:\n        /* \"#utility.yul\":25923:25948   */\n      swap3\n      pop\n        /* \"#utility.yul\":26116:26117   */\n      dup2\n        /* \"#utility.yul\":26048:26114   */\n      0xffffffffffffffffffffffffffffffffffffffffffffffffffffffffffffffff\n        /* \"#utility.yul\":26044:26118   */\n      div\n        /* \"#utility.yul\":26041:26042   */\n      dup4\n        /* \"#utility.yul\":26038:26119   */\n      gt\n        /* \"#utility.yul\":26033:26034   */\n      dup3\n        /* \"#utility.yul\":26026:26035   */\n      iszero\n        /* \"#utility.yul\":26019:26036   */\n      iszero\n        /* \"#utility.yul\":26015:26120   */\n      and\n        /* \"#utility.yul\":26012:26014   */\n      iszero\n      tag_546\n      jumpi\n        /* \"#utility.yul\":26123:26141   */\n      tag_547\n      tag_548\n      jump\t// in\n    tag_547:\n        /* \"#utility.yul\":26012:26014   */\n    tag_546:\n        /* \"#utility.yul\":26171:26172   */\n      dup3\n        /* \"#utility.yul\":26168:26169   */\n      dup3\n        /* \"#utility.yul\":26164:26173   */\n      mul\n        /* \"#utility.yul\":26153:26173   */\n      swap1\n      pop\n        /* \"#utility.yul\":25879:26179   */\n      swap3\n      swap2\n      pop\n      pop\n      jump\t// out\n        /* \"#utility.yul\":26185:26376   */\n    tag_153:\n        /* \"#utility.yul\":26225:26229   */\n      0x00\n        /* \"#utility.yul\":26245:26265   */\n      tag_550\n        /* \"#utility.yul\":26263:26264   */\n      dup3\n        /* \"#utility.yul\":26245:26265   */\n      tag_451\n      jump\t// in\n    tag_550:\n        /* \"#utility.yul\":26240:26265   */\n      swap2\n      pop\n        /* \"#utility.yul\":26279:26299   */\n      tag_551\n        /* \"#utility.yul\":26297:26298   */\n      dup4\n        /* \"#utility.yul\":26279:26299   */\n      tag_451\n      jump\t// in\n    tag_551:\n        /* \"#utility.yul\":26274:26299   */\n      swap3\n      pop\n        /* \"#utility.yul\":26318:26319   */\n      dup3\n        /* \"#utility.yul\":26315:26316   */\n      dup3\n        /* \"#utility.yul\":26312:26320   */\n      lt\n        /* \"#utility.yul\":26309:26311   */\n      iszero\n      tag_552\n      jumpi\n        /* \"#utility.yul\":26323:26341   */\n      tag_553\n      tag_548\n      jump\t// in\n    tag_553:\n        /* \"#utility.yul\":26309:26311   */\n    tag_552:\n        /* \"#utility.yul\":26368:26369   */\n      dup3\n        /* \"#utility.yul\":26365:26366   */\n      dup3\n        /* \"#utility.yul\":26361:26370   */\n      sub\n        /* \"#utility.yul\":26353:26370   */\n      swap1\n      pop\n        /* \"#utility.yul\":26230:26376   */\n      swap3\n      swap2\n      pop\n      pop\n      jump\t// out\n        /* \"#utility.yul\":26382:26478   */\n    tag_355:\n        /* \"#utility.yul\":26419:26426   */\n      0x00\n        /* \"#utility.yul\":26448:26472   */\n      tag_555\n        /* \"#utility.yul\":26466:26471   */\n      dup3\n        /* \"#utility.yul\":26448:26472   */\n      tag_556\n      jump\t// in\n    tag_555:\n        /* \"#utility.yul\":26437:26472   */\n      swap1\n      pop\n        /* \"#utility.yul\":26427:26478   */\n      swap2\n      swap1\n      pop\n      jump\t// out\n        /* \"#utility.yul\":26484:26588   */\n    tag_351:\n        /* \"#utility.yul\":26529:26536   */\n      0x00\n        /* \"#utility.yul\":26558:26582   */\n      tag_558\n        /* \"#utility.yul\":26576:26581   */\n      dup3\n        /* \"#utility.yul\":26558:26582   */\n      tag_556\n      jump\t// in\n    tag_558:\n        /* \"#utility.yul\":26547:26582   */\n      swap1\n      pop\n        /* \"#utility.yul\":26537:26588   */\n      swap2\n      swap1\n      pop\n      jump\t// out\n        /* \"#utility.yul\":26594:26684   */\n    tag_364:\n        /* \"#utility.yul\":26628:26635   */\n      0x00\n        /* \"#utility.yul\":26671:26676   */\n      dup2\n        /* \"#utility.yul\":26664:26677   */\n      iszero\n        /* \"#utility.yul\":26657:26678   */\n      iszero\n        /* \"#utility.yul\":26646:26678   */\n      swap1\n      pop\n        /* \"#utility.yul\":26636:26684   */\n      swap2\n      swap1\n      pop\n      jump\t// out\n        /* \"#utility.yul\":26690:26779   */\n    tag_444:\n        /* \"#utility.yul\":26726:26733   */\n      0x00\n        /* \"#utility.yul\":26766:26772   */\n      0xffff\n        /* \"#utility.yul\":26759:26764   */\n      dup3\n        /* \"#utility.yul\":26755:26773   */\n      and\n        /* \"#utility.yul\":26744:26773   */\n      swap1\n      pop\n        /* \"#utility.yul\":26734:26779   */\n      swap2\n      swap1\n      pop\n      jump\t// out\n        /* \"#utility.yul\":26785:26911   */\n    tag_556:\n        /* \"#utility.yul\":26822:26829   */\n      0x00\n        /* \"#utility.yul\":26862:26904   */\n      0xffffffffffffffffffffffffffffffffffffffff\n        /* \"#utility.yul\":26855:26860   */\n      dup3\n        /* \"#utility.yul\":26851:26905   */\n      and\n        /* \"#utility.yul\":26840:26905   */\n      swap1\n      pop\n        /* \"#utility.yul\":26830:26911   */\n      swap2\n      swap1\n      pop\n      jump\t// out\n        /* \"#utility.yul\":26917:26994   */\n    tag_451:\n        /* \"#utility.yul\":26954:26961   */\n      0x00\n        /* \"#utility.yul\":26983:26988   */\n      dup2\n        /* \"#utility.yul\":26972:26988   */\n      swap1\n      pop\n        /* \"#utility.yul\":26962:26994   */\n      swap2\n      swap1\n      pop\n      jump\t// out\n        /* \"#utility.yul\":27000:27086   */\n    tag_563:\n        /* \"#utility.yul\":27035:27042   */\n      0x00\n        /* \"#utility.yul\":27075:27079   */\n      0xff\n        /* \"#utility.yul\":27068:27073   */\n      dup3\n        /* \"#utility.yul\":27064:27080   */\n      and\n        /* \"#utility.yul\":27053:27080   */\n      swap1\n      pop\n        /* \"#utility.yul\":27043:27086   */\n      swap2\n      swap1\n      pop\n      jump\t// out\n        /* \"#utility.yul\":27092:27209   */\n    tag_391:\n        /* \"#utility.yul\":27148:27157   */\n      0x00\n        /* \"#utility.yul\":27181:27203   */\n      tag_566\n        /* \"#utility.yul\":27197:27202   */\n      dup3\n        /* \"#utility.yul\":27181:27203   */\n      tag_563\n      jump\t// in\n    tag_566:\n        /* \"#utility.yul\":27168:27203   */\n      swap1\n      pop\n        /* \"#utility.yul\":27158:27209   */\n      swap2\n      swap1\n      pop\n      jump\t// out\n        /* \"#utility.yul\":27215:27326   */\n    tag_448:\n        /* \"#utility.yul\":27264:27273   */\n      0x00\n        /* \"#utility.yul\":27297:27320   */\n      tag_568\n        /* \"#utility.yul\":27314:27319   */\n      dup3\n        /* \"#utility.yul\":27297:27320   */\n      tag_444\n      jump\t// in\n    tag_568:\n        /* \"#utility.yul\":27284:27320   */\n      swap1\n      pop\n        /* \"#utility.yul\":27274:27326   */\n      swap2\n      swap1\n      pop\n      jump\t// out\n        /* \"#utility.yul\":27332:27486   */\n    tag_255:\n        /* \"#utility.yul\":27416:27422   */\n      dup3\n        /* \"#utility.yul\":27411:27414   */\n      dup2\n        /* \"#utility.yul\":27406:27409   */\n      dup4\n        /* \"#utility.yul\":27393:27423   */\n      calldatacopy\n        /* \"#utility.yul\":27478:27479   */\n      0x00\n        /* \"#utility.yul\":27469:27475   */\n      dup4\n        /* \"#utility.yul\":27464:27467   */\n      dup4\n        /* \"#utility.yul\":27460:27476   */\n      add\n        /* \"#utility.yul\":27453:27480   */\n      mstore\n        /* \"#utility.yul\":27383:27486   */\n      pop\n      pop\n      pop\n      jump\t// out\n        /* \"#utility.yul\":27492:27799   */\n    tag_372:\n        /* \"#utility.yul\":27560:27561   */\n      0x00\n        /* \"#utility.yul\":27570:27683   */\n    tag_571:\n        /* \"#utility.yul\":27584:27590   */\n      dup4\n        /* \"#utility.yul\":27581:27582   */\n      dup2\n        /* \"#utility.yul\":27578:27591   */\n      lt\n        /* \"#utility.yul\":27570:27683   */\n      iszero\n      tag_573\n      jumpi\n        /* \"#utility.yul\":27669:27670   */\n      dup1\n        /* \"#utility.yul\":27664:27667   */\n      dup3\n        /* \"#utility.yul\":27660:27671   */\n      add\n        /* \"#utility.yul\":27654:27672   */\n      mload\n        /* \"#utility.yul\":27650:27651   */\n      dup2\n        /* \"#utility.yul\":27645:27648   */\n      dup5\n        /* \"#utility.yul\":27641:27652   */\n      add\n        /* \"#utility.yul\":27634:27673   */\n      mstore\n        /* \"#utility.yul\":27606:27608   */\n      0x20\n        /* \"#utility.yul\":27603:27604   */\n      dup2\n        /* \"#utility.yul\":27599:27609   */\n      add\n        /* \"#utility.yul\":27594:27609   */\n      swap1\n      pop\n        /* \"#utility.yul\":27570:27683   */\n      jump(tag_571)\n    tag_573:\n        /* \"#utility.yul\":27701:27707   */\n      dup4\n        /* \"#utility.yul\":27698:27699   */\n      dup2\n        /* \"#utility.yul\":27695:27708   */\n      gt\n        /* \"#utility.yul\":27692:27694   */\n      iszero\n      tag_574\n      jumpi\n        /* \"#utility.yul\":27781:27782   */\n      0x00\n        /* \"#utility.yul\":27772:27778   */\n      dup5\n        /* \"#utility.yul\":27767:27770   */\n      dup5\n        /* \"#utility.yul\":27763:27779   */\n      add\n        /* \"#utility.yul\":27756:27783   */\n      mstore\n        /* \"#utility.yul\":27692:27694   */\n    tag_574:\n        /* \"#utility.yul\":27541:27799   */\n      pop\n      pop\n      pop\n      pop\n      jump\t// out\n        /* \"#utility.yul\":27805:28086   */\n    tag_524:\n        /* \"#utility.yul\":27888:27915   */\n      tag_576\n        /* \"#utility.yul\":27910:27914   */\n      dup3\n        /* \"#utility.yul\":27888:27915   */\n      tag_374\n      jump\t// in\n    tag_576:\n        /* \"#utility.yul\":27880:27886   */\n      dup2\n        /* \"#utility.yul\":27876:27916   */\n      add\n        /* \"#utility.yul\":28018:28024   */\n      dup2\n        /* \"#utility.yul\":28006:28016   */\n      dup2\n        /* \"#utility.yul\":28003:28025   */\n      lt\n        /* \"#utility.yul\":27982:28000   */\n      0xffffffffffffffff\n        /* \"#utility.yul\":27970:27980   */\n      dup3\n        /* \"#utility.yul\":27967:28001   */\n      gt\n        /* \"#utility.yul\":27964:28026   */\n      or\n        /* \"#utility.yul\":27961:27963   */\n      iszero\n      tag_577\n      jumpi\n        /* \"#utility.yul\":28029:28047   */\n      tag_578\n      tag_529\n      jump\t// in\n    tag_578:\n        /* \"#utility.yul\":27961:27963   */\n    tag_577:\n        /* \"#utility.yul\":28069:28079   */\n      dup1\n        /* \"#utility.yul\":28065:28067   */\n      0x40\n        /* \"#utility.yul\":28058:28080   */\n      mstore\n        /* \"#utility.yul\":27848:28086   */\n      pop\n      pop\n      pop\n      jump\t// out\n        /* \"#utility.yul\":28092:28192   */\n    tag_360:\n        /* \"#utility.yul\":28131:28138   */\n      0x00\n        /* \"#utility.yul\":28160:28186   */\n      tag_580\n        /* \"#utility.yul\":28180:28185   */\n      dup3\n        /* \"#utility.yul\":28160:28186   */\n      tag_581\n      jump\t// in\n    tag_580:\n        /* \"#utility.yul\":28149:28186   */\n      swap1\n      pop\n        /* \"#utility.yul\":28139:28192   */\n      swap2\n      swap1\n      pop\n      jump\t// out\n        /* \"#utility.yul\":28198:28292   */\n    tag_581:\n        /* \"#utility.yul\":28237:28244   */\n      0x00\n        /* \"#utility.yul\":28266:28286   */\n      tag_583\n        /* \"#utility.yul\":28280:28285   */\n      dup3\n        /* \"#utility.yul\":28266:28286   */\n      tag_584\n      jump\t// in\n    tag_583:\n        /* \"#utility.yul\":28255:28286   */\n      swap1\n      pop\n        /* \"#utility.yul\":28245:28292   */\n      swap2\n      swap1\n      pop\n      jump\t// out\n        /* \"#utility.yul\":28298:28478   */\n    tag_548:\n        /* \"#utility.yul\":28346:28423   */\n      0x4e487b7100000000000000000000000000000000000000000000000000000000\n        /* \"#utility.yul\":28343:28344   */\n      0x00\n        /* \"#utility.yul\":28336:28424   */\n      mstore\n        /* \"#utility.yul\":28443:28447   */\n      0x11\n        /* \"#utility.yul\":28440:28441   */\n      0x04\n        /* \"#utility.yul\":28433:28448   */\n      mstore\n        /* \"#utility.yul\":28467:28471   */\n      0x24\n        /* \"#utility.yul\":28464:28465   */\n      0x00\n        /* \"#utility.yul\":28457:28472   */\n      revert\n        /* \"#utility.yul\":28484:28664   */\n    tag_542:\n        /* \"#utility.yul\":28532:28609   */\n      0x4e487b7100000000000000000000000000000000000000000000000000000000\n        /* \"#utility.yul\":28529:28530   */\n      0x00\n        /* \"#utility.yul\":28522:28610   */\n      mstore\n        /* \"#utility.yul\":28629:28633   */\n      0x12\n        /* \"#utility.yul\":28626:28627   */\n      0x04\n        /* \"#utility.yul\":28619:28634   */\n      mstore\n        /* \"#utility.yul\":28653:28657   */\n      0x24\n        /* \"#utility.yul\":28650:28651   */\n      0x00\n        /* \"#utility.yul\":28643:28658   */\n      revert\n        /* \"#utility.yul\":28670:28850   */\n    tag_529:\n        /* \"#utility.yul\":28718:28795   */\n      0x4e487b7100000000000000000000000000000000000000000000000000000000\n        /* \"#utility.yul\":28715:28716   */\n      0x00\n        /* \"#utility.yul\":28708:28796   */\n      mstore\n        /* \"#utility.yul\":28815:28819   */\n      0x41\n        /* \"#utility.yul\":28812:28813   */\n      0x04\n        /* \"#utility.yul\":28805:28820   */\n      mstore\n        /* \"#utility.yul\":28839:28843   */\n      0x24\n        /* \"#utility.yul\":28836:28837   */\n      0x00\n        /* \"#utility.yul\":28829:28844   */\n      revert\n        /* \"#utility.yul\":28856:28958   */\n    tag_374:\n        /* \"#utility.yul\":28897:28903   */\n      0x00\n        /* \"#utility.yul\":28948:28950   */\n      0x1f\n        /* \"#utility.yul\":28944:28951   */\n      not\n        /* \"#utility.yul\":28939:28941   */\n      0x1f\n        /* \"#utility.yul\":28932:28937   */\n      dup4\n        /* \"#utility.yul\":28928:28942   */\n      add\n        /* \"#utility.yul\":28924:28952   */\n      and\n        /* \"#utility.yul\":28914:28952   */\n      swap1\n      pop\n        /* \"#utility.yul\":28904:28958   */\n      swap2\n      swap1\n      pop\n      jump\t// out\n        /* \"#utility.yul\":28964:29058   */\n    tag_584:\n        /* \"#utility.yul\":28997:29005   */\n      0x00\n        /* \"#utility.yul\":29045:29050   */\n      dup2\n        /* \"#utility.yul\":29041:29043   */\n      0x60\n        /* \"#utility.yul\":29037:29051   */\n      shl\n        /* \"#utility.yul\":29016:29051   */\n      swap1\n      pop\n        /* \"#utility.yul\":29006:29058   */\n      swap2\n      swap1\n      pop\n      jump\t// out\n        /* \"#utility.yul\":29064:29285   */\n    tag_404:\n        /* \"#utility.yul\":29204:29238   */\n      0x4c69624469616d6f6e643a204d75737420626520636f6e7472616374206f776e\n        /* \"#utility.yul\":29200:29201   */\n      0x00\n        /* \"#utility.yul\":29192:29198   */\n      dup3\n        /* \"#utility.yul\":29188:29202   */\n      add\n        /* \"#utility.yul\":29181:29239   */\n      mstore\n        /* \"#utility.yul\":29273:29277   */\n      0x6572000000000000000000000000000000000000000000000000000000000000\n        /* \"#utility.yul\":29268:29270   */\n      0x20\n        /* \"#utility.yul\":29260:29266   */\n      dup3\n        /* \"#utility.yul\":29256:29271   */\n      add\n        /* \"#utility.yul\":29249:29278   */\n      mstore\n        /* \"#utility.yul\":29170:29285   */\n      pop\n      jump\t// out\n        /* \"#utility.yul\":29291:29443   */\n    tag_409:\n        /* \"#utility.yul\":29431:29435   */\n      0x3078000000000000000000000000000000000000000000000000000000000000\n        /* \"#utility.yul\":29427:29428   */\n      0x00\n        /* \"#utility.yul\":29419:29425   */\n      dup3\n        /* \"#utility.yul\":29415:29429   */\n      add\n        /* \"#utility.yul\":29408:29436   */\n      mstore\n        /* \"#utility.yul\":29397:29443   */\n      pop\n      jump\t// out\n        /* \"#utility.yul\":29449:29674   */\n    tag_414:\n        /* \"#utility.yul\":29589:29623   */\n      0x416464726573733a20696e73756666696369656e742062616c616e636520666f\n        /* \"#utility.yul\":29585:29586   */\n      0x00\n        /* \"#utility.yul\":29577:29583   */\n      dup3\n        /* \"#utility.yul\":29573:29587   */\n      add\n        /* \"#utility.yul\":29566:29624   */\n      mstore\n        /* \"#utility.yul\":29658:29666   */\n      0x722063616c6c0000000000000000000000000000000000000000000000000000\n        /* \"#utility.yul\":29653:29655   */\n      0x20\n        /* \"#utility.yul\":29645:29651   */\n      dup3\n        /* \"#utility.yul\":29641:29656   */\n      add\n        /* \"#utility.yul\":29634:29667   */\n      mstore\n        /* \"#utility.yul\":29555:29674   */\n      pop\n      jump\t// out\n        /* \"#utility.yul\":29680:29838   */\n    tag_419:\n        /* \"#utility.yul\":29820:29830   */\n      0x7374617267617465000000000000000000000000000000000000000000000000\n        /* \"#utility.yul\":29816:29817   */\n      0x00\n        /* \"#utility.yul\":29808:29814   */\n      dup3\n        /* \"#utility.yul\":29804:29818   */\n      add\n        /* \"#utility.yul\":29797:29831   */\n      mstore\n        /* \"#utility.yul\":29786:29838   */\n      pop\n      jump\t// out\n        /* \"#utility.yul\":29844:30023   */\n    tag_424:\n        /* \"#utility.yul\":29984:30015   */\n      0x416464726573733a2063616c6c20746f206e6f6e2d636f6e7472616374000000\n        /* \"#utility.yul\":29980:29981   */\n      0x00\n        /* \"#utility.yul\":29972:29978   */\n      dup3\n        /* \"#utility.yul\":29968:29982   */\n      add\n        /* \"#utility.yul\":29961:30016   */\n      mstore\n        /* \"#utility.yul\":29950:30023   */\n      pop\n      jump\t// out\n        /* \"#utility.yul\":30029:30258   */\n    tag_429:\n        /* \"#utility.yul\":30169:30203   */\n      0x5361666545524332303a204552433230206f7065726174696f6e20646964206e\n        /* \"#utility.yul\":30165:30166   */\n      0x00\n        /* \"#utility.yul\":30157:30163   */\n      dup3\n        /* \"#utility.yul\":30153:30167   */\n      add\n        /* \"#utility.yul\":30146:30204   */\n      mstore\n        /* \"#utility.yul\":30238:30250   */\n      0x6f74207375636365656400000000000000000000000000000000000000000000\n        /* \"#utility.yul\":30233:30235   */\n      0x20\n        /* \"#utility.yul\":30225:30231   */\n      dup3\n        /* \"#utility.yul\":30221:30236   */\n      add\n        /* \"#utility.yul\":30214:30251   */\n      mstore\n        /* \"#utility.yul\":30135:30258   */\n      pop\n      jump\t// out\n        /* \"#utility.yul\":30264:30505   */\n    tag_434:\n        /* \"#utility.yul\":30404:30438   */\n      0x5361666545524332303a20617070726f76652066726f6d206e6f6e2d7a65726f\n        /* \"#utility.yul\":30400:30401   */\n      0x00\n        /* \"#utility.yul\":30392:30398   */\n      dup3\n        /* \"#utility.yul\":30388:30402   */\n      add\n        /* \"#utility.yul\":30381:30439   */\n      mstore\n        /* \"#utility.yul\":30473:30497   */\n      0x20746f206e6f6e2d7a65726f20616c6c6f77616e636500000000000000000000\n        /* \"#utility.yul\":30468:30470   */\n      0x20\n        /* \"#utility.yul\":30460:30466   */\n      dup3\n        /* \"#utility.yul\":30456:30471   */\n      add\n        /* \"#utility.yul\":30449:30498   */\n      mstore\n        /* \"#utility.yul\":30370:30505   */\n      pop\n      jump\t// out\n        /* \"#utility.yul\":30511:30633   */\n    tag_259:\n        /* \"#utility.yul\":30584:30608   */\n      tag_598\n        /* \"#utility.yul\":30602:30607   */\n      dup2\n        /* \"#utility.yul\":30584:30608   */\n      tag_355\n      jump\t// in\n    tag_598:\n        /* \"#utility.yul\":30577:30582   */\n      dup2\n        /* \"#utility.yul\":30574:30609   */\n      eq\n        /* \"#utility.yul\":30564:30566   */\n      tag_599\n      jumpi\n        /* \"#utility.yul\":30623:30624   */\n      0x00\n        /* \"#utility.yul\":30620:30621   */\n      dup1\n        /* \"#utility.yul\":30613:30625   */\n      revert\n        /* \"#utility.yul\":30564:30566   */\n    tag_599:\n        /* \"#utility.yul\":30554:30633   */\n      pop\n      jump\t// out\n        /* \"#utility.yul\":30639:30777   */\n    tag_263:\n        /* \"#utility.yul\":30720:30752   */\n      tag_601\n        /* \"#utility.yul\":30746:30751   */\n      dup2\n        /* \"#utility.yul\":30720:30752   */\n      tag_351\n      jump\t// in\n    tag_601:\n        /* \"#utility.yul\":30713:30718   */\n      dup2\n        /* \"#utility.yul\":30710:30753   */\n      eq\n        /* \"#utility.yul\":30700:30702   */\n      tag_602\n      jumpi\n        /* \"#utility.yul\":30767:30768   */\n      0x00\n        /* \"#utility.yul\":30764:30765   */\n      dup1\n        /* \"#utility.yul\":30757:30769   */\n      revert\n        /* \"#utility.yul\":30700:30702   */\n    tag_602:\n        /* \"#utility.yul\":30690:30777   */\n      pop\n      jump\t// out\n        /* \"#utility.yul\":30783:30899   */\n    tag_267:\n        /* \"#utility.yul\":30853:30874   */\n      tag_604\n        /* \"#utility.yul\":30868:30873   */\n      dup2\n        /* \"#utility.yul\":30853:30874   */\n      tag_364\n      jump\t// in\n    tag_604:\n        /* \"#utility.yul\":30846:30851   */\n      dup2\n        /* \"#utility.yul\":30843:30875   */\n      eq\n        /* \"#utility.yul\":30833:30835   */\n      tag_605\n      jumpi\n        /* \"#utility.yul\":30889:30890   */\n      0x00\n        /* \"#utility.yul\":30886:30887   */\n      dup1\n        /* \"#utility.yul\":30879:30891   */\n      revert\n        /* \"#utility.yul\":30833:30835   */\n    tag_605:\n        /* \"#utility.yul\":30823:30899   */\n      pop\n      jump\t// out\n        /* \"#utility.yul\":30905:31025   */\n    tag_286:\n        /* \"#utility.yul\":30977:31000   */\n      tag_607\n        /* \"#utility.yul\":30994:30999   */\n      dup2\n        /* \"#utility.yul\":30977:31000   */\n      tag_444\n      jump\t// in\n    tag_607:\n        /* \"#utility.yul\":30970:30975   */\n      dup2\n        /* \"#utility.yul\":30967:31001   */\n      eq\n        /* \"#utility.yul\":30957:30959   */\n      tag_608\n      jumpi\n        /* \"#utility.yul\":31015:31016   */\n      0x00\n        /* \"#utility.yul\":31012:31013   */\n      dup1\n        /* \"#utility.yul\":31005:31017   */\n      revert\n        /* \"#utility.yul\":30957:30959   */\n    tag_608:\n        /* \"#utility.yul\":30947:31025   */\n      pop\n      jump\t// out\n        /* \"#utility.yul\":31031:31153   */\n    tag_289:\n        /* \"#utility.yul\":31104:31128   */\n      tag_610\n        /* \"#utility.yul\":31122:31127   */\n      dup2\n        /* \"#utility.yul\":31104:31128   */\n      tag_451\n      jump\t// in\n    tag_610:\n        /* \"#utility.yul\":31097:31102   */\n      dup2\n        /* \"#utility.yul\":31094:31129   */\n      eq\n        /* \"#utility.yul\":31084:31086   */\n      tag_611\n      jumpi\n        /* \"#utility.yul\":31143:31144   */\n      0x00\n        /* \"#utility.yul\":31140:31141   */\n      dup1\n        /* \"#utility.yul\":31133:31145   */\n      revert\n        /* \"#utility.yul\":31084:31086   */\n    tag_611:\n        /* \"#utility.yul\":31074:31153   */\n      pop\n      jump\t// out\n\n    auxdata: 0xa2646970667358221220b645f5849dc21220aa625e1d7349c621a88a22916e26a341aecff2e56d87857a64736f6c63430008040033\n}\n",
				"bytecode": {
					"linkReferences": {},
					"object": "608060405234801561001057600080fd5b5061274e806100206000396000f3fe6080604052600436106100a05760003560e01c8063498ee46911610064578063498ee469146101a85780634be85c35146101d1578063618c3f29146101fa578063ab8236f314610237578063b8c06ccc14610260578063c722a33614610289576100a7565b80631f8097fb146100ac578063217aabb7146100c85780632a8dcdb7146100f157806342d910c61461012e578063430dbc3a1461016b576100a7565b366100a757005b600080fd5b6100c660048036038101906100c191906118eb565b6102a5565b005b3480156100d457600080fd5b506100ef60048036038101906100ea9190611aa7565b610766565b005b3480156100fd57600080fd5b506101186004803603810190610113919061199f565b6107be565b6040516101259190611ee4565b60405180910390f35b34801561013a57600080fd5b5061015560048036038101906101509190611950565b610856565b604051610162919061218f565b60405180910390f35b34801561017757600080fd5b50610192600480360381019061018d9190611914565b610968565b60405161019f9190612035565b60405180910390f35b3480156101b457600080fd5b506101cf60048036038101906101ca9190611886565b6109e7565b005b3480156101dd57600080fd5b506101f860048036038101906101f391906117e5565b610c98565b005b34801561020657600080fd5b50610221600480360381019061021c9190611aa7565b610d91565b60405161022e919061218f565b60405180910390f35b34801561024357600080fd5b5061025e600480360381019061025991906119ee565b610dd0565b005b34801561026c57600080fd5b506102876004803603810190610282919061199f565b610f4e565b005b6102a3600480360381019061029e9190611837565b611018565b005b60006102af6110dd565b90506001816000015414156102f0576040517f29f745a700000000000000000000000000000000000000000000000000000000815260040160405180910390fd5b600181600001819055506000826000015111610338576040517f2c5211c600000000000000000000000000000000000000000000000000000000815260040160405180910390fd5b600073ffffffffffffffffffffffffffffffffffffffff16826020015173ffffffffffffffffffffffffffffffffffffffff1614806103a75750600073ffffffffffffffffffffffffffffffffffffffff16826040015173ffffffffffffffffffffffffffffffffffffffff16145b806103e25750600073ffffffffffffffffffffffffffffffffffffffff16826080015173ffffffffffffffffffffffffffffffffffffffff16145b8061041d5750600073ffffffffffffffffffffffffffffffffffffffff168260a0015173ffffffffffffffffffffffffffffffffffffffff16145b15610454576040517f35be3ac800000000000000000000000000000000000000000000000000000000815260040160405180910390fd5b600061045e61110a565b905060006104828260000160149054906101000a900461ffff168560200151610968565b905060008161ffff1614156104c3576040517f7790ca9900000000000000000000000000000000000000000000000000000000815260040160405180910390fd5b60006104d785606001518660400151610968565b90506000610512866060015187608001518660000160009054906101000a900473ffffffffffffffffffffffffffffffffffffffff16610856565b905060006105238760000151610d91565b905060008760a0015160405160200161053c9190611de5565b6040516020818303038152906040529050600088608001516040516020016105649190611e17565b60405160208183030381529060405290506105aa33308b600001518c6020015173ffffffffffffffffffffffffffffffffffffffff16611137909392919063ffffffff16565b6106018760000160009054906101000a900473ffffffffffffffffffffffffffffffffffffffff168a600001518b6020015173ffffffffffffffffffffffffffffffffffffffff166111c09092919063ffffffff16565b8660000160009054906101000a900473ffffffffffffffffffffffffffffffffffffffff1673ffffffffffffffffffffffffffffffffffffffff16639fbf10fc858b606001518989338f600001518a604051806060016040528062030d408152602001600081526020016040518060400160405280600281526020017f30780000000000000000000000000000000000000000000000000000000000008152508152508b8b6040518b63ffffffff1660e01b81526004016106ca999897969594939291906120ed565b6000604051808303818588803b1580156106e357600080fd5b505af11580156106f7573d6000803e3d6000fd5b50505050507f7a72e6f4a3d77f8a5a6c536a973421c5bf00107f9aec7995661537673b8be08789602001518a60400151338c608001518d600001518e6060015160405161074996959493929190611f61565b60405180910390a150505050505050600081600001819055505050565b61076e61131e565b600061077861110a565b90508181600201819055507f45934903f6b10aff9d3435b8362d284d95d14ca68e8554f05f04c7856a6003c0826040516107b2919061218f565b60405180910390a15050565b6000806107c961110a565b90508261ffff168160030160008761ffff1661ffff16815260200190815260200160002060008673ffffffffffffffffffffffffffffffffffffffff1673ffffffffffffffffffffffffffffffffffffffff16815260200190815260200160002060009054906101000a900461ffff1661ffff161461084957600061084c565b60015b9150509392505050565b6000808273ffffffffffffffffffffffffffffffffffffffff16630a512369866001876040516020016108899190611de5565b604051602081830303815290604052604051806060016040528062030d408152602001600081526020016040518060400160405280600281526020017f30780000000000000000000000000000000000000000000000000000000000008152508152506040518563ffffffff1660e01b815260040161090b9493929190612087565b604080518083038186803b15801561092257600080fd5b505afa158015610936573d6000803e3d6000fd5b505050506040513d601f19601f8201168201806040525081019061095a9190611af9565b509050809150509392505050565b60008061097361110a565b90508060030160008561ffff1661ffff16815260200190815260200160002060008473ffffffffffffffffffffffffffffffffffffffff1673ffffffffffffffffffffffffffffffffffffffff16815260200190815260200160002060009054906101000a900461ffff1691505092915050565b600073ffffffffffffffffffffffffffffffffffffffff168273ffffffffffffffffffffffffffffffffffffffff161415610a4e576040517f35be3ac800000000000000000000000000000000000000000000000000000000815260040160405180910390fd5b610a5661131e565b6000610a6061110a565b9050828160000160006101000a81548173ffffffffffffffffffffffffffffffffffffffff021916908373ffffffffffffffffffffffffffffffffffffffff160217905550818160000160146101000a81548161ffff021916908361ffff16021790555060328160020181905550610aef600173a0b86991c6218b36c1d19d4a2e9eb0ce3606eb486001610f4e565b610b10600173dac17f958d2ee523a2206206994597c13d831ec76002610f4e565b610b3160027355d398326f99059ff775485246999027b31979556002610f4e565b610b52600273e9e7cea3dedca5984780bafc599bd69add087d566005610f4e565b610b73600673b97ef9ef8734c71904d8002f8b6bc66dd9c48a6e6001610f4e565b610b946006739702230a8ea53601f5cd2dc00fdbc13d4df4a8c76002610f4e565b610bb56009732791bca1f2de4661ed88a30c99a7a9449aa841746001610f4e565b610bd6600973c2132d05d31c914a87c6611c10748aeb04b58e8f6002610f4e565b610bf7600a73ff970a61a04b1ca14834a43f5de4533ebddb5cc86001610f4e565b610c18600a73fd086bc7cd5c481dcc9c85ebe478a1c0b69fcbb96002610f4e565b610c39600b737f5c764cbc14f9669b88837ca1490cca17c316076001610f4e565b610c5a600c7304068da6c83afcfa0e13ba15a6696662335d5b756001610f4e565b7fc8ec31998a27444f477c01de93c393769fd4fc017fb63163f71f8a8ab72ccd508383604051610c8b929190611e92565b60405180910390a1505050565b610ca061131e565b600073ffffffffffffffffffffffffffffffffffffffff168173ffffffffffffffffffffffffffffffffffffffff161415610d07576040517f3911c65500000000000000000000000000000000000000000000000000000000815260040160405180910390fd5b6000610d1161110a565b9050818160000160006101000a81548173ffffffffffffffffffffffffffffffffffffffff021916908373ffffffffffffffffffffffffffffffffffffffff1602179055507f9ac04272c4559bf7459414abb5568dc1df58ab649f0af4afd1510074f5cc2fec82604051610d859190611e17565b60405180910390a15050565b600080610d9c61110a565b90506127108160020154612710610db391906122df565b84610dbe9190612285565b610dc89190612254565b915050919050565b6000610dda61110a565b90508060000160009054906101000a900473ffffffffffffffffffffffffffffffffffffffff1673ffffffffffffffffffffffffffffffffffffffff163373ffffffffffffffffffffffffffffffffffffffff1614610e65576040517fdade3c7100000000000000000000000000000000000000000000000000000000815260040160405180910390fd5b600082806020019051810190610e7b919061180e565b90508473ffffffffffffffffffffffffffffffffffffffff1663a9059cbb82866040518363ffffffff1660e01b8152600401610eb8929190611ebb565b602060405180830381600087803b158015610ed257600080fd5b505af1158015610ee6573d6000803e3d6000fd5b505050506040513d601f19601f82011682018060405250810190610f0a91906118c2565b507f827e3293895509ef037b7438d4e009f37ad7b2562a14695d9dfd9cb0659842188585604051610f3c929190611ebb565b60405180910390a15050505050505050565b610f5661131e565b6000610f6061110a565b9050818160030160008661ffff1661ffff16815260200190815260200160002060008573ffffffffffffffffffffffffffffffffffffffff1673ffffffffffffffffffffffffffffffffffffffff16815260200190815260200160002060006101000a81548161ffff021916908361ffff1602179055507f85adba3a23dc45072c12199244adfbf4c1d736a46ac453eb732f4e5158af586784848460405161100a93929190612050565b60405180910390a150505050565b60006110226110dd565b9050600181600001541415611063576040517f29f745a700000000000000000000000000000000000000000000000000000000815260040160405180910390fd5b6001816000018190555061107561131e565b6110a030838673ffffffffffffffffffffffffffffffffffffffff166111c09092919063ffffffff16565b6110cd3084848773ffffffffffffffffffffffffffffffffffffffff16611137909392919063ffffffff16565b6000816000018190555050505050565b6000807fc59b5acc5a6673a6c49ca2de898f87adbd9fdfdff36f689476b1c9e0c50964b490508091505090565b6000807fbaeadb48cbcf0176d6c6ac156b0140abe0fb28a100a9a6a8b5df37e55693b1c890508091505090565b6111ba846323b872dd60e01b85858560405160240161115893929190611e5b565b604051602081830303815290604052907bffffffffffffffffffffffffffffffffffffffffffffffffffffffff19166020820180517bffffffffffffffffffffffffffffffffffffffffffffffffffffffff83818316178352505050506113b9565b50505050565b6000811480611259575060008373ffffffffffffffffffffffffffffffffffffffff1663dd62ed3e30856040518363ffffffff1660e01b8152600401611207929190611e32565b60206040518083038186803b15801561121f57600080fd5b505afa158015611233573d6000803e3d6000fd5b505050506040513d601f19601f820116820180604052508101906112579190611ad0565b145b611298576040517f08c379a000000000000000000000000000000000000000000000000000000000815260040161128f90612015565b60405180910390fd5b6113198363095ea7b360e01b84846040516024016112b7929190611ebb565b604051602081830303815290604052907bffffffffffffffffffffffffffffffffffffffffffffffffffffffff19166020820180517bffffffffffffffffffffffffffffffffffffffffffffffffffffffff83818316178352505050506113b9565b505050565b611326611480565b60040160009054906101000a900473ffffffffffffffffffffffffffffffffffffffff1673ffffffffffffffffffffffffffffffffffffffff163373ffffffffffffffffffffffffffffffffffffffff16146113b7576040517f08c379a00000000000000000000000000000000000000000000000000000000081526004016113ae90611f21565b60405180910390fd5b565b600061141b826040518060400160405280602081526020017f5361666545524332303a206c6f772d6c6576656c2063616c6c206661696c65648152508573ffffffffffffffffffffffffffffffffffffffff166114ad9092919063ffffffff16565b905060008151111561147b578080602001905181019061143b91906118c2565b61147a576040517f08c379a000000000000000000000000000000000000000000000000000000000815260040161147190611ff5565b60405180910390fd5b5b505050565b6000807fc8fcad8db84d3cc18b4c41d551ea0ee66dd599cde068d998e57d5e09332c131c90508091505090565b60606114bc84846000856114c5565b90509392505050565b60608247101561150a576040517f08c379a000000000000000000000000000000000000000000000000000000000815260040161150190611f41565b60405180910390fd5b611513856115d9565b611552576040517f08c379a000000000000000000000000000000000000000000000000000000000815260040161154990611fd5565b60405180910390fd5b6000808673ffffffffffffffffffffffffffffffffffffffff16858760405161157b9190611e00565b60006040518083038185875af1925050503d80600081146115b8576040519150601f19603f3d011682016040523d82523d6000602084013e6115bd565b606091505b50915091506115cd8282866115fc565b92505050949350505050565b6000808273ffffffffffffffffffffffffffffffffffffffff163b119050919050565b6060831561160c5782905061165c565b60008351111561161f5782518084602001fd5b816040517f08c379a00000000000000000000000000000000000000000000000000000000081526004016116539190611eff565b60405180910390fd5b9392505050565b6000611676611671846121cf565b6121aa565b90508281526020810184848401111561168e57600080fd5b6116998482856123ac565b509392505050565b6000813590506116b0816126a5565b92915050565b6000815190506116c5816126bc565b92915050565b6000815190506116da816126d3565b92915050565b600082601f8301126116f157600080fd5b8135611701848260208601611663565b91505092915050565b600060c0828403121561171c57600080fd5b61172660c06121aa565b90506000611736848285016117bb565b600083015250602061174a848285016116a1565b602083015250604061175e848285016116a1565b6040830152506060611772848285016117a6565b6060830152506080611786848285016116a1565b60808301525060a061179a848285016116a1565b60a08301525092915050565b6000813590506117b5816126ea565b92915050565b6000813590506117ca81612701565b92915050565b6000815190506117df81612701565b92915050565b6000602082840312156117f757600080fd5b6000611805848285016116a1565b91505092915050565b60006020828403121561182057600080fd5b600061182e848285016116b6565b91505092915050565b60008060006060848603121561184c57600080fd5b600061185a868287016116a1565b935050602061186b868287016116a1565b925050604061187c868287016117bb565b9150509250925092565b6000806040838503121561189957600080fd5b60006118a7858286016116a1565b92505060206118b8858286016117a6565b9150509250929050565b6000602082840312156118d457600080fd5b60006118e2848285016116cb565b91505092915050565b600060c082840312156118fd57600080fd5b600061190b8482850161170a565b91505092915050565b6000806040838503121561192757600080fd5b6000611935858286016117a6565b9250506020611946858286016116a1565b9150509250929050565b60008060006060848603121561196557600080fd5b6000611973868287016117a6565b9350506020611984868287016116a1565b9250506040611995868287016116a1565b9150509250925092565b6000806000606084860312156119b457600080fd5b60006119c2868287016117a6565b93505060206119d3868287016116a1565b92505060406119e4868287016117a6565b9150509250925092565b60008060008060008060c08789031215611a0757600080fd5b6000611a1589828a016117a6565b965050602087013567ffffffffffffffff811115611a3257600080fd5b611a3e89828a016116e0565b9550506040611a4f89828a016117bb565b9450506060611a6089828a016116a1565b9350506080611a7189828a016117bb565b92505060a087013567ffffffffffffffff811115611a8e57600080fd5b611a9a89828a016116e0565b9150509295509295509295565b600060208284031215611ab957600080fd5b6000611ac7848285016117bb565b91505092915050565b600060208284031215611ae257600080fd5b6000611af0848285016117d0565b91505092915050565b60008060408385031215611b0c57600080fd5b6000611b1a858286016117d0565b9250506020611b2b858286016117d0565b9150509250929050565b611b3e81612325565b82525050565b611b4d81612313565b82525050565b611b64611b5f82612313565b61241f565b82525050565b611b7381612337565b82525050565b6000611b8482612200565b611b8e8185612216565b9350611b9e8185602086016123bb565b611ba7816124d0565b840191505092915050565b6000611bbd82612200565b611bc78185612227565b9350611bd78185602086016123bb565b611be0816124d0565b840191505092915050565b6000611bf682612200565b611c008185612238565b9350611c108185602086016123bb565b80840191505092915050565b611c2581612388565b82525050565b6000611c368261220b565b611c408185612243565b9350611c508185602086016123bb565b611c59816124d0565b840191505092915050565b6000611c71602283612243565b9150611c7c826124ee565b604082019050919050565b6000611c94600283612227565b9150611c9f8261253d565b602082019050919050565b6000611cb7602683612243565b9150611cc282612566565b604082019050919050565b6000611cda600883612243565b9150611ce5826125b5565b602082019050919050565b6000611cfd601d83612243565b9150611d08826125de565b602082019050919050565b6000611d20602a83612243565b9150611d2b82612607565b604082019050919050565b6000611d43603683612243565b9150611d4e82612656565b604082019050919050565b6000606083016000830151611d716000860182611dc7565b506020830151611d846020860182611dc7565b5060408301518482036040860152611d9c8282611b79565b9150508091505092915050565b611db281612343565b82525050565b611dc18161239a565b82525050565b611dd081612371565b82525050565b611ddf81612371565b82525050565b6000611df18284611b53565b60148201915081905092915050565b6000611e0c8284611beb565b915081905092915050565b6000602082019050611e2c6000830184611b44565b92915050565b6000604082019050611e476000830185611b44565b611e546020830184611b44565b9392505050565b6000606082019050611e706000830186611b44565b611e7d6020830185611b44565b611e8a6040830184611dd6565b949350505050565b6000604082019050611ea76000830185611b44565b611eb46020830184611da9565b9392505050565b6000604082019050611ed06000830185611b44565b611edd6020830184611dd6565b9392505050565b6000602082019050611ef96000830184611b6a565b92915050565b60006020820190508181036000830152611f198184611c2b565b905092915050565b60006020820190508181036000830152611f3a81611c64565b9050919050565b60006020820190508181036000830152611f5a81611caa565b9050919050565b600060e0820190508181036000830152611f7a81611ccd565b9050611f896020830189611b44565b611f966040830188611b44565b611fa36060830187611b44565b611fb06080830186611b44565b611fbd60a0830185611dd6565b611fca60c0830184611da9565b979650505050505050565b60006020820190508181036000830152611fee81611cf0565b9050919050565b6000602082019050818103600083015261200e81611d13565b9050919050565b6000602082019050818103600083015261202e81611d36565b9050919050565b600060208201905061204a6000830184611da9565b92915050565b60006060820190506120656000830186611da9565b6120726020830185611b44565b61207f6040830184611da9565b949350505050565b600060a08201905061209c6000830187611da9565b6120a96020830186611c1c565b81810360408301526120bb8185611bb2565b905081810360608301526120ce81611c87565b905081810360808301526120e28184611d59565b905095945050505050565b600061012082019050612103600083018c611da9565b612110602083018b611db8565b61211d604083018a611db8565b61212a6060830189611b35565b6121376080830188611dd6565b61214460a0830187611dd6565b81810360c08301526121568186611d59565b905081810360e083015261216a8185611bb2565b905081810361010083015261217f8184611bb2565b90509a9950505050505050505050565b60006020820190506121a46000830184611dd6565b92915050565b60006121b46121c5565b90506121c082826123ee565b919050565b6000604051905090565b600067ffffffffffffffff8211156121ea576121e96124a1565b5b6121f3826124d0565b9050602081019050919050565b600081519050919050565b600081519050919050565b600082825260208201905092915050565b600082825260208201905092915050565b600081905092915050565b600082825260208201905092915050565b600061225f82612371565b915061226a83612371565b92508261227a57612279612472565b5b828204905092915050565b600061229082612371565b915061229b83612371565b9250817fffffffffffffffffffffffffffffffffffffffffffffffffffffffffffffffff04831182151516156122d4576122d3612443565b5b828202905092915050565b60006122ea82612371565b91506122f583612371565b92508282101561230857612307612443565b5b828203905092915050565b600061231e82612351565b9050919050565b600061233082612351565b9050919050565b60008115159050919050565b600061ffff82169050919050565b600073ffffffffffffffffffffffffffffffffffffffff82169050919050565b6000819050919050565b600060ff82169050919050565b60006123938261237b565b9050919050565b60006123a582612343565b9050919050565b82818337600083830152505050565b60005b838110156123d95780820151818401526020810190506123be565b838111156123e8576000848401525b50505050565b6123f7826124d0565b810181811067ffffffffffffffff82111715612416576124156124a1565b5b80604052505050565b600061242a82612431565b9050919050565b600061243c826124e1565b9050919050565b7f4e487b7100000000000000000000000000000000000000000000000000000000600052601160045260246000fd5b7f4e487b7100000000000000000000000000000000000000000000000000000000600052601260045260246000fd5b7f4e487b7100000000000000000000000000000000000000000000000000000000600052604160045260246000fd5b6000601f19601f8301169050919050565b60008160601b9050919050565b7f4c69624469616d6f6e643a204d75737420626520636f6e7472616374206f776e60008201527f6572000000000000000000000000000000000000000000000000000000000000602082015250565b7f3078000000000000000000000000000000000000000000000000000000000000600082015250565b7f416464726573733a20696e73756666696369656e742062616c616e636520666f60008201527f722063616c6c0000000000000000000000000000000000000000000000000000602082015250565b7f7374617267617465000000000000000000000000000000000000000000000000600082015250565b7f416464726573733a2063616c6c20746f206e6f6e2d636f6e7472616374000000600082015250565b7f5361666545524332303a204552433230206f7065726174696f6e20646964206e60008201527f6f74207375636365656400000000000000000000000000000000000000000000602082015250565b7f5361666545524332303a20617070726f76652066726f6d206e6f6e2d7a65726f60008201527f20746f206e6f6e2d7a65726f20616c6c6f77616e636500000000000000000000602082015250565b6126ae81612313565b81146126b957600080fd5b50565b6126c581612325565b81146126d057600080fd5b50565b6126dc81612337565b81146126e757600080fd5b50565b6126f381612343565b81146126fe57600080fd5b50565b61270a81612371565b811461271557600080fd5b5056fea2646970667358221220b645f5849dc21220aa625e1d7349c621a88a22916e26a341aecff2e56d87857a64736f6c63430008040033",
					"opcodes": "PUSH1 0x80 PUSH1 0x40 MSTORE CALLVALUE DUP1 ISZERO PUSH2 0x10 JUMPI PUSH1 0x0 DUP1 REVERT JUMPDEST POP PUSH2 0x274E DUP1 PUSH2 0x20 PUSH1 0x0 CODECOPY PUSH1 0x0 RETURN INVALID PUSH1 0x80 PUSH1 0x40 MSTORE PUSH1 0x4 CALLDATASIZE LT PUSH2 0xA0 JUMPI PUSH1 0x0 CALLDATALOAD PUSH1 0xE0 SHR DUP1 PUSH4 0x498EE469 GT PUSH2 0x64 JUMPI DUP1 PUSH4 0x498EE469 EQ PUSH2 0x1A8 JUMPI DUP1 PUSH4 0x4BE85C35 EQ PUSH2 0x1D1 JUMPI DUP1 PUSH4 0x618C3F29 EQ PUSH2 0x1FA JUMPI DUP1 PUSH4 0xAB8236F3 EQ PUSH2 0x237 JUMPI DUP1 PUSH4 0xB8C06CCC EQ PUSH2 0x260 JUMPI DUP1 PUSH4 0xC722A336 EQ PUSH2 0x289 JUMPI PUSH2 0xA7 JUMP JUMPDEST DUP1 PUSH4 0x1F8097FB EQ PUSH2 0xAC JUMPI DUP1 PUSH4 0x217AABB7 EQ PUSH2 0xC8 JUMPI DUP1 PUSH4 0x2A8DCDB7 EQ PUSH2 0xF1 JUMPI DUP1 PUSH4 0x42D910C6 EQ PUSH2 0x12E JUMPI DUP1 PUSH4 0x430DBC3A EQ PUSH2 0x16B JUMPI PUSH2 0xA7 JUMP JUMPDEST CALLDATASIZE PUSH2 0xA7 JUMPI STOP JUMPDEST PUSH1 0x0 DUP1 REVERT JUMPDEST PUSH2 0xC6 PUSH1 0x4 DUP1 CALLDATASIZE SUB DUP2 ADD SWAP1 PUSH2 0xC1 SWAP2 SWAP1 PUSH2 0x18EB JUMP JUMPDEST PUSH2 0x2A5 JUMP JUMPDEST STOP JUMPDEST CALLVALUE DUP1 ISZERO PUSH2 0xD4 JUMPI PUSH1 0x0 DUP1 REVERT JUMPDEST POP PUSH2 0xEF PUSH1 0x4 DUP1 CALLDATASIZE SUB DUP2 ADD SWAP1 PUSH2 0xEA SWAP2 SWAP1 PUSH2 0x1AA7 JUMP JUMPDEST PUSH2 0x766 JUMP JUMPDEST STOP JUMPDEST CALLVALUE DUP1 ISZERO PUSH2 0xFD JUMPI PUSH1 0x0 DUP1 REVERT JUMPDEST POP PUSH2 0x118 PUSH1 0x4 DUP1 CALLDATASIZE SUB DUP2 ADD SWAP1 PUSH2 0x113 SWAP2 SWAP1 PUSH2 0x199F JUMP JUMPDEST PUSH2 0x7BE JUMP JUMPDEST PUSH1 0x40 MLOAD PUSH2 0x125 SWAP2 SWAP1 PUSH2 0x1EE4 JUMP JUMPDEST PUSH1 0x40 MLOAD DUP1 SWAP2 SUB SWAP1 RETURN JUMPDEST CALLVALUE DUP1 ISZERO PUSH2 0x13A JUMPI PUSH1 0x0 DUP1 REVERT JUMPDEST POP PUSH2 0x155 PUSH1 0x4 DUP1 CALLDATASIZE SUB DUP2 ADD SWAP1 PUSH2 0x150 SWAP2 SWAP1 PUSH2 0x1950 JUMP JUMPDEST PUSH2 0x856 JUMP JUMPDEST PUSH1 0x40 MLOAD PUSH2 0x162 SWAP2 SWAP1 PUSH2 0x218F JUMP JUMPDEST PUSH1 0x40 MLOAD DUP1 SWAP2 SUB SWAP1 RETURN JUMPDEST CALLVALUE DUP1 ISZERO PUSH2 0x177 JUMPI PUSH1 0x0 DUP1 REVERT JUMPDEST POP PUSH2 0x192 PUSH1 0x4 DUP1 CALLDATASIZE SUB DUP2 ADD SWAP1 PUSH2 0x18D SWAP2 SWAP1 PUSH2 0x1914 JUMP JUMPDEST PUSH2 0x968 JUMP JUMPDEST PUSH1 0x40 MLOAD PUSH2 0x19F SWAP2 SWAP1 PUSH2 0x2035 JUMP JUMPDEST PUSH1 0x40 MLOAD DUP1 SWAP2 SUB SWAP1 RETURN JUMPDEST CALLVALUE DUP1 ISZERO PUSH2 0x1B4 JUMPI PUSH1 0x0 DUP1 REVERT JUMPDEST POP PUSH2 0x1CF PUSH1 0x4 DUP1 CALLDATASIZE SUB DUP2 ADD SWAP1 PUSH2 0x1CA SWAP2 SWAP1 PUSH2 0x1886 JUMP JUMPDEST PUSH2 0x9E7 JUMP JUMPDEST STOP JUMPDEST CALLVALUE DUP1 ISZERO PUSH2 0x1DD JUMPI PUSH1 0x0 DUP1 REVERT JUMPDEST POP PUSH2 0x1F8 PUSH1 0x4 DUP1 CALLDATASIZE SUB DUP2 ADD SWAP1 PUSH2 0x1F3 SWAP2 SWAP1 PUSH2 0x17E5 JUMP JUMPDEST PUSH2 0xC98 JUMP JUMPDEST STOP JUMPDEST CALLVALUE DUP1 ISZERO PUSH2 0x206 JUMPI PUSH1 0x0 DUP1 REVERT JUMPDEST POP PUSH2 0x221 PUSH1 0x4 DUP1 CALLDATASIZE SUB DUP2 ADD SWAP1 PUSH2 0x21C SWAP2 SWAP1 PUSH2 0x1AA7 JUMP JUMPDEST PUSH2 0xD91 JUMP JUMPDEST PUSH1 0x40 MLOAD PUSH2 0x22E SWAP2 SWAP1 PUSH2 0x218F JUMP JUMPDEST PUSH1 0x40 MLOAD DUP1 SWAP2 SUB SWAP1 RETURN JUMPDEST CALLVALUE DUP1 ISZERO PUSH2 0x243 JUMPI PUSH1 0x0 DUP1 REVERT JUMPDEST POP PUSH2 0x25E PUSH1 0x4 DUP1 CALLDATASIZE SUB DUP2 ADD SWAP1 PUSH2 0x259 SWAP2 SWAP1 PUSH2 0x19EE JUMP JUMPDEST PUSH2 0xDD0 JUMP JUMPDEST STOP JUMPDEST CALLVALUE DUP1 ISZERO PUSH2 0x26C JUMPI PUSH1 0x0 DUP1 REVERT JUMPDEST POP PUSH2 0x287 PUSH1 0x4 DUP1 CALLDATASIZE SUB DUP2 ADD SWAP1 PUSH2 0x282 SWAP2 SWAP1 PUSH2 0x199F JUMP JUMPDEST PUSH2 0xF4E JUMP JUMPDEST STOP JUMPDEST PUSH2 0x2A3 PUSH1 0x4 DUP1 CALLDATASIZE SUB DUP2 ADD SWAP1 PUSH2 0x29E SWAP2 SWAP1 PUSH2 0x1837 JUMP JUMPDEST PUSH2 0x1018 JUMP JUMPDEST STOP JUMPDEST PUSH1 0x0 PUSH2 0x2AF PUSH2 0x10DD JUMP JUMPDEST SWAP1 POP PUSH1 0x1 DUP2 PUSH1 0x0 ADD SLOAD EQ ISZERO PUSH2 0x2F0 JUMPI PUSH1 0x40 MLOAD PUSH32 0x29F745A700000000000000000000000000000000000000000000000000000000 DUP2 MSTORE PUSH1 0x4 ADD PUSH1 0x40 MLOAD DUP1 SWAP2 SUB SWAP1 REVERT JUMPDEST PUSH1 0x1 DUP2 PUSH1 0x0 ADD DUP2 SWAP1 SSTORE POP PUSH1 0x0 DUP3 PUSH1 0x0 ADD MLOAD GT PUSH2 0x338 JUMPI PUSH1 0x40 MLOAD PUSH32 0x2C5211C600000000000000000000000000000000000000000000000000000000 DUP2 MSTORE PUSH1 0x4 ADD PUSH1 0x40 MLOAD DUP1 SWAP2 SUB SWAP1 REVERT JUMPDEST PUSH1 0x0 PUSH20 0xFFFFFFFFFFFFFFFFFFFFFFFFFFFFFFFFFFFFFFFF AND DUP3 PUSH1 0x20 ADD MLOAD PUSH20 0xFFFFFFFFFFFFFFFFFFFFFFFFFFFFFFFFFFFFFFFF AND EQ DUP1 PUSH2 0x3A7 JUMPI POP PUSH1 0x0 PUSH20 0xFFFFFFFFFFFFFFFFFFFFFFFFFFFFFFFFFFFFFFFF AND DUP3 PUSH1 0x40 ADD MLOAD PUSH20 0xFFFFFFFFFFFFFFFFFFFFFFFFFFFFFFFFFFFFFFFF AND EQ JUMPDEST DUP1 PUSH2 0x3E2 JUMPI POP PUSH1 0x0 PUSH20 0xFFFFFFFFFFFFFFFFFFFFFFFFFFFFFFFFFFFFFFFF AND DUP3 PUSH1 0x80 ADD MLOAD PUSH20 0xFFFFFFFFFFFFFFFFFFFFFFFFFFFFFFFFFFFFFFFF AND EQ JUMPDEST DUP1 PUSH2 0x41D JUMPI POP PUSH1 0x0 PUSH20 0xFFFFFFFFFFFFFFFFFFFFFFFFFFFFFFFFFFFFFFFF AND DUP3 PUSH1 0xA0 ADD MLOAD PUSH20 0xFFFFFFFFFFFFFFFFFFFFFFFFFFFFFFFFFFFFFFFF AND EQ JUMPDEST ISZERO PUSH2 0x454 JUMPI PUSH1 0x40 MLOAD PUSH32 0x35BE3AC800000000000000000000000000000000000000000000000000000000 DUP2 MSTORE PUSH1 0x4 ADD PUSH1 0x40 MLOAD DUP1 SWAP2 SUB SWAP1 REVERT JUMPDEST PUSH1 0x0 PUSH2 0x45E PUSH2 0x110A JUMP JUMPDEST SWAP1 POP PUSH1 0x0 PUSH2 0x482 DUP3 PUSH1 0x0 ADD PUSH1 0x14 SWAP1 SLOAD SWAP1 PUSH2 0x100 EXP SWAP1 DIV PUSH2 0xFFFF AND DUP6 PUSH1 0x20 ADD MLOAD PUSH2 0x968 JUMP JUMPDEST SWAP1 POP PUSH1 0x0 DUP2 PUSH2 0xFFFF AND EQ ISZERO PUSH2 0x4C3 JUMPI PUSH1 0x40 MLOAD PUSH32 0x7790CA9900000000000000000000000000000000000000000000000000000000 DUP2 MSTORE PUSH1 0x4 ADD PUSH1 0x40 MLOAD DUP1 SWAP2 SUB SWAP1 REVERT JUMPDEST PUSH1 0x0 PUSH2 0x4D7 DUP6 PUSH1 0x60 ADD MLOAD DUP7 PUSH1 0x40 ADD MLOAD PUSH2 0x968 JUMP JUMPDEST SWAP1 POP PUSH1 0x0 PUSH2 0x512 DUP7 PUSH1 0x60 ADD MLOAD DUP8 PUSH1 0x80 ADD MLOAD DUP7 PUSH1 0x0 ADD PUSH1 0x0 SWAP1 SLOAD SWAP1 PUSH2 0x100 EXP SWAP1 DIV PUSH20 0xFFFFFFFFFFFFFFFFFFFFFFFFFFFFFFFFFFFFFFFF AND PUSH2 0x856 JUMP JUMPDEST SWAP1 POP PUSH1 0x0 PUSH2 0x523 DUP8 PUSH1 0x0 ADD MLOAD PUSH2 0xD91 JUMP JUMPDEST SWAP1 POP PUSH1 0x0 DUP8 PUSH1 0xA0 ADD MLOAD PUSH1 0x40 MLOAD PUSH1 0x20 ADD PUSH2 0x53C SWAP2 SWAP1 PUSH2 0x1DE5 JUMP JUMPDEST PUSH1 0x40 MLOAD PUSH1 0x20 DUP2 DUP4 SUB SUB DUP2 MSTORE SWAP1 PUSH1 0x40 MSTORE SWAP1 POP PUSH1 0x0 DUP9 PUSH1 0x80 ADD MLOAD PUSH1 0x40 MLOAD PUSH1 0x20 ADD PUSH2 0x564 SWAP2 SWAP1 PUSH2 0x1E17 JUMP JUMPDEST PUSH1 0x40 MLOAD PUSH1 0x20 DUP2 DUP4 SUB SUB DUP2 MSTORE SWAP1 PUSH1 0x40 MSTORE SWAP1 POP PUSH2 0x5AA CALLER ADDRESS DUP12 PUSH1 0x0 ADD MLOAD DUP13 PUSH1 0x20 ADD MLOAD PUSH20 0xFFFFFFFFFFFFFFFFFFFFFFFFFFFFFFFFFFFFFFFF AND PUSH2 0x1137 SWAP1 SWAP4 SWAP3 SWAP2 SWAP1 PUSH4 0xFFFFFFFF AND JUMP JUMPDEST PUSH2 0x601 DUP8 PUSH1 0x0 ADD PUSH1 0x0 SWAP1 SLOAD SWAP1 PUSH2 0x100 EXP SWAP1 DIV PUSH20 0xFFFFFFFFFFFFFFFFFFFFFFFFFFFFFFFFFFFFFFFF AND DUP11 PUSH1 0x0 ADD MLOAD DUP12 PUSH1 0x20 ADD MLOAD PUSH20 0xFFFFFFFFFFFFFFFFFFFFFFFFFFFFFFFFFFFFFFFF AND PUSH2 0x11C0 SWAP1 SWAP3 SWAP2 SWAP1 PUSH4 0xFFFFFFFF AND JUMP JUMPDEST DUP7 PUSH1 0x0 ADD PUSH1 0x0 SWAP1 SLOAD SWAP1 PUSH2 0x100 EXP SWAP1 DIV PUSH20 0xFFFFFFFFFFFFFFFFFFFFFFFFFFFFFFFFFFFFFFFF AND PUSH20 0xFFFFFFFFFFFFFFFFFFFFFFFFFFFFFFFFFFFFFFFF AND PUSH4 0x9FBF10FC DUP6 DUP12 PUSH1 0x60 ADD MLOAD DUP10 DUP10 CALLER DUP16 PUSH1 0x0 ADD MLOAD DUP11 PUSH1 0x40 MLOAD DUP1 PUSH1 0x60 ADD PUSH1 0x40 MSTORE DUP1 PUSH3 0x30D40 DUP2 MSTORE PUSH1 0x20 ADD PUSH1 0x0 DUP2 MSTORE PUSH1 0x20 ADD PUSH1 0x40 MLOAD DUP1 PUSH1 0x40 ADD PUSH1 0x40 MSTORE DUP1 PUSH1 0x2 DUP2 MSTORE PUSH1 0x20 ADD PUSH32 0x3078000000000000000000000000000000000000000000000000000000000000 DUP2 MSTORE POP DUP2 MSTORE POP DUP12 DUP12 PUSH1 0x40 MLOAD DUP12 PUSH4 0xFFFFFFFF AND PUSH1 0xE0 SHL DUP2 MSTORE PUSH1 0x4 ADD PUSH2 0x6CA SWAP10 SWAP9 SWAP8 SWAP7 SWAP6 SWAP5 SWAP4 SWAP3 SWAP2 SWAP1 PUSH2 0x20ED JUMP JUMPDEST PUSH1 0x0 PUSH1 0x40 MLOAD DUP1 DUP4 SUB DUP2 DUP6 DUP9 DUP1 EXTCODESIZE ISZERO DUP1 ISZERO PUSH2 0x6E3 JUMPI PUSH1 0x0 DUP1 REVERT JUMPDEST POP GAS CALL ISZERO DUP1 ISZERO PUSH2 0x6F7 JUMPI RETURNDATASIZE PUSH1 0x0 DUP1 RETURNDATACOPY RETURNDATASIZE PUSH1 0x0 REVERT JUMPDEST POP POP POP POP POP PUSH32 0x7A72E6F4A3D77F8A5A6C536A973421C5BF00107F9AEC7995661537673B8BE087 DUP10 PUSH1 0x20 ADD MLOAD DUP11 PUSH1 0x40 ADD MLOAD CALLER DUP13 PUSH1 0x80 ADD MLOAD DUP14 PUSH1 0x0 ADD MLOAD DUP15 PUSH1 0x60 ADD MLOAD PUSH1 0x40 MLOAD PUSH2 0x749 SWAP7 SWAP6 SWAP5 SWAP4 SWAP3 SWAP2 SWAP1 PUSH2 0x1F61 JUMP JUMPDEST PUSH1 0x40 MLOAD DUP1 SWAP2 SUB SWAP1 LOG1 POP POP POP POP POP POP POP PUSH1 0x0 DUP2 PUSH1 0x0 ADD DUP2 SWAP1 SSTORE POP POP POP JUMP JUMPDEST PUSH2 0x76E PUSH2 0x131E JUMP JUMPDEST PUSH1 0x0 PUSH2 0x778 PUSH2 0x110A JUMP JUMPDEST SWAP1 POP DUP2 DUP2 PUSH1 0x2 ADD DUP2 SWAP1 SSTORE POP PUSH32 0x45934903F6B10AFF9D3435B8362D284D95D14CA68E8554F05F04C7856A6003C0 DUP3 PUSH1 0x40 MLOAD PUSH2 0x7B2 SWAP2 SWAP1 PUSH2 0x218F JUMP JUMPDEST PUSH1 0x40 MLOAD DUP1 SWAP2 SUB SWAP1 LOG1 POP POP JUMP JUMPDEST PUSH1 0x0 DUP1 PUSH2 0x7C9 PUSH2 0x110A JUMP JUMPDEST SWAP1 POP DUP3 PUSH2 0xFFFF AND DUP2 PUSH1 0x3 ADD PUSH1 0x0 DUP8 PUSH2 0xFFFF AND PUSH2 0xFFFF AND DUP2 MSTORE PUSH1 0x20 ADD SWAP1 DUP2 MSTORE PUSH1 0x20 ADD PUSH1 0x0 KECCAK256 PUSH1 0x0 DUP7 PUSH20 0xFFFFFFFFFFFFFFFFFFFFFFFFFFFFFFFFFFFFFFFF AND PUSH20 0xFFFFFFFFFFFFFFFFFFFFFFFFFFFFFFFFFFFFFFFF AND DUP2 MSTORE PUSH1 0x20 ADD SWAP1 DUP2 MSTORE PUSH1 0x20 ADD PUSH1 0x0 KECCAK256 PUSH1 0x0 SWAP1 SLOAD SWAP1 PUSH2 0x100 EXP SWAP1 DIV PUSH2 0xFFFF AND PUSH2 0xFFFF AND EQ PUSH2 0x849 JUMPI PUSH1 0x0 PUSH2 0x84C JUMP JUMPDEST PUSH1 0x1 JUMPDEST SWAP2 POP POP SWAP4 SWAP3 POP POP POP JUMP JUMPDEST PUSH1 0x0 DUP1 DUP3 PUSH20 0xFFFFFFFFFFFFFFFFFFFFFFFFFFFFFFFFFFFFFFFF AND PUSH4 0xA512369 DUP7 PUSH1 0x1 DUP8 PUSH1 0x40 MLOAD PUSH1 0x20 ADD PUSH2 0x889 SWAP2 SWAP1 PUSH2 0x1DE5 JUMP JUMPDEST PUSH1 0x40 MLOAD PUSH1 0x20 DUP2 DUP4 SUB SUB DUP2 MSTORE SWAP1 PUSH1 0x40 MSTORE PUSH1 0x40 MLOAD DUP1 PUSH1 0x60 ADD PUSH1 0x40 MSTORE DUP1 PUSH3 0x30D40 DUP2 MSTORE PUSH1 0x20 ADD PUSH1 0x0 DUP2 MSTORE PUSH1 0x20 ADD PUSH1 0x40 MLOAD DUP1 PUSH1 0x40 ADD PUSH1 0x40 MSTORE DUP1 PUSH1 0x2 DUP2 MSTORE PUSH1 0x20 ADD PUSH32 0x3078000000000000000000000000000000000000000000000000000000000000 DUP2 MSTORE POP DUP2 MSTORE POP PUSH1 0x40 MLOAD DUP6 PUSH4 0xFFFFFFFF AND PUSH1 0xE0 SHL DUP2 MSTORE PUSH1 0x4 ADD PUSH2 0x90B SWAP5 SWAP4 SWAP3 SWAP2 SWAP1 PUSH2 0x2087 JUMP JUMPDEST PUSH1 0x40 DUP1 MLOAD DUP1 DUP4 SUB DUP2 DUP7 DUP1 EXTCODESIZE ISZERO DUP1 ISZERO PUSH2 0x922 JUMPI PUSH1 0x0 DUP1 REVERT JUMPDEST POP GAS STATICCALL ISZERO DUP1 ISZERO PUSH2 0x936 JUMPI RETURNDATASIZE PUSH1 0x0 DUP1 RETURNDATACOPY RETURNDATASIZE PUSH1 0x0 REVERT JUMPDEST POP POP POP POP PUSH1 0x40 MLOAD RETURNDATASIZE PUSH1 0x1F NOT PUSH1 0x1F DUP3 ADD AND DUP3 ADD DUP1 PUSH1 0x40 MSTORE POP DUP2 ADD SWAP1 PUSH2 0x95A SWAP2 SWAP1 PUSH2 0x1AF9 JUMP JUMPDEST POP SWAP1 POP DUP1 SWAP2 POP POP SWAP4 SWAP3 POP POP POP JUMP JUMPDEST PUSH1 0x0 DUP1 PUSH2 0x973 PUSH2 0x110A JUMP JUMPDEST SWAP1 POP DUP1 PUSH1 0x3 ADD PUSH1 0x0 DUP6 PUSH2 0xFFFF AND PUSH2 0xFFFF AND DUP2 MSTORE PUSH1 0x20 ADD SWAP1 DUP2 MSTORE PUSH1 0x20 ADD PUSH1 0x0 KECCAK256 PUSH1 0x0 DUP5 PUSH20 0xFFFFFFFFFFFFFFFFFFFFFFFFFFFFFFFFFFFFFFFF AND PUSH20 0xFFFFFFFFFFFFFFFFFFFFFFFFFFFFFFFFFFFFFFFF AND DUP2 MSTORE PUSH1 0x20 ADD SWAP1 DUP2 MSTORE PUSH1 0x20 ADD PUSH1 0x0 KECCAK256 PUSH1 0x0 SWAP1 SLOAD SWAP1 PUSH2 0x100 EXP SWAP1 DIV PUSH2 0xFFFF AND SWAP2 POP POP SWAP3 SWAP2 POP POP JUMP JUMPDEST PUSH1 0x0 PUSH20 0xFFFFFFFFFFFFFFFFFFFFFFFFFFFFFFFFFFFFFFFF AND DUP3 PUSH20 0xFFFFFFFFFFFFFFFFFFFFFFFFFFFFFFFFFFFFFFFF AND EQ ISZERO PUSH2 0xA4E JUMPI PUSH1 0x40 MLOAD PUSH32 0x35BE3AC800000000000000000000000000000000000000000000000000000000 DUP2 MSTORE PUSH1 0x4 ADD PUSH1 0x40 MLOAD DUP1 SWAP2 SUB SWAP1 REVERT JUMPDEST PUSH2 0xA56 PUSH2 0x131E JUMP JUMPDEST PUSH1 0x0 PUSH2 0xA60 PUSH2 0x110A JUMP JUMPDEST SWAP1 POP DUP3 DUP2 PUSH1 0x0 ADD PUSH1 0x0 PUSH2 0x100 EXP DUP2 SLOAD DUP2 PUSH20 0xFFFFFFFFFFFFFFFFFFFFFFFFFFFFFFFFFFFFFFFF MUL NOT AND SWAP1 DUP4 PUSH20 0xFFFFFFFFFFFFFFFFFFFFFFFFFFFFFFFFFFFFFFFF AND MUL OR SWAP1 SSTORE POP DUP2 DUP2 PUSH1 0x0 ADD PUSH1 0x14 PUSH2 0x100 EXP DUP2 SLOAD DUP2 PUSH2 0xFFFF MUL NOT AND SWAP1 DUP4 PUSH2 0xFFFF AND MUL OR SWAP1 SSTORE POP PUSH1 0x32 DUP2 PUSH1 0x2 ADD DUP2 SWAP1 SSTORE POP PUSH2 0xAEF PUSH1 0x1 PUSH20 0xA0B86991C6218B36C1D19D4A2E9EB0CE3606EB48 PUSH1 0x1 PUSH2 0xF4E JUMP JUMPDEST PUSH2 0xB10 PUSH1 0x1 PUSH20 0xDAC17F958D2EE523A2206206994597C13D831EC7 PUSH1 0x2 PUSH2 0xF4E JUMP JUMPDEST PUSH2 0xB31 PUSH1 0x2 PUSH20 0x55D398326F99059FF775485246999027B3197955 PUSH1 0x2 PUSH2 0xF4E JUMP JUMPDEST PUSH2 0xB52 PUSH1 0x2 PUSH20 0xE9E7CEA3DEDCA5984780BAFC599BD69ADD087D56 PUSH1 0x5 PUSH2 0xF4E JUMP JUMPDEST PUSH2 0xB73 PUSH1 0x6 PUSH20 0xB97EF9EF8734C71904D8002F8B6BC66DD9C48A6E PUSH1 0x1 PUSH2 0xF4E JUMP JUMPDEST PUSH2 0xB94 PUSH1 0x6 PUSH20 0x9702230A8EA53601F5CD2DC00FDBC13D4DF4A8C7 PUSH1 0x2 PUSH2 0xF4E JUMP JUMPDEST PUSH2 0xBB5 PUSH1 0x9 PUSH20 0x2791BCA1F2DE4661ED88A30C99A7A9449AA84174 PUSH1 0x1 PUSH2 0xF4E JUMP JUMPDEST PUSH2 0xBD6 PUSH1 0x9 PUSH20 0xC2132D05D31C914A87C6611C10748AEB04B58E8F PUSH1 0x2 PUSH2 0xF4E JUMP JUMPDEST PUSH2 0xBF7 PUSH1 0xA PUSH20 0xFF970A61A04B1CA14834A43F5DE4533EBDDB5CC8 PUSH1 0x1 PUSH2 0xF4E JUMP JUMPDEST PUSH2 0xC18 PUSH1 0xA PUSH20 0xFD086BC7CD5C481DCC9C85EBE478A1C0B69FCBB9 PUSH1 0x2 PUSH2 0xF4E JUMP JUMPDEST PUSH2 0xC39 PUSH1 0xB PUSH20 0x7F5C764CBC14F9669B88837CA1490CCA17C31607 PUSH1 0x1 PUSH2 0xF4E JUMP JUMPDEST PUSH2 0xC5A PUSH1 0xC PUSH20 0x4068DA6C83AFCFA0E13BA15A6696662335D5B75 PUSH1 0x1 PUSH2 0xF4E JUMP JUMPDEST PUSH32 0xC8EC31998A27444F477C01DE93C393769FD4FC017FB63163F71F8A8AB72CCD50 DUP4 DUP4 PUSH1 0x40 MLOAD PUSH2 0xC8B SWAP3 SWAP2 SWAP1 PUSH2 0x1E92 JUMP JUMPDEST PUSH1 0x40 MLOAD DUP1 SWAP2 SUB SWAP1 LOG1 POP POP POP JUMP JUMPDEST PUSH2 0xCA0 PUSH2 0x131E JUMP JUMPDEST PUSH1 0x0 PUSH20 0xFFFFFFFFFFFFFFFFFFFFFFFFFFFFFFFFFFFFFFFF AND DUP2 PUSH20 0xFFFFFFFFFFFFFFFFFFFFFFFFFFFFFFFFFFFFFFFF AND EQ ISZERO PUSH2 0xD07 JUMPI PUSH1 0x40 MLOAD PUSH32 0x3911C65500000000000000000000000000000000000000000000000000000000 DUP2 MSTORE PUSH1 0x4 ADD PUSH1 0x40 MLOAD DUP1 SWAP2 SUB SWAP1 REVERT JUMPDEST PUSH1 0x0 PUSH2 0xD11 PUSH2 0x110A JUMP JUMPDEST SWAP1 POP DUP2 DUP2 PUSH1 0x0 ADD PUSH1 0x0 PUSH2 0x100 EXP DUP2 SLOAD DUP2 PUSH20 0xFFFFFFFFFFFFFFFFFFFFFFFFFFFFFFFFFFFFFFFF MUL NOT AND SWAP1 DUP4 PUSH20 0xFFFFFFFFFFFFFFFFFFFFFFFFFFFFFFFFFFFFFFFF AND MUL OR SWAP1 SSTORE POP PUSH32 0x9AC04272C4559BF7459414ABB5568DC1DF58AB649F0AF4AFD1510074F5CC2FEC DUP3 PUSH1 0x40 MLOAD PUSH2 0xD85 SWAP2 SWAP1 PUSH2 0x1E17 JUMP JUMPDEST PUSH1 0x40 MLOAD DUP1 SWAP2 SUB SWAP1 LOG1 POP POP JUMP JUMPDEST PUSH1 0x0 DUP1 PUSH2 0xD9C PUSH2 0x110A JUMP JUMPDEST SWAP1 POP PUSH2 0x2710 DUP2 PUSH1 0x2 ADD SLOAD PUSH2 0x2710 PUSH2 0xDB3 SWAP2 SWAP1 PUSH2 0x22DF JUMP JUMPDEST DUP5 PUSH2 0xDBE SWAP2 SWAP1 PUSH2 0x2285 JUMP JUMPDEST PUSH2 0xDC8 SWAP2 SWAP1 PUSH2 0x2254 JUMP JUMPDEST SWAP2 POP POP SWAP2 SWAP1 POP JUMP JUMPDEST PUSH1 0x0 PUSH2 0xDDA PUSH2 0x110A JUMP JUMPDEST SWAP1 POP DUP1 PUSH1 0x0 ADD PUSH1 0x0 SWAP1 SLOAD SWAP1 PUSH2 0x100 EXP SWAP1 DIV PUSH20 0xFFFFFFFFFFFFFFFFFFFFFFFFFFFFFFFFFFFFFFFF AND PUSH20 0xFFFFFFFFFFFFFFFFFFFFFFFFFFFFFFFFFFFFFFFF AND CALLER PUSH20 0xFFFFFFFFFFFFFFFFFFFFFFFFFFFFFFFFFFFFFFFF AND EQ PUSH2 0xE65 JUMPI PUSH1 0x40 MLOAD PUSH32 0xDADE3C7100000000000000000000000000000000000000000000000000000000 DUP2 MSTORE PUSH1 0x4 ADD PUSH1 0x40 MLOAD DUP1 SWAP2 SUB SWAP1 REVERT JUMPDEST PUSH1 0x0 DUP3 DUP1 PUSH1 0x20 ADD SWAP1 MLOAD DUP2 ADD SWAP1 PUSH2 0xE7B SWAP2 SWAP1 PUSH2 0x180E JUMP JUMPDEST SWAP1 POP DUP5 PUSH20 0xFFFFFFFFFFFFFFFFFFFFFFFFFFFFFFFFFFFFFFFF AND PUSH4 0xA9059CBB DUP3 DUP7 PUSH1 0x40 MLOAD DUP4 PUSH4 0xFFFFFFFF AND PUSH1 0xE0 SHL DUP2 MSTORE PUSH1 0x4 ADD PUSH2 0xEB8 SWAP3 SWAP2 SWAP1 PUSH2 0x1EBB JUMP JUMPDEST PUSH1 0x20 PUSH1 0x40 MLOAD DUP1 DUP4 SUB DUP2 PUSH1 0x0 DUP8 DUP1 EXTCODESIZE ISZERO DUP1 ISZERO PUSH2 0xED2 JUMPI PUSH1 0x0 DUP1 REVERT JUMPDEST POP GAS CALL ISZERO DUP1 ISZERO PUSH2 0xEE6 JUMPI RETURNDATASIZE PUSH1 0x0 DUP1 RETURNDATACOPY RETURNDATASIZE PUSH1 0x0 REVERT JUMPDEST POP POP POP POP PUSH1 0x40 MLOAD RETURNDATASIZE PUSH1 0x1F NOT PUSH1 0x1F DUP3 ADD AND DUP3 ADD DUP1 PUSH1 0x40 MSTORE POP DUP2 ADD SWAP1 PUSH2 0xF0A SWAP2 SWAP1 PUSH2 0x18C2 JUMP JUMPDEST POP PUSH32 0x827E3293895509EF037B7438D4E009F37AD7B2562A14695D9DFD9CB065984218 DUP6 DUP6 PUSH1 0x40 MLOAD PUSH2 0xF3C SWAP3 SWAP2 SWAP1 PUSH2 0x1EBB JUMP JUMPDEST PUSH1 0x40 MLOAD DUP1 SWAP2 SUB SWAP1 LOG1 POP POP POP POP POP POP POP POP JUMP JUMPDEST PUSH2 0xF56 PUSH2 0x131E JUMP JUMPDEST PUSH1 0x0 PUSH2 0xF60 PUSH2 0x110A JUMP JUMPDEST SWAP1 POP DUP2 DUP2 PUSH1 0x3 ADD PUSH1 0x0 DUP7 PUSH2 0xFFFF AND PUSH2 0xFFFF AND DUP2 MSTORE PUSH1 0x20 ADD SWAP1 DUP2 MSTORE PUSH1 0x20 ADD PUSH1 0x0 KECCAK256 PUSH1 0x0 DUP6 PUSH20 0xFFFFFFFFFFFFFFFFFFFFFFFFFFFFFFFFFFFFFFFF AND PUSH20 0xFFFFFFFFFFFFFFFFFFFFFFFFFFFFFFFFFFFFFFFF AND DUP2 MSTORE PUSH1 0x20 ADD SWAP1 DUP2 MSTORE PUSH1 0x20 ADD PUSH1 0x0 KECCAK256 PUSH1 0x0 PUSH2 0x100 EXP DUP2 SLOAD DUP2 PUSH2 0xFFFF MUL NOT AND SWAP1 DUP4 PUSH2 0xFFFF AND MUL OR SWAP1 SSTORE POP PUSH32 0x85ADBA3A23DC45072C12199244ADFBF4C1D736A46AC453EB732F4E5158AF5867 DUP5 DUP5 DUP5 PUSH1 0x40 MLOAD PUSH2 0x100A SWAP4 SWAP3 SWAP2 SWAP1 PUSH2 0x2050 JUMP JUMPDEST PUSH1 0x40 MLOAD DUP1 SWAP2 SUB SWAP1 LOG1 POP POP POP POP JUMP JUMPDEST PUSH1 0x0 PUSH2 0x1022 PUSH2 0x10DD JUMP JUMPDEST SWAP1 POP PUSH1 0x1 DUP2 PUSH1 0x0 ADD SLOAD EQ ISZERO PUSH2 0x1063 JUMPI PUSH1 0x40 MLOAD PUSH32 0x29F745A700000000000000000000000000000000000000000000000000000000 DUP2 MSTORE PUSH1 0x4 ADD PUSH1 0x40 MLOAD DUP1 SWAP2 SUB SWAP1 REVERT JUMPDEST PUSH1 0x1 DUP2 PUSH1 0x0 ADD DUP2 SWAP1 SSTORE POP PUSH2 0x1075 PUSH2 0x131E JUMP JUMPDEST PUSH2 0x10A0 ADDRESS DUP4 DUP7 PUSH20 0xFFFFFFFFFFFFFFFFFFFFFFFFFFFFFFFFFFFFFFFF AND PUSH2 0x11C0 SWAP1 SWAP3 SWAP2 SWAP1 PUSH4 0xFFFFFFFF AND JUMP JUMPDEST PUSH2 0x10CD ADDRESS DUP5 DUP5 DUP8 PUSH20 0xFFFFFFFFFFFFFFFFFFFFFFFFFFFFFFFFFFFFFFFF AND PUSH2 0x1137 SWAP1 SWAP4 SWAP3 SWAP2 SWAP1 PUSH4 0xFFFFFFFF AND JUMP JUMPDEST PUSH1 0x0 DUP2 PUSH1 0x0 ADD DUP2 SWAP1 SSTORE POP POP POP POP POP JUMP JUMPDEST PUSH1 0x0 DUP1 PUSH32 0xC59B5ACC5A6673A6C49CA2DE898F87ADBD9FDFDFF36F689476B1C9E0C50964B4 SWAP1 POP DUP1 SWAP2 POP POP SWAP1 JUMP JUMPDEST PUSH1 0x0 DUP1 PUSH32 0xBAEADB48CBCF0176D6C6AC156B0140ABE0FB28A100A9A6A8B5DF37E55693B1C8 SWAP1 POP DUP1 SWAP2 POP POP SWAP1 JUMP JUMPDEST PUSH2 0x11BA DUP5 PUSH4 0x23B872DD PUSH1 0xE0 SHL DUP6 DUP6 DUP6 PUSH1 0x40 MLOAD PUSH1 0x24 ADD PUSH2 0x1158 SWAP4 SWAP3 SWAP2 SWAP1 PUSH2 0x1E5B JUMP JUMPDEST PUSH1 0x40 MLOAD PUSH1 0x20 DUP2 DUP4 SUB SUB DUP2 MSTORE SWAP1 PUSH1 0x40 MSTORE SWAP1 PUSH28 0xFFFFFFFFFFFFFFFFFFFFFFFFFFFFFFFFFFFFFFFFFFFFFFFFFFFFFFFF NOT AND PUSH1 0x20 DUP3 ADD DUP1 MLOAD PUSH28 0xFFFFFFFFFFFFFFFFFFFFFFFFFFFFFFFFFFFFFFFFFFFFFFFFFFFFFFFF DUP4 DUP2 DUP4 AND OR DUP4 MSTORE POP POP POP POP PUSH2 0x13B9 JUMP JUMPDEST POP POP POP POP JUMP JUMPDEST PUSH1 0x0 DUP2 EQ DUP1 PUSH2 0x1259 JUMPI POP PUSH1 0x0 DUP4 PUSH20 0xFFFFFFFFFFFFFFFFFFFFFFFFFFFFFFFFFFFFFFFF AND PUSH4 0xDD62ED3E ADDRESS DUP6 PUSH1 0x40 MLOAD DUP4 PUSH4 0xFFFFFFFF AND PUSH1 0xE0 SHL DUP2 MSTORE PUSH1 0x4 ADD PUSH2 0x1207 SWAP3 SWAP2 SWAP1 PUSH2 0x1E32 JUMP JUMPDEST PUSH1 0x20 PUSH1 0x40 MLOAD DUP1 DUP4 SUB DUP2 DUP7 DUP1 EXTCODESIZE ISZERO DUP1 ISZERO PUSH2 0x121F JUMPI PUSH1 0x0 DUP1 REVERT JUMPDEST POP GAS STATICCALL ISZERO DUP1 ISZERO PUSH2 0x1233 JUMPI RETURNDATASIZE PUSH1 0x0 DUP1 RETURNDATACOPY RETURNDATASIZE PUSH1 0x0 REVERT JUMPDEST POP POP POP POP PUSH1 0x40 MLOAD RETURNDATASIZE PUSH1 0x1F NOT PUSH1 0x1F DUP3 ADD AND DUP3 ADD DUP1 PUSH1 0x40 MSTORE POP DUP2 ADD SWAP1 PUSH2 0x1257 SWAP2 SWAP1 PUSH2 0x1AD0 JUMP JUMPDEST EQ JUMPDEST PUSH2 0x1298 JUMPI PUSH1 0x40 MLOAD PUSH32 0x8C379A000000000000000000000000000000000000000000000000000000000 DUP2 MSTORE PUSH1 0x4 ADD PUSH2 0x128F SWAP1 PUSH2 0x2015 JUMP JUMPDEST PUSH1 0x40 MLOAD DUP1 SWAP2 SUB SWAP1 REVERT JUMPDEST PUSH2 0x1319 DUP4 PUSH4 0x95EA7B3 PUSH1 0xE0 SHL DUP5 DUP5 PUSH1 0x40 MLOAD PUSH1 0x24 ADD PUSH2 0x12B7 SWAP3 SWAP2 SWAP1 PUSH2 0x1EBB JUMP JUMPDEST PUSH1 0x40 MLOAD PUSH1 0x20 DUP2 DUP4 SUB SUB DUP2 MSTORE SWAP1 PUSH1 0x40 MSTORE SWAP1 PUSH28 0xFFFFFFFFFFFFFFFFFFFFFFFFFFFFFFFFFFFFFFFFFFFFFFFFFFFFFFFF NOT AND PUSH1 0x20 DUP3 ADD DUP1 MLOAD PUSH28 0xFFFFFFFFFFFFFFFFFFFFFFFFFFFFFFFFFFFFFFFFFFFFFFFFFFFFFFFF DUP4 DUP2 DUP4 AND OR DUP4 MSTORE POP POP POP POP PUSH2 0x13B9 JUMP JUMPDEST POP POP POP JUMP JUMPDEST PUSH2 0x1326 PUSH2 0x1480 JUMP JUMPDEST PUSH1 0x4 ADD PUSH1 0x0 SWAP1 SLOAD SWAP1 PUSH2 0x100 EXP SWAP1 DIV PUSH20 0xFFFFFFFFFFFFFFFFFFFFFFFFFFFFFFFFFFFFFFFF AND PUSH20 0xFFFFFFFFFFFFFFFFFFFFFFFFFFFFFFFFFFFFFFFF AND CALLER PUSH20 0xFFFFFFFFFFFFFFFFFFFFFFFFFFFFFFFFFFFFFFFF AND EQ PUSH2 0x13B7 JUMPI PUSH1 0x40 MLOAD PUSH32 0x8C379A000000000000000000000000000000000000000000000000000000000 DUP2 MSTORE PUSH1 0x4 ADD PUSH2 0x13AE SWAP1 PUSH2 0x1F21 JUMP JUMPDEST PUSH1 0x40 MLOAD DUP1 SWAP2 SUB SWAP1 REVERT JUMPDEST JUMP JUMPDEST PUSH1 0x0 PUSH2 0x141B DUP3 PUSH1 0x40 MLOAD DUP1 PUSH1 0x40 ADD PUSH1 0x40 MSTORE DUP1 PUSH1 0x20 DUP2 MSTORE PUSH1 0x20 ADD PUSH32 0x5361666545524332303A206C6F772D6C6576656C2063616C6C206661696C6564 DUP2 MSTORE POP DUP6 PUSH20 0xFFFFFFFFFFFFFFFFFFFFFFFFFFFFFFFFFFFFFFFF AND PUSH2 0x14AD SWAP1 SWAP3 SWAP2 SWAP1 PUSH4 0xFFFFFFFF AND JUMP JUMPDEST SWAP1 POP PUSH1 0x0 DUP2 MLOAD GT ISZERO PUSH2 0x147B JUMPI DUP1 DUP1 PUSH1 0x20 ADD SWAP1 MLOAD DUP2 ADD SWAP1 PUSH2 0x143B SWAP2 SWAP1 PUSH2 0x18C2 JUMP JUMPDEST PUSH2 0x147A JUMPI PUSH1 0x40 MLOAD PUSH32 0x8C379A000000000000000000000000000000000000000000000000000000000 DUP2 MSTORE PUSH1 0x4 ADD PUSH2 0x1471 SWAP1 PUSH2 0x1FF5 JUMP JUMPDEST PUSH1 0x40 MLOAD DUP1 SWAP2 SUB SWAP1 REVERT JUMPDEST JUMPDEST POP POP POP JUMP JUMPDEST PUSH1 0x0 DUP1 PUSH32 0xC8FCAD8DB84D3CC18B4C41D551EA0EE66DD599CDE068D998E57D5E09332C131C SWAP1 POP DUP1 SWAP2 POP POP SWAP1 JUMP JUMPDEST PUSH1 0x60 PUSH2 0x14BC DUP5 DUP5 PUSH1 0x0 DUP6 PUSH2 0x14C5 JUMP JUMPDEST SWAP1 POP SWAP4 SWAP3 POP POP POP JUMP JUMPDEST PUSH1 0x60 DUP3 SELFBALANCE LT ISZERO PUSH2 0x150A JUMPI PUSH1 0x40 MLOAD PUSH32 0x8C379A000000000000000000000000000000000000000000000000000000000 DUP2 MSTORE PUSH1 0x4 ADD PUSH2 0x1501 SWAP1 PUSH2 0x1F41 JUMP JUMPDEST PUSH1 0x40 MLOAD DUP1 SWAP2 SUB SWAP1 REVERT JUMPDEST PUSH2 0x1513 DUP6 PUSH2 0x15D9 JUMP JUMPDEST PUSH2 0x1552 JUMPI PUSH1 0x40 MLOAD PUSH32 0x8C379A000000000000000000000000000000000000000000000000000000000 DUP2 MSTORE PUSH1 0x4 ADD PUSH2 0x1549 SWAP1 PUSH2 0x1FD5 JUMP JUMPDEST PUSH1 0x40 MLOAD DUP1 SWAP2 SUB SWAP1 REVERT JUMPDEST PUSH1 0x0 DUP1 DUP7 PUSH20 0xFFFFFFFFFFFFFFFFFFFFFFFFFFFFFFFFFFFFFFFF AND DUP6 DUP8 PUSH1 0x40 MLOAD PUSH2 0x157B SWAP2 SWAP1 PUSH2 0x1E00 JUMP JUMPDEST PUSH1 0x0 PUSH1 0x40 MLOAD DUP1 DUP4 SUB DUP2 DUP6 DUP8 GAS CALL SWAP3 POP POP POP RETURNDATASIZE DUP1 PUSH1 0x0 DUP2 EQ PUSH2 0x15B8 JUMPI PUSH1 0x40 MLOAD SWAP2 POP PUSH1 0x1F NOT PUSH1 0x3F RETURNDATASIZE ADD AND DUP3 ADD PUSH1 0x40 MSTORE RETURNDATASIZE DUP3 MSTORE RETURNDATASIZE PUSH1 0x0 PUSH1 0x20 DUP5 ADD RETURNDATACOPY PUSH2 0x15BD JUMP JUMPDEST PUSH1 0x60 SWAP2 POP JUMPDEST POP SWAP2 POP SWAP2 POP PUSH2 0x15CD DUP3 DUP3 DUP7 PUSH2 0x15FC JUMP JUMPDEST SWAP3 POP POP POP SWAP5 SWAP4 POP POP POP POP JUMP JUMPDEST PUSH1 0x0 DUP1 DUP3 PUSH20 0xFFFFFFFFFFFFFFFFFFFFFFFFFFFFFFFFFFFFFFFF AND EXTCODESIZE GT SWAP1 POP SWAP2 SWAP1 POP JUMP JUMPDEST PUSH1 0x60 DUP4 ISZERO PUSH2 0x160C JUMPI DUP3 SWAP1 POP PUSH2 0x165C JUMP JUMPDEST PUSH1 0x0 DUP4 MLOAD GT ISZERO PUSH2 0x161F JUMPI DUP3 MLOAD DUP1 DUP5 PUSH1 0x20 ADD REVERT JUMPDEST DUP2 PUSH1 0x40 MLOAD PUSH32 0x8C379A000000000000000000000000000000000000000000000000000000000 DUP2 MSTORE PUSH1 0x4 ADD PUSH2 0x1653 SWAP2 SWAP1 PUSH2 0x1EFF JUMP JUMPDEST PUSH1 0x40 MLOAD DUP1 SWAP2 SUB SWAP1 REVERT JUMPDEST SWAP4 SWAP3 POP POP POP JUMP JUMPDEST PUSH1 0x0 PUSH2 0x1676 PUSH2 0x1671 DUP5 PUSH2 0x21CF JUMP JUMPDEST PUSH2 0x21AA JUMP JUMPDEST SWAP1 POP DUP3 DUP2 MSTORE PUSH1 0x20 DUP2 ADD DUP5 DUP5 DUP5 ADD GT ISZERO PUSH2 0x168E JUMPI PUSH1 0x0 DUP1 REVERT JUMPDEST PUSH2 0x1699 DUP5 DUP3 DUP6 PUSH2 0x23AC JUMP JUMPDEST POP SWAP4 SWAP3 POP POP POP JUMP JUMPDEST PUSH1 0x0 DUP2 CALLDATALOAD SWAP1 POP PUSH2 0x16B0 DUP2 PUSH2 0x26A5 JUMP JUMPDEST SWAP3 SWAP2 POP POP JUMP JUMPDEST PUSH1 0x0 DUP2 MLOAD SWAP1 POP PUSH2 0x16C5 DUP2 PUSH2 0x26BC JUMP JUMPDEST SWAP3 SWAP2 POP POP JUMP JUMPDEST PUSH1 0x0 DUP2 MLOAD SWAP1 POP PUSH2 0x16DA DUP2 PUSH2 0x26D3 JUMP JUMPDEST SWAP3 SWAP2 POP POP JUMP JUMPDEST PUSH1 0x0 DUP3 PUSH1 0x1F DUP4 ADD SLT PUSH2 0x16F1 JUMPI PUSH1 0x0 DUP1 REVERT JUMPDEST DUP2 CALLDATALOAD PUSH2 0x1701 DUP5 DUP3 PUSH1 0x20 DUP7 ADD PUSH2 0x1663 JUMP JUMPDEST SWAP2 POP POP SWAP3 SWAP2 POP POP JUMP JUMPDEST PUSH1 0x0 PUSH1 0xC0 DUP3 DUP5 SUB SLT ISZERO PUSH2 0x171C JUMPI PUSH1 0x0 DUP1 REVERT JUMPDEST PUSH2 0x1726 PUSH1 0xC0 PUSH2 0x21AA JUMP JUMPDEST SWAP1 POP PUSH1 0x0 PUSH2 0x1736 DUP5 DUP3 DUP6 ADD PUSH2 0x17BB JUMP JUMPDEST PUSH1 0x0 DUP4 ADD MSTORE POP PUSH1 0x20 PUSH2 0x174A DUP5 DUP3 DUP6 ADD PUSH2 0x16A1 JUMP JUMPDEST PUSH1 0x20 DUP4 ADD MSTORE POP PUSH1 0x40 PUSH2 0x175E DUP5 DUP3 DUP6 ADD PUSH2 0x16A1 JUMP JUMPDEST PUSH1 0x40 DUP4 ADD MSTORE POP PUSH1 0x60 PUSH2 0x1772 DUP5 DUP3 DUP6 ADD PUSH2 0x17A6 JUMP JUMPDEST PUSH1 0x60 DUP4 ADD MSTORE POP PUSH1 0x80 PUSH2 0x1786 DUP5 DUP3 DUP6 ADD PUSH2 0x16A1 JUMP JUMPDEST PUSH1 0x80 DUP4 ADD MSTORE POP PUSH1 0xA0 PUSH2 0x179A DUP5 DUP3 DUP6 ADD PUSH2 0x16A1 JUMP JUMPDEST PUSH1 0xA0 DUP4 ADD MSTORE POP SWAP3 SWAP2 POP POP JUMP JUMPDEST PUSH1 0x0 DUP2 CALLDATALOAD SWAP1 POP PUSH2 0x17B5 DUP2 PUSH2 0x26EA JUMP JUMPDEST SWAP3 SWAP2 POP POP JUMP JUMPDEST PUSH1 0x0 DUP2 CALLDATALOAD SWAP1 POP PUSH2 0x17CA DUP2 PUSH2 0x2701 JUMP JUMPDEST SWAP3 SWAP2 POP POP JUMP JUMPDEST PUSH1 0x0 DUP2 MLOAD SWAP1 POP PUSH2 0x17DF DUP2 PUSH2 0x2701 JUMP JUMPDEST SWAP3 SWAP2 POP POP JUMP JUMPDEST PUSH1 0x0 PUSH1 0x20 DUP3 DUP5 SUB SLT ISZERO PUSH2 0x17F7 JUMPI PUSH1 0x0 DUP1 REVERT JUMPDEST PUSH1 0x0 PUSH2 0x1805 DUP5 DUP3 DUP6 ADD PUSH2 0x16A1 JUMP JUMPDEST SWAP2 POP POP SWAP3 SWAP2 POP POP JUMP JUMPDEST PUSH1 0x0 PUSH1 0x20 DUP3 DUP5 SUB SLT ISZERO PUSH2 0x1820 JUMPI PUSH1 0x0 DUP1 REVERT JUMPDEST PUSH1 0x0 PUSH2 0x182E DUP5 DUP3 DUP6 ADD PUSH2 0x16B6 JUMP JUMPDEST SWAP2 POP POP SWAP3 SWAP2 POP POP JUMP JUMPDEST PUSH1 0x0 DUP1 PUSH1 0x0 PUSH1 0x60 DUP5 DUP7 SUB SLT ISZERO PUSH2 0x184C JUMPI PUSH1 0x0 DUP1 REVERT JUMPDEST PUSH1 0x0 PUSH2 0x185A DUP7 DUP3 DUP8 ADD PUSH2 0x16A1 JUMP JUMPDEST SWAP4 POP POP PUSH1 0x20 PUSH2 0x186B DUP7 DUP3 DUP8 ADD PUSH2 0x16A1 JUMP JUMPDEST SWAP3 POP POP PUSH1 0x40 PUSH2 0x187C DUP7 DUP3 DUP8 ADD PUSH2 0x17BB JUMP JUMPDEST SWAP2 POP POP SWAP3 POP SWAP3 POP SWAP3 JUMP JUMPDEST PUSH1 0x0 DUP1 PUSH1 0x40 DUP4 DUP6 SUB SLT ISZERO PUSH2 0x1899 JUMPI PUSH1 0x0 DUP1 REVERT JUMPDEST PUSH1 0x0 PUSH2 0x18A7 DUP6 DUP3 DUP7 ADD PUSH2 0x16A1 JUMP JUMPDEST SWAP3 POP POP PUSH1 0x20 PUSH2 0x18B8 DUP6 DUP3 DUP7 ADD PUSH2 0x17A6 JUMP JUMPDEST SWAP2 POP POP SWAP3 POP SWAP3 SWAP1 POP JUMP JUMPDEST PUSH1 0x0 PUSH1 0x20 DUP3 DUP5 SUB SLT ISZERO PUSH2 0x18D4 JUMPI PUSH1 0x0 DUP1 REVERT JUMPDEST PUSH1 0x0 PUSH2 0x18E2 DUP5 DUP3 DUP6 ADD PUSH2 0x16CB JUMP JUMPDEST SWAP2 POP POP SWAP3 SWAP2 POP POP JUMP JUMPDEST PUSH1 0x0 PUSH1 0xC0 DUP3 DUP5 SUB SLT ISZERO PUSH2 0x18FD JUMPI PUSH1 0x0 DUP1 REVERT JUMPDEST PUSH1 0x0 PUSH2 0x190B DUP5 DUP3 DUP6 ADD PUSH2 0x170A JUMP JUMPDEST SWAP2 POP POP SWAP3 SWAP2 POP POP JUMP JUMPDEST PUSH1 0x0 DUP1 PUSH1 0x40 DUP4 DUP6 SUB SLT ISZERO PUSH2 0x1927 JUMPI PUSH1 0x0 DUP1 REVERT JUMPDEST PUSH1 0x0 PUSH2 0x1935 DUP6 DUP3 DUP7 ADD PUSH2 0x17A6 JUMP JUMPDEST SWAP3 POP POP PUSH1 0x20 PUSH2 0x1946 DUP6 DUP3 DUP7 ADD PUSH2 0x16A1 JUMP JUMPDEST SWAP2 POP POP SWAP3 POP SWAP3 SWAP1 POP JUMP JUMPDEST PUSH1 0x0 DUP1 PUSH1 0x0 PUSH1 0x60 DUP5 DUP7 SUB SLT ISZERO PUSH2 0x1965 JUMPI PUSH1 0x0 DUP1 REVERT JUMPDEST PUSH1 0x0 PUSH2 0x1973 DUP7 DUP3 DUP8 ADD PUSH2 0x17A6 JUMP JUMPDEST SWAP4 POP POP PUSH1 0x20 PUSH2 0x1984 DUP7 DUP3 DUP8 ADD PUSH2 0x16A1 JUMP JUMPDEST SWAP3 POP POP PUSH1 0x40 PUSH2 0x1995 DUP7 DUP3 DUP8 ADD PUSH2 0x16A1 JUMP JUMPDEST SWAP2 POP POP SWAP3 POP SWAP3 POP SWAP3 JUMP JUMPDEST PUSH1 0x0 DUP1 PUSH1 0x0 PUSH1 0x60 DUP5 DUP7 SUB SLT ISZERO PUSH2 0x19B4 JUMPI PUSH1 0x0 DUP1 REVERT JUMPDEST PUSH1 0x0 PUSH2 0x19C2 DUP7 DUP3 DUP8 ADD PUSH2 0x17A6 JUMP JUMPDEST SWAP4 POP POP PUSH1 0x20 PUSH2 0x19D3 DUP7 DUP3 DUP8 ADD PUSH2 0x16A1 JUMP JUMPDEST SWAP3 POP POP PUSH1 0x40 PUSH2 0x19E4 DUP7 DUP3 DUP8 ADD PUSH2 0x17A6 JUMP JUMPDEST SWAP2 POP POP SWAP3 POP SWAP3 POP SWAP3 JUMP JUMPDEST PUSH1 0x0 DUP1 PUSH1 0x0 DUP1 PUSH1 0x0 DUP1 PUSH1 0xC0 DUP8 DUP10 SUB SLT ISZERO PUSH2 0x1A07 JUMPI PUSH1 0x0 DUP1 REVERT JUMPDEST PUSH1 0x0 PUSH2 0x1A15 DUP10 DUP3 DUP11 ADD PUSH2 0x17A6 JUMP JUMPDEST SWAP7 POP POP PUSH1 0x20 DUP8 ADD CALLDATALOAD PUSH8 0xFFFFFFFFFFFFFFFF DUP2 GT ISZERO PUSH2 0x1A32 JUMPI PUSH1 0x0 DUP1 REVERT JUMPDEST PUSH2 0x1A3E DUP10 DUP3 DUP11 ADD PUSH2 0x16E0 JUMP JUMPDEST SWAP6 POP POP PUSH1 0x40 PUSH2 0x1A4F DUP10 DUP3 DUP11 ADD PUSH2 0x17BB JUMP JUMPDEST SWAP5 POP POP PUSH1 0x60 PUSH2 0x1A60 DUP10 DUP3 DUP11 ADD PUSH2 0x16A1 JUMP JUMPDEST SWAP4 POP POP PUSH1 0x80 PUSH2 0x1A71 DUP10 DUP3 DUP11 ADD PUSH2 0x17BB JUMP JUMPDEST SWAP3 POP POP PUSH1 0xA0 DUP8 ADD CALLDATALOAD PUSH8 0xFFFFFFFFFFFFFFFF DUP2 GT ISZERO PUSH2 0x1A8E JUMPI PUSH1 0x0 DUP1 REVERT JUMPDEST PUSH2 0x1A9A DUP10 DUP3 DUP11 ADD PUSH2 0x16E0 JUMP JUMPDEST SWAP2 POP POP SWAP3 SWAP6 POP SWAP3 SWAP6 POP SWAP3 SWAP6 JUMP JUMPDEST PUSH1 0x0 PUSH1 0x20 DUP3 DUP5 SUB SLT ISZERO PUSH2 0x1AB9 JUMPI PUSH1 0x0 DUP1 REVERT JUMPDEST PUSH1 0x0 PUSH2 0x1AC7 DUP5 DUP3 DUP6 ADD PUSH2 0x17BB JUMP JUMPDEST SWAP2 POP POP SWAP3 SWAP2 POP POP JUMP JUMPDEST PUSH1 0x0 PUSH1 0x20 DUP3 DUP5 SUB SLT ISZERO PUSH2 0x1AE2 JUMPI PUSH1 0x0 DUP1 REVERT JUMPDEST PUSH1 0x0 PUSH2 0x1AF0 DUP5 DUP3 DUP6 ADD PUSH2 0x17D0 JUMP JUMPDEST SWAP2 POP POP SWAP3 SWAP2 POP POP JUMP JUMPDEST PUSH1 0x0 DUP1 PUSH1 0x40 DUP4 DUP6 SUB SLT ISZERO PUSH2 0x1B0C JUMPI PUSH1 0x0 DUP1 REVERT JUMPDEST PUSH1 0x0 PUSH2 0x1B1A DUP6 DUP3 DUP7 ADD PUSH2 0x17D0 JUMP JUMPDEST SWAP3 POP POP PUSH1 0x20 PUSH2 0x1B2B DUP6 DUP3 DUP7 ADD PUSH2 0x17D0 JUMP JUMPDEST SWAP2 POP POP SWAP3 POP SWAP3 SWAP1 POP JUMP JUMPDEST PUSH2 0x1B3E DUP2 PUSH2 0x2325 JUMP JUMPDEST DUP3 MSTORE POP POP JUMP JUMPDEST PUSH2 0x1B4D DUP2 PUSH2 0x2313 JUMP JUMPDEST DUP3 MSTORE POP POP JUMP JUMPDEST PUSH2 0x1B64 PUSH2 0x1B5F DUP3 PUSH2 0x2313 JUMP JUMPDEST PUSH2 0x241F JUMP JUMPDEST DUP3 MSTORE POP POP JUMP JUMPDEST PUSH2 0x1B73 DUP2 PUSH2 0x2337 JUMP JUMPDEST DUP3 MSTORE POP POP JUMP JUMPDEST PUSH1 0x0 PUSH2 0x1B84 DUP3 PUSH2 0x2200 JUMP JUMPDEST PUSH2 0x1B8E DUP2 DUP6 PUSH2 0x2216 JUMP JUMPDEST SWAP4 POP PUSH2 0x1B9E DUP2 DUP6 PUSH1 0x20 DUP7 ADD PUSH2 0x23BB JUMP JUMPDEST PUSH2 0x1BA7 DUP2 PUSH2 0x24D0 JUMP JUMPDEST DUP5 ADD SWAP2 POP POP SWAP3 SWAP2 POP POP JUMP JUMPDEST PUSH1 0x0 PUSH2 0x1BBD DUP3 PUSH2 0x2200 JUMP JUMPDEST PUSH2 0x1BC7 DUP2 DUP6 PUSH2 0x2227 JUMP JUMPDEST SWAP4 POP PUSH2 0x1BD7 DUP2 DUP6 PUSH1 0x20 DUP7 ADD PUSH2 0x23BB JUMP JUMPDEST PUSH2 0x1BE0 DUP2 PUSH2 0x24D0 JUMP JUMPDEST DUP5 ADD SWAP2 POP POP SWAP3 SWAP2 POP POP JUMP JUMPDEST PUSH1 0x0 PUSH2 0x1BF6 DUP3 PUSH2 0x2200 JUMP JUMPDEST PUSH2 0x1C00 DUP2 DUP6 PUSH2 0x2238 JUMP JUMPDEST SWAP4 POP PUSH2 0x1C10 DUP2 DUP6 PUSH1 0x20 DUP7 ADD PUSH2 0x23BB JUMP JUMPDEST DUP1 DUP5 ADD SWAP2 POP POP SWAP3 SWAP2 POP POP JUMP JUMPDEST PUSH2 0x1C25 DUP2 PUSH2 0x2388 JUMP JUMPDEST DUP3 MSTORE POP POP JUMP JUMPDEST PUSH1 0x0 PUSH2 0x1C36 DUP3 PUSH2 0x220B JUMP JUMPDEST PUSH2 0x1C40 DUP2 DUP6 PUSH2 0x2243 JUMP JUMPDEST SWAP4 POP PUSH2 0x1C50 DUP2 DUP6 PUSH1 0x20 DUP7 ADD PUSH2 0x23BB JUMP JUMPDEST PUSH2 0x1C59 DUP2 PUSH2 0x24D0 JUMP JUMPDEST DUP5 ADD SWAP2 POP POP SWAP3 SWAP2 POP POP JUMP JUMPDEST PUSH1 0x0 PUSH2 0x1C71 PUSH1 0x22 DUP4 PUSH2 0x2243 JUMP JUMPDEST SWAP2 POP PUSH2 0x1C7C DUP3 PUSH2 0x24EE JUMP JUMPDEST PUSH1 0x40 DUP3 ADD SWAP1 POP SWAP2 SWAP1 POP JUMP JUMPDEST PUSH1 0x0 PUSH2 0x1C94 PUSH1 0x2 DUP4 PUSH2 0x2227 JUMP JUMPDEST SWAP2 POP PUSH2 0x1C9F DUP3 PUSH2 0x253D JUMP JUMPDEST PUSH1 0x20 DUP3 ADD SWAP1 POP SWAP2 SWAP1 POP JUMP JUMPDEST PUSH1 0x0 PUSH2 0x1CB7 PUSH1 0x26 DUP4 PUSH2 0x2243 JUMP JUMPDEST SWAP2 POP PUSH2 0x1CC2 DUP3 PUSH2 0x2566 JUMP JUMPDEST PUSH1 0x40 DUP3 ADD SWAP1 POP SWAP2 SWAP1 POP JUMP JUMPDEST PUSH1 0x0 PUSH2 0x1CDA PUSH1 0x8 DUP4 PUSH2 0x2243 JUMP JUMPDEST SWAP2 POP PUSH2 0x1CE5 DUP3 PUSH2 0x25B5 JUMP JUMPDEST PUSH1 0x20 DUP3 ADD SWAP1 POP SWAP2 SWAP1 POP JUMP JUMPDEST PUSH1 0x0 PUSH2 0x1CFD PUSH1 0x1D DUP4 PUSH2 0x2243 JUMP JUMPDEST SWAP2 POP PUSH2 0x1D08 DUP3 PUSH2 0x25DE JUMP JUMPDEST PUSH1 0x20 DUP3 ADD SWAP1 POP SWAP2 SWAP1 POP JUMP JUMPDEST PUSH1 0x0 PUSH2 0x1D20 PUSH1 0x2A DUP4 PUSH2 0x2243 JUMP JUMPDEST SWAP2 POP PUSH2 0x1D2B DUP3 PUSH2 0x2607 JUMP JUMPDEST PUSH1 0x40 DUP3 ADD SWAP1 POP SWAP2 SWAP1 POP JUMP JUMPDEST PUSH1 0x0 PUSH2 0x1D43 PUSH1 0x36 DUP4 PUSH2 0x2243 JUMP JUMPDEST SWAP2 POP PUSH2 0x1D4E DUP3 PUSH2 0x2656 JUMP JUMPDEST PUSH1 0x40 DUP3 ADD SWAP1 POP SWAP2 SWAP1 POP JUMP JUMPDEST PUSH1 0x0 PUSH1 0x60 DUP4 ADD PUSH1 0x0 DUP4 ADD MLOAD PUSH2 0x1D71 PUSH1 0x0 DUP7 ADD DUP3 PUSH2 0x1DC7 JUMP JUMPDEST POP PUSH1 0x20 DUP4 ADD MLOAD PUSH2 0x1D84 PUSH1 0x20 DUP7 ADD DUP3 PUSH2 0x1DC7 JUMP JUMPDEST POP PUSH1 0x40 DUP4 ADD MLOAD DUP5 DUP3 SUB PUSH1 0x40 DUP7 ADD MSTORE PUSH2 0x1D9C DUP3 DUP3 PUSH2 0x1B79 JUMP JUMPDEST SWAP2 POP POP DUP1 SWAP2 POP POP SWAP3 SWAP2 POP POP JUMP JUMPDEST PUSH2 0x1DB2 DUP2 PUSH2 0x2343 JUMP JUMPDEST DUP3 MSTORE POP POP JUMP JUMPDEST PUSH2 0x1DC1 DUP2 PUSH2 0x239A JUMP JUMPDEST DUP3 MSTORE POP POP JUMP JUMPDEST PUSH2 0x1DD0 DUP2 PUSH2 0x2371 JUMP JUMPDEST DUP3 MSTORE POP POP JUMP JUMPDEST PUSH2 0x1DDF DUP2 PUSH2 0x2371 JUMP JUMPDEST DUP3 MSTORE POP POP JUMP JUMPDEST PUSH1 0x0 PUSH2 0x1DF1 DUP3 DUP5 PUSH2 0x1B53 JUMP JUMPDEST PUSH1 0x14 DUP3 ADD SWAP2 POP DUP2 SWAP1 POP SWAP3 SWAP2 POP POP JUMP JUMPDEST PUSH1 0x0 PUSH2 0x1E0C DUP3 DUP5 PUSH2 0x1BEB JUMP JUMPDEST SWAP2 POP DUP2 SWAP1 POP SWAP3 SWAP2 POP POP JUMP JUMPDEST PUSH1 0x0 PUSH1 0x20 DUP3 ADD SWAP1 POP PUSH2 0x1E2C PUSH1 0x0 DUP4 ADD DUP5 PUSH2 0x1B44 JUMP JUMPDEST SWAP3 SWAP2 POP POP JUMP JUMPDEST PUSH1 0x0 PUSH1 0x40 DUP3 ADD SWAP1 POP PUSH2 0x1E47 PUSH1 0x0 DUP4 ADD DUP6 PUSH2 0x1B44 JUMP JUMPDEST PUSH2 0x1E54 PUSH1 0x20 DUP4 ADD DUP5 PUSH2 0x1B44 JUMP JUMPDEST SWAP4 SWAP3 POP POP POP JUMP JUMPDEST PUSH1 0x0 PUSH1 0x60 DUP3 ADD SWAP1 POP PUSH2 0x1E70 PUSH1 0x0 DUP4 ADD DUP7 PUSH2 0x1B44 JUMP JUMPDEST PUSH2 0x1E7D PUSH1 0x20 DUP4 ADD DUP6 PUSH2 0x1B44 JUMP JUMPDEST PUSH2 0x1E8A PUSH1 0x40 DUP4 ADD DUP5 PUSH2 0x1DD6 JUMP JUMPDEST SWAP5 SWAP4 POP POP POP POP JUMP JUMPDEST PUSH1 0x0 PUSH1 0x40 DUP3 ADD SWAP1 POP PUSH2 0x1EA7 PUSH1 0x0 DUP4 ADD DUP6 PUSH2 0x1B44 JUMP JUMPDEST PUSH2 0x1EB4 PUSH1 0x20 DUP4 ADD DUP5 PUSH2 0x1DA9 JUMP JUMPDEST SWAP4 SWAP3 POP POP POP JUMP JUMPDEST PUSH1 0x0 PUSH1 0x40 DUP3 ADD SWAP1 POP PUSH2 0x1ED0 PUSH1 0x0 DUP4 ADD DUP6 PUSH2 0x1B44 JUMP JUMPDEST PUSH2 0x1EDD PUSH1 0x20 DUP4 ADD DUP5 PUSH2 0x1DD6 JUMP JUMPDEST SWAP4 SWAP3 POP POP POP JUMP JUMPDEST PUSH1 0x0 PUSH1 0x20 DUP3 ADD SWAP1 POP PUSH2 0x1EF9 PUSH1 0x0 DUP4 ADD DUP5 PUSH2 0x1B6A JUMP JUMPDEST SWAP3 SWAP2 POP POP JUMP JUMPDEST PUSH1 0x0 PUSH1 0x20 DUP3 ADD SWAP1 POP DUP2 DUP2 SUB PUSH1 0x0 DUP4 ADD MSTORE PUSH2 0x1F19 DUP2 DUP5 PUSH2 0x1C2B JUMP JUMPDEST SWAP1 POP SWAP3 SWAP2 POP POP JUMP JUMPDEST PUSH1 0x0 PUSH1 0x20 DUP3 ADD SWAP1 POP DUP2 DUP2 SUB PUSH1 0x0 DUP4 ADD MSTORE PUSH2 0x1F3A DUP2 PUSH2 0x1C64 JUMP JUMPDEST SWAP1 POP SWAP2 SWAP1 POP JUMP JUMPDEST PUSH1 0x0 PUSH1 0x20 DUP3 ADD SWAP1 POP DUP2 DUP2 SUB PUSH1 0x0 DUP4 ADD MSTORE PUSH2 0x1F5A DUP2 PUSH2 0x1CAA JUMP JUMPDEST SWAP1 POP SWAP2 SWAP1 POP JUMP JUMPDEST PUSH1 0x0 PUSH1 0xE0 DUP3 ADD SWAP1 POP DUP2 DUP2 SUB PUSH1 0x0 DUP4 ADD MSTORE PUSH2 0x1F7A DUP2 PUSH2 0x1CCD JUMP JUMPDEST SWAP1 POP PUSH2 0x1F89 PUSH1 0x20 DUP4 ADD DUP10 PUSH2 0x1B44 JUMP JUMPDEST PUSH2 0x1F96 PUSH1 0x40 DUP4 ADD DUP9 PUSH2 0x1B44 JUMP JUMPDEST PUSH2 0x1FA3 PUSH1 0x60 DUP4 ADD DUP8 PUSH2 0x1B44 JUMP JUMPDEST PUSH2 0x1FB0 PUSH1 0x80 DUP4 ADD DUP7 PUSH2 0x1B44 JUMP JUMPDEST PUSH2 0x1FBD PUSH1 0xA0 DUP4 ADD DUP6 PUSH2 0x1DD6 JUMP JUMPDEST PUSH2 0x1FCA PUSH1 0xC0 DUP4 ADD DUP5 PUSH2 0x1DA9 JUMP JUMPDEST SWAP8 SWAP7 POP POP POP POP POP POP POP JUMP JUMPDEST PUSH1 0x0 PUSH1 0x20 DUP3 ADD SWAP1 POP DUP2 DUP2 SUB PUSH1 0x0 DUP4 ADD MSTORE PUSH2 0x1FEE DUP2 PUSH2 0x1CF0 JUMP JUMPDEST SWAP1 POP SWAP2 SWAP1 POP JUMP JUMPDEST PUSH1 0x0 PUSH1 0x20 DUP3 ADD SWAP1 POP DUP2 DUP2 SUB PUSH1 0x0 DUP4 ADD MSTORE PUSH2 0x200E DUP2 PUSH2 0x1D13 JUMP JUMPDEST SWAP1 POP SWAP2 SWAP1 POP JUMP JUMPDEST PUSH1 0x0 PUSH1 0x20 DUP3 ADD SWAP1 POP DUP2 DUP2 SUB PUSH1 0x0 DUP4 ADD MSTORE PUSH2 0x202E DUP2 PUSH2 0x1D36 JUMP JUMPDEST SWAP1 POP SWAP2 SWAP1 POP JUMP JUMPDEST PUSH1 0x0 PUSH1 0x20 DUP3 ADD SWAP1 POP PUSH2 0x204A PUSH1 0x0 DUP4 ADD DUP5 PUSH2 0x1DA9 JUMP JUMPDEST SWAP3 SWAP2 POP POP JUMP JUMPDEST PUSH1 0x0 PUSH1 0x60 DUP3 ADD SWAP1 POP PUSH2 0x2065 PUSH1 0x0 DUP4 ADD DUP7 PUSH2 0x1DA9 JUMP JUMPDEST PUSH2 0x2072 PUSH1 0x20 DUP4 ADD DUP6 PUSH2 0x1B44 JUMP JUMPDEST PUSH2 0x207F PUSH1 0x40 DUP4 ADD DUP5 PUSH2 0x1DA9 JUMP JUMPDEST SWAP5 SWAP4 POP POP POP POP JUMP JUMPDEST PUSH1 0x0 PUSH1 0xA0 DUP3 ADD SWAP1 POP PUSH2 0x209C PUSH1 0x0 DUP4 ADD DUP8 PUSH2 0x1DA9 JUMP JUMPDEST PUSH2 0x20A9 PUSH1 0x20 DUP4 ADD DUP7 PUSH2 0x1C1C JUMP JUMPDEST DUP2 DUP2 SUB PUSH1 0x40 DUP4 ADD MSTORE PUSH2 0x20BB DUP2 DUP6 PUSH2 0x1BB2 JUMP JUMPDEST SWAP1 POP DUP2 DUP2 SUB PUSH1 0x60 DUP4 ADD MSTORE PUSH2 0x20CE DUP2 PUSH2 0x1C87 JUMP JUMPDEST SWAP1 POP DUP2 DUP2 SUB PUSH1 0x80 DUP4 ADD MSTORE PUSH2 0x20E2 DUP2 DUP5 PUSH2 0x1D59 JUMP JUMPDEST SWAP1 POP SWAP6 SWAP5 POP POP POP POP POP JUMP JUMPDEST PUSH1 0x0 PUSH2 0x120 DUP3 ADD SWAP1 POP PUSH2 0x2103 PUSH1 0x0 DUP4 ADD DUP13 PUSH2 0x1DA9 JUMP JUMPDEST PUSH2 0x2110 PUSH1 0x20 DUP4 ADD DUP12 PUSH2 0x1DB8 JUMP JUMPDEST PUSH2 0x211D PUSH1 0x40 DUP4 ADD DUP11 PUSH2 0x1DB8 JUMP JUMPDEST PUSH2 0x212A PUSH1 0x60 DUP4 ADD DUP10 PUSH2 0x1B35 JUMP JUMPDEST PUSH2 0x2137 PUSH1 0x80 DUP4 ADD DUP9 PUSH2 0x1DD6 JUMP JUMPDEST PUSH2 0x2144 PUSH1 0xA0 DUP4 ADD DUP8 PUSH2 0x1DD6 JUMP JUMPDEST DUP2 DUP2 SUB PUSH1 0xC0 DUP4 ADD MSTORE PUSH2 0x2156 DUP2 DUP7 PUSH2 0x1D59 JUMP JUMPDEST SWAP1 POP DUP2 DUP2 SUB PUSH1 0xE0 DUP4 ADD MSTORE PUSH2 0x216A DUP2 DUP6 PUSH2 0x1BB2 JUMP JUMPDEST SWAP1 POP DUP2 DUP2 SUB PUSH2 0x100 DUP4 ADD MSTORE PUSH2 0x217F DUP2 DUP5 PUSH2 0x1BB2 JUMP JUMPDEST SWAP1 POP SWAP11 SWAP10 POP POP POP POP POP POP POP POP POP POP JUMP JUMPDEST PUSH1 0x0 PUSH1 0x20 DUP3 ADD SWAP1 POP PUSH2 0x21A4 PUSH1 0x0 DUP4 ADD DUP5 PUSH2 0x1DD6 JUMP JUMPDEST SWAP3 SWAP2 POP POP JUMP JUMPDEST PUSH1 0x0 PUSH2 0x21B4 PUSH2 0x21C5 JUMP JUMPDEST SWAP1 POP PUSH2 0x21C0 DUP3 DUP3 PUSH2 0x23EE JUMP JUMPDEST SWAP2 SWAP1 POP JUMP JUMPDEST PUSH1 0x0 PUSH1 0x40 MLOAD SWAP1 POP SWAP1 JUMP JUMPDEST PUSH1 0x0 PUSH8 0xFFFFFFFFFFFFFFFF DUP3 GT ISZERO PUSH2 0x21EA JUMPI PUSH2 0x21E9 PUSH2 0x24A1 JUMP JUMPDEST JUMPDEST PUSH2 0x21F3 DUP3 PUSH2 0x24D0 JUMP JUMPDEST SWAP1 POP PUSH1 0x20 DUP2 ADD SWAP1 POP SWAP2 SWAP1 POP JUMP JUMPDEST PUSH1 0x0 DUP2 MLOAD SWAP1 POP SWAP2 SWAP1 POP JUMP JUMPDEST PUSH1 0x0 DUP2 MLOAD SWAP1 POP SWAP2 SWAP1 POP JUMP JUMPDEST PUSH1 0x0 DUP3 DUP3 MSTORE PUSH1 0x20 DUP3 ADD SWAP1 POP SWAP3 SWAP2 POP POP JUMP JUMPDEST PUSH1 0x0 DUP3 DUP3 MSTORE PUSH1 0x20 DUP3 ADD SWAP1 POP SWAP3 SWAP2 POP POP JUMP JUMPDEST PUSH1 0x0 DUP2 SWAP1 POP SWAP3 SWAP2 POP POP JUMP JUMPDEST PUSH1 0x0 DUP3 DUP3 MSTORE PUSH1 0x20 DUP3 ADD SWAP1 POP SWAP3 SWAP2 POP POP JUMP JUMPDEST PUSH1 0x0 PUSH2 0x225F DUP3 PUSH2 0x2371 JUMP JUMPDEST SWAP2 POP PUSH2 0x226A DUP4 PUSH2 0x2371 JUMP JUMPDEST SWAP3 POP DUP3 PUSH2 0x227A JUMPI PUSH2 0x2279 PUSH2 0x2472 JUMP JUMPDEST JUMPDEST DUP3 DUP3 DIV SWAP1 POP SWAP3 SWAP2 POP POP JUMP JUMPDEST PUSH1 0x0 PUSH2 0x2290 DUP3 PUSH2 0x2371 JUMP JUMPDEST SWAP2 POP PUSH2 0x229B DUP4 PUSH2 0x2371 JUMP JUMPDEST SWAP3 POP DUP2 PUSH32 0xFFFFFFFFFFFFFFFFFFFFFFFFFFFFFFFFFFFFFFFFFFFFFFFFFFFFFFFFFFFFFFFF DIV DUP4 GT DUP3 ISZERO ISZERO AND ISZERO PUSH2 0x22D4 JUMPI PUSH2 0x22D3 PUSH2 0x2443 JUMP JUMPDEST JUMPDEST DUP3 DUP3 MUL SWAP1 POP SWAP3 SWAP2 POP POP JUMP JUMPDEST PUSH1 0x0 PUSH2 0x22EA DUP3 PUSH2 0x2371 JUMP JUMPDEST SWAP2 POP PUSH2 0x22F5 DUP4 PUSH2 0x2371 JUMP JUMPDEST SWAP3 POP DUP3 DUP3 LT ISZERO PUSH2 0x2308 JUMPI PUSH2 0x2307 PUSH2 0x2443 JUMP JUMPDEST JUMPDEST DUP3 DUP3 SUB SWAP1 POP SWAP3 SWAP2 POP POP JUMP JUMPDEST PUSH1 0x0 PUSH2 0x231E DUP3 PUSH2 0x2351 JUMP JUMPDEST SWAP1 POP SWAP2 SWAP1 POP JUMP JUMPDEST PUSH1 0x0 PUSH2 0x2330 DUP3 PUSH2 0x2351 JUMP JUMPDEST SWAP1 POP SWAP2 SWAP1 POP JUMP JUMPDEST PUSH1 0x0 DUP2 ISZERO ISZERO SWAP1 POP SWAP2 SWAP1 POP JUMP JUMPDEST PUSH1 0x0 PUSH2 0xFFFF DUP3 AND SWAP1 POP SWAP2 SWAP1 POP JUMP JUMPDEST PUSH1 0x0 PUSH20 0xFFFFFFFFFFFFFFFFFFFFFFFFFFFFFFFFFFFFFFFF DUP3 AND SWAP1 POP SWAP2 SWAP1 POP JUMP JUMPDEST PUSH1 0x0 DUP2 SWAP1 POP SWAP2 SWAP1 POP JUMP JUMPDEST PUSH1 0x0 PUSH1 0xFF DUP3 AND SWAP1 POP SWAP2 SWAP1 POP JUMP JUMPDEST PUSH1 0x0 PUSH2 0x2393 DUP3 PUSH2 0x237B JUMP JUMPDEST SWAP1 POP SWAP2 SWAP1 POP JUMP JUMPDEST PUSH1 0x0 PUSH2 0x23A5 DUP3 PUSH2 0x2343 JUMP JUMPDEST SWAP1 POP SWAP2 SWAP1 POP JUMP JUMPDEST DUP3 DUP2 DUP4 CALLDATACOPY PUSH1 0x0 DUP4 DUP4 ADD MSTORE POP POP POP JUMP JUMPDEST PUSH1 0x0 JUMPDEST DUP4 DUP2 LT ISZERO PUSH2 0x23D9 JUMPI DUP1 DUP3 ADD MLOAD DUP2 DUP5 ADD MSTORE PUSH1 0x20 DUP2 ADD SWAP1 POP PUSH2 0x23BE JUMP JUMPDEST DUP4 DUP2 GT ISZERO PUSH2 0x23E8 JUMPI PUSH1 0x0 DUP5 DUP5 ADD MSTORE JUMPDEST POP POP POP POP JUMP JUMPDEST PUSH2 0x23F7 DUP3 PUSH2 0x24D0 JUMP JUMPDEST DUP2 ADD DUP2 DUP2 LT PUSH8 0xFFFFFFFFFFFFFFFF DUP3 GT OR ISZERO PUSH2 0x2416 JUMPI PUSH2 0x2415 PUSH2 0x24A1 JUMP JUMPDEST JUMPDEST DUP1 PUSH1 0x40 MSTORE POP POP POP JUMP JUMPDEST PUSH1 0x0 PUSH2 0x242A DUP3 PUSH2 0x2431 JUMP JUMPDEST SWAP1 POP SWAP2 SWAP1 POP JUMP JUMPDEST PUSH1 0x0 PUSH2 0x243C DUP3 PUSH2 0x24E1 JUMP JUMPDEST SWAP1 POP SWAP2 SWAP1 POP JUMP JUMPDEST PUSH32 0x4E487B7100000000000000000000000000000000000000000000000000000000 PUSH1 0x0 MSTORE PUSH1 0x11 PUSH1 0x4 MSTORE PUSH1 0x24 PUSH1 0x0 REVERT JUMPDEST PUSH32 0x4E487B7100000000000000000000000000000000000000000000000000000000 PUSH1 0x0 MSTORE PUSH1 0x12 PUSH1 0x4 MSTORE PUSH1 0x24 PUSH1 0x0 REVERT JUMPDEST PUSH32 0x4E487B7100000000000000000000000000000000000000000000000000000000 PUSH1 0x0 MSTORE PUSH1 0x41 PUSH1 0x4 MSTORE PUSH1 0x24 PUSH1 0x0 REVERT JUMPDEST PUSH1 0x0 PUSH1 0x1F NOT PUSH1 0x1F DUP4 ADD AND SWAP1 POP SWAP2 SWAP1 POP JUMP JUMPDEST PUSH1 0x0 DUP2 PUSH1 0x60 SHL SWAP1 POP SWAP2 SWAP1 POP JUMP JUMPDEST PUSH32 0x4C69624469616D6F6E643A204D75737420626520636F6E7472616374206F776E PUSH1 0x0 DUP3 ADD MSTORE PUSH32 0x6572000000000000000000000000000000000000000000000000000000000000 PUSH1 0x20 DUP3 ADD MSTORE POP JUMP JUMPDEST PUSH32 0x3078000000000000000000000000000000000000000000000000000000000000 PUSH1 0x0 DUP3 ADD MSTORE POP JUMP JUMPDEST PUSH32 0x416464726573733A20696E73756666696369656E742062616C616E636520666F PUSH1 0x0 DUP3 ADD MSTORE PUSH32 0x722063616C6C0000000000000000000000000000000000000000000000000000 PUSH1 0x20 DUP3 ADD MSTORE POP JUMP JUMPDEST PUSH32 0x7374617267617465000000000000000000000000000000000000000000000000 PUSH1 0x0 DUP3 ADD MSTORE POP JUMP JUMPDEST PUSH32 0x416464726573733A2063616C6C20746F206E6F6E2D636F6E7472616374000000 PUSH1 0x0 DUP3 ADD MSTORE POP JUMP JUMPDEST PUSH32 0x5361666545524332303A204552433230206F7065726174696F6E20646964206E PUSH1 0x0 DUP3 ADD MSTORE PUSH32 0x6F74207375636365656400000000000000000000000000000000000000000000 PUSH1 0x20 DUP3 ADD MSTORE POP JUMP JUMPDEST PUSH32 0x5361666545524332303A20617070726F76652066726F6D206E6F6E2D7A65726F PUSH1 0x0 DUP3 ADD MSTORE PUSH32 0x20746F206E6F6E2D7A65726F20616C6C6F77616E636500000000000000000000 PUSH1 0x20 DUP3 ADD MSTORE POP JUMP JUMPDEST PUSH2 0x26AE DUP2 PUSH2 0x2313 JUMP JUMPDEST DUP2 EQ PUSH2 0x26B9 JUMPI PUSH1 0x0 DUP1 REVERT JUMPDEST POP JUMP JUMPDEST PUSH2 0x26C5 DUP2 PUSH2 0x2325 JUMP JUMPDEST DUP2 EQ PUSH2 0x26D0 JUMPI PUSH1 0x0 DUP1 REVERT JUMPDEST POP JUMP JUMPDEST PUSH2 0x26DC DUP2 PUSH2 0x2337 JUMP JUMPDEST DUP2 EQ PUSH2 0x26E7 JUMPI PUSH1 0x0 DUP1 REVERT JUMPDEST POP JUMP JUMPDEST PUSH2 0x26F3 DUP2 PUSH2 0x2343 JUMP JUMPDEST DUP2 EQ PUSH2 0x26FE JUMPI PUSH1 0x0 DUP1 REVERT JUMPDEST POP JUMP JUMPDEST PUSH2 0x270A DUP2 PUSH2 0x2371 JUMP JUMPDEST DUP2 EQ PUSH2 0x2715 JUMPI PUSH1 0x0 DUP1 REVERT JUMPDEST POP JUMP INVALID LOG2 PUSH5 0x6970667358 0x22 SLT KECCAK256 0xB6 GASLIMIT CREATE2 DUP5 SWAP14 0xC2 SLT KECCAK256 0xAA PUSH3 0x5E1D73 0x49 0xC6 0x21 0xA8 DUP11 0x22 SWAP2 PUSH15 0x26A341AECFF2E56D87857A64736F6C PUSH4 0x43000804 STOP CALLER "
				},
				"gasEstimates": {
					"creation": {
						"codeDepositCost": "2012400",
						"executionCost": "2134",
						"totalCost": "2014534"
					},
					"external": {
						"sgAddPool(uint16,address,uint16)": "infinite",
						"sgBridgeTokens((uint256,address,address,uint16,address,address))": "infinite",
						"sgCalculateFees(uint16,address,address)": "infinite",
						"sgCheckPoolId(uint16,address,uint16)": "infinite",
						"sgInitialize(address,uint16)": "infinite",
						"sgMinAmountOut(uint256)": "infinite",
						"sgReceive(uint16,bytes,uint256,address,uint256,bytes)": "infinite",
						"sgRetrievePoolId(uint16,address)": "infinite",
						"sgUpdateRouter(address)": "infinite",
						"sgUpdateSlippageTolerance(uint256)": "infinite",
						"sgWithdraw(address,address,uint256)": "infinite"
					},
					"internal": {
						"getStorage()": "36"
					}
				},
				"methodIdentifiers": {
					"sgAddPool(uint16,address,uint16)": "b8c06ccc",
					"sgBridgeTokens((uint256,address,address,uint16,address,address))": "1f8097fb",
					"sgCalculateFees(uint16,address,address)": "42d910c6",
					"sgCheckPoolId(uint16,address,uint16)": "2a8dcdb7",
					"sgInitialize(address,uint16)": "498ee469",
					"sgMinAmountOut(uint256)": "618c3f29",
					"sgReceive(uint16,bytes,uint256,address,uint256,bytes)": "ab8236f3",
					"sgRetrievePoolId(uint16,address)": "430dbc3a",
					"sgUpdateRouter(address)": "4be85c35",
					"sgUpdateSlippageTolerance(uint256)": "217aabb7",
					"sgWithdraw(address,address,uint256)": "c722a336"
				}
			},
			"storageLayout": {
				"storage": [],
				"types": null
			},
			"userdoc": {
				"kind": "user",
				"methods": {
					"sgAddPool(uint16,address,uint16)": {
						"notice": "Adds a new pool for a specific token and chain"
					},
					"sgBridgeTokens((uint256,address,address,uint16,address,address))": {
						"notice": "initializes state variables for the stargate facet"
					},
					"sgCalculateFees(uint16,address,address)": {
						"notice": "Calculates cross chain fee"
					},
					"sgCheckPoolId(uint16,address,uint16)": {
						"notice": "Checks for a valid token pool on specific chain"
					},
					"sgInitialize(address,uint16)": {
						"notice": "initializes state variables for the Stargate facet"
					},
					"sgMinAmountOut(uint256)": {
						"notice": "Calculates the minimum amount out using slippage tolerance"
					},
					"sgReceive(uint16,bytes,uint256,address,uint256,bytes)": {
						"notice": "required to receive tokens on destination chain"
					},
					"sgRetrievePoolId(uint16,address)": {
						"notice": "Retrieves pool id for a token on a specified chain"
					},
					"sgUpdateRouter(address)": {
						"notice": "Updates stargate router address for deployed chain"
					},
					"sgUpdateSlippageTolerance(uint256)": {
						"notice": "Updates slippage tolerance amount"
					},
					"sgWithdraw(address,address,uint256)": {
						"notice": "Withdraws tokens on contract"
					}
				},
				"notice": "Stargate/LayerZero intergration for bridging tokens",
				"version": 1
			}
		}
	}
}