{
  "address": "0x9B950aa30575F3d1E33bd0b2DD0AF4DE496F39F5",
  "abi": [
    {
      "inputs": [],
      "name": "CannotBridgeToSameNetwork",
      "type": "error"
    },
    {
      "inputs": [],
      "name": "InvalidAmount",
      "type": "error"
    },
    {
      "inputs": [],
      "name": "NativeValueWithERC",
      "type": "error"
    },
    {
      "inputs": [],
      "name": "NoTransferToNullAddress",
      "type": "error"
    },
    {
      "inputs": [],
      "name": "NullAddrIsNotAValidSpender",
      "type": "error"
    },
    {
      "inputs": [],
      "name": "NullAddrIsNotAnERC20Token",
      "type": "error"
    },
    {
      "inputs": [],
      "name": "ReentrancyError",
      "type": "error"
    },
    {
      "anonymous": false,
      "inputs": [
        {
          "indexed": false,
          "internalType": "uint256",
          "name": "chainId",
          "type": "uint256"
        },
        {
          "indexed": false,
          "internalType": "uint256",
          "name": "chainLayerId",
          "type": "uint256"
        }
      ],
      "name": "HopInitialized",
      "type": "event"
    },
    {
      "anonymous": false,
      "inputs": [
        {
          "indexed": true,
          "internalType": "uint256",
          "name": "_destination",
          "type": "uint256"
        },
        {
          "indexed": false,
          "internalType": "address",
          "name": "_bridge",
          "type": "address"
        },
        {
          "indexed": false,
          "internalType": "address",
          "name": "_ammWrapper",
          "type": "address"
        },
        {
          "indexed": true,
          "internalType": "address",
          "name": "_recipient",
          "type": "address"
        },
        {
          "indexed": true,
          "internalType": "address",
          "name": "_asset",
          "type": "address"
        },
        {
          "indexed": false,
          "internalType": "uint256",
          "name": "_amount",
          "type": "uint256"
        },
        {
          "indexed": false,
          "internalType": "uint256",
          "name": "_bonderFee",
          "type": "uint256"
        },
        {
          "indexed": false,
          "internalType": "uint256",
          "name": "_amountOutMin",
          "type": "uint256"
        },
        {
          "indexed": false,
          "internalType": "uint256",
          "name": "_deadline",
          "type": "uint256"
        },
        {
          "indexed": false,
          "internalType": "uint256",
          "name": "_destinationAmountOutMin",
          "type": "uint256"
        },
        {
          "indexed": false,
          "internalType": "uint256",
          "name": "_destinationDeadline",
          "type": "uint256"
        }
      ],
      "name": "HopTokenSwap",
      "type": "event"
    },
    {
      "inputs": [
        {
          "components": [
            {
              "internalType": "address",
              "name": "bridge",
              "type": "address"
            },
            {
              "internalType": "address",
              "name": "ammWrapper",
              "type": "address"
            },
            {
              "internalType": "address",
              "name": "asset",
              "type": "address"
            },
            {
              "internalType": "address",
              "name": "recipient",
              "type": "address"
            },
            {
              "internalType": "uint256",
              "name": "chainId",
              "type": "uint256"
            },
            {
              "internalType": "uint256",
              "name": "amount",
              "type": "uint256"
            },
            {
              "internalType": "uint256",
              "name": "bonderFee",
              "type": "uint256"
            },
            {
              "internalType": "uint256",
              "name": "amountOutMin",
              "type": "uint256"
            },
            {
              "internalType": "uint256",
              "name": "deadline",
              "type": "uint256"
            },
            {
              "internalType": "uint256",
              "name": "destinationAmountOutMin",
              "type": "uint256"
            },
            {
              "internalType": "uint256",
              "name": "destinationDeadline",
              "type": "uint256"
            }
          ],
          "internalType": "struct HopFacet.HopData",
          "name": "_hopData",
          "type": "tuple"
        }
      ],
      "name": "hopTokenTransfer",
      "outputs": [],
      "stateMutability": "payable",
      "type": "function"
    },
    {
      "inputs": [
        {
          "internalType": "uint256",
          "name": "_chainLayerId",
          "type": "uint256"
        }
      ],
      "name": "initHop",
      "outputs": [],
      "stateMutability": "nonpayable",
      "type": "function"
    }
  ],
  "transactionHash": "0xdaaecd03b1addd1eb80ee80ae6fce9795442363add8e46be678aa9ffdfe68858",
  "args": [],
  "solcInputHash": "893c7c8579088197a1acbd2718e7b759",
  "bytecode": "0x608060405234801561001057600080fd5b50611740806100206000396000f3fe6080604052600436106100295760003560e01c80635254f5a91461002e578063fbdfb9071461004a575b600080fd5b61004860048036038101906100439190610f83565b610073565b005b34801561005657600080fd5b50610071600480360381019061006c9190610fad565b610409565b005b600061007d61046a565b90506001816000015414156100be576040517f29f745a700000000000000000000000000000000000000000000000000000000815260040160405180910390fd5b600181600001819055506100e88260400160208101906100de9190610f31565b8360a00135610497565b600060016100f46104d5565b14156101145782600001602081019061010d9190610f31565b905061012a565b8260200160208101906101279190610f31565b90505b82608001356101376104e8565b141561016f576040517f4ac09ad300000000000000000000000000000000000000000000000000000000815260040160405180910390fd5b6101908360400160208101906101859190610f31565b828560a001356104f5565b60006101ad8460400160208101906101a89190610f31565b610660565b6101b85760006101be565b8360a001355b905060016101ca6104d5565b1415610272578173ffffffffffffffffffffffffffffffffffffffff1663deace8f58286608001358760600160208101906102059190610f31565b8860a001358961012001358a61014001356000806040518963ffffffff1660e01b815260040161023b9796959493929190611340565b6000604051808303818588803b15801561025457600080fd5b505af1158015610268573d6000803e3d6000fd5b505050505061031e565b8173ffffffffffffffffffffffffffffffffffffffff1663eea0d7b28286608001358760600160208101906102a79190610f31565b8860a001358960c001358a60e001358b61010001358c61012001358d61014001356040518a63ffffffff1660e01b81526004016102eb9897969594939291906113af565b6000604051808303818588803b15801561030457600080fd5b505af1158015610318573d6000803e3d6000fd5b50505050505b8360400160208101906103319190610f31565b73ffffffffffffffffffffffffffffffffffffffff1684606001602081019061035a9190610f31565b73ffffffffffffffffffffffffffffffffffffffff1685608001357f35ac5f1aa56e86e7f2e01562289e5bd298773763192f6433fde30f05932381738760000160208101906103a99190610f31565b8860200160208101906103bc9190610f31565b8960a001358a60c001358b60e001358c61010001358d61012001358e61014001356040516103f19897969594939291906111d7565b60405180910390a45050600081600001819055505050565b610411610698565b600061041b610733565b90508181600001819055507f09b9d2d59be87e537ec1f2f9325f524d04c29f20e2c60ce0c3c6435102c7882a61044f6104e8565b8360405161045e92919061142d565b60405180910390a15050565b6000807fc59b5acc5a6673a6c49ca2de898f87adbd9fdfdff36f689476b1c9e0c50964b490508091505090565b6104d18282600073ffffffffffffffffffffffffffffffffffffffff168573ffffffffffffffffffffffffffffffffffffffff1614610760565b5050565b60006104df610733565b60000154905090565b6000804690508091505090565b600073ffffffffffffffffffffffffffffffffffffffff168373ffffffffffffffffffffffffffffffffffffffff16141561052f5761065b565b600073ffffffffffffffffffffffffffffffffffffffff168273ffffffffffffffffffffffffffffffffffffffff161415610596576040517f63ba9bff00000000000000000000000000000000000000000000000000000000815260040160405180910390fd5b60008373ffffffffffffffffffffffffffffffffffffffff1663dd62ed3e30856040518363ffffffff1660e01b81526004016105d3929190611177565b60206040518083038186803b1580156105eb57600080fd5b505afa1580156105ff573d6000803e3d6000fd5b505050506040513d601f19601f820116820180604052508101906106239190610fd6565b9050818110156106595761065884847fffffffffffffffffffffffffffffffffffffffffffffffffffffffffffffffff610884565b5b505b505050565b60008073ffffffffffffffffffffffffffffffffffffffff168273ffffffffffffffffffffffffffffffffffffffff16149050919050565b6106a06109e2565b60040160009054906101000a900473ffffffffffffffffffffffffffffffffffffffff1673ffffffffffffffffffffffffffffffffffffffff163373ffffffffffffffffffffffffffffffffffffffff1614610731576040517f08c379a0000000000000000000000000000000000000000000000000000000008152600401610728906112a0565b60405180910390fd5b565b6000807f82ac262a0ca73826b2defa6066a5cbdaefe5f87d412e3568bfc9bec85eaa985790508091505090565b600082141561079b576040517f2c5211c600000000000000000000000000000000000000000000000000000000815260040160405180910390fd5b80156107df578134146107da576040517f2c5211c600000000000000000000000000000000000000000000000000000000815260040160405180910390fd5b61087f565b60003414610818576040517e3f45b500000000000000000000000000000000000000000000000000000000815260040160405180910390fd5b600061082384610a0f565b905061083184333086610adb565b828161083c86610a0f565b6108469190611488565b1461087d576040517f2c5211c600000000000000000000000000000000000000000000000000000000815260040160405180910390fd5b505b505050565b600081148061091d575060008373ffffffffffffffffffffffffffffffffffffffff1663dd62ed3e30856040518363ffffffff1660e01b81526004016108cb929190611177565b60206040518083038186803b1580156108e357600080fd5b505afa1580156108f7573d6000803e3d6000fd5b505050506040513d601f19601f8201168201806040525081019061091b9190610fd6565b145b61095c576040517f08c379a000000000000000000000000000000000000000000000000000000000815260040161095390611320565b60405180910390fd5b6109dd8363095ea7b360e01b848460405160240161097b929190611255565b604051602081830303815290604052907bffffffffffffffffffffffffffffffffffffffffffffffffffffffff19166020820180517bffffffffffffffffffffffffffffffffffffffffffffffffffffffff8381831617835250505050610bbb565b505050565b6000807fc8fcad8db84d3cc18b4c41d551ea0ee66dd599cde068d998e57d5e09332c131c90508091505090565b60008073ffffffffffffffffffffffffffffffffffffffff168273ffffffffffffffffffffffffffffffffffffffff1614610ad2578173ffffffffffffffffffffffffffffffffffffffff166370a08231306040518263ffffffff1660e01b8152600401610a7d919061115c565b60206040518083038186803b158015610a9557600080fd5b505afa158015610aa9573d6000803e3d6000fd5b505050506040513d601f19601f82011682018060405250810190610acd9190610fd6565b610ad4565b475b9050919050565b600073ffffffffffffffffffffffffffffffffffffffff168473ffffffffffffffffffffffffffffffffffffffff161415610b42576040517fd1bebf0c00000000000000000000000000000000000000000000000000000000815260040160405180910390fd5b600073ffffffffffffffffffffffffffffffffffffffff168273ffffffffffffffffffffffffffffffffffffffff161415610ba9576040517f21f7434500000000000000000000000000000000000000000000000000000000815260040160405180910390fd5b610bb584848484610c82565b50505050565b6000610c1d826040518060400160405280602081526020017f5361666545524332303a206c6f772d6c6576656c2063616c6c206661696c65648152508573ffffffffffffffffffffffffffffffffffffffff16610d0b9092919063ffffffff16565b9050600081511115610c7d5780806020019051810190610c3d9190610f5a565b610c7c576040517f08c379a0000000000000000000000000000000000000000000000000000000008152600401610c7390611300565b60405180910390fd5b5b505050565b610d05846323b872dd60e01b858585604051602401610ca3939291906111a0565b604051602081830303815290604052907bffffffffffffffffffffffffffffffffffffffffffffffffffffffff19166020820180517bffffffffffffffffffffffffffffffffffffffffffffffffffffffff8381831617835250505050610bbb565b50505050565b6060610d1a8484600085610d23565b90509392505050565b606082471015610d68576040517f08c379a0000000000000000000000000000000000000000000000000000000008152600401610d5f906112c0565b60405180910390fd5b610d7185610e37565b610db0576040517f08c379a0000000000000000000000000000000000000000000000000000000008152600401610da7906112e0565b60405180910390fd5b6000808673ffffffffffffffffffffffffffffffffffffffff168587604051610dd99190611145565b60006040518083038185875af1925050503d8060008114610e16576040519150601f19603f3d011682016040523d82523d6000602084013e610e1b565b606091505b5091509150610e2b828286610e5a565b92505050949350505050565b6000808273ffffffffffffffffffffffffffffffffffffffff163b119050919050565b60608315610e6a57829050610eba565b600083511115610e7d5782518084602001fd5b816040517f08c379a0000000000000000000000000000000000000000000000000000000008152600401610eb1919061127e565b60405180910390fd5b9392505050565b600081359050610ed0816116ee565b92915050565b600081519050610ee581611705565b92915050565b60006101608284031215610efe57600080fd5b81905092915050565b600081359050610f168161171c565b92915050565b600081519050610f2b8161171c565b92915050565b600060208284031215610f4357600080fd5b6000610f5184828501610ec1565b91505092915050565b600060208284031215610f6c57600080fd5b6000610f7a84828501610ed6565b91505092915050565b60006101608284031215610f9657600080fd5b6000610fa484828501610eeb565b91505092915050565b600060208284031215610fbf57600080fd5b6000610fcd84828501610f07565b91505092915050565b600060208284031215610fe857600080fd5b6000610ff684828501610f1c565b91505092915050565b611008816114bc565b82525050565b600061101982611456565b611023818561146c565b9350611033818560208601611516565b80840191505092915050565b61104881611504565b82525050565b600061105982611461565b6110638185611477565b9350611073818560208601611516565b61107c81611578565b840191505092915050565b6000611094602283611477565b915061109f82611589565b604082019050919050565b60006110b7602683611477565b91506110c2826115d8565b604082019050919050565b60006110da601d83611477565b91506110e582611627565b602082019050919050565b60006110fd602a83611477565b915061110882611650565b604082019050919050565b6000611120603683611477565b915061112b8261169f565b604082019050919050565b61113f816114fa565b82525050565b6000611151828461100e565b915081905092915050565b60006020820190506111716000830184610fff565b92915050565b600060408201905061118c6000830185610fff565b6111996020830184610fff565b9392505050565b60006060820190506111b56000830186610fff565b6111c26020830185610fff565b6111cf6040830184611136565b949350505050565b6000610100820190506111ed600083018b610fff565b6111fa602083018a610fff565b6112076040830189611136565b6112146060830188611136565b6112216080830187611136565b61122e60a0830186611136565b61123b60c0830185611136565b61124860e0830184611136565b9998505050505050505050565b600060408201905061126a6000830185610fff565b6112776020830184611136565b9392505050565b60006020820190508181036000830152611298818461104e565b905092915050565b600060208201905081810360008301526112b981611087565b9050919050565b600060208201905081810360008301526112d9816110aa565b9050919050565b600060208201905081810360008301526112f9816110cd565b9050919050565b60006020820190508181036000830152611319816110f0565b9050919050565b6000602082019050818103600083015261133981611113565b9050919050565b600060e082019050611355600083018a611136565b6113626020830189610fff565b61136f6040830188611136565b61137c6060830187611136565b6113896080830186611136565b61139660a0830185610fff565b6113a360c083018461103f565b98975050505050505050565b6000610100820190506113c5600083018b611136565b6113d2602083018a610fff565b6113df6040830189611136565b6113ec6060830188611136565b6113f96080830187611136565b61140660a0830186611136565b61141360c0830185611136565b61142060e0830184611136565b9998505050505050505050565b60006040820190506114426000830185611136565b61144f6020830184611136565b9392505050565b600081519050919050565b600081519050919050565b600081905092915050565b600082825260208201905092915050565b6000611493826114fa565b915061149e836114fa565b9250828210156114b1576114b0611549565b5b828203905092915050565b60006114c7826114da565b9050919050565b60008115159050919050565b600073ffffffffffffffffffffffffffffffffffffffff82169050919050565b6000819050919050565b600061150f826114fa565b9050919050565b60005b83811015611534578082015181840152602081019050611519565b83811115611543576000848401525b50505050565b7f4e487b7100000000000000000000000000000000000000000000000000000000600052601160045260246000fd5b6000601f19601f8301169050919050565b7f4c69624469616d6f6e643a204d75737420626520636f6e7472616374206f776e60008201527f6572000000000000000000000000000000000000000000000000000000000000602082015250565b7f416464726573733a20696e73756666696369656e742062616c616e636520666f60008201527f722063616c6c0000000000000000000000000000000000000000000000000000602082015250565b7f416464726573733a2063616c6c20746f206e6f6e2d636f6e7472616374000000600082015250565b7f5361666545524332303a204552433230206f7065726174696f6e20646964206e60008201527f6f74207375636365656400000000000000000000000000000000000000000000602082015250565b7f5361666545524332303a20617070726f76652066726f6d206e6f6e2d7a65726f60008201527f20746f206e6f6e2d7a65726f20616c6c6f77616e636500000000000000000000602082015250565b6116f7816114bc565b811461170257600080fd5b50565b61170e816114ce565b811461171957600080fd5b50565b611725816114fa565b811461173057600080fd5b5056fea164736f6c6343000804000a",
  "devdoc": {
    "events": {
      "HopInitialized(uint256,uint256)": {
        "details": "Emitted when facet initializes",
        "params": {
          "chainId": "current chain id",
          "chainLayerId": "current chain layer id"
        }
      },
      "HopTokenSwap(uint256,address,address,address,address,uint256,uint256,uint256,uint256,uint256,uint256)": {
        "details": "Emitted on token swap",
        "params": {
          "_ammWrapper": "address of the amm wrapper,",
          "_amount": "amount of assets",
          "_amountOutMin": "The minimum amount received after attempting to swap in the destination",
          "_asset": "address of the asset",
          "_bonderFee": "fee",
          "_bridge": "address of the bridge on chain _destination,",
          "_deadline": "The deadline for swapping in the destination AMM market. 0 if no * swap is intended.",
          "_destination": "destination chain id",
          "_destinationAmountOutMin": "The minimum amount of tokens to receive after bridging",
          "_destinationDeadline": "The time the transaction must be completed",
          "_recipient": "recipient"
        }
      }
    },
    "kind": "dev",
    "methods": {
      "hopTokenTransfer((address,address,address,address,uint256,uint256,uint256,uint256,uint256,uint256,uint256))": {
        "params": {
          "_hopData": "data specific to Hop Protocol"
        }
      }
    },
    "title": "Hop Protocol Integration",
    "version": 1
  },
  "userdoc": {
    "kind": "user",
    "methods": {
      "hopTokenTransfer((address,address,address,address,uint256,uint256,uint256,uint256,uint256,uint256,uint256))": {
        "notice": "Bridges tokens via Hop Protocol"
      },
      "initHop(uint256)": {
        "notice": "Initializes local variables for the Connext facet"
      }
    },
    "notice": "Contract which provides bridging functionality through Hop Protocol",
    "version": 1
  },
  "storageLayout": {
    "storage": [],
    "types": null
  }
}