{
  "_format": "hh-sol-artifact-1",
  "contractName": "Account",
  "sourceName": "src/common/account/Account.sol",
  "abi": [
    {
      "inputs": [
        {
          "internalType": "address",
          "name": "registry_",
          "type": "address"
        },
        {
          "internalType": "address",
          "name": "implementation_",
          "type": "address"
        }
      ],
      "stateMutability": "nonpayable",
      "type": "constructor"
    },
    {
      "stateMutability": "nonpayable",
      "type": "fallback"
    },
    {
      "inputs": [
        {
          "internalType": "bytes8",
          "name": "c__28344ffb",
          "type": "bytes8"
        }
      ],
      "name": "c_28344ffb",
      "outputs": [],
      "stateMutability": "pure",
      "type": "function"
    },
    {
      "inputs": [
        {
          "internalType": "bytes8",
          "name": "c__495bfa8b",
          "type": "bytes8"
        }
      ],
      "name": "c_495bfa8b",
      "outputs": [],
      "stateMutability": "pure",
      "type": "function"
    },
    {
      "inputs": [
        {
          "internalType": "bytes8",
          "name": "c__ac4285e3",
          "type": "bytes8"
        }
      ],
      "name": "c_ac4285e3",
      "outputs": [],
      "stateMutability": "pure",
      "type": "function"
    },
    {
      "inputs": [
        {
          "internalType": "bytes8",
          "name": "c__28344ffb",
          "type": "bytes8"
        }
      ],
      "name": "c_false28344ffb",
      "outputs": [
        {
          "internalType": "bool",
          "name": "",
          "type": "bool"
        }
      ],
      "stateMutability": "pure",
      "type": "function"
    },
    {
      "inputs": [
        {
          "internalType": "bytes8",
          "name": "c__495bfa8b",
          "type": "bytes8"
        }
      ],
      "name": "c_false495bfa8b",
      "outputs": [
        {
          "internalType": "bool",
          "name": "",
          "type": "bool"
        }
      ],
      "stateMutability": "pure",
      "type": "function"
    },
    {
      "inputs": [
        {
          "internalType": "bytes8",
          "name": "c__ac4285e3",
          "type": "bytes8"
        }
      ],
      "name": "c_falseac4285e3",
      "outputs": [
        {
          "internalType": "bool",
          "name": "",
          "type": "bool"
        }
      ],
      "stateMutability": "pure",
      "type": "function"
    },
    {
      "inputs": [
        {
          "internalType": "bytes8",
          "name": "c__28344ffb",
          "type": "bytes8"
        }
      ],
      "name": "c_true28344ffb",
      "outputs": [
        {
          "internalType": "bool",
          "name": "",
          "type": "bool"
        }
      ],
      "stateMutability": "pure",
      "type": "function"
    },
    {
      "inputs": [
        {
          "internalType": "bytes8",
          "name": "c__495bfa8b",
          "type": "bytes8"
        }
      ],
      "name": "c_true495bfa8b",
      "outputs": [
        {
          "internalType": "bool",
          "name": "",
          "type": "bool"
        }
      ],
      "stateMutability": "pure",
      "type": "function"
    },
    {
      "inputs": [
        {
          "internalType": "bytes8",
          "name": "c__ac4285e3",
          "type": "bytes8"
        }
      ],
      "name": "c_trueac4285e3",
      "outputs": [
        {
          "internalType": "bool",
          "name": "",
          "type": "bool"
        }
      ],
      "stateMutability": "pure",
      "type": "function"
    },
    {
      "inputs": [],
      "name": "controller",
      "outputs": [
        {
          "internalType": "address",
          "name": "",
          "type": "address"
        }
      ],
      "stateMutability": "view",
      "type": "function"
    },
    {
      "inputs": [
        {
          "internalType": "address",
          "name": "to",
          "type": "address"
        },
        {
          "internalType": "uint256",
          "name": "value",
          "type": "uint256"
        },
        {
          "internalType": "bytes",
          "name": "data",
          "type": "bytes"
        }
      ],
      "name": "executeTransaction",
      "outputs": [
        {
          "internalType": "bytes",
          "name": "",
          "type": "bytes"
        }
      ],
      "stateMutability": "nonpayable",
      "type": "function"
    },
    {
      "inputs": [],
      "name": "implementation",
      "outputs": [
        {
          "internalType": "address",
          "name": "",
          "type": "address"
        }
      ],
      "stateMutability": "view",
      "type": "function"
    },
    {
      "inputs": [],
      "name": "registry",
      "outputs": [
        {
          "internalType": "address",
          "name": "",
          "type": "address"
        }
      ],
      "stateMutability": "view",
      "type": "function"
    },
    {
      "inputs": [
        {
          "internalType": "address",
          "name": "implementation_",
          "type": "address"
        }
      ],
      "name": "setImplementation",
      "outputs": [],
      "stateMutability": "nonpayable",
      "type": "function"
    },
    {
      "stateMutability": "payable",
      "type": "receive"
    }
  ],
  "bytecode": "0x608060405234801561001057600080fd5b50604051610f32380380610f328339818101604052604081101561003357600080fd5b810190808051906020019092919080519060200190929190505050610068674c05ed6aa1cd281960c01b61019960201b60201c565b610082675db0dfd7018850c360c01b61019960201b60201c565b336000806101000a81548173ffffffffffffffffffffffffffffffffffffffff021916908373ffffffffffffffffffffffffffffffffffffffff1602179055506100dc6727cd07b305f6130f60c01b61019c60201b60201c565b6100f6673763e953c2595ed960c01b61019c60201b60201c565b81600160006101000a81548173ffffffffffffffffffffffffffffffffffffffff021916908373ffffffffffffffffffffffffffffffffffffffff160217905550610151679802ebbc23dba3ba60c01b61019c60201b60201c565b80600260006101000a81548173ffffffffffffffffffffffffffffffffffffffff021916908373ffffffffffffffffffffffffffffffffffffffff160217905550505061019f565b50565b50565b610d84806101ae6000396000f3fe6080604052600436106100e15760003560e01c80635c60da1b1161007f578063a42ea70811610059578063a42ea7081461067a578063d1c43eae146106d0578063d784d42614610726578063f77c479114610777576100e8565b80635c60da1b1461058c5780637b103999146105cd5780638f9bda6e1461060e576100e8565b80633f579f42116100bb5780633f579f421461031f57806344f9c9ec14610448578063550648ff146104b457806356c2fc6c14610520576100e8565b806310b90163146101f1578063221523e51461025d57806325afd90f146102c9576100e8565b366100e857005b3480156100f457600080fd5b5061010967d1c166158a76fd7860c01b6107b8565b61011d670a4a924f04604fe560c01b6107b8565b610131670ec1ea2f1a11078060c01b6107b8565b600080369050146101db57610150670366ed24f6d51c0d60c01b6107b8565b61016467583b5ef5a1a2fce260c01b6107b8565b61017867726acafc478ad1f860c01b6107b8565b6000600260009054906101000a900473ffffffffffffffffffffffffffffffffffffffff1690506101b3673d8591565072bf1f60c01b6107b8565b368060008037600080826000855af43d806000803e81600081146101d657816000f35b816000fd5b6101ef67967eae13d5222be260c01b6107b8565b005b3480156101fd57600080fd5b506102456004803603602081101561021457600080fd5b81019080803577ffffffffffffffffffffffffffffffffffffffffffffffff191690602001909291905050506107bb565b60405180821515815260200191505060405180910390f35b34801561026957600080fd5b506102b16004803603602081101561028057600080fd5b81019080803577ffffffffffffffffffffffffffffffffffffffffffffffff191690602001909291905050506107c2565b60405180821515815260200191505060405180910390f35b3480156102d557600080fd5b5061031d600480360360208110156102ec57600080fd5b81019080803577ffffffffffffffffffffffffffffffffffffffffffffffff191690602001909291905050506107b8565b005b34801561032b57600080fd5b506103cd6004803603606081101561034257600080fd5b81019080803573ffffffffffffffffffffffffffffffffffffffff169060200190929190803590602001909291908035906020019064010000000081111561038957600080fd5b82018360208201111561039b57600080fd5b803590602001918460018302840111640100000000831117156103bd57600080fd5b90919293919293905050506107c9565b6040518080602001828103825283818151815260200191508051906020019080838360005b8381101561040d5780820151818401526020810190506103f2565b50505050905090810190601f16801561043a5780820380516001836020036101000a031916815260200191505b509250505060405180910390f35b34801561045457600080fd5b5061049c6004803603602081101561046b57600080fd5b81019080803577ffffffffffffffffffffffffffffffffffffffffffffffff19169060200190929190505050610afd565b60405180821515815260200191505060405180910390f35b3480156104c057600080fd5b50610508600480360360208110156104d757600080fd5b81019080803577ffffffffffffffffffffffffffffffffffffffffffffffff19169060200190929190505050610b08565b60405180821515815260200191505060405180910390f35b34801561052c57600080fd5b506105746004803603602081101561054357600080fd5b81019080803577ffffffffffffffffffffffffffffffffffffffffffffffff19169060200190929190505050610b0f565b60405180821515815260200191505060405180910390f35b34801561059857600080fd5b506105a1610b1a565b604051808273ffffffffffffffffffffffffffffffffffffffff16815260200191505060405180910390f35b3480156105d957600080fd5b506105e2610b40565b604051808273ffffffffffffffffffffffffffffffffffffffff16815260200191505060405180910390f35b34801561061a57600080fd5b506106626004803603602081101561063157600080fd5b81019080803577ffffffffffffffffffffffffffffffffffffffffffffffff19169060200190929190505050610b66565b60405180821515815260200191505060405180910390f35b34801561068657600080fd5b506106ce6004803603602081101561069d57600080fd5b81019080803577ffffffffffffffffffffffffffffffffffffffffffffffff19169060200190929190505050610b71565b005b3480156106dc57600080fd5b50610724600480360360208110156106f357600080fd5b81019080803577ffffffffffffffffffffffffffffffffffffffffffffffff19169060200190929190505050610b74565b005b34801561073257600080fd5b506107756004803603602081101561074957600080fd5b81019080803573ffffffffffffffffffffffffffffffffffffffff169060200190929190505050610b77565b005b34801561078357600080fd5b5061078c610d27565b604051808273ffffffffffffffffffffffffffffffffffffffff16815260200191505060405180910390f35b50565b6000919050565b6000919050565b60606107df6715e98a49f265557060c01b6107b8565b6107f367f6266a592c249da560c01b610b74565b6108076728279893f8537e1960c01b610b74565b61081b67d300d0a9ecbe6cac60c01b610b74565b61082f678d5c0caa285e3ec560c01b610b74565b60008054906101000a900473ffffffffffffffffffffffffffffffffffffffff1673ffffffffffffffffffffffffffffffffffffffff163373ffffffffffffffffffffffffffffffffffffffff16146108d3576040517f08c379a000000000000000000000000000000000000000000000000000000000815260040180806020018281038252602c815260200180610d4c602c913960400191505060405180910390fd5b6108e76718b2e4dd03bc759a60c01b610b74565b6108fb67f8b65e28b897a44f60c01b610b74565b61090f67390c85347f6e2a2360c01b6107b8565b61092367d2a3446ca25e972660c01b6107b8565b61093767aca9b4091d5a9bc860c01b6107b8565b61094b67cce790cad14eb25260c01b6107b8565b606061096167b3adbec8c64c374360c01b6107b8565b6109756791d717b4dffb179d60c01b6107b8565b600061098b67310ff00dd2ac011060c01b6107b8565b8673ffffffffffffffffffffffffffffffffffffffff1686868660405180838380828437808301925050509250505060006040518083038185875af1925050503d80600081146109f7576040519150601f19603f3d011682016040523d82523d6000602084013e6109fc565b606091505b508093508192505050610a1967a450d3c3f63b6d4d60c01b6107b8565b610a2d679a3e7d330ffc414560c01b6107b8565b610a41671925c722e30d4f6d60c01b6107b8565b80610ab4576040517f08c379a000000000000000000000000000000000000000000000000000000000815260040180806020018281038252601d8152602001807f4163636f756e743a207472616e73616374696f6e20726576657274656400000081525060200191505060405180910390fd5b610ac867a7fa168288301d1c60c01b6107b8565b610adc6745320fb16320fa4a60c01b6107b8565b610af06779ce6fa2117b3f1e60c01b6107b8565b8192505050949350505050565b600060019050919050565b6000919050565b600060019050919050565b600260009054906101000a900473ffffffffffffffffffffffffffffffffffffffff1681565b600160009054906101000a900473ffffffffffffffffffffffffffffffffffffffff1681565b600060019050919050565b50565b50565b610b8b6735cfec4d4a3972f660c01b6107b8565b610b9f67f6266a592c249da560c01b610b74565b610bb36728279893f8537e1960c01b610b74565b610bc767d300d0a9ecbe6cac60c01b610b74565b610bdb678d5c0caa285e3ec560c01b610b74565b60008054906101000a900473ffffffffffffffffffffffffffffffffffffffff1673ffffffffffffffffffffffffffffffffffffffff163373ffffffffffffffffffffffffffffffffffffffff1614610c7f576040517f08c379a000000000000000000000000000000000000000000000000000000000815260040180806020018281038252602c815260200180610d4c602c913960400191505060405180910390fd5b610c936718b2e4dd03bc759a60c01b610b74565b610ca767f8b65e28b897a44f60c01b610b74565b610cbb67dbd823a6f693c9e360c01b6107b8565b610ccf6759af4a1e64a734ae60c01b6107b8565b610ce367123d1e7dcae181d060c01b6107b8565b80600260006101000a81548173ffffffffffffffffffffffffffffffffffffffff021916908373ffffffffffffffffffffffffffffffffffffffff16021790555050565b60008054906101000a900473ffffffffffffffffffffffffffffffffffffffff168156fe436f6e74726f6c6c65643a206d73672e73656e646572206973206e6f742074686520636f6e74726f6c6c6572a164736f6c634300060c000a",
  "linkReferences": {},
  "deployedLinkReferences": {}
}