{
  "_format": "hh-sol-artifact-1",
  "contractName": "Account",
  "sourceName": "src/common/account/Account.sol",
  "abi": [
    {
      "inputs": [
        {
          "internalType": "address",
          "name": "registry_",
          "type": "address"
        },
        {
          "internalType": "address",
          "name": "implementation_",
          "type": "address"
        }
      ],
      "stateMutability": "nonpayable",
      "type": "constructor"
    },
    {
      "stateMutability": "nonpayable",
      "type": "fallback"
    },
    {
      "inputs": [
        {
          "internalType": "bytes8",
          "name": "c__305923d6",
          "type": "bytes8"
        }
      ],
      "name": "c_305923d6",
      "outputs": [],
      "stateMutability": "pure",
      "type": "function"
    },
    {
      "inputs": [
        {
          "internalType": "bytes8",
          "name": "c__d6b1085a",
          "type": "bytes8"
        }
      ],
      "name": "c_d6b1085a",
      "outputs": [],
      "stateMutability": "pure",
      "type": "function"
    },
    {
      "inputs": [
        {
          "internalType": "bytes8",
          "name": "c__e208e0f4",
          "type": "bytes8"
        }
      ],
      "name": "c_e208e0f4",
      "outputs": [],
      "stateMutability": "pure",
      "type": "function"
    },
    {
      "inputs": [
        {
          "internalType": "bytes8",
          "name": "c__305923d6",
          "type": "bytes8"
        }
      ],
      "name": "c_false305923d6",
      "outputs": [
        {
          "internalType": "bool",
          "name": "",
          "type": "bool"
        }
      ],
      "stateMutability": "pure",
      "type": "function"
    },
    {
      "inputs": [
        {
          "internalType": "bytes8",
          "name": "c__d6b1085a",
          "type": "bytes8"
        }
      ],
      "name": "c_falsed6b1085a",
      "outputs": [
        {
          "internalType": "bool",
          "name": "",
          "type": "bool"
        }
      ],
      "stateMutability": "pure",
      "type": "function"
    },
    {
      "inputs": [
        {
          "internalType": "bytes8",
          "name": "c__e208e0f4",
          "type": "bytes8"
        }
      ],
      "name": "c_falsee208e0f4",
      "outputs": [
        {
          "internalType": "bool",
          "name": "",
          "type": "bool"
        }
      ],
      "stateMutability": "pure",
      "type": "function"
    },
    {
      "inputs": [
        {
          "internalType": "bytes8",
          "name": "c__305923d6",
          "type": "bytes8"
        }
      ],
      "name": "c_true305923d6",
      "outputs": [
        {
          "internalType": "bool",
          "name": "",
          "type": "bool"
        }
      ],
      "stateMutability": "pure",
      "type": "function"
    },
    {
      "inputs": [
        {
          "internalType": "bytes8",
          "name": "c__d6b1085a",
          "type": "bytes8"
        }
      ],
      "name": "c_trued6b1085a",
      "outputs": [
        {
          "internalType": "bool",
          "name": "",
          "type": "bool"
        }
      ],
      "stateMutability": "pure",
      "type": "function"
    },
    {
      "inputs": [
        {
          "internalType": "bytes8",
          "name": "c__e208e0f4",
          "type": "bytes8"
        }
      ],
      "name": "c_truee208e0f4",
      "outputs": [
        {
          "internalType": "bool",
          "name": "",
          "type": "bool"
        }
      ],
      "stateMutability": "pure",
      "type": "function"
    },
    {
      "inputs": [],
      "name": "controller",
      "outputs": [
        {
          "internalType": "address",
          "name": "",
          "type": "address"
        }
      ],
      "stateMutability": "view",
      "type": "function"
    },
    {
      "inputs": [
        {
          "internalType": "address",
          "name": "to",
          "type": "address"
        },
        {
          "internalType": "uint256",
          "name": "value",
          "type": "uint256"
        },
        {
          "internalType": "bytes",
          "name": "data",
          "type": "bytes"
        }
      ],
      "name": "executeTransaction",
      "outputs": [
        {
          "internalType": "bytes",
          "name": "",
          "type": "bytes"
        }
      ],
      "stateMutability": "nonpayable",
      "type": "function"
    },
    {
      "inputs": [],
      "name": "implementation",
      "outputs": [
        {
          "internalType": "address",
          "name": "",
          "type": "address"
        }
      ],
      "stateMutability": "view",
      "type": "function"
    },
    {
      "inputs": [],
      "name": "registry",
      "outputs": [
        {
          "internalType": "address",
          "name": "",
          "type": "address"
        }
      ],
      "stateMutability": "view",
      "type": "function"
    },
    {
      "inputs": [
        {
          "internalType": "address",
          "name": "implementation_",
          "type": "address"
        }
      ],
      "name": "setImplementation",
      "outputs": [],
      "stateMutability": "nonpayable",
      "type": "function"
    },
    {
      "stateMutability": "payable",
      "type": "receive"
    }
  ],
  "bytecode": "0x608060405234801561001057600080fd5b50604051610f32380380610f328339818101604052604081101561003357600080fd5b81019080805190602001909291908051906020019092919050505061006867b6012af9acb9264060c01b61019960201b60201c565b6100826727f467a9e7d89ff760c01b61019960201b60201c565b336000806101000a81548173ffffffffffffffffffffffffffffffffffffffff021916908373ffffffffffffffffffffffffffffffffffffffff1602179055506100dc67f175c5ef2e49c6f360c01b61019c60201b60201c565b6100f667c318ba095176bebb60c01b61019c60201b60201c565b81600160006101000a81548173ffffffffffffffffffffffffffffffffffffffff021916908373ffffffffffffffffffffffffffffffffffffffff160217905550610151672a8b2ea5e921c9d460c01b61019c60201b60201c565b80600260006101000a81548173ffffffffffffffffffffffffffffffffffffffff021916908373ffffffffffffffffffffffffffffffffffffffff160217905550505061019f565b50565b50565b610d84806101ae6000396000f3fe6080604052600436106100e15760003560e01c80637b1039991161007f578063b49762a111610059578063b49762a114610664578063d784d426146106d0578063dd54622814610721578063f77c479114610777576100e8565b80637b103999146105775780638f27e6b6146105b8578063abe124f61461060e576100e8565b806334d23875116100bb57806334d23875146103355780633f579f42146103a15780635c60da1b146104ca5780636480a27b1461050b576100e8565b8063062e4f9c146101f15780631454d4701461025d5780632486e26f146102c9576100e8565b366100e857005b3480156100f457600080fd5b506101096709619ef9c11b3b8060c01b6107b8565b61011d67f676fea30541dd5560c01b6107b8565b61013167e5c11d251eb5286460c01b6107b8565b600080369050146101db5761015067c2d6781a706852d860c01b6107b8565b610164670eb6c0c0d55e29ed60c01b6107b8565b61017867bb9b653a710e7d3460c01b6107b8565b6000600260009054906101000a900473ffffffffffffffffffffffffffffffffffffffff1690506101b3671b09e5380a92fb0b60c01b6107b8565b368060008037600080826000855af43d806000803e81600081146101d657816000f35b816000fd5b6101ef6750d3724dcbeedf9a60c01b6107b8565b005b3480156101fd57600080fd5b506102456004803603602081101561021457600080fd5b81019080803577ffffffffffffffffffffffffffffffffffffffffffffffff191690602001909291905050506107bb565b60405180821515815260200191505060405180910390f35b34801561026957600080fd5b506102b16004803603602081101561028057600080fd5b81019080803577ffffffffffffffffffffffffffffffffffffffffffffffff191690602001909291905050506107c2565b60405180821515815260200191505060405180910390f35b3480156102d557600080fd5b5061031d600480360360208110156102ec57600080fd5b81019080803577ffffffffffffffffffffffffffffffffffffffffffffffff191690602001909291905050506107c9565b60405180821515815260200191505060405180910390f35b34801561034157600080fd5b506103896004803603602081101561035857600080fd5b81019080803577ffffffffffffffffffffffffffffffffffffffffffffffff191690602001909291905050506107d4565b60405180821515815260200191505060405180910390f35b3480156103ad57600080fd5b5061044f600480360360608110156103c457600080fd5b81019080803573ffffffffffffffffffffffffffffffffffffffff169060200190929190803590602001909291908035906020019064010000000081111561040b57600080fd5b82018360208201111561041d57600080fd5b8035906020019184600183028401116401000000008311171561043f57600080fd5b90919293919293905050506107df565b6040518080602001828103825283818151815260200191508051906020019080838360005b8381101561048f578082015181840152602081019050610474565b50505050905090810190601f1680156104bc5780820380516001836020036101000a031916815260200191505b509250505060405180910390f35b3480156104d657600080fd5b506104df610b13565b604051808273ffffffffffffffffffffffffffffffffffffffff16815260200191505060405180910390f35b34801561051757600080fd5b5061055f6004803603602081101561052e57600080fd5b81019080803577ffffffffffffffffffffffffffffffffffffffffffffffff19169060200190929190505050610b39565b60405180821515815260200191505060405180910390f35b34801561058357600080fd5b5061058c610b44565b604051808273ffffffffffffffffffffffffffffffffffffffff16815260200191505060405180910390f35b3480156105c457600080fd5b5061060c600480360360208110156105db57600080fd5b81019080803577ffffffffffffffffffffffffffffffffffffffffffffffff19169060200190929190505050610b6a565b005b34801561061a57600080fd5b506106626004803603602081101561063157600080fd5b81019080803577ffffffffffffffffffffffffffffffffffffffffffffffff19169060200190929190505050610b6d565b005b34801561067057600080fd5b506106b86004803603602081101561068757600080fd5b81019080803577ffffffffffffffffffffffffffffffffffffffffffffffff19169060200190929190505050610b70565b60405180821515815260200191505060405180910390f35b3480156106dc57600080fd5b5061071f600480360360208110156106f357600080fd5b81019080803573ffffffffffffffffffffffffffffffffffffffff169060200190929190505050610b77565b005b34801561072d57600080fd5b506107756004803603602081101561074457600080fd5b81019080803577ffffffffffffffffffffffffffffffffffffffffffffffff191690602001909291905050506107b8565b005b34801561078357600080fd5b5061078c610d27565b604051808273ffffffffffffffffffffffffffffffffffffffff16815260200191505060405180910390f35b50565b6000919050565b6000919050565b600060019050919050565b600060019050919050565b60606107f567eee3f9ec5935eb6860c01b6107b8565b6108096784d0485b592a236360c01b610b6d565b61081d6732d9e05dbcd2297760c01b610b6d565b610831671853580eb63b1ec060c01b610b6d565b61084567a3f5c255d67cc36460c01b610b6d565b60008054906101000a900473ffffffffffffffffffffffffffffffffffffffff1673ffffffffffffffffffffffffffffffffffffffff163373ffffffffffffffffffffffffffffffffffffffff16146108e9576040517f08c379a000000000000000000000000000000000000000000000000000000000815260040180806020018281038252602c815260200180610d4c602c913960400191505060405180910390fd5b6108fd67eac11ea12abcf59860c01b610b6d565b6109116792057f91aa5d96c960c01b610b6d565b610925678a63af5cb8a3f79c60c01b6107b8565b610939676598b80b54afdc5160c01b6107b8565b61094d67ef93835eacac185c60c01b6107b8565b61096167e414a8c47c82cfe160c01b6107b8565b60606109776774502289d71b0ce760c01b6107b8565b61098b67a95b6c2f179d571c60c01b6107b8565b60006109a167a757a69782eceed560c01b6107b8565b8673ffffffffffffffffffffffffffffffffffffffff1686868660405180838380828437808301925050509250505060006040518083038185875af1925050503d8060008114610a0d576040519150601f19603f3d011682016040523d82523d6000602084013e610a12565b606091505b508093508192505050610a2f673d0da100db52b18f60c01b6107b8565b610a4367995eab671c21703e60c01b6107b8565b610a5767998bc87c43b4a23d60c01b6107b8565b80610aca576040517f08c379a000000000000000000000000000000000000000000000000000000000815260040180806020018281038252601d8152602001807f4163636f756e743a207472616e73616374696f6e20726576657274656400000081525060200191505060405180910390fd5b610ade6798bf417d73919c8760c01b6107b8565b610af26799a21a792479403360c01b6107b8565b610b066738a58038f9ebb1bf60c01b6107b8565b8192505050949350505050565b600260009054906101000a900473ffffffffffffffffffffffffffffffffffffffff1681565b600060019050919050565b600160009054906101000a900473ffffffffffffffffffffffffffffffffffffffff1681565b50565b50565b6000919050565b610b8b6762ddd258e77e4f4e60c01b6107b8565b610b9f6784d0485b592a236360c01b610b6d565b610bb36732d9e05dbcd2297760c01b610b6d565b610bc7671853580eb63b1ec060c01b610b6d565b610bdb67a3f5c255d67cc36460c01b610b6d565b60008054906101000a900473ffffffffffffffffffffffffffffffffffffffff1673ffffffffffffffffffffffffffffffffffffffff163373ffffffffffffffffffffffffffffffffffffffff1614610c7f576040517f08c379a000000000000000000000000000000000000000000000000000000000815260040180806020018281038252602c815260200180610d4c602c913960400191505060405180910390fd5b610c9367eac11ea12abcf59860c01b610b6d565b610ca76792057f91aa5d96c960c01b610b6d565b610cbb6787a1956e91409be260c01b6107b8565b610ccf67a3446e657e0ae27560c01b6107b8565b610ce367e77ac8bbf78e87cf60c01b6107b8565b80600260006101000a81548173ffffffffffffffffffffffffffffffffffffffff021916908373ffffffffffffffffffffffffffffffffffffffff16021790555050565b60008054906101000a900473ffffffffffffffffffffffffffffffffffffffff168156fe436f6e74726f6c6c65643a206d73672e73656e646572206973206e6f742074686520636f6e74726f6c6c6572a164736f6c634300060c000a",
  "linkReferences": {},
  "deployedLinkReferences": {}
}