{
  "_format": "hh-sol-artifact-1",
  "contractName": "AccountProofRegistry",
  "sourceName": "src/account/AccountProofRegistry.sol",
  "abi": [
    {
      "anonymous": false,
      "inputs": [
        {
          "indexed": false,
          "internalType": "address",
          "name": "account",
          "type": "address"
        },
        {
          "indexed": false,
          "internalType": "bytes32",
          "name": "hash",
          "type": "bytes32"
        }
      ],
      "name": "AccountProofAdded",
      "type": "event"
    },
    {
      "anonymous": false,
      "inputs": [
        {
          "indexed": false,
          "internalType": "address",
          "name": "account",
          "type": "address"
        },
        {
          "indexed": false,
          "internalType": "bytes32",
          "name": "hash",
          "type": "bytes32"
        }
      ],
      "name": "AccountProofRemoved",
      "type": "event"
    },
    {
      "inputs": [
        {
          "internalType": "bytes32",
          "name": "hash",
          "type": "bytes32"
        }
      ],
      "name": "addAccountProof",
      "outputs": [],
      "stateMutability": "nonpayable",
      "type": "function"
    },
    {
      "inputs": [
        {
          "internalType": "bytes32",
          "name": "hash",
          "type": "bytes32"
        }
      ],
      "name": "removeAccountProof",
      "outputs": [],
      "stateMutability": "nonpayable",
      "type": "function"
    },
    {
      "inputs": [
        {
          "internalType": "address",
          "name": "account",
          "type": "address"
        },
        {
          "internalType": "bytes32",
          "name": "hash",
          "type": "bytes32"
        }
      ],
      "name": "verifyAccountProof",
      "outputs": [
        {
          "internalType": "bool",
          "name": "",
          "type": "bool"
        }
      ],
      "stateMutability": "view",
      "type": "function"
    },
    {
      "inputs": [
        {
          "internalType": "address",
          "name": "account",
          "type": "address"
        },
        {
          "internalType": "bytes32",
          "name": "hash",
          "type": "bytes32"
        },
        {
          "internalType": "uint256",
          "name": "blockNumber",
          "type": "uint256"
        }
      ],
      "name": "verifyAccountProofAtBlock",
      "outputs": [
        {
          "internalType": "bool",
          "name": "",
          "type": "bool"
        }
      ],
      "stateMutability": "view",
      "type": "function"
    }
  ],
  "bytecode": "0x608060405234801561001057600080fd5b506103b0806100206000396000f3fe608060405234801561001057600080fd5b506004361061004c5760003560e01c806359b52ef8146100515780638a313378146100a457806394000b02146100dd578063d543c34a146100fc575b600080fd5b6100906004803603606081101561006757600080fd5b5073ffffffffffffffffffffffffffffffffffffffff8135169060208101359060400135610119565b604080519115158252519081900360200190f35b610090600480360360408110156100ba57600080fd5b5073ffffffffffffffffffffffffffffffffffffffff8135169060200135610175565b6100fa600480360360208110156100f357600080fd5b50356101cf565b005b6100fa6004803603602081101561011257600080fd5b503561026c565b73ffffffffffffffffffffffffffffffffffffffff831660009081526020818152604080832085845282528083208151808301909252805460ff1615158252600101549181019190915261016d9083610332565b949350505050565b73ffffffffffffffffffffffffffffffffffffffff821660009081526020818152604080832084845282528083208151808301909252805460ff161515825260010154918101919091526101c890610368565b9392505050565b336000908152602081815260408083208484528252918290208251808401909352805460ff1615158352600101549082015261020a90610368565b61021357600080fd5b33600081815260208181526040808320858452825291829020436001909101558151928352820183905280517f87dde712783ad4895642c7a875998317a71cf424a2444eb79545ce3795431ff99281900390910190a150565b336000908152602081815260408083208484528252918290208251808401909352805460ff161515835260010154908201526102a790610368565b156102b157600080fd5b33600081815260208181526040808320858452825280832080547fffffffffffffffffffffffffffffffffffffffffffffffffffffffffffffff00166001908117825501929092558151928352820183905280517f4075b367eed0513a54aa39c287c66d6ae98e5df6f73ac087b26b8f89d05d1aa89281900390910190a150565b81516000908190156101c857602084015161034f575060016101c8565b8261035c575060016101c8565b50506020909101511190565b60006103748243610332565b9291505056fea26469706673582212207fc770cc6e7a52e018a83a5302b1663a677442e9a3142f63413b876972ba17ce64736f6c634300060c0033",
  "linkReferences": {},
  "deployedLinkReferences": {}
}