{
  "_format": "hh-sol-artifact-1",
  "contractName": "AccountBase",
  "sourceName": "src/common/account/AccountBase.sol",
  "abi": [
    {
      "inputs": [],
      "name": "registry",
      "outputs": [
        {
          "internalType": "address",
          "name": "",
          "type": "address"
        }
      ],
      "stateMutability": "view",
      "type": "function"
    }
  ],
  "bytecode": "0x6080604052348015600f57600080fd5b5060908061001e6000396000f3fe6080604052348015600f57600080fd5b506004361060285760003560e01c80637b10399914602d575b600080fd5b6033605f565b604051808273ffffffffffffffffffffffffffffffffffffffff16815260200191505060405180910390f35b60008054906101000a900473ffffffffffffffffffffffffffffffffffffffff168156fea164736f6c634300060c000a",
  "linkReferences": {},
  "deployedLinkReferences": {}
}