{
  "_format": "hh-sol-artifact-1",
  "contractName": "Account",
  "sourceName": "src/common/account/Account.sol",
  "abi": [
    {
      "inputs": [],
      "stateMutability": "payable",
      "type": "constructor"
    },
    {
      "inputs": [],
      "name": "controller",
      "outputs": [
        {
          "internalType": "address",
          "name": "",
          "type": "address"
        }
      ],
      "stateMutability": "view",
      "type": "function"
    },
    {
      "inputs": [
        {
          "internalType": "address",
          "name": "to",
          "type": "address"
        },
        {
          "internalType": "uint256",
          "name": "value",
          "type": "uint256"
        },
        {
          "internalType": "bytes",
          "name": "data",
          "type": "bytes"
        }
      ],
      "name": "executeTransaction",
      "outputs": [
        {
          "internalType": "bytes",
          "name": "",
          "type": "bytes"
        }
      ],
      "stateMutability": "nonpayable",
      "type": "function"
    },
    {
      "stateMutability": "payable",
      "type": "receive"
    }
  ],
  "bytecode": "0x6080604052600080546001600160a01b03191633179055610227806100256000396000f3fe60806040526004361061002d5760003560e01c80633f579f4214610039578063f77c47911461014057610034565b3661003457005b600080fd5b34801561004557600080fd5b506100cb6004803603606081101561005c57600080fd5b6001600160a01b038235169160208101359181019060608101604082013564010000000081111561008c57600080fd5b82018360208201111561009e57600080fd5b803590602001918460018302840111640100000000831117156100c057600080fd5b509092509050610171565b6040805160208082528351818301528351919283929083019185019080838360005b838110156101055781810151838201526020016100ed565b50505050905090810190601f1680156101325780820380516001836020036101000a031916815260200191505b509250505060405180910390f35b34801561014c57600080fd5b5061015561020b565b604080516001600160a01b039092168252519081900360200190f35b6000546060906001600160a01b0316331461018b57600080fd5b60606000866001600160a01b0316868686604051808383808284376040519201945060009350909150508083038185875af1925050503d80600081146101ed576040519150601f19603f3d011682016040523d82523d6000602084013e6101f2565b606091505b50925090508061020157600080fd5b5095945050505050565b6000546001600160a01b03168156fea164736f6c634300060c000a",
  "linkReferences": {},
  "deployedLinkReferences": {}
}