{
  "_format": "hh-sol-artifact-1",
  "contractName": "BalancesHelperV2",
  "sourceName": "src/common/helpers/BalancesHelperV2.sol",
  "abi": [
    {
      "inputs": [],
      "stateMutability": "nonpayable",
      "type": "constructor"
    },
    {
      "inputs": [
        {
          "internalType": "address",
          "name": "account",
          "type": "address"
        },
        {
          "internalType": "address",
          "name": "token",
          "type": "address"
        }
      ],
      "name": "AccountZeroAddress",
      "type": "error"
    },
    {
      "inputs": [
        {
          "internalType": "address",
          "name": "account",
          "type": "address"
        },
        {
          "internalType": "address",
          "name": "token",
          "type": "address"
        }
      ],
      "name": "TokenZeroAddress",
      "type": "error"
    },
    {
      "inputs": [
        {
          "internalType": "bytes8",
          "name": "c__5ef3a5e5",
          "type": "bytes8"
        }
      ],
      "name": "c_5ef3a5e5",
      "outputs": [],
      "stateMutability": "pure",
      "type": "function"
    },
    {
      "inputs": [
        {
          "internalType": "bytes8",
          "name": "c__5ef3a5e5",
          "type": "bytes8"
        }
      ],
      "name": "c_false5ef3a5e5",
      "outputs": [
        {
          "internalType": "bool",
          "name": "",
          "type": "bool"
        }
      ],
      "stateMutability": "pure",
      "type": "function"
    },
    {
      "inputs": [
        {
          "internalType": "bytes8",
          "name": "c__5ef3a5e5",
          "type": "bytes8"
        }
      ],
      "name": "c_true5ef3a5e5",
      "outputs": [
        {
          "internalType": "bool",
          "name": "",
          "type": "bool"
        }
      ],
      "stateMutability": "pure",
      "type": "function"
    },
    {
      "inputs": [
        {
          "internalType": "address[]",
          "name": "accounts",
          "type": "address[]"
        },
        {
          "internalType": "address[]",
          "name": "tokens",
          "type": "address[]"
        }
      ],
      "name": "getBalances",
      "outputs": [
        {
          "internalType": "uint256[]",
          "name": "",
          "type": "uint256[]"
        }
      ],
      "stateMutability": "view",
      "type": "function"
    },
    {
      "inputs": [
        {
          "internalType": "address[]",
          "name": "accounts",
          "type": "address[]"
        },
        {
          "internalType": "address[]",
          "name": "tokens",
          "type": "address[]"
        }
      ],
      "name": "getSuperfluidWrappedTokenBalances",
      "outputs": [
        {
          "internalType": "int256[]",
          "name": "",
          "type": "int256[]"
        }
      ],
      "stateMutability": "view",
      "type": "function"
    }
  ],
  "bytecode": "0x608060405234801561001057600080fd5b5061002b676eb975d64fff898860c01b61003060201b60201c565b610033565b50565b611604806100426000396000f3fe608060405234801561001057600080fd5b50600436106100575760003560e01c80632d76fa671461005c57806350c5a7101461008c578063a192a8a6146100bc578063bfbe3209146100ec578063ef5bfc3714610108575b600080fd5b61007660048036038101906100719190610f33565b610138565b604051610083919061123c565b60405180910390f35b6100a660048036038101906100a19190610ebe565b61013f565b6040516100b391906111f8565b60405180910390f35b6100d660048036038101906100d19190610f33565b61040d565b6040516100e3919061123c565b60405180910390f35b61010660048036038101906101019190610f33565b610418565b005b610122600480360381019061011d9190610ebe565b61041b565b60405161012f919061121a565b60405180910390f35b6000919050565b60606101556741bd3f1b0f506b0260c01b610418565b6101696752ac4bc6a3b3eef960c01b610418565b61017d6749a44b70db69337a60c01b610418565b600083839050868690506101919190611393565b67ffffffffffffffff8111156101d0577f4e487b7100000000000000000000000000000000000000000000000000000000600052604160045260246000fd5b6040519080825280602002602001820160405280156101fe5781602001602082028036833780820191505090505b5090506102156771304824030276d860c01b610418565b610229675b775efbf638f9a560c01b610418565b60005b868690508110156103d85761024b6710ff8cd5c6b995b060c01b610418565b61025f67bcac5484e630c27660c01b610418565b60005b858590508110156103c45761028167b3a89bf04de8edb060c01b610418565b61029567806b6df7b02b7e8860c01b610418565b600082878790506102a69190611393565b826102b1919061133d565b90506102c767d559c30d8042d62460c01b610418565b61036b898985818110610303577f4e487b7100000000000000000000000000000000000000000000000000000000600052603260045260246000fd5b90506020020160208101906103189190610e95565b888885818110610351577f4e487b7100000000000000000000000000000000000000000000000000000000600052603260045260246000fd5b90506020020160208101906103669190610e95565b6106e9565b8482815181106103a4577f4e487b7100000000000000000000000000000000000000000000000000000000600052603260045260246000fd5b6020026020010181815250505080806103bc9061149e565b915050610262565b5080806103d09061149e565b91505061022c565b506103ed6771091c900a348ef460c01b610418565b610401673a3f51bb0888996960c01b610418565b80915050949350505050565b600060019050919050565b50565b606061043167269bc96ca16fdb4f60c01b610418565b61044567114be9f297b44eb360c01b610418565b61045967f03c4e12c3994b3660c01b610418565b6000838390508686905061046d9190611393565b67ffffffffffffffff8111156104ac577f4e487b7100000000000000000000000000000000000000000000000000000000600052604160045260246000fd5b6040519080825280602002602001820160405280156104da5781602001602082028036833780820191505090505b5090506104f1674c9fc1e7b38a1b2760c01b610418565b610505671befc02bffe4323b60c01b610418565b60005b868690508110156106b4576105276709fba2e7e9e8fd3260c01b610418565b61053b6783edb13d216041b760c01b610418565b60005b858590508110156106a05761055d676f02928f7faf5db160c01b610418565b610571671523a8ae3317853160c01b610418565b600082878790506105829190611393565b8261058d919061133d565b90506105a367ed4daa237a95148460c01b610418565b6106478989858181106105df577f4e487b7100000000000000000000000000000000000000000000000000000000600052603260045260246000fd5b90506020020160208101906105f49190610e95565b88888581811061062d577f4e487b7100000000000000000000000000000000000000000000000000000000600052603260045260246000fd5b90506020020160208101906106429190610e95565b6109c7565b848281518110610680577f4e487b7100000000000000000000000000000000000000000000000000000000600052603260045260246000fd5b6020026020010181815250505080806106989061149e565b91505061053e565b5080806106ac9061149e565b915050610508565b506106c96788fdffce139ffafa60c01b610418565b6106dd6708941469bcf2882a60c01b610418565b80915050949350505050565b60006106ff67bba5819e302f768060c01b610418565b610713675f05f7e3d7ac9f9460c01b610418565b610727672f6b09f68fc41cdf60c01b610418565b600073ffffffffffffffffffffffffffffffffffffffff168373ffffffffffffffffffffffffffffffffffffffff1614156107af5761077067837a8bcadc45b5f460c01b610418565b82826040517f484305ff0000000000000000000000000000000000000000000000000000000081526004016107a69291906111cf565b60405180910390fd5b6107c3672e7d7825d30feb1e60c01b610418565b6107d767e405d19a8c039ef460c01b610418565b6107eb67f403f4e28ab5025c60c01b610418565b600073ffffffffffffffffffffffffffffffffffffffff168273ffffffffffffffffffffffffffffffffffffffff161415610873576108346795f6067faf8e56ba60c01b610418565b82826040517f41f93bdf00000000000000000000000000000000000000000000000000000000815260040161086a9291906111cf565b60405180910390fd5b61088767ff4a32535cbb014460c01b610418565b61089b6781cd40140a9995d060c01b610418565b6108af67acefe75903364f3c60c01b610418565b600061094f632ec8eec760e01b856040516024016108cd91906111b4565b604051602081830303815290604052907bffffffffffffffffffffffffffffffffffffffffffffffffffffffff19166020820180517bffffffffffffffffffffffffffffffffffffffffffffffffffffffff83818316178352505050508473ffffffffffffffffffffffffffffffffffffffff16610c7390919063ffffffff16565b9050610965670afb055eadb26a7960c01b610418565b610979679e0937b0748fb2d660c01b610418565b60008180602001905181019061098f9190610f5c565b50505090506109a867e0b040ef1220185560c01b610418565b6109bc67e7d5360a519cee1b60c01b610418565b809250505092915050565b60006109dd677358ce155b42120d60c01b610418565b6109f167f1f9327fee8444e260c01b610418565b610a056739990ba57778c70860c01b610418565b600073ffffffffffffffffffffffffffffffffffffffff168373ffffffffffffffffffffffffffffffffffffffff161415610a8c57610a4d66e90b7394fa71a460c01b610418565b82826040517f484305ff000000000000000000000000000000000000000000000000000000008152600401610a839291906111cf565b60405180910390fd5b610aa067fd554046223fc45a60c01b610418565b610ab467eb1c9522c8f985b760c01b610418565b610ac8671b3e49410c7c3d0760c01b610418565b600073ffffffffffffffffffffffffffffffffffffffff168273ffffffffffffffffffffffffffffffffffffffff161415610b5057610b116743ebbd95e8d13eb260c01b610418565b82826040517f41f93bdf000000000000000000000000000000000000000000000000000000008152600401610b479291906111cf565b60405180910390fd5b610b64678cedefb581eb6d2960c01b610418565b610b7867f0d3edaf95c1f1f260c01b610418565b610b8c67cd1a9c31db39459460c01b610418565b6000610c2c6370a0823160e01b85604051602401610baa91906111b4565b604051602081830303815290604052907bffffffffffffffffffffffffffffffffffffffffffffffffffffffff19166020820180517bffffffffffffffffffffffffffffffffffffffffffffffffffffffff83818316178352505050508473ffffffffffffffffffffffffffffffffffffffff16610c7390919063ffffffff16565b9050610c4267f6276c6e9849fd1a60c01b610418565b610c5667c33ab8a0835109e860c01b610418565b80806020019051810190610c6a9190610fbf565b91505092915050565b6060610c9883836040518060600160405280602581526020016115d360259139610ca0565b905092915050565b6060610cab84610d6d565b610cea576040517f08c379a0000000000000000000000000000000000000000000000000000000008152600401610ce190611279565b60405180910390fd5b6000808573ffffffffffffffffffffffffffffffffffffffff1685604051610d12919061119d565b600060405180830381855afa9150503d8060008114610d4d576040519150601f19603f3d011682016040523d82523d6000602084013e610d52565b606091505b5091509150610d62828286610d90565b925050509392505050565b6000808273ffffffffffffffffffffffffffffffffffffffff163b119050919050565b60608315610da057829050610df0565b600083511115610db35782518084602001fd5b816040517f08c379a0000000000000000000000000000000000000000000000000000000008152600401610de79190611257565b60405180910390fd5b9392505050565b600081359050610e0681611576565b92915050565b60008083601f840112610e1e57600080fd5b8235905067ffffffffffffffff811115610e3757600080fd5b602083019150836020820283011115610e4f57600080fd5b9250929050565b600081359050610e658161158d565b92915050565b600081519050610e7a816115a4565b92915050565b600081519050610e8f816115bb565b92915050565b600060208284031215610ea757600080fd5b6000610eb584828501610df7565b91505092915050565b60008060008060408587031215610ed457600080fd5b600085013567ffffffffffffffff811115610eee57600080fd5b610efa87828801610e0c565b9450945050602085013567ffffffffffffffff811115610f1957600080fd5b610f2587828801610e0c565b925092505092959194509250565b600060208284031215610f4557600080fd5b6000610f5384828501610e56565b91505092915050565b60008060008060808587031215610f7257600080fd5b6000610f8087828801610e6b565b9450506020610f9187828801610e80565b9350506040610fa287828801610e80565b9250506060610fb387828801610e80565b91505092959194509250565b600060208284031215610fd157600080fd5b6000610fdf84828501610e80565b91505092915050565b6000610ff48383611123565b60208301905092915050565b600061100c838361118e565b60208301905092915050565b611021816113ed565b82525050565b6000611032826112b9565b61103c81856112ff565b935061104783611299565b8060005b8381101561107857815161105f8882610fe8565b975061106a836112e5565b92505060018101905061104b565b5085935050505092915050565b6000611090826112c4565b61109a8185611310565b93506110a5836112a9565b8060005b838110156110d65781516110bd8882611000565b97506110c8836112f2565b9250506001810190506110a9565b5085935050505092915050565b6110ec816113ff565b82525050565b60006110fd826112cf565b6111078185611321565b935061111781856020860161146b565b80840191505092915050565b61112c81611437565b82525050565b600061113d826112da565b611147818561132c565b935061115781856020860161146b565b61116081611516565b840191505092915050565b600061117860248361132c565b915061118382611527565b604082019050919050565b61119781611461565b82525050565b60006111a982846110f2565b915081905092915050565b60006020820190506111c96000830184611018565b92915050565b60006040820190506111e46000830185611018565b6111f16020830184611018565b9392505050565b600060208201905081810360008301526112128184611027565b905092915050565b600060208201905081810360008301526112348184611085565b905092915050565b600060208201905061125160008301846110e3565b92915050565b600060208201905081810360008301526112718184611132565b905092915050565b600060208201905081810360008301526112928161116b565b9050919050565b6000819050602082019050919050565b6000819050602082019050919050565b600081519050919050565b600081519050919050565b600081519050919050565b600081519050919050565b6000602082019050919050565b6000602082019050919050565b600082825260208201905092915050565b600082825260208201905092915050565b600081905092915050565b600082825260208201905092915050565b600061134882611461565b915061135383611461565b9250827fffffffffffffffffffffffffffffffffffffffffffffffffffffffffffffffff03821115611388576113876114e7565b5b828201905092915050565b600061139e82611461565b91506113a983611461565b9250817fffffffffffffffffffffffffffffffffffffffffffffffffffffffffffffffff04831182151516156113e2576113e16114e7565b5b828202905092915050565b60006113f882611441565b9050919050565b60008115159050919050565b60007fffffffffffffffff00000000000000000000000000000000000000000000000082169050919050565b6000819050919050565b600073ffffffffffffffffffffffffffffffffffffffff82169050919050565b6000819050919050565b60005b8381101561148957808201518184015260208101905061146e565b83811115611498576000848401525b50505050565b60006114a982611461565b91507fffffffffffffffffffffffffffffffffffffffffffffffffffffffffffffffff8214156114dc576114db6114e7565b5b600182019050919050565b7f4e487b7100000000000000000000000000000000000000000000000000000000600052601160045260246000fd5b6000601f19601f8301169050919050565b7f416464726573733a207374617469632063616c6c20746f206e6f6e2d636f6e7460008201527f7261637400000000000000000000000000000000000000000000000000000000602082015250565b61157f816113ed565b811461158a57600080fd5b50565b6115968161140b565b81146115a157600080fd5b50565b6115ad81611437565b81146115b857600080fd5b50565b6115c481611461565b81146115cf57600080fd5b5056fe416464726573733a206c6f772d6c6576656c207374617469632063616c6c206661696c6564a164736f6c6343000804000a",
  "linkReferences": {},
  "deployedLinkReferences": {}
}