{
  "_format": "hh-sol-artifact-1",
  "contractName": "BLSAccountFactory",
  "sourceName": "src/4337_wallet/bls/BLSAccountFactory.sol",
  "abi": [
    {
      "inputs": [
        {
          "internalType": "address",
          "name": "_accountImplementation",
          "type": "address"
        }
      ],
      "stateMutability": "nonpayable",
      "type": "constructor"
    },
    {
      "inputs": [
        {
          "internalType": "contract IEntryPoint",
          "name": "anEntryPoint",
          "type": "address"
        },
        {
          "internalType": "uint256",
          "name": "salt",
          "type": "uint256"
        },
        {
          "internalType": "uint256[4]",
          "name": "aPublicKey",
          "type": "uint256[4]"
        }
      ],
      "name": "createAccount",
      "outputs": [
        {
          "internalType": "contract BLSAccount",
          "name": "",
          "type": "address"
        }
      ],
      "stateMutability": "nonpayable",
      "type": "function"
    }
  ],
  "bytecode": "0x60a060405234801561001057600080fd5b506040516114e13803806114e1833981810160405281019061003291906100cf565b8073ffffffffffffffffffffffffffffffffffffffff1660808173ffffffffffffffffffffffffffffffffffffffff1681525050506100fc565b600080fd5b600073ffffffffffffffffffffffffffffffffffffffff82169050919050565b600061009c82610071565b9050919050565b6100ac81610091565b81146100b757600080fd5b50565b6000815190506100c9816100a3565b92915050565b6000602082840312156100e5576100e461006c565b5b60006100f3848285016100ba565b91505092915050565b6080516113cb6101166000396000607101526113cb6000f3fe60806040523480156200001157600080fd5b50600436106200002e5760003560e01c8063d6752d2f1462000033575b600080fd5b6200005160048036038101906200004b919062000384565b62000069565b6040516200006091906200044b565b60405180910390f35b60008260001b7f000000000000000000000000000000000000000000000000000000000000000063ee472f3660e01b8685604051602401620000ad9291906200055c565b604051602081830303815290604052907bffffffffffffffffffffffffffffffffffffffffffffffffffffffff19166020820180517bffffffffffffffffffffffffffffffffffffffffffffffffffffffff8381831617835250505050604051620001189062000150565b620001259291906200062d565b8190604051809103906000f590508015801562000146573d6000803e3d6000fd5b5090509392505050565b610d5d806200066283390190565b6000604051905090565b600080fd5b600073ffffffffffffffffffffffffffffffffffffffff82169050919050565b60006200019a826200016d565b9050919050565b6000620001ae826200018d565b9050919050565b620001c081620001a1565b8114620001cc57600080fd5b50565b600081359050620001e081620001b5565b92915050565b6000819050919050565b620001fb81620001e6565b81146200020757600080fd5b50565b6000813590506200021b81620001f0565b92915050565b600080fd5b6000601f19601f8301169050919050565b7f4e487b7100000000000000000000000000000000000000000000000000000000600052604160045260246000fd5b620002718262000226565b810181811067ffffffffffffffff8211171562000293576200029262000237565b5b80604052505050565b6000620002a86200015e565b9050620002b6828262000266565b919050565b600067ffffffffffffffff821115620002d957620002d862000237565b5b602082029050919050565b600080fd5b600062000300620002fa84620002bb565b6200029c565b905080602084028301858111156200031d576200031c620002e4565b5b835b818110156200034a57806200033588826200020a565b8452602084019350506020810190506200031f565b5050509392505050565b600082601f8301126200036c576200036b62000221565b5b60046200037b848285620002e9565b91505092915050565b600080600060c08486031215620003a0576200039f62000168565b5b6000620003b086828701620001cf565b9350506020620003c3868287016200020a565b9250506040620003d68682870162000354565b9150509250925092565b6000819050919050565b60006200040b62000405620003ff846200016d565b620003e0565b6200016d565b9050919050565b60006200041f82620003ea565b9050919050565b6000620004338262000412565b9050919050565b620004458162000426565b82525050565b60006020820190506200046260008301846200043a565b92915050565b60006200047582620003ea565b9050919050565b6000620004898262000468565b9050919050565b6200049b816200047c565b82525050565b600060049050919050565b600081905092915050565b6000819050919050565b620004cc81620001e6565b82525050565b6000620004e08383620004c1565b60208301905092915050565b6000602082019050919050565b6200050481620004a1565b620005108184620004ac565b92506200051d82620004b7565b8060005b8381101562000554578151620005388782620004d2565b96506200054583620004ec565b92505060018101905062000521565b505050505050565b600060a08201905062000573600083018562000490565b620005826020830184620004f9565b9392505050565b62000594816200018d565b82525050565b600081519050919050565b600082825260208201905092915050565b60005b83811015620005d6578082015181840152602081019050620005b9565b83811115620005e6576000848401525b50505050565b6000620005f9826200059a565b620006058185620005a5565b935062000617818560208601620005b6565b620006228162000226565b840191505092915050565b600060408201905062000644600083018562000589565b8181036020830152620006588184620005ec565b9050939250505056fe608060405260405162000d5d38038062000d5d8339818101604052810190620000299190620005d4565b60017f360894a13ba1a3210667c828492db98dca3e2076cc3735a920a3ca505d382bbd60001c6200005b919062000673565b60001b7f360894a13ba1a3210667c828492db98dca3e2076cc3735a920a3ca505d382bbc60001b14620000935762000092620006ae565b5b620000a782826000620000af60201b60201c565b5050620008f4565b620000c083620000f260201b60201c565b600082511180620000ce5750805b15620000ed57620000eb83836200014960201b620000371760201c565b505b505050565b62000103816200017f60201b60201c565b8073ffffffffffffffffffffffffffffffffffffffff167fbc7cd75a20ee27fd9adebab32041f755214dbc6bffa90cc0225b39da2e5c2d3b60405160405180910390a250565b606062000177838360405180606001604052806027815260200162000d36602791396200025560201b60201c565b905092915050565b62000195816200033960201b620000641760201c565b620001d7576040517f08c379a0000000000000000000000000000000000000000000000000000000008152600401620001ce9062000764565b60405180910390fd5b80620002117f360894a13ba1a3210667c828492db98dca3e2076cc3735a920a3ca505d382bbc60001b6200035c60201b620000871760201c565b60000160006101000a81548173ffffffffffffffffffffffffffffffffffffffff021916908373ffffffffffffffffffffffffffffffffffffffff16021790555050565b606062000268846200033960201b60201c565b620002aa576040517f08c379a0000000000000000000000000000000000000000000000000000000008152600401620002a190620007fc565b60405180910390fd5b6000808573ffffffffffffffffffffffffffffffffffffffff1685604051620002d491906200086b565b600060405180830381855af49150503d806000811462000311576040519150601f19603f3d011682016040523d82523d6000602084013e62000316565b606091505b50915091506200032e8282866200036660201b60201c565b925050509392505050565b6000808273ffffffffffffffffffffffffffffffffffffffff163b119050919050565b6000819050919050565b606083156200037857829050620003cb565b6000835111156200038c5782518084602001fd5b816040517f08c379a0000000000000000000000000000000000000000000000000000000008152600401620003c29190620008d0565b60405180910390fd5b9392505050565b6000604051905090565b600080fd5b600080fd5b600073ffffffffffffffffffffffffffffffffffffffff82169050919050565b60006200041382620003e6565b9050919050565b620004258162000406565b81146200043157600080fd5b50565b60008151905062000445816200041a565b92915050565b600080fd5b600080fd5b6000601f19601f8301169050919050565b7f4e487b7100000000000000000000000000000000000000000000000000000000600052604160045260246000fd5b620004a08262000455565b810181811067ffffffffffffffff82111715620004c257620004c162000466565b5b80604052505050565b6000620004d7620003d2565b9050620004e5828262000495565b919050565b600067ffffffffffffffff82111562000508576200050762000466565b5b620005138262000455565b9050602081019050919050565b60005b838110156200054057808201518184015260208101905062000523565b8381111562000550576000848401525b50505050565b60006200056d6200056784620004ea565b620004cb565b9050828152602081018484840111156200058c576200058b62000450565b5b6200059984828562000520565b509392505050565b600082601f830112620005b957620005b86200044b565b5b8151620005cb84826020860162000556565b91505092915050565b60008060408385031215620005ee57620005ed620003dc565b5b6000620005fe8582860162000434565b925050602083015167ffffffffffffffff811115620006225762000621620003e1565b5b6200063085828601620005a1565b9150509250929050565b6000819050919050565b7f4e487b7100000000000000000000000000000000000000000000000000000000600052601160045260246000fd5b600062000680826200063a565b91506200068d836200063a565b925082821015620006a357620006a262000644565b5b828203905092915050565b7f4e487b7100000000000000000000000000000000000000000000000000000000600052600160045260246000fd5b600082825260208201905092915050565b7f455243313936373a206e657720696d706c656d656e746174696f6e206973206e60008201527f6f74206120636f6e747261637400000000000000000000000000000000000000602082015250565b60006200074c602d83620006dd565b91506200075982620006ee565b604082019050919050565b600060208201905081810360008301526200077f816200073d565b9050919050565b7f416464726573733a2064656c65676174652063616c6c20746f206e6f6e2d636f60008201527f6e74726163740000000000000000000000000000000000000000000000000000602082015250565b6000620007e4602683620006dd565b9150620007f18262000786565b604082019050919050565b600060208201905081810360008301526200081781620007d5565b9050919050565b600081519050919050565b600081905092915050565b600062000841826200081e565b6200084d818562000829565b93506200085f81856020860162000520565b80840191505092915050565b600062000879828462000834565b915081905092915050565b600081519050919050565b60006200089c8262000884565b620008a88185620006dd565b9350620008ba81856020860162000520565b620008c58162000455565b840191505092915050565b60006020820190508181036000830152620008ec81846200088f565b905092915050565b61043280620009046000396000f3fe6080604052366100135761001161001d565b005b61001b61001d565b005b610025610091565b610035610030610093565b6100a2565b565b606061005c83836040518060600160405280602781526020016103ff602791396100c8565b905092915050565b6000808273ffffffffffffffffffffffffffffffffffffffff163b119050919050565b6000819050919050565b565b600061009d610195565b905090565b3660008037600080366000845af43d6000803e80600081146100c3573d6000f35b3d6000fd5b60606100d384610064565b610112576040517f08c379a0000000000000000000000000000000000000000000000000000000008152600401610109906102d6565b60405180910390fd5b6000808573ffffffffffffffffffffffffffffffffffffffff168560405161013a9190610370565b600060405180830381855af49150503d8060008114610175576040519150601f19603f3d011682016040523d82523d6000602084013e61017a565b606091505b509150915061018a8282866101ec565b925050509392505050565b60006101c37f360894a13ba1a3210667c828492db98dca3e2076cc3735a920a3ca505d382bbc60001b610087565b60000160009054906101000a900473ffffffffffffffffffffffffffffffffffffffff16905090565b606083156101fc5782905061024c565b60008351111561020f5782518084602001fd5b816040517f08c379a000000000000000000000000000000000000000000000000000000000815260040161024391906103dc565b60405180910390fd5b9392505050565b600082825260208201905092915050565b7f416464726573733a2064656c65676174652063616c6c20746f206e6f6e2d636f60008201527f6e74726163740000000000000000000000000000000000000000000000000000602082015250565b60006102c0602683610253565b91506102cb82610264565b604082019050919050565b600060208201905081810360008301526102ef816102b3565b9050919050565b600081519050919050565b600081905092915050565b60005b8381101561032a57808201518184015260208101905061030f565b83811115610339576000848401525b50505050565b600061034a826102f6565b6103548185610301565b935061036481856020860161030c565b80840191505092915050565b600061037c828461033f565b915081905092915050565b600081519050919050565b6000601f19601f8301169050919050565b60006103ae82610387565b6103b88185610253565b93506103c881856020860161030c565b6103d181610392565b840191505092915050565b600060208201905081810360008301526103f681846103a3565b90509291505056fe416464726573733a206c6f772d6c6576656c2064656c65676174652063616c6c206661696c6564a164736f6c634300080c000a416464726573733a206c6f772d6c6576656c2064656c65676174652063616c6c206661696c6564a164736f6c634300080c000a",
  "linkReferences": {},
  "deployedLinkReferences": {}
}