{
  "_format": "hh-sol-artifact-1",
  "contractName": "CallProxy",
  "sourceName": "src/diamond/periphery/CallProxy.sol",
  "abi": [
    {
      "inputs": [],
      "name": "CallFailed",
      "type": "error"
    },
    {
      "inputs": [],
      "name": "CallProxyBadRole",
      "type": "error"
    },
    {
      "inputs": [],
      "name": "DeBridgeGateBadRole",
      "type": "error"
    },
    {
      "inputs": [],
      "name": "ExternalCallFailed",
      "type": "error"
    },
    {
      "inputs": [],
      "name": "Locked",
      "type": "error"
    },
    {
      "inputs": [],
      "name": "NotEnoughSafeTxGas",
      "type": "error"
    },
    {
      "anonymous": false,
      "inputs": [
        {
          "indexed": false,
          "internalType": "uint8",
          "name": "version",
          "type": "uint8"
        }
      ],
      "name": "Initialized",
      "type": "event"
    },
    {
      "anonymous": false,
      "inputs": [
        {
          "indexed": true,
          "internalType": "bytes32",
          "name": "role",
          "type": "bytes32"
        },
        {
          "indexed": true,
          "internalType": "bytes32",
          "name": "previousAdminRole",
          "type": "bytes32"
        },
        {
          "indexed": true,
          "internalType": "bytes32",
          "name": "newAdminRole",
          "type": "bytes32"
        }
      ],
      "name": "RoleAdminChanged",
      "type": "event"
    },
    {
      "anonymous": false,
      "inputs": [
        {
          "indexed": true,
          "internalType": "bytes32",
          "name": "role",
          "type": "bytes32"
        },
        {
          "indexed": true,
          "internalType": "address",
          "name": "account",
          "type": "address"
        },
        {
          "indexed": true,
          "internalType": "address",
          "name": "sender",
          "type": "address"
        }
      ],
      "name": "RoleGranted",
      "type": "event"
    },
    {
      "anonymous": false,
      "inputs": [
        {
          "indexed": true,
          "internalType": "bytes32",
          "name": "role",
          "type": "bytes32"
        },
        {
          "indexed": true,
          "internalType": "address",
          "name": "account",
          "type": "address"
        },
        {
          "indexed": true,
          "internalType": "address",
          "name": "sender",
          "type": "address"
        }
      ],
      "name": "RoleRevoked",
      "type": "event"
    },
    {
      "inputs": [],
      "name": "DEBRIDGE_GATE_ROLE",
      "outputs": [
        {
          "internalType": "bytes32",
          "name": "",
          "type": "bytes32"
        }
      ],
      "stateMutability": "view",
      "type": "function"
    },
    {
      "inputs": [],
      "name": "DEFAULT_ADMIN_ROLE",
      "outputs": [
        {
          "internalType": "bytes32",
          "name": "",
          "type": "bytes32"
        }
      ],
      "stateMutability": "view",
      "type": "function"
    },
    {
      "inputs": [
        {
          "internalType": "address",
          "name": "_reserveAddress",
          "type": "address"
        },
        {
          "internalType": "address",
          "name": "_receiver",
          "type": "address"
        },
        {
          "internalType": "bytes",
          "name": "_data",
          "type": "bytes"
        },
        {
          "internalType": "uint256",
          "name": "_flags",
          "type": "uint256"
        },
        {
          "internalType": "bytes",
          "name": "_nativeSender",
          "type": "bytes"
        },
        {
          "internalType": "uint256",
          "name": "_chainIdFrom",
          "type": "uint256"
        }
      ],
      "name": "call",
      "outputs": [
        {
          "internalType": "bool",
          "name": "_result",
          "type": "bool"
        }
      ],
      "stateMutability": "payable",
      "type": "function"
    },
    {
      "inputs": [
        {
          "internalType": "address",
          "name": "_token",
          "type": "address"
        },
        {
          "internalType": "address",
          "name": "_reserveAddress",
          "type": "address"
        },
        {
          "internalType": "address",
          "name": "_receiver",
          "type": "address"
        },
        {
          "internalType": "bytes",
          "name": "_data",
          "type": "bytes"
        },
        {
          "internalType": "uint256",
          "name": "_flags",
          "type": "uint256"
        },
        {
          "internalType": "bytes",
          "name": "_nativeSender",
          "type": "bytes"
        },
        {
          "internalType": "uint256",
          "name": "_chainIdFrom",
          "type": "uint256"
        }
      ],
      "name": "callERC20",
      "outputs": [
        {
          "internalType": "bool",
          "name": "_result",
          "type": "bool"
        }
      ],
      "stateMutability": "nonpayable",
      "type": "function"
    },
    {
      "inputs": [
        {
          "internalType": "bytes32",
          "name": "role",
          "type": "bytes32"
        }
      ],
      "name": "getRoleAdmin",
      "outputs": [
        {
          "internalType": "bytes32",
          "name": "",
          "type": "bytes32"
        }
      ],
      "stateMutability": "view",
      "type": "function"
    },
    {
      "inputs": [
        {
          "internalType": "bytes32",
          "name": "role",
          "type": "bytes32"
        },
        {
          "internalType": "address",
          "name": "account",
          "type": "address"
        }
      ],
      "name": "grantRole",
      "outputs": [],
      "stateMutability": "nonpayable",
      "type": "function"
    },
    {
      "inputs": [
        {
          "internalType": "bytes32",
          "name": "role",
          "type": "bytes32"
        },
        {
          "internalType": "address",
          "name": "account",
          "type": "address"
        }
      ],
      "name": "hasRole",
      "outputs": [
        {
          "internalType": "bool",
          "name": "",
          "type": "bool"
        }
      ],
      "stateMutability": "view",
      "type": "function"
    },
    {
      "inputs": [],
      "name": "initialize",
      "outputs": [],
      "stateMutability": "nonpayable",
      "type": "function"
    },
    {
      "inputs": [
        {
          "internalType": "bytes",
          "name": "transactions",
          "type": "bytes"
        }
      ],
      "name": "multiSend",
      "outputs": [],
      "stateMutability": "payable",
      "type": "function"
    },
    {
      "inputs": [
        {
          "internalType": "bytes32",
          "name": "role",
          "type": "bytes32"
        },
        {
          "internalType": "address",
          "name": "account",
          "type": "address"
        }
      ],
      "name": "renounceRole",
      "outputs": [],
      "stateMutability": "nonpayable",
      "type": "function"
    },
    {
      "inputs": [
        {
          "internalType": "bytes32",
          "name": "role",
          "type": "bytes32"
        },
        {
          "internalType": "address",
          "name": "account",
          "type": "address"
        }
      ],
      "name": "revokeRole",
      "outputs": [],
      "stateMutability": "nonpayable",
      "type": "function"
    },
    {
      "inputs": [],
      "name": "submissionChainIdFrom",
      "outputs": [
        {
          "internalType": "uint256",
          "name": "",
          "type": "uint256"
        }
      ],
      "stateMutability": "view",
      "type": "function"
    },
    {
      "inputs": [],
      "name": "submissionNativeSender",
      "outputs": [
        {
          "internalType": "bytes",
          "name": "",
          "type": "bytes"
        }
      ],
      "stateMutability": "view",
      "type": "function"
    },
    {
      "inputs": [
        {
          "internalType": "bytes4",
          "name": "interfaceId",
          "type": "bytes4"
        }
      ],
      "name": "supportsInterface",
      "outputs": [
        {
          "internalType": "bool",
          "name": "",
          "type": "bool"
        }
      ],
      "stateMutability": "view",
      "type": "function"
    },
    {
      "inputs": [],
      "name": "version",
      "outputs": [
        {
          "internalType": "uint256",
          "name": "",
          "type": "uint256"
        }
      ],
      "stateMutability": "pure",
      "type": "function"
    },
    {
      "stateMutability": "payable",
      "type": "receive"
    }
  ],
  "bytecode": "0x608060405234801561001057600080fd5b50612bdd806100206000396000f3fe6080604052600436106100ec5760003560e01c806354fd4d501161008a57806391d148541161005957806391d14854146102d3578063a217fddf14610310578063b88c998b1461033b578063d547741f14610378576100f3565b806354fd4d501461024a5780636515e257146102755780638129fc1c146102a05780638d80ff0a146102b7576100f3565b80632eb48491116100c65780632eb48491146101a25780632f2ff15d146101cd57806336568abe146101f6578063508ab0a01461021f576100f3565b806301ffc9a7146100f8578063248a9ca31461013557806329e164db14610172576100f3565b366100f357005b600080fd5b34801561010457600080fd5b5061011f600480360381019061011a9190611eb9565b6103a1565b60405161012c91906122b4565b60405180910390f35b34801561014157600080fd5b5061015c60048036038101906101579190611e4c565b61041b565b60405161016991906122cf565b60405180910390f35b61018c60048036038101906101879190611d5a565b61043b565b60405161019991906122b4565b60405180910390f35b3480156101ae57600080fd5b506101b761065f565b6040516101c491906122ea565b60405180910390f35b3480156101d957600080fd5b506101f460048036038101906101ef9190611e79565b6106ed565b005b34801561020257600080fd5b5061021d60048036038101906102189190611e79565b61070e565b005b34801561022b57600080fd5b50610234610791565b6040516102419190612489565b60405180910390f35b34801561025657600080fd5b5061025f610797565b60405161026c9190612489565b60405180910390f35b34801561028157600080fd5b5061028a6107a1565b60405161029791906122cf565b60405180910390f35b3480156102ac57600080fd5b506102b56107c5565b005b6102d160048036038101906102cc9190611ee6565b61085e565b005b3480156102df57600080fd5b506102fa60048036038101906102f59190611e79565b6108cf565b60405161030791906122b4565b60405180910390f35b34801561031c57600080fd5b5061032561093a565b60405161033291906122cf565b60405180910390f35b34801561034757600080fd5b50610362600480360381019061035d9190611c80565b610941565b60405161036f91906122b4565b60405180910390f35b34801561038457600080fd5b5061039f600480360381019061039a9190611e79565b610c30565b005b60007f7965db0b000000000000000000000000000000000000000000000000000000007bffffffffffffffffffffffffffffffffffffffffffffffffffffffff1916827bffffffffffffffffffffffffffffffffffffffffffffffffffffffff19161480610414575061041382610c51565b5b9050919050565b600060656000838152602001908152602001600020600101549050919050565b60006104677fd5a6101e940ba33e226d2395b16238ab3063d7ee83d7b3ff59cb92988b395437336108cf565b61049d576040517f88a38fa100000000000000000000000000000000000000000000000000000000815260040160405180910390fd5b600260995414156104da576040517f0f2e5b6c00000000000000000000000000000000000000000000000000000000815260040160405180910390fd5b600260998190555060004790506104f587828887878a610cbb565b9150811580156105155750610514600186610e4d90919063ffffffff16565b5b1561054c576040517f350c20f100000000000000000000000000000000000000000000000000000000815260040160405180910390fd5b479050600081111561064c5760008873ffffffffffffffffffffffffffffffffffffffff1682600067ffffffffffffffff81111561058d5761058c612885565b5b6040519080825280601f01601f1916602001820160405280156105bf5781602001600182028036833780820191505090505b506040516105cd919061221f565b60006040518083038185875af1925050503d806000811461060a576040519150601f19603f3d011682016040523d82523d6000602084013e61060f565b606091505b505090508061064a576040517f3204506f00000000000000000000000000000000000000000000000000000000815260040160405180910390fd5b505b5060016099819055509695505050505050565b6098805461066c90612766565b80601f016020809104026020016040519081016040528092919081815260200182805461069890612766565b80156106e55780601f106106ba576101008083540402835291602001916106e5565b820191906000526020600020905b8154815290600101906020018083116106c857829003601f168201915b505050505081565b6106f68261041b565b6106ff81610e66565b6107098383610e7a565b505050565b610716610f5b565b73ffffffffffffffffffffffffffffffffffffffff168173ffffffffffffffffffffffffffffffffffffffff1614610783576040517f08c379a000000000000000000000000000000000000000000000000000000000815260040161077a90612469565b60405180910390fd5b61078d8282610f63565b5050565b60975481565b60006101a7905090565b7fd5a6101e940ba33e226d2395b16238ab3063d7ee83d7b3ff59cb92988b39543781565b60006107d16001611045565b905080156107f5576001600060016101000a81548160ff0219169083151502179055505b6108026000801b33611135565b801561085b5760008060016101000a81548160ff0219169083151502179055507f7f26b83ff96e1f2b6a682f133852f6798a09c465da95921460cefb38474024986001604051610852919061230c565b60405180910390a15b50565b3373ffffffffffffffffffffffffffffffffffffffff163073ffffffffffffffffffffffffffffffffffffffff16146108c3576040517f910e7d9c00000000000000000000000000000000000000000000000000000000815260040160405180910390fd5b6108cc81611143565b50565b60006065600084815260200190815260200160002060000160008373ffffffffffffffffffffffffffffffffffffffff1673ffffffffffffffffffffffffffffffffffffffff16815260200190815260200160002060009054906101000a900460ff16905092915050565b6000801b81565b600061096d7fd5a6101e940ba33e226d2395b16238ab3063d7ee83d7b3ff59cb92988b395437336108cf565b6109a3576040517f88a38fa100000000000000000000000000000000000000000000000000000000815260040160405180910390fd5b600260995414156109e0576040517f0f2e5b6c00000000000000000000000000000000000000000000000000000000815260040160405180910390fd5b600260998190555060008873ffffffffffffffffffffffffffffffffffffffff166370a08231306040518263ffffffff1660e01b8152600401610a239190612270565b60206040518083038186803b158015610a3b57600080fd5b505afa158015610a4f573d6000803e3d6000fd5b505050506040513d601f19601f82011682018060405250810190610a739190611f2f565b9050600073ffffffffffffffffffffffffffffffffffffffff168773ffffffffffffffffffffffffffffffffffffffff1614610ab557610ab48988836111c9565b5b610ac48760008887878a610cbb565b91508873ffffffffffffffffffffffffffffffffffffffff166370a08231306040518263ffffffff1660e01b8152600401610aff9190612270565b60206040518083038186803b158015610b1757600080fd5b505afa158015610b2b573d6000803e3d6000fd5b505050506040513d601f19601f82011682018060405250810190610b4f9190611f2f565b905081158015610b6f5750610b6e600186610e4d90919063ffffffff16565b5b15610ba6576040517f350c20f100000000000000000000000000000000000000000000000000000000815260040160405180910390fd5b6000811115610bdb57610bda88828b73ffffffffffffffffffffffffffffffffffffffff166113089092919063ffffffff16565b5b600073ffffffffffffffffffffffffffffffffffffffff168773ffffffffffffffffffffffffffffffffffffffff1614610c1c57610c1b898860006111c9565b5b506001609981905550979650505050505050565b610c398261041b565b610c4281610e66565b610c4c8383610f63565b505050565b60007f01ffc9a7000000000000000000000000000000000000000000000000000000007bffffffffffffffffffffffffffffffffffffffffffffffffffffffff1916827bffffffffffffffffffffffffffffffffffffffffffffffffffffffff1916149050919050565b600080610cd2600284610e4d90919063ffffffff16565b90506000610cea600485610e4d90919063ffffffff16565b90506000610d02600586610e4d90919063ffffffff16565b90508215610d2957856097819055508660989080519060200190610d27929190611a69565b505b6000828015610d39575060048951115b15610d6c57610d4989600061138e565b63ffffffff169050610d69896004808c51610d649190612629565b6113f5565b98505b613c8c603f604083610d7e91906125cf565b610d88919061259e565b610d929190612548565b5a1015610dcb576040517f2508799b00000000000000000000000000000000000000000000000000000000815260040160405180910390fd5b60008114610dd95780610ddb565b5a5b90508115610dfa57309a506000808a5160208c018d8f86f19450610e0a565b6000808a5160208c018d8f86f194505b8315610e3f5760006097819055506040518060200160405280600081525060989080519060200190610e3d929190611aef565b505b505050509695505050505050565b60008060018385901c1690506001811491505092915050565b610e7781610e72610f5b565b611513565b50565b610e8482826108cf565b610f575760016065600084815260200190815260200160002060000160008373ffffffffffffffffffffffffffffffffffffffff1673ffffffffffffffffffffffffffffffffffffffff16815260200190815260200160002060006101000a81548160ff021916908315150217905550610efc610f5b565b73ffffffffffffffffffffffffffffffffffffffff168173ffffffffffffffffffffffffffffffffffffffff16837f2f8788117e7eff1d82e926ec794901d17c78024a50270940304540a733656f0d60405160405180910390a45b5050565b600033905090565b610f6d82826108cf565b156110415760006065600084815260200190815260200160002060000160008373ffffffffffffffffffffffffffffffffffffffff1673ffffffffffffffffffffffffffffffffffffffff16815260200190815260200160002060006101000a81548160ff021916908315150217905550610fe6610f5b565b73ffffffffffffffffffffffffffffffffffffffff168173ffffffffffffffffffffffffffffffffffffffff16837ff6391f5c32d9c69d2a47ea670b442974b53935d1edc7fd64eb21e047a839171b60405160405180910390a45b5050565b60008060019054906101000a900460ff16156110bc5760018260ff161480156110745750611072306115b0565b155b6110b3576040517f08c379a00000000000000000000000000000000000000000000000000000000081526004016110aa906123a9565b60405180910390fd5b60009050611130565b8160ff1660008054906101000a900460ff1660ff1610611111576040517f08c379a0000000000000000000000000000000000000000000000000000000008152600401611108906123a9565b60405180910390fd5b816000806101000a81548160ff021916908360ff160217905550600190505b919050565b61113f8282610e7a565b5050565b805160205b818110156111c4578083015160f81c6001820184015160601c60158301850151603584018601516055850187016000856000811461118d576001811461119d576111a2565b6000808585888a5af191506111a2565b600080fd5b5060008114156111b157600080fd5b8260550187019650505050505050611148565b505050565b60006112a263095ea7b360e01b84846040516024016111e992919061228b565b604051602081830303815290604052907bffffffffffffffffffffffffffffffffffffffffffffffffffffffff19166020820180517bffffffffffffffffffffffffffffffffffffffffffffffffffffffff83818316178352505050506040518060400160405280601481526020017f455243323020617070726f7665206661696c65640000000000000000000000008152508673ffffffffffffffffffffffffffffffffffffffff166115d39092919063ffffffff16565b905060008151111561130257808060200190518101906112c29190611e1f565b611301576040517f08c379a00000000000000000000000000000000000000000000000000000000081526004016112f8906123c9565b60405180910390fd5b5b50505050565b6113898363a9059cbb60e01b848460405160240161132792919061228b565b604051602081830303815290604052907bffffffffffffffffffffffffffffffffffffffffffffffffffffffff19166020820180517bffffffffffffffffffffffffffffffffffffffffffffffffffffffff83818316178352505050506115eb565b505050565b600060048261139d9190612548565b835110156113e0576040517f08c379a00000000000000000000000000000000000000000000000000000000081526004016113d790612429565b60405180910390fd5b60008260048501015190508091505092915050565b606081601f836114059190612548565b1015611446576040517f08c379a000000000000000000000000000000000000000000000000000000000815260040161143d90612389565b60405180910390fd5b81836114529190612548565b84511015611495576040517f08c379a000000000000000000000000000000000000000000000000000000000815260040161148c90612409565b60405180910390fd5b60608215600081146114b65760405191506000825260208201604052611507565b6040519150601f8416801560200281840101858101878315602002848b0101015b818310156114f457805183526020830192506020810190506114d7565b50868552601f19601f8301166040525050505b50809150509392505050565b61151d82826108cf565b6115ac576115428173ffffffffffffffffffffffffffffffffffffffff1660146116b2565b6115508360001c60206116b2565b604051602001611561929190612236565b6040516020818303038152906040526040517f08c379a00000000000000000000000000000000000000000000000000000000081526004016115a39190612327565b60405180910390fd5b5050565b6000808273ffffffffffffffffffffffffffffffffffffffff163b119050919050565b60606115e284846000856118ee565b90509392505050565b600061164d826040518060400160405280602081526020017f5361666545524332303a206c6f772d6c6576656c2063616c6c206661696c65648152508573ffffffffffffffffffffffffffffffffffffffff166115d39092919063ffffffff16565b90506000815111156116ad578080602001905181019061166d9190611e1f565b6116ac576040517f08c379a00000000000000000000000000000000000000000000000000000000081526004016116a390612449565b60405180910390fd5b5b505050565b6060600060028360026116c591906125cf565b6116cf9190612548565b67ffffffffffffffff8111156116e8576116e7612885565b5b6040519080825280601f01601f19166020018201604052801561171a5781602001600182028036833780820191505090505b5090507f30000000000000000000000000000000000000000000000000000000000000008160008151811061175257611751612856565b5b60200101907effffffffffffffffffffffffffffffffffffffffffffffffffffffffffffff1916908160001a9053507f7800000000000000000000000000000000000000000000000000000000000000816001815181106117b6576117b5612856565b5b60200101907effffffffffffffffffffffffffffffffffffffffffffffffffffffffffffff1916908160001a905350600060018460026117f691906125cf565b6118009190612548565b90505b60018111156118a0577f3031323334353637383961626364656600000000000000000000000000000000600f86166010811061184257611841612856565b5b1a60f81b82828151811061185957611858612856565b5b60200101907effffffffffffffffffffffffffffffffffffffffffffffffffffffffffffff1916908160001a905350600485901c9450806118999061273c565b9050611803565b50600084146118e4576040517f08c379a00000000000000000000000000000000000000000000000000000000081526004016118db90612349565b60405180910390fd5b8091505092915050565b606082471015611933576040517f08c379a000000000000000000000000000000000000000000000000000000000815260040161192a90612369565b60405180910390fd5b61193c856115b0565b61197b576040517f08c379a0000000000000000000000000000000000000000000000000000000008152600401611972906123e9565b60405180910390fd5b6000808673ffffffffffffffffffffffffffffffffffffffff1685876040516119a4919061221f565b60006040518083038185875af1925050503d80600081146119e1576040519150601f19603f3d011682016040523d82523d6000602084013e6119e6565b606091505b50915091506119f6828286611a02565b92505050949350505050565b60608315611a1257829050611a62565b600083511115611a255782518084602001fd5b816040517f08c379a0000000000000000000000000000000000000000000000000000000008152600401611a599190612327565b60405180910390fd5b9392505050565b828054611a7590612766565b90600052602060002090601f016020900481019282611a975760008555611ade565b82601f10611ab057805160ff1916838001178555611ade565b82800160010185558215611ade579182015b82811115611add578251825591602001919060010190611ac2565b5b509050611aeb9190611b75565b5090565b828054611afb90612766565b90600052602060002090601f016020900481019282611b1d5760008555611b64565b82601f10611b3657805160ff1916838001178555611b64565b82800160010185558215611b64579182015b82811115611b63578251825591602001919060010190611b48565b5b509050611b719190611b75565b5090565b5b80821115611b8e576000816000905550600101611b76565b5090565b6000611ba5611ba0846124c9565b6124a4565b905082815260208101848484011115611bc157611bc06128b9565b5b611bcc8482856126fa565b509392505050565b600081359050611be381612b5d565b92915050565b600081519050611bf881612b74565b92915050565b600081359050611c0d81612b8b565b92915050565b600081359050611c2281612ba2565b92915050565b600082601f830112611c3d57611c3c6128b4565b5b8135611c4d848260208601611b92565b91505092915050565b600081359050611c6581612bb9565b92915050565b600081519050611c7a81612bb9565b92915050565b600080600080600080600060e0888a031215611c9f57611c9e6128c3565b5b6000611cad8a828b01611bd4565b9750506020611cbe8a828b01611bd4565b9650506040611ccf8a828b01611bd4565b955050606088013567ffffffffffffffff811115611cf057611cef6128be565b5b611cfc8a828b01611c28565b9450506080611d0d8a828b01611c56565b93505060a088013567ffffffffffffffff811115611d2e57611d2d6128be565b5b611d3a8a828b01611c28565b92505060c0611d4b8a828b01611c56565b91505092959891949750929550565b60008060008060008060c08789031215611d7757611d766128c3565b5b6000611d8589828a01611bd4565b9650506020611d9689828a01611bd4565b955050604087013567ffffffffffffffff811115611db757611db66128be565b5b611dc389828a01611c28565b9450506060611dd489828a01611c56565b935050608087013567ffffffffffffffff811115611df557611df46128be565b5b611e0189828a01611c28565b92505060a0611e1289828a01611c56565b9150509295509295509295565b600060208284031215611e3557611e346128c3565b5b6000611e4384828501611be9565b91505092915050565b600060208284031215611e6257611e616128c3565b5b6000611e7084828501611bfe565b91505092915050565b60008060408385031215611e9057611e8f6128c3565b5b6000611e9e85828601611bfe565b9250506020611eaf85828601611bd4565b9150509250929050565b600060208284031215611ecf57611ece6128c3565b5b6000611edd84828501611c13565b91505092915050565b600060208284031215611efc57611efb6128c3565b5b600082013567ffffffffffffffff811115611f1a57611f196128be565b5b611f2684828501611c28565b91505092915050565b600060208284031215611f4557611f446128c3565b5b6000611f5384828501611c6b565b91505092915050565b611f658161265d565b82525050565b611f748161266f565b82525050565b611f838161267b565b82525050565b6000611f94826124fa565b611f9e8185612510565b9350611fae818560208601612709565b611fb7816128c8565b840191505092915050565b6000611fcd826124fa565b611fd78185612521565b9350611fe7818560208601612709565b80840191505092915050565b611ffc816126e8565b82525050565b600061200d82612505565b612017818561252c565b9350612027818560208601612709565b612030816128c8565b840191505092915050565b600061204682612505565b612050818561253d565b9350612060818560208601612709565b80840191505092915050565b600061207960208361252c565b9150612084826128d9565b602082019050919050565b600061209c60268361252c565b91506120a782612902565b604082019050919050565b60006120bf600e8361252c565b91506120ca82612951565b602082019050919050565b60006120e2602e8361252c565b91506120ed8261297a565b604082019050919050565b6000612105601f8361252c565b9150612110826129c9565b602082019050919050565b6000612128601d8361252c565b9150612133826129f2565b602082019050919050565b600061214b60118361252c565b915061215682612a1b565b602082019050919050565b600061216e60178361253d565b915061217982612a44565b601782019050919050565b600061219160148361252c565b915061219c82612a6d565b602082019050919050565b60006121b4602a8361252c565b91506121bf82612a96565b604082019050919050565b60006121d760118361253d565b91506121e282612ae5565b601182019050919050565b60006121fa602f8361252c565b915061220582612b0e565b604082019050919050565b612219816126d1565b82525050565b600061222b8284611fc2565b915081905092915050565b600061224182612161565b915061224d828561203b565b9150612258826121ca565b9150612264828461203b565b91508190509392505050565b60006020820190506122856000830184611f5c565b92915050565b60006040820190506122a06000830185611f5c565b6122ad6020830184612210565b9392505050565b60006020820190506122c96000830184611f6b565b92915050565b60006020820190506122e46000830184611f7a565b92915050565b600060208201905081810360008301526123048184611f89565b905092915050565b60006020820190506123216000830184611ff3565b92915050565b600060208201905081810360008301526123418184612002565b905092915050565b600060208201905081810360008301526123628161206c565b9050919050565b600060208201905081810360008301526123828161208f565b9050919050565b600060208201905081810360008301526123a2816120b2565b9050919050565b600060208201905081810360008301526123c2816120d5565b9050919050565b600060208201905081810360008301526123e2816120f8565b9050919050565b600060208201905081810360008301526124028161211b565b9050919050565b600060208201905081810360008301526124228161213e565b9050919050565b6000602082019050818103600083015261244281612184565b9050919050565b60006020820190508181036000830152612462816121a7565b9050919050565b60006020820190508181036000830152612482816121ed565b9050919050565b600060208201905061249e6000830184612210565b92915050565b60006124ae6124bf565b90506124ba8282612798565b919050565b6000604051905090565b600067ffffffffffffffff8211156124e4576124e3612885565b5b6124ed826128c8565b9050602081019050919050565b600081519050919050565b600081519050919050565b600082825260208201905092915050565b600081905092915050565b600082825260208201905092915050565b600081905092915050565b6000612553826126d1565b915061255e836126d1565b9250827fffffffffffffffffffffffffffffffffffffffffffffffffffffffffffffffff03821115612593576125926127c9565b5b828201905092915050565b60006125a9826126d1565b91506125b4836126d1565b9250826125c4576125c36127f8565b5b828204905092915050565b60006125da826126d1565b91506125e5836126d1565b9250817fffffffffffffffffffffffffffffffffffffffffffffffffffffffffffffffff048311821515161561261e5761261d6127c9565b5b828202905092915050565b6000612634826126d1565b915061263f836126d1565b925082821015612652576126516127c9565b5b828203905092915050565b6000612668826126b1565b9050919050565b60008115159050919050565b6000819050919050565b60007fffffffff0000000000000000000000000000000000000000000000000000000082169050919050565b600073ffffffffffffffffffffffffffffffffffffffff82169050919050565b6000819050919050565b600060ff82169050919050565b60006126f3826126db565b9050919050565b82818337600083830152505050565b60005b8381101561272757808201518184015260208101905061270c565b83811115612736576000848401525b50505050565b6000612747826126d1565b9150600082141561275b5761275a6127c9565b5b600182039050919050565b6000600282049050600182168061277e57607f821691505b6020821081141561279257612791612827565b5b50919050565b6127a1826128c8565b810181811067ffffffffffffffff821117156127c0576127bf612885565b5b80604052505050565b7f4e487b7100000000000000000000000000000000000000000000000000000000600052601160045260246000fd5b7f4e487b7100000000000000000000000000000000000000000000000000000000600052601260045260246000fd5b7f4e487b7100000000000000000000000000000000000000000000000000000000600052602260045260246000fd5b7f4e487b7100000000000000000000000000000000000000000000000000000000600052603260045260246000fd5b7f4e487b7100000000000000000000000000000000000000000000000000000000600052604160045260246000fd5b600080fd5b600080fd5b600080fd5b600080fd5b6000601f19601f8301169050919050565b7f537472696e67733a20686578206c656e67746820696e73756666696369656e74600082015250565b7f416464726573733a20696e73756666696369656e742062616c616e636520666f60008201527f722063616c6c0000000000000000000000000000000000000000000000000000602082015250565b7f736c6963655f6f766572666c6f77000000000000000000000000000000000000600082015250565b7f496e697469616c697a61626c653a20636f6e747261637420697320616c72656160008201527f647920696e697469616c697a6564000000000000000000000000000000000000602082015250565b7f4552433230206f7065726174696f6e20646964206e6f74207375636365656400600082015250565b7f416464726573733a2063616c6c20746f206e6f6e2d636f6e7472616374000000600082015250565b7f736c6963655f6f75744f66426f756e6473000000000000000000000000000000600082015250565b7f416363657373436f6e74726f6c3a206163636f756e7420000000000000000000600082015250565b7f746f55696e7433325f6f75744f66426f756e6473000000000000000000000000600082015250565b7f5361666545524332303a204552433230206f7065726174696f6e20646964206e60008201527f6f74207375636365656400000000000000000000000000000000000000000000602082015250565b7f206973206d697373696e6720726f6c6520000000000000000000000000000000600082015250565b7f416363657373436f6e74726f6c3a2063616e206f6e6c792072656e6f756e636560008201527f20726f6c657320666f722073656c660000000000000000000000000000000000602082015250565b612b668161265d565b8114612b7157600080fd5b50565b612b7d8161266f565b8114612b8857600080fd5b50565b612b948161267b565b8114612b9f57600080fd5b50565b612bab81612685565b8114612bb657600080fd5b50565b612bc2816126d1565b8114612bcd57600080fd5b5056fea164736f6c6343000807000a",
  "linkReferences": {},
  "deployedLinkReferences": {}
}