{
  "_format": "hh-sol-artifact-1",
  "contractName": "CBridgeFacet",
  "sourceName": "src/bridges/facets/CBridgeFacet.sol",
  "abi": [
    {
      "inputs": [],
      "name": "CannotBridgeToSameNetwork",
      "type": "error"
    },
    {
      "inputs": [],
      "name": "InvalidAmount",
      "type": "error"
    },
    {
      "inputs": [],
      "name": "InvalidConfig",
      "type": "error"
    },
    {
      "inputs": [],
      "name": "NativeValueWithERC",
      "type": "error"
    },
    {
      "inputs": [],
      "name": "NoTransferToNullAddress",
      "type": "error"
    },
    {
      "inputs": [],
      "name": "NullAddrIsNotAValidSpender",
      "type": "error"
    },
    {
      "inputs": [],
      "name": "NullAddrIsNotAnERC20Token",
      "type": "error"
    },
    {
      "anonymous": false,
      "inputs": [
        {
          "indexed": false,
          "internalType": "address",
          "name": "cBridge",
          "type": "address"
        },
        {
          "indexed": false,
          "internalType": "uint256",
          "name": "chainId",
          "type": "uint256"
        }
      ],
      "name": "CBridgeInitialized",
      "type": "event"
    },
    {
      "anonymous": false,
      "inputs": [
        {
          "indexed": false,
          "internalType": "string",
          "name": "bridgeUsed",
          "type": "string"
        },
        {
          "indexed": false,
          "internalType": "address",
          "name": "tokenAddress",
          "type": "address"
        },
        {
          "indexed": false,
          "internalType": "address",
          "name": "from",
          "type": "address"
        },
        {
          "indexed": false,
          "internalType": "address",
          "name": "to",
          "type": "address"
        },
        {
          "indexed": false,
          "internalType": "uint256",
          "name": "amount",
          "type": "uint256"
        },
        {
          "indexed": false,
          "internalType": "uint256",
          "name": "chainIdTo",
          "type": "uint256"
        }
      ],
      "name": "TransferStarted",
      "type": "event"
    },
    {
      "anonymous": false,
      "inputs": [
        {
          "indexed": false,
          "internalType": "address",
          "name": "newAddress",
          "type": "address"
        }
      ],
      "name": "UpdatedCBridgeAddress",
      "type": "event"
    },
    {
      "inputs": [
        {
          "components": [
            {
              "internalType": "uint32",
              "name": "maxSlippage",
              "type": "uint32"
            },
            {
              "internalType": "uint64",
              "name": "dstChainId",
              "type": "uint64"
            },
            {
              "internalType": "uint64",
              "name": "nonce",
              "type": "uint64"
            },
            {
              "internalType": "uint256",
              "name": "amount",
              "type": "uint256"
            },
            {
              "internalType": "address",
              "name": "receiver",
              "type": "address"
            },
            {
              "internalType": "address",
              "name": "token",
              "type": "address"
            }
          ],
          "internalType": "struct CBridgeFacet.CBridgeData",
          "name": "_cBridgeData",
          "type": "tuple"
        }
      ],
      "name": "bridgeTokensCBridge",
      "outputs": [],
      "stateMutability": "payable",
      "type": "function"
    },
    {
      "inputs": [
        {
          "internalType": "address",
          "name": "_cBridge",
          "type": "address"
        }
      ],
      "name": "initializeCBridge",
      "outputs": [],
      "stateMutability": "nonpayable",
      "type": "function"
    },
    {
      "inputs": [
        {
          "internalType": "address",
          "name": "_newAddress",
          "type": "address"
        }
      ],
      "name": "updateCBridgeAddress",
      "outputs": [],
      "stateMutability": "nonpayable",
      "type": "function"
    }
  ],
  "bytecode": "0x608060405234801561001057600080fd5b5060016000819055506118ef806100286000396000f3fe6080604052600436106100345760003560e01c80631124bcf9146100395780635277cbc714610062578063dae033891461007e575b600080fd5b34801561004557600080fd5b50610060600480360381019061005b9190610fd8565b6100a7565b005b61007c6004803603810190610077919061102a565b6101ab565b005b34801561008a57600080fd5b506100a560048036038101906100a09190610fd8565b6102b6565b005b6100af6103af565b600073ffffffffffffffffffffffffffffffffffffffff168173ffffffffffffffffffffffffffffffffffffffff161415610116576040517f35be3ac800000000000000000000000000000000000000000000000000000000815260040160405180910390fd5b600061012061044a565b9050818160000160006101000a81548173ffffffffffffffffffffffffffffffffffffffff021916908373ffffffffffffffffffffffffffffffffffffffff1602179055504681600101819055507f5b114a545b5a08e3628017ac6e1af1f29e3f593dde50a4a93ab76f2a2220cd38824660405161019f92919061136b565b60405180910390a15050565b600260005414156101f1576040517f08c379a00000000000000000000000000000000000000000000000000000000081526004016101e89061149c565b60405180910390fd5b60026000819055506102198160a001602081019061020f9190610fd8565b8260600135610477565b6102328180360381019061022d9190611053565b6104b5565b7f83bd4b75444b26482a091d91d32e43a65722f9fd8267a590beadccd9e61539e88160a00160208101906102669190610fd8565b3383608001602081019061027a9190610fd8565b846060013585602001602081019061029291906110a5565b6040516102a39594939291906113f6565b60405180910390a1600160008190555050565b6102be6103af565b600073ffffffffffffffffffffffffffffffffffffffff168173ffffffffffffffffffffffffffffffffffffffff161415610325576040517f35be3ac800000000000000000000000000000000000000000000000000000000815260040160405180910390fd5b600061032f61044a565b9050818160000160006101000a81548173ffffffffffffffffffffffffffffffffffffffff021916908373ffffffffffffffffffffffffffffffffffffffff1602179055507fef1a021f4afad10827a9f886313f92d00348a53d0b0df8d0aa270a0ac3379bc5826040516103a3919061128f565b60405180910390a15050565b6103b76105d7565b60040160009054906101000a900473ffffffffffffffffffffffffffffffffffffffff1673ffffffffffffffffffffffffffffffffffffffff163373ffffffffffffffffffffffffffffffffffffffff1614610448576040517f08c379a000000000000000000000000000000000000000000000000000000000815260040161043f906113b6565b60405180910390fd5b565b6000807f9d7253cc9498e9cc54011bbbe9471a68adbc99d0ac1eef42369f5a452e814c4a90508091505090565b6104b18282600073ffffffffffffffffffffffffffffffffffffffff168573ffffffffffffffffffffffffffffffffffffffff1614610604565b5050565b60006104bf61044a565b905060008160000160009054906101000a900473ffffffffffffffffffffffffffffffffffffffff169050826020015167ffffffffffffffff16461415610532576040517f4ac09ad300000000000000000000000000000000000000000000000000000000815260040160405180910390fd5b6105458360a00151828560600151610728565b8073ffffffffffffffffffffffffffffffffffffffff1663a5977fbb84608001518560a0015186606001518760200151886040015189600001516040518763ffffffff1660e01b81526004016105a09695949392919061130a565b600060405180830381600087803b1580156105ba57600080fd5b505af11580156105ce573d6000803e3d6000fd5b50505050505050565b6000807fc8fcad8db84d3cc18b4c41d551ea0ee66dd599cde068d998e57d5e09332c131c90508091505090565b600082141561063f576040517f2c5211c600000000000000000000000000000000000000000000000000000000815260040160405180910390fd5b80156106835781341461067e576040517f2c5211c600000000000000000000000000000000000000000000000000000000815260040160405180910390fd5b610723565b600034146106bc576040517e3f45b500000000000000000000000000000000000000000000000000000000815260040160405180910390fd5b60006106c784610893565b90506106d58433308661095f565b82816106e086610893565b6106ea9190611533565b14610721576040517f2c5211c600000000000000000000000000000000000000000000000000000000815260040160405180910390fd5b505b505050565b600073ffffffffffffffffffffffffffffffffffffffff168373ffffffffffffffffffffffffffffffffffffffff1614156107625761088e565b600073ffffffffffffffffffffffffffffffffffffffff168273ffffffffffffffffffffffffffffffffffffffff1614156107c9576040517f63ba9bff00000000000000000000000000000000000000000000000000000000815260040160405180910390fd5b60008373ffffffffffffffffffffffffffffffffffffffff1663dd62ed3e30856040518363ffffffff1660e01b81526004016108069291906112aa565b60206040518083038186803b15801561081e57600080fd5b505afa158015610832573d6000803e3d6000fd5b505050506040513d601f19601f82011682018060405250810190610856919061107c565b90508181101561088c5761088b84847fffffffffffffffffffffffffffffffffffffffffffffffffffffffffffffffff610a3f565b5b505b505050565b60008073ffffffffffffffffffffffffffffffffffffffff168273ffffffffffffffffffffffffffffffffffffffff1614610956578173ffffffffffffffffffffffffffffffffffffffff166370a08231306040518263ffffffff1660e01b8152600401610901919061128f565b60206040518083038186803b15801561091957600080fd5b505afa15801561092d573d6000803e3d6000fd5b505050506040513d601f19601f82011682018060405250810190610951919061107c565b610958565b475b9050919050565b600073ffffffffffffffffffffffffffffffffffffffff168473ffffffffffffffffffffffffffffffffffffffff1614156109c6576040517fd1bebf0c00000000000000000000000000000000000000000000000000000000815260040160405180910390fd5b600073ffffffffffffffffffffffffffffffffffffffff168273ffffffffffffffffffffffffffffffffffffffff161415610a2d576040517f21f7434500000000000000000000000000000000000000000000000000000000815260040160405180910390fd5b610a3984848484610b9d565b50505050565b6000811480610ad8575060008373ffffffffffffffffffffffffffffffffffffffff1663dd62ed3e30856040518363ffffffff1660e01b8152600401610a869291906112aa565b60206040518083038186803b158015610a9e57600080fd5b505afa158015610ab2573d6000803e3d6000fd5b505050506040513d601f19601f82011682018060405250810190610ad6919061107c565b145b610b17576040517f08c379a0000000000000000000000000000000000000000000000000000000008152600401610b0e906114bc565b60405180910390fd5b610b988363095ea7b360e01b8484604051602401610b3692919061136b565b604051602081830303815290604052907bffffffffffffffffffffffffffffffffffffffffffffffffffffffff19166020820180517bffffffffffffffffffffffffffffffffffffffffffffffffffffffff8381831617835250505050610c26565b505050565b610c20846323b872dd60e01b858585604051602401610bbe939291906112d3565b604051602081830303815290604052907bffffffffffffffffffffffffffffffffffffffffffffffffffffffff19166020820180517bffffffffffffffffffffffffffffffffffffffffffffffffffffffff8381831617835250505050610c26565b50505050565b6000610c88826040518060400160405280602081526020017f5361666545524332303a206c6f772d6c6576656c2063616c6c206661696c65648152508573ffffffffffffffffffffffffffffffffffffffff16610ced9092919063ffffffff16565b9050600081511115610ce85780806020019051810190610ca89190611001565b610ce7576040517f08c379a0000000000000000000000000000000000000000000000000000000008152600401610cde9061147c565b60405180910390fd5b5b505050565b6060610cfc8484600085610d05565b90509392505050565b606082471015610d4a576040517f08c379a0000000000000000000000000000000000000000000000000000000008152600401610d41906113d6565b60405180910390fd5b610d5385610e19565b610d92576040517f08c379a0000000000000000000000000000000000000000000000000000000008152600401610d899061145c565b60405180910390fd5b6000808673ffffffffffffffffffffffffffffffffffffffff168587604051610dbb9190611278565b60006040518083038185875af1925050503d8060008114610df8576040519150601f19603f3d011682016040523d82523d6000602084013e610dfd565b606091505b5091509150610e0d828286610e3c565b92505050949350505050565b6000808273ffffffffffffffffffffffffffffffffffffffff163b119050919050565b60608315610e4c57829050610e9c565b600083511115610e5f5782518084602001fd5b816040517f08c379a0000000000000000000000000000000000000000000000000000000008152600401610e939190611394565b60405180910390fd5b9392505050565b600081359050610eb28161186f565b92915050565b600081519050610ec781611886565b92915050565b600060c08284031215610edf57600080fd5b81905092915050565b600060c08284031215610efa57600080fd5b610f0460c06114dc565b90506000610f1484828501610fae565b6000830152506020610f2884828501610fc3565b6020830152506040610f3c84828501610fc3565b6040830152506060610f5084828501610f84565b6060830152506080610f6484828501610ea3565b60808301525060a0610f7884828501610ea3565b60a08301525092915050565b600081359050610f938161189d565b92915050565b600081519050610fa88161189d565b92915050565b600081359050610fbd816118b4565b92915050565b600081359050610fd2816118cb565b92915050565b600060208284031215610fea57600080fd5b6000610ff884828501610ea3565b91505092915050565b60006020828403121561101357600080fd5b600061102184828501610eb8565b91505092915050565b600060c0828403121561103c57600080fd5b600061104a84828501610ecd565b91505092915050565b600060c0828403121561106557600080fd5b600061107384828501610ee8565b91505092915050565b60006020828403121561108e57600080fd5b600061109c84828501610f99565b91505092915050565b6000602082840312156110b757600080fd5b60006110c584828501610fc3565b91505092915050565b6110d781611567565b82525050565b60006110e882611501565b6110f28185611517565b93506111028185602086016115e5565b80840191505092915050565b60006111198261150c565b6111238185611522565b93506111338185602086016115e5565b61113c816116a7565b840191505092915050565b6000611154602283611522565b915061115f826116b8565b604082019050919050565b6000611177602683611522565b915061118282611707565b604082019050919050565b600061119a600783611522565b91506111a582611756565b602082019050919050565b60006111bd601d83611522565b91506111c88261177f565b602082019050919050565b60006111e0602a83611522565b91506111eb826117a8565b604082019050919050565b6000611203601f83611522565b915061120e826117f7565b602082019050919050565b6000611226603683611522565b915061123182611820565b604082019050919050565b611245816115a5565b82525050565b611254816115af565b82525050565b611263816115d3565b82525050565b611272816115bf565b82525050565b600061128482846110dd565b915081905092915050565b60006020820190506112a460008301846110ce565b92915050565b60006040820190506112bf60008301856110ce565b6112cc60208301846110ce565b9392505050565b60006060820190506112e860008301866110ce565b6112f560208301856110ce565b611302604083018461123c565b949350505050565b600060c08201905061131f60008301896110ce565b61132c60208301886110ce565b611339604083018761123c565b6113466060830186611269565b6113536080830185611269565b61136060a083018461124b565b979650505050505050565b600060408201905061138060008301856110ce565b61138d602083018461123c565b9392505050565b600060208201905081810360008301526113ae818461110e565b905092915050565b600060208201905081810360008301526113cf81611147565b9050919050565b600060208201905081810360008301526113ef8161116a565b9050919050565b600060c082019050818103600083015261140f8161118d565b905061141e60208301886110ce565b61142b60408301876110ce565b61143860608301866110ce565b611445608083018561123c565b61145260a083018461125a565b9695505050505050565b60006020820190508181036000830152611475816111b0565b9050919050565b60006020820190508181036000830152611495816111d3565b9050919050565b600060208201905081810360008301526114b5816111f6565b9050919050565b600060208201905081810360008301526114d581611219565b9050919050565b60006114e66114f7565b90506114f28282611618565b919050565b6000604051905090565b600081519050919050565b600081519050919050565b600081905092915050565b600082825260208201905092915050565b600061153e826115a5565b9150611549836115a5565b92508282101561155c5761155b611649565b5b828203905092915050565b600061157282611585565b9050919050565b60008115159050919050565b600073ffffffffffffffffffffffffffffffffffffffff82169050919050565b6000819050919050565b600063ffffffff82169050919050565b600067ffffffffffffffff82169050919050565b60006115de826115bf565b9050919050565b60005b838110156116035780820151818401526020810190506115e8565b83811115611612576000848401525b50505050565b611621826116a7565b810181811067ffffffffffffffff821117156116405761163f611678565b5b80604052505050565b7f4e487b7100000000000000000000000000000000000000000000000000000000600052601160045260246000fd5b7f4e487b7100000000000000000000000000000000000000000000000000000000600052604160045260246000fd5b6000601f19601f8301169050919050565b7f4c69624469616d6f6e643a204d75737420626520636f6e7472616374206f776e60008201527f6572000000000000000000000000000000000000000000000000000000000000602082015250565b7f416464726573733a20696e73756666696369656e742062616c616e636520666f60008201527f722063616c6c0000000000000000000000000000000000000000000000000000602082015250565b7f6342726964676500000000000000000000000000000000000000000000000000600082015250565b7f416464726573733a2063616c6c20746f206e6f6e2d636f6e7472616374000000600082015250565b7f5361666545524332303a204552433230206f7065726174696f6e20646964206e60008201527f6f74207375636365656400000000000000000000000000000000000000000000602082015250565b7f5265656e7472616e637947756172643a207265656e7472616e742063616c6c00600082015250565b7f5361666545524332303a20617070726f76652066726f6d206e6f6e2d7a65726f60008201527f20746f206e6f6e2d7a65726f20616c6c6f77616e636500000000000000000000602082015250565b61187881611567565b811461188357600080fd5b50565b61188f81611579565b811461189a57600080fd5b50565b6118a6816115a5565b81146118b157600080fd5b50565b6118bd816115af565b81146118c857600080fd5b50565b6118d4816115bf565b81146118df57600080fd5b5056fea164736f6c6343000804000a",
  "linkReferences": {},
  "deployedLinkReferences": {}
}