{
  "_format": "hh-sol-artifact-1",
  "contractName": "CBridgeFacet",
  "sourceName": "src/bridges/facets/CBridgeFacet.sol",
  "abi": [
    {
      "inputs": [],
      "name": "CBSlippageTooLow",
      "type": "error"
    },
    {
      "inputs": [],
      "name": "CannotBridgeToSameNetwork",
      "type": "error"
    },
    {
      "inputs": [],
      "name": "InvalidAmount",
      "type": "error"
    },
    {
      "inputs": [],
      "name": "ReentrancyError",
      "type": "error"
    },
    {
      "inputs": [],
      "name": "TokenAddressIsZero",
      "type": "error"
    },
    {
      "inputs": [],
      "name": "ZeroAddressProvided",
      "type": "error"
    },
    {
      "anonymous": false,
      "inputs": [
        {
          "indexed": false,
          "internalType": "address",
          "name": "cBridge",
          "type": "address"
        },
        {
          "indexed": false,
          "internalType": "uint256",
          "name": "chainId",
          "type": "uint256"
        }
      ],
      "name": "CBInitialized",
      "type": "event"
    },
    {
      "anonymous": false,
      "inputs": [
        {
          "indexed": false,
          "internalType": "string",
          "name": "bridgeUsed",
          "type": "string"
        },
        {
          "indexed": false,
          "internalType": "address",
          "name": "token",
          "type": "address"
        },
        {
          "indexed": false,
          "internalType": "address",
          "name": "from",
          "type": "address"
        },
        {
          "indexed": false,
          "internalType": "address",
          "name": "to",
          "type": "address"
        },
        {
          "indexed": false,
          "internalType": "uint256",
          "name": "qty",
          "type": "uint256"
        },
        {
          "indexed": false,
          "internalType": "uint256",
          "name": "chainIdTo",
          "type": "uint256"
        }
      ],
      "name": "CBTransferStarted",
      "type": "event"
    },
    {
      "anonymous": false,
      "inputs": [
        {
          "indexed": false,
          "internalType": "address",
          "name": "newAddress",
          "type": "address"
        }
      ],
      "name": "CBUpdatedBridge",
      "type": "event"
    },
    {
      "anonymous": false,
      "inputs": [
        {
          "indexed": false,
          "internalType": "uint256",
          "name": "newSlippage",
          "type": "uint256"
        }
      ],
      "name": "CBUpdatedSlippageTolerance",
      "type": "event"
    },
    {
      "inputs": [
        {
          "internalType": "bytes8",
          "name": "c__82a0834b",
          "type": "bytes8"
        }
      ],
      "name": "c_82a0834b",
      "outputs": [],
      "stateMutability": "pure",
      "type": "function"
    },
    {
      "inputs": [
        {
          "internalType": "bytes8",
          "name": "c__9296fc39",
          "type": "bytes8"
        }
      ],
      "name": "c_9296fc39",
      "outputs": [],
      "stateMutability": "pure",
      "type": "function"
    },
    {
      "inputs": [
        {
          "internalType": "bytes8",
          "name": "c__82a0834b",
          "type": "bytes8"
        }
      ],
      "name": "c_false82a0834b",
      "outputs": [
        {
          "internalType": "bool",
          "name": "",
          "type": "bool"
        }
      ],
      "stateMutability": "pure",
      "type": "function"
    },
    {
      "inputs": [
        {
          "internalType": "bytes8",
          "name": "c__9296fc39",
          "type": "bytes8"
        }
      ],
      "name": "c_false9296fc39",
      "outputs": [
        {
          "internalType": "bool",
          "name": "",
          "type": "bool"
        }
      ],
      "stateMutability": "pure",
      "type": "function"
    },
    {
      "inputs": [
        {
          "internalType": "bytes8",
          "name": "c__82a0834b",
          "type": "bytes8"
        }
      ],
      "name": "c_true82a0834b",
      "outputs": [
        {
          "internalType": "bool",
          "name": "",
          "type": "bool"
        }
      ],
      "stateMutability": "pure",
      "type": "function"
    },
    {
      "inputs": [
        {
          "internalType": "bytes8",
          "name": "c__9296fc39",
          "type": "bytes8"
        }
      ],
      "name": "c_true9296fc39",
      "outputs": [
        {
          "internalType": "bool",
          "name": "",
          "type": "bool"
        }
      ],
      "stateMutability": "pure",
      "type": "function"
    },
    {
      "inputs": [
        {
          "components": [
            {
              "internalType": "uint64",
              "name": "dstChainId",
              "type": "uint64"
            },
            {
              "internalType": "uint64",
              "name": "nonce",
              "type": "uint64"
            },
            {
              "internalType": "uint256",
              "name": "qty",
              "type": "uint256"
            },
            {
              "internalType": "address",
              "name": "to",
              "type": "address"
            },
            {
              "internalType": "address",
              "name": "token",
              "type": "address"
            }
          ],
          "internalType": "struct CBridgeFacet.CBridgeData",
          "name": "_cbData",
          "type": "tuple"
        }
      ],
      "name": "cbBridgeTokens",
      "outputs": [],
      "stateMutability": "payable",
      "type": "function"
    },
    {
      "inputs": [
        {
          "internalType": "address",
          "name": "_cbBridge",
          "type": "address"
        }
      ],
      "name": "cbInitialize",
      "outputs": [],
      "stateMutability": "nonpayable",
      "type": "function"
    },
    {
      "inputs": [
        {
          "internalType": "address",
          "name": "_newAddress",
          "type": "address"
        }
      ],
      "name": "cbUpdateBridge",
      "outputs": [],
      "stateMutability": "nonpayable",
      "type": "function"
    },
    {
      "inputs": [
        {
          "internalType": "uint32",
          "name": "_newSlippage",
          "type": "uint32"
        }
      ],
      "name": "cbUpdateSlippageTolerance",
      "outputs": [],
      "stateMutability": "nonpayable",
      "type": "function"
    }
  ],
  "bytecode": "0x608060405234801561001057600080fd5b50611fb2806100206000396000f3fe6080604052600436106100915760003560e01c80636f395e60116100595780636f395e601461017e5780639e32e2e6146101a75780639f91c7fd146101d0578063ac0d2b131461020d578063e31fa1af1461024a57610091565b806314917f99146100965780631dcb855a146100bf57806340d280a2146100fc5780634a6f22c41461012557806352434c6e14610162575b600080fd5b3480156100a257600080fd5b506100bd60048036038101906100b8919061176f565b610273565b005b3480156100cb57600080fd5b506100e660048036038101906100e1919061176f565b610276565b6040516100f39190611afd565b60405180910390f35b34801561010857600080fd5b50610123600480360381019061011e919061171d565b61027d565b005b34801561013157600080fd5b5061014c6004803603810190610147919061176f565b6104be565b6040516101599190611afd565b60405180910390f35b61017c60048036038101906101779190611798565b6104c9565b005b34801561018a57600080fd5b506101a560048036038101906101a0919061171d565b610c03565b005b3480156101b357600080fd5b506101ce60048036038101906101c991906117ea565b610dec565b005b3480156101dc57600080fd5b506101f760048036038101906101f2919061176f565b610f8f565b6040516102049190611afd565b60405180910390f35b34801561021957600080fd5b50610234600480360381019061022f919061176f565b610f9a565b6040516102419190611afd565b60405180910390f35b34801561025657600080fd5b50610271600480360381019061026c919061176f565b610fa1565b005b50565b6000919050565b6102916797d4a79c6e8da8fc60c01b610fa1565b6102a5670e2f2c8a5311f67460c01b610fa1565b6102b9675b13a1991c267f1c60c01b610fa1565b6102c1610fa4565b6102d5677ee86732d55ff95260c01b610fa1565b6102e9674d33e4f9b9612d8d60c01b610fa1565b600073ffffffffffffffffffffffffffffffffffffffff168173ffffffffffffffffffffffffffffffffffffffff16141561036457610332676d6a428ac068619060c01b610fa1565b6040517f8474420100000000000000000000000000000000000000000000000000000000815260040160405180910390fd5b610378671b6d9165f559dd9060c01b610fa1565b61038c67dd59355fd48e644160c01b610fa1565b6103a067b3b032f8c8c9f6a160c01b610fa1565b60006103aa6110a3565b90506103c06731d19ee530be69ef60c01b610fa1565b818160000160006101000a81548173ffffffffffffffffffffffffffffffffffffffff021916908373ffffffffffffffffffffffffffffffffffffffff16021790555061041767fe86263d0e8940c660c01b610fa1565b46816001018190555061043467314b893e78a144b760c01b610fa1565b6127108160020160006101000a81548163ffffffff021916908363ffffffff16021790555061046d676ad2b17f4918fdfa60c01b610fa1565b61048167d1d40b0589cebbdf60c01b610fa1565b7fcbfd47a07530fc4fffba96f5686a7127e5661fe26dd01503239ca2f66fcad99082466040516104b2929190611ad4565b60405180910390a15050565b600060019050919050565b6104dd677f1d47e894864aaa60c01b610fa1565b6104f16770f43b674d4e55d060c01b610273565b61050567fdb58b8d5e8c5bd260c01b610273565b61051967f88563faceb9065260c01b610273565b6000610523611121565b905061053967f5511ed184b06f9d60c01b610273565b61054d675fe6356e9bb02e7e60c01b610273565b6001816000015414156105a05761056e67c2bf72a01148a95560c01b610273565b6040517f29f745a700000000000000000000000000000000000000000000000000000000815260040160405180910390fd5b6105b46759328cc6ac1a5b8460c01b610273565b6105c8676585023ebf8de8b060c01b610273565b600181600001819055506105e66794e629fc71d8c79e60c01b610273565b6105fa6715242012ce96c7f160c01b610fa1565b61060e678eb6f4db737f4b7360c01b610fa1565b61062267c457076ac82718fc60c01b610fa1565b61063667cfdca50ae33020dc60c01b610fa1565b8160000160208101906106499190611813565b67ffffffffffffffff164614156106b45761066e67b59b8ab41c16feab60c01b610fa1565b61068267d0ad4a309013922660c01b610fa1565b6040517f4ac09ad300000000000000000000000000000000000000000000000000000000815260040160405180910390fd5b6106c86756f8932bd4555ad760c01b610fa1565b6106dc6764fb57761461897360c01b610fa1565b6106f0675f0446559da0f55960c01b610fa1565b600073ffffffffffffffffffffffffffffffffffffffff1682606001602081019061071b919061171d565b73ffffffffffffffffffffffffffffffffffffffff16141561077d5761074b672203e1af5929465760c01b610fa1565b6040517f8474420100000000000000000000000000000000000000000000000000000000815260040160405180910390fd5b6107916728a865aea8258ceb60c01b610fa1565b6107a5676fe46105247774d560c01b610fa1565b6107b9678f7510e1a7192ffb60c01b610fa1565b600082604001351161080b576107d967af20204004d2c86560c01b610fa1565b6040517f2c5211c600000000000000000000000000000000000000000000000000000000815260040160405180910390fd5b61081f67c235e2a5916e216e60c01b610fa1565b61083367c34c8b0197b67e6c60c01b610fa1565b61084767676e00839b9a5a8060c01b610fa1565b600073ffffffffffffffffffffffffffffffffffffffff16826080016020810190610872919061171d565b73ffffffffffffffffffffffffffffffffffffffff1614156108d4576108a267245d22043cdb3d0c60c01b610fa1565b6040517fdc2e5e8d00000000000000000000000000000000000000000000000000000000815260040160405180910390fd5b6108e86718ff5e19da60343860c01b610fa1565b6108fc67bedceb4db841a53e60c01b610fa1565b61091067cda8ba86a5e6ee9860c01b610fa1565b600061091a6110a3565b9050610930673f5fa8242b94796e60c01b610fa1565b61094467681ec17cea69b30660c01b610fa1565b60008160000160009054906101000a900473ffffffffffffffffffffffffffffffffffffffff16905061098167c92843e9e9460b5460c01b610fa1565b61099567dccd0c487d1fe6f660c01b610fa1565b6109d8333086604001358760800160208101906109b2919061171d565b73ffffffffffffffffffffffffffffffffffffffff1661119f909392919063ffffffff16565b6109ec67e80d1d6748997c0260c01b610fa1565b610a0067400f0c5be983a9b760c01b610fa1565b610a41818560400135866080016020810190610a1c919061171d565b73ffffffffffffffffffffffffffffffffffffffff166112289092919063ffffffff16565b610a5567b0a7fc2efbeee0d760c01b610fa1565b610a6967c07b9de819409a3c60c01b610fa1565b8073ffffffffffffffffffffffffffffffffffffffff1663a5977fbb856060016020810190610a98919061171d565b866080016020810190610aab919061171d565b8760400135886000016020810190610ac39190611813565b896020016020810190610ad69190611813565b8860020160009054906101000a900463ffffffff166040518763ffffffff1660e01b8152600401610b0c96959493929190611a73565b600060405180830381600087803b158015610b2657600080fd5b505af1158015610b3a573d6000803e3d6000fd5b50505050610b5267c9b43804a582003960c01b610fa1565b610b6667d699a6191c59138260c01b610fa1565b7fd565a5cf794050de1a171170c91acd5d14cbf11877dc3fa020e9975495ab1757846080016020810190610b9a919061171d565b33866060016020810190610bae919061171d565b8760400135886000016020810190610bc69190611813565b604051610bd7959493929190611b7a565b60405180910390a15050610bf567441391ce80e99b6c60c01b610273565b600081600001819055505050565b610c1767d3a2494a835102c160c01b610fa1565b610c2b670c9b2f19ad78ba2d60c01b610fa1565b610c3f67285a34703cb3897d60c01b610fa1565b610c47610fa4565b610c5b679941e4eb5c2e085a60c01b610fa1565b610c6f674a3f870b19eeb0f860c01b610fa1565b600073ffffffffffffffffffffffffffffffffffffffff168173ffffffffffffffffffffffffffffffffffffffff161415610cea57610cb8679f1850b2b41a922760c01b610fa1565b6040517f8474420100000000000000000000000000000000000000000000000000000000815260040160405180910390fd5b610cfe67088b159fcf23024f60c01b610fa1565b610d1267bcee72259e25a4d760c01b610fa1565b610d2667f6343277fc69a82e60c01b610fa1565b6000610d306110a3565b9050610d4667cd0ef56dfe642dd060c01b610fa1565b818160000160006101000a81548173ffffffffffffffffffffffffffffffffffffffff021916908373ffffffffffffffffffffffffffffffffffffffff160217905550610d9d67e8752783a7430db760c01b610fa1565b610db1672bc4e9b6619b7ce260c01b610fa1565b7f4ae67faf3cf135d9eca1b5490d3613096d2d0610fca7496112fa46ef019fbd4e82604051610de091906119f8565b60405180910390a15050565b610e0067456d55e4c0f14d4760c01b610fa1565b610e14673174e49db9a5ddea60c01b610fa1565b610e2867192813406d0b2a1e60c01b610fa1565b6113888163ffffffff1611610e7d57610e4b67549ef105040999b860c01b610fa1565b6040517f9ff4125000000000000000000000000000000000000000000000000000000000815260040160405180910390fd5b610e916751434f62a0bf406a60c01b610fa1565b610ea5675b61e57e6bbb740860c01b610fa1565b610eb9676d54701b66ab59d160c01b610fa1565b610ec1610fa4565b610ed5675845cbbdeb29872860c01b610fa1565b610ee967ed9b116e321da9eb60c01b610fa1565b6000610ef36110a3565b9050610f09671a742eb68541c25c60c01b610fa1565b818160020160006101000a81548163ffffffff021916908363ffffffff160217905550610f40675d88c84e2624c04460c01b610fa1565b610f5467eaa1be02d588fb4460c01b610fa1565b7f8d5e80c35df41e151b58f1a100ad605ae1ebcda3d0c329b22820b232767a773082604051610f839190611c40565b60405180910390a15050565b600060019050919050565b6000919050565b50565b610fb86721b40df6734b4e6460c01b611386565b610fcc677276b6d1bbf7b68b60c01b611386565b610fe067f8611dbcb55a1f7860c01b611386565b610ff4676cedf54251a3375160c01b611386565b610ffc611389565b60040160009054906101000a900473ffffffffffffffffffffffffffffffffffffffff1673ffffffffffffffffffffffffffffffffffffffff163373ffffffffffffffffffffffffffffffffffffffff161461108d576040517f08c379a000000000000000000000000000000000000000000000000000000000815260040161108490611b3a565b60405180910390fd5b6110a167e452355b21bbd41e60c01b611386565b565b60006110b96746874ce4b0fd162b60c01b610fa1565b6110cd67c48ee095da74410560c01b610fa1565b6110e167a1033010cec72c2460c01b610fa1565b60007f9d7253cc9498e9cc54011bbbe9471a68adbc99d0ac1eef42369f5a452e814c4a905061111a674e1695596a4af8ef60c01b610fa1565b8091505090565b600061113767fa11c344c1ec53a860c01b610273565b61114b670fd7b7008acdbf5460c01b610273565b61115f679fbd6d57c5d665d460c01b610273565b60007fc59b5acc5a6673a6c49ca2de898f87adbd9fdfdff36f689476b1c9e0c50964b4905061119867a9235c9a8268ed9060c01b610273565b8091505090565b611222846323b872dd60e01b8585856040516024016111c093929190611a3c565b604051602081830303815290604052907bffffffffffffffffffffffffffffffffffffffffffffffffffffffff19166020820180517bffffffffffffffffffffffffffffffffffffffffffffffffffffffff8381831617835250505050611407565b50505050565b60008114806112c1575060008373ffffffffffffffffffffffffffffffffffffffff1663dd62ed3e30856040518363ffffffff1660e01b815260040161126f929190611a13565b60206040518083038186803b15801561128757600080fd5b505afa15801561129b573d6000803e3d6000fd5b505050506040513d601f19601f820116820180604052508101906112bf91906117c1565b145b611300576040517f08c379a00000000000000000000000000000000000000000000000000000000081526004016112f790611c20565b60405180910390fd5b6113818363095ea7b360e01b848460405160240161131f929190611ad4565b604051602081830303815290604052907bffffffffffffffffffffffffffffffffffffffffffffffffffffffff19166020820180517bffffffffffffffffffffffffffffffffffffffffffffffffffffffff8381831617835250505050611407565b505050565b50565b600061139f674f9afbb757d80e6360c01b611386565b6113b3674b823103125da15660c01b611386565b6113c7674ab715c231c1608d60c01b611386565b60007fc8fcad8db84d3cc18b4c41d551ea0ee66dd599cde068d998e57d5e09332c131c905061140067982d9bb86701efa860c01b611386565b8091505090565b6000611469826040518060400160405280602081526020017f5361666545524332303a206c6f772d6c6576656c2063616c6c206661696c65648152508573ffffffffffffffffffffffffffffffffffffffff166114ce9092919063ffffffff16565b90506000815111156114c957808060200190518101906114899190611746565b6114c8576040517f08c379a00000000000000000000000000000000000000000000000000000000081526004016114bf90611c00565b60405180910390fd5b5b505050565b60606114dd84846000856114e6565b90509392505050565b60608247101561152b576040517f08c379a000000000000000000000000000000000000000000000000000000000815260040161152290611b5a565b60405180910390fd5b611534856115fa565b611573576040517f08c379a000000000000000000000000000000000000000000000000000000000815260040161156a90611be0565b60405180910390fd5b6000808673ffffffffffffffffffffffffffffffffffffffff16858760405161159c91906119e1565b60006040518083038185875af1925050503d80600081146115d9576040519150601f19603f3d011682016040523d82523d6000602084013e6115de565b606091505b50915091506115ee82828661161d565b92505050949350505050565b6000808273ffffffffffffffffffffffffffffffffffffffff163b119050919050565b6060831561162d5782905061167d565b6000835111156116405782518084602001fd5b816040517f08c379a00000000000000000000000000000000000000000000000000000000081526004016116749190611b18565b60405180910390fd5b9392505050565b60008135905061169381611f1b565b92915050565b6000815190506116a881611f32565b92915050565b6000813590506116bd81611f49565b92915050565b600060a082840312156116d557600080fd5b81905092915050565b6000815190506116ed81611f60565b92915050565b60008135905061170281611f77565b92915050565b60008135905061171781611f8e565b92915050565b60006020828403121561172f57600080fd5b600061173d84828501611684565b91505092915050565b60006020828403121561175857600080fd5b600061176684828501611699565b91505092915050565b60006020828403121561178157600080fd5b600061178f848285016116ae565b91505092915050565b600060a082840312156117aa57600080fd5b60006117b8848285016116c3565b91505092915050565b6000602082840312156117d357600080fd5b60006117e1848285016116de565b91505092915050565b6000602082840312156117fc57600080fd5b600061180a848285016116f3565b91505092915050565b60006020828403121561182557600080fd5b600061183384828501611708565b91505092915050565b61184581611c8d565b82525050565b61185481611c9f565b82525050565b600061186582611c5b565b61186f8185611c71565b935061187f818560208601611d49565b80840191505092915050565b600061189682611c66565b6118a08185611c7c565b93506118b0818560208601611d49565b6118b981611d7c565b840191505092915050565b60006118d1602283611c7c565b91506118dc82611d8d565b604082019050919050565b60006118f4602683611c7c565b91506118ff82611ddc565b604082019050919050565b6000611917600783611c7c565b915061192282611e2b565b602082019050919050565b600061193a601d83611c7c565b915061194582611e54565b602082019050919050565b600061195d602a83611c7c565b915061196882611e7d565b604082019050919050565b6000611980603683611c7c565b915061198b82611ecc565b604082019050919050565b61199f81611cf7565b82525050565b6119ae81611d25565b82525050565b6119bd81611d01565b82525050565b6119cc81611d37565b82525050565b6119db81611d11565b82525050565b60006119ed828461185a565b915081905092915050565b6000602082019050611a0d600083018461183c565b92915050565b6000604082019050611a28600083018561183c565b611a35602083018461183c565b9392505050565b6000606082019050611a51600083018661183c565b611a5e602083018561183c565b611a6b6040830184611996565b949350505050565b600060c082019050611a88600083018961183c565b611a95602083018861183c565b611aa26040830187611996565b611aaf60608301866119d2565b611abc60808301856119d2565b611ac960a08301846119b4565b979650505050505050565b6000604082019050611ae9600083018561183c565b611af66020830184611996565b9392505050565b6000602082019050611b12600083018461184b565b92915050565b60006020820190508181036000830152611b32818461188b565b905092915050565b60006020820190508181036000830152611b53816118c4565b9050919050565b60006020820190508181036000830152611b73816118e7565b9050919050565b600060c0820190508181036000830152611b938161190a565b9050611ba2602083018861183c565b611baf604083018761183c565b611bbc606083018661183c565b611bc96080830185611996565b611bd660a08301846119c3565b9695505050505050565b60006020820190508181036000830152611bf98161192d565b9050919050565b60006020820190508181036000830152611c1981611950565b9050919050565b60006020820190508181036000830152611c3981611973565b9050919050565b6000602082019050611c5560008301846119a5565b92915050565b600081519050919050565b600081519050919050565b600081905092915050565b600082825260208201905092915050565b6000611c9882611cd7565b9050919050565b60008115159050919050565b60007fffffffffffffffff00000000000000000000000000000000000000000000000082169050919050565b600073ffffffffffffffffffffffffffffffffffffffff82169050919050565b6000819050919050565b600063ffffffff82169050919050565b600067ffffffffffffffff82169050919050565b6000611d3082611d01565b9050919050565b6000611d4282611d11565b9050919050565b60005b83811015611d67578082015181840152602081019050611d4c565b83811115611d76576000848401525b50505050565b6000601f19601f8301169050919050565b7f4c69624469616d6f6e643a204d75737420626520636f6e7472616374206f776e60008201527f6572000000000000000000000000000000000000000000000000000000000000602082015250565b7f416464726573733a20696e73756666696369656e742062616c616e636520666f60008201527f722063616c6c0000000000000000000000000000000000000000000000000000602082015250565b7f6362726964676500000000000000000000000000000000000000000000000000600082015250565b7f416464726573733a2063616c6c20746f206e6f6e2d636f6e7472616374000000600082015250565b7f5361666545524332303a204552433230206f7065726174696f6e20646964206e60008201527f6f74207375636365656400000000000000000000000000000000000000000000602082015250565b7f5361666545524332303a20617070726f76652066726f6d206e6f6e2d7a65726f60008201527f20746f206e6f6e2d7a65726f20616c6c6f77616e636500000000000000000000602082015250565b611f2481611c8d565b8114611f2f57600080fd5b50565b611f3b81611c9f565b8114611f4657600080fd5b50565b611f5281611cab565b8114611f5d57600080fd5b50565b611f6981611cf7565b8114611f7457600080fd5b50565b611f8081611d01565b8114611f8b57600080fd5b50565b611f9781611d11565b8114611fa257600080fd5b5056fea164736f6c6343000804000a",
  "linkReferences": {},
  "deployedLinkReferences": {}
}