{
  "_format": "hh-sol-artifact-1",
  "contractName": "CBridgeFacet",
  "sourceName": "src/bridges/facets/CBridgeFacet.sol",
  "abi": [
    {
      "inputs": [],
      "name": "CannotBridgeToSameNetwork",
      "type": "error"
    },
    {
      "inputs": [],
      "name": "InvalidAmount",
      "type": "error"
    },
    {
      "inputs": [],
      "name": "InvalidConfig",
      "type": "error"
    },
    {
      "inputs": [],
      "name": "NativeValueWithERC",
      "type": "error"
    },
    {
      "inputs": [],
      "name": "NoTransferToNullAddress",
      "type": "error"
    },
    {
      "inputs": [],
      "name": "NullAddrIsNotAValidSpender",
      "type": "error"
    },
    {
      "inputs": [],
      "name": "NullAddrIsNotAnERC20Token",
      "type": "error"
    },
    {
      "anonymous": false,
      "inputs": [
        {
          "indexed": false,
          "internalType": "address",
          "name": "cBridge",
          "type": "address"
        },
        {
          "indexed": false,
          "internalType": "uint256",
          "name": "chainId",
          "type": "uint256"
        }
      ],
      "name": "CBridgeInitialized",
      "type": "event"
    },
    {
      "anonymous": false,
      "inputs": [
        {
          "indexed": false,
          "internalType": "string",
          "name": "bridgeUsed",
          "type": "string"
        },
        {
          "indexed": false,
          "internalType": "address",
          "name": "tokenAddress",
          "type": "address"
        },
        {
          "indexed": false,
          "internalType": "address",
          "name": "from",
          "type": "address"
        },
        {
          "indexed": false,
          "internalType": "address",
          "name": "to",
          "type": "address"
        },
        {
          "indexed": false,
          "internalType": "uint256",
          "name": "amount",
          "type": "uint256"
        },
        {
          "indexed": false,
          "internalType": "uint256",
          "name": "chainIdTo",
          "type": "uint256"
        }
      ],
      "name": "TransferStarted",
      "type": "event"
    },
    {
      "anonymous": false,
      "inputs": [
        {
          "indexed": false,
          "internalType": "address",
          "name": "newAddress",
          "type": "address"
        }
      ],
      "name": "UpdatedCBridgeAddress",
      "type": "event"
    },
    {
      "inputs": [
        {
          "components": [
            {
              "internalType": "uint32",
              "name": "maxSlippage",
              "type": "uint32"
            },
            {
              "internalType": "uint64",
              "name": "dstChainId",
              "type": "uint64"
            },
            {
              "internalType": "uint64",
              "name": "nonce",
              "type": "uint64"
            },
            {
              "internalType": "uint256",
              "name": "amount",
              "type": "uint256"
            },
            {
              "internalType": "address",
              "name": "receiver",
              "type": "address"
            },
            {
              "internalType": "address",
              "name": "token",
              "type": "address"
            }
          ],
          "internalType": "struct CBridgeFacet.CBridgeData",
          "name": "_cBridgeData",
          "type": "tuple"
        }
      ],
      "name": "bridgeTokensCBridge",
      "outputs": [],
      "stateMutability": "payable",
      "type": "function"
    },
    {
      "inputs": [],
      "name": "cBridge",
      "outputs": [
        {
          "internalType": "address",
          "name": "",
          "type": "address"
        }
      ],
      "stateMutability": "view",
      "type": "function"
    },
    {
      "inputs": [],
      "name": "chainId",
      "outputs": [
        {
          "internalType": "uint256",
          "name": "",
          "type": "uint256"
        }
      ],
      "stateMutability": "view",
      "type": "function"
    },
    {
      "inputs": [
        {
          "internalType": "address",
          "name": "_cBridge",
          "type": "address"
        },
        {
          "internalType": "uint256",
          "name": "_chainId",
          "type": "uint256"
        }
      ],
      "name": "initializeCBridge",
      "outputs": [],
      "stateMutability": "nonpayable",
      "type": "function"
    },
    {
      "inputs": [
        {
          "internalType": "address",
          "name": "_newAddress",
          "type": "address"
        }
      ],
      "name": "updateBridgeAddress",
      "outputs": [],
      "stateMutability": "nonpayable",
      "type": "function"
    }
  ],
  "bytecode": "0x608060405234801561001057600080fd5b5060016000819055506119ac806100286000396000f3fe60806040526004361061004a5760003560e01c806336d4b75f1461004f5780635277cbc71461007a578063645c8a4b146100965780639a8a0592146100bf578063fc613675146100ea575b600080fd5b34801561005b57600080fd5b50610064610113565b6040516100719190611331565b60405180910390f35b610094600480360381019061008f91906110cc565b610139565b005b3480156100a257600080fd5b506100bd60048036038101906100b8919061103e565b610244565b005b3480156100cb57600080fd5b506100d461032e565b6040516100e1919061157e565b60405180910390f35b3480156100f657600080fd5b50610111600480360381019061010c9190611067565b610334565b005b600160009054906101000a900473ffffffffffffffffffffffffffffffffffffffff1681565b6002600054141561017f576040517f08c379a00000000000000000000000000000000000000000000000000000000081526004016101769061153e565b60405180910390fd5b60026000819055506101a78160a001602081019061019d919061103e565b8260600135610433565b6101c0818036038101906101bb91906110f5565b610471565b7f83bd4b75444b26482a091d91d32e43a65722f9fd8267a590beadccd9e61539e88160a00160208101906101f4919061103e565b33836080016020810190610208919061103e565b84606001358560200160208101906102209190611147565b604051610231959493929190611498565b60405180910390a1600160008190555050565b61024c6105a2565b600073ffffffffffffffffffffffffffffffffffffffff168173ffffffffffffffffffffffffffffffffffffffff1614156102b3576040517f35be3ac800000000000000000000000000000000000000000000000000000000815260040160405180910390fd5b80600160006101000a81548173ffffffffffffffffffffffffffffffffffffffff021916908373ffffffffffffffffffffffffffffffffffffffff1602179055507fef1a021f4afad10827a9f886313f92d00348a53d0b0df8d0aa270a0ac3379bc5816040516103239190611331565b60405180910390a150565b60025481565b61033c6105a2565b600073ffffffffffffffffffffffffffffffffffffffff168273ffffffffffffffffffffffffffffffffffffffff1614806103775750600081145b156103ae576040517f35be3ac800000000000000000000000000000000000000000000000000000000815260040160405180910390fd5b81600160006101000a81548173ffffffffffffffffffffffffffffffffffffffff021916908373ffffffffffffffffffffffffffffffffffffffff160217905550806002819055507f5b114a545b5a08e3628017ac6e1af1f29e3f593dde50a4a93ab76f2a2220cd38828260405161042792919061140d565b60405180910390a15050565b61046d8282600073ffffffffffffffffffffffffffffffffffffffff168573ffffffffffffffffffffffffffffffffffffffff161461063d565b5050565b806020015167ffffffffffffffff1660025414156104bb576040517f4ac09ad300000000000000000000000000000000000000000000000000000000815260040160405180910390fd5b6104f08160a00151600160009054906101000a900473ffffffffffffffffffffffffffffffffffffffff168360600151610761565b600160009054906101000a900473ffffffffffffffffffffffffffffffffffffffff1673ffffffffffffffffffffffffffffffffffffffff1663a5977fbb82608001518360a0015184606001518560200151866040015187600001516040518763ffffffff1660e01b815260040161056d969594939291906113ac565b600060405180830381600087803b15801561058757600080fd5b505af115801561059b573d6000803e3d6000fd5b5050505050565b6105aa6108cc565b60040160009054906101000a900473ffffffffffffffffffffffffffffffffffffffff1673ffffffffffffffffffffffffffffffffffffffff163373ffffffffffffffffffffffffffffffffffffffff161461063b576040517f08c379a000000000000000000000000000000000000000000000000000000000815260040161063290611458565b60405180910390fd5b565b6000821415610678576040517f2c5211c600000000000000000000000000000000000000000000000000000000815260040160405180910390fd5b80156106bc578134146106b7576040517f2c5211c600000000000000000000000000000000000000000000000000000000815260040160405180910390fd5b61075c565b600034146106f5576040517e3f45b500000000000000000000000000000000000000000000000000000000815260040160405180910390fd5b6000610700846108f9565b905061070e843330866109c5565b8281610719866108f9565b61072391906115f0565b1461075a576040517f2c5211c600000000000000000000000000000000000000000000000000000000815260040160405180910390fd5b505b505050565b600073ffffffffffffffffffffffffffffffffffffffff168373ffffffffffffffffffffffffffffffffffffffff16141561079b576108c7565b600073ffffffffffffffffffffffffffffffffffffffff168273ffffffffffffffffffffffffffffffffffffffff161415610802576040517f63ba9bff00000000000000000000000000000000000000000000000000000000815260040160405180910390fd5b60008373ffffffffffffffffffffffffffffffffffffffff1663dd62ed3e30856040518363ffffffff1660e01b815260040161083f92919061134c565b60206040518083038186803b15801561085757600080fd5b505afa15801561086b573d6000803e3d6000fd5b505050506040513d601f19601f8201168201806040525081019061088f919061111e565b9050818110156108c5576108c484847fffffffffffffffffffffffffffffffffffffffffffffffffffffffffffffffff610aa5565b5b505b505050565b6000807fc8fcad8db84d3cc18b4c41d551ea0ee66dd599cde068d998e57d5e09332c131c90508091505090565b60008073ffffffffffffffffffffffffffffffffffffffff168273ffffffffffffffffffffffffffffffffffffffff16146109bc578173ffffffffffffffffffffffffffffffffffffffff166370a08231306040518263ffffffff1660e01b81526004016109679190611331565b60206040518083038186803b15801561097f57600080fd5b505afa158015610993573d6000803e3d6000fd5b505050506040513d601f19601f820116820180604052508101906109b7919061111e565b6109be565b475b9050919050565b600073ffffffffffffffffffffffffffffffffffffffff168473ffffffffffffffffffffffffffffffffffffffff161415610a2c576040517fd1bebf0c00000000000000000000000000000000000000000000000000000000815260040160405180910390fd5b600073ffffffffffffffffffffffffffffffffffffffff168273ffffffffffffffffffffffffffffffffffffffff161415610a93576040517f21f7434500000000000000000000000000000000000000000000000000000000815260040160405180910390fd5b610a9f84848484610c03565b50505050565b6000811480610b3e575060008373ffffffffffffffffffffffffffffffffffffffff1663dd62ed3e30856040518363ffffffff1660e01b8152600401610aec92919061134c565b60206040518083038186803b158015610b0457600080fd5b505afa158015610b18573d6000803e3d6000fd5b505050506040513d601f19601f82011682018060405250810190610b3c919061111e565b145b610b7d576040517f08c379a0000000000000000000000000000000000000000000000000000000008152600401610b749061155e565b60405180910390fd5b610bfe8363095ea7b360e01b8484604051602401610b9c92919061140d565b604051602081830303815290604052907bffffffffffffffffffffffffffffffffffffffffffffffffffffffff19166020820180517bffffffffffffffffffffffffffffffffffffffffffffffffffffffff8381831617835250505050610c8c565b505050565b610c86846323b872dd60e01b858585604051602401610c2493929190611375565b604051602081830303815290604052907bffffffffffffffffffffffffffffffffffffffffffffffffffffffff19166020820180517bffffffffffffffffffffffffffffffffffffffffffffffffffffffff8381831617835250505050610c8c565b50505050565b6000610cee826040518060400160405280602081526020017f5361666545524332303a206c6f772d6c6576656c2063616c6c206661696c65648152508573ffffffffffffffffffffffffffffffffffffffff16610d539092919063ffffffff16565b9050600081511115610d4e5780806020019051810190610d0e91906110a3565b610d4d576040517f08c379a0000000000000000000000000000000000000000000000000000000008152600401610d449061151e565b60405180910390fd5b5b505050565b6060610d628484600085610d6b565b90509392505050565b606082471015610db0576040517f08c379a0000000000000000000000000000000000000000000000000000000008152600401610da790611478565b60405180910390fd5b610db985610e7f565b610df8576040517f08c379a0000000000000000000000000000000000000000000000000000000008152600401610def906114fe565b60405180910390fd5b6000808673ffffffffffffffffffffffffffffffffffffffff168587604051610e21919061131a565b60006040518083038185875af1925050503d8060008114610e5e576040519150601f19603f3d011682016040523d82523d6000602084013e610e63565b606091505b5091509150610e73828286610ea2565b92505050949350505050565b6000808273ffffffffffffffffffffffffffffffffffffffff163b119050919050565b60608315610eb257829050610f02565b600083511115610ec55782518084602001fd5b816040517f08c379a0000000000000000000000000000000000000000000000000000000008152600401610ef99190611436565b60405180910390fd5b9392505050565b600081359050610f188161192c565b92915050565b600081519050610f2d81611943565b92915050565b600060c08284031215610f4557600080fd5b81905092915050565b600060c08284031215610f6057600080fd5b610f6a60c0611599565b90506000610f7a84828501611014565b6000830152506020610f8e84828501611029565b6020830152506040610fa284828501611029565b6040830152506060610fb684828501610fea565b6060830152506080610fca84828501610f09565b60808301525060a0610fde84828501610f09565b60a08301525092915050565b600081359050610ff98161195a565b92915050565b60008151905061100e8161195a565b92915050565b60008135905061102381611971565b92915050565b60008135905061103881611988565b92915050565b60006020828403121561105057600080fd5b600061105e84828501610f09565b91505092915050565b6000806040838503121561107a57600080fd5b600061108885828601610f09565b925050602061109985828601610fea565b9150509250929050565b6000602082840312156110b557600080fd5b60006110c384828501610f1e565b91505092915050565b600060c082840312156110de57600080fd5b60006110ec84828501610f33565b91505092915050565b600060c0828403121561110757600080fd5b600061111584828501610f4e565b91505092915050565b60006020828403121561113057600080fd5b600061113e84828501610fff565b91505092915050565b60006020828403121561115957600080fd5b600061116784828501611029565b91505092915050565b61117981611624565b82525050565b600061118a826115be565b61119481856115d4565b93506111a48185602086016116a2565b80840191505092915050565b60006111bb826115c9565b6111c581856115df565b93506111d58185602086016116a2565b6111de81611764565b840191505092915050565b60006111f66022836115df565b915061120182611775565b604082019050919050565b60006112196026836115df565b9150611224826117c4565b604082019050919050565b600061123c6007836115df565b915061124782611813565b602082019050919050565b600061125f601d836115df565b915061126a8261183c565b602082019050919050565b6000611282602a836115df565b915061128d82611865565b604082019050919050565b60006112a5601f836115df565b91506112b0826118b4565b602082019050919050565b60006112c86036836115df565b91506112d3826118dd565b604082019050919050565b6112e781611662565b82525050565b6112f68161166c565b82525050565b61130581611690565b82525050565b6113148161167c565b82525050565b6000611326828461117f565b915081905092915050565b60006020820190506113466000830184611170565b92915050565b60006040820190506113616000830185611170565b61136e6020830184611170565b9392505050565b600060608201905061138a6000830186611170565b6113976020830185611170565b6113a460408301846112de565b949350505050565b600060c0820190506113c16000830189611170565b6113ce6020830188611170565b6113db60408301876112de565b6113e8606083018661130b565b6113f5608083018561130b565b61140260a08301846112ed565b979650505050505050565b60006040820190506114226000830185611170565b61142f60208301846112de565b9392505050565b6000602082019050818103600083015261145081846111b0565b905092915050565b60006020820190508181036000830152611471816111e9565b9050919050565b600060208201905081810360008301526114918161120c565b9050919050565b600060c08201905081810360008301526114b18161122f565b90506114c06020830188611170565b6114cd6040830187611170565b6114da6060830186611170565b6114e760808301856112de565b6114f460a08301846112fc565b9695505050505050565b6000602082019050818103600083015261151781611252565b9050919050565b6000602082019050818103600083015261153781611275565b9050919050565b6000602082019050818103600083015261155781611298565b9050919050565b60006020820190508181036000830152611577816112bb565b9050919050565b600060208201905061159360008301846112de565b92915050565b60006115a36115b4565b90506115af82826116d5565b919050565b6000604051905090565b600081519050919050565b600081519050919050565b600081905092915050565b600082825260208201905092915050565b60006115fb82611662565b915061160683611662565b92508282101561161957611618611706565b5b828203905092915050565b600061162f82611642565b9050919050565b60008115159050919050565b600073ffffffffffffffffffffffffffffffffffffffff82169050919050565b6000819050919050565b600063ffffffff82169050919050565b600067ffffffffffffffff82169050919050565b600061169b8261167c565b9050919050565b60005b838110156116c05780820151818401526020810190506116a5565b838111156116cf576000848401525b50505050565b6116de82611764565b810181811067ffffffffffffffff821117156116fd576116fc611735565b5b80604052505050565b7f4e487b7100000000000000000000000000000000000000000000000000000000600052601160045260246000fd5b7f4e487b7100000000000000000000000000000000000000000000000000000000600052604160045260246000fd5b6000601f19601f8301169050919050565b7f4c69624469616d6f6e643a204d75737420626520636f6e7472616374206f776e60008201527f6572000000000000000000000000000000000000000000000000000000000000602082015250565b7f416464726573733a20696e73756666696369656e742062616c616e636520666f60008201527f722063616c6c0000000000000000000000000000000000000000000000000000602082015250565b7f6342726964676500000000000000000000000000000000000000000000000000600082015250565b7f416464726573733a2063616c6c20746f206e6f6e2d636f6e7472616374000000600082015250565b7f5361666545524332303a204552433230206f7065726174696f6e20646964206e60008201527f6f74207375636365656400000000000000000000000000000000000000000000602082015250565b7f5265656e7472616e637947756172643a207265656e7472616e742063616c6c00600082015250565b7f5361666545524332303a20617070726f76652066726f6d206e6f6e2d7a65726f60008201527f20746f206e6f6e2d7a65726f20616c6c6f77616e636500000000000000000000602082015250565b61193581611624565b811461194057600080fd5b50565b61194c81611636565b811461195757600080fd5b50565b61196381611662565b811461196e57600080fd5b50565b61197a8161166c565b811461198557600080fd5b50565b6119918161167c565b811461199c57600080fd5b5056fea164736f6c6343000804000a",
  "linkReferences": {},
  "deployedLinkReferences": {}
}