{
  "_format": "hh-sol-artifact-1",
  "contractName": "CBridgeFacet",
  "sourceName": "src/bridges/facets/CBridgeFacet.sol",
  "abi": [
    {
      "inputs": [],
      "name": "CBSlippageTooLow",
      "type": "error"
    },
    {
      "inputs": [],
      "name": "CannotBridgeToSameNetwork",
      "type": "error"
    },
    {
      "inputs": [],
      "name": "InvalidConfig",
      "type": "error"
    },
    {
      "inputs": [],
      "name": "ReentrancyError",
      "type": "error"
    },
    {
      "anonymous": false,
      "inputs": [
        {
          "indexed": false,
          "internalType": "address",
          "name": "cBridge",
          "type": "address"
        },
        {
          "indexed": false,
          "internalType": "uint256",
          "name": "chainId",
          "type": "uint256"
        }
      ],
      "name": "CBInitialized",
      "type": "event"
    },
    {
      "anonymous": false,
      "inputs": [
        {
          "indexed": false,
          "internalType": "string",
          "name": "bridgeUsed",
          "type": "string"
        },
        {
          "indexed": false,
          "internalType": "address",
          "name": "token",
          "type": "address"
        },
        {
          "indexed": false,
          "internalType": "address",
          "name": "from",
          "type": "address"
        },
        {
          "indexed": false,
          "internalType": "address",
          "name": "to",
          "type": "address"
        },
        {
          "indexed": false,
          "internalType": "uint256",
          "name": "qty",
          "type": "uint256"
        },
        {
          "indexed": false,
          "internalType": "uint256",
          "name": "chainIdTo",
          "type": "uint256"
        }
      ],
      "name": "CBTransferStarted",
      "type": "event"
    },
    {
      "anonymous": false,
      "inputs": [
        {
          "indexed": false,
          "internalType": "address",
          "name": "newAddress",
          "type": "address"
        }
      ],
      "name": "CBUpdatedBridge",
      "type": "event"
    },
    {
      "anonymous": false,
      "inputs": [
        {
          "indexed": false,
          "internalType": "uint256",
          "name": "newSlippage",
          "type": "uint256"
        }
      ],
      "name": "CBUpdatedSlippageTolerance",
      "type": "event"
    },
    {
      "inputs": [
        {
          "components": [
            {
              "internalType": "uint64",
              "name": "dstChainId",
              "type": "uint64"
            },
            {
              "internalType": "uint64",
              "name": "nonce",
              "type": "uint64"
            },
            {
              "internalType": "uint256",
              "name": "qty",
              "type": "uint256"
            },
            {
              "internalType": "address",
              "name": "to",
              "type": "address"
            },
            {
              "internalType": "address",
              "name": "token",
              "type": "address"
            }
          ],
          "internalType": "struct CBridgeFacet.CBridgeData",
          "name": "_cbData",
          "type": "tuple"
        }
      ],
      "name": "cbBridgeTokens",
      "outputs": [],
      "stateMutability": "payable",
      "type": "function"
    },
    {
      "inputs": [
        {
          "internalType": "address",
          "name": "_cbBridge",
          "type": "address"
        }
      ],
      "name": "cbInitialize",
      "outputs": [],
      "stateMutability": "nonpayable",
      "type": "function"
    },
    {
      "inputs": [
        {
          "internalType": "address",
          "name": "_newAddress",
          "type": "address"
        }
      ],
      "name": "cbUpdateBridge",
      "outputs": [],
      "stateMutability": "nonpayable",
      "type": "function"
    },
    {
      "inputs": [
        {
          "internalType": "uint32",
          "name": "_newSlippage",
          "type": "uint32"
        }
      ],
      "name": "cbUpdateSlippageTolerance",
      "outputs": [],
      "stateMutability": "nonpayable",
      "type": "function"
    },
    {
      "inputs": [
        {
          "internalType": "address",
          "name": "_token",
          "type": "address"
        },
        {
          "internalType": "address",
          "name": "_user",
          "type": "address"
        },
        {
          "internalType": "uint256",
          "name": "_amount",
          "type": "uint256"
        }
      ],
      "name": "cbWithdraw",
      "outputs": [],
      "stateMutability": "payable",
      "type": "function"
    },
    {
      "stateMutability": "payable",
      "type": "receive"
    }
  ],
  "bytecode": "0x608060405234801561001057600080fd5b506115d6806100206000396000f3fe60806040526004361061004e5760003560e01c806340d280a21461005a57806350501f691461008357806352434c6e1461009f5780636f395e60146100bb5780639e32e2e6146100e457610055565b3661005557005b600080fd5b34801561006657600080fd5b50610081600480360381019061007c9190610d88565b61010d565b005b61009d60048036038101906100989190610db1565b610236565b005b6100b960048036038101906100b49190610e29565b6102fb565b005b3480156100c757600080fd5b506100e260048036038101906100dd9190610d88565b6105bd565b005b3480156100f057600080fd5b5061010b60048036038101906101069190610e7b565b6106b6565b005b610115610769565b600073ffffffffffffffffffffffffffffffffffffffff168173ffffffffffffffffffffffffffffffffffffffff16141561017c576040517f35be3ac800000000000000000000000000000000000000000000000000000000815260040160405180910390fd5b6000610186610804565b9050818160000160006101000a81548173ffffffffffffffffffffffffffffffffffffffff021916908373ffffffffffffffffffffffffffffffffffffffff1602179055504681600101819055506127108160020160006101000a81548163ffffffff021916908363ffffffff1602179055507fcbfd47a07530fc4fffba96f5686a7127e5661fe26dd01503239ca2f66fcad990824660405161022a929190611156565b60405180910390a15050565b6000610240610831565b9050600181600001541415610281576040517f29f745a700000000000000000000000000000000000000000000000000000000815260040160405180910390fd5b60018160000181905550610293610769565b6102be30838673ffffffffffffffffffffffffffffffffffffffff1661085e9092919063ffffffff16565b6102eb3084848773ffffffffffffffffffffffffffffffffffffffff166109bc909392919063ffffffff16565b6000816000018190555050505050565b6000610305610831565b9050600181600001541415610346576040517f29f745a700000000000000000000000000000000000000000000000000000000815260040160405180910390fd5b600181600001819055508160000160208101906103639190610ea4565b67ffffffffffffffff164614156103a6576040517f4ac09ad300000000000000000000000000000000000000000000000000000000815260040160405180910390fd5b60006103b0610804565b905060008160000160009054906101000a900473ffffffffffffffffffffffffffffffffffffffff16905061041e333086604001358760800160208101906103f89190610d88565b73ffffffffffffffffffffffffffffffffffffffff166109bc909392919063ffffffff16565b61045f81856040013586608001602081019061043a9190610d88565b73ffffffffffffffffffffffffffffffffffffffff1661085e9092919063ffffffff16565b8073ffffffffffffffffffffffffffffffffffffffff1663a5977fbb85606001602081019061048e9190610d88565b8660800160208101906104a19190610d88565b87604001358860000160208101906104b99190610ea4565b8960200160208101906104cc9190610ea4565b8860020160009054906101000a900463ffffffff166040518763ffffffff1660e01b8152600401610502969594939291906110f5565b600060405180830381600087803b15801561051c57600080fd5b505af1158015610530573d6000803e3d6000fd5b505050507fd565a5cf794050de1a171170c91acd5d14cbf11877dc3fa020e9975495ab17578460800160208101906105689190610d88565b3386606001602081019061057c9190610d88565b87604001358860000160208101906105949190610ea4565b6040516105a59594939291906111e1565b60405180910390a15050600081600001819055505050565b6105c5610769565b600073ffffffffffffffffffffffffffffffffffffffff168173ffffffffffffffffffffffffffffffffffffffff16141561062c576040517f35be3ac800000000000000000000000000000000000000000000000000000000815260040160405180910390fd5b6000610636610804565b9050818160000160006101000a81548173ffffffffffffffffffffffffffffffffffffffff021916908373ffffffffffffffffffffffffffffffffffffffff1602179055507f4ae67faf3cf135d9eca1b5490d3613096d2d0610fca7496112fa46ef019fbd4e826040516106aa919061107a565b60405180910390a15050565b6113888163ffffffff16116106f7576040517f9ff4125000000000000000000000000000000000000000000000000000000000815260040160405180910390fd5b6106ff610769565b6000610709610804565b9050818160020160006101000a81548163ffffffff021916908363ffffffff1602179055507f8d5e80c35df41e151b58f1a100ad605ae1ebcda3d0c329b22820b232767a77308260405161075d91906112a7565b60405180910390a15050565b610771610a45565b60040160009054906101000a900473ffffffffffffffffffffffffffffffffffffffff1673ffffffffffffffffffffffffffffffffffffffff163373ffffffffffffffffffffffffffffffffffffffff1614610802576040517f08c379a00000000000000000000000000000000000000000000000000000000081526004016107f9906111a1565b60405180910390fd5b565b6000807f9d7253cc9498e9cc54011bbbe9471a68adbc99d0ac1eef42369f5a452e814c4a90508091505090565b6000807fa65bb2f450488ab0858c00edc14abc5297769bf42adb48cfb77752890e8b697b90508091505090565b60008114806108f7575060008373ffffffffffffffffffffffffffffffffffffffff1663dd62ed3e30856040518363ffffffff1660e01b81526004016108a5929190611095565b60206040518083038186803b1580156108bd57600080fd5b505afa1580156108d1573d6000803e3d6000fd5b505050506040513d601f19601f820116820180604052508101906108f59190610e52565b145b610936576040517f08c379a000000000000000000000000000000000000000000000000000000000815260040161092d90611287565b60405180910390fd5b6109b78363095ea7b360e01b8484604051602401610955929190611156565b604051602081830303815290604052907bffffffffffffffffffffffffffffffffffffffffffffffffffffffff19166020820180517bffffffffffffffffffffffffffffffffffffffffffffffffffffffff8381831617835250505050610a72565b505050565b610a3f846323b872dd60e01b8585856040516024016109dd939291906110be565b604051602081830303815290604052907bffffffffffffffffffffffffffffffffffffffffffffffffffffffff19166020820180517bffffffffffffffffffffffffffffffffffffffffffffffffffffffff8381831617835250505050610a72565b50505050565b6000807fc8fcad8db84d3cc18b4c41d551ea0ee66dd599cde068d998e57d5e09332c131c90508091505090565b6000610ad4826040518060400160405280602081526020017f5361666545524332303a206c6f772d6c6576656c2063616c6c206661696c65648152508573ffffffffffffffffffffffffffffffffffffffff16610b399092919063ffffffff16565b9050600081511115610b345780806020019051810190610af49190610e00565b610b33576040517f08c379a0000000000000000000000000000000000000000000000000000000008152600401610b2a90611267565b60405180910390fd5b5b505050565b6060610b488484600085610b51565b90509392505050565b606082471015610b96576040517f08c379a0000000000000000000000000000000000000000000000000000000008152600401610b8d906111c1565b60405180910390fd5b610b9f85610c65565b610bde576040517f08c379a0000000000000000000000000000000000000000000000000000000008152600401610bd590611247565b60405180910390fd5b6000808673ffffffffffffffffffffffffffffffffffffffff168587604051610c079190611063565b60006040518083038185875af1925050503d8060008114610c44576040519150601f19603f3d011682016040523d82523d6000602084013e610c49565b606091505b5091509150610c59828286610c88565b92505050949350505050565b6000808273ffffffffffffffffffffffffffffffffffffffff163b119050919050565b60608315610c9857829050610ce8565b600083511115610cab5782518084602001fd5b816040517f08c379a0000000000000000000000000000000000000000000000000000000008152600401610cdf919061117f565b60405180910390fd5b9392505050565b600081359050610cfe81611556565b92915050565b600081519050610d138161156d565b92915050565b600060a08284031215610d2b57600080fd5b81905092915050565b600081359050610d4381611584565b92915050565b600081519050610d5881611584565b92915050565b600081359050610d6d8161159b565b92915050565b600081359050610d82816115b2565b92915050565b600060208284031215610d9a57600080fd5b6000610da884828501610cef565b91505092915050565b600080600060608486031215610dc657600080fd5b6000610dd486828701610cef565b9350506020610de586828701610cef565b9250506040610df686828701610d34565b9150509250925092565b600060208284031215610e1257600080fd5b6000610e2084828501610d04565b91505092915050565b600060a08284031215610e3b57600080fd5b6000610e4984828501610d19565b91505092915050565b600060208284031215610e6457600080fd5b6000610e7284828501610d49565b91505092915050565b600060208284031215610e8d57600080fd5b6000610e9b84828501610d5e565b91505092915050565b600060208284031215610eb657600080fd5b6000610ec484828501610d73565b91505092915050565b610ed6816112f4565b82525050565b6000610ee7826112c2565b610ef181856112d8565b9350610f01818560208601611384565b80840191505092915050565b6000610f18826112cd565b610f2281856112e3565b9350610f32818560208601611384565b610f3b816113b7565b840191505092915050565b6000610f536022836112e3565b9150610f5e826113c8565b604082019050919050565b6000610f766026836112e3565b9150610f8182611417565b604082019050919050565b6000610f996007836112e3565b9150610fa482611466565b602082019050919050565b6000610fbc601d836112e3565b9150610fc78261148f565b602082019050919050565b6000610fdf602a836112e3565b9150610fea826114b8565b604082019050919050565b60006110026036836112e3565b915061100d82611507565b604082019050919050565b61102181611332565b82525050565b61103081611360565b82525050565b61103f8161133c565b82525050565b61104e81611372565b82525050565b61105d8161134c565b82525050565b600061106f8284610edc565b915081905092915050565b600060208201905061108f6000830184610ecd565b92915050565b60006040820190506110aa6000830185610ecd565b6110b76020830184610ecd565b9392505050565b60006060820190506110d36000830186610ecd565b6110e06020830185610ecd565b6110ed6040830184611018565b949350505050565b600060c08201905061110a6000830189610ecd565b6111176020830188610ecd565b6111246040830187611018565b6111316060830186611054565b61113e6080830185611054565b61114b60a0830184611036565b979650505050505050565b600060408201905061116b6000830185610ecd565b6111786020830184611018565b9392505050565b600060208201905081810360008301526111998184610f0d565b905092915050565b600060208201905081810360008301526111ba81610f46565b9050919050565b600060208201905081810360008301526111da81610f69565b9050919050565b600060c08201905081810360008301526111fa81610f8c565b90506112096020830188610ecd565b6112166040830187610ecd565b6112236060830186610ecd565b6112306080830185611018565b61123d60a0830184611045565b9695505050505050565b6000602082019050818103600083015261126081610faf565b9050919050565b6000602082019050818103600083015261128081610fd2565b9050919050565b600060208201905081810360008301526112a081610ff5565b9050919050565b60006020820190506112bc6000830184611027565b92915050565b600081519050919050565b600081519050919050565b600081905092915050565b600082825260208201905092915050565b60006112ff82611312565b9050919050565b60008115159050919050565b600073ffffffffffffffffffffffffffffffffffffffff82169050919050565b6000819050919050565b600063ffffffff82169050919050565b600067ffffffffffffffff82169050919050565b600061136b8261133c565b9050919050565b600061137d8261134c565b9050919050565b60005b838110156113a2578082015181840152602081019050611387565b838111156113b1576000848401525b50505050565b6000601f19601f8301169050919050565b7f4c69624469616d6f6e643a204d75737420626520636f6e7472616374206f776e60008201527f6572000000000000000000000000000000000000000000000000000000000000602082015250565b7f416464726573733a20696e73756666696369656e742062616c616e636520666f60008201527f722063616c6c0000000000000000000000000000000000000000000000000000602082015250565b7f6362726964676500000000000000000000000000000000000000000000000000600082015250565b7f416464726573733a2063616c6c20746f206e6f6e2d636f6e7472616374000000600082015250565b7f5361666545524332303a204552433230206f7065726174696f6e20646964206e60008201527f6f74207375636365656400000000000000000000000000000000000000000000602082015250565b7f5361666545524332303a20617070726f76652066726f6d206e6f6e2d7a65726f60008201527f20746f206e6f6e2d7a65726f20616c6c6f77616e636500000000000000000000602082015250565b61155f816112f4565b811461156a57600080fd5b50565b61157681611306565b811461158157600080fd5b50565b61158d81611332565b811461159857600080fd5b50565b6115a48161133c565b81146115af57600080fd5b50565b6115bb8161134c565b81146115c657600080fd5b5056fea164736f6c6343000804000a",
  "linkReferences": {},
  "deployedLinkReferences": {}
}