{
  "_format": "hh-sol-artifact-1",
  "contractName": "ConnextFacet",
  "sourceName": "src/bridges/facets/ConnextFacet.sol",
  "abi": [
    {
      "anonymous": false,
      "inputs": [
        {
          "indexed": false,
          "internalType": "address",
          "name": "_connext",
          "type": "address"
        }
      ],
      "name": "ConnextInitialized",
      "type": "event"
    },
    {
      "anonymous": false,
      "inputs": [
        {
          "indexed": true,
          "internalType": "uint32",
          "name": "_destination",
          "type": "uint32"
        },
        {
          "indexed": true,
          "internalType": "address",
          "name": "_recipient",
          "type": "address"
        },
        {
          "indexed": false,
          "internalType": "uint256",
          "name": "_amount",
          "type": "uint256"
        },
        {
          "indexed": false,
          "internalType": "uint256",
          "name": "_relayerFee",
          "type": "uint256"
        },
        {
          "indexed": false,
          "internalType": "bytes32",
          "name": "_transferId",
          "type": "bytes32"
        }
      ],
      "name": "ConnextNativeSwap",
      "type": "event"
    },
    {
      "anonymous": false,
      "inputs": [
        {
          "indexed": true,
          "internalType": "uint32",
          "name": "_destination",
          "type": "uint32"
        },
        {
          "indexed": true,
          "internalType": "address",
          "name": "_recipient",
          "type": "address"
        },
        {
          "indexed": true,
          "internalType": "address",
          "name": "_asset",
          "type": "address"
        },
        {
          "indexed": false,
          "internalType": "uint256",
          "name": "_amount",
          "type": "uint256"
        },
        {
          "indexed": false,
          "internalType": "uint256",
          "name": "_relayerFee",
          "type": "uint256"
        },
        {
          "indexed": false,
          "internalType": "bytes32",
          "name": "_transferId",
          "type": "bytes32"
        }
      ],
      "name": "ConnextTokenSwap",
      "type": "event"
    },
    {
      "anonymous": false,
      "inputs": [
        {
          "indexed": true,
          "internalType": "uint32",
          "name": "_destination",
          "type": "uint32"
        },
        {
          "indexed": true,
          "internalType": "address",
          "name": "_recipient",
          "type": "address"
        },
        {
          "indexed": false,
          "internalType": "address",
          "name": "_asset",
          "type": "address"
        },
        {
          "indexed": false,
          "internalType": "uint256",
          "name": "_amount",
          "type": "uint256"
        },
        {
          "indexed": false,
          "internalType": "bytes",
          "name": "_callData",
          "type": "bytes"
        },
        {
          "indexed": false,
          "internalType": "uint256",
          "name": "_relayerFee",
          "type": "uint256"
        },
        {
          "indexed": false,
          "internalType": "bytes32",
          "name": "_transferId",
          "type": "bytes32"
        }
      ],
      "name": "ConnextXCall",
      "type": "event"
    },
    {
      "inputs": [
        {
          "internalType": "address",
          "name": "_to",
          "type": "address"
        },
        {
          "internalType": "bytes",
          "name": "_callData",
          "type": "bytes"
        },
        {
          "internalType": "uint32",
          "name": "_destinationDomain",
          "type": "uint32"
        },
        {
          "internalType": "address",
          "name": "_asset",
          "type": "address"
        },
        {
          "internalType": "uint256",
          "name": "_amount",
          "type": "uint256"
        },
        {
          "internalType": "uint256",
          "name": "_relayerFee",
          "type": "uint256"
        },
        {
          "internalType": "address",
          "name": "_recovery",
          "type": "address"
        },
        {
          "internalType": "address",
          "name": "_callback",
          "type": "address"
        },
        {
          "internalType": "uint256",
          "name": "_callbackFee",
          "type": "uint256"
        }
      ],
      "name": "connextCall",
      "outputs": [],
      "stateMutability": "payable",
      "type": "function"
    },
    {
      "inputs": [
        {
          "internalType": "address",
          "name": "_to",
          "type": "address"
        },
        {
          "internalType": "uint32",
          "name": "_destinationDomain",
          "type": "uint32"
        },
        {
          "internalType": "uint256",
          "name": "_relayerFee",
          "type": "uint256"
        }
      ],
      "name": "connextNativeAssetTransfer",
      "outputs": [],
      "stateMutability": "payable",
      "type": "function"
    },
    {
      "inputs": [
        {
          "internalType": "address",
          "name": "_asset",
          "type": "address"
        },
        {
          "internalType": "address",
          "name": "_to",
          "type": "address"
        },
        {
          "internalType": "uint32",
          "name": "_destinationDomain",
          "type": "uint32"
        },
        {
          "internalType": "uint256",
          "name": "_amount",
          "type": "uint256"
        },
        {
          "internalType": "uint256",
          "name": "_relayerFee",
          "type": "uint256"
        }
      ],
      "name": "connextTokenTransfer",
      "outputs": [],
      "stateMutability": "payable",
      "type": "function"
    },
    {
      "inputs": [
        {
          "internalType": "address",
          "name": "_connext",
          "type": "address"
        },
        {
          "internalType": "uint32",
          "name": "_domainId",
          "type": "uint32"
        }
      ],
      "name": "initConnext",
      "outputs": [],
      "stateMutability": "nonpayable",
      "type": "function"
    }
  ],
  "bytecode": "0x608060405234801561001057600080fd5b506110ab806100206000396000f3fe60806040526004361061003f5760003560e01c80635fc0e73614610044578063a520f8df14610059578063b5f63d6b1461006c578063d858af201461008c575b600080fd5b610057610052366004610bb7565b61009f565b005b610057610067366004610c0c565b610196565b34801561007857600080fd5b50610057610087366004610c48565b61026d565b61005761009a366004610caa565b6103b5565b600061010b85604051806020016040528060008152506100fc7ffa2e9c22c7fe2104814a1d7e2c66c58d10a2d7989d5bcf01173a2564aa59c04d5463ffffffff740100000000000000000000000000000000000000009091041690565b878a888833600080600061047c565b90508573ffffffffffffffffffffffffffffffffffffffff168573ffffffffffffffffffffffffffffffffffffffff168563ffffffff167f1a0290ac7c224ab0140c811403ba545f80e92404b9979b69e52b3f589bc1c1e0868686604051610186939291909283526020830191909152604082015260600190565b60405180910390a4505050505050565b600061020384604051806020016040528060008152506101f37ffa2e9c22c7fe2104814a1d7e2c66c58d10a2d7989d5bcf01173a2564aa59c04d5463ffffffff740100000000000000000000000000000000000000009091041690565b866000348833600080600061047c565b604080513481526020810185905290810182905290915073ffffffffffffffffffffffffffffffffffffffff85169063ffffffff8516907fb47dd05ba9e0eb3ec95a42c27945552b2a232180e3b6441c20d4d5bff04ede959060600160405180910390a350505050565b610275610760565b73ffffffffffffffffffffffffffffffffffffffff82166102f7576040517f08c379a000000000000000000000000000000000000000000000000000000000815260206004820152601860248201527f436f6e6e6578743a20696e76616c69642061646472657373000000000000000060448201526064015b60405180910390fd5b60007ffa2e9c22c7fe2104814a1d7e2c66c58d10a2d7989d5bcf01173a2564aa59c04d805473ffffffffffffffffffffffffffffffffffffffff85167fffffffffffffffff00000000000000000000000000000000000000000000000090911681177401000000000000000000000000000000000000000063ffffffff8616021782556040519081529091507ffcbf7a247efac41495da0df0e3ef60d8f0dd28dc5c86461b56507b29322dd8a09060200160405180910390a1505050565b60006104118a8a6104037ffa2e9c22c7fe2104814a1d7e2c66c58d10a2d7989d5bcf01173a2564aa59c04d5463ffffffff740100000000000000000000000000000000000000009091041690565b8b8b8b8b8b8b8b600061047c565b90508973ffffffffffffffffffffffffffffffffffffffff168863ffffffff167f0f54f42e149762e432717bddc67b5ffb97adff1fd377dd688d9747bc8c1aab3d89898d8a87604051610468959493929190610e55565b60405180910390a350505050505050505050565b600061048a8888888661082b565b73ffffffffffffffffffffffffffffffffffffffff881615610598578773ffffffffffffffffffffffffffffffffffffffff1663095ea7b36105007ffa2e9c22c7fe2104814a1d7e2c66c58d10a2d7989d5bcf01173a2564aa59c04d5473ffffffffffffffffffffffffffffffffffffffff1690565b6040517fffffffff0000000000000000000000000000000000000000000000000000000060e084901b16815273ffffffffffffffffffffffffffffffffffffffff9091166004820152602481018a90526044016020604051808303816000875af1158015610572573d6000803e3d6000fd5b505050506040513d601f19601f820116820180604052508101906105969190610e9e565b505b60006105d87ffa2e9c22c7fe2104814a1d7e2c66c58d10a2d7989d5bcf01173a2564aa59c04d5473ffffffffffffffffffffffffffffffffffffffff1690565b905060006040518061018001604052808f73ffffffffffffffffffffffffffffffffffffffff1681526020018e81526020018d63ffffffff1681526020018c63ffffffff1681526020018f73ffffffffffffffffffffffffffffffffffffffff1681526020018873ffffffffffffffffffffffffffffffffffffffff16815260200185151581526020016000151581526020018773ffffffffffffffffffffffffffffffffffffffff16815260200186815260200189815260200161270b8152509050600060405180606001604052808381526020018c73ffffffffffffffffffffffffffffffffffffffff1681526020018b81525090508273ffffffffffffffffffffffffffffffffffffffff16636c0636a134836040518363ffffffff1660e01b815260040161070a9190610ec7565b60206040518083038185885af1158015610728573d6000803e3d6000fd5b50505050506040513d601f19601f8201168201806040525081019061074d9190611027565b9f9e505050505050505050505050505050565b7fc8fcad8db84d3cc18b4c41d551ea0ee66dd599cde068d998e57d5e09332c131c6004015473ffffffffffffffffffffffffffffffffffffffff163314610829576040517f08c379a000000000000000000000000000000000000000000000000000000000815260206004820152602260248201527f4c69624469616d6f6e643a204d75737420626520636f6e7472616374206f776e60448201527f657200000000000000000000000000000000000000000000000000000000000060648201526084016102ee565b565b73ffffffffffffffffffffffffffffffffffffffff84166108c85780610851838561106f565b61085b919061106f565b34146108c3576040517f08c379a000000000000000000000000000000000000000000000000000000000815260206004820152601660248201527f436f6e6e6578743a20496e76616c69642076616c75650000000000000000000060448201526064016102ee565b610b74565b6108d2818361106f565b341461093a576040517f08c379a000000000000000000000000000000000000000000000000000000000815260206004820152601660248201527f436f6e6e6578743a20496e76616c69642076616c75650000000000000000000060448201526064016102ee565b6040517f70a0823100000000000000000000000000000000000000000000000000000000815230600482015260009073ffffffffffffffffffffffffffffffffffffffff8616906370a0823190602401602060405180830381865afa1580156109a7573d6000803e3d6000fd5b505050506040513d601f19601f820116820180604052508101906109cb9190611027565b6040517f23b872dd0000000000000000000000000000000000000000000000000000000081523360048201523060248201526044810186905290915073ffffffffffffffffffffffffffffffffffffffff8616906323b872dd906064016020604051808303816000875af1158015610a47573d6000803e3d6000fd5b505050506040513d601f19601f82011682018060405250810190610a6b9190610e9e565b506040517f70a0823100000000000000000000000000000000000000000000000000000000815230600482015260009073ffffffffffffffffffffffffffffffffffffffff8716906370a0823190602401602060405180830381865afa158015610ad9573d6000803e3d6000fd5b505050506040513d601f19601f82011682018060405250810190610afd9190611027565b905084610b0a8383611087565b14610b71576040517f08c379a000000000000000000000000000000000000000000000000000000000815260206004820152601660248201527f436f6e6e6578743a20496e76616c69642076616c75650000000000000000000060448201526064016102ee565b50505b50505050565b803573ffffffffffffffffffffffffffffffffffffffff81168114610b9e57600080fd5b919050565b803563ffffffff81168114610b9e57600080fd5b600080600080600060a08688031215610bcf57600080fd5b610bd886610b7a565b9450610be660208701610b7a565b9350610bf460408701610ba3565b94979396509394606081013594506080013592915050565b600080600060608486031215610c2157600080fd5b610c2a84610b7a565b9250610c3860208501610ba3565b9150604084013590509250925092565b60008060408385031215610c5b57600080fd5b610c6483610b7a565b9150610c7260208401610ba3565b90509250929050565b7f4e487b7100000000000000000000000000000000000000000000000000000000600052604160045260246000fd5b60008060008060008060008060006101208a8c031215610cc957600080fd5b610cd28a610b7a565b985060208a013567ffffffffffffffff80821115610cef57600080fd5b818c0191508c601f830112610d0357600080fd5b813581811115610d1557610d15610c7b565b604051601f82017fffffffffffffffffffffffffffffffffffffffffffffffffffffffffffffffe0908116603f01168101908382118183101715610d5b57610d5b610c7b565b816040528281528f6020848701011115610d7457600080fd5b82602086016020830137600060208483010152809c505050505050610d9b60408b01610ba3565b9650610da960608b01610b7a565b955060808a0135945060a08a01359350610dc560c08b01610b7a565b9250610dd360e08b01610b7a565b91506101008a013590509295985092959850929598565b6000815180845260005b81811015610e1057602081850181015186830182015201610df4565b81811115610e22576000602083870101525b50601f017fffffffffffffffffffffffffffffffffffffffffffffffffffffffffffffffe0169290920160200192915050565b73ffffffffffffffffffffffffffffffffffffffff8616815284602082015260a060408201526000610e8a60a0830186610dea565b606083019490945250608001529392505050565b600060208284031215610eb057600080fd5b81518015158114610ec057600080fd5b9392505050565b602081526000825160606020840152610ef960808401825173ffffffffffffffffffffffffffffffffffffffff169052565b60208101516101808060a0860152610f15610200860183610dea565b91506040830151610f2e60c087018263ffffffff169052565b50606083015163ffffffff811660e0870152506080830151610100610f6a8188018373ffffffffffffffffffffffffffffffffffffffff169052565b60a08501519150610120610f958189018473ffffffffffffffffffffffffffffffffffffffff169052565b60c08601519250610140610fac818a018515159052565b60e08701519350610160610fc3818b018615159052565b9287015173ffffffffffffffffffffffffffffffffffffffff908116958a0195909552908601516101a08901528501516101c0880152909301516101e086015260208601519081166040860152915060408501516060850152809250505092915050565b60006020828403121561103957600080fd5b5051919050565b7f4e487b7100000000000000000000000000000000000000000000000000000000600052601160045260246000fd5b6000821982111561108257611082611040565b500190565b60008282101561109957611099611040565b50039056fea164736f6c634300080f000a",
  "linkReferences": {},
  "deployedLinkReferences": {}
}