{
  "_format": "hh-sol-artifact-1",
  "contractName": "ConnextFacet",
  "sourceName": "src/bridges/facets/ConnextFacet.sol",
  "abi": [
    {
      "anonymous": false,
      "inputs": [
        {
          "indexed": false,
          "internalType": "address",
          "name": "_connext",
          "type": "address"
        }
      ],
      "name": "ConnextInitialized",
      "type": "event"
    },
    {
      "anonymous": false,
      "inputs": [
        {
          "indexed": true,
          "internalType": "uint32",
          "name": "_destination",
          "type": "uint32"
        },
        {
          "indexed": true,
          "internalType": "address",
          "name": "_recipient",
          "type": "address"
        },
        {
          "indexed": false,
          "internalType": "uint256",
          "name": "_amount",
          "type": "uint256"
        },
        {
          "indexed": false,
          "internalType": "uint256",
          "name": "_relayerFee",
          "type": "uint256"
        },
        {
          "indexed": false,
          "internalType": "bytes32",
          "name": "_transferId",
          "type": "bytes32"
        }
      ],
      "name": "ConnextNativeSwap",
      "type": "event"
    },
    {
      "anonymous": false,
      "inputs": [
        {
          "indexed": true,
          "internalType": "uint32",
          "name": "_destination",
          "type": "uint32"
        },
        {
          "indexed": true,
          "internalType": "address",
          "name": "_recipient",
          "type": "address"
        },
        {
          "indexed": true,
          "internalType": "address",
          "name": "_asset",
          "type": "address"
        },
        {
          "indexed": false,
          "internalType": "uint256",
          "name": "_amount",
          "type": "uint256"
        },
        {
          "indexed": false,
          "internalType": "uint256",
          "name": "_relayerFee",
          "type": "uint256"
        },
        {
          "indexed": false,
          "internalType": "bytes32",
          "name": "_transferId",
          "type": "bytes32"
        }
      ],
      "name": "ConnextTokenSwap",
      "type": "event"
    },
    {
      "anonymous": false,
      "inputs": [
        {
          "indexed": true,
          "internalType": "uint32",
          "name": "_destination",
          "type": "uint32"
        },
        {
          "indexed": true,
          "internalType": "address",
          "name": "_recipient",
          "type": "address"
        },
        {
          "indexed": false,
          "internalType": "address",
          "name": "_asset",
          "type": "address"
        },
        {
          "indexed": false,
          "internalType": "uint256",
          "name": "_amount",
          "type": "uint256"
        },
        {
          "indexed": false,
          "internalType": "bytes",
          "name": "_callData",
          "type": "bytes"
        },
        {
          "indexed": false,
          "internalType": "uint256",
          "name": "_relayerFee",
          "type": "uint256"
        },
        {
          "indexed": false,
          "internalType": "bytes32",
          "name": "_transferId",
          "type": "bytes32"
        }
      ],
      "name": "ConnextXCall",
      "type": "event"
    },
    {
      "inputs": [
        {
          "internalType": "bytes8",
          "name": "c__9fd86305",
          "type": "bytes8"
        }
      ],
      "name": "c_9fd86305",
      "outputs": [],
      "stateMutability": "pure",
      "type": "function"
    },
    {
      "inputs": [
        {
          "internalType": "bytes8",
          "name": "c__9fd86305",
          "type": "bytes8"
        }
      ],
      "name": "c_false9fd86305",
      "outputs": [
        {
          "internalType": "bool",
          "name": "",
          "type": "bool"
        }
      ],
      "stateMutability": "pure",
      "type": "function"
    },
    {
      "inputs": [
        {
          "internalType": "bytes8",
          "name": "c__9fd86305",
          "type": "bytes8"
        }
      ],
      "name": "c_true9fd86305",
      "outputs": [
        {
          "internalType": "bool",
          "name": "",
          "type": "bool"
        }
      ],
      "stateMutability": "pure",
      "type": "function"
    },
    {
      "inputs": [
        {
          "internalType": "address",
          "name": "_to",
          "type": "address"
        },
        {
          "internalType": "bytes",
          "name": "_callData",
          "type": "bytes"
        },
        {
          "internalType": "uint32",
          "name": "_destinationDomain",
          "type": "uint32"
        },
        {
          "internalType": "address",
          "name": "_asset",
          "type": "address"
        },
        {
          "internalType": "uint256",
          "name": "_amount",
          "type": "uint256"
        },
        {
          "internalType": "uint256",
          "name": "_relayerFee",
          "type": "uint256"
        },
        {
          "internalType": "address",
          "name": "_recovery",
          "type": "address"
        },
        {
          "internalType": "address",
          "name": "_callback",
          "type": "address"
        },
        {
          "internalType": "uint256",
          "name": "_callbackFee",
          "type": "uint256"
        }
      ],
      "name": "connextCall",
      "outputs": [],
      "stateMutability": "payable",
      "type": "function"
    },
    {
      "inputs": [
        {
          "internalType": "address",
          "name": "_to",
          "type": "address"
        },
        {
          "internalType": "uint32",
          "name": "_destinationDomain",
          "type": "uint32"
        },
        {
          "internalType": "uint256",
          "name": "_relayerFee",
          "type": "uint256"
        }
      ],
      "name": "connextNativeAssetTransfer",
      "outputs": [],
      "stateMutability": "payable",
      "type": "function"
    },
    {
      "inputs": [
        {
          "internalType": "address",
          "name": "_asset",
          "type": "address"
        },
        {
          "internalType": "address",
          "name": "_to",
          "type": "address"
        },
        {
          "internalType": "uint32",
          "name": "_destinationDomain",
          "type": "uint32"
        },
        {
          "internalType": "uint256",
          "name": "_amount",
          "type": "uint256"
        },
        {
          "internalType": "uint256",
          "name": "_relayerFee",
          "type": "uint256"
        }
      ],
      "name": "connextTokenTransfer",
      "outputs": [],
      "stateMutability": "payable",
      "type": "function"
    },
    {
      "inputs": [
        {
          "internalType": "address",
          "name": "_connext",
          "type": "address"
        },
        {
          "internalType": "uint32",
          "name": "_domainId",
          "type": "uint32"
        }
      ],
      "name": "initConnext",
      "outputs": [],
      "stateMutability": "nonpayable",
      "type": "function"
    }
  ],
  "bytecode": "0x608060405234801561001057600080fd5b50611d89806100206000396000f3fe6080604052600436106100705760003560e01c8063b5f63d6b1161004e578063b5f63d6b146100ea578063cca8c47814610113578063d858af201461013c578063db2379a61461015857610070565b80635fc0e736146100755780636c11f1f814610091578063a520f8df146100ce575b600080fd5b61008f600480360381019061008a91906112c4565b610195565b005b34801561009d57600080fd5b506100b860048036038101906100b39190611397565b6102a0565b6040516100c591906113df565b60405180910390f35b6100e860048036038101906100e391906113fa565b6102a7565b005b3480156100f657600080fd5b50610111600480360381019061010c919061144d565b61039a565b005b34801561011f57600080fd5b5061013a60048036038101906101359190611397565b6105c4565b005b610156600480360381019061015191906115d3565b6105c7565b005b34801561016457600080fd5b5061017f600480360381019061017a9190611397565b6106b3565b60405161018c91906113df565b60405180910390f35b6101a9673b24d6e9ce1947ac60c01b6105c4565b6101bd67868ef8527e9ffa3d60c01b6105c4565b6101d16754943e14a9ec70f160c01b6105c4565b60006101fe85604051806020016040528060008152506101ef6106be565b878a888833600080600061074b565b905061021467031ceab62ce72c8860c01b6105c4565b61022867e3ba0e6253855fd360c01b6105c4565b8573ffffffffffffffffffffffffffffffffffffffff168573ffffffffffffffffffffffffffffffffffffffff168563ffffffff167f1a0290ac7c224ab0140c811403ba545f80e92404b9979b69e52b3f589bc1c1e0868686604051610290939291906116e1565b60405180910390a4505050505050565b6000919050565b6102bb67c790ffa20e34c84860c01b6105c4565b6102cf677485bbef532263e460c01b6105c4565b6102e367af3674279270b17260c01b6105c4565b600061031184604051806020016040528060008152506103016106be565b866000348833600080600061074b565b9050610327676ee3869cb225056b60c01b6105c4565b61033b67e2a1bcfa23874dbb60c01b6105c4565b8373ffffffffffffffffffffffffffffffffffffffff168363ffffffff167fb47dd05ba9e0eb3ec95a42c27945552b2a232180e3b6441c20d4d5bff04ede9534858560405161038c939291906116e1565b60405180910390a350505050565b6103ae67a0fc7cea5847ec7060c01b6105c4565b6103c267add0ee288f09546360c01b6105c4565b6103d6670b8f8dd6022bfff160c01b6105c4565b6103de610ac8565b6103f26760ea5c4b02f8cb2a60c01b6105c4565b610406672d30a3ddd13052be60c01b6105c4565b61041a67e67559f447e7783160c01b6105c4565b600073ffffffffffffffffffffffffffffffffffffffff168273ffffffffffffffffffffffffffffffffffffffff16141561048a576040517f08c379a000000000000000000000000000000000000000000000000000000000815260040161048190611775565b60405180910390fd5b61049e67148135d2e4d81e4060c01b6105c4565b6104b267998aafdacc64621660c01b6105c4565b6104c667379a77d89720999d60c01b6105c4565b60006104d0610bc7565b90506104e667929689913d610cac60c01b6105c4565b828160000160006101000a81548173ffffffffffffffffffffffffffffffffffffffff021916908373ffffffffffffffffffffffffffffffffffffffff16021790555061053d67c69783dc34ec489f60c01b6105c4565b818160000160146101000a81548163ffffffff021916908363ffffffff160217905550610574679d4a42d5041ae68d60c01b6105c4565b61058867bb36a9b854f7f8fb60c01b6105c4565b7ffcbf7a247efac41495da0df0e3ef60d8f0dd28dc5c86461b56507b29322dd8a0836040516105b791906117a4565b60405180910390a1505050565b50565b6105db6719c064e1f6b3230860c01b6105c4565b6105ef67b8aafdde56995f1d60c01b6105c4565b610603678dc2cc07e9b7bb6560c01b6105c4565b60006106208a8a6106126106be565b8b8b8b8b8b8b8b600061074b565b90506106366718daa21da88ac54060c01b6105c4565b61064a67e16842c55013ddd160c01b6105c4565b8973ffffffffffffffffffffffffffffffffffffffff168863ffffffff167f0f54f42e149762e432717bddc67b5ffb97adff1fd377dd688d9747bc8c1aab3d89898d8a8760405161069f959493929190611847565b60405180910390a350505050505050505050565b600060019050919050565b60006106d4670b79641977d9dc3c60c01b6105c4565b6106e867f0ae7772f848687760c01b6105c4565b6106fc67a6aebef8c31342a860c01b6105c4565b6000610706610bc7565b905061071c67a939ff2b4327765260c01b6105c4565b61073067b03ff9debcd017f160c01b6105c4565b8060000160149054906101000a900463ffffffff1691505090565b6000610761673915943bb5dc646360c01b6105c4565b6107756794d5293357684e2360c01b6105c4565b61078967b00e811488b6794f60c01b6105c4565b61079588888886610c45565b6107a967d566a719d9ef44ee60c01b6105c4565b6107bd67c6ca26cf82b6ca5560c01b6105c4565b600073ffffffffffffffffffffffffffffffffffffffff168873ffffffffffffffffffffffffffffffffffffffff16146108b857610805670ecff3568c42c32160c01b6105c4565b610819671e978040300865ba60c01b6105c4565b61082d67f6a78cd4ee0cc95160c01b6105c4565b8773ffffffffffffffffffffffffffffffffffffffff1663095ea7b36108516110c3565b896040518363ffffffff1660e01b815260040161086f9291906118a1565b6020604051808303816000875af115801561088e573d6000803e3d6000fd5b505050506040513d601f19601f820116820180604052508101906108b291906118f6565b506108cd565b6108cc6728a4e0962a46f3b960c01b6105c4565b5b6108e16730706da46083811560c01b6105c4565b6108f567b93dceac6f4764f660c01b6105c4565b60006108ff6110c3565b905061091567cefc56c76af0626660c01b6105c4565b61092967c7b36e3b6bb025cb60c01b6105c4565b60006040518061012001604052808f73ffffffffffffffffffffffffffffffffffffffff1681526020018e81526020018d63ffffffff1681526020018c63ffffffff1681526020018873ffffffffffffffffffffffffffffffffffffffff1681526020018773ffffffffffffffffffffffffffffffffffffffff16815260200186815260200185151581526020016000151581525090506109d46720e5e9cee30f154e60c01b6105c4565b6109e867ff71980f60696f0960c01b6105c4565b600060405180608001604052808381526020018c73ffffffffffffffffffffffffffffffffffffffff1681526020018b81526020018a8152509050610a376767ee8ffea0af4fba60c01b6105c4565b8273ffffffffffffffffffffffffffffffffffffffff16634156a88334836040518363ffffffff1660e01b8152600401610a719190611ad1565b60206040518083038185885af1158015610a8f573d6000803e3d6000fd5b50505050506040513d601f19601f82011682018060405250810190610ab49190611b1f565b93505050509b9a5050505050505050505050565b610adc679eee40465793ea5060c01b611160565b610af067a5e606b4a7bbd01c60c01b611160565b610b046795e427799384b20060c01b611160565b610b186773e3160fa84aeb9960c01b611160565b610b20611163565b60040160009054906101000a900473ffffffffffffffffffffffffffffffffffffffff1673ffffffffffffffffffffffffffffffffffffffff163373ffffffffffffffffffffffffffffffffffffffff1614610bb1576040517f08c379a0000000000000000000000000000000000000000000000000000000008152600401610ba890611bbe565b60405180910390fd5b610bc567abcba4e5adbea94260c01b611160565b565b6000610bdd67ee4669edac2fce6360c01b6105c4565b610bf1679e04cb22cba0b43460c01b6105c4565b610c056737e3a4c5fcc5470560c01b6105c4565b60007fa4cabcf91d6212ba2873e2f19de6e26ae65fd3280b9eaa6d8bc38c5fba52ec9d9050610c3e6778be41c23e64a8d060c01b6105c4565b8091505090565b610c5967938c7f3bed7c7f9160c01b6105c4565b610c6d678da37ff43d16a5a060c01b6105c4565b610c8167011c9790ac6ab11660c01b6105c4565b600073ffffffffffffffffffffffffffffffffffffffff168473ffffffffffffffffffffffffffffffffffffffff161415610d7757610cca67337f6fee472ebb1060c01b6105c4565b610cde6714be610e00896e0c60c01b6105c4565b610cf267878cb777f2028ec760c01b6105c4565b610d0667e020fd4c40f4463660c01b6105c4565b808284610d139190611c0d565b610d1d9190611c0d565b3414610d5e576040517f08c379a0000000000000000000000000000000000000000000000000000000008152600401610d5590611caf565b60405180910390fd5b610d726717eee3f301fca86c60c01b6105c4565b6110bd565b610d8b67f2b6d98993a5048e60c01b6105c4565b610d9f675b00bea454b0db3e60c01b6105c4565b610db367978012ca145ffda460c01b6105c4565b610dc7671c0f58574929da5860c01b6105c4565b8082610dd39190611c0d565b3414610e14576040517f08c379a0000000000000000000000000000000000000000000000000000000008152600401610e0b90611caf565b60405180910390fd5b610e2867e9187a0a3906ff7060c01b6105c4565b610e3c6719a14816750d630160c01b6105c4565b610e5067166fa82ac78e01da60c01b6105c4565b60008473ffffffffffffffffffffffffffffffffffffffff166370a08231306040518263ffffffff1660e01b8152600401610e8b91906117a4565b602060405180830381865afa158015610ea8573d6000803e3d6000fd5b505050506040513d601f19601f82011682018060405250810190610ecc9190611ce4565b9050610ee2675e538da37288815260c01b6105c4565b610ef667c4bb4be56d78ff7960c01b6105c4565b8473ffffffffffffffffffffffffffffffffffffffff166323b872dd3330876040518463ffffffff1660e01b8152600401610f3393929190611d11565b6020604051808303816000875af1158015610f52573d6000803e3d6000fd5b505050506040513d601f19601f82011682018060405250810190610f7691906118f6565b50610f8b673c772c76e6599f0f60c01b6105c4565b610f9f67cc1d50d6eb673a4860c01b6105c4565b60008573ffffffffffffffffffffffffffffffffffffffff166370a08231306040518263ffffffff1660e01b8152600401610fda91906117a4565b602060405180830381865afa158015610ff7573d6000803e3d6000fd5b505050506040513d601f19601f8201168201806040525081019061101b9190611ce4565b905061103167bb14488e21eebe6960c01b6105c4565b6110456704c0b2d1c630578b60c01b6105c4565b61105967fcda0c579683914860c01b6105c4565b8482826110669190611d48565b146110a6576040517f08c379a000000000000000000000000000000000000000000000000000000000815260040161109d90611caf565b60405180910390fd5b6110ba67cd6f60e5679931e660c01b6105c4565b50505b50505050565b60006110d967c24fe5ef805f03ee60c01b6105c4565b6110ed67aa35d68407adb22f60c01b6105c4565b611101671d3157cb8cbc6d8d60c01b6105c4565b600061110b610bc7565b905061112167e9434528943af7a260c01b6105c4565b6111356734a2ccb1f64b6b0660c01b6105c4565b8060000160009054906101000a900473ffffffffffffffffffffffffffffffffffffffff1691505090565b50565b600061117866c6fbd4fbaed54a60c01b611160565b61118c67714552e98475403a60c01b611160565b6111a0674b20cd335540d24060c01b611160565b60007fc8fcad8db84d3cc18b4c41d551ea0ee66dd599cde068d998e57d5e09332c131c90506111d96757acb9403953294960c01b611160565b8091505090565b6000604051905090565b600080fd5b600080fd5b600073ffffffffffffffffffffffffffffffffffffffff82169050919050565b600061121f826111f4565b9050919050565b61122f81611214565b811461123a57600080fd5b50565b60008135905061124c81611226565b92915050565b600063ffffffff82169050919050565b61126b81611252565b811461127657600080fd5b50565b60008135905061128881611262565b92915050565b6000819050919050565b6112a18161128e565b81146112ac57600080fd5b50565b6000813590506112be81611298565b92915050565b600080600080600060a086880312156112e0576112df6111ea565b5b60006112ee8882890161123d565b95505060206112ff8882890161123d565b945050604061131088828901611279565b9350506060611321888289016112af565b9250506080611332888289016112af565b9150509295509295909350565b60007fffffffffffffffff00000000000000000000000000000000000000000000000082169050919050565b6113748161133f565b811461137f57600080fd5b50565b6000813590506113918161136b565b92915050565b6000602082840312156113ad576113ac6111ea565b5b60006113bb84828501611382565b91505092915050565b60008115159050919050565b6113d9816113c4565b82525050565b60006020820190506113f460008301846113d0565b92915050565b600080600060608486031215611413576114126111ea565b5b60006114218682870161123d565b935050602061143286828701611279565b9250506040611443868287016112af565b9150509250925092565b60008060408385031215611464576114636111ea565b5b60006114728582860161123d565b925050602061148385828601611279565b9150509250929050565b600080fd5b600080fd5b6000601f19601f8301169050919050565b7f4e487b7100000000000000000000000000000000000000000000000000000000600052604160045260246000fd5b6114e082611497565b810181811067ffffffffffffffff821117156114ff576114fe6114a8565b5b80604052505050565b60006115126111e0565b905061151e82826114d7565b919050565b600067ffffffffffffffff82111561153e5761153d6114a8565b5b61154782611497565b9050602081019050919050565b82818337600083830152505050565b600061157661157184611523565b611508565b90508281526020810184848401111561159257611591611492565b5b61159d848285611554565b509392505050565b600082601f8301126115ba576115b961148d565b5b81356115ca848260208601611563565b91505092915050565b60008060008060008060008060006101208a8c0312156115f6576115f56111ea565b5b60006116048c828d0161123d565b99505060208a013567ffffffffffffffff811115611625576116246111ef565b5b6116318c828d016115a5565b98505060406116428c828d01611279565b97505060606116538c828d0161123d565b96505060806116648c828d016112af565b95505060a06116758c828d016112af565b94505060c06116868c828d0161123d565b93505060e06116978c828d0161123d565b9250506101006116a98c828d016112af565b9150509295985092959850929598565b6116c28161128e565b82525050565b6000819050919050565b6116db816116c8565b82525050565b60006060820190506116f660008301866116b9565b61170360208301856116b9565b61171060408301846116d2565b949350505050565b600082825260208201905092915050565b7f436f6e6e6578743a20696e76616c696420616464726573730000000000000000600082015250565b600061175f601883611718565b915061176a82611729565b602082019050919050565b6000602082019050818103600083015261178e81611752565b9050919050565b61179e81611214565b82525050565b60006020820190506117b96000830184611795565b92915050565b600081519050919050565b600082825260208201905092915050565b60005b838110156117f95780820151818401526020810190506117de565b83811115611808576000848401525b50505050565b6000611819826117bf565b61182381856117ca565b93506118338185602086016117db565b61183c81611497565b840191505092915050565b600060a08201905061185c6000830188611795565b61186960208301876116b9565b818103604083015261187b818661180e565b905061188a60608301856116b9565b61189760808301846116d2565b9695505050505050565b60006040820190506118b66000830185611795565b6118c360208301846116b9565b9392505050565b6118d3816113c4565b81146118de57600080fd5b50565b6000815190506118f0816118ca565b92915050565b60006020828403121561190c5761190b6111ea565b5b600061191a848285016118e1565b91505092915050565b61192c81611214565b82525050565b600082825260208201905092915050565b600061194e826117bf565b6119588185611932565b93506119688185602086016117db565b61197181611497565b840191505092915050565b61198581611252565b82525050565b6119948161128e565b82525050565b6119a3816113c4565b82525050565b6000610120830160008301516119c26000860182611923565b50602083015184820360208601526119da8282611943565b91505060408301516119ef604086018261197c565b506060830151611a02606086018261197c565b506080830151611a156080860182611923565b5060a0830151611a2860a0860182611923565b5060c0830151611a3b60c086018261198b565b5060e0830151611a4e60e086018261199a565b50610100830151611a6361010086018261199a565b508091505092915050565b60006080830160008301518482036000860152611a8b82826119a9565b9150506020830151611aa06020860182611923565b506040830151611ab3604086018261198b565b506060830151611ac6606086018261198b565b508091505092915050565b60006020820190508181036000830152611aeb8184611a6e565b905092915050565b611afc816116c8565b8114611b0757600080fd5b50565b600081519050611b1981611af3565b92915050565b600060208284031215611b3557611b346111ea565b5b6000611b4384828501611b0a565b91505092915050565b7f4c69624469616d6f6e643a204d75737420626520636f6e7472616374206f776e60008201527f6572000000000000000000000000000000000000000000000000000000000000602082015250565b6000611ba8602283611718565b9150611bb382611b4c565b604082019050919050565b60006020820190508181036000830152611bd781611b9b565b9050919050565b7f4e487b7100000000000000000000000000000000000000000000000000000000600052601160045260246000fd5b6000611c188261128e565b9150611c238361128e565b9250827fffffffffffffffffffffffffffffffffffffffffffffffffffffffffffffffff03821115611c5857611c57611bde565b5b828201905092915050565b7f436f6e6e6578743a20496e76616c69642076616c756500000000000000000000600082015250565b6000611c99601683611718565b9150611ca482611c63565b602082019050919050565b60006020820190508181036000830152611cc881611c8c565b9050919050565b600081519050611cde81611298565b92915050565b600060208284031215611cfa57611cf96111ea565b5b6000611d0884828501611ccf565b91505092915050565b6000606082019050611d266000830186611795565b611d336020830185611795565b611d4060408301846116b9565b949350505050565b6000611d538261128e565b9150611d5e8361128e565b925082821015611d7157611d70611bde565b5b82820390509291505056fea164736f6c634300080b000a",
  "linkReferences": {},
  "deployedLinkReferences": {}
}