{
  "_format": "hh-sol-artifact-1",
  "contractName": "DeBridgeToken",
  "sourceName": "src/diamond/periphery/DeBridgeToken.sol",
  "abi": [
    {
      "inputs": [],
      "name": "MinterBadRole",
      "type": "error"
    },
    {
      "inputs": [],
      "name": "PauserBadRole",
      "type": "error"
    },
    {
      "anonymous": false,
      "inputs": [
        {
          "indexed": true,
          "internalType": "address",
          "name": "owner",
          "type": "address"
        },
        {
          "indexed": true,
          "internalType": "address",
          "name": "spender",
          "type": "address"
        },
        {
          "indexed": false,
          "internalType": "uint256",
          "name": "value",
          "type": "uint256"
        }
      ],
      "name": "Approval",
      "type": "event"
    },
    {
      "anonymous": false,
      "inputs": [
        {
          "indexed": false,
          "internalType": "uint8",
          "name": "version",
          "type": "uint8"
        }
      ],
      "name": "Initialized",
      "type": "event"
    },
    {
      "anonymous": false,
      "inputs": [
        {
          "indexed": false,
          "internalType": "address",
          "name": "account",
          "type": "address"
        }
      ],
      "name": "Paused",
      "type": "event"
    },
    {
      "anonymous": false,
      "inputs": [
        {
          "indexed": true,
          "internalType": "bytes32",
          "name": "role",
          "type": "bytes32"
        },
        {
          "indexed": true,
          "internalType": "bytes32",
          "name": "previousAdminRole",
          "type": "bytes32"
        },
        {
          "indexed": true,
          "internalType": "bytes32",
          "name": "newAdminRole",
          "type": "bytes32"
        }
      ],
      "name": "RoleAdminChanged",
      "type": "event"
    },
    {
      "anonymous": false,
      "inputs": [
        {
          "indexed": true,
          "internalType": "bytes32",
          "name": "role",
          "type": "bytes32"
        },
        {
          "indexed": true,
          "internalType": "address",
          "name": "account",
          "type": "address"
        },
        {
          "indexed": true,
          "internalType": "address",
          "name": "sender",
          "type": "address"
        }
      ],
      "name": "RoleGranted",
      "type": "event"
    },
    {
      "anonymous": false,
      "inputs": [
        {
          "indexed": true,
          "internalType": "bytes32",
          "name": "role",
          "type": "bytes32"
        },
        {
          "indexed": true,
          "internalType": "address",
          "name": "account",
          "type": "address"
        },
        {
          "indexed": true,
          "internalType": "address",
          "name": "sender",
          "type": "address"
        }
      ],
      "name": "RoleRevoked",
      "type": "event"
    },
    {
      "anonymous": false,
      "inputs": [
        {
          "indexed": true,
          "internalType": "address",
          "name": "from",
          "type": "address"
        },
        {
          "indexed": true,
          "internalType": "address",
          "name": "to",
          "type": "address"
        },
        {
          "indexed": false,
          "internalType": "uint256",
          "name": "value",
          "type": "uint256"
        }
      ],
      "name": "Transfer",
      "type": "event"
    },
    {
      "anonymous": false,
      "inputs": [
        {
          "indexed": false,
          "internalType": "address",
          "name": "account",
          "type": "address"
        }
      ],
      "name": "Unpaused",
      "type": "event"
    },
    {
      "inputs": [],
      "name": "DEFAULT_ADMIN_ROLE",
      "outputs": [
        {
          "internalType": "bytes32",
          "name": "",
          "type": "bytes32"
        }
      ],
      "stateMutability": "view",
      "type": "function"
    },
    {
      "inputs": [],
      "name": "DOMAIN_SEPARATOR",
      "outputs": [
        {
          "internalType": "bytes32",
          "name": "",
          "type": "bytes32"
        }
      ],
      "stateMutability": "view",
      "type": "function"
    },
    {
      "inputs": [],
      "name": "MINTER_ROLE",
      "outputs": [
        {
          "internalType": "bytes32",
          "name": "",
          "type": "bytes32"
        }
      ],
      "stateMutability": "view",
      "type": "function"
    },
    {
      "inputs": [],
      "name": "PAUSER_ROLE",
      "outputs": [
        {
          "internalType": "bytes32",
          "name": "",
          "type": "bytes32"
        }
      ],
      "stateMutability": "view",
      "type": "function"
    },
    {
      "inputs": [],
      "name": "PERMIT_TYPEHASH",
      "outputs": [
        {
          "internalType": "bytes32",
          "name": "",
          "type": "bytes32"
        }
      ],
      "stateMutability": "view",
      "type": "function"
    },
    {
      "inputs": [
        {
          "internalType": "address",
          "name": "owner",
          "type": "address"
        },
        {
          "internalType": "address",
          "name": "spender",
          "type": "address"
        }
      ],
      "name": "allowance",
      "outputs": [
        {
          "internalType": "uint256",
          "name": "",
          "type": "uint256"
        }
      ],
      "stateMutability": "view",
      "type": "function"
    },
    {
      "inputs": [
        {
          "internalType": "address",
          "name": "spender",
          "type": "address"
        },
        {
          "internalType": "uint256",
          "name": "amount",
          "type": "uint256"
        }
      ],
      "name": "approve",
      "outputs": [
        {
          "internalType": "bool",
          "name": "",
          "type": "bool"
        }
      ],
      "stateMutability": "nonpayable",
      "type": "function"
    },
    {
      "inputs": [
        {
          "internalType": "address",
          "name": "account",
          "type": "address"
        }
      ],
      "name": "balanceOf",
      "outputs": [
        {
          "internalType": "uint256",
          "name": "",
          "type": "uint256"
        }
      ],
      "stateMutability": "view",
      "type": "function"
    },
    {
      "inputs": [
        {
          "internalType": "uint256",
          "name": "_amount",
          "type": "uint256"
        }
      ],
      "name": "burn",
      "outputs": [],
      "stateMutability": "nonpayable",
      "type": "function"
    },
    {
      "inputs": [],
      "name": "decimals",
      "outputs": [
        {
          "internalType": "uint8",
          "name": "",
          "type": "uint8"
        }
      ],
      "stateMutability": "view",
      "type": "function"
    },
    {
      "inputs": [
        {
          "internalType": "address",
          "name": "spender",
          "type": "address"
        },
        {
          "internalType": "uint256",
          "name": "subtractedValue",
          "type": "uint256"
        }
      ],
      "name": "decreaseAllowance",
      "outputs": [
        {
          "internalType": "bool",
          "name": "",
          "type": "bool"
        }
      ],
      "stateMutability": "nonpayable",
      "type": "function"
    },
    {
      "inputs": [
        {
          "internalType": "bytes32",
          "name": "role",
          "type": "bytes32"
        }
      ],
      "name": "getRoleAdmin",
      "outputs": [
        {
          "internalType": "bytes32",
          "name": "",
          "type": "bytes32"
        }
      ],
      "stateMutability": "view",
      "type": "function"
    },
    {
      "inputs": [
        {
          "internalType": "bytes32",
          "name": "role",
          "type": "bytes32"
        },
        {
          "internalType": "address",
          "name": "account",
          "type": "address"
        }
      ],
      "name": "grantRole",
      "outputs": [],
      "stateMutability": "nonpayable",
      "type": "function"
    },
    {
      "inputs": [
        {
          "internalType": "bytes32",
          "name": "role",
          "type": "bytes32"
        },
        {
          "internalType": "address",
          "name": "account",
          "type": "address"
        }
      ],
      "name": "hasRole",
      "outputs": [
        {
          "internalType": "bool",
          "name": "",
          "type": "bool"
        }
      ],
      "stateMutability": "view",
      "type": "function"
    },
    {
      "inputs": [
        {
          "internalType": "address",
          "name": "spender",
          "type": "address"
        },
        {
          "internalType": "uint256",
          "name": "addedValue",
          "type": "uint256"
        }
      ],
      "name": "increaseAllowance",
      "outputs": [
        {
          "internalType": "bool",
          "name": "",
          "type": "bool"
        }
      ],
      "stateMutability": "nonpayable",
      "type": "function"
    },
    {
      "inputs": [
        {
          "internalType": "string",
          "name": "name_",
          "type": "string"
        },
        {
          "internalType": "string",
          "name": "symbol_",
          "type": "string"
        },
        {
          "internalType": "uint8",
          "name": "decimals_",
          "type": "uint8"
        },
        {
          "internalType": "address",
          "name": "admin",
          "type": "address"
        },
        {
          "internalType": "address[]",
          "name": "minters",
          "type": "address[]"
        }
      ],
      "name": "initialize",
      "outputs": [],
      "stateMutability": "nonpayable",
      "type": "function"
    },
    {
      "inputs": [
        {
          "internalType": "address",
          "name": "_receiver",
          "type": "address"
        },
        {
          "internalType": "uint256",
          "name": "_amount",
          "type": "uint256"
        }
      ],
      "name": "mint",
      "outputs": [],
      "stateMutability": "nonpayable",
      "type": "function"
    },
    {
      "inputs": [],
      "name": "name",
      "outputs": [
        {
          "internalType": "string",
          "name": "",
          "type": "string"
        }
      ],
      "stateMutability": "view",
      "type": "function"
    },
    {
      "inputs": [
        {
          "internalType": "address",
          "name": "",
          "type": "address"
        }
      ],
      "name": "nonces",
      "outputs": [
        {
          "internalType": "uint256",
          "name": "",
          "type": "uint256"
        }
      ],
      "stateMutability": "view",
      "type": "function"
    },
    {
      "inputs": [],
      "name": "pause",
      "outputs": [],
      "stateMutability": "nonpayable",
      "type": "function"
    },
    {
      "inputs": [],
      "name": "paused",
      "outputs": [
        {
          "internalType": "bool",
          "name": "",
          "type": "bool"
        }
      ],
      "stateMutability": "view",
      "type": "function"
    },
    {
      "inputs": [
        {
          "internalType": "address",
          "name": "_owner",
          "type": "address"
        },
        {
          "internalType": "address",
          "name": "_spender",
          "type": "address"
        },
        {
          "internalType": "uint256",
          "name": "_value",
          "type": "uint256"
        },
        {
          "internalType": "uint256",
          "name": "_deadline",
          "type": "uint256"
        },
        {
          "internalType": "uint8",
          "name": "_v",
          "type": "uint8"
        },
        {
          "internalType": "bytes32",
          "name": "_r",
          "type": "bytes32"
        },
        {
          "internalType": "bytes32",
          "name": "_s",
          "type": "bytes32"
        }
      ],
      "name": "permit",
      "outputs": [],
      "stateMutability": "nonpayable",
      "type": "function"
    },
    {
      "inputs": [
        {
          "internalType": "bytes32",
          "name": "role",
          "type": "bytes32"
        },
        {
          "internalType": "address",
          "name": "account",
          "type": "address"
        }
      ],
      "name": "renounceRole",
      "outputs": [],
      "stateMutability": "nonpayable",
      "type": "function"
    },
    {
      "inputs": [
        {
          "internalType": "bytes32",
          "name": "role",
          "type": "bytes32"
        },
        {
          "internalType": "address",
          "name": "account",
          "type": "address"
        }
      ],
      "name": "revokeRole",
      "outputs": [],
      "stateMutability": "nonpayable",
      "type": "function"
    },
    {
      "inputs": [
        {
          "internalType": "bytes4",
          "name": "interfaceId",
          "type": "bytes4"
        }
      ],
      "name": "supportsInterface",
      "outputs": [
        {
          "internalType": "bool",
          "name": "",
          "type": "bool"
        }
      ],
      "stateMutability": "view",
      "type": "function"
    },
    {
      "inputs": [],
      "name": "symbol",
      "outputs": [
        {
          "internalType": "string",
          "name": "",
          "type": "string"
        }
      ],
      "stateMutability": "view",
      "type": "function"
    },
    {
      "inputs": [],
      "name": "totalSupply",
      "outputs": [
        {
          "internalType": "uint256",
          "name": "",
          "type": "uint256"
        }
      ],
      "stateMutability": "view",
      "type": "function"
    },
    {
      "inputs": [
        {
          "internalType": "address",
          "name": "to",
          "type": "address"
        },
        {
          "internalType": "uint256",
          "name": "amount",
          "type": "uint256"
        }
      ],
      "name": "transfer",
      "outputs": [
        {
          "internalType": "bool",
          "name": "",
          "type": "bool"
        }
      ],
      "stateMutability": "nonpayable",
      "type": "function"
    },
    {
      "inputs": [
        {
          "internalType": "address",
          "name": "from",
          "type": "address"
        },
        {
          "internalType": "address",
          "name": "to",
          "type": "address"
        },
        {
          "internalType": "uint256",
          "name": "amount",
          "type": "uint256"
        }
      ],
      "name": "transferFrom",
      "outputs": [
        {
          "internalType": "bool",
          "name": "",
          "type": "bool"
        }
      ],
      "stateMutability": "nonpayable",
      "type": "function"
    },
    {
      "inputs": [],
      "name": "unpause",
      "outputs": [],
      "stateMutability": "nonpayable",
      "type": "function"
    }
  ],
  "bytecode": "0x608060405234801561001057600080fd5b50613af0806100206000396000f3fe608060405234801561001057600080fd5b50600436106101da5760003560e01c80635471a50411610104578063a217fddf116100a2578063d539139311610071578063d53913931461056b578063d547741f14610589578063dd62ed3e146105a5578063e63ab1e9146105d5576101da565b8063a217fddf146104d1578063a457c2d7146104ef578063a9059cbb1461051f578063d505accf1461054f576101da565b80637ecebe00116100de5780637ecebe00146104495780638456cb591461047957806391d148541461048357806395d89b41146104b3576101da565b80635471a504146103df5780635c975abb146103fb57806370a0823114610419576101da565b806330adf81f1161017c578063395093511161014b578063395093511461036d5780633f4ba83a1461039d57806340c10f19146103a757806342966c68146103c3576101da565b806330adf81f146102f7578063313ce567146103155780633644e5151461033357806336568abe14610351576101da565b806318160ddd116101b857806318160ddd1461025d57806323b872dd1461027b578063248a9ca3146102ab5780632f2ff15d146102db576101da565b806301ffc9a7146101df57806306fdde031461020f578063095ea7b31461022d575b600080fd5b6101f960048036038101906101f49190612680565b6105f3565b6040516102069190612c9c565b60405180910390f35b61021761066d565b6040516102249190612de6565b60405180910390f35b610247600480360381019061024291906125d3565b6106ff565b6040516102549190612c9c565b60405180910390f35b610265610722565b6040516102729190613068565b60405180910390f35b610295600480360381019061029091906124de565b61072c565b6040516102a29190612c9c565b60405180910390f35b6102c560048036038101906102c09190612613565b61075b565b6040516102d29190612cb7565b60405180910390f35b6102f560048036038101906102f09190612640565b61077b565b005b6102ff61079c565b60405161030c9190612cb7565b60405180910390f35b61031d6107c3565b60405161032a9190613083565b60405180910390f35b61033b6107db565b6040516103489190612cb7565b60405180910390f35b61036b60048036038101906103669190612640565b6107e2565b005b610387600480360381019061038291906125d3565b610865565b6040516103949190612c9c565b60405180910390f35b6103a561089c565b005b6103c160048036038101906103bc91906125d3565b610906565b005b6103dd60048036038101906103d8919061277c565b610974565b005b6103f960048036038101906103f491906126ad565b6109e1565b005b610403610c2c565b6040516104109190612c9c565b60405180910390f35b610433600480360381019061042e9190612471565b610c43565b6040516104409190613068565b60405180910390f35b610463600480360381019061045e9190612471565b610c8c565b6040516104709190613068565b60405180910390f35b610481610ca5565b005b61049d60048036038101906104989190612640565b610d0f565b6040516104aa9190612c9c565b60405180910390f35b6104bb610d7a565b6040516104c89190612de6565b60405180910390f35b6104d9610e0c565b6040516104e69190612cb7565b60405180910390f35b610509600480360381019061050491906125d3565b610e13565b6040516105169190612c9c565b60405180910390f35b610539600480360381019061053491906125d3565b610e8a565b6040516105469190612c9c565b60405180910390f35b61056960048036038101906105649190612531565b610ead565b005b6105736110d7565b6040516105809190612cb7565b60405180910390f35b6105a3600480360381019061059e9190612640565b6110fb565b005b6105bf60048036038101906105ba919061249e565b61111c565b6040516105cc9190613068565b60405180910390f35b6105dd6111a3565b6040516105ea9190612cb7565b60405180910390f35b60007f7965db0b000000000000000000000000000000000000000000000000000000007bffffffffffffffffffffffffffffffffffffffffffffffffffffffff1916827bffffffffffffffffffffffffffffffffffffffffffffffffffffffff191614806106665750610665826111c7565b5b9050919050565b6060609a805461067c90613334565b80601f01602080910402602001604051908101604052809291908181526020018280546106a890613334565b80156106f55780601f106106ca576101008083540402835291602001916106f5565b820191906000526020600020905b8154815290600101906020018083116106d857829003601f168201915b5050505050905090565b60008061070a611231565b9050610717818585611239565b600191505092915050565b6000609954905090565b600080610737611231565b9050610744858285611404565b61074f858585611490565b60019150509392505050565b600060656000838152602001908152602001600020600101549050919050565b6107848261075b565b61078d81611714565b6107978383611728565b505050565b7f6e71edae12b1b97f4d1f60370fef10105fa2faae0126114a169c64845d6126c960001b81565b600061012f60009054906101000a900460ff16905090565b61012d5481565b6107ea611231565b73ffffffffffffffffffffffffffffffffffffffff168173ffffffffffffffffffffffffffffffffffffffff1614610857576040517f08c379a000000000000000000000000000000000000000000000000000000000815260040161084e90613008565b60405180910390fd5b6108618282611809565b5050565b600080610870611231565b9050610891818585610882858961111c565b61088c9190613147565b611239565b600191505092915050565b6108c67f65d7a28e3265b37a6474929f336521b332c1681b933f6cb9f3376673440d862a33610d0f565b6108fc576040517f8f295f8600000000000000000000000000000000000000000000000000000000815260040160405180910390fd5b6109046118eb565b565b6109307f9f2df0fed2c77648de5860a4cc508cd0818c85b8b8a1ab4ceeef8d981c8956a633610d0f565b610966576040517f2c849c1c00000000000000000000000000000000000000000000000000000000815260040160405180910390fd5b610970828261198d565b5050565b61099e7f9f2df0fed2c77648de5860a4cc508cd0818c85b8b8a1ab4ceeef8d981c8956a633610d0f565b6109d4576040517f2c849c1c00000000000000000000000000000000000000000000000000000000815260040160405180910390fd5b6109de3382611aee565b50565b60006109ed6001611cc7565b90508015610a11576001600060016101000a81548160ff0219169083151502179055505b8361012f60006101000a81548160ff021916908360ff1602179055506000865114610a3c5785610a3e565b845b604051602001610a4e9190612c03565b604051602081830303815290604052955084604051602001610a709190612c25565b6040516020818303038152906040529450610a8b8686611db7565b610a986000801b84611e38565b610ac27f65d7a28e3265b37a6474929f336521b332c1681b933f6cb9f3376673440d862a84611e38565b60008251905060005b81811015610b2a57610b177f9f2df0fed2c77648de5860a4cc508cd0818c85b8b8a1ab4ceeef8d981c8956a6858381518110610b0a57610b09613448565b5b6020026020010151611e38565b8080610b2290613397565b915050610acb565b5060004690507f8b73c3c69bb8fe3d512ecc4cf759cc79239f7b179b0ffacaa9a75d522b39400f88805190602001206040518060400160405280600181526020017f3100000000000000000000000000000000000000000000000000000000000000815250805190602001208330604051602001610bac959493929190612d33565b6040516020818303038152906040528051906020012061012d8190555050508015610c245760008060016101000a81548160ff0219169083151502179055507f7f26b83ff96e1f2b6a682f133852f6798a09c465da95921460cefb38474024986001604051610c1b9190612dcb565b60405180910390a15b505050505050565b600060c960009054906101000a900460ff16905090565b6000609760008373ffffffffffffffffffffffffffffffffffffffff1673ffffffffffffffffffffffffffffffffffffffff168152602001908152602001600020549050919050565b61012e6020528060005260406000206000915090505481565b610ccf7f65d7a28e3265b37a6474929f336521b332c1681b933f6cb9f3376673440d862a33610d0f565b610d05576040517f8f295f8600000000000000000000000000000000000000000000000000000000815260040160405180910390fd5b610d0d611e46565b565b60006065600084815260200190815260200160002060000160008373ffffffffffffffffffffffffffffffffffffffff1673ffffffffffffffffffffffffffffffffffffffff16815260200190815260200160002060009054906101000a900460ff16905092915050565b6060609b8054610d8990613334565b80601f0160208091040260200160405190810160405280929190818152602001828054610db590613334565b8015610e025780601f10610dd757610100808354040283529160200191610e02565b820191906000526020600020905b815481529060010190602001808311610de557829003601f168201915b5050505050905090565b6000801b81565b600080610e1e611231565b90506000610e2c828661111c565b905083811015610e71576040517f08c379a0000000000000000000000000000000000000000000000000000000008152600401610e6890612fe8565b60405180910390fd5b610e7e8286868403611239565b60019250505092915050565b600080610e95611231565b9050610ea2818585611490565b600191505092915050565b42841015610ef0576040517f08c379a0000000000000000000000000000000000000000000000000000000008152600401610ee790612ee8565b60405180910390fd5b600061012d547f6e71edae12b1b97f4d1f60370fef10105fa2faae0126114a169c64845d6126c960001b89898961012e60008e73ffffffffffffffffffffffffffffffffffffffff1673ffffffffffffffffffffffffffffffffffffffff1681526020019081526020016000206000815480929190610f6e90613397565b919050558a604051602001610f8896959493929190612cd2565b60405160208183030381529060405280519060200120604051602001610faf929190612bcc565b604051602081830303815290604052805190602001209050600060018286868660405160008152602001604052604051610fec9493929190612d86565b6020604051602081039080840390855afa15801561100e573d6000803e3d6000fd5b505050602060405103519050600073ffffffffffffffffffffffffffffffffffffffff168173ffffffffffffffffffffffffffffffffffffffff161415801561108257508873ffffffffffffffffffffffffffffffffffffffff168173ffffffffffffffffffffffffffffffffffffffff16145b6110c1576040517f08c379a00000000000000000000000000000000000000000000000000000000081526004016110b890612f28565b60405180910390fd5b6110cc898989611239565b505050505050505050565b7f9f2df0fed2c77648de5860a4cc508cd0818c85b8b8a1ab4ceeef8d981c8956a681565b6111048261075b565b61110d81611714565b6111178383611809565b505050565b6000609860008473ffffffffffffffffffffffffffffffffffffffff1673ffffffffffffffffffffffffffffffffffffffff16815260200190815260200160002060008373ffffffffffffffffffffffffffffffffffffffff1673ffffffffffffffffffffffffffffffffffffffff16815260200190815260200160002054905092915050565b7f65d7a28e3265b37a6474929f336521b332c1681b933f6cb9f3376673440d862a81565b60007f01ffc9a7000000000000000000000000000000000000000000000000000000007bffffffffffffffffffffffffffffffffffffffffffffffffffffffff1916827bffffffffffffffffffffffffffffffffffffffffffffffffffffffff1916149050919050565b600033905090565b600073ffffffffffffffffffffffffffffffffffffffff168373ffffffffffffffffffffffffffffffffffffffff1614156112a9576040517f08c379a00000000000000000000000000000000000000000000000000000000081526004016112a090612fa8565b60405180910390fd5b600073ffffffffffffffffffffffffffffffffffffffff168273ffffffffffffffffffffffffffffffffffffffff161415611319576040517f08c379a000000000000000000000000000000000000000000000000000000000815260040161131090612e88565b60405180910390fd5b80609860008573ffffffffffffffffffffffffffffffffffffffff1673ffffffffffffffffffffffffffffffffffffffff16815260200190815260200160002060008473ffffffffffffffffffffffffffffffffffffffff1673ffffffffffffffffffffffffffffffffffffffff168152602001908152602001600020819055508173ffffffffffffffffffffffffffffffffffffffff168373ffffffffffffffffffffffffffffffffffffffff167f8c5be1e5ebec7d5bd14f71427d1e84f3dd0314c0f7b2291e5b200ac8c7c3b925836040516113f79190613068565b60405180910390a3505050565b6000611410848461111c565b90507fffffffffffffffffffffffffffffffffffffffffffffffffffffffffffffffff811461148a578181101561147c576040517f08c379a000000000000000000000000000000000000000000000000000000000815260040161147390612ea8565b60405180910390fd5b6114898484848403611239565b5b50505050565b600073ffffffffffffffffffffffffffffffffffffffff168373ffffffffffffffffffffffffffffffffffffffff161415611500576040517f08c379a00000000000000000000000000000000000000000000000000000000081526004016114f790612f88565b60405180910390fd5b600073ffffffffffffffffffffffffffffffffffffffff168273ffffffffffffffffffffffffffffffffffffffff161415611570576040517f08c379a000000000000000000000000000000000000000000000000000000000815260040161156790612e28565b60405180910390fd5b61157b838383611ee9565b6000609760008573ffffffffffffffffffffffffffffffffffffffff1673ffffffffffffffffffffffffffffffffffffffff16815260200190815260200160002054905081811015611602576040517f08c379a00000000000000000000000000000000000000000000000000000000081526004016115f990612ec8565b60405180910390fd5b818103609760008673ffffffffffffffffffffffffffffffffffffffff1673ffffffffffffffffffffffffffffffffffffffff1681526020019081526020016000208190555081609760008573ffffffffffffffffffffffffffffffffffffffff1673ffffffffffffffffffffffffffffffffffffffff16815260200190815260200160002060008282546116979190613147565b925050819055508273ffffffffffffffffffffffffffffffffffffffff168473ffffffffffffffffffffffffffffffffffffffff167fddf252ad1be2c89b69c2b068fc378daa952ba7f163c4a11628f55a4df523b3ef846040516116fb9190613068565b60405180910390a361170e848484611ef9565b50505050565b61172581611720611231565b611efe565b50565b6117328282610d0f565b6118055760016065600084815260200190815260200160002060000160008373ffffffffffffffffffffffffffffffffffffffff1673ffffffffffffffffffffffffffffffffffffffff16815260200190815260200160002060006101000a81548160ff0219169083151502179055506117aa611231565b73ffffffffffffffffffffffffffffffffffffffff168173ffffffffffffffffffffffffffffffffffffffff16837f2f8788117e7eff1d82e926ec794901d17c78024a50270940304540a733656f0d60405160405180910390a45b5050565b6118138282610d0f565b156118e75760006065600084815260200190815260200160002060000160008373ffffffffffffffffffffffffffffffffffffffff1673ffffffffffffffffffffffffffffffffffffffff16815260200190815260200160002060006101000a81548160ff02191690831515021790555061188c611231565b73ffffffffffffffffffffffffffffffffffffffff168173ffffffffffffffffffffffffffffffffffffffff16837ff6391f5c32d9c69d2a47ea670b442974b53935d1edc7fd64eb21e047a839171b60405160405180910390a45b5050565b6118f3610c2c565b611932576040517f08c379a000000000000000000000000000000000000000000000000000000000815260040161192990612e48565b60405180910390fd5b600060c960006101000a81548160ff0219169083151502179055507f5db9ee0a495bf2e6ff9c91a7834c1ba4fdd244a5e8aa4e537bd38aeae4b073aa611976611231565b6040516119839190612c81565b60405180910390a1565b600073ffffffffffffffffffffffffffffffffffffffff168273ffffffffffffffffffffffffffffffffffffffff1614156119fd576040517f08c379a00000000000000000000000000000000000000000000000000000000081526004016119f490613028565b60405180910390fd5b611a0960008383611ee9565b8060996000828254611a1b9190613147565b9250508190555080609760008473ffffffffffffffffffffffffffffffffffffffff1673ffffffffffffffffffffffffffffffffffffffff1681526020019081526020016000206000828254611a719190613147565b925050819055508173ffffffffffffffffffffffffffffffffffffffff16600073ffffffffffffffffffffffffffffffffffffffff167fddf252ad1be2c89b69c2b068fc378daa952ba7f163c4a11628f55a4df523b3ef83604051611ad69190613068565b60405180910390a3611aea60008383611ef9565b5050565b600073ffffffffffffffffffffffffffffffffffffffff168273ffffffffffffffffffffffffffffffffffffffff161415611b5e576040517f08c379a0000000000000000000000000000000000000000000000000000000008152600401611b5590612f68565b60405180910390fd5b611b6a82600083611ee9565b6000609760008473ffffffffffffffffffffffffffffffffffffffff1673ffffffffffffffffffffffffffffffffffffffff16815260200190815260200160002054905081811015611bf1576040517f08c379a0000000000000000000000000000000000000000000000000000000008152600401611be890612e68565b60405180910390fd5b818103609760008573ffffffffffffffffffffffffffffffffffffffff1673ffffffffffffffffffffffffffffffffffffffff168152602001908152602001600020819055508160996000828254611c4991906131f7565b92505081905550600073ffffffffffffffffffffffffffffffffffffffff168373ffffffffffffffffffffffffffffffffffffffff167fddf252ad1be2c89b69c2b068fc378daa952ba7f163c4a11628f55a4df523b3ef84604051611cae9190613068565b60405180910390a3611cc283600084611ef9565b505050565b60008060019054906101000a900460ff1615611d3e5760018260ff16148015611cf65750611cf430611f9b565b155b611d35576040517f08c379a0000000000000000000000000000000000000000000000000000000008152600401611d2c90612f48565b60405180910390fd5b60009050611db2565b8160ff1660008054906101000a900460ff1660ff1610611d93576040517f08c379a0000000000000000000000000000000000000000000000000000000008152600401611d8a90612f48565b60405180910390fd5b816000806101000a81548160ff021916908360ff160217905550600190505b919050565b600060019054906101000a900460ff16611e06576040517f08c379a0000000000000000000000000000000000000000000000000000000008152600401611dfd90612fc8565b60405180910390fd5b81609a9080519060200190611e1c929190612257565b5080609b9080519060200190611e33929190612257565b505050565b611e428282611728565b5050565b611e4e610c2c565b15611e8e576040517f08c379a0000000000000000000000000000000000000000000000000000000008152600401611e8590612f08565b60405180910390fd5b600160c960006101000a81548160ff0219169083151502179055507f62e78cea01bee320cd4e420270b5ea74000d11b0c9f74754ebdbfc544b05a258611ed2611231565b604051611edf9190612c81565b60405180910390a1565b611ef4838383611fbe565b505050565b505050565b611f088282610d0f565b611f9757611f2d8173ffffffffffffffffffffffffffffffffffffffff166014612016565b611f3b8360001c6020612016565b604051602001611f4c929190612c47565b6040516020818303038152906040526040517f08c379a0000000000000000000000000000000000000000000000000000000008152600401611f8e9190612de6565b60405180910390fd5b5050565b6000808273ffffffffffffffffffffffffffffffffffffffff163b119050919050565b611fc9838383612252565b611fd1610c2c565b15612011576040517f08c379a000000000000000000000000000000000000000000000000000000000815260040161200890613048565b60405180910390fd5b505050565b606060006002836002612029919061319d565b6120339190613147565b67ffffffffffffffff81111561204c5761204b613477565b5b6040519080825280601f01601f19166020018201604052801561207e5781602001600182028036833780820191505090505b5090507f3000000000000000000000000000000000000000000000000000000000000000816000815181106120b6576120b5613448565b5b60200101907effffffffffffffffffffffffffffffffffffffffffffffffffffffffffffff1916908160001a9053507f78000000000000000000000000000000000000000000000000000000000000008160018151811061211a57612119613448565b5b60200101907effffffffffffffffffffffffffffffffffffffffffffffffffffffffffffff1916908160001a9053506000600184600261215a919061319d565b6121649190613147565b90505b6001811115612204577f3031323334353637383961626364656600000000000000000000000000000000600f8616601081106121a6576121a5613448565b5b1a60f81b8282815181106121bd576121bc613448565b5b60200101907effffffffffffffffffffffffffffffffffffffffffffffffffffffffffffff1916908160001a905350600485901c9450806121fd9061330a565b9050612167565b5060008414612248576040517f08c379a000000000000000000000000000000000000000000000000000000000815260040161223f90612e08565b60405180910390fd5b8091505092915050565b505050565b82805461226390613334565b90600052602060002090601f01602090048101928261228557600085556122cc565b82601f1061229e57805160ff19168380011785556122cc565b828001600101855582156122cc579182015b828111156122cb5782518255916020019190600101906122b0565b5b5090506122d991906122dd565b5090565b5b808211156122f65760008160009055506001016122de565b5090565b600061230d612308846130c3565b61309e565b905080838252602082019050828560208602820111156123305761232f6134ab565b5b60005b85811015612360578161234688826123ac565b845260208401935060208301925050600181019050612333565b5050509392505050565b600061237d612378846130ef565b61309e565b905082815260208101848484011115612399576123986134b0565b5b6123a48482856132c8565b509392505050565b6000813590506123bb81613a70565b92915050565b600082601f8301126123d6576123d56134a6565b5b81356123e68482602086016122fa565b91505092915050565b6000813590506123fe81613a87565b92915050565b60008135905061241381613a9e565b92915050565b600082601f83011261242e5761242d6134a6565b5b813561243e84826020860161236a565b91505092915050565b60008135905061245681613ab5565b92915050565b60008135905061246b81613acc565b92915050565b600060208284031215612487576124866134ba565b5b6000612495848285016123ac565b91505092915050565b600080604083850312156124b5576124b46134ba565b5b60006124c3858286016123ac565b92505060206124d4858286016123ac565b9150509250929050565b6000806000606084860312156124f7576124f66134ba565b5b6000612505868287016123ac565b9350506020612516868287016123ac565b925050604061252786828701612447565b9150509250925092565b600080600080600080600060e0888a0312156125505761254f6134ba565b5b600061255e8a828b016123ac565b975050602061256f8a828b016123ac565b96505060406125808a828b01612447565b95505060606125918a828b01612447565b94505060806125a28a828b0161245c565b93505060a06125b38a828b016123ef565b92505060c06125c48a828b016123ef565b91505092959891949750929550565b600080604083850312156125ea576125e96134ba565b5b60006125f8858286016123ac565b925050602061260985828601612447565b9150509250929050565b600060208284031215612629576126286134ba565b5b6000612637848285016123ef565b91505092915050565b60008060408385031215612657576126566134ba565b5b6000612665858286016123ef565b9250506020612676858286016123ac565b9150509250929050565b600060208284031215612696576126956134ba565b5b60006126a484828501612404565b91505092915050565b600080600080600060a086880312156126c9576126c86134ba565b5b600086013567ffffffffffffffff8111156126e7576126e66134b5565b5b6126f388828901612419565b955050602086013567ffffffffffffffff811115612714576127136134b5565b5b61272088828901612419565b94505060406127318882890161245c565b9350506060612742888289016123ac565b925050608086013567ffffffffffffffff811115612763576127626134b5565b5b61276f888289016123c1565b9150509295509295909350565b600060208284031215612792576127916134ba565b5b60006127a084828501612447565b91505092915050565b6127b28161322b565b82525050565b6127c18161323d565b82525050565b6127d081613249565b82525050565b6127e76127e282613249565b6133e0565b82525050565b6127f6816132b6565b82525050565b600061280782613120565b612811818561312b565b93506128218185602086016132d7565b61282a816134bf565b840191505092915050565b600061284082613120565b61284a818561313c565b935061285a8185602086016132d7565b80840191505092915050565b600061287360208361312b565b915061287e826134d0565b602082019050919050565b600061289660238361312b565b91506128a1826134f9565b604082019050919050565b60006128b960148361312b565b91506128c482613548565b602082019050919050565b60006128dc60228361312b565b91506128e782613571565b604082019050919050565b60006128ff60228361312b565b915061290a826135c0565b604082019050919050565b600061292260028361313c565b915061292d8261360f565b600282019050919050565b6000612945601d8361312b565b915061295082613638565b602082019050919050565b600061296860268361312b565b915061297382613661565b604082019050919050565b600061298b600f8361312b565b9150612996826136b0565b602082019050919050565b60006129ae60108361312b565b91506129b9826136d9565b602082019050919050565b60006129d160198361312b565b91506129dc82613702565b602082019050919050565b60006129f4602e8361312b565b91506129ff8261372b565b604082019050919050565b6000612a1760098361313c565b9150612a228261377a565b600982019050919050565b6000612a3a60218361312b565b9150612a45826137a3565b604082019050919050565b6000612a5d60258361312b565b9150612a68826137f2565b604082019050919050565b6000612a8060028361313c565b9150612a8b82613841565b600282019050919050565b6000612aa360248361312b565b9150612aae8261386a565b604082019050919050565b6000612ac6602b8361312b565b9150612ad1826138b9565b604082019050919050565b6000612ae960178361313c565b9150612af482613908565b601782019050919050565b6000612b0c60258361312b565b9150612b1782613931565b604082019050919050565b6000612b2f60118361313c565b9150612b3a82613980565b601182019050919050565b6000612b52602f8361312b565b9150612b5d826139a9565b604082019050919050565b6000612b75601f8361312b565b9150612b80826139f8565b602082019050919050565b6000612b98602a8361312b565b9150612ba382613a21565b604082019050919050565b612bb78161329f565b82525050565b612bc6816132a9565b82525050565b6000612bd782612915565b9150612be382856127d6565b602082019150612bf382846127d6565b6020820191508190509392505050565b6000612c0e82612a0a565b9150612c1a8284612835565b915081905092915050565b6000612c3082612a73565b9150612c3c8284612835565b915081905092915050565b6000612c5282612adc565b9150612c5e8285612835565b9150612c6982612b22565b9150612c758284612835565b91508190509392505050565b6000602082019050612c9660008301846127a9565b92915050565b6000602082019050612cb160008301846127b8565b92915050565b6000602082019050612ccc60008301846127c7565b92915050565b600060c082019050612ce760008301896127c7565b612cf460208301886127a9565b612d0160408301876127a9565b612d0e6060830186612bae565b612d1b6080830185612bae565b612d2860a0830184612bae565b979650505050505050565b600060a082019050612d4860008301886127c7565b612d5560208301876127c7565b612d6260408301866127c7565b612d6f6060830185612bae565b612d7c60808301846127a9565b9695505050505050565b6000608082019050612d9b60008301876127c7565b612da86020830186612bbd565b612db560408301856127c7565b612dc260608301846127c7565b95945050505050565b6000602082019050612de060008301846127ed565b92915050565b60006020820190508181036000830152612e0081846127fc565b905092915050565b60006020820190508181036000830152612e2181612866565b9050919050565b60006020820190508181036000830152612e4181612889565b9050919050565b60006020820190508181036000830152612e61816128ac565b9050919050565b60006020820190508181036000830152612e81816128cf565b9050919050565b60006020820190508181036000830152612ea1816128f2565b9050919050565b60006020820190508181036000830152612ec181612938565b9050919050565b60006020820190508181036000830152612ee18161295b565b9050919050565b60006020820190508181036000830152612f018161297e565b9050919050565b60006020820190508181036000830152612f21816129a1565b9050919050565b60006020820190508181036000830152612f41816129c4565b9050919050565b60006020820190508181036000830152612f61816129e7565b9050919050565b60006020820190508181036000830152612f8181612a2d565b9050919050565b60006020820190508181036000830152612fa181612a50565b9050919050565b60006020820190508181036000830152612fc181612a96565b9050919050565b60006020820190508181036000830152612fe181612ab9565b9050919050565b6000602082019050818103600083015261300181612aff565b9050919050565b6000602082019050818103600083015261302181612b45565b9050919050565b6000602082019050818103600083015261304181612b68565b9050919050565b6000602082019050818103600083015261306181612b8b565b9050919050565b600060208201905061307d6000830184612bae565b92915050565b60006020820190506130986000830184612bbd565b92915050565b60006130a86130b9565b90506130b48282613366565b919050565b6000604051905090565b600067ffffffffffffffff8211156130de576130dd613477565b5b602082029050602081019050919050565b600067ffffffffffffffff82111561310a57613109613477565b5b613113826134bf565b9050602081019050919050565b600081519050919050565b600082825260208201905092915050565b600081905092915050565b60006131528261329f565b915061315d8361329f565b9250827fffffffffffffffffffffffffffffffffffffffffffffffffffffffffffffffff03821115613192576131916133ea565b5b828201905092915050565b60006131a88261329f565b91506131b38361329f565b9250817fffffffffffffffffffffffffffffffffffffffffffffffffffffffffffffffff04831182151516156131ec576131eb6133ea565b5b828202905092915050565b60006132028261329f565b915061320d8361329f565b9250828210156132205761321f6133ea565b5b828203905092915050565b60006132368261327f565b9050919050565b60008115159050919050565b6000819050919050565b60007fffffffff0000000000000000000000000000000000000000000000000000000082169050919050565b600073ffffffffffffffffffffffffffffffffffffffff82169050919050565b6000819050919050565b600060ff82169050919050565b60006132c1826132a9565b9050919050565b82818337600083830152505050565b60005b838110156132f55780820151818401526020810190506132da565b83811115613304576000848401525b50505050565b60006133158261329f565b91506000821415613329576133286133ea565b5b600182039050919050565b6000600282049050600182168061334c57607f821691505b602082108114156133605761335f613419565b5b50919050565b61336f826134bf565b810181811067ffffffffffffffff8211171561338e5761338d613477565b5b80604052505050565b60006133a28261329f565b91507fffffffffffffffffffffffffffffffffffffffffffffffffffffffffffffffff8214156133d5576133d46133ea565b5b600182019050919050565b6000819050919050565b7f4e487b7100000000000000000000000000000000000000000000000000000000600052601160045260246000fd5b7f4e487b7100000000000000000000000000000000000000000000000000000000600052602260045260246000fd5b7f4e487b7100000000000000000000000000000000000000000000000000000000600052603260045260246000fd5b7f4e487b7100000000000000000000000000000000000000000000000000000000600052604160045260246000fd5b600080fd5b600080fd5b600080fd5b600080fd5b600080fd5b6000601f19601f8301169050919050565b7f537472696e67733a20686578206c656e67746820696e73756666696369656e74600082015250565b7f45524332303a207472616e7366657220746f20746865207a65726f206164647260008201527f6573730000000000000000000000000000000000000000000000000000000000602082015250565b7f5061757361626c653a206e6f7420706175736564000000000000000000000000600082015250565b7f45524332303a206275726e20616d6f756e7420657863656564732062616c616e60008201527f6365000000000000000000000000000000000000000000000000000000000000602082015250565b7f45524332303a20617070726f766520746f20746865207a65726f20616464726560008201527f7373000000000000000000000000000000000000000000000000000000000000602082015250565b7f1901000000000000000000000000000000000000000000000000000000000000600082015250565b7f45524332303a20696e73756666696369656e7420616c6c6f77616e6365000000600082015250565b7f45524332303a207472616e7366657220616d6f756e742065786365656473206260008201527f616c616e63650000000000000000000000000000000000000000000000000000602082015250565b7f7065726d69743a20455850495245440000000000000000000000000000000000600082015250565b7f5061757361626c653a2070617573656400000000000000000000000000000000600082015250565b7f7065726d69743a20696e76616c6964207369676e617475726500000000000000600082015250565b7f496e697469616c697a61626c653a20636f6e747261637420697320616c72656160008201527f647920696e697469616c697a6564000000000000000000000000000000000000602082015250565b7f6465427269646765200000000000000000000000000000000000000000000000600082015250565b7f45524332303a206275726e2066726f6d20746865207a65726f2061646472657360008201527f7300000000000000000000000000000000000000000000000000000000000000602082015250565b7f45524332303a207472616e736665722066726f6d20746865207a65726f20616460008201527f6472657373000000000000000000000000000000000000000000000000000000602082015250565b7f6465000000000000000000000000000000000000000000000000000000000000600082015250565b7f45524332303a20617070726f76652066726f6d20746865207a65726f2061646460008201527f7265737300000000000000000000000000000000000000000000000000000000602082015250565b7f496e697469616c697a61626c653a20636f6e7472616374206973206e6f74206960008201527f6e697469616c697a696e67000000000000000000000000000000000000000000602082015250565b7f416363657373436f6e74726f6c3a206163636f756e7420000000000000000000600082015250565b7f45524332303a2064656372656173656420616c6c6f77616e63652062656c6f7760008201527f207a65726f000000000000000000000000000000000000000000000000000000602082015250565b7f206973206d697373696e6720726f6c6520000000000000000000000000000000600082015250565b7f416363657373436f6e74726f6c3a2063616e206f6e6c792072656e6f756e636560008201527f20726f6c657320666f722073656c660000000000000000000000000000000000602082015250565b7f45524332303a206d696e7420746f20746865207a65726f206164647265737300600082015250565b7f45524332305061757361626c653a20746f6b656e207472616e7366657220776860008201527f696c652070617573656400000000000000000000000000000000000000000000602082015250565b613a798161322b565b8114613a8457600080fd5b50565b613a9081613249565b8114613a9b57600080fd5b50565b613aa781613253565b8114613ab257600080fd5b50565b613abe8161329f565b8114613ac957600080fd5b50565b613ad5816132a9565b8114613ae057600080fd5b5056fea164736f6c6343000807000a",
  "linkReferences": {},
  "deployedLinkReferences": {}
}