{
  "_format": "hh-sol-artifact-1",
  "contractName": "DeBridgeGate",
  "sourceName": "src/diamond/transfers/DeBridgeGate.sol",
  "abi": [
    {
      "inputs": [],
      "name": "AdminBadRole",
      "type": "error"
    },
    {
      "inputs": [],
      "name": "AssetAlreadyExist",
      "type": "error"
    },
    {
      "inputs": [],
      "name": "DebridgeNotFound",
      "type": "error"
    },
    {
      "inputs": [],
      "name": "DefiControllerBadRole",
      "type": "error"
    },
    {
      "inputs": [],
      "name": "EthTransferFailed",
      "type": "error"
    },
    {
      "inputs": [],
      "name": "FeeContractUpdaterBadRole",
      "type": "error"
    },
    {
      "inputs": [],
      "name": "FeeProxyBadRole",
      "type": "error"
    },
    {
      "inputs": [],
      "name": "FlashFeeNotPaid",
      "type": "error"
    },
    {
      "inputs": [],
      "name": "GovMonitoringBadRole",
      "type": "error"
    },
    {
      "inputs": [],
      "name": "InvalidTokenToSend",
      "type": "error"
    },
    {
      "inputs": [],
      "name": "NotEnoughReserves",
      "type": "error"
    },
    {
      "inputs": [],
      "name": "NotSupportedFixedFee",
      "type": "error"
    },
    {
      "inputs": [],
      "name": "ProposedFeeTooHigh",
      "type": "error"
    },
    {
      "inputs": [],
      "name": "SignatureInvalidV",
      "type": "error"
    },
    {
      "inputs": [],
      "name": "SubmissionBlocked",
      "type": "error"
    },
    {
      "inputs": [],
      "name": "SubmissionUsed",
      "type": "error"
    },
    {
      "inputs": [],
      "name": "TransferAmountNotCoverFees",
      "type": "error"
    },
    {
      "inputs": [],
      "name": "TransferAmountTooHigh",
      "type": "error"
    },
    {
      "inputs": [],
      "name": "WrongArgument",
      "type": "error"
    },
    {
      "inputs": [],
      "name": "WrongArgumentLength",
      "type": "error"
    },
    {
      "inputs": [],
      "name": "WrongAutoArgument",
      "type": "error"
    },
    {
      "inputs": [],
      "name": "WrongChainFrom",
      "type": "error"
    },
    {
      "inputs": [],
      "name": "WrongChainTo",
      "type": "error"
    },
    {
      "inputs": [],
      "name": "ZeroAddress",
      "type": "error"
    },
    {
      "anonymous": false,
      "inputs": [
        {
          "indexed": false,
          "internalType": "bytes32",
          "name": "submissionId",
          "type": "bytes32"
        },
        {
          "indexed": true,
          "internalType": "bool",
          "name": "success",
          "type": "bool"
        },
        {
          "indexed": false,
          "internalType": "address",
          "name": "callProxy",
          "type": "address"
        }
      ],
      "name": "AutoRequestExecuted",
      "type": "event"
    },
    {
      "anonymous": false,
      "inputs": [
        {
          "indexed": false,
          "internalType": "bytes32",
          "name": "submissionId",
          "type": "bytes32"
        }
      ],
      "name": "Blocked",
      "type": "event"
    },
    {
      "anonymous": false,
      "inputs": [
        {
          "indexed": false,
          "internalType": "address",
          "name": "callProxy",
          "type": "address"
        }
      ],
      "name": "CallProxyUpdated",
      "type": "event"
    },
    {
      "anonymous": false,
      "inputs": [
        {
          "indexed": false,
          "internalType": "uint256",
          "name": "chainId",
          "type": "uint256"
        },
        {
          "indexed": false,
          "internalType": "bool",
          "name": "isSupported",
          "type": "bool"
        },
        {
          "indexed": false,
          "internalType": "bool",
          "name": "isChainFrom",
          "type": "bool"
        }
      ],
      "name": "ChainSupportUpdated",
      "type": "event"
    },
    {
      "anonymous": false,
      "inputs": [
        {
          "indexed": false,
          "internalType": "uint256",
          "name": "chainIds",
          "type": "uint256"
        },
        {
          "components": [
            {
              "internalType": "uint256",
              "name": "fixedNativeFee",
              "type": "uint256"
            },
            {
              "internalType": "bool",
              "name": "isSupported",
              "type": "bool"
            },
            {
              "internalType": "uint16",
              "name": "transferFeeBps",
              "type": "uint16"
            }
          ],
          "indexed": false,
          "internalType": "struct IDeBridgeGate.ChainSupportInfo",
          "name": "chainSupportInfo",
          "type": "tuple"
        },
        {
          "indexed": false,
          "internalType": "bool",
          "name": "isChainFrom",
          "type": "bool"
        }
      ],
      "name": "ChainsSupportUpdated",
      "type": "event"
    },
    {
      "anonymous": false,
      "inputs": [
        {
          "indexed": false,
          "internalType": "bytes32",
          "name": "submissionId",
          "type": "bytes32"
        },
        {
          "indexed": true,
          "internalType": "bytes32",
          "name": "debridgeId",
          "type": "bytes32"
        },
        {
          "indexed": false,
          "internalType": "uint256",
          "name": "amount",
          "type": "uint256"
        },
        {
          "indexed": true,
          "internalType": "address",
          "name": "receiver",
          "type": "address"
        },
        {
          "indexed": false,
          "internalType": "uint256",
          "name": "nonce",
          "type": "uint256"
        },
        {
          "indexed": true,
          "internalType": "uint256",
          "name": "chainIdFrom",
          "type": "uint256"
        },
        {
          "indexed": false,
          "internalType": "bytes",
          "name": "autoParams",
          "type": "bytes"
        },
        {
          "indexed": false,
          "internalType": "bool",
          "name": "isNativeToken",
          "type": "bool"
        }
      ],
      "name": "Claimed",
      "type": "event"
    },
    {
      "anonymous": false,
      "inputs": [
        {
          "indexed": false,
          "internalType": "uint256",
          "name": "globalFixedNativeFee",
          "type": "uint256"
        }
      ],
      "name": "FixedNativeFeeAutoUpdated",
      "type": "event"
    },
    {
      "anonymous": false,
      "inputs": [
        {
          "indexed": false,
          "internalType": "uint256",
          "name": "globalFixedNativeFee",
          "type": "uint256"
        },
        {
          "indexed": false,
          "internalType": "uint256",
          "name": "globalTransferFeeBps",
          "type": "uint256"
        }
      ],
      "name": "FixedNativeFeeUpdated",
      "type": "event"
    },
    {
      "anonymous": false,
      "inputs": [
        {
          "indexed": false,
          "internalType": "address",
          "name": "sender",
          "type": "address"
        },
        {
          "indexed": true,
          "internalType": "address",
          "name": "tokenAddress",
          "type": "address"
        },
        {
          "indexed": true,
          "internalType": "address",
          "name": "receiver",
          "type": "address"
        },
        {
          "indexed": false,
          "internalType": "uint256",
          "name": "amount",
          "type": "uint256"
        },
        {
          "indexed": false,
          "internalType": "uint256",
          "name": "paid",
          "type": "uint256"
        }
      ],
      "name": "Flash",
      "type": "event"
    },
    {
      "anonymous": false,
      "inputs": [
        {
          "indexed": false,
          "internalType": "uint8",
          "name": "version",
          "type": "uint8"
        }
      ],
      "name": "Initialized",
      "type": "event"
    },
    {
      "anonymous": false,
      "inputs": [
        {
          "indexed": false,
          "internalType": "bytes32",
          "name": "submissionId",
          "type": "bytes32"
        },
        {
          "indexed": false,
          "internalType": "uint256",
          "name": "lockedOrMintedAmount",
          "type": "uint256"
        },
        {
          "indexed": false,
          "internalType": "uint256",
          "name": "totalSupply",
          "type": "uint256"
        }
      ],
      "name": "MonitoringClaimEvent",
      "type": "event"
    },
    {
      "anonymous": false,
      "inputs": [
        {
          "indexed": false,
          "internalType": "bytes32",
          "name": "submissionId",
          "type": "bytes32"
        },
        {
          "indexed": false,
          "internalType": "uint256",
          "name": "nonce",
          "type": "uint256"
        },
        {
          "indexed": false,
          "internalType": "uint256",
          "name": "lockedOrMintedAmount",
          "type": "uint256"
        },
        {
          "indexed": false,
          "internalType": "uint256",
          "name": "totalSupply",
          "type": "uint256"
        }
      ],
      "name": "MonitoringSendEvent",
      "type": "event"
    },
    {
      "anonymous": false,
      "inputs": [
        {
          "indexed": false,
          "internalType": "bytes32",
          "name": "debridgeId",
          "type": "bytes32"
        },
        {
          "indexed": false,
          "internalType": "address",
          "name": "tokenAddress",
          "type": "address"
        },
        {
          "indexed": false,
          "internalType": "bytes",
          "name": "nativeAddress",
          "type": "bytes"
        },
        {
          "indexed": true,
          "internalType": "uint256",
          "name": "nativeChainId",
          "type": "uint256"
        },
        {
          "indexed": false,
          "internalType": "uint256",
          "name": "maxAmount",
          "type": "uint256"
        },
        {
          "indexed": false,
          "internalType": "uint16",
          "name": "minReservesBps",
          "type": "uint16"
        }
      ],
      "name": "PairAdded",
      "type": "event"
    },
    {
      "anonymous": false,
      "inputs": [
        {
          "indexed": false,
          "internalType": "address",
          "name": "account",
          "type": "address"
        }
      ],
      "name": "Paused",
      "type": "event"
    },
    {
      "anonymous": false,
      "inputs": [
        {
          "indexed": true,
          "internalType": "bytes32",
          "name": "role",
          "type": "bytes32"
        },
        {
          "indexed": true,
          "internalType": "bytes32",
          "name": "previousAdminRole",
          "type": "bytes32"
        },
        {
          "indexed": true,
          "internalType": "bytes32",
          "name": "newAdminRole",
          "type": "bytes32"
        }
      ],
      "name": "RoleAdminChanged",
      "type": "event"
    },
    {
      "anonymous": false,
      "inputs": [
        {
          "indexed": true,
          "internalType": "bytes32",
          "name": "role",
          "type": "bytes32"
        },
        {
          "indexed": true,
          "internalType": "address",
          "name": "account",
          "type": "address"
        },
        {
          "indexed": true,
          "internalType": "address",
          "name": "sender",
          "type": "address"
        }
      ],
      "name": "RoleGranted",
      "type": "event"
    },
    {
      "anonymous": false,
      "inputs": [
        {
          "indexed": true,
          "internalType": "bytes32",
          "name": "role",
          "type": "bytes32"
        },
        {
          "indexed": true,
          "internalType": "address",
          "name": "account",
          "type": "address"
        },
        {
          "indexed": true,
          "internalType": "address",
          "name": "sender",
          "type": "address"
        }
      ],
      "name": "RoleRevoked",
      "type": "event"
    },
    {
      "anonymous": false,
      "inputs": [
        {
          "indexed": false,
          "internalType": "bytes32",
          "name": "submissionId",
          "type": "bytes32"
        },
        {
          "indexed": true,
          "internalType": "bytes32",
          "name": "debridgeId",
          "type": "bytes32"
        },
        {
          "indexed": false,
          "internalType": "uint256",
          "name": "amount",
          "type": "uint256"
        },
        {
          "indexed": false,
          "internalType": "bytes",
          "name": "receiver",
          "type": "bytes"
        },
        {
          "indexed": false,
          "internalType": "uint256",
          "name": "nonce",
          "type": "uint256"
        },
        {
          "indexed": true,
          "internalType": "uint256",
          "name": "chainIdTo",
          "type": "uint256"
        },
        {
          "indexed": false,
          "internalType": "uint32",
          "name": "referralCode",
          "type": "uint32"
        },
        {
          "components": [
            {
              "internalType": "uint256",
              "name": "receivedAmount",
              "type": "uint256"
            },
            {
              "internalType": "uint256",
              "name": "fixFee",
              "type": "uint256"
            },
            {
              "internalType": "uint256",
              "name": "transferFee",
              "type": "uint256"
            },
            {
              "internalType": "bool",
              "name": "useAssetFee",
              "type": "bool"
            },
            {
              "internalType": "bool",
              "name": "isNativeToken",
              "type": "bool"
            }
          ],
          "indexed": false,
          "internalType": "struct IDeBridgeGate.FeeParams",
          "name": "feeParams",
          "type": "tuple"
        },
        {
          "indexed": false,
          "internalType": "bytes",
          "name": "autoParams",
          "type": "bytes"
        },
        {
          "indexed": false,
          "internalType": "address",
          "name": "nativeSender",
          "type": "address"
        }
      ],
      "name": "Sent",
      "type": "event"
    },
    {
      "anonymous": false,
      "inputs": [
        {
          "indexed": false,
          "internalType": "bytes32",
          "name": "submissionId",
          "type": "bytes32"
        }
      ],
      "name": "Unblocked",
      "type": "event"
    },
    {
      "anonymous": false,
      "inputs": [
        {
          "indexed": false,
          "internalType": "address",
          "name": "account",
          "type": "address"
        }
      ],
      "name": "Unpaused",
      "type": "event"
    },
    {
      "anonymous": false,
      "inputs": [
        {
          "indexed": false,
          "internalType": "bytes32",
          "name": "debridgeId",
          "type": "bytes32"
        },
        {
          "indexed": false,
          "internalType": "uint256",
          "name": "fee",
          "type": "uint256"
        }
      ],
      "name": "WithdrawnFee",
      "type": "event"
    },
    {
      "inputs": [],
      "name": "BPS_DENOMINATOR",
      "outputs": [
        {
          "internalType": "uint256",
          "name": "",
          "type": "uint256"
        }
      ],
      "stateMutability": "view",
      "type": "function"
    },
    {
      "inputs": [],
      "name": "DEFAULT_ADMIN_ROLE",
      "outputs": [
        {
          "internalType": "bytes32",
          "name": "",
          "type": "bytes32"
        }
      ],
      "stateMutability": "view",
      "type": "function"
    },
    {
      "inputs": [],
      "name": "DEPLOY_PREFIX",
      "outputs": [
        {
          "internalType": "uint256",
          "name": "",
          "type": "uint256"
        }
      ],
      "stateMutability": "view",
      "type": "function"
    },
    {
      "inputs": [],
      "name": "GOVMONITORING_ROLE",
      "outputs": [
        {
          "internalType": "bytes32",
          "name": "",
          "type": "bytes32"
        }
      ],
      "stateMutability": "view",
      "type": "function"
    },
    {
      "inputs": [],
      "name": "SUBMISSION_PREFIX",
      "outputs": [
        {
          "internalType": "uint256",
          "name": "",
          "type": "uint256"
        }
      ],
      "stateMutability": "view",
      "type": "function"
    },
    {
      "inputs": [
        {
          "internalType": "uint256",
          "name": "_globalFixedNativeFee",
          "type": "uint256"
        }
      ],
      "name": "autoUpdateFixedNativeFee",
      "outputs": [],
      "stateMutability": "nonpayable",
      "type": "function"
    },
    {
      "inputs": [
        {
          "internalType": "bytes32[]",
          "name": "_submissionIds",
          "type": "bytes32[]"
        },
        {
          "internalType": "bool",
          "name": "isBlocked",
          "type": "bool"
        }
      ],
      "name": "blockSubmission",
      "outputs": [],
      "stateMutability": "nonpayable",
      "type": "function"
    },
    {
      "inputs": [],
      "name": "callProxy",
      "outputs": [
        {
          "internalType": "address",
          "name": "",
          "type": "address"
        }
      ],
      "stateMutability": "view",
      "type": "function"
    },
    {
      "inputs": [
        {
          "internalType": "bytes32",
          "name": "_debridgeId",
          "type": "bytes32"
        },
        {
          "internalType": "uint256",
          "name": "_amount",
          "type": "uint256"
        },
        {
          "internalType": "uint256",
          "name": "_chainIdFrom",
          "type": "uint256"
        },
        {
          "internalType": "address",
          "name": "_receiver",
          "type": "address"
        },
        {
          "internalType": "uint256",
          "name": "_nonce",
          "type": "uint256"
        },
        {
          "internalType": "bytes",
          "name": "_signatures",
          "type": "bytes"
        },
        {
          "internalType": "bytes",
          "name": "_autoParams",
          "type": "bytes"
        }
      ],
      "name": "claim",
      "outputs": [],
      "stateMutability": "nonpayable",
      "type": "function"
    },
    {
      "inputs": [],
      "name": "deBridgeTokenDeployer",
      "outputs": [
        {
          "internalType": "address",
          "name": "",
          "type": "address"
        }
      ],
      "stateMutability": "view",
      "type": "function"
    },
    {
      "inputs": [],
      "name": "defiController",
      "outputs": [
        {
          "internalType": "address",
          "name": "",
          "type": "address"
        }
      ],
      "stateMutability": "view",
      "type": "function"
    },
    {
      "inputs": [
        {
          "internalType": "bytes",
          "name": "_nativeTokenAddress",
          "type": "bytes"
        },
        {
          "internalType": "uint256",
          "name": "_nativeChainId",
          "type": "uint256"
        },
        {
          "internalType": "string",
          "name": "_name",
          "type": "string"
        },
        {
          "internalType": "string",
          "name": "_symbol",
          "type": "string"
        },
        {
          "internalType": "uint8",
          "name": "_decimals",
          "type": "uint8"
        },
        {
          "internalType": "bytes",
          "name": "_signatures",
          "type": "bytes"
        }
      ],
      "name": "deployNewAsset",
      "outputs": [],
      "stateMutability": "nonpayable",
      "type": "function"
    },
    {
      "inputs": [],
      "name": "excessConfirmations",
      "outputs": [
        {
          "internalType": "uint8",
          "name": "",
          "type": "uint8"
        }
      ],
      "stateMutability": "view",
      "type": "function"
    },
    {
      "inputs": [],
      "name": "feeContractUpdater",
      "outputs": [
        {
          "internalType": "address",
          "name": "",
          "type": "address"
        }
      ],
      "stateMutability": "view",
      "type": "function"
    },
    {
      "inputs": [
        {
          "internalType": "address",
          "name": "",
          "type": "address"
        }
      ],
      "name": "feeDiscount",
      "outputs": [
        {
          "internalType": "uint16",
          "name": "discountFixBps",
          "type": "uint16"
        },
        {
          "internalType": "uint16",
          "name": "discountTransferBps",
          "type": "uint16"
        }
      ],
      "stateMutability": "view",
      "type": "function"
    },
    {
      "inputs": [],
      "name": "feeProxy",
      "outputs": [
        {
          "internalType": "address",
          "name": "",
          "type": "address"
        }
      ],
      "stateMutability": "view",
      "type": "function"
    },
    {
      "inputs": [
        {
          "internalType": "address",
          "name": "_tokenAddress",
          "type": "address"
        },
        {
          "internalType": "address",
          "name": "_receiver",
          "type": "address"
        },
        {
          "internalType": "uint256",
          "name": "_amount",
          "type": "uint256"
        },
        {
          "internalType": "bytes",
          "name": "_data",
          "type": "bytes"
        }
      ],
      "name": "flash",
      "outputs": [],
      "stateMutability": "nonpayable",
      "type": "function"
    },
    {
      "inputs": [],
      "name": "flashFeeBps",
      "outputs": [
        {
          "internalType": "uint256",
          "name": "",
          "type": "uint256"
        }
      ],
      "stateMutability": "view",
      "type": "function"
    },
    {
      "inputs": [
        {
          "internalType": "bytes32",
          "name": "",
          "type": "bytes32"
        }
      ],
      "name": "getAmountThreshold",
      "outputs": [
        {
          "internalType": "uint256",
          "name": "",
          "type": "uint256"
        }
      ],
      "stateMutability": "view",
      "type": "function"
    },
    {
      "inputs": [
        {
          "internalType": "uint256",
          "name": "",
          "type": "uint256"
        }
      ],
      "name": "getChainFromConfig",
      "outputs": [
        {
          "internalType": "uint256",
          "name": "fixedNativeFee",
          "type": "uint256"
        },
        {
          "internalType": "bool",
          "name": "isSupported",
          "type": "bool"
        },
        {
          "internalType": "uint16",
          "name": "transferFeeBps",
          "type": "uint16"
        }
      ],
      "stateMutability": "view",
      "type": "function"
    },
    {
      "inputs": [],
      "name": "getChainId",
      "outputs": [
        {
          "internalType": "uint256",
          "name": "cid",
          "type": "uint256"
        }
      ],
      "stateMutability": "view",
      "type": "function"
    },
    {
      "inputs": [
        {
          "internalType": "uint256",
          "name": "",
          "type": "uint256"
        }
      ],
      "name": "getChainToConfig",
      "outputs": [
        {
          "internalType": "uint256",
          "name": "fixedNativeFee",
          "type": "uint256"
        },
        {
          "internalType": "bool",
          "name": "isSupported",
          "type": "bool"
        },
        {
          "internalType": "uint16",
          "name": "transferFeeBps",
          "type": "uint16"
        }
      ],
      "stateMutability": "view",
      "type": "function"
    },
    {
      "inputs": [
        {
          "internalType": "bytes32",
          "name": "",
          "type": "bytes32"
        }
      ],
      "name": "getDebridge",
      "outputs": [
        {
          "internalType": "uint256",
          "name": "chainId",
          "type": "uint256"
        },
        {
          "internalType": "uint256",
          "name": "maxAmount",
          "type": "uint256"
        },
        {
          "internalType": "uint256",
          "name": "balance",
          "type": "uint256"
        },
        {
          "internalType": "uint256",
          "name": "lockedInStrategies",
          "type": "uint256"
        },
        {
          "internalType": "address",
          "name": "tokenAddress",
          "type": "address"
        },
        {
          "internalType": "uint16",
          "name": "minReservesBps",
          "type": "uint16"
        },
        {
          "internalType": "bool",
          "name": "exist",
          "type": "bool"
        }
      ],
      "stateMutability": "view",
      "type": "function"
    },
    {
      "inputs": [
        {
          "internalType": "bytes32",
          "name": "_debridgeId",
          "type": "bytes32"
        },
        {
          "internalType": "uint256",
          "name": "_chainId",
          "type": "uint256"
        }
      ],
      "name": "getDebridgeChainAssetFixedFee",
      "outputs": [
        {
          "internalType": "uint256",
          "name": "",
          "type": "uint256"
        }
      ],
      "stateMutability": "view",
      "type": "function"
    },
    {
      "inputs": [
        {
          "internalType": "bytes32",
          "name": "",
          "type": "bytes32"
        }
      ],
      "name": "getDebridgeFeeInfo",
      "outputs": [
        {
          "internalType": "uint256",
          "name": "collectedFees",
          "type": "uint256"
        },
        {
          "internalType": "uint256",
          "name": "withdrawnFees",
          "type": "uint256"
        }
      ],
      "stateMutability": "view",
      "type": "function"
    },
    {
      "inputs": [
        {
          "internalType": "uint256",
          "name": "_chainId",
          "type": "uint256"
        },
        {
          "internalType": "address",
          "name": "_tokenAddress",
          "type": "address"
        }
      ],
      "name": "getDebridgeId",
      "outputs": [
        {
          "internalType": "bytes32",
          "name": "",
          "type": "bytes32"
        }
      ],
      "stateMutability": "pure",
      "type": "function"
    },
    {
      "inputs": [
        {
          "internalType": "address",
          "name": "_tokenAddress",
          "type": "address"
        }
      ],
      "name": "getDefiAvaliableReserves",
      "outputs": [
        {
          "internalType": "uint256",
          "name": "",
          "type": "uint256"
        }
      ],
      "stateMutability": "view",
      "type": "function"
    },
    {
      "inputs": [
        {
          "internalType": "bytes32",
          "name": "_debridgeId",
          "type": "bytes32"
        },
        {
          "internalType": "string",
          "name": "_name",
          "type": "string"
        },
        {
          "internalType": "string",
          "name": "_symbol",
          "type": "string"
        },
        {
          "internalType": "uint8",
          "name": "_decimals",
          "type": "uint8"
        }
      ],
      "name": "getDeployId",
      "outputs": [
        {
          "internalType": "bytes32",
          "name": "",
          "type": "bytes32"
        }
      ],
      "stateMutability": "pure",
      "type": "function"
    },
    {
      "inputs": [
        {
          "internalType": "address",
          "name": "",
          "type": "address"
        }
      ],
      "name": "getNativeInfo",
      "outputs": [
        {
          "internalType": "uint256",
          "name": "nativeChainId",
          "type": "uint256"
        },
        {
          "internalType": "bytes",
          "name": "nativeAddress",
          "type": "bytes"
        }
      ],
      "stateMutability": "view",
      "type": "function"
    },
    {
      "inputs": [
        {
          "internalType": "bytes32",
          "name": "role",
          "type": "bytes32"
        }
      ],
      "name": "getRoleAdmin",
      "outputs": [
        {
          "internalType": "bytes32",
          "name": "",
          "type": "bytes32"
        }
      ],
      "stateMutability": "view",
      "type": "function"
    },
    {
      "inputs": [
        {
          "internalType": "bytes32",
          "name": "_debridgeId",
          "type": "bytes32"
        },
        {
          "internalType": "uint256",
          "name": "_chainIdFrom",
          "type": "uint256"
        },
        {
          "internalType": "uint256",
          "name": "_amount",
          "type": "uint256"
        },
        {
          "internalType": "address",
          "name": "_receiver",
          "type": "address"
        },
        {
          "internalType": "uint256",
          "name": "_nonce",
          "type": "uint256"
        },
        {
          "components": [
            {
              "internalType": "uint256",
              "name": "executionFee",
              "type": "uint256"
            },
            {
              "internalType": "uint256",
              "name": "flags",
              "type": "uint256"
            },
            {
              "internalType": "address",
              "name": "fallbackAddress",
              "type": "address"
            },
            {
              "internalType": "bytes",
              "name": "data",
              "type": "bytes"
            },
            {
              "internalType": "bytes",
              "name": "nativeSender",
              "type": "bytes"
            }
          ],
          "internalType": "struct IDeBridgeGate.SubmissionAutoParamsFrom",
          "name": "_autoParams",
          "type": "tuple"
        },
        {
          "internalType": "bool",
          "name": "_hasAutoParams",
          "type": "bool"
        },
        {
          "internalType": "address",
          "name": "_sender",
          "type": "address"
        }
      ],
      "name": "getSubmissionIdFrom",
      "outputs": [
        {
          "internalType": "bytes32",
          "name": "",
          "type": "bytes32"
        }
      ],
      "stateMutability": "view",
      "type": "function"
    },
    {
      "inputs": [
        {
          "internalType": "uint256",
          "name": "_chainId",
          "type": "uint256"
        },
        {
          "internalType": "bytes",
          "name": "_tokenAddress",
          "type": "bytes"
        }
      ],
      "name": "getbDebridgeId",
      "outputs": [
        {
          "internalType": "bytes32",
          "name": "",
          "type": "bytes32"
        }
      ],
      "stateMutability": "pure",
      "type": "function"
    },
    {
      "inputs": [],
      "name": "globalFixedNativeFee",
      "outputs": [
        {
          "internalType": "uint256",
          "name": "",
          "type": "uint256"
        }
      ],
      "stateMutability": "view",
      "type": "function"
    },
    {
      "inputs": [],
      "name": "globalTransferFeeBps",
      "outputs": [
        {
          "internalType": "uint16",
          "name": "",
          "type": "uint16"
        }
      ],
      "stateMutability": "view",
      "type": "function"
    },
    {
      "inputs": [
        {
          "internalType": "bytes32",
          "name": "role",
          "type": "bytes32"
        },
        {
          "internalType": "address",
          "name": "account",
          "type": "address"
        }
      ],
      "name": "grantRole",
      "outputs": [],
      "stateMutability": "nonpayable",
      "type": "function"
    },
    {
      "inputs": [
        {
          "internalType": "bytes32",
          "name": "role",
          "type": "bytes32"
        },
        {
          "internalType": "address",
          "name": "account",
          "type": "address"
        }
      ],
      "name": "hasRole",
      "outputs": [
        {
          "internalType": "bool",
          "name": "",
          "type": "bool"
        }
      ],
      "stateMutability": "view",
      "type": "function"
    },
    {
      "inputs": [
        {
          "internalType": "uint8",
          "name": "_excessConfirmations",
          "type": "uint8"
        },
        {
          "internalType": "contract IWETH",
          "name": "_weth",
          "type": "address"
        }
      ],
      "name": "initialize",
      "outputs": [],
      "stateMutability": "nonpayable",
      "type": "function"
    },
    {
      "inputs": [
        {
          "internalType": "bytes32",
          "name": "",
          "type": "bytes32"
        }
      ],
      "name": "isBlockedSubmission",
      "outputs": [
        {
          "internalType": "bool",
          "name": "",
          "type": "bool"
        }
      ],
      "stateMutability": "view",
      "type": "function"
    },
    {
      "inputs": [
        {
          "internalType": "bytes32",
          "name": "",
          "type": "bytes32"
        }
      ],
      "name": "isSubmissionUsed",
      "outputs": [
        {
          "internalType": "bool",
          "name": "",
          "type": "bool"
        }
      ],
      "stateMutability": "view",
      "type": "function"
    },
    {
      "inputs": [],
      "name": "lockedClaim",
      "outputs": [
        {
          "internalType": "uint256",
          "name": "",
          "type": "uint256"
        }
      ],
      "stateMutability": "view",
      "type": "function"
    },
    {
      "inputs": [],
      "name": "nonce",
      "outputs": [
        {
          "internalType": "uint256",
          "name": "",
          "type": "uint256"
        }
      ],
      "stateMutability": "view",
      "type": "function"
    },
    {
      "inputs": [],
      "name": "pause",
      "outputs": [],
      "stateMutability": "nonpayable",
      "type": "function"
    },
    {
      "inputs": [],
      "name": "paused",
      "outputs": [
        {
          "internalType": "bool",
          "name": "",
          "type": "bool"
        }
      ],
      "stateMutability": "view",
      "type": "function"
    },
    {
      "inputs": [
        {
          "internalType": "bytes32",
          "name": "role",
          "type": "bytes32"
        },
        {
          "internalType": "address",
          "name": "account",
          "type": "address"
        }
      ],
      "name": "renounceRole",
      "outputs": [],
      "stateMutability": "nonpayable",
      "type": "function"
    },
    {
      "inputs": [
        {
          "internalType": "address",
          "name": "_tokenAddress",
          "type": "address"
        },
        {
          "internalType": "uint256",
          "name": "_amount",
          "type": "uint256"
        }
      ],
      "name": "requestReserves",
      "outputs": [],
      "stateMutability": "nonpayable",
      "type": "function"
    },
    {
      "inputs": [
        {
          "internalType": "address",
          "name": "_tokenAddress",
          "type": "address"
        },
        {
          "internalType": "uint256",
          "name": "_amount",
          "type": "uint256"
        }
      ],
      "name": "returnReserves",
      "outputs": [],
      "stateMutability": "nonpayable",
      "type": "function"
    },
    {
      "inputs": [
        {
          "internalType": "bytes32",
          "name": "role",
          "type": "bytes32"
        },
        {
          "internalType": "address",
          "name": "account",
          "type": "address"
        }
      ],
      "name": "revokeRole",
      "outputs": [],
      "stateMutability": "nonpayable",
      "type": "function"
    },
    {
      "inputs": [
        {
          "internalType": "address",
          "name": "_tokenAddress",
          "type": "address"
        },
        {
          "internalType": "uint256",
          "name": "_amount",
          "type": "uint256"
        },
        {
          "internalType": "uint256",
          "name": "_chainIdTo",
          "type": "uint256"
        },
        {
          "internalType": "bytes",
          "name": "_receiver",
          "type": "bytes"
        },
        {
          "internalType": "bytes",
          "name": "_permit",
          "type": "bytes"
        },
        {
          "internalType": "bool",
          "name": "_useAssetFee",
          "type": "bool"
        },
        {
          "internalType": "uint32",
          "name": "_referralCode",
          "type": "uint32"
        },
        {
          "internalType": "bytes",
          "name": "_autoParams",
          "type": "bytes"
        }
      ],
      "name": "send",
      "outputs": [],
      "stateMutability": "payable",
      "type": "function"
    },
    {
      "inputs": [
        {
          "internalType": "address",
          "name": "_callProxy",
          "type": "address"
        }
      ],
      "name": "setCallProxy",
      "outputs": [],
      "stateMutability": "nonpayable",
      "type": "function"
    },
    {
      "inputs": [
        {
          "internalType": "uint256",
          "name": "_chainId",
          "type": "uint256"
        },
        {
          "internalType": "bool",
          "name": "_isSupported",
          "type": "bool"
        },
        {
          "internalType": "bool",
          "name": "_isChainFrom",
          "type": "bool"
        }
      ],
      "name": "setChainSupport",
      "outputs": [],
      "stateMutability": "nonpayable",
      "type": "function"
    },
    {
      "inputs": [
        {
          "internalType": "address",
          "name": "_deBridgeTokenDeployer",
          "type": "address"
        }
      ],
      "name": "setDeBridgeTokenDeployer",
      "outputs": [],
      "stateMutability": "nonpayable",
      "type": "function"
    },
    {
      "inputs": [
        {
          "internalType": "address",
          "name": "_defiController",
          "type": "address"
        }
      ],
      "name": "setDefiController",
      "outputs": [],
      "stateMutability": "nonpayable",
      "type": "function"
    },
    {
      "inputs": [
        {
          "internalType": "address",
          "name": "_value",
          "type": "address"
        }
      ],
      "name": "setFeeContractUpdater",
      "outputs": [],
      "stateMutability": "nonpayable",
      "type": "function"
    },
    {
      "inputs": [
        {
          "internalType": "address",
          "name": "_feeProxy",
          "type": "address"
        }
      ],
      "name": "setFeeProxy",
      "outputs": [],
      "stateMutability": "nonpayable",
      "type": "function"
    },
    {
      "inputs": [
        {
          "internalType": "address",
          "name": "_verifier",
          "type": "address"
        }
      ],
      "name": "setSignatureVerifier",
      "outputs": [],
      "stateMutability": "nonpayable",
      "type": "function"
    },
    {
      "inputs": [
        {
          "internalType": "contract IWethGate",
          "name": "_wethGate",
          "type": "address"
        }
      ],
      "name": "setWethGate",
      "outputs": [],
      "stateMutability": "nonpayable",
      "type": "function"
    },
    {
      "inputs": [],
      "name": "signatureVerifier",
      "outputs": [
        {
          "internalType": "address",
          "name": "",
          "type": "address"
        }
      ],
      "stateMutability": "view",
      "type": "function"
    },
    {
      "inputs": [
        {
          "internalType": "bytes4",
          "name": "interfaceId",
          "type": "bytes4"
        }
      ],
      "name": "supportsInterface",
      "outputs": [
        {
          "internalType": "bool",
          "name": "",
          "type": "bool"
        }
      ],
      "stateMutability": "view",
      "type": "function"
    },
    {
      "inputs": [],
      "name": "unpause",
      "outputs": [],
      "stateMutability": "nonpayable",
      "type": "function"
    },
    {
      "inputs": [
        {
          "internalType": "bytes32",
          "name": "_debridgeId",
          "type": "bytes32"
        },
        {
          "internalType": "uint256",
          "name": "_maxAmount",
          "type": "uint256"
        },
        {
          "internalType": "uint16",
          "name": "_minReservesBps",
          "type": "uint16"
        },
        {
          "internalType": "uint256",
          "name": "_amountThreshold",
          "type": "uint256"
        }
      ],
      "name": "updateAsset",
      "outputs": [],
      "stateMutability": "nonpayable",
      "type": "function"
    },
    {
      "inputs": [
        {
          "internalType": "bytes32",
          "name": "_debridgeId",
          "type": "bytes32"
        },
        {
          "internalType": "uint256[]",
          "name": "_supportedChainIds",
          "type": "uint256[]"
        },
        {
          "internalType": "uint256[]",
          "name": "_assetFeesInfo",
          "type": "uint256[]"
        }
      ],
      "name": "updateAssetFixedFees",
      "outputs": [],
      "stateMutability": "nonpayable",
      "type": "function"
    },
    {
      "inputs": [
        {
          "internalType": "uint256[]",
          "name": "_chainIds",
          "type": "uint256[]"
        },
        {
          "components": [
            {
              "internalType": "uint256",
              "name": "fixedNativeFee",
              "type": "uint256"
            },
            {
              "internalType": "bool",
              "name": "isSupported",
              "type": "bool"
            },
            {
              "internalType": "uint16",
              "name": "transferFeeBps",
              "type": "uint16"
            }
          ],
          "internalType": "struct IDeBridgeGate.ChainSupportInfo[]",
          "name": "_chainSupportInfo",
          "type": "tuple[]"
        },
        {
          "internalType": "bool",
          "name": "_isChainFrom",
          "type": "bool"
        }
      ],
      "name": "updateChainSupport",
      "outputs": [],
      "stateMutability": "nonpayable",
      "type": "function"
    },
    {
      "inputs": [
        {
          "internalType": "uint8",
          "name": "_excessConfirmations",
          "type": "uint8"
        }
      ],
      "name": "updateExcessConfirmations",
      "outputs": [],
      "stateMutability": "nonpayable",
      "type": "function"
    },
    {
      "inputs": [
        {
          "internalType": "address",
          "name": "_address",
          "type": "address"
        },
        {
          "internalType": "uint16",
          "name": "_discountFixBps",
          "type": "uint16"
        },
        {
          "internalType": "uint16",
          "name": "_discountTransferBps",
          "type": "uint16"
        }
      ],
      "name": "updateFeeDiscount",
      "outputs": [],
      "stateMutability": "nonpayable",
      "type": "function"
    },
    {
      "inputs": [
        {
          "internalType": "uint256",
          "name": "_flashFeeBps",
          "type": "uint256"
        }
      ],
      "name": "updateFlashFee",
      "outputs": [],
      "stateMutability": "nonpayable",
      "type": "function"
    },
    {
      "inputs": [
        {
          "internalType": "uint256",
          "name": "_globalFixedNativeFee",
          "type": "uint256"
        },
        {
          "internalType": "uint16",
          "name": "_globalTransferFeeBps",
          "type": "uint16"
        }
      ],
      "name": "updateGlobalFee",
      "outputs": [],
      "stateMutability": "nonpayable",
      "type": "function"
    },
    {
      "inputs": [],
      "name": "version",
      "outputs": [
        {
          "internalType": "uint256",
          "name": "",
          "type": "uint256"
        }
      ],
      "stateMutability": "pure",
      "type": "function"
    },
    {
      "inputs": [],
      "name": "weth",
      "outputs": [
        {
          "internalType": "contract IWETH",
          "name": "",
          "type": "address"
        }
      ],
      "stateMutability": "view",
      "type": "function"
    },
    {
      "inputs": [],
      "name": "wethGate",
      "outputs": [
        {
          "internalType": "contract IWethGate",
          "name": "",
          "type": "address"
        }
      ],
      "stateMutability": "view",
      "type": "function"
    },
    {
      "inputs": [
        {
          "internalType": "bytes32",
          "name": "_debridgeId",
          "type": "bytes32"
        }
      ],
      "name": "withdrawFee",
      "outputs": [],
      "stateMutability": "nonpayable",
      "type": "function"
    },
    {
      "stateMutability": "payable",
      "type": "receive"
    }
  ],
  "bytecode": "0x60806040523480156200001157600080fd5b5061950880620000226000396000f3fe6080604052600436106104095760003560e01c806391d1485411610213578063c1efe77d11610123578063da615052116100ab578063e1a452181161007a578063e1a4521814610fc0578063e836a7a914610feb578063ee81fb9714611028578063f449063314611053578063fde919f61461109057610410565b8063da61505214610f05578063dc1995e914610f30578063e08a660514610f6e578063e0d3f02914610f9757610410565b8063cb33764a116100f2578063cb33764a14610e0e578063d19c3dd814610e4b578063d547741f14610e88578063d6b531aa14610eb1578063d7457c0314610eda57610410565b8063c1efe77d14610d54578063c280c90514610d93578063c41449eb14610dbc578063c432e3ff14610de557610410565b8063affed0e0116101a6578063ba9f777611610175578063ba9f777614610c92578063bd2608fa14610cbd578063bdbc91ab14610ce6578063be29747614610d0f578063be7f218414610d2b57610410565b8063affed0e014610bd5578063b242e7cf14610c00578063b3b25f9514610c3e578063b9b5565214610c6757610410565b80639682b909116101e25780639682b90914610b04578063970a117c14610b415780639a8c3a0f14610b6c578063a217fddf14610baa57610410565b806391d1485414610a36578063932fb34b14610a73578063960396ae14610ab057806396341ea714610adb57610410565b80634665a2f41161031957806366dfd489116102a15780637f4de21c116102705780637f4de21c146109655780638456cb5914610990578063889d71a2146109a7578063895f0c6a146109d05780638ffcc54f146109f957610410565b806366dfd489146108955780636b063d65146108c0578063760112ff146108e95780637796656c1461092657610410565b8063551156d6116102e8578063551156d61461079657806357cf07ca146107bf5780635c837198146108025780635c975abb1461082d57806365ac9f781461085857610410565b80634665a2f4146106ee5780634a77d3b6146107175780635187599d1461074257806354fd4d501461076b57610410565b80632da688ac1161039c57806335087f0a1161036b57806335087f0a1461062d57806336568abe146106585780633f4ba83a146106815780633fc8cef31461069857806346144c8f146106c357610410565b80632da688ac146105855780632f2ff15d146105b057806331bf10c1146105d95780633408e4701461060257610410565b8063248a9ca3116103d8578063248a9ca3146104cd57806325be0be11461050a57806326c09e94146105335780632b0d0a8b1461055c57610410565b806301ffc9a714610415578063106f432f1461045257806311b6e6b41461047b57806315a4587a146104a457610410565b3661041057005b600080fd5b34801561042157600080fd5b5061043c60048036038101906104379190617470565b6110bb565b6040516104499190618260565b60405180910390f35b34801561045e57600080fd5b5061047960048036038101906104749190616cec565b611135565b005b34801561048757600080fd5b506104a2600480360381019061049d9190617659565b6111bd565b005b3480156104b057600080fd5b506104cb60048036038101906104c69190616fc6565b611246565b005b3480156104d957600080fd5b506104f460048036038101906104ef919061707e565b611496565b604051610501919061827b565b60405180910390f35b34801561051657600080fd5b50610531600480360381019061052c9190616cec565b6114b6565b005b34801561053f57600080fd5b5061055a6004803603810190610555919061707e565b61153e565b005b34801561056857600080fd5b50610583600480360381019061057e9190616cec565b6117b0565b005b34801561059157600080fd5b5061059a61186f565b6040516105a79190618053565b60405180910390f35b3480156105bc57600080fd5b506105d760048036038101906105d291906170ab565b611896565b005b3480156105e557600080fd5b5061060060048036038101906105fb91906176f3565b6118b7565b005b34801561060e57600080fd5b506106176119a4565b6040516106249190618792565b60405180910390f35b34801561063957600080fd5b506106426119ac565b60405161064f9190618792565b60405180910390f35b34801561066457600080fd5b5061067f600480360381019061067a91906170ab565b6119b3565b005b34801561068d57600080fd5b50610696611a36565b005b3480156106a457600080fd5b506106ad611a83565b6040516106ba9190618579565b60405180910390f35b3480156106cf57600080fd5b506106d8611aaa565b6040516106e59190618053565b60405180910390f35b3480156106fa57600080fd5b50610715600480360381019061071091906177e2565b611ad1565b005b34801561072357600080fd5b5061072c611b70565b6040516107399190618792565b60405180910390f35b34801561074e57600080fd5b506107696004803603810190610764919061783c565b611b75565b005b34801561077757600080fd5b50610780611c75565b60405161078d9190618792565b60405180910390f35b3480156107a257600080fd5b506107bd60048036038101906107b89190617255565b611c7f565b005b3480156107cb57600080fd5b506107e660048036038101906107e1919061707e565b611d61565b6040516107f997969594939291906188d4565b60405180910390f35b34801561080e57600080fd5b50610817611dde565b604051610824919061874e565b60405180910390f35b34801561083957600080fd5b50610842611df3565b60405161084f9190618260565b60405180910390f35b34801561086457600080fd5b5061087f600480360381019061087a919061707e565b611e0a565b60405161088c9190618260565b60405180910390f35b3480156108a157600080fd5b506108aa611e2b565b6040516108b79190618792565b60405180910390f35b3480156108cc57600080fd5b506108e760048036038101906108e29190616e1c565b611e31565b005b3480156108f557600080fd5b50610910600480360381019061090b919061739e565b612018565b60405161091d919061827b565b60405180910390f35b34801561093257600080fd5b5061094d60048036038101906109489190617659565b612188565b60405161095c939291906187e4565b60405180910390f35b34801561097157600080fd5b5061097a6121ce565b6040516109879190618594565b60405180910390f35b34801561099c57600080fd5b506109a56121f5565b005b3480156109b357600080fd5b506109ce60048036038101906109c99190616cec565b61225f565b005b3480156109dc57600080fd5b506109f760048036038101906109f291906170eb565b6122e6565b005b348015610a0557600080fd5b50610a206004803603810190610a1b9190616cec565b6123f0565b604051610a2d9190618792565b60405180910390f35b348015610a4257600080fd5b50610a5d6004803603810190610a5891906170ab565b612460565b604051610a6a9190618260565b60405180910390f35b348015610a7f57600080fd5b50610a9a6004803603810190610a95919061707e565b6124cb565b604051610aa79190618260565b60405180910390f35b348015610abc57600080fd5b50610ac56124ec565b604051610ad29190618792565b60405180910390f35b348015610ae757600080fd5b50610b026004803603810190610afd9190616f6a565b6124f1565b005b348015610b1057600080fd5b50610b2b6004803603810190610b2691906176b3565b61264c565b604051610b38919061827b565b60405180910390f35b348015610b4d57600080fd5b50610b5661267f565b604051610b639190618053565b60405180910390f35b348015610b7857600080fd5b50610b936004803603810190610b8e919061707e565b6126a6565b604051610ba19291906188ab565b60405180910390f35b348015610bb657600080fd5b50610bbf6126cb565b604051610bcc919061827b565b60405180910390f35b348015610be157600080fd5b50610bea6126d2565b604051610bf79190618792565b60405180910390f35b348015610c0c57600080fd5b50610c276004803603810190610c229190616cec565b6126d8565b604051610c35929190618769565b60405180910390f35b348015610c4a57600080fd5b50610c656004803603810190610c609190616dc9565b612719565b005b348015610c7357600080fd5b50610c7c61286b565b604051610c899190618943565b60405180910390f35b348015610c9e57600080fd5b50610ca761287e565b604051610cb49190618053565b60405180910390f35b348015610cc957600080fd5b50610ce46004803603810190610cdf919061749d565b6128a5565b005b348015610cf257600080fd5b50610d0d6004803603810190610d089190616d46565b612b2a565b005b610d296004803603810190610d249190616e5c565b612eff565b005b348015610d3757600080fd5b50610d526004803603810190610d4d9190616e1c565b6130d1565b005b348015610d6057600080fd5b50610d7b6004803603810190610d769190617659565b613397565b604051610d8a939291906187e4565b60405180910390f35b348015610d9f57600080fd5b50610dba6004803603810190610db591906172bc565b6133dd565b005b348015610dc857600080fd5b50610de36004803603810190610dde91906177a2565b6135cd565b005b348015610df157600080fd5b50610e0c6004803603810190610e07919061759a565b613673565b005b348015610e1a57600080fd5b50610e356004803603810190610e309190617215565b6136fb565b604051610e429190618792565b60405180910390f35b348015610e5757600080fd5b50610e726004803603810190610e6d9190617176565b61372e565b604051610e7f919061827b565b60405180910390f35b348015610e9457600080fd5b50610eaf6004803603810190610eaa91906170ab565b6137b6565b005b348015610ebd57600080fd5b50610ed86004803603810190610ed39190617659565b6137d7565b005b348015610ee657600080fd5b50610eef6138a1565b604051610efc9190618053565b60405180910390f35b348015610f1157600080fd5b50610f1a6138c7565b604051610f27919061827b565b60405180910390f35b348015610f3c57600080fd5b50610f576004803603810190610f529190616cec565b6138eb565b604051610f6592919061881b565b60405180910390f35b348015610f7a57600080fd5b50610f956004803603810190610f909190616cec565b613998565b005b348015610fa357600080fd5b50610fbe6004803603810190610fb99190616cec565b613a1f565b005b348015610fcc57600080fd5b50610fd5613aa7565b604051610fe29190618792565b60405180910390f35b348015610ff757600080fd5b50611012600480360381019061100d919061707e565b613aad565b60405161101f9190618792565b60405180910390f35b34801561103457600080fd5b5061103d613ac6565b60405161104a9190618792565b60405180910390f35b34801561105f57600080fd5b5061107a60048036038101906110759190617746565b613acd565b604051611087919061827b565b60405180910390f35b34801561109c57600080fd5b506110a5613b00565b6040516110b29190618053565b60405180910390f35b60007f7965db0b000000000000000000000000000000000000000000000000000000007bffffffffffffffffffffffffffffffffffffffffffffffffffffffff1916827bffffffffffffffffffffffffffffffffffffffffffffffffffffffff1916148061112e575061112d82613b26565b5b9050919050565b6111426000801b33612460565b611178576040517fde8e41fa00000000000000000000000000000000000000000000000000000000815260040160405180910390fd5b8061010860006101000a81548173ffffffffffffffffffffffffffffffffffffffff021916908373ffffffffffffffffffffffffffffffffffffffff16021790555050565b6111ca6000801b33612460565b611200576040517fde8e41fa00000000000000000000000000000000000000000000000000000000815260040160405180910390fd5b61271081111561123c576040517f4668624100000000000000000000000000000000000000000000000000000000815260040160405180910390fd5b8060fd8190555050565b6112536000801b33612460565b611289576040517fde8e41fa00000000000000000000000000000000000000000000000000000000815260040160405180910390fd5b81518351146112c4576040517f4668624100000000000000000000000000000000000000000000000000000000815260040160405180910390fd5b60005b8351811015611490578115611374578281815181106112e9576112e86190ad565b5b60200260200101516101056000868481518110611309576113086190ad565b5b602002602001015181526020019081526020016000206000820151816000015560208201518160010160006101000a81548160ff02191690831515021790555060408201518160010160016101000a81548161ffff021916908361ffff16021790555090505061140e565b828181518110611387576113866190ad565b5b602002602001015161010460008684815181106113a7576113a66190ad565b5b602002602001015181526020019081526020016000206000820151816000015560208201518160010160006101000a81548160ff02191690831515021790555060408201518160010160016101000a81548161ffff021916908361ffff1602179055509050505b7f753df979edb610900dbec05f67411d26a90a78013a0e3a028f2fd9d3c6fd214f848281518110611442576114416190ad565b5b602002602001015184838151811061145d5761145c6190ad565b5b6020026020010151846040516114759392919061884b565b60405180910390a1808061148890618f8d565b9150506112c7565b50505050565b600060656000838152602001908152602001600020600101549050919050565b6114c36000801b33612460565b6114f9576040517fde8e41fa00000000000000000000000000000000000000000000000000000000815260040160405180910390fd5b8061010960006101000a81548173ffffffffffffffffffffffffffffffffffffffff021916908373ffffffffffffffffffffffffffffffffffffffff16021790555050565b600260c9541415611584576040517f08c379a000000000000000000000000000000000000000000000000000000000815260040161157b906186ec565b60405180910390fd5b600260c9819055503373ffffffffffffffffffffffffffffffffffffffff1661010960009054906101000a900473ffffffffffffffffffffffffffffffffffffffff1673ffffffffffffffffffffffffffffffffffffffff1614611614576040517fdd518cdb00000000000000000000000000000000000000000000000000000000815260040160405180910390fd5b6000610100600083815260200190815260200160002090506000816001015482600001546116429190618d51565b9050600081141561167f576040517fc6c13aa700000000000000000000000000000000000000000000000000000000815260040160405180910390fd5b808260010160008282546116939190618ac8565b925050819055506116ac6116a56119a4565b600061264c565b8314156116e5576116e061010960009054906101000a900473ffffffffffffffffffffffffffffffffffffffff1682613b90565b61176a565b61176961010960009054906101000a900473ffffffffffffffffffffffffffffffffffffffff168260ff600087815260200190815260200160002060040160009054906101000a900473ffffffffffffffffffffffffffffffffffffffff1673ffffffffffffffffffffffffffffffffffffffff16613c879092919063ffffffff16565b5b7fb4006a5a0c03fd761a319df109910cdb56253d60a54ffc647c070b8bad0a8ae3838260405161179b9291906183ea565b60405180910390a15050600160c98190555050565b6117bd6000801b33612460565b6117f3576040517fde8e41fa00000000000000000000000000000000000000000000000000000000815260040160405180910390fd5b8061010a60006101000a81548173ffffffffffffffffffffffffffffffffffffffff021916908373ffffffffffffffffffffffffffffffffffffffff1602179055507fa9543b36462a5e2c2259a14d72a8bd4e2342eaf9d7c828e9fb86921b3aa3eb5f816040516118649190618053565b60405180910390a150565b61010a60009054906101000a900473ffffffffffffffffffffffffffffffffffffffff1681565b61189f82611496565b6118a881613d0d565b6118b28383613d21565b505050565b6118c46000801b33612460565b6118fa576040517fde8e41fa00000000000000000000000000000000000000000000000000000000815260040160405180910390fd5b80156119345781610105600085815260200190815260200160002060010160006101000a81548160ff021916908315150217905550611964565b81610104600085815260200190815260200160002060010160006101000a81548160ff0219169083151502179055505b7f522cc1aea4e8d667320894993cf2dc17feb624e400eb812c41a8efbcefc3d340838383604051611997939291906187ad565b60405180910390a1505050565b600046905090565b61010d5481565b6119bb613e02565b73ffffffffffffffffffffffffffffffffffffffff168173ffffffffffffffffffffffffffffffffffffffff1614611a28576040517f08c379a0000000000000000000000000000000000000000000000000000000008152600401611a1f9061870c565b60405180910390fd5b611a328282613e0a565b5050565b611a436000801b33612460565b611a79576040517fde8e41fa00000000000000000000000000000000000000000000000000000000815260040160405180910390fd5b611a81613eec565b565b61010b60009054906101000a900473ffffffffffffffffffffffffffffffffffffffff1681565b61010860009054906101000a900473ffffffffffffffffffffffffffffffffffffffff1681565b611ade6000801b33612460565b611b14576040517fde8e41fa00000000000000000000000000000000000000000000000000000000815260040160405180910390fd5b60008160ff161415611b52576040517f4668624100000000000000000000000000000000000000000000000000000000815260040160405180910390fd5b8060fc60146101000a81548160ff021916908360ff16021790555050565b600281565b6000611b816001613f8e565b90508015611ba5576001600060016101000a81548160ff0219169083151502179055505b8260fc60146101000a81548160ff021916908360ff1602179055508161010b60006101000a81548173ffffffffffffffffffffffffffffffffffffffff021916908373ffffffffffffffffffffffffffffffffffffffff160217905550611c0f6000801b3361407e565b611c1761408c565b8015611c705760008060016101000a81548160ff0219169083151502179055507f7f26b83ff96e1f2b6a682f133852f6798a09c465da95921460cefb38474024986001604051611c6791906185af565b60405180910390a15b505050565b600061019a905090565b611c8c6000801b33612460565b611cc2576040517fde8e41fa00000000000000000000000000000000000000000000000000000000815260040160405180910390fd5b6127108261ffff161115611d02576040517f4668624100000000000000000000000000000000000000000000000000000000815260040160405180910390fd5b600060ff60008681526020019081526020016000209050838160010181905550828160040160146101000a81548161ffff021916908361ffff160217905550816101036000878152602001908152602001600020819055505050505050565b60ff6020528060005260406000206000915090508060000154908060010154908060020154908060030154908060040160009054906101000a900473ffffffffffffffffffffffffffffffffffffffff16908060040160149054906101000a900461ffff16908060040160169054906101000a900460ff16905087565b61010e60009054906101000a900461ffff1681565b6000609760009054906101000a900460ff16905090565b6101016020528060005260406000206000915054906101000a900460ff1681565b60fd5481565b3373ffffffffffffffffffffffffffffffffffffffff1661010860009054906101000a900473ffffffffffffffffffffffffffffffffffffffff1673ffffffffffffffffffffffffffffffffffffffff1614611eb9576040517f1d1dfb6d00000000000000000000000000000000000000000000000000000000815260040160405180910390fd5b600260c9541415611eff576040517f08c379a0000000000000000000000000000000000000000000000000000000008152600401611ef6906186ec565b60405180910390fd5b600260c9819055506000611f1a611f146119a4565b8461264c565b9050600060ff600083815260200190815260200160002090508060040160169054906101000a900460ff16611f7b576040517f1433b3cd00000000000000000000000000000000000000000000000000000000815260040160405180910390fd5b82816003016000828254611f8f9190618d51565b9250508190555061200a61010860009054906101000a900473ffffffffffffffffffffffffffffffffffffffff1630858460040160009054906101000a900473ffffffffffffffffffffffffffffffffffffffff1673ffffffffffffffffffffffffffffffffffffffff166140e5909392919063ffffffff16565b5050600160c9819055505050565b60008060018a8a6120276119a4565b8b8b8b6040516020016120409796959493929190617f2d565b604051602081830303815290604052905083156121705760006120716003876020015161416e90919063ffffffff16565b80156120ac5750856040015173ffffffffffffffffffffffffffffffffffffffff168473ffffffffffffffffffffffffffffffffffffffff16145b80156120bd57506020866060015151145b9050818660000151876020015188604001516040516020016120df9190617d9c565b604051602081830303815290604052805190602001208461212a578960600151805190602001206040516020016121169190617db7565b604051602081830303815290604052612130565b89606001515b8a608001518051906020012060405160200161215196959493929190617de9565b604051602081830303815290604052805190602001209250505061217c565b80805190602001209150505b98975050505050505050565b6101046020528060005260406000206000915090508060000154908060010160009054906101000a900460ff16908060010160019054906101000a900461ffff16905083565b61010e60029054906101000a900473ffffffffffffffffffffffffffffffffffffffff1681565b61221f7f2b36fa99e118fa8485d488becf749a974743fbeb6a7aa57e663893bf5d69a3c133612460565b612255576040517f6053780500000000000000000000000000000000000000000000000000000000815260040160405180910390fd5b61225d614187565b565b61226c6000801b33612460565b6122a2576040517fde8e41fa00000000000000000000000000000000000000000000000000000000815260040160405180910390fd5b8060fb60006101000a81548173ffffffffffffffffffffffffffffffffffffffff021916908373ffffffffffffffffffffffffffffffffffffffff16021790555050565b6122f36000801b33612460565b612329576040517fde8e41fa00000000000000000000000000000000000000000000000000000000815260040160405180910390fd5b8051825114612364576040517f4668624100000000000000000000000000000000000000000000000000000000815260040160405180910390fd5b60006101006000858152602001908152602001600020905060005b83518110156123e95782818151811061239b5761239a6190ad565b5b60200260200101518260020160008684815181106123bc576123bb6190ad565b5b602002602001015181526020019081526020016000208190555080806123e190618f8d565b91505061237f565b5050505050565b60008060ff60006124086124026119a4565b8661264c565b815260200190815260200160002090506127108160040160149054906101000a900461ffff1661ffff1661271061243f9190618d51565b826002015461244e9190618cf7565b6124589190618b55565b915050919050565b60006065600084815260200190815260200160002060000160008373ffffffffffffffffffffffffffffffffffffffff1673ffffffffffffffffffffffffffffffffffffffff16815260200190815260200160002060009054906101000a900460ff16905092915050565b6101026020528060005260406000206000915054906101000a900460ff1681565b600181565b6124fe6000801b33612460565b612534576040517fde8e41fa00000000000000000000000000000000000000000000000000000000815260040160405180910390fd5b60005b825181101561264757816101026000858481518110612559576125586190ad565b5b6020026020010151815260200190815260200160002060006101000a81548160ff02191690831515021790555081156125e2577f7f2b4c099f4c970e6d3b8677f8c32755ce38018a03dad58ed015c68a7e9bc7918382815181106125c0576125bf6190ad565b5b60200260200101516040516125d5919061827b565b60405180910390a1612634565b7f598eac83c515ef525efc37796beda3b069e752328e8325fb446f84e6cc7d2242838281518110612616576126156190ad565b5b602002602001015160405161262b919061827b565b60405180910390a15b808061263f90618f8d565b915050612537565b505050565b60008282604051602001612661929190617ea2565b60405160208183030381529060405280519060200120905092915050565b61010c60009054906101000a900473ffffffffffffffffffffffffffffffffffffffff1681565b6101006020528060005260406000206000915090508060000154908060010154905082565b6000801b81565b60fe5481565b6101066020528060005260406000206000915090508060000160009054906101000a900461ffff16908060000160029054906101000a900461ffff16905082565b6127266000801b33612460565b61275c576040517fde8e41fa00000000000000000000000000000000000000000000000000000000815260040160405180910390fd5b600073ffffffffffffffffffffffffffffffffffffffff168373ffffffffffffffffffffffffffffffffffffffff16148061279c57506127108261ffff16115b806127ac57506127108161ffff16115b156127e3576040517f4668624100000000000000000000000000000000000000000000000000000000815260040160405180910390fd5b600061010660008573ffffffffffffffffffffffffffffffffffffffff1673ffffffffffffffffffffffffffffffffffffffff1681526020019081526020016000209050828160000160006101000a81548161ffff021916908361ffff160217905550818160000160026101000a81548161ffff021916908361ffff16021790555050505050565b60fc60149054906101000a900460ff1681565b61010960009054906101000a900473ffffffffffffffffffffffffffffffffffffffff1681565b600260c95414156128eb576040517f08c379a00000000000000000000000000000000000000000000000000000000081526004016128e2906186ec565b60405180910390fd5b600260c9819055506128fb611df3565b1561293b576040517f08c379a00000000000000000000000000000000000000000000000000000000081526004016129329061864c565b60405180910390fd5b60006129478688613acd565b905060ff600082815260200190815260200160002060040160169054906101000a900460ff16156129a4576040517ff0faeff500000000000000000000000000000000000000000000000000000000815260040160405180910390fd5b60006129b28287878761372e565b905060fc60009054906101000a900473ffffffffffffffffffffffffffffffffffffffff1673ffffffffffffffffffffffffffffffffffffffff1663965d0a64828560fc60149054906101000a900460ff166040518463ffffffff1660e01b8152600401612a2293929190618359565b600060405180830381600087803b158015612a3c57600080fd5b505af1158015612a50573d6000803e3d6000fd5b50505050600060fb60009054906101000a900473ffffffffffffffffffffffffffffffffffffffff1673ffffffffffffffffffffffffffffffffffffffff166307435505848989896040518563ffffffff1660e01b8152600401612ab79493929190618397565b602060405180830381600087803b158015612ad157600080fd5b505af1158015612ae5573d6000803e3d6000fd5b505050506040513d601f19601f82011682018060405250810190612b099190616d19565b9050612b1783828b8b61422a565b505050600160c981905550505050505050565b600260c9541415612b70576040517f08c379a0000000000000000000000000000000000000000000000000000000008152600401612b67906186ec565b60405180910390fd5b600260c981905550612b80611df3565b15612bc0576040517f08c379a0000000000000000000000000000000000000000000000000000000008152600401612bb79061864c565b60405180910390fd5b6000612bd3612bcd6119a4565b8661264c565b905060ff600082815260200190815260200160002060040160169054906101000a900460ff16612c2f576040517f1433b3cd00000000000000000000000000000000000000000000000000000000815260040160405180910390fd5b600061271060fd5485612c429190618cf7565b612c4c9190618b55565b905060008673ffffffffffffffffffffffffffffffffffffffff166370a08231306040518263ffffffff1660e01b8152600401612c899190618053565b60206040518083038186803b158015612ca157600080fd5b505afa158015612cb5573d6000803e3d6000fd5b505050506040513d601f19601f82011682018060405250810190612cd99190617686565b9050612d0686868973ffffffffffffffffffffffffffffffffffffffff16613c879092919063ffffffff16565b3373ffffffffffffffffffffffffffffffffffffffff1663b6dc00f283866040518363ffffffff1660e01b8152600401612d4192919061881b565b600060405180830381600087803b158015612d5b57600080fd5b505af1158015612d6f573d6000803e3d6000fd5b5050505060008773ffffffffffffffffffffffffffffffffffffffff166370a08231306040518263ffffffff1660e01b8152600401612dae9190618053565b60206040518083038186803b158015612dc657600080fd5b505afa158015612dda573d6000803e3d6000fd5b505050506040513d601f19601f82011682018060405250810190612dfe9190617686565b9050808383612e0d9190618ac8565b1115612e45576040517fb1b335fb00000000000000000000000000000000000000000000000000000000815260040160405180910390fd5b60008282612e539190618d51565b90508061010060008781526020019081526020016000206000016000828254612e7c9190618ac8565b925050819055508773ffffffffffffffffffffffffffffffffffffffff168973ffffffffffffffffffffffffffffffffffffffff167f3a1e073dab8e368be1648fd9c55ea62610b7eb53f9154791282692a76b153ca1338a85604051612ee493929190618229565b60405180910390a35050505050600160c98190555050505050565b600260c9541415612f45576040517f08c379a0000000000000000000000000000000000000000000000000000000008152600401612f3c906186ec565b60405180910390fd5b600260c981905550612f55611df3565b15612f95576040517f08c379a0000000000000000000000000000000000000000000000000000000008152600401612f8c9061864c565b60405180910390fd5b6000612f9f61659b565b6000612fae888d8d8d8b6144cd565b809450819550829350505050612fc26165ce565b6000868690501115613086578585810190612fdd9190617610565b9050612fed8d8260000151614fbb565b8160000181815250508b81600001511115613034576040517ffe768a2300000000000000000000000000000000000000000000000000000000815260040160405180910390fd5b600081606001515111801561304e57506000816040015151145b15613085576040517fae0fa3a800000000000000000000000000000000000000000000000000000000815260040160405180910390fd5b5b8060000151826130969190618d51565b91506130a28d83614fbb565b91506130ba848c848d878c8760008e8e9050116150cd565b50505050600160c981905550505050505050505050565b3373ffffffffffffffffffffffffffffffffffffffff1661010860009054906101000a900473ffffffffffffffffffffffffffffffffffffffff1673ffffffffffffffffffffffffffffffffffffffff1614613159576040517f1d1dfb6d00000000000000000000000000000000000000000000000000000000815260040160405180910390fd5b600260c954141561319f576040517f08c379a0000000000000000000000000000000000000000000000000000000008152600401613196906186ec565b60405180910390fd5b600260c98190555060006131ba6131b46119a4565b8461264c565b9050600060ff600083815260200190815260200160002090508060040160169054906101000a900460ff1661321b576040517f1433b3cd00000000000000000000000000000000000000000000000000000000815260040160405180910390fd5b60006127108260040160149054906101000a900461ffff1661ffff1683600201546132469190618cf7565b6132509190618b55565b90508473ffffffffffffffffffffffffffffffffffffffff166370a08231306040518263ffffffff1660e01b815260040161328b9190618053565b60206040518083038186803b1580156132a357600080fd5b505afa1580156132b7573d6000803e3d6000fd5b505050506040513d601f19601f820116820180604052508101906132db9190617686565b84826132e79190618ac8565b111561331f576040517fc6c13aa700000000000000000000000000000000000000000000000000000000815260040160405180910390fd5b838260030160008282546133339190618ac8565b9250508190555061338861010860009054906101000a900473ffffffffffffffffffffffffffffffffffffffff16858773ffffffffffffffffffffffffffffffffffffffff16613c879092919063ffffffff16565b505050600160c9819055505050565b6101056020528060005260406000206000915090508060000154908060010160009054906101000a900460ff16908060010160019054906101000a900461ffff16905083565b6133e5611df3565b15613425576040517f08c379a000000000000000000000000000000000000000000000000000000000815260040161341c9061864c565b60405180910390fd5b610105600088815260200190815260200160002060010160009054906101000a900460ff16613480576040517f76b77bf200000000000000000000000000000000000000000000000000000000815260040160405180910390fd5b6134886165f6565b60008383905011156134a65782828101906134a391906175c7565b90505b60006134be8b8a8c8b8b8760008b8b90501133612018565b9050610101600082815260200190815260200160002060009054906101000a900460ff1615613519576040517fe4e5e97500000000000000000000000000000000000000000000000000000000815260040160405180910390fd5b6001610101600083815260200190815260200160002060006101000a81548160ff021916908315150217905550613553818c8c89896153da565b6000613563828d8b8e8e88615500565b9050898973ffffffffffffffffffffffffffffffffffffffff168d7ffee5cae6d86f128037e90fc8d24296e73ad402bd6f6f09098589d528c2e14ad2858f8d8b8b896040516135b7969594939291906184d8565b60405180910390a4505050505050505050505050565b6135da6000801b33612460565b613610576040517fde8e41fa00000000000000000000000000000000000000000000000000000000815260040160405180910390fd5b8161010d819055508061010e60006101000a81548161ffff021916908361ffff1602179055507f850cd955704b99a3588cb377341a321bc53b01073abba0af4616b0c70eb779438282604051613667929190618882565b60405180910390a15050565b6136806000801b33612460565b6136b6576040517fde8e41fa00000000000000000000000000000000000000000000000000000000815260040160405180910390fd5b8061010e60026101000a81548173ffffffffffffffffffffffffffffffffffffffff021916908373ffffffffffffffffffffffffffffffffffffffff16021790555050565b60006101006000848152602001908152602001600020600201600083815260200190815260200160002054905092915050565b6000600285856040516020016137449190617e51565b604051602081830303815290604052805190602001208560405160200161376b9190617e51565b6040516020818303038152906040528051906020012085604051602001613796959493929190617ece565b604051602081830303815290604052805190602001209050949350505050565b6137bf82611496565b6137c881613d0d565b6137d28383613e0a565b505050565b3373ffffffffffffffffffffffffffffffffffffffff1661010c60009054906101000a900473ffffffffffffffffffffffffffffffffffffffff1673ffffffffffffffffffffffffffffffffffffffff161461385f576040517f83907ebe00000000000000000000000000000000000000000000000000000000815260040160405180910390fd5b8061010d819055507f6af65247cf743b7cb486dac49457e290bf672f3d89f71ed05d3f56d7b69c014b816040516138969190618792565b60405180910390a150565b60fb60009054906101000a900473ffffffffffffffffffffffffffffffffffffffff1681565b7f2b36fa99e118fa8485d488becf749a974743fbeb6a7aa57e663893bf5d69a3c181565b61010760205280600052604060002060009150905080600001549080600101805461391590618f2a565b80601f016020809104026020016040519081016040528092919081815260200182805461394190618f2a565b801561398e5780601f106139635761010080835404028352916020019161398e565b820191906000526020600020905b81548152906001019060200180831161397157829003601f168201915b5050505050905082565b6139a56000801b33612460565b6139db576040517fde8e41fa00000000000000000000000000000000000000000000000000000000815260040160405180910390fd5b8060fc60006101000a81548173ffffffffffffffffffffffffffffffffffffffff021916908373ffffffffffffffffffffffffffffffffffffffff16021790555050565b613a2c6000801b33612460565b613a62576040517fde8e41fa00000000000000000000000000000000000000000000000000000000815260040160405180910390fd5b8061010c60006101000a81548173ffffffffffffffffffffffffffffffffffffffff021916908373ffffffffffffffffffffffffffffffffffffffff16021790555050565b61271081565b6101036020528060005260406000206000915090505481565b61010f5481565b60008282604051602001613ae292919061802b565b60405160208183030381529060405280519060200120905092915050565b60fc60009054906101000a900473ffffffffffffffffffffffffffffffffffffffff1681565b60007f01ffc9a7000000000000000000000000000000000000000000000000000000007bffffffffffffffffffffffffffffffffffffffffffffffffffffffff1916827bffffffffffffffffffffffffffffffffffffffffffffffffffffffff1916149050919050565b60008273ffffffffffffffffffffffffffffffffffffffff1682600067ffffffffffffffff811115613bc557613bc46190dc565b5b6040519080825280601f01601f191660200182016040528015613bf75781602001600182028036833780820191505090505b50604051613c059190617dd2565b60006040518083038185875af1925050503d8060008114613c42576040519150601f19603f3d011682016040523d82523d6000602084013e613c47565b606091505b5050905080613c82576040517f6d963f8800000000000000000000000000000000000000000000000000000000815260040160405180910390fd5b505050565b613d088363a9059cbb60e01b8484604051602401613ca6929190618200565b604051602081830303815290604052907bffffffffffffffffffffffffffffffffffffffffffffffffffffffff19166020820180517bffffffffffffffffffffffffffffffffffffffffffffffffffffffff8381831617835250505050615993565b505050565b613d1e81613d19613e02565b615a5a565b50565b613d2b8282612460565b613dfe5760016065600084815260200190815260200160002060000160008373ffffffffffffffffffffffffffffffffffffffff1673ffffffffffffffffffffffffffffffffffffffff16815260200190815260200160002060006101000a81548160ff021916908315150217905550613da3613e02565b73ffffffffffffffffffffffffffffffffffffffff168173ffffffffffffffffffffffffffffffffffffffff16837f2f8788117e7eff1d82e926ec794901d17c78024a50270940304540a733656f0d60405160405180910390a45b5050565b600033905090565b613e148282612460565b15613ee85760006065600084815260200190815260200160002060000160008373ffffffffffffffffffffffffffffffffffffffff1673ffffffffffffffffffffffffffffffffffffffff16815260200190815260200160002060006101000a81548160ff021916908315150217905550613e8d613e02565b73ffffffffffffffffffffffffffffffffffffffff168173ffffffffffffffffffffffffffffffffffffffff16837ff6391f5c32d9c69d2a47ea670b442974b53935d1edc7fd64eb21e047a839171b60405160405180910390a45b5050565b613ef4611df3565b613f33576040517f08c379a0000000000000000000000000000000000000000000000000000000008152600401613f2a9061860c565b60405180910390fd5b6000609760006101000a81548160ff0219169083151502179055507f5db9ee0a495bf2e6ff9c91a7834c1ba4fdd244a5e8aa4e537bd38aeae4b073aa613f77613e02565b604051613f849190618053565b60405180910390a1565b60008060019054906101000a900460ff16156140055760018260ff16148015613fbd5750613fbb30615af7565b155b613ffc576040517f08c379a0000000000000000000000000000000000000000000000000000000008152600401613ff39061866c565b60405180910390fd5b60009050614079565b8160ff1660008054906101000a900460ff1660ff161061405a576040517f08c379a00000000000000000000000000000000000000000000000000000000081526004016140519061866c565b60405180910390fd5b816000806101000a81548160ff021916908360ff160217905550600190505b919050565b6140888282613d21565b5050565b600060019054906101000a900460ff166140db576040517f08c379a00000000000000000000000000000000000000000000000000000000081526004016140d2906186ac565b60405180910390fd5b6140e3615b1a565b565b614168846323b872dd60e01b8585856040516024016141069392919061815a565b604051602081830303815290604052907bffffffffffffffffffffffffffffffffffffffffffffffffffffffff19166020820180517bffffffffffffffffffffffffffffffffffffffffffffffffffffffff8381831617835250505050615993565b50505050565b60008060018385901c1690506001811491505092915050565b61418f611df3565b156141cf576040517f08c379a00000000000000000000000000000000000000000000000000000000081526004016141c69061864c565b60405180910390fd5b6001609760006101000a81548160ff0219169083151502179055507f62e78cea01bee320cd4e420270b5ea74000d11b0c9f74754ebdbfc544b05a258614213613e02565b6040516142209190618053565b60405180910390a1565b600060ff600086815260200190815260200160002090508060040160169054906101000a900460ff161561428a576040517ff0faeff500000000000000000000000000000000000000000000000000000000815260040160405180910390fd5b600073ffffffffffffffffffffffffffffffffffffffff168473ffffffffffffffffffffffffffffffffffffffff1614156142f1576040517fd92e233d00000000000000000000000000000000000000000000000000000000815260040160405180910390fd5b60018160040160166101000a81548160ff021916908315150217905550838160040160006101000a81548173ffffffffffffffffffffffffffffffffffffffff021916908373ffffffffffffffffffffffffffffffffffffffff160217905550818160000181905550600081600101541415614391577fffffffffffffffffffffffffffffffffffffffffffffffffffffffffffffffff81600101819055505b6127108160040160146101000a81548161ffff021916908361ffff16021790555060006101036000878152602001908152602001600020541415614409577fffffffffffffffffffffffffffffffffffffffffffffffffffffffffffffffff6101036000878152602001908152602001600020819055505b600061010760008673ffffffffffffffffffffffffffffffffffffffff1673ffffffffffffffffffffffffffffffffffffffff16815260200190815260200160002090508281600001819055508381600101908051906020019061446e92919061663b565b50827f2fe256b895c7737f17df53e47f93d864727942c40cbfeb0098fb10b2b57da51487878786600101548760040160149054906101000a900461ffff166040516144bd9594939291906182bf565b60405180910390a2505050505050565b6000806144d861659b565b6144e187615b73565b60008851111561459e57600061450160008a615dfe90919063ffffffff16565b9050600080600061451c60208d615e5690919063ffffffff16565b9250925092508a73ffffffffffffffffffffffffffffffffffffffff1663d505accf33308d888689896040518863ffffffff1660e01b81526004016145679796959493929190618191565b600060405180830381600087803b15801561458157600080fd5b505af1158015614595573d6000803e3d6000fd5b50505050505050505b600061010760008973ffffffffffffffffffffffffffffffffffffffff1673ffffffffffffffffffffffffffffffffffffffff1681526020019081526020016000206040518060400160405290816000820154815260200160018201805461460590618f2a565b80601f016020809104026020016040519081016040528092919081815260200182805461463190618f2a565b801561467e5780601f106146535761010080835404028352916020019161467e565b820191906000526020600020905b81548152906001019060200180831161466157829003601f168201915b50505050508152505090506000808260000151146146a95761469e6119a4565b8260000151146146ac565b60015b9050801561472a576147236146bf6119a4565b600073ffffffffffffffffffffffffffffffffffffffff168b73ffffffffffffffffffffffffffffffffffffffff16146146f9578a61471e565b61010b60009054906101000a900473ffffffffffffffffffffffffffffffffffffffff165b61264c565b935061473f565b61473c82600001518360200151613acd565b93505b600060ff600086815260200190815260200160002090508060040160169054906101000a900460ff1661483f57811561480c5760008073ffffffffffffffffffffffffffffffffffffffff168b73ffffffffffffffffffffffffffffffffffffffff16146147ad578a6147d2565b61010b60009054906101000a900473ffffffffffffffffffffffffffffffffffffffff165b90506148068682836040516020016147ea9190617d9c565b6040516020818303038152906040526148016119a4565b61422a565b5061483e565b6040517f1433b3cd00000000000000000000000000000000000000000000000000000000815260040160405180910390fd5b5b600061010460008a8152602001908152602001600020604051806060016040529081600082015481526020016001820160009054906101000a900460ff161515151581526020016001820160019054906101000a900461ffff1661ffff1661ffff1681525050905080602001516148e2576040517faff9499e00000000000000000000000000000000000000000000000000000000815260040160405180910390fd5b600073ffffffffffffffffffffffffffffffffffffffff168b73ffffffffffffffffffffffffffffffffffffffff1614156149a75734995061010b60009054906101000a900473ffffffffffffffffffffffffffffffffffffffff1673ffffffffffffffffffffffffffffffffffffffff1663d0e30db08b6040518263ffffffff1660e01b81526004016000604051808303818588803b15801561498557600080fd5b505af1158015614999573d6000803e3d6000fd5b505050505060019750614aff565b60008b905060008173ffffffffffffffffffffffffffffffffffffffff166370a08231306040518263ffffffff1660e01b81526004016149e79190618053565b60206040518083038186803b1580156149ff57600080fd5b505afa158015614a13573d6000803e3d6000fd5b505050506040513d601f19601f82011682018060405250810190614a379190617686565b9050614a6633308e8573ffffffffffffffffffffffffffffffffffffffff166140e5909392919063ffffffff16565b808273ffffffffffffffffffffffffffffffffffffffff166370a08231306040518263ffffffff1660e01b8152600401614aa09190618053565b60206040518083038186803b158015614ab857600080fd5b505afa158015614acc573d6000803e3d6000fd5b505050506040513d601f19601f82011682018060405250810190614af09190617686565b614afa9190618d51565b9b5050505b81600101548a1115614b3d576040517fb44042ee00000000000000000000000000000000000000000000000000000000815260040160405180910390fd5b600061010660003373ffffffffffffffffffffffffffffffffffffffff1673ffffffffffffffffffffffffffffffffffffffff1681526020019081526020016000206040518060400160405290816000820160009054906101000a900461ffff1661ffff1661ffff1681526020016000820160029054906101000a900461ffff1661ffff1661ffff1681525050905060006101006000898152602001908152602001600020905060008a15614cf057600073ffffffffffffffffffffffffffffffffffffffff168e73ffffffffffffffffffffffffffffffffffffffff161415614c43576000846000015114614c37578360000151614c3c565b61010d545b9050614c97565b8160020160008d81526020019081526020016000205490506000811415614c96576040517f2ac643f600000000000000000000000000000000000000000000000000000000815260040160405180910390fd5b5b614ca5818460000151615eeb565b9050808d1015614ce1576040517f0a44071300000000000000000000000000000000000000000000000000000000815260040160405180910390fd5b80886020018181525050614dc7565b600080856000015114614d07578460000151614d0c565b61010d545b9050614d1c818560000151615eeb565b905080341015614d58576040517f0a44071300000000000000000000000000000000000000000000000000000000815260040160405180910390fd5b80341115614d7657614d75338234614d709190618d51565b613b90565b5b6000614d8a614d836119a4565b600061264c565b90508161010060008381526020019081526020016000206000016000828254614db39190618ac8565b92505081905550818a602001818152505050505b6000612710828f614dd89190618d51565b6000876040015161ffff1614614df2578660400151614e05565b61010e60009054906101000a900461ffff165b61ffff16614e139190618cf7565b614e1d9190618b55565b9050614e2d818560200151615eeb565b905060008282614e3d9190618ac8565b9050808f1015614e79576040517f0a44071300000000000000000000000000000000000000000000000000000000815260040160405180910390fd5b80846000016000828254614e8d9190618ac8565b92505081905550808f614ea09190618d51565b9b50818a60400181815250508c8a60600190151590811515815250508e8a6000018181525050878a608001901515908115158152505050505050508215614f015786826002016000828254614ef59190618ac8565b92505081905550614fac565b86826002016000828254614f159190618d51565b925050819055508160040160009054906101000a900473ffffffffffffffffffffffffffffffffffffffff1673ffffffffffffffffffffffffffffffffffffffff166342966c68886040518263ffffffff1660e01b8152600401614f799190618792565b600060405180830381600087803b158015614f9357600080fd5b505af1158015614fa7573d6000803e3d6000fd5b505050505b50505050955095509592505050565b600080600073ffffffffffffffffffffffffffffffffffffffff168473ffffffffffffffffffffffffffffffffffffffff1614615075578373ffffffffffffffffffffffffffffffffffffffff1663313ce5676040518163ffffffff1660e01b815260040160206040518083038186803b15801561503857600080fd5b505afa15801561504c573d6000803e3d6000fd5b505050506040513d601f19601f82011682018060405250810190615070919061780f565b615078565b60125b60ff169050600060089050808211156150c257600081836150999190618d51565b600a6150a59190618bd9565b90508081866150b49190618b55565b6150be9190618cf7565b9450505b839250505092915050565b60008060018a6150db6119a4565b8b8b8b60fe546040516020016150f79796959493929190617fae565b604051602081830303815290604052905082156152205760006151286003866020015161416e90919063ffffffff16565b905080801561513d5750602085606001515114155b15615174576040517fae0fa3a800000000000000000000000000000000000000000000000000000000815260040160405180910390fd5b8185600001518660200151876040015180519060200120846151c0578860600151805190602001206040516020016151ac9190617db7565b6040516020818303038152906040526151c6565b88606001515b336040516020016151d79190617d9c565b6040516020818303038152906040528051906020012060405160200161520296959493929190617de9565b6040516020818303038152906040528051906020012092505061522b565b808051906020012091505b888a7fe315721819a1f353fe56de404206bdd896ab5edc7822f1804a8c4c2c4788174c848b8b60fe548b8d8b6152705760405180602001604052806000815250615291565b8c604051602001615281919061872c565b6040516020818303038152906040525b336040516152a6989796959493929190618413565b60405180910390a37f6bc83b8dd1a15f3a247f8f99d37e3bb8ae7074ea13ee1f509e045723fafe0b558260fe5460ff60008e81526020019081526020016000206002015460ff60008f815260200190815260200160002060040160009054906101000a900473ffffffffffffffffffffffffffffffffffffffff1673ffffffffffffffffffffffffffffffffffffffff166318160ddd6040518163ffffffff1660e01b815260040160206040518083038186803b15801561536657600080fd5b505afa15801561537a573d6000803e3d6000fd5b505050506040513d601f19601f8201168201806040525081019061539e9190617686565b6040516153ae9493929190618534565b60405180910390a160fe60008154809291906153c990618f8d565b919050555050505050505050505050565b610102600086815260200190815260200160002060009054906101000a900460ff1615615433576040517fd49624bf00000000000000000000000000000000000000000000000000000000815260040160405180910390fd5b60fc60009054906101000a900473ffffffffffffffffffffffffffffffffffffffff1673ffffffffffffffffffffffffffffffffffffffff1663965d0a6486848461010360008a8152602001908152602001600020548810156154975760006154a8565b60fc60149054906101000a900460ff165b6040518563ffffffff1660e01b81526004016154c79493929190618319565b600060405180830381600087803b1580156154e157600080fd5b505af11580156154f5573d6000803e3d6000fd5b505050505050505050565b60008060ff600088815260200190815260200160002090508060040160169054906101000a900460ff16615560576040517f1433b3cd00000000000000000000000000000000000000000000000000000000815260040160405180910390fd5b6155686119a4565b816000015414915081156155a5578260000151856155869190618ac8565b8160020160008282546155999190618d51565b925050819055506155d0565b8260000151856155b59190618ac8565b8160020160008282546155c89190618ac8565b925050819055505b60008160040160009054906101000a900473ffffffffffffffffffffffffffffffffffffffff169050600083801561561c575061561b6000866020015161416e90919063ffffffff16565b5b8015615676575061010b60009054906101000a900473ffffffffffffffffffffffffffffffffffffffff1673ffffffffffffffffffffffffffffffffffffffff168273ffffffffffffffffffffffffffffffffffffffff16145b9050600085600001511115615696576156958233876000015187615f1d565b5b6000856060015151111561588357600061010a60009054906101000a900473ffffffffffffffffffffffffffffffffffffffff1690506000821561578a576156de828a615fd1565b8173ffffffffffffffffffffffffffffffffffffffff166329e164db88604001518c8a606001518b602001518c608001518e6040518763ffffffff1660e01b8152600401615731969594939291906180eb565b602060405180830381600087803b15801561574b57600080fd5b505af115801561575f573d6000803e3d6000fd5b505050506040513d601f19601f820116820180604052508101906157839190617051565b9050615840565b61579684838b89615f1d565b8173ffffffffffffffffffffffffffffffffffffffff1663b88c998b8589604001518d8b606001518c602001518d608001518f6040518863ffffffff1660e01b81526004016157eb979695949392919061806e565b602060405180830381600087803b15801561580557600080fd5b505af1158015615819573d6000803e3d6000fd5b505050506040513d601f19601f8201168201806040525081019061583d9190617051565b90505b8015157fb5fadd70c6860131059f49f37dff63a2b25d1df54e62d75c8327d896c0f7a0ad8d84604051615874929190618296565b60405180910390a250506158a6565b8015615898576158938888615fd1565b6158a5565b6158a482898987615f1d565b5b5b7fe16b3d616e66789124fb71bf745a9a969a79906489c299e52e09686696152ef18a84600201548560040160009054906101000a900473ffffffffffffffffffffffffffffffffffffffff1673ffffffffffffffffffffffffffffffffffffffff166318160ddd6040518163ffffffff1660e01b815260040160206040518083038186803b15801561593757600080fd5b505afa15801561594b573d6000803e3d6000fd5b505050506040513d601f19601f8201168201806040525081019061596f9190617686565b60405161597e939291906184a1565b60405180910390a15050509695505050505050565b60006159f5826040518060400160405280602081526020017f5361666545524332303a206c6f772d6c6576656c2063616c6c206661696c65648152508573ffffffffffffffffffffffffffffffffffffffff166161cc9092919063ffffffff16565b9050600081511115615a555780806020019051810190615a159190617051565b615a54576040517f08c379a0000000000000000000000000000000000000000000000000000000008152600401615a4b906186cc565b60405180910390fd5b5b505050565b615a648282612460565b615af357615a898173ffffffffffffffffffffffffffffffffffffffff1660146161e4565b615a978360001c60206161e4565b604051602001615aa8929190617e68565b6040516020818303038152906040526040517f08c379a0000000000000000000000000000000000000000000000000000000008152600401615aea91906185ca565b60405180910390fd5b5050565b6000808273ffffffffffffffffffffffffffffffffffffffff163b119050919050565b600060019054906101000a900460ff16615b69576040517f08c379a0000000000000000000000000000000000000000000000000000000008152600401615b60906186ac565b60405180910390fd5b600160c981905550565b600073ffffffffffffffffffffffffffffffffffffffff168173ffffffffffffffffffffffffffffffffffffffff161415615bad57615dfb565b60008173ffffffffffffffffffffffffffffffffffffffff166040516024016040516020818303038152906040527f313ce567000000000000000000000000000000000000000000000000000000007bffffffffffffffffffffffffffffffffffffffffffffffffffffffff19166020820180517bffffffffffffffffffffffffffffffffffffffffffffffffffffffff8381831617835250505050604051615c569190617dd2565b6000604051808303816000865af19150503d8060008114615c93576040519150601f19603f3d011682016040523d82523d6000602084013e615c98565b606091505b5050905080615cd3576040517f6d737eeb00000000000000000000000000000000000000000000000000000000815260040160405180910390fd5b8173ffffffffffffffffffffffffffffffffffffffff166040516024016040516020818303038152906040527f95d89b41000000000000000000000000000000000000000000000000000000007bffffffffffffffffffffffffffffffffffffffffffffffffffffffff19166020820180517bffffffffffffffffffffffffffffffffffffffffffffffffffffffff8381831617835250505050604051615d7a9190617dd2565b6000604051808303816000865af19150503d8060008114615db7576040519150601f19603f3d011682016040523d82523d6000602084013e615dbc565b606091505b50508091505080615df9576040517f6d737eeb00000000000000000000000000000000000000000000000000000000815260040160405180910390fd5b505b50565b6000602082615e0d9190618ac8565b83511015615e47576040517f40f0f32900000000000000000000000000000000000000000000000000000000815260040160405180910390fd5b81602084010151905092915050565b600080600083602001850151925083604001850151915060ff84604101860151169050601b8160ff161015615e9557601b81615e929190618b1e565b90505b601b8160ff1614158015615ead5750601c8160ff1614155b15615ee4576040517f18ce829400000000000000000000000000000000000000000000000000000000815260040160405180910390fd5b9250925092565b60006127108261ffff1684615f009190618cf7565b615f0a9190618b55565b83615f159190618d51565b905092915050565b6000821115615fcb578015615f5c57615f5783838673ffffffffffffffffffffffffffffffffffffffff16613c879092919063ffffffff16565b615fca565b8373ffffffffffffffffffffffffffffffffffffffff166340c10f1984846040518363ffffffff1660e01b8152600401615f97929190618200565b600060405180830381600087803b158015615fb157600080fd5b505af1158015615fc5573d6000803e3d6000fd5b505050505b5b50505050565b600073ffffffffffffffffffffffffffffffffffffffff1661010e60029054906101000a900473ffffffffffffffffffffffffffffffffffffffff1673ffffffffffffffffffffffffffffffffffffffff1614156160c65761010b60009054906101000a900473ffffffffffffffffffffffffffffffffffffffff1673ffffffffffffffffffffffffffffffffffffffff16632e1a7d4d826040518263ffffffff1660e01b81526004016160859190618792565b600060405180830381600087803b15801561609f57600080fd5b505af11580156160b3573d6000803e3d6000fd5b505050506160c18282613b90565b6161c8565b61613761010e60029054906101000a900473ffffffffffffffffffffffffffffffffffffffff168261010b60009054906101000a900473ffffffffffffffffffffffffffffffffffffffff1673ffffffffffffffffffffffffffffffffffffffff16613c879092919063ffffffff16565b61010e60029054906101000a900473ffffffffffffffffffffffffffffffffffffffff1673ffffffffffffffffffffffffffffffffffffffff1663f3fef3a383836040518363ffffffff1660e01b8152600401616195929190618200565b600060405180830381600087803b1580156161af57600080fd5b505af11580156161c3573d6000803e3d6000fd5b505050505b5050565b60606161db8484600085616420565b90509392505050565b6060600060028360026161f79190618cf7565b6162019190618ac8565b67ffffffffffffffff81111561621a576162196190dc565b5b6040519080825280601f01601f19166020018201604052801561624c5781602001600182028036833780820191505090505b5090507f300000000000000000000000000000000000000000000000000000000000000081600081518110616284576162836190ad565b5b60200101907effffffffffffffffffffffffffffffffffffffffffffffffffffffffffffff1916908160001a9053507f7800000000000000000000000000000000000000000000000000000000000000816001815181106162e8576162e76190ad565b5b60200101907effffffffffffffffffffffffffffffffffffffffffffffffffffffffffffff1916908160001a905350600060018460026163289190618cf7565b6163329190618ac8565b90505b60018111156163d2577f3031323334353637383961626364656600000000000000000000000000000000600f861660108110616374576163736190ad565b5b1a60f81b82828151811061638b5761638a6190ad565b5b60200101907effffffffffffffffffffffffffffffffffffffffffffffffffffffffffffff1916908160001a905350600485901c9450806163cb90618f00565b9050616335565b5060008414616416576040517f08c379a000000000000000000000000000000000000000000000000000000000815260040161640d906185ec565b60405180910390fd5b8091505092915050565b606082471015616465576040517f08c379a000000000000000000000000000000000000000000000000000000000815260040161645c9061862c565b60405180910390fd5b61646e85615af7565b6164ad576040517f08c379a00000000000000000000000000000000000000000000000000000000081526004016164a49061868c565b60405180910390fd5b6000808673ffffffffffffffffffffffffffffffffffffffff1685876040516164d69190617dd2565b60006040518083038185875af1925050503d8060008114616513576040519150601f19603f3d011682016040523d82523d6000602084013e616518565b606091505b5091509150616528828286616534565b92505050949350505050565b6060831561654457829050616594565b6000835111156165575782518084602001fd5b816040517f08c379a000000000000000000000000000000000000000000000000000000000815260040161658b91906185ca565b60405180910390fd5b9392505050565b6040518060a001604052806000815260200160008152602001600081526020016000151581526020016000151581525090565b6040518060800160405280600081526020016000815260200160608152602001606081525090565b6040518060a001604052806000815260200160008152602001600073ffffffffffffffffffffffffffffffffffffffff16815260200160608152602001606081525090565b82805461664790618f2a565b90600052602060002090601f01602090048101928261666957600085556166b0565b82601f1061668257805160ff19168380011785556166b0565b828001600101855582156166b0579182015b828111156166af578251825591602001919060010190616694565b5b5090506166bd91906166c1565b5090565b5b808211156166da5760008160009055506001016166c2565b5090565b60006166f16166ec84618983565b61895e565b905080838252602082019050828560208602820111156167145761671361911f565b5b60005b85811015616744578161672a8882616990565b845260208401935060208301925050600181019050616717565b5050509392505050565b600061676161675c846189af565b61895e565b905080838252602082019050828560608602820111156167845761678361911f565b5b60005b858110156167b4578161679a8882616a96565b845260208401935060608301925050600181019050616787565b5050509392505050565b60006167d16167cc846189db565b61895e565b905080838252602082019050828560208602820111156167f4576167f361911f565b5b60005b85811015616824578161680a8882616c83565b8452602084019350602083019250506001810190506167f7565b5050509392505050565b600061684161683c84618a07565b61895e565b90508281526020810184848401111561685d5761685c619124565b5b616868848285618ebe565b509392505050565b600061688361687e84618a38565b61895e565b90508281526020810184848401111561689f5761689e619124565b5b6168aa848285618ebe565b509392505050565b6000813590506168c181619415565b92915050565b6000815190506168d681619415565b92915050565b600082601f8301126168f1576168f0619110565b5b81356169018482602086016166de565b91505092915050565b600082601f83011261691f5761691e619110565b5b813561692f84826020860161674e565b91505092915050565b600082601f83011261694d5761694c619110565b5b813561695d8482602086016167be565b91505092915050565b6000813590506169758161942c565b92915050565b60008151905061698a8161942c565b92915050565b60008135905061699f81619443565b92915050565b6000813590506169b48161945a565b92915050565b60008083601f8401126169d0576169cf619110565b5b8235905067ffffffffffffffff8111156169ed576169ec61910b565b5b602083019150836001820283011115616a0957616a0861911f565b5b9250929050565b600082601f830112616a2557616a24619110565b5b8135616a3584826020860161682e565b91505092915050565b600081359050616a4d81619471565b92915050565b600081359050616a6281619488565b92915050565b600082601f830112616a7d57616a7c619110565b5b8135616a8d848260208601616870565b91505092915050565b600060608284031215616aac57616aab619115565b5b616ab6606061895e565b90506000616ac684828501616c83565b6000830152506020616ada84828501616966565b6020830152506040616aee84828501616c6e565b60408301525092915050565b600060a08284031215616b1057616b0f619115565b5b616b1a60a061895e565b90506000616b2a84828501616c83565b6000830152506020616b3e84828501616c83565b6020830152506040616b52848285016168b2565b604083015250606082013567ffffffffffffffff811115616b7657616b7561911a565b5b616b8284828501616a10565b606083015250608082013567ffffffffffffffff811115616ba657616ba561911a565b5b616bb284828501616a10565b60808301525092915050565b600060808284031215616bd457616bd3619115565b5b616bde608061895e565b90506000616bee84828501616c83565b6000830152506020616c0284828501616c83565b602083015250604082013567ffffffffffffffff811115616c2657616c2561911a565b5b616c3284828501616a10565b604083015250606082013567ffffffffffffffff811115616c5657616c5561911a565b5b616c6284828501616a10565b60608301525092915050565b600081359050616c7d8161949f565b92915050565b600081359050616c92816194b6565b92915050565b600081519050616ca7816194b6565b92915050565b600081359050616cbc816194cd565b92915050565b600081359050616cd1816194e4565b92915050565b600081519050616ce6816194e4565b92915050565b600060208284031215616d0257616d0161912e565b5b6000616d10848285016168b2565b91505092915050565b600060208284031215616d2f57616d2e61912e565b5b6000616d3d848285016168c7565b91505092915050565b60008060008060808587031215616d6057616d5f61912e565b5b6000616d6e878288016168b2565b9450506020616d7f878288016168b2565b9350506040616d9087828801616c83565b925050606085013567ffffffffffffffff811115616db157616db0619129565b5b616dbd87828801616a10565b91505092959194509250565b600080600060608486031215616de257616de161912e565b5b6000616df0868287016168b2565b9350506020616e0186828701616c6e565b9250506040616e1286828701616c6e565b9150509250925092565b60008060408385031215616e3357616e3261912e565b5b6000616e41858286016168b2565b9250506020616e5285828601616c83565b9150509250929050565b60008060008060008060008060006101008a8c031215616e7f57616e7e61912e565b5b6000616e8d8c828d016168b2565b9950506020616e9e8c828d01616c83565b9850506040616eaf8c828d01616c83565b97505060608a013567ffffffffffffffff811115616ed057616ecf619129565b5b616edc8c828d01616a10565b96505060808a013567ffffffffffffffff811115616efd57616efc619129565b5b616f098c828d01616a10565b95505060a0616f1a8c828d01616966565b94505060c0616f2b8c828d01616cad565b93505060e08a013567ffffffffffffffff811115616f4c57616f4b619129565b5b616f588c828d016169ba565b92509250509295985092959850929598565b60008060408385031215616f8157616f8061912e565b5b600083013567ffffffffffffffff811115616f9f57616f9e619129565b5b616fab858286016168dc565b9250506020616fbc85828601616966565b9150509250929050565b600080600060608486031215616fdf57616fde61912e565b5b600084013567ffffffffffffffff811115616ffd57616ffc619129565b5b61700986828701616938565b935050602084013567ffffffffffffffff81111561702a57617029619129565b5b6170368682870161690a565b925050604061704786828701616966565b9150509250925092565b6000602082840312156170675761706661912e565b5b60006170758482850161697b565b91505092915050565b6000602082840312156170945761709361912e565b5b60006170a284828501616990565b91505092915050565b600080604083850312156170c2576170c161912e565b5b60006170d085828601616990565b92505060206170e1858286016168b2565b9150509250929050565b6000806000606084860312156171045761710361912e565b5b600061711286828701616990565b935050602084013567ffffffffffffffff81111561713357617132619129565b5b61713f86828701616938565b925050604084013567ffffffffffffffff8111156171605761715f619129565b5b61716c86828701616938565b9150509250925092565b600080600080608085870312156171905761718f61912e565b5b600061719e87828801616990565b945050602085013567ffffffffffffffff8111156171bf576171be619129565b5b6171cb87828801616a68565b935050604085013567ffffffffffffffff8111156171ec576171eb619129565b5b6171f887828801616a68565b925050606061720987828801616cc2565b91505092959194509250565b6000806040838503121561722c5761722b61912e565b5b600061723a85828601616990565b925050602061724b85828601616c83565b9150509250929050565b6000806000806080858703121561726f5761726e61912e565b5b600061727d87828801616990565b945050602061728e87828801616c83565b935050604061729f87828801616c6e565b92505060606172b087828801616c83565b91505092959194509250565b600080600080600080600080600060e08a8c0312156172de576172dd61912e565b5b60006172ec8c828d01616990565b99505060206172fd8c828d01616c83565b985050604061730e8c828d01616c83565b975050606061731f8c828d016168b2565b96505060806173308c828d01616c83565b95505060a08a013567ffffffffffffffff81111561735157617350619129565b5b61735d8c828d016169ba565b945094505060c08a013567ffffffffffffffff8111156173805761737f619129565b5b61738c8c828d016169ba565b92509250509295985092959850929598565b600080600080600080600080610100898b0312156173bf576173be61912e565b5b60006173cd8b828c01616990565b98505060206173de8b828c01616c83565b97505060406173ef8b828c01616c83565b96505060606174008b828c016168b2565b95505060806174118b828c01616c83565b94505060a089013567ffffffffffffffff81111561743257617431619129565b5b61743e8b828c01616afa565b93505060c061744f8b828c01616966565b92505060e06174608b828c016168b2565b9150509295985092959890939650565b6000602082840312156174865761748561912e565b5b6000617494848285016169a5565b91505092915050565b60008060008060008060c087890312156174ba576174b961912e565b5b600087013567ffffffffffffffff8111156174d8576174d7619129565b5b6174e489828a01616a10565b96505060206174f589828a01616c83565b955050604087013567ffffffffffffffff81111561751657617515619129565b5b61752289828a01616a68565b945050606087013567ffffffffffffffff81111561754357617542619129565b5b61754f89828a01616a68565b935050608061756089828a01616cc2565b92505060a087013567ffffffffffffffff81111561758157617580619129565b5b61758d89828a01616a10565b9150509295509295509295565b6000602082840312156175b0576175af61912e565b5b60006175be84828501616a53565b91505092915050565b6000602082840312156175dd576175dc61912e565b5b600082013567ffffffffffffffff8111156175fb576175fa619129565b5b61760784828501616afa565b91505092915050565b6000602082840312156176265761762561912e565b5b600082013567ffffffffffffffff81111561764457617643619129565b5b61765084828501616bbe565b91505092915050565b60006020828403121561766f5761766e61912e565b5b600061767d84828501616c83565b91505092915050565b60006020828403121561769c5761769b61912e565b5b60006176aa84828501616c98565b91505092915050565b600080604083850312156176ca576176c961912e565b5b60006176d885828601616c83565b92505060206176e9858286016168b2565b9150509250929050565b60008060006060848603121561770c5761770b61912e565b5b600061771a86828701616c83565b935050602061772b86828701616966565b925050604061773c86828701616966565b9150509250925092565b6000806040838503121561775d5761775c61912e565b5b600061776b85828601616c83565b925050602083013567ffffffffffffffff81111561778c5761778b619129565b5b61779885828601616a10565b9150509250929050565b600080604083850312156177b9576177b861912e565b5b60006177c785828601616c83565b92505060206177d885828601616c6e565b9150509250929050565b6000602082840312156177f8576177f761912e565b5b600061780684828501616cc2565b91505092915050565b6000602082840312156178255761782461912e565b5b600061783384828501616cd7565b91505092915050565b600080604083850312156178535761785261912e565b5b600061786185828601616cc2565b925050602061787285828601616a3e565b9150509250929050565b61788581618d85565b82525050565b61789c61789782618d85565b618fd6565b82525050565b6178ab81618d97565b82525050565b6178ba81618d97565b82525050565b6178c981618da3565b82525050565b6178e06178db82618da3565b618fe8565b82525050565b60006178f28385618a90565b93506178ff838584618ebe565b61790883619133565b840190509392505050565b600061791e82618a69565b6179288185618a7f565b9350617938818560208601618ecd565b61794181619133565b840191505092915050565b600061795782618a69565b6179618185618a90565b9350617971818560208601618ecd565b61797a81619133565b840191505092915050565b600061799082618a69565b61799a8185618aa1565b93506179aa818560208601618ecd565b80840191505092915050565b6179bf81618e52565b82525050565b6179ce81618e64565b82525050565b6179dd81618e76565b82525050565b60006179ee82618a74565b6179f88185618aac565b9350617a08818560208601618ecd565b617a1181619133565b840191505092915050565b6000617a2782618a74565b617a318185618abd565b9350617a41818560208601618ecd565b80840191505092915050565b6000617a5a602083618aac565b9150617a658261916b565b602082019050919050565b6000617a7d601483618aac565b9150617a8882619194565b602082019050919050565b6000617aa0602683618aac565b9150617aab826191bd565b604082019050919050565b6000617ac3601083618aac565b9150617ace8261920c565b602082019050919050565b6000617ae6602e83618aac565b9150617af182619235565b604082019050919050565b6000617b09601d83618aac565b9150617b1482619284565b602082019050919050565b6000617b2c602b83618aac565b9150617b37826192ad565b604082019050919050565b6000617b4f601783618abd565b9150617b5a826192fc565b601782019050919050565b6000617b72602a83618aac565b9150617b7d82619325565b604082019050919050565b6000617b95601f83618aac565b9150617ba082619374565b602082019050919050565b6000617bb8601183618abd565b9150617bc38261939d565b601182019050919050565b6000617bdb602f83618aac565b9150617be6826193c6565b604082019050919050565b606082016000820151617c076000850182617d32565b506020820151617c1a60208501826178a2565b506040820151617c2d6040850182617d05565b50505050565b60a082016000820151617c496000850182617d32565b506020820151617c5c6020850182617d32565b506040820151617c6f6040850182617d32565b506060820151617c8260608501826178a2565b506080820151617c9560808501826178a2565b50505050565b6000608083016000830151617cb36000860182617d32565b506020830151617cc66020860182617d32565b5060408301518482036040860152617cde8282617913565b91505060608301518482036060860152617cf88282617913565b9150508091505092915050565b617d0e81618dfd565b82525050565b617d1d81618dfd565b82525050565b617d2c81618eac565b82525050565b617d3b81618e2b565b82525050565b617d4a81618e2b565b82525050565b617d61617d5c82618e2b565b619004565b82525050565b617d7081618e35565b82525050565b617d7f81618e45565b82525050565b617d96617d9182618e45565b61900e565b82525050565b6000617da8828461788b565b60148201915081905092915050565b6000617dc382846178cf565b60208201915081905092915050565b6000617dde8284617985565b915081905092915050565b6000617df58289617985565b9150617e018288617d50565b602082019150617e118287617d50565b602082019150617e2182866178cf565b602082019150617e318285617985565b9150617e3d82846178cf565b602082019150819050979650505050505050565b6000617e5d8284617a1c565b915081905092915050565b6000617e7382617b42565b9150617e7f8285617a1c565b9150617e8a82617bab565b9150617e968284617a1c565b91508190509392505050565b6000617eae8285617d50565b602082019150617ebe828461788b565b6014820191508190509392505050565b6000617eda8288617d50565b602082019150617eea82876178cf565b602082019150617efa82866178cf565b602082019150617f0a82856178cf565b602082019150617f1a8284617d85565b6001820191508190509695505050505050565b6000617f39828a617d50565b602082019150617f4982896178cf565b602082019150617f598288617d50565b602082019150617f698287617d50565b602082019150617f798286617d50565b602082019150617f89828561788b565b601482019150617f998284617d50565b60208201915081905098975050505050505050565b6000617fba828a617d50565b602082019150617fca82896178cf565b602082019150617fda8288617d50565b602082019150617fea8287617d50565b602082019150617ffa8286617d50565b60208201915061800a8285617985565b91506180168284617d50565b60208201915081905098975050505050505050565b60006180378285617d50565b6020820191506180478284617985565b91508190509392505050565b6000602082019050618068600083018461787c565b92915050565b600060e082019050618083600083018a61787c565b618090602083018961787c565b61809d604083018861787c565b81810360608301526180af818761794c565b90506180be6080830186617d41565b81810360a08301526180d0818561794c565b90506180df60c0830184617d41565b98975050505050505050565b600060c082019050618100600083018961787c565b61810d602083018861787c565b818103604083015261811f818761794c565b905061812e6060830186617d41565b8181036080830152618140818561794c565b905061814f60a0830184617d41565b979650505050505050565b600060608201905061816f600083018661787c565b61817c602083018561787c565b6181896040830184617d41565b949350505050565b600060e0820190506181a6600083018a61787c565b6181b3602083018961787c565b6181c06040830188617d41565b6181cd6060830187617d41565b6181da6080830186617d76565b6181e760a08301856178c0565b6181f460c08301846178c0565b98975050505050505050565b6000604082019050618215600083018561787c565b6182226020830184617d41565b9392505050565b600060608201905061823e600083018661787c565b61824b6020830185617d41565b6182586040830184617d41565b949350505050565b600060208201905061827560008301846178b1565b92915050565b600060208201905061829060008301846178c0565b92915050565b60006040820190506182ab60008301856178c0565b6182b8602083018461787c565b9392505050565b600060a0820190506182d460008301886178c0565b6182e1602083018761787c565b81810360408301526182f3818661794c565b90506183026060830185617d41565b61830f6080830184617d14565b9695505050505050565b600060608201905061832e60008301876178c0565b81810360208301526183418185876178e6565b90506183506040830184617d76565b95945050505050565b600060608201905061836e60008301866178c0565b8181036020830152618380818561794c565b905061838f6040830184617d76565b949350505050565b60006080820190506183ac60008301876178c0565b81810360208301526183be81866179e3565b905081810360408301526183d281856179e3565b90506183e16060830184617d76565b95945050505050565b60006040820190506183ff60008301856178c0565b61840c6020830184617d41565b9392505050565b600061018082019050618429600083018b6178c0565b618436602083018a617d41565b8181036040830152618448818961794c565b90506184576060830188617d41565b6184646080830187617d67565b61847160a0830186617c33565b818103610140830152618484818561794c565b905061849461016083018461787c565b9998505050505050505050565b60006060820190506184b660008301866178c0565b6184c36020830185617d41565b6184d06040830184617d41565b949350505050565b600060a0820190506184ed60008301896178c0565b6184fa6020830188617d41565b6185076040830187617d41565b818103606083015261851a8185876178e6565b905061852960808301846178b1565b979650505050505050565b600060808201905061854960008301876178c0565b6185566020830186617d41565b6185636040830185617d41565b6185706060830184617d41565b95945050505050565b600060208201905061858e60008301846179b6565b92915050565b60006020820190506185a960008301846179c5565b92915050565b60006020820190506185c460008301846179d4565b92915050565b600060208201905081810360008301526185e481846179e3565b905092915050565b6000602082019050818103600083015261860581617a4d565b9050919050565b6000602082019050818103600083015261862581617a70565b9050919050565b6000602082019050818103600083015261864581617a93565b9050919050565b6000602082019050818103600083015261866581617ab6565b9050919050565b6000602082019050818103600083015261868581617ad9565b9050919050565b600060208201905081810360008301526186a581617afc565b9050919050565b600060208201905081810360008301526186c581617b1f565b9050919050565b600060208201905081810360008301526186e581617b65565b9050919050565b6000602082019050818103600083015261870581617b88565b9050919050565b6000602082019050818103600083015261872581617bce565b9050919050565b600060208201905081810360008301526187468184617c9b565b905092915050565b60006020820190506187636000830184617d14565b92915050565b600060408201905061877e6000830185617d14565b61878b6020830184617d14565b9392505050565b60006020820190506187a76000830184617d41565b92915050565b60006060820190506187c26000830186617d41565b6187cf60208301856178b1565b6187dc60408301846178b1565b949350505050565b60006060820190506187f96000830186617d41565b61880660208301856178b1565b6188136040830184617d14565b949350505050565b60006040820190506188306000830185617d41565b8181036020830152618842818461794c565b90509392505050565b600060a0820190506188606000830186617d41565b61886d6020830185617bf1565b61887a60808301846178b1565b949350505050565b60006040820190506188976000830185617d41565b6188a46020830184617d23565b9392505050565b60006040820190506188c06000830185617d41565b6188cd6020830184617d41565b9392505050565b600060e0820190506188e9600083018a617d41565b6188f66020830189617d41565b6189036040830188617d41565b6189106060830187617d41565b61891d608083018661787c565b61892a60a0830185617d14565b61893760c08301846178b1565b98975050505050505050565b60006020820190506189586000830184617d76565b92915050565b6000618968618979565b90506189748282618f5c565b919050565b6000604051905090565b600067ffffffffffffffff82111561899e5761899d6190dc565b5b602082029050602081019050919050565b600067ffffffffffffffff8211156189ca576189c96190dc565b5b602082029050602081019050919050565b600067ffffffffffffffff8211156189f6576189f56190dc565b5b602082029050602081019050919050565b600067ffffffffffffffff821115618a2257618a216190dc565b5b618a2b82619133565b9050602081019050919050565b600067ffffffffffffffff821115618a5357618a526190dc565b5b618a5c82619133565b9050602081019050919050565b600081519050919050565b600081519050919050565b600082825260208201905092915050565b600082825260208201905092915050565b600081905092915050565b600082825260208201905092915050565b600081905092915050565b6000618ad382618e2b565b9150618ade83618e2b565b9250827fffffffffffffffffffffffffffffffffffffffffffffffffffffffffffffffff03821115618b1357618b12619020565b5b828201905092915050565b6000618b2982618e45565b9150618b3483618e45565b92508260ff03821115618b4a57618b49619020565b5b828201905092915050565b6000618b6082618e2b565b9150618b6b83618e2b565b925082618b7b57618b7a61904f565b5b828204905092915050565b6000808291508390505b6001851115618bd057808604811115618bac57618bab619020565b5b6001851615618bbb5780820291505b8081029050618bc98561915e565b9450618b90565b94509492505050565b6000618be482618e2b565b9150618bef83618e2b565b9250618c1c7fffffffffffffffffffffffffffffffffffffffffffffffffffffffffffffffff8484618c24565b905092915050565b600082618c345760019050618cf0565b81618c425760009050618cf0565b8160018114618c585760028114618c6257618c91565b6001915050618cf0565b60ff841115618c7457618c73619020565b5b8360020a915084821115618c8b57618c8a619020565b5b50618cf0565b5060208310610133831016604e8410600b8410161715618cc65782820a905083811115618cc157618cc0619020565b5b618cf0565b618cd38484846001618b86565b92509050818404811115618cea57618ce9619020565b5b81810290505b9392505050565b6000618d0282618e2b565b9150618d0d83618e2b565b9250817fffffffffffffffffffffffffffffffffffffffffffffffffffffffffffffffff0483118215151615618d4657618d45619020565b5b828202905092915050565b6000618d5c82618e2b565b9150618d6783618e2b565b925082821015618d7a57618d79619020565b5b828203905092915050565b6000618d9082618e0b565b9050919050565b60008115159050919050565b6000819050919050565b60007fffffffff0000000000000000000000000000000000000000000000000000000082169050919050565b6000618de482618d85565b9050919050565b6000618df682618d85565b9050919050565b600061ffff82169050919050565b600073ffffffffffffffffffffffffffffffffffffffff82169050919050565b6000819050919050565b600063ffffffff82169050919050565b600060ff82169050919050565b6000618e5d82618e88565b9050919050565b6000618e6f82618e88565b9050919050565b6000618e8182618e45565b9050919050565b6000618e9382618e9a565b9050919050565b6000618ea582618e0b565b9050919050565b6000618eb782618dfd565b9050919050565b82818337600083830152505050565b60005b83811015618eeb578082015181840152602081019050618ed0565b83811115618efa576000848401525b50505050565b6000618f0b82618e2b565b91506000821415618f1f57618f1e619020565b5b600182039050919050565b60006002820490506001821680618f4257607f821691505b60208210811415618f5657618f5561907e565b5b50919050565b618f6582619133565b810181811067ffffffffffffffff82111715618f8457618f836190dc565b5b80604052505050565b6000618f9882618e2b565b91507fffffffffffffffffffffffffffffffffffffffffffffffffffffffffffffffff821415618fcb57618fca619020565b5b600182019050919050565b6000618fe182618ff2565b9050919050565b6000819050919050565b6000618ffd82619151565b9050919050565b6000819050919050565b600061901982619144565b9050919050565b7f4e487b7100000000000000000000000000000000000000000000000000000000600052601160045260246000fd5b7f4e487b7100000000000000000000000000000000000000000000000000000000600052601260045260246000fd5b7f4e487b7100000000000000000000000000000000000000000000000000000000600052602260045260246000fd5b7f4e487b7100000000000000000000000000000000000000000000000000000000600052603260045260246000fd5b7f4e487b7100000000000000000000000000000000000000000000000000000000600052604160045260246000fd5b600080fd5b600080fd5b600080fd5b600080fd5b600080fd5b600080fd5b600080fd5b600080fd5b6000601f19601f8301169050919050565b60008160f81b9050919050565b60008160601b9050919050565b60008160011c9050919050565b7f537472696e67733a20686578206c656e67746820696e73756666696369656e74600082015250565b7f5061757361626c653a206e6f7420706175736564000000000000000000000000600082015250565b7f416464726573733a20696e73756666696369656e742062616c616e636520666f60008201527f722063616c6c0000000000000000000000000000000000000000000000000000602082015250565b7f5061757361626c653a2070617573656400000000000000000000000000000000600082015250565b7f496e697469616c697a61626c653a20636f6e747261637420697320616c72656160008201527f647920696e697469616c697a6564000000000000000000000000000000000000602082015250565b7f416464726573733a2063616c6c20746f206e6f6e2d636f6e7472616374000000600082015250565b7f496e697469616c697a61626c653a20636f6e7472616374206973206e6f74206960008201527f6e697469616c697a696e67000000000000000000000000000000000000000000602082015250565b7f416363657373436f6e74726f6c3a206163636f756e7420000000000000000000600082015250565b7f5361666545524332303a204552433230206f7065726174696f6e20646964206e60008201527f6f74207375636365656400000000000000000000000000000000000000000000602082015250565b7f5265656e7472616e637947756172643a207265656e7472616e742063616c6c00600082015250565b7f206973206d697373696e6720726f6c6520000000000000000000000000000000600082015250565b7f416363657373436f6e74726f6c3a2063616e206f6e6c792072656e6f756e636560008201527f20726f6c657320666f722073656c660000000000000000000000000000000000602082015250565b61941e81618d85565b811461942957600080fd5b50565b61943581618d97565b811461944057600080fd5b50565b61944c81618da3565b811461945757600080fd5b50565b61946381618dad565b811461946e57600080fd5b50565b61947a81618dd9565b811461948557600080fd5b50565b61949181618deb565b811461949c57600080fd5b50565b6194a881618dfd565b81146194b357600080fd5b50565b6194bf81618e2b565b81146194ca57600080fd5b50565b6194d681618e35565b81146194e157600080fd5b50565b6194ed81618e45565b81146194f857600080fd5b5056fea164736f6c6343000807000a",
  "linkReferences": {},
  "deployedLinkReferences": {}
}