{
  "_format": "hh-sol-artifact-1",
  "contractName": "DepositPaymaster",
  "sourceName": "src/4337_wallet/DepositPaymaster.sol",
  "abi": [
    {
      "inputs": [
        {
          "internalType": "contract IEntryPoint",
          "name": "_entryPoint",
          "type": "address"
        }
      ],
      "stateMutability": "nonpayable",
      "type": "constructor"
    },
    {
      "anonymous": false,
      "inputs": [
        {
          "indexed": true,
          "internalType": "address",
          "name": "previousOwner",
          "type": "address"
        },
        {
          "indexed": true,
          "internalType": "address",
          "name": "newOwner",
          "type": "address"
        }
      ],
      "name": "OwnershipTransferred",
      "type": "event"
    },
    {
      "inputs": [],
      "name": "COST_OF_POST",
      "outputs": [
        {
          "internalType": "uint256",
          "name": "",
          "type": "uint256"
        }
      ],
      "stateMutability": "view",
      "type": "function"
    },
    {
      "inputs": [
        {
          "internalType": "contract IERC20",
          "name": "token",
          "type": "address"
        },
        {
          "internalType": "address",
          "name": "account",
          "type": "address"
        },
        {
          "internalType": "uint256",
          "name": "amount",
          "type": "uint256"
        }
      ],
      "name": "addDepositFor",
      "outputs": [],
      "stateMutability": "nonpayable",
      "type": "function"
    },
    {
      "inputs": [
        {
          "internalType": "uint32",
          "name": "unstakeDelaySec",
          "type": "uint32"
        }
      ],
      "name": "addStake",
      "outputs": [],
      "stateMutability": "payable",
      "type": "function"
    },
    {
      "inputs": [
        {
          "internalType": "contract IERC20",
          "name": "token",
          "type": "address"
        },
        {
          "internalType": "contract IOracle",
          "name": "tokenPriceOracle",
          "type": "address"
        }
      ],
      "name": "addToken",
      "outputs": [],
      "stateMutability": "nonpayable",
      "type": "function"
    },
    {
      "inputs": [
        {
          "internalType": "contract IERC20",
          "name": "",
          "type": "address"
        },
        {
          "internalType": "address",
          "name": "",
          "type": "address"
        }
      ],
      "name": "balances",
      "outputs": [
        {
          "internalType": "uint256",
          "name": "",
          "type": "uint256"
        }
      ],
      "stateMutability": "view",
      "type": "function"
    },
    {
      "inputs": [],
      "name": "deposit",
      "outputs": [],
      "stateMutability": "payable",
      "type": "function"
    },
    {
      "inputs": [
        {
          "internalType": "contract IERC20",
          "name": "token",
          "type": "address"
        },
        {
          "internalType": "address",
          "name": "account",
          "type": "address"
        }
      ],
      "name": "depositInfo",
      "outputs": [
        {
          "internalType": "uint256",
          "name": "amount",
          "type": "uint256"
        },
        {
          "internalType": "uint256",
          "name": "_unlockBlock",
          "type": "uint256"
        }
      ],
      "stateMutability": "view",
      "type": "function"
    },
    {
      "inputs": [],
      "name": "entryPoint",
      "outputs": [
        {
          "internalType": "contract IEntryPoint",
          "name": "",
          "type": "address"
        }
      ],
      "stateMutability": "view",
      "type": "function"
    },
    {
      "inputs": [],
      "name": "getDeposit",
      "outputs": [
        {
          "internalType": "uint256",
          "name": "",
          "type": "uint256"
        }
      ],
      "stateMutability": "view",
      "type": "function"
    },
    {
      "inputs": [],
      "name": "lockTokenDeposit",
      "outputs": [],
      "stateMutability": "nonpayable",
      "type": "function"
    },
    {
      "inputs": [
        {
          "internalType": "contract IERC20",
          "name": "",
          "type": "address"
        }
      ],
      "name": "oracles",
      "outputs": [
        {
          "internalType": "contract IOracle",
          "name": "",
          "type": "address"
        }
      ],
      "stateMutability": "view",
      "type": "function"
    },
    {
      "inputs": [],
      "name": "owner",
      "outputs": [
        {
          "internalType": "address",
          "name": "",
          "type": "address"
        }
      ],
      "stateMutability": "view",
      "type": "function"
    },
    {
      "inputs": [
        {
          "internalType": "enum IPaymaster.PostOpMode",
          "name": "mode",
          "type": "uint8"
        },
        {
          "internalType": "bytes",
          "name": "context",
          "type": "bytes"
        },
        {
          "internalType": "uint256",
          "name": "actualGasCost",
          "type": "uint256"
        }
      ],
      "name": "postOp",
      "outputs": [],
      "stateMutability": "nonpayable",
      "type": "function"
    },
    {
      "inputs": [],
      "name": "renounceOwnership",
      "outputs": [],
      "stateMutability": "nonpayable",
      "type": "function"
    },
    {
      "inputs": [
        {
          "internalType": "contract IEntryPoint",
          "name": "_entryPoint",
          "type": "address"
        }
      ],
      "name": "setEntryPoint",
      "outputs": [],
      "stateMutability": "nonpayable",
      "type": "function"
    },
    {
      "inputs": [
        {
          "internalType": "address",
          "name": "newOwner",
          "type": "address"
        }
      ],
      "name": "transferOwnership",
      "outputs": [],
      "stateMutability": "nonpayable",
      "type": "function"
    },
    {
      "inputs": [
        {
          "internalType": "address",
          "name": "",
          "type": "address"
        }
      ],
      "name": "unlockBlock",
      "outputs": [
        {
          "internalType": "uint256",
          "name": "",
          "type": "uint256"
        }
      ],
      "stateMutability": "view",
      "type": "function"
    },
    {
      "inputs": [],
      "name": "unlockStake",
      "outputs": [],
      "stateMutability": "nonpayable",
      "type": "function"
    },
    {
      "inputs": [],
      "name": "unlockTokenDeposit",
      "outputs": [],
      "stateMutability": "nonpayable",
      "type": "function"
    },
    {
      "inputs": [
        {
          "components": [
            {
              "internalType": "address",
              "name": "sender",
              "type": "address"
            },
            {
              "internalType": "uint256",
              "name": "nonce",
              "type": "uint256"
            },
            {
              "internalType": "bytes",
              "name": "initCode",
              "type": "bytes"
            },
            {
              "internalType": "bytes",
              "name": "callData",
              "type": "bytes"
            },
            {
              "internalType": "uint256",
              "name": "callGasLimit",
              "type": "uint256"
            },
            {
              "internalType": "uint256",
              "name": "verificationGasLimit",
              "type": "uint256"
            },
            {
              "internalType": "uint256",
              "name": "preVerificationGas",
              "type": "uint256"
            },
            {
              "internalType": "uint256",
              "name": "maxFeePerGas",
              "type": "uint256"
            },
            {
              "internalType": "uint256",
              "name": "maxPriorityFeePerGas",
              "type": "uint256"
            },
            {
              "internalType": "bytes",
              "name": "paymasterAndData",
              "type": "bytes"
            },
            {
              "internalType": "bytes",
              "name": "signature",
              "type": "bytes"
            }
          ],
          "internalType": "struct UserOperation",
          "name": "userOp",
          "type": "tuple"
        },
        {
          "internalType": "bytes32",
          "name": "userOpHash",
          "type": "bytes32"
        },
        {
          "internalType": "uint256",
          "name": "maxCost",
          "type": "uint256"
        }
      ],
      "name": "validatePaymasterUserOp",
      "outputs": [
        {
          "internalType": "bytes",
          "name": "context",
          "type": "bytes"
        },
        {
          "internalType": "uint256",
          "name": "deadline",
          "type": "uint256"
        }
      ],
      "stateMutability": "view",
      "type": "function"
    },
    {
      "inputs": [
        {
          "internalType": "address payable",
          "name": "withdrawAddress",
          "type": "address"
        }
      ],
      "name": "withdrawStake",
      "outputs": [],
      "stateMutability": "nonpayable",
      "type": "function"
    },
    {
      "inputs": [
        {
          "internalType": "address payable",
          "name": "withdrawAddress",
          "type": "address"
        },
        {
          "internalType": "uint256",
          "name": "amount",
          "type": "uint256"
        }
      ],
      "name": "withdrawTo",
      "outputs": [],
      "stateMutability": "nonpayable",
      "type": "function"
    },
    {
      "inputs": [
        {
          "internalType": "contract IERC20",
          "name": "token",
          "type": "address"
        },
        {
          "internalType": "address",
          "name": "target",
          "type": "address"
        },
        {
          "internalType": "uint256",
          "name": "amount",
          "type": "uint256"
        }
      ],
      "name": "withdrawTokensTo",
      "outputs": [],
      "stateMutability": "nonpayable",
      "type": "function"
    }
  ],
  "bytecode": "0x60806040523480156200001157600080fd5b506040516200368f3803806200368f83398181016040528101906200003791906200030d565b80620000586200004c6200008160201b60201c565b6200008960201b60201c565b62000069816200014d60201b60201c565b506200007a6200022060201b60201c565b50620003c2565b600033905090565b60008060009054906101000a900473ffffffffffffffffffffffffffffffffffffffff169050816000806101000a81548173ffffffffffffffffffffffffffffffffffffffff021916908373ffffffffffffffffffffffffffffffffffffffff1602179055508173ffffffffffffffffffffffffffffffffffffffff168173ffffffffffffffffffffffffffffffffffffffff167f8be0079c531659141344cd1fd0a4f28419497f9722a3daafe3b4186f6b6457e060405160405180910390a35050565b6200015d6200008160201b60201c565b73ffffffffffffffffffffffffffffffffffffffff16620001836200026660201b60201c565b73ffffffffffffffffffffffffffffffffffffffff1614620001dc576040517f08c379a0000000000000000000000000000000000000000000000000000000008152600401620001d390620003a0565b60405180910390fd5b80600160006101000a81548173ffffffffffffffffffffffffffffffffffffffff021916908373ffffffffffffffffffffffffffffffffffffffff16021790555050565b43600460003373ffffffffffffffffffffffffffffffffffffffff1673ffffffffffffffffffffffffffffffffffffffff16815260200190815260200160002081905550565b60008060009054906101000a900473ffffffffffffffffffffffffffffffffffffffff16905090565b600080fd5b600073ffffffffffffffffffffffffffffffffffffffff82169050919050565b6000620002c18262000294565b9050919050565b6000620002d582620002b4565b9050919050565b620002e781620002c8565b8114620002f357600080fd5b50565b6000815190506200030781620002dc565b92915050565b6000602082840312156200032657620003256200028f565b5b60006200033684828501620002f6565b91505092915050565b600082825260208201905092915050565b7f4f776e61626c653a2063616c6c6572206973206e6f7420746865206f776e6572600082015250565b6000620003886020836200033f565b9150620003958262000350565b602082019050919050565b60006020820190508181036000830152620003bb8162000379565b9050919050565b6132bd80620003d26000396000f3fe6080604052600436106101405760003560e01c8063a9a23409116100b6578063c399ec881161006f578063c399ec8814610412578063cc9c837c1461043d578063cd8f80c214610466578063d0e30db01461047d578063f2fde38b14610487578063f465c77e146104b057610140565b8063a9a2340914610304578063addd50991461032d578063b0d691fe1461036a578063bb9fe6bf14610395578063c23a5cea146103ac578063c23f001f146103d557610140565b80635476bd72116101085780635476bd721461022e578063584465f214610257578063715018a614610280578063796d4371146102975780638da5cb5b146102c25780639ed0fb68146102ed57610140565b80630396cb6014610145578063205c287814610161578063382edd9e1461018a578063493b0170146101b35780634a6f84cf146101f1575b600080fd5b61015f600480360381019061015a9190611ecd565b6104ee565b005b34801561016d57600080fd5b5061018860048036038101906101839190611f8e565b6105fb565b005b34801561019657600080fd5b506101b160048036038101906101ac919061204a565b61070a565b005b3480156101bf57600080fd5b506101da60048036038101906101d5919061209d565b6108db565b6040516101e89291906120ec565b60405180910390f35b3480156101fd57600080fd5b5061021860048036038101906102139190612115565b6109a6565b6040516102259190612142565b60405180910390f35b34801561023a57600080fd5b506102556004803603810190610250919061219b565b6109be565b005b34801561026357600080fd5b5061027e60048036038101906102799190612219565b610b54565b005b34801561028c57600080fd5b50610295610c14565b005b3480156102a357600080fd5b506102ac610c9c565b6040516102b99190612142565b60405180910390f35b3480156102ce57600080fd5b506102d7610ca2565b6040516102e49190612255565b60405180910390f35b3480156102f957600080fd5b50610302610ccb565b005b34801561031057600080fd5b5061032b600480360381019061032691906122fa565b610d11565b005b34801561033957600080fd5b50610354600480360381019061034f919061236e565b610d2b565b60405161036191906123fa565b60405180910390f35b34801561037657600080fd5b5061037f610d5e565b60405161038c9190612436565b60405180910390f35b3480156103a157600080fd5b506103aa610d84565b005b3480156103b857600080fd5b506103d360048036038101906103ce9190612451565b610e84565b005b3480156103e157600080fd5b506103fc60048036038101906103f7919061209d565b610f90565b6040516104099190612142565b60405180910390f35b34801561041e57600080fd5b50610427610fb5565b6040516104349190612142565b60405180910390f35b34801561044957600080fd5b50610464600480360381019061045f919061204a565b611058565b005b34801561047257600080fd5b5061047b6111e8565b005b61048561122f565b005b34801561049357600080fd5b506104ae60048036038101906104a99190612115565b6112bf565b005b3480156104bc57600080fd5b506104d760048036038101906104d291906124d9565b6113b7565b6040516104e59291906125e1565b60405180910390f35b6104f661162b565b73ffffffffffffffffffffffffffffffffffffffff16610514610ca2565b73ffffffffffffffffffffffffffffffffffffffff161461056a576040517f08c379a00000000000000000000000000000000000000000000000000000000081526004016105619061266e565b60405180910390fd5b600160009054906101000a900473ffffffffffffffffffffffffffffffffffffffff1673ffffffffffffffffffffffffffffffffffffffff16630396cb6034836040518363ffffffff1660e01b81526004016105c6919061269d565b6000604051808303818588803b1580156105df57600080fd5b505af11580156105f3573d6000803e3d6000fd5b505050505050565b61060361162b565b73ffffffffffffffffffffffffffffffffffffffff16610621610ca2565b73ffffffffffffffffffffffffffffffffffffffff1614610677576040517f08c379a000000000000000000000000000000000000000000000000000000000815260040161066e9061266e565b60405180910390fd5b600160009054906101000a900473ffffffffffffffffffffffffffffffffffffffff1673ffffffffffffffffffffffffffffffffffffffff1663205c287883836040518363ffffffff1660e01b81526004016106d49291906126c7565b600060405180830381600087803b1580156106ee57600080fd5b505af1158015610702573d6000803e3d6000fd5b505050505050565b6107373330838673ffffffffffffffffffffffffffffffffffffffff16611633909392919063ffffffff16565b600073ffffffffffffffffffffffffffffffffffffffff16600260008573ffffffffffffffffffffffffffffffffffffffff1673ffffffffffffffffffffffffffffffffffffffff16815260200190815260200160002060009054906101000a900473ffffffffffffffffffffffffffffffffffffffff1673ffffffffffffffffffffffffffffffffffffffff161415610806576040517f08c379a00000000000000000000000000000000000000000000000000000000081526004016107fd9061273c565b60405180910390fd5b80600360008573ffffffffffffffffffffffffffffffffffffffff1673ffffffffffffffffffffffffffffffffffffffff16815260200190815260200160002060008473ffffffffffffffffffffffffffffffffffffffff1673ffffffffffffffffffffffffffffffffffffffff1681526020019081526020016000206000828254610892919061278b565b925050819055508173ffffffffffffffffffffffffffffffffffffffff163373ffffffffffffffffffffffffffffffffffffffff1614156108d6576108d56111e8565b5b505050565b600080600360008573ffffffffffffffffffffffffffffffffffffffff1673ffffffffffffffffffffffffffffffffffffffff16815260200190815260200160002060008473ffffffffffffffffffffffffffffffffffffffff1673ffffffffffffffffffffffffffffffffffffffff168152602001908152602001600020549150600460008473ffffffffffffffffffffffffffffffffffffffff1673ffffffffffffffffffffffffffffffffffffffff1681526020019081526020016000205490509250929050565b60046020528060005260406000206000915090505481565b6109c661162b565b73ffffffffffffffffffffffffffffffffffffffff166109e4610ca2565b73ffffffffffffffffffffffffffffffffffffffff1614610a3a576040517f08c379a0000000000000000000000000000000000000000000000000000000008152600401610a319061266e565b60405180910390fd5b600073ffffffffffffffffffffffffffffffffffffffff16600260008473ffffffffffffffffffffffffffffffffffffffff1673ffffffffffffffffffffffffffffffffffffffff16815260200190815260200160002060009054906101000a900473ffffffffffffffffffffffffffffffffffffffff1673ffffffffffffffffffffffffffffffffffffffff1614610ad257600080fd5b80600260008473ffffffffffffffffffffffffffffffffffffffff1673ffffffffffffffffffffffffffffffffffffffff16815260200190815260200160002060006101000a81548173ffffffffffffffffffffffffffffffffffffffff021916908373ffffffffffffffffffffffffffffffffffffffff1602179055505050565b610b5c61162b565b73ffffffffffffffffffffffffffffffffffffffff16610b7a610ca2565b73ffffffffffffffffffffffffffffffffffffffff1614610bd0576040517f08c379a0000000000000000000000000000000000000000000000000000000008152600401610bc79061266e565b60405180910390fd5b80600160006101000a81548173ffffffffffffffffffffffffffffffffffffffff021916908373ffffffffffffffffffffffffffffffffffffffff16021790555050565b610c1c61162b565b73ffffffffffffffffffffffffffffffffffffffff16610c3a610ca2565b73ffffffffffffffffffffffffffffffffffffffff1614610c90576040517f08c379a0000000000000000000000000000000000000000000000000000000008152600401610c879061266e565b60405180910390fd5b610c9a60006116bc565b565b6188b881565b60008060009054906101000a900473ffffffffffffffffffffffffffffffffffffffff16905090565b43600460003373ffffffffffffffffffffffffffffffffffffffff1673ffffffffffffffffffffffffffffffffffffffff16815260200190815260200160002081905550565b610d19611780565b610d25848484846117dc565b50505050565b60026020528060005260406000206000915054906101000a900473ffffffffffffffffffffffffffffffffffffffff1681565b600160009054906101000a900473ffffffffffffffffffffffffffffffffffffffff1681565b610d8c61162b565b73ffffffffffffffffffffffffffffffffffffffff16610daa610ca2565b73ffffffffffffffffffffffffffffffffffffffff1614610e00576040517f08c379a0000000000000000000000000000000000000000000000000000000008152600401610df79061266e565b60405180910390fd5b600160009054906101000a900473ffffffffffffffffffffffffffffffffffffffff1673ffffffffffffffffffffffffffffffffffffffff1663bb9fe6bf6040518163ffffffff1660e01b8152600401600060405180830381600087803b158015610e6a57600080fd5b505af1158015610e7e573d6000803e3d6000fd5b50505050565b610e8c61162b565b73ffffffffffffffffffffffffffffffffffffffff16610eaa610ca2565b73ffffffffffffffffffffffffffffffffffffffff1614610f00576040517f08c379a0000000000000000000000000000000000000000000000000000000008152600401610ef79061266e565b60405180910390fd5b600160009054906101000a900473ffffffffffffffffffffffffffffffffffffffff1673ffffffffffffffffffffffffffffffffffffffff1663c23a5cea826040518263ffffffff1660e01b8152600401610f5b91906127e1565b600060405180830381600087803b158015610f7557600080fd5b505af1158015610f89573d6000803e3d6000fd5b5050505050565b6003602052816000526040600020602052806000526040600020600091509150505481565b6000600160009054906101000a900473ffffffffffffffffffffffffffffffffffffffff1673ffffffffffffffffffffffffffffffffffffffff166370a08231306040518263ffffffff1660e01b81526004016110129190612255565b602060405180830381865afa15801561102f573d6000803e3d6000fd5b505050506040513d601f19601f820116820180604052508101906110539190612811565b905090565b6000600460003373ffffffffffffffffffffffffffffffffffffffff1673ffffffffffffffffffffffffffffffffffffffff16815260200190815260200160002054141580156110e65750600460003373ffffffffffffffffffffffffffffffffffffffff1673ffffffffffffffffffffffffffffffffffffffff1681526020019081526020016000205443115b611125576040517f08c379a000000000000000000000000000000000000000000000000000000000815260040161111c906128b0565b60405180910390fd5b80600360008573ffffffffffffffffffffffffffffffffffffffff1673ffffffffffffffffffffffffffffffffffffffff16815260200190815260200160002060003373ffffffffffffffffffffffffffffffffffffffff1673ffffffffffffffffffffffffffffffffffffffff16815260200190815260200160002060008282546111b191906128d0565b925050819055506111e382828573ffffffffffffffffffffffffffffffffffffffff166119c79092919063ffffffff16565b505050565b6000600460003373ffffffffffffffffffffffffffffffffffffffff1673ffffffffffffffffffffffffffffffffffffffff16815260200190815260200160002081905550565b600160009054906101000a900473ffffffffffffffffffffffffffffffffffffffff1673ffffffffffffffffffffffffffffffffffffffff1663b760faf934306040518363ffffffff1660e01b815260040161128b9190612255565b6000604051808303818588803b1580156112a457600080fd5b505af11580156112b8573d6000803e3d6000fd5b5050505050565b6112c761162b565b73ffffffffffffffffffffffffffffffffffffffff166112e5610ca2565b73ffffffffffffffffffffffffffffffffffffffff161461133b576040517f08c379a00000000000000000000000000000000000000000000000000000000081526004016113329061266e565b60405180910390fd5b600073ffffffffffffffffffffffffffffffffffffffff168173ffffffffffffffffffffffffffffffffffffffff1614156113ab576040517f08c379a00000000000000000000000000000000000000000000000000000000081526004016113a290612976565b60405180910390fd5b6113b4816116bc565b50565b606060006188b88560a0013511611403576040517f08c379a00000000000000000000000000000000000000000000000000000000081526004016113fa90612a08565b60405180910390fd5b366000868061012001906114179190612a37565b9150915060288282905014611461576040517f08c379a000000000000000000000000000000000000000000000000000000000815260040161145890612b0c565b60405180910390fd5b60008282601490809261147693929190612b36565b906114819190612bb5565b60601c9050600061149189611a4d565b9050600061149f8389611a5d565b905060006114ac8b611bb5565b90506000600460008573ffffffffffffffffffffffffffffffffffffffff1673ffffffffffffffffffffffffffffffffffffffff1681526020019081526020016000205414611530576040517f08c379a000000000000000000000000000000000000000000000000000000000815260040161152790612c86565b60405180910390fd5b81600360008673ffffffffffffffffffffffffffffffffffffffff1673ffffffffffffffffffffffffffffffffffffffff16815260200190815260200160002060008573ffffffffffffffffffffffffffffffffffffffff1673ffffffffffffffffffffffffffffffffffffffff1681526020019081526020016000205410156115ef576040517f08c379a00000000000000000000000000000000000000000000000000000000081526004016115e690612d18565b60405180910390fd5b828482848c604051602001611608959493929190612d59565b604051602081830303815290604052600097509750505050505050935093915050565b600033905090565b6116b6846323b872dd60e01b85858560405160240161165493929190612dac565b604051602081830303815290604052907bffffffffffffffffffffffffffffffffffffffffffffffffffffffff19166020820180517bffffffffffffffffffffffffffffffffffffffffffffffffffffffff8381831617835250505050611bf1565b50505050565b60008060009054906101000a900473ffffffffffffffffffffffffffffffffffffffff169050816000806101000a81548173ffffffffffffffffffffffffffffffffffffffff021916908373ffffffffffffffffffffffffffffffffffffffff1602179055508173ffffffffffffffffffffffffffffffffffffffff168173ffffffffffffffffffffffffffffffffffffffff167f8be0079c531659141344cd1fd0a4f28419497f9722a3daafe3b4186f6b6457e060405160405180910390a35050565b600160009054906101000a900473ffffffffffffffffffffffffffffffffffffffff1673ffffffffffffffffffffffffffffffffffffffff163373ffffffffffffffffffffffffffffffffffffffff16146117da57600080fd5b565b600080600080600087878101906117f39190612de3565b9450945094509450945060008183856188b861180f9190612e5e565b8961181a919061278b565b6118249190612e5e565b61182e9190612ee7565b905060028081111561184357611842612f18565b5b8a600281111561185657611855612f18565b5b1461188d576118888630838873ffffffffffffffffffffffffffffffffffffffff16611633909392919063ffffffff16565b611921565b80600360008773ffffffffffffffffffffffffffffffffffffffff1673ffffffffffffffffffffffffffffffffffffffff16815260200190815260200160002060008873ffffffffffffffffffffffffffffffffffffffff1673ffffffffffffffffffffffffffffffffffffffff168152602001908152602001600020600082825461191991906128d0565b925050819055505b80600360008773ffffffffffffffffffffffffffffffffffffffff1673ffffffffffffffffffffffffffffffffffffffff168152602001908152602001600020600061196b610ca2565b73ffffffffffffffffffffffffffffffffffffffff1673ffffffffffffffffffffffffffffffffffffffff16815260200190815260200160002060008282546119b4919061278b565b9250508190555050505050505050505050565b611a488363a9059cbb60e01b84846040516024016119e6929190612f47565b604051602081830303815290604052907bffffffffffffffffffffffffffffffffffffffffffffffffffffffff19166020820180517bffffffffffffffffffffffffffffffffffffffffffffffffffffffff8381831617835250505050611bf1565b505050565b6000808235905080915050919050565b600080600260008573ffffffffffffffffffffffffffffffffffffffff1673ffffffffffffffffffffffffffffffffffffffff16815260200190815260200160002060009054906101000a900473ffffffffffffffffffffffffffffffffffffffff169050600073ffffffffffffffffffffffffffffffffffffffff168173ffffffffffffffffffffffffffffffffffffffff161415611b32576040517f08c379a0000000000000000000000000000000000000000000000000000000008152600401611b2990612fe2565b60405180910390fd5b8073ffffffffffffffffffffffffffffffffffffffff1663d1eca9cf846040518263ffffffff1660e01b8152600401611b6b9190612142565b602060405180830381865afa158015611b88573d6000803e3d6000fd5b505050506040513d601f19601f82011682018060405250810190611bac9190612811565b91505092915050565b6000808260e0013590506000836101000135905080821415611bdb578192505050611bec565b611be782488301611cb8565b925050505b919050565b6000611c53826040518060400160405280602081526020017f5361666545524332303a206c6f772d6c6576656c2063616c6c206661696c65648152508573ffffffffffffffffffffffffffffffffffffffff16611cd19092919063ffffffff16565b9050600081511115611cb35780806020019051810190611c73919061303a565b611cb2576040517f08c379a0000000000000000000000000000000000000000000000000000000008152600401611ca9906130d9565b60405180910390fd5b5b505050565b6000818310611cc75781611cc9565b825b905092915050565b6060611ce08484600085611ce9565b90509392505050565b606082471015611d2e576040517f08c379a0000000000000000000000000000000000000000000000000000000008152600401611d259061316b565b60405180910390fd5b611d3785611dfd565b611d76576040517f08c379a0000000000000000000000000000000000000000000000000000000008152600401611d6d906131d7565b60405180910390fd5b6000808673ffffffffffffffffffffffffffffffffffffffff168587604051611d9f9190613233565b60006040518083038185875af1925050503d8060008114611ddc576040519150601f19603f3d011682016040523d82523d6000602084013e611de1565b606091505b5091509150611df1828286611e20565b92505050949350505050565b6000808273ffffffffffffffffffffffffffffffffffffffff163b119050919050565b60608315611e3057829050611e80565b600083511115611e435782518084602001fd5b816040517f08c379a0000000000000000000000000000000000000000000000000000000008152600401611e77919061328e565b60405180910390fd5b9392505050565b600080fd5b600080fd5b600063ffffffff82169050919050565b611eaa81611e91565b8114611eb557600080fd5b50565b600081359050611ec781611ea1565b92915050565b600060208284031215611ee357611ee2611e87565b5b6000611ef184828501611eb8565b91505092915050565b600073ffffffffffffffffffffffffffffffffffffffff82169050919050565b6000611f2582611efa565b9050919050565b611f3581611f1a565b8114611f4057600080fd5b50565b600081359050611f5281611f2c565b92915050565b6000819050919050565b611f6b81611f58565b8114611f7657600080fd5b50565b600081359050611f8881611f62565b92915050565b60008060408385031215611fa557611fa4611e87565b5b6000611fb385828601611f43565b9250506020611fc485828601611f79565b9150509250929050565b6000611fd982611efa565b9050919050565b6000611feb82611fce565b9050919050565b611ffb81611fe0565b811461200657600080fd5b50565b60008135905061201881611ff2565b92915050565b61202781611fce565b811461203257600080fd5b50565b6000813590506120448161201e565b92915050565b60008060006060848603121561206357612062611e87565b5b600061207186828701612009565b935050602061208286828701612035565b925050604061209386828701611f79565b9150509250925092565b600080604083850312156120b4576120b3611e87565b5b60006120c285828601612009565b92505060206120d385828601612035565b9150509250929050565b6120e681611f58565b82525050565b600060408201905061210160008301856120dd565b61210e60208301846120dd565b9392505050565b60006020828403121561212b5761212a611e87565b5b600061213984828501612035565b91505092915050565b600060208201905061215760008301846120dd565b92915050565b600061216882611fce565b9050919050565b6121788161215d565b811461218357600080fd5b50565b6000813590506121958161216f565b92915050565b600080604083850312156121b2576121b1611e87565b5b60006121c085828601612009565b92505060206121d185828601612186565b9150509250929050565b60006121e682611fce565b9050919050565b6121f6816121db565b811461220157600080fd5b50565b600081359050612213816121ed565b92915050565b60006020828403121561222f5761222e611e87565b5b600061223d84828501612204565b91505092915050565b61224f81611fce565b82525050565b600060208201905061226a6000830184612246565b92915050565b6003811061227d57600080fd5b50565b60008135905061228f81612270565b92915050565b600080fd5b600080fd5b600080fd5b60008083601f8401126122ba576122b9612295565b5b8235905067ffffffffffffffff8111156122d7576122d661229a565b5b6020830191508360018202830111156122f3576122f261229f565b5b9250929050565b6000806000806060858703121561231457612313611e87565b5b600061232287828801612280565b945050602085013567ffffffffffffffff81111561234357612342611e8c565b5b61234f878288016122a4565b9350935050604061236287828801611f79565b91505092959194509250565b60006020828403121561238457612383611e87565b5b600061239284828501612009565b91505092915050565b6000819050919050565b60006123c06123bb6123b684611efa565b61239b565b611efa565b9050919050565b60006123d2826123a5565b9050919050565b60006123e4826123c7565b9050919050565b6123f4816123d9565b82525050565b600060208201905061240f60008301846123eb565b92915050565b6000612420826123c7565b9050919050565b61243081612415565b82525050565b600060208201905061244b6000830184612427565b92915050565b60006020828403121561246757612466611e87565b5b600061247584828501611f43565b91505092915050565b600080fd5b6000610160828403121561249a5761249961247e565b5b81905092915050565b6000819050919050565b6124b6816124a3565b81146124c157600080fd5b50565b6000813590506124d3816124ad565b92915050565b6000806000606084860312156124f2576124f1611e87565b5b600084013567ffffffffffffffff8111156125105761250f611e8c565b5b61251c86828701612483565b935050602061252d868287016124c4565b925050604061253e86828701611f79565b9150509250925092565b600081519050919050565b600082825260208201905092915050565b60005b83811015612582578082015181840152602081019050612567565b83811115612591576000848401525b50505050565b6000601f19601f8301169050919050565b60006125b382612548565b6125bd8185612553565b93506125cd818560208601612564565b6125d681612597565b840191505092915050565b600060408201905081810360008301526125fb81856125a8565b905061260a60208301846120dd565b9392505050565b600082825260208201905092915050565b7f4f776e61626c653a2063616c6c6572206973206e6f7420746865206f776e6572600082015250565b6000612658602083612611565b915061266382612622565b602082019050919050565b600060208201905081810360008301526126878161264b565b9050919050565b61269781611e91565b82525050565b60006020820190506126b2600083018461268e565b92915050565b6126c181611f1a565b82525050565b60006040820190506126dc60008301856126b8565b6126e960208301846120dd565b9392505050565b7f756e737570706f7274656420746f6b656e000000000000000000000000000000600082015250565b6000612726601183612611565b9150612731826126f0565b602082019050919050565b6000602082019050818103600083015261275581612719565b9050919050565b7f4e487b7100000000000000000000000000000000000000000000000000000000600052601160045260246000fd5b600061279682611f58565b91506127a183611f58565b9250827fffffffffffffffffffffffffffffffffffffffffffffffffffffffffffffffff038211156127d6576127d561275c565b5b828201905092915050565b60006020820190506127f660008301846126b8565b92915050565b60008151905061280b81611f62565b92915050565b60006020828403121561282757612826611e87565b5b6000612835848285016127fc565b91505092915050565b7f4465706f7369745061796d61737465723a206d75737420756e6c6f636b546f6b60008201527f656e4465706f7369740000000000000000000000000000000000000000000000602082015250565b600061289a602983612611565b91506128a58261283e565b604082019050919050565b600060208201905081810360008301526128c98161288d565b9050919050565b60006128db82611f58565b91506128e683611f58565b9250828210156128f9576128f861275c565b5b828203905092915050565b7f4f776e61626c653a206e6577206f776e657220697320746865207a65726f206160008201527f6464726573730000000000000000000000000000000000000000000000000000602082015250565b6000612960602683612611565b915061296b82612904565b604082019050919050565b6000602082019050818103600083015261298f81612953565b9050919050565b7f4465706f7369745061796d61737465723a2067617320746f6f206c6f7720666f60008201527f7220706f73744f70000000000000000000000000000000000000000000000000602082015250565b60006129f2602883612611565b91506129fd82612996565b604082019050919050565b60006020820190508181036000830152612a21816129e5565b9050919050565b600080fd5b600080fd5b600080fd5b60008083356001602003843603038112612a5457612a53612a28565b5b80840192508235915067ffffffffffffffff821115612a7657612a75612a2d565b5b602083019250600182023603831315612a9257612a91612a32565b5b509250929050565b7f4465706f7369745061796d61737465723a207061796d6173746572416e64446160008201527f7461206d757374207370656369667920746f6b656e0000000000000000000000602082015250565b6000612af6603583612611565b9150612b0182612a9a565b604082019050919050565b60006020820190508181036000830152612b2581612ae9565b9050919050565b600080fd5b600080fd5b60008085851115612b4a57612b49612b2c565b5b83861115612b5b57612b5a612b31565b5b6001850283019150848603905094509492505050565b600082905092915050565b60007fffffffffffffffffffffffffffffffffffffffff00000000000000000000000082169050919050565b600082821b905092915050565b6000612bc18383612b71565b82612bcc8135612b7c565b92506014821015612c0c57612c077fffffffffffffffffffffffffffffffffffffffff00000000000000000000000083601403600802612ba8565b831692505b505092915050565b7f4465706f7369745061796d61737465723a206465706f736974206e6f74206c6f60008201527f636b656400000000000000000000000000000000000000000000000000000000602082015250565b6000612c70602483612611565b9150612c7b82612c14565b604082019050919050565b60006020820190508181036000830152612c9f81612c63565b9050919050565b7f4465706f7369745061796d61737465723a206465706f73697420746f6f206c6f60008201527f7700000000000000000000000000000000000000000000000000000000000000602082015250565b6000612d02602183612611565b9150612d0d82612ca6565b604082019050919050565b60006020820190508181036000830152612d3181612cf5565b9050919050565b6000612d43826123c7565b9050919050565b612d5381612d38565b82525050565b600060a082019050612d6e6000830188612246565b612d7b6020830187612d4a565b612d8860408301866120dd565b612d9560608301856120dd565b612da260808301846120dd565b9695505050505050565b6000606082019050612dc16000830186612246565b612dce6020830185612246565b612ddb60408301846120dd565b949350505050565b600080600080600060a08688031215612dff57612dfe611e87565b5b6000612e0d88828901611f43565b9550506020612e1e88828901612009565b9450506040612e2f88828901611f79565b9350506060612e4088828901611f79565b9250506080612e5188828901611f79565b9150509295509295909350565b6000612e6982611f58565b9150612e7483611f58565b9250817fffffffffffffffffffffffffffffffffffffffffffffffffffffffffffffffff0483118215151615612ead57612eac61275c565b5b828202905092915050565b7f4e487b7100000000000000000000000000000000000000000000000000000000600052601260045260246000fd5b6000612ef282611f58565b9150612efd83611f58565b925082612f0d57612f0c612eb8565b5b828204905092915050565b7f4e487b7100000000000000000000000000000000000000000000000000000000600052602160045260246000fd5b6000604082019050612f5c6000830185612246565b612f6960208301846120dd565b9392505050565b7f4465706f7369745061796d61737465723a20756e737570706f7274656420746f60008201527f6b656e0000000000000000000000000000000000000000000000000000000000602082015250565b6000612fcc602383612611565b9150612fd782612f70565b604082019050919050565b60006020820190508181036000830152612ffb81612fbf565b9050919050565b60008115159050919050565b61301781613002565b811461302257600080fd5b50565b6000815190506130348161300e565b92915050565b6000602082840312156130505761304f611e87565b5b600061305e84828501613025565b91505092915050565b7f5361666545524332303a204552433230206f7065726174696f6e20646964206e60008201527f6f74207375636365656400000000000000000000000000000000000000000000602082015250565b60006130c3602a83612611565b91506130ce82613067565b604082019050919050565b600060208201905081810360008301526130f2816130b6565b9050919050565b7f416464726573733a20696e73756666696369656e742062616c616e636520666f60008201527f722063616c6c0000000000000000000000000000000000000000000000000000602082015250565b6000613155602683612611565b9150613160826130f9565b604082019050919050565b6000602082019050818103600083015261318481613148565b9050919050565b7f416464726573733a2063616c6c20746f206e6f6e2d636f6e7472616374000000600082015250565b60006131c1601d83612611565b91506131cc8261318b565b602082019050919050565b600060208201905081810360008301526131f0816131b4565b9050919050565b600081905092915050565b600061320d82612548565b61321781856131f7565b9350613227818560208601612564565b80840191505092915050565b600061323f8284613202565b915081905092915050565b600081519050919050565b60006132608261324a565b61326a8185612611565b935061327a818560208601612564565b61328381612597565b840191505092915050565b600060208201905081810360008301526132a88184613255565b90509291505056fea164736f6c634300080c000a",
  "linkReferences": {},
  "deployedLinkReferences": {}
}