{
  "_format": "hh-sol-artifact-1",
  "contractName": "DiamondLoupeFacet",
  "sourceName": "src/bridges/facets/DiamondLoupeFacet.sol",
  "abi": [
    {
      "inputs": [
        {
          "internalType": "bytes8",
          "name": "c__cb71d28d",
          "type": "bytes8"
        }
      ],
      "name": "c_cb71d28d",
      "outputs": [],
      "stateMutability": "pure",
      "type": "function"
    },
    {
      "inputs": [
        {
          "internalType": "bytes8",
          "name": "c__cb71d28d",
          "type": "bytes8"
        }
      ],
      "name": "c_falsecb71d28d",
      "outputs": [
        {
          "internalType": "bool",
          "name": "",
          "type": "bool"
        }
      ],
      "stateMutability": "pure",
      "type": "function"
    },
    {
      "inputs": [
        {
          "internalType": "bytes8",
          "name": "c__cb71d28d",
          "type": "bytes8"
        }
      ],
      "name": "c_truecb71d28d",
      "outputs": [
        {
          "internalType": "bool",
          "name": "",
          "type": "bool"
        }
      ],
      "stateMutability": "pure",
      "type": "function"
    },
    {
      "inputs": [
        {
          "internalType": "bytes4",
          "name": "_functionSelector",
          "type": "bytes4"
        }
      ],
      "name": "facetAddress",
      "outputs": [
        {
          "internalType": "address",
          "name": "facetAddress_",
          "type": "address"
        }
      ],
      "stateMutability": "view",
      "type": "function"
    },
    {
      "inputs": [],
      "name": "facetAddresses",
      "outputs": [
        {
          "internalType": "address[]",
          "name": "facetAddresses_",
          "type": "address[]"
        }
      ],
      "stateMutability": "view",
      "type": "function"
    },
    {
      "inputs": [
        {
          "internalType": "address",
          "name": "_facet",
          "type": "address"
        }
      ],
      "name": "facetFunctionSelectors",
      "outputs": [
        {
          "internalType": "bytes4[]",
          "name": "facetFunctionSelectors_",
          "type": "bytes4[]"
        }
      ],
      "stateMutability": "view",
      "type": "function"
    },
    {
      "inputs": [],
      "name": "facets",
      "outputs": [
        {
          "components": [
            {
              "internalType": "address",
              "name": "facetAddress",
              "type": "address"
            },
            {
              "internalType": "bytes4[]",
              "name": "functionSelectors",
              "type": "bytes4[]"
            }
          ],
          "internalType": "struct IDiamondLoupe.Facet[]",
          "name": "facets_",
          "type": "tuple[]"
        }
      ],
      "stateMutability": "view",
      "type": "function"
    },
    {
      "inputs": [
        {
          "internalType": "bytes4",
          "name": "_interfaceId",
          "type": "bytes4"
        }
      ],
      "name": "supportsInterface",
      "outputs": [
        {
          "internalType": "bool",
          "name": "",
          "type": "bool"
        }
      ],
      "stateMutability": "view",
      "type": "function"
    }
  ],
  "bytecode": "0x608060405234801561001057600080fd5b50610fed806100206000396000f3fe608060405234801561001057600080fd5b50600436106100885760003560e01c8063adfca15e1161005b578063adfca15e14610115578063cdffacc614610145578063cffb5dec14610175578063f9f7c365146101a557610088565b806301ffc9a71461008d5780631a7cfa86146100bd57806352ef6b2c146100d95780637a0ed627146100f7575b600080fd5b6100a760048036038101906100a291906109eb565b6101d5565b6040516100b49190610a33565b60405180910390f35b6100d760048036038101906100d29190610aa6565b6102b0565b005b6100e16102b3565b6040516100ee9190610bc3565b60405180910390f35b6100ff6103a0565b60405161010c9190610da2565b60405180910390f35b61012f600480360381019061012a9190610df0565b6106b3565b60405161013c9190610e8c565b60405180910390f35b61015f600480360381019061015a91906109eb565b6107ee565b60405161016c9190610ebd565b60405180910390f35b61018f600480360381019061018a9190610aa6565b6108cb565b60405161019c9190610a33565b60405180910390f35b6101bf60048036038101906101ba9190610aa6565b6108d2565b6040516101cc9190610a33565b60405180910390f35b60006101eb67285efd6f4e8eb41160c01b6102b0565b6101ff679667d234011edd8560c01b6102b0565b610213674d70fb37c7dd087760c01b6102b0565b600061021d6108dd565b90506102336735ba6e9c5701761860c01b6102b0565b61024767610d1f4a0bb3823a60c01b6102b0565b806003016000847bffffffffffffffffffffffffffffffffffffffffffffffffffffffff19167bffffffffffffffffffffffffffffffffffffffffffffffffffffffff1916815260200190815260200160002060009054906101000a900460ff16915050919050565b50565b60606102c9677f1de3f66179977b60c01b6102b0565b6102dd6774595e158391e43760c01b6102b0565b6102f167a74d20d6eaba1b4660c01b6102b0565b60006102fb6108dd565b905061031167f0ed24c854f6c73360c01b6102b0565b8060020180548060200260200160405190810160405280929190818152602001828054801561039557602002820191906000526020600020905b8160009054906101000a900473ffffffffffffffffffffffffffffffffffffffff1673ffffffffffffffffffffffffffffffffffffffff168152602001906001019080831161034b575b505050505091505090565b60606103b6674d80155458127eb460c01b6102b0565b6103ca679fa63900be221ebb60c01b6102b0565b6103de67eaad7781e34e55e860c01b6102b0565b60006103e86108dd565b90506103fe67cceaf84e7e9eb3f060c01b6102b0565b61041267e5500b1af7b537b760c01b6102b0565b600081600201805490509050610432670ef3f15519e6694a60c01b6102b0565b8067ffffffffffffffff81111561044c5761044b610ed8565b5b60405190808252806020026020018201604052801561048557816020015b61047261095e565b81526020019060019003908161046a5790505b50925061049c67162378066aec876b60c01b6102b0565b6104b0673b4a5083af334b4d60c01b6102b0565b60005b818110156106ad576104cf678fba1acd7dd9812160c01b6102b0565b6104e36736cf091544e7072160c01b6102b0565b60008360020182815481106104fb576104fa610f07565b5b9060005260206000200160009054906101000a900473ffffffffffffffffffffffffffffffffffffffff16905061053c6701b5da9682d1107960c01b6102b0565b808583815181106105505761054f610f07565b5b60200260200101516000019073ffffffffffffffffffffffffffffffffffffffff16908173ffffffffffffffffffffffffffffffffffffffff16815250506105a267c2f3430262c30ae560c01b6102b0565b8360010160008273ffffffffffffffffffffffffffffffffffffffff1673ffffffffffffffffffffffffffffffffffffffff16815260200190815260200160002060000180548060200260200160405190810160405280929190818152602001828054801561067257602002820191906000526020600020906000905b82829054906101000a900460e01b7bffffffffffffffffffffffffffffffffffffffffffffffffffffffff19168152602001906004019060208260030104928301926001038202915080841161061f5790505b505050505085838151811061068a57610689610f07565b5b6020026020010151602001819052505080806106a590610f6f565b9150506104b3565b50505090565b60606106c967f494b22b7fae5c5160c01b6102b0565b6106dd679693544bdf9bcfbb60c01b6102b0565b6106f167f40dfac7753be95460c01b6102b0565b60006106fb6108dd565b90506107116744ef83ae08424b2d60c01b6102b0565b8060010160008473ffffffffffffffffffffffffffffffffffffffff1673ffffffffffffffffffffffffffffffffffffffff1681526020019081526020016000206000018054806020026020016040519081016040528092919081815260200182805480156107e157602002820191906000526020600020906000905b82829054906101000a900460e01b7bffffffffffffffffffffffffffffffffffffffffffffffffffffffff19168152602001906004019060208260030104928301926001038202915080841161078e5790505b5050505050915050919050565b60006108046721cd709b6caf5a7760c01b6102b0565b6108186798ae13998b39ee3760c01b6102b0565b61082c67fe378eb71e09567360c01b6102b0565b60006108366108dd565b905061084c670e751d6d9cd00f0860c01b6102b0565b806000016000847bffffffffffffffffffffffffffffffffffffffffffffffffffffffff19167bffffffffffffffffffffffffffffffffffffffffffffffffffffffff1916815260200190815260200160002060000160009054906101000a900473ffffffffffffffffffffffffffffffffffffffff16915050919050565b6000919050565b600060019050919050565b60006108f3674f9afbb757d80e6360c01b61095b565b610907674b823103125da15660c01b61095b565b61091b674ab715c231c1608d60c01b61095b565b60007fc8fcad8db84d3cc18b4c41d551ea0ee66dd599cde068d998e57d5e09332c131c905061095467982d9bb86701efa860c01b61095b565b8091505090565b50565b6040518060400160405280600073ffffffffffffffffffffffffffffffffffffffff168152602001606081525090565b600080fd5b60007fffffffff0000000000000000000000000000000000000000000000000000000082169050919050565b6109c881610993565b81146109d357600080fd5b50565b6000813590506109e5816109bf565b92915050565b600060208284031215610a0157610a0061098e565b5b6000610a0f848285016109d6565b91505092915050565b60008115159050919050565b610a2d81610a18565b82525050565b6000602082019050610a486000830184610a24565b92915050565b60007fffffffffffffffff00000000000000000000000000000000000000000000000082169050919050565b610a8381610a4e565b8114610a8e57600080fd5b50565b600081359050610aa081610a7a565b92915050565b600060208284031215610abc57610abb61098e565b5b6000610aca84828501610a91565b91505092915050565b600081519050919050565b600082825260208201905092915050565b6000819050602082019050919050565b600073ffffffffffffffffffffffffffffffffffffffff82169050919050565b6000610b2a82610aff565b9050919050565b610b3a81610b1f565b82525050565b6000610b4c8383610b31565b60208301905092915050565b6000602082019050919050565b6000610b7082610ad3565b610b7a8185610ade565b9350610b8583610aef565b8060005b83811015610bb6578151610b9d8882610b40565b9750610ba883610b58565b925050600181019050610b89565b5085935050505092915050565b60006020820190508181036000830152610bdd8184610b65565b905092915050565b600081519050919050565b600082825260208201905092915050565b6000819050602082019050919050565b600081519050919050565b600082825260208201905092915050565b6000819050602082019050919050565b610c4681610993565b82525050565b6000610c588383610c3d565b60208301905092915050565b6000602082019050919050565b6000610c7c82610c11565b610c868185610c1c565b9350610c9183610c2d565b8060005b83811015610cc2578151610ca98882610c4c565b9750610cb483610c64565b925050600181019050610c95565b5085935050505092915050565b6000604083016000830151610ce76000860182610b31565b5060208301518482036020860152610cff8282610c71565b9150508091505092915050565b6000610d188383610ccf565b905092915050565b6000602082019050919050565b6000610d3882610be5565b610d428185610bf0565b935083602082028501610d5485610c01565b8060005b85811015610d905784840389528151610d718582610d0c565b9450610d7c83610d20565b925060208a01995050600181019050610d58565b50829750879550505050505092915050565b60006020820190508181036000830152610dbc8184610d2d565b905092915050565b610dcd81610b1f565b8114610dd857600080fd5b50565b600081359050610dea81610dc4565b92915050565b600060208284031215610e0657610e0561098e565b5b6000610e1484828501610ddb565b91505092915050565b600082825260208201905092915050565b6000610e3982610c11565b610e438185610e1d565b9350610e4e83610c2d565b8060005b83811015610e7f578151610e668882610c4c565b9750610e7183610c64565b925050600181019050610e52565b5085935050505092915050565b60006020820190508181036000830152610ea68184610e2e565b905092915050565b610eb781610b1f565b82525050565b6000602082019050610ed26000830184610eae565b92915050565b7f4e487b7100000000000000000000000000000000000000000000000000000000600052604160045260246000fd5b7f4e487b7100000000000000000000000000000000000000000000000000000000600052603260045260246000fd5b7f4e487b7100000000000000000000000000000000000000000000000000000000600052601160045260246000fd5b6000819050919050565b6000610f7a82610f65565b91507fffffffffffffffffffffffffffffffffffffffffffffffffffffffffffffffff8203610fac57610fab610f36565b5b60018201905091905056fea26469706673582212208ae89fa3fa833ae3bf910fdf8729e07a04a52370d167a31178eb59048c8e75e764736f6c63430008110033",
  "linkReferences": {},
  "deployedLinkReferences": {}
}