{
  "_format": "hh-sol-artifact-1",
  "contractName": "DiamondLoupeFacet",
  "sourceName": "src/bridges/facets/DiamondLoupeFacet.sol",
  "abi": [
    {
      "inputs": [
        {
          "internalType": "bytes8",
          "name": "c__8e549276",
          "type": "bytes8"
        }
      ],
      "name": "c_8e549276",
      "outputs": [],
      "stateMutability": "pure",
      "type": "function"
    },
    {
      "inputs": [
        {
          "internalType": "bytes8",
          "name": "c__8e549276",
          "type": "bytes8"
        }
      ],
      "name": "c_false8e549276",
      "outputs": [
        {
          "internalType": "bool",
          "name": "",
          "type": "bool"
        }
      ],
      "stateMutability": "pure",
      "type": "function"
    },
    {
      "inputs": [
        {
          "internalType": "bytes8",
          "name": "c__8e549276",
          "type": "bytes8"
        }
      ],
      "name": "c_true8e549276",
      "outputs": [
        {
          "internalType": "bool",
          "name": "",
          "type": "bool"
        }
      ],
      "stateMutability": "pure",
      "type": "function"
    },
    {
      "inputs": [
        {
          "internalType": "bytes4",
          "name": "_functionSelector",
          "type": "bytes4"
        }
      ],
      "name": "facetAddress",
      "outputs": [
        {
          "internalType": "address",
          "name": "facetAddress_",
          "type": "address"
        }
      ],
      "stateMutability": "view",
      "type": "function"
    },
    {
      "inputs": [],
      "name": "facetAddresses",
      "outputs": [
        {
          "internalType": "address[]",
          "name": "facetAddresses_",
          "type": "address[]"
        }
      ],
      "stateMutability": "view",
      "type": "function"
    },
    {
      "inputs": [
        {
          "internalType": "address",
          "name": "_facet",
          "type": "address"
        }
      ],
      "name": "facetFunctionSelectors",
      "outputs": [
        {
          "internalType": "bytes4[]",
          "name": "facetFunctionSelectors_",
          "type": "bytes4[]"
        }
      ],
      "stateMutability": "view",
      "type": "function"
    },
    {
      "inputs": [],
      "name": "facets",
      "outputs": [
        {
          "components": [
            {
              "internalType": "address",
              "name": "facetAddress",
              "type": "address"
            },
            {
              "internalType": "bytes4[]",
              "name": "functionSelectors",
              "type": "bytes4[]"
            }
          ],
          "internalType": "struct IDiamondLoupe.Facet[]",
          "name": "facets_",
          "type": "tuple[]"
        }
      ],
      "stateMutability": "view",
      "type": "function"
    },
    {
      "inputs": [
        {
          "internalType": "bytes4",
          "name": "_interfaceId",
          "type": "bytes4"
        }
      ],
      "name": "supportsInterface",
      "outputs": [
        {
          "internalType": "bool",
          "name": "",
          "type": "bool"
        }
      ],
      "stateMutability": "view",
      "type": "function"
    }
  ],
  "bytecode": "0x608060405234801561001057600080fd5b50610fc5806100206000396000f3fe608060405234801561001057600080fd5b50600436106100885760003560e01c80637a0ed6271161005b5780637a0ed6271461013b578063adfca15e14610159578063c71605ff14610189578063cdffacc6146101a557610088565b806301ffc9a71461008d5780631d85bd30146100bd5780632abd0512146100ed57806352ef6b2c1461011d575b600080fd5b6100a760048036038101906100a291906109eb565b6101d5565b6040516100b49190610a33565b60405180910390f35b6100d760048036038101906100d29190610aa6565b6102b0565b6040516100e49190610a33565b60405180910390f35b61010760048036038101906101029190610aa6565b6102bb565b6040516101149190610a33565b60405180910390f35b6101256102c2565b6040516101329190610bc3565b60405180910390f35b6101436103af565b6040516101509190610da2565b60405180910390f35b610173600480360381019061016e9190610df0565b6106c2565b6040516101809190610e8c565b60405180910390f35b6101a3600480360381019061019e9190610aa6565b6107fd565b005b6101bf60048036038101906101ba91906109eb565b610800565b6040516101cc9190610ebd565b60405180910390f35b60006101eb67dcc151d10f6f734760c01b6107fd565b6101ff679b886c4b82391bc160c01b6107fd565b610213676c291696791e55dc60c01b6107fd565b600061021d6108dd565b905061023367d4847aec3f54ef2960c01b6107fd565b61024767444f1882252b9a8560c01b6107fd565b806003016000847bffffffffffffffffffffffffffffffffffffffffffffffffffffffff19167bffffffffffffffffffffffffffffffffffffffffffffffffffffffff1916815260200190815260200160002060009054906101000a900460ff16915050919050565b600060019050919050565b6000919050565b60606102d867933def3a42a0b70360c01b6107fd565b6102ec672fda6e2519726ab660c01b6107fd565b61030067caf0eeae286097ec60c01b6107fd565b600061030a6108dd565b905061032067179e52c4108dd86360c01b6107fd565b806002018054806020026020016040519081016040528092919081815260200182805480156103a457602002820191906000526020600020905b8160009054906101000a900473ffffffffffffffffffffffffffffffffffffffff1673ffffffffffffffffffffffffffffffffffffffff168152602001906001019080831161035a575b505050505091505090565b60606103c567c043d0fdfe85690f60c01b6107fd565b6103d9676355b722c929e3d760c01b6107fd565b6103ed67bf88829498058aa060c01b6107fd565b60006103f76108dd565b905061040d67f2df5b49795de23860c01b6107fd565b610421673941c9cba32583dc60c01b6107fd565b60008160020180549050905061044167ba63466a30980ff260c01b6107fd565b8067ffffffffffffffff81111561045b5761045a610ed8565b5b60405190808252806020026020018201604052801561049457816020015b61048161095e565b8152602001906001900390816104795790505b5092506104ab67e7d45cbaa37a264d60c01b6107fd565b6104bf678267071c472d681d60c01b6107fd565b60005b818110156106bc576104de674857500fe006fea060c01b6107fd565b6104f267774d9c687fb2c23960c01b6107fd565b600083600201828154811061050a57610509610f07565b5b9060005260206000200160009054906101000a900473ffffffffffffffffffffffffffffffffffffffff16905061054b677c9ec31f52165ced60c01b6107fd565b8085838151811061055f5761055e610f07565b5b60200260200101516000019073ffffffffffffffffffffffffffffffffffffffff16908173ffffffffffffffffffffffffffffffffffffffff16815250506105b1677541251dd5081ebc60c01b6107fd565b8360010160008273ffffffffffffffffffffffffffffffffffffffff1673ffffffffffffffffffffffffffffffffffffffff16815260200190815260200160002060000180548060200260200160405190810160405280929190818152602001828054801561068157602002820191906000526020600020906000905b82829054906101000a900460e01b7bffffffffffffffffffffffffffffffffffffffffffffffffffffffff19168152602001906004019060208260030104928301926001038202915080841161062e5790505b505050505085838151811061069957610698610f07565b5b6020026020010151602001819052505080806106b490610f6f565b9150506104c2565b50505090565b60606106d86703e8e90626cc687b60c01b6107fd565b6106ec67bc9efc8221a2338260c01b6107fd565b61070067b9c7a7099299d5d860c01b6107fd565b600061070a6108dd565b9050610720674ab018c516c886dc60c01b6107fd565b8060010160008473ffffffffffffffffffffffffffffffffffffffff1673ffffffffffffffffffffffffffffffffffffffff1681526020019081526020016000206000018054806020026020016040519081016040528092919081815260200182805480156107f057602002820191906000526020600020906000905b82829054906101000a900460e01b7bffffffffffffffffffffffffffffffffffffffffffffffffffffffff19168152602001906004019060208260030104928301926001038202915080841161079d5790505b5050505050915050919050565b50565b600061081667060da6d48d9da6f160c01b6107fd565b61082a6775cb04898d86de6c60c01b6107fd565b61083e6732fca3e1733eb23760c01b6107fd565b60006108486108dd565b905061085e67d50df68987b5a30960c01b6107fd565b806000016000847bffffffffffffffffffffffffffffffffffffffffffffffffffffffff19167bffffffffffffffffffffffffffffffffffffffffffffffffffffffff1916815260200190815260200160002060000160009054906101000a900473ffffffffffffffffffffffffffffffffffffffff16915050919050565b60006108f3679a33882304e088fd60c01b61095b565b610907673ebfa44d2bd9e44b60c01b61095b565b61091b672ff7fef2f0b4005460c01b61095b565b60007fc8fcad8db84d3cc18b4c41d551ea0ee66dd599cde068d998e57d5e09332c131c90506109546728a2d055fd7f2d6e60c01b61095b565b8091505090565b50565b6040518060400160405280600073ffffffffffffffffffffffffffffffffffffffff168152602001606081525090565b600080fd5b60007fffffffff0000000000000000000000000000000000000000000000000000000082169050919050565b6109c881610993565b81146109d357600080fd5b50565b6000813590506109e5816109bf565b92915050565b600060208284031215610a0157610a0061098e565b5b6000610a0f848285016109d6565b91505092915050565b60008115159050919050565b610a2d81610a18565b82525050565b6000602082019050610a486000830184610a24565b92915050565b60007fffffffffffffffff00000000000000000000000000000000000000000000000082169050919050565b610a8381610a4e565b8114610a8e57600080fd5b50565b600081359050610aa081610a7a565b92915050565b600060208284031215610abc57610abb61098e565b5b6000610aca84828501610a91565b91505092915050565b600081519050919050565b600082825260208201905092915050565b6000819050602082019050919050565b600073ffffffffffffffffffffffffffffffffffffffff82169050919050565b6000610b2a82610aff565b9050919050565b610b3a81610b1f565b82525050565b6000610b4c8383610b31565b60208301905092915050565b6000602082019050919050565b6000610b7082610ad3565b610b7a8185610ade565b9350610b8583610aef565b8060005b83811015610bb6578151610b9d8882610b40565b9750610ba883610b58565b925050600181019050610b89565b5085935050505092915050565b60006020820190508181036000830152610bdd8184610b65565b905092915050565b600081519050919050565b600082825260208201905092915050565b6000819050602082019050919050565b600081519050919050565b600082825260208201905092915050565b6000819050602082019050919050565b610c4681610993565b82525050565b6000610c588383610c3d565b60208301905092915050565b6000602082019050919050565b6000610c7c82610c11565b610c868185610c1c565b9350610c9183610c2d565b8060005b83811015610cc2578151610ca98882610c4c565b9750610cb483610c64565b925050600181019050610c95565b5085935050505092915050565b6000604083016000830151610ce76000860182610b31565b5060208301518482036020860152610cff8282610c71565b9150508091505092915050565b6000610d188383610ccf565b905092915050565b6000602082019050919050565b6000610d3882610be5565b610d428185610bf0565b935083602082028501610d5485610c01565b8060005b85811015610d905784840389528151610d718582610d0c565b9450610d7c83610d20565b925060208a01995050600181019050610d58565b50829750879550505050505092915050565b60006020820190508181036000830152610dbc8184610d2d565b905092915050565b610dcd81610b1f565b8114610dd857600080fd5b50565b600081359050610dea81610dc4565b92915050565b600060208284031215610e0657610e0561098e565b5b6000610e1484828501610ddb565b91505092915050565b600082825260208201905092915050565b6000610e3982610c11565b610e438185610e1d565b9350610e4e83610c2d565b8060005b83811015610e7f578151610e668882610c4c565b9750610e7183610c64565b925050600181019050610e52565b5085935050505092915050565b60006020820190508181036000830152610ea68184610e2e565b905092915050565b610eb781610b1f565b82525050565b6000602082019050610ed26000830184610eae565b92915050565b7f4e487b7100000000000000000000000000000000000000000000000000000000600052604160045260246000fd5b7f4e487b7100000000000000000000000000000000000000000000000000000000600052603260045260246000fd5b7f4e487b7100000000000000000000000000000000000000000000000000000000600052601160045260246000fd5b6000819050919050565b6000610f7a82610f65565b91507fffffffffffffffffffffffffffffffffffffffffffffffffffffffffffffffff821415610fad57610fac610f36565b5b60018201905091905056fea164736f6c634300080b000a",
  "linkReferences": {},
  "deployedLinkReferences": {}
}