{
  "_format": "hh-sol-artifact-1",
  "contractName": "Diamond",
  "sourceName": "src/bridges/Diamond.sol",
  "abi": [
    {
      "inputs": [
        {
          "internalType": "address",
          "name": "_contractOwner",
          "type": "address"
        },
        {
          "internalType": "address",
          "name": "_diamondCutFacet",
          "type": "address"
        }
      ],
      "stateMutability": "payable",
      "type": "constructor"
    },
    {
      "stateMutability": "payable",
      "type": "fallback"
    },
    {
      "inputs": [
        {
          "internalType": "bytes8",
          "name": "c__a0861d79",
          "type": "bytes8"
        }
      ],
      "name": "c_a0861d79",
      "outputs": [],
      "stateMutability": "pure",
      "type": "function"
    },
    {
      "inputs": [
        {
          "internalType": "bytes8",
          "name": "c__a0861d79",
          "type": "bytes8"
        }
      ],
      "name": "c_falsea0861d79",
      "outputs": [
        {
          "internalType": "bool",
          "name": "",
          "type": "bool"
        }
      ],
      "stateMutability": "pure",
      "type": "function"
    },
    {
      "inputs": [
        {
          "internalType": "bytes8",
          "name": "c__a0861d79",
          "type": "bytes8"
        }
      ],
      "name": "c_truea0861d79",
      "outputs": [
        {
          "internalType": "bool",
          "name": "",
          "type": "bool"
        }
      ],
      "stateMutability": "pure",
      "type": "function"
    },
    {
      "stateMutability": "payable",
      "type": "receive"
    }
  ],
  "bytecode": "0x6080604052604051620076c4380380620076c483398181016040528101906200002991906200322e565b6200004567b45e33ef5d31682a60c01b6200032b60201b60201c565b6200006167ba11dd588f80519460c01b6200032b60201b60201c565b6200007d67fc6685c72470ead060c01b6200032b60201b60201c565b62000093826200032e60201b620003591760201c565b620000af67d26c9344f3bc32c160c01b6200032b60201b60201c565b620000cb67205a61647a9bb1b860c01b6200032b60201b60201c565b6000600167ffffffffffffffff811115620000eb57620000ea62003275565b5b6040519080825280602002602001820160405280156200012857816020015b6200011462003178565b8152602001906001900390816200010a5790505b5090506200014767577b0718fa61b3d660c01b6200032b60201b60201c565b6200016367474fa082e888c3d160c01b6200032b60201b60201c565b6000600167ffffffffffffffff81111562000183576200018262003275565b5b604051908082528060200260200182016040528015620001b25781602001602082028036833780820191505090505b509050620001d167ee2de8f960576e3360c01b6200032b60201b60201c565b631f931c1c60e01b81600081518110620001f057620001ef620032a4565b5b60200260200101907bffffffffffffffffffffffffffffffffffffffffffffffffffffffff191690817bffffffffffffffffffffffffffffffffffffffffffffffffffffffff19168152505062000258675f01458c8a4456ca60c01b6200032b60201b60201c565b60405180606001604052808473ffffffffffffffffffffffffffffffffffffffff16815260200160006002811115620002965762000295620032d3565b5b81526020018281525082600081518110620002b657620002b5620032a4565b5b6020026020010181905250620002dd67628f598047e2665460c01b6200032b60201b60201c565b620002f967d85c6d96bed99a4d60c01b6200032b60201b60201c565b6200032182600060405180602001604052806000815250620004ed60201b620004d01760201c565b5050505062003f2b565b50565b6200034a671d2bb2a38b5297f060c01b62000a6860201b60201c565b6200036667b8a22918ebf8214560c01b62000a6860201b60201c565b6200038267ccecf30386cfa46c60c01b62000a6860201b60201c565b60006200039462000a6b60201b60201c565b9050620003b267574aaac89c5d2ed060c01b62000a6860201b60201c565b620003ce677842b3e2ea4ce60660c01b62000a6860201b60201c565b60008160040160009054906101000a900473ffffffffffffffffffffffffffffffffffffffff169050620004136741e7af1559da251b60c01b62000a6860201b60201c565b828260040160006101000a81548173ffffffffffffffffffffffffffffffffffffffff021916908373ffffffffffffffffffffffffffffffffffffffff1602179055506200047267e232e6143cb9028860c01b62000a6860201b60201c565b6200048e67746ce6e90229590c60c01b62000a6860201b60201c565b8273ffffffffffffffffffffffffffffffffffffffff168173ffffffffffffffffffffffffffffffffffffffff167f8be0079c531659141344cd1fd0a4f28419497f9722a3daafe3b4186f6b6457e060405160405180910390a3505050565b6200050967770bbbe5426f09d960c01b62000a6860201b60201c565b62000525679b087ea06e4e4f8c60c01b62000a6860201b60201c565b62000541679f6420588073a3fd60c01b62000a6860201b60201c565b60005b8351811015620009a3576200056a67312f5e07a430675b60c01b62000a6860201b60201c565b62000586671b115f86e6646d6d60c01b62000a6860201b60201c565b60008482815181106200059e576200059d620032a4565b5b6020026020010151602001519050620005c86775ef9f9e1beabf1360c01b62000a6860201b60201c565b620005e46737fb73f9926e10ce60c01b62000a6860201b60201c565b60006002811115620005fb57620005fa620032d3565b5b816002811115620006115762000610620032d3565b5b1415620006c6576200063467de5e864902e66ae560c01b62000a6860201b60201c565b62000650672cc8c2346445e81e60c01b62000a6860201b60201c565b6200066c6714f6a2b8be93160860c01b62000a6860201b60201c565b620006c0858381518110620006865762000685620032a4565b5b602002602001015160000151868481518110620006a857620006a7620032a4565b5b60200260200101516040015162000b0960201b60201c565b6200098c565b620006e26755ce8deb43dd05db60c01b62000a6860201b60201c565b620006fe675c831818c2e2a22960c01b62000a6860201b60201c565b60016002811115620007155762000714620032d3565b5b8160028111156200072b576200072a620032d3565b5b1415620007e0576200074e67809a18411a39db9e60c01b62000a6860201b60201c565b6200076a67d6ca714ff4b0c0d060c01b62000a6860201b60201c565b62000786678009e0d0167c836460c01b62000a6860201b60201c565b620007da858381518110620007a0576200079f620032a4565b5b602002602001015160000151868481518110620007c257620007c1620032a4565b5b6020026020010151604001516200113360201b60201c565b6200098b565b620007fc6759c01fa0d712c52a60c01b62000a6860201b60201c565b6200081867d38ea67e12465d4560c01b62000a6860201b60201c565b6002808111156200082e576200082d620032d3565b5b816002811115620008445762000843620032d3565b5b1415620008f9576200086767daf1d87b8a3aaff560c01b62000a6860201b60201c565b62000883679aa4770069bd82fc60c01b62000a6860201b60201c565b6200089f670b400f45b476a2ed60c01b62000a6860201b60201c565b620008f3858381518110620008b957620008b8620032a4565b5b602002602001015160000151868481518110620008db57620008da620032a4565b5b602002602001015160400151620017a860201b60201c565b6200098a565b62000915678b11f64b25f4d81b60c01b62000a6860201b60201c565b62000931677c79be31c391af8560c01b62000a6860201b60201c565b6200094d677416b55b9361fd8560c01b62000a6860201b60201c565b6040517f08c379a0000000000000000000000000000000000000000000000000000000008152600401620009819062003389565b60405180910390fd5b5b5b5080806200099a90620033e4565b91505062000544565b50620009c067284cc52dd9e11ee860c01b62000a6860201b60201c565b620009dc6789099e36d985b07e60c01b62000a6860201b60201c565b7f8faa70878671ccd212d20771b795c50af8fd3ff6cf27f4bde57e5d4de0aeb67383838360405162000a119392919062003769565b60405180910390a162000a35675e854cd5657a241960c01b62000a6860201b60201c565b62000a51672f89c84f5a76588460c01b62000a6860201b60201c565b62000a63828262001b6460201b60201c565b505050565b50565b600062000a89679a33882304e088fd60c01b62000a6860201b60201c565b62000aa5673ebfa44d2bd9e44b60c01b62000a6860201b60201c565b62000ac1672ff7fef2f0b4005460c01b62000a6860201b60201c565b60007fc8fcad8db84d3cc18b4c41d551ea0ee66dd599cde068d998e57d5e09332c131c905062000b026728a2d055fd7f2d6e60c01b62000a6860201b60201c565b8091505090565b62000b2567cfe4e461b7dde55060c01b62000a6860201b60201c565b62000b416773d2e204a0f0976c60c01b62000a6860201b60201c565b62000b5d67d1231bf9b69b932e60c01b62000a6860201b60201c565b62000b7967989537b9926d995560c01b62000a6860201b60201c565b600081511162000bc0576040517f08c379a000000000000000000000000000000000000000000000000000000000815260040162000bb7906200382a565b60405180910390fd5b62000bdc678fcfb088e297a03760c01b62000a6860201b60201c565b62000bf867da756a1e096a811c60c01b62000a6860201b60201c565b62000c1467d4473c6a53bc587a60c01b62000a6860201b60201c565b600062000c2662000a6b60201b60201c565b905062000c4467480bb0554c24d49960c01b62000a6860201b60201c565b62000c60670f85e69b412edae360c01b62000a6860201b60201c565b62000c7c67146248a5587e96aa60c01b62000a6860201b60201c565b600073ffffffffffffffffffffffffffffffffffffffff168373ffffffffffffffffffffffffffffffffffffffff16141562000cef576040517f08c379a000000000000000000000000000000000000000000000000000000000815260040162000ce690620038c2565b60405180910390fd5b62000d0b670ace8488e53185d160c01b62000a6860201b60201c565b62000d2767be0a55ae67ae7c3560c01b62000a6860201b60201c565b62000d4367515f71d655c70a6c60c01b62000a6860201b60201c565b60008160010160008573ffffffffffffffffffffffffffffffffffffffff1673ffffffffffffffffffffffffffffffffffffffff16815260200190815260200160002060000180549050905062000dab67558645ec45bedbcb60c01b62000a6860201b60201c565b62000dc767e3bdd3646c15d57760c01b62000a6860201b60201c565b6000816bffffffffffffffffffffffff16141562000e4b5762000dfb6772e99750570ee5d760c01b62000a6860201b60201c565b62000e176702d616944f2e855060c01b62000a6860201b60201c565b62000e336753cef62f8c313ed360c01b62000a6860201b60201c565b62000e4582856200213560201b60201c565b62000e68565b62000e676796b7aa167b18538860c01b62000a6860201b60201c565b5b62000e846723cc4f12f74c809960c01b62000a6860201b60201c565b62000ea067acd3577e5f953eda60c01b62000a6860201b60201c565b60005b83518110156200112c5762000ec9677500ce508513521160c01b62000a6860201b60201c565b62000ee5676cdebb0df5577cbe60c01b62000a6860201b60201c565b600084828151811062000efd5762000efc620032a4565b5b6020026020010151905062000f2367c5e8c5becf8d730360c01b62000a6860201b60201c565b62000f3f67b522f5fdac37f42560c01b62000a6860201b60201c565b6000846000016000837bffffffffffffffffffffffffffffffffffffffffffffffffffffffff19167bffffffffffffffffffffffffffffffffffffffffffffffffffffffff1916815260200190815260200160002060000160009054906101000a900473ffffffffffffffffffffffffffffffffffffffff16905062000fd667b881252ad751c97a60c01b62000a6860201b60201c565b62000ff26723eb2d8681b19bd160c01b62000a6860201b60201c565b6200100e677419fb8c3733b3da60c01b62000a6860201b60201c565b600073ffffffffffffffffffffffffffffffffffffffff168173ffffffffffffffffffffffffffffffffffffffff161462001080576040517f08c379a000000000000000000000000000000000000000000000000000000000815260040162001077906200395a565b60405180910390fd5b6200109c67e28f9f666cfa940360c01b62000a6860201b60201c565b620010b867e926afd552a60b5a60c01b62000a6860201b60201c565b620010d467882097aa0910b35760c01b62000a6860201b60201c565b620010e88583868a620022c160201b60201c565b6200110467c4a5d041ec6b5d0360c01b62000a6860201b60201c565b8380620011119062003994565b945050505080806200112390620033e4565b91505062000ea3565b5050505050565b6200114f672cde8dff5f7d8ab760c01b62000a6860201b60201c565b6200116b67ae24892e23064db660c01b62000a6860201b60201c565b620011876732a4d8918d255a8560c01b62000a6860201b60201c565b620011a367517c28a34acbb83560c01b62000a6860201b60201c565b6000815111620011ea576040517f08c379a0000000000000000000000000000000000000000000000000000000008152600401620011e1906200382a565b60405180910390fd5b6200120667ff9552aea1664eea60c01b62000a6860201b60201c565b6200122267a1e8585ee936c99360c01b62000a6860201b60201c565b6200123e67cfec02c0572406a260c01b62000a6860201b60201c565b60006200125062000a6b60201b60201c565b90506200126e673d2c738cb68aa68160c01b62000a6860201b60201c565b6200128a6727edd1365349a60c60c01b62000a6860201b60201c565b620012a667614fad590d69442460c01b62000a6860201b60201c565b600073ffffffffffffffffffffffffffffffffffffffff168373ffffffffffffffffffffffffffffffffffffffff16141562001319576040517f08c379a00000000000000000000000000000000000000000000000000000000081526004016200131090620038c2565b60405180910390fd5b6200133567953d913020f923ed60c01b62000a6860201b60201c565b6200135167c809f5491fa2e74960c01b62000a6860201b60201c565b6200136d67d965f520f00785bc60c01b62000a6860201b60201c565b60008160010160008573ffffffffffffffffffffffffffffffffffffffff1673ffffffffffffffffffffffffffffffffffffffff168152602001908152602001600020600001805490509050620013d567ad9e0242f19bc43760c01b62000a6860201b60201c565b620013f167d4f74b98fcd16e7c60c01b62000a6860201b60201c565b6000816bffffffffffffffffffffffff16141562001475576200142567cb9dbd6ff5285bba60c01b62000a6860201b60201c565b6200144167db00baa8aff2224460c01b62000a6860201b60201c565b6200145d6753183a5ad7c8edbe60c01b62000a6860201b60201c565b6200146f82856200213560201b60201c565b62001492565b6200149167b1e2c6039101c15360c01b62000a6860201b60201c565b5b620014ae6791cf3b01517e8e3d60c01b62000a6860201b60201c565b620014ca67d85f9ce76d75f40860c01b62000a6860201b60201c565b60005b8351811015620017a157620014f367ba1ceb274eea266360c01b62000a6860201b60201c565b6200150f67cb663aba9585dc5b60c01b62000a6860201b60201c565b6000848281518110620015275762001526620032a4565b5b602002602001015190506200154d673367adea540f0fe460c01b62000a6860201b60201c565b6200156967bb5da4d0b322d54960c01b62000a6860201b60201c565b6000846000016000837bffffffffffffffffffffffffffffffffffffffffffffffffffffffff19167bffffffffffffffffffffffffffffffffffffffffffffffffffffffff1916815260200190815260200160002060000160009054906101000a900473ffffffffffffffffffffffffffffffffffffffff16905062001600678d26dd92fe01856260c01b62000a6860201b60201c565b6200161c67ce8d0a274359453860c01b62000a6860201b60201c565b6200163867dbf90a16bceb514360c01b62000a6860201b60201c565b8673ffffffffffffffffffffffffffffffffffffffff168173ffffffffffffffffffffffffffffffffffffffff161415620016aa576040517f08c379a0000000000000000000000000000000000000000000000000000000008152600401620016a19062003a44565b60405180910390fd5b620016c6670e313110b06d264960c01b62000a6860201b60201c565b620016e2679a7a014596dfc9c360c01b62000a6860201b60201c565b620016fe673e5df500ef3185e160c01b62000a6860201b60201c565b62001711858284620024fa60201b60201c565b6200172d67386e00eddf6eae4e60c01b62000a6860201b60201c565b6200174967af355a2c4b22380f60c01b62000a6860201b60201c565b6200175d8583868a620022c160201b60201c565b6200177967a7d4f0c02463a0d960c01b62000a6860201b60201c565b8380620017869062003994565b945050505080806200179890620033e4565b915050620014cd565b5050505050565b620017c467536b38dc87cf512860c01b62000a6860201b60201c565b620017e067c848655388d6665c60c01b62000a6860201b60201c565b620017fc67e36ed566f74d475760c01b62000a6860201b60201c565b62001818675d045df3e00830fb60c01b62000a6860201b60201c565b60008151116200185f576040517f08c379a000000000000000000000000000000000000000000000000000000000815260040162001856906200382a565b60405180910390fd5b6200187b67fc07c6ad0c1e328a60c01b62000a6860201b60201c565b6200189767d2a444e61c31858360c01b62000a6860201b60201c565b620018b3679eb23cc83c806c5060c01b62000a6860201b60201c565b6000620018c562000a6b60201b60201c565b9050620018e36733d01f64423e151160c01b62000a6860201b60201c565b620018ff67276df5fc8b233bfd60c01b62000a6860201b60201c565b6200191b67c651689c16a081ce60c01b62000a6860201b60201c565b600073ffffffffffffffffffffffffffffffffffffffff168373ffffffffffffffffffffffffffffffffffffffff16146200198d576040517f08c379a0000000000000000000000000000000000000000000000000000000008152600401620019849062003adc565b60405180910390fd5b620019a967f91794f7ca387fb260c01b62000a6860201b60201c565b620019c567367ee0bc2a4c767360c01b62000a6860201b60201c565b620019e1677a0fe2a2a96456d360c01b62000a6860201b60201c565b60005b825181101562001b5e5762001a0a678a86303d3d575ec960c01b62000a6860201b60201c565b62001a2667068a190b3d46b8dd60c01b62000a6860201b60201c565b600083828151811062001a3e5762001a3d620032a4565b5b6020026020010151905062001a64678d01d23e62adc54960c01b62000a6860201b60201c565b62001a806751e2ad51345b0fe360c01b62000a6860201b60201c565b6000836000016000837bffffffffffffffffffffffffffffffffffffffffffffffffffffffff19167bffffffffffffffffffffffffffffffffffffffffffffffffffffffff1916815260200190815260200160002060000160009054906101000a900473ffffffffffffffffffffffffffffffffffffffff16905062001b17671af9933b6bd0bbbb60c01b62000a6860201b60201c565b62001b33678f22edc86599ddcf60c01b62000a6860201b60201c565b62001b46848284620024fa60201b60201c565b5050808062001b5590620033e4565b915050620019e4565b50505050565b62001b806795e427799384b20060c01b62000a6860201b60201c565b62001b9c6773e3160fa84aeb9960c01b62000a6860201b60201c565b62001bb867abcba4e5adbea94260c01b62000a6860201b60201c565b600073ffffffffffffffffffffffffffffffffffffffff168273ffffffffffffffffffffffffffffffffffffffff16141562001cc75762001c0a67222e31051039790a60c01b62000a6860201b60201c565b62001c2667c1c73a24a109f8e360c01b62000a6860201b60201c565b62001c4267922722ed0337f59760c01b62000a6860201b60201c565b62001c5e67931eb76cc69eaf6760c01b62000a6860201b60201c565b600081511462001ca5576040517f08c379a000000000000000000000000000000000000000000000000000000000815260040162001c9c9062003b74565b60405180910390fd5b62001cc167d59b3d8e686a8ce360c01b62000a6860201b60201c565b62002131565b62001ce36781316ec758a1380f60c01b62000a6860201b60201c565b62001cff670f33d07076b7e1ac60c01b62000a6860201b60201c565b62001d1b67f9a8f603ae2cadaf60c01b62000a6860201b60201c565b62001d3767945c63f8b14ff2c860c01b62000a6860201b60201c565b600081511162001d7e576040517f08c379a000000000000000000000000000000000000000000000000000000000815260040162001d759062003c0c565b60405180910390fd5b62001d9a6766ed5d886f9332c560c01b62000a6860201b60201c565b62001db667e3ecae813031321460c01b62000a6860201b60201c565b62001dd267d428c84d4feb934b60c01b62000a6860201b60201c565b3073ffffffffffffffffffffffffffffffffffffffff168273ffffffffffffffffffffffffffffffffffffffff161462001e8b5762001e22672e5f5fffacad4a8d60c01b62000a6860201b60201c565b62001e3e67b580ef88b462216660c01b62000a6860201b60201c565b62001e5a67cfec294d83ec551360c01b62000a6860201b60201c565b62001e858260405180606001604052806028815260200162007678602891396200304360201b60201c565b62001ea8565b62001ea7672b84a0878de414d960c01b62000a6860201b60201c565b5b62001ec4673654a9557d3b41f660c01b62000a6860201b60201c565b62001ee06736da1022231e188e60c01b62000a6860201b60201c565b6000808373ffffffffffffffffffffffffffffffffffffffff168360405162001f0a919062003c70565b600060405180830381855af49150503d806000811462001f47576040519150601f19603f3d011682016040523d82523d6000602084013e62001f4c565b606091505b509150915062001f6d67099ff37fa02c40dd60c01b62000a6860201b60201c565b62001f89671646117ada58976360c01b62000a6860201b60201c565b81620021125762001fab67a4860446d07b228b60c01b62000a6860201b60201c565b62001fc767a9a60e9e5115467a60c01b62000a6860201b60201c565b62001fe36785abd23ad83ab6af60c01b62000a6860201b60201c565b60008151111562002081576200200a678621d3f87c787f4460c01b62000a6860201b60201c565b6200202667d89ecd71389df2ac60c01b62000a6860201b60201c565b62002042674f9f6bae8183b5ec60c01b62000a6860201b60201c565b806040517f08c379a000000000000000000000000000000000000000000000000000000000815260040162002078919062003cd5565b60405180910390fd5b6200209d67683f5b60e7400a4060c01b62000a6860201b60201c565b620020b96743f9fc9d68439c6b60c01b62000a6860201b60201c565b620020d567f1fc7dce789cca6060c01b62000a6860201b60201c565b6040517f08c379a0000000000000000000000000000000000000000000000000000000008152600401620021099062003d6f565b60405180910390fd5b6200212e67fafc4907f36eb9d360c01b62000a6860201b60201c565b50505b5050565b6200215167a660600db390f5f260c01b62000a6860201b60201c565b6200216d673ef404036377476760c01b62000a6860201b60201c565b62002189678bc61916374013c160c01b62000a6860201b60201c565b620021b481604051806060016040528060248152602001620076a0602491396200304360201b60201c565b620021d0679267b779ca13cea960c01b62000a6860201b60201c565b81600201805490508260010160008373ffffffffffffffffffffffffffffffffffffffff1673ffffffffffffffffffffffffffffffffffffffff168152602001908152602001600020600101819055506200223c675f6d2981a3361cfd60c01b62000a6860201b60201c565b62002258675208a18949f6318360c01b62000a6860201b60201c565b81600201819080600181540180825580915050600190039060005260206000200160009091909190916101000a81548173ffffffffffffffffffffffffffffffffffffffff021916908373ffffffffffffffffffffffffffffffffffffffff1602179055505050565b620022dd677921348cde04f95a60c01b62000a6860201b60201c565b620022f96788119ed530e69cc260c01b62000a6860201b60201c565b81846000016000857bffffffffffffffffffffffffffffffffffffffffffffffffffffffff19167bffffffffffffffffffffffffffffffffffffffffffffffffffffffff1916815260200190815260200160002060000160146101000a8154816bffffffffffffffffffffffff02191690836bffffffffffffffffffffffff1602179055506200239a67db204d141e513c4b60c01b62000a6860201b60201c565b620023b667af64a032fde07d7160c01b62000a6860201b60201c565b8360010160008273ffffffffffffffffffffffffffffffffffffffff1673ffffffffffffffffffffffffffffffffffffffff1681526020019081526020016000206000018390806001815401808255809150506001900390600052602060002090600891828204019190066004029091909190916101000a81548163ffffffff021916908360e01c02179055506200245f67af8a44b2b6b3010a60c01b62000a6860201b60201c565b80846000016000857bffffffffffffffffffffffffffffffffffffffffffffffffffffffff19167bffffffffffffffffffffffffffffffffffffffffffffffffffffffff1916815260200190815260200160002060000160006101000a81548173ffffffffffffffffffffffffffffffffffffffff021916908373ffffffffffffffffffffffffffffffffffffffff16021790555050505050565b6200251667233c9b7209b2bc2e60c01b62000a6860201b60201c565b6200253267975c8874172358d860c01b62000a6860201b60201c565b6200254e6710324878031d272360c01b62000a6860201b60201c565b6200256a67782615c06c31f3bb60c01b62000a6860201b60201c565b600073ffffffffffffffffffffffffffffffffffffffff168273ffffffffffffffffffffffffffffffffffffffff161415620025dd576040517f08c379a0000000000000000000000000000000000000000000000000000000008152600401620025d49062003e07565b60405180910390fd5b620025f967b719d4f4bd83a91e60c01b62000a6860201b60201c565b6200261567a903cba0748d3cae60c01b62000a6860201b60201c565b62002631670a92447a42b59cc560c01b62000a6860201b60201c565b6200264d67dbf85abacb40c05460c01b62000a6860201b60201c565b3073ffffffffffffffffffffffffffffffffffffffff168273ffffffffffffffffffffffffffffffffffffffff161415620026bf576040517f08c379a0000000000000000000000000000000000000000000000000000000008152600401620026b69062003e9f565b60405180910390fd5b620026db67d66e4ba34262192860c01b62000a6860201b60201c565b620026f767e9c8cf279e80786f60c01b62000a6860201b60201c565b6200271367e740e85115ae05d760c01b62000a6860201b60201c565b6000836000016000837bffffffffffffffffffffffffffffffffffffffffffffffffffffffff19167bffffffffffffffffffffffffffffffffffffffffffffffffffffffff1916815260200190815260200160002060000160149054906101000a90046bffffffffffffffffffffffff166bffffffffffffffffffffffff169050620027b0671b1988108e8a90d360c01b62000a6860201b60201c565b620027cc674efd392b7370f04c60c01b62000a6860201b60201c565b600060018560010160008673ffffffffffffffffffffffffffffffffffffffff1673ffffffffffffffffffffffffffffffffffffffff1681526020019081526020016000206000018054905062002824919062003ec1565b9050620028426742f1702f4ac9b8a460c01b62000a6860201b60201c565b6200285e6738896347e14198d360c01b62000a6860201b60201c565b80821462002a88576200288267de5d2dfe84fd0e5960c01b62000a6860201b60201c565b6200289e67a597c89b2b26b40360c01b62000a6860201b60201c565b620028ba6701eb0917fe6d858760c01b62000a6860201b60201c565b60008560010160008673ffffffffffffffffffffffffffffffffffffffff1673ffffffffffffffffffffffffffffffffffffffff1681526020019081526020016000206000018281548110620029155762002914620032a4565b5b90600052602060002090600891828204019190066004029054906101000a900460e01b90506200295667904bf3c12d29f19760c01b62000a6860201b60201c565b808660010160008773ffffffffffffffffffffffffffffffffffffffff1673ffffffffffffffffffffffffffffffffffffffff1681526020019081526020016000206000018481548110620029b057620029af620032a4565b5b90600052602060002090600891828204019190066004026101000a81548163ffffffff021916908360e01c0217905550620029fc67a0d3440268dcc9b360c01b62000a6860201b60201c565b82866000016000837bffffffffffffffffffffffffffffffffffffffffffffffffffffffff19167bffffffffffffffffffffffffffffffffffffffffffffffffffffffff1916815260200190815260200160002060000160146101000a8154816bffffffffffffffffffffffff02191690836bffffffffffffffffffffffff1602179055505062002aa5565b62002aa467d198e77c279b0cad60c01b62000a6860201b60201c565b5b62002ac16726bd82649f7173bc60c01b62000a6860201b60201c565b62002add674bae02e1a918f27a60c01b62000a6860201b60201c565b8460010160008573ffffffffffffffffffffffffffffffffffffffff1673ffffffffffffffffffffffffffffffffffffffff16815260200190815260200160002060000180548062002b345762002b3362003efc565b5b60019003818190600052602060002090600891828204019190066004026101000a81549063ffffffff0219169055905562002b8067e9d5deae87e6798d60c01b62000a6860201b60201c565b846000016000847bffffffffffffffffffffffffffffffffffffffffffffffffffffffff19167bffffffffffffffffffffffffffffffffffffffffffffffffffffffff19168152602001908152602001600020600080820160006101000a81549073ffffffffffffffffffffffffffffffffffffffff02191690556000820160146101000a8154906bffffffffffffffffffffffff0219169055505062002c38677eabf3177058c29f60c01b62000a6860201b60201c565b62002c5467d3d01548f6223eaa60c01b62000a6860201b60201c565b60008114156200301f5762002c7a67f07038b960b05a4c60c01b62000a6860201b60201c565b62002c9566c6fbd4fbaed54a60c01b62000a6860201b60201c565b62002cb167714552e98475403a60c01b62000a6860201b60201c565b60006001866002018054905062002cc9919062003ec1565b905062002ce7674b20cd335540d24060c01b62000a6860201b60201c565b62002d036757acb9403953294960c01b62000a6860201b60201c565b60008660010160008773ffffffffffffffffffffffffffffffffffffffff1673ffffffffffffffffffffffffffffffffffffffff16815260200190815260200160002060010154905062002d6867896a24224cd6d4f960c01b62000a6860201b60201c565b62002d8467212233d762910e7760c01b62000a6860201b60201c565b81811462002f125762002da8674d9cb55c1a651e3860c01b62000a6860201b60201c565b62002dc46720eba5b4c611f8a360c01b62000a6860201b60201c565b62002de067d5bb4cdb13885a3f60c01b62000a6860201b60201c565b600087600201838154811062002dfb5762002dfa620032a4565b5b9060005260206000200160009054906101000a900473ffffffffffffffffffffffffffffffffffffffff16905062002e44678f57c041c30a5a7460c01b62000a6860201b60201c565b8088600201838154811062002e5e5762002e5d620032a4565b5b9060005260206000200160006101000a81548173ffffffffffffffffffffffffffffffffffffffff021916908373ffffffffffffffffffffffffffffffffffffffff16021790555062002ec26720afce9dd6d5448960c01b62000a6860201b60201c565b818860010160008373ffffffffffffffffffffffffffffffffffffffff1673ffffffffffffffffffffffffffffffffffffffff168152602001908152602001600020600101819055505062002f2f565b62002f2e672d6a10483b034a6c60c01b62000a6860201b60201c565b5b62002f4b67ce686747f129ec6960c01b62000a6860201b60201c565b62002f6767e1216f036ad5da8260c01b62000a6860201b60201c565b8660020180548062002f7e5762002f7d62003efc565b5b6001900381819060005260206000200160006101000a81549073ffffffffffffffffffffffffffffffffffffffff0219169055905562002fcf679eee40465793ea5060c01b62000a6860201b60201c565b8660010160008773ffffffffffffffffffffffffffffffffffffffff1673ffffffffffffffffffffffffffffffffffffffff1681526020019081526020016000206001016000905550506200303c565b6200303b67a5e606b4a7bbd01c60c01b62000a6860201b60201c565b5b5050505050565b6200305f67fdd970df001bebbf60c01b62000a6860201b60201c565b6200307b67268603c81720b98460c01b62000a6860201b60201c565b6200309767650c4db27f4245fb60c01b62000a6860201b60201c565b6000620030b5672b986732b5d29c0d60c01b62000a6860201b60201c565b823b9050620030d567aefa65267f71d36360c01b62000a6860201b60201c565b620030f1675a5142499e5f9e2660c01b62000a6860201b60201c565b6200310d673d8ed32d34ce37ba60c01b62000a6860201b60201c565b60008111829062003156576040517f08c379a00000000000000000000000000000000000000000000000000000000081526004016200314d919062003cd5565b60405180910390fd5b506200317367919667a436c87d7460c01b62000a6860201b60201c565b505050565b6040518060600160405280600073ffffffffffffffffffffffffffffffffffffffff16815260200160006002811115620031b757620031b6620032d3565b5b8152602001606081525090565b600080fd5b600073ffffffffffffffffffffffffffffffffffffffff82169050919050565b6000620031f682620031c9565b9050919050565b6200320881620031e9565b81146200321457600080fd5b50565b6000815190506200322881620031fd565b92915050565b60008060408385031215620032485762003247620031c4565b5b6000620032588582860162003217565b92505060206200326b8582860162003217565b9150509250929050565b7f4e487b7100000000000000000000000000000000000000000000000000000000600052604160045260246000fd5b7f4e487b7100000000000000000000000000000000000000000000000000000000600052603260045260246000fd5b7f4e487b7100000000000000000000000000000000000000000000000000000000600052602160045260246000fd5b600082825260208201905092915050565b7f4c69624469616d6f6e644375743a20496e636f7272656374204661636574437560008201527f74416374696f6e00000000000000000000000000000000000000000000000000602082015250565b60006200337160278362003302565b91506200337e8262003313565b604082019050919050565b60006020820190508181036000830152620033a48162003362565b9050919050565b7f4e487b7100000000000000000000000000000000000000000000000000000000600052601160045260246000fd5b6000819050919050565b6000620033f182620033da565b91507fffffffffffffffffffffffffffffffffffffffffffffffffffffffffffffffff821415620034275762003426620033ab565b5b600182019050919050565b600081519050919050565b600082825260208201905092915050565b6000819050602082019050919050565b6200346981620031e9565b82525050565b60038110620034835762003482620032d3565b5b50565b600081905062003496826200346f565b919050565b6000620034a88262003486565b9050919050565b620034ba816200349b565b82525050565b600081519050919050565b600082825260208201905092915050565b6000819050602082019050919050565b60007fffffffff0000000000000000000000000000000000000000000000000000000082169050919050565b6200352381620034ec565b82525050565b600062003537838362003518565b60208301905092915050565b6000602082019050919050565b60006200355d82620034c0565b620035698185620034cb565b93506200357683620034dc565b8060005b83811015620035ad57815162003591888262003529565b97506200359e8362003543565b9250506001810190506200357a565b5085935050505092915050565b6000606083016000830151620035d460008601826200345e565b506020830151620035e96020860182620034af565b506040830151848203604086015262003603828262003550565b9150508091505092915050565b60006200361e8383620035ba565b905092915050565b6000602082019050919050565b6000620036408262003432565b6200364c81856200343d565b93508360208202850162003660856200344e565b8060005b85811015620036a2578484038952815162003680858262003610565b94506200368d8362003626565b925060208a0199505060018101905062003664565b50829750879550505050505092915050565b620036bf81620031e9565b82525050565b600081519050919050565b600082825260208201905092915050565b60005b8381101562003701578082015181840152602081019050620036e4565b8381111562003711576000848401525b50505050565b6000601f19601f8301169050919050565b60006200373582620036c5565b620037418185620036d0565b935062003753818560208601620036e1565b6200375e8162003717565b840191505092915050565b6000606082019050818103600083015262003785818662003633565b9050620037966020830185620036b4565b8181036040830152620037aa818462003728565b9050949350505050565b7f4c69624469616d6f6e644375743a204e6f2073656c6563746f727320696e206660008201527f6163657420746f20637574000000000000000000000000000000000000000000602082015250565b600062003812602b8362003302565b91506200381f82620037b4565b604082019050919050565b60006020820190508181036000830152620038458162003803565b9050919050565b7f4c69624469616d6f6e644375743a204164642066616365742063616e2774206260008201527f6520616464726573732830290000000000000000000000000000000000000000602082015250565b6000620038aa602c8362003302565b9150620038b7826200384c565b604082019050919050565b60006020820190508181036000830152620038dd816200389b565b9050919050565b7f4c69624469616d6f6e644375743a2043616e2774206164642066756e6374696f60008201527f6e207468617420616c7265616479206578697374730000000000000000000000602082015250565b60006200394260358362003302565b91506200394f82620038e4565b604082019050919050565b60006020820190508181036000830152620039758162003933565b9050919050565b60006bffffffffffffffffffffffff82169050919050565b6000620039a1826200397c565b91506bffffffffffffffffffffffff821415620039c357620039c2620033ab565b5b600182019050919050565b7f4c69624469616d6f6e644375743a2043616e2774207265706c6163652066756e60008201527f6374696f6e20776974682073616d652066756e6374696f6e0000000000000000602082015250565b600062003a2c60388362003302565b915062003a3982620039ce565b604082019050919050565b6000602082019050818103600083015262003a5f8162003a1d565b9050919050565b7f4c69624469616d6f6e644375743a2052656d6f7665206661636574206164647260008201527f657373206d757374206265206164647265737328302900000000000000000000602082015250565b600062003ac460368362003302565b915062003ad18262003a66565b604082019050919050565b6000602082019050818103600083015262003af78162003ab5565b9050919050565b7f4c69624469616d6f6e644375743a205f696e697420697320616464726573732860008201527f3029206275745f63616c6c64617461206973206e6f7420656d70747900000000602082015250565b600062003b5c603c8362003302565b915062003b698262003afe565b604082019050919050565b6000602082019050818103600083015262003b8f8162003b4d565b9050919050565b7f4c69624469616d6f6e644375743a205f63616c6c6461746120697320656d707460008201527f7920627574205f696e6974206973206e6f742061646472657373283029000000602082015250565b600062003bf4603d8362003302565b915062003c018262003b96565b604082019050919050565b6000602082019050818103600083015262003c278162003be5565b9050919050565b600081905092915050565b600062003c4682620036c5565b62003c52818562003c2e565b935062003c64818560208601620036e1565b80840191505092915050565b600062003c7e828462003c39565b915081905092915050565b600081519050919050565b600062003ca18262003c89565b62003cad818562003302565b935062003cbf818560208601620036e1565b62003cca8162003717565b840191505092915050565b6000602082019050818103600083015262003cf1818462003c94565b905092915050565b7f4c69624469616d6f6e644375743a205f696e69742066756e6374696f6e20726560008201527f7665727465640000000000000000000000000000000000000000000000000000602082015250565b600062003d5760268362003302565b915062003d648262003cf9565b604082019050919050565b6000602082019050818103600083015262003d8a8162003d48565b9050919050565b7f4c69624469616d6f6e644375743a2043616e27742072656d6f76652066756e6360008201527f74696f6e207468617420646f65736e2774206578697374000000000000000000602082015250565b600062003def60378362003302565b915062003dfc8262003d91565b604082019050919050565b6000602082019050818103600083015262003e228162003de0565b9050919050565b7f4c69624469616d6f6e644375743a2043616e27742072656d6f766520696d6d7560008201527f7461626c652066756e6374696f6e000000000000000000000000000000000000602082015250565b600062003e87602e8362003302565b915062003e948262003e29565b604082019050919050565b6000602082019050818103600083015262003eba8162003e78565b9050919050565b600062003ece82620033da565b915062003edb83620033da565b92508282101562003ef15762003ef0620033ab565b5b828203905092915050565b7f4e487b7100000000000000000000000000000000000000000000000000000000600052603160045260246000fd5b61373d8062003f3b6000396000f3fe6080604052600436106100385760003560e01c80632d28c2f2146102a157806331be9798146102de578063d0838c291461031b5761003f565b3661003f57005b61005367f980fdb88ca1af2860c01b610344565b61006767b4c1de350bbe543260c01b610344565b61007b673620ba2c17113f5f60c01b610344565b60006100916779ccff620cf38a2660c01b610344565b6100a567be8a1baa9ab503cc60c01b610344565b60007fc8fcad8db84d3cc18b4c41d551ea0ee66dd599cde068d998e57d5e09332c131c90506100de6731598129f2ecfeb760c01b610344565b8091506100f567fb6d7334f0fd3eab60c01b610344565b61010967fdc9ba2f954e173a60c01b610344565b600082600001600080357fffffffff00000000000000000000000000000000000000000000000000000000167bffffffffffffffffffffffffffffffffffffffffffffffffffffffff19167bffffffffffffffffffffffffffffffffffffffffffffffffffffffff1916815260200190815260200160002060000160009054906101000a900473ffffffffffffffffffffffffffffffffffffffff1690506101bb67c093872243911fb660c01b610344565b6101cf6791d9747ad9d12dba60c01b610344565b6101e367c6d3121eaddebe5160c01b610344565b600073ffffffffffffffffffffffffffffffffffffffff168173ffffffffffffffffffffffffffffffffffffffff161415610253576040517f08c379a000000000000000000000000000000000000000000000000000000000815260040161024a90612a03565b60405180910390fd5b61026767225655d26b24843560c01b610344565b61027b67ef5fdf538cb0231a60c01b610344565b3660008037600080366000845af43d6000803e806000811461029c573d6000f35b3d6000fd5b3480156102ad57600080fd5b506102c860048036038101906102c39190612a80565b610347565b6040516102d59190612ac8565b60405180910390f35b3480156102ea57600080fd5b5061030560048036038101906103009190612a80565b610352565b6040516103129190612ac8565b60405180910390f35b34801561032757600080fd5b50610342600480360381019061033d9190612a80565b610344565b005b50565b600060019050919050565b6000919050565b61036d671d2bb2a38b5297f060c01b61091e565b61038167b8a22918ebf8214560c01b61091e565b61039567ccecf30386cfa46c60c01b61091e565b600061039f610921565b90506103b567574aaac89c5d2ed060c01b61091e565b6103c9677842b3e2ea4ce60660c01b61091e565b60008160040160009054906101000a900473ffffffffffffffffffffffffffffffffffffffff1690506104066741e7af1559da251b60c01b61091e565b828260040160006101000a81548173ffffffffffffffffffffffffffffffffffffffff021916908373ffffffffffffffffffffffffffffffffffffffff16021790555061045d67e232e6143cb9028860c01b61091e565b61047167746ce6e90229590c60c01b61091e565b8273ffffffffffffffffffffffffffffffffffffffff168173ffffffffffffffffffffffffffffffffffffffff167f8be0079c531659141344cd1fd0a4f28419497f9722a3daafe3b4186f6b6457e060405160405180910390a3505050565b6104e467770bbbe5426f09d960c01b61091e565b6104f8679b087ea06e4e4f8c60c01b61091e565b61050c679f6420588073a3fd60c01b61091e565b60005b83518110156108835761052c67312f5e07a430675b60c01b61091e565b610540671b115f86e6646d6d60c01b61091e565b600084828151811061055557610554612ae3565b5b60200260200101516020015190506105776775ef9f9e1beabf1360c01b61091e565b61058b6737fb73f9926e10ce60c01b61091e565b6000600281111561059f5761059e612b12565b5b8160028111156105b2576105b1612b12565b5b141561063f576105cc67de5e864902e66ae560c01b61091e565b6105e0672cc8c2346445e81e60c01b61091e565b6105f46714f6a2b8be93160860c01b61091e565b61063a85838151811061060a57610609612ae3565b5b60200260200101516000015186848151811061062957610628612ae3565b5b60200260200101516040015161099f565b61086f565b6106536755ce8deb43dd05db60c01b61091e565b610667675c831818c2e2a22960c01b61091e565b6001600281111561067b5761067a612b12565b5b81600281111561068e5761068d612b12565b5b141561071b576106a867809a18411a39db9e60c01b61091e565b6106bc67d6ca714ff4b0c0d060c01b61091e565b6106d0678009e0d0167c836460c01b61091e565b6107168583815181106106e6576106e5612ae3565b5b60200260200101516000015186848151811061070557610704612ae3565b5b602002602001015160400151610e9d565b61086e565b61072f6759c01fa0d712c52a60c01b61091e565b61074367d38ea67e12465d4560c01b61091e565b60028081111561075657610755612b12565b5b81600281111561076957610768612b12565b5b14156107f65761078367daf1d87b8a3aaff560c01b61091e565b610797679aa4770069bd82fc60c01b61091e565b6107ab670b400f45b476a2ed60c01b61091e565b6107f18583815181106107c1576107c0612ae3565b5b6020026020010151600001518684815181106107e0576107df612ae3565b5b6020026020010151604001516113ce565b61086d565b61080a678b11f64b25f4d81b60c01b61091e565b61081e677c79be31c391af8560c01b61091e565b610832677416b55b9361fd8560c01b61091e565b6040517f08c379a000000000000000000000000000000000000000000000000000000000815260040161086490612bb3565b60405180910390fd5b5b5b50808061087b90612c0c565b91505061050f565b5061089867284cc52dd9e11ee860c01b61091e565b6108ac6789099e36d985b07e60c01b61091e565b7f8faa70878671ccd212d20771b795c50af8fd3ff6cf27f4bde57e5d4de0aeb6738383836040516108df93929190612f82565b60405180910390a16108fb675e854cd5657a241960c01b61091e565b61090f672f89c84f5a76588460c01b61091e565b61091982826116d5565b505050565b50565b6000610937679a33882304e088fd60c01b61091e565b61094b673ebfa44d2bd9e44b60c01b61091e565b61095f672ff7fef2f0b4005460c01b61091e565b60007fc8fcad8db84d3cc18b4c41d551ea0ee66dd599cde068d998e57d5e09332c131c90506109986728a2d055fd7f2d6e60c01b61091e565b8091505090565b6109b367cfe4e461b7dde55060c01b61091e565b6109c76773d2e204a0f0976c60c01b61091e565b6109db67d1231bf9b69b932e60c01b61091e565b6109ef67989537b9926d995560c01b61091e565b6000815111610a33576040517f08c379a0000000000000000000000000000000000000000000000000000000008152600401610a2a90613039565b60405180910390fd5b610a47678fcfb088e297a03760c01b61091e565b610a5b67da756a1e096a811c60c01b61091e565b610a6f67d4473c6a53bc587a60c01b61091e565b6000610a79610921565b9050610a8f67480bb0554c24d49960c01b61091e565b610aa3670f85e69b412edae360c01b61091e565b610ab767146248a5587e96aa60c01b61091e565b600073ffffffffffffffffffffffffffffffffffffffff168373ffffffffffffffffffffffffffffffffffffffff161415610b27576040517f08c379a0000000000000000000000000000000000000000000000000000000008152600401610b1e906130cb565b60405180910390fd5b610b3b670ace8488e53185d160c01b61091e565b610b4f67be0a55ae67ae7c3560c01b61091e565b610b6367515f71d655c70a6c60c01b61091e565b60008160010160008573ffffffffffffffffffffffffffffffffffffffff1673ffffffffffffffffffffffffffffffffffffffff168152602001908152602001600020600001805490509050610bc367558645ec45bedbcb60c01b61091e565b610bd767e3bdd3646c15d57760c01b61091e565b6000816bffffffffffffffffffffffff161415610c3957610c026772e99750570ee5d760c01b61091e565b610c166702d616944f2e855060c01b61091e565b610c2a6753cef62f8c313ed360c01b61091e565b610c348285611b81565b610c4e565b610c4d6796b7aa167b18538860c01b61091e565b5b610c626723cc4f12f74c809960c01b61091e565b610c7667acd3577e5f953eda60c01b61091e565b60005b8351811015610e9657610c96677500ce508513521160c01b61091e565b610caa676cdebb0df5577cbe60c01b61091e565b6000848281518110610cbf57610cbe612ae3565b5b60200260200101519050610cdd67c5e8c5becf8d730360c01b61091e565b610cf167b522f5fdac37f42560c01b61091e565b6000846000016000837bffffffffffffffffffffffffffffffffffffffffffffffffffffffff19167bffffffffffffffffffffffffffffffffffffffffffffffffffffffff1916815260200190815260200160002060000160009054906101000a900473ffffffffffffffffffffffffffffffffffffffff169050610d8067b881252ad751c97a60c01b61091e565b610d946723eb2d8681b19bd160c01b61091e565b610da8677419fb8c3733b3da60c01b61091e565b600073ffffffffffffffffffffffffffffffffffffffff168173ffffffffffffffffffffffffffffffffffffffff1614610e17576040517f08c379a0000000000000000000000000000000000000000000000000000000008152600401610e0e9061315d565b60405180910390fd5b610e2b67e28f9f666cfa940360c01b61091e565b610e3f67e926afd552a60b5a60c01b61091e565b610e5367882097aa0910b35760c01b61091e565b610e5f8583868a611cd4565b610e7367c4a5d041ec6b5d0360c01b61091e565b8380610e7e90613195565b94505050508080610e8e90612c0c565b915050610c79565b5050505050565b610eb1672cde8dff5f7d8ab760c01b61091e565b610ec567ae24892e23064db660c01b61091e565b610ed96732a4d8918d255a8560c01b61091e565b610eed67517c28a34acbb83560c01b61091e565b6000815111610f31576040517f08c379a0000000000000000000000000000000000000000000000000000000008152600401610f2890613039565b60405180910390fd5b610f4567ff9552aea1664eea60c01b61091e565b610f5967a1e8585ee936c99360c01b61091e565b610f6d67cfec02c0572406a260c01b61091e565b6000610f77610921565b9050610f8d673d2c738cb68aa68160c01b61091e565b610fa16727edd1365349a60c60c01b61091e565b610fb567614fad590d69442460c01b61091e565b600073ffffffffffffffffffffffffffffffffffffffff168373ffffffffffffffffffffffffffffffffffffffff161415611025576040517f08c379a000000000000000000000000000000000000000000000000000000000815260040161101c906130cb565b60405180910390fd5b61103967953d913020f923ed60c01b61091e565b61104d67c809f5491fa2e74960c01b61091e565b61106167d965f520f00785bc60c01b61091e565b60008160010160008573ffffffffffffffffffffffffffffffffffffffff1673ffffffffffffffffffffffffffffffffffffffff1681526020019081526020016000206000018054905090506110c167ad9e0242f19bc43760c01b61091e565b6110d567d4f74b98fcd16e7c60c01b61091e565b6000816bffffffffffffffffffffffff1614156111375761110067cb9dbd6ff5285bba60c01b61091e565b61111467db00baa8aff2224460c01b61091e565b6111286753183a5ad7c8edbe60c01b61091e565b6111328285611b81565b61114c565b61114b67b1e2c6039101c15360c01b61091e565b5b6111606791cf3b01517e8e3d60c01b61091e565b61117467d85f9ce76d75f40860c01b61091e565b60005b83518110156113c75761119467ba1ceb274eea266360c01b61091e565b6111a867cb663aba9585dc5b60c01b61091e565b60008482815181106111bd576111bc612ae3565b5b602002602001015190506111db673367adea540f0fe460c01b61091e565b6111ef67bb5da4d0b322d54960c01b61091e565b6000846000016000837bffffffffffffffffffffffffffffffffffffffffffffffffffffffff19167bffffffffffffffffffffffffffffffffffffffffffffffffffffffff1916815260200190815260200160002060000160009054906101000a900473ffffffffffffffffffffffffffffffffffffffff16905061127e678d26dd92fe01856260c01b61091e565b61129267ce8d0a274359453860c01b61091e565b6112a667dbf90a16bceb514360c01b61091e565b8673ffffffffffffffffffffffffffffffffffffffff168173ffffffffffffffffffffffffffffffffffffffff161415611315576040517f08c379a000000000000000000000000000000000000000000000000000000000815260040161130c9061323c565b60405180910390fd5b611329670e313110b06d264960c01b61091e565b61133d679a7a014596dfc9c360c01b61091e565b611351673e5df500ef3185e160c01b61091e565b61135c858284611ee5565b61137067386e00eddf6eae4e60c01b61091e565b61138467af355a2c4b22380f60c01b61091e565b6113908583868a611cd4565b6113a467a7d4f0c02463a0d960c01b61091e565b83806113af90613195565b945050505080806113bf90612c0c565b915050611177565b5050505050565b6113e267536b38dc87cf512860c01b61091e565b6113f667c848655388d6665c60c01b61091e565b61140a67e36ed566f74d475760c01b61091e565b61141e675d045df3e00830fb60c01b61091e565b6000815111611462576040517f08c379a000000000000000000000000000000000000000000000000000000000815260040161145990613039565b60405180910390fd5b61147667fc07c6ad0c1e328a60c01b61091e565b61148a67d2a444e61c31858360c01b61091e565b61149e679eb23cc83c806c5060c01b61091e565b60006114a8610921565b90506114be6733d01f64423e151160c01b61091e565b6114d267276df5fc8b233bfd60c01b61091e565b6114e667c651689c16a081ce60c01b61091e565b600073ffffffffffffffffffffffffffffffffffffffff168373ffffffffffffffffffffffffffffffffffffffff1614611555576040517f08c379a000000000000000000000000000000000000000000000000000000000815260040161154c906132ce565b60405180910390fd5b61156967f91794f7ca387fb260c01b61091e565b61157d67367ee0bc2a4c767360c01b61091e565b611591677a0fe2a2a96456d360c01b61091e565b60005b82518110156116cf576115b1678a86303d3d575ec960c01b61091e565b6115c567068a190b3d46b8dd60c01b61091e565b60008382815181106115da576115d9612ae3565b5b602002602001015190506115f8678d01d23e62adc54960c01b61091e565b61160c6751e2ad51345b0fe360c01b61091e565b6000836000016000837bffffffffffffffffffffffffffffffffffffffffffffffffffffffff19167bffffffffffffffffffffffffffffffffffffffffffffffffffffffff1916815260200190815260200160002060000160009054906101000a900473ffffffffffffffffffffffffffffffffffffffff16905061169b671af9933b6bd0bbbb60c01b61091e565b6116af678f22edc86599ddcf60c01b61091e565b6116ba848284611ee5565b505080806116c790612c0c565b915050611594565b50505050565b6116e96795e427799384b20060c01b61091e565b6116fd6773e3160fa84aeb9960c01b61091e565b61171167abcba4e5adbea94260c01b61091e565b600073ffffffffffffffffffffffffffffffffffffffff168273ffffffffffffffffffffffffffffffffffffffff1614156117f35761175a67222e31051039790a60c01b61091e565b61176e67c1c73a24a109f8e360c01b61091e565b61178267922722ed0337f59760c01b61091e565b61179667931eb76cc69eaf6760c01b61091e565b60008151146117da576040517f08c379a00000000000000000000000000000000000000000000000000000000081526004016117d190613360565b60405180910390fd5b6117ee67d59b3d8e686a8ce360c01b61091e565b611b7d565b6118076781316ec758a1380f60c01b61091e565b61181b670f33d07076b7e1ac60c01b61091e565b61182f67f9a8f603ae2cadaf60c01b61091e565b61184367945c63f8b14ff2c860c01b61091e565b6000815111611887576040517f08c379a000000000000000000000000000000000000000000000000000000000815260040161187e906133f2565b60405180910390fd5b61189b6766ed5d886f9332c560c01b61091e565b6118af67e3ecae813031321460c01b61091e565b6118c367d428c84d4feb934b60c01b61091e565b3073ffffffffffffffffffffffffffffffffffffffff168273ffffffffffffffffffffffffffffffffffffffff16146119595761190a672e5f5fffacad4a8d60c01b61091e565b61191e67b580ef88b462216660c01b61091e565b61193267cfec294d83ec551360c01b61091e565b611954826040518060600160405280602881526020016136e5602891396128b4565b61196e565b61196d672b84a0878de414d960c01b61091e565b5b611982673654a9557d3b41f660c01b61091e565b6119966736da1022231e188e60c01b61091e565b6000808373ffffffffffffffffffffffffffffffffffffffff16836040516119be919061344e565b600060405180830381855af49150503d80600081146119f9576040519150601f19603f3d011682016040523d82523d6000602084013e6119fe565b606091505b5091509150611a1767099ff37fa02c40dd60c01b61091e565b611a2b671646117ada58976360c01b61091e565b81611b6657611a4467a4860446d07b228b60c01b61091e565b611a5867a9a60e9e5115467a60c01b61091e565b611a6c6785abd23ad83ab6af60c01b61091e565b600081511115611aef57611a8a678621d3f87c787f4460c01b61091e565b611a9e67d89ecd71389df2ac60c01b61091e565b611ab2674f9f6bae8183b5ec60c01b61091e565b806040517f08c379a0000000000000000000000000000000000000000000000000000000008152600401611ae691906134a9565b60405180910390fd5b611b0367683f5b60e7400a4060c01b61091e565b611b176743f9fc9d68439c6b60c01b61091e565b611b2b67f1fc7dce789cca6060c01b61091e565b6040517f08c379a0000000000000000000000000000000000000000000000000000000008152600401611b5d9061353d565b60405180910390fd5b611b7a67fafc4907f36eb9d360c01b61091e565b50505b5050565b611b9567a660600db390f5f260c01b61091e565b611ba9673ef404036377476760c01b61091e565b611bbd678bc61916374013c160c01b61091e565b611bdf8160405180606001604052806024815260200161370d602491396128b4565b611bf3679267b779ca13cea960c01b61091e565b81600201805490508260010160008373ffffffffffffffffffffffffffffffffffffffff1673ffffffffffffffffffffffffffffffffffffffff16815260200190815260200160002060010181905550611c57675f6d2981a3361cfd60c01b61091e565b611c6b675208a18949f6318360c01b61091e565b81600201819080600181540180825580915050600190039060005260206000200160009091909190916101000a81548173ffffffffffffffffffffffffffffffffffffffff021916908373ffffffffffffffffffffffffffffffffffffffff1602179055505050565b611ce8677921348cde04f95a60c01b61091e565b611cfc6788119ed530e69cc260c01b61091e565b81846000016000857bffffffffffffffffffffffffffffffffffffffffffffffffffffffff19167bffffffffffffffffffffffffffffffffffffffffffffffffffffffff1916815260200190815260200160002060000160146101000a8154816bffffffffffffffffffffffff02191690836bffffffffffffffffffffffff160217905550611d9567db204d141e513c4b60c01b61091e565b611da967af64a032fde07d7160c01b61091e565b8360010160008273ffffffffffffffffffffffffffffffffffffffff1673ffffffffffffffffffffffffffffffffffffffff1681526020019081526020016000206000018390806001815401808255809150506001900390600052602060002090600891828204019190066004029091909190916101000a81548163ffffffff021916908360e01c0217905550611e4a67af8a44b2b6b3010a60c01b61091e565b80846000016000857bffffffffffffffffffffffffffffffffffffffffffffffffffffffff19167bffffffffffffffffffffffffffffffffffffffffffffffffffffffff1916815260200190815260200160002060000160006101000a81548173ffffffffffffffffffffffffffffffffffffffff021916908373ffffffffffffffffffffffffffffffffffffffff16021790555050505050565b611ef967233c9b7209b2bc2e60c01b61091e565b611f0d67975c8874172358d860c01b61091e565b611f216710324878031d272360c01b61091e565b611f3567782615c06c31f3bb60c01b61091e565b600073ffffffffffffffffffffffffffffffffffffffff168273ffffffffffffffffffffffffffffffffffffffff161415611fa5576040517f08c379a0000000000000000000000000000000000000000000000000000000008152600401611f9c906135cf565b60405180910390fd5b611fb967b719d4f4bd83a91e60c01b61091e565b611fcd67a903cba0748d3cae60c01b61091e565b611fe1670a92447a42b59cc560c01b61091e565b611ff567dbf85abacb40c05460c01b61091e565b3073ffffffffffffffffffffffffffffffffffffffff168273ffffffffffffffffffffffffffffffffffffffff161415612064576040517f08c379a000000000000000000000000000000000000000000000000000000000815260040161205b90613661565b60405180910390fd5b61207867d66e4ba34262192860c01b61091e565b61208c67e9c8cf279e80786f60c01b61091e565b6120a067e740e85115ae05d760c01b61091e565b6000836000016000837bffffffffffffffffffffffffffffffffffffffffffffffffffffffff19167bffffffffffffffffffffffffffffffffffffffffffffffffffffffff1916815260200190815260200160002060000160149054906101000a90046bffffffffffffffffffffffff166bffffffffffffffffffffffff169050612135671b1988108e8a90d360c01b61091e565b612149674efd392b7370f04c60c01b61091e565b600060018560010160008673ffffffffffffffffffffffffffffffffffffffff1673ffffffffffffffffffffffffffffffffffffffff1681526020019081526020016000206000018054905061219f9190613681565b90506121b56742f1702f4ac9b8a460c01b61091e565b6121c96738896347e14198d360c01b61091e565b8082146123c3576121e467de5d2dfe84fd0e5960c01b61091e565b6121f867a597c89b2b26b40360c01b61091e565b61220c6701eb0917fe6d858760c01b61091e565b60008560010160008673ffffffffffffffffffffffffffffffffffffffff1673ffffffffffffffffffffffffffffffffffffffff168152602001908152602001600020600001828154811061226457612263612ae3565b5b90600052602060002090600891828204019190066004029054906101000a900460e01b905061229d67904bf3c12d29f19760c01b61091e565b808660010160008773ffffffffffffffffffffffffffffffffffffffff1673ffffffffffffffffffffffffffffffffffffffff16815260200190815260200160002060000184815481106122f4576122f3612ae3565b5b90600052602060002090600891828204019190066004026101000a81548163ffffffff021916908360e01c021790555061233867a0d3440268dcc9b360c01b61091e565b82866000016000837bffffffffffffffffffffffffffffffffffffffffffffffffffffffff19167bffffffffffffffffffffffffffffffffffffffffffffffffffffffff1916815260200190815260200160002060000160146101000a8154816bffffffffffffffffffffffff02191690836bffffffffffffffffffffffff160217905550506123d8565b6123d767d198e77c279b0cad60c01b61091e565b5b6123ec6726bd82649f7173bc60c01b61091e565b612400674bae02e1a918f27a60c01b61091e565b8460010160008573ffffffffffffffffffffffffffffffffffffffff1673ffffffffffffffffffffffffffffffffffffffff168152602001908152602001600020600001805480612454576124536136b5565b5b60019003818190600052602060002090600891828204019190066004026101000a81549063ffffffff0219169055905561249867e9d5deae87e6798d60c01b61091e565b846000016000847bffffffffffffffffffffffffffffffffffffffffffffffffffffffff19167bffffffffffffffffffffffffffffffffffffffffffffffffffffffff19168152602001908152602001600020600080820160006101000a81549073ffffffffffffffffffffffffffffffffffffffff02191690556000820160146101000a8154906bffffffffffffffffffffffff02191690555050612548677eabf3177058c29f60c01b61091e565b61255c67d3d01548f6223eaa60c01b61091e565b60008114156128985761257967f07038b960b05a4c60c01b61091e565b61258c66c6fbd4fbaed54a60c01b61091e565b6125a067714552e98475403a60c01b61091e565b6000600186600201805490506125b69190613681565b90506125cc674b20cd335540d24060c01b61091e565b6125e06757acb9403953294960c01b61091e565b60008660010160008773ffffffffffffffffffffffffffffffffffffffff1673ffffffffffffffffffffffffffffffffffffffff16815260200190815260200160002060010154905061263d67896a24224cd6d4f960c01b61091e565b61265167212233d762910e7760c01b61091e565b8181146127af5761266c674d9cb55c1a651e3860c01b61091e565b6126806720eba5b4c611f8a360c01b61091e565b61269467d5bb4cdb13885a3f60c01b61091e565b60008760020183815481106126ac576126ab612ae3565b5b9060005260206000200160009054906101000a900473ffffffffffffffffffffffffffffffffffffffff1690506126ed678f57c041c30a5a7460c01b61091e565b8088600201838154811061270457612703612ae3565b5b9060005260206000200160006101000a81548173ffffffffffffffffffffffffffffffffffffffff021916908373ffffffffffffffffffffffffffffffffffffffff1602179055506127606720afce9dd6d5448960c01b61091e565b818860010160008373ffffffffffffffffffffffffffffffffffffffff1673ffffffffffffffffffffffffffffffffffffffff16815260200190815260200160002060010181905550506127c4565b6127c3672d6a10483b034a6c60c01b61091e565b5b6127d867ce686747f129ec6960c01b61091e565b6127ec67e1216f036ad5da8260c01b61091e565b86600201805480612800576127ff6136b5565b5b6001900381819060005260206000200160006101000a81549073ffffffffffffffffffffffffffffffffffffffff02191690559055612849679eee40465793ea5060c01b61091e565b8660010160008773ffffffffffffffffffffffffffffffffffffffff1673ffffffffffffffffffffffffffffffffffffffff1681526020019081526020016000206001016000905550506128ad565b6128ac67a5e606b4a7bbd01c60c01b61091e565b5b5050505050565b6128c867fdd970df001bebbf60c01b61091e565b6128dc67268603c81720b98460c01b61091e565b6128f067650c4db27f4245fb60c01b61091e565b6000612906672b986732b5d29c0d60c01b61091e565b823b905061291e67aefa65267f71d36360c01b61091e565b612932675a5142499e5f9e2660c01b61091e565b612946673d8ed32d34ce37ba60c01b61091e565b60008111829061298c576040517f08c379a000000000000000000000000000000000000000000000000000000000815260040161298391906134a9565b60405180910390fd5b506129a167919667a436c87d7460c01b61091e565b505050565b600082825260208201905092915050565b7f4469616d6f6e643a2046756e6374696f6e20646f6573206e6f74206578697374600082015250565b60006129ed6020836129a6565b91506129f8826129b7565b602082019050919050565b60006020820190508181036000830152612a1c816129e0565b9050919050565b600080fd5b60007fffffffffffffffff00000000000000000000000000000000000000000000000082169050919050565b612a5d81612a28565b8114612a6857600080fd5b50565b600081359050612a7a81612a54565b92915050565b600060208284031215612a9657612a95612a23565b5b6000612aa484828501612a6b565b91505092915050565b60008115159050919050565b612ac281612aad565b82525050565b6000602082019050612add6000830184612ab9565b92915050565b7f4e487b7100000000000000000000000000000000000000000000000000000000600052603260045260246000fd5b7f4e487b7100000000000000000000000000000000000000000000000000000000600052602160045260246000fd5b7f4c69624469616d6f6e644375743a20496e636f7272656374204661636574437560008201527f74416374696f6e00000000000000000000000000000000000000000000000000602082015250565b6000612b9d6027836129a6565b9150612ba882612b41565b604082019050919050565b60006020820190508181036000830152612bcc81612b90565b9050919050565b7f4e487b7100000000000000000000000000000000000000000000000000000000600052601160045260246000fd5b6000819050919050565b6000612c1782612c02565b91507fffffffffffffffffffffffffffffffffffffffffffffffffffffffffffffffff821415612c4a57612c49612bd3565b5b600182019050919050565b600081519050919050565b600082825260208201905092915050565b6000819050602082019050919050565b600073ffffffffffffffffffffffffffffffffffffffff82169050919050565b6000612cac82612c81565b9050919050565b612cbc81612ca1565b82525050565b60038110612cd357612cd2612b12565b5b50565b6000819050612ce482612cc2565b919050565b6000612cf482612cd6565b9050919050565b612d0481612ce9565b82525050565b600081519050919050565b600082825260208201905092915050565b6000819050602082019050919050565b60007fffffffff0000000000000000000000000000000000000000000000000000000082169050919050565b612d6b81612d36565b82525050565b6000612d7d8383612d62565b60208301905092915050565b6000602082019050919050565b6000612da182612d0a565b612dab8185612d15565b9350612db683612d26565b8060005b83811015612de7578151612dce8882612d71565b9750612dd983612d89565b925050600181019050612dba565b5085935050505092915050565b6000606083016000830151612e0c6000860182612cb3565b506020830151612e1f6020860182612cfb565b5060408301518482036040860152612e378282612d96565b9150508091505092915050565b6000612e508383612df4565b905092915050565b6000602082019050919050565b6000612e7082612c55565b612e7a8185612c60565b935083602082028501612e8c85612c71565b8060005b85811015612ec85784840389528151612ea98582612e44565b9450612eb483612e58565b925060208a01995050600181019050612e90565b50829750879550505050505092915050565b612ee381612ca1565b82525050565b600081519050919050565b600082825260208201905092915050565b60005b83811015612f23578082015181840152602081019050612f08565b83811115612f32576000848401525b50505050565b6000601f19601f8301169050919050565b6000612f5482612ee9565b612f5e8185612ef4565b9350612f6e818560208601612f05565b612f7781612f38565b840191505092915050565b60006060820190508181036000830152612f9c8186612e65565b9050612fab6020830185612eda565b8181036040830152612fbd8184612f49565b9050949350505050565b7f4c69624469616d6f6e644375743a204e6f2073656c6563746f727320696e206660008201527f6163657420746f20637574000000000000000000000000000000000000000000602082015250565b6000613023602b836129a6565b915061302e82612fc7565b604082019050919050565b6000602082019050818103600083015261305281613016565b9050919050565b7f4c69624469616d6f6e644375743a204164642066616365742063616e2774206260008201527f6520616464726573732830290000000000000000000000000000000000000000602082015250565b60006130b5602c836129a6565b91506130c082613059565b604082019050919050565b600060208201905081810360008301526130e4816130a8565b9050919050565b7f4c69624469616d6f6e644375743a2043616e2774206164642066756e6374696f60008201527f6e207468617420616c7265616479206578697374730000000000000000000000602082015250565b60006131476035836129a6565b9150613152826130eb565b604082019050919050565b600060208201905081810360008301526131768161313a565b9050919050565b60006bffffffffffffffffffffffff82169050919050565b60006131a08261317d565b91506bffffffffffffffffffffffff8214156131bf576131be612bd3565b5b600182019050919050565b7f4c69624469616d6f6e644375743a2043616e2774207265706c6163652066756e60008201527f6374696f6e20776974682073616d652066756e6374696f6e0000000000000000602082015250565b60006132266038836129a6565b9150613231826131ca565b604082019050919050565b6000602082019050818103600083015261325581613219565b9050919050565b7f4c69624469616d6f6e644375743a2052656d6f7665206661636574206164647260008201527f657373206d757374206265206164647265737328302900000000000000000000602082015250565b60006132b86036836129a6565b91506132c38261325c565b604082019050919050565b600060208201905081810360008301526132e7816132ab565b9050919050565b7f4c69624469616d6f6e644375743a205f696e697420697320616464726573732860008201527f3029206275745f63616c6c64617461206973206e6f7420656d70747900000000602082015250565b600061334a603c836129a6565b9150613355826132ee565b604082019050919050565b600060208201905081810360008301526133798161333d565b9050919050565b7f4c69624469616d6f6e644375743a205f63616c6c6461746120697320656d707460008201527f7920627574205f696e6974206973206e6f742061646472657373283029000000602082015250565b60006133dc603d836129a6565b91506133e782613380565b604082019050919050565b6000602082019050818103600083015261340b816133cf565b9050919050565b600081905092915050565b600061342882612ee9565b6134328185613412565b9350613442818560208601612f05565b80840191505092915050565b600061345a828461341d565b915081905092915050565b600081519050919050565b600061347b82613465565b61348581856129a6565b9350613495818560208601612f05565b61349e81612f38565b840191505092915050565b600060208201905081810360008301526134c38184613470565b905092915050565b7f4c69624469616d6f6e644375743a205f696e69742066756e6374696f6e20726560008201527f7665727465640000000000000000000000000000000000000000000000000000602082015250565b60006135276026836129a6565b9150613532826134cb565b604082019050919050565b600060208201905081810360008301526135568161351a565b9050919050565b7f4c69624469616d6f6e644375743a2043616e27742072656d6f76652066756e6360008201527f74696f6e207468617420646f65736e2774206578697374000000000000000000602082015250565b60006135b96037836129a6565b91506135c48261355d565b604082019050919050565b600060208201905081810360008301526135e8816135ac565b9050919050565b7f4c69624469616d6f6e644375743a2043616e27742072656d6f766520696d6d7560008201527f7461626c652066756e6374696f6e000000000000000000000000000000000000602082015250565b600061364b602e836129a6565b9150613656826135ef565b604082019050919050565b6000602082019050818103600083015261367a8161363e565b9050919050565b600061368c82612c02565b915061369783612c02565b9250828210156136aa576136a9612bd3565b5b828203905092915050565b7f4e487b7100000000000000000000000000000000000000000000000000000000600052603160045260246000fdfe4c69624469616d6f6e644375743a205f696e6974206164647265737320686173206e6f20636f64654c69624469616d6f6e644375743a204e657720666163657420686173206e6f20636f6465a164736f6c634300080b000a4c69624469616d6f6e644375743a205f696e6974206164647265737320686173206e6f20636f64654c69624469616d6f6e644375743a204e657720666163657420686173206e6f20636f6465",
  "linkReferences": {},
  "deployedLinkReferences": {}
}