{
  "_format": "hh-sol-artifact-1",
  "contractName": "DiamondCutFacet",
  "sourceName": "src/bridges/facets/DiamondCutFacet.sol",
  "abi": [
    {
      "anonymous": false,
      "inputs": [
        {
          "components": [
            {
              "internalType": "address",
              "name": "facetAddress",
              "type": "address"
            },
            {
              "internalType": "enum IDiamondCut.FacetCutAction",
              "name": "action",
              "type": "uint8"
            },
            {
              "internalType": "bytes4[]",
              "name": "functionSelectors",
              "type": "bytes4[]"
            }
          ],
          "indexed": false,
          "internalType": "struct IDiamondCut.FacetCut[]",
          "name": "_diamondCut",
          "type": "tuple[]"
        },
        {
          "indexed": false,
          "internalType": "address",
          "name": "_init",
          "type": "address"
        },
        {
          "indexed": false,
          "internalType": "bytes",
          "name": "_calldata",
          "type": "bytes"
        }
      ],
      "name": "DiamondCut",
      "type": "event"
    },
    {
      "inputs": [
        {
          "internalType": "bytes8",
          "name": "c__54ef5488",
          "type": "bytes8"
        }
      ],
      "name": "c_54ef5488",
      "outputs": [],
      "stateMutability": "pure",
      "type": "function"
    },
    {
      "inputs": [
        {
          "internalType": "bytes8",
          "name": "c__54ef5488",
          "type": "bytes8"
        }
      ],
      "name": "c_false54ef5488",
      "outputs": [
        {
          "internalType": "bool",
          "name": "",
          "type": "bool"
        }
      ],
      "stateMutability": "pure",
      "type": "function"
    },
    {
      "inputs": [
        {
          "internalType": "bytes8",
          "name": "c__54ef5488",
          "type": "bytes8"
        }
      ],
      "name": "c_true54ef5488",
      "outputs": [
        {
          "internalType": "bool",
          "name": "",
          "type": "bool"
        }
      ],
      "stateMutability": "pure",
      "type": "function"
    },
    {
      "inputs": [
        {
          "components": [
            {
              "internalType": "address",
              "name": "facetAddress",
              "type": "address"
            },
            {
              "internalType": "enum IDiamondCut.FacetCutAction",
              "name": "action",
              "type": "uint8"
            },
            {
              "internalType": "bytes4[]",
              "name": "functionSelectors",
              "type": "bytes4[]"
            }
          ],
          "internalType": "struct IDiamondCut.FacetCut[]",
          "name": "_diamondCut",
          "type": "tuple[]"
        },
        {
          "internalType": "address",
          "name": "_init",
          "type": "address"
        },
        {
          "internalType": "bytes",
          "name": "_calldata",
          "type": "bytes"
        }
      ],
      "name": "diamondCut",
      "outputs": [],
      "stateMutability": "nonpayable",
      "type": "function"
    }
  ],
  "bytecode": "0x608060405234801561001057600080fd5b506139ca806100206000396000f3fe608060405234801561001057600080fd5b506004361061004c5760003560e01c80631f931c1c1461005157806370422fcd1461006d578063908af9f11461009d578063e3372919146100cd575b600080fd5b61006b600480360381019061006691906128ce565b6100e9565b005b610087600480360381019061008291906129bb565b6101b7565b6040516100949190612a03565b60405180910390f35b6100b760048036038101906100b291906129bb565b6101c2565b6040516100c49190612a03565b60405180910390f35b6100e760048036038101906100e291906129bb565b6101c9565b005b6100fd6761f383b6994152b060c01b6101c9565b610111677acda6b6ad55f57860c01b6101c9565b610125679474fd723e5849b660c01b6101c9565b61012d6101cc565b61014167a7636c7dd99790d260c01b6101c9565b61015567e4ef46e6478082b660c01b6101c9565b6101b08585906101659190612d27565b8484848080601f016020809104026020016040519081016040528093929190818152602001838380828437600081840152601f19601f820116905080830192505050505050506102cb565b5050505050565b600060019050919050565b6000919050565b50565b6101e06776efe7f9a3f3bf8460c01b610719565b6101f46713b5651d33e3ab7f60c01b610719565b61020867142703995f8e23ac60c01b610719565b61021c67464721b4be2bc29360c01b610719565b61022461071c565b60040160009054906101000a900473ffffffffffffffffffffffffffffffffffffffff1673ffffffffffffffffffffffffffffffffffffffff163373ffffffffffffffffffffffffffffffffffffffff16146102b5576040517f08c379a00000000000000000000000000000000000000000000000000000000081526004016102ac90612dbf565b60405180910390fd5b6102c967891fe59a8eb7459060c01b610719565b565b6102df67770bbbe5426f09d960c01b610719565b6102f3679b087ea06e4e4f8c60c01b610719565b610307679f6420588073a3fd60c01b610719565b60005b835181101561067e5761032767312f5e07a430675b60c01b610719565b61033b671b115f86e6646d6d60c01b610719565b60008482815181106103505761034f612ddf565b5b60200260200101516020015190506103726775ef9f9e1beabf1360c01b610719565b6103866737fb73f9926e10ce60c01b610719565b6000600281111561039a57610399612e0e565b5b8160028111156103ad576103ac612e0e565b5b141561043a576103c767de5e864902e66ae560c01b610719565b6103db672cc8c2346445e81e60c01b610719565b6103ef6714f6a2b8be93160860c01b610719565b61043585838151811061040557610404612ddf565b5b60200260200101516000015186848151811061042457610423612ddf565b5b60200260200101516040015161079a565b61066a565b61044e6755ce8deb43dd05db60c01b610719565b610462675c831818c2e2a22960c01b610719565b6001600281111561047657610475612e0e565b5b81600281111561048957610488612e0e565b5b1415610516576104a367809a18411a39db9e60c01b610719565b6104b767d6ca714ff4b0c0d060c01b610719565b6104cb678009e0d0167c836460c01b610719565b6105118583815181106104e1576104e0612ddf565b5b602002602001015160000151868481518110610500576104ff612ddf565b5b602002602001015160400151610c98565b610669565b61052a6759c01fa0d712c52a60c01b610719565b61053e67d38ea67e12465d4560c01b610719565b60028081111561055157610550612e0e565b5b81600281111561056457610563612e0e565b5b14156105f15761057e67daf1d87b8a3aaff560c01b610719565b610592679aa4770069bd82fc60c01b610719565b6105a6670b400f45b476a2ed60c01b610719565b6105ec8583815181106105bc576105bb612ddf565b5b6020026020010151600001518684815181106105db576105da612ddf565b5b6020026020010151604001516111c9565b610668565b610605678b11f64b25f4d81b60c01b610719565b610619677c79be31c391af8560c01b610719565b61062d677416b55b9361fd8560c01b610719565b6040517f08c379a000000000000000000000000000000000000000000000000000000000815260040161065f90612eaf565b60405180910390fd5b5b5b50808061067690612f08565b91505061030a565b5061069367284cc52dd9e11ee860c01b610719565b6106a76789099e36d985b07e60c01b610719565b7f8faa70878671ccd212d20771b795c50af8fd3ff6cf27f4bde57e5d4de0aeb6738383836040516106da9392919061320f565b60405180910390a16106f6675e854cd5657a241960c01b610719565b61070a672f89c84f5a76588460c01b610719565b61071482826114d0565b505050565b50565b6000610732679a33882304e088fd60c01b610719565b610746673ebfa44d2bd9e44b60c01b610719565b61075a672ff7fef2f0b4005460c01b610719565b60007fc8fcad8db84d3cc18b4c41d551ea0ee66dd599cde068d998e57d5e09332c131c90506107936728a2d055fd7f2d6e60c01b610719565b8091505090565b6107ae67cfe4e461b7dde55060c01b610719565b6107c26773d2e204a0f0976c60c01b610719565b6107d667d1231bf9b69b932e60c01b610719565b6107ea67989537b9926d995560c01b610719565b600081511161082e576040517f08c379a0000000000000000000000000000000000000000000000000000000008152600401610825906132c6565b60405180910390fd5b610842678fcfb088e297a03760c01b610719565b61085667da756a1e096a811c60c01b610719565b61086a67d4473c6a53bc587a60c01b610719565b600061087461071c565b905061088a67480bb0554c24d49960c01b610719565b61089e670f85e69b412edae360c01b610719565b6108b267146248a5587e96aa60c01b610719565b600073ffffffffffffffffffffffffffffffffffffffff168373ffffffffffffffffffffffffffffffffffffffff161415610922576040517f08c379a000000000000000000000000000000000000000000000000000000000815260040161091990613358565b60405180910390fd5b610936670ace8488e53185d160c01b610719565b61094a67be0a55ae67ae7c3560c01b610719565b61095e67515f71d655c70a6c60c01b610719565b60008160010160008573ffffffffffffffffffffffffffffffffffffffff1673ffffffffffffffffffffffffffffffffffffffff1681526020019081526020016000206000018054905090506109be67558645ec45bedbcb60c01b610719565b6109d267e3bdd3646c15d57760c01b610719565b6000816bffffffffffffffffffffffff161415610a34576109fd6772e99750570ee5d760c01b610719565b610a116702d616944f2e855060c01b610719565b610a256753cef62f8c313ed360c01b610719565b610a2f828561197c565b610a49565b610a486796b7aa167b18538860c01b610719565b5b610a5d6723cc4f12f74c809960c01b610719565b610a7167acd3577e5f953eda60c01b610719565b60005b8351811015610c9157610a91677500ce508513521160c01b610719565b610aa5676cdebb0df5577cbe60c01b610719565b6000848281518110610aba57610ab9612ddf565b5b60200260200101519050610ad867c5e8c5becf8d730360c01b610719565b610aec67b522f5fdac37f42560c01b610719565b6000846000016000837bffffffffffffffffffffffffffffffffffffffffffffffffffffffff19167bffffffffffffffffffffffffffffffffffffffffffffffffffffffff1916815260200190815260200160002060000160009054906101000a900473ffffffffffffffffffffffffffffffffffffffff169050610b7b67b881252ad751c97a60c01b610719565b610b8f6723eb2d8681b19bd160c01b610719565b610ba3677419fb8c3733b3da60c01b610719565b600073ffffffffffffffffffffffffffffffffffffffff168173ffffffffffffffffffffffffffffffffffffffff1614610c12576040517f08c379a0000000000000000000000000000000000000000000000000000000008152600401610c09906133ea565b60405180910390fd5b610c2667e28f9f666cfa940360c01b610719565b610c3a67e926afd552a60b5a60c01b610719565b610c4e67882097aa0910b35760c01b610719565b610c5a8583868a611acf565b610c6e67c4a5d041ec6b5d0360c01b610719565b8380610c7990613422565b94505050508080610c8990612f08565b915050610a74565b5050505050565b610cac672cde8dff5f7d8ab760c01b610719565b610cc067ae24892e23064db660c01b610719565b610cd46732a4d8918d255a8560c01b610719565b610ce867517c28a34acbb83560c01b610719565b6000815111610d2c576040517f08c379a0000000000000000000000000000000000000000000000000000000008152600401610d23906132c6565b60405180910390fd5b610d4067ff9552aea1664eea60c01b610719565b610d5467a1e8585ee936c99360c01b610719565b610d6867cfec02c0572406a260c01b610719565b6000610d7261071c565b9050610d88673d2c738cb68aa68160c01b610719565b610d9c6727edd1365349a60c60c01b610719565b610db067614fad590d69442460c01b610719565b600073ffffffffffffffffffffffffffffffffffffffff168373ffffffffffffffffffffffffffffffffffffffff161415610e20576040517f08c379a0000000000000000000000000000000000000000000000000000000008152600401610e1790613358565b60405180910390fd5b610e3467953d913020f923ed60c01b610719565b610e4867c809f5491fa2e74960c01b610719565b610e5c67d965f520f00785bc60c01b610719565b60008160010160008573ffffffffffffffffffffffffffffffffffffffff1673ffffffffffffffffffffffffffffffffffffffff168152602001908152602001600020600001805490509050610ebc67ad9e0242f19bc43760c01b610719565b610ed067d4f74b98fcd16e7c60c01b610719565b6000816bffffffffffffffffffffffff161415610f3257610efb67cb9dbd6ff5285bba60c01b610719565b610f0f67db00baa8aff2224460c01b610719565b610f236753183a5ad7c8edbe60c01b610719565b610f2d828561197c565b610f47565b610f4667b1e2c6039101c15360c01b610719565b5b610f5b6791cf3b01517e8e3d60c01b610719565b610f6f67d85f9ce76d75f40860c01b610719565b60005b83518110156111c257610f8f67ba1ceb274eea266360c01b610719565b610fa367cb663aba9585dc5b60c01b610719565b6000848281518110610fb857610fb7612ddf565b5b60200260200101519050610fd6673367adea540f0fe460c01b610719565b610fea67bb5da4d0b322d54960c01b610719565b6000846000016000837bffffffffffffffffffffffffffffffffffffffffffffffffffffffff19167bffffffffffffffffffffffffffffffffffffffffffffffffffffffff1916815260200190815260200160002060000160009054906101000a900473ffffffffffffffffffffffffffffffffffffffff169050611079678d26dd92fe01856260c01b610719565b61108d67ce8d0a274359453860c01b610719565b6110a167dbf90a16bceb514360c01b610719565b8673ffffffffffffffffffffffffffffffffffffffff168173ffffffffffffffffffffffffffffffffffffffff161415611110576040517f08c379a0000000000000000000000000000000000000000000000000000000008152600401611107906134c9565b60405180910390fd5b611124670e313110b06d264960c01b610719565b611138679a7a014596dfc9c360c01b610719565b61114c673e5df500ef3185e160c01b610719565b611157858284611ce0565b61116b67386e00eddf6eae4e60c01b610719565b61117f67af355a2c4b22380f60c01b610719565b61118b8583868a611acf565b61119f67a7d4f0c02463a0d960c01b610719565b83806111aa90613422565b945050505080806111ba90612f08565b915050610f72565b5050505050565b6111dd67536b38dc87cf512860c01b610719565b6111f167c848655388d6665c60c01b610719565b61120567e36ed566f74d475760c01b610719565b611219675d045df3e00830fb60c01b610719565b600081511161125d576040517f08c379a0000000000000000000000000000000000000000000000000000000008152600401611254906132c6565b60405180910390fd5b61127167fc07c6ad0c1e328a60c01b610719565b61128567d2a444e61c31858360c01b610719565b611299679eb23cc83c806c5060c01b610719565b60006112a361071c565b90506112b96733d01f64423e151160c01b610719565b6112cd67276df5fc8b233bfd60c01b610719565b6112e167c651689c16a081ce60c01b610719565b600073ffffffffffffffffffffffffffffffffffffffff168373ffffffffffffffffffffffffffffffffffffffff1614611350576040517f08c379a00000000000000000000000000000000000000000000000000000000081526004016113479061355b565b60405180910390fd5b61136467f91794f7ca387fb260c01b610719565b61137867367ee0bc2a4c767360c01b610719565b61138c677a0fe2a2a96456d360c01b610719565b60005b82518110156114ca576113ac678a86303d3d575ec960c01b610719565b6113c067068a190b3d46b8dd60c01b610719565b60008382815181106113d5576113d4612ddf565b5b602002602001015190506113f3678d01d23e62adc54960c01b610719565b6114076751e2ad51345b0fe360c01b610719565b6000836000016000837bffffffffffffffffffffffffffffffffffffffffffffffffffffffff19167bffffffffffffffffffffffffffffffffffffffffffffffffffffffff1916815260200190815260200160002060000160009054906101000a900473ffffffffffffffffffffffffffffffffffffffff169050611496671af9933b6bd0bbbb60c01b610719565b6114aa678f22edc86599ddcf60c01b610719565b6114b5848284611ce0565b505080806114c290612f08565b91505061138f565b50505050565b6114e46795e427799384b20060c01b610719565b6114f86773e3160fa84aeb9960c01b610719565b61150c67abcba4e5adbea94260c01b610719565b600073ffffffffffffffffffffffffffffffffffffffff168273ffffffffffffffffffffffffffffffffffffffff1614156115ee5761155567222e31051039790a60c01b610719565b61156967c1c73a24a109f8e360c01b610719565b61157d67922722ed0337f59760c01b610719565b61159167931eb76cc69eaf6760c01b610719565b60008151146115d5576040517f08c379a00000000000000000000000000000000000000000000000000000000081526004016115cc906135ed565b60405180910390fd5b6115e967d59b3d8e686a8ce360c01b610719565b611978565b6116026781316ec758a1380f60c01b610719565b611616670f33d07076b7e1ac60c01b610719565b61162a67f9a8f603ae2cadaf60c01b610719565b61163e67945c63f8b14ff2c860c01b610719565b6000815111611682576040517f08c379a00000000000000000000000000000000000000000000000000000000081526004016116799061367f565b60405180910390fd5b6116966766ed5d886f9332c560c01b610719565b6116aa67e3ecae813031321460c01b610719565b6116be67d428c84d4feb934b60c01b610719565b3073ffffffffffffffffffffffffffffffffffffffff168273ffffffffffffffffffffffffffffffffffffffff161461175457611705672e5f5fffacad4a8d60c01b610719565b61171967b580ef88b462216660c01b610719565b61172d67cfec294d83ec551360c01b610719565b61174f82604051806060016040528060288152602001613972602891396126af565b611769565b611768672b84a0878de414d960c01b610719565b5b61177d673654a9557d3b41f660c01b610719565b6117916736da1022231e188e60c01b610719565b6000808373ffffffffffffffffffffffffffffffffffffffff16836040516117b991906136db565b600060405180830381855af49150503d80600081146117f4576040519150601f19603f3d011682016040523d82523d6000602084013e6117f9565b606091505b509150915061181267099ff37fa02c40dd60c01b610719565b611826671646117ada58976360c01b610719565b816119615761183f67a4860446d07b228b60c01b610719565b61185367a9a60e9e5115467a60c01b610719565b6118676785abd23ad83ab6af60c01b610719565b6000815111156118ea57611885678621d3f87c787f4460c01b610719565b61189967d89ecd71389df2ac60c01b610719565b6118ad674f9f6bae8183b5ec60c01b610719565b806040517f08c379a00000000000000000000000000000000000000000000000000000000081526004016118e19190613736565b60405180910390fd5b6118fe67683f5b60e7400a4060c01b610719565b6119126743f9fc9d68439c6b60c01b610719565b61192667f1fc7dce789cca6060c01b610719565b6040517f08c379a0000000000000000000000000000000000000000000000000000000008152600401611958906137ca565b60405180910390fd5b61197567fafc4907f36eb9d360c01b610719565b50505b5050565b61199067a660600db390f5f260c01b610719565b6119a4673ef404036377476760c01b610719565b6119b8678bc61916374013c160c01b610719565b6119da8160405180606001604052806024815260200161399a602491396126af565b6119ee679267b779ca13cea960c01b610719565b81600201805490508260010160008373ffffffffffffffffffffffffffffffffffffffff1673ffffffffffffffffffffffffffffffffffffffff16815260200190815260200160002060010181905550611a52675f6d2981a3361cfd60c01b610719565b611a66675208a18949f6318360c01b610719565b81600201819080600181540180825580915050600190039060005260206000200160009091909190916101000a81548173ffffffffffffffffffffffffffffffffffffffff021916908373ffffffffffffffffffffffffffffffffffffffff1602179055505050565b611ae3677921348cde04f95a60c01b610719565b611af76788119ed530e69cc260c01b610719565b81846000016000857bffffffffffffffffffffffffffffffffffffffffffffffffffffffff19167bffffffffffffffffffffffffffffffffffffffffffffffffffffffff1916815260200190815260200160002060000160146101000a8154816bffffffffffffffffffffffff02191690836bffffffffffffffffffffffff160217905550611b9067db204d141e513c4b60c01b610719565b611ba467af64a032fde07d7160c01b610719565b8360010160008273ffffffffffffffffffffffffffffffffffffffff1673ffffffffffffffffffffffffffffffffffffffff1681526020019081526020016000206000018390806001815401808255809150506001900390600052602060002090600891828204019190066004029091909190916101000a81548163ffffffff021916908360e01c0217905550611c4567af8a44b2b6b3010a60c01b610719565b80846000016000857bffffffffffffffffffffffffffffffffffffffffffffffffffffffff19167bffffffffffffffffffffffffffffffffffffffffffffffffffffffff1916815260200190815260200160002060000160006101000a81548173ffffffffffffffffffffffffffffffffffffffff021916908373ffffffffffffffffffffffffffffffffffffffff16021790555050505050565b611cf467233c9b7209b2bc2e60c01b610719565b611d0867975c8874172358d860c01b610719565b611d1c6710324878031d272360c01b610719565b611d3067782615c06c31f3bb60c01b610719565b600073ffffffffffffffffffffffffffffffffffffffff168273ffffffffffffffffffffffffffffffffffffffff161415611da0576040517f08c379a0000000000000000000000000000000000000000000000000000000008152600401611d979061385c565b60405180910390fd5b611db467b719d4f4bd83a91e60c01b610719565b611dc867a903cba0748d3cae60c01b610719565b611ddc670a92447a42b59cc560c01b610719565b611df067dbf85abacb40c05460c01b610719565b3073ffffffffffffffffffffffffffffffffffffffff168273ffffffffffffffffffffffffffffffffffffffff161415611e5f576040517f08c379a0000000000000000000000000000000000000000000000000000000008152600401611e56906138ee565b60405180910390fd5b611e7367d66e4ba34262192860c01b610719565b611e8767e9c8cf279e80786f60c01b610719565b611e9b67e740e85115ae05d760c01b610719565b6000836000016000837bffffffffffffffffffffffffffffffffffffffffffffffffffffffff19167bffffffffffffffffffffffffffffffffffffffffffffffffffffffff1916815260200190815260200160002060000160149054906101000a90046bffffffffffffffffffffffff166bffffffffffffffffffffffff169050611f30671b1988108e8a90d360c01b610719565b611f44674efd392b7370f04c60c01b610719565b600060018560010160008673ffffffffffffffffffffffffffffffffffffffff1673ffffffffffffffffffffffffffffffffffffffff16815260200190815260200160002060000180549050611f9a919061390e565b9050611fb06742f1702f4ac9b8a460c01b610719565b611fc46738896347e14198d360c01b610719565b8082146121be57611fdf67de5d2dfe84fd0e5960c01b610719565b611ff367a597c89b2b26b40360c01b610719565b6120076701eb0917fe6d858760c01b610719565b60008560010160008673ffffffffffffffffffffffffffffffffffffffff1673ffffffffffffffffffffffffffffffffffffffff168152602001908152602001600020600001828154811061205f5761205e612ddf565b5b90600052602060002090600891828204019190066004029054906101000a900460e01b905061209867904bf3c12d29f19760c01b610719565b808660010160008773ffffffffffffffffffffffffffffffffffffffff1673ffffffffffffffffffffffffffffffffffffffff16815260200190815260200160002060000184815481106120ef576120ee612ddf565b5b90600052602060002090600891828204019190066004026101000a81548163ffffffff021916908360e01c021790555061213367a0d3440268dcc9b360c01b610719565b82866000016000837bffffffffffffffffffffffffffffffffffffffffffffffffffffffff19167bffffffffffffffffffffffffffffffffffffffffffffffffffffffff1916815260200190815260200160002060000160146101000a8154816bffffffffffffffffffffffff02191690836bffffffffffffffffffffffff160217905550506121d3565b6121d267d198e77c279b0cad60c01b610719565b5b6121e76726bd82649f7173bc60c01b610719565b6121fb674bae02e1a918f27a60c01b610719565b8460010160008573ffffffffffffffffffffffffffffffffffffffff1673ffffffffffffffffffffffffffffffffffffffff16815260200190815260200160002060000180548061224f5761224e613942565b5b60019003818190600052602060002090600891828204019190066004026101000a81549063ffffffff0219169055905561229367e9d5deae87e6798d60c01b610719565b846000016000847bffffffffffffffffffffffffffffffffffffffffffffffffffffffff19167bffffffffffffffffffffffffffffffffffffffffffffffffffffffff19168152602001908152602001600020600080820160006101000a81549073ffffffffffffffffffffffffffffffffffffffff02191690556000820160146101000a8154906bffffffffffffffffffffffff02191690555050612343677eabf3177058c29f60c01b610719565b61235767d3d01548f6223eaa60c01b610719565b60008114156126935761237467f07038b960b05a4c60c01b610719565b61238766c6fbd4fbaed54a60c01b610719565b61239b67714552e98475403a60c01b610719565b6000600186600201805490506123b1919061390e565b90506123c7674b20cd335540d24060c01b610719565b6123db6757acb9403953294960c01b610719565b60008660010160008773ffffffffffffffffffffffffffffffffffffffff1673ffffffffffffffffffffffffffffffffffffffff16815260200190815260200160002060010154905061243867896a24224cd6d4f960c01b610719565b61244c67212233d762910e7760c01b610719565b8181146125aa57612467674d9cb55c1a651e3860c01b610719565b61247b6720eba5b4c611f8a360c01b610719565b61248f67d5bb4cdb13885a3f60c01b610719565b60008760020183815481106124a7576124a6612ddf565b5b9060005260206000200160009054906101000a900473ffffffffffffffffffffffffffffffffffffffff1690506124e8678f57c041c30a5a7460c01b610719565b808860020183815481106124ff576124fe612ddf565b5b9060005260206000200160006101000a81548173ffffffffffffffffffffffffffffffffffffffff021916908373ffffffffffffffffffffffffffffffffffffffff16021790555061255b6720afce9dd6d5448960c01b610719565b818860010160008373ffffffffffffffffffffffffffffffffffffffff1673ffffffffffffffffffffffffffffffffffffffff16815260200190815260200160002060010181905550506125bf565b6125be672d6a10483b034a6c60c01b610719565b5b6125d367ce686747f129ec6960c01b610719565b6125e767e1216f036ad5da8260c01b610719565b866002018054806125fb576125fa613942565b5b6001900381819060005260206000200160006101000a81549073ffffffffffffffffffffffffffffffffffffffff02191690559055612644679eee40465793ea5060c01b610719565b8660010160008773ffffffffffffffffffffffffffffffffffffffff1673ffffffffffffffffffffffffffffffffffffffff1681526020019081526020016000206001016000905550506126a8565b6126a767a5e606b4a7bbd01c60c01b610719565b5b5050505050565b6126c367fdd970df001bebbf60c01b610719565b6126d767268603c81720b98460c01b610719565b6126eb67650c4db27f4245fb60c01b610719565b6000612701672b986732b5d29c0d60c01b610719565b823b905061271967aefa65267f71d36360c01b610719565b61272d675a5142499e5f9e2660c01b610719565b612741673d8ed32d34ce37ba60c01b610719565b600081118290612787576040517f08c379a000000000000000000000000000000000000000000000000000000000815260040161277e9190613736565b60405180910390fd5b5061279c67919667a436c87d7460c01b610719565b505050565b6000604051905090565b600080fd5b600080fd5b600080fd5b600080fd5b600080fd5b60008083601f8401126127da576127d96127b5565b5b8235905067ffffffffffffffff8111156127f7576127f66127ba565b5b602083019150836020820283011115612813576128126127bf565b5b9250929050565b600073ffffffffffffffffffffffffffffffffffffffff82169050919050565b60006128458261281a565b9050919050565b6128558161283a565b811461286057600080fd5b50565b6000813590506128728161284c565b92915050565b60008083601f84011261288e5761288d6127b5565b5b8235905067ffffffffffffffff8111156128ab576128aa6127ba565b5b6020830191508360018202830111156128c7576128c66127bf565b5b9250929050565b6000806000806000606086880312156128ea576128e96127ab565b5b600086013567ffffffffffffffff811115612908576129076127b0565b5b612914888289016127c4565b9550955050602061292788828901612863565b935050604086013567ffffffffffffffff811115612948576129476127b0565b5b61295488828901612878565b92509250509295509295909350565b60007fffffffffffffffff00000000000000000000000000000000000000000000000082169050919050565b61299881612963565b81146129a357600080fd5b50565b6000813590506129b58161298f565b92915050565b6000602082840312156129d1576129d06127ab565b5b60006129df848285016129a6565b91505092915050565b60008115159050919050565b6129fd816129e8565b82525050565b6000602082019050612a1860008301846129f4565b92915050565b6000601f19601f8301169050919050565b7f4e487b7100000000000000000000000000000000000000000000000000000000600052604160045260246000fd5b612a6782612a1e565b810181811067ffffffffffffffff82111715612a8657612a85612a2f565b5b80604052505050565b6000612a996127a1565b9050612aa58282612a5e565b919050565b600067ffffffffffffffff821115612ac557612ac4612a2f565b5b602082029050602081019050919050565b600080fd5b600080fd5b60038110612aed57600080fd5b50565b600081359050612aff81612ae0565b92915050565b600067ffffffffffffffff821115612b2057612b1f612a2f565b5b602082029050602081019050919050565b60007fffffffff0000000000000000000000000000000000000000000000000000000082169050919050565b612b6681612b31565b8114612b7157600080fd5b50565b600081359050612b8381612b5d565b92915050565b6000612b9c612b9784612b05565b612a8f565b90508083825260208201905060208402830185811115612bbf57612bbe6127bf565b5b835b81811015612be85780612bd48882612b74565b845260208401935050602081019050612bc1565b5050509392505050565b600082601f830112612c0757612c066127b5565b5b8135612c17848260208601612b89565b91505092915050565b600060608284031215612c3657612c35612ad6565b5b612c406060612a8f565b90506000612c5084828501612863565b6000830152506020612c6484828501612af0565b602083015250604082013567ffffffffffffffff811115612c8857612c87612adb565b5b612c9484828501612bf2565b60408301525092915050565b6000612cb3612cae84612aaa565b612a8f565b90508083825260208201905060208402830185811115612cd657612cd56127bf565b5b835b81811015612d1d57803567ffffffffffffffff811115612cfb57612cfa6127b5565b5b808601612d088982612c20565b85526020850194505050602081019050612cd8565b5050509392505050565b6000612d34368484612ca0565b905092915050565b600082825260208201905092915050565b7f4c69624469616d6f6e643a204d75737420626520636f6e7472616374206f776e60008201527f6572000000000000000000000000000000000000000000000000000000000000602082015250565b6000612da9602283612d3c565b9150612db482612d4d565b604082019050919050565b60006020820190508181036000830152612dd881612d9c565b9050919050565b7f4e487b7100000000000000000000000000000000000000000000000000000000600052603260045260246000fd5b7f4e487b7100000000000000000000000000000000000000000000000000000000600052602160045260246000fd5b7f4c69624469616d6f6e644375743a20496e636f7272656374204661636574437560008201527f74416374696f6e00000000000000000000000000000000000000000000000000602082015250565b6000612e99602783612d3c565b9150612ea482612e3d565b604082019050919050565b60006020820190508181036000830152612ec881612e8c565b9050919050565b7f4e487b7100000000000000000000000000000000000000000000000000000000600052601160045260246000fd5b6000819050919050565b6000612f1382612efe565b91507fffffffffffffffffffffffffffffffffffffffffffffffffffffffffffffffff821415612f4657612f45612ecf565b5b600182019050919050565b600081519050919050565b600082825260208201905092915050565b6000819050602082019050919050565b612f868161283a565b82525050565b60038110612f9d57612f9c612e0e565b5b50565b6000819050612fae82612f8c565b919050565b6000612fbe82612fa0565b9050919050565b612fce81612fb3565b82525050565b600081519050919050565b600082825260208201905092915050565b6000819050602082019050919050565b61300981612b31565b82525050565b600061301b8383613000565b60208301905092915050565b6000602082019050919050565b600061303f82612fd4565b6130498185612fdf565b935061305483612ff0565b8060005b8381101561308557815161306c888261300f565b975061307783613027565b925050600181019050613058565b5085935050505092915050565b60006060830160008301516130aa6000860182612f7d565b5060208301516130bd6020860182612fc5565b50604083015184820360408601526130d58282613034565b9150508091505092915050565b60006130ee8383613092565b905092915050565b6000602082019050919050565b600061310e82612f51565b6131188185612f5c565b93508360208202850161312a85612f6d565b8060005b85811015613166578484038952815161314785826130e2565b9450613152836130f6565b925060208a0199505060018101905061312e565b50829750879550505050505092915050565b6131818161283a565b82525050565b600081519050919050565b600082825260208201905092915050565b60005b838110156131c15780820151818401526020810190506131a6565b838111156131d0576000848401525b50505050565b60006131e182613187565b6131eb8185613192565b93506131fb8185602086016131a3565b61320481612a1e565b840191505092915050565b600060608201905081810360008301526132298186613103565b90506132386020830185613178565b818103604083015261324a81846131d6565b9050949350505050565b7f4c69624469616d6f6e644375743a204e6f2073656c6563746f727320696e206660008201527f6163657420746f20637574000000000000000000000000000000000000000000602082015250565b60006132b0602b83612d3c565b91506132bb82613254565b604082019050919050565b600060208201905081810360008301526132df816132a3565b9050919050565b7f4c69624469616d6f6e644375743a204164642066616365742063616e2774206260008201527f6520616464726573732830290000000000000000000000000000000000000000602082015250565b6000613342602c83612d3c565b915061334d826132e6565b604082019050919050565b6000602082019050818103600083015261337181613335565b9050919050565b7f4c69624469616d6f6e644375743a2043616e2774206164642066756e6374696f60008201527f6e207468617420616c7265616479206578697374730000000000000000000000602082015250565b60006133d4603583612d3c565b91506133df82613378565b604082019050919050565b60006020820190508181036000830152613403816133c7565b9050919050565b60006bffffffffffffffffffffffff82169050919050565b600061342d8261340a565b91506bffffffffffffffffffffffff82141561344c5761344b612ecf565b5b600182019050919050565b7f4c69624469616d6f6e644375743a2043616e2774207265706c6163652066756e60008201527f6374696f6e20776974682073616d652066756e6374696f6e0000000000000000602082015250565b60006134b3603883612d3c565b91506134be82613457565b604082019050919050565b600060208201905081810360008301526134e2816134a6565b9050919050565b7f4c69624469616d6f6e644375743a2052656d6f7665206661636574206164647260008201527f657373206d757374206265206164647265737328302900000000000000000000602082015250565b6000613545603683612d3c565b9150613550826134e9565b604082019050919050565b6000602082019050818103600083015261357481613538565b9050919050565b7f4c69624469616d6f6e644375743a205f696e697420697320616464726573732860008201527f3029206275745f63616c6c64617461206973206e6f7420656d70747900000000602082015250565b60006135d7603c83612d3c565b91506135e28261357b565b604082019050919050565b60006020820190508181036000830152613606816135ca565b9050919050565b7f4c69624469616d6f6e644375743a205f63616c6c6461746120697320656d707460008201527f7920627574205f696e6974206973206e6f742061646472657373283029000000602082015250565b6000613669603d83612d3c565b91506136748261360d565b604082019050919050565b600060208201905081810360008301526136988161365c565b9050919050565b600081905092915050565b60006136b582613187565b6136bf818561369f565b93506136cf8185602086016131a3565b80840191505092915050565b60006136e782846136aa565b915081905092915050565b600081519050919050565b6000613708826136f2565b6137128185612d3c565b93506137228185602086016131a3565b61372b81612a1e565b840191505092915050565b6000602082019050818103600083015261375081846136fd565b905092915050565b7f4c69624469616d6f6e644375743a205f696e69742066756e6374696f6e20726560008201527f7665727465640000000000000000000000000000000000000000000000000000602082015250565b60006137b4602683612d3c565b91506137bf82613758565b604082019050919050565b600060208201905081810360008301526137e3816137a7565b9050919050565b7f4c69624469616d6f6e644375743a2043616e27742072656d6f76652066756e6360008201527f74696f6e207468617420646f65736e2774206578697374000000000000000000602082015250565b6000613846603783612d3c565b9150613851826137ea565b604082019050919050565b6000602082019050818103600083015261387581613839565b9050919050565b7f4c69624469616d6f6e644375743a2043616e27742072656d6f766520696d6d7560008201527f7461626c652066756e6374696f6e000000000000000000000000000000000000602082015250565b60006138d8602e83612d3c565b91506138e38261387c565b604082019050919050565b60006020820190508181036000830152613907816138cb565b9050919050565b600061391982612efe565b915061392483612efe565b92508282101561393757613936612ecf565b5b828203905092915050565b7f4e487b7100000000000000000000000000000000000000000000000000000000600052603160045260246000fdfe4c69624469616d6f6e644375743a205f696e6974206164647265737320686173206e6f20636f64654c69624469616d6f6e644375743a204e657720666163657420686173206e6f20636f6465a164736f6c634300080b000a",
  "linkReferences": {},
  "deployedLinkReferences": {}
}