{
  "_format": "hh-sol-artifact-1",
  "contractName": "ENSController",
  "sourceName": "src/ens/ENSController.sol",
  "abi": [
    {
      "inputs": [],
      "stateMutability": "nonpayable",
      "type": "constructor"
    },
    {
      "anonymous": false,
      "inputs": [
        {
          "indexed": true,
          "internalType": "bytes32",
          "name": "node",
          "type": "bytes32"
        },
        {
          "indexed": false,
          "internalType": "address",
          "name": "addr",
          "type": "address"
        }
      ],
      "name": "AddrChanged",
      "type": "event"
    },
    {
      "anonymous": false,
      "inputs": [
        {
          "indexed": true,
          "internalType": "bytes32",
          "name": "node",
          "type": "bytes32"
        },
        {
          "indexed": false,
          "internalType": "uint256",
          "name": "coinType",
          "type": "uint256"
        },
        {
          "indexed": false,
          "internalType": "bytes",
          "name": "newAddress",
          "type": "bytes"
        }
      ],
      "name": "AddressChanged",
      "type": "event"
    },
    {
      "anonymous": false,
      "inputs": [
        {
          "indexed": false,
          "internalType": "address",
          "name": "sender",
          "type": "address"
        },
        {
          "indexed": false,
          "internalType": "address",
          "name": "guardian",
          "type": "address"
        }
      ],
      "name": "GuardianAdded",
      "type": "event"
    },
    {
      "anonymous": false,
      "inputs": [
        {
          "indexed": false,
          "internalType": "address",
          "name": "sender",
          "type": "address"
        },
        {
          "indexed": false,
          "internalType": "address",
          "name": "guardian",
          "type": "address"
        }
      ],
      "name": "GuardianRemoved",
      "type": "event"
    },
    {
      "anonymous": false,
      "inputs": [
        {
          "indexed": false,
          "internalType": "address",
          "name": "initializer",
          "type": "address"
        }
      ],
      "name": "Initialized",
      "type": "event"
    },
    {
      "anonymous": false,
      "inputs": [
        {
          "indexed": true,
          "internalType": "bytes32",
          "name": "node",
          "type": "bytes32"
        },
        {
          "indexed": false,
          "internalType": "string",
          "name": "name",
          "type": "string"
        }
      ],
      "name": "NameChanged",
      "type": "event"
    },
    {
      "anonymous": false,
      "inputs": [
        {
          "indexed": false,
          "internalType": "bytes32",
          "name": "node",
          "type": "bytes32"
        },
        {
          "indexed": false,
          "internalType": "address",
          "name": "owner",
          "type": "address"
        }
      ],
      "name": "NodeReleased",
      "type": "event"
    },
    {
      "anonymous": false,
      "inputs": [
        {
          "indexed": false,
          "internalType": "bytes32",
          "name": "node",
          "type": "bytes32"
        },
        {
          "indexed": false,
          "internalType": "address",
          "name": "owner",
          "type": "address"
        }
      ],
      "name": "NodeSubmitted",
      "type": "event"
    },
    {
      "anonymous": false,
      "inputs": [
        {
          "indexed": false,
          "internalType": "bytes32",
          "name": "node",
          "type": "bytes32"
        }
      ],
      "name": "NodeVerified",
      "type": "event"
    },
    {
      "anonymous": false,
      "inputs": [
        {
          "indexed": true,
          "internalType": "bytes32",
          "name": "node",
          "type": "bytes32"
        },
        {
          "indexed": false,
          "internalType": "bytes32",
          "name": "x",
          "type": "bytes32"
        },
        {
          "indexed": false,
          "internalType": "bytes32",
          "name": "y",
          "type": "bytes32"
        }
      ],
      "name": "PubkeyChanged",
      "type": "event"
    },
    {
      "anonymous": false,
      "inputs": [
        {
          "indexed": false,
          "internalType": "address",
          "name": "registry",
          "type": "address"
        }
      ],
      "name": "RegistryChanged",
      "type": "event"
    },
    {
      "anonymous": false,
      "inputs": [
        {
          "indexed": true,
          "internalType": "bytes32",
          "name": "node",
          "type": "bytes32"
        },
        {
          "indexed": true,
          "internalType": "string",
          "name": "indexedKey",
          "type": "string"
        },
        {
          "indexed": false,
          "internalType": "string",
          "name": "key",
          "type": "string"
        }
      ],
      "name": "TextChanged",
      "type": "event"
    },
    {
      "inputs": [
        {
          "internalType": "address",
          "name": "guardian",
          "type": "address"
        }
      ],
      "name": "addGuardian",
      "outputs": [],
      "stateMutability": "nonpayable",
      "type": "function"
    },
    {
      "inputs": [
        {
          "internalType": "bytes32",
          "name": "node",
          "type": "bytes32"
        }
      ],
      "name": "addr",
      "outputs": [
        {
          "internalType": "address",
          "name": "",
          "type": "address"
        }
      ],
      "stateMutability": "view",
      "type": "function"
    },
    {
      "inputs": [
        {
          "internalType": "bytes32",
          "name": "node",
          "type": "bytes32"
        },
        {
          "internalType": "uint256",
          "name": "coinType",
          "type": "uint256"
        }
      ],
      "name": "addr",
      "outputs": [
        {
          "internalType": "bytes",
          "name": "",
          "type": "bytes"
        }
      ],
      "stateMutability": "view",
      "type": "function"
    },
    {
      "inputs": [
        {
          "internalType": "bytes8",
          "name": "c__0ffe16b4",
          "type": "bytes8"
        }
      ],
      "name": "c_0ffe16b4",
      "outputs": [],
      "stateMutability": "pure",
      "type": "function"
    },
    {
      "inputs": [
        {
          "internalType": "bytes8",
          "name": "c__1b54acf3",
          "type": "bytes8"
        }
      ],
      "name": "c_1b54acf3",
      "outputs": [],
      "stateMutability": "pure",
      "type": "function"
    },
    {
      "inputs": [
        {
          "internalType": "bytes8",
          "name": "c__3880312f",
          "type": "bytes8"
        }
      ],
      "name": "c_3880312f",
      "outputs": [],
      "stateMutability": "pure",
      "type": "function"
    },
    {
      "inputs": [
        {
          "internalType": "bytes8",
          "name": "c__4f849103",
          "type": "bytes8"
        }
      ],
      "name": "c_4f849103",
      "outputs": [],
      "stateMutability": "pure",
      "type": "function"
    },
    {
      "inputs": [
        {
          "internalType": "bytes8",
          "name": "c__53f45729",
          "type": "bytes8"
        }
      ],
      "name": "c_53f45729",
      "outputs": [],
      "stateMutability": "pure",
      "type": "function"
    },
    {
      "inputs": [
        {
          "internalType": "bytes8",
          "name": "c__a2a35eda",
          "type": "bytes8"
        }
      ],
      "name": "c_a2a35eda",
      "outputs": [],
      "stateMutability": "pure",
      "type": "function"
    },
    {
      "inputs": [
        {
          "internalType": "bytes8",
          "name": "c__ac93193e",
          "type": "bytes8"
        }
      ],
      "name": "c_ac93193e",
      "outputs": [],
      "stateMutability": "pure",
      "type": "function"
    },
    {
      "inputs": [
        {
          "internalType": "bytes8",
          "name": "c__c0828b70",
          "type": "bytes8"
        }
      ],
      "name": "c_c0828b70",
      "outputs": [],
      "stateMutability": "pure",
      "type": "function"
    },
    {
      "inputs": [
        {
          "internalType": "bytes8",
          "name": "c__d5c463c2",
          "type": "bytes8"
        }
      ],
      "name": "c_d5c463c2",
      "outputs": [],
      "stateMutability": "pure",
      "type": "function"
    },
    {
      "inputs": [
        {
          "internalType": "bytes8",
          "name": "c__e1dc25ce",
          "type": "bytes8"
        }
      ],
      "name": "c_e1dc25ce",
      "outputs": [],
      "stateMutability": "pure",
      "type": "function"
    },
    {
      "inputs": [
        {
          "internalType": "bytes8",
          "name": "c__0ffe16b4",
          "type": "bytes8"
        }
      ],
      "name": "c_false0ffe16b4",
      "outputs": [
        {
          "internalType": "bool",
          "name": "",
          "type": "bool"
        }
      ],
      "stateMutability": "pure",
      "type": "function"
    },
    {
      "inputs": [
        {
          "internalType": "bytes8",
          "name": "c__1b54acf3",
          "type": "bytes8"
        }
      ],
      "name": "c_false1b54acf3",
      "outputs": [
        {
          "internalType": "bool",
          "name": "",
          "type": "bool"
        }
      ],
      "stateMutability": "pure",
      "type": "function"
    },
    {
      "inputs": [
        {
          "internalType": "bytes8",
          "name": "c__3880312f",
          "type": "bytes8"
        }
      ],
      "name": "c_false3880312f",
      "outputs": [
        {
          "internalType": "bool",
          "name": "",
          "type": "bool"
        }
      ],
      "stateMutability": "pure",
      "type": "function"
    },
    {
      "inputs": [
        {
          "internalType": "bytes8",
          "name": "c__4f849103",
          "type": "bytes8"
        }
      ],
      "name": "c_false4f849103",
      "outputs": [
        {
          "internalType": "bool",
          "name": "",
          "type": "bool"
        }
      ],
      "stateMutability": "pure",
      "type": "function"
    },
    {
      "inputs": [
        {
          "internalType": "bytes8",
          "name": "c__53f45729",
          "type": "bytes8"
        }
      ],
      "name": "c_false53f45729",
      "outputs": [
        {
          "internalType": "bool",
          "name": "",
          "type": "bool"
        }
      ],
      "stateMutability": "pure",
      "type": "function"
    },
    {
      "inputs": [
        {
          "internalType": "bytes8",
          "name": "c__a2a35eda",
          "type": "bytes8"
        }
      ],
      "name": "c_falsea2a35eda",
      "outputs": [
        {
          "internalType": "bool",
          "name": "",
          "type": "bool"
        }
      ],
      "stateMutability": "pure",
      "type": "function"
    },
    {
      "inputs": [
        {
          "internalType": "bytes8",
          "name": "c__ac93193e",
          "type": "bytes8"
        }
      ],
      "name": "c_falseac93193e",
      "outputs": [
        {
          "internalType": "bool",
          "name": "",
          "type": "bool"
        }
      ],
      "stateMutability": "pure",
      "type": "function"
    },
    {
      "inputs": [
        {
          "internalType": "bytes8",
          "name": "c__c0828b70",
          "type": "bytes8"
        }
      ],
      "name": "c_falsec0828b70",
      "outputs": [
        {
          "internalType": "bool",
          "name": "",
          "type": "bool"
        }
      ],
      "stateMutability": "pure",
      "type": "function"
    },
    {
      "inputs": [
        {
          "internalType": "bytes8",
          "name": "c__d5c463c2",
          "type": "bytes8"
        }
      ],
      "name": "c_falsed5c463c2",
      "outputs": [
        {
          "internalType": "bool",
          "name": "",
          "type": "bool"
        }
      ],
      "stateMutability": "pure",
      "type": "function"
    },
    {
      "inputs": [
        {
          "internalType": "bytes8",
          "name": "c__e1dc25ce",
          "type": "bytes8"
        }
      ],
      "name": "c_falsee1dc25ce",
      "outputs": [
        {
          "internalType": "bool",
          "name": "",
          "type": "bool"
        }
      ],
      "stateMutability": "pure",
      "type": "function"
    },
    {
      "inputs": [
        {
          "internalType": "bytes8",
          "name": "c__0ffe16b4",
          "type": "bytes8"
        }
      ],
      "name": "c_true0ffe16b4",
      "outputs": [
        {
          "internalType": "bool",
          "name": "",
          "type": "bool"
        }
      ],
      "stateMutability": "pure",
      "type": "function"
    },
    {
      "inputs": [
        {
          "internalType": "bytes8",
          "name": "c__1b54acf3",
          "type": "bytes8"
        }
      ],
      "name": "c_true1b54acf3",
      "outputs": [
        {
          "internalType": "bool",
          "name": "",
          "type": "bool"
        }
      ],
      "stateMutability": "pure",
      "type": "function"
    },
    {
      "inputs": [
        {
          "internalType": "bytes8",
          "name": "c__3880312f",
          "type": "bytes8"
        }
      ],
      "name": "c_true3880312f",
      "outputs": [
        {
          "internalType": "bool",
          "name": "",
          "type": "bool"
        }
      ],
      "stateMutability": "pure",
      "type": "function"
    },
    {
      "inputs": [
        {
          "internalType": "bytes8",
          "name": "c__4f849103",
          "type": "bytes8"
        }
      ],
      "name": "c_true4f849103",
      "outputs": [
        {
          "internalType": "bool",
          "name": "",
          "type": "bool"
        }
      ],
      "stateMutability": "pure",
      "type": "function"
    },
    {
      "inputs": [
        {
          "internalType": "bytes8",
          "name": "c__53f45729",
          "type": "bytes8"
        }
      ],
      "name": "c_true53f45729",
      "outputs": [
        {
          "internalType": "bool",
          "name": "",
          "type": "bool"
        }
      ],
      "stateMutability": "pure",
      "type": "function"
    },
    {
      "inputs": [
        {
          "internalType": "bytes8",
          "name": "c__a2a35eda",
          "type": "bytes8"
        }
      ],
      "name": "c_truea2a35eda",
      "outputs": [
        {
          "internalType": "bool",
          "name": "",
          "type": "bool"
        }
      ],
      "stateMutability": "pure",
      "type": "function"
    },
    {
      "inputs": [
        {
          "internalType": "bytes8",
          "name": "c__ac93193e",
          "type": "bytes8"
        }
      ],
      "name": "c_trueac93193e",
      "outputs": [
        {
          "internalType": "bool",
          "name": "",
          "type": "bool"
        }
      ],
      "stateMutability": "pure",
      "type": "function"
    },
    {
      "inputs": [
        {
          "internalType": "bytes8",
          "name": "c__c0828b70",
          "type": "bytes8"
        }
      ],
      "name": "c_truec0828b70",
      "outputs": [
        {
          "internalType": "bool",
          "name": "",
          "type": "bool"
        }
      ],
      "stateMutability": "pure",
      "type": "function"
    },
    {
      "inputs": [
        {
          "internalType": "bytes8",
          "name": "c__d5c463c2",
          "type": "bytes8"
        }
      ],
      "name": "c_trued5c463c2",
      "outputs": [
        {
          "internalType": "bool",
          "name": "",
          "type": "bool"
        }
      ],
      "stateMutability": "pure",
      "type": "function"
    },
    {
      "inputs": [
        {
          "internalType": "bytes8",
          "name": "c__e1dc25ce",
          "type": "bytes8"
        }
      ],
      "name": "c_truee1dc25ce",
      "outputs": [
        {
          "internalType": "bool",
          "name": "",
          "type": "bool"
        }
      ],
      "stateMutability": "pure",
      "type": "function"
    },
    {
      "inputs": [],
      "name": "chainId",
      "outputs": [
        {
          "internalType": "uint256",
          "name": "",
          "type": "uint256"
        }
      ],
      "stateMutability": "view",
      "type": "function"
    },
    {
      "inputs": [],
      "name": "gateway",
      "outputs": [
        {
          "internalType": "address",
          "name": "",
          "type": "address"
        }
      ],
      "stateMutability": "view",
      "type": "function"
    },
    {
      "inputs": [
        {
          "components": [
            {
              "internalType": "address",
              "name": "account",
              "type": "address"
            },
            {
              "internalType": "bytes32",
              "name": "node",
              "type": "bytes32"
            },
            {
              "internalType": "bytes32",
              "name": "label",
              "type": "bytes32"
            }
          ],
          "internalType": "struct ENSController.SubNodeRegistration",
          "name": "subNodeRegistration",
          "type": "tuple"
        }
      ],
      "name": "hashSubNodeRegistration",
      "outputs": [
        {
          "internalType": "bytes32",
          "name": "",
          "type": "bytes32"
        }
      ],
      "stateMutability": "view",
      "type": "function"
    },
    {
      "inputs": [
        {
          "internalType": "contract ENSRegistry",
          "name": "registry_",
          "type": "address"
        },
        {
          "internalType": "address[]",
          "name": "guardians_",
          "type": "address[]"
        },
        {
          "internalType": "address",
          "name": "gateway_",
          "type": "address"
        }
      ],
      "name": "initialize",
      "outputs": [],
      "stateMutability": "nonpayable",
      "type": "function"
    },
    {
      "inputs": [
        {
          "internalType": "address",
          "name": "guardian",
          "type": "address"
        }
      ],
      "name": "isGuardian",
      "outputs": [
        {
          "internalType": "bool",
          "name": "",
          "type": "bool"
        }
      ],
      "stateMutability": "view",
      "type": "function"
    },
    {
      "inputs": [],
      "name": "isInitialized",
      "outputs": [
        {
          "internalType": "bool",
          "name": "",
          "type": "bool"
        }
      ],
      "stateMutability": "view",
      "type": "function"
    },
    {
      "inputs": [
        {
          "internalType": "bytes32",
          "name": "node",
          "type": "bytes32"
        }
      ],
      "name": "name",
      "outputs": [
        {
          "internalType": "string",
          "name": "",
          "type": "string"
        }
      ],
      "stateMutability": "view",
      "type": "function"
    },
    {
      "inputs": [
        {
          "internalType": "bytes32",
          "name": "",
          "type": "bytes32"
        }
      ],
      "name": "nodeOwners",
      "outputs": [
        {
          "internalType": "address",
          "name": "",
          "type": "address"
        }
      ],
      "stateMutability": "view",
      "type": "function"
    },
    {
      "inputs": [
        {
          "internalType": "bytes32",
          "name": "node",
          "type": "bytes32"
        }
      ],
      "name": "pubkey",
      "outputs": [
        {
          "internalType": "bytes32",
          "name": "x",
          "type": "bytes32"
        },
        {
          "internalType": "bytes32",
          "name": "y",
          "type": "bytes32"
        }
      ],
      "stateMutability": "view",
      "type": "function"
    },
    {
      "inputs": [
        {
          "internalType": "bytes32",
          "name": "node",
          "type": "bytes32"
        },
        {
          "internalType": "bytes32",
          "name": "label",
          "type": "bytes32"
        },
        {
          "internalType": "bytes",
          "name": "guardianSignature",
          "type": "bytes"
        }
      ],
      "name": "registerSubNode",
      "outputs": [],
      "stateMutability": "nonpayable",
      "type": "function"
    },
    {
      "inputs": [],
      "name": "registry",
      "outputs": [
        {
          "internalType": "contract ENSRegistry",
          "name": "",
          "type": "address"
        }
      ],
      "stateMutability": "view",
      "type": "function"
    },
    {
      "inputs": [
        {
          "internalType": "bytes32",
          "name": "node",
          "type": "bytes32"
        }
      ],
      "name": "releaseNode",
      "outputs": [],
      "stateMutability": "nonpayable",
      "type": "function"
    },
    {
      "inputs": [
        {
          "internalType": "address",
          "name": "guardian",
          "type": "address"
        }
      ],
      "name": "removeGuardian",
      "outputs": [],
      "stateMutability": "nonpayable",
      "type": "function"
    },
    {
      "inputs": [
        {
          "internalType": "bytes32",
          "name": "node",
          "type": "bytes32"
        },
        {
          "internalType": "uint256",
          "name": "coinType",
          "type": "uint256"
        },
        {
          "internalType": "bytes",
          "name": "addr_",
          "type": "bytes"
        }
      ],
      "name": "setAddr",
      "outputs": [],
      "stateMutability": "nonpayable",
      "type": "function"
    },
    {
      "inputs": [
        {
          "internalType": "bytes32",
          "name": "node",
          "type": "bytes32"
        },
        {
          "internalType": "address",
          "name": "addr_",
          "type": "address"
        }
      ],
      "name": "setAddr",
      "outputs": [],
      "stateMutability": "nonpayable",
      "type": "function"
    },
    {
      "inputs": [
        {
          "internalType": "bytes32",
          "name": "node",
          "type": "bytes32"
        },
        {
          "internalType": "string",
          "name": "name",
          "type": "string"
        }
      ],
      "name": "setName",
      "outputs": [],
      "stateMutability": "nonpayable",
      "type": "function"
    },
    {
      "inputs": [
        {
          "internalType": "bytes32",
          "name": "node",
          "type": "bytes32"
        },
        {
          "internalType": "bytes32",
          "name": "x",
          "type": "bytes32"
        },
        {
          "internalType": "bytes32",
          "name": "y",
          "type": "bytes32"
        }
      ],
      "name": "setPubkey",
      "outputs": [],
      "stateMutability": "nonpayable",
      "type": "function"
    },
    {
      "inputs": [
        {
          "internalType": "contract ENSRegistry",
          "name": "registry_",
          "type": "address"
        }
      ],
      "name": "setRegistry",
      "outputs": [],
      "stateMutability": "nonpayable",
      "type": "function"
    },
    {
      "inputs": [
        {
          "internalType": "bytes32",
          "name": "node",
          "type": "bytes32"
        },
        {
          "internalType": "string",
          "name": "key",
          "type": "string"
        },
        {
          "internalType": "string",
          "name": "value",
          "type": "string"
        }
      ],
      "name": "setText",
      "outputs": [],
      "stateMutability": "nonpayable",
      "type": "function"
    },
    {
      "inputs": [
        {
          "internalType": "bytes32",
          "name": "node",
          "type": "bytes32"
        }
      ],
      "name": "submitNode",
      "outputs": [],
      "stateMutability": "nonpayable",
      "type": "function"
    },
    {
      "inputs": [
        {
          "internalType": "bytes4",
          "name": "interfaceID",
          "type": "bytes4"
        }
      ],
      "name": "supportsInterface",
      "outputs": [
        {
          "internalType": "bool",
          "name": "",
          "type": "bool"
        }
      ],
      "stateMutability": "pure",
      "type": "function"
    },
    {
      "inputs": [
        {
          "internalType": "bytes32",
          "name": "node",
          "type": "bytes32"
        }
      ],
      "name": "syncAddr",
      "outputs": [],
      "stateMutability": "nonpayable",
      "type": "function"
    },
    {
      "inputs": [
        {
          "internalType": "bytes32",
          "name": "node",
          "type": "bytes32"
        },
        {
          "internalType": "string",
          "name": "key",
          "type": "string"
        }
      ],
      "name": "text",
      "outputs": [
        {
          "internalType": "string",
          "name": "",
          "type": "string"
        }
      ],
      "stateMutability": "view",
      "type": "function"
    },
    {
      "inputs": [
        {
          "internalType": "bytes32",
          "name": "messageHash",
          "type": "bytes32"
        },
        {
          "internalType": "bytes",
          "name": "signature",
          "type": "bytes"
        }
      ],
      "name": "verifyGuardianSignature",
      "outputs": [
        {
          "internalType": "bool",
          "name": "",
          "type": "bool"
        }
      ],
      "stateMutability": "view",
      "type": "function"
    },
    {
      "inputs": [
        {
          "internalType": "bytes32",
          "name": "node",
          "type": "bytes32"
        }
      ],
      "name": "verifyNode",
      "outputs": [],
      "stateMutability": "nonpayable",
      "type": "function"
    }
  ],
  "bytecode": "0x60806040523480156200001157600080fd5b506200002e67413656f24fa6186560c01b6200017e60201b60201c565b6200004a676f8209dd9a63129460c01b6200018160201b60201c565b62000066675c69c8f577e02d3d60c01b6200018160201b60201c565b32600160006101000a81548173ffffffffffffffffffffffffffffffffffffffff021916908373ffffffffffffffffffffffffffffffffffffffff160217905550620000c367d43f7ebc8916ffb160c01b6200018460201b60201c565b620000df67b7a0f8f58fc547fe60c01b6200018460201b60201c565b620000fb6709fb27c81b9e4b6460c01b6200018460201b60201c565b60006200011967ae8d657f7505e1fa60c01b6200018460201b60201c565b46905062000138675f6af25379ff12a260c01b6200018460201b60201c565b80600281905550506200015c67f3f8abaddc57a31660c01b6200018760201b60201c565b620001786784d0e4cc3b76d95360c01b6200018a60201b60201c565b6200018d565b50565b50565b50565b50565b50565b6172cd806200019d6000396000f3fe608060405234801561001057600080fd5b506004361061038e5760003560e01c8063691f3431116101de578063a526d83b1161010f578063c8690233116100ad578063dc5b68a61161007c578063dc5b68a614610bb4578063e831bfba14610bd0578063f1cb7e0614610bec578063f6a7ea4514610c1c5761038e565b8063c869023314610b1b578063c8cc2aee14610b4c578063d0f710d614610b68578063d5fa2b0014610b985761038e565b8063bb8c7d90116100e9578063bb8c7d9014610a6f578063bc3bf0ee14610a8b578063c1cad69e14610abb578063c369d5fe14610aeb5761038e565b8063a526d83b14610a1b578063a545251f14610a37578063a91ee0dc14610a535761038e565b80637f1308641161017c5780639a8a0592116101565780639a8a05921461096d5780639c9affe11461098b578063a139df03146109bb578063a4db4b6b146109eb5761038e565b80637f130864146108f1578063812f6185146109215780638b95dd71146109515761038e565b806372d926b9116101b857806372d926b91461086b578063773722131461089b5780637b103999146108b75780637d0e0e7e146108d55761038e565b8063691f3431146107ef5780636df0cf421461081f578063714041561461084f5761038e565b806321a5f5da116102c35780633b3b57de11610261578063589731f811610230578063589731f81461074357806359d1d43c146107735780635ff7f23b146107a3578063601c22bd146107d35761038e565b80633b3b57de146106bf57806346386f73146106ef5780635405622e1461070b57806355800f87146107275761038e565b80632e6afd6e1161029d5780632e6afd6e14610611578063375f2ca9146106415780633786d2ae14610671578063392e53cd146106a15761038e565b806321a5f5da146105a957806329ae6a7e146105d957806329cd62ea146105f55761038e565b8063116191b6116103305780631727a5fa1161030a5780631727a5fa1461052557806318121646146105415780631970b9521461055d5780631b3cd142146105795761038e565b8063116191b6146104a75780631262ed1c146104c5578063154721e6146104f55761038e565b80630c3bf3211161036c5780630c3bf3211461040f5780630c4b1a171461043f5780630c68ba211461045b57806310f13a8c1461048b5761038e565b806301ffc9a71461039357806306e88aec146103c35780630a178bc2146103f3575b600080fd5b6103ad60048036038101906103a89190615c9c565b610c4c565b6040516103ba9190616acd565b60405180910390f35b6103dd60048036038101906103d89190615cc5565b611029565b6040516103ea9190616acd565b60405180910390f35b61040d60048036038101906104089190615cc5565b611034565b005b61042960048036038101906104249190615cc5565b611037565b6040516104369190616acd565b60405180910390f35b61045960048036038101906104549190615cc5565b611042565b005b6104756004803603810190610470919061594e565b611045565b6040516104829190616acd565b60405180910390f35b6104a560048036038101906104a09190615b70565b6110d6565b005b6104af6112aa565b6040516104bc9190616a6e565b60405180910390f35b6104df60048036038101906104da9190615cc5565b6112d0565b6040516104ec9190616acd565b60405180910390f35b61050f600480360381019061050a9190615cc5565b6112db565b60405161051c9190616acd565b60405180910390f35b61053f600480360381019061053a9190615cc5565b6112e6565b005b61055b60048036038101906105569190615cc5565b6112e9565b005b61057760048036038101906105729190615cc5565b6112ec565b005b610593600480360381019061058e91906159a0565b6112ef565b6040516105a09190616a6e565b60405180910390f35b6105c360048036038101906105be9190615cc5565b611322565b6040516105d09190616acd565b60405180910390f35b6105f360048036038101906105ee91906159a0565b61132d565b005b61060f600480360381019061060a9190615a05565b611692565b005b61062b60048036038101906106269190615cc5565b61184a565b6040516106389190616acd565b60405180910390f35b61065b60048036038101906106569190615cc5565b611851565b6040516106689190616acd565b60405180910390f35b61068b60048036038101906106869190615cc5565b611858565b6040516106989190616acd565b60405180910390f35b6106a9611863565b6040516106b69190616acd565b60405180910390f35b6106d960048036038101906106d491906159a0565b6118f8565b6040516106e69190616a6e565b60405180910390f35b61070960048036038101906107049190615a54565b611946565b005b61072560048036038101906107209190615cc5565b611e34565b005b610741600480360381019061073c91906159a0565b611e37565b005b61075d60048036038101906107589190615cc5565b61224c565b60405161076a9190616acd565b60405180910390f35b61078d60048036038101906107889190615b18565b612253565b60405161079a9190616c4e565b60405180910390f35b6107bd60048036038101906107b89190615cc5565b612364565b6040516107ca9190616acd565b60405180910390f35b6107ed60048036038101906107e89190615cc5565b61236f565b005b610809600480360381019061080491906159a0565b612372565b6040516108169190616c4e565b60405180910390f35b61083960048036038101906108349190615d83565b612463565b6040516108469190616ae8565b60405180910390f35b6108696004803603810190610864919061594e565b6124bf565b005b61088560048036038101906108809190615cc5565b612867565b6040516108929190616acd565b60405180910390f35b6108b560048036038101906108b09190615b18565b61286e565b005b6108bf612a0a565b6040516108cc9190616c0f565b60405180910390f35b6108ef60048036038101906108ea91906159a0565b612a30565b005b61090b60048036038101906109069190615cc5565b612e64565b6040516109189190616acd565b60405180910390f35b61093b60048036038101906109369190615cc5565b612e6f565b6040516109489190616acd565b60405180910390f35b61096b60048036038101906109669190615c35565b612e76565b005b610975612fac565b6040516109829190616f30565b60405180910390f35b6109a560048036038101906109a09190615cc5565b612fb2565b6040516109b29190616acd565b60405180910390f35b6109d560048036038101906109d09190615cc5565b612fb9565b6040516109e29190616acd565b60405180910390f35b610a056004803603810190610a009190615cc5565b612fc4565b604051610a129190616acd565b60405180910390f35b610a356004803603810190610a30919061594e565b612fcf565b005b610a516004803603810190610a4c9190615cc5565b613142565b005b610a6d6004803603810190610a689190615cee565b613145565b005b610a896004803603810190610a849190615cc5565b6134fe565b005b610aa56004803603810190610aa09190615cc5565b613501565b604051610ab29190616acd565b60405180910390f35b610ad56004803603810190610ad09190615cc5565b613508565b604051610ae29190616acd565b60405180910390f35b610b056004803603810190610b009190615cc5565b61350f565b604051610b129190616acd565b60405180910390f35b610b356004803603810190610b3091906159a0565b613516565b604051610b43929190616b2c565b60405180910390f35b610b666004803603810190610b6191906159a0565b61358c565b005b610b826004803603810190610b7d9190615ac0565b613a40565b604051610b8f9190616acd565b60405180910390f35b610bb26004803603810190610bad91906159c9565b613ad5565b005b610bce6004803603810190610bc99190615d17565b613c09565b005b610bea6004803603810190610be59190615cc5565b613fc0565b005b610c066004803603810190610c019190615bf9565b613fc3565b604051610c139190616bed565b60405180910390f35b610c366004803603810190610c319190615cc5565b6140c6565b604051610c439190616acd565b60405180910390f35b6000610c6267cbd299a442a1301060c01b6112e6565b610c76679bbcb2565a01133160c01b6112e6565b610c8a67471ace0a5542698d60c01b6112e6565b604051602001610c9990616980565b604051602081830303815290604052805190602001207bffffffffffffffffffffffffffffffffffffffffffffffffffffffff1916827bffffffffffffffffffffffffffffffffffffffffffffffffffffffff1916148015610d0b5750610d0a67ffb7715b2128b46e60c01b611037565b5b80610daf5750604051602001610d20906169bb565b604051602081830303815290604052805190602001207bffffffffffffffffffffffffffffffffffffffffffffffffffffffff1916827bffffffffffffffffffffffffffffffffffffffffffffffffffffffff1916148015610d925750610d9167db6ce52503ff1c3460c01b611037565b5b8015610dae5750610dad67a778b68fd08010be60c01b611037565b5b5b80610e535750604051602001610dc490616a0f565b604051602081830303815290604052805190602001207bffffffffffffffffffffffffffffffffffffffffffffffffffffffff1916827bffffffffffffffffffffffffffffffffffffffffffffffffffffffff1916148015610e365750610e3567e9277f2af1c4af2f60c01b611037565b5b8015610e525750610e5167b111560a2904f65060c01b611037565b5b5b80610ef75750604051602001610e68906169e5565b604051602081830303815290604052805190602001207bffffffffffffffffffffffffffffffffffffffffffffffffffffffff1916827bffffffffffffffffffffffffffffffffffffffffffffffffffffffff1916148015610eda5750610ed9672e2f797c585c8e0060c01b611037565b5b8015610ef65750610ef567879b4fdeefd3bf2e60c01b611037565b5b5b80610f9b5750604051602001610f0c906169fa565b604051602081830303815290604052805190602001207bffffffffffffffffffffffffffffffffffffffffffffffffffffffff1916827bffffffffffffffffffffffffffffffffffffffffffffffffffffffff1916148015610f7e5750610f7d67fe14cd490759aa5560c01b611037565b5b8015610f9a5750610f99677cdfb9d6b8c80e3b60c01b611037565b5b5b806110225750604051602001610fb0906169d0565b604051602081830303815290604052805190602001207bffffffffffffffffffffffffffffffffffffffffffffffffffffffff1916827bffffffffffffffffffffffffffffffffffffffffffffffffffffffff1916148015611021575061102066fcccc3a1b5f4e160c01b611037565b5b5b9050919050565b600060019050919050565b50565b600060019050919050565b50565b600061105b6784ecf3118404f04560c01b611e34565b61106f67d4e99ee3a1201eec60c01b611e34565b61108367e4ba0959715ee5ac60c01b611e34565b6000808373ffffffffffffffffffffffffffffffffffffffff1673ffffffffffffffffffffffffffffffffffffffff16815260200190815260200160002060009054906101000a900460ff169050919050565b6110ea67432045df94a2523560c01b6112ec565b846110ff671b9f75a630d2cc9b60c01b6134fe565b611113676595764f7f0c1ff560c01b6134fe565b611127678b86ff1a3952d0b060c01b6134fe565b61113b67ac2a6e4f19855e5260c01b6134fe565b611144816140cd565b611183576040517f08c379a000000000000000000000000000000000000000000000000000000000815260040161117a90616ef0565b60405180910390fd5b61119767f2183c6df9fa10e060c01b6134fe565b6111ab67ef866c12fbdd5a6260c01b6134fe565b6111bf67154403b496d8451f60c01b6112ec565b6111d36785ec2e4a6b36d91060c01b6112ec565b6111e767bd421e452d68d1bc60c01b6112ec565b828260076000898152602001908152602001600020878760405161120c929190616967565b9081526020016040518091039020919061122792919061560c565b5061123c673ffff7f4512c700060c01b6112ec565b61125067585d442bc5bff40260c01b6112ec565b8484604051611260929190616967565b6040518091039020867fd8c9334b1a9c2f9da342a0a2b32629c1a229b6445dad78947f674b44444a7550878760405161129a929190616c2a565b60405180910390a3505050505050565b600360009054906101000a900473ffffffffffffffffffffffffffffffffffffffff1681565b600060019050919050565b600060019050919050565b50565b50565b50565b60096020528060005260406000206000915054906101000a900473ffffffffffffffffffffffffffffffffffffffff1681565b600060019050919050565b61134167247e51efe94b322960c01b6112e6565b611355678fa43cb69d968efc60c01b6112e6565b611369679d2e81fd0786410d60c01b6112e6565b60006113736141f2565b9050611389672dc63e53bccee15560c01b6112e6565b61139d67d549753612b2b7ae60c01b6112e6565b6113b1676da1926a4d789ea660c01b6112e6565b3073ffffffffffffffffffffffffffffffffffffffff166113d18361423f565b73ffffffffffffffffffffffffffffffffffffffff1614611427576040517f08c379a000000000000000000000000000000000000000000000000000000000815260040161141e90616d50565b60405180910390fd5b61143b677c9f754628a2b94260c01b6112e6565b61144f67f656e380f640163b60c01b6112e6565b61146367fb7d8f6a19bf131260c01b6112e6565b61147767ca40a982339c814860c01b6112e6565b8073ffffffffffffffffffffffffffffffffffffffff166009600084815260200190815260200160002060009054906101000a900473ffffffffffffffffffffffffffffffffffffffff1673ffffffffffffffffffffffffffffffffffffffff1614611518576040517f08c379a000000000000000000000000000000000000000000000000000000000815260040161150f90616c90565b60405180910390fd5b61152c6751511949b25b3ad360c01b6112e6565b611540670a272cb4e95a34c160c01b6112e6565b61155467552cc05fe4fc4a8760c01b6112e6565b600860009054906101000a900473ffffffffffffffffffffffffffffffffffffffff1673ffffffffffffffffffffffffffffffffffffffff16635b0fc9c383836040518363ffffffff1660e01b81526004016115b1929190616b03565b600060405180830381600087803b1580156115cb57600080fd5b505af11580156115df573d6000803e3d6000fd5b505050506115f7675326a3b8a828723160c01b6112e6565b6009600083815260200190815260200160002060006101000a81549073ffffffffffffffffffffffffffffffffffffffff021916905561164167b638d5821e588b3560c01b6112e6565b6116556749eee7f0bcf045c960c01b6112e6565b7f7803a16d95f9ca635bdec561006625e7444d8a9f8463866643cc03af011779d38282604051611686929190616b03565b60405180910390a15050565b6116a66710393dd2bb7f8c5760c01b61236f565b826116bb671b9f75a630d2cc9b60c01b6134fe565b6116cf676595764f7f0c1ff560c01b6134fe565b6116e3678b86ff1a3952d0b060c01b6134fe565b6116f767ac2a6e4f19855e5260c01b6134fe565b611700816140cd565b61173f576040517f08c379a000000000000000000000000000000000000000000000000000000000815260040161173690616ef0565b60405180910390fd5b61175367f2183c6df9fa10e060c01b6134fe565b61176767ef866c12fbdd5a6260c01b6134fe565b61177b67bf7067d7d1b9025a60c01b61236f565b61178f67d6f2e23b74423a5860c01b61236f565b6117a367c85132296ea099b760c01b61236f565b6040518060400160405280848152602001838152506006600086815260200190815260200160002060008201518160000155602082015181600101559050506117f667c585d30fa5997ad760c01b61236f565b61180a679c4020c6cbe2932d60c01b61236f565b837f1d6f5e03d3f63eb58751986629a5439baee5079ff04f345becb66e23eb154e46848460405161183c929190616b2c565b60405180910390a250505050565b6000919050565b6000919050565b600060019050919050565b60006118796740898dd11e0e3e1060c01b6112e9565b61188d67730b1b0a3e6f252b60c01b6112e9565b6118a1670e31b01a086623bd60c01b6112e9565b600073ffffffffffffffffffffffffffffffffffffffff16600160009054906101000a900473ffffffffffffffffffffffffffffffffffffffff1673ffffffffffffffffffffffffffffffffffffffff1614905090565b600061190e6704f53dec4b31922c60c01b613142565b611922678593119e0484f61f60c01b613142565b611936673f4030ef6849f48c60c01b613142565b61193f8261423f565b9050919050565b61195a677643d121a2bb78e460c01b6112e6565b61196e675079f7f545a1456060c01b6112e6565b61198267dd20a700a35d1e2b60c01b6112e6565b600061198c6141f2565b90506119a267d4e339eccc737f8f60c01b6112e6565b6119b6679847c0c02006342160c01b6112e6565b60006119c382878761441a565b90506119d9674a990226d7192aee60c01b6112e6565b6119ed67721df9ca1545614b60c01b6112e6565b611a0167b7d3af92e9b087cc60c01b6112e6565b611a4f8185858080601f016020809104026020016040519081016040528093929190818152602001838380828437600081840152601f19601f820116905080830192505050505050506144ae565b611a8e576040517f08c379a0000000000000000000000000000000000000000000000000000000008152600401611a8590616cb0565b60405180910390fd5b611aa2673bacd015e2308bc760c01b6112e6565b611ab66702c0c286ec3ec8fe60c01b6112e6565b611aca6795b557702e5e692260c01b6112e6565b60008686604051602001611adf92919061693b565b604051602081830303815290604052805190602001209050611b0b6736feed75a88cf75460c01b6112e6565b611b1f6736a4a80843e5d1f560c01b6112e6565b611b3367aa20c0f006a9849b60c01b6112e6565b3073ffffffffffffffffffffffffffffffffffffffff16611b538861423f565b73ffffffffffffffffffffffffffffffffffffffff1614611ba9576040517f08c379a0000000000000000000000000000000000000000000000000000000008152600401611ba090616d30565b60405180910390fd5b611bbd6728c5906ae7fb389060c01b6112e6565b611bd16769b35518bf6c9ba260c01b6112e6565b611be567368a27039be71bac60c01b6112e6565b611bf967ecfc39f66a95369c60c01b6112e6565b600073ffffffffffffffffffffffffffffffffffffffff16611c1a8261423f565b73ffffffffffffffffffffffffffffffffffffffff1614611c70576040517f08c379a0000000000000000000000000000000000000000000000000000000008152600401611c6790616cd0565b60405180910390fd5b611c84678da07f58b599643a60c01b6112e6565b611c9867eded045e7d922d5360c01b6112e6565b611cac675899849ebba586da60c01b6112e6565b600860009054906101000a900473ffffffffffffffffffffffffffffffffffffffff1673ffffffffffffffffffffffffffffffffffffffff16635ef2c7f08888303060006040518663ffffffff1660e01b8152600401611d10959493929190616b55565b600060405180830381600087803b158015611d2a57600080fd5b505af1158015611d3e573d6000803e3d6000fd5b50505050611d5667f4130d539beb44b260c01b6112e6565b611d6a67aeee0a9ffd4a30a660c01b6112e6565b600860009054906101000a900473ffffffffffffffffffffffffffffffffffffffff1673ffffffffffffffffffffffffffffffffffffffff16635b0fc9c382856040518363ffffffff1660e01b8152600401611dc7929190616b03565b600060405180830381600087803b158015611de157600080fd5b505af1158015611df5573d6000803e3d6000fd5b50505050611e0d672cf5dc6a2c714daa60c01b6112e6565b611e21679da68b955c4a728a60c01b6112e6565b611e2b8184614580565b50505050505050565b50565b611e4b673886d654f611af6260c01b6112e6565b611e5f6731da9cda2b230fbc60c01b6112e6565b611e73679d2947c248edf55e60c01b6112e6565b6000611e7d6141f2565b9050611e9367419564255ac7afc560c01b6112e6565b611ea767e114263591187dd760c01b6112e6565b611ebb67351f76e8ac53b60d60c01b6112e6565b600860009054906101000a900473ffffffffffffffffffffffffffffffffffffffff1673ffffffffffffffffffffffffffffffffffffffff166302571be3836040518263ffffffff1660e01b8152600401611f169190616ae8565b60206040518083038186803b158015611f2e57600080fd5b505afa158015611f42573d6000803e3d6000fd5b505050506040513d601f19601f82011682018060405250810190611f669190615977565b73ffffffffffffffffffffffffffffffffffffffff168173ffffffffffffffffffffffffffffffffffffffff1614611fd3576040517f08c379a0000000000000000000000000000000000000000000000000000000008152600401611fca90616d90565b60405180910390fd5b611fe7672310d36cc3a605e460c01b6112e6565b611ffb67d21416ffabb0330160c01b6112e6565b61200f672d7d5bc47afaf68b60c01b6112e6565b612023671863fa115c752df960c01b6112e6565b3073ffffffffffffffffffffffffffffffffffffffff16600860009054906101000a900473ffffffffffffffffffffffffffffffffffffffff1673ffffffffffffffffffffffffffffffffffffffff16630178b8bf846040518263ffffffff1660e01b81526004016120959190616ae8565b60206040518083038186803b1580156120ad57600080fd5b505afa1580156120c1573d6000803e3d6000fd5b505050506040513d601f19601f820116820180604052508101906120e59190615977565b73ffffffffffffffffffffffffffffffffffffffff161461213b576040517f08c379a000000000000000000000000000000000000000000000000000000000815260040161213290616c70565b60405180910390fd5b61214f67050ea9ab3a12862f60c01b6112e6565b6121636719a6fb32231c65d560c01b6112e6565b6121776729a20baed75ffdca60c01b6112e6565b61218b67e86b65939e3abafd60c01b6112e6565b600073ffffffffffffffffffffffffffffffffffffffff166121ac8361423f565b73ffffffffffffffffffffffffffffffffffffffff1614612202576040517f08c379a00000000000000000000000000000000000000000000000000000000081526004016121f990616e30565b60405180910390fd5b61221667ba147b870afd4d2f60c01b6112e6565b61222a672b1f664e490d2d3660c01b6112e6565b61223e67c10a18b7cbadc04d60c01b6112e6565b6122488282614580565b5050565b6000919050565b60606122696709fe6f5c8745883360c01b6112ec565b61227d67545d4ef14060a75060c01b6112ec565b61229167aa2ffe4d4796b33c60c01b6112ec565b6007600085815260200190815260200160002083836040516122b4929190616967565b90815260200160405180910390208054600181600116156101000203166002900480601f0160208091040260200160405190810160405280929190818152602001828054600181600116156101000203166002900480156123565780601f1061232b57610100808354040283529160200191612356565b820191906000526020600020905b81548152906001019060200180831161233957829003601f168201915b505050505090509392505050565b600060019050919050565b50565b60606123886736001f032157b32460c01b611034565b61239c6764e8f396ef6faa7c60c01b611034565b6123b0671cdf513fd715a70160c01b611034565b600560008381526020019081526020016000208054600181600116156101000203166002900480601f0160208091040260200160405190810160405280929190818152602001828054600181600116156101000203166002900480156124575780601f1061242c57610100808354040283529160200191612457565b820191906000526020600020905b81548152906001019060200180831161243a57829003601f168201915b50505050509050919050565b60006124796775362ab5e50976bd60c01b6112e6565b61248d6712a0b7154ecf887360c01b6112e6565b6124a167ec39c4b7c9d2a26260c01b6112e6565b6124b882600001518360200151846040015161441a565b9050919050565b6124d3670caedbfd5abebf6160c01b611e34565b6124e76742b0c1323c75dfb360c01b611e34565b6124fb679cd513b6eebced7560c01b611e34565b61250f67eeeaf063f577770960c01b611e34565b61252367c60da70fe303492e60c01b611e34565b6000803273ffffffffffffffffffffffffffffffffffffffff1673ffffffffffffffffffffffffffffffffffffffff16815260200190815260200160002060009054906101000a900460ff166125ae576040517f08c379a00000000000000000000000000000000000000000000000000000000081526004016125a590616db0565b60405180910390fd5b6125c26794e8bc79e466100760c01b611e34565b6125d667bc04c894f3eba0c560c01b611e34565b6125ea678b1796894f3ae9de60c01b611e34565b6125fe67b72db77a2e7745ba60c01b611e34565b61261267b1f370819c2c0df760c01b611e34565b6126266748422319f9b5a9c160c01b611e34565b61263a67e3d81842942258fa60c01b611e34565b8073ffffffffffffffffffffffffffffffffffffffff163273ffffffffffffffffffffffffffffffffffffffff1614156126a9576040517f08c379a00000000000000000000000000000000000000000000000000000000081526004016126a090616eb0565b60405180910390fd5b6126bd67e46f534505dcf68e60c01b611e34565b6126d167be3d1fc91d078bfa60c01b611e34565b6126e567bda141bb88f7425160c01b611e34565b6126f967e9f4bbcb8bfedf3760c01b611e34565b6000808273ffffffffffffffffffffffffffffffffffffffff1673ffffffffffffffffffffffffffffffffffffffff16815260200190815260200160002060009054906101000a900460ff16612784576040517f08c379a000000000000000000000000000000000000000000000000000000000815260040161277b90616e50565b60405180910390fd5b612798679d258db795e0520660c01b611e34565b6127ac67b784b66d9c6c30c760c01b611e34565b60008060008373ffffffffffffffffffffffffffffffffffffffff1673ffffffffffffffffffffffffffffffffffffffff16815260200190815260200160002060006101000a81548160ff02191690831515021790555061281767d3f8eee07042ad8560c01b611e34565b61282b6755080d54614d095f60c01b611e34565b7fee943cdb81826d5909c559c6b1ae6908fcaf2dbc16c4b730346736b486283e8b328260405161285c929190616aa4565b60405180910390a150565b6000919050565b612882678c8650da595f724660c01b611034565b82612897671b9f75a630d2cc9b60c01b6134fe565b6128ab676595764f7f0c1ff560c01b6134fe565b6128bf678b86ff1a3952d0b060c01b6134fe565b6128d367ac2a6e4f19855e5260c01b6134fe565b6128dc816140cd565b61291b576040517f08c379a000000000000000000000000000000000000000000000000000000000815260040161291290616ef0565b60405180910390fd5b61292f67f2183c6df9fa10e060c01b6134fe565b61294367ef866c12fbdd5a6260c01b6134fe565b61295767133fe7ccf2f35f4360c01b611034565b61296b675d59fdf6a3a69d6e60c01b611034565b61297f672cbfa4329fed8d4260c01b611034565b82826005600087815260200190815260200160002091906129a192919061560c565b506129b6676fdbba681265355860c01b611034565b6129ca67e116bce5f3c412d560c01b611034565b837fb7d29e911041e8d9b843369e890bcb72c9388692ba48b65ac54e7214c4c348f784846040516129fc929190616c2a565b60405180910390a250505050565b600860009054906101000a900473ffffffffffffffffffffffffffffffffffffffff1681565b612a44670999ca8f388ca8f160c01b6112e6565b612a58674ff552ddb43a45b860c01b6112e6565b612a6c67df6192ff80c4b50860c01b6112e6565b6000612a766141f2565b9050612a8c67d1318bc5e32e274860c01b6112e6565b612aa0673778c863a92c464f60c01b6112e6565b612ab46770f79f7bd17e6fa660c01b6112e6565b600073ffffffffffffffffffffffffffffffffffffffff16612ad58361423f565b73ffffffffffffffffffffffffffffffffffffffff1614612b2b576040517f08c379a0000000000000000000000000000000000000000000000000000000008152600401612b2290616e10565b60405180910390fd5b612b3f67054def1679b6a2d560c01b6112e6565b612b53671390b5c4537be52360c01b6112e6565b612b67675c35834a8a57242560c01b6112e6565b612b7b673e6c476e567602b060c01b6112e6565b600073ffffffffffffffffffffffffffffffffffffffff166009600084815260200190815260200160002060009054906101000a900473ffffffffffffffffffffffffffffffffffffffff1673ffffffffffffffffffffffffffffffffffffffff1614612c1d576040517f08c379a0000000000000000000000000000000000000000000000000000000008152600401612c1490616df0565b60405180910390fd5b612c31673cf7c5bae82a569a60c01b6112e6565b612c456748eed87ef615c56e60c01b6112e6565b612c596713361dc8ea8082eb60c01b6112e6565b612c6d6798f7a2790dd91a8e60c01b6112e6565b8073ffffffffffffffffffffffffffffffffffffffff16600860009054906101000a900473ffffffffffffffffffffffffffffffffffffffff1673ffffffffffffffffffffffffffffffffffffffff166302571be3846040518263ffffffff1660e01b8152600401612cdf9190616ae8565b60206040518083038186803b158015612cf757600080fd5b505afa158015612d0b573d6000803e3d6000fd5b505050506040513d601f19601f82011682018060405250810190612d2f9190615977565b73ffffffffffffffffffffffffffffffffffffffff1614612d85576040517f08c379a0000000000000000000000000000000000000000000000000000000008152600401612d7c90616e70565b60405180910390fd5b612d99675ab95278270d46e460c01b6112e6565b612dad674f5e2f4c8c1e4ada60c01b6112e6565b806009600084815260200190815260200160002060006101000a81548173ffffffffffffffffffffffffffffffffffffffff021916908373ffffffffffffffffffffffffffffffffffffffff160217905550612e1367cf74efd8007c25c460c01b6112e6565b612e276710362c939f2d6be560c01b6112e6565b7fc1e082a8c26f27c26e1bf5d0ce7ddd579ec7f6d7eb3ea90d8abd6c40991bae368282604051612e58929190616b03565b60405180910390a15050565b600060019050919050565b6000919050565b612e8a6768bd45519a0b092c60c01b613142565b82612e9f671b9f75a630d2cc9b60c01b6134fe565b612eb3676595764f7f0c1ff560c01b6134fe565b612ec7678b86ff1a3952d0b060c01b6134fe565b612edb67ac2a6e4f19855e5260c01b6134fe565b612ee4816140cd565b612f23576040517f08c379a0000000000000000000000000000000000000000000000000000000008152600401612f1a90616ef0565b60405180910390fd5b612f3767f2183c6df9fa10e060c01b6134fe565b612f4b67ef866c12fbdd5a6260c01b6134fe565b612f5f67c8e040d0f6e6758860c01b613142565b612f736744c25260576565c060c01b613142565b612f8767a6f18e5d46be32d560c01b613142565b612f9b67afecf1c638b54fe160c01b613142565b612fa68484846145d4565b50505050565b60025481565b6000919050565b600060019050919050565b600060019050919050565b612fe367dd930b6f9f95b76c60c01b611e34565b612ff76742b0c1323c75dfb360c01b611e34565b61300b679cd513b6eebced7560c01b611e34565b61301f67eeeaf063f577770960c01b611e34565b61303367c60da70fe303492e60c01b611e34565b6000803273ffffffffffffffffffffffffffffffffffffffff1673ffffffffffffffffffffffffffffffffffffffff16815260200190815260200160002060009054906101000a900460ff166130be576040517f08c379a00000000000000000000000000000000000000000000000000000000081526004016130b590616db0565b60405180910390fd5b6130d26794e8bc79e466100760c01b611e34565b6130e667bc04c894f3eba0c560c01b611e34565b6130fa670acb98e525a2992e60c01b611e34565b61310e6702f83effb0603b2160c01b611e34565b61312267cabbadae4ca9cb1560c01b611e34565b613136676a8aed084b7a4f8a60c01b611e34565b61313f81614763565b50565b50565b61315967834a6f48d9dd4e3360c01b6112e6565b61316d6742b0c1323c75dfb360c01b611e34565b613181679cd513b6eebced7560c01b611e34565b61319567eeeaf063f577770960c01b611e34565b6131a967c60da70fe303492e60c01b611e34565b6000803273ffffffffffffffffffffffffffffffffffffffff1673ffffffffffffffffffffffffffffffffffffffff16815260200190815260200160002060009054906101000a900460ff16613234576040517f08c379a000000000000000000000000000000000000000000000000000000000815260040161322b90616db0565b60405180910390fd5b6132486794e8bc79e466100760c01b611e34565b61325c67bc04c894f3eba0c560c01b611e34565b61327067a9e5df8e6e71e82f60c01b6112e6565b613284679a9a5ed87946d23860c01b6112e6565b61329867a0aa9722c643b9ea60c01b6112e6565b6132ac6744647ce593da0b3860c01b6112e6565b6132c0678649cfc113b0cdcb60c01b6112e6565b600073ffffffffffffffffffffffffffffffffffffffff168173ffffffffffffffffffffffffffffffffffffffff161415613330576040517f08c379a000000000000000000000000000000000000000000000000000000000815260040161332790616dd0565b60405180910390fd5b61334467b27587a5bff680e360c01b6112e6565b6133586718de30de54a1120460c01b6112e6565b61336c67e386bc038dc8783960c01b6112e6565b61338067bced9a38d73e116260c01b6112e6565b600860009054906101000a900473ffffffffffffffffffffffffffffffffffffffff1673ffffffffffffffffffffffffffffffffffffffff168173ffffffffffffffffffffffffffffffffffffffff161415613411576040517f08c379a000000000000000000000000000000000000000000000000000000000815260040161340890616f10565b60405180910390fd5b61342567fbb32660688af48b60c01b6112e6565b61343967c173e16205aed91c60c01b6112e6565b80600860006101000a81548173ffffffffffffffffffffffffffffffffffffffff021916908373ffffffffffffffffffffffffffffffffffffffff16021790555061348e6795d9d028824c2f8160c01b6112e6565b6134a267add88589c6c0157160c01b6112e6565b7fdb0239c63d4033dcdd21bd44f8dd479a03efbae12f6bbe27c0a5f923d26514cc600860009054906101000a900473ffffffffffffffffffffffffffffffffffffffff166040516134f39190616a6e565b60405180910390a150565b50565b6000919050565b6000919050565b6000919050565b60008061352d678ac66400782aa59f60c01b61236f565b613541678dc6cbf5b8dfdd5860c01b61236f565b61355567598198b1d35429aa60c01b61236f565b6006600084815260200190815260200160002060000154600660008581526020019081526020016000206001015491509150915091565b6135a0677dcdd778d98fb58260c01b6112e6565b6135b46733cd713f7b48f86560c01b6112e6565b6135c867d3b2b57ff8dc88a560c01b6112e6565b60006135d26141f2565b90506135e8671120aaa5912b694a60c01b6112e6565b6135fc67a9df2cbce194806760c01b6112e6565b6136106783224fcfc5b2c2a260c01b6112e6565b600073ffffffffffffffffffffffffffffffffffffffff166136318361423f565b73ffffffffffffffffffffffffffffffffffffffff1614613687576040517f08c379a000000000000000000000000000000000000000000000000000000000815260040161367e90616e10565b60405180910390fd5b61369b6739483b26604588fc60c01b6112e6565b6136af675bce4da74a47a00560c01b6112e6565b6136c3677dcf9693c07dde1160c01b6112e6565b6136d7670479d7c683699ec060c01b6112e6565b8073ffffffffffffffffffffffffffffffffffffffff166009600084815260200190815260200160002060009054906101000a900473ffffffffffffffffffffffffffffffffffffffff1673ffffffffffffffffffffffffffffffffffffffff1614613778576040517f08c379a000000000000000000000000000000000000000000000000000000000815260040161376f90616c90565b60405180910390fd5b61378c6709352401433d3b0760c01b6112e6565b6137a067a779a281bf49096560c01b6112e6565b6137b4672c89bd13ad8ad96560c01b6112e6565b6137c867a424496baefbe0e760c01b6112e6565b3073ffffffffffffffffffffffffffffffffffffffff16600860009054906101000a900473ffffffffffffffffffffffffffffffffffffffff1673ffffffffffffffffffffffffffffffffffffffff166302571be3846040518263ffffffff1660e01b815260040161383a9190616ae8565b60206040518083038186803b15801561385257600080fd5b505afa158015613866573d6000803e3d6000fd5b505050506040513d601f19601f8201168201806040525081019061388a9190615977565b73ffffffffffffffffffffffffffffffffffffffff16146138e0576040517f08c379a00000000000000000000000000000000000000000000000000000000081526004016138d790616e70565b60405180910390fd5b6138f46755af75f02224614260c01b6112e6565b61390867f87bffe1f8ed1dc560c01b6112e6565b61391c673f10f8b2cfd00dd960c01b6112e6565b6139268230614580565b61393a675e6d37176466aebe60c01b6112e6565b61394e675a4e1a5c04e01b9460c01b6112e6565b600860009054906101000a900473ffffffffffffffffffffffffffffffffffffffff1673ffffffffffffffffffffffffffffffffffffffff16631896f70a83306040518363ffffffff1660e01b81526004016139ab929190616b03565b600060405180830381600087803b1580156139c557600080fd5b505af11580156139d9573d6000803e3d6000fd5b505050506139f167d6e5f6f40765f5ab60c01b6112e6565b613a0567e3ab4b321def09c360c01b6112e6565b7fcefbe9dbadcf675eef14e23810996ff38541fc26b4dd77cd6724b0eedc96f20082604051613a349190616ae8565b60405180910390a15050565b6000613a5667c2603dd5511b499960c01b611e34565b613a6a6764f96218f3a402c560c01b611e34565b613a7e679f7a32802dba8b6e60c01b611e34565b613acc8484848080601f016020809104026020016040519081016040528093929190818152602001838380828437600081840152601f19601f820116905080830192505050505050506144ae565b90509392505050565b613ae9678f75b0b5df64d33560c01b613142565b81613afe671b9f75a630d2cc9b60c01b6134fe565b613b12676595764f7f0c1ff560c01b6134fe565b613b26678b86ff1a3952d0b060c01b6134fe565b613b3a67ac2a6e4f19855e5260c01b6134fe565b613b43816140cd565b613b82576040517f08c379a0000000000000000000000000000000000000000000000000000000008152600401613b7990616ef0565b60405180910390fd5b613b9667f2183c6df9fa10e060c01b6134fe565b613baa67ef866c12fbdd5a6260c01b6134fe565b613bbe6774fe341d31e2b92560c01b613142565b613bd2674fd8f240e2382f0160c01b613142565b613be66728890b0bbfc458ba60c01b613142565b613bfa6780dfab70a7dcae0860c01b613142565b613c048383614580565b505050565b613c1d678665dacfd7ea338b60c01b6112e6565b613c31676c8c9b71ba9d910f60c01b6112e9565b613c4567f602580a42808a9160c01b6112e9565b613c596707611d848241fec060c01b6112e9565b613c6d6709ab29cd8b2d771d60c01b6112e9565b600160009054906101000a900473ffffffffffffffffffffffffffffffffffffffff1673ffffffffffffffffffffffffffffffffffffffff163273ffffffffffffffffffffffffffffffffffffffff1614613cfd576040517f08c379a0000000000000000000000000000000000000000000000000000000008152600401613cf490616d10565b60405180910390fd5b613d116786eee1b275e13e0e60c01b6112e9565b613d256715362633e8a83eba60c01b6112e9565b6000600160006101000a81548173ffffffffffffffffffffffffffffffffffffffff021916908373ffffffffffffffffffffffffffffffffffffffff160217905550613d7b6738479f0480704ee560c01b6112e9565b613d8f67aee8d8c3b0122f0160c01b6112e6565b613da367951eb250148c964960c01b6112e6565b613db767f2679fde5ef9738f60c01b6112e6565b613dcb67eecfa36bbb20079a60c01b6112e6565b613ddf67bcdcf221feac23bb60c01b6112e6565b600073ffffffffffffffffffffffffffffffffffffffff168473ffffffffffffffffffffffffffffffffffffffff161415613e4f576040517f08c379a0000000000000000000000000000000000000000000000000000000008152600401613e4690616dd0565b60405180910390fd5b613e636784ee1b562763adb160c01b6112e6565b613e77671aa0c20d527016e960c01b6112e6565b83600860006101000a81548173ffffffffffffffffffffffffffffffffffffffff021916908373ffffffffffffffffffffffffffffffffffffffff160217905550613ecc678218e69ff1dae57660c01b6112e6565b613ee067de01e1bdb51d7e7f60c01b6112e6565b613f2a838380806020026020016040519081016040528093929190818152602001838360200280828437600081840152601f19601f820116905080830192505050505050506149e2565b613f3e679cca1c54ae522e7360c01b6112e6565b613f52676628b0d035137da160c01b6112e6565b613f5b81614b3e565b613f6f675d2d15dcccb96a8860c01b6112e9565b613f836763708511b840b29260c01b6112e9565b7f908408e307fc569b417f6cbec5d5a06f44a0a505ac0479b47d421a4b2fd6a1e632604051613fb29190616a89565b60405180910390a150505050565b50565b6060613fd967c8986c2c71f04a0160c01b613142565b613fed679d762e4fb5b5cc0160c01b613142565b6140016763bf746068973a7460c01b613142565b6004600084815260200190815260200160002060008381526020019081526020016000208054600181600116156101000203166002900480601f0160208091040260200160405190810160405280929190818152602001828054600181600116156101000203166002900480156140b95780601f1061408e576101008083540402835291602001916140b9565b820191906000526020600020905b81548152906001019060200180831161409c57829003601f168201915b5050505050905092915050565b6000919050565b60006140e36712d510ec790d5d6860c01b6112e6565b6140f7677124e3ea2a0bd4f460c01b6112e6565b61410b673e0d19f6092eb7dd60c01b6112e6565b6141136141f2565b73ffffffffffffffffffffffffffffffffffffffff16600860009054906101000a900473ffffffffffffffffffffffffffffffffffffffff1673ffffffffffffffffffffffffffffffffffffffff166302571be3846040518263ffffffff1660e01b81526004016141849190616ae8565b60206040518083038186803b15801561419c57600080fd5b505afa1580156141b0573d6000803e3d6000fd5b505050506040513d601f19601f820116820180604052508101906141d49190615977565b73ffffffffffffffffffffffffffffffffffffffff16149050919050565b6000614208671c7ff357d193636160c01b611042565b61421c67ab8759dadf1f42b260c01b611042565b61423067125a6f506ec49d2c60c01b611042565b61423a6028614baa565b905090565b600061425567112bf8d93861f12960c01b613142565b61426967440886740faf3c5160c01b613142565b61427d6726ff26403241314a60c01b613142565b600061429367534855dd0adc747160c01b613142565b6142a767d2c3e464677fd2d660c01b613142565b6060600460008581526020019081526020016000206000603c81526020019081526020016000208054600181600116156101000203166002900480601f0160208091040260200160405190810160405280929190818152602001828054600181600116156101000203166002900480156143625780601f1061433757610100808354040283529160200191614362565b820191906000526020600020905b81548152906001019060200180831161434557829003601f168201915b5050505050905061437d67ff59d07e2e77964860c01b613142565b61439167019e286b7bb3454160c01b613142565b6000815111156143d3576143af67be7db99efc33d46260c01b613142565b6143c3673ad6e51d55b9897860c01b613142565b6143cc81614d40565b91506143e8565b6143e767a5a152c63a9df8de60c01b613142565b5b6143fc67e2c9427e6d86c53960c01b613142565b61441067544358ab239eee4460c01b613142565b8192505050919050565b6000614430670fb43b7cc9bf597860c01b6112e6565b61444467225e1d896b6070c360c01b6112e6565b61445867a3e3174c18c7e70160c01b6112e6565b6144a57f621363c539a3aa1024c8837ca1dc095db03b7f9512b3a95ecb429aae7fd953ed858585604051602001614491939291906168fe565b604051602081830303815290604052614e30565b90509392505050565b60006144c467a8025e080327595360c01b611e34565b6144d867527ef727f456fc6060c01b611e34565b6144ec67f6f0991f4f07cce960c01b611e34565b60006145018385614ead90919063ffffffff16565b905061451767662ff5a5d873edfe60c01b611e34565b61452b67efbf0f200fbb2edf60c01b611e34565b6000808273ffffffffffffffffffffffffffffffffffffffff1673ffffffffffffffffffffffffffffffffffffffff16815260200190815260200160002060009054906101000a900460ff1691505092915050565b61459467663f6a2be995409360c01b613142565b6145a8671f68c96bc535a2c760c01b613142565b6145bc67abc2adc7394dd6f160c01b613142565b6145d082603c6145cb846151b5565b6145d4565b5050565b6145e8679250d6a21105c96860c01b613142565b6145fc671c0e6e27fce3613860c01b613142565b614610673e55146b2c91ab7360c01b613142565b827f65412581168e88a1e60c6459d7f44ae83ad0832e670826c05a4e2476b57af7528383604051614642929190616f4b565b60405180910390a261465e672f986cf0465e63bc60c01b613142565b6146726744f17f90a03aba2260c01b613142565b603c8214156146fc5761468f671478f75f304fd74f60c01b613142565b6146a367ed3bd3d91e7572e860c01b613142565b6146b767a548691dc1652be560c01b613142565b827f52d7d861f09ab3d26239d492e8968629f95e9e318cf0b73bfddc441522a15fd26146e283614d40565b6040516146ef9190616a89565b60405180910390a2614711565b61471067b6c6589409f8421460c01b613142565b5b61472567d8075f2ec82d213b60c01b613142565b80600460008581526020019081526020016000206000848152602001908152602001600020908051906020019061475d92919061568c565b50505050565b61477767bddd7115df1af29a60c01b611e34565b61478b6701589f7184316ad060c01b611e34565b61479f6749aec7233e10dc1c60c01b611e34565b6147b3672afcf6fb9885dea660c01b611e34565b600073ffffffffffffffffffffffffffffffffffffffff168173ffffffffffffffffffffffffffffffffffffffff161415614823576040517f08c379a000000000000000000000000000000000000000000000000000000000815260040161481a90616cf0565b60405180910390fd5b61483767ad8ef681321284d460c01b611e34565b61484b67c072d78627d5e68760c01b611e34565b61485f672e6f6d5be899e1b060c01b611e34565b61487367608d488e1a35327760c01b611e34565b6000808273ffffffffffffffffffffffffffffffffffffffff1673ffffffffffffffffffffffffffffffffffffffff16815260200190815260200160002060009054906101000a900460ff16156148ff576040517f08c379a00000000000000000000000000000000000000000000000000000000081526004016148f690616e90565b60405180910390fd5b6149136778d9ddea333c93e160c01b611e34565b614927673e811494da954c4160c01b611e34565b60016000808373ffffffffffffffffffffffffffffffffffffffff1673ffffffffffffffffffffffffffffffffffffffff16815260200190815260200160002060006101000a81548160ff021916908315150217905550614992671acb4adf2a964aa160c01b611e34565b6149a667ff72d8ebc11c766260c01b611e34565b7fbc3292102fa77e083913064b282926717cdfaede4d35f553d66366c0a3da755a32826040516149d7929190616aa4565b60405180910390a150565b6149f667382b15100f1ea6e160c01b611e34565b614a0a67bc01750d57db35d060c01b611e34565b614a1e67e50faf3ab907f62c60c01b611e34565b600081511415614a7257614a3c677ef664711d6a7db260c01b611e34565b614a506758b5d7b8e62671d960c01b611e34565b614a64678cc441a589d12f3660c01b611e34565b614a6d32614763565b614b3b565b614a8667b5eaa5217834394c60c01b611e34565b614a9a67e1b8c0b401a26d9b60c01b611e34565b614aae6753d9b2baeb60c5ae60c01b611e34565b600081519050614ac867ac94bd2d4c55fae960c01b611e34565b614adc675e26d50e743751d260c01b611e34565b60005b81811015614b3857614afb67294278db644c36ac60c01b611e34565b614b0f67a81590e94526336860c01b611e34565b614b2b838281518110614b1e57fe5b6020026020010151614763565b8080600101915050614adf565b50505b50565b614b52679d7ccc1311d911f260c01b611042565b614b66675c759c22b9c661dc60c01b611042565b80600360006101000a81548173ffffffffffffffffffffffffffffffffffffffff021916908373ffffffffffffffffffffffffffffffffffffffff16021790555050565b6000614bc067f97596c145c2643c60c01b611042565b614bd467719767a6276b440260c01b611042565b614be867ff6cc0c52b772da360c01b611042565b6000614bfe67d55d1ee61f7caad060c01b611042565b614c1267e00ca364820461b760c01b611042565b614c1a615295565b15614ce357614c336752b2296e5485884f60c01b611042565b614c476731059657a58d110360c01b611042565b614c5b67d161cb06738c6bb060c01b611042565b6000836000369050039050614c7a678376598f1a6671ee60c01b611042565b614cdb60003683906014850192614c9393929190617022565b8080601f016020809104026020016040519081016040528093929190818152602001838380828437600081840152601f19601f82011690508083019250505050505050615460565b915050614d0f565b614cf767ed1fe281c58f00ab60c01b611042565b614d0b67c577249a47fbafbc60c01b611042565b3390505b614d2367d840d7f568e7e8f360c01b611042565b614d37672f41cc642398b43e60c01b611042565b80915050919050565b6000614d566756aed0102eeb47bf60c01b613142565b614d6a6795c652f7a7ab51b260c01b613142565b614d7e6748521a8ad30dbad460c01b613142565b6000614d9467cf68fde11e71037160c01b613142565b614da867dc38b4faca06b06c60c01b613142565b614dbc6707139f06efe74ded60c01b613142565b6014835114614dca57600080fd5b614dde67d0e906088b73dfe460c01b613142565b614df166d1318baac9319d60c01b613142565b600c6101000a6020840151049050614e13677eef6ba73a01f26260c01b613142565b614e2767bfead7b377e1926b60c01b613142565b80915050919050565b6000614e4667c28073c085c0cb9e60c01b613fc0565b614e5a6750c9eac71a66052560c01b613fc0565b614e6e674ea6a63c4a0ae5cf60c01b613fc0565b614ea5600254308585604051602001614e8a9493929190616a24565b6040516020818303038152906040528051906020012061558f565b905092915050565b6000614ec3676de89ac9109535f060c01b6155fb565b614ed76738f07d032b69a0cc60c01b6155fb565b614eeb679a56bd737f9ec1c160c01b6155fb565b6000614f016765ff8d1c809ca6df60c01b6155fb565b614f1567b385de3f7dcc346760c01b6155fb565b60418351141561516e57614f3367166e15f83f23170a60c01b6155fb565b614f4767cd2d9c240be0a33460c01b6155fb565b614f5b671b08267e2ace419660c01b6155fb565b6000614f71676bf79a26a2eb360d60c01b6155fb565b614f8567f6aaa0b497d5b8c960c01b6155fb565b6000614f9b67e3bb8ebb94b2557260c01b6155fb565b614faf6761e42a107c3e2f3560c01b6155fb565b6000614fc567629bbeea2d8dae6c60c01b6155fb565b6020860151925060408601519150606086015160001a9050614ff167c96eccbfec13453b60c01b6155fb565b615005670614339e5785cdba60c01b6155fb565b601b8160ff1610156150445761502567c25e4db51759311e60c01b6155fb565b6150396794a576c495e47bde60c01b6155fb565b601b81019050615059565b61505867b3c223547babc39660c01b6155fb565b5b61506d676b258761bdd66fe460c01b6155fb565b6150816744f25d0fe4c8b73f60c01b6155fb565b601b8160ff161480156150a457506150a36787b517281dd8e34760c01b6155fe565b5b806150ce5750601c8160ff161480156150cd57506150cc67faa29d490ca62b7160c01b6155fe565b5b5b15615151576150e767a5480a7163bbe5f160c01b6155fb565b6150fb67aee28416a483519060c01b6155fb565b6001878285856040516000815260200160405260405161511e9493929190616ba8565b6020604051602081039080840390855afa158015615140573d6000803e3d6000fd5b505050602060405103519350615166565b615165672ad4d87bf39029de60c01b6155fb565b5b505050615183565b615182675c61079943debe0c60c01b6155fb565b5b6151976787ceeaaf3f2a20f460c01b6155fb565b6151ab67d9e6bd7b8159092260c01b6155fb565b8091505092915050565b60606151cb6741f0b1afb83f92ba60c01b613142565b6151df67a8ea3f8cade9524b60c01b613142565b6151f367373748614b96a6f660c01b613142565b6060601467ffffffffffffffff8111801561520d57600080fd5b506040519080825280601f01601f1916602001820160405280156152405781602001600182028036833780820191505090505b50905061525767547e9f5fb0b9eee960c01b613142565b600c6101000a83026020820152615278679b72a8dd1459faf860c01b613142565b61528c67379f7c2b31e2bcda60c01b613142565b80915050919050565b60006152ab67b24a756293c07fff60c01b611042565b6152bf67fad27be25666a35560c01b611042565b6152d367d5c957d7e9ed371260c01b611042565b60006152e967780739a1dcfdcb2960c01b611042565b6152fd67c2c61d022ff8fe9c60c01b611042565b600360009054906101000a900473ffffffffffffffffffffffffffffffffffffffff1673ffffffffffffffffffffffffffffffffffffffff163373ffffffffffffffffffffffffffffffffffffffff16141561541c5761536767a838fa7fccd80d5f60c01b611042565b61537b6718d71566f06a2d5960c01b611042565b61538f6719ef867e8bf1060d60c01b611042565b6153a3679d0e513a971c0b6160c01b611042565b602c600036905010156153eb576040517f08c379a00000000000000000000000000000000000000000000000000000000081526004016153e290616d70565b60405180910390fd5b6153ff678edf6ceda73addb260c01b611042565b6154136787211d918602887760c01b611042565b60019050615431565b615430675539c133ed18bde460c01b611042565b5b6154456740acee34bffbf2ec60c01b611042565b61545967908c3807aad70fcf60c01b611042565b8091505090565b60006154766745fe888f961edf9060c01b615609565b61548a67c128e14c9960586c60c01b615609565b61549e679e4addf985cabeb360c01b615609565b60006154b467aab182be3934d1bf60c01b615609565b6154c867339143ce5b10bc7a60c01b615609565b6154dc67e0ac55f3b55d06d860c01b615609565b6014835114615520576040517f08c379a000000000000000000000000000000000000000000000000000000000815260040161551790616ed0565b60405180910390fd5b61553467eea605de5a7e45e660c01b615609565b61554867df87c6a35e4a5c0d60c01b615609565b6c010000000000000000000000006020840151049050615572670ed0f5a70872476160c01b615609565b6155866746c545de0ca3a1af60c01b615609565b80915050919050565b60006155a567287daf59cba0d52b60c01b6155fb565b6155b9670696666c2d7382a160c01b6155fb565b6155cd670b7cc4199c01f54560c01b6155fb565b816040516020016155de9190616995565b604051602081830303815290604052805190602001209050919050565b50565b600060019050919050565b50565b828054600181600116156101000203166002900490600052602060002090601f016020900481019282601f1061564d57803560ff191683800117855561567b565b8280016001018555821561567b579182015b8281111561567a57823582559160200191906001019061565f565b5b509050615688919061570c565b5090565b828054600181600116156101000203166002900490600052602060002090601f016020900481019282601f106156cd57805160ff19168380011785556156fb565b828001600101855582156156fb579182015b828111156156fa5782518255916020019190600101906156df565b5b509050615708919061570c565b5090565b5b8082111561572557600081600090555060010161570d565b5090565b60008135905061573881617236565b92915050565b60008151905061574d81617236565b92915050565b60008083601f84011261576557600080fd5b8235905067ffffffffffffffff81111561577e57600080fd5b60208301915083602082028301111561579657600080fd5b9250929050565b6000813590506157ac8161724d565b92915050565b6000813590506157c181617264565b92915050565b6000813590506157d68161727b565b92915050565b60008083601f8401126157ee57600080fd5b8235905067ffffffffffffffff81111561580757600080fd5b60208301915083600182028301111561581f57600080fd5b9250929050565b600082601f83011261583757600080fd5b813561584a61584582616fa8565b616f7b565b9150808252602083016020830185838301111561586657600080fd5b61587183828461719e565b50505092915050565b60008135905061588981617292565b92915050565b60008083601f8401126158a157600080fd5b8235905067ffffffffffffffff8111156158ba57600080fd5b6020830191508360018202830111156158d257600080fd5b9250929050565b6000606082840312156158eb57600080fd5b6158f56060616f7b565b9050600061590584828501615729565b60008301525060206159198482850161579d565b602083015250604061592d8482850161579d565b60408301525092915050565b600081359050615948816172a9565b92915050565b60006020828403121561596057600080fd5b600061596e84828501615729565b91505092915050565b60006020828403121561598957600080fd5b60006159978482850161573e565b91505092915050565b6000602082840312156159b257600080fd5b60006159c08482850161579d565b91505092915050565b600080604083850312156159dc57600080fd5b60006159ea8582860161579d565b92505060206159fb85828601615729565b9150509250929050565b600080600060608486031215615a1a57600080fd5b6000615a288682870161579d565b9350506020615a398682870161579d565b9250506040615a4a8682870161579d565b9150509250925092565b60008060008060608587031215615a6a57600080fd5b6000615a788782880161579d565b9450506020615a898782880161579d565b935050604085013567ffffffffffffffff811115615aa657600080fd5b615ab2878288016157dc565b925092505092959194509250565b600080600060408486031215615ad557600080fd5b6000615ae38682870161579d565b935050602084013567ffffffffffffffff811115615b0057600080fd5b615b0c868287016157dc565b92509250509250925092565b600080600060408486031215615b2d57600080fd5b6000615b3b8682870161579d565b935050602084013567ffffffffffffffff811115615b5857600080fd5b615b648682870161588f565b92509250509250925092565b600080600080600060608688031215615b8857600080fd5b6000615b968882890161579d565b955050602086013567ffffffffffffffff811115615bb357600080fd5b615bbf8882890161588f565b9450945050604086013567ffffffffffffffff811115615bde57600080fd5b615bea8882890161588f565b92509250509295509295909350565b60008060408385031215615c0c57600080fd5b6000615c1a8582860161579d565b9250506020615c2b85828601615939565b9150509250929050565b600080600060608486031215615c4a57600080fd5b6000615c588682870161579d565b9350506020615c6986828701615939565b925050604084013567ffffffffffffffff811115615c8657600080fd5b615c9286828701615826565b9150509250925092565b600060208284031215615cae57600080fd5b6000615cbc848285016157b2565b91505092915050565b600060208284031215615cd757600080fd5b6000615ce5848285016157c7565b91505092915050565b600060208284031215615d0057600080fd5b6000615d0e8482850161587a565b91505092915050565b60008060008060608587031215615d2d57600080fd5b6000615d3b8782880161587a565b945050602085013567ffffffffffffffff811115615d5857600080fd5b615d6487828801615753565b93509350506040615d7787828801615729565b91505092959194509250565b600060608284031215615d9557600080fd5b6000615da3848285016158d9565b91505092915050565b615db581617132565b82525050565b615dc481617055565b82525050565b615ddb615dd682617055565b6171e0565b82525050565b615dea81617067565b82525050565b615df981617073565b82525050565b615e10615e0b82617073565b6171f2565b82525050565b6000615e2182616fd4565b615e2b8185616fea565b9350615e3b8185602086016171ad565b615e4481617218565b840191505092915050565b6000615e5a82616fd4565b615e648185616ffb565b9350615e748185602086016171ad565b80840191505092915050565b615e8981617144565b82525050565b615e9881617168565b82525050565b6000615eaa8385617006565b9350615eb783858461719e565b615ec083617218565b840190509392505050565b6000615ed78385617017565b9350615ee483858461719e565b82840190509392505050565b6000615efb82616fdf565b615f058185617006565b9350615f158185602086016171ad565b615f1e81617218565b840191505092915050565b6000615f36601983617017565b91507f737570706f727473496e746572666163652862797465733429000000000000006000830152601982019050919050565b6000615f76602483617006565b91507f454e53436f6e74726f6c6c65723a20696e76616c6964206e6f6465207265736f60008301527f6c766572000000000000000000000000000000000000000000000000000000006020830152604082019050919050565b6000615fdc602183617006565b91507f454e53436f6e74726f6c6c65723a20696e76616c6964206e6f6465206f776e6560008301527f72000000000000000000000000000000000000000000000000000000000000006020830152604082019050919050565b6000616042602983617006565b91507f454e53436f6e74726f6c6c65723a20696e76616c696420677561726469616e2060008301527f7369676e617475726500000000000000000000000000000000000000000000006020830152604082019050919050565b60006160a8602283617006565b91507f454e53436f6e74726f6c6c65723a206c6162656c20616c72656164792074616b60008301527f656e0000000000000000000000000000000000000000000000000000000000006020830152604082019050919050565b600061610e601c83617017565b91507f19457468657265756d205369676e6564204d6573736167653a0a3332000000006000830152601c82019050919050565b600061614e602083617006565b91507f477561726465643a2063616e6e6f74206164642030783020677561726469616e6000830152602082019050919050565b600061618e602f83617006565b91507f496e697469616c697a61626c653a2074782e6f726967696e206973206e6f742060008301527f74686520696e697469616c697a657200000000000000000000000000000000006020830152604082019050919050565b60006161f4600d83617017565b91507f61646472286279746573333229000000000000000000000000000000000000006000830152600d82019050919050565b6000616234601b83617006565b91507f454e53436f6e74726f6c6c65723a20696e76616c6964206e6f646500000000006000830152602082019050919050565b6000616274602183617006565b91507f454e53436f6e74726f6c6c65723a206e6f646520646f65736e2774206578697360008301527f74000000000000000000000000000000000000000000000000000000000000006020830152604082019050919050565b60006162da602283617006565b91507f47617465776179526563697069656e743a20696e76616c6964206d73672e646160008301527f74610000000000000000000000000000000000000000000000000000000000006020830152604082019050919050565b6000616340601483617017565b91507f7465787428627974657333322c737472696e67290000000000000000000000006000830152601482019050919050565b6000616380600d83617017565b91507f6e616d65286279746573333229000000000000000000000000000000000000006000830152600d82019050919050565b60006163c0602b83617006565b91507f454e53436f6e74726f6c6c65723a2063616c6c6572206973206e6f742074686560008301527f206e6f6465206f776e65720000000000000000000000000000000000000000006020830152604082019050919050565b6000616426602683617006565b91507f477561726465643a2074782e6f726967696e206973206e6f742074686520677560008301527f61726469616e00000000000000000000000000000000000000000000000000006020830152604082019050919050565b600061648c602683617006565b91507f454e53436f6e74726f6c6c65723a2063616e6e6f74207365742030783020726560008301527f67697374727900000000000000000000000000000000000000000000000000006020830152604082019050919050565b60006164f2602583617006565b91507f454e53436f6e74726f6c6c65723a206e6f646520616c7265616479207375626d60008301527f69747465640000000000000000000000000000000000000000000000000000006020830152604082019050919050565b6000616558600f83617017565b91507f7075626b657928627974657333322900000000000000000000000000000000006000830152600f82019050919050565b6000616598602283617006565b91507f454e53436f6e74726f6c6c65723a206e6f646520616c7265616479206578697360008301527f74730000000000000000000000000000000000000000000000000000000000006020830152604082019050919050565b60006165fe602383617006565b91507f454e53436f6e74726f6c6c65723a206e6f646520616c726561647920696e207360008301527f796e6300000000000000000000000000000000000000000000000000000000006020830152604082019050919050565b6000616664601f83617006565b91507f477561726465643a20677561726469616e20646f65736e2774206578697374006000830152602082019050919050565b60006166a4602583617006565b91507f454e53436f6e74726f6c6c65723a20696e76616c696420656e73206e6f64652060008301527f6f776e65720000000000000000000000000000000000000000000000000000006020830152604082019050919050565b600061670a602083617006565b91507f477561726465643a20677561726469616e20616c7265616479206578697374736000830152602082019050919050565b600061674a601b83617006565b91507f477561726465643a2063616e6e6f742072656d6f76652073656c6600000000006000830152602082019050919050565b600061678a601d83617006565b91507f42797465734c69623a20696e76616c69642064617461206c656e6774680000006000830152602082019050919050565b60006167ca603783617006565b91507f454e5341627374726163745265736f6c7665723a20726576657274656420627960008301527f206f6e6c794e6f64654f776e6572206d6f6469666965720000000000000000006020830152604082019050919050565b6000616830601283617017565b91507f6164647228627974657333322c75696e742900000000000000000000000000006000830152601282019050919050565b6000616870602383617006565b91507f454e53436f6e74726f6c6c65723a20726567697374727920616c72656164792060008301527f73657400000000000000000000000000000000000000000000000000000000006020830152604082019050919050565b6168d281617107565b82525050565b6168e96168e482617107565b61720e565b82525050565b6168f881617125565b82525050565b600061690a8286615dca565b60148201915061691a8285615dff565b60208201915061692a8284615dff565b602082019150819050949350505050565b60006169478285615dff565b6020820191506169578284615dff565b6020820191508190509392505050565b6000616974828486615ecb565b91508190509392505050565b600061698b82615f29565b9150819050919050565b60006169a082616101565b91506169ac8284615dff565b60208201915081905092915050565b60006169c6826161e7565b9150819050919050565b60006169db82616333565b9150819050919050565b60006169f082616373565b9150819050919050565b6000616a058261654b565b9150819050919050565b6000616a1a82616823565b9150819050919050565b6000616a3082876168d8565b602082019150616a408286615dca565b601482019150616a508285615dff565b602082019150616a608284615e4f565b915081905095945050505050565b6000602082019050616a836000830184615dbb565b92915050565b6000602082019050616a9e6000830184615dac565b92915050565b6000604082019050616ab96000830185615dac565b616ac66020830184615dbb565b9392505050565b6000602082019050616ae26000830184615de1565b92915050565b6000602082019050616afd6000830184615df0565b92915050565b6000604082019050616b186000830185615df0565b616b256020830184615dbb565b9392505050565b6000604082019050616b416000830185615df0565b616b4e6020830184615df0565b9392505050565b600060a082019050616b6a6000830188615df0565b616b776020830187615df0565b616b846040830186615dbb565b616b916060830185615dbb565b616b9e6080830184615e8f565b9695505050505050565b6000608082019050616bbd6000830187615df0565b616bca60208301866168ef565b616bd76040830185615df0565b616be46060830184615df0565b95945050505050565b60006020820190508181036000830152616c078184615e16565b905092915050565b6000602082019050616c246000830184615e80565b92915050565b60006020820190508181036000830152616c45818486615e9e565b90509392505050565b60006020820190508181036000830152616c688184615ef0565b905092915050565b60006020820190508181036000830152616c8981615f69565b9050919050565b60006020820190508181036000830152616ca981615fcf565b9050919050565b60006020820190508181036000830152616cc981616035565b9050919050565b60006020820190508181036000830152616ce98161609b565b9050919050565b60006020820190508181036000830152616d0981616141565b9050919050565b60006020820190508181036000830152616d2981616181565b9050919050565b60006020820190508181036000830152616d4981616227565b9050919050565b60006020820190508181036000830152616d6981616267565b9050919050565b60006020820190508181036000830152616d89816162cd565b9050919050565b60006020820190508181036000830152616da9816163b3565b9050919050565b60006020820190508181036000830152616dc981616419565b9050919050565b60006020820190508181036000830152616de98161647f565b9050919050565b60006020820190508181036000830152616e09816164e5565b9050919050565b60006020820190508181036000830152616e298161658b565b9050919050565b60006020820190508181036000830152616e49816165f1565b9050919050565b60006020820190508181036000830152616e6981616657565b9050919050565b60006020820190508181036000830152616e8981616697565b9050919050565b60006020820190508181036000830152616ea9816166fd565b9050919050565b60006020820190508181036000830152616ec98161673d565b9050919050565b60006020820190508181036000830152616ee98161677d565b9050919050565b60006020820190508181036000830152616f09816167bd565b9050919050565b60006020820190508181036000830152616f2981616863565b9050919050565b6000602082019050616f4560008301846168c9565b92915050565b6000604082019050616f6060008301856168c9565b8181036020830152616f728184615e16565b90509392505050565b6000604051905081810181811067ffffffffffffffff82111715616f9e57600080fd5b8060405250919050565b600067ffffffffffffffff821115616fbf57600080fd5b601f19601f8301169050602081019050919050565b600081519050919050565b600081519050919050565b600082825260208201905092915050565b600081905092915050565b600082825260208201905092915050565b600081905092915050565b6000808585111561703257600080fd5b8386111561703f57600080fd5b6001850283019150848603905094509492505050565b6000617060826170e7565b9050919050565b60008115159050919050565b6000819050919050565b60007fffffffff0000000000000000000000000000000000000000000000000000000082169050919050565b60007fffffffffffffffff00000000000000000000000000000000000000000000000082169050919050565b60006170e082617055565b9050919050565b600073ffffffffffffffffffffffffffffffffffffffff82169050919050565b6000819050919050565b600067ffffffffffffffff82169050919050565b600060ff82169050919050565b600061713d8261717a565b9050919050565b600061714f82617156565b9050919050565b6000617161826170e7565b9050919050565b600061717382617111565b9050919050565b60006171858261718c565b9050919050565b6000617197826170e7565b9050919050565b82818337600083830152505050565b60005b838110156171cb5780820151818401526020810190506171b0565b838111156171da576000848401525b50505050565b60006171eb826171fc565b9050919050565b6000819050919050565b600061720782617229565b9050919050565b6000819050919050565b6000601f19601f8301169050919050565b60008160601b9050919050565b61723f81617055565b811461724a57600080fd5b50565b61725681617073565b811461726157600080fd5b50565b61726d8161707d565b811461727857600080fd5b50565b617284816170a9565b811461728f57600080fd5b50565b61729b816170d5565b81146172a657600080fd5b50565b6172b281617107565b81146172bd57600080fd5b5056fea164736f6c634300060c000a",
  "linkReferences": {},
  "deployedLinkReferences": {}
}