{
  "_format": "hh-sol-artifact-1",
  "contractName": "ENSController",
  "sourceName": "src/ens/ENSController.sol",
  "abi": [
    {
      "inputs": [],
      "stateMutability": "nonpayable",
      "type": "constructor"
    },
    {
      "anonymous": false,
      "inputs": [
        {
          "indexed": true,
          "internalType": "bytes32",
          "name": "node",
          "type": "bytes32"
        },
        {
          "indexed": false,
          "internalType": "address",
          "name": "addr",
          "type": "address"
        }
      ],
      "name": "AddrChanged",
      "type": "event"
    },
    {
      "anonymous": false,
      "inputs": [
        {
          "indexed": true,
          "internalType": "bytes32",
          "name": "node",
          "type": "bytes32"
        },
        {
          "indexed": false,
          "internalType": "uint256",
          "name": "coinType",
          "type": "uint256"
        },
        {
          "indexed": false,
          "internalType": "bytes",
          "name": "newAddress",
          "type": "bytes"
        }
      ],
      "name": "AddressChanged",
      "type": "event"
    },
    {
      "anonymous": false,
      "inputs": [
        {
          "indexed": false,
          "internalType": "address",
          "name": "sender",
          "type": "address"
        },
        {
          "indexed": false,
          "internalType": "address",
          "name": "guardian",
          "type": "address"
        }
      ],
      "name": "GuardianAdded",
      "type": "event"
    },
    {
      "anonymous": false,
      "inputs": [
        {
          "indexed": false,
          "internalType": "address",
          "name": "sender",
          "type": "address"
        },
        {
          "indexed": false,
          "internalType": "address",
          "name": "guardian",
          "type": "address"
        }
      ],
      "name": "GuardianRemoved",
      "type": "event"
    },
    {
      "anonymous": false,
      "inputs": [
        {
          "indexed": false,
          "internalType": "address",
          "name": "initializer",
          "type": "address"
        }
      ],
      "name": "Initialized",
      "type": "event"
    },
    {
      "anonymous": false,
      "inputs": [
        {
          "indexed": true,
          "internalType": "bytes32",
          "name": "node",
          "type": "bytes32"
        },
        {
          "indexed": false,
          "internalType": "string",
          "name": "name",
          "type": "string"
        }
      ],
      "name": "NameChanged",
      "type": "event"
    },
    {
      "anonymous": false,
      "inputs": [
        {
          "indexed": false,
          "internalType": "bytes32",
          "name": "node",
          "type": "bytes32"
        },
        {
          "indexed": false,
          "internalType": "address",
          "name": "owner",
          "type": "address"
        }
      ],
      "name": "NodeReleased",
      "type": "event"
    },
    {
      "anonymous": false,
      "inputs": [
        {
          "indexed": false,
          "internalType": "bytes32",
          "name": "node",
          "type": "bytes32"
        },
        {
          "indexed": false,
          "internalType": "address",
          "name": "owner",
          "type": "address"
        }
      ],
      "name": "NodeSubmitted",
      "type": "event"
    },
    {
      "anonymous": false,
      "inputs": [
        {
          "indexed": false,
          "internalType": "bytes32",
          "name": "node",
          "type": "bytes32"
        }
      ],
      "name": "NodeVerified",
      "type": "event"
    },
    {
      "anonymous": false,
      "inputs": [
        {
          "indexed": true,
          "internalType": "bytes32",
          "name": "node",
          "type": "bytes32"
        },
        {
          "indexed": false,
          "internalType": "bytes32",
          "name": "x",
          "type": "bytes32"
        },
        {
          "indexed": false,
          "internalType": "bytes32",
          "name": "y",
          "type": "bytes32"
        }
      ],
      "name": "PubkeyChanged",
      "type": "event"
    },
    {
      "anonymous": false,
      "inputs": [
        {
          "indexed": false,
          "internalType": "address",
          "name": "registry",
          "type": "address"
        }
      ],
      "name": "RegistryChanged",
      "type": "event"
    },
    {
      "anonymous": false,
      "inputs": [
        {
          "indexed": true,
          "internalType": "bytes32",
          "name": "node",
          "type": "bytes32"
        },
        {
          "indexed": true,
          "internalType": "string",
          "name": "indexedKey",
          "type": "string"
        },
        {
          "indexed": false,
          "internalType": "string",
          "name": "key",
          "type": "string"
        }
      ],
      "name": "TextChanged",
      "type": "event"
    },
    {
      "inputs": [
        {
          "internalType": "address",
          "name": "guardian",
          "type": "address"
        }
      ],
      "name": "addGuardian",
      "outputs": [],
      "stateMutability": "nonpayable",
      "type": "function"
    },
    {
      "inputs": [
        {
          "internalType": "bytes32",
          "name": "node",
          "type": "bytes32"
        }
      ],
      "name": "addr",
      "outputs": [
        {
          "internalType": "address",
          "name": "",
          "type": "address"
        }
      ],
      "stateMutability": "view",
      "type": "function"
    },
    {
      "inputs": [
        {
          "internalType": "bytes32",
          "name": "node",
          "type": "bytes32"
        },
        {
          "internalType": "uint256",
          "name": "coinType",
          "type": "uint256"
        }
      ],
      "name": "addr",
      "outputs": [
        {
          "internalType": "bytes",
          "name": "",
          "type": "bytes"
        }
      ],
      "stateMutability": "view",
      "type": "function"
    },
    {
      "inputs": [],
      "name": "chainId",
      "outputs": [
        {
          "internalType": "uint256",
          "name": "",
          "type": "uint256"
        }
      ],
      "stateMutability": "view",
      "type": "function"
    },
    {
      "inputs": [],
      "name": "gateway",
      "outputs": [
        {
          "internalType": "address",
          "name": "",
          "type": "address"
        }
      ],
      "stateMutability": "view",
      "type": "function"
    },
    {
      "inputs": [
        {
          "components": [
            {
              "internalType": "address",
              "name": "account",
              "type": "address"
            },
            {
              "internalType": "bytes32",
              "name": "node",
              "type": "bytes32"
            },
            {
              "internalType": "bytes32",
              "name": "label",
              "type": "bytes32"
            }
          ],
          "internalType": "struct ENSController.SubNodeRegistration",
          "name": "subNodeRegistration",
          "type": "tuple"
        }
      ],
      "name": "hashSubNodeRegistration",
      "outputs": [
        {
          "internalType": "bytes32",
          "name": "",
          "type": "bytes32"
        }
      ],
      "stateMutability": "view",
      "type": "function"
    },
    {
      "inputs": [
        {
          "internalType": "contract ENSRegistry",
          "name": "registry_",
          "type": "address"
        },
        {
          "internalType": "address[]",
          "name": "guardians_",
          "type": "address[]"
        },
        {
          "internalType": "address",
          "name": "gateway_",
          "type": "address"
        }
      ],
      "name": "initialize",
      "outputs": [],
      "stateMutability": "nonpayable",
      "type": "function"
    },
    {
      "inputs": [
        {
          "internalType": "address",
          "name": "guardian",
          "type": "address"
        }
      ],
      "name": "isGuardian",
      "outputs": [
        {
          "internalType": "bool",
          "name": "",
          "type": "bool"
        }
      ],
      "stateMutability": "view",
      "type": "function"
    },
    {
      "inputs": [],
      "name": "isInitialized",
      "outputs": [
        {
          "internalType": "bool",
          "name": "",
          "type": "bool"
        }
      ],
      "stateMutability": "view",
      "type": "function"
    },
    {
      "inputs": [
        {
          "internalType": "bytes32",
          "name": "node",
          "type": "bytes32"
        }
      ],
      "name": "name",
      "outputs": [
        {
          "internalType": "string",
          "name": "",
          "type": "string"
        }
      ],
      "stateMutability": "view",
      "type": "function"
    },
    {
      "inputs": [
        {
          "internalType": "bytes32",
          "name": "",
          "type": "bytes32"
        }
      ],
      "name": "nodeOwners",
      "outputs": [
        {
          "internalType": "address",
          "name": "",
          "type": "address"
        }
      ],
      "stateMutability": "view",
      "type": "function"
    },
    {
      "inputs": [
        {
          "internalType": "bytes32",
          "name": "node",
          "type": "bytes32"
        }
      ],
      "name": "pubkey",
      "outputs": [
        {
          "internalType": "bytes32",
          "name": "x",
          "type": "bytes32"
        },
        {
          "internalType": "bytes32",
          "name": "y",
          "type": "bytes32"
        }
      ],
      "stateMutability": "view",
      "type": "function"
    },
    {
      "inputs": [
        {
          "internalType": "bytes32",
          "name": "node",
          "type": "bytes32"
        },
        {
          "internalType": "bytes32",
          "name": "label",
          "type": "bytes32"
        },
        {
          "internalType": "bytes",
          "name": "guardianSignature",
          "type": "bytes"
        }
      ],
      "name": "registerSubNode",
      "outputs": [],
      "stateMutability": "nonpayable",
      "type": "function"
    },
    {
      "inputs": [],
      "name": "registry",
      "outputs": [
        {
          "internalType": "contract ENSRegistry",
          "name": "",
          "type": "address"
        }
      ],
      "stateMutability": "view",
      "type": "function"
    },
    {
      "inputs": [
        {
          "internalType": "bytes32",
          "name": "node",
          "type": "bytes32"
        }
      ],
      "name": "releaseNode",
      "outputs": [],
      "stateMutability": "nonpayable",
      "type": "function"
    },
    {
      "inputs": [
        {
          "internalType": "address",
          "name": "guardian",
          "type": "address"
        }
      ],
      "name": "removeGuardian",
      "outputs": [],
      "stateMutability": "nonpayable",
      "type": "function"
    },
    {
      "inputs": [
        {
          "internalType": "bytes32",
          "name": "node",
          "type": "bytes32"
        },
        {
          "internalType": "uint256",
          "name": "coinType",
          "type": "uint256"
        },
        {
          "internalType": "bytes",
          "name": "addr_",
          "type": "bytes"
        }
      ],
      "name": "setAddr",
      "outputs": [],
      "stateMutability": "nonpayable",
      "type": "function"
    },
    {
      "inputs": [
        {
          "internalType": "bytes32",
          "name": "node",
          "type": "bytes32"
        },
        {
          "internalType": "address",
          "name": "addr_",
          "type": "address"
        }
      ],
      "name": "setAddr",
      "outputs": [],
      "stateMutability": "nonpayable",
      "type": "function"
    },
    {
      "inputs": [
        {
          "internalType": "bytes32",
          "name": "node",
          "type": "bytes32"
        },
        {
          "internalType": "string",
          "name": "name",
          "type": "string"
        }
      ],
      "name": "setName",
      "outputs": [],
      "stateMutability": "nonpayable",
      "type": "function"
    },
    {
      "inputs": [
        {
          "internalType": "bytes32",
          "name": "node",
          "type": "bytes32"
        },
        {
          "internalType": "bytes32",
          "name": "x",
          "type": "bytes32"
        },
        {
          "internalType": "bytes32",
          "name": "y",
          "type": "bytes32"
        }
      ],
      "name": "setPubkey",
      "outputs": [],
      "stateMutability": "nonpayable",
      "type": "function"
    },
    {
      "inputs": [
        {
          "internalType": "contract ENSRegistry",
          "name": "registry_",
          "type": "address"
        }
      ],
      "name": "setRegistry",
      "outputs": [],
      "stateMutability": "nonpayable",
      "type": "function"
    },
    {
      "inputs": [
        {
          "internalType": "bytes32",
          "name": "node",
          "type": "bytes32"
        },
        {
          "internalType": "string",
          "name": "key",
          "type": "string"
        },
        {
          "internalType": "string",
          "name": "value",
          "type": "string"
        }
      ],
      "name": "setText",
      "outputs": [],
      "stateMutability": "nonpayable",
      "type": "function"
    },
    {
      "inputs": [
        {
          "internalType": "bytes32",
          "name": "node",
          "type": "bytes32"
        }
      ],
      "name": "submitNode",
      "outputs": [],
      "stateMutability": "nonpayable",
      "type": "function"
    },
    {
      "inputs": [
        {
          "internalType": "bytes4",
          "name": "interfaceID",
          "type": "bytes4"
        }
      ],
      "name": "supportsInterface",
      "outputs": [
        {
          "internalType": "bool",
          "name": "",
          "type": "bool"
        }
      ],
      "stateMutability": "pure",
      "type": "function"
    },
    {
      "inputs": [
        {
          "internalType": "bytes32",
          "name": "node",
          "type": "bytes32"
        }
      ],
      "name": "syncAddr",
      "outputs": [],
      "stateMutability": "nonpayable",
      "type": "function"
    },
    {
      "inputs": [
        {
          "internalType": "bytes32",
          "name": "node",
          "type": "bytes32"
        },
        {
          "internalType": "string",
          "name": "key",
          "type": "string"
        }
      ],
      "name": "text",
      "outputs": [
        {
          "internalType": "string",
          "name": "",
          "type": "string"
        }
      ],
      "stateMutability": "view",
      "type": "function"
    },
    {
      "inputs": [
        {
          "internalType": "bytes32",
          "name": "messageHash",
          "type": "bytes32"
        },
        {
          "internalType": "bytes",
          "name": "signature",
          "type": "bytes"
        }
      ],
      "name": "verifyGuardianSignature",
      "outputs": [
        {
          "internalType": "bool",
          "name": "",
          "type": "bool"
        }
      ],
      "stateMutability": "view",
      "type": "function"
    },
    {
      "inputs": [
        {
          "internalType": "bytes32",
          "name": "node",
          "type": "bytes32"
        }
      ],
      "name": "verifyNode",
      "outputs": [],
      "stateMutability": "nonpayable",
      "type": "function"
    }
  ],
  "bytecode": "0x608060405234801561001057600080fd5b5032600160006101000a81548173ffffffffffffffffffffffffffffffffffffffff021916908373ffffffffffffffffffffffffffffffffffffffff160217905550600046905080600281905550506149a98061006e6000396000f3fe608060405234801561001057600080fd5b50600436106101c45760003560e01c806371404156116100f9578063a91ee0dc11610097578063d0f710d611610071578063d0f710d614610512578063d5fa2b0014610542578063dc5b68a61461055e578063f1cb7e061461057a576101c4565b8063a91ee0dc146104a9578063c8690233146104c5578063c8cc2aee146104f6576101c4565b80637d0e0e7e116100d35780637d0e0e7e146104375780638b95dd71146104535780639a8a05921461046f578063a526d83b1461048d576101c4565b806371404156146103e157806377372213146103fd5780637b10399914610419576101c4565b8063392e53cd1161016657806355800f871161014057806355800f871461033557806359d1d43c14610351578063691f3431146103815780636df0cf42146103b1576101c4565b8063392e53cd146102cb5780633b3b57de146102e957806346386f7314610319576101c4565b8063116191b6116101a2578063116191b6146102455780631b3cd1421461026357806329ae6a7e1461029357806329cd62ea146102af576101c4565b806301ffc9a7146101c95780630c68ba21146101f957806310f13a8c14610229575b600080fd5b6101e360048036038101906101de91906133d3565b6105aa565b6040516101f091906141ec565b60405180910390f35b610213600480360381019061020e9190613085565b610834565b60405161022091906141ec565b60405180910390f35b610243600480360381019061023e91906132a7565b610889565b005b61024d61096d565b60405161025a9190614156565b60405180910390f35b61027d600480360381019061027891906130d7565b610993565b60405161028a9190614156565b60405180910390f35b6102ad60048036038101906102a891906130d7565b6109c6565b005b6102c960048036038101906102c4919061313c565b610beb565b005b6102d3610cb3565b6040516102e091906141ec565b60405180910390f35b61030360048036038101906102fe91906130d7565b610d0b565b6040516103109190614156565b60405180910390f35b610333600480360381019061032e919061318b565b610d1d565b005b61034f600480360381019061034a91906130d7565b611017565b005b61036b6004803603810190610366919061324f565b6112d8565b604051610378919061436d565b60405180910390f35b61039b600480360381019061039691906130d7565b6113ad565b6040516103a8919061436d565b60405180910390f35b6103cb60048036038101906103c69190613491565b611462565b6040516103d89190614207565b60405180910390f35b6103fb60048036038101906103f69190613085565b611482565b005b6104176004803603810190610412919061324f565b61169a565b005b610421611746565b60405161042e919061432e565b60405180910390f35b610451600480360381019061044c91906130d7565b61176c565b005b61046d6004803603810190610468919061336c565b611a38565b005b610477611a92565b604051610484919061464f565b60405180910390f35b6104a760048036038101906104a29190613085565b611a98565b005b6104c360048036038101906104be91906133fc565b611b2f565b005b6104df60048036038101906104da91906130d7565b611d58565b6040516104ed92919061424b565b60405180910390f35b610510600480360381019061050b91906130d7565b611d92565b005b61052c600480360381019061052791906131f7565b6120a2565b60405161053991906141ec565b60405180910390f35b61055c60048036038101906105579190613100565b6120fb565b005b61057860048036038101906105739190613425565b612153565b005b610594600480360381019061058f9190613330565b612366565b6040516105a1919061430c565b60405180910390f35b60006040516020016105bb9061406c565b604051602081830303815290604052805190602001207bffffffffffffffffffffffffffffffffffffffffffffffffffffffff1916827bffffffffffffffffffffffffffffffffffffffffffffffffffffffff1916148061067d5750604051602001610626906140a3565b604051602081830303815290604052805190602001207bffffffffffffffffffffffffffffffffffffffffffffffffffffffff1916827bffffffffffffffffffffffffffffffffffffffffffffffffffffffff1916145b806106e95750604051602001610692906140f7565b604051602081830303815290604052805190602001207bffffffffffffffffffffffffffffffffffffffffffffffffffffffff1916827bffffffffffffffffffffffffffffffffffffffffffffffffffffffff1916145b8061075557506040516020016106fe906140cd565b604051602081830303815290604052805190602001207bffffffffffffffffffffffffffffffffffffffffffffffffffffffff1916827bffffffffffffffffffffffffffffffffffffffffffffffffffffffff1916145b806107c1575060405160200161076a906140e2565b604051602081830303815290604052805190602001207bffffffffffffffffffffffffffffffffffffffffffffffffffffffff1916827bffffffffffffffffffffffffffffffffffffffffffffffffffffffff1916145b8061082d57506040516020016107d6906140b8565b604051602081830303815290604052805190602001207bffffffffffffffffffffffffffffffffffffffffffffffffffffffff1916827bffffffffffffffffffffffffffffffffffffffffffffffffffffffff1916145b9050919050565b60008060008373ffffffffffffffffffffffffffffffffffffffff1673ffffffffffffffffffffffffffffffffffffffff16815260200190815260200160002060009054906101000a900460ff169050919050565b846108938161242d565b6108d2576040517f08c379a00000000000000000000000000000000000000000000000000000000081526004016108c99061460f565b60405180910390fd5b82826007600089815260200190815260200160002087876040516108f7929190614053565b90815260200160405180910390209190610912929190612d58565b508484604051610923929190614053565b6040518091039020867fd8c9334b1a9c2f9da342a0a2b32629c1a229b6445dad78947f674b44444a7550878760405161095d929190614349565b60405180910390a3505050505050565b600360009054906101000a900473ffffffffffffffffffffffffffffffffffffffff1681565b60096020528060005260406000206000915054906101000a900473ffffffffffffffffffffffffffffffffffffffff1681565b60006109d0612516565b90503073ffffffffffffffffffffffffffffffffffffffff166109f283612527565b73ffffffffffffffffffffffffffffffffffffffff1614610a48576040517f08c379a0000000000000000000000000000000000000000000000000000000008152600401610a3f9061446f565b60405180910390fd5b8073ffffffffffffffffffffffffffffffffffffffff166009600084815260200190815260200160002060009054906101000a900473ffffffffffffffffffffffffffffffffffffffff1673ffffffffffffffffffffffffffffffffffffffff1614610ae9576040517f08c379a0000000000000000000000000000000000000000000000000000000008152600401610ae0906143af565b60405180910390fd5b600860009054906101000a900473ffffffffffffffffffffffffffffffffffffffff1673ffffffffffffffffffffffffffffffffffffffff16635b0fc9c383836040518363ffffffff1660e01b8152600401610b46929190614222565b600060405180830381600087803b158015610b6057600080fd5b505af1158015610b74573d6000803e3d6000fd5b505050506009600083815260200190815260200160002060006101000a81549073ffffffffffffffffffffffffffffffffffffffff02191690557f7803a16d95f9ca635bdec561006625e7444d8a9f8463866643cc03af011779d38282604051610bdf929190614222565b60405180910390a15050565b82610bf58161242d565b610c34576040517f08c379a0000000000000000000000000000000000000000000000000000000008152600401610c2b9061460f565b60405180910390fd5b604051806040016040528084815260200183815250600660008681526020019081526020016000206000820151816000015560208201518160010155905050837f1d6f5e03d3f63eb58751986629a5439baee5079ff04f345becb66e23eb154e468484604051610ca592919061424b565b60405180910390a250505050565b60008073ffffffffffffffffffffffffffffffffffffffff16600160009054906101000a900473ffffffffffffffffffffffffffffffffffffffff1673ffffffffffffffffffffffffffffffffffffffff1614905090565b6000610d1682612527565b9050919050565b6000610d27612516565b90506000610d3682878761260c565b9050610d868185858080601f016020809104026020016040519081016040528093929190818152602001838380828437600081840152601f19601f82011690508083019250505050505050612664565b610dc5576040517f08c379a0000000000000000000000000000000000000000000000000000000008152600401610dbc906143cf565b60405180910390fd5b60008686604051602001610dda929190614027565b6040516020818303038152906040528051906020012090503073ffffffffffffffffffffffffffffffffffffffff16610e1288612527565b73ffffffffffffffffffffffffffffffffffffffff1614610e68576040517f08c379a0000000000000000000000000000000000000000000000000000000008152600401610e5f9061444f565b60405180910390fd5b600073ffffffffffffffffffffffffffffffffffffffff16610e8982612527565b73ffffffffffffffffffffffffffffffffffffffff1614610edf576040517f08c379a0000000000000000000000000000000000000000000000000000000008152600401610ed6906143ef565b60405180910390fd5b600860009054906101000a900473ffffffffffffffffffffffffffffffffffffffff1673ffffffffffffffffffffffffffffffffffffffff16635ef2c7f08888303060006040518663ffffffff1660e01b8152600401610f43959493929190614274565b600060405180830381600087803b158015610f5d57600080fd5b505af1158015610f71573d6000803e3d6000fd5b50505050600860009054906101000a900473ffffffffffffffffffffffffffffffffffffffff1673ffffffffffffffffffffffffffffffffffffffff16635b0fc9c382856040518363ffffffff1660e01b8152600401610fd2929190614222565b600060405180830381600087803b158015610fec57600080fd5b505af1158015611000573d6000803e3d6000fd5b5050505061100e81846126d1565b50505050505050565b6000611021612516565b9050600860009054906101000a900473ffffffffffffffffffffffffffffffffffffffff1673ffffffffffffffffffffffffffffffffffffffff166302571be3836040518263ffffffff1660e01b815260040161107e9190614207565b60206040518083038186803b15801561109657600080fd5b505afa1580156110aa573d6000803e3d6000fd5b505050506040513d601f19601f820116820180604052508101906110ce91906130ae565b73ffffffffffffffffffffffffffffffffffffffff168173ffffffffffffffffffffffffffffffffffffffff161461113b576040517f08c379a0000000000000000000000000000000000000000000000000000000008152600401611132906144af565b60405180910390fd5b3073ffffffffffffffffffffffffffffffffffffffff16600860009054906101000a900473ffffffffffffffffffffffffffffffffffffffff1673ffffffffffffffffffffffffffffffffffffffff16630178b8bf846040518263ffffffff1660e01b81526004016111ad9190614207565b60206040518083038186803b1580156111c557600080fd5b505afa1580156111d9573d6000803e3d6000fd5b505050506040513d601f19601f820116820180604052508101906111fd91906130ae565b73ffffffffffffffffffffffffffffffffffffffff1614611253576040517f08c379a000000000000000000000000000000000000000000000000000000000815260040161124a9061438f565b60405180910390fd5b600073ffffffffffffffffffffffffffffffffffffffff1661127483612527565b73ffffffffffffffffffffffffffffffffffffffff16146112ca576040517f08c379a00000000000000000000000000000000000000000000000000000000081526004016112c19061454f565b60405180910390fd5b6112d482826126d1565b5050565b60606007600085815260200190815260200160002083836040516112fd929190614053565b90815260200160405180910390208054600181600116156101000203166002900480601f01602080910402602001604051908101604052809291908181526020018280546001816001161561010002031660029004801561139f5780601f106113745761010080835404028352916020019161139f565b820191906000526020600020905b81548152906001019060200180831161138257829003601f168201915b505050505090509392505050565b6060600560008381526020019081526020016000208054600181600116156101000203166002900480601f0160208091040260200160405190810160405280929190818152602001828054600181600116156101000203166002900480156114565780601f1061142b57610100808354040283529160200191611456565b820191906000526020600020905b81548152906001019060200180831161143957829003601f168201915b50505050509050919050565b600061147b82600001518360200151846040015161260c565b9050919050565b6000803273ffffffffffffffffffffffffffffffffffffffff1673ffffffffffffffffffffffffffffffffffffffff16815260200190815260200160002060009054906101000a900460ff1661150d576040517f08c379a0000000000000000000000000000000000000000000000000000000008152600401611504906144cf565b60405180910390fd5b8073ffffffffffffffffffffffffffffffffffffffff163273ffffffffffffffffffffffffffffffffffffffff16141561157c576040517f08c379a0000000000000000000000000000000000000000000000000000000008152600401611573906145cf565b60405180910390fd5b6000808273ffffffffffffffffffffffffffffffffffffffff1673ffffffffffffffffffffffffffffffffffffffff16815260200190815260200160002060009054906101000a900460ff16611607576040517f08c379a00000000000000000000000000000000000000000000000000000000081526004016115fe9061456f565b60405180910390fd5b60008060008373ffffffffffffffffffffffffffffffffffffffff1673ffffffffffffffffffffffffffffffffffffffff16815260200190815260200160002060006101000a81548160ff0219169083151502179055507fee943cdb81826d5909c559c6b1ae6908fcaf2dbc16c4b730346736b486283e8b328260405161168f92919061418c565b60405180910390a150565b826116a48161242d565b6116e3576040517f08c379a00000000000000000000000000000000000000000000000000000000081526004016116da9061460f565b60405180910390fd5b8282600560008781526020019081526020016000209190611705929190612d58565b50837fb7d29e911041e8d9b843369e890bcb72c9388692ba48b65ac54e7214c4c348f78484604051611738929190614349565b60405180910390a250505050565b600860009054906101000a900473ffffffffffffffffffffffffffffffffffffffff1681565b6000611776612516565b9050600073ffffffffffffffffffffffffffffffffffffffff1661179983612527565b73ffffffffffffffffffffffffffffffffffffffff16146117ef576040517f08c379a00000000000000000000000000000000000000000000000000000000081526004016117e69061452f565b60405180910390fd5b600073ffffffffffffffffffffffffffffffffffffffff166009600084815260200190815260200160002060009054906101000a900473ffffffffffffffffffffffffffffffffffffffff1673ffffffffffffffffffffffffffffffffffffffff1614611891576040517f08c379a00000000000000000000000000000000000000000000000000000000081526004016118889061450f565b60405180910390fd5b8073ffffffffffffffffffffffffffffffffffffffff16600860009054906101000a900473ffffffffffffffffffffffffffffffffffffffff1673ffffffffffffffffffffffffffffffffffffffff166302571be3846040518263ffffffff1660e01b81526004016119039190614207565b60206040518083038186803b15801561191b57600080fd5b505afa15801561192f573d6000803e3d6000fd5b505050506040513d601f19601f8201168201806040525081019061195391906130ae565b73ffffffffffffffffffffffffffffffffffffffff16146119a9576040517f08c379a00000000000000000000000000000000000000000000000000000000081526004016119a09061458f565b60405180910390fd5b806009600084815260200190815260200160002060006101000a81548173ffffffffffffffffffffffffffffffffffffffff021916908373ffffffffffffffffffffffffffffffffffffffff1602179055507fc1e082a8c26f27c26e1bf5d0ce7ddd579ec7f6d7eb3ea90d8abd6c40991bae368282604051611a2c929190614222565b60405180910390a15050565b82611a428161242d565b611a81576040517f08c379a0000000000000000000000000000000000000000000000000000000008152600401611a789061460f565b60405180910390fd5b611a8c8484846126e9565b50505050565b60025481565b6000803273ffffffffffffffffffffffffffffffffffffffff1673ffffffffffffffffffffffffffffffffffffffff16815260200190815260200160002060009054906101000a900460ff16611b23576040517f08c379a0000000000000000000000000000000000000000000000000000000008152600401611b1a906144cf565b60405180910390fd5b611b2c816127ab565b50565b6000803273ffffffffffffffffffffffffffffffffffffffff1673ffffffffffffffffffffffffffffffffffffffff16815260200190815260200160002060009054906101000a900460ff16611bba576040517f08c379a0000000000000000000000000000000000000000000000000000000008152600401611bb1906144cf565b60405180910390fd5b600073ffffffffffffffffffffffffffffffffffffffff168173ffffffffffffffffffffffffffffffffffffffff161415611c2a576040517f08c379a0000000000000000000000000000000000000000000000000000000008152600401611c21906144ef565b60405180910390fd5b600860009054906101000a900473ffffffffffffffffffffffffffffffffffffffff1673ffffffffffffffffffffffffffffffffffffffff168173ffffffffffffffffffffffffffffffffffffffff161415611cbb576040517f08c379a0000000000000000000000000000000000000000000000000000000008152600401611cb29061462f565b60405180910390fd5b80600860006101000a81548173ffffffffffffffffffffffffffffffffffffffff021916908373ffffffffffffffffffffffffffffffffffffffff1602179055507fdb0239c63d4033dcdd21bd44f8dd479a03efbae12f6bbe27c0a5f923d26514cc600860009054906101000a900473ffffffffffffffffffffffffffffffffffffffff16604051611d4d9190614156565b60405180910390a150565b6000806006600084815260200190815260200160002060000154600660008581526020019081526020016000206001015491509150915091565b6000611d9c612516565b9050600073ffffffffffffffffffffffffffffffffffffffff16611dbf83612527565b73ffffffffffffffffffffffffffffffffffffffff1614611e15576040517f08c379a0000000000000000000000000000000000000000000000000000000008152600401611e0c9061452f565b60405180910390fd5b8073ffffffffffffffffffffffffffffffffffffffff166009600084815260200190815260200160002060009054906101000a900473ffffffffffffffffffffffffffffffffffffffff1673ffffffffffffffffffffffffffffffffffffffff1614611eb6576040517f08c379a0000000000000000000000000000000000000000000000000000000008152600401611ead906143af565b60405180910390fd5b3073ffffffffffffffffffffffffffffffffffffffff16600860009054906101000a900473ffffffffffffffffffffffffffffffffffffffff1673ffffffffffffffffffffffffffffffffffffffff166302571be3846040518263ffffffff1660e01b8152600401611f289190614207565b60206040518083038186803b158015611f4057600080fd5b505afa158015611f54573d6000803e3d6000fd5b505050506040513d601f19601f82011682018060405250810190611f7891906130ae565b73ffffffffffffffffffffffffffffffffffffffff1614611fce576040517f08c379a0000000000000000000000000000000000000000000000000000000008152600401611fc59061458f565b60405180910390fd5b611fd882306126d1565b600860009054906101000a900473ffffffffffffffffffffffffffffffffffffffff1673ffffffffffffffffffffffffffffffffffffffff16631896f70a83306040518363ffffffff1660e01b8152600401612035929190614222565b600060405180830381600087803b15801561204f57600080fd5b505af1158015612063573d6000803e3d6000fd5b505050507fcefbe9dbadcf675eef14e23810996ff38541fc26b4dd77cd6724b0eedc96f200826040516120969190614207565b60405180910390a15050565b60006120f28484848080601f016020809104026020016040519081016040528093929190818152602001838380828437600081840152601f19601f82011690508083019250505050505050612664565b90509392505050565b816121058161242d565b612144576040517f08c379a000000000000000000000000000000000000000000000000000000000815260040161213b9061460f565b60405180910390fd5b61214e83836126d1565b505050565b600160009054906101000a900473ffffffffffffffffffffffffffffffffffffffff1673ffffffffffffffffffffffffffffffffffffffff163273ffffffffffffffffffffffffffffffffffffffff16146121e3576040517f08c379a00000000000000000000000000000000000000000000000000000000081526004016121da9061442f565b60405180910390fd5b6000600160006101000a81548173ffffffffffffffffffffffffffffffffffffffff021916908373ffffffffffffffffffffffffffffffffffffffff160217905550600073ffffffffffffffffffffffffffffffffffffffff168473ffffffffffffffffffffffffffffffffffffffff161415612295576040517f08c379a000000000000000000000000000000000000000000000000000000000815260040161228c906144ef565b60405180910390fd5b83600860006101000a81548173ffffffffffffffffffffffffffffffffffffffff021916908373ffffffffffffffffffffffffffffffffffffffff160217905550612320838380806020026020016040519081016040528093929190818152602001838360200280828437600081840152601f19601f8201169050808301925050505050505061293a565b61232981612992565b7f908408e307fc569b417f6cbec5d5a06f44a0a505ac0479b47d421a4b2fd6a1e6326040516123589190614171565b60405180910390a150505050565b60606004600084815260200190815260200160002060008381526020019081526020016000208054600181600116156101000203166002900480601f0160208091040260200160405190810160405280929190818152602001828054600181600116156101000203166002900480156124205780601f106123f557610100808354040283529160200191612420565b820191906000526020600020905b81548152906001019060200180831161240357829003601f168201915b5050505050905092915050565b6000612437612516565b73ffffffffffffffffffffffffffffffffffffffff16600860009054906101000a900473ffffffffffffffffffffffffffffffffffffffff1673ffffffffffffffffffffffffffffffffffffffff166302571be3846040518263ffffffff1660e01b81526004016124a89190614207565b60206040518083038186803b1580156124c057600080fd5b505afa1580156124d4573d6000803e3d6000fd5b505050506040513d601f19601f820116820180604052508101906124f891906130ae565b73ffffffffffffffffffffffffffffffffffffffff16149050919050565b600061252260286129d6565b905090565b6000806060600460008581526020019081526020016000206000603c81526020019081526020016000208054600181600116156101000203166002900480601f0160208091040260200160405190810160405280929190818152602001828054600181600116156101000203166002900480156125e55780601f106125ba576101008083540402835291602001916125e5565b820191906000526020600020905b8154815290600101906020018083116125c857829003601f168201915b50505050509050600081511115612602576125ff81612a6b565b91505b8192505050919050565b600061265b7f621363c539a3aa1024c8837ca1dc095db03b7f9512b3a95ecb429aae7fd953ed858585604051602001612647939291906141b5565b604051602081830303815290604052612a93565b90509392505050565b60008061267a8385612ad490919063ffffffff16565b90506000808273ffffffffffffffffffffffffffffffffffffffff1673ffffffffffffffffffffffffffffffffffffffff16815260200190815260200160002060009054906101000a900460ff1691505092915050565b6126e582603c6126e084612b8f565b6126e9565b5050565b827f65412581168e88a1e60c6459d7f44ae83ad0832e670826c05a4e2476b57af752838360405161271b92919061466a565b60405180910390a2603c82141561276d57827f52d7d861f09ab3d26239d492e8968629f95e9e318cf0b73bfddc441522a15fd261275783612a6b565b6040516127649190614171565b60405180910390a25b8060046000858152602001908152602001600020600084815260200190815260200160002090805190602001906127a5929190612dd8565b50505050565b600073ffffffffffffffffffffffffffffffffffffffff168173ffffffffffffffffffffffffffffffffffffffff16141561281b576040517f08c379a00000000000000000000000000000000000000000000000000000000081526004016128129061440f565b60405180910390fd5b6000808273ffffffffffffffffffffffffffffffffffffffff1673ffffffffffffffffffffffffffffffffffffffff16815260200190815260200160002060009054906101000a900460ff16156128a7576040517f08c379a000000000000000000000000000000000000000000000000000000000815260040161289e906145af565b60405180910390fd5b60016000808373ffffffffffffffffffffffffffffffffffffffff1673ffffffffffffffffffffffffffffffffffffffff16815260200190815260200160002060006101000a81548160ff0219169083151502179055507fbc3292102fa77e083913064b282926717cdfaede4d35f553d66366c0a3da755a328260405161292f92919061418c565b60405180910390a150565b6000815114156129525761294d326127ab565b61298f565b60008151905060005b8181101561298c5761297f83828151811061297257fe5b60200260200101516127ab565b808060010191505061295b565b50505b50565b80600360006101000a81548173ffffffffffffffffffffffffffffffffffffffff021916908373ffffffffffffffffffffffffffffffffffffffff16021790555050565b600080600090506129e5612bf6565b15612a5e576000836000369050039050612a5660003683906014850192612a0e93929190614741565b8080601f016020809104026020016040519081016040528093929190818152602001838380828437600081840152601f19601f82011690508083019250505050505050612ca3565b915050612a62565b3390505b80915050919050565b6000806014835114612a7c57600080fd5b600c6101000a602084015104905080915050919050565b6000612acc600254308585604051602001612ab1949392919061410c565b60405160208183030381529060405280519060200120612d09565b905092915050565b60008060009050604183511415612b855760008060006020860151925060408601519150606086015160001a9050601b8160ff161015612b1557601b810190505b601b8160ff161480612b2a5750601c8160ff16145b15612b815760018782858560405160008152602001604052604051612b5294939291906142c7565b6020604051602081039080840390855afa158015612b74573d6000803e3d6000fd5b5050506020604051035193505b5050505b8091505092915050565b606080601467ffffffffffffffff81118015612baa57600080fd5b506040519080825280601f01601f191660200182016040528015612bdd5781602001600182028036833780820191505090505b509050600c6101000a8302602082015280915050919050565b600080600360009054906101000a900473ffffffffffffffffffffffffffffffffffffffff1673ffffffffffffffffffffffffffffffffffffffff163373ffffffffffffffffffffffffffffffffffffffff161415612c9c57602c60003690501015612c97576040517f08c379a0000000000000000000000000000000000000000000000000000000008152600401612c8e9061448f565b60405180910390fd5b600190505b8091505090565b6000806014835114612cea576040517f08c379a0000000000000000000000000000000000000000000000000000000008152600401612ce1906145ef565b60405180910390fd5b6c01000000000000000000000000602084015104905080915050919050565b600081604051602001612d1c919061400c565b604051602081830303815290604052604051602001612d3b9190614081565b604051602081830303815290604052805190602001209050919050565b828054600181600116156101000203166002900490600052602060002090601f016020900481019282601f10612d9957803560ff1916838001178555612dc7565b82800160010185558215612dc7579182015b82811115612dc6578235825591602001919060010190612dab565b5b509050612dd49190612e58565b5090565b828054600181600116156101000203166002900490600052602060002090601f016020900481019282601f10612e1957805160ff1916838001178555612e47565b82800160010185558215612e47579182015b82811115612e46578251825591602001919060010190612e2b565b5b509050612e549190612e58565b5090565b5b80821115612e71576000816000905550600101612e59565b5090565b600081359050612e8481614929565b92915050565b600081519050612e9981614929565b92915050565b60008083601f840112612eb157600080fd5b8235905067ffffffffffffffff811115612eca57600080fd5b602083019150836020820283011115612ee257600080fd5b9250929050565b600081359050612ef881614940565b92915050565b600081359050612f0d81614957565b92915050565b60008083601f840112612f2557600080fd5b8235905067ffffffffffffffff811115612f3e57600080fd5b602083019150836001820283011115612f5657600080fd5b9250929050565b600082601f830112612f6e57600080fd5b8135612f81612f7c826146c7565b61469a565b91508082526020830160208301858383011115612f9d57600080fd5b612fa8838284614891565b50505092915050565b600081359050612fc08161496e565b92915050565b60008083601f840112612fd857600080fd5b8235905067ffffffffffffffff811115612ff157600080fd5b60208301915083600182028301111561300957600080fd5b9250929050565b60006060828403121561302257600080fd5b61302c606061469a565b9050600061303c84828501612e75565b600083015250602061305084828501612ee9565b602083015250604061306484828501612ee9565b60408301525092915050565b60008135905061307f81614985565b92915050565b60006020828403121561309757600080fd5b60006130a584828501612e75565b91505092915050565b6000602082840312156130c057600080fd5b60006130ce84828501612e8a565b91505092915050565b6000602082840312156130e957600080fd5b60006130f784828501612ee9565b91505092915050565b6000806040838503121561311357600080fd5b600061312185828601612ee9565b925050602061313285828601612e75565b9150509250929050565b60008060006060848603121561315157600080fd5b600061315f86828701612ee9565b935050602061317086828701612ee9565b925050604061318186828701612ee9565b9150509250925092565b600080600080606085870312156131a157600080fd5b60006131af87828801612ee9565b94505060206131c087828801612ee9565b935050604085013567ffffffffffffffff8111156131dd57600080fd5b6131e987828801612f13565b925092505092959194509250565b60008060006040848603121561320c57600080fd5b600061321a86828701612ee9565b935050602084013567ffffffffffffffff81111561323757600080fd5b61324386828701612f13565b92509250509250925092565b60008060006040848603121561326457600080fd5b600061327286828701612ee9565b935050602084013567ffffffffffffffff81111561328f57600080fd5b61329b86828701612fc6565b92509250509250925092565b6000806000806000606086880312156132bf57600080fd5b60006132cd88828901612ee9565b955050602086013567ffffffffffffffff8111156132ea57600080fd5b6132f688828901612fc6565b9450945050604086013567ffffffffffffffff81111561331557600080fd5b61332188828901612fc6565b92509250509295509295909350565b6000806040838503121561334357600080fd5b600061335185828601612ee9565b925050602061336285828601613070565b9150509250929050565b60008060006060848603121561338157600080fd5b600061338f86828701612ee9565b93505060206133a086828701613070565b925050604084013567ffffffffffffffff8111156133bd57600080fd5b6133c986828701612f5d565b9150509250925092565b6000602082840312156133e557600080fd5b60006133f384828501612efe565b91505092915050565b60006020828403121561340e57600080fd5b600061341c84828501612fb1565b91505092915050565b6000806000806060858703121561343b57600080fd5b600061344987828801612fb1565b945050602085013567ffffffffffffffff81111561346657600080fd5b61347287828801612e9f565b9350935050604061348587828801612e75565b91505092959194509250565b6000606082840312156134a357600080fd5b60006134b184828501613010565b91505092915050565b6134c381614825565b82525050565b6134d281614774565b82525050565b6134e96134e482614774565b6148d3565b82525050565b6134f881614786565b82525050565b61350781614792565b82525050565b61351e61351982614792565b6148e5565b82525050565b600061352f826146f3565b6135398185614709565b93506135498185602086016148a0565b6135528161490b565b840191505092915050565b6000613568826146f3565b613572818561471a565b93506135828185602086016148a0565b80840191505092915050565b61359781614837565b82525050565b6135a68161485b565b82525050565b60006135b88385614725565b93506135c5838584614891565b6135ce8361490b565b840190509392505050565b60006135e58385614736565b93506135f2838584614891565b82840190509392505050565b6000613609826146fe565b6136138185614725565b93506136238185602086016148a0565b61362c8161490b565b840191505092915050565b6000613644601983614736565b91507f737570706f727473496e746572666163652862797465733429000000000000006000830152601982019050919050565b6000613684602483614725565b91507f454e53436f6e74726f6c6c65723a20696e76616c6964206e6f6465207265736f60008301527f6c766572000000000000000000000000000000000000000000000000000000006020830152604082019050919050565b60006136ea602183614725565b91507f454e53436f6e74726f6c6c65723a20696e76616c6964206e6f6465206f776e6560008301527f72000000000000000000000000000000000000000000000000000000000000006020830152604082019050919050565b6000613750602983614725565b91507f454e53436f6e74726f6c6c65723a20696e76616c696420677561726469616e2060008301527f7369676e617475726500000000000000000000000000000000000000000000006020830152604082019050919050565b60006137b6602283614725565b91507f454e53436f6e74726f6c6c65723a206c6162656c20616c72656164792074616b60008301527f656e0000000000000000000000000000000000000000000000000000000000006020830152604082019050919050565b600061381c601c83614736565b91507f19457468657265756d205369676e6564204d6573736167653a0a3332000000006000830152601c82019050919050565b600061385c602083614725565b91507f477561726465643a2063616e6e6f74206164642030783020677561726469616e6000830152602082019050919050565b600061389c602f83614725565b91507f496e697469616c697a61626c653a2074782e6f726967696e206973206e6f742060008301527f74686520696e697469616c697a657200000000000000000000000000000000006020830152604082019050919050565b6000613902600d83614736565b91507f61646472286279746573333229000000000000000000000000000000000000006000830152600d82019050919050565b6000613942601b83614725565b91507f454e53436f6e74726f6c6c65723a20696e76616c6964206e6f646500000000006000830152602082019050919050565b6000613982602183614725565b91507f454e53436f6e74726f6c6c65723a206e6f646520646f65736e2774206578697360008301527f74000000000000000000000000000000000000000000000000000000000000006020830152604082019050919050565b60006139e8602283614725565b91507f47617465776179526563697069656e743a20696e76616c6964206d73672e646160008301527f74610000000000000000000000000000000000000000000000000000000000006020830152604082019050919050565b6000613a4e601483614736565b91507f7465787428627974657333322c737472696e67290000000000000000000000006000830152601482019050919050565b6000613a8e600d83614736565b91507f6e616d65286279746573333229000000000000000000000000000000000000006000830152600d82019050919050565b6000613ace602b83614725565b91507f454e53436f6e74726f6c6c65723a2063616c6c6572206973206e6f742074686560008301527f206e6f6465206f776e65720000000000000000000000000000000000000000006020830152604082019050919050565b6000613b34602683614725565b91507f477561726465643a2074782e6f726967696e206973206e6f742074686520677560008301527f61726469616e00000000000000000000000000000000000000000000000000006020830152604082019050919050565b6000613b9a602683614725565b91507f454e53436f6e74726f6c6c65723a2063616e6e6f74207365742030783020726560008301527f67697374727900000000000000000000000000000000000000000000000000006020830152604082019050919050565b6000613c00602583614725565b91507f454e53436f6e74726f6c6c65723a206e6f646520616c7265616479207375626d60008301527f69747465640000000000000000000000000000000000000000000000000000006020830152604082019050919050565b6000613c66600f83614736565b91507f7075626b657928627974657333322900000000000000000000000000000000006000830152600f82019050919050565b6000613ca6602283614725565b91507f454e53436f6e74726f6c6c65723a206e6f646520616c7265616479206578697360008301527f74730000000000000000000000000000000000000000000000000000000000006020830152604082019050919050565b6000613d0c602383614725565b91507f454e53436f6e74726f6c6c65723a206e6f646520616c726561647920696e207360008301527f796e6300000000000000000000000000000000000000000000000000000000006020830152604082019050919050565b6000613d72601f83614725565b91507f477561726465643a20677561726469616e20646f65736e2774206578697374006000830152602082019050919050565b6000613db2602583614725565b91507f454e53436f6e74726f6c6c65723a20696e76616c696420656e73206e6f64652060008301527f6f776e65720000000000000000000000000000000000000000000000000000006020830152604082019050919050565b6000613e18602083614725565b91507f477561726465643a20677561726469616e20616c7265616479206578697374736000830152602082019050919050565b6000613e58601b83614725565b91507f477561726465643a2063616e6e6f742072656d6f76652073656c6600000000006000830152602082019050919050565b6000613e98601d83614725565b91507f42797465734c69623a20696e76616c69642064617461206c656e6774680000006000830152602082019050919050565b6000613ed8603783614725565b91507f454e5341627374726163745265736f6c7665723a20726576657274656420627960008301527f206f6e6c794e6f64654f776e6572206d6f6469666965720000000000000000006020830152604082019050919050565b6000613f3e601283614736565b91507f6164647228627974657333322c75696e742900000000000000000000000000006000830152601282019050919050565b6000613f7e602383614725565b91507f454e53436f6e74726f6c6c65723a20726567697374727920616c72656164792060008301527f73657400000000000000000000000000000000000000000000000000000000006020830152604082019050919050565b613fe0816147fa565b82525050565b613ff7613ff2826147fa565b614901565b82525050565b61400681614818565b82525050565b6000614018828461350d565b60208201915081905092915050565b6000614033828561350d565b602082019150614043828461350d565b6020820191508190509392505050565b60006140608284866135d9565b91508190509392505050565b600061407782613637565b9150819050919050565b600061408c8261380f565b9150614098828461355d565b915081905092915050565b60006140ae826138f5565b9150819050919050565b60006140c382613a41565b9150819050919050565b60006140d882613a81565b9150819050919050565b60006140ed82613c59565b9150819050919050565b600061410282613f31565b9150819050919050565b60006141188287613fe6565b60208201915061412882866134d8565b601482019150614138828561350d565b602082019150614148828461355d565b915081905095945050505050565b600060208201905061416b60008301846134c9565b92915050565b600060208201905061418660008301846134ba565b92915050565b60006040820190506141a160008301856134ba565b6141ae60208301846134c9565b9392505050565b60006060820190506141ca60008301866134c9565b6141d760208301856134fe565b6141e460408301846134fe565b949350505050565b600060208201905061420160008301846134ef565b92915050565b600060208201905061421c60008301846134fe565b92915050565b600060408201905061423760008301856134fe565b61424460208301846134c9565b9392505050565b600060408201905061426060008301856134fe565b61426d60208301846134fe565b9392505050565b600060a08201905061428960008301886134fe565b61429660208301876134fe565b6142a360408301866134c9565b6142b060608301856134c9565b6142bd608083018461359d565b9695505050505050565b60006080820190506142dc60008301876134fe565b6142e96020830186613ffd565b6142f660408301856134fe565b61430360608301846134fe565b95945050505050565b600060208201905081810360008301526143268184613524565b905092915050565b6000602082019050614343600083018461358e565b92915050565b600060208201905081810360008301526143648184866135ac565b90509392505050565b6000602082019050818103600083015261438781846135fe565b905092915050565b600060208201905081810360008301526143a881613677565b9050919050565b600060208201905081810360008301526143c8816136dd565b9050919050565b600060208201905081810360008301526143e881613743565b9050919050565b60006020820190508181036000830152614408816137a9565b9050919050565b600060208201905081810360008301526144288161384f565b9050919050565b600060208201905081810360008301526144488161388f565b9050919050565b6000602082019050818103600083015261446881613935565b9050919050565b6000602082019050818103600083015261448881613975565b9050919050565b600060208201905081810360008301526144a8816139db565b9050919050565b600060208201905081810360008301526144c881613ac1565b9050919050565b600060208201905081810360008301526144e881613b27565b9050919050565b6000602082019050818103600083015261450881613b8d565b9050919050565b6000602082019050818103600083015261452881613bf3565b9050919050565b6000602082019050818103600083015261454881613c99565b9050919050565b6000602082019050818103600083015261456881613cff565b9050919050565b6000602082019050818103600083015261458881613d65565b9050919050565b600060208201905081810360008301526145a881613da5565b9050919050565b600060208201905081810360008301526145c881613e0b565b9050919050565b600060208201905081810360008301526145e881613e4b565b9050919050565b6000602082019050818103600083015261460881613e8b565b9050919050565b6000602082019050818103600083015261462881613ecb565b9050919050565b6000602082019050818103600083015261464881613f71565b9050919050565b60006020820190506146646000830184613fd7565b92915050565b600060408201905061467f6000830185613fd7565b81810360208301526146918184613524565b90509392505050565b6000604051905081810181811067ffffffffffffffff821117156146bd57600080fd5b8060405250919050565b600067ffffffffffffffff8211156146de57600080fd5b601f19601f8301169050602081019050919050565b600081519050919050565b600081519050919050565b600082825260208201905092915050565b600081905092915050565b600082825260208201905092915050565b600081905092915050565b6000808585111561475157600080fd5b8386111561475e57600080fd5b6001850283019150848603905094509492505050565b600061477f826147da565b9050919050565b60008115159050919050565b6000819050919050565b60007fffffffff0000000000000000000000000000000000000000000000000000000082169050919050565b60006147d382614774565b9050919050565b600073ffffffffffffffffffffffffffffffffffffffff82169050919050565b6000819050919050565b600067ffffffffffffffff82169050919050565b600060ff82169050919050565b60006148308261486d565b9050919050565b600061484282614849565b9050919050565b6000614854826147da565b9050919050565b600061486682614804565b9050919050565b60006148788261487f565b9050919050565b600061488a826147da565b9050919050565b82818337600083830152505050565b60005b838110156148be5780820151818401526020810190506148a3565b838111156148cd576000848401525b50505050565b60006148de826148ef565b9050919050565b6000819050919050565b60006148fa8261491c565b9050919050565b6000819050919050565b6000601f19601f8301169050919050565b60008160601b9050919050565b61493281614774565b811461493d57600080fd5b50565b61494981614792565b811461495457600080fd5b50565b6149608161479c565b811461496b57600080fd5b50565b614977816147c8565b811461498257600080fd5b50565b61498e816147fa565b811461499957600080fd5b5056fea164736f6c634300060c000a",
  "linkReferences": {},
  "deployedLinkReferences": {}
}