{
  "_format": "hh-sol-artifact-1",
  "contractName": "ENSController",
  "sourceName": "src/ens/ENSController.sol",
  "abi": [
    {
      "inputs": [],
      "stateMutability": "nonpayable",
      "type": "constructor"
    },
    {
      "anonymous": false,
      "inputs": [
        {
          "indexed": true,
          "internalType": "bytes32",
          "name": "node",
          "type": "bytes32"
        },
        {
          "indexed": false,
          "internalType": "address",
          "name": "addr",
          "type": "address"
        }
      ],
      "name": "AddrChanged",
      "type": "event"
    },
    {
      "anonymous": false,
      "inputs": [
        {
          "indexed": false,
          "internalType": "address",
          "name": "guardian",
          "type": "address"
        }
      ],
      "name": "GuardianAdded",
      "type": "event"
    },
    {
      "anonymous": false,
      "inputs": [
        {
          "indexed": false,
          "internalType": "address",
          "name": "guardian",
          "type": "address"
        }
      ],
      "name": "GuardianRemoved",
      "type": "event"
    },
    {
      "anonymous": false,
      "inputs": [],
      "name": "Initialized",
      "type": "event"
    },
    {
      "anonymous": false,
      "inputs": [
        {
          "indexed": false,
          "internalType": "bytes32",
          "name": "node",
          "type": "bytes32"
        }
      ],
      "name": "NodeAdded",
      "type": "event"
    },
    {
      "anonymous": false,
      "inputs": [
        {
          "indexed": false,
          "internalType": "address",
          "name": "registry",
          "type": "address"
        }
      ],
      "name": "RegistryChanged",
      "type": "event"
    },
    {
      "inputs": [
        {
          "internalType": "address",
          "name": "guardian",
          "type": "address"
        }
      ],
      "name": "addGuardian",
      "outputs": [],
      "stateMutability": "nonpayable",
      "type": "function"
    },
    {
      "inputs": [
        {
          "internalType": "bytes32",
          "name": "node",
          "type": "bytes32"
        }
      ],
      "name": "addNode",
      "outputs": [],
      "stateMutability": "nonpayable",
      "type": "function"
    },
    {
      "inputs": [
        {
          "internalType": "bytes32",
          "name": "node",
          "type": "bytes32"
        }
      ],
      "name": "addr",
      "outputs": [
        {
          "internalType": "address",
          "name": "",
          "type": "address"
        }
      ],
      "stateMutability": "view",
      "type": "function"
    },
    {
      "inputs": [],
      "name": "gateway",
      "outputs": [
        {
          "internalType": "address",
          "name": "",
          "type": "address"
        }
      ],
      "stateMutability": "view",
      "type": "function"
    },
    {
      "inputs": [
        {
          "components": [
            {
              "internalType": "address",
              "name": "account",
              "type": "address"
            },
            {
              "internalType": "bytes32",
              "name": "node",
              "type": "bytes32"
            },
            {
              "internalType": "bytes32",
              "name": "label",
              "type": "bytes32"
            }
          ],
          "internalType": "struct ENSController.SubNodeRegistration",
          "name": "subNodeRegistration",
          "type": "tuple"
        }
      ],
      "name": "hashSubNodeRegistration",
      "outputs": [
        {
          "internalType": "bytes32",
          "name": "",
          "type": "bytes32"
        }
      ],
      "stateMutability": "view",
      "type": "function"
    },
    {
      "inputs": [
        {
          "internalType": "contract ENSRegistry",
          "name": "registry_",
          "type": "address"
        },
        {
          "internalType": "address[]",
          "name": "guardians_",
          "type": "address[]"
        },
        {
          "internalType": "address",
          "name": "gateway_",
          "type": "address"
        },
        {
          "internalType": "bytes32",
          "name": "typedDataDomainNameHash",
          "type": "bytes32"
        },
        {
          "internalType": "bytes32",
          "name": "typedDataDomainVersionHash",
          "type": "bytes32"
        },
        {
          "internalType": "bytes32",
          "name": "typedDataDomainSalt",
          "type": "bytes32"
        }
      ],
      "name": "initialize",
      "outputs": [],
      "stateMutability": "nonpayable",
      "type": "function"
    },
    {
      "inputs": [
        {
          "internalType": "address",
          "name": "guardian",
          "type": "address"
        }
      ],
      "name": "isGuardian",
      "outputs": [
        {
          "internalType": "bool",
          "name": "",
          "type": "bool"
        }
      ],
      "stateMutability": "view",
      "type": "function"
    },
    {
      "inputs": [],
      "name": "isInitialized",
      "outputs": [
        {
          "internalType": "bool",
          "name": "",
          "type": "bool"
        }
      ],
      "stateMutability": "view",
      "type": "function"
    },
    {
      "inputs": [
        {
          "internalType": "bytes32",
          "name": "node",
          "type": "bytes32"
        },
        {
          "internalType": "bytes32",
          "name": "label",
          "type": "bytes32"
        },
        {
          "internalType": "bytes",
          "name": "guardianSignature",
          "type": "bytes"
        }
      ],
      "name": "registerSubNode",
      "outputs": [],
      "stateMutability": "nonpayable",
      "type": "function"
    },
    {
      "inputs": [],
      "name": "registry",
      "outputs": [
        {
          "internalType": "contract ENSRegistry",
          "name": "",
          "type": "address"
        }
      ],
      "stateMutability": "view",
      "type": "function"
    },
    {
      "inputs": [
        {
          "internalType": "address",
          "name": "guardian",
          "type": "address"
        }
      ],
      "name": "removeGuardian",
      "outputs": [],
      "stateMutability": "nonpayable",
      "type": "function"
    },
    {
      "inputs": [
        {
          "internalType": "bytes32",
          "name": "node",
          "type": "bytes32"
        },
        {
          "internalType": "address",
          "name": "addr",
          "type": "address"
        }
      ],
      "name": "setAddr",
      "outputs": [],
      "stateMutability": "nonpayable",
      "type": "function"
    },
    {
      "inputs": [
        {
          "internalType": "contract ENSRegistry",
          "name": "registry_",
          "type": "address"
        }
      ],
      "name": "setRegistry",
      "outputs": [],
      "stateMutability": "nonpayable",
      "type": "function"
    },
    {
      "inputs": [
        {
          "internalType": "bytes4",
          "name": "interfaceID",
          "type": "bytes4"
        }
      ],
      "name": "supportsInterface",
      "outputs": [
        {
          "internalType": "bool",
          "name": "",
          "type": "bool"
        }
      ],
      "stateMutability": "pure",
      "type": "function"
    },
    {
      "inputs": [],
      "name": "typedDataDomainSeparator",
      "outputs": [
        {
          "internalType": "bytes32",
          "name": "",
          "type": "bytes32"
        }
      ],
      "stateMutability": "view",
      "type": "function"
    },
    {
      "inputs": [
        {
          "internalType": "bytes32",
          "name": "messageHash",
          "type": "bytes32"
        },
        {
          "internalType": "bytes",
          "name": "signature",
          "type": "bytes"
        }
      ],
      "name": "verifyGuardianSignature",
      "outputs": [
        {
          "internalType": "bool",
          "name": "",
          "type": "bool"
        }
      ],
      "stateMutability": "view",
      "type": "function"
    }
  ],
  "bytecode": "0x608060405234801561001057600080fd5b50600180546001600160a01b031916331790556112e2806100326000396000f3fe608060405234801561001057600080fd5b50600436106101005760003560e01c80636df0cf4211610097578063a91ee0dc11610066578063a91ee0dc146101fa578063bd106a021461020d578063d0f710d614610215578063d5fa2b001461022857610100565b80636df0cf42146101ac57806371404156146101cc5780637b103999146101df578063a526d83b146101e757610100565b80633b3b57de116100d35780633b3b57de1461015e57806346386f73146101715780635773fd1d1461018657806361fc6d1f1461019957610100565b806301ffc9a7146101055780630c68ba211461012e578063116191b614610141578063392e53cd14610156575b600080fd5b610118610113366004611000565b61023b565b60405161012591906111b2565b60405180910390f35b61011861013c366004610ee6565b6102d4565b6101496102f2565b604051610125919061119e565b610118610301565b61014961016c366004610f1e565b610311565b61018461017f366004610f65565b61032c565b005b610184610194366004611040565b6105f5565b6101846101a7366004610f1e565b6106e3565b6101bf6101ba3660046110ef565b610818565b60405161012591906111bd565b6101846101da366004610ee6565b610834565b6101496108db565b6101846101f5366004610ee6565b6108ea565b610184610208366004610ee6565b610912565b6101bf6109ba565b610118610223366004610fb6565b6109c0565b610184610236366004610f36565b610a0a565b60007fffffffff0000000000000000000000000000000000000000000000000000000082167f01ffc9a70000000000000000000000000000000000000000000000000000000014806102ce57507fffffffff0000000000000000000000000000000000000000000000000000000082167f3b3b57de00000000000000000000000000000000000000000000000000000000145b92915050565b6001600160a01b031660009081526020819052604090205460ff1690565b6003546001600160a01b031681565b6001546001600160a01b03161590565b6000908152600560205260409020546001600160a01b031690565b6000610336610aaa565b9050600061034d610348838888610abb565b610b13565b905061038f8185858080601f016020809104026020016040519081016040528093929190818152602001838380828437600092019190915250610b7e92505050565b61039857600080fd5b600086866040516020016103ad92919061114c565b60408051601f19818403018152918152815160209283012060008a815260059093529120549091506001600160a01b031630146103e957600080fd5b6000818152600560205260409020546001600160a01b03161561040b57600080fd5b60008181526005602052604090819020805473ffffffffffffffffffffffffffffffffffffffff19166001600160a01b03868116919091179091556004805492517f06ab592300000000000000000000000000000000000000000000000000000000815292909116916306ab59239161048a918b918b91309101611201565b600060405180830381600087803b1580156104a457600080fd5b505af11580156104b8573d6000803e3d6000fd5b5050600480546040517f1896f70a0000000000000000000000000000000000000000000000000000000081526001600160a01b039091169350631896f70a92506105069185913091016111c6565b600060405180830381600087803b15801561052057600080fd5b505af1158015610534573d6000803e3d6000fd5b5050600480546040517f5b0fc9c30000000000000000000000000000000000000000000000000000000081526001600160a01b039091169350635b0fc9c392506105829185918891016111c6565b600060405180830381600087803b15801561059c57600080fd5b505af11580156105b0573d6000803e3d6000fd5b50505050807f52d7d861f09ab3d26239d492e8968629f95e9e318cf0b73bfddc441522a15fd2846040516105e4919061119e565b60405180910390a250505050505050565b6001546001600160a01b0316331461060c57600080fd5b6001805473ffffffffffffffffffffffffffffffffffffffff191690556001600160a01b03871661063c57600080fd5b6004805473ffffffffffffffffffffffffffffffffffffffff19166001600160a01b038916179055604080516020878102808301820190935287825261069d92899189918291850190849080828437600092019190915250610bae92505050565b6106a684610c09565b6106b1838383610c38565b6040517f5daa87a0e9463431830481fd4b6e3403442dfb9a12b9c07597e9f61d50b633c890600090a150505050505050565b6000818152600560205260409020546001600160a01b03161561070557600080fd5b600480546040517f02571be300000000000000000000000000000000000000000000000000000000815230926001600160a01b03909216916302571be39161074f918691016111bd565b60206040518083038186803b15801561076757600080fd5b505afa15801561077b573d6000803e3d6000fd5b505050506040513d601f19601f8201168201806040525081019061079f9190610f02565b6001600160a01b0316146107b257600080fd5b60008181526005602052604090819020805473ffffffffffffffffffffffffffffffffffffffff191630179055517f9789a7ebab1e3d4a74f1c22b0ae2a212125ac931a6227e44d5a5a7aaf30dda759061080d9083906111bd565b60405180910390a150565b60006102ce610348836000015184602001518560400151610abb565b3360009081526020819052604090205460ff1661085057600080fd5b336001600160a01b038216141561086657600080fd5b6001600160a01b03811660009081526020819052604090205460ff1661088b57600080fd5b6001600160a01b03811660009081526020819052604090819020805460ff19169055517fb8107d0c6b40be480ce3172ee66ba6d64b71f6b1685a851340036e6e2e3e3c529061080d90839061119e565b6004546001600160a01b031681565b3360009081526020819052604090205460ff1661090657600080fd5b61090f81610c96565b50565b3360009081526020819052604090205460ff1661092e57600080fd5b6001600160a01b03811661094157600080fd5b6004546001600160a01b038281169116141561095c57600080fd5b6004805473ffffffffffffffffffffffffffffffffffffffff19166001600160a01b0383811691909117918290556040517fdb0239c63d4033dcdd21bd44f8dd479a03efbae12f6bbe27c0a5f923d26514cc9261080d92169061119e565b60025481565b6000610a028484848080601f016020809104026020016040519081016040528093929190818152602001838380828437600092019190915250610b7e92505050565b949350505050565b610a12610aaa565b6000838152600560205260409020546001600160a01b03908116911614610a3857600080fd5b60008281526005602052604090819020805473ffffffffffffffffffffffffffffffffffffffff19166001600160a01b0384161790555182907f52d7d861f09ab3d26239d492e8968629f95e9e318cf0b73bfddc441522a15fd290610a9e90849061119e565b60405180910390a25050565b6000610ab66028610d22565b905090565b60007f621363c539a3aa1024c8837ca1dc095db03b7f9512b3a95ecb429aae7fd953ed848484604051602001610af494939291906111dd565b6040516020818303038152906040528051906020012090509392505050565b60006040518060400160405280600281526020017f190100000000000000000000000000000000000000000000000000000000000081525060025483604051602001610b619392919061115a565b604051602081830303815290604052805190602001209050919050565b600080610b8b8484610d97565b6001600160a01b031660009081526020819052604090205460ff16949350505050565b8051610bd357336000908152602081905260409020805460ff1916600117905561090f565b805160005b81811015610c0457610bfc838281518110610bef57fe5b6020026020010151610c96565b600101610bd8565b505050565b6003805473ffffffffffffffffffffffffffffffffffffffff19166001600160a01b0392909216919091179055565b6040514690610c75907fd87cd6ef79d4e2b95e15ce8abf732db51ec771f1ca2edccf22a46c729ac564729086908690859030908890602001611220565b60408051601f19818403018152919052805160209091012060025550505050565b6001600160a01b038116610ca957600080fd5b6001600160a01b03811660009081526020819052604090205460ff1615610ccf57600080fd5b6001600160a01b03811660009081526020819052604090819020805460ff19166001179055517f038596bb31e2e7d3d9f184d4c98b310103f6d7f5830e5eec32bffe6f1728f9699061080d90839061119e565b600080610d2d610e3c565b15610d8f573683810390610d8790610d4d9060148401908490600061126f565b8080601f016020809104026020016040519081016040528093929190818152602001838380828437600092019190915250610e6a92505050565b9150506102ce565b503392915050565b8051600090819060411415610e355760208301516040840151606085015160001a601b811015610dc557601b015b8060ff16601b1480610dda57508060ff16601c145b15610e315760018782858560405160008152602001604052604051610e029493929190611251565b6020604051602081039080840390855afa158015610e24573d6000803e3d6000fd5b5050506020604051035193505b5050505b9392505050565b60035460009081906001600160a01b0316331415610ab657602c361015610e6257600080fd5b506001905090565b6000808251601414610e7b57600080fd5b5050602001516c01000000000000000000000000900490565b80356102ce81611297565b60008083601f840112610eb0578182fd5b50813567ffffffffffffffff811115610ec7578182fd5b602083019150836020828501011115610edf57600080fd5b9250929050565b600060208284031215610ef7578081fd5b8135610e3581611297565b600060208284031215610f13578081fd5b8151610e3581611297565b600060208284031215610f2f578081fd5b5035919050565b60008060408385031215610f48578081fd5b823591506020830135610f5a81611297565b809150509250929050565b60008060008060608587031215610f7a578182fd5b8435935060208501359250604085013567ffffffffffffffff811115610f9e578283fd5b610faa87828801610e9f565b95989497509550505050565b600080600060408486031215610fca578283fd5b83359250602084013567ffffffffffffffff811115610fe7578283fd5b610ff386828701610e9f565b9497909650939450505050565b600060208284031215611011578081fd5b81357fffffffff0000000000000000000000000000000000000000000000000000000081168114610e35578182fd5b600080600080600080600060c0888a03121561105a578283fd5b873561106581611297565b9650602088013567ffffffffffffffff80821115611081578485fd5b818a0191508a601f830112611094578485fd5b8135818111156110a2578586fd5b8b602080830285010111156110b5578586fd5b6020830198508097505050506110ce8960408a01610e94565b969995985093966060810135956080820135955060a0909101359350915050565b600060608284031215611100578081fd5b6040516060810181811067ffffffffffffffff8211171561111f578283fd5b604052823561112d81611297565b8152602083810135908201526040928301359281019290925250919050565b918252602082015260400190565b60008451815b8181101561117a5760208188018101518583015201611160565b818111156111885782828501525b5091909101928352506020820152604001919050565b6001600160a01b0391909116815260200190565b901515815260200190565b90815260200190565b9182526001600160a01b0316602082015260400190565b9384526001600160a01b039290921660208401526040830152606082015260800190565b92835260208301919091526001600160a01b0316604082015260600190565b9586526020860194909452604085019290925260608401526001600160a01b0316608083015260a082015260c00190565b93845260ff9290921660208401526040830152606082015260800190565b6000808585111561127e578182fd5b8386111561128a578182fd5b5050820193919092039150565b6001600160a01b038116811461090f57600080fdfea26469706673582212206b9f2b173ec87567ade92591cbfe261259bb526bc5fa283e85ef754cca0ae37f64736f6c634300060c0033",
  "linkReferences": {},
  "deployedLinkReferences": {}
}