{
  "_format": "hh-sol-artifact-1",
  "contractName": "ENSHelper",
  "sourceName": "src/ens/ENSHelper.sol",
  "abi": [
    {
      "inputs": [],
      "stateMutability": "nonpayable",
      "type": "constructor"
    },
    {
      "anonymous": false,
      "inputs": [
        {
          "indexed": false,
          "internalType": "address",
          "name": "initializer",
          "type": "address"
        }
      ],
      "name": "Initialized",
      "type": "event"
    },
    {
      "inputs": [
        {
          "internalType": "bytes8",
          "name": "c__098c0657",
          "type": "bytes8"
        }
      ],
      "name": "c_098c0657",
      "outputs": [],
      "stateMutability": "pure",
      "type": "function"
    },
    {
      "inputs": [
        {
          "internalType": "bytes8",
          "name": "c__5c42e10b",
          "type": "bytes8"
        }
      ],
      "name": "c_5c42e10b",
      "outputs": [],
      "stateMutability": "pure",
      "type": "function"
    },
    {
      "inputs": [
        {
          "internalType": "bytes8",
          "name": "c__098c0657",
          "type": "bytes8"
        }
      ],
      "name": "c_false098c0657",
      "outputs": [
        {
          "internalType": "bool",
          "name": "",
          "type": "bool"
        }
      ],
      "stateMutability": "pure",
      "type": "function"
    },
    {
      "inputs": [
        {
          "internalType": "bytes8",
          "name": "c__5c42e10b",
          "type": "bytes8"
        }
      ],
      "name": "c_false5c42e10b",
      "outputs": [
        {
          "internalType": "bool",
          "name": "",
          "type": "bool"
        }
      ],
      "stateMutability": "pure",
      "type": "function"
    },
    {
      "inputs": [
        {
          "internalType": "bytes8",
          "name": "c__098c0657",
          "type": "bytes8"
        }
      ],
      "name": "c_true098c0657",
      "outputs": [
        {
          "internalType": "bool",
          "name": "",
          "type": "bool"
        }
      ],
      "stateMutability": "pure",
      "type": "function"
    },
    {
      "inputs": [
        {
          "internalType": "bytes8",
          "name": "c__5c42e10b",
          "type": "bytes8"
        }
      ],
      "name": "c_true5c42e10b",
      "outputs": [
        {
          "internalType": "bool",
          "name": "",
          "type": "bool"
        }
      ],
      "stateMutability": "pure",
      "type": "function"
    },
    {
      "inputs": [
        {
          "internalType": "bytes32[]",
          "name": "nodes",
          "type": "bytes32[]"
        }
      ],
      "name": "getAddresses",
      "outputs": [
        {
          "internalType": "address[]",
          "name": "",
          "type": "address[]"
        }
      ],
      "stateMutability": "view",
      "type": "function"
    },
    {
      "inputs": [
        {
          "internalType": "bytes32[]",
          "name": "nodes",
          "type": "bytes32[]"
        }
      ],
      "name": "getNames",
      "outputs": [
        {
          "internalType": "string[]",
          "name": "",
          "type": "string[]"
        }
      ],
      "stateMutability": "view",
      "type": "function"
    },
    {
      "inputs": [
        {
          "internalType": "contract ENSRegistry",
          "name": "registry_",
          "type": "address"
        }
      ],
      "name": "initialize",
      "outputs": [],
      "stateMutability": "nonpayable",
      "type": "function"
    },
    {
      "inputs": [],
      "name": "isInitialized",
      "outputs": [
        {
          "internalType": "bool",
          "name": "",
          "type": "bool"
        }
      ],
      "stateMutability": "view",
      "type": "function"
    },
    {
      "inputs": [],
      "name": "registry",
      "outputs": [
        {
          "internalType": "contract ENSRegistry",
          "name": "",
          "type": "address"
        }
      ],
      "stateMutability": "view",
      "type": "function"
    }
  ],
  "bytecode": "0x608060405234801561001057600080fd5b5061002b67bcc9be562f8a4b0a60c01b6100a460201b60201c565b61004567579ae7209daca85260c01b6100a460201b60201c565b326000806101000a81548173ffffffffffffffffffffffffffffffffffffffff021916908373ffffffffffffffffffffffffffffffffffffffff16021790555061009f6788a5314e41b335a860c01b6100a760201b60201c565b6100aa565b50565b50565b611575806100b96000396000f3fe608060405234801561001057600080fd5b50600436106100a95760003560e01c80639b249bb6116100715780639b249bb614610152578063c454330514610182578063c4d66de8146101b2578063c6977ab5146101ce578063d84fa10c146101fe578063dc6008e21461022e576100a9565b806338bc01b5146100ae578063392e53cd146100de5780633e260b13146100fc57806373c00330146101185780637b10399914610134575b600080fd5b6100c860048036038101906100c39190610f3b565b61025e565b6040516100d59190611213565b60405180910390f35b6100e66103fe565b6040516100f39190611257565b60405180910390f35b61011660048036038101906101119190610f7c565b610491565b005b610132600480360381019061012d9190610f7c565b610494565b005b61013c610497565b604051610149919061128d565b60405180910390f35b61016c60048036038101906101679190610f7c565b6104bd565b6040516101799190611257565b60405180910390f35b61019c60048036038101906101979190610f7c565b6104c4565b6040516101a99190611257565b60405180910390f35b6101cc60048036038101906101c79190610fa5565b6104cf565b005b6101e860048036038101906101e39190610f7c565b61071d565b6040516101f59190611257565b60405180910390f35b61021860048036038101906102139190610f7c565b610728565b6040516102259190611257565b60405180910390f35b61024860048036038101906102439190610f3b565b61072f565b6040516102559190611235565b60405180910390f35b6060610274671262cfb69e40cc5b60c01b610494565b6102886798c01d2f7400c2ea60c01b610494565b61029c67ad9923707237991e60c01b610494565b6000825190506102b66789f55ae5d37def3e60c01b610494565b6102ca67ac677aeb4c017ff360c01b610494565b60608167ffffffffffffffff811180156102e357600080fd5b506040519080825280602002602001820160405280156103125781602001602082028036833780820191505090505b509050610329670ba5e1384af0913e60c01b610494565b61033d6714028a04d7886c0860c01b610494565b60005b828110156103cb5761035c6781d854b59fb81ec660c01b610494565b61037885828151811061036b57fe5b60200260200101516108a5565b82828151811061038457fe5b602002602001019073ffffffffffffffffffffffffffffffffffffffff16908173ffffffffffffffffffffffffffffffffffffffff16815250508080600101915050610340565b506103e0676499c15a3010af8860c01b610494565b6103f4673ce7fdbf6e3ceeff60c01b610494565b8092505050919050565b600061041467e29fe2f351ca6b2760c01b610491565b610428676f5dd3f08b97747760c01b610491565b61043c673a9488d62818322a60c01b610491565b600073ffffffffffffffffffffffffffffffffffffffff1660008054906101000a900473ffffffffffffffffffffffffffffffffffffffff1673ffffffffffffffffffffffffffffffffffffffff1614905090565b50565b50565b600160009054906101000a900473ffffffffffffffffffffffffffffffffffffffff1681565b6000919050565b600060019050919050565b6104e3670b3f84efbe7b166460c01b610494565b6104f767d2ba19feb39e0b7f60c01b610491565b61050b670c5ad53cdb9edd1560c01b610491565b61051f67b6b588d2ebb9ae6960c01b610491565b61053367c4ec9a90a885875260c01b610491565b60008054906101000a900473ffffffffffffffffffffffffffffffffffffffff1673ffffffffffffffffffffffffffffffffffffffff163273ffffffffffffffffffffffffffffffffffffffff16146105c1576040517f08c379a00000000000000000000000000000000000000000000000000000000081526004016105b8906112a8565b60405180910390fd5b6105d567c3785ba1534db95460c01b610491565b6105e967e4202927591248ef60c01b610491565b60008060006101000a81548173ffffffffffffffffffffffffffffffffffffffff021916908373ffffffffffffffffffffffffffffffffffffffff16021790555061063e67531cfa2817fbdc8660c01b610491565b61065267a88fe5617780e90a60c01b610494565b61066667e820f68755b3cd5960c01b610494565b61067a674261d64cb5e3105760c01b610494565b80600160006101000a81548173ffffffffffffffffffffffffffffffffffffffff021916908373ffffffffffffffffffffffffffffffffffffffff1602179055506106cf6701520f419008b58e60c01b610491565b6106e36775364c04848b013b60c01b610491565b7f908408e307fc569b417f6cbec5d5a06f44a0a505ac0479b47d421a4b2fd6a1e63260405161071291906111f8565b60405180910390a150565b600060019050919050565b6000919050565b606061074567e80d71150b859b7260c01b610494565b61075967a983b910fbac0dde60c01b610494565b61076d67647fa2dd6620e96c60c01b610494565b600082519050610787673e1ca5096d39224d60c01b610494565b61079b67fc7faae55db6959760c01b610494565b60608167ffffffffffffffff811180156107b457600080fd5b506040519080825280602002602001820160405280156107e857816020015b60608152602001906001900390816107d35790505b5090506107ff67f69904c6431daa3260c01b610494565b61081367871b2ac11c1ac1e160c01b610494565b60005b8281101561087257610832679d6bbf61afcd60cd60c01b610494565b61084e85828151811061084157fe5b6020026020010151610b43565b82828151811061085a57fe5b60200260200101819052508080600101915050610816565b5061088767050076f9e6946aa460c01b610494565b61089b67881f2e841a33919160c01b610494565b8092505050919050565b60006108bb6767ba3fa8e255e42c60c01b610494565b6108cf67ded2d8e7ce5a2fd260c01b610494565b6108e367b7eec7d5b1f6d0ef60c01b610494565b60006108f9672f2b2f7babea174160c01b610494565b61090d67ddb621e05346684960c01b610494565b6000600160009054906101000a900473ffffffffffffffffffffffffffffffffffffffff1673ffffffffffffffffffffffffffffffffffffffff16630178b8bf856040518263ffffffff1660e01b815260040161096a9190611272565b60206040518083038186803b15801561098257600080fd5b505afa158015610996573d6000803e3d6000fd5b505050506040513d601f19601f820116820180604052508101906109ba9190610f12565b90506109d067f89bfd8ea1a9d84c60c01b610494565b6109e467dcfa76ac2a64a3d060c01b610494565b600073ffffffffffffffffffffffffffffffffffffffff168173ffffffffffffffffffffffffffffffffffffffff1614610afc57610a2b66c00643e0fe114260c01b610494565b610a3f676f657acc31999b6e60c01b610494565b610a53677e6620e4ec26afb860c01b610494565b8073ffffffffffffffffffffffffffffffffffffffff16633b3b57de856040518263ffffffff1660e01b8152600401610a8c9190611272565b60206040518083038186803b158015610aa457600080fd5b505afa925050508015610ad557506040513d601f19601f82011682018060405250810190610ad29190610f12565b60015b610ade57610af7565b610af2678d081549d3a105db60c01b610494565b809250505b610b11565b610b1067116afadf3c1fb43960c01b610494565b5b610b2567fd7a0c053af4eb8760c01b610494565b610b396730de74e4786aa2e460c01b610494565b8192505050919050565b6060610b59672ff51caeb36aa79560c01b610494565b610b6d678624272536b909b060c01b610494565b610b81675145d31ae44ae0e660c01b610494565b6060610b9767733b8d1519f8af7260c01b610494565b610bab670bec19ea53a9713360c01b610494565b6000600160009054906101000a900473ffffffffffffffffffffffffffffffffffffffff1673ffffffffffffffffffffffffffffffffffffffff16630178b8bf856040518263ffffffff1660e01b8152600401610c089190611272565b60206040518083038186803b158015610c2057600080fd5b505afa158015610c34573d6000803e3d6000fd5b505050506040513d601f19601f82011682018060405250810190610c589190610f12565b9050610c6e675f3e55e290a1f2be60c01b610494565b610c8267a4236d1b625413fd60c01b610494565b600073ffffffffffffffffffffffffffffffffffffffff168173ffffffffffffffffffffffffffffffffffffffff1614610da057610cca6771cac04d0611340f60c01b610494565b610cde67bbd7a982fc04f8d860c01b610494565b610cf2671e4e6b27da2a22c560c01b610494565b8073ffffffffffffffffffffffffffffffffffffffff1663691f3431856040518263ffffffff1660e01b8152600401610d2b9190611272565b60006040518083038186803b158015610d4357600080fd5b505afa925050508015610d7957506040513d6000823e3d601f19601f82011682018060405250810190610d769190610fce565b60015b610d8257610d9b565b610d9667bcddd4c206b0dfb760c01b610494565b809250505b610db5565b610db46783411ebc5f7949ec60c01b610494565b5b610dc967f538509b78c1831860c01b610494565b610ddd677c2d448ed267709960c01b610494565b8192505050919050565b600081519050610df68161150c565b92915050565b600082601f830112610e0d57600080fd5b8135610e20610e1b826112f5565b6112c8565b91508181835260208401935060208101905083856020840282011115610e4557600080fd5b60005b83811015610e755781610e5b8882610e7f565b845260208401935060208301925050600181019050610e48565b5050505092915050565b600081359050610e8e81611523565b92915050565b600081359050610ea38161153a565b92915050565b600081359050610eb881611551565b92915050565b600082601f830112610ecf57600080fd5b8151610ee2610edd8261131d565b6112c8565b91508082526020830160208301858383011115610efe57600080fd5b610f098382846114c8565b50505092915050565b600060208284031215610f2457600080fd5b6000610f3284828501610de7565b91505092915050565b600060208284031215610f4d57600080fd5b600082013567ffffffffffffffff811115610f6757600080fd5b610f7384828501610dfc565b91505092915050565b600060208284031215610f8e57600080fd5b6000610f9c84828501610e94565b91505092915050565b600060208284031215610fb757600080fd5b6000610fc584828501610ea9565b91505092915050565b600060208284031215610fe057600080fd5b600082015167ffffffffffffffff811115610ffa57600080fd5b61100684828501610ebe565b91505092915050565b600061101b838361104a565b60208301905092915050565b60006110338383611159565b905092915050565b6110448161146e565b82525050565b611053816113e8565b82525050565b600061106482611369565b61106e81856113a4565b935061107983611349565b8060005b838110156110aa578151611091888261100f565b975061109c8361138a565b92505060018101905061107d565b5085935050505092915050565b60006110c282611374565b6110cc81856113b5565b9350836020820285016110de85611359565b8060005b8581101561111a57848403895281516110fb8582611027565b945061110683611397565b925060208a019950506001810190506110e2565b50829750879550505050505092915050565b611135816113fa565b82525050565b61114481611406565b82525050565b61115381611480565b82525050565b60006111648261137f565b61116e81856113c6565b935061117e8185602086016114c8565b611187816114fb565b840191505092915050565b600061119f602f836113d7565b91507f496e697469616c697a61626c653a2074782e6f726967696e206973206e6f742060008301527f74686520696e697469616c697a657200000000000000000000000000000000006020830152604082019050919050565b600060208201905061120d600083018461103b565b92915050565b6000602082019050818103600083015261122d8184611059565b905092915050565b6000602082019050818103600083015261124f81846110b7565b905092915050565b600060208201905061126c600083018461112c565b92915050565b6000602082019050611287600083018461113b565b92915050565b60006020820190506112a2600083018461114a565b92915050565b600060208201905081810360008301526112c181611192565b9050919050565b6000604051905081810181811067ffffffffffffffff821117156112eb57600080fd5b8060405250919050565b600067ffffffffffffffff82111561130c57600080fd5b602082029050602081019050919050565b600067ffffffffffffffff82111561133457600080fd5b601f19601f8301169050602081019050919050565b6000819050602082019050919050565b6000819050602082019050919050565b600081519050919050565b600081519050919050565b600081519050919050565b6000602082019050919050565b6000602082019050919050565b600082825260208201905092915050565b600082825260208201905092915050565b600082825260208201905092915050565b600082825260208201905092915050565b60006113f38261144e565b9050919050565b60008115159050919050565b6000819050919050565b60007fffffffffffffffff00000000000000000000000000000000000000000000000082169050919050565b6000611447826113e8565b9050919050565b600073ffffffffffffffffffffffffffffffffffffffff82169050919050565b6000611479826114a4565b9050919050565b600061148b82611492565b9050919050565b600061149d8261144e565b9050919050565b60006114af826114b6565b9050919050565b60006114c18261144e565b9050919050565b60005b838110156114e65780820151818401526020810190506114cb565b838111156114f5576000848401525b50505050565b6000601f19601f8301169050919050565b611515816113e8565b811461152057600080fd5b50565b61152c81611406565b811461153757600080fd5b50565b61154381611410565b811461154e57600080fd5b50565b61155a8161143c565b811461156557600080fd5b5056fea164736f6c634300060c000a",
  "linkReferences": {},
  "deployedLinkReferences": {}
}