{
  "_format": "hh-sol-artifact-1",
  "contractName": "ENSHelper",
  "sourceName": "src/ens/ENSHelper.sol",
  "abi": [
    {
      "inputs": [],
      "stateMutability": "nonpayable",
      "type": "constructor"
    },
    {
      "anonymous": false,
      "inputs": [
        {
          "indexed": false,
          "internalType": "address",
          "name": "initializer",
          "type": "address"
        }
      ],
      "name": "Initialized",
      "type": "event"
    },
    {
      "inputs": [
        {
          "internalType": "bytes32[]",
          "name": "nodes",
          "type": "bytes32[]"
        }
      ],
      "name": "getAddresses",
      "outputs": [
        {
          "internalType": "address[]",
          "name": "",
          "type": "address[]"
        }
      ],
      "stateMutability": "view",
      "type": "function"
    },
    {
      "inputs": [
        {
          "internalType": "contract ENSRegistry",
          "name": "registry_",
          "type": "address"
        }
      ],
      "name": "initialize",
      "outputs": [],
      "stateMutability": "nonpayable",
      "type": "function"
    },
    {
      "inputs": [],
      "name": "isInitialized",
      "outputs": [
        {
          "internalType": "bool",
          "name": "",
          "type": "bool"
        }
      ],
      "stateMutability": "view",
      "type": "function"
    },
    {
      "inputs": [],
      "name": "registry",
      "outputs": [
        {
          "internalType": "contract ENSRegistry",
          "name": "",
          "type": "address"
        }
      ],
      "stateMutability": "view",
      "type": "function"
    }
  ],
  "bytecode": "0x608060405234801561001057600080fd5b50326000806101000a81548173ffffffffffffffffffffffffffffffffffffffff021916908373ffffffffffffffffffffffffffffffffffffffff1602179055506109be806100606000396000f3fe608060405234801561001057600080fd5b506004361061004c5760003560e01c806338bc01b514610051578063392e53cd146100815780637b1039991461009f578063c4d66de8146100bd575b600080fd5b61006b600480360381019061006691906105da565b6100d9565b6040516100789190610786565b60405180910390f35b610089610329565b60405161009691906107a8565b60405180910390f35b6100a761037f565b6040516100b491906107de565b60405180910390f35b6100d760048036038101906100d2919061061b565b6103a5565b005b606060008251905060608167ffffffffffffffff811180156100fa57600080fd5b506040519080825280602002602001820160405280156101295781602001602082028036833780820191505090505b50905060005b8281101561031e576000600160009054906101000a900473ffffffffffffffffffffffffffffffffffffffff1673ffffffffffffffffffffffffffffffffffffffff16630178b8bf87848151811061018357fe5b60200260200101516040518263ffffffff1660e01b81526004016101a791906107c3565b60206040518083038186803b1580156101bf57600080fd5b505afa1580156101d3573d6000803e3d6000fd5b505050506040513d601f19601f820116820180604052508101906101f791906105b1565b9050600073ffffffffffffffffffffffffffffffffffffffff168173ffffffffffffffffffffffffffffffffffffffff1614610310578073ffffffffffffffffffffffffffffffffffffffff16633b3b57de87848151811061025557fe5b60200260200101516040518263ffffffff1660e01b815260040161027991906107c3565b60206040518083038186803b15801561029157600080fd5b505afa1580156102a5573d6000803e3d6000fd5b505050506040513d601f19601f820116820180604052508101906102c991906105b1565b8383815181106102d557fe5b602002602001019073ffffffffffffffffffffffffffffffffffffffff16908173ffffffffffffffffffffffffffffffffffffffff16815250505b50808060010191505061012f565b508092505050919050565b60008073ffffffffffffffffffffffffffffffffffffffff1660008054906101000a900473ffffffffffffffffffffffffffffffffffffffff1673ffffffffffffffffffffffffffffffffffffffff1614905090565b600160009054906101000a900473ffffffffffffffffffffffffffffffffffffffff1681565b60008054906101000a900473ffffffffffffffffffffffffffffffffffffffff1673ffffffffffffffffffffffffffffffffffffffff163273ffffffffffffffffffffffffffffffffffffffff1614610433576040517f08c379a000000000000000000000000000000000000000000000000000000000815260040161042a906107f9565b60405180910390fd5b60008060006101000a81548173ffffffffffffffffffffffffffffffffffffffff021916908373ffffffffffffffffffffffffffffffffffffffff16021790555080600160006101000a81548173ffffffffffffffffffffffffffffffffffffffff021916908373ffffffffffffffffffffffffffffffffffffffff1602179055507f908408e307fc569b417f6cbec5d5a06f44a0a505ac0479b47d421a4b2fd6a1e6326040516104e4919061076b565b60405180910390a150565b6000815190506104fe8161096c565b92915050565b600082601f83011261051557600080fd5b813561052861052382610846565b610819565b9150818183526020840193506020810190508385602084028201111561054d57600080fd5b60005b8381101561057d57816105638882610587565b845260208401935060208301925050600181019050610550565b5050505092915050565b60008135905061059681610983565b92915050565b6000813590506105ab8161099a565b92915050565b6000602082840312156105c357600080fd5b60006105d1848285016104ef565b91505092915050565b6000602082840312156105ec57600080fd5b600082013567ffffffffffffffff81111561060657600080fd5b61061284828501610504565b91505092915050565b60006020828403121561062d57600080fd5b600061063b8482850161059c565b91505092915050565b6000610650838361066b565b60208301905092915050565b61066581610912565b82525050565b610674816108b8565b82525050565b60006106858261087e565b61068f8185610896565b935061069a8361086e565b8060005b838110156106cb5781516106b28882610644565b97506106bd83610889565b92505060018101905061069e565b5085935050505092915050565b6106e1816108ca565b82525050565b6106f0816108d6565b82525050565b6106ff81610924565b82525050565b6000610712602f836108a7565b91507f496e697469616c697a61626c653a2074782e6f726967696e206973206e6f742060008301527f74686520696e697469616c697a657200000000000000000000000000000000006020830152604082019050919050565b6000602082019050610780600083018461065c565b92915050565b600060208201905081810360008301526107a0818461067a565b905092915050565b60006020820190506107bd60008301846106d8565b92915050565b60006020820190506107d860008301846106e7565b92915050565b60006020820190506107f360008301846106f6565b92915050565b6000602082019050818103600083015261081281610705565b9050919050565b6000604051905081810181811067ffffffffffffffff8211171561083c57600080fd5b8060405250919050565b600067ffffffffffffffff82111561085d57600080fd5b602082029050602081019050919050565b6000819050602082019050919050565b600081519050919050565b6000602082019050919050565b600082825260208201905092915050565b600082825260208201905092915050565b60006108c3826108f2565b9050919050565b60008115159050919050565b6000819050919050565b60006108eb826108b8565b9050919050565b600073ffffffffffffffffffffffffffffffffffffffff82169050919050565b600061091d82610948565b9050919050565b600061092f82610936565b9050919050565b6000610941826108f2565b9050919050565b60006109538261095a565b9050919050565b6000610965826108f2565b9050919050565b610975816108b8565b811461098057600080fd5b50565b61098c816108d6565b811461099757600080fd5b50565b6109a3816108e0565b81146109ae57600080fd5b5056fea164736f6c634300060c000a",
  "linkReferences": {},
  "deployedLinkReferences": {}
}