{
  "_format": "hh-sol-artifact-1",
  "contractName": "ENSLookupHelper",
  "sourceName": "src/ens/helpers/ENSLookupHelper.sol",
  "abi": [
    {
      "inputs": [],
      "stateMutability": "nonpayable",
      "type": "constructor"
    },
    {
      "anonymous": false,
      "inputs": [
        {
          "indexed": false,
          "internalType": "address",
          "name": "initializer",
          "type": "address"
        }
      ],
      "name": "Initialized",
      "type": "event"
    },
    {
      "inputs": [
        {
          "internalType": "contract ENSRegistry",
          "name": "registry_",
          "type": "address"
        }
      ],
      "name": "initialize",
      "outputs": [],
      "stateMutability": "nonpayable",
      "type": "function"
    },
    {
      "inputs": [],
      "name": "isInitialized",
      "outputs": [
        {
          "internalType": "bool",
          "name": "",
          "type": "bool"
        }
      ],
      "stateMutability": "view",
      "type": "function"
    },
    {
      "inputs": [],
      "name": "registry",
      "outputs": [
        {
          "internalType": "contract ENSRegistry",
          "name": "",
          "type": "address"
        }
      ],
      "stateMutability": "view",
      "type": "function"
    }
  ],
  "bytecode": "0x608060405234801561001057600080fd5b50326000806101000a81548173ffffffffffffffffffffffffffffffffffffffff021916908373ffffffffffffffffffffffffffffffffffffffff16021790555061030c806100606000396000f3fe608060405234801561001057600080fd5b50600436106100415760003560e01c8063392e53cd146100465780637b10399914610066578063c4d66de81461009a575b600080fd5b61004e6100de565b60405180821515815260200191505060405180910390f35b61006e610134565b604051808273ffffffffffffffffffffffffffffffffffffffff16815260200191505060405180910390f35b6100dc600480360360208110156100b057600080fd5b81019080803573ffffffffffffffffffffffffffffffffffffffff16906020019092919050505061015a565b005b60008073ffffffffffffffffffffffffffffffffffffffff1660008054906101000a900473ffffffffffffffffffffffffffffffffffffffff1673ffffffffffffffffffffffffffffffffffffffff1614905090565b600160009054906101000a900473ffffffffffffffffffffffffffffffffffffffff1681565b60008054906101000a900473ffffffffffffffffffffffffffffffffffffffff1673ffffffffffffffffffffffffffffffffffffffff163273ffffffffffffffffffffffffffffffffffffffff16146101fe576040517f08c379a000000000000000000000000000000000000000000000000000000000815260040180806020018281038252602f8152602001806102d1602f913960400191505060405180910390fd5b60008060006101000a81548173ffffffffffffffffffffffffffffffffffffffff021916908373ffffffffffffffffffffffffffffffffffffffff16021790555080600160006101000a81548173ffffffffffffffffffffffffffffffffffffffff021916908373ffffffffffffffffffffffffffffffffffffffff1602179055507f908408e307fc569b417f6cbec5d5a06f44a0a505ac0479b47d421a4b2fd6a1e632604051808273ffffffffffffffffffffffffffffffffffffffff16815260200191505060405180910390a15056fe496e697469616c697a61626c653a2074782e6f726967696e206973206e6f742074686520696e697469616c697a6572a164736f6c634300060c000a",
  "linkReferences": {},
  "deployedLinkReferences": {}
}