{
  "_format": "hh-sol-artifact-1",
  "contractName": "ENSReverseRegistrar",
  "sourceName": "src/ens/ENSReverseRegistrar.sol",
  "abi": [
    {
      "inputs": [],
      "stateMutability": "nonpayable",
      "type": "constructor"
    },
    {
      "anonymous": false,
      "inputs": [
        {
          "indexed": false,
          "internalType": "address",
          "name": "initializer",
          "type": "address"
        }
      ],
      "name": "Initialized",
      "type": "event"
    },
    {
      "inputs": [],
      "name": "ADDR_REVERSE_NODE",
      "outputs": [
        {
          "internalType": "bytes32",
          "name": "",
          "type": "bytes32"
        }
      ],
      "stateMutability": "view",
      "type": "function"
    },
    {
      "inputs": [
        {
          "internalType": "bytes8",
          "name": "c__29e7a9c7",
          "type": "bytes8"
        }
      ],
      "name": "c_29e7a9c7",
      "outputs": [],
      "stateMutability": "pure",
      "type": "function"
    },
    {
      "inputs": [
        {
          "internalType": "bytes8",
          "name": "c__c0828b70",
          "type": "bytes8"
        }
      ],
      "name": "c_c0828b70",
      "outputs": [],
      "stateMutability": "pure",
      "type": "function"
    },
    {
      "inputs": [
        {
          "internalType": "bytes8",
          "name": "c__29e7a9c7",
          "type": "bytes8"
        }
      ],
      "name": "c_false29e7a9c7",
      "outputs": [
        {
          "internalType": "bool",
          "name": "",
          "type": "bool"
        }
      ],
      "stateMutability": "pure",
      "type": "function"
    },
    {
      "inputs": [
        {
          "internalType": "bytes8",
          "name": "c__c0828b70",
          "type": "bytes8"
        }
      ],
      "name": "c_falsec0828b70",
      "outputs": [
        {
          "internalType": "bool",
          "name": "",
          "type": "bool"
        }
      ],
      "stateMutability": "pure",
      "type": "function"
    },
    {
      "inputs": [
        {
          "internalType": "bytes8",
          "name": "c__29e7a9c7",
          "type": "bytes8"
        }
      ],
      "name": "c_true29e7a9c7",
      "outputs": [
        {
          "internalType": "bool",
          "name": "",
          "type": "bool"
        }
      ],
      "stateMutability": "pure",
      "type": "function"
    },
    {
      "inputs": [
        {
          "internalType": "bytes8",
          "name": "c__c0828b70",
          "type": "bytes8"
        }
      ],
      "name": "c_truec0828b70",
      "outputs": [
        {
          "internalType": "bool",
          "name": "",
          "type": "bool"
        }
      ],
      "stateMutability": "pure",
      "type": "function"
    },
    {
      "inputs": [
        {
          "internalType": "address",
          "name": "owner",
          "type": "address"
        }
      ],
      "name": "claim",
      "outputs": [
        {
          "internalType": "bytes32",
          "name": "",
          "type": "bytes32"
        }
      ],
      "stateMutability": "nonpayable",
      "type": "function"
    },
    {
      "inputs": [
        {
          "internalType": "address",
          "name": "owner",
          "type": "address"
        },
        {
          "internalType": "address",
          "name": "resolver_",
          "type": "address"
        }
      ],
      "name": "claimWithResolver",
      "outputs": [
        {
          "internalType": "bytes32",
          "name": "",
          "type": "bytes32"
        }
      ],
      "stateMutability": "nonpayable",
      "type": "function"
    },
    {
      "inputs": [
        {
          "internalType": "contract ENSRegistry",
          "name": "registry_",
          "type": "address"
        },
        {
          "internalType": "contract ENSNameResolver",
          "name": "resolver_",
          "type": "address"
        }
      ],
      "name": "initialize",
      "outputs": [],
      "stateMutability": "nonpayable",
      "type": "function"
    },
    {
      "inputs": [],
      "name": "isInitialized",
      "outputs": [
        {
          "internalType": "bool",
          "name": "",
          "type": "bool"
        }
      ],
      "stateMutability": "view",
      "type": "function"
    },
    {
      "inputs": [
        {
          "internalType": "address",
          "name": "addr_",
          "type": "address"
        }
      ],
      "name": "node",
      "outputs": [
        {
          "internalType": "bytes32",
          "name": "",
          "type": "bytes32"
        }
      ],
      "stateMutability": "pure",
      "type": "function"
    },
    {
      "inputs": [],
      "name": "registry",
      "outputs": [
        {
          "internalType": "contract ENSRegistry",
          "name": "",
          "type": "address"
        }
      ],
      "stateMutability": "view",
      "type": "function"
    },
    {
      "inputs": [],
      "name": "resolver",
      "outputs": [
        {
          "internalType": "contract ENSNameResolver",
          "name": "",
          "type": "address"
        }
      ],
      "stateMutability": "view",
      "type": "function"
    },
    {
      "inputs": [
        {
          "internalType": "string",
          "name": "name",
          "type": "string"
        }
      ],
      "name": "setName",
      "outputs": [
        {
          "internalType": "bytes32",
          "name": "",
          "type": "bytes32"
        }
      ],
      "stateMutability": "nonpayable",
      "type": "function"
    }
  ],
  "bytecode": "0x608060405234801561001057600080fd5b5061002b676dfe6291193cb09c60c01b6100a460201b60201c565b61004567e53a0351407a575160c01b6100a460201b60201c565b326000806101000a81548173ffffffffffffffffffffffffffffffffffffffff021916908373ffffffffffffffffffffffffffffffffffffffff16021790555061009f6779415c236a4566d960c01b6100a760201b60201c565b6100aa565b50565b50565b6115e3806100b96000396000f3fe608060405234801561001057600080fd5b50600436106100f55760003560e01c80633a4442ed1161009757806398f4a9411161006657806398f4a94114610424578063bde481af14610483578063bffbe61c146104e2578063c47f00271461053a576100f5565b80633a4442ed14610325578063485cc9551461036e5780637b103999146103d25780637cf8a2eb14610406576100f5565b806318121646116100d357806318121646146102055780631e83409a1461024e5780632e6afd6e146102a6578063392e53cd14610305576100f5565b806304f3bcec146100fa5780630f5a54661461012e5780631262ed1c146101a6575b600080fd5b610102610609565b604051808273ffffffffffffffffffffffffffffffffffffffff16815260200191505060405180910390f35b6101906004803603604081101561014457600080fd5b81019080803573ffffffffffffffffffffffffffffffffffffffff169060200190929190803573ffffffffffffffffffffffffffffffffffffffff16906020019092919050505061062f565b6040518082815260200191505060405180910390f35b6101ed600480360360208110156101bc57600080fd5b81019080803577ffffffffffffffffffffffffffffffffffffffffffffffff1916906020019092919050505061067f565b60405180821515815260200191505060405180910390f35b61024c6004803603602081101561021b57600080fd5b81019080803577ffffffffffffffffffffffffffffffffffffffffffffffff1916906020019092919050505061068a565b005b6102906004803603602081101561026457600080fd5b81019080803573ffffffffffffffffffffffffffffffffffffffff16906020019092919050505061068d565b6040518082815260200191505060405180910390f35b6102ed600480360360208110156102bc57600080fd5b81019080803577ffffffffffffffffffffffffffffffffffffffffffffffff191690602001909291905050506106dd565b60405180821515815260200191505060405180910390f35b61030d6106e4565b60405180821515815260200191505060405180910390f35b61036c6004803603602081101561033b57600080fd5b81019080803577ffffffffffffffffffffffffffffffffffffffffffffffff19169060200190929190505050610776565b005b6103d06004803603604081101561038457600080fd5b81019080803573ffffffffffffffffffffffffffffffffffffffff169060200190929190803573ffffffffffffffffffffffffffffffffffffffff169060200190929190505050610779565b005b6103da610a49565b604051808273ffffffffffffffffffffffffffffffffffffffff16815260200191505060405180910390f35b61040e610a6f565b6040518082815260200191505060405180910390f35b61046b6004803603602081101561043a57600080fd5b81019080803577ffffffffffffffffffffffffffffffffffffffffffffffff19169060200190929190505050610a96565b60405180821515815260200191505060405180910390f35b6104ca6004803603602081101561049957600080fd5b81019080803577ffffffffffffffffffffffffffffffffffffffffffffffff19169060200190929190505050610aa1565b60405180821515815260200191505060405180910390f35b610524600480360360208110156104f857600080fd5b81019080803573ffffffffffffffffffffffffffffffffffffffff169060200190929190505050610aa8565b6040518082815260200191505060405180910390f35b6105f36004803603602081101561055057600080fd5b810190808035906020019064010000000081111561056d57600080fd5b82018360208201111561057f57600080fd5b803590602001918460018302840111640100000000831117156105a157600080fd5b91908080601f016020809104026020016040519081016040528093929190818152602001838380828437600081840152601f19601f820116905080830192505050505050509192919290505050610b5d565b6040518082815260200191505060405180910390f35b600260009054906101000a900473ffffffffffffffffffffffffffffffffffffffff1681565b600061064567ae1cb2e1627ec88a60c01b610776565b610659670c0d6761da99a6de60c01b610776565b61066d6726f35cbddd12c2da60c01b610776565b6106778383610d1e565b905092915050565b600060019050919050565b50565b60006106a3676a614fed47e013bb60c01b610776565b6106b76794b004d73e9315cc60c01b610776565b6106cb6733fdd6e6b71d777460c01b610776565b6106d6826000610d1e565b9050919050565b6000919050565b60006106fa67f7e9d611cc9b61cc60c01b61068a565b61070d663a321d7210235060c01b61068a565b610721677835008d2fa130b460c01b61068a565b600073ffffffffffffffffffffffffffffffffffffffff1660008054906101000a900473ffffffffffffffffffffffffffffffffffffffff1673ffffffffffffffffffffffffffffffffffffffff1614905090565b50565b61078d671bb9bb4e7f3502ec60c01b610776565b6107a167fcfa9f56aa2da43760c01b61068a565b6107b567fb88de49e16e7f9a60c01b61068a565b6107c967b0390fd68bc3d08360c01b61068a565b6107dd6736465d694fbcce6560c01b61068a565b60008054906101000a900473ffffffffffffffffffffffffffffffffffffffff1673ffffffffffffffffffffffffffffffffffffffff163273ffffffffffffffffffffffffffffffffffffffff1614610881576040517f08c379a000000000000000000000000000000000000000000000000000000000815260040180806020018281038252602f8152602001806115a8602f913960400191505060405180910390fd5b610895670837dbff5fe2bf1560c01b61068a565b6108a96708a4449089149c9e60c01b61068a565b60008060006101000a81548173ffffffffffffffffffffffffffffffffffffffff021916908373ffffffffffffffffffffffffffffffffffffffff1602179055506108fe677090866afaacfcb260c01b61068a565b61091267ac4e6b76e86a186a60c01b610776565b6109266799a3632672b5170e60c01b610776565b61093a6735d38f130d42fe1b60c01b610776565b81600160006101000a81548173ffffffffffffffffffffffffffffffffffffffff021916908373ffffffffffffffffffffffffffffffffffffffff16021790555061098f676c362adf268ec11e60c01b610776565b80600260006101000a81548173ffffffffffffffffffffffffffffffffffffffff021916908373ffffffffffffffffffffffffffffffffffffffff1602179055506109e467fb94bf07355708f360c01b61068a565b6109f867fe130d7f30f64fe360c01b61068a565b7f908408e307fc569b417f6cbec5d5a06f44a0a505ac0479b47d421a4b2fd6a1e632604051808273ffffffffffffffffffffffffffffffffffffffff16815260200191505060405180910390a15050565b600160009054906101000a900473ffffffffffffffffffffffffffffffffffffffff1681565b7f91d1777781884d03a6757a803996e38de2a42967fb37eeaca72729271025a9e260001b81565b600060019050919050565b6000919050565b6000610abe6716fdfda70a96a04860c01b610776565b610ad2679e64e6b7cb82b65060c01b610776565b610ae66708db16c7db52358260c01b610776565b7f91d1777781884d03a6757a803996e38de2a42967fb37eeaca72729271025a9e260001b610b298373ffffffffffffffffffffffffffffffffffffffff166114bc565b6040516020018083815260200182815260200192505050604051602081830303815290604052805190602001209050919050565b6000610b736773229fbd27cf2ec760c01b610776565b610b8767078a3e7e2a183bb460c01b610776565b610b9b67505ed7e3a36a171160c01b610776565b6000610bc930600260009054906101000a900473ffffffffffffffffffffffffffffffffffffffff16610d1e565b9050610bdf67d3aee042eca8460260c01b610776565b610bf36762af7814ee82be8660c01b610776565b600260009054906101000a900473ffffffffffffffffffffffffffffffffffffffff1673ffffffffffffffffffffffffffffffffffffffff16637737221382856040518363ffffffff1660e01b81526004018083815260200180602001828103825283818151815260200191508051906020019080838360005b83811015610c88578082015181840152602081019050610c6d565b50505050905090810190601f168015610cb55780820380516001836020036101000a031916815260200191505b509350505050600060405180830381600087803b158015610cd557600080fd5b505af1158015610ce9573d6000803e3d6000fd5b50505050610d0167320f4dbcd4ebc5c360c01b610776565b610d1567f0426948ade3887060c01b610776565b80915050919050565b6000610d346772a1ed09b5257f8760c01b610776565b610d4867e46211c2fdc5332860c01b610776565b610d5c671d14e21bf521a07560c01b610776565b6000610d7d3373ffffffffffffffffffffffffffffffffffffffff166114bc565b9050610d936710e595245c9a82c760c01b610776565b610da767583c6da7563fcd1f60c01b610776565b60007f91d1777781884d03a6757a803996e38de2a42967fb37eeaca72729271025a9e260001b826040516020018083815260200182815260200192505050604051602081830303815290604052805190602001209050610e1167ed4fb38df980a0fd60c01b610776565b610e256758a5aa226e5e2f9360c01b610776565b6000600160009054906101000a900473ffffffffffffffffffffffffffffffffffffffff1673ffffffffffffffffffffffffffffffffffffffff166302571be3836040518263ffffffff1660e01b81526004018082815260200191505060206040518083038186803b158015610e9a57600080fd5b505afa158015610eae573d6000803e3d6000fd5b505050506040513d6020811015610ec457600080fd5b81019080805190602001909291905050509050610eeb67e688c995209dc1b460c01b610776565b610eff6721242549761031c560c01b610776565b600073ffffffffffffffffffffffffffffffffffffffff168573ffffffffffffffffffffffffffffffffffffffff16141580156110155750600160009054906101000a900473ffffffffffffffffffffffffffffffffffffffff1673ffffffffffffffffffffffffffffffffffffffff16630178b8bf836040518263ffffffff1660e01b81526004018082815260200191505060206040518083038186803b158015610faa57600080fd5b505afa158015610fbe573d6000803e3d6000fd5b505050506040513d6020811015610fd457600080fd5b810190808051906020019092919050505073ffffffffffffffffffffffffffffffffffffffff168573ffffffffffffffffffffffffffffffffffffffff1614155b156112c85761102e676b222a37ccc1f91160c01b610776565b61104267ea815ce8f1d1606060c01b610776565b61105667b569db4eb2f6636060c01b610776565b3073ffffffffffffffffffffffffffffffffffffffff168173ffffffffffffffffffffffffffffffffffffffff16146111db5761109d67680b7f0d22b6612060c01b610776565b6110b167b5b0eece29807b4260c01b610776565b6110c5670949ffa4bedfe4c560c01b610776565b600160009054906101000a900473ffffffffffffffffffffffffffffffffffffffff1673ffffffffffffffffffffffffffffffffffffffff166306ab59237f91d1777781884d03a6757a803996e38de2a42967fb37eeaca72729271025a9e260001b85306040518463ffffffff1660e01b8152600401808481526020018381526020018273ffffffffffffffffffffffffffffffffffffffff1681526020019350505050602060405180830381600087803b15801561118357600080fd5b505af1158015611197573d6000803e3d6000fd5b505050506040513d60208110156111ad57600080fd5b8101908080519060200190929190505050506111d367df7b78baabae0cce60c01b610776565b3090506111f0565b6111ef6765a59e26bc0e492260c01b610776565b5b61120467ac2758df023d0f8960c01b610776565b61121867ce6190a110b2500660c01b610776565b600160009054906101000a900473ffffffffffffffffffffffffffffffffffffffff1673ffffffffffffffffffffffffffffffffffffffff16631896f70a83876040518363ffffffff1660e01b8152600401808381526020018273ffffffffffffffffffffffffffffffffffffffff16815260200192505050600060405180830381600087803b1580156112ab57600080fd5b505af11580156112bf573d6000803e3d6000fd5b505050506112dd565b6112dc670b9d8f4df596805960c01b610776565b5b6112f1674c0611e38302497660c01b610776565b611305677c60f51cc505b11660c01b610776565b8573ffffffffffffffffffffffffffffffffffffffff168173ffffffffffffffffffffffffffffffffffffffff16146114735761134c6710a30e797c6d048360c01b610776565b61136067146f4686835ed90560c01b610776565b6113746746c3f8daa4fa0a4860c01b610776565b600160009054906101000a900473ffffffffffffffffffffffffffffffffffffffff1673ffffffffffffffffffffffffffffffffffffffff166306ab59237f91d1777781884d03a6757a803996e38de2a42967fb37eeaca72729271025a9e260001b85896040518463ffffffff1660e01b8152600401808481526020018381526020018273ffffffffffffffffffffffffffffffffffffffff1681526020019350505050602060405180830381600087803b15801561143257600080fd5b505af1158015611446573d6000803e3d6000fd5b505050506040513d602081101561145c57600080fd5b810190808051906020019092919050505050611488565b6114876719014a5d6601ec9860c01b610776565b5b61149c676143803446b3c43560c01b610776565b6114b06717cf804908d6fd8c60c01b610776565b81935050505092915050565b60006114d26772e15f214e4d591d60c01b6115a4565b6114e66756048ba7e7c2e71a60c01b6115a4565b6114fa675e2c5141b6889e8a60c01b6115a4565b600061151067b6e90739d48da55f60c01b6115a4565b7f303132333435363738396162636465660000000000000000000000000000000060285b600081111561156a5760018103905081600f86161a815360108504945060018103905081600f86161a8153601085049450611534565b5060286000209150506115876792a9560ea1538be660c01b6115a4565b61159b67fff12e5f7ebd3f6d60c01b6115a4565b80915050919050565b5056fe496e697469616c697a61626c653a2074782e6f726967696e206973206e6f742074686520696e697469616c697a6572a164736f6c634300060c000a",
  "linkReferences": {},
  "deployedLinkReferences": {}
}