{
  "_format": "hh-sol-artifact-1",
  "contractName": "ENSReverseRegistrar",
  "sourceName": "src/ens/ENSReverseRegistrar.sol",
  "abi": [
    {
      "inputs": [],
      "stateMutability": "nonpayable",
      "type": "constructor"
    },
    {
      "anonymous": false,
      "inputs": [
        {
          "indexed": false,
          "internalType": "address",
          "name": "initializer",
          "type": "address"
        }
      ],
      "name": "Initialized",
      "type": "event"
    },
    {
      "inputs": [],
      "name": "ADDR_REVERSE_NODE",
      "outputs": [
        {
          "internalType": "bytes32",
          "name": "",
          "type": "bytes32"
        }
      ],
      "stateMutability": "view",
      "type": "function"
    },
    {
      "inputs": [
        {
          "internalType": "bytes8",
          "name": "c__098c0657",
          "type": "bytes8"
        }
      ],
      "name": "c_098c0657",
      "outputs": [],
      "stateMutability": "pure",
      "type": "function"
    },
    {
      "inputs": [
        {
          "internalType": "bytes8",
          "name": "c__c9f97d2d",
          "type": "bytes8"
        }
      ],
      "name": "c_c9f97d2d",
      "outputs": [],
      "stateMutability": "pure",
      "type": "function"
    },
    {
      "inputs": [
        {
          "internalType": "bytes8",
          "name": "c__098c0657",
          "type": "bytes8"
        }
      ],
      "name": "c_false098c0657",
      "outputs": [
        {
          "internalType": "bool",
          "name": "",
          "type": "bool"
        }
      ],
      "stateMutability": "pure",
      "type": "function"
    },
    {
      "inputs": [
        {
          "internalType": "bytes8",
          "name": "c__c9f97d2d",
          "type": "bytes8"
        }
      ],
      "name": "c_falsec9f97d2d",
      "outputs": [
        {
          "internalType": "bool",
          "name": "",
          "type": "bool"
        }
      ],
      "stateMutability": "pure",
      "type": "function"
    },
    {
      "inputs": [
        {
          "internalType": "bytes8",
          "name": "c__098c0657",
          "type": "bytes8"
        }
      ],
      "name": "c_true098c0657",
      "outputs": [
        {
          "internalType": "bool",
          "name": "",
          "type": "bool"
        }
      ],
      "stateMutability": "pure",
      "type": "function"
    },
    {
      "inputs": [
        {
          "internalType": "bytes8",
          "name": "c__c9f97d2d",
          "type": "bytes8"
        }
      ],
      "name": "c_truec9f97d2d",
      "outputs": [
        {
          "internalType": "bool",
          "name": "",
          "type": "bool"
        }
      ],
      "stateMutability": "pure",
      "type": "function"
    },
    {
      "inputs": [
        {
          "internalType": "address",
          "name": "owner",
          "type": "address"
        }
      ],
      "name": "claim",
      "outputs": [
        {
          "internalType": "bytes32",
          "name": "",
          "type": "bytes32"
        }
      ],
      "stateMutability": "nonpayable",
      "type": "function"
    },
    {
      "inputs": [
        {
          "internalType": "address",
          "name": "owner",
          "type": "address"
        },
        {
          "internalType": "address",
          "name": "resolver_",
          "type": "address"
        }
      ],
      "name": "claimWithResolver",
      "outputs": [
        {
          "internalType": "bytes32",
          "name": "",
          "type": "bytes32"
        }
      ],
      "stateMutability": "nonpayable",
      "type": "function"
    },
    {
      "inputs": [
        {
          "internalType": "contract ENSRegistry",
          "name": "registry_",
          "type": "address"
        },
        {
          "internalType": "contract ENSNameResolver",
          "name": "resolver_",
          "type": "address"
        }
      ],
      "name": "initialize",
      "outputs": [],
      "stateMutability": "nonpayable",
      "type": "function"
    },
    {
      "inputs": [],
      "name": "isInitialized",
      "outputs": [
        {
          "internalType": "bool",
          "name": "",
          "type": "bool"
        }
      ],
      "stateMutability": "view",
      "type": "function"
    },
    {
      "inputs": [
        {
          "internalType": "address",
          "name": "addr_",
          "type": "address"
        }
      ],
      "name": "node",
      "outputs": [
        {
          "internalType": "bytes32",
          "name": "",
          "type": "bytes32"
        }
      ],
      "stateMutability": "pure",
      "type": "function"
    },
    {
      "inputs": [],
      "name": "registry",
      "outputs": [
        {
          "internalType": "contract ENSRegistry",
          "name": "",
          "type": "address"
        }
      ],
      "stateMutability": "view",
      "type": "function"
    },
    {
      "inputs": [],
      "name": "resolver",
      "outputs": [
        {
          "internalType": "contract ENSNameResolver",
          "name": "",
          "type": "address"
        }
      ],
      "stateMutability": "view",
      "type": "function"
    },
    {
      "inputs": [
        {
          "internalType": "string",
          "name": "name",
          "type": "string"
        }
      ],
      "name": "setName",
      "outputs": [
        {
          "internalType": "bytes32",
          "name": "",
          "type": "bytes32"
        }
      ],
      "stateMutability": "nonpayable",
      "type": "function"
    }
  ],
  "bytecode": "0x608060405234801561001057600080fd5b5061002b67bcc9be562f8a4b0a60c01b6100a460201b60201c565b61004567579ae7209daca85260c01b6100a460201b60201c565b326000806101000a81548173ffffffffffffffffffffffffffffffffffffffff021916908373ffffffffffffffffffffffffffffffffffffffff16021790555061009f67a399ebea09360d3560c01b6100a760201b60201c565b6100aa565b50565b50565b6115e3806100b96000396000f3fe608060405234801561001057600080fd5b50600436106100f55760003560e01c80634d29954811610097578063c454330511610066578063c45433051461041d578063c47f00271461047c578063c74348c01461054b578063d84fa10c146105aa576100f5565b80634d299548146103145780637b103999146103735780637cf8a2eb146103a7578063bffbe61c146103c5576100f5565b80631e83409a116100d35780631e83409a146101ef578063392e53cd146102475780633e260b1314610267578063485cc955146102b0576100f5565b806304f3bcec146100fa578063061e6a5a1461012e5780630f5a546614610177575b600080fd5b610102610609565b604051808273ffffffffffffffffffffffffffffffffffffffff16815260200191505060405180910390f35b6101756004803603602081101561014457600080fd5b81019080803577ffffffffffffffffffffffffffffffffffffffffffffffff1916906020019092919050505061062f565b005b6101d96004803603604081101561018d57600080fd5b81019080803573ffffffffffffffffffffffffffffffffffffffff169060200190929190803573ffffffffffffffffffffffffffffffffffffffff169060200190929190505050610632565b6040518082815260200191505060405180910390f35b6102316004803603602081101561020557600080fd5b81019080803573ffffffffffffffffffffffffffffffffffffffff169060200190929190505050610682565b6040518082815260200191505060405180910390f35b61024f6106d1565b60405180821515815260200191505060405180910390f35b6102ae6004803603602081101561027d57600080fd5b81019080803577ffffffffffffffffffffffffffffffffffffffffffffffff19169060200190929190505050610764565b005b610312600480360360408110156102c657600080fd5b81019080803573ffffffffffffffffffffffffffffffffffffffff169060200190929190803573ffffffffffffffffffffffffffffffffffffffff169060200190929190505050610767565b005b61035b6004803603602081101561032a57600080fd5b81019080803577ffffffffffffffffffffffffffffffffffffffffffffffff19169060200190929190505050610a37565b60405180821515815260200191505060405180910390f35b61037b610a3e565b604051808273ffffffffffffffffffffffffffffffffffffffff16815260200191505060405180910390f35b6103af610a64565b6040518082815260200191505060405180910390f35b610407600480360360208110156103db57600080fd5b81019080803573ffffffffffffffffffffffffffffffffffffffff169060200190929190505050610a8b565b6040518082815260200191505060405180910390f35b6104646004803603602081101561043357600080fd5b81019080803577ffffffffffffffffffffffffffffffffffffffffffffffff19169060200190929190505050610b40565b60405180821515815260200191505060405180910390f35b6105356004803603602081101561049257600080fd5b81019080803590602001906401000000008111156104af57600080fd5b8201836020820111156104c157600080fd5b803590602001918460018302840111640100000000831117156104e357600080fd5b91908080601f016020809104026020016040519081016040528093929190818152602001838380828437600081840152601f19601f820116905080830192505050505050509192919290505050610b4b565b6040518082815260200191505060405180910390f35b6105926004803603602081101561056157600080fd5b81019080803577ffffffffffffffffffffffffffffffffffffffffffffffff19169060200190929190505050610d0c565b60405180821515815260200191505060405180910390f35b6105f1600480360360208110156105c057600080fd5b81019080803577ffffffffffffffffffffffffffffffffffffffffffffffff19169060200190929190505050610d17565b60405180821515815260200191505060405180910390f35b600260009054906101000a900473ffffffffffffffffffffffffffffffffffffffff1681565b50565b6000610648678d9a4ac5f4e4e48460c01b61062f565b61065c67d5715caf8f5a00af60c01b61062f565b610670678b87148bdb43cd2760c01b61062f565b61067a8383610d1e565b905092915050565b600061069867802b7699dc38571c60c01b61062f565b6106ab66af07c42e64946260c01b61062f565b6106bf67e2d84fe002c08a8960c01b61062f565b6106ca826000610d1e565b9050919050565b60006106e767e29fe2f351ca6b2760c01b610764565b6106fb676f5dd3f08b97747760c01b610764565b61070f673a9488d62818322a60c01b610764565b600073ffffffffffffffffffffffffffffffffffffffff1660008054906101000a900473ffffffffffffffffffffffffffffffffffffffff1673ffffffffffffffffffffffffffffffffffffffff1614905090565b50565b61077b676e55433e10791d8960c01b61062f565b61078f67d2ba19feb39e0b7f60c01b610764565b6107a3670c5ad53cdb9edd1560c01b610764565b6107b767b6b588d2ebb9ae6960c01b610764565b6107cb67c4ec9a90a885875260c01b610764565b60008054906101000a900473ffffffffffffffffffffffffffffffffffffffff1673ffffffffffffffffffffffffffffffffffffffff163273ffffffffffffffffffffffffffffffffffffffff161461086f576040517f08c379a000000000000000000000000000000000000000000000000000000000815260040180806020018281038252602f8152602001806115a8602f913960400191505060405180910390fd5b61088367c3785ba1534db95460c01b610764565b61089767e4202927591248ef60c01b610764565b60008060006101000a81548173ffffffffffffffffffffffffffffffffffffffff021916908373ffffffffffffffffffffffffffffffffffffffff1602179055506108ec67531cfa2817fbdc8660c01b610764565b61090067beff9d01c8e116a160c01b61062f565b610914678dad54bf39b6933060c01b61062f565b6109286782d24218338e77e360c01b61062f565b81600160006101000a81548173ffffffffffffffffffffffffffffffffffffffff021916908373ffffffffffffffffffffffffffffffffffffffff16021790555061097d673be3b5afe55773f460c01b61062f565b80600260006101000a81548173ffffffffffffffffffffffffffffffffffffffff021916908373ffffffffffffffffffffffffffffffffffffffff1602179055506109d26701520f419008b58e60c01b610764565b6109e66775364c04848b013b60c01b610764565b7f908408e307fc569b417f6cbec5d5a06f44a0a505ac0479b47d421a4b2fd6a1e632604051808273ffffffffffffffffffffffffffffffffffffffff16815260200191505060405180910390a15050565b6000919050565b600160009054906101000a900473ffffffffffffffffffffffffffffffffffffffff1681565b7f91d1777781884d03a6757a803996e38de2a42967fb37eeaca72729271025a9e260001b81565b6000610aa167d6bca8f1ea738a1f60c01b61062f565b610ab5670c71bc050b17c4c160c01b61062f565b610ac96785b58abe0136c50060c01b61062f565b7f91d1777781884d03a6757a803996e38de2a42967fb37eeaca72729271025a9e260001b610b0c8373ffffffffffffffffffffffffffffffffffffffff166114bc565b6040516020018083815260200182815260200192505050604051602081830303815290604052805190602001209050919050565b600060019050919050565b6000610b6167c6387bb33702f25760c01b61062f565b610b7567f52dc71539f8371f60c01b61062f565b610b896795e699f5c471f2c160c01b61062f565b6000610bb730600260009054906101000a900473ffffffffffffffffffffffffffffffffffffffff16610d1e565b9050610bcd67a6bc90be77a4c25f60c01b61062f565b610be1671d56c946afa642cc60c01b61062f565b600260009054906101000a900473ffffffffffffffffffffffffffffffffffffffff1673ffffffffffffffffffffffffffffffffffffffff16637737221382856040518363ffffffff1660e01b81526004018083815260200180602001828103825283818151815260200191508051906020019080838360005b83811015610c76578082015181840152602081019050610c5b565b50505050905090810190601f168015610ca35780820380516001836020036101000a031916815260200191505b509350505050600060405180830381600087803b158015610cc357600080fd5b505af1158015610cd7573d6000803e3d6000fd5b50505050610cef673ea2fa6739acc47a60c01b61062f565b610d0367179612b7219546fa60c01b61062f565b80915050919050565b600060019050919050565b6000919050565b6000610d34678fba7687037ff0ab60c01b61062f565b610d4867326f99af0097bd8d60c01b61062f565b610d5c67f93a3c734b04a2b860c01b61062f565b6000610d7d3373ffffffffffffffffffffffffffffffffffffffff166114bc565b9050610d93675777d3f0b5168a0260c01b61062f565b610da7677169c6b776203e3260c01b61062f565b60007f91d1777781884d03a6757a803996e38de2a42967fb37eeaca72729271025a9e260001b826040516020018083815260200182815260200192505050604051602081830303815290604052805190602001209050610e11677372572d8a0bbee560c01b61062f565b610e2567670f6de6440f899e60c01b61062f565b6000600160009054906101000a900473ffffffffffffffffffffffffffffffffffffffff1673ffffffffffffffffffffffffffffffffffffffff166302571be3836040518263ffffffff1660e01b81526004018082815260200191505060206040518083038186803b158015610e9a57600080fd5b505afa158015610eae573d6000803e3d6000fd5b505050506040513d6020811015610ec457600080fd5b81019080805190602001909291905050509050610eeb67af10598235b6e68b60c01b61062f565b610eff67b6df3587186b09b660c01b61062f565b600073ffffffffffffffffffffffffffffffffffffffff168573ffffffffffffffffffffffffffffffffffffffff16141580156110155750600160009054906101000a900473ffffffffffffffffffffffffffffffffffffffff1673ffffffffffffffffffffffffffffffffffffffff16630178b8bf836040518263ffffffff1660e01b81526004018082815260200191505060206040518083038186803b158015610faa57600080fd5b505afa158015610fbe573d6000803e3d6000fd5b505050506040513d6020811015610fd457600080fd5b810190808051906020019092919050505073ffffffffffffffffffffffffffffffffffffffff168573ffffffffffffffffffffffffffffffffffffffff1614155b156112c85761102e670a8b5142cbf3031c60c01b61062f565b611042673e693fc91f3b56ee60c01b61062f565b611056674284a8fe6ce6242060c01b61062f565b3073ffffffffffffffffffffffffffffffffffffffff168173ffffffffffffffffffffffffffffffffffffffff16146111db5761109d67f32eec28915eb55760c01b61062f565b6110b167215c62d59a05704560c01b61062f565b6110c5674b022e8bc635788c60c01b61062f565b600160009054906101000a900473ffffffffffffffffffffffffffffffffffffffff1673ffffffffffffffffffffffffffffffffffffffff166306ab59237f91d1777781884d03a6757a803996e38de2a42967fb37eeaca72729271025a9e260001b85306040518463ffffffff1660e01b8152600401808481526020018381526020018273ffffffffffffffffffffffffffffffffffffffff1681526020019350505050602060405180830381600087803b15801561118357600080fd5b505af1158015611197573d6000803e3d6000fd5b505050506040513d60208110156111ad57600080fd5b8101908080519060200190929190505050506111d367330e13943653410e60c01b61062f565b3090506111f0565b6111ef6796e8a699f95f13e260c01b61062f565b5b61120467ee2823989b48738560c01b61062f565b611218679ebccdd2975f0bab60c01b61062f565b600160009054906101000a900473ffffffffffffffffffffffffffffffffffffffff1673ffffffffffffffffffffffffffffffffffffffff16631896f70a83876040518363ffffffff1660e01b8152600401808381526020018273ffffffffffffffffffffffffffffffffffffffff16815260200192505050600060405180830381600087803b1580156112ab57600080fd5b505af11580156112bf573d6000803e3d6000fd5b505050506112dd565b6112dc674921cfe0d7ebef4060c01b61062f565b5b6112f167720b3121f3f8e3ed60c01b61062f565b61130567adb69e3621680edb60c01b61062f565b8573ffffffffffffffffffffffffffffffffffffffff168173ffffffffffffffffffffffffffffffffffffffff16146114735761134c67f7b8e5484c481e9860c01b61062f565b61136067f0d42aabdb004ef760c01b61062f565b6113746706d054ec7ccf763c60c01b61062f565b600160009054906101000a900473ffffffffffffffffffffffffffffffffffffffff1673ffffffffffffffffffffffffffffffffffffffff166306ab59237f91d1777781884d03a6757a803996e38de2a42967fb37eeaca72729271025a9e260001b85896040518463ffffffff1660e01b8152600401808481526020018381526020018273ffffffffffffffffffffffffffffffffffffffff1681526020019350505050602060405180830381600087803b15801561143257600080fd5b505af1158015611446573d6000803e3d6000fd5b505050506040513d602081101561145c57600080fd5b810190808051906020019092919050505050611488565b61148767b887de50faa5c22160c01b61062f565b5b61149c677fdd0f0a45805bcb60c01b61062f565b6114b067a7ee6975b58644a060c01b61062f565b81935050505092915050565b60006114d26749944f65c73f543d60c01b6115a4565b6114e6672e77f887ba8052d460c01b6115a4565b6114fa676cfd017771fa3bc760c01b6115a4565b6000611510679a313554b743bb2a60c01b6115a4565b7f303132333435363738396162636465660000000000000000000000000000000060285b600081111561156a5760018103905081600f86161a815360108504945060018103905081600f86161a8153601085049450611534565b50602860002091505061158767063a805e66eb937260c01b6115a4565b61159b67337071d34726b2ac60c01b6115a4565b80915050919050565b5056fe496e697469616c697a61626c653a2074782e6f726967696e206973206e6f742074686520696e697469616c697a6572a164736f6c634300060c000a",
  "linkReferences": {},
  "deployedLinkReferences": {}
}