{
  "_format": "hh-sol-artifact-1",
  "contractName": "ENSRegistry",
  "sourceName": "src/ens/ENSRegistry.sol",
  "abi": [
    {
      "inputs": [],
      "stateMutability": "nonpayable",
      "type": "constructor"
    },
    {
      "anonymous": false,
      "inputs": [
        {
          "indexed": true,
          "internalType": "address",
          "name": "owner",
          "type": "address"
        },
        {
          "indexed": true,
          "internalType": "address",
          "name": "operator",
          "type": "address"
        },
        {
          "indexed": false,
          "internalType": "bool",
          "name": "approved",
          "type": "bool"
        }
      ],
      "name": "ApprovalForAll",
      "type": "event"
    },
    {
      "anonymous": false,
      "inputs": [
        {
          "indexed": true,
          "internalType": "bytes32",
          "name": "node",
          "type": "bytes32"
        },
        {
          "indexed": true,
          "internalType": "bytes32",
          "name": "label",
          "type": "bytes32"
        },
        {
          "indexed": false,
          "internalType": "address",
          "name": "owner",
          "type": "address"
        }
      ],
      "name": "NewOwner",
      "type": "event"
    },
    {
      "anonymous": false,
      "inputs": [
        {
          "indexed": true,
          "internalType": "bytes32",
          "name": "node",
          "type": "bytes32"
        },
        {
          "indexed": false,
          "internalType": "address",
          "name": "resolver",
          "type": "address"
        }
      ],
      "name": "NewResolver",
      "type": "event"
    },
    {
      "anonymous": false,
      "inputs": [
        {
          "indexed": true,
          "internalType": "bytes32",
          "name": "node",
          "type": "bytes32"
        },
        {
          "indexed": false,
          "internalType": "uint64",
          "name": "ttl",
          "type": "uint64"
        }
      ],
      "name": "NewTTL",
      "type": "event"
    },
    {
      "anonymous": false,
      "inputs": [
        {
          "indexed": true,
          "internalType": "bytes32",
          "name": "node",
          "type": "bytes32"
        },
        {
          "indexed": false,
          "internalType": "address",
          "name": "owner",
          "type": "address"
        }
      ],
      "name": "Transfer",
      "type": "event"
    },
    {
      "inputs": [
        {
          "internalType": "bytes8",
          "name": "c__18e7c73b",
          "type": "bytes8"
        }
      ],
      "name": "c_18e7c73b",
      "outputs": [],
      "stateMutability": "pure",
      "type": "function"
    },
    {
      "inputs": [
        {
          "internalType": "bytes8",
          "name": "c__18e7c73b",
          "type": "bytes8"
        }
      ],
      "name": "c_false18e7c73b",
      "outputs": [
        {
          "internalType": "bool",
          "name": "",
          "type": "bool"
        }
      ],
      "stateMutability": "pure",
      "type": "function"
    },
    {
      "inputs": [
        {
          "internalType": "bytes8",
          "name": "c__18e7c73b",
          "type": "bytes8"
        }
      ],
      "name": "c_true18e7c73b",
      "outputs": [
        {
          "internalType": "bool",
          "name": "",
          "type": "bool"
        }
      ],
      "stateMutability": "pure",
      "type": "function"
    },
    {
      "inputs": [
        {
          "internalType": "address",
          "name": "owner_",
          "type": "address"
        },
        {
          "internalType": "address",
          "name": "operator",
          "type": "address"
        }
      ],
      "name": "isApprovedForAll",
      "outputs": [
        {
          "internalType": "bool",
          "name": "",
          "type": "bool"
        }
      ],
      "stateMutability": "view",
      "type": "function"
    },
    {
      "inputs": [
        {
          "internalType": "bytes32",
          "name": "node",
          "type": "bytes32"
        }
      ],
      "name": "owner",
      "outputs": [
        {
          "internalType": "address",
          "name": "",
          "type": "address"
        }
      ],
      "stateMutability": "view",
      "type": "function"
    },
    {
      "inputs": [
        {
          "internalType": "bytes32",
          "name": "node",
          "type": "bytes32"
        }
      ],
      "name": "recordExists",
      "outputs": [
        {
          "internalType": "bool",
          "name": "",
          "type": "bool"
        }
      ],
      "stateMutability": "view",
      "type": "function"
    },
    {
      "inputs": [
        {
          "internalType": "bytes32",
          "name": "node",
          "type": "bytes32"
        }
      ],
      "name": "resolver",
      "outputs": [
        {
          "internalType": "address",
          "name": "",
          "type": "address"
        }
      ],
      "stateMutability": "view",
      "type": "function"
    },
    {
      "inputs": [
        {
          "internalType": "address",
          "name": "operator",
          "type": "address"
        },
        {
          "internalType": "bool",
          "name": "approved",
          "type": "bool"
        }
      ],
      "name": "setApprovalForAll",
      "outputs": [],
      "stateMutability": "nonpayable",
      "type": "function"
    },
    {
      "inputs": [
        {
          "internalType": "bytes32",
          "name": "node",
          "type": "bytes32"
        },
        {
          "internalType": "address",
          "name": "owner_",
          "type": "address"
        }
      ],
      "name": "setOwner",
      "outputs": [],
      "stateMutability": "nonpayable",
      "type": "function"
    },
    {
      "inputs": [
        {
          "internalType": "bytes32",
          "name": "node",
          "type": "bytes32"
        },
        {
          "internalType": "address",
          "name": "owner_",
          "type": "address"
        },
        {
          "internalType": "address",
          "name": "resolver_",
          "type": "address"
        },
        {
          "internalType": "uint64",
          "name": "ttl_",
          "type": "uint64"
        }
      ],
      "name": "setRecord",
      "outputs": [],
      "stateMutability": "nonpayable",
      "type": "function"
    },
    {
      "inputs": [
        {
          "internalType": "bytes32",
          "name": "node",
          "type": "bytes32"
        },
        {
          "internalType": "address",
          "name": "resolver_",
          "type": "address"
        }
      ],
      "name": "setResolver",
      "outputs": [],
      "stateMutability": "nonpayable",
      "type": "function"
    },
    {
      "inputs": [
        {
          "internalType": "bytes32",
          "name": "node",
          "type": "bytes32"
        },
        {
          "internalType": "bytes32",
          "name": "label",
          "type": "bytes32"
        },
        {
          "internalType": "address",
          "name": "owner_",
          "type": "address"
        }
      ],
      "name": "setSubnodeOwner",
      "outputs": [
        {
          "internalType": "bytes32",
          "name": "",
          "type": "bytes32"
        }
      ],
      "stateMutability": "nonpayable",
      "type": "function"
    },
    {
      "inputs": [
        {
          "internalType": "bytes32",
          "name": "node",
          "type": "bytes32"
        },
        {
          "internalType": "bytes32",
          "name": "label",
          "type": "bytes32"
        },
        {
          "internalType": "address",
          "name": "owner_",
          "type": "address"
        },
        {
          "internalType": "address",
          "name": "resolver_",
          "type": "address"
        },
        {
          "internalType": "uint64",
          "name": "ttl_",
          "type": "uint64"
        }
      ],
      "name": "setSubnodeRecord",
      "outputs": [],
      "stateMutability": "nonpayable",
      "type": "function"
    },
    {
      "inputs": [
        {
          "internalType": "bytes32",
          "name": "node",
          "type": "bytes32"
        },
        {
          "internalType": "uint64",
          "name": "ttl_",
          "type": "uint64"
        }
      ],
      "name": "setTTL",
      "outputs": [],
      "stateMutability": "nonpayable",
      "type": "function"
    },
    {
      "inputs": [
        {
          "internalType": "bytes32",
          "name": "node",
          "type": "bytes32"
        }
      ],
      "name": "ttl",
      "outputs": [
        {
          "internalType": "uint64",
          "name": "",
          "type": "uint64"
        }
      ],
      "stateMutability": "view",
      "type": "function"
    }
  ],
  "bytecode": "0x608060405234801561001057600080fd5b5061002b6726aeb8de67b1672960c01b6100a160201b60201c565b610045678878a66842bde38a60c01b6100a160201b60201c565b326000808060001b815260200190815260200160002060000160006101000a81548173ffffffffffffffffffffffffffffffffffffffff021916908373ffffffffffffffffffffffffffffffffffffffff1602179055506100a4565b50565b611d5c806100b36000396000f3fe608060405234801561001057600080fd5b50600436106100f55760003560e01c8063563940ec11610097578063b446aebb11610066578063b446aebb146104c4578063cf40882314610523578063e985e9c5146105a5578063f79fe5381461061f576100f5565b8063563940ec1461033b5780635b0fc9c31461039a5780635ef2c7f0146103e8578063a22cb46514610474576100f5565b806314ab9038116100d357806314ab90381461021657806316a25cbd146102585780631896f70a146102a45780633a285d49146102f2576100f5565b80630178b8bf146100fa57806302571be31461015257806306ab5923146101aa575b600080fd5b6101266004803603602081101561011057600080fd5b8101908080359060200190929190505050610663565b604051808273ffffffffffffffffffffffffffffffffffffffff16815260200191505060405180910390f35b61017e6004803603602081101561016857600080fd5b81019080803590602001909291905050506106de565b604051808273ffffffffffffffffffffffffffffffffffffffff16815260200191505060405180910390f35b610200600480360360608110156101c057600080fd5b810190808035906020019092919080359060200190929190803573ffffffffffffffffffffffffffffffffffffffff16906020019092919050505061083e565b6040518082815260200191505060405180910390f35b6102566004803603604081101561022c57600080fd5b8101908080359060200190929190803567ffffffffffffffff169060200190929190505050610c13565b005b6102846004803603602081101561026e57600080fd5b8101908080359060200190929190505050610f37565b604051808267ffffffffffffffff16815260200191505060405180910390f35b6102f0600480360360408110156102ba57600080fd5b8101908080359060200190929190803573ffffffffffffffffffffffffffffffffffffffff169060200190929190505050610fa6565b005b6103396004803603602081101561030857600080fd5b81019080803577ffffffffffffffffffffffffffffffffffffffffffffffff191690602001909291905050506112ee565b005b6103826004803603602081101561035157600080fd5b81019080803577ffffffffffffffffffffffffffffffffffffffffffffffff191690602001909291905050506112f1565b60405180821515815260200191505060405180910390f35b6103e6600480360360408110156103b057600080fd5b8101908080359060200190929190803573ffffffffffffffffffffffffffffffffffffffff1690602001909291905050506112f8565b005b610472600480360360a08110156103fe57600080fd5b810190808035906020019092919080359060200190929190803573ffffffffffffffffffffffffffffffffffffffff169060200190929190803573ffffffffffffffffffffffffffffffffffffffff169060200190929190803567ffffffffffffffff169060200190929190505050611640565b005b6104c26004803603604081101561048a57600080fd5b81019080803573ffffffffffffffffffffffffffffffffffffffff1690602001909291908035151590602001909291905050506116c6565b005b61050b600480360360208110156104da57600080fd5b81019080803577ffffffffffffffffffffffffffffffffffffffffffffffff19169060200190929190505050611815565b60405180821515815260200191505060405180910390f35b6105a36004803603608081101561053957600080fd5b8101908080359060200190929190803573ffffffffffffffffffffffffffffffffffffffff169060200190929190803573ffffffffffffffffffffffffffffffffffffffff169060200190929190803567ffffffffffffffff169060200190929190505050611820565b005b610607600480360360408110156105bb57600080fd5b81019080803573ffffffffffffffffffffffffffffffffffffffff169060200190929190803573ffffffffffffffffffffffffffffffffffffffff16906020019092919050505061189f565b60405180821515815260200191505060405180910390f35b61064b6004803603602081101561063557600080fd5b810190808035906020019092919050505061196f565b60405180821515815260200191505060405180910390f35b600061067967cf1ada7b58eadc7860c01b6112ee565b61068d67d4a78117134bb3d160c01b6112ee565b6106a167b0a0652ec48910f960c01b6112ee565b60008083815260200190815260200160002060010160009054906101000a900473ffffffffffffffffffffffffffffffffffffffff169050919050565b60006106f467b9fd57cd8618c6ad60c01b6112ee565b61070867eb56b898ce0f851160c01b6112ee565b61071c67219a2cbca22e8a8560c01b6112ee565b600080600084815260200190815260200160002060000160009054906101000a900473ffffffffffffffffffffffffffffffffffffffff16905061076a67a42c6452ac7ae5ec60c01b6112ee565b61077e673b6b9aae08be0b6160c01b6112ee565b3073ffffffffffffffffffffffffffffffffffffffff168173ffffffffffffffffffffffffffffffffffffffff1614156107f8576107c66706adf1263a187d0e60c01b6112ee565b6107da67120bb0476516aae060c01b6112ee565b6107ee67601dfe1b02072ea960c01b6112ee565b6000915050610839565b61080c676f332e3359cfc96d60c01b6112ee565b61082067fca3828b968ee1c360c01b6112ee565b610834675c940838dc0cb81460c01b6112ee565b809150505b919050565b600061085467116a8571237077a960c01b6112ee565b8361086967df7450eb592423ab60c01b6112ee565b61087d6705e3bb907e77004160c01b6112ee565b61089167db0eb4b19ceb5d0460c01b6112ee565b600080600083815260200190815260200160002060000160009054906101000a900473ffffffffffffffffffffffffffffffffffffffff1690506108df67e30f3a53aef181b560c01b6112ee565b6108f367932ad9bd50a88fa460c01b6112ee565b61090767c246778e2851985c60c01b6112ee565b3373ffffffffffffffffffffffffffffffffffffffff168173ffffffffffffffffffffffffffffffffffffffff1614801561095257506109516728c3358740f7c2cc60c01b611815565b5b806109ff5750600160008273ffffffffffffffffffffffffffffffffffffffff1673ffffffffffffffffffffffffffffffffffffffff16815260200190815260200160002060003373ffffffffffffffffffffffffffffffffffffffff1673ffffffffffffffffffffffffffffffffffffffff16815260200190815260200160002060009054906101000a900460ff1680156109fe57506109fd67f2fb86355494c83b60c01b611815565b5b5b610a54576040517f08c379a000000000000000000000000000000000000000000000000000000000815260040180806020018281038252602c815260200180611d24602c913960400191505060405180910390fd5b610a68672fbeb72f8452491060c01b6112ee565b610a7c6792a94b3827151ec960c01b6112ee565b610a9067cbc1474dd7ccae3d60c01b6112ee565b610aa467b5dce149520841d660c01b6112ee565b610ab86798a04a61ef3e4f0260c01b6112ee565b610acc67d1f3eea95579436a60c01b6112ee565b600086866040516020018083815260200182815260200192505050604051602081830303815290604052805190602001209050610b13672e3956af5ffdce0660c01b6112ee565b8460008083815260200190815260200160002060000160006101000a81548173ffffffffffffffffffffffffffffffffffffffff021916908373ffffffffffffffffffffffffffffffffffffffff160217905550610b7b67601583d0068a0fdb60c01b6112ee565b610b8f675c8593a8302df46960c01b6112ee565b85877fce0457fe73731f824cc272376169235128c118b49d344817417c6d108d155e8287604051808273ffffffffffffffffffffffffffffffffffffffff16815260200191505060405180910390a3610bf267d7f673cd8b5c2bf060c01b6112ee565b610c0667c48405c4cfc114d260c01b6112ee565b8093505050509392505050565b610c27670d008594ba6377fd60c01b6112ee565b81610c3c67df7450eb592423ab60c01b6112ee565b610c506705e3bb907e77004160c01b6112ee565b610c6467db0eb4b19ceb5d0460c01b6112ee565b600080600083815260200190815260200160002060000160009054906101000a900473ffffffffffffffffffffffffffffffffffffffff169050610cb267e30f3a53aef181b560c01b6112ee565b610cc667932ad9bd50a88fa460c01b6112ee565b610cda67c246778e2851985c60c01b6112ee565b3373ffffffffffffffffffffffffffffffffffffffff168173ffffffffffffffffffffffffffffffffffffffff16148015610d255750610d246728c3358740f7c2cc60c01b611815565b5b80610dd25750600160008273ffffffffffffffffffffffffffffffffffffffff1673ffffffffffffffffffffffffffffffffffffffff16815260200190815260200160002060003373ffffffffffffffffffffffffffffffffffffffff1673ffffffffffffffffffffffffffffffffffffffff16815260200190815260200160002060009054906101000a900460ff168015610dd15750610dd067f2fb86355494c83b60c01b611815565b5b5b610e27576040517f08c379a000000000000000000000000000000000000000000000000000000000815260040180806020018281038252602c815260200180611d24602c913960400191505060405180910390fd5b610e3b672fbeb72f8452491060c01b6112ee565b610e4f6792a94b3827151ec960c01b6112ee565b610e63679a4a7bcc88c0ee9960c01b6112ee565b610e7767780f0f5044ea358160c01b6112ee565b610e8b679c60f52a4f6392bb60c01b6112ee565b8260008086815260200190815260200160002060010160146101000a81548167ffffffffffffffff021916908367ffffffffffffffff160217905550610edb675e1a86b93e944d1960c01b6112ee565b610eef675b1f7ec2b4c5a3eb60c01b6112ee565b837f1d4f9bbfc9cab89d66e1a1562f2233ccbf1308cb4f63de2ead5787adddb8fa6884604051808267ffffffffffffffff16815260200191505060405180910390a250505050565b6000610f4d67a095bd939d98b67660c01b6112ee565b610f616740ef20fe17fc88ae60c01b6112ee565b610f7567551020cfec11374b60c01b6112ee565b60008083815260200190815260200160002060010160149054906101000a900467ffffffffffffffff169050919050565b610fba673943c88e423b911660c01b6112ee565b81610fcf67df7450eb592423ab60c01b6112ee565b610fe36705e3bb907e77004160c01b6112ee565b610ff767db0eb4b19ceb5d0460c01b6112ee565b600080600083815260200190815260200160002060000160009054906101000a900473ffffffffffffffffffffffffffffffffffffffff16905061104567e30f3a53aef181b560c01b6112ee565b61105967932ad9bd50a88fa460c01b6112ee565b61106d67c246778e2851985c60c01b6112ee565b3373ffffffffffffffffffffffffffffffffffffffff168173ffffffffffffffffffffffffffffffffffffffff161480156110b857506110b76728c3358740f7c2cc60c01b611815565b5b806111655750600160008273ffffffffffffffffffffffffffffffffffffffff1673ffffffffffffffffffffffffffffffffffffffff16815260200190815260200160002060003373ffffffffffffffffffffffffffffffffffffffff1673ffffffffffffffffffffffffffffffffffffffff16815260200190815260200160002060009054906101000a900460ff168015611164575061116367f2fb86355494c83b60c01b611815565b5b5b6111ba576040517f08c379a000000000000000000000000000000000000000000000000000000000815260040180806020018281038252602c815260200180611d24602c913960400191505060405180910390fd5b6111ce672fbeb72f8452491060c01b6112ee565b6111e26792a94b3827151ec960c01b6112ee565b6111f667fa875ae8a2e497b960c01b6112ee565b61120a679e8e6c28520d383360c01b6112ee565b61121e67da84c20205f4b30d60c01b6112ee565b8260008086815260200190815260200160002060010160006101000a81548173ffffffffffffffffffffffffffffffffffffffff021916908373ffffffffffffffffffffffffffffffffffffffff16021790555061128667bc1a7b01da0b7f7560c01b6112ee565b61129a679a1283ef543d883160c01b6112ee565b837f335721b01866dc23fbee8b6b2c7b1e14d6f05c28cd35a2c934239f94095602a084604051808273ffffffffffffffffffffffffffffffffffffffff16815260200191505060405180910390a250505050565b50565b6000919050565b61130c672825e6c7239564fd60c01b6112ee565b8161132167df7450eb592423ab60c01b6112ee565b6113356705e3bb907e77004160c01b6112ee565b61134967db0eb4b19ceb5d0460c01b6112ee565b600080600083815260200190815260200160002060000160009054906101000a900473ffffffffffffffffffffffffffffffffffffffff16905061139767e30f3a53aef181b560c01b6112ee565b6113ab67932ad9bd50a88fa460c01b6112ee565b6113bf67c246778e2851985c60c01b6112ee565b3373ffffffffffffffffffffffffffffffffffffffff168173ffffffffffffffffffffffffffffffffffffffff1614801561140a57506114096728c3358740f7c2cc60c01b611815565b5b806114b75750600160008273ffffffffffffffffffffffffffffffffffffffff1673ffffffffffffffffffffffffffffffffffffffff16815260200190815260200160002060003373ffffffffffffffffffffffffffffffffffffffff1673ffffffffffffffffffffffffffffffffffffffff16815260200190815260200160002060009054906101000a900460ff1680156114b657506114b567f2fb86355494c83b60c01b611815565b5b5b61150c576040517f08c379a000000000000000000000000000000000000000000000000000000000815260040180806020018281038252602c815260200180611d24602c913960400191505060405180910390fd5b611520672fbeb72f8452491060c01b6112ee565b6115346792a94b3827151ec960c01b6112ee565b61154867ac7c128e2c8202cb60c01b6112ee565b61155c678e52d06ac3777e5c60c01b6112ee565b61157067c14c817264e7d0e960c01b6112ee565b8260008086815260200190815260200160002060000160006101000a81548173ffffffffffffffffffffffffffffffffffffffff021916908373ffffffffffffffffffffffffffffffffffffffff1602179055506115d86778e7e0720cf055af60c01b6112ee565b6115ec67495f692142d9404c60c01b6112ee565b837fd4735d920b0f87494915f556dd9b54c8f309026070caea5c737245152564d26684604051808273ffffffffffffffffffffffffffffffffffffffff16815260200191505060405180910390a250505050565b61165467c060cc32b713d9bc60c01b6112ee565b61166867a0e17a48ea58b1b760c01b6112ee565b61167c670515ee58c853331160c01b6112ee565b600061168986868661083e565b905061169f677de639d4c81b0a7460c01b6112ee565b6116b3678b8a387590eeb56560c01b6112ee565b6116be818484611a1a565b505050505050565b6116da67209f20a0c7b21eab60c01b6112ee565b6116ee67aa6079497ebae1e460c01b6112ee565b80600160003373ffffffffffffffffffffffffffffffffffffffff1673ffffffffffffffffffffffffffffffffffffffff16815260200190815260200160002060008473ffffffffffffffffffffffffffffffffffffffff1673ffffffffffffffffffffffffffffffffffffffff16815260200190815260200160002060006101000a81548160ff0219169083151502179055506117966710f7b0c47300361660c01b6112ee565b6117aa671f7430830b765ef860c01b6112ee565b8173ffffffffffffffffffffffffffffffffffffffff163373ffffffffffffffffffffffffffffffffffffffff167f17307eab39ab6107e8899845ad3d59bd9653f200f220920489ca2b5937696c318360405180821515815260200191505060405180910390a35050565b600060019050919050565b61183467b48699c43167b20360c01b6112ee565b611848670c9ac0905fb9d68760c01b6112ee565b61185c677dbaa64ae61627bd60c01b6112ee565b61186684846112f8565b61187a670b27978130c0e8ce60c01b6112ee565b61188e67453d15e6afec25f560c01b6112ee565b611899848383611a1a565b50505050565b60006118b567de424740b836192260c01b6112ee565b6118c9672c5923f5f451bda960c01b6112ee565b6118dd6758861ce6d91e2aab60c01b6112ee565b600160008473ffffffffffffffffffffffffffffffffffffffff1673ffffffffffffffffffffffffffffffffffffffff16815260200190815260200160002060008373ffffffffffffffffffffffffffffffffffffffff1673ffffffffffffffffffffffffffffffffffffffff16815260200190815260200160002060009054906101000a900460ff16905092915050565b60006119856723111834b6a7e79b60c01b6112ee565b61199967de526944c9fa347460c01b6112ee565b6119ad67b30df3ad65083ae860c01b6112ee565b600073ffffffffffffffffffffffffffffffffffffffff1660008084815260200190815260200160002060000160009054906101000a900473ffffffffffffffffffffffffffffffffffffffff1673ffffffffffffffffffffffffffffffffffffffff1614159050919050565b611a2e67a007d396092c6ee860c01b6112ee565b611a42673ea440c42ee3343160c01b6112ee565b611a56678c54fd06b66b683a60c01b6112ee565b60008084815260200190815260200160002060010160009054906101000a900473ffffffffffffffffffffffffffffffffffffffff1673ffffffffffffffffffffffffffffffffffffffff168273ffffffffffffffffffffffffffffffffffffffff1614611bb557611ad2679332ffbc2bc54cb660c01b6112ee565b611ae667f33b6ba7e0f11a7360c01b6112ee565b8160008085815260200190815260200160002060010160006101000a81548173ffffffffffffffffffffffffffffffffffffffff021916908373ffffffffffffffffffffffffffffffffffffffff160217905550611b4e678e27c8235cba454b60c01b6112ee565b611b62678a21851394787b7760c01b6112ee565b827f335721b01866dc23fbee8b6b2c7b1e14d6f05c28cd35a2c934239f94095602a083604051808273ffffffffffffffffffffffffffffffffffffffff16815260200191505060405180910390a2611bca565b611bc9674d9ca6612d9f37a560c01b6112ee565b5b611bde677283a40d0f9fe34860c01b6112ee565b611bf267dabdae064663553260c01b6112ee565b60008084815260200190815260200160002060010160149054906101000a900467ffffffffffffffff1667ffffffffffffffff168167ffffffffffffffff1614611d0957611c4a67648e551918c43a5c60c01b6112ee565b611c5e678636175b2a42c26c60c01b6112ee565b8060008085815260200190815260200160002060010160146101000a81548167ffffffffffffffff021916908367ffffffffffffffff160217905550611cae676746841e80ab8d9560c01b6112ee565b611cc267d5b36fe43ed2083160c01b6112ee565b827f1d4f9bbfc9cab89d66e1a1562f2233ccbf1308cb4f63de2ead5787adddb8fa6882604051808267ffffffffffffffff16815260200191505060405180910390a2611d1e565b611d1d671e029d449b64f27a60c01b6112ee565b5b50505056fe454e5352656769737472793a20726576657274656420627920617574686f7269736564206d6f646966696572a164736f6c634300060c000a",
  "linkReferences": {},
  "deployedLinkReferences": {}
}