{
  "_format": "hh-sol-artifact-1",
  "contractName": "ENSRegistry",
  "sourceName": "src/ens/ENSRegistry.sol",
  "abi": [
    {
      "inputs": [],
      "stateMutability": "nonpayable",
      "type": "constructor"
    },
    {
      "anonymous": false,
      "inputs": [
        {
          "indexed": true,
          "internalType": "address",
          "name": "owner",
          "type": "address"
        },
        {
          "indexed": true,
          "internalType": "address",
          "name": "operator",
          "type": "address"
        },
        {
          "indexed": false,
          "internalType": "bool",
          "name": "approved",
          "type": "bool"
        }
      ],
      "name": "ApprovalForAll",
      "type": "event"
    },
    {
      "anonymous": false,
      "inputs": [
        {
          "indexed": true,
          "internalType": "bytes32",
          "name": "node",
          "type": "bytes32"
        },
        {
          "indexed": true,
          "internalType": "bytes32",
          "name": "label",
          "type": "bytes32"
        },
        {
          "indexed": false,
          "internalType": "address",
          "name": "owner",
          "type": "address"
        }
      ],
      "name": "NewOwner",
      "type": "event"
    },
    {
      "anonymous": false,
      "inputs": [
        {
          "indexed": true,
          "internalType": "bytes32",
          "name": "node",
          "type": "bytes32"
        },
        {
          "indexed": false,
          "internalType": "address",
          "name": "resolver",
          "type": "address"
        }
      ],
      "name": "NewResolver",
      "type": "event"
    },
    {
      "anonymous": false,
      "inputs": [
        {
          "indexed": true,
          "internalType": "bytes32",
          "name": "node",
          "type": "bytes32"
        },
        {
          "indexed": false,
          "internalType": "uint64",
          "name": "ttl",
          "type": "uint64"
        }
      ],
      "name": "NewTTL",
      "type": "event"
    },
    {
      "anonymous": false,
      "inputs": [
        {
          "indexed": true,
          "internalType": "bytes32",
          "name": "node",
          "type": "bytes32"
        },
        {
          "indexed": false,
          "internalType": "address",
          "name": "owner",
          "type": "address"
        }
      ],
      "name": "Transfer",
      "type": "event"
    },
    {
      "inputs": [
        {
          "internalType": "bytes8",
          "name": "c__d1f32b86",
          "type": "bytes8"
        }
      ],
      "name": "c_d1f32b86",
      "outputs": [],
      "stateMutability": "pure",
      "type": "function"
    },
    {
      "inputs": [
        {
          "internalType": "bytes8",
          "name": "c__d1f32b86",
          "type": "bytes8"
        }
      ],
      "name": "c_falsed1f32b86",
      "outputs": [
        {
          "internalType": "bool",
          "name": "",
          "type": "bool"
        }
      ],
      "stateMutability": "pure",
      "type": "function"
    },
    {
      "inputs": [
        {
          "internalType": "bytes8",
          "name": "c__d1f32b86",
          "type": "bytes8"
        }
      ],
      "name": "c_trued1f32b86",
      "outputs": [
        {
          "internalType": "bool",
          "name": "",
          "type": "bool"
        }
      ],
      "stateMutability": "pure",
      "type": "function"
    },
    {
      "inputs": [
        {
          "internalType": "address",
          "name": "owner_",
          "type": "address"
        },
        {
          "internalType": "address",
          "name": "operator",
          "type": "address"
        }
      ],
      "name": "isApprovedForAll",
      "outputs": [
        {
          "internalType": "bool",
          "name": "",
          "type": "bool"
        }
      ],
      "stateMutability": "view",
      "type": "function"
    },
    {
      "inputs": [
        {
          "internalType": "bytes32",
          "name": "node",
          "type": "bytes32"
        }
      ],
      "name": "owner",
      "outputs": [
        {
          "internalType": "address",
          "name": "",
          "type": "address"
        }
      ],
      "stateMutability": "view",
      "type": "function"
    },
    {
      "inputs": [
        {
          "internalType": "bytes32",
          "name": "node",
          "type": "bytes32"
        }
      ],
      "name": "recordExists",
      "outputs": [
        {
          "internalType": "bool",
          "name": "",
          "type": "bool"
        }
      ],
      "stateMutability": "view",
      "type": "function"
    },
    {
      "inputs": [
        {
          "internalType": "bytes32",
          "name": "node",
          "type": "bytes32"
        }
      ],
      "name": "resolver",
      "outputs": [
        {
          "internalType": "address",
          "name": "",
          "type": "address"
        }
      ],
      "stateMutability": "view",
      "type": "function"
    },
    {
      "inputs": [
        {
          "internalType": "address",
          "name": "operator",
          "type": "address"
        },
        {
          "internalType": "bool",
          "name": "approved",
          "type": "bool"
        }
      ],
      "name": "setApprovalForAll",
      "outputs": [],
      "stateMutability": "nonpayable",
      "type": "function"
    },
    {
      "inputs": [
        {
          "internalType": "bytes32",
          "name": "node",
          "type": "bytes32"
        },
        {
          "internalType": "address",
          "name": "owner_",
          "type": "address"
        }
      ],
      "name": "setOwner",
      "outputs": [],
      "stateMutability": "nonpayable",
      "type": "function"
    },
    {
      "inputs": [
        {
          "internalType": "bytes32",
          "name": "node",
          "type": "bytes32"
        },
        {
          "internalType": "address",
          "name": "owner_",
          "type": "address"
        },
        {
          "internalType": "address",
          "name": "resolver_",
          "type": "address"
        },
        {
          "internalType": "uint64",
          "name": "ttl_",
          "type": "uint64"
        }
      ],
      "name": "setRecord",
      "outputs": [],
      "stateMutability": "nonpayable",
      "type": "function"
    },
    {
      "inputs": [
        {
          "internalType": "bytes32",
          "name": "node",
          "type": "bytes32"
        },
        {
          "internalType": "address",
          "name": "resolver_",
          "type": "address"
        }
      ],
      "name": "setResolver",
      "outputs": [],
      "stateMutability": "nonpayable",
      "type": "function"
    },
    {
      "inputs": [
        {
          "internalType": "bytes32",
          "name": "node",
          "type": "bytes32"
        },
        {
          "internalType": "bytes32",
          "name": "label",
          "type": "bytes32"
        },
        {
          "internalType": "address",
          "name": "owner_",
          "type": "address"
        }
      ],
      "name": "setSubnodeOwner",
      "outputs": [
        {
          "internalType": "bytes32",
          "name": "",
          "type": "bytes32"
        }
      ],
      "stateMutability": "nonpayable",
      "type": "function"
    },
    {
      "inputs": [
        {
          "internalType": "bytes32",
          "name": "node",
          "type": "bytes32"
        },
        {
          "internalType": "bytes32",
          "name": "label",
          "type": "bytes32"
        },
        {
          "internalType": "address",
          "name": "owner_",
          "type": "address"
        },
        {
          "internalType": "address",
          "name": "resolver_",
          "type": "address"
        },
        {
          "internalType": "uint64",
          "name": "ttl_",
          "type": "uint64"
        }
      ],
      "name": "setSubnodeRecord",
      "outputs": [],
      "stateMutability": "nonpayable",
      "type": "function"
    },
    {
      "inputs": [
        {
          "internalType": "bytes32",
          "name": "node",
          "type": "bytes32"
        },
        {
          "internalType": "uint64",
          "name": "ttl_",
          "type": "uint64"
        }
      ],
      "name": "setTTL",
      "outputs": [],
      "stateMutability": "nonpayable",
      "type": "function"
    },
    {
      "inputs": [
        {
          "internalType": "bytes32",
          "name": "node",
          "type": "bytes32"
        }
      ],
      "name": "ttl",
      "outputs": [
        {
          "internalType": "uint64",
          "name": "",
          "type": "uint64"
        }
      ],
      "stateMutability": "view",
      "type": "function"
    }
  ],
  "bytecode": "0x608060405234801561001057600080fd5b5061002b6736c8e9480155531e60c01b6100a160201b60201c565b61004567cb111d834975039760c01b6100a160201b60201c565b326000808060001b815260200190815260200160002060000160006101000a81548173ffffffffffffffffffffffffffffffffffffffff021916908373ffffffffffffffffffffffffffffffffffffffff1602179055506100a4565b50565b611d5c806100b36000396000f3fe608060405234801561001057600080fd5b50600436106100f55760003560e01c80635ef2c7f011610097578063bfc17ff611610066578063bfc17ff6146104c4578063cf40882314610523578063e985e9c5146105a5578063f79fe5381461061f576100f5565b80635ef2c7f01461034057806365c05305146103cc578063751f4fce1461042b578063a22cb46514610474576100f5565b806314ab9038116100d357806314ab90381461021657806316a25cbd146102585780631896f70a146102a45780635b0fc9c3146102f2576100f5565b80630178b8bf146100fa57806302571be31461015257806306ab5923146101aa575b600080fd5b6101266004803603602081101561011057600080fd5b8101908080359060200190929190505050610663565b604051808273ffffffffffffffffffffffffffffffffffffffff16815260200191505060405180910390f35b61017e6004803603602081101561016857600080fd5b81019080803590602001909291905050506106de565b604051808273ffffffffffffffffffffffffffffffffffffffff16815260200191505060405180910390f35b610200600480360360608110156101c057600080fd5b810190808035906020019092919080359060200190929190803573ffffffffffffffffffffffffffffffffffffffff16906020019092919050505061083e565b6040518082815260200191505060405180910390f35b6102566004803603604081101561022c57600080fd5b8101908080359060200190929190803567ffffffffffffffff169060200190929190505050610c13565b005b6102846004803603602081101561026e57600080fd5b8101908080359060200190929190505050610f37565b604051808267ffffffffffffffff16815260200191505060405180910390f35b6102f0600480360360408110156102ba57600080fd5b8101908080359060200190929190803573ffffffffffffffffffffffffffffffffffffffff169060200190929190505050610fa6565b005b61033e6004803603604081101561030857600080fd5b8101908080359060200190929190803573ffffffffffffffffffffffffffffffffffffffff1690602001909291905050506112ee565b005b6103ca600480360360a081101561035657600080fd5b810190808035906020019092919080359060200190929190803573ffffffffffffffffffffffffffffffffffffffff169060200190929190803573ffffffffffffffffffffffffffffffffffffffff169060200190929190803567ffffffffffffffff169060200190929190505050611636565b005b610413600480360360208110156103e257600080fd5b81019080803577ffffffffffffffffffffffffffffffffffffffffffffffff191690602001909291905050506116bc565b60405180821515815260200191505060405180910390f35b6104726004803603602081101561044157600080fd5b81019080803577ffffffffffffffffffffffffffffffffffffffffffffffff191690602001909291905050506116c3565b005b6104c26004803603604081101561048a57600080fd5b81019080803573ffffffffffffffffffffffffffffffffffffffff1690602001909291908035151590602001909291905050506116c6565b005b61050b600480360360208110156104da57600080fd5b81019080803577ffffffffffffffffffffffffffffffffffffffffffffffff19169060200190929190505050611815565b60405180821515815260200191505060405180910390f35b6105a36004803603608081101561053957600080fd5b8101908080359060200190929190803573ffffffffffffffffffffffffffffffffffffffff169060200190929190803573ffffffffffffffffffffffffffffffffffffffff169060200190929190803567ffffffffffffffff169060200190929190505050611820565b005b610607600480360360408110156105bb57600080fd5b81019080803573ffffffffffffffffffffffffffffffffffffffff169060200190929190803573ffffffffffffffffffffffffffffffffffffffff16906020019092919050505061189f565b60405180821515815260200191505060405180910390f35b61064b6004803603602081101561063557600080fd5b810190808035906020019092919050505061196f565b60405180821515815260200191505060405180910390f35b600061067967a91a92e3b1e6964d60c01b6116c3565b61068d67ad83c03b0635ce8660c01b6116c3565b6106a1675ffe20d6c29c0f2660c01b6116c3565b60008083815260200190815260200160002060010160009054906101000a900473ffffffffffffffffffffffffffffffffffffffff169050919050565b60006106f4671dac06bc8af993dc60c01b6116c3565b6107086774259b69da08da8360c01b6116c3565b61071c67114165c8cbc5f0e260c01b6116c3565b600080600084815260200190815260200160002060000160009054906101000a900473ffffffffffffffffffffffffffffffffffffffff16905061076a6733ed267e56eccf1960c01b6116c3565b61077e67060b2c72f9b534b260c01b6116c3565b3073ffffffffffffffffffffffffffffffffffffffff168173ffffffffffffffffffffffffffffffffffffffff1614156107f8576107c667df48ee080439f57e60c01b6116c3565b6107da675e0c9b0341a2798960c01b6116c3565b6107ee6716d8c9e02790591c60c01b6116c3565b6000915050610839565b61080c67e6481328ab4613be60c01b6116c3565b61082067bfc9ecee990bd5e660c01b6116c3565b610834670e76d00bdcfa8b2660c01b6116c3565b809150505b919050565b60006108546746301080129d62c460c01b6116c3565b8361086967706fa904dea172c060c01b6116c3565b61087d67cf76ab10c9ddd21560c01b6116c3565b61089167522094c27440315e60c01b6116c3565b600080600083815260200190815260200160002060000160009054906101000a900473ffffffffffffffffffffffffffffffffffffffff1690506108df67a02f5d77106563e460c01b6116c3565b6108f367f4dd7b3aca08833a60c01b6116c3565b610907675e2aab026345f06560c01b6116c3565b3373ffffffffffffffffffffffffffffffffffffffff168173ffffffffffffffffffffffffffffffffffffffff16148015610952575061095167e31086c8d5ce86ea60c01b611815565b5b806109ff5750600160008273ffffffffffffffffffffffffffffffffffffffff1673ffffffffffffffffffffffffffffffffffffffff16815260200190815260200160002060003373ffffffffffffffffffffffffffffffffffffffff1673ffffffffffffffffffffffffffffffffffffffff16815260200190815260200160002060009054906101000a900460ff1680156109fe57506109fd6772b58f74a12a5c6760c01b611815565b5b5b610a54576040517f08c379a000000000000000000000000000000000000000000000000000000000815260040180806020018281038252602c815260200180611d24602c913960400191505060405180910390fd5b610a68677a10899b08faa7f360c01b6116c3565b610a7c67bb373fe3fa23200260c01b6116c3565b610a90671b0b4faa8d730f0d60c01b6116c3565b610aa4679dc2381e3d0bb5c060c01b6116c3565b610ab86794da2df0a83fbf0160c01b6116c3565b610acc673945bc0957f8e5e660c01b6116c3565b600086866040516020018083815260200182815260200192505050604051602081830303815290604052805190602001209050610b1367042906f404bfb65160c01b6116c3565b8460008083815260200190815260200160002060000160006101000a81548173ffffffffffffffffffffffffffffffffffffffff021916908373ffffffffffffffffffffffffffffffffffffffff160217905550610b7b677df30e26fea4415b60c01b6116c3565b610b8f670f22a7c9dd95b7b760c01b6116c3565b85877fce0457fe73731f824cc272376169235128c118b49d344817417c6d108d155e8287604051808273ffffffffffffffffffffffffffffffffffffffff16815260200191505060405180910390a3610bf267ec9e85db7555aa4a60c01b6116c3565b610c0667364b665ccba087f160c01b6116c3565b8093505050509392505050565b610c27672b4d43abf09065c360c01b6116c3565b81610c3c67706fa904dea172c060c01b6116c3565b610c5067cf76ab10c9ddd21560c01b6116c3565b610c6467522094c27440315e60c01b6116c3565b600080600083815260200190815260200160002060000160009054906101000a900473ffffffffffffffffffffffffffffffffffffffff169050610cb267a02f5d77106563e460c01b6116c3565b610cc667f4dd7b3aca08833a60c01b6116c3565b610cda675e2aab026345f06560c01b6116c3565b3373ffffffffffffffffffffffffffffffffffffffff168173ffffffffffffffffffffffffffffffffffffffff16148015610d255750610d2467e31086c8d5ce86ea60c01b611815565b5b80610dd25750600160008273ffffffffffffffffffffffffffffffffffffffff1673ffffffffffffffffffffffffffffffffffffffff16815260200190815260200160002060003373ffffffffffffffffffffffffffffffffffffffff1673ffffffffffffffffffffffffffffffffffffffff16815260200190815260200160002060009054906101000a900460ff168015610dd15750610dd06772b58f74a12a5c6760c01b611815565b5b5b610e27576040517f08c379a000000000000000000000000000000000000000000000000000000000815260040180806020018281038252602c815260200180611d24602c913960400191505060405180910390fd5b610e3b677a10899b08faa7f360c01b6116c3565b610e4f67bb373fe3fa23200260c01b6116c3565b610e63673de8f8a23b6e5d7060c01b6116c3565b610e7767d86a23592c19405060c01b6116c3565b610e8b6795e8daa61d7de75d60c01b6116c3565b8260008086815260200190815260200160002060010160146101000a81548167ffffffffffffffff021916908367ffffffffffffffff160217905550610edb6774b5b8b9c3b8d5c460c01b6116c3565b610eef6763d54e793fbed22960c01b6116c3565b837f1d4f9bbfc9cab89d66e1a1562f2233ccbf1308cb4f63de2ead5787adddb8fa6884604051808267ffffffffffffffff16815260200191505060405180910390a250505050565b6000610f4d674d7d38a73539dc5660c01b6116c3565b610f61675d3ffe7e1ff3b5d360c01b6116c3565b610f7567105d974893e03c6a60c01b6116c3565b60008083815260200190815260200160002060010160149054906101000a900467ffffffffffffffff169050919050565b610fba6723e07f132490a9d160c01b6116c3565b81610fcf67706fa904dea172c060c01b6116c3565b610fe367cf76ab10c9ddd21560c01b6116c3565b610ff767522094c27440315e60c01b6116c3565b600080600083815260200190815260200160002060000160009054906101000a900473ffffffffffffffffffffffffffffffffffffffff16905061104567a02f5d77106563e460c01b6116c3565b61105967f4dd7b3aca08833a60c01b6116c3565b61106d675e2aab026345f06560c01b6116c3565b3373ffffffffffffffffffffffffffffffffffffffff168173ffffffffffffffffffffffffffffffffffffffff161480156110b857506110b767e31086c8d5ce86ea60c01b611815565b5b806111655750600160008273ffffffffffffffffffffffffffffffffffffffff1673ffffffffffffffffffffffffffffffffffffffff16815260200190815260200160002060003373ffffffffffffffffffffffffffffffffffffffff1673ffffffffffffffffffffffffffffffffffffffff16815260200190815260200160002060009054906101000a900460ff16801561116457506111636772b58f74a12a5c6760c01b611815565b5b5b6111ba576040517f08c379a000000000000000000000000000000000000000000000000000000000815260040180806020018281038252602c815260200180611d24602c913960400191505060405180910390fd5b6111ce677a10899b08faa7f360c01b6116c3565b6111e267bb373fe3fa23200260c01b6116c3565b6111f6678d27949ed879301060c01b6116c3565b61120a67b0c05e18247a5a8060c01b6116c3565b61121e67022cb8e7fcf8e2c160c01b6116c3565b8260008086815260200190815260200160002060010160006101000a81548173ffffffffffffffffffffffffffffffffffffffff021916908373ffffffffffffffffffffffffffffffffffffffff16021790555061128667d5df43ea9338375460c01b6116c3565b61129a678a8458b03787c9f760c01b6116c3565b837f335721b01866dc23fbee8b6b2c7b1e14d6f05c28cd35a2c934239f94095602a084604051808273ffffffffffffffffffffffffffffffffffffffff16815260200191505060405180910390a250505050565b611302677f782f3f1c22e8ef60c01b6116c3565b8161131767706fa904dea172c060c01b6116c3565b61132b67cf76ab10c9ddd21560c01b6116c3565b61133f67522094c27440315e60c01b6116c3565b600080600083815260200190815260200160002060000160009054906101000a900473ffffffffffffffffffffffffffffffffffffffff16905061138d67a02f5d77106563e460c01b6116c3565b6113a167f4dd7b3aca08833a60c01b6116c3565b6113b5675e2aab026345f06560c01b6116c3565b3373ffffffffffffffffffffffffffffffffffffffff168173ffffffffffffffffffffffffffffffffffffffff1614801561140057506113ff67e31086c8d5ce86ea60c01b611815565b5b806114ad5750600160008273ffffffffffffffffffffffffffffffffffffffff1673ffffffffffffffffffffffffffffffffffffffff16815260200190815260200160002060003373ffffffffffffffffffffffffffffffffffffffff1673ffffffffffffffffffffffffffffffffffffffff16815260200190815260200160002060009054906101000a900460ff1680156114ac57506114ab6772b58f74a12a5c6760c01b611815565b5b5b611502576040517f08c379a000000000000000000000000000000000000000000000000000000000815260040180806020018281038252602c815260200180611d24602c913960400191505060405180910390fd5b611516677a10899b08faa7f360c01b6116c3565b61152a67bb373fe3fa23200260c01b6116c3565b61153e67b89dd9afaec2096a60c01b6116c3565b61155267bb19253879085b5f60c01b6116c3565b6115666749a0b037f6cc722f60c01b6116c3565b8260008086815260200190815260200160002060000160006101000a81548173ffffffffffffffffffffffffffffffffffffffff021916908373ffffffffffffffffffffffffffffffffffffffff1602179055506115ce67faa3933c3e8346f460c01b6116c3565b6115e267847aca86b396fc0160c01b6116c3565b837fd4735d920b0f87494915f556dd9b54c8f309026070caea5c737245152564d26684604051808273ffffffffffffffffffffffffffffffffffffffff16815260200191505060405180910390a250505050565b61164a67f88f52150baac59560c01b6116c3565b61165e67b2a29dd08c9bb3c060c01b6116c3565b611672670e5fe7dc2fedb22c60c01b6116c3565b600061167f86868661083e565b905061169567fea2b112ffe9f66260c01b6116c3565b6116a967abd2fef41df14a0d60c01b6116c3565b6116b4818484611a1a565b505050505050565b6000919050565b50565b6116da67b17903bbeb444e4760c01b6116c3565b6116ee677f9022dab280f6c660c01b6116c3565b80600160003373ffffffffffffffffffffffffffffffffffffffff1673ffffffffffffffffffffffffffffffffffffffff16815260200190815260200160002060008473ffffffffffffffffffffffffffffffffffffffff1673ffffffffffffffffffffffffffffffffffffffff16815260200190815260200160002060006101000a81548160ff021916908315150217905550611796676456df39b9a8dcde60c01b6116c3565b6117aa67597f2972801c6c1860c01b6116c3565b8173ffffffffffffffffffffffffffffffffffffffff163373ffffffffffffffffffffffffffffffffffffffff167f17307eab39ab6107e8899845ad3d59bd9653f200f220920489ca2b5937696c318360405180821515815260200191505060405180910390a35050565b600060019050919050565b611834675cb74efcf7b4f94b60c01b6116c3565b611848678e988af9f8e57dfd60c01b6116c3565b61185c678a9f9ab2e51d3dfc60c01b6116c3565b61186684846112ee565b61187a67d690fb1171a8a39460c01b6116c3565b61188e6795e8b780995311da60c01b6116c3565b611899848383611a1a565b50505050565b60006118b5674c96849f2f11d16f60c01b6116c3565b6118c9675c85d148057adfc760c01b6116c3565b6118dd675463f54b290c378460c01b6116c3565b600160008473ffffffffffffffffffffffffffffffffffffffff1673ffffffffffffffffffffffffffffffffffffffff16815260200190815260200160002060008373ffffffffffffffffffffffffffffffffffffffff1673ffffffffffffffffffffffffffffffffffffffff16815260200190815260200160002060009054906101000a900460ff16905092915050565b600061198567d2eb6228dc3434b860c01b6116c3565b61199967c8925a4659a55e2360c01b6116c3565b6119ad676c42fb1c0510629c60c01b6116c3565b600073ffffffffffffffffffffffffffffffffffffffff1660008084815260200190815260200160002060000160009054906101000a900473ffffffffffffffffffffffffffffffffffffffff1673ffffffffffffffffffffffffffffffffffffffff1614159050919050565b611a2e675011b0a91f27726960c01b6116c3565b611a4267d7f40713044ecddf60c01b6116c3565b611a5667177444d8941447b360c01b6116c3565b60008084815260200190815260200160002060010160009054906101000a900473ffffffffffffffffffffffffffffffffffffffff1673ffffffffffffffffffffffffffffffffffffffff168273ffffffffffffffffffffffffffffffffffffffff1614611bb557611ad267720a9d94dd7b426860c01b6116c3565b611ae667eadc6e58b51eaf6c60c01b6116c3565b8160008085815260200190815260200160002060010160006101000a81548173ffffffffffffffffffffffffffffffffffffffff021916908373ffffffffffffffffffffffffffffffffffffffff160217905550611b4e679433de5066f024ad60c01b6116c3565b611b6267026733b077e3f01160c01b6116c3565b827f335721b01866dc23fbee8b6b2c7b1e14d6f05c28cd35a2c934239f94095602a083604051808273ffffffffffffffffffffffffffffffffffffffff16815260200191505060405180910390a2611bca565b611bc967b671c5abe4a8865160c01b6116c3565b5b611bde67b1449d9ae72db83c60c01b6116c3565b611bf267df7e552f1e3df70e60c01b6116c3565b60008084815260200190815260200160002060010160149054906101000a900467ffffffffffffffff1667ffffffffffffffff168167ffffffffffffffff1614611d0957611c4a67a0fc58a9d736e60360c01b6116c3565b611c5e67ecce33337b56dff760c01b6116c3565b8060008085815260200190815260200160002060010160146101000a81548167ffffffffffffffff021916908367ffffffffffffffff160217905550611cae67fb4c10d0982e412f60c01b6116c3565b611cc26739c620525670447060c01b6116c3565b827f1d4f9bbfc9cab89d66e1a1562f2233ccbf1308cb4f63de2ead5787adddb8fa6882604051808267ffffffffffffffff16815260200191505060405180910390a2611d1e565b611d1d6759e493318464c1f160c01b6116c3565b5b50505056fe454e5352656769737472793a20726576657274656420627920617574686f7269736564206d6f646966696572a164736f6c634300060c000a",
  "linkReferences": {},
  "deployedLinkReferences": {}
}