{
  "_format": "hh-sol-artifact-1",
  "contractName": "EntryPoint",
  "sourceName": "src/4337_wallet/core/EntryPoint.sol",
  "abi": [
    {
      "inputs": [
        {
          "internalType": "uint256",
          "name": "opIndex",
          "type": "uint256"
        },
        {
          "internalType": "address",
          "name": "paymaster",
          "type": "address"
        },
        {
          "internalType": "string",
          "name": "reason",
          "type": "string"
        }
      ],
      "name": "FailedOp",
      "type": "error"
    },
    {
      "inputs": [
        {
          "internalType": "address",
          "name": "sender",
          "type": "address"
        }
      ],
      "name": "SenderAddressResult",
      "type": "error"
    },
    {
      "inputs": [
        {
          "internalType": "address",
          "name": "aggregator",
          "type": "address"
        }
      ],
      "name": "SignatureValidationFailed",
      "type": "error"
    },
    {
      "inputs": [
        {
          "internalType": "uint256",
          "name": "preOpGas",
          "type": "uint256"
        },
        {
          "internalType": "uint256",
          "name": "prefund",
          "type": "uint256"
        },
        {
          "internalType": "uint256",
          "name": "deadline",
          "type": "uint256"
        },
        {
          "components": [
            {
              "internalType": "uint256",
              "name": "stake",
              "type": "uint256"
            },
            {
              "internalType": "uint256",
              "name": "unstakeDelaySec",
              "type": "uint256"
            }
          ],
          "internalType": "struct IStakeManager.StakeInfo",
          "name": "senderInfo",
          "type": "tuple"
        },
        {
          "components": [
            {
              "internalType": "uint256",
              "name": "stake",
              "type": "uint256"
            },
            {
              "internalType": "uint256",
              "name": "unstakeDelaySec",
              "type": "uint256"
            }
          ],
          "internalType": "struct IStakeManager.StakeInfo",
          "name": "factoryInfo",
          "type": "tuple"
        },
        {
          "components": [
            {
              "internalType": "uint256",
              "name": "stake",
              "type": "uint256"
            },
            {
              "internalType": "uint256",
              "name": "unstakeDelaySec",
              "type": "uint256"
            }
          ],
          "internalType": "struct IStakeManager.StakeInfo",
          "name": "paymasterInfo",
          "type": "tuple"
        }
      ],
      "name": "SimulationResult",
      "type": "error"
    },
    {
      "inputs": [
        {
          "internalType": "uint256",
          "name": "preOpGas",
          "type": "uint256"
        },
        {
          "internalType": "uint256",
          "name": "prefund",
          "type": "uint256"
        },
        {
          "internalType": "uint256",
          "name": "deadline",
          "type": "uint256"
        },
        {
          "components": [
            {
              "internalType": "uint256",
              "name": "stake",
              "type": "uint256"
            },
            {
              "internalType": "uint256",
              "name": "unstakeDelaySec",
              "type": "uint256"
            }
          ],
          "internalType": "struct IStakeManager.StakeInfo",
          "name": "senderInfo",
          "type": "tuple"
        },
        {
          "components": [
            {
              "internalType": "uint256",
              "name": "stake",
              "type": "uint256"
            },
            {
              "internalType": "uint256",
              "name": "unstakeDelaySec",
              "type": "uint256"
            }
          ],
          "internalType": "struct IStakeManager.StakeInfo",
          "name": "factoryInfo",
          "type": "tuple"
        },
        {
          "components": [
            {
              "internalType": "uint256",
              "name": "stake",
              "type": "uint256"
            },
            {
              "internalType": "uint256",
              "name": "unstakeDelaySec",
              "type": "uint256"
            }
          ],
          "internalType": "struct IStakeManager.StakeInfo",
          "name": "paymasterInfo",
          "type": "tuple"
        },
        {
          "components": [
            {
              "internalType": "address",
              "name": "actualAggregator",
              "type": "address"
            },
            {
              "components": [
                {
                  "internalType": "uint256",
                  "name": "stake",
                  "type": "uint256"
                },
                {
                  "internalType": "uint256",
                  "name": "unstakeDelaySec",
                  "type": "uint256"
                }
              ],
              "internalType": "struct IStakeManager.StakeInfo",
              "name": "stakeInfo",
              "type": "tuple"
            }
          ],
          "internalType": "struct IEntryPoint.AggregatorStakeInfo",
          "name": "aggregatorInfo",
          "type": "tuple"
        }
      ],
      "name": "SimulationResultWithAggregation",
      "type": "error"
    },
    {
      "anonymous": false,
      "inputs": [
        {
          "indexed": true,
          "internalType": "bytes32",
          "name": "userOpHash",
          "type": "bytes32"
        },
        {
          "indexed": true,
          "internalType": "address",
          "name": "sender",
          "type": "address"
        },
        {
          "indexed": false,
          "internalType": "address",
          "name": "factory",
          "type": "address"
        },
        {
          "indexed": false,
          "internalType": "address",
          "name": "paymaster",
          "type": "address"
        }
      ],
      "name": "AccountDeployed",
      "type": "event"
    },
    {
      "anonymous": false,
      "inputs": [
        {
          "indexed": true,
          "internalType": "address",
          "name": "account",
          "type": "address"
        },
        {
          "indexed": false,
          "internalType": "uint256",
          "name": "totalDeposit",
          "type": "uint256"
        }
      ],
      "name": "Deposited",
      "type": "event"
    },
    {
      "anonymous": false,
      "inputs": [
        {
          "indexed": false,
          "internalType": "address",
          "name": "aggregator",
          "type": "address"
        }
      ],
      "name": "SignatureAggregatorChanged",
      "type": "event"
    },
    {
      "anonymous": false,
      "inputs": [
        {
          "indexed": true,
          "internalType": "address",
          "name": "account",
          "type": "address"
        },
        {
          "indexed": false,
          "internalType": "uint256",
          "name": "totalStaked",
          "type": "uint256"
        },
        {
          "indexed": false,
          "internalType": "uint256",
          "name": "withdrawTime",
          "type": "uint256"
        }
      ],
      "name": "StakeLocked",
      "type": "event"
    },
    {
      "anonymous": false,
      "inputs": [
        {
          "indexed": true,
          "internalType": "address",
          "name": "account",
          "type": "address"
        },
        {
          "indexed": false,
          "internalType": "uint256",
          "name": "withdrawTime",
          "type": "uint256"
        }
      ],
      "name": "StakeUnlocked",
      "type": "event"
    },
    {
      "anonymous": false,
      "inputs": [
        {
          "indexed": true,
          "internalType": "address",
          "name": "account",
          "type": "address"
        },
        {
          "indexed": false,
          "internalType": "address",
          "name": "withdrawAddress",
          "type": "address"
        },
        {
          "indexed": false,
          "internalType": "uint256",
          "name": "amount",
          "type": "uint256"
        }
      ],
      "name": "StakeWithdrawn",
      "type": "event"
    },
    {
      "anonymous": false,
      "inputs": [
        {
          "indexed": true,
          "internalType": "bytes32",
          "name": "userOpHash",
          "type": "bytes32"
        },
        {
          "indexed": true,
          "internalType": "address",
          "name": "sender",
          "type": "address"
        },
        {
          "indexed": true,
          "internalType": "address",
          "name": "paymaster",
          "type": "address"
        },
        {
          "indexed": false,
          "internalType": "uint256",
          "name": "nonce",
          "type": "uint256"
        },
        {
          "indexed": false,
          "internalType": "bool",
          "name": "success",
          "type": "bool"
        },
        {
          "indexed": false,
          "internalType": "uint256",
          "name": "actualGasCost",
          "type": "uint256"
        },
        {
          "indexed": false,
          "internalType": "uint256",
          "name": "actualGasUsed",
          "type": "uint256"
        }
      ],
      "name": "UserOperationEvent",
      "type": "event"
    },
    {
      "anonymous": false,
      "inputs": [
        {
          "indexed": true,
          "internalType": "bytes32",
          "name": "userOpHash",
          "type": "bytes32"
        },
        {
          "indexed": true,
          "internalType": "address",
          "name": "sender",
          "type": "address"
        },
        {
          "indexed": false,
          "internalType": "uint256",
          "name": "nonce",
          "type": "uint256"
        },
        {
          "indexed": false,
          "internalType": "bytes",
          "name": "revertReason",
          "type": "bytes"
        }
      ],
      "name": "UserOperationRevertReason",
      "type": "event"
    },
    {
      "anonymous": false,
      "inputs": [
        {
          "indexed": true,
          "internalType": "address",
          "name": "account",
          "type": "address"
        },
        {
          "indexed": false,
          "internalType": "address",
          "name": "withdrawAddress",
          "type": "address"
        },
        {
          "indexed": false,
          "internalType": "uint256",
          "name": "amount",
          "type": "uint256"
        }
      ],
      "name": "Withdrawn",
      "type": "event"
    },
    {
      "inputs": [
        {
          "internalType": "uint32",
          "name": "_unstakeDelaySec",
          "type": "uint32"
        }
      ],
      "name": "addStake",
      "outputs": [],
      "stateMutability": "payable",
      "type": "function"
    },
    {
      "inputs": [
        {
          "internalType": "address",
          "name": "account",
          "type": "address"
        }
      ],
      "name": "balanceOf",
      "outputs": [
        {
          "internalType": "uint256",
          "name": "",
          "type": "uint256"
        }
      ],
      "stateMutability": "view",
      "type": "function"
    },
    {
      "inputs": [
        {
          "internalType": "address",
          "name": "account",
          "type": "address"
        }
      ],
      "name": "depositTo",
      "outputs": [],
      "stateMutability": "payable",
      "type": "function"
    },
    {
      "inputs": [
        {
          "internalType": "address",
          "name": "",
          "type": "address"
        }
      ],
      "name": "deposits",
      "outputs": [
        {
          "internalType": "uint112",
          "name": "deposit",
          "type": "uint112"
        },
        {
          "internalType": "bool",
          "name": "staked",
          "type": "bool"
        },
        {
          "internalType": "uint112",
          "name": "stake",
          "type": "uint112"
        },
        {
          "internalType": "uint32",
          "name": "unstakeDelaySec",
          "type": "uint32"
        },
        {
          "internalType": "uint64",
          "name": "withdrawTime",
          "type": "uint64"
        }
      ],
      "stateMutability": "view",
      "type": "function"
    },
    {
      "inputs": [
        {
          "internalType": "address",
          "name": "account",
          "type": "address"
        }
      ],
      "name": "getDepositInfo",
      "outputs": [
        {
          "components": [
            {
              "internalType": "uint112",
              "name": "deposit",
              "type": "uint112"
            },
            {
              "internalType": "bool",
              "name": "staked",
              "type": "bool"
            },
            {
              "internalType": "uint112",
              "name": "stake",
              "type": "uint112"
            },
            {
              "internalType": "uint32",
              "name": "unstakeDelaySec",
              "type": "uint32"
            },
            {
              "internalType": "uint64",
              "name": "withdrawTime",
              "type": "uint64"
            }
          ],
          "internalType": "struct IStakeManager.DepositInfo",
          "name": "info",
          "type": "tuple"
        }
      ],
      "stateMutability": "view",
      "type": "function"
    },
    {
      "inputs": [
        {
          "internalType": "bytes",
          "name": "initCode",
          "type": "bytes"
        }
      ],
      "name": "getSenderAddress",
      "outputs": [],
      "stateMutability": "nonpayable",
      "type": "function"
    },
    {
      "inputs": [
        {
          "components": [
            {
              "internalType": "address",
              "name": "sender",
              "type": "address"
            },
            {
              "internalType": "uint256",
              "name": "nonce",
              "type": "uint256"
            },
            {
              "internalType": "bytes",
              "name": "initCode",
              "type": "bytes"
            },
            {
              "internalType": "bytes",
              "name": "callData",
              "type": "bytes"
            },
            {
              "internalType": "uint256",
              "name": "callGasLimit",
              "type": "uint256"
            },
            {
              "internalType": "uint256",
              "name": "verificationGasLimit",
              "type": "uint256"
            },
            {
              "internalType": "uint256",
              "name": "preVerificationGas",
              "type": "uint256"
            },
            {
              "internalType": "uint256",
              "name": "maxFeePerGas",
              "type": "uint256"
            },
            {
              "internalType": "uint256",
              "name": "maxPriorityFeePerGas",
              "type": "uint256"
            },
            {
              "internalType": "bytes",
              "name": "paymasterAndData",
              "type": "bytes"
            },
            {
              "internalType": "bytes",
              "name": "signature",
              "type": "bytes"
            }
          ],
          "internalType": "struct UserOperation",
          "name": "userOp",
          "type": "tuple"
        }
      ],
      "name": "getUserOpHash",
      "outputs": [
        {
          "internalType": "bytes32",
          "name": "",
          "type": "bytes32"
        }
      ],
      "stateMutability": "view",
      "type": "function"
    },
    {
      "inputs": [
        {
          "components": [
            {
              "components": [
                {
                  "internalType": "address",
                  "name": "sender",
                  "type": "address"
                },
                {
                  "internalType": "uint256",
                  "name": "nonce",
                  "type": "uint256"
                },
                {
                  "internalType": "bytes",
                  "name": "initCode",
                  "type": "bytes"
                },
                {
                  "internalType": "bytes",
                  "name": "callData",
                  "type": "bytes"
                },
                {
                  "internalType": "uint256",
                  "name": "callGasLimit",
                  "type": "uint256"
                },
                {
                  "internalType": "uint256",
                  "name": "verificationGasLimit",
                  "type": "uint256"
                },
                {
                  "internalType": "uint256",
                  "name": "preVerificationGas",
                  "type": "uint256"
                },
                {
                  "internalType": "uint256",
                  "name": "maxFeePerGas",
                  "type": "uint256"
                },
                {
                  "internalType": "uint256",
                  "name": "maxPriorityFeePerGas",
                  "type": "uint256"
                },
                {
                  "internalType": "bytes",
                  "name": "paymasterAndData",
                  "type": "bytes"
                },
                {
                  "internalType": "bytes",
                  "name": "signature",
                  "type": "bytes"
                }
              ],
              "internalType": "struct UserOperation[]",
              "name": "userOps",
              "type": "tuple[]"
            },
            {
              "internalType": "contract IAggregator",
              "name": "aggregator",
              "type": "address"
            },
            {
              "internalType": "bytes",
              "name": "signature",
              "type": "bytes"
            }
          ],
          "internalType": "struct IEntryPoint.UserOpsPerAggregator[]",
          "name": "opsPerAggregator",
          "type": "tuple[]"
        },
        {
          "internalType": "address payable",
          "name": "beneficiary",
          "type": "address"
        }
      ],
      "name": "handleAggregatedOps",
      "outputs": [],
      "stateMutability": "nonpayable",
      "type": "function"
    },
    {
      "inputs": [
        {
          "components": [
            {
              "internalType": "address",
              "name": "sender",
              "type": "address"
            },
            {
              "internalType": "uint256",
              "name": "nonce",
              "type": "uint256"
            },
            {
              "internalType": "bytes",
              "name": "initCode",
              "type": "bytes"
            },
            {
              "internalType": "bytes",
              "name": "callData",
              "type": "bytes"
            },
            {
              "internalType": "uint256",
              "name": "callGasLimit",
              "type": "uint256"
            },
            {
              "internalType": "uint256",
              "name": "verificationGasLimit",
              "type": "uint256"
            },
            {
              "internalType": "uint256",
              "name": "preVerificationGas",
              "type": "uint256"
            },
            {
              "internalType": "uint256",
              "name": "maxFeePerGas",
              "type": "uint256"
            },
            {
              "internalType": "uint256",
              "name": "maxPriorityFeePerGas",
              "type": "uint256"
            },
            {
              "internalType": "bytes",
              "name": "paymasterAndData",
              "type": "bytes"
            },
            {
              "internalType": "bytes",
              "name": "signature",
              "type": "bytes"
            }
          ],
          "internalType": "struct UserOperation[]",
          "name": "ops",
          "type": "tuple[]"
        },
        {
          "internalType": "address payable",
          "name": "beneficiary",
          "type": "address"
        }
      ],
      "name": "handleOps",
      "outputs": [],
      "stateMutability": "nonpayable",
      "type": "function"
    },
    {
      "inputs": [
        {
          "internalType": "bytes",
          "name": "callData",
          "type": "bytes"
        },
        {
          "components": [
            {
              "components": [
                {
                  "internalType": "address",
                  "name": "sender",
                  "type": "address"
                },
                {
                  "internalType": "uint256",
                  "name": "nonce",
                  "type": "uint256"
                },
                {
                  "internalType": "uint256",
                  "name": "callGasLimit",
                  "type": "uint256"
                },
                {
                  "internalType": "uint256",
                  "name": "verificationGasLimit",
                  "type": "uint256"
                },
                {
                  "internalType": "uint256",
                  "name": "preVerificationGas",
                  "type": "uint256"
                },
                {
                  "internalType": "address",
                  "name": "paymaster",
                  "type": "address"
                },
                {
                  "internalType": "uint256",
                  "name": "maxFeePerGas",
                  "type": "uint256"
                },
                {
                  "internalType": "uint256",
                  "name": "maxPriorityFeePerGas",
                  "type": "uint256"
                }
              ],
              "internalType": "struct EntryPoint.MemoryUserOp",
              "name": "mUserOp",
              "type": "tuple"
            },
            {
              "internalType": "bytes32",
              "name": "userOpHash",
              "type": "bytes32"
            },
            {
              "internalType": "uint256",
              "name": "prefund",
              "type": "uint256"
            },
            {
              "internalType": "uint256",
              "name": "contextOffset",
              "type": "uint256"
            },
            {
              "internalType": "uint256",
              "name": "preOpGas",
              "type": "uint256"
            }
          ],
          "internalType": "struct EntryPoint.UserOpInfo",
          "name": "opInfo",
          "type": "tuple"
        },
        {
          "internalType": "bytes",
          "name": "context",
          "type": "bytes"
        }
      ],
      "name": "innerHandleOp",
      "outputs": [
        {
          "internalType": "uint256",
          "name": "actualGasCost",
          "type": "uint256"
        }
      ],
      "stateMutability": "nonpayable",
      "type": "function"
    },
    {
      "inputs": [
        {
          "components": [
            {
              "internalType": "address",
              "name": "sender",
              "type": "address"
            },
            {
              "internalType": "uint256",
              "name": "nonce",
              "type": "uint256"
            },
            {
              "internalType": "bytes",
              "name": "initCode",
              "type": "bytes"
            },
            {
              "internalType": "bytes",
              "name": "callData",
              "type": "bytes"
            },
            {
              "internalType": "uint256",
              "name": "callGasLimit",
              "type": "uint256"
            },
            {
              "internalType": "uint256",
              "name": "verificationGasLimit",
              "type": "uint256"
            },
            {
              "internalType": "uint256",
              "name": "preVerificationGas",
              "type": "uint256"
            },
            {
              "internalType": "uint256",
              "name": "maxFeePerGas",
              "type": "uint256"
            },
            {
              "internalType": "uint256",
              "name": "maxPriorityFeePerGas",
              "type": "uint256"
            },
            {
              "internalType": "bytes",
              "name": "paymasterAndData",
              "type": "bytes"
            },
            {
              "internalType": "bytes",
              "name": "signature",
              "type": "bytes"
            }
          ],
          "internalType": "struct UserOperation",
          "name": "userOp",
          "type": "tuple"
        }
      ],
      "name": "simulateValidation",
      "outputs": [],
      "stateMutability": "nonpayable",
      "type": "function"
    },
    {
      "inputs": [],
      "name": "unlockStake",
      "outputs": [],
      "stateMutability": "nonpayable",
      "type": "function"
    },
    {
      "inputs": [
        {
          "internalType": "address payable",
          "name": "withdrawAddress",
          "type": "address"
        }
      ],
      "name": "withdrawStake",
      "outputs": [],
      "stateMutability": "nonpayable",
      "type": "function"
    },
    {
      "inputs": [
        {
          "internalType": "address payable",
          "name": "withdrawAddress",
          "type": "address"
        },
        {
          "internalType": "uint256",
          "name": "withdrawAmount",
          "type": "uint256"
        }
      ],
      "name": "withdrawTo",
      "outputs": [],
      "stateMutability": "nonpayable",
      "type": "function"
    },
    {
      "stateMutability": "payable",
      "type": "receive"
    }
  ],
  "bytecode": "0x60a0604052604051620000129062000076565b604051809103906000f0801580156200002f573d6000803e3d6000fd5b5073ffffffffffffffffffffffffffffffffffffffff1660809073ffffffffffffffffffffffffffffffffffffffff168152503480156200006f57600080fd5b5062000084565b6103398062005e7383390190565b608051615dcc620000a7600039600081816113300152612f060152615dcc6000f3fe6080604052600436106100e15760003560e01c80639b249f691161007f578063bb9fe6bf11610059578063bb9fe6bf146102c6578063c23a5cea146102dd578063ee21942314610306578063fc7e286d1461032f576100f1565b80639b249f6914610244578063a61935311461026d578063b760faf9146102aa576100f1565b8063205c2878116100bb578063205c2878146101785780634b1d7cf5146101a15780635287ce12146101ca57806370a0823114610207576100f1565b80630396cb60146100f65780631d732756146101125780631fad948c1461014f576100f1565b366100f1576100ef33610370565b005b600080fd5b610110600480360381019061010b91906132ea565b61042c565b005b34801561011e57600080fd5b5061013960048036038101906101349190613632565b6107e8565b60405161014691906136d8565b60405180910390f35b34801561015b57600080fd5b5061017660048036038101906101719190613787565b6109d0565b005b34801561018457600080fd5b5061019f600480360381019061019a91906137e7565b610b0f565b005b3480156101ad57600080fd5b506101c860048036038101906101c3919061387d565b610d34565b005b3480156101d657600080fd5b506101f160048036038101906101ec91906138dd565b611166565b6040516101fe91906139e8565b60405180910390f35b34801561021357600080fd5b5061022e600480360381019061022991906138dd565b6112b9565b60405161023b91906136d8565b60405180910390f35b34801561025057600080fd5b5061026b60048036038101906102669190613a03565b61132e565b005b34801561027957600080fd5b50610294600480360381019061028f9190613a75565b611408565b6040516102a19190613acd565b60405180910390f35b6102c460048036038101906102bf91906138dd565b610370565b005b3480156102d257600080fd5b506102db611444565b005b3480156102e957600080fd5b5061030460048036038101906102ff9190613ae8565b6115f9565b005b34801561031257600080fd5b5061032d60048036038101906103289190613a75565b611905565b005b34801561033b57600080fd5b50610356600480360381019061035191906138dd565b611ad2565b604051610367959493929190613b51565b60405180910390f35b61037a8134611b6d565b60008060008373ffffffffffffffffffffffffffffffffffffffff1673ffffffffffffffffffffffffffffffffffffffff16815260200190815260200160002090508173ffffffffffffffffffffffffffffffffffffffff167f2da466a7b24304f47e87fa2e1e5a81b9831ce54fec19055ce277ca2f39ba42c48260000160009054906101000a90046dffffffffffffffffffffffffffff166040516104209190613bdf565b60405180910390a25050565b60008060003373ffffffffffffffffffffffffffffffffffffffff1673ffffffffffffffffffffffffffffffffffffffff168152602001908152602001600020905060008263ffffffff16116104b7576040517f08c379a00000000000000000000000000000000000000000000000000000000081526004016104ae90613c57565b60405180910390fd5b8060010160009054906101000a900463ffffffff1663ffffffff168263ffffffff16101561051a576040517f08c379a000000000000000000000000000000000000000000000000000000000815260040161051190613cc3565b60405180910390fd5b60003482600001600f9054906101000a90046dffffffffffffffffffffffffffff166dffffffffffffffffffffffffffff166105569190613d12565b90506000811161059b576040517f08c379a000000000000000000000000000000000000000000000000000000000815260040161059290613db4565b60405180910390fd5b6dffffffffffffffffffffffffffff801681106105ed576040517f08c379a00000000000000000000000000000000000000000000000000000000081526004016105e490613e20565b60405180910390fd5b6040518060a001604052808360000160009054906101000a90046dffffffffffffffffffffffffffff166dffffffffffffffffffffffffffff168152602001600115158152602001826dffffffffffffffffffffffffffff1681526020018463ffffffff168152602001600067ffffffffffffffff168152506000803373ffffffffffffffffffffffffffffffffffffffff1673ffffffffffffffffffffffffffffffffffffffff16815260200190815260200160002060008201518160000160006101000a8154816dffffffffffffffffffffffffffff02191690836dffffffffffffffffffffffffffff160217905550602082015181600001600e6101000a81548160ff021916908315150217905550604082015181600001600f6101000a8154816dffffffffffffffffffffffffffff02191690836dffffffffffffffffffffffffffff16021790555060608201518160010160006101000a81548163ffffffff021916908363ffffffff16021790555060808201518160010160046101000a81548167ffffffffffffffff021916908367ffffffffffffffff1602179055509050503373ffffffffffffffffffffffffffffffffffffffff167fa5ae833d0bb1dcd632d98a8b70973e8516812898e19bf27b70071ebc8dc52c0182856040516107db929190613e71565b60405180910390a2505050565b6000805a90503073ffffffffffffffffffffffffffffffffffffffff163373ffffffffffffffffffffffffffffffffffffffff161461085c576040517f08c379a000000000000000000000000000000000000000000000000000000000815260040161085390613ee6565b60405180910390fd5b60008560000151905060008089899050111561096257600080836000015173ffffffffffffffffffffffffffffffffffffffff1684604001518c8c6040516108a5929190613f45565b60006040518083038160008787f1925050503d80600081146108e3576040519150601f19603f3d011682016040523d82523d6000602084013e6108e8565b606091505b50915091508161095f5760008151111561095a57836000015173ffffffffffffffffffffffffffffffffffffffff1689602001517f1c4fada7374c0a9ee8841fc38afe82932dc0f8e69012e927f061a8bae611a201866020015184604051610951929190613fe6565b60405180910390a35b600192505b50505b600087608001515a85030190506109c16000838a8a8a8080601f016020809104026020016040519081016040528093929190818152602001838380828437600081840152601f19601f8201169050808301925050505050505085611c7d565b94505050505095945050505050565b600083839050905060008167ffffffffffffffff8111156109f4576109f3613392565b5b604051908082528060200260200182016040528015610a2d57816020015b610a1a613176565b815260200190600190039081610a125790505b50905060005b82811015610a9557610a8681878784818110610a5257610a51614016565b5b9050602002810190610a649190614054565b848481518110610a7757610a76614016565b5b60200260200101516000611fda565b50508080600101915050610a33565b506000805b83811015610afc57610aeb81888884818110610ab957610ab8614016565b5b9050602002810190610acb9190614054565b858481518110610ade57610add614016565b5b60200260200101516121c2565b820191508080600101915050610a9a565b50610b0784826122a9565b505050505050565b60008060003373ffffffffffffffffffffffffffffffffffffffff1673ffffffffffffffffffffffffffffffffffffffff16815260200190815260200160002090508060000160009054906101000a90046dffffffffffffffffffffffffffff166dffffffffffffffffffffffffffff16821115610bc2576040517f08c379a0000000000000000000000000000000000000000000000000000000008152600401610bb9906140c9565b60405180910390fd5b818160000160009054906101000a90046dffffffffffffffffffffffffffff166dffffffffffffffffffffffffffff16610bfc91906140e9565b8160000160006101000a8154816dffffffffffffffffffffffffffff02191690836dffffffffffffffffffffffffffff1602179055503373ffffffffffffffffffffffffffffffffffffffff167fd1c19fbcd4551a5edfb66d43d2e337c04837afda3482b42bdf569a8fccdae5fb8484604051610c7a929190614172565b60405180910390a260008373ffffffffffffffffffffffffffffffffffffffff1683604051610ca8906141c1565b60006040518083038185875af1925050503d8060008114610ce5576040519150601f19603f3d011682016040523d82523d6000602084013e610cea565b606091505b5050905080610d2e576040517f08c379a0000000000000000000000000000000000000000000000000000000008152600401610d2590614222565b60405180910390fd5b50505050565b60008383905090506000805b82811015610d9e57858582818110610d5b57610d5a614016565b5b9050602002810190610d6d9190614242565b8060000190610d7c919061426a565b905082610d899190613d12565b91508080610d96906142cd565b915050610d40565b5060008167ffffffffffffffff811115610dbb57610dba613392565b5b604051908082528060200260200182016040528015610df457816020015b610de1613176565b815260200190600190039081610dd95790505b5090506000805b84811015610fde5736888883818110610e1757610e16614016565b5b9050602002810190610e299190614242565b9050366000828060000190610e3e919061426a565b915091506000836020016020810190610e579190614354565b9050600083839050905060005b81811015610ed957610eb688868684818110610e8357610e82614016565b5b9050602002810190610e959190614054565b8b8b81518110610ea857610ea7614016565b5b602002602001015186611fda565b50508780610ec3906142cd565b9850508080610ed1906142cd565b915050610e64565b50600073ffffffffffffffffffffffffffffffffffffffff168273ffffffffffffffffffffffffffffffffffffffff1614610fc6578173ffffffffffffffffffffffffffffffffffffffff1663e3563a4f8585888060400190610f3c9190614381565b6040518563ffffffff1660e01b8152600401610f5b949392919061474a565b60006040518083038186803b158015610f7357600080fd5b505afa925050508015610f84575060015b610fc557816040517f86a9f750000000000000000000000000000000000000000000000000000000008152600401610fbc9190614794565b60405180910390fd5b5b50505050508080610fd6906142cd565b915050610dfb565b50600080915060005b85811015611119573689898381811061100357611002614016565b5b90506020028101906110159190614242565b90507f575ff3acadd5ab348fe1855e217e0f3678f8d767d7494c9f9fefbee2e17cca4d81602001602081019061104b9190614354565b6040516110589190614794565b60405180910390a1366000828060000190611073919061426a565b91509150600082829050905060005b81811015611101576110d3888585848181106110a1576110a0614016565b5b90506020028101906110b39190614054565b8b8b815181106110c6576110c5614016565b5b60200260200101516121c2565b876110de9190613d12565b965087806110eb906142cd565b98505080806110f9906142cd565b915050611082565b50505050508080611111906142cd565b915050610fe7565b507f575ff3acadd5ab348fe1855e217e0f3678f8d767d7494c9f9fefbee2e17cca4d600060405161114a9190614794565b60405180910390a161115c86826122a9565b5050505050505050565b61116e6131ae565b6000808373ffffffffffffffffffffffffffffffffffffffff1673ffffffffffffffffffffffffffffffffffffffff1681526020019081526020016000206040518060a00160405290816000820160009054906101000a90046dffffffffffffffffffffffffffff166dffffffffffffffffffffffffffff166dffffffffffffffffffffffffffff16815260200160008201600e9054906101000a900460ff1615151515815260200160008201600f9054906101000a90046dffffffffffffffffffffffffffff166dffffffffffffffffffffffffffff166dffffffffffffffffffffffffffff1681526020016001820160009054906101000a900463ffffffff1663ffffffff1663ffffffff1681526020016001820160049054906101000a900467ffffffffffffffff1667ffffffffffffffff1667ffffffffffffffff16815250509050919050565b60008060008373ffffffffffffffffffffffffffffffffffffffff1673ffffffffffffffffffffffffffffffffffffffff16815260200190815260200160002060000160009054906101000a90046dffffffffffffffffffffffffffff166dffffffffffffffffffffffffffff169050919050565b7f000000000000000000000000000000000000000000000000000000000000000073ffffffffffffffffffffffffffffffffffffffff1663570e1a3683836040518363ffffffff1660e01b81526004016113899291906147af565b6020604051808303816000875af11580156113a8573d6000803e3d6000fd5b505050506040513d601f19601f820116820180604052508101906113cc91906147e8565b6040517f6ca7b8060000000000000000000000000000000000000000000000000000000081526004016113ff9190614794565b60405180910390fd5b6000611413826123ca565b304660405160200161142793929190614815565b604051602081830303815290604052805190602001209050919050565b60008060003373ffffffffffffffffffffffffffffffffffffffff1673ffffffffffffffffffffffffffffffffffffffff168152602001908152602001600020905060008160010160009054906101000a900463ffffffff1663ffffffff1614156114e4576040517f08c379a00000000000000000000000000000000000000000000000000000000081526004016114db90614898565b60405180910390fd5b80600001600e9054906101000a900460ff16611535576040517f08c379a000000000000000000000000000000000000000000000000000000000815260040161152c90614904565b60405180910390fd5b60008160010160009054906101000a900463ffffffff1663ffffffff164261155d9190614924565b9050808260010160046101000a81548167ffffffffffffffff021916908367ffffffffffffffff160217905550600082600001600e6101000a81548160ff0219169083151502179055503373ffffffffffffffffffffffffffffffffffffffff167ffa9b3c14cc825c412c9ed81b3ba365a5b459439403f18829e572ed53a4180f0a826040516115ed9190614993565b60405180910390a25050565b60008060003373ffffffffffffffffffffffffffffffffffffffff1673ffffffffffffffffffffffffffffffffffffffff1681526020019081526020016000209050600081600001600f9054906101000a90046dffffffffffffffffffffffffffff166dffffffffffffffffffffffffffff169050600081116116b1576040517f08c379a00000000000000000000000000000000000000000000000000000000081526004016116a8906149fa565b60405180910390fd5b60008260010160049054906101000a900467ffffffffffffffff1667ffffffffffffffff1611611716576040517f08c379a000000000000000000000000000000000000000000000000000000000815260040161170d90614a66565b60405180910390fd5b428260010160049054906101000a900467ffffffffffffffff1667ffffffffffffffff16111561177b576040517f08c379a000000000000000000000000000000000000000000000000000000000815260040161177290614ad2565b60405180910390fd5b60008260010160006101000a81548163ffffffff021916908363ffffffff16021790555060008260010160046101000a81548167ffffffffffffffff021916908367ffffffffffffffff160217905550600082600001600f6101000a8154816dffffffffffffffffffffffffffff02191690836dffffffffffffffffffffffffffff1602179055503373ffffffffffffffffffffffffffffffffffffffff167fb7c918e0e249f999e965cafeb6c664271b3f4317d296461500e71da39f0cbda3848360405161184b929190614172565b60405180910390a260008373ffffffffffffffffffffffffffffffffffffffff1682604051611879906141c1565b60006040518083038185875af1925050503d80600081146118b6576040519150601f19603f3d011682016040523d82523d6000602084013e6118bb565b606091505b50509050806118ff576040517f08c379a00000000000000000000000000000000000000000000000000000000081526004016118f690614b3e565b60405180910390fd5b50505050565b60005a9050611912613176565b600080611923600086856001611fda565b9150915060008360400151905060008660c001355a8761194391906140e9565b61194d9190613d12565b90506000611962866000015160a001516123e3565b905060006119778760000151600001516123e3565b90503660008a806040019061198c9190614381565b91509150600060148383905010156119a55760006119c8565b82826000906014926119b993929190614b68565b906119c49190614be7565b60601c5b905060006119d5826123e3565b9050600073ffffffffffffffffffffffffffffffffffffffff168a73ffffffffffffffffffffffffffffffffffffffff1614611a8b57600060405180604001604052808c73ffffffffffffffffffffffffffffffffffffffff168152602001611a3d8d6123e3565b815250905087898b88858b866040517fc003fc83000000000000000000000000000000000000000000000000000000008152600401611a829796959493929190614cd3565b60405180910390fd5b86888a87848a6040517f5f8f83a2000000000000000000000000000000000000000000000000000000008152600401611ac996959493929190614d44565b60405180910390fd5b60006020528060005260406000206000915090508060000160009054906101000a90046dffffffffffffffffffffffffffff169080600001600e9054906101000a900460ff169080600001600f9054906101000a90046dffffffffffffffffffffffffffff16908060010160009054906101000a900463ffffffff16908060010160049054906101000a900467ffffffffffffffff16905085565b60008060008473ffffffffffffffffffffffffffffffffffffffff1673ffffffffffffffffffffffffffffffffffffffff16815260200190815260200160002090506000828260000160009054906101000a90046dffffffffffffffffffffffffffff166dffffffffffffffffffffffffffff16611beb9190613d12565b90506dffffffffffffffffffffffffffff8016811115611c40576040517f08c379a0000000000000000000000000000000000000000000000000000000008152600401611c3790614df2565b60405180910390fd5b808260000160006101000a8154816dffffffffffffffffffffffffffff02191690836dffffffffffffffffffffffffffff16021790555050505050565b6000805a9050600080866000015190506000611c988261248f565b905060008260a001519050600073ffffffffffffffffffffffffffffffffffffffff168173ffffffffffffffffffffffffffffffffffffffff161415611ce45782600001519350611eb8565b809350600088511115611eb7578187029550600280811115611d0957611d08614e12565b5b8a6002811115611d1c57611d1b614e12565b5b14611d9b578073ffffffffffffffffffffffffffffffffffffffff1663a9a2340984606001518c8b8a6040518563ffffffff1660e01b8152600401611d6393929190614e89565b600060405180830381600088803b158015611d7d57600080fd5b5087f1158015611d91573d6000803e3d6000fd5b5050505050611eb6565b8073ffffffffffffffffffffffffffffffffffffffff1663a9a2340984606001518c8b8a6040518563ffffffff1660e01b8152600401611ddd93929190614e89565b600060405180830381600088803b158015611df757600080fd5b5087f193505050508015611e09575060015b611eb557611e15614ed4565b806308c379a01415611e755750611e2a614ef6565b80611e355750611e77565b8b82826040517efa072b000000000000000000000000000000000000000000000000000000008152600401611e6c93929190614fd0565b60405180910390fd5b505b8a816040517efa072b000000000000000000000000000000000000000000000000000000008152600401611eac92919061505a565b60405180910390fd5b5b5b5b5a85038701965081870295508589604001511015611f0e578a816040517efa072b000000000000000000000000000000000000000000000000000000008152600401611f059291906150e2565b60405180910390fd5b6000868a60400151039050611f238582611b6d565b6000806002811115611f3857611f37614e12565b5b8c6002811115611f4b57611f4a614e12565b5b1490508460a0015173ffffffffffffffffffffffffffffffffffffffff16856000015173ffffffffffffffffffffffffffffffffffffffff168c602001517f49628fd1471006c1482da88028e9ce4dbb080b815c9b0344d39e5a8e6ec1419f8860200151858d8f604051611fc2949392919061511e565b60405180910390a45050505050505095945050505050565b60008060005a9050600085600001519050611ff587826124ca565b611ffe87611408565b86602001818152505060008761010001358860e001358360400151846060015185608001511717171790506effffffffffffffffffffffffffffff801681111561207d576040517f08c379a0000000000000000000000000000000000000000000000000000000008152600401612074906151af565b60405180910390fd5b60008061208984612672565b90506120988b8b8b8b856126e8565b8098508199508294505050506120ac612b69565b6060600073ffffffffffffffffffffffffffffffffffffffff168560a0015173ffffffffffffffffffffffffffffffffffffffff161461211c5760006120f58d8d8d8688612b6f565b80925081935050506000811415801561210d57508781105b15612116578097505b5061212f565b6040518060200160405280600081525090505b60005a87039050808c60a001351015612184578c8660a001516040517efa072b00000000000000000000000000000000000000000000000000000000815260040161217b92919061521b565b60405180910390fd5b828b604001818152505061219782612e1d565b8b60600181815250508b60c001355a8803018b60800181815250505050505050505094509492505050565b6000805a905060006121d78460600151612e27565b90503073ffffffffffffffffffffffffffffffffffffffff16631d7327568680606001906122059190614381565b87856040518563ffffffff1660e01b81526004016122269493929190615375565b6020604051808303816000875af192505050801561226257506040513d601f19601f8201168201806040525081019061225f91906153d3565b60015b61229b57600084608001515a8461227991906140e9565b6122839190613d12565b9050612293876002878585611c7d565b9350506122a0565b809350505b50509392505050565b600073ffffffffffffffffffffffffffffffffffffffff168273ffffffffffffffffffffffffffffffffffffffff161415612319576040517f08c379a00000000000000000000000000000000000000000000000000000000081526004016123109061544c565b60405180910390fd5b60008273ffffffffffffffffffffffffffffffffffffffff168260405161233f906141c1565b60006040518083038185875af1925050503d806000811461237c576040519150601f19603f3d011682016040523d82523d6000602084013e612381565b606091505b50509050806123c5576040517f08c379a00000000000000000000000000000000000000000000000000000000081526004016123bc906154b8565b60405180910390fd5b505050565b60006123d582612e31565b805190602001209050919050565b6123eb61320f565b60008060008473ffffffffffffffffffffffffffffffffffffffff1673ffffffffffffffffffffffffffffffffffffffff168152602001908152602001600020905080600001600f9054906101000a90046dffffffffffffffffffffffffffff166dffffffffffffffffffffffffffff168260000181815250508060010160009054906101000a900463ffffffff1663ffffffff1682602001818152505050919050565b6000808260c00151905060008360e001519050808214156124b45781925050506124c5565b6124c082488301612e73565b925050505b919050565b8160000160208101906124dd91906138dd565b816000019073ffffffffffffffffffffffffffffffffffffffff16908173ffffffffffffffffffffffffffffffffffffffff1681525050816020013581602001818152505081608001358160400181815250508160a001358160600181815250508160c001358160800181815250508160e001358160c00181815250508161010001358160e00181815250503660008380610120019061257d9190614381565b9150915060008282905011156126325760148282905010156125d4576040517f08c379a00000000000000000000000000000000000000000000000000000000081526004016125cb90615524565b60405180910390fd5b81816000906014926125e893929190614b68565b906125f39190614be7565b60601c8360a0019073ffffffffffffffffffffffffffffffffffffffff16908173ffffffffffffffffffffffffffffffffffffffff168152505061266c565b60008360a0019073ffffffffffffffffffffffffffffffffffffffff16908173ffffffffffffffffffffffffffffffffffffffff16815250505b50505050565b600080600073ffffffffffffffffffffffffffffffffffffffff168360a0015173ffffffffffffffffffffffffffffffffffffffff1614156126b55760016126b8565b60035b60ff16905060008360800151828560600151028560400151010190506126dd8461248f565b810292505050919050565b6000806000805a905060008760000151905060008160000151905061271d8b8a8c80604001906127189190614381565b612e8c565b600173ffffffffffffffffffffffffffffffffffffffff168873ffffffffffffffffffffffffffffffffffffffff16141561283a5761275a612b69565b60008173ffffffffffffffffffffffffffffffffffffffff163b14156127b9576000806040517efa072b0000000000000000000000000000000000000000000000000000000081526004016127b09291906155cb565b60405180910390fd5b8073ffffffffffffffffffffffffffffffffffffffff16633ad59dbc6040518163ffffffff1660e01b8152600401602060405180830381865afa92505050801561282157506040513d601f19601f8201168201806040525081019061281e91906147e8565b60015b6128315760009450849750612839565b809550859850505b5b6000808360a001519050600073ffffffffffffffffffffffffffffffffffffffff168173ffffffffffffffffffffffffffffffffffffffff16141561289c576000612884846112b9565b905089811161289557808a03612898565b60005b9250505b8273ffffffffffffffffffffffffffffffffffffffff16630825d1fc85606001518e8e602001518e876040518663ffffffff1660e01b81526004016128e4949392919061576b565b60206040518083038160008887f19350505050801561292157506040513d601f19601f8201168201806040525081019061291e91906153d3565b60015b6129cf5761292d614ed4565b806308c379a0141561298e5750612942614ef6565b8061294d5750612990565b8d6000826040517efa072b00000000000000000000000000000000000000000000000000000000815260040161298593929190614fd0565b60405180910390fd5b505b8c60006040517efa072b0000000000000000000000000000000000000000000000000000000081526004016129c69291906157da565b60405180910390fd5b600081141580156129df57504281105b15612a23578d60006040517efa072b000000000000000000000000000000000000000000000000000000008152600401612a1a929190615862565b60405180910390fd5b80965050600073ffffffffffffffffffffffffffffffffffffffff168173ffffffffffffffffffffffffffffffffffffffff161415612b545760008060008573ffffffffffffffffffffffffffffffffffffffff1673ffffffffffffffffffffffffffffffffffffffff168152602001908152602001600020905060008160000160009054906101000a90046dffffffffffffffffffffffffffff166dffffffffffffffffffffffffffff169050808b1115612b18578e60006040517efa072b000000000000000000000000000000000000000000000000000000008152600401612b0f9291906158ea565b60405180910390fd5b8a81038260000160006101000a8154816dffffffffffffffffffffffffffff02191690836dffffffffffffffffffffffffffff16021790555050505b5a850397505050505050955095509592505050565b43600052565b60606000808560000151905060008160a00151905060008060008373ffffffffffffffffffffffffffffffffffffffff1673ffffffffffffffffffffffffffffffffffffffff168152602001908152602001600020905060008160000160009054906101000a90046dffffffffffffffffffffffffffff166dffffffffffffffffffffffffffff16905087811015612c3f578a836040517efa072b000000000000000000000000000000000000000000000000000000008152600401612c36929190615972565b60405180910390fd5b8781038260000160006101000a8154816dffffffffffffffffffffffffffff02191690836dffffffffffffffffffffffffffff16021790555060008785606001510390508373ffffffffffffffffffffffffffffffffffffffff1663f465c77e828d8d602001518d6040518563ffffffff1660e01b8152600401612cc5939291906159ae565b60006040518083038160008887f193505050508015612d0757506040513d6000823e3d601f19601f82011682018060405250810190612d049190615a92565b60015b612db357612d13614ed4565b806308c379a01415612d735750612d28614ef6565b80612d335750612d75565b8c85826040517efa072b000000000000000000000000000000000000000000000000000000008152600401612d6a93929190614fd0565b60405180910390fd5b505b8b846040517efa072b000000000000000000000000000000000000000000000000000000008152600401612daa9291906157da565b60405180910390fd5b60008114158015612dc357504281105b15612e06578d866040517efa072b000000000000000000000000000000000000000000000000000000008152600401612dfd929190615b3a565b60405180910390fd5b819850809750505050505050509550959350505050565b6000819050919050565b6060819050919050565b606036600083806101400190612e479190614381565b915091508360208184030360405194506020810185016040528085528082602087013750505050919050565b6000818310612e825781612e84565b825b905092915050565b60008282905014613170576000836000015160000151905060008173ffffffffffffffffffffffffffffffffffffffff163b14612f02578460006040517efa072b000000000000000000000000000000000000000000000000000000008152600401612ef9929190615bc2565b60405180910390fd5b60007f000000000000000000000000000000000000000000000000000000000000000073ffffffffffffffffffffffffffffffffffffffff1663570e1a3685856040518363ffffffff1660e01b8152600401612f5f9291906147af565b6020604051808303816000875af1158015612f7e573d6000803e3d6000fd5b505050506040513d601f19601f82011682018060405250810190612fa291906147e8565b9050600073ffffffffffffffffffffffffffffffffffffffff168173ffffffffffffffffffffffffffffffffffffffff161415613018578560006040517efa072b00000000000000000000000000000000000000000000000000000000815260040161300f929190615c4a565b60405180910390fd5b8173ffffffffffffffffffffffffffffffffffffffff168173ffffffffffffffffffffffffffffffffffffffff161461308a578560006040517efa072b000000000000000000000000000000000000000000000000000000008152600401613081929190615cd2565b60405180910390fd5b60008173ffffffffffffffffffffffffffffffffffffffff163b14156130e9578560006040517efa072b0000000000000000000000000000000000000000000000000000000081526004016130e0929190615d5a565b60405180910390fd5b600084846000906014926130ff93929190614b68565b9061310a9190614be7565b60601c90508273ffffffffffffffffffffffffffffffffffffffff1686602001517fd51a9c61267aa6196961883ecf5ff2da6619c37dac0fa92122513fb32c032d2d83896000015160a00151604051613164929190615d96565b60405180910390a35050505b50505050565b6040518060a00160405280613189613229565b8152602001600080191681526020016000815260200160008152602001600081525090565b6040518060a0016040528060006dffffffffffffffffffffffffffff16815260200160001515815260200160006dffffffffffffffffffffffffffff168152602001600063ffffffff168152602001600067ffffffffffffffff1681525090565b604051806040016040528060008152602001600081525090565b604051806101000160405280600073ffffffffffffffffffffffffffffffffffffffff16815260200160008152602001600081526020016000815260200160008152602001600073ffffffffffffffffffffffffffffffffffffffff16815260200160008152602001600081525090565b6000604051905090565b600080fd5b600080fd5b600063ffffffff82169050919050565b6132c7816132ae565b81146132d257600080fd5b50565b6000813590506132e4816132be565b92915050565b600060208284031215613300576132ff6132a4565b5b600061330e848285016132d5565b91505092915050565b600080fd5b600080fd5b600080fd5b60008083601f84011261333c5761333b613317565b5b8235905067ffffffffffffffff8111156133595761335861331c565b5b60208301915083600182028301111561337557613374613321565b5b9250929050565b600080fd5b6000601f19601f8301169050919050565b7f4e487b7100000000000000000000000000000000000000000000000000000000600052604160045260246000fd5b6133ca82613381565b810181811067ffffffffffffffff821117156133e9576133e8613392565b5b80604052505050565b60006133fc61329a565b905061340882826133c1565b919050565b600073ffffffffffffffffffffffffffffffffffffffff82169050919050565b60006134388261340d565b9050919050565b6134488161342d565b811461345357600080fd5b50565b6000813590506134658161343f565b92915050565b6000819050919050565b61347e8161346b565b811461348957600080fd5b50565b60008135905061349b81613475565b92915050565b600061010082840312156134b8576134b761337c565b5b6134c36101006133f2565b905060006134d384828501613456565b60008301525060206134e78482850161348c565b60208301525060406134fb8482850161348c565b604083015250606061350f8482850161348c565b60608301525060806135238482850161348c565b60808301525060a061353784828501613456565b60a08301525060c061354b8482850161348c565b60c08301525060e061355f8482850161348c565b60e08301525092915050565b6000819050919050565b61357e8161356b565b811461358957600080fd5b50565b60008135905061359b81613575565b92915050565b600061018082840312156135b8576135b761337c565b5b6135c260a06133f2565b905060006135d2848285016134a1565b6000830152506101006135e78482850161358c565b6020830152506101206135fc8482850161348c565b6040830152506101406136118482850161348c565b6060830152506101606136268482850161348c565b60808301525092915050565b60008060008060006101c0868803121561364f5761364e6132a4565b5b600086013567ffffffffffffffff81111561366d5761366c6132a9565b5b61367988828901613326565b9550955050602061368c888289016135a1565b9350506101a086013567ffffffffffffffff8111156136ae576136ad6132a9565b5b6136ba88828901613326565b92509250509295509295909350565b6136d28161346b565b82525050565b60006020820190506136ed60008301846136c9565b92915050565b60008083601f84011261370957613708613317565b5b8235905067ffffffffffffffff8111156137265761372561331c565b5b60208301915083602082028301111561374257613741613321565b5b9250929050565b60006137548261340d565b9050919050565b61376481613749565b811461376f57600080fd5b50565b6000813590506137818161375b565b92915050565b6000806000604084860312156137a05761379f6132a4565b5b600084013567ffffffffffffffff8111156137be576137bd6132a9565b5b6137ca868287016136f3565b935093505060206137dd86828701613772565b9150509250925092565b600080604083850312156137fe576137fd6132a4565b5b600061380c85828601613772565b925050602061381d8582860161348c565b9150509250929050565b60008083601f84011261383d5761383c613317565b5b8235905067ffffffffffffffff81111561385a5761385961331c565b5b60208301915083602082028301111561387657613875613321565b5b9250929050565b600080600060408486031215613896576138956132a4565b5b600084013567ffffffffffffffff8111156138b4576138b36132a9565b5b6138c086828701613827565b935093505060206138d386828701613772565b9150509250925092565b6000602082840312156138f3576138f26132a4565b5b600061390184828501613456565b91505092915050565b60006dffffffffffffffffffffffffffff82169050919050565b61392d8161390a565b82525050565b60008115159050919050565b61394881613933565b82525050565b613957816132ae565b82525050565b600067ffffffffffffffff82169050919050565b61397a8161395d565b82525050565b60a0820160008201516139966000850182613924565b5060208201516139a9602085018261393f565b5060408201516139bc6040850182613924565b5060608201516139cf606085018261394e565b5060808201516139e26080850182613971565b50505050565b600060a0820190506139fd6000830184613980565b92915050565b60008060208385031215613a1a57613a196132a4565b5b600083013567ffffffffffffffff811115613a3857613a376132a9565b5b613a4485828601613326565b92509250509250929050565b600080fd5b60006101608284031215613a6c57613a6b613a50565b5b81905092915050565b600060208284031215613a8b57613a8a6132a4565b5b600082013567ffffffffffffffff811115613aa957613aa86132a9565b5b613ab584828501613a55565b91505092915050565b613ac78161356b565b82525050565b6000602082019050613ae26000830184613abe565b92915050565b600060208284031215613afe57613afd6132a4565b5b6000613b0c84828501613772565b91505092915050565b613b1e8161390a565b82525050565b613b2d81613933565b82525050565b613b3c816132ae565b82525050565b613b4b8161395d565b82525050565b600060a082019050613b666000830188613b15565b613b736020830187613b24565b613b806040830186613b15565b613b8d6060830185613b33565b613b9a6080830184613b42565b9695505050505050565b6000819050919050565b6000613bc9613bc4613bbf8461390a565b613ba4565b61346b565b9050919050565b613bd981613bae565b82525050565b6000602082019050613bf46000830184613bd0565b92915050565b600082825260208201905092915050565b7f6d757374207370656369667920756e7374616b652064656c6179000000000000600082015250565b6000613c41601a83613bfa565b9150613c4c82613c0b565b602082019050919050565b60006020820190508181036000830152613c7081613c34565b9050919050565b7f63616e6e6f7420646563726561736520756e7374616b652074696d6500000000600082015250565b6000613cad601c83613bfa565b9150613cb882613c77565b602082019050919050565b60006020820190508181036000830152613cdc81613ca0565b9050919050565b7f4e487b7100000000000000000000000000000000000000000000000000000000600052601160045260246000fd5b6000613d1d8261346b565b9150613d288361346b565b9250827fffffffffffffffffffffffffffffffffffffffffffffffffffffffffffffffff03821115613d5d57613d5c613ce3565b5b828201905092915050565b7f6e6f207374616b65207370656369666965640000000000000000000000000000600082015250565b6000613d9e601283613bfa565b9150613da982613d68565b602082019050919050565b60006020820190508181036000830152613dcd81613d91565b9050919050565b7f7374616b65206f766572666c6f77000000000000000000000000000000000000600082015250565b6000613e0a600e83613bfa565b9150613e1582613dd4565b602082019050919050565b60006020820190508181036000830152613e3981613dfd565b9050919050565b6000613e5b613e56613e51846132ae565b613ba4565b61346b565b9050919050565b613e6b81613e40565b82525050565b6000604082019050613e8660008301856136c9565b613e936020830184613e62565b9392505050565b7f4141393220696e7465726e616c2063616c6c206f6e6c79000000000000000000600082015250565b6000613ed0601783613bfa565b9150613edb82613e9a565b602082019050919050565b60006020820190508181036000830152613eff81613ec3565b9050919050565b600081905092915050565b82818337600083830152505050565b6000613f2c8385613f06565b9350613f39838584613f11565b82840190509392505050565b6000613f52828486613f20565b91508190509392505050565b600081519050919050565b600082825260208201905092915050565b60005b83811015613f98578082015181840152602081019050613f7d565b83811115613fa7576000848401525b50505050565b6000613fb882613f5e565b613fc28185613f69565b9350613fd2818560208601613f7a565b613fdb81613381565b840191505092915050565b6000604082019050613ffb60008301856136c9565b818103602083015261400d8184613fad565b90509392505050565b7f4e487b7100000000000000000000000000000000000000000000000000000000600052603260045260246000fd5b600080fd5b600080fd5b600080fd5b6000823560016101600383360303811261407157614070614045565b5b80830191505092915050565b7f576974686472617720616d6f756e7420746f6f206c6172676500000000000000600082015250565b60006140b3601983613bfa565b91506140be8261407d565b602082019050919050565b600060208201905081810360008301526140e2816140a6565b9050919050565b60006140f48261346b565b91506140ff8361346b565b92508282101561411257614111613ce3565b5b828203905092915050565b600061413861413361412e8461340d565b613ba4565b61340d565b9050919050565b600061414a8261411d565b9050919050565b600061415c8261413f565b9050919050565b61416c81614151565b82525050565b60006040820190506141876000830185614163565b61419460208301846136c9565b9392505050565b50565b60006141ab600083613f06565b91506141b68261419b565b600082019050919050565b60006141cc8261419e565b9150819050919050565b7f6661696c656420746f2077697468647261770000000000000000000000000000600082015250565b600061420c601283613bfa565b9150614217826141d6565b602082019050919050565b6000602082019050818103600083015261423b816141ff565b9050919050565b60008235600160600383360303811261425e5761425d614045565b5b80830191505092915050565b6000808335600160200384360303811261428757614286614045565b5b80840192508235915067ffffffffffffffff8211156142a9576142a861404a565b5b6020830192506020820236038313156142c5576142c461404f565b5b509250929050565b60006142d88261346b565b91507fffffffffffffffffffffffffffffffffffffffffffffffffffffffffffffffff82141561430b5761430a613ce3565b5b600182019050919050565b60006143218261342d565b9050919050565b61433181614316565b811461433c57600080fd5b50565b60008135905061434e81614328565b92915050565b60006020828403121561436a576143696132a4565b5b60006143788482850161433f565b91505092915050565b6000808335600160200384360303811261439e5761439d614045565b5b80840192508235915067ffffffffffffffff8211156143c0576143bf61404a565b5b6020830192506001820236038313156143dc576143db61404f565b5b509250929050565b600082825260208201905092915050565b6000819050919050565b600061440e6020840184613456565b905092915050565b61441f8161342d565b82525050565b6000614434602084018461348c565b905092915050565b6144458161346b565b82525050565b600080fd5b600080fd5b600080fd5b6000808335600160200384360303811261447757614476614455565b5b83810192508235915060208301925067ffffffffffffffff82111561449f5761449e61444b565b5b6001820236038413156144b5576144b4614450565b5b509250929050565b600082825260208201905092915050565b60006144da83856144bd565b93506144e7838584613f11565b6144f083613381565b840190509392505050565b6000610160830161450f60008401846143ff565b61451c6000860182614416565b5061452a6020840184614425565b614537602086018261443c565b50614545604084018461445a565b85830360408701526145588382846144ce565b92505050614569606084018461445a565b858303606087015261457c8382846144ce565b9250505061458d6080840184614425565b61459a608086018261443c565b506145a860a0840184614425565b6145b560a086018261443c565b506145c360c0840184614425565b6145d060c086018261443c565b506145de60e0840184614425565b6145eb60e086018261443c565b506145fa610100840184614425565b61460861010086018261443c565b5061461761012084018461445a565b85830361012087015261462b8382846144ce565b9250505061463d61014084018461445a565b8583036101408701526146518382846144ce565b925050508091505092915050565b600061466b83836144fb565b905092915050565b600082356001610160038336030381126146905761468f614455565b5b82810191505092915050565b6000602082019050919050565b60006146b583856143e4565b9350836020840285016146c7846143f5565b8060005b8781101561470b5784840389526146e28284614673565b6146ec858261465f565b94506146f78361469c565b925060208a019950506001810190506146cb565b50829750879450505050509392505050565b60006147298385613f69565b9350614736838584613f11565b61473f83613381565b840190509392505050565b600060408201905081810360008301526147658186886146a9565b9050818103602083015261477a81848661471d565b905095945050505050565b61478e8161342d565b82525050565b60006020820190506147a96000830184614785565b92915050565b600060208201905081810360008301526147ca81848661471d565b90509392505050565b6000815190506147e28161343f565b92915050565b6000602082840312156147fe576147fd6132a4565b5b600061480c848285016147d3565b91505092915050565b600060608201905061482a6000830186613abe565b6148376020830185614785565b61484460408301846136c9565b949350505050565b7f6e6f74207374616b656400000000000000000000000000000000000000000000600082015250565b6000614882600a83613bfa565b915061488d8261484c565b602082019050919050565b600060208201905081810360008301526148b181614875565b9050919050565b7f616c726561647920756e7374616b696e67000000000000000000000000000000600082015250565b60006148ee601183613bfa565b91506148f9826148b8565b602082019050919050565b6000602082019050818103600083015261491d816148e1565b9050919050565b600061492f8261395d565b915061493a8361395d565b92508267ffffffffffffffff0382111561495757614956613ce3565b5b828201905092915050565b600061497d6149786149738461395d565b613ba4565b61346b565b9050919050565b61498d81614962565b82525050565b60006020820190506149a86000830184614984565b92915050565b7f4e6f207374616b6520746f207769746864726177000000000000000000000000600082015250565b60006149e4601483613bfa565b91506149ef826149ae565b602082019050919050565b60006020820190508181036000830152614a13816149d7565b9050919050565b7f6d7573742063616c6c20756e6c6f636b5374616b652829206669727374000000600082015250565b6000614a50601d83613bfa565b9150614a5b82614a1a565b602082019050919050565b60006020820190508181036000830152614a7f81614a43565b9050919050565b7f5374616b65207769746864726177616c206973206e6f74206475650000000000600082015250565b6000614abc601b83613bfa565b9150614ac782614a86565b602082019050919050565b60006020820190508181036000830152614aeb81614aaf565b9050919050565b7f6661696c656420746f207769746864726177207374616b650000000000000000600082015250565b6000614b28601883613bfa565b9150614b3382614af2565b602082019050919050565b60006020820190508181036000830152614b5781614b1b565b9050919050565b600080fd5b600080fd5b60008085851115614b7c57614b7b614b5e565b5b83861115614b8d57614b8c614b63565b5b6001850283019150848603905094509492505050565b600082905092915050565b60007fffffffffffffffffffffffffffffffffffffffff00000000000000000000000082169050919050565b600082821b905092915050565b6000614bf38383614ba3565b82614bfe8135614bae565b92506014821015614c3e57614c397fffffffffffffffffffffffffffffffffffffffff00000000000000000000000083601403600802614bda565b831692505b505092915050565b604082016000820151614c5c600085018261443c565b506020820151614c6f602085018261443c565b50505050565b604082016000820151614c8b600085018261443c565b506020820151614c9e602085018261443c565b50505050565b606082016000820151614cba6000850182614416565b506020820151614ccd6020850182614c75565b50505050565b600061018082019050614ce9600083018a6136c9565b614cf660208301896136c9565b614d0360408301886136c9565b614d106060830187614c46565b614d1d60a0830186614c46565b614d2a60e0830185614c46565b614d38610120830184614ca4565b98975050505050505050565b600061012082019050614d5a60008301896136c9565b614d6760208301886136c9565b614d7460408301876136c9565b614d816060830186614c46565b614d8e60a0830185614c46565b614d9b60e0830184614c46565b979650505050505050565b7f6465706f736974206f766572666c6f7700000000000000000000000000000000600082015250565b6000614ddc601083613bfa565b9150614de782614da6565b602082019050919050565b60006020820190508181036000830152614e0b81614dcf565b9050919050565b7f4e487b7100000000000000000000000000000000000000000000000000000000600052602160045260246000fd5b60038110614e5257614e51614e12565b5b50565b6000819050614e6382614e41565b919050565b6000614e7382614e55565b9050919050565b614e8381614e68565b82525050565b6000606082019050614e9e6000830186614e7a565b8181036020830152614eb08185613fad565b9050614ebf60408301846136c9565b949350505050565b60008160e01c9050919050565b600060033d1115614ef35760046000803e614ef0600051614ec7565b90505b90565b600060443d1015614f0657614f89565b614f0e61329a565b60043d036004823e80513d602482011167ffffffffffffffff82111715614f36575050614f89565b808201805167ffffffffffffffff811115614f545750505050614f89565b80602083010160043d038501811115614f71575050505050614f89565b614f80826020018501866133c1565b82955050505050505b90565b600081519050919050565b6000614fa282614f8c565b614fac8185613bfa565b9350614fbc818560208601613f7a565b614fc581613381565b840191505092915050565b6000606082019050614fe560008301866136c9565b614ff26020830185614785565b81810360408301526150048184614f97565b9050949350505050565b7f41353020706f73744f7020726576657274000000000000000000000000000000600082015250565b6000615044601183613bfa565b915061504f8261500e565b602082019050919050565b600060608201905061506f60008301856136c9565b61507c6020830184614785565b818103604083015261508d81615037565b90509392505050565b7f4135312070726566756e642062656c6f772061637475616c476173436f737400600082015250565b60006150cc601f83613bfa565b91506150d782615096565b602082019050919050565b60006060820190506150f760008301856136c9565b6151046020830184614785565b8181036040830152615115816150bf565b90509392505050565b600060808201905061513360008301876136c9565b6151406020830186613b24565b61514d60408301856136c9565b61515a60608301846136c9565b95945050505050565b7f41413934206761732076616c756573206f766572666c6f770000000000000000600082015250565b6000615199601883613bfa565b91506151a482615163565b602082019050919050565b600060208201905081810360008301526151c88161518c565b9050919050565b7f413430206f76657220766572696669636174696f6e4761734c696d6974000000600082015250565b6000615205601d83613bfa565b9150615210826151cf565b602082019050919050565b600060608201905061523060008301856136c9565b61523d6020830184614785565b818103604083015261524e816151f8565b90509392505050565b6101008201600082015161526e6000850182614416565b506020820151615281602085018261443c565b506040820151615294604085018261443c565b5060608201516152a7606085018261443c565b5060808201516152ba608085018261443c565b5060a08201516152cd60a0850182614416565b5060c08201516152e060c085018261443c565b5060e08201516152f360e085018261443c565b50505050565b6153028161356b565b82525050565b6101808201600082015161531f6000850182615257565b5060208201516153336101008501826152f9565b50604082015161534761012085018261443c565b50606082015161535b61014085018261443c565b50608082015161536f61016085018261443c565b50505050565b60006101c082019050818103600083015261539181868861471d565b90506153a06020830185615308565b8181036101a08301526153b38184613fad565b905095945050505050565b6000815190506153cd81613475565b92915050565b6000602082840312156153e9576153e86132a4565b5b60006153f7848285016153be565b91505092915050565b7f4141393020696e76616c69642062656e65666963696172790000000000000000600082015250565b6000615436601883613bfa565b915061544182615400565b602082019050919050565b6000602082019050818103600083015261546581615429565b9050919050565b7f41413931206661696c65642073656e6420746f2062656e656669636961727900600082015250565b60006154a2601f83613bfa565b91506154ad8261546c565b602082019050919050565b600060208201905081810360008301526154d181615495565b9050919050565b7f4141393320696e76616c6964207061796d6173746572416e6444617461000000600082015250565b600061550e601d83613bfa565b9150615519826154d8565b602082019050919050565b6000602082019050818103600083015261553d81615501565b9050919050565b6000819050919050565b600061556961556461555f84615544565b613ba4565b61346b565b9050919050565b6155798161554e565b82525050565b7f41413230206163636f756e74206e6f74206465706c6f79656400000000000000600082015250565b60006155b5601983613bfa565b91506155c08261557f565b602082019050919050565b60006060820190506155e06000830185615570565b6155ed6020830184614785565b81810360408301526155fe816155a8565b90509392505050565b6000610160830161561b60008401846143ff565b6156286000860182614416565b506156366020840184614425565b615643602086018261443c565b50615651604084018461445a565b85830360408701526156648382846144ce565b92505050615675606084018461445a565b85830360608701526156888382846144ce565b925050506156996080840184614425565b6156a6608086018261443c565b506156b460a0840184614425565b6156c160a086018261443c565b506156cf60c0840184614425565b6156dc60c086018261443c565b506156ea60e0840184614425565b6156f760e086018261443c565b50615706610100840184614425565b61571461010086018261443c565b5061572361012084018461445a565b8583036101208701526157378382846144ce565b9250505061574961014084018461445a565b85830361014087015261575d8382846144ce565b925050508091505092915050565b600060808201905081810360008301526157858187615607565b90506157946020830186613abe565b6157a16040830185614785565b6157ae60608301846136c9565b95945050505050565b60006157c4600083613bfa565b91506157cf8261419b565b600082019050919050565b60006060820190506157ef60008301856136c9565b6157fc6020830184614785565b818103604083015261580d816157b7565b90509392505050565b7f4141323220657870697265640000000000000000000000000000000000000000600082015250565b600061584c600c83613bfa565b915061585782615816565b602082019050919050565b600060608201905061587760008301856136c9565b6158846020830184614785565b81810360408301526158958161583f565b90509392505050565b7f41413231206469646e2774207061792070726566756e64000000000000000000600082015250565b60006158d4601783613bfa565b91506158df8261589e565b602082019050919050565b60006060820190506158ff60008301856136c9565b61590c6020830184614785565b818103604083015261591d816158c7565b90509392505050565b7f41413331207061796d6173746572206465706f73697420746f6f206c6f770000600082015250565b600061595c601e83613bfa565b915061596782615926565b602082019050919050565b600060608201905061598760008301856136c9565b6159946020830184614785565b81810360408301526159a58161594f565b90509392505050565b600060608201905081810360008301526159c88186615607565b90506159d76020830185613abe565b6159e460408301846136c9565b949350505050565b600080fd5b600067ffffffffffffffff821115615a0c57615a0b613392565b5b615a1582613381565b9050602081019050919050565b6000615a35615a30846159f1565b6133f2565b905082815260208101848484011115615a5157615a506159ec565b5b615a5c848285613f7a565b509392505050565b600082601f830112615a7957615a78613317565b5b8151615a89848260208601615a22565b91505092915050565b60008060408385031215615aa957615aa86132a4565b5b600083015167ffffffffffffffff811115615ac757615ac66132a9565b5b615ad385828601615a64565b9250506020615ae4858286016153be565b9150509250929050565b7f41413332207061796d6173746572206578706972656400000000000000000000600082015250565b6000615b24601683613bfa565b9150615b2f82615aee565b602082019050919050565b6000606082019050615b4f60008301856136c9565b615b5c6020830184614785565b8181036040830152615b6d81615b17565b90509392505050565b7f414131302073656e64657220616c726561647920636f6e737472756374656400600082015250565b6000615bac601f83613bfa565b9150615bb782615b76565b602082019050919050565b6000606082019050615bd760008301856136c9565b615be46020830184614785565b8181036040830152615bf581615b9f565b90509392505050565b7f4141313120696e6974436f6465206661696c6564000000000000000000000000600082015250565b6000615c34601483613bfa565b9150615c3f82615bfe565b602082019050919050565b6000606082019050615c5f60008301856136c9565b615c6c6020830184614785565b8181036040830152615c7d81615c27565b90509392505050565b7f4141313220696e6974436f6465206d7573742072657475726e2073656e646572600082015250565b6000615cbc602083613bfa565b9150615cc782615c86565b602082019050919050565b6000606082019050615ce760008301856136c9565b615cf46020830184614785565b8181036040830152615d0581615caf565b90509392505050565b7f4141313320696e6974436f6465206d757374206372656174652073656e646572600082015250565b6000615d44602083613bfa565b9150615d4f82615d0e565b602082019050919050565b6000606082019050615d6f60008301856136c9565b615d7c6020830184614785565b8181036040830152615d8d81615d37565b90509392505050565b6000604082019050615dab6000830185614785565b615db86020830184614785565b939250505056fea164736f6c634300080c000a608060405234801561001057600080fd5b50610319806100206000396000f3fe608060405234801561001057600080fd5b506004361061002b5760003560e01c8063570e1a3614610030575b600080fd5b61004a6004803603810190610045919061017b565b610060565b6040516100579190610209565b60405180910390f35b60008083836000906014926100779392919061022e565b9061008291906102ad565b60601c905060008484601490809261009c9392919061022e565b8080601f016020809104026020016040519081016040528093929190818152602001838380828437600081840152601f19601f8201169050808301925050505050505090506000602060008351602085016000875af1905060005193508061010357600093505b50505092915050565b600080fd5b600080fd5b600080fd5b600080fd5b600080fd5b60008083601f84011261013b5761013a610116565b5b8235905067ffffffffffffffff8111156101585761015761011b565b5b60208301915083600182028301111561017457610173610120565b5b9250929050565b600080602083850312156101925761019161010c565b5b600083013567ffffffffffffffff8111156101b0576101af610111565b5b6101bc85828601610125565b92509250509250929050565b600073ffffffffffffffffffffffffffffffffffffffff82169050919050565b60006101f3826101c8565b9050919050565b610203816101e8565b82525050565b600060208201905061021e60008301846101fa565b92915050565b600080fd5b600080fd5b6000808585111561024257610241610224565b5b8386111561025357610252610229565b5b6001850283019150848603905094509492505050565b600082905092915050565b60007fffffffffffffffffffffffffffffffffffffffff00000000000000000000000082169050919050565b600082821b905092915050565b60006102b98383610269565b826102c48135610274565b92506014821015610304576102ff7fffffffffffffffffffffffffffffffffffffffff000000000000000000000000836014036008026102a0565b831692505b50509291505056fea164736f6c634300080c000a",
  "linkReferences": {},
  "deployedLinkReferences": {}
}