{
  "_format": "hh-sol-artifact-1",
  "contractName": "EntryPoint",
  "sourceName": "src/4337_wallet/core/EntryPoint.sol",
  "abi": [
    {
      "inputs": [
        {
          "internalType": "uint256",
          "name": "preOpGas",
          "type": "uint256"
        },
        {
          "internalType": "uint256",
          "name": "paid",
          "type": "uint256"
        },
        {
          "internalType": "uint256",
          "name": "deadline",
          "type": "uint256"
        },
        {
          "internalType": "uint256",
          "name": "paymasterDeadline",
          "type": "uint256"
        }
      ],
      "name": "ExecutionResult",
      "type": "error"
    },
    {
      "inputs": [
        {
          "internalType": "uint256",
          "name": "opIndex",
          "type": "uint256"
        },
        {
          "internalType": "address",
          "name": "paymaster",
          "type": "address"
        },
        {
          "internalType": "string",
          "name": "reason",
          "type": "string"
        }
      ],
      "name": "FailedOp",
      "type": "error"
    },
    {
      "inputs": [
        {
          "internalType": "address",
          "name": "sender",
          "type": "address"
        }
      ],
      "name": "SenderAddressResult",
      "type": "error"
    },
    {
      "inputs": [
        {
          "internalType": "address",
          "name": "aggregator",
          "type": "address"
        }
      ],
      "name": "SignatureValidationFailed",
      "type": "error"
    },
    {
      "inputs": [
        {
          "components": [
            {
              "internalType": "uint256",
              "name": "preOpGas",
              "type": "uint256"
            },
            {
              "internalType": "uint256",
              "name": "prefund",
              "type": "uint256"
            },
            {
              "internalType": "uint256",
              "name": "deadline",
              "type": "uint256"
            },
            {
              "internalType": "uint256",
              "name": "paymasterDeadline",
              "type": "uint256"
            },
            {
              "internalType": "bytes",
              "name": "paymasterContext",
              "type": "bytes"
            }
          ],
          "internalType": "struct IEntryPoint.ReturnInfo",
          "name": "returnInfo",
          "type": "tuple"
        },
        {
          "components": [
            {
              "internalType": "uint256",
              "name": "stake",
              "type": "uint256"
            },
            {
              "internalType": "uint256",
              "name": "unstakeDelaySec",
              "type": "uint256"
            }
          ],
          "internalType": "struct IStakeManager.StakeInfo",
          "name": "senderInfo",
          "type": "tuple"
        },
        {
          "components": [
            {
              "internalType": "uint256",
              "name": "stake",
              "type": "uint256"
            },
            {
              "internalType": "uint256",
              "name": "unstakeDelaySec",
              "type": "uint256"
            }
          ],
          "internalType": "struct IStakeManager.StakeInfo",
          "name": "factoryInfo",
          "type": "tuple"
        },
        {
          "components": [
            {
              "internalType": "uint256",
              "name": "stake",
              "type": "uint256"
            },
            {
              "internalType": "uint256",
              "name": "unstakeDelaySec",
              "type": "uint256"
            }
          ],
          "internalType": "struct IStakeManager.StakeInfo",
          "name": "paymasterInfo",
          "type": "tuple"
        }
      ],
      "name": "ValidationResult",
      "type": "error"
    },
    {
      "inputs": [
        {
          "components": [
            {
              "internalType": "uint256",
              "name": "preOpGas",
              "type": "uint256"
            },
            {
              "internalType": "uint256",
              "name": "prefund",
              "type": "uint256"
            },
            {
              "internalType": "uint256",
              "name": "deadline",
              "type": "uint256"
            },
            {
              "internalType": "uint256",
              "name": "paymasterDeadline",
              "type": "uint256"
            },
            {
              "internalType": "bytes",
              "name": "paymasterContext",
              "type": "bytes"
            }
          ],
          "internalType": "struct IEntryPoint.ReturnInfo",
          "name": "returnInfo",
          "type": "tuple"
        },
        {
          "components": [
            {
              "internalType": "uint256",
              "name": "stake",
              "type": "uint256"
            },
            {
              "internalType": "uint256",
              "name": "unstakeDelaySec",
              "type": "uint256"
            }
          ],
          "internalType": "struct IStakeManager.StakeInfo",
          "name": "senderInfo",
          "type": "tuple"
        },
        {
          "components": [
            {
              "internalType": "uint256",
              "name": "stake",
              "type": "uint256"
            },
            {
              "internalType": "uint256",
              "name": "unstakeDelaySec",
              "type": "uint256"
            }
          ],
          "internalType": "struct IStakeManager.StakeInfo",
          "name": "factoryInfo",
          "type": "tuple"
        },
        {
          "components": [
            {
              "internalType": "uint256",
              "name": "stake",
              "type": "uint256"
            },
            {
              "internalType": "uint256",
              "name": "unstakeDelaySec",
              "type": "uint256"
            }
          ],
          "internalType": "struct IStakeManager.StakeInfo",
          "name": "paymasterInfo",
          "type": "tuple"
        },
        {
          "components": [
            {
              "internalType": "address",
              "name": "actualAggregator",
              "type": "address"
            },
            {
              "components": [
                {
                  "internalType": "uint256",
                  "name": "stake",
                  "type": "uint256"
                },
                {
                  "internalType": "uint256",
                  "name": "unstakeDelaySec",
                  "type": "uint256"
                }
              ],
              "internalType": "struct IStakeManager.StakeInfo",
              "name": "stakeInfo",
              "type": "tuple"
            }
          ],
          "internalType": "struct IEntryPoint.AggregatorStakeInfo",
          "name": "aggregatorInfo",
          "type": "tuple"
        }
      ],
      "name": "ValidationResultWithAggregation",
      "type": "error"
    },
    {
      "anonymous": false,
      "inputs": [
        {
          "indexed": true,
          "internalType": "bytes32",
          "name": "userOpHash",
          "type": "bytes32"
        },
        {
          "indexed": true,
          "internalType": "address",
          "name": "sender",
          "type": "address"
        },
        {
          "indexed": false,
          "internalType": "address",
          "name": "factory",
          "type": "address"
        },
        {
          "indexed": false,
          "internalType": "address",
          "name": "paymaster",
          "type": "address"
        }
      ],
      "name": "AccountDeployed",
      "type": "event"
    },
    {
      "anonymous": false,
      "inputs": [
        {
          "indexed": true,
          "internalType": "address",
          "name": "account",
          "type": "address"
        },
        {
          "indexed": false,
          "internalType": "uint256",
          "name": "totalDeposit",
          "type": "uint256"
        }
      ],
      "name": "Deposited",
      "type": "event"
    },
    {
      "anonymous": false,
      "inputs": [
        {
          "indexed": false,
          "internalType": "address",
          "name": "aggregator",
          "type": "address"
        }
      ],
      "name": "SignatureAggregatorChanged",
      "type": "event"
    },
    {
      "anonymous": false,
      "inputs": [
        {
          "indexed": true,
          "internalType": "address",
          "name": "account",
          "type": "address"
        },
        {
          "indexed": false,
          "internalType": "uint256",
          "name": "totalStaked",
          "type": "uint256"
        },
        {
          "indexed": false,
          "internalType": "uint256",
          "name": "withdrawTime",
          "type": "uint256"
        }
      ],
      "name": "StakeLocked",
      "type": "event"
    },
    {
      "anonymous": false,
      "inputs": [
        {
          "indexed": true,
          "internalType": "address",
          "name": "account",
          "type": "address"
        },
        {
          "indexed": false,
          "internalType": "uint256",
          "name": "withdrawTime",
          "type": "uint256"
        }
      ],
      "name": "StakeUnlocked",
      "type": "event"
    },
    {
      "anonymous": false,
      "inputs": [
        {
          "indexed": true,
          "internalType": "address",
          "name": "account",
          "type": "address"
        },
        {
          "indexed": false,
          "internalType": "address",
          "name": "withdrawAddress",
          "type": "address"
        },
        {
          "indexed": false,
          "internalType": "uint256",
          "name": "amount",
          "type": "uint256"
        }
      ],
      "name": "StakeWithdrawn",
      "type": "event"
    },
    {
      "anonymous": false,
      "inputs": [
        {
          "indexed": true,
          "internalType": "bytes32",
          "name": "userOpHash",
          "type": "bytes32"
        },
        {
          "indexed": true,
          "internalType": "address",
          "name": "sender",
          "type": "address"
        },
        {
          "indexed": true,
          "internalType": "address",
          "name": "paymaster",
          "type": "address"
        },
        {
          "indexed": false,
          "internalType": "uint256",
          "name": "nonce",
          "type": "uint256"
        },
        {
          "indexed": false,
          "internalType": "bool",
          "name": "success",
          "type": "bool"
        },
        {
          "indexed": false,
          "internalType": "uint256",
          "name": "actualGasCost",
          "type": "uint256"
        },
        {
          "indexed": false,
          "internalType": "uint256",
          "name": "actualGasUsed",
          "type": "uint256"
        }
      ],
      "name": "UserOperationEvent",
      "type": "event"
    },
    {
      "anonymous": false,
      "inputs": [
        {
          "indexed": true,
          "internalType": "bytes32",
          "name": "userOpHash",
          "type": "bytes32"
        },
        {
          "indexed": true,
          "internalType": "address",
          "name": "sender",
          "type": "address"
        },
        {
          "indexed": false,
          "internalType": "uint256",
          "name": "nonce",
          "type": "uint256"
        },
        {
          "indexed": false,
          "internalType": "bytes",
          "name": "revertReason",
          "type": "bytes"
        }
      ],
      "name": "UserOperationRevertReason",
      "type": "event"
    },
    {
      "anonymous": false,
      "inputs": [
        {
          "indexed": true,
          "internalType": "address",
          "name": "account",
          "type": "address"
        },
        {
          "indexed": false,
          "internalType": "address",
          "name": "withdrawAddress",
          "type": "address"
        },
        {
          "indexed": false,
          "internalType": "uint256",
          "name": "amount",
          "type": "uint256"
        }
      ],
      "name": "Withdrawn",
      "type": "event"
    },
    {
      "inputs": [],
      "name": "SIG_VALIDATION_FAILED",
      "outputs": [
        {
          "internalType": "uint256",
          "name": "",
          "type": "uint256"
        }
      ],
      "stateMutability": "view",
      "type": "function"
    },
    {
      "inputs": [
        {
          "internalType": "uint32",
          "name": "_unstakeDelaySec",
          "type": "uint32"
        }
      ],
      "name": "addStake",
      "outputs": [],
      "stateMutability": "payable",
      "type": "function"
    },
    {
      "inputs": [
        {
          "internalType": "address",
          "name": "account",
          "type": "address"
        }
      ],
      "name": "balanceOf",
      "outputs": [
        {
          "internalType": "uint256",
          "name": "",
          "type": "uint256"
        }
      ],
      "stateMutability": "view",
      "type": "function"
    },
    {
      "inputs": [
        {
          "internalType": "address",
          "name": "account",
          "type": "address"
        }
      ],
      "name": "depositTo",
      "outputs": [],
      "stateMutability": "payable",
      "type": "function"
    },
    {
      "inputs": [
        {
          "internalType": "address",
          "name": "",
          "type": "address"
        }
      ],
      "name": "deposits",
      "outputs": [
        {
          "internalType": "uint112",
          "name": "deposit",
          "type": "uint112"
        },
        {
          "internalType": "bool",
          "name": "staked",
          "type": "bool"
        },
        {
          "internalType": "uint112",
          "name": "stake",
          "type": "uint112"
        },
        {
          "internalType": "uint32",
          "name": "unstakeDelaySec",
          "type": "uint32"
        },
        {
          "internalType": "uint64",
          "name": "withdrawTime",
          "type": "uint64"
        }
      ],
      "stateMutability": "view",
      "type": "function"
    },
    {
      "inputs": [
        {
          "internalType": "address",
          "name": "account",
          "type": "address"
        }
      ],
      "name": "getDepositInfo",
      "outputs": [
        {
          "components": [
            {
              "internalType": "uint112",
              "name": "deposit",
              "type": "uint112"
            },
            {
              "internalType": "bool",
              "name": "staked",
              "type": "bool"
            },
            {
              "internalType": "uint112",
              "name": "stake",
              "type": "uint112"
            },
            {
              "internalType": "uint32",
              "name": "unstakeDelaySec",
              "type": "uint32"
            },
            {
              "internalType": "uint64",
              "name": "withdrawTime",
              "type": "uint64"
            }
          ],
          "internalType": "struct IStakeManager.DepositInfo",
          "name": "info",
          "type": "tuple"
        }
      ],
      "stateMutability": "view",
      "type": "function"
    },
    {
      "inputs": [
        {
          "internalType": "bytes",
          "name": "initCode",
          "type": "bytes"
        }
      ],
      "name": "getSenderAddress",
      "outputs": [],
      "stateMutability": "nonpayable",
      "type": "function"
    },
    {
      "inputs": [
        {
          "components": [
            {
              "internalType": "address",
              "name": "sender",
              "type": "address"
            },
            {
              "internalType": "uint256",
              "name": "nonce",
              "type": "uint256"
            },
            {
              "internalType": "bytes",
              "name": "initCode",
              "type": "bytes"
            },
            {
              "internalType": "bytes",
              "name": "callData",
              "type": "bytes"
            },
            {
              "internalType": "uint256",
              "name": "callGasLimit",
              "type": "uint256"
            },
            {
              "internalType": "uint256",
              "name": "verificationGasLimit",
              "type": "uint256"
            },
            {
              "internalType": "uint256",
              "name": "preVerificationGas",
              "type": "uint256"
            },
            {
              "internalType": "uint256",
              "name": "maxFeePerGas",
              "type": "uint256"
            },
            {
              "internalType": "uint256",
              "name": "maxPriorityFeePerGas",
              "type": "uint256"
            },
            {
              "internalType": "bytes",
              "name": "paymasterAndData",
              "type": "bytes"
            },
            {
              "internalType": "bytes",
              "name": "signature",
              "type": "bytes"
            }
          ],
          "internalType": "struct UserOperation",
          "name": "userOp",
          "type": "tuple"
        }
      ],
      "name": "getUserOpHash",
      "outputs": [
        {
          "internalType": "bytes32",
          "name": "",
          "type": "bytes32"
        }
      ],
      "stateMutability": "view",
      "type": "function"
    },
    {
      "inputs": [
        {
          "components": [
            {
              "components": [
                {
                  "internalType": "address",
                  "name": "sender",
                  "type": "address"
                },
                {
                  "internalType": "uint256",
                  "name": "nonce",
                  "type": "uint256"
                },
                {
                  "internalType": "bytes",
                  "name": "initCode",
                  "type": "bytes"
                },
                {
                  "internalType": "bytes",
                  "name": "callData",
                  "type": "bytes"
                },
                {
                  "internalType": "uint256",
                  "name": "callGasLimit",
                  "type": "uint256"
                },
                {
                  "internalType": "uint256",
                  "name": "verificationGasLimit",
                  "type": "uint256"
                },
                {
                  "internalType": "uint256",
                  "name": "preVerificationGas",
                  "type": "uint256"
                },
                {
                  "internalType": "uint256",
                  "name": "maxFeePerGas",
                  "type": "uint256"
                },
                {
                  "internalType": "uint256",
                  "name": "maxPriorityFeePerGas",
                  "type": "uint256"
                },
                {
                  "internalType": "bytes",
                  "name": "paymasterAndData",
                  "type": "bytes"
                },
                {
                  "internalType": "bytes",
                  "name": "signature",
                  "type": "bytes"
                }
              ],
              "internalType": "struct UserOperation[]",
              "name": "userOps",
              "type": "tuple[]"
            },
            {
              "internalType": "contract IAggregator",
              "name": "aggregator",
              "type": "address"
            },
            {
              "internalType": "bytes",
              "name": "signature",
              "type": "bytes"
            }
          ],
          "internalType": "struct IEntryPoint.UserOpsPerAggregator[]",
          "name": "opsPerAggregator",
          "type": "tuple[]"
        },
        {
          "internalType": "address payable",
          "name": "beneficiary",
          "type": "address"
        }
      ],
      "name": "handleAggregatedOps",
      "outputs": [],
      "stateMutability": "nonpayable",
      "type": "function"
    },
    {
      "inputs": [
        {
          "components": [
            {
              "internalType": "address",
              "name": "sender",
              "type": "address"
            },
            {
              "internalType": "uint256",
              "name": "nonce",
              "type": "uint256"
            },
            {
              "internalType": "bytes",
              "name": "initCode",
              "type": "bytes"
            },
            {
              "internalType": "bytes",
              "name": "callData",
              "type": "bytes"
            },
            {
              "internalType": "uint256",
              "name": "callGasLimit",
              "type": "uint256"
            },
            {
              "internalType": "uint256",
              "name": "verificationGasLimit",
              "type": "uint256"
            },
            {
              "internalType": "uint256",
              "name": "preVerificationGas",
              "type": "uint256"
            },
            {
              "internalType": "uint256",
              "name": "maxFeePerGas",
              "type": "uint256"
            },
            {
              "internalType": "uint256",
              "name": "maxPriorityFeePerGas",
              "type": "uint256"
            },
            {
              "internalType": "bytes",
              "name": "paymasterAndData",
              "type": "bytes"
            },
            {
              "internalType": "bytes",
              "name": "signature",
              "type": "bytes"
            }
          ],
          "internalType": "struct UserOperation[]",
          "name": "ops",
          "type": "tuple[]"
        },
        {
          "internalType": "address payable",
          "name": "beneficiary",
          "type": "address"
        }
      ],
      "name": "handleOps",
      "outputs": [],
      "stateMutability": "nonpayable",
      "type": "function"
    },
    {
      "inputs": [
        {
          "internalType": "bytes",
          "name": "callData",
          "type": "bytes"
        },
        {
          "components": [
            {
              "components": [
                {
                  "internalType": "address",
                  "name": "sender",
                  "type": "address"
                },
                {
                  "internalType": "uint256",
                  "name": "nonce",
                  "type": "uint256"
                },
                {
                  "internalType": "uint256",
                  "name": "callGasLimit",
                  "type": "uint256"
                },
                {
                  "internalType": "uint256",
                  "name": "verificationGasLimit",
                  "type": "uint256"
                },
                {
                  "internalType": "uint256",
                  "name": "preVerificationGas",
                  "type": "uint256"
                },
                {
                  "internalType": "address",
                  "name": "paymaster",
                  "type": "address"
                },
                {
                  "internalType": "uint256",
                  "name": "maxFeePerGas",
                  "type": "uint256"
                },
                {
                  "internalType": "uint256",
                  "name": "maxPriorityFeePerGas",
                  "type": "uint256"
                }
              ],
              "internalType": "struct EntryPoint.MemoryUserOp",
              "name": "mUserOp",
              "type": "tuple"
            },
            {
              "internalType": "bytes32",
              "name": "userOpHash",
              "type": "bytes32"
            },
            {
              "internalType": "uint256",
              "name": "prefund",
              "type": "uint256"
            },
            {
              "internalType": "uint256",
              "name": "contextOffset",
              "type": "uint256"
            },
            {
              "internalType": "uint256",
              "name": "preOpGas",
              "type": "uint256"
            }
          ],
          "internalType": "struct EntryPoint.UserOpInfo",
          "name": "opInfo",
          "type": "tuple"
        },
        {
          "internalType": "bytes",
          "name": "context",
          "type": "bytes"
        }
      ],
      "name": "innerHandleOp",
      "outputs": [
        {
          "internalType": "uint256",
          "name": "actualGasCost",
          "type": "uint256"
        }
      ],
      "stateMutability": "nonpayable",
      "type": "function"
    },
    {
      "inputs": [
        {
          "components": [
            {
              "internalType": "address",
              "name": "sender",
              "type": "address"
            },
            {
              "internalType": "uint256",
              "name": "nonce",
              "type": "uint256"
            },
            {
              "internalType": "bytes",
              "name": "initCode",
              "type": "bytes"
            },
            {
              "internalType": "bytes",
              "name": "callData",
              "type": "bytes"
            },
            {
              "internalType": "uint256",
              "name": "callGasLimit",
              "type": "uint256"
            },
            {
              "internalType": "uint256",
              "name": "verificationGasLimit",
              "type": "uint256"
            },
            {
              "internalType": "uint256",
              "name": "preVerificationGas",
              "type": "uint256"
            },
            {
              "internalType": "uint256",
              "name": "maxFeePerGas",
              "type": "uint256"
            },
            {
              "internalType": "uint256",
              "name": "maxPriorityFeePerGas",
              "type": "uint256"
            },
            {
              "internalType": "bytes",
              "name": "paymasterAndData",
              "type": "bytes"
            },
            {
              "internalType": "bytes",
              "name": "signature",
              "type": "bytes"
            }
          ],
          "internalType": "struct UserOperation",
          "name": "op",
          "type": "tuple"
        }
      ],
      "name": "simulateHandleOp",
      "outputs": [],
      "stateMutability": "nonpayable",
      "type": "function"
    },
    {
      "inputs": [
        {
          "components": [
            {
              "internalType": "address",
              "name": "sender",
              "type": "address"
            },
            {
              "internalType": "uint256",
              "name": "nonce",
              "type": "uint256"
            },
            {
              "internalType": "bytes",
              "name": "initCode",
              "type": "bytes"
            },
            {
              "internalType": "bytes",
              "name": "callData",
              "type": "bytes"
            },
            {
              "internalType": "uint256",
              "name": "callGasLimit",
              "type": "uint256"
            },
            {
              "internalType": "uint256",
              "name": "verificationGasLimit",
              "type": "uint256"
            },
            {
              "internalType": "uint256",
              "name": "preVerificationGas",
              "type": "uint256"
            },
            {
              "internalType": "uint256",
              "name": "maxFeePerGas",
              "type": "uint256"
            },
            {
              "internalType": "uint256",
              "name": "maxPriorityFeePerGas",
              "type": "uint256"
            },
            {
              "internalType": "bytes",
              "name": "paymasterAndData",
              "type": "bytes"
            },
            {
              "internalType": "bytes",
              "name": "signature",
              "type": "bytes"
            }
          ],
          "internalType": "struct UserOperation",
          "name": "userOp",
          "type": "tuple"
        }
      ],
      "name": "simulateValidation",
      "outputs": [],
      "stateMutability": "nonpayable",
      "type": "function"
    },
    {
      "inputs": [],
      "name": "unlockStake",
      "outputs": [],
      "stateMutability": "nonpayable",
      "type": "function"
    },
    {
      "inputs": [
        {
          "internalType": "address payable",
          "name": "withdrawAddress",
          "type": "address"
        }
      ],
      "name": "withdrawStake",
      "outputs": [],
      "stateMutability": "nonpayable",
      "type": "function"
    },
    {
      "inputs": [
        {
          "internalType": "address payable",
          "name": "withdrawAddress",
          "type": "address"
        },
        {
          "internalType": "uint256",
          "name": "withdrawAmount",
          "type": "uint256"
        }
      ],
      "name": "withdrawTo",
      "outputs": [],
      "stateMutability": "nonpayable",
      "type": "function"
    },
    {
      "stateMutability": "payable",
      "type": "receive"
    }
  ],
  "bytecode": "0x60a0604052604051620000129062000076565b604051809103906000f0801580156200002f573d6000803e3d6000fd5b5073ffffffffffffffffffffffffffffffffffffffff1660809073ffffffffffffffffffffffffffffffffffffffff168152503480156200006f57600080fd5b5062000084565b61033980620064aa83390190565b608051616403620000a7600039600081816113d301526131b601526164036000f3fe6080604052600436106100f75760003560e01c80639b249f691161008a578063c207711611610059578063c20771161461031e578063c23a5cea14610347578063ee21942314610370578063fc7e286d1461039957610107565b80639b249f6914610285578063a6193531146102ae578063b760faf9146102eb578063bb9fe6bf1461030757610107565b80634b1d7cf5116100c65780634b1d7cf5146101b75780635287ce12146101e057806370a082311461021d5780638f41ec5a1461025a57610107565b80630396cb601461010c5780631d732756146101285780631fad948c14610165578063205c28781461018e57610107565b3661010757610105336103da565b005b600080fd5b610126600480360381019061012191906135a4565b610496565b005b34801561013457600080fd5b5061014f600480360381019061014a91906138ec565b610852565b60405161015c9190613992565b60405180910390f35b34801561017157600080fd5b5061018c60048036038101906101879190613a41565b610a3a565b005b34801561019a57600080fd5b506101b560048036038101906101b09190613aa1565b610b93565b005b3480156101c357600080fd5b506101de60048036038101906101d99190613b37565b610db8565b005b3480156101ec57600080fd5b5061020760048036038101906102029190613b97565b611204565b6040516102149190613ca2565b60405180910390f35b34801561022957600080fd5b50610244600480360381019061023f9190613b97565b611357565b6040516102519190613992565b60405180910390f35b34801561026657600080fd5b5061026f6113cc565b60405161027c9190613992565b60405180910390f35b34801561029157600080fd5b506102ac60048036038101906102a79190613cbd565b6113d1565b005b3480156102ba57600080fd5b506102d560048036038101906102d09190613d2f565b6114ab565b6040516102e29190613d87565b60405180910390f35b61030560048036038101906103009190613b97565b6103da565b005b34801561031357600080fd5b5061031c6114e7565b005b34801561032a57600080fd5b5061034560048036038101906103409190613d2f565b61169c565b005b34801561035357600080fd5b5061036e60048036038101906103699190613da2565b611742565b005b34801561037c57600080fd5b5061039760048036038101906103929190613d2f565b611a4e565b005b3480156103a557600080fd5b506103c060048036038101906103bb9190613b97565b611c29565b6040516103d1959493929190613e0b565b60405180910390f35b6103e48134611cc4565b60008060008373ffffffffffffffffffffffffffffffffffffffff1673ffffffffffffffffffffffffffffffffffffffff16815260200190815260200160002090508173ffffffffffffffffffffffffffffffffffffffff167f2da466a7b24304f47e87fa2e1e5a81b9831ce54fec19055ce277ca2f39ba42c48260000160009054906101000a90046dffffffffffffffffffffffffffff1660405161048a9190613e99565b60405180910390a25050565b60008060003373ffffffffffffffffffffffffffffffffffffffff1673ffffffffffffffffffffffffffffffffffffffff168152602001908152602001600020905060008263ffffffff1611610521576040517f08c379a000000000000000000000000000000000000000000000000000000000815260040161051890613f11565b60405180910390fd5b8060010160009054906101000a900463ffffffff1663ffffffff168263ffffffff161015610584576040517f08c379a000000000000000000000000000000000000000000000000000000000815260040161057b90613f7d565b60405180910390fd5b60003482600001600f9054906101000a90046dffffffffffffffffffffffffffff166dffffffffffffffffffffffffffff166105c09190613fcc565b905060008111610605576040517f08c379a00000000000000000000000000000000000000000000000000000000081526004016105fc9061406e565b60405180910390fd5b6dffffffffffffffffffffffffffff80168110610657576040517f08c379a000000000000000000000000000000000000000000000000000000000815260040161064e906140da565b60405180910390fd5b6040518060a001604052808360000160009054906101000a90046dffffffffffffffffffffffffffff166dffffffffffffffffffffffffffff168152602001600115158152602001826dffffffffffffffffffffffffffff1681526020018463ffffffff168152602001600067ffffffffffffffff168152506000803373ffffffffffffffffffffffffffffffffffffffff1673ffffffffffffffffffffffffffffffffffffffff16815260200190815260200160002060008201518160000160006101000a8154816dffffffffffffffffffffffffffff02191690836dffffffffffffffffffffffffffff160217905550602082015181600001600e6101000a81548160ff021916908315150217905550604082015181600001600f6101000a8154816dffffffffffffffffffffffffffff02191690836dffffffffffffffffffffffffffff16021790555060608201518160010160006101000a81548163ffffffff021916908363ffffffff16021790555060808201518160010160046101000a81548167ffffffffffffffff021916908367ffffffffffffffff1602179055509050503373ffffffffffffffffffffffffffffffffffffffff167fa5ae833d0bb1dcd632d98a8b70973e8516812898e19bf27b70071ebc8dc52c01828560405161084592919061412b565b60405180910390a2505050565b6000805a90503073ffffffffffffffffffffffffffffffffffffffff163373ffffffffffffffffffffffffffffffffffffffff16146108c6576040517f08c379a00000000000000000000000000000000000000000000000000000000081526004016108bd906141a0565b60405180910390fd5b6000856000015190506000808989905011156109cc57600080836000015173ffffffffffffffffffffffffffffffffffffffff1684604001518c8c60405161090f9291906141ff565b60006040518083038160008787f1925050503d806000811461094d576040519150601f19603f3d011682016040523d82523d6000602084013e610952565b606091505b5091509150816109c9576000815111156109c457836000015173ffffffffffffffffffffffffffffffffffffffff1689602001517f1c4fada7374c0a9ee8841fc38afe82932dc0f8e69012e927f061a8bae611a2018660200151846040516109bb9291906142a0565b60405180910390a35b600192505b50505b600087608001515a8503019050610a2b6000838a8a8a8080601f016020809104026020016040519081016040528093929190818152602001838380828437600081840152601f19601f8201169050808301925050505050505085611dd4565b94505050505095945050505050565b600083839050905060008167ffffffffffffffff811115610a5e57610a5d61364c565b5b604051908082528060200260200182016040528015610a9757816020015b610a84613430565b815260200190600190039081610a7c5790505b50905060005b82811015610b19576000828281518110610aba57610ab96142d0565b5b60200260200101519050600080610af8848a8a87818110610ade57610add6142d0565b5b9050602002810190610af0919061430e565b856000612131565b5091509150610b09848484846122e8565b5050508080600101915050610a9d565b506000805b83811015610b8057610b6f81888884818110610b3d57610b3c6142d0565b5b9050602002810190610b4f919061430e565b858481518110610b6257610b616142d0565b5b6020026020010151612431565b820191508080600101915050610b1e565b50610b8b8482612518565b505050505050565b60008060003373ffffffffffffffffffffffffffffffffffffffff1673ffffffffffffffffffffffffffffffffffffffff16815260200190815260200160002090508060000160009054906101000a90046dffffffffffffffffffffffffffff166dffffffffffffffffffffffffffff16821115610c46576040517f08c379a0000000000000000000000000000000000000000000000000000000008152600401610c3d90614383565b60405180910390fd5b818160000160009054906101000a90046dffffffffffffffffffffffffffff166dffffffffffffffffffffffffffff16610c8091906143a3565b8160000160006101000a8154816dffffffffffffffffffffffffffff02191690836dffffffffffffffffffffffffffff1602179055503373ffffffffffffffffffffffffffffffffffffffff167fd1c19fbcd4551a5edfb66d43d2e337c04837afda3482b42bdf569a8fccdae5fb8484604051610cfe92919061442c565b60405180910390a260008373ffffffffffffffffffffffffffffffffffffffff1683604051610d2c9061447b565b60006040518083038185875af1925050503d8060008114610d69576040519150601f19603f3d011682016040523d82523d6000602084013e610d6e565b606091505b5050905080610db2576040517f08c379a0000000000000000000000000000000000000000000000000000000008152600401610da9906144dc565b60405180910390fd5b50505050565b60008383905090506000805b82811015610e2257858582818110610ddf57610dde6142d0565b5b9050602002810190610df191906144fc565b8060000190610e009190614524565b905082610e0d9190613fcc565b91508080610e1a90614587565b915050610dc4565b5060008167ffffffffffffffff811115610e3f57610e3e61364c565b5b604051908082528060200260200182016040528015610e7857816020015b610e65613430565b815260200190600190039081610e5d5790505b5090506000805b8481101561107c5736888883818110610e9b57610e9a6142d0565b5b9050602002810190610ead91906144fc565b9050366000828060000190610ec29190614524565b915091506000836020016020810190610edb919061460e565b9050600083839050905060005b81811015610f77576000898981518110610f0557610f046142d0565b5b60200260200101519050600080610f428b898987818110610f2957610f286142d0565b5b9050602002810190610f3b919061430e565b8589612131565b5091509150610f53848484846122e8565b8a80610f5e90614587565b9b50505050508080610f6f90614587565b915050610ee8565b50600073ffffffffffffffffffffffffffffffffffffffff168273ffffffffffffffffffffffffffffffffffffffff1614611064578173ffffffffffffffffffffffffffffffffffffffff1663e3563a4f8585888060400190610fda919061463b565b6040518563ffffffff1660e01b8152600401610ff99493929190614a04565b60006040518083038186803b15801561101157600080fd5b505afa925050508015611022575060015b61106357816040517f86a9f75000000000000000000000000000000000000000000000000000000000815260040161105a9190614a4e565b60405180910390fd5b5b5050505050808061107490614587565b915050610e7f565b50600080915060005b858110156111b757368989838181106110a1576110a06142d0565b5b90506020028101906110b391906144fc565b90507f575ff3acadd5ab348fe1855e217e0f3678f8d767d7494c9f9fefbee2e17cca4d8160200160208101906110e9919061460e565b6040516110f69190614a4e565b60405180910390a13660008280600001906111119190614524565b91509150600082829050905060005b8181101561119f576111718885858481811061113f5761113e6142d0565b5b9050602002810190611151919061430e565b8b8b81518110611164576111636142d0565b5b6020026020010151612431565b8761117c9190613fcc565b9650878061118990614587565b985050808061119790614587565b915050611120565b505050505080806111af90614587565b915050611085565b507f575ff3acadd5ab348fe1855e217e0f3678f8d767d7494c9f9fefbee2e17cca4d60006040516111e89190614a4e565b60405180910390a16111fa8682612518565b5050505050505050565b61120c613468565b6000808373ffffffffffffffffffffffffffffffffffffffff1673ffffffffffffffffffffffffffffffffffffffff1681526020019081526020016000206040518060a00160405290816000820160009054906101000a90046dffffffffffffffffffffffffffff166dffffffffffffffffffffffffffff166dffffffffffffffffffffffffffff16815260200160008201600e9054906101000a900460ff1615151515815260200160008201600f9054906101000a90046dffffffffffffffffffffffffffff166dffffffffffffffffffffffffffff166dffffffffffffffffffffffffffff1681526020016001820160009054906101000a900463ffffffff1663ffffffff1663ffffffff1681526020016001820160049054906101000a900467ffffffffffffffff1667ffffffffffffffff1667ffffffffffffffff16815250509050919050565b60008060008373ffffffffffffffffffffffffffffffffffffffff1673ffffffffffffffffffffffffffffffffffffffff16815260200190815260200160002060000160009054906101000a90046dffffffffffffffffffffffffffff166dffffffffffffffffffffffffffff169050919050565b600181565b7f000000000000000000000000000000000000000000000000000000000000000073ffffffffffffffffffffffffffffffffffffffff1663570e1a3683836040518363ffffffff1660e01b815260040161142c929190614a69565b6020604051808303816000875af115801561144b573d6000803e3d6000fd5b505050506040513d601f19601f8201168201806040525081019061146f9190614aa2565b6040517f6ca7b8060000000000000000000000000000000000000000000000000000000081526004016114a29190614a4e565b60405180910390fd5b60006114b682612639565b30466040516020016114ca93929190614acf565b604051602081830303815290604052805190602001209050919050565b60008060003373ffffffffffffffffffffffffffffffffffffffff1673ffffffffffffffffffffffffffffffffffffffff168152602001908152602001600020905060008160010160009054906101000a900463ffffffff1663ffffffff161415611587576040517f08c379a000000000000000000000000000000000000000000000000000000000815260040161157e90614b52565b60405180910390fd5b80600001600e9054906101000a900460ff166115d8576040517f08c379a00000000000000000000000000000000000000000000000000000000081526004016115cf90614bbe565b60405180910390fd5b60008160010160009054906101000a900463ffffffff1663ffffffff16426116009190614bde565b9050808260010160046101000a81548167ffffffffffffffff021916908367ffffffffffffffff160217905550600082600001600e6101000a81548160ff0219169083151502179055503373ffffffffffffffffffffffffffffffffffffffff167ffa9b3c14cc825c412c9ed81b3ba365a5b459439403f18829e572ed53a4180f0a826040516116909190614c4d565b60405180910390a25050565b6116a4613430565b6000806116b5600085856001612131565b509150915060018214156116c857600091505b60018114156116d657600090505b6116e360008484846122e8565b6116eb612652565b60006116f960008686612431565b905083608001518184846040517fa30fd31e0000000000000000000000000000000000000000000000000000000081526004016117399493929190614c68565b60405180910390fd5b60008060003373ffffffffffffffffffffffffffffffffffffffff1673ffffffffffffffffffffffffffffffffffffffff1681526020019081526020016000209050600081600001600f9054906101000a90046dffffffffffffffffffffffffffff166dffffffffffffffffffffffffffff169050600081116117fa576040517f08c379a00000000000000000000000000000000000000000000000000000000081526004016117f190614cf9565b60405180910390fd5b60008260010160049054906101000a900467ffffffffffffffff1667ffffffffffffffff161161185f576040517f08c379a000000000000000000000000000000000000000000000000000000000815260040161185690614d65565b60405180910390fd5b428260010160049054906101000a900467ffffffffffffffff1667ffffffffffffffff1611156118c4576040517f08c379a00000000000000000000000000000000000000000000000000000000081526004016118bb90614dd1565b60405180910390fd5b60008260010160006101000a81548163ffffffff021916908363ffffffff16021790555060008260010160046101000a81548167ffffffffffffffff021916908367ffffffffffffffff160217905550600082600001600f6101000a8154816dffffffffffffffffffffffffffff02191690836dffffffffffffffffffffffffffff1602179055503373ffffffffffffffffffffffffffffffffffffffff167fb7c918e0e249f999e965cafeb6c664271b3f4317d296461500e71da39f0cbda3848360405161199492919061442c565b60405180910390a260008373ffffffffffffffffffffffffffffffffffffffff16826040516119c29061447b565b60006040518083038185875af1925050503d80600081146119ff576040519150601f19603f3d011682016040523d82523d6000602084013e611a04565b606091505b5050905080611a48576040517f08c379a0000000000000000000000000000000000000000000000000000000008152600401611a3f90614e3d565b60405180910390fd5b50505050565b611a56613430565b6000806000611a69600086866001612131565b9250925092506000611a82856000015160a00151612658565b90506000611a97866000015160000151612658565b9050366000888060400190611aac919061463b565b9150915060006014838390501015611ac5576000611ae8565b8282600090601492611ad993929190614e67565b90611ae49190614ee6565b60601c5b90506000611af582612658565b905060006040518060a001604052808c6080015181526020018c6040015181526020018b81526020018a8152602001611b318d60600151612704565b8152509050600073ffffffffffffffffffffffffffffffffffffffff168873ffffffffffffffffffffffffffffffffffffffff1614611be657600060405180604001604052808a73ffffffffffffffffffffffffffffffffffffffff168152602001611b9c8b612658565b81525090508187848a846040517fca2d82d8000000000000000000000000000000000000000000000000000000008152600401611bdd959493929190615081565b60405180910390fd5b808683896040517f3dd956e9000000000000000000000000000000000000000000000000000000008152600401611c2094939291906150dc565b60405180910390fd5b60006020528060005260406000206000915090508060000160009054906101000a90046dffffffffffffffffffffffffffff169080600001600e9054906101000a900460ff169080600001600f9054906101000a90046dffffffffffffffffffffffffffff16908060010160009054906101000a900463ffffffff16908060010160049054906101000a900467ffffffffffffffff16905085565b60008060008473ffffffffffffffffffffffffffffffffffffffff1673ffffffffffffffffffffffffffffffffffffffff16815260200190815260200160002090506000828260000160009054906101000a90046dffffffffffffffffffffffffffff166dffffffffffffffffffffffffffff16611d429190613fcc565b90506dffffffffffffffffffffffffffff8016811115611d97576040517f08c379a0000000000000000000000000000000000000000000000000000000008152600401611d8e90615174565b60405180910390fd5b808260000160006101000a8154816dffffffffffffffffffffffffffff02191690836dffffffffffffffffffffffffffff16021790555050505050565b6000805a9050600080866000015190506000611def8261270e565b905060008260a001519050600073ffffffffffffffffffffffffffffffffffffffff168173ffffffffffffffffffffffffffffffffffffffff161415611e3b578260000151935061200f565b80935060008851111561200e578187029550600280811115611e6057611e5f615194565b5b8a6002811115611e7357611e72615194565b5b14611ef2578073ffffffffffffffffffffffffffffffffffffffff1663a9a2340984606001518c8b8a6040518563ffffffff1660e01b8152600401611eba9392919061520b565b600060405180830381600088803b158015611ed457600080fd5b5087f1158015611ee8573d6000803e3d6000fd5b505050505061200d565b8073ffffffffffffffffffffffffffffffffffffffff1663a9a2340984606001518c8b8a6040518563ffffffff1660e01b8152600401611f349392919061520b565b600060405180830381600088803b158015611f4e57600080fd5b5087f193505050508015611f60575060015b61200c57611f6c615256565b806308c379a01415611fcc5750611f81615278565b80611f8c5750611fce565b8b82826040517efa072b000000000000000000000000000000000000000000000000000000008152600401611fc393929190615352565b60405180910390fd5b505b8a816040517efa072b0000000000000000000000000000000000000000000000000000000081526004016120039291906153dc565b60405180910390fd5b5b5b5b5a85038701965081870295508589604001511015612065578a816040517efa072b00000000000000000000000000000000000000000000000000000000815260040161205c929190615464565b60405180910390fd5b6000868a6040015103905061207a8582611cc4565b600080600281111561208f5761208e615194565b5b8c60028111156120a2576120a1615194565b5b1490508460a0015173ffffffffffffffffffffffffffffffffffffffff16856000015173ffffffffffffffffffffffffffffffffffffffff168c602001517f49628fd1471006c1482da88028e9ce4dbb080b815c9b0344d39e5a8e6ec1419f8860200151858d8f60405161211994939291906154a0565b60405180910390a45050505050505095945050505050565b6000806000805a905060008660000151905061214d8882612749565b612156886114ab565b87602001818152505060008861010001358960e001358360400151846060015185608001511717171790506effffffffffffffffffffffffffffff80168111156121d5576040517f08c379a00000000000000000000000000000000000000000000000000000000081526004016121cc90615531565b60405180910390fd5b6000806121e1846128f1565b90506121f08c8c8c8c85612967565b809a50819850829450505050612204612652565b6060600073ffffffffffffffffffffffffffffffffffffffff168560a0015173ffffffffffffffffffffffffffffffffffffffff16146122545761224b8d8d8d8587612e34565b80995081925050505b60005a87039050808d60a0013510156122a9578d8660a001516040517efa072b0000000000000000000000000000000000000000000000000000000081526004016122a092919061559d565b60405180910390fd5b828c60400181815250506122bc826130d7565b8c60600181815250508c60c001355a8803018c6080018181525050505050505050509450945094915050565b600082141580156122f857504282105b15612384576001821415612345578360006040517efa072b00000000000000000000000000000000000000000000000000000000815260040161233c929190615625565b60405180910390fd5b8360006040517efa072b00000000000000000000000000000000000000000000000000000000815260040161237b9291906156ad565b60405180910390fd5b6000811415801561239457504281105b1561242b576000836000015160a00151905060018214156123ed5784816040517efa072b0000000000000000000000000000000000000000000000000000000081526004016123e4929190615735565b60405180910390fd5b84816040517efa072b0000000000000000000000000000000000000000000000000000000081526004016124229291906157bd565b60405180910390fd5b50505050565b6000805a905060006124468460600151612704565b90503073ffffffffffffffffffffffffffffffffffffffff16631d732756868060600190612474919061463b565b87856040518563ffffffff1660e01b81526004016124959493929190615917565b6020604051808303816000875af19250505080156124d157506040513d601f19601f820116820180604052508101906124ce9190615975565b60015b61250a57600084608001515a846124e891906143a3565b6124f29190613fcc565b9050612502876002878585611dd4565b93505061250f565b809350505b50509392505050565b600073ffffffffffffffffffffffffffffffffffffffff168273ffffffffffffffffffffffffffffffffffffffff161415612588576040517f08c379a000000000000000000000000000000000000000000000000000000000815260040161257f906159ee565b60405180910390fd5b60008273ffffffffffffffffffffffffffffffffffffffff16826040516125ae9061447b565b60006040518083038185875af1925050503d80600081146125eb576040519150601f19603f3d011682016040523d82523d6000602084013e6125f0565b606091505b5050905080612634576040517f08c379a000000000000000000000000000000000000000000000000000000000815260040161262b90615a5a565b60405180910390fd5b505050565b6000612644826130e1565b805190602001209050919050565b43600052565b6126606134c9565b60008060008473ffffffffffffffffffffffffffffffffffffffff1673ffffffffffffffffffffffffffffffffffffffff168152602001908152602001600020905080600001600f9054906101000a90046dffffffffffffffffffffffffffff166dffffffffffffffffffffffffffff168260000181815250508060010160009054906101000a900463ffffffff1663ffffffff1682602001818152505050919050565b6060819050919050565b6000808260c00151905060008360e00151905080821415612733578192505050612744565b61273f82488301613123565b925050505b919050565b81600001602081019061275c9190613b97565b816000019073ffffffffffffffffffffffffffffffffffffffff16908173ffffffffffffffffffffffffffffffffffffffff1681525050816020013581602001818152505081608001358160400181815250508160a001358160600181815250508160c001358160800181815250508160e001358160c00181815250508161010001358160e0018181525050366000838061012001906127fc919061463b565b9150915060008282905011156128b1576014828290501015612853576040517f08c379a000000000000000000000000000000000000000000000000000000000815260040161284a90615ac6565b60405180910390fd5b818160009060149261286793929190614e67565b906128729190614ee6565b60601c8360a0019073ffffffffffffffffffffffffffffffffffffffff16908173ffffffffffffffffffffffffffffffffffffffff16815250506128eb565b60008360a0019073ffffffffffffffffffffffffffffffffffffffff16908173ffffffffffffffffffffffffffffffffffffffff16815250505b50505050565b600080600073ffffffffffffffffffffffffffffffffffffffff168360a0015173ffffffffffffffffffffffffffffffffffffffff161415612934576001612937565b60035b60ff169050600083608001518285606001510285604001510101905061295c8461270e565b810292505050919050565b6000806000805a905060008760000151905060008160000151905061299c8b8a8c8060400190612997919061463b565b61313c565b600173ffffffffffffffffffffffffffffffffffffffff168873ffffffffffffffffffffffffffffffffffffffff161415612b59576129d9612652565b60008173ffffffffffffffffffffffffffffffffffffffff163b1415612a38576000806040517efa072b000000000000000000000000000000000000000000000000000000008152600401612a2f929190615b6d565b60405180910390fd5b600073ffffffffffffffffffffffffffffffffffffffff168260a0015173ffffffffffffffffffffffffffffffffffffffff1614158015612a94575060008260a0015173ffffffffffffffffffffffffffffffffffffffff163b145b15612ad8576000806040517efa072b000000000000000000000000000000000000000000000000000000008152600401612acf929190615bf5565b60405180910390fd5b8073ffffffffffffffffffffffffffffffffffffffff16633ad59dbc6040518163ffffffff1660e01b8152600401602060405180830381865afa925050508015612b4057506040513d601f19601f82011682018060405250810190612b3d9190614aa2565b60015b612b505760009450849750612b58565b809550859850505b5b6000808360a001519050600073ffffffffffffffffffffffffffffffffffffffff168173ffffffffffffffffffffffffffffffffffffffff161415612bbb576000612ba384611357565b9050898111612bb457808a03612bb7565b60005b9250505b8273ffffffffffffffffffffffffffffffffffffffff16630825d1fc85606001518e8e602001518e876040518663ffffffff1660e01b8152600401612c039493929190615d95565b60206040518083038160008887f193505050508015612c4057506040513d601f19601f82011682018060405250810190612c3d9190615975565b60015b612cee57612c4c615256565b806308c379a01415612cad5750612c61615278565b80612c6c5750612caf565b8d6000826040517efa072b000000000000000000000000000000000000000000000000000000008152600401612ca493929190615352565b60405180910390fd5b505b8c60006040517efa072b000000000000000000000000000000000000000000000000000000008152600401612ce5929190615e2d565b60405180910390fd5b80965050600073ffffffffffffffffffffffffffffffffffffffff168173ffffffffffffffffffffffffffffffffffffffff161415612e1f5760008060008573ffffffffffffffffffffffffffffffffffffffff1673ffffffffffffffffffffffffffffffffffffffff168152602001908152602001600020905060008160000160009054906101000a90046dffffffffffffffffffffffffffff166dffffffffffffffffffffffffffff169050808b1115612de3578e60006040517efa072b000000000000000000000000000000000000000000000000000000008152600401612dda929190615eb5565b60405180910390fd5b8a81038260000160006101000a8154816dffffffffffffffffffffffffffff02191690836dffffffffffffffffffffffffffff16021790555050505b5a850397505050505050955095509592505050565b606060008085600001519050600081606001519050848111612e8b576040517f08c379a0000000000000000000000000000000000000000000000000000000008152600401612e8290615f3d565b60405180910390fd5b6000858203905060008360a00151905060008060008373ffffffffffffffffffffffffffffffffffffffff1673ffffffffffffffffffffffffffffffffffffffff168152602001908152602001600020905060008160000160009054906101000a90046dffffffffffffffffffffffffffff166dffffffffffffffffffffffffffff16905089811015612f56578c836040517efa072b000000000000000000000000000000000000000000000000000000008152600401612f4d929190615fa9565b60405180910390fd5b8981038260000160006101000a8154816dffffffffffffffffffffffffffff02191690836dffffffffffffffffffffffffffff1602179055508273ffffffffffffffffffffffffffffffffffffffff1663f465c77e858e8e602001518e6040518563ffffffff1660e01b8152600401612fd193929190615fe5565b60006040518083038160008887f19350505050801561301357506040513d6000823e3d601f19601f8201168201806040525081019061301091906160c9565b60015b6130bf5761301f615256565b806308c379a0141561307f5750613034615278565b8061303f5750613081565b8d84826040517efa072b00000000000000000000000000000000000000000000000000000000815260040161307693929190615352565b60405180910390fd5b505b8c836040517efa072b0000000000000000000000000000000000000000000000000000000081526004016130b6929190616171565b60405180910390fd5b81995080985050505050505050509550959350505050565b6000819050919050565b6060366000838061014001906130f7919061463b565b915091508360208184030360405194506020810185016040528085528082602087013750505050919050565b60008183106131325781613134565b825b905092915050565b6000828290501461342a576000836000015160000151905060008173ffffffffffffffffffffffffffffffffffffffff163b146131b2578460006040517efa072b0000000000000000000000000000000000000000000000000000000081526004016131a99291906161f9565b60405180910390fd5b60007f000000000000000000000000000000000000000000000000000000000000000073ffffffffffffffffffffffffffffffffffffffff1663570e1a3686600001516060015186866040518463ffffffff1660e01b8152600401613218929190614a69565b60206040518083038160008887f1158015613237573d6000803e3d6000fd5b50505050506040513d601f19601f8201168201806040525081019061325c9190614aa2565b9050600073ffffffffffffffffffffffffffffffffffffffff168173ffffffffffffffffffffffffffffffffffffffff1614156132d2578560006040517efa072b0000000000000000000000000000000000000000000000000000000081526004016132c9929190616281565b60405180910390fd5b8173ffffffffffffffffffffffffffffffffffffffff168173ffffffffffffffffffffffffffffffffffffffff1614613344578560006040517efa072b00000000000000000000000000000000000000000000000000000000815260040161333b929190616309565b60405180910390fd5b60008173ffffffffffffffffffffffffffffffffffffffff163b14156133a3578560006040517efa072b00000000000000000000000000000000000000000000000000000000815260040161339a929190616391565b60405180910390fd5b600084846000906014926133b993929190614e67565b906133c49190614ee6565b60601c90508273ffffffffffffffffffffffffffffffffffffffff1686602001517fd51a9c61267aa6196961883ecf5ff2da6619c37dac0fa92122513fb32c032d2d83896000015160a0015160405161341e9291906163cd565b60405180910390a35050505b50505050565b6040518060a001604052806134436134e3565b8152602001600080191681526020016000815260200160008152602001600081525090565b6040518060a0016040528060006dffffffffffffffffffffffffffff16815260200160001515815260200160006dffffffffffffffffffffffffffff168152602001600063ffffffff168152602001600067ffffffffffffffff1681525090565b604051806040016040528060008152602001600081525090565b604051806101000160405280600073ffffffffffffffffffffffffffffffffffffffff16815260200160008152602001600081526020016000815260200160008152602001600073ffffffffffffffffffffffffffffffffffffffff16815260200160008152602001600081525090565b6000604051905090565b600080fd5b600080fd5b600063ffffffff82169050919050565b61358181613568565b811461358c57600080fd5b50565b60008135905061359e81613578565b92915050565b6000602082840312156135ba576135b961355e565b5b60006135c88482850161358f565b91505092915050565b600080fd5b600080fd5b600080fd5b60008083601f8401126135f6576135f56135d1565b5b8235905067ffffffffffffffff811115613613576136126135d6565b5b60208301915083600182028301111561362f5761362e6135db565b5b9250929050565b600080fd5b6000601f19601f8301169050919050565b7f4e487b7100000000000000000000000000000000000000000000000000000000600052604160045260246000fd5b6136848261363b565b810181811067ffffffffffffffff821117156136a3576136a261364c565b5b80604052505050565b60006136b6613554565b90506136c2828261367b565b919050565b600073ffffffffffffffffffffffffffffffffffffffff82169050919050565b60006136f2826136c7565b9050919050565b613702816136e7565b811461370d57600080fd5b50565b60008135905061371f816136f9565b92915050565b6000819050919050565b61373881613725565b811461374357600080fd5b50565b6000813590506137558161372f565b92915050565b6000610100828403121561377257613771613636565b5b61377d6101006136ac565b9050600061378d84828501613710565b60008301525060206137a184828501613746565b60208301525060406137b584828501613746565b60408301525060606137c984828501613746565b60608301525060806137dd84828501613746565b60808301525060a06137f184828501613710565b60a08301525060c061380584828501613746565b60c08301525060e061381984828501613746565b60e08301525092915050565b6000819050919050565b61383881613825565b811461384357600080fd5b50565b6000813590506138558161382f565b92915050565b6000610180828403121561387257613871613636565b5b61387c60a06136ac565b9050600061388c8482850161375b565b6000830152506101006138a184828501613846565b6020830152506101206138b684828501613746565b6040830152506101406138cb84828501613746565b6060830152506101606138e084828501613746565b60808301525092915050565b60008060008060006101c086880312156139095761390861355e565b5b600086013567ffffffffffffffff81111561392757613926613563565b5b613933888289016135e0565b955095505060206139468882890161385b565b9350506101a086013567ffffffffffffffff81111561396857613967613563565b5b613974888289016135e0565b92509250509295509295909350565b61398c81613725565b82525050565b60006020820190506139a76000830184613983565b92915050565b60008083601f8401126139c3576139c26135d1565b5b8235905067ffffffffffffffff8111156139e0576139df6135d6565b5b6020830191508360208202830111156139fc576139fb6135db565b5b9250929050565b6000613a0e826136c7565b9050919050565b613a1e81613a03565b8114613a2957600080fd5b50565b600081359050613a3b81613a15565b92915050565b600080600060408486031215613a5a57613a5961355e565b5b600084013567ffffffffffffffff811115613a7857613a77613563565b5b613a84868287016139ad565b93509350506020613a9786828701613a2c565b9150509250925092565b60008060408385031215613ab857613ab761355e565b5b6000613ac685828601613a2c565b9250506020613ad785828601613746565b9150509250929050565b60008083601f840112613af757613af66135d1565b5b8235905067ffffffffffffffff811115613b1457613b136135d6565b5b602083019150836020820283011115613b3057613b2f6135db565b5b9250929050565b600080600060408486031215613b5057613b4f61355e565b5b600084013567ffffffffffffffff811115613b6e57613b6d613563565b5b613b7a86828701613ae1565b93509350506020613b8d86828701613a2c565b9150509250925092565b600060208284031215613bad57613bac61355e565b5b6000613bbb84828501613710565b91505092915050565b60006dffffffffffffffffffffffffffff82169050919050565b613be781613bc4565b82525050565b60008115159050919050565b613c0281613bed565b82525050565b613c1181613568565b82525050565b600067ffffffffffffffff82169050919050565b613c3481613c17565b82525050565b60a082016000820151613c506000850182613bde565b506020820151613c636020850182613bf9565b506040820151613c766040850182613bde565b506060820151613c896060850182613c08565b506080820151613c9c6080850182613c2b565b50505050565b600060a082019050613cb76000830184613c3a565b92915050565b60008060208385031215613cd457613cd361355e565b5b600083013567ffffffffffffffff811115613cf257613cf1613563565b5b613cfe858286016135e0565b92509250509250929050565b600080fd5b60006101608284031215613d2657613d25613d0a565b5b81905092915050565b600060208284031215613d4557613d4461355e565b5b600082013567ffffffffffffffff811115613d6357613d62613563565b5b613d6f84828501613d0f565b91505092915050565b613d8181613825565b82525050565b6000602082019050613d9c6000830184613d78565b92915050565b600060208284031215613db857613db761355e565b5b6000613dc684828501613a2c565b91505092915050565b613dd881613bc4565b82525050565b613de781613bed565b82525050565b613df681613568565b82525050565b613e0581613c17565b82525050565b600060a082019050613e206000830188613dcf565b613e2d6020830187613dde565b613e3a6040830186613dcf565b613e476060830185613ded565b613e546080830184613dfc565b9695505050505050565b6000819050919050565b6000613e83613e7e613e7984613bc4565b613e5e565b613725565b9050919050565b613e9381613e68565b82525050565b6000602082019050613eae6000830184613e8a565b92915050565b600082825260208201905092915050565b7f6d757374207370656369667920756e7374616b652064656c6179000000000000600082015250565b6000613efb601a83613eb4565b9150613f0682613ec5565b602082019050919050565b60006020820190508181036000830152613f2a81613eee565b9050919050565b7f63616e6e6f7420646563726561736520756e7374616b652074696d6500000000600082015250565b6000613f67601c83613eb4565b9150613f7282613f31565b602082019050919050565b60006020820190508181036000830152613f9681613f5a565b9050919050565b7f4e487b7100000000000000000000000000000000000000000000000000000000600052601160045260246000fd5b6000613fd782613725565b9150613fe283613725565b9250827fffffffffffffffffffffffffffffffffffffffffffffffffffffffffffffffff0382111561401757614016613f9d565b5b828201905092915050565b7f6e6f207374616b65207370656369666965640000000000000000000000000000600082015250565b6000614058601283613eb4565b915061406382614022565b602082019050919050565b600060208201905081810360008301526140878161404b565b9050919050565b7f7374616b65206f766572666c6f77000000000000000000000000000000000000600082015250565b60006140c4600e83613eb4565b91506140cf8261408e565b602082019050919050565b600060208201905081810360008301526140f3816140b7565b9050919050565b600061411561411061410b84613568565b613e5e565b613725565b9050919050565b614125816140fa565b82525050565b60006040820190506141406000830185613983565b61414d602083018461411c565b9392505050565b7f4141393220696e7465726e616c2063616c6c206f6e6c79000000000000000000600082015250565b600061418a601783613eb4565b915061419582614154565b602082019050919050565b600060208201905081810360008301526141b98161417d565b9050919050565b600081905092915050565b82818337600083830152505050565b60006141e683856141c0565b93506141f38385846141cb565b82840190509392505050565b600061420c8284866141da565b91508190509392505050565b600081519050919050565b600082825260208201905092915050565b60005b83811015614252578082015181840152602081019050614237565b83811115614261576000848401525b50505050565b600061427282614218565b61427c8185614223565b935061428c818560208601614234565b6142958161363b565b840191505092915050565b60006040820190506142b56000830185613983565b81810360208301526142c78184614267565b90509392505050565b7f4e487b7100000000000000000000000000000000000000000000000000000000600052603260045260246000fd5b600080fd5b600080fd5b600080fd5b6000823560016101600383360303811261432b5761432a6142ff565b5b80830191505092915050565b7f576974686472617720616d6f756e7420746f6f206c6172676500000000000000600082015250565b600061436d601983613eb4565b915061437882614337565b602082019050919050565b6000602082019050818103600083015261439c81614360565b9050919050565b60006143ae82613725565b91506143b983613725565b9250828210156143cc576143cb613f9d565b5b828203905092915050565b60006143f26143ed6143e8846136c7565b613e5e565b6136c7565b9050919050565b6000614404826143d7565b9050919050565b6000614416826143f9565b9050919050565b6144268161440b565b82525050565b6000604082019050614441600083018561441d565b61444e6020830184613983565b9392505050565b50565b60006144656000836141c0565b915061447082614455565b600082019050919050565b600061448682614458565b9150819050919050565b7f6661696c656420746f2077697468647261770000000000000000000000000000600082015250565b60006144c6601283613eb4565b91506144d182614490565b602082019050919050565b600060208201905081810360008301526144f5816144b9565b9050919050565b600082356001606003833603038112614518576145176142ff565b5b80830191505092915050565b60008083356001602003843603038112614541576145406142ff565b5b80840192508235915067ffffffffffffffff82111561456357614562614304565b5b60208301925060208202360383131561457f5761457e614309565b5b509250929050565b600061459282613725565b91507fffffffffffffffffffffffffffffffffffffffffffffffffffffffffffffffff8214156145c5576145c4613f9d565b5b600182019050919050565b60006145db826136e7565b9050919050565b6145eb816145d0565b81146145f657600080fd5b50565b600081359050614608816145e2565b92915050565b6000602082840312156146245761462361355e565b5b6000614632848285016145f9565b91505092915050565b60008083356001602003843603038112614658576146576142ff565b5b80840192508235915067ffffffffffffffff82111561467a57614679614304565b5b60208301925060018202360383131561469657614695614309565b5b509250929050565b600082825260208201905092915050565b6000819050919050565b60006146c86020840184613710565b905092915050565b6146d9816136e7565b82525050565b60006146ee6020840184613746565b905092915050565b6146ff81613725565b82525050565b600080fd5b600080fd5b600080fd5b600080833560016020038436030381126147315761473061470f565b5b83810192508235915060208301925067ffffffffffffffff82111561475957614758614705565b5b60018202360384131561476f5761476e61470a565b5b509250929050565b600082825260208201905092915050565b60006147948385614777565b93506147a18385846141cb565b6147aa8361363b565b840190509392505050565b600061016083016147c960008401846146b9565b6147d660008601826146d0565b506147e460208401846146df565b6147f160208601826146f6565b506147ff6040840184614714565b8583036040870152614812838284614788565b925050506148236060840184614714565b8583036060870152614836838284614788565b9250505061484760808401846146df565b61485460808601826146f6565b5061486260a08401846146df565b61486f60a08601826146f6565b5061487d60c08401846146df565b61488a60c08601826146f6565b5061489860e08401846146df565b6148a560e08601826146f6565b506148b46101008401846146df565b6148c26101008601826146f6565b506148d1610120840184614714565b8583036101208701526148e5838284614788565b925050506148f7610140840184614714565b85830361014087015261490b838284614788565b925050508091505092915050565b600061492583836147b5565b905092915050565b6000823560016101600383360303811261494a5761494961470f565b5b82810191505092915050565b6000602082019050919050565b600061496f838561469e565b935083602084028501614981846146af565b8060005b878110156149c557848403895261499c828461492d565b6149a68582614919565b94506149b183614956565b925060208a01995050600181019050614985565b50829750879450505050509392505050565b60006149e38385614223565b93506149f08385846141cb565b6149f98361363b565b840190509392505050565b60006040820190508181036000830152614a1f818688614963565b90508181036020830152614a348184866149d7565b905095945050505050565b614a48816136e7565b82525050565b6000602082019050614a636000830184614a3f565b92915050565b60006020820190508181036000830152614a848184866149d7565b90509392505050565b600081519050614a9c816136f9565b92915050565b600060208284031215614ab857614ab761355e565b5b6000614ac684828501614a8d565b91505092915050565b6000606082019050614ae46000830186613d78565b614af16020830185614a3f565b614afe6040830184613983565b949350505050565b7f6e6f74207374616b656400000000000000000000000000000000000000000000600082015250565b6000614b3c600a83613eb4565b9150614b4782614b06565b602082019050919050565b60006020820190508181036000830152614b6b81614b2f565b9050919050565b7f616c726561647920756e7374616b696e67000000000000000000000000000000600082015250565b6000614ba8601183613eb4565b9150614bb382614b72565b602082019050919050565b60006020820190508181036000830152614bd781614b9b565b9050919050565b6000614be982613c17565b9150614bf483613c17565b92508267ffffffffffffffff03821115614c1157614c10613f9d565b5b828201905092915050565b6000614c37614c32614c2d84613c17565b613e5e565b613725565b9050919050565b614c4781614c1c565b82525050565b6000602082019050614c626000830184614c3e565b92915050565b6000608082019050614c7d6000830187613983565b614c8a6020830186613983565b614c976040830185613983565b614ca46060830184613983565b95945050505050565b7f4e6f207374616b6520746f207769746864726177000000000000000000000000600082015250565b6000614ce3601483613eb4565b9150614cee82614cad565b602082019050919050565b60006020820190508181036000830152614d1281614cd6565b9050919050565b7f6d7573742063616c6c20756e6c6f636b5374616b652829206669727374000000600082015250565b6000614d4f601d83613eb4565b9150614d5a82614d19565b602082019050919050565b60006020820190508181036000830152614d7e81614d42565b9050919050565b7f5374616b65207769746864726177616c206973206e6f74206475650000000000600082015250565b6000614dbb601b83613eb4565b9150614dc682614d85565b602082019050919050565b60006020820190508181036000830152614dea81614dae565b9050919050565b7f6661696c656420746f207769746864726177207374616b650000000000000000600082015250565b6000614e27601883613eb4565b9150614e3282614df1565b602082019050919050565b60006020820190508181036000830152614e5681614e1a565b9050919050565b600080fd5b600080fd5b60008085851115614e7b57614e7a614e5d565b5b83861115614e8c57614e8b614e62565b5b6001850283019150848603905094509492505050565b600082905092915050565b60007fffffffffffffffffffffffffffffffffffffffff00000000000000000000000082169050919050565b600082821b905092915050565b6000614ef28383614ea2565b82614efd8135614ead565b92506014821015614f3d57614f387fffffffffffffffffffffffffffffffffffffffff00000000000000000000000083601403600802614ed9565b831692505b505092915050565b6000614f5082614218565b614f5a8185614777565b9350614f6a818560208601614234565b614f738161363b565b840191505092915050565b600060a083016000830151614f9660008601826146f6565b506020830151614fa960208601826146f6565b506040830151614fbc60408601826146f6565b506060830151614fcf60608601826146f6565b5060808301518482036080860152614fe78282614f45565b9150508091505092915050565b60408201600082015161500a60008501826146f6565b50602082015161501d60208501826146f6565b50505050565b60408201600082015161503960008501826146f6565b50602082015161504c60208501826146f6565b50505050565b60608201600082015161506860008501826146d0565b50602082015161507b6020850182615023565b50505050565b600061014082019050818103600083015261509c8188614f7e565b90506150ab6020830187614ff4565b6150b86060830186614ff4565b6150c560a0830185614ff4565b6150d260e0830184615052565b9695505050505050565b600060e08201905081810360008301526150f68187614f7e565b90506151056020830186614ff4565b6151126060830185614ff4565b61511f60a0830184614ff4565b95945050505050565b7f6465706f736974206f766572666c6f7700000000000000000000000000000000600082015250565b600061515e601083613eb4565b915061516982615128565b602082019050919050565b6000602082019050818103600083015261518d81615151565b9050919050565b7f4e487b7100000000000000000000000000000000000000000000000000000000600052602160045260246000fd5b600381106151d4576151d3615194565b5b50565b60008190506151e5826151c3565b919050565b60006151f5826151d7565b9050919050565b615205816151ea565b82525050565b600060608201905061522060008301866151fc565b81810360208301526152328185614267565b90506152416040830184613983565b949350505050565b60008160e01c9050919050565b600060033d11156152755760046000803e615272600051615249565b90505b90565b600060443d10156152885761530b565b615290613554565b60043d036004823e80513d602482011167ffffffffffffffff821117156152b857505061530b565b808201805167ffffffffffffffff8111156152d6575050505061530b565b80602083010160043d0385018111156152f357505050505061530b565b6153028260200185018661367b565b82955050505050505b90565b600081519050919050565b60006153248261530e565b61532e8185613eb4565b935061533e818560208601614234565b6153478161363b565b840191505092915050565b60006060820190506153676000830186613983565b6153746020830185614a3f565b81810360408301526153868184615319565b9050949350505050565b7f41353020706f73744f7020726576657274000000000000000000000000000000600082015250565b60006153c6601183613eb4565b91506153d182615390565b602082019050919050565b60006060820190506153f16000830185613983565b6153fe6020830184614a3f565b818103604083015261540f816153b9565b90509392505050565b7f4135312070726566756e642062656c6f772061637475616c476173436f737400600082015250565b600061544e601f83613eb4565b915061545982615418565b602082019050919050565b60006060820190506154796000830185613983565b6154866020830184614a3f565b818103604083015261549781615441565b90509392505050565b60006080820190506154b56000830187613983565b6154c26020830186613dde565b6154cf6040830185613983565b6154dc6060830184613983565b95945050505050565b7f41413934206761732076616c756573206f766572666c6f770000000000000000600082015250565b600061551b601883613eb4565b9150615526826154e5565b602082019050919050565b6000602082019050818103600083015261554a8161550e565b9050919050565b7f41413430206f76657220766572696669636174696f6e4761734c696d69740000600082015250565b6000615587601e83613eb4565b915061559282615551565b602082019050919050565b60006060820190506155b26000830185613983565b6155bf6020830184614a3f565b81810360408301526155d08161557a565b90509392505050565b7f41413234207369676e6174757265206572726f72000000000000000000000000600082015250565b600061560f601483613eb4565b915061561a826155d9565b602082019050919050565b600060608201905061563a6000830185613983565b6156476020830184614a3f565b818103604083015261565881615602565b90509392505050565b7f4141323220657870697265640000000000000000000000000000000000000000600082015250565b6000615697600c83613eb4565b91506156a282615661565b602082019050919050565b60006060820190506156c26000830185613983565b6156cf6020830184614a3f565b81810360408301526156e08161568a565b90509392505050565b7f41413334207369676e6174757265206572726f72000000000000000000000000600082015250565b600061571f601483613eb4565b915061572a826156e9565b602082019050919050565b600060608201905061574a6000830185613983565b6157576020830184614a3f565b818103604083015261576881615712565b90509392505050565b7f41413332207061796d6173746572206578706972656400000000000000000000600082015250565b60006157a7601683613eb4565b91506157b282615771565b602082019050919050565b60006060820190506157d26000830185613983565b6157df6020830184614a3f565b81810360408301526157f08161579a565b90509392505050565b6101008201600082015161581060008501826146d0565b50602082015161582360208501826146f6565b50604082015161583660408501826146f6565b50606082015161584960608501826146f6565b50608082015161585c60808501826146f6565b5060a082015161586f60a08501826146d0565b5060c082015161588260c08501826146f6565b5060e082015161589560e08501826146f6565b50505050565b6158a481613825565b82525050565b610180820160008201516158c160008501826157f9565b5060208201516158d561010085018261589b565b5060408201516158e96101208501826146f6565b5060608201516158fd6101408501826146f6565b5060808201516159116101608501826146f6565b50505050565b60006101c08201905081810360008301526159338186886149d7565b905061594260208301856158aa565b8181036101a08301526159558184614267565b905095945050505050565b60008151905061596f8161372f565b92915050565b60006020828403121561598b5761598a61355e565b5b600061599984828501615960565b91505092915050565b7f4141393020696e76616c69642062656e65666963696172790000000000000000600082015250565b60006159d8601883613eb4565b91506159e3826159a2565b602082019050919050565b60006020820190508181036000830152615a07816159cb565b9050919050565b7f41413931206661696c65642073656e6420746f2062656e656669636961727900600082015250565b6000615a44601f83613eb4565b9150615a4f82615a0e565b602082019050919050565b60006020820190508181036000830152615a7381615a37565b9050919050565b7f4141393320696e76616c6964207061796d6173746572416e6444617461000000600082015250565b6000615ab0601d83613eb4565b9150615abb82615a7a565b602082019050919050565b60006020820190508181036000830152615adf81615aa3565b9050919050565b6000819050919050565b6000615b0b615b06615b0184615ae6565b613e5e565b613725565b9050919050565b615b1b81615af0565b82525050565b7f41413230206163636f756e74206e6f74206465706c6f79656400000000000000600082015250565b6000615b57601983613eb4565b9150615b6282615b21565b602082019050919050565b6000606082019050615b826000830185615b12565b615b8f6020830184614a3f565b8181036040830152615ba081615b4a565b90509392505050565b7f41413330207061796d6173746572206e6f74206465706c6f7965640000000000600082015250565b6000615bdf601b83613eb4565b9150615bea82615ba9565b602082019050919050565b6000606082019050615c0a6000830185615b12565b615c176020830184614a3f565b8181036040830152615c2881615bd2565b90509392505050565b60006101608301615c4560008401846146b9565b615c5260008601826146d0565b50615c6060208401846146df565b615c6d60208601826146f6565b50615c7b6040840184614714565b8583036040870152615c8e838284614788565b92505050615c9f6060840184614714565b8583036060870152615cb2838284614788565b92505050615cc360808401846146df565b615cd060808601826146f6565b50615cde60a08401846146df565b615ceb60a08601826146f6565b50615cf960c08401846146df565b615d0660c08601826146f6565b50615d1460e08401846146df565b615d2160e08601826146f6565b50615d306101008401846146df565b615d3e6101008601826146f6565b50615d4d610120840184614714565b858303610120870152615d61838284614788565b92505050615d73610140840184614714565b858303610140870152615d87838284614788565b925050508091505092915050565b60006080820190508181036000830152615daf8187615c31565b9050615dbe6020830186613d78565b615dcb6040830185614a3f565b615dd86060830184613983565b95945050505050565b7f4141323320726576657274656420286f72204f4f472900000000000000000000600082015250565b6000615e17601683613eb4565b9150615e2282615de1565b602082019050919050565b6000606082019050615e426000830185613983565b615e4f6020830184614a3f565b8181036040830152615e6081615e0a565b90509392505050565b7f41413231206469646e2774207061792070726566756e64000000000000000000600082015250565b6000615e9f601783613eb4565b9150615eaa82615e69565b602082019050919050565b6000606082019050615eca6000830185613983565b615ed76020830184614a3f565b8181036040830152615ee881615e92565b90509392505050565b7f4141343120746f6f206c6974746c6520766572696669636174696f6e47617300600082015250565b6000615f27601f83613eb4565b9150615f3282615ef1565b602082019050919050565b60006020820190508181036000830152615f5681615f1a565b9050919050565b7f41413331207061796d6173746572206465706f73697420746f6f206c6f770000600082015250565b6000615f93601e83613eb4565b9150615f9e82615f5d565b602082019050919050565b6000606082019050615fbe6000830185613983565b615fcb6020830184614a3f565b8181036040830152615fdc81615f86565b90509392505050565b60006060820190508181036000830152615fff8186615c31565b905061600e6020830185613d78565b61601b6040830184613983565b949350505050565b600080fd5b600067ffffffffffffffff8211156160435761604261364c565b5b61604c8261363b565b9050602081019050919050565b600061606c61606784616028565b6136ac565b90508281526020810184848401111561608857616087616023565b5b616093848285614234565b509392505050565b600082601f8301126160b0576160af6135d1565b5b81516160c0848260208601616059565b91505092915050565b600080604083850312156160e0576160df61355e565b5b600083015167ffffffffffffffff8111156160fe576160fd613563565b5b61610a8582860161609b565b925050602061611b85828601615960565b9150509250929050565b7f4141333320726576657274656420286f72204f4f472900000000000000000000600082015250565b600061615b601683613eb4565b915061616682616125565b602082019050919050565b60006060820190506161866000830185613983565b6161936020830184614a3f565b81810360408301526161a48161614e565b90509392505050565b7f414131302073656e64657220616c726561647920636f6e737472756374656400600082015250565b60006161e3601f83613eb4565b91506161ee826161ad565b602082019050919050565b600060608201905061620e6000830185613983565b61621b6020830184614a3f565b818103604083015261622c816161d6565b90509392505050565b7f4141313320696e6974436f6465206661696c6564206f72204f4f470000000000600082015250565b600061626b601b83613eb4565b915061627682616235565b602082019050919050565b60006060820190506162966000830185613983565b6162a36020830184614a3f565b81810360408301526162b48161625e565b90509392505050565b7f4141313420696e6974436f6465206d7573742072657475726e2073656e646572600082015250565b60006162f3602083613eb4565b91506162fe826162bd565b602082019050919050565b600060608201905061631e6000830185613983565b61632b6020830184614a3f565b818103604083015261633c816162e6565b90509392505050565b7f4141313520696e6974436f6465206d757374206372656174652073656e646572600082015250565b600061637b602083613eb4565b915061638682616345565b602082019050919050565b60006060820190506163a66000830185613983565b6163b36020830184614a3f565b81810360408301526163c48161636e565b90509392505050565b60006040820190506163e26000830185614a3f565b6163ef6020830184614a3f565b939250505056fea164736f6c634300080c000a608060405234801561001057600080fd5b50610319806100206000396000f3fe608060405234801561001057600080fd5b506004361061002b5760003560e01c8063570e1a3614610030575b600080fd5b61004a6004803603810190610045919061017b565b610060565b6040516100579190610209565b60405180910390f35b60008083836000906014926100779392919061022e565b9061008291906102ad565b60601c905060008484601490809261009c9392919061022e565b8080601f016020809104026020016040519081016040528093929190818152602001838380828437600081840152601f19601f8201169050808301925050505050505090506000602060008351602085016000875af1905060005193508061010357600093505b50505092915050565b600080fd5b600080fd5b600080fd5b600080fd5b600080fd5b60008083601f84011261013b5761013a610116565b5b8235905067ffffffffffffffff8111156101585761015761011b565b5b60208301915083600182028301111561017457610173610120565b5b9250929050565b600080602083850312156101925761019161010c565b5b600083013567ffffffffffffffff8111156101b0576101af610111565b5b6101bc85828601610125565b92509250509250929050565b600073ffffffffffffffffffffffffffffffffffffffff82169050919050565b60006101f3826101c8565b9050919050565b610203816101e8565b82525050565b600060208201905061021e60008301846101fa565b92915050565b600080fd5b600080fd5b6000808585111561024257610241610224565b5b8386111561025357610252610229565b5b6001850283019150848603905094509492505050565b600082905092915050565b60007fffffffffffffffffffffffffffffffffffffffff00000000000000000000000082169050919050565b600082821b905092915050565b60006102b98383610269565b826102c48135610274565b92506014821015610304576102ff7fffffffffffffffffffffffffffffffffffffffff000000000000000000000000836014036008026102a0565b831692505b50509291505056fea164736f6c634300080c000a",
  "linkReferences": {},
  "deployedLinkReferences": {}
}