{
  "_format": "hh-sol-artifact-1",
  "contractName": "EtherspotAccount",
  "sourceName": "src/4337_wallet/EtherspotAccount.sol",
  "abi": [
    {
      "inputs": [
        {
          "internalType": "contract IEntryPoint",
          "name": "anEntryPoint",
          "type": "address"
        }
      ],
      "stateMutability": "nonpayable",
      "type": "constructor"
    },
    {
      "anonymous": false,
      "inputs": [
        {
          "indexed": false,
          "internalType": "address",
          "name": "previousAdmin",
          "type": "address"
        },
        {
          "indexed": false,
          "internalType": "address",
          "name": "newAdmin",
          "type": "address"
        }
      ],
      "name": "AdminChanged",
      "type": "event"
    },
    {
      "anonymous": false,
      "inputs": [
        {
          "indexed": true,
          "internalType": "address",
          "name": "beacon",
          "type": "address"
        }
      ],
      "name": "BeaconUpgraded",
      "type": "event"
    },
    {
      "anonymous": false,
      "inputs": [
        {
          "indexed": false,
          "internalType": "uint8",
          "name": "version",
          "type": "uint8"
        }
      ],
      "name": "Initialized",
      "type": "event"
    },
    {
      "anonymous": false,
      "inputs": [
        {
          "indexed": true,
          "internalType": "contract IEntryPoint",
          "name": "entryPoint",
          "type": "address"
        },
        {
          "indexed": true,
          "internalType": "address",
          "name": "owner",
          "type": "address"
        }
      ],
      "name": "SimpleAccountInitialized",
      "type": "event"
    },
    {
      "anonymous": false,
      "inputs": [
        {
          "indexed": true,
          "internalType": "address",
          "name": "implementation",
          "type": "address"
        }
      ],
      "name": "Upgraded",
      "type": "event"
    },
    {
      "inputs": [],
      "name": "addDeposit",
      "outputs": [],
      "stateMutability": "payable",
      "type": "function"
    },
    {
      "inputs": [],
      "name": "entryPoint",
      "outputs": [
        {
          "internalType": "contract IEntryPoint",
          "name": "",
          "type": "address"
        }
      ],
      "stateMutability": "view",
      "type": "function"
    },
    {
      "inputs": [
        {
          "internalType": "address",
          "name": "dest",
          "type": "address"
        },
        {
          "internalType": "uint256",
          "name": "value",
          "type": "uint256"
        },
        {
          "internalType": "bytes",
          "name": "func",
          "type": "bytes"
        }
      ],
      "name": "execute",
      "outputs": [],
      "stateMutability": "nonpayable",
      "type": "function"
    },
    {
      "inputs": [
        {
          "internalType": "address[]",
          "name": "dest",
          "type": "address[]"
        },
        {
          "internalType": "bytes[]",
          "name": "func",
          "type": "bytes[]"
        }
      ],
      "name": "executeBatch",
      "outputs": [],
      "stateMutability": "nonpayable",
      "type": "function"
    },
    {
      "inputs": [],
      "name": "getDeposit",
      "outputs": [
        {
          "internalType": "uint256",
          "name": "",
          "type": "uint256"
        }
      ],
      "stateMutability": "view",
      "type": "function"
    },
    {
      "inputs": [
        {
          "internalType": "address",
          "name": "anOwner",
          "type": "address"
        }
      ],
      "name": "initialize",
      "outputs": [],
      "stateMutability": "nonpayable",
      "type": "function"
    },
    {
      "inputs": [],
      "name": "nonce",
      "outputs": [
        {
          "internalType": "uint256",
          "name": "",
          "type": "uint256"
        }
      ],
      "stateMutability": "view",
      "type": "function"
    },
    {
      "inputs": [],
      "name": "owner",
      "outputs": [
        {
          "internalType": "address",
          "name": "",
          "type": "address"
        }
      ],
      "stateMutability": "view",
      "type": "function"
    },
    {
      "inputs": [],
      "name": "proxiableUUID",
      "outputs": [
        {
          "internalType": "bytes32",
          "name": "",
          "type": "bytes32"
        }
      ],
      "stateMutability": "view",
      "type": "function"
    },
    {
      "inputs": [
        {
          "internalType": "address",
          "name": "newImplementation",
          "type": "address"
        }
      ],
      "name": "upgradeTo",
      "outputs": [],
      "stateMutability": "nonpayable",
      "type": "function"
    },
    {
      "inputs": [
        {
          "internalType": "address",
          "name": "newImplementation",
          "type": "address"
        },
        {
          "internalType": "bytes",
          "name": "data",
          "type": "bytes"
        }
      ],
      "name": "upgradeToAndCall",
      "outputs": [],
      "stateMutability": "payable",
      "type": "function"
    },
    {
      "inputs": [
        {
          "components": [
            {
              "internalType": "address",
              "name": "sender",
              "type": "address"
            },
            {
              "internalType": "uint256",
              "name": "nonce",
              "type": "uint256"
            },
            {
              "internalType": "bytes",
              "name": "initCode",
              "type": "bytes"
            },
            {
              "internalType": "bytes",
              "name": "callData",
              "type": "bytes"
            },
            {
              "internalType": "uint256",
              "name": "callGasLimit",
              "type": "uint256"
            },
            {
              "internalType": "uint256",
              "name": "verificationGasLimit",
              "type": "uint256"
            },
            {
              "internalType": "uint256",
              "name": "preVerificationGas",
              "type": "uint256"
            },
            {
              "internalType": "uint256",
              "name": "maxFeePerGas",
              "type": "uint256"
            },
            {
              "internalType": "uint256",
              "name": "maxPriorityFeePerGas",
              "type": "uint256"
            },
            {
              "internalType": "bytes",
              "name": "paymasterAndData",
              "type": "bytes"
            },
            {
              "internalType": "bytes",
              "name": "signature",
              "type": "bytes"
            }
          ],
          "internalType": "struct UserOperation",
          "name": "userOp",
          "type": "tuple"
        },
        {
          "internalType": "bytes32",
          "name": "userOpHash",
          "type": "bytes32"
        },
        {
          "internalType": "address",
          "name": "aggregator",
          "type": "address"
        },
        {
          "internalType": "uint256",
          "name": "missingAccountFunds",
          "type": "uint256"
        }
      ],
      "name": "validateUserOp",
      "outputs": [
        {
          "internalType": "uint256",
          "name": "deadline",
          "type": "uint256"
        }
      ],
      "stateMutability": "nonpayable",
      "type": "function"
    },
    {
      "inputs": [
        {
          "internalType": "address payable",
          "name": "withdrawAddress",
          "type": "address"
        },
        {
          "internalType": "uint256",
          "name": "amount",
          "type": "uint256"
        }
      ],
      "name": "withdrawDepositTo",
      "outputs": [],
      "stateMutability": "nonpayable",
      "type": "function"
    },
    {
      "stateMutability": "payable",
      "type": "receive"
    }
  ],
  "bytecode": "0x60c06040523073ffffffffffffffffffffffffffffffffffffffff1660809073ffffffffffffffffffffffffffffffffffffffff168152503480156200004457600080fd5b50604051620031e0380380620031e083398181016040528101906200006a919062000123565b8073ffffffffffffffffffffffffffffffffffffffff1660a08173ffffffffffffffffffffffffffffffffffffffff16815250505062000155565b600080fd5b600073ffffffffffffffffffffffffffffffffffffffff82169050919050565b6000620000d782620000aa565b9050919050565b6000620000eb82620000ca565b9050919050565b620000fd81620000de565b81146200010957600080fd5b50565b6000815190506200011d81620000f2565b92915050565b6000602082840312156200013c576200013b620000a5565b5b60006200014c848285016200010c565b91505092915050565b60805160a0516130426200019e6000396000818161090f015261130c015260008181610439015281816104c8015281816106c201528181610751015261080101526130426000f3fe6080604052600436106100c65760003560e01c806352d1902d1161007f578063b0d691fe11610059578063b0d691fe14610231578063b61d27f61461025c578063c399ec8814610285578063c4d66de8146102b0576100cd565b806352d1902d146101b05780638da5cb5b146101db578063affed0e014610206576100cd565b80630825d1fc146100d257806318dfb3c71461010f5780633659cfe6146101385780634a58db19146101615780634d44560d1461016b5780634f1ef28614610194576100cd565b366100cd57005b600080fd5b3480156100de57600080fd5b506100f960048036038101906100f49190611b5a565b6102d9565b6040516101069190611bec565b60405180910390f35b34801561011b57600080fd5b5061013660048036038101906101319190611cc2565b610325565b005b34801561014457600080fd5b5061015f600480360381019061015a9190611d43565b610437565b005b6101696105c0565b005b34801561017757600080fd5b50610192600480360381019061018d9190611dae565b610640565b005b6101ae60048036038101906101a99190611f2f565b6106c0565b005b3480156101bc57600080fd5b506101c56107fd565b6040516101d29190611f9a565b60405180910390f35b3480156101e757600080fd5b506101f06108b6565b6040516101fd9190611fc4565b60405180910390f35b34801561021257600080fd5b5061021b6108dc565b6040516102289190611bec565b60405180910390f35b34801561023d57600080fd5b5061024661090b565b604051610253919061203e565b60405180910390f35b34801561026857600080fd5b50610283600480360381019061027e91906120af565b610933565b005b34801561029157600080fd5b5061029a610990565b6040516102a79190611bec565b60405180910390f35b3480156102bc57600080fd5b506102d760048036038101906102d29190611d43565b610a18565b005b60006102e3610aae565b6102ee858585610b25565b905060008580604001906103029190612132565b905014156103145761031385610c6b565b5b61031d82610d19565b949350505050565b61032d610db5565b818190508484905014610375576040517f08c379a000000000000000000000000000000000000000000000000000000000815260040161036c90612218565b60405180910390fd5b60005b848490508110156104305761041d85858381811061039957610398612238565b5b90506020020160208101906103ae9190611d43565b60008585858181106103c3576103c2612238565b5b90506020028101906103d59190612132565b8080601f016020809104026020016040519081016040528093929190818152602001838380828437600081840152601f19601f82011690508083019250505050505050610e84565b808061042890612296565b915050610378565b5050505050565b7f000000000000000000000000000000000000000000000000000000000000000073ffffffffffffffffffffffffffffffffffffffff163073ffffffffffffffffffffffffffffffffffffffff1614156104c6576040517f08c379a00000000000000000000000000000000000000000000000000000000081526004016104bd90612351565b60405180910390fd5b7f000000000000000000000000000000000000000000000000000000000000000073ffffffffffffffffffffffffffffffffffffffff16610505610f08565b73ffffffffffffffffffffffffffffffffffffffff161461055b576040517f08c379a0000000000000000000000000000000000000000000000000000000008152600401610552906123e3565b60405180910390fd5b61056481610f5f565b6105bd81600067ffffffffffffffff81111561058357610582611e04565b5b6040519080825280601f01601f1916602001820160405280156105b55781602001600182028036833780820191505090505b506000610f6a565b50565b60006105ca61090b565b73ffffffffffffffffffffffffffffffffffffffff16346040516105ed90612434565b60006040518083038185875af1925050503d806000811461062a576040519150601f19603f3d011682016040523d82523d6000602084013e61062f565b606091505b505090508061063d57600080fd5b50565b6106486110d8565b61065061090b565b73ffffffffffffffffffffffffffffffffffffffff1663205c287883836040518363ffffffff1660e01b815260040161068a929190612458565b600060405180830381600087803b1580156106a457600080fd5b505af11580156106b8573d6000803e3d6000fd5b505050505050565b7f000000000000000000000000000000000000000000000000000000000000000073ffffffffffffffffffffffffffffffffffffffff163073ffffffffffffffffffffffffffffffffffffffff16141561074f576040517f08c379a000000000000000000000000000000000000000000000000000000000815260040161074690612351565b60405180910390fd5b7f000000000000000000000000000000000000000000000000000000000000000073ffffffffffffffffffffffffffffffffffffffff1661078e610f08565b73ffffffffffffffffffffffffffffffffffffffff16146107e4576040517f08c379a00000000000000000000000000000000000000000000000000000000081526004016107db906123e3565b60405180910390fd5b6107ed82610f5f565b6107f982826001610f6a565b5050565b60007f000000000000000000000000000000000000000000000000000000000000000073ffffffffffffffffffffffffffffffffffffffff163073ffffffffffffffffffffffffffffffffffffffff161461088d576040517f08c379a0000000000000000000000000000000000000000000000000000000008152600401610884906124f3565b60405180910390fd5b7f360894a13ba1a3210667c828492db98dca3e2076cc3735a920a3ca505d382bbc60001b905090565b600160009054906101000a900473ffffffffffffffffffffffffffffffffffffffff1681565b60008060029054906101000a90046bffffffffffffffffffffffff166bffffffffffffffffffffffff16905090565b60007f0000000000000000000000000000000000000000000000000000000000000000905090565b61093b610db5565b61098a848484848080601f016020809104026020016040519081016040528093929190818152602001838380828437600081840152601f19601f82011690508083019250505050505050610e84565b50505050565b600061099a61090b565b73ffffffffffffffffffffffffffffffffffffffff166370a08231306040518263ffffffff1660e01b81526004016109d29190611fc4565b602060405180830381865afa1580156109ef573d6000803e3d6000fd5b505050506040513d601f19601f82011682018060405250810190610a139190612528565b905090565b6000610a2460016111a0565b90508015610a48576001600060016101000a81548160ff0219169083151502179055505b610a5182611290565b8015610aaa5760008060016101000a81548160ff0219169083151502179055507f7f26b83ff96e1f2b6a682f133852f6798a09c465da95921460cefb38474024986001604051610aa1919061259d565b60405180910390a15b5050565b610ab661090b565b73ffffffffffffffffffffffffffffffffffffffff163373ffffffffffffffffffffffffffffffffffffffff1614610b23576040517f08c379a0000000000000000000000000000000000000000000000000000000008152600401610b1a9061262a565b60405180910390fd5b565b600080610b3184611370565b9050610b9985806101400190610b479190612132565b8080601f016020809104026020016040519081016040528093929190818152602001838380828437600081840152601f19601f82011690508083019250505050505050826113a090919063ffffffff16565b73ffffffffffffffffffffffffffffffffffffffff16600160009054906101000a900473ffffffffffffffffffffffffffffffffffffffff1673ffffffffffffffffffffffffffffffffffffffff161480610c205750600073ffffffffffffffffffffffffffffffffffffffff163273ffffffffffffffffffffffffffffffffffffffff16145b610c5f576040517f08c379a0000000000000000000000000000000000000000000000000000000008152600401610c56906126bc565b60405180910390fd5b60009150509392505050565b80602001356000600281819054906101000a90046bffffffffffffffffffffffff1680929190610c9a906126f4565b91906101000a8154816bffffffffffffffffffffffff02191690836bffffffffffffffffffffffff1602179055506bffffffffffffffffffffffff1614610d16576040517f08c379a0000000000000000000000000000000000000000000000000000000008152600401610d0d90612775565b60405180910390fd5b50565b60008114610db25760003373ffffffffffffffffffffffffffffffffffffffff16827fffffffffffffffffffffffffffffffffffffffffffffffffffffffffffffffff90604051610d6990612434565b600060405180830381858888f193505050503d8060008114610da7576040519150601f19603f3d011682016040523d82523d6000602084013e610dac565b606091505b50509050505b50565b610dbd61090b565b73ffffffffffffffffffffffffffffffffffffffff163373ffffffffffffffffffffffffffffffffffffffff161480610e435750600160009054906101000a900473ffffffffffffffffffffffffffffffffffffffff1673ffffffffffffffffffffffffffffffffffffffff163373ffffffffffffffffffffffffffffffffffffffff16145b610e82576040517f08c379a0000000000000000000000000000000000000000000000000000000008152600401610e7990612807565b60405180910390fd5b565b6000808473ffffffffffffffffffffffffffffffffffffffff168484604051610ead9190612896565b60006040518083038185875af1925050503d8060008114610eea576040519150601f19603f3d011682016040523d82523d6000602084013e610eef565b606091505b509150915081610f0157805160208201fd5b5050505050565b6000610f367f360894a13ba1a3210667c828492db98dca3e2076cc3735a920a3ca505d382bbc60001b6113c7565b60000160009054906101000a900473ffffffffffffffffffffffffffffffffffffffff16905090565b610f676110d8565b50565b610f967f4910fdfa16fed3260ed0e7147f7cc6da11a60208b5b9406d12a635614ffd914360001b6113d1565b60000160009054906101000a900460ff1615610fba57610fb5836113db565b6110d3565b8273ffffffffffffffffffffffffffffffffffffffff166352d1902d6040518163ffffffff1660e01b8152600401602060405180830381865afa92505050801561102257506040513d601f19601f8201168201806040525081019061101f91906128c2565b60015b611061576040517f08c379a000000000000000000000000000000000000000000000000000000000815260040161105890612961565b60405180910390fd5b7f360894a13ba1a3210667c828492db98dca3e2076cc3735a920a3ca505d382bbc60001b81146110c6576040517f08c379a00000000000000000000000000000000000000000000000000000000081526004016110bd906129f3565b60405180910390fd5b506110d2838383611494565b5b505050565b600160009054906101000a900473ffffffffffffffffffffffffffffffffffffffff1673ffffffffffffffffffffffffffffffffffffffff163373ffffffffffffffffffffffffffffffffffffffff16148061115f57503073ffffffffffffffffffffffffffffffffffffffff163373ffffffffffffffffffffffffffffffffffffffff16145b61119e576040517f08c379a000000000000000000000000000000000000000000000000000000000815260040161119590612a5f565b60405180910390fd5b565b60008060019054906101000a900460ff16156112175760018260ff161480156111cf57506111cd306114c0565b155b61120e576040517f08c379a000000000000000000000000000000000000000000000000000000000815260040161120590612af1565b60405180910390fd5b6000905061128b565b8160ff1660008054906101000a900460ff1660ff161061126c576040517f08c379a000000000000000000000000000000000000000000000000000000000815260040161126390612af1565b60405180910390fd5b816000806101000a81548160ff021916908360ff160217905550600190505b919050565b80600160006101000a81548173ffffffffffffffffffffffffffffffffffffffff021916908373ffffffffffffffffffffffffffffffffffffffff160217905550600160009054906101000a900473ffffffffffffffffffffffffffffffffffffffff1673ffffffffffffffffffffffffffffffffffffffff167f000000000000000000000000000000000000000000000000000000000000000073ffffffffffffffffffffffffffffffffffffffff167f47e55c76e7a6f1fd8996a1da8008c1ea29699cca35e7bcd057f2dec313b6e5de60405160405180910390a350565b6000816040516020016113839190612b89565b604051602081830303815290604052805190602001209050919050565b60008060006113af85856114e3565b915091506113bc81611566565b819250505092915050565b6000819050919050565b6000819050919050565b6113e4816114c0565b611423576040517f08c379a000000000000000000000000000000000000000000000000000000000815260040161141a90612c21565b60405180910390fd5b806114507f360894a13ba1a3210667c828492db98dca3e2076cc3735a920a3ca505d382bbc60001b6113c7565b60000160006101000a81548173ffffffffffffffffffffffffffffffffffffffff021916908373ffffffffffffffffffffffffffffffffffffffff16021790555050565b61149d8361173b565b6000825111806114aa5750805b156114bb576114b9838361178a565b505b505050565b6000808273ffffffffffffffffffffffffffffffffffffffff163b119050919050565b6000806041835114156115255760008060006020860151925060408601519150606086015160001a9050611519878285856117b7565b9450945050505061155f565b60408351141561155657600080602085015191506040850151905061154b8683836118c4565b93509350505061155f565b60006002915091505b9250929050565b6000600481111561157a57611579612c41565b5b81600481111561158d5761158c612c41565b5b141561159857611738565b600160048111156115ac576115ab612c41565b5b8160048111156115bf576115be612c41565b5b1415611600576040517f08c379a00000000000000000000000000000000000000000000000000000000081526004016115f790612cbc565b60405180910390fd5b6002600481111561161457611613612c41565b5b81600481111561162757611626612c41565b5b1415611668576040517f08c379a000000000000000000000000000000000000000000000000000000000815260040161165f90612d28565b60405180910390fd5b6003600481111561167c5761167b612c41565b5b81600481111561168f5761168e612c41565b5b14156116d0576040517f08c379a00000000000000000000000000000000000000000000000000000000081526004016116c790612dba565b60405180910390fd5b6004808111156116e3576116e2612c41565b5b8160048111156116f6576116f5612c41565b5b1415611737576040517f08c379a000000000000000000000000000000000000000000000000000000000815260040161172e90612e4c565b60405180910390fd5b5b50565b611744816113db565b8073ffffffffffffffffffffffffffffffffffffffff167fbc7cd75a20ee27fd9adebab32041f755214dbc6bffa90cc0225b39da2e5c2d3b60405160405180910390a250565b60606117af838360405180606001604052806027815260200161300f60279139611923565b905092915050565b6000807f7fffffffffffffffffffffffffffffff5d576e7357a4501ddfe92f46681b20a08360001c11156117f25760006003915091506118bb565b601b8560ff161415801561180a5750601c8560ff1614155b1561181c5760006004915091506118bb565b6000600187878787604051600081526020016040526040516118419493929190612e7b565b6020604051602081039080840390855afa158015611863573d6000803e3d6000fd5b505050602060405103519050600073ffffffffffffffffffffffffffffffffffffffff168173ffffffffffffffffffffffffffffffffffffffff1614156118b2576000600192509250506118bb565b80600092509250505b94509492505050565b60008060007f7fffffffffffffffffffffffffffffffffffffffffffffffffffffffffffffff60001b841690506000601b60ff8660001c901c6119079190612ec0565b9050611915878288856117b7565b935093505050935093915050565b606061192e846114c0565b61196d576040517f08c379a000000000000000000000000000000000000000000000000000000000815260040161196490612f88565b60405180910390fd5b6000808573ffffffffffffffffffffffffffffffffffffffff16856040516119959190612896565b600060405180830381855af49150503d80600081146119d0576040519150601f19603f3d011682016040523d82523d6000602084013e6119d5565b606091505b50915091506119e58282866119f0565b925050509392505050565b60608315611a0057829050611a50565b600083511115611a135782518084602001fd5b816040517f08c379a0000000000000000000000000000000000000000000000000000000008152600401611a479190612fec565b60405180910390fd5b9392505050565b6000604051905090565b600080fd5b600080fd5b600080fd5b60006101608284031215611a8757611a86611a6b565b5b81905092915050565b6000819050919050565b611aa381611a90565b8114611aae57600080fd5b50565b600081359050611ac081611a9a565b92915050565b600073ffffffffffffffffffffffffffffffffffffffff82169050919050565b6000611af182611ac6565b9050919050565b611b0181611ae6565b8114611b0c57600080fd5b50565b600081359050611b1e81611af8565b92915050565b6000819050919050565b611b3781611b24565b8114611b4257600080fd5b50565b600081359050611b5481611b2e565b92915050565b60008060008060808587031215611b7457611b73611a61565b5b600085013567ffffffffffffffff811115611b9257611b91611a66565b5b611b9e87828801611a70565b9450506020611baf87828801611ab1565b9350506040611bc087828801611b0f565b9250506060611bd187828801611b45565b91505092959194509250565b611be681611b24565b82525050565b6000602082019050611c016000830184611bdd565b92915050565b600080fd5b600080fd5b600080fd5b60008083601f840112611c2c57611c2b611c07565b5b8235905067ffffffffffffffff811115611c4957611c48611c0c565b5b602083019150836020820283011115611c6557611c64611c11565b5b9250929050565b60008083601f840112611c8257611c81611c07565b5b8235905067ffffffffffffffff811115611c9f57611c9e611c0c565b5b602083019150836020820283011115611cbb57611cba611c11565b5b9250929050565b60008060008060408587031215611cdc57611cdb611a61565b5b600085013567ffffffffffffffff811115611cfa57611cf9611a66565b5b611d0687828801611c16565b9450945050602085013567ffffffffffffffff811115611d2957611d28611a66565b5b611d3587828801611c6c565b925092505092959194509250565b600060208284031215611d5957611d58611a61565b5b6000611d6784828501611b0f565b91505092915050565b6000611d7b82611ac6565b9050919050565b611d8b81611d70565b8114611d9657600080fd5b50565b600081359050611da881611d82565b92915050565b60008060408385031215611dc557611dc4611a61565b5b6000611dd385828601611d99565b9250506020611de485828601611b45565b9150509250929050565b600080fd5b6000601f19601f8301169050919050565b7f4e487b7100000000000000000000000000000000000000000000000000000000600052604160045260246000fd5b611e3c82611df3565b810181811067ffffffffffffffff82111715611e5b57611e5a611e04565b5b80604052505050565b6000611e6e611a57565b9050611e7a8282611e33565b919050565b600067ffffffffffffffff821115611e9a57611e99611e04565b5b611ea382611df3565b9050602081019050919050565b82818337600083830152505050565b6000611ed2611ecd84611e7f565b611e64565b905082815260208101848484011115611eee57611eed611dee565b5b611ef9848285611eb0565b509392505050565b600082601f830112611f1657611f15611c07565b5b8135611f26848260208601611ebf565b91505092915050565b60008060408385031215611f4657611f45611a61565b5b6000611f5485828601611b0f565b925050602083013567ffffffffffffffff811115611f7557611f74611a66565b5b611f8185828601611f01565b9150509250929050565b611f9481611a90565b82525050565b6000602082019050611faf6000830184611f8b565b92915050565b611fbe81611ae6565b82525050565b6000602082019050611fd96000830184611fb5565b92915050565b6000819050919050565b6000612004611fff611ffa84611ac6565b611fdf565b611ac6565b9050919050565b600061201682611fe9565b9050919050565b60006120288261200b565b9050919050565b6120388161201d565b82525050565b6000602082019050612053600083018461202f565b92915050565b60008083601f84011261206f5761206e611c07565b5b8235905067ffffffffffffffff81111561208c5761208b611c0c565b5b6020830191508360018202830111156120a8576120a7611c11565b5b9250929050565b600080600080606085870312156120c9576120c8611a61565b5b60006120d787828801611b0f565b94505060206120e887828801611b45565b935050604085013567ffffffffffffffff81111561210957612108611a66565b5b61211587828801612059565b925092505092959194509250565b600080fd5b600080fd5b600080fd5b6000808335600160200384360303811261214f5761214e612123565b5b80840192508235915067ffffffffffffffff82111561217157612170612128565b5b60208301925060018202360383131561218d5761218c61212d565b5b509250929050565b600082825260208201905092915050565b7f457468657273706f744163636f756e743a3a206578656375746542617463682060008201527f2d2077726f6e67206172726179206c656e677468730000000000000000000000602082015250565b6000612202603583612195565b915061220d826121a6565b604082019050919050565b60006020820190508181036000830152612231816121f5565b9050919050565b7f4e487b7100000000000000000000000000000000000000000000000000000000600052603260045260246000fd5b7f4e487b7100000000000000000000000000000000000000000000000000000000600052601160045260246000fd5b60006122a182611b24565b91507fffffffffffffffffffffffffffffffffffffffffffffffffffffffffffffffff8214156122d4576122d3612267565b5b600182019050919050565b7f46756e6374696f6e206d7573742062652063616c6c6564207468726f7567682060008201527f64656c656761746563616c6c0000000000000000000000000000000000000000602082015250565b600061233b602c83612195565b9150612346826122df565b604082019050919050565b6000602082019050818103600083015261236a8161232e565b9050919050565b7f46756e6374696f6e206d7573742062652063616c6c6564207468726f7567682060008201527f6163746976652070726f78790000000000000000000000000000000000000000602082015250565b60006123cd602c83612195565b91506123d882612371565b604082019050919050565b600060208201905081810360008301526123fc816123c0565b9050919050565b600081905092915050565b50565b600061241e600083612403565b91506124298261240e565b600082019050919050565b600061243f82612411565b9150819050919050565b61245281611d70565b82525050565b600060408201905061246d6000830185612449565b61247a6020830184611bdd565b9392505050565b7f555550535570677261646561626c653a206d757374206e6f742062652063616c60008201527f6c6564207468726f7567682064656c656761746563616c6c0000000000000000602082015250565b60006124dd603883612195565b91506124e882612481565b604082019050919050565b6000602082019050818103600083015261250c816124d0565b9050919050565b60008151905061252281611b2e565b92915050565b60006020828403121561253e5761253d611a61565b5b600061254c84828501612513565b91505092915050565b6000819050919050565b600060ff82169050919050565b600061258761258261257d84612555565b611fdf565b61255f565b9050919050565b6125978161256c565b82525050565b60006020820190506125b2600083018461258e565b92915050565b7f457468657273706f744163636f756e743a204e6f742066726f6d20456e74727960008201527f506f696e74000000000000000000000000000000000000000000000000000000602082015250565b6000612614602583612195565b915061261f826125b8565b604082019050919050565b6000602082019050818103600083015261264381612607565b9050919050565b7f457468657273706f744163636f756e743a3a2057726f6e67207369676e61747560008201527f7265000000000000000000000000000000000000000000000000000000000000602082015250565b60006126a6602283612195565b91506126b18261264a565b604082019050919050565b600060208201905081810360008301526126d581612699565b9050919050565b60006bffffffffffffffffffffffff82169050919050565b60006126ff826126dc565b91506bffffffffffffffffffffffff82141561271e5761271d612267565b5b600182019050919050565b7f457468657273706f744163636f756e743a3a20496e76616c6964206e6f6e6365600082015250565b600061275f602083612195565b915061276a82612729565b602082019050919050565b6000602082019050818103600083015261278e81612752565b9050919050565b7f457468657273706f744163636f756e743a3a204e6f74204f776e6572206f722060008201527f456e747279506f696e7400000000000000000000000000000000000000000000602082015250565b60006127f1602a83612195565b91506127fc82612795565b604082019050919050565b60006020820190508181036000830152612820816127e4565b9050919050565b600081519050919050565b60005b83811015612850578082015181840152602081019050612835565b8381111561285f576000848401525b50505050565b600061287082612827565b61287a8185612403565b935061288a818560208601612832565b80840191505092915050565b60006128a28284612865565b915081905092915050565b6000815190506128bc81611a9a565b92915050565b6000602082840312156128d8576128d7611a61565b5b60006128e6848285016128ad565b91505092915050565b7f45524331393637557067726164653a206e657720696d706c656d656e7461746960008201527f6f6e206973206e6f742055555053000000000000000000000000000000000000602082015250565b600061294b602e83612195565b9150612956826128ef565b604082019050919050565b6000602082019050818103600083015261297a8161293e565b9050919050565b7f45524331393637557067726164653a20756e737570706f727465642070726f7860008201527f6961626c65555549440000000000000000000000000000000000000000000000602082015250565b60006129dd602983612195565b91506129e882612981565b604082019050919050565b60006020820190508181036000830152612a0c816129d0565b9050919050565b7f457468657273706f744163636f756e743a3a204f6e6c79206f776e6572000000600082015250565b6000612a49601d83612195565b9150612a5482612a13565b602082019050919050565b60006020820190508181036000830152612a7881612a3c565b9050919050565b7f496e697469616c697a61626c653a20636f6e747261637420697320616c72656160008201527f647920696e697469616c697a6564000000000000000000000000000000000000602082015250565b6000612adb602e83612195565b9150612ae682612a7f565b604082019050919050565b60006020820190508181036000830152612b0a81612ace565b9050919050565b600081905092915050565b7f19457468657265756d205369676e6564204d6573736167653a0a333200000000600082015250565b6000612b52601c83612b11565b9150612b5d82612b1c565b601c82019050919050565b6000819050919050565b612b83612b7e82611a90565b612b68565b82525050565b6000612b9482612b45565b9150612ba08284612b72565b60208201915081905092915050565b7f455243313936373a206e657720696d706c656d656e746174696f6e206973206e60008201527f6f74206120636f6e747261637400000000000000000000000000000000000000602082015250565b6000612c0b602d83612195565b9150612c1682612baf565b604082019050919050565b60006020820190508181036000830152612c3a81612bfe565b9050919050565b7f4e487b7100000000000000000000000000000000000000000000000000000000600052602160045260246000fd5b7f45434453413a20696e76616c6964207369676e61747572650000000000000000600082015250565b6000612ca6601883612195565b9150612cb182612c70565b602082019050919050565b60006020820190508181036000830152612cd581612c99565b9050919050565b7f45434453413a20696e76616c6964207369676e6174757265206c656e67746800600082015250565b6000612d12601f83612195565b9150612d1d82612cdc565b602082019050919050565b60006020820190508181036000830152612d4181612d05565b9050919050565b7f45434453413a20696e76616c6964207369676e6174757265202773272076616c60008201527f7565000000000000000000000000000000000000000000000000000000000000602082015250565b6000612da4602283612195565b9150612daf82612d48565b604082019050919050565b60006020820190508181036000830152612dd381612d97565b9050919050565b7f45434453413a20696e76616c6964207369676e6174757265202776272076616c60008201527f7565000000000000000000000000000000000000000000000000000000000000602082015250565b6000612e36602283612195565b9150612e4182612dda565b604082019050919050565b60006020820190508181036000830152612e6581612e29565b9050919050565b612e758161255f565b82525050565b6000608082019050612e906000830187611f8b565b612e9d6020830186612e6c565b612eaa6040830185611f8b565b612eb76060830184611f8b565b95945050505050565b6000612ecb82611b24565b9150612ed683611b24565b9250827fffffffffffffffffffffffffffffffffffffffffffffffffffffffffffffffff03821115612f0b57612f0a612267565b5b828201905092915050565b7f416464726573733a2064656c65676174652063616c6c20746f206e6f6e2d636f60008201527f6e74726163740000000000000000000000000000000000000000000000000000602082015250565b6000612f72602683612195565b9150612f7d82612f16565b604082019050919050565b60006020820190508181036000830152612fa181612f65565b9050919050565b600081519050919050565b6000612fbe82612fa8565b612fc88185612195565b9350612fd8818560208601612832565b612fe181611df3565b840191505092915050565b600060208201905081810360008301526130068184612fb3565b90509291505056fe416464726573733a206c6f772d6c6576656c2064656c65676174652063616c6c206661696c6564a164736f6c634300080c000a",
  "linkReferences": {},
  "deployedLinkReferences": {}
}