{
  "_format": "hh-sol-artifact-1",
  "contractName": "ExternalAccountOwnerRegistry",
  "sourceName": "src/external/ExternalAccountOwnerRegistry.sol",
  "abi": [
    {
      "anonymous": false,
      "inputs": [
        {
          "indexed": false,
          "internalType": "address",
          "name": "account",
          "type": "address"
        },
        {
          "indexed": false,
          "internalType": "address",
          "name": "owner",
          "type": "address"
        }
      ],
      "name": "AccountOwnerAdded",
      "type": "event"
    },
    {
      "anonymous": false,
      "inputs": [
        {
          "indexed": false,
          "internalType": "address",
          "name": "account",
          "type": "address"
        },
        {
          "indexed": false,
          "internalType": "address",
          "name": "owner",
          "type": "address"
        }
      ],
      "name": "AccountOwnerRemoved",
      "type": "event"
    },
    {
      "inputs": [
        {
          "internalType": "address",
          "name": "owner",
          "type": "address"
        }
      ],
      "name": "addAccountOwner",
      "outputs": [],
      "stateMutability": "nonpayable",
      "type": "function"
    },
    {
      "inputs": [
        {
          "internalType": "address",
          "name": "owner",
          "type": "address"
        }
      ],
      "name": "removeAccountOwner",
      "outputs": [],
      "stateMutability": "nonpayable",
      "type": "function"
    },
    {
      "inputs": [
        {
          "internalType": "address",
          "name": "account",
          "type": "address"
        },
        {
          "internalType": "address",
          "name": "owner",
          "type": "address"
        }
      ],
      "name": "verifyAccountOwner",
      "outputs": [
        {
          "internalType": "bool",
          "name": "",
          "type": "bool"
        }
      ],
      "stateMutability": "view",
      "type": "function"
    },
    {
      "inputs": [
        {
          "internalType": "address",
          "name": "account",
          "type": "address"
        },
        {
          "internalType": "address",
          "name": "owner",
          "type": "address"
        },
        {
          "internalType": "uint256",
          "name": "blockNumber",
          "type": "uint256"
        }
      ],
      "name": "verifyAccountOwnerAtBlock",
      "outputs": [
        {
          "internalType": "bool",
          "name": "",
          "type": "bool"
        }
      ],
      "stateMutability": "view",
      "type": "function"
    }
  ],
  "bytecode": "0x608060405234801561001057600080fd5b50610959806100206000396000f3fe608060405234801561001057600080fd5b506004361061004c5760003560e01c806334d323a4146100515780638ecc1365146100d5578063bb890d3f14610119578063e278cfc614610193575b600080fd5b6100bd6004803603606081101561006757600080fd5b81019080803573ffffffffffffffffffffffffffffffffffffffff169060200190929190803573ffffffffffffffffffffffffffffffffffffffff169060200190929190803590602001909291905050506101d7565b60405180821515815260200191505060405180910390f35b610117600480360360208110156100eb57600080fd5b81019080803573ffffffffffffffffffffffffffffffffffffffff16906020019092919050505061029f565b005b61017b6004803603604081101561012f57600080fd5b81019080803573ffffffffffffffffffffffffffffffffffffffff169060200190929190803573ffffffffffffffffffffffffffffffffffffffff1690602001909291905050506105b7565b60405180821515815260200191505060405180910390f35b6101d5600480360360208110156101a957600080fd5b81019080803573ffffffffffffffffffffffffffffffffffffffff169060200190929190505050610674565b005b6000610296826000808773ffffffffffffffffffffffffffffffffffffffff1673ffffffffffffffffffffffffffffffffffffffff16815260200190815260200160002060008673ffffffffffffffffffffffffffffffffffffffff1673ffffffffffffffffffffffffffffffffffffffff1681526020019081526020016000206040518060400160405290816000820160009054906101000a900460ff1615151515815260200160018201548152505061086d90919063ffffffff16565b90509392505050565b600073ffffffffffffffffffffffffffffffffffffffff168173ffffffffffffffffffffffffffffffffffffffff161415610325576040517f08c379a000000000000000000000000000000000000000000000000000000000815260040180806020018281038252602a815260200180610923602a913960400191505060405180910390fd5b6103d86000803373ffffffffffffffffffffffffffffffffffffffff1673ffffffffffffffffffffffffffffffffffffffff16815260200190815260200160002060008373ffffffffffffffffffffffffffffffffffffffff1673ffffffffffffffffffffffffffffffffffffffff1681526020019081526020016000206040518060400160405290816000820160009054906101000a900460ff161515151581526020016001820154815250506108bc565b1561042e576040517f08c379a000000000000000000000000000000000000000000000000000000000815260040180806020018281038252602a8152602001806108d0602a913960400191505060405180910390fd5b60016000803373ffffffffffffffffffffffffffffffffffffffff1673ffffffffffffffffffffffffffffffffffffffff16815260200190815260200160002060008373ffffffffffffffffffffffffffffffffffffffff1673ffffffffffffffffffffffffffffffffffffffff16815260200190815260200160002060000160006101000a81548160ff02191690831515021790555060008060003373ffffffffffffffffffffffffffffffffffffffff1673ffffffffffffffffffffffffffffffffffffffff16815260200190815260200160002060008373ffffffffffffffffffffffffffffffffffffffff1673ffffffffffffffffffffffffffffffffffffffff168152602001908152602001600020600101819055507f27e282f7712c5b4617277759c834b86d163dfc1aad25c8c3c5926a1c9e5644683382604051808373ffffffffffffffffffffffffffffffffffffffff1681526020018273ffffffffffffffffffffffffffffffffffffffff1681526020019250505060405180910390a150565b600061066c6000808573ffffffffffffffffffffffffffffffffffffffff1673ffffffffffffffffffffffffffffffffffffffff16815260200190815260200160002060008473ffffffffffffffffffffffffffffffffffffffff1673ffffffffffffffffffffffffffffffffffffffff1681526020019081526020016000206040518060400160405290816000820160009054906101000a900460ff161515151581526020016001820154815250506108bc565b905092915050565b6107276000803373ffffffffffffffffffffffffffffffffffffffff1673ffffffffffffffffffffffffffffffffffffffff16815260200190815260200160002060008373ffffffffffffffffffffffffffffffffffffffff1673ffffffffffffffffffffffffffffffffffffffff1681526020019081526020016000206040518060400160405290816000820160009054906101000a900460ff161515151581526020016001820154815250506108bc565b61077c576040517f08c379a00000000000000000000000000000000000000000000000000000000081526004018080602001828103825260298152602001806108fa6029913960400191505060405180910390fd5b436000803373ffffffffffffffffffffffffffffffffffffffff1673ffffffffffffffffffffffffffffffffffffffff16815260200190815260200160002060008373ffffffffffffffffffffffffffffffffffffffff1673ffffffffffffffffffffffffffffffffffffffff168152602001908152602001600020600101819055507f1ce3cbbc43ee231e5b950332f2b0b9dd7d349291a3ee411ce5c5c7ed745661bb3382604051808373ffffffffffffffffffffffffffffffffffffffff1681526020018273ffffffffffffffffffffffffffffffffffffffff1681526020019250505060405180910390a150565b600080600090508360000151156108b25760008460200151141561089457600190506108b1565b60008314156108a657600190506108b0565b8284602001511190505b5b5b8091505092915050565b60006108c8824361086d565b905091905056fe4163636f756e744f776e657252656769737472793a206f776e657220616c7265616479206578697374734163636f756e744f776e657252656769737472793a206f776e657220646f65736e27742065786973744163636f756e744f776e657252656769737472793a2063616e6e6f742061646420307830206f776e6572a164736f6c634300060c000a",
  "linkReferences": {},
  "deployedLinkReferences": {}
}