{
  "_format": "hh-sol-artifact-1",
  "contractName": "ExternalAccountRegistry",
  "sourceName": "src/external/ExternalAccountRegistry.sol",
  "abi": [
    {
      "anonymous": false,
      "inputs": [
        {
          "indexed": false,
          "internalType": "address",
          "name": "account",
          "type": "address"
        },
        {
          "indexed": false,
          "internalType": "address",
          "name": "owner",
          "type": "address"
        }
      ],
      "name": "AccountOwnerAdded",
      "type": "event"
    },
    {
      "anonymous": false,
      "inputs": [
        {
          "indexed": false,
          "internalType": "address",
          "name": "account",
          "type": "address"
        },
        {
          "indexed": false,
          "internalType": "address",
          "name": "owner",
          "type": "address"
        }
      ],
      "name": "AccountOwnerRemoved",
      "type": "event"
    },
    {
      "anonymous": false,
      "inputs": [
        {
          "indexed": false,
          "internalType": "address",
          "name": "account",
          "type": "address"
        },
        {
          "indexed": false,
          "internalType": "bytes32",
          "name": "hash",
          "type": "bytes32"
        }
      ],
      "name": "AccountProofAdded",
      "type": "event"
    },
    {
      "anonymous": false,
      "inputs": [
        {
          "indexed": false,
          "internalType": "address",
          "name": "account",
          "type": "address"
        },
        {
          "indexed": false,
          "internalType": "bytes32",
          "name": "hash",
          "type": "bytes32"
        }
      ],
      "name": "AccountProofRemoved",
      "type": "event"
    },
    {
      "inputs": [
        {
          "internalType": "address",
          "name": "owner",
          "type": "address"
        }
      ],
      "name": "addAccountOwner",
      "outputs": [],
      "stateMutability": "nonpayable",
      "type": "function"
    },
    {
      "inputs": [
        {
          "internalType": "bytes32",
          "name": "hash",
          "type": "bytes32"
        }
      ],
      "name": "addAccountProof",
      "outputs": [],
      "stateMutability": "nonpayable",
      "type": "function"
    },
    {
      "inputs": [
        {
          "internalType": "bytes8",
          "name": "c__67f73f84",
          "type": "bytes8"
        }
      ],
      "name": "c_67f73f84",
      "outputs": [],
      "stateMutability": "pure",
      "type": "function"
    },
    {
      "inputs": [
        {
          "internalType": "bytes8",
          "name": "c__67f73f84",
          "type": "bytes8"
        }
      ],
      "name": "c_false67f73f84",
      "outputs": [
        {
          "internalType": "bool",
          "name": "",
          "type": "bool"
        }
      ],
      "stateMutability": "pure",
      "type": "function"
    },
    {
      "inputs": [
        {
          "internalType": "bytes8",
          "name": "c__67f73f84",
          "type": "bytes8"
        }
      ],
      "name": "c_true67f73f84",
      "outputs": [
        {
          "internalType": "bool",
          "name": "",
          "type": "bool"
        }
      ],
      "stateMutability": "pure",
      "type": "function"
    },
    {
      "inputs": [
        {
          "internalType": "address",
          "name": "owner",
          "type": "address"
        }
      ],
      "name": "removeAccountOwner",
      "outputs": [],
      "stateMutability": "nonpayable",
      "type": "function"
    },
    {
      "inputs": [
        {
          "internalType": "bytes32",
          "name": "hash",
          "type": "bytes32"
        }
      ],
      "name": "removeAccountProof",
      "outputs": [],
      "stateMutability": "nonpayable",
      "type": "function"
    },
    {
      "inputs": [
        {
          "internalType": "address",
          "name": "account",
          "type": "address"
        },
        {
          "internalType": "address",
          "name": "owner",
          "type": "address"
        }
      ],
      "name": "verifyAccountOwner",
      "outputs": [
        {
          "internalType": "bool",
          "name": "",
          "type": "bool"
        }
      ],
      "stateMutability": "view",
      "type": "function"
    },
    {
      "inputs": [
        {
          "internalType": "address",
          "name": "account",
          "type": "address"
        },
        {
          "internalType": "address",
          "name": "owner",
          "type": "address"
        },
        {
          "internalType": "uint256",
          "name": "blockNumber",
          "type": "uint256"
        }
      ],
      "name": "verifyAccountOwnerAtBlock",
      "outputs": [
        {
          "internalType": "bool",
          "name": "",
          "type": "bool"
        }
      ],
      "stateMutability": "view",
      "type": "function"
    },
    {
      "inputs": [
        {
          "internalType": "address",
          "name": "account",
          "type": "address"
        },
        {
          "internalType": "bytes32",
          "name": "hash",
          "type": "bytes32"
        }
      ],
      "name": "verifyAccountProof",
      "outputs": [
        {
          "internalType": "bool",
          "name": "",
          "type": "bool"
        }
      ],
      "stateMutability": "view",
      "type": "function"
    },
    {
      "inputs": [
        {
          "internalType": "address",
          "name": "account",
          "type": "address"
        },
        {
          "internalType": "bytes32",
          "name": "hash",
          "type": "bytes32"
        },
        {
          "internalType": "uint256",
          "name": "blockNumber",
          "type": "uint256"
        }
      ],
      "name": "verifyAccountProofAtBlock",
      "outputs": [
        {
          "internalType": "bool",
          "name": "",
          "type": "bool"
        }
      ],
      "stateMutability": "view",
      "type": "function"
    }
  ],
  "bytecode": "0x608060405234801561001057600080fd5b506116e1806100206000396000f3fe608060405234801561001057600080fd5b50600436106100a95760003560e01c80638ecc1365116100715780638ecc1365146102c257806394000b0214610306578063bb890d3f14610334578063d0873057146103ae578063d543c34a146103f7578063e278cfc614610425576100a9565b806334d323a4146100ae57806359b52ef8146101325780636c9560ad146101a05780637cd53489146101ff5780638a3133781461025e575b600080fd5b61011a600480360360608110156100c457600080fd5b81019080803573ffffffffffffffffffffffffffffffffffffffff169060200190929190803573ffffffffffffffffffffffffffffffffffffffff16906020019092919080359060200190929190505050610469565b60405180821515815260200191505060405180910390f35b6101886004803603606081101561014857600080fd5b81019080803573ffffffffffffffffffffffffffffffffffffffff1690602001909291908035906020019092919080359060200190929190505050610570565b60405180821515815260200191505060405180910390f35b6101e7600480360360208110156101b657600080fd5b81019080803577ffffffffffffffffffffffffffffffffffffffffffffffff1916906020019092919050505061064b565b60405180821515815260200191505060405180910390f35b6102466004803603602081101561021557600080fd5b81019080803577ffffffffffffffffffffffffffffffffffffffffffffffff19169060200190929190505050610652565b60405180821515815260200191505060405180910390f35b6102aa6004803603604081101561027457600080fd5b81019080803573ffffffffffffffffffffffffffffffffffffffff1690602001909291908035906020019092919050505061065d565b60405180821515815260200191505060405180910390f35b610304600480360360208110156102d857600080fd5b81019080803573ffffffffffffffffffffffffffffffffffffffff16906020019092919050505061072d565b005b6103326004803603602081101561031c57600080fd5b8101908080359060200190929190505050610b52565b005b6103966004803603604081101561034a57600080fd5b81019080803573ffffffffffffffffffffffffffffffffffffffff169060200190929190803573ffffffffffffffffffffffffffffffffffffffff169060200190929190505050610d83565b60405180821515815260200191505060405180910390f35b6103f5600480360360208110156103c457600080fd5b81019080803577ffffffffffffffffffffffffffffffffffffffffffffffff19169060200190929190505050610e7f565b005b6104236004803603602081101561040d57600080fd5b8101908080359060200190929190505050610e82565b005b6104676004803603602081101561043b57600080fd5b81019080803573ffffffffffffffffffffffffffffffffffffffff169060200190929190505050611137565b005b600061047f67811273a496b6bbd260c01b610e7f565b61049367ee85cf8ca22f66c860c01b610e7f565b6104a767f92543f741734d8160c01b610e7f565b610567826000808773ffffffffffffffffffffffffffffffffffffffff1673ffffffffffffffffffffffffffffffffffffffff16815260200190815260200160002060000160008673ffffffffffffffffffffffffffffffffffffffff1673ffffffffffffffffffffffffffffffffffffffff1681526020019081526020016000206040518060400160405290816000820160009054906101000a900460ff161515151581526020016001820154815250506113d690919063ffffffff16565b90509392505050565b60006105866731782316d98727f460c01b610e7f565b61059a671a204c4b634e638e60c01b610e7f565b6105ae67977ebcb3dee27d3660c01b610e7f565b610642826000808773ffffffffffffffffffffffffffffffffffffffff1673ffffffffffffffffffffffffffffffffffffffff16815260200190815260200160002060010160008681526020019081526020016000206040518060400160405290816000820160009054906101000a900460ff161515151581526020016001820154815250506113d690919063ffffffff16565b90509392505050565b6000919050565b600060019050919050565b60006106736777b39fb3deed41d060c01b610e7f565b610687673813ba02c85eb6f960c01b610e7f565b61069b672367769914caf40b60c01b610e7f565b6107256000808573ffffffffffffffffffffffffffffffffffffffff1673ffffffffffffffffffffffffffffffffffffffff16815260200190815260200160002060010160008481526020019081526020016000206040518060400160405290816000820160009054906101000a900460ff161515151581526020016001820154815250506115a3565b905092915050565b61074167844018c492a47aa160c01b610e7f565b61075567a40de2f21c0e3d0660c01b610e7f565b610769672c936321273df9a060c01b610e7f565b61077d676cc2878cf6e8493f60c01b610e7f565b600073ffffffffffffffffffffffffffffffffffffffff168173ffffffffffffffffffffffffffffffffffffffff161415610803576040517f08c379a000000000000000000000000000000000000000000000000000000000815260040180806020018281038252602d8152602001806115f6602d913960400191505060405180910390fd5b61081767259c7b053f2b829260c01b610e7f565b61082b6775a720b32527edf460c01b610e7f565b61083f6774571c47f2bef48760c01b610e7f565b610853672db026eadb6481ef60c01b610e7f565b6109096000803373ffffffffffffffffffffffffffffffffffffffff1673ffffffffffffffffffffffffffffffffffffffff16815260200190815260200160002060000160008373ffffffffffffffffffffffffffffffffffffffff1673ffffffffffffffffffffffffffffffffffffffff1681526020019081526020016000206040518060400160405290816000820160009054906101000a900460ff161515151581526020016001820154815250506115a3565b1561095f576040517f08c379a000000000000000000000000000000000000000000000000000000000815260040180806020018281038252602d815260200180611650602d913960400191505060405180910390fd5b61097367f1ff51779b39bfcf60c01b610e7f565b610987678153cbc9679094bd60c01b610e7f565b60016000803373ffffffffffffffffffffffffffffffffffffffff1673ffffffffffffffffffffffffffffffffffffffff16815260200190815260200160002060000160008373ffffffffffffffffffffffffffffffffffffffff1673ffffffffffffffffffffffffffffffffffffffff16815260200190815260200160002060000160006101000a81548160ff021916908315150217905550610a356739abeda8b84db3a860c01b610e7f565b60008060003373ffffffffffffffffffffffffffffffffffffffff1673ffffffffffffffffffffffffffffffffffffffff16815260200190815260200160002060000160008373ffffffffffffffffffffffffffffffffffffffff1673ffffffffffffffffffffffffffffffffffffffff16815260200190815260200160002060010181905550610ad067bd3e421b75c9035d60c01b610e7f565b610ae467c8c386f5bb3a7e6060c01b610e7f565b7f27e282f7712c5b4617277759c834b86d163dfc1aad25c8c3c5926a1c9e5644683382604051808373ffffffffffffffffffffffffffffffffffffffff1681526020018273ffffffffffffffffffffffffffffffffffffffff1681526020019250505060405180910390a150565b610b666753cb7a425b0b3c9360c01b610e7f565b610b7a67d8eab3de3f87a4c260c01b610e7f565b610b8e6711366618983493d860c01b610e7f565b610ba267859b5ad6642158da60c01b610e7f565b610c2c6000803373ffffffffffffffffffffffffffffffffffffffff1673ffffffffffffffffffffffffffffffffffffffff16815260200190815260200160002060010160008381526020019081526020016000206040518060400160405290816000820160009054906101000a900460ff161515151581526020016001820154815250506115a3565b610c81576040517f08c379a000000000000000000000000000000000000000000000000000000000815260040180806020018281038252602c8152602001806116a9602c913960400191505060405180910390fd5b610c9567f5cc25e780ba1b3660c01b610e7f565b610ca967b26fe50d4ea58a8060c01b610e7f565b436000803373ffffffffffffffffffffffffffffffffffffffff1673ffffffffffffffffffffffffffffffffffffffff168152602001908152602001600020600101600083815260200190815260200160002060010181905550610d176702ad8d8c5405c06860c01b610e7f565b610d2b67a757a0a1a3565f4760c01b610e7f565b7f87dde712783ad4895642c7a875998317a71cf424a2444eb79545ce3795431ff93382604051808373ffffffffffffffffffffffffffffffffffffffff1681526020018281526020019250505060405180910390a150565b6000610d9967472147f6b454ff7f60c01b610e7f565b610dad6726835218c28d461460c01b610e7f565b610dc167c193cedd09f6273960c01b610e7f565b610e776000808573ffffffffffffffffffffffffffffffffffffffff1673ffffffffffffffffffffffffffffffffffffffff16815260200190815260200160002060000160008473ffffffffffffffffffffffffffffffffffffffff1673ffffffffffffffffffffffffffffffffffffffff1681526020019081526020016000206040518060400160405290816000820160009054906101000a900460ff161515151581526020016001820154815250506115a3565b905092915050565b50565b610e9667f57afe911ee1b31560c01b610e7f565b610eaa67c15f817dc07eff4b60c01b610e7f565b610ebe67110d1629e1eddf6060c01b610e7f565b610ed267737ae58f015bc5e960c01b610e7f565b610f5c6000803373ffffffffffffffffffffffffffffffffffffffff1673ffffffffffffffffffffffffffffffffffffffff16815260200190815260200160002060010160008381526020019081526020016000206040518060400160405290816000820160009054906101000a900460ff161515151581526020016001820154815250506115a3565b15610fb2576040517f08c379a000000000000000000000000000000000000000000000000000000000815260040180806020018281038252602d815260200180611623602d913960400191505060405180910390fd5b610fc667abe1cd205d887c0f60c01b610e7f565b610fda67eb97ce899bda79c360c01b610e7f565b60016000803373ffffffffffffffffffffffffffffffffffffffff1673ffffffffffffffffffffffffffffffffffffffff168152602001908152602001600020600101600083815260200190815260200160002060000160006101000a81548160ff02191690831515021790555061105c67eab5c45b3dc52d5d60c01b610e7f565b60008060003373ffffffffffffffffffffffffffffffffffffffff1673ffffffffffffffffffffffffffffffffffffffff1681526020019081526020016000206001016000838152602001908152602001600020600101819055506110cb676d71a597efcfd42e60c01b610e7f565b6110df675a0890efdc4ba3d260c01b610e7f565b7f4075b367eed0513a54aa39c287c66d6ae98e5df6f73ac087b26b8f89d05d1aa83382604051808373ffffffffffffffffffffffffffffffffffffffff1681526020018281526020019250505060405180910390a150565b61114b67119968fad6dd198360c01b610e7f565b61115f67a7a4bc0d1c9778fd60c01b610e7f565b6111736754d2c0a8437cf80260c01b610e7f565b61118767d3ac7ceef225150d60c01b610e7f565b61123d6000803373ffffffffffffffffffffffffffffffffffffffff1673ffffffffffffffffffffffffffffffffffffffff16815260200190815260200160002060000160008373ffffffffffffffffffffffffffffffffffffffff1673ffffffffffffffffffffffffffffffffffffffff1681526020019081526020016000206040518060400160405290816000820160009054906101000a900460ff161515151581526020016001820154815250506115a3565b611292576040517f08c379a000000000000000000000000000000000000000000000000000000000815260040180806020018281038252602c81526020018061167d602c913960400191505060405180910390fd5b6112a6674f16fa2298a4ee6d60c01b610e7f565b6112ba67640d22a478ff372e60c01b610e7f565b436000803373ffffffffffffffffffffffffffffffffffffffff1673ffffffffffffffffffffffffffffffffffffffff16815260200190815260200160002060000160008373ffffffffffffffffffffffffffffffffffffffff1673ffffffffffffffffffffffffffffffffffffffff16815260200190815260200160002060010181905550611354675d9f0ab84655ef6e60c01b610e7f565b61136867299be1d71c566b0d60c01b610e7f565b7f1ce3cbbc43ee231e5b950332f2b0b9dd7d349291a3ee411ce5c5c7ed745661bb3382604051808373ffffffffffffffffffffffffffffffffffffffff1681526020018273ffffffffffffffffffffffffffffffffffffffff1681526020019250505060405180910390a150565b60006113ec671144096310ea862460c01b6115f2565b61140067ccb193c1d70d4f2d60c01b6115f2565b61141467c4edd14fe4d5717d60c01b6115f2565b600061142a67cc22b304773d3df460c01b6115f2565b61143e67e8542ed48c287f5960c01b6115f2565b83600001511561155c5761145c67e10357517882bc5660c01b6115f2565b61147067e61b7ae6e2a21e4460c01b6115f2565b6114846731991fbb0a86cb8160c01b6115f2565b6000846020015114156114c2576114a567199bb5624cc15e4b60c01b6115f2565b6114b967b6ac26078985937c60c01b6115f2565b60019050611557565b6114d6677ef33d6bba57c29160c01b6115f2565b6114ea67cf24d1788013297b60c01b6115f2565b6000831415611524576115076755705221aa1e447060c01b6115f2565b61151b679cd0d8177f361b5a60c01b6115f2565b60019050611556565b6115386791918ba395bef8ec60c01b6115f2565b61154c67c888e9ccf04b85c560c01b6115f2565b8284602001511190505b5b611571565b61157067638195b8907d337960c01b6115f2565b5b61158567494b10f3b699fc4660c01b6115f2565b6115996775523eddeb60429e60c01b6115f2565b8091505092915050565b60006115b967f30c2ff94090645360c01b6115f2565b6115cd67d1f07971ac04448f60c01b6115f2565b6115e167a01f666428e7433960c01b6115f2565b6115eb82436113d6565b9050919050565b5056fe45787465726e616c4163636f756e7452656769737472793a2063616e6e6f742061646420307830206f776e657245787465726e616c4163636f756e7452656769737472793a2070726f6f6620616c72656164792065786973747345787465726e616c4163636f756e7452656769737472793a206f776e657220616c72656164792065786973747345787465726e616c4163636f756e7452656769737472793a206f776e657220646f65736e277420657869737445787465726e616c4163636f756e7452656769737472793a2070726f6f6620646f65736e2774206578697374a164736f6c634300060c000a",
  "linkReferences": {},
  "deployedLinkReferences": {}
}