{
  "_format": "hh-sol-artifact-1",
  "contractName": "ExternalAccountRegistry",
  "sourceName": "src/external/ExternalAccountRegistry.sol",
  "abi": [
    {
      "anonymous": false,
      "inputs": [
        {
          "indexed": false,
          "internalType": "address",
          "name": "account",
          "type": "address"
        },
        {
          "indexed": false,
          "internalType": "address",
          "name": "owner",
          "type": "address"
        }
      ],
      "name": "AccountOwnerAdded",
      "type": "event"
    },
    {
      "anonymous": false,
      "inputs": [
        {
          "indexed": false,
          "internalType": "address",
          "name": "account",
          "type": "address"
        },
        {
          "indexed": false,
          "internalType": "address",
          "name": "owner",
          "type": "address"
        }
      ],
      "name": "AccountOwnerRemoved",
      "type": "event"
    },
    {
      "anonymous": false,
      "inputs": [
        {
          "indexed": false,
          "internalType": "address",
          "name": "account",
          "type": "address"
        },
        {
          "indexed": false,
          "internalType": "bytes32",
          "name": "hash",
          "type": "bytes32"
        }
      ],
      "name": "AccountProofAdded",
      "type": "event"
    },
    {
      "anonymous": false,
      "inputs": [
        {
          "indexed": false,
          "internalType": "address",
          "name": "account",
          "type": "address"
        },
        {
          "indexed": false,
          "internalType": "bytes32",
          "name": "hash",
          "type": "bytes32"
        }
      ],
      "name": "AccountProofRemoved",
      "type": "event"
    },
    {
      "inputs": [
        {
          "internalType": "address",
          "name": "owner",
          "type": "address"
        }
      ],
      "name": "addAccountOwner",
      "outputs": [],
      "stateMutability": "nonpayable",
      "type": "function"
    },
    {
      "inputs": [
        {
          "internalType": "bytes32",
          "name": "hash",
          "type": "bytes32"
        }
      ],
      "name": "addAccountProof",
      "outputs": [],
      "stateMutability": "nonpayable",
      "type": "function"
    },
    {
      "inputs": [
        {
          "internalType": "bytes8",
          "name": "c__67f73f84",
          "type": "bytes8"
        }
      ],
      "name": "c_67f73f84",
      "outputs": [],
      "stateMutability": "pure",
      "type": "function"
    },
    {
      "inputs": [
        {
          "internalType": "bytes8",
          "name": "c__67f73f84",
          "type": "bytes8"
        }
      ],
      "name": "c_false67f73f84",
      "outputs": [
        {
          "internalType": "bool",
          "name": "",
          "type": "bool"
        }
      ],
      "stateMutability": "pure",
      "type": "function"
    },
    {
      "inputs": [
        {
          "internalType": "bytes8",
          "name": "c__67f73f84",
          "type": "bytes8"
        }
      ],
      "name": "c_true67f73f84",
      "outputs": [
        {
          "internalType": "bool",
          "name": "",
          "type": "bool"
        }
      ],
      "stateMutability": "pure",
      "type": "function"
    },
    {
      "inputs": [
        {
          "internalType": "address",
          "name": "owner",
          "type": "address"
        }
      ],
      "name": "removeAccountOwner",
      "outputs": [],
      "stateMutability": "nonpayable",
      "type": "function"
    },
    {
      "inputs": [
        {
          "internalType": "bytes32",
          "name": "hash",
          "type": "bytes32"
        }
      ],
      "name": "removeAccountProof",
      "outputs": [],
      "stateMutability": "nonpayable",
      "type": "function"
    },
    {
      "inputs": [
        {
          "internalType": "address",
          "name": "account",
          "type": "address"
        },
        {
          "internalType": "address",
          "name": "owner",
          "type": "address"
        }
      ],
      "name": "verifyAccountOwner",
      "outputs": [
        {
          "internalType": "bool",
          "name": "",
          "type": "bool"
        }
      ],
      "stateMutability": "view",
      "type": "function"
    },
    {
      "inputs": [
        {
          "internalType": "address",
          "name": "account",
          "type": "address"
        },
        {
          "internalType": "address",
          "name": "owner",
          "type": "address"
        },
        {
          "internalType": "uint256",
          "name": "blockNumber",
          "type": "uint256"
        }
      ],
      "name": "verifyAccountOwnerAtBlock",
      "outputs": [
        {
          "internalType": "bool",
          "name": "",
          "type": "bool"
        }
      ],
      "stateMutability": "view",
      "type": "function"
    },
    {
      "inputs": [
        {
          "internalType": "address",
          "name": "account",
          "type": "address"
        },
        {
          "internalType": "bytes32",
          "name": "hash",
          "type": "bytes32"
        }
      ],
      "name": "verifyAccountProof",
      "outputs": [
        {
          "internalType": "bool",
          "name": "",
          "type": "bool"
        }
      ],
      "stateMutability": "view",
      "type": "function"
    },
    {
      "inputs": [
        {
          "internalType": "address",
          "name": "account",
          "type": "address"
        },
        {
          "internalType": "bytes32",
          "name": "hash",
          "type": "bytes32"
        },
        {
          "internalType": "uint256",
          "name": "blockNumber",
          "type": "uint256"
        }
      ],
      "name": "verifyAccountProofAtBlock",
      "outputs": [
        {
          "internalType": "bool",
          "name": "",
          "type": "bool"
        }
      ],
      "stateMutability": "view",
      "type": "function"
    }
  ],
  "bytecode": "0x608060405234801561001057600080fd5b506116e1806100206000396000f3fe608060405234801561001057600080fd5b50600436106100a95760003560e01c80638ecc1365116100715780638ecc1365146102c257806394000b0214610306578063bb890d3f14610334578063d0873057146103ae578063d543c34a146103f7578063e278cfc614610425576100a9565b806334d323a4146100ae57806359b52ef8146101325780636c9560ad146101a05780637cd53489146101ff5780638a3133781461025e575b600080fd5b61011a600480360360608110156100c457600080fd5b81019080803573ffffffffffffffffffffffffffffffffffffffff169060200190929190803573ffffffffffffffffffffffffffffffffffffffff16906020019092919080359060200190929190505050610469565b60405180821515815260200191505060405180910390f35b6101886004803603606081101561014857600080fd5b81019080803573ffffffffffffffffffffffffffffffffffffffff1690602001909291908035906020019092919080359060200190929190505050610570565b60405180821515815260200191505060405180910390f35b6101e7600480360360208110156101b657600080fd5b81019080803577ffffffffffffffffffffffffffffffffffffffffffffffff1916906020019092919050505061064b565b60405180821515815260200191505060405180910390f35b6102466004803603602081101561021557600080fd5b81019080803577ffffffffffffffffffffffffffffffffffffffffffffffff19169060200190929190505050610652565b60405180821515815260200191505060405180910390f35b6102aa6004803603604081101561027457600080fd5b81019080803573ffffffffffffffffffffffffffffffffffffffff1690602001909291908035906020019092919050505061065d565b60405180821515815260200191505060405180910390f35b610304600480360360208110156102d857600080fd5b81019080803573ffffffffffffffffffffffffffffffffffffffff16906020019092919050505061072d565b005b6103326004803603602081101561031c57600080fd5b8101908080359060200190929190505050610b52565b005b6103966004803603604081101561034a57600080fd5b81019080803573ffffffffffffffffffffffffffffffffffffffff169060200190929190803573ffffffffffffffffffffffffffffffffffffffff169060200190929190505050610d83565b60405180821515815260200191505060405180910390f35b6103f5600480360360208110156103c457600080fd5b81019080803577ffffffffffffffffffffffffffffffffffffffffffffffff19169060200190929190505050610e7f565b005b6104236004803603602081101561040d57600080fd5b8101908080359060200190929190505050610e82565b005b6104676004803603602081101561043b57600080fd5b81019080803573ffffffffffffffffffffffffffffffffffffffff169060200190929190505050611137565b005b600061047f67a9d83771f9b96dc260c01b610e7f565b6104936789836a1918b443fe60c01b610e7f565b6104a7676730a7662f4af81760c01b610e7f565b610567826000808773ffffffffffffffffffffffffffffffffffffffff1673ffffffffffffffffffffffffffffffffffffffff16815260200190815260200160002060000160008673ffffffffffffffffffffffffffffffffffffffff1673ffffffffffffffffffffffffffffffffffffffff1681526020019081526020016000206040518060400160405290816000820160009054906101000a900460ff161515151581526020016001820154815250506113d690919063ffffffff16565b90509392505050565b6000610586671adda7dfb18bcb8660c01b610e7f565b61059a679468596bc057a33c60c01b610e7f565b6105ae67e6df0f19a8f5783360c01b610e7f565b610642826000808773ffffffffffffffffffffffffffffffffffffffff1673ffffffffffffffffffffffffffffffffffffffff16815260200190815260200160002060010160008681526020019081526020016000206040518060400160405290816000820160009054906101000a900460ff161515151581526020016001820154815250506113d690919063ffffffff16565b90509392505050565b6000919050565b600060019050919050565b60006106736799e69d91c894cfa560c01b610e7f565b61068767a49648333db67ad360c01b610e7f565b61069b67590b4c166c31911860c01b610e7f565b6107256000808573ffffffffffffffffffffffffffffffffffffffff1673ffffffffffffffffffffffffffffffffffffffff16815260200190815260200160002060010160008481526020019081526020016000206040518060400160405290816000820160009054906101000a900460ff161515151581526020016001820154815250506115a3565b905092915050565b6107416762cea0b23547783e60c01b610e7f565b61075567e7744a791aa2421760c01b610e7f565b61076967e0f4e744c720e18560c01b610e7f565b61077d6787fa32c412a9708160c01b610e7f565b600073ffffffffffffffffffffffffffffffffffffffff168173ffffffffffffffffffffffffffffffffffffffff161415610803576040517f08c379a000000000000000000000000000000000000000000000000000000000815260040180806020018281038252602d8152602001806115f6602d913960400191505060405180910390fd5b610817678a49b29fe0ea2b3b60c01b610e7f565b61082b67741214d6d7c10a8060c01b610e7f565b61083f67f5d666a06bb33c4460c01b610e7f565b610853677cb4371b6ed4399a60c01b610e7f565b6109096000803373ffffffffffffffffffffffffffffffffffffffff1673ffffffffffffffffffffffffffffffffffffffff16815260200190815260200160002060000160008373ffffffffffffffffffffffffffffffffffffffff1673ffffffffffffffffffffffffffffffffffffffff1681526020019081526020016000206040518060400160405290816000820160009054906101000a900460ff161515151581526020016001820154815250506115a3565b1561095f576040517f08c379a000000000000000000000000000000000000000000000000000000000815260040180806020018281038252602d815260200180611650602d913960400191505060405180910390fd5b61097367e735a617af52605160c01b610e7f565b61098767e33cdbf4aef88a5060c01b610e7f565b60016000803373ffffffffffffffffffffffffffffffffffffffff1673ffffffffffffffffffffffffffffffffffffffff16815260200190815260200160002060000160008373ffffffffffffffffffffffffffffffffffffffff1673ffffffffffffffffffffffffffffffffffffffff16815260200190815260200160002060000160006101000a81548160ff021916908315150217905550610a35677ce3d9f72cdaa78a60c01b610e7f565b60008060003373ffffffffffffffffffffffffffffffffffffffff1673ffffffffffffffffffffffffffffffffffffffff16815260200190815260200160002060000160008373ffffffffffffffffffffffffffffffffffffffff1673ffffffffffffffffffffffffffffffffffffffff16815260200190815260200160002060010181905550610ad0671628735dfb84ae9660c01b610e7f565b610ae4678b649519d29cc53660c01b610e7f565b7f27e282f7712c5b4617277759c834b86d163dfc1aad25c8c3c5926a1c9e5644683382604051808373ffffffffffffffffffffffffffffffffffffffff1681526020018273ffffffffffffffffffffffffffffffffffffffff1681526020019250505060405180910390a150565b610b6667efa3d07561546f8460c01b610e7f565b610b7a671ba4eaae3d4e034960c01b610e7f565b610b8e673a6f7ca09bfd42dc60c01b610e7f565b610ba2679ebcca8c533b9dbc60c01b610e7f565b610c2c6000803373ffffffffffffffffffffffffffffffffffffffff1673ffffffffffffffffffffffffffffffffffffffff16815260200190815260200160002060010160008381526020019081526020016000206040518060400160405290816000820160009054906101000a900460ff161515151581526020016001820154815250506115a3565b610c81576040517f08c379a000000000000000000000000000000000000000000000000000000000815260040180806020018281038252602c8152602001806116a9602c913960400191505060405180910390fd5b610c956713ae099c6bce9dde60c01b610e7f565b610ca9675773aed3ea85c30160c01b610e7f565b436000803373ffffffffffffffffffffffffffffffffffffffff1673ffffffffffffffffffffffffffffffffffffffff168152602001908152602001600020600101600083815260200190815260200160002060010181905550610d17679c70d3974e27843a60c01b610e7f565b610d2b67ef24cc7bd6a8099e60c01b610e7f565b7f87dde712783ad4895642c7a875998317a71cf424a2444eb79545ce3795431ff93382604051808373ffffffffffffffffffffffffffffffffffffffff1681526020018281526020019250505060405180910390a150565b6000610d99676b81b85a1286d62760c01b610e7f565b610dad67d0034d9fe6151e0660c01b610e7f565b610dc1672268254f0213ef7560c01b610e7f565b610e776000808573ffffffffffffffffffffffffffffffffffffffff1673ffffffffffffffffffffffffffffffffffffffff16815260200190815260200160002060000160008473ffffffffffffffffffffffffffffffffffffffff1673ffffffffffffffffffffffffffffffffffffffff1681526020019081526020016000206040518060400160405290816000820160009054906101000a900460ff161515151581526020016001820154815250506115a3565b905092915050565b50565b610e9667fc42d33a5b91c4e760c01b610e7f565b610eaa6761f6fe7017a4f30c60c01b610e7f565b610ebe67cd761b7bb73f5dc660c01b610e7f565b610ed2674a45b65bee2e582260c01b610e7f565b610f5c6000803373ffffffffffffffffffffffffffffffffffffffff1673ffffffffffffffffffffffffffffffffffffffff16815260200190815260200160002060010160008381526020019081526020016000206040518060400160405290816000820160009054906101000a900460ff161515151581526020016001820154815250506115a3565b15610fb2576040517f08c379a000000000000000000000000000000000000000000000000000000000815260040180806020018281038252602d815260200180611623602d913960400191505060405180910390fd5b610fc6675e0345ef20eba54160c01b610e7f565b610fda67555992df7ac52c8660c01b610e7f565b60016000803373ffffffffffffffffffffffffffffffffffffffff1673ffffffffffffffffffffffffffffffffffffffff168152602001908152602001600020600101600083815260200190815260200160002060000160006101000a81548160ff02191690831515021790555061105c67f06f9448ee754f1760c01b610e7f565b60008060003373ffffffffffffffffffffffffffffffffffffffff1673ffffffffffffffffffffffffffffffffffffffff1681526020019081526020016000206001016000838152602001908152602001600020600101819055506110cb670ed82138a44498fd60c01b610e7f565b6110df677dae8d6fd521797e60c01b610e7f565b7f4075b367eed0513a54aa39c287c66d6ae98e5df6f73ac087b26b8f89d05d1aa83382604051808373ffffffffffffffffffffffffffffffffffffffff1681526020018281526020019250505060405180910390a150565b61114b67ea378ea68e1b629460c01b610e7f565b61115f67145bcc9cd3d3183d60c01b610e7f565b61117367a63223f8584f637660c01b610e7f565b611187679705c8262a3b095460c01b610e7f565b61123d6000803373ffffffffffffffffffffffffffffffffffffffff1673ffffffffffffffffffffffffffffffffffffffff16815260200190815260200160002060000160008373ffffffffffffffffffffffffffffffffffffffff1673ffffffffffffffffffffffffffffffffffffffff1681526020019081526020016000206040518060400160405290816000820160009054906101000a900460ff161515151581526020016001820154815250506115a3565b611292576040517f08c379a000000000000000000000000000000000000000000000000000000000815260040180806020018281038252602c81526020018061167d602c913960400191505060405180910390fd5b6112a6674e6cf1268a99eb1b60c01b610e7f565b6112ba67d5bf471caaa2f5b860c01b610e7f565b436000803373ffffffffffffffffffffffffffffffffffffffff1673ffffffffffffffffffffffffffffffffffffffff16815260200190815260200160002060000160008373ffffffffffffffffffffffffffffffffffffffff1673ffffffffffffffffffffffffffffffffffffffff1681526020019081526020016000206001018190555061135467d70d4aa88deecfae60c01b610e7f565b6113686712fef0a1839e818c60c01b610e7f565b7f1ce3cbbc43ee231e5b950332f2b0b9dd7d349291a3ee411ce5c5c7ed745661bb3382604051808373ffffffffffffffffffffffffffffffffffffffff1681526020018273ffffffffffffffffffffffffffffffffffffffff1681526020019250505060405180910390a150565b60006113ec673b635e384cadbd5a60c01b6115f2565b6114006749cb5be08e68fbdd60c01b6115f2565b61141467aef07de83d834c1e60c01b6115f2565b600061142a67f20ba4e9a0af4e9f60c01b6115f2565b61143e674e6f9bae09b2598e60c01b6115f2565b83600001511561155c5761145c671843ed553598822a60c01b6115f2565b61147067fad08b54711ac51660c01b6115f2565b611484676e01e9d8c8255c0260c01b6115f2565b6000846020015114156114c2576114a567c603398633f5e80e60c01b6115f2565b6114b96716652c62c12d160760c01b6115f2565b60019050611557565b6114d66721efa8a4a4a7b2c960c01b6115f2565b6114ea672554a5b85780fa0860c01b6115f2565b600083141561152457611507676dd5fed330029df660c01b6115f2565b61151b671e07fb77fe22fe6f60c01b6115f2565b60019050611556565b61153867f855e82a3edb797160c01b6115f2565b61154c677c36e0ca6a0853da60c01b6115f2565b8284602001511190505b5b611571565b61157067ac1cefc0f2a5df1860c01b6115f2565b5b6115856752af1a66b351418c60c01b6115f2565b6115996774bd2ce3ad9889f960c01b6115f2565b8091505092915050565b60006115b967d6af43e18a982f2360c01b6115f2565b6115cd6762c8f3ec97bdf6f160c01b6115f2565b6115e16788044af19313f6f360c01b6115f2565b6115eb82436113d6565b9050919050565b5056fe45787465726e616c4163636f756e7452656769737472793a2063616e6e6f742061646420307830206f776e657245787465726e616c4163636f756e7452656769737472793a2070726f6f6620616c72656164792065786973747345787465726e616c4163636f756e7452656769737472793a206f776e657220616c72656164792065786973747345787465726e616c4163636f756e7452656769737472793a206f776e657220646f65736e277420657869737445787465726e616c4163636f756e7452656769737472793a2070726f6f6620646f65736e2774206578697374a164736f6c634300060c000a",
  "linkReferences": {},
  "deployedLinkReferences": {}
}