{
  "_format": "hh-sol-artifact-1",
  "contractName": "Gateway",
  "sourceName": "src/gateway/Gateway.sol",
  "abi": [
    {
      "inputs": [],
      "stateMutability": "nonpayable",
      "type": "constructor"
    },
    {
      "anonymous": false,
      "inputs": [
        {
          "indexed": false,
          "internalType": "address",
          "name": "sender",
          "type": "address"
        },
        {
          "indexed": false,
          "internalType": "bytes",
          "name": "batch",
          "type": "bytes"
        },
        {
          "indexed": false,
          "internalType": "bool",
          "name": "succeeded",
          "type": "bool"
        }
      ],
      "name": "BatchDelegated",
      "type": "event"
    },
    {
      "anonymous": false,
      "inputs": [
        {
          "indexed": false,
          "internalType": "address",
          "name": "initializer",
          "type": "address"
        }
      ],
      "name": "Initialized",
      "type": "event"
    },
    {
      "inputs": [
        {
          "internalType": "address",
          "name": "account",
          "type": "address"
        },
        {
          "internalType": "uint256",
          "name": "nonce",
          "type": "uint256"
        },
        {
          "internalType": "address[]",
          "name": "to",
          "type": "address[]"
        },
        {
          "internalType": "bytes[]",
          "name": "data",
          "type": "bytes[]"
        },
        {
          "internalType": "bytes",
          "name": "senderSignature",
          "type": "bytes"
        }
      ],
      "name": "delegateBatch",
      "outputs": [],
      "stateMutability": "nonpayable",
      "type": "function"
    },
    {
      "inputs": [
        {
          "internalType": "address",
          "name": "account",
          "type": "address"
        },
        {
          "internalType": "uint256",
          "name": "nonce",
          "type": "uint256"
        },
        {
          "internalType": "address[]",
          "name": "to",
          "type": "address[]"
        },
        {
          "internalType": "bytes[]",
          "name": "data",
          "type": "bytes[]"
        },
        {
          "internalType": "bytes",
          "name": "senderSignature",
          "type": "bytes"
        }
      ],
      "name": "delegateBatchWithGasPrice",
      "outputs": [],
      "stateMutability": "nonpayable",
      "type": "function"
    },
    {
      "inputs": [
        {
          "internalType": "bytes[]",
          "name": "batches",
          "type": "bytes[]"
        },
        {
          "internalType": "bool",
          "name": "revertOnFailure",
          "type": "bool"
        }
      ],
      "name": "delegateBatches",
      "outputs": [],
      "stateMutability": "nonpayable",
      "type": "function"
    },
    {
      "inputs": [],
      "name": "externalAccountRegistry",
      "outputs": [
        {
          "internalType": "contract ExternalAccountRegistry",
          "name": "",
          "type": "address"
        }
      ],
      "stateMutability": "view",
      "type": "function"
    },
    {
      "inputs": [
        {
          "internalType": "address",
          "name": "account",
          "type": "address"
        }
      ],
      "name": "getAccountNextNonce",
      "outputs": [
        {
          "internalType": "uint256",
          "name": "",
          "type": "uint256"
        }
      ],
      "stateMutability": "view",
      "type": "function"
    },
    {
      "inputs": [
        {
          "components": [
            {
              "internalType": "address",
              "name": "account",
              "type": "address"
            },
            {
              "internalType": "uint256",
              "name": "nonce",
              "type": "uint256"
            },
            {
              "internalType": "address[]",
              "name": "to",
              "type": "address[]"
            },
            {
              "internalType": "bytes[]",
              "name": "data",
              "type": "bytes[]"
            }
          ],
          "internalType": "struct Gateway.DelegatedBatch",
          "name": "delegatedBatch",
          "type": "tuple"
        }
      ],
      "name": "hashDelegatedBatch",
      "outputs": [
        {
          "internalType": "bytes32",
          "name": "",
          "type": "bytes32"
        }
      ],
      "stateMutability": "view",
      "type": "function"
    },
    {
      "inputs": [
        {
          "components": [
            {
              "internalType": "address",
              "name": "account",
              "type": "address"
            },
            {
              "internalType": "uint256",
              "name": "nonce",
              "type": "uint256"
            },
            {
              "internalType": "address[]",
              "name": "to",
              "type": "address[]"
            },
            {
              "internalType": "bytes[]",
              "name": "data",
              "type": "bytes[]"
            },
            {
              "internalType": "uint256",
              "name": "gasPrice",
              "type": "uint256"
            }
          ],
          "internalType": "struct Gateway.DelegatedBatchWithGasPrice",
          "name": "delegatedBatch",
          "type": "tuple"
        }
      ],
      "name": "hashDelegatedBatchWithGasPrice",
      "outputs": [
        {
          "internalType": "bytes32",
          "name": "",
          "type": "bytes32"
        }
      ],
      "stateMutability": "view",
      "type": "function"
    },
    {
      "inputs": [
        {
          "internalType": "contract ExternalAccountRegistry",
          "name": "externalAccountRegistry_",
          "type": "address"
        },
        {
          "internalType": "contract PersonalAccountRegistry",
          "name": "personalAccountRegistry_",
          "type": "address"
        },
        {
          "internalType": "bytes32",
          "name": "typedDataDomainNameHash",
          "type": "bytes32"
        },
        {
          "internalType": "bytes32",
          "name": "typedDataDomainVersionHash",
          "type": "bytes32"
        },
        {
          "internalType": "bytes32",
          "name": "typedDataDomainSalt",
          "type": "bytes32"
        }
      ],
      "name": "initialize",
      "outputs": [],
      "stateMutability": "nonpayable",
      "type": "function"
    },
    {
      "inputs": [],
      "name": "isInitialized",
      "outputs": [
        {
          "internalType": "bool",
          "name": "",
          "type": "bool"
        }
      ],
      "stateMutability": "view",
      "type": "function"
    },
    {
      "inputs": [],
      "name": "personalAccountRegistry",
      "outputs": [
        {
          "internalType": "contract PersonalAccountRegistry",
          "name": "",
          "type": "address"
        }
      ],
      "stateMutability": "view",
      "type": "function"
    },
    {
      "inputs": [
        {
          "internalType": "address[]",
          "name": "to",
          "type": "address[]"
        },
        {
          "internalType": "bytes[]",
          "name": "data",
          "type": "bytes[]"
        }
      ],
      "name": "sendBatch",
      "outputs": [],
      "stateMutability": "nonpayable",
      "type": "function"
    },
    {
      "inputs": [
        {
          "internalType": "address",
          "name": "account",
          "type": "address"
        },
        {
          "internalType": "address[]",
          "name": "to",
          "type": "address[]"
        },
        {
          "internalType": "bytes[]",
          "name": "data",
          "type": "bytes[]"
        }
      ],
      "name": "sendBatchFromAccount",
      "outputs": [],
      "stateMutability": "nonpayable",
      "type": "function"
    },
    {
      "inputs": [],
      "name": "typedDataDomainSeparator",
      "outputs": [
        {
          "internalType": "bytes32",
          "name": "",
          "type": "bytes32"
        }
      ],
      "stateMutability": "view",
      "type": "function"
    }
  ],
  "bytecode": "0x608060405234801561001057600080fd5b50326000806101000a81548173ffffffffffffffffffffffffffffffffffffffff021916908373ffffffffffffffffffffffffffffffffffffffff16021790555061271d806100606000396000f3fe608060405234801561001057600080fd5b50600436106100cf5760003560e01c806387d313131161008c578063b5021b1611610066578063b5021b16146101fc578063bd106a0214610218578063d2c83b9a14610236578063f92c5f7c14610254576100cf565b806387d31313146101a6578063984bd28f146101c45780639f255626146101e0576100cf565b8063231badaf146100d4578063392e53cd146100f05780635afaa7bb1461010e57806373e5a13f1461012a57806376db2b4c1461015a578063867519c61461018a575b600080fd5b6100ee60048036038101906100e99190611630565b610284565b005b6100f8610387565b6040516101059190612039565b60405180910390f35b6101286004803603810190610123919061175b565b6103dd565b005b610144600480360381019061013f9190611890565b6105b5565b6040516101519190612054565b60405180910390f35b610174600480360381019061016f919061184f565b6105e2565b6040516101819190612054565b60405180910390f35b6101a4600480360381019061019f91906115b1565b610614565b005b6101ae610625565b6040516101bb91906121e4565b60405180910390f35b6101de60048036038101906101d991906117d8565b61064b565b005b6101fa60048036038101906101f591906116ef565b6107e5565b005b61021660048036038101906102119190611630565b6107f5565b005b6102206108f9565b60405161022d9190612054565b60405180910390f35b61023e6108ff565b60405161024b91906121c9565b60405180910390f35b61026e60048036038101906102699190611588565b610925565b60405161027b919061237f565b60405180910390f35b600460008673ffffffffffffffffffffffffffffffffffffffff1673ffffffffffffffffffffffffffffffffffffffff168152602001908152602001600020548411610305576040517f08c379a00000000000000000000000000000000000000000000000000000000081526004016102fc9061225f565b60405180910390fd5b600061032d8261031f61031a89898989610981565b610ac2565b610b2d90919063ffffffff16565b905084600460008873ffffffffffffffffffffffffffffffffffffffff1673ffffffffffffffffffffffffffffffffffffffff1681526020019081526020016000208190555061037f86828686610be8565b505050505050565b60008073ffffffffffffffffffffffffffffffffffffffff1660008054906101000a900473ffffffffffffffffffffffffffffffffffffffff1673ffffffffffffffffffffffffffffffffffffffff1614905090565b6000825111610421576040517f08c379a00000000000000000000000000000000000000000000000000000000081526004016104189061229f565b60405180910390fd5b600080600090505b835181101561056f5760003073ffffffffffffffffffffffffffffffffffffffff1685838151811061045757fe5b602002602001015160405161046c9190611f2e565b6000604051808303816000865af19150503d80600081146104a9576040519150601f19603f3d011682016040523d82523d6000602084013e6104ae565b606091505b5050905083156104fd57806104f8576040517f08c379a00000000000000000000000000000000000000000000000000000000081526004016104ef9061223f565b60405180910390fd5b610513565b808015610508575082155b1561051257600192505b5b7f361c14722cc344132c73396113f7164232448b09c544a149f09048648b43d8723386848151811061054157fe5b60200260200101518360405161055993929190611fd2565b60405180910390a1508080600101915050610429565b50806105b0576040517f08c379a00000000000000000000000000000000000000000000000000000000081526004016105a79061235f565b60405180910390fd5b505050565b60006105db6105d68360000151846020015185604001518660600151610981565b610ac2565b9050919050565b600061060d61060883600001518460200151856040015186606001518760800151611053565b610ac2565b9050919050565b61062083338484610be8565b505050565b600360009054906101000a900473ffffffffffffffffffffffffffffffffffffffff1681565b60008054906101000a900473ffffffffffffffffffffffffffffffffffffffff1673ffffffffffffffffffffffffffffffffffffffff163273ffffffffffffffffffffffffffffffffffffffff16146106d9576040517f08c379a00000000000000000000000000000000000000000000000000000000081526004016106d09061221f565b60405180910390fd5b60008060006101000a81548173ffffffffffffffffffffffffffffffffffffffff021916908373ffffffffffffffffffffffffffffffffffffffff16021790555084600260006101000a81548173ffffffffffffffffffffffffffffffffffffffff021916908373ffffffffffffffffffffffffffffffffffffffff16021790555083600360006101000a81548173ffffffffffffffffffffffffffffffffffffffff021916908373ffffffffffffffffffffffffffffffffffffffff1602179055506107a7838383611197565b7f908408e307fc569b417f6cbec5d5a06f44a0a505ac0479b47d421a4b2fd6a1e6326040516107d69190611fb7565b60405180910390a15050505050565b6107f133338484610be8565b5050565b600460008673ffffffffffffffffffffffffffffffffffffffff1673ffffffffffffffffffffffffffffffffffffffff168152602001908152602001600020548411610876576040517f08c379a000000000000000000000000000000000000000000000000000000000815260040161086d9061225f565b60405180910390fd5b600061089f8261089161088c898989893a611053565b610ac2565b610b2d90919063ffffffff16565b905084600460008873ffffffffffffffffffffffffffffffffffffffff1673ffffffffffffffffffffffffffffffffffffffff168152602001908152602001600020819055506108f186828686610be8565b505050505050565b60015481565b600260009054906101000a900473ffffffffffffffffffffffffffffffffffffffff1681565b600061097a6001600460008573ffffffffffffffffffffffffffffffffffffffff1673ffffffffffffffffffffffffffffffffffffffff168152602001908152602001600020546111f990919063ffffffff16565b9050919050565b60006060825167ffffffffffffffff8111801561099d57600080fd5b506040519080825280602002602001820160405280156109cc5781602001602082028036833780820191505090505b50905060005b8351811015610a1b578381815181106109e757fe5b602002602001015180519060200120828281518110610a0257fe5b60200260200101818152505080806001019150506109d2565b507f6848d0622081db2451400280dead7a739a080cb93852607c381af11e289769b2868686604051602001610a509190611f00565b6040516020818303038152906040528051906020012084604051602001610a779190611f17565b60405160208183030381529060405280519060200120604051602001610aa195949392919061206f565b60405160208183030381529060405280519060200120915050949350505050565b60006040518060400160405280600281526020017f190100000000000000000000000000000000000000000000000000000000000081525060015483604051602001610b1093929190611f7e565b604051602081830303815290604052805190602001209050919050565b60008060009050604183511415610bde5760008060006020860151925060408601519150606086015160001a9050601b8160ff161015610b6e57601b810190505b601b8160ff161480610b835750601c8160ff16145b15610bda5760018782858560405160008152602001604052604051610bab9493929190612184565b6020604051602081039080840390855afa158015610bcd573d6000803e3d6000fd5b5050506020604051035193505b5050505b8091505092915050565b600073ffffffffffffffffffffffffffffffffffffffff168473ffffffffffffffffffffffffffffffffffffffff161415610c58576040517f08c379a0000000000000000000000000000000000000000000000000000000008152600401610c4f9061227f565b60405180910390fd5b6000825111610c9c576040517f08c379a0000000000000000000000000000000000000000000000000000000008152600401610c939061233f565b60405180910390fd5b8151815114610ce0576040517f08c379a0000000000000000000000000000000000000000000000000000000008152600401610cd7906122df565b60405180910390fd5b8273ffffffffffffffffffffffffffffffffffffffff168473ffffffffffffffffffffffffffffffffffffffff1614610eb457600360009054906101000a900473ffffffffffffffffffffffffffffffffffffffff1673ffffffffffffffffffffffffffffffffffffffff1663bb890d3f85856040518363ffffffff1660e01b8152600401610d70929190612010565b60206040518083038186803b158015610d8857600080fd5b505afa158015610d9c573d6000803e3d6000fd5b505050506040513d601f19601f82011682018060405250810190610dc091906117af565b80610e745750600260009054906101000a900473ffffffffffffffffffffffffffffffffffffffff1673ffffffffffffffffffffffffffffffffffffffff1663bb890d3f85856040518363ffffffff1660e01b8152600401610e23929190612010565b60206040518083038186803b158015610e3b57600080fd5b505afa158015610e4f573d6000803e3d6000fd5b505050506040513d601f19601f82011682018060405250810190610e7391906117af565b5b610eb3576040517f08c379a0000000000000000000000000000000000000000000000000000000008152600401610eaa906122bf565b60405180910390fd5b5b600080600090505b825181101561104b57600073ffffffffffffffffffffffffffffffffffffffff16848281518110610ee957fe5b602002602001015173ffffffffffffffffffffffffffffffffffffffff161415610f48576040517f08c379a0000000000000000000000000000000000000000000000000000000008152600401610f3f906121ff565b60405180910390fd5b838181518110610f5457fe5b602002602001015173ffffffffffffffffffffffffffffffffffffffff16838281518110610f7e57fe5b60200260200101518787604051602001610f9a93929190611f45565b604051602081830303815290604052604051610fb69190611f2e565b6000604051808303816000865af19150503d8060008114610ff3576040519150601f19603f3d011682016040523d82523d6000602084013e610ff8565b606091505b5050809250508161103e576040517f08c379a0000000000000000000000000000000000000000000000000000000008152600401611035906122ff565b60405180910390fd5b8080600101915050610ebc565b505050505050565b60006060835167ffffffffffffffff8111801561106f57600080fd5b5060405190808252806020026020018201604052801561109e5781602001602082028036833780820191505090505b50905060005b84518110156110ed578481815181106110b957fe5b6020026020010151805190602001208282815181106110d457fe5b60200260200101818152505080806001019150506110a4565b507f6f4e1b2b1e5e49f4269e19e16e67a00cb0a796d96d30be3e4b540d3732e8bcad8787876040516020016111229190611f00565b60405160208183030381529060405280519060200120846040516020016111499190611f17565b6040516020818303038152906040528051906020012087604051602001611175969594939291906120c2565b6040516020818303038152906040528051906020012091505095945050505050565b60004690507fd87cd6ef79d4e2b95e15ce8abf732db51ec771f1ca2edccf22a46c729ac5647284848330866040516020016111d796959493929190612123565b6040516020818303038152906040528051906020012060018190555050505050565b600080828401905083811015611244576040517f08c379a000000000000000000000000000000000000000000000000000000000815260040161123b9061231f565b60405180910390fd5b8091505092915050565b60008135905061125d81612686565b92915050565b600082601f83011261127457600080fd5b8135611287611282826123c7565b61239a565b915081818352602084019350602081019050838560208402820111156112ac57600080fd5b60005b838110156112dc57816112c2888261124e565b8452602084019350602083019250506001810190506112af565b5050505092915050565b600082601f8301126112f757600080fd5b813561130a611305826123ef565b61239a565b9150818183526020840193506020810190508360005b8381101561135057813586016113368882611399565b845260208401935060208301925050600181019050611320565b5050505092915050565b6000813590506113698161269d565b92915050565b60008151905061137e8161269d565b92915050565b600081359050611393816126b4565b92915050565b600082601f8301126113aa57600080fd5b81356113bd6113b882612417565b61239a565b915080825260208301602083018583830111156113d957600080fd5b6113e48382846125f8565b50505092915050565b6000813590506113fc816126cb565b92915050565b600081359050611411816126e2565b92915050565b600060a0828403121561142957600080fd5b61143360a061239a565b905060006114438482850161124e565b600083015250602061145784828501611573565b602083015250604082013567ffffffffffffffff81111561147757600080fd5b61148384828501611263565b604083015250606082013567ffffffffffffffff8111156114a357600080fd5b6114af848285016112e6565b60608301525060806114c384828501611573565b60808301525092915050565b6000608082840312156114e157600080fd5b6114eb608061239a565b905060006114fb8482850161124e565b600083015250602061150f84828501611573565b602083015250604082013567ffffffffffffffff81111561152f57600080fd5b61153b84828501611263565b604083015250606082013567ffffffffffffffff81111561155b57600080fd5b611567848285016112e6565b60608301525092915050565b600081359050611582816126f9565b92915050565b60006020828403121561159a57600080fd5b60006115a88482850161124e565b91505092915050565b6000806000606084860312156115c657600080fd5b60006115d48682870161124e565b935050602084013567ffffffffffffffff8111156115f157600080fd5b6115fd86828701611263565b925050604084013567ffffffffffffffff81111561161a57600080fd5b611626868287016112e6565b9150509250925092565b600080600080600060a0868803121561164857600080fd5b60006116568882890161124e565b955050602061166788828901611573565b945050604086013567ffffffffffffffff81111561168457600080fd5b61169088828901611263565b935050606086013567ffffffffffffffff8111156116ad57600080fd5b6116b9888289016112e6565b925050608086013567ffffffffffffffff8111156116d657600080fd5b6116e288828901611399565b9150509295509295909350565b6000806040838503121561170257600080fd5b600083013567ffffffffffffffff81111561171c57600080fd5b61172885828601611263565b925050602083013567ffffffffffffffff81111561174557600080fd5b611751858286016112e6565b9150509250929050565b6000806040838503121561176e57600080fd5b600083013567ffffffffffffffff81111561178857600080fd5b611794858286016112e6565b92505060206117a58582860161135a565b9150509250929050565b6000602082840312156117c157600080fd5b60006117cf8482850161136f565b91505092915050565b600080600080600060a086880312156117f057600080fd5b60006117fe888289016113ed565b955050602061180f88828901611402565b945050604061182088828901611384565b935050606061183188828901611384565b925050608061184288828901611384565b9150509295509295909350565b60006020828403121561186157600080fd5b600082013567ffffffffffffffff81111561187b57600080fd5b61188784828501611417565b91505092915050565b6000602082840312156118a257600080fd5b600082013567ffffffffffffffff8111156118bc57600080fd5b6118c8848285016114cf565b91505092915050565b60006118dd838361191f565b60208301905092915050565b60006118f58383611a1f565b60208301905092915050565b61190a8161257a565b82525050565b611919816124f7565b82525050565b611928816124f7565b82525050565b61193f61193a826124f7565b61263a565b82525050565b600061195082612463565b61195a81856124a9565b935061196583612443565b8060005b8381101561199657815161197d88826118d1565b97506119888361248f565b925050600181019050611969565b5085935050505092915050565b60006119ae8261246e565b6119b881856124b4565b93506119c383612453565b8060005b838110156119f45781516119db88826118e9565b97506119e68361249c565b9250506001810190506119c7565b5085935050505092915050565b611a0a81612509565b82525050565b611a1981612515565b82525050565b611a2881612515565b82525050565b611a3f611a3a82612515565b61264c565b82525050565b6000611a5082612479565b611a5a81856124bf565b9350611a6a818560208601612607565b611a7381612668565b840191505092915050565b6000611a8982612479565b611a9381856124d0565b9350611aa3818560208601612607565b80840191505092915050565b611ab88161258c565b82525050565b611ac7816125b0565b82525050565b6000611ad882612484565b611ae281856124ec565b9350611af2818560208601612607565b80840191505092915050565b6000611b0b601b836124db565b91507f476174657761793a2063616e6e6f742073656e6420746f2030783000000000006000830152602082019050919050565b6000611b4b602f836124db565b91507f496e697469616c697a61626c653a2074782e6f726967696e206973206e6f742060008301527f74686520696e697469616c697a657200000000000000000000000000000000006020830152604082019050919050565b6000611bb16017836124db565b91507f476174657761793a2062617463682072657665727465640000000000000000006000830152602082019050919050565b6000611bf16032836124db565b91507f476174657761793a206e6f6e6365206973206c6f776572207468616e2063757260008301527f72656e74206163636f756e74206e6f6e636500000000000000000000000000006020830152604082019050919050565b6000611c576025836124db565b91507f476174657761793a2063616e6e6f742073656e642066726f6d2030783020616360008301527f636f756e740000000000000000000000000000000000000000000000000000006020830152604082019050919050565b6000611cbd6026836124db565b91507f476174657761793a2063616e6e6f742064656c656761746520656d707479206260008301527f61746368657300000000000000000000000000000000000000000000000000006020830152604082019050919050565b6000611d236028836124db565b91507f476174657761793a2073656e646572206973206e6f7420746865206163636f7560008301527f6e74206f776e65720000000000000000000000000000000000000000000000006020830152604082019050919050565b6000611d896016836124db565b91507f476174657761793a20696e76616c6964206261746368000000000000000000006000830152602082019050919050565b6000611dc96023836124db565b91507f476174657761793a206261746368207472616e73616374696f6e20726576657260008301527f74656400000000000000000000000000000000000000000000000000000000006020830152604082019050919050565b6000611e2f601e836124db565b91507f536166654d6174684c69623a206164646974696f6e206f766572666c6f7700006000830152602082019050919050565b6000611e6f6020836124db565b91507f476174657761793a2063616e6e6f742073656e6420656d7074792062617463686000830152602082019050919050565b6000611eaf601d836124db565b91507f476174657761793a20616c6c20626174636865732072657665727465640000006000830152602082019050919050565b611eeb81612563565b82525050565b611efa8161256d565b82525050565b6000611f0c8284611945565b915081905092915050565b6000611f2382846119a3565b915081905092915050565b6000611f3a8284611a7e565b915081905092915050565b6000611f518286611a7e565b9150611f5d828561192e565b601482019150611f6d828461192e565b601482019150819050949350505050565b6000611f8a8286611acd565b9150611f968285611a2e565b602082019150611fa68284611a2e565b602082019150819050949350505050565b6000602082019050611fcc6000830184611901565b92915050565b6000606082019050611fe76000830186611901565b8181036020830152611ff98185611a45565b90506120086040830184611a01565b949350505050565b60006040820190506120256000830185611910565b6120326020830184611910565b9392505050565b600060208201905061204e6000830184611a01565b92915050565b60006020820190506120696000830184611a10565b92915050565b600060a0820190506120846000830188611a10565b6120916020830187611910565b61209e6040830186611ee2565b6120ab6060830185611a10565b6120b86080830184611a10565b9695505050505050565b600060c0820190506120d76000830189611a10565b6120e46020830188611910565b6120f16040830187611ee2565b6120fe6060830186611a10565b61210b6080830185611a10565b61211860a0830184611ee2565b979650505050505050565b600060c0820190506121386000830189611a10565b6121456020830188611a10565b6121526040830187611a10565b61215f6060830186611ee2565b61216c6080830185611910565b61217960a0830184611a10565b979650505050505050565b60006080820190506121996000830187611a10565b6121a66020830186611ef1565b6121b36040830185611a10565b6121c06060830184611a10565b95945050505050565b60006020820190506121de6000830184611aaf565b92915050565b60006020820190506121f96000830184611abe565b92915050565b6000602082019050818103600083015261221881611afe565b9050919050565b6000602082019050818103600083015261223881611b3e565b9050919050565b6000602082019050818103600083015261225881611ba4565b9050919050565b6000602082019050818103600083015261227881611be4565b9050919050565b6000602082019050818103600083015261229881611c4a565b9050919050565b600060208201905081810360008301526122b881611cb0565b9050919050565b600060208201905081810360008301526122d881611d16565b9050919050565b600060208201905081810360008301526122f881611d7c565b9050919050565b6000602082019050818103600083015261231881611dbc565b9050919050565b6000602082019050818103600083015261233881611e22565b9050919050565b6000602082019050818103600083015261235881611e62565b9050919050565b6000602082019050818103600083015261237881611ea2565b9050919050565b60006020820190506123946000830184611ee2565b92915050565b6000604051905081810181811067ffffffffffffffff821117156123bd57600080fd5b8060405250919050565b600067ffffffffffffffff8211156123de57600080fd5b602082029050602081019050919050565b600067ffffffffffffffff82111561240657600080fd5b602082029050602081019050919050565b600067ffffffffffffffff82111561242e57600080fd5b601f19601f8301169050602081019050919050565b6000819050602082019050919050565b6000819050602082019050919050565b600081519050919050565b600081519050919050565b600081519050919050565b600081519050919050565b6000602082019050919050565b6000602082019050919050565b600081905092915050565b600081905092915050565b600082825260208201905092915050565b600081905092915050565b600082825260208201905092915050565b600081905092915050565b600061250282612543565b9050919050565b60008115159050919050565b6000819050919050565b600061252a826124f7565b9050919050565b600061253c826124f7565b9050919050565b600073ffffffffffffffffffffffffffffffffffffffff82169050919050565b6000819050919050565b600060ff82169050919050565b6000612585826125d4565b9050919050565b60006125978261259e565b9050919050565b60006125a982612543565b9050919050565b60006125bb826125c2565b9050919050565b60006125cd82612543565b9050919050565b60006125df826125e6565b9050919050565b60006125f182612543565b9050919050565b82818337600083830152505050565b60005b8381101561262557808201518184015260208101905061260a565b83811115612634576000848401525b50505050565b600061264582612656565b9050919050565b6000819050919050565b600061266182612679565b9050919050565b6000601f19601f8301169050919050565b60008160601b9050919050565b61268f816124f7565b811461269a57600080fd5b50565b6126a681612509565b81146126b157600080fd5b50565b6126bd81612515565b81146126c857600080fd5b50565b6126d48161251f565b81146126df57600080fd5b50565b6126eb81612531565b81146126f657600080fd5b50565b61270281612563565b811461270d57600080fd5b5056fea164736f6c634300060c000a",
  "linkReferences": {},
  "deployedLinkReferences": {}
}