{
  "_format": "hh-sol-artifact-1",
  "contractName": "Gateway",
  "sourceName": "src/gateway/Gateway.sol",
  "abi": [
    {
      "inputs": [],
      "stateMutability": "nonpayable",
      "type": "constructor"
    },
    {
      "anonymous": false,
      "inputs": [
        {
          "indexed": false,
          "internalType": "address",
          "name": "sender",
          "type": "address"
        },
        {
          "indexed": false,
          "internalType": "bytes",
          "name": "batch",
          "type": "bytes"
        },
        {
          "indexed": false,
          "internalType": "bool",
          "name": "succeeded",
          "type": "bool"
        }
      ],
      "name": "BatchDelegated",
      "type": "event"
    },
    {
      "anonymous": false,
      "inputs": [
        {
          "indexed": false,
          "internalType": "address",
          "name": "initializer",
          "type": "address"
        }
      ],
      "name": "Initialized",
      "type": "event"
    },
    {
      "inputs": [
        {
          "internalType": "bytes8",
          "name": "c__098c0657",
          "type": "bytes8"
        }
      ],
      "name": "c_098c0657",
      "outputs": [],
      "stateMutability": "pure",
      "type": "function"
    },
    {
      "inputs": [
        {
          "internalType": "bytes8",
          "name": "c__4b81551d",
          "type": "bytes8"
        }
      ],
      "name": "c_4b81551d",
      "outputs": [],
      "stateMutability": "pure",
      "type": "function"
    },
    {
      "inputs": [
        {
          "internalType": "bytes8",
          "name": "c__52615ca8",
          "type": "bytes8"
        }
      ],
      "name": "c_52615ca8",
      "outputs": [],
      "stateMutability": "pure",
      "type": "function"
    },
    {
      "inputs": [
        {
          "internalType": "bytes8",
          "name": "c__098c0657",
          "type": "bytes8"
        }
      ],
      "name": "c_false098c0657",
      "outputs": [
        {
          "internalType": "bool",
          "name": "",
          "type": "bool"
        }
      ],
      "stateMutability": "pure",
      "type": "function"
    },
    {
      "inputs": [
        {
          "internalType": "bytes8",
          "name": "c__4b81551d",
          "type": "bytes8"
        }
      ],
      "name": "c_false4b81551d",
      "outputs": [
        {
          "internalType": "bool",
          "name": "",
          "type": "bool"
        }
      ],
      "stateMutability": "pure",
      "type": "function"
    },
    {
      "inputs": [
        {
          "internalType": "bytes8",
          "name": "c__52615ca8",
          "type": "bytes8"
        }
      ],
      "name": "c_false52615ca8",
      "outputs": [
        {
          "internalType": "bool",
          "name": "",
          "type": "bool"
        }
      ],
      "stateMutability": "pure",
      "type": "function"
    },
    {
      "inputs": [
        {
          "internalType": "bytes8",
          "name": "c__098c0657",
          "type": "bytes8"
        }
      ],
      "name": "c_true098c0657",
      "outputs": [
        {
          "internalType": "bool",
          "name": "",
          "type": "bool"
        }
      ],
      "stateMutability": "pure",
      "type": "function"
    },
    {
      "inputs": [
        {
          "internalType": "bytes8",
          "name": "c__4b81551d",
          "type": "bytes8"
        }
      ],
      "name": "c_true4b81551d",
      "outputs": [
        {
          "internalType": "bool",
          "name": "",
          "type": "bool"
        }
      ],
      "stateMutability": "pure",
      "type": "function"
    },
    {
      "inputs": [
        {
          "internalType": "bytes8",
          "name": "c__52615ca8",
          "type": "bytes8"
        }
      ],
      "name": "c_true52615ca8",
      "outputs": [
        {
          "internalType": "bool",
          "name": "",
          "type": "bool"
        }
      ],
      "stateMutability": "pure",
      "type": "function"
    },
    {
      "inputs": [],
      "name": "chainId",
      "outputs": [
        {
          "internalType": "uint256",
          "name": "",
          "type": "uint256"
        }
      ],
      "stateMutability": "view",
      "type": "function"
    },
    {
      "inputs": [
        {
          "internalType": "address",
          "name": "account",
          "type": "address"
        },
        {
          "internalType": "uint256",
          "name": "nonce",
          "type": "uint256"
        },
        {
          "internalType": "address[]",
          "name": "to",
          "type": "address[]"
        },
        {
          "internalType": "bytes[]",
          "name": "data",
          "type": "bytes[]"
        },
        {
          "internalType": "bytes",
          "name": "senderSignature",
          "type": "bytes"
        }
      ],
      "name": "delegateBatch",
      "outputs": [],
      "stateMutability": "nonpayable",
      "type": "function"
    },
    {
      "inputs": [
        {
          "internalType": "address",
          "name": "account",
          "type": "address"
        },
        {
          "internalType": "uint256",
          "name": "nonce",
          "type": "uint256"
        },
        {
          "internalType": "address[]",
          "name": "to",
          "type": "address[]"
        },
        {
          "internalType": "bytes[]",
          "name": "data",
          "type": "bytes[]"
        },
        {
          "internalType": "bytes",
          "name": "senderSignature",
          "type": "bytes"
        }
      ],
      "name": "delegateBatchWithGasPrice",
      "outputs": [],
      "stateMutability": "nonpayable",
      "type": "function"
    },
    {
      "inputs": [
        {
          "internalType": "bytes[]",
          "name": "batches",
          "type": "bytes[]"
        },
        {
          "internalType": "bool",
          "name": "revertOnFailure",
          "type": "bool"
        }
      ],
      "name": "delegateBatches",
      "outputs": [],
      "stateMutability": "nonpayable",
      "type": "function"
    },
    {
      "inputs": [],
      "name": "externalAccountRegistry",
      "outputs": [
        {
          "internalType": "contract ExternalAccountRegistry",
          "name": "",
          "type": "address"
        }
      ],
      "stateMutability": "view",
      "type": "function"
    },
    {
      "inputs": [
        {
          "internalType": "address",
          "name": "account",
          "type": "address"
        }
      ],
      "name": "getAccountNextNonce",
      "outputs": [
        {
          "internalType": "uint256",
          "name": "",
          "type": "uint256"
        }
      ],
      "stateMutability": "view",
      "type": "function"
    },
    {
      "inputs": [
        {
          "components": [
            {
              "internalType": "address",
              "name": "account",
              "type": "address"
            },
            {
              "internalType": "uint256",
              "name": "nonce",
              "type": "uint256"
            },
            {
              "internalType": "address[]",
              "name": "to",
              "type": "address[]"
            },
            {
              "internalType": "bytes[]",
              "name": "data",
              "type": "bytes[]"
            }
          ],
          "internalType": "struct Gateway.DelegatedBatch",
          "name": "delegatedBatch",
          "type": "tuple"
        }
      ],
      "name": "hashDelegatedBatch",
      "outputs": [
        {
          "internalType": "bytes32",
          "name": "",
          "type": "bytes32"
        }
      ],
      "stateMutability": "view",
      "type": "function"
    },
    {
      "inputs": [
        {
          "components": [
            {
              "internalType": "address",
              "name": "account",
              "type": "address"
            },
            {
              "internalType": "uint256",
              "name": "nonce",
              "type": "uint256"
            },
            {
              "internalType": "address[]",
              "name": "to",
              "type": "address[]"
            },
            {
              "internalType": "bytes[]",
              "name": "data",
              "type": "bytes[]"
            },
            {
              "internalType": "uint256",
              "name": "gasPrice",
              "type": "uint256"
            }
          ],
          "internalType": "struct Gateway.DelegatedBatchWithGasPrice",
          "name": "delegatedBatch",
          "type": "tuple"
        }
      ],
      "name": "hashDelegatedBatchWithGasPrice",
      "outputs": [
        {
          "internalType": "bytes32",
          "name": "",
          "type": "bytes32"
        }
      ],
      "stateMutability": "view",
      "type": "function"
    },
    {
      "inputs": [
        {
          "internalType": "contract ExternalAccountRegistry",
          "name": "externalAccountRegistry_",
          "type": "address"
        },
        {
          "internalType": "contract PersonalAccountRegistry",
          "name": "personalAccountRegistry_",
          "type": "address"
        }
      ],
      "name": "initialize",
      "outputs": [],
      "stateMutability": "nonpayable",
      "type": "function"
    },
    {
      "inputs": [],
      "name": "isInitialized",
      "outputs": [
        {
          "internalType": "bool",
          "name": "",
          "type": "bool"
        }
      ],
      "stateMutability": "view",
      "type": "function"
    },
    {
      "inputs": [],
      "name": "personalAccountRegistry",
      "outputs": [
        {
          "internalType": "contract PersonalAccountRegistry",
          "name": "",
          "type": "address"
        }
      ],
      "stateMutability": "view",
      "type": "function"
    },
    {
      "inputs": [
        {
          "internalType": "address[]",
          "name": "to",
          "type": "address[]"
        },
        {
          "internalType": "bytes[]",
          "name": "data",
          "type": "bytes[]"
        }
      ],
      "name": "sendBatch",
      "outputs": [],
      "stateMutability": "nonpayable",
      "type": "function"
    },
    {
      "inputs": [
        {
          "internalType": "address",
          "name": "account",
          "type": "address"
        },
        {
          "internalType": "address[]",
          "name": "to",
          "type": "address[]"
        },
        {
          "internalType": "bytes[]",
          "name": "data",
          "type": "bytes[]"
        }
      ],
      "name": "sendBatchFromAccount",
      "outputs": [],
      "stateMutability": "nonpayable",
      "type": "function"
    }
  ],
  "bytecode": "0x60806040523480156200001157600080fd5b506200002e67bcc9be562f8a4b0a60c01b6200014560201b60201c565b6200004a67579ae7209daca85260c01b6200014560201b60201c565b326000806101000a81548173ffffffffffffffffffffffffffffffffffffffff021916908373ffffffffffffffffffffffffffffffffffffffff160217905550620000a6676b19898ae2f7725060c01b6200014860201b60201c565b620000c2677c2d0c907f0deddc60c01b6200014860201b60201c565b620000de67f0d1a438b0305bb160c01b6200014860201b60201c565b6000620000fc6737bb5abaf3e7d9d360c01b6200014860201b60201c565b4690506200011b676f86a9c0c67bb39a60c01b6200014860201b60201c565b80600181905550506200013f677c1450e034caf90e60c01b6200014b60201b60201c565b6200014e565b50565b50565b50565b6134c9806200015e6000396000f3fe608060405234801561001057600080fd5b50600436106101425760003560e01c80639a8a0592116100b8578063c3e315871161007c578063c3e3158714610371578063c4543305146103a1578063d2c83b9a146103d1578063d6de3a60146103ef578063d84fa10c1461040b578063f92c5f7c1461043b57610142565b80639a8a0592146102cf5780639f255626146102ed578063ae1a7ece14610309578063b5021b1614610339578063bcd483641461035557610142565b80635afaa7bb1161010a5780635afaa7bb146101e95780636a8477281461020557806373e5a13f1461023557806376db2b4c14610265578063867519c61461029557806387d31313146102b157610142565b8063231badaf146101475780632c4bbae614610163578063392e53cd146101935780633e260b13146101b1578063485cc955146101cd575b600080fd5b610161600480360381019061015c91906124a0565b61046b565b005b61017d60048036038101906101789190612648565b61062e565b60405161018a9190612f02565b60405180910390f35b61019b610635565b6040516101a89190612f02565b60405180910390f35b6101cb60048036038101906101c69190612648565b6106c8565b005b6101e760048036038101906101e29190612671565b6106cb565b005b61020360048036038101906101fe91906125cb565b61096f565b005b61021f600480360381019061021a9190612648565b610db5565b60405161022c9190612f02565b60405180910390f35b61024f600480360381019061024a91906126ee565b610dbc565b60405161025c9190612f1d565b60405180910390f35b61027f600480360381019061027a91906126ad565b610e1d565b60405161028c9190612f1d565b60405180910390f35b6102af60048036038101906102aa9190612421565b610e83565b005b6102b9610ed0565b6040516102c69190612f98565b60405180910390f35b6102d7610ef6565b6040516102e49190613133565b60405180910390f35b6103076004803603810190610302919061255f565b610efc565b005b610323600480360381019061031e9190612648565b610f48565b6040516103309190612f02565b60405180910390f35b610353600480360381019061034e91906124a0565b610f53565b005b61036f600480360381019061036a9190612648565b611117565b005b61038b60048036038101906103869190612648565b61111a565b6040516103989190612f02565b60405180910390f35b6103bb60048036038101906103b69190612648565b611125565b6040516103c89190612f02565b60405180910390f35b6103d9611130565b6040516103e69190612f7d565b60405180910390f35b61040960048036038101906104049190612648565b611156565b005b61042560048036038101906104209190612648565b611159565b6040516104329190612f02565b60405180910390f35b610455600480360381019061045091906123f8565b611160565b6040516104629190613133565b60405180910390f35b61047f676d2b441ca5b2d66f60c01b611156565b61049367cba441f73d5890c760c01b611156565b6104a767134063f4b41abd4260c01b611156565b6104bb674032e611215d082760c01b611156565b600460008673ffffffffffffffffffffffffffffffffffffffff1673ffffffffffffffffffffffffffffffffffffffff16815260200190815260200160002054841161053c576040517f08c379a000000000000000000000000000000000000000000000000000000000815260040161053390613013565b60405180910390fd5b61055067a9d439bfdf6eb1cc60c01b611156565b610564671f234de3a0d2f60460c01b611156565b61057867f304f663a1c4bbaf60c01b611156565b60006105988261058a888888886111f8565b61129790919063ffffffff16565b90506105ae6756b8cff0e930311760c01b611156565b84600460008873ffffffffffffffffffffffffffffffffffffffff1673ffffffffffffffffffffffffffffffffffffffff1681526020019081526020016000208190555061060667ee6e52e5d015606460c01b611156565b61061a67bc70da3bfe9cf97760c01b611156565b6106268682868661159f565b505050505050565b6000919050565b600061064b67e29fe2f351ca6b2760c01b6106c8565b61065f676f5dd3f08b97747760c01b6106c8565b610673673a9488d62818322a60c01b6106c8565b600073ffffffffffffffffffffffffffffffffffffffff1660008054906101000a900473ffffffffffffffffffffffffffffffffffffffff1673ffffffffffffffffffffffffffffffffffffffff1614905090565b50565b6106df6795203fae258cd5a860c01b611156565b6106f367d2ba19feb39e0b7f60c01b6106c8565b610707670c5ad53cdb9edd1560c01b6106c8565b61071b67b6b588d2ebb9ae6960c01b6106c8565b61072f67c4ec9a90a885875260c01b6106c8565b60008054906101000a900473ffffffffffffffffffffffffffffffffffffffff1673ffffffffffffffffffffffffffffffffffffffff163273ffffffffffffffffffffffffffffffffffffffff16146107bd576040517f08c379a00000000000000000000000000000000000000000000000000000000081526004016107b490612fd3565b60405180910390fd5b6107d167c3785ba1534db95460c01b6106c8565b6107e567e4202927591248ef60c01b6106c8565b60008060006101000a81548173ffffffffffffffffffffffffffffffffffffffff021916908373ffffffffffffffffffffffffffffffffffffffff16021790555061083a67531cfa2817fbdc8660c01b6106c8565b61084e67d52395001d86cd9860c01b611156565b6108626748cf248005035c7260c01b611156565b610876670a50f00a10ef795e60c01b611156565b81600260006101000a81548173ffffffffffffffffffffffffffffffffffffffff021916908373ffffffffffffffffffffffffffffffffffffffff1602179055506108cb67a40b8397769de3a960c01b611156565b80600360006101000a81548173ffffffffffffffffffffffffffffffffffffffff021916908373ffffffffffffffffffffffffffffffffffffffff1602179055506109206701520f419008b58e60c01b6106c8565b6109346775364c04848b013b60c01b6106c8565b7f908408e307fc569b417f6cbec5d5a06f44a0a505ac0479b47d421a4b2fd6a1e6326040516109639190612e80565b60405180910390a15050565b61098367cbe3a3b6e4a32fb560c01b611156565b61099767cee3ab3e7b19a5c460c01b611156565b6109ab67ad364c560a61b40260c01b611156565b6109bf678d9e04abff0f7afa60c01b611156565b6000825111610a03576040517f08c379a00000000000000000000000000000000000000000000000000000000081526004016109fa90613053565b60405180910390fd5b610a17670fb165cf3195236b60c01b611156565b610a2b6726dade9b5adc877e60c01b611156565b610a3f672e7fc91247b2388a60c01b611156565b6000610a55679dfb6fb8f247e20f60c01b611156565b610a6967873d96ccafa2ea2460c01b611156565b60005b8351811015610cf757610a89673a6281b857c1883a60c01b611156565b610a9d67bb13b5f81353d86f60c01b611156565b60003073ffffffffffffffffffffffffffffffffffffffff16858381518110610ac257fe5b6020026020010151604051610ad79190612d9c565b6000604051808303816000865af19150503d8060008114610b14576040519150601f19603f3d011682016040523d82523d6000602084013e610b19565b606091505b50509050610b31673392a3ac8b79ec4760c01b611156565b610b4567c4bf08d594dff7aa60c01b611156565b8315610bf457610b5f6748ba6292bfbddc1260c01b611156565b610b736715e78cb2b9b4d50760c01b611156565b610b8767766a2b91bb03a82360c01b611156565b610b9b6761f9a7df4f4be02f60c01b611156565b80610bdb576040517f08c379a0000000000000000000000000000000000000000000000000000000008152600401610bd290612ff3565b60405180910390fd5b610bef671dd77e7c6333973b60c01b611156565b610c73565b610c086796fadd9814b4767c60c01b611156565b610c1c676b5b88a65ae31eeb60c01b611156565b808015610c27575082155b15610c5d57610c4067bad296d6579f896960c01b611156565b610c5467ca846dec5f0adb7160c01b611156565b60019250610c72565b610c7167c6e3aeb1a5181ce760c01b611156565b5b5b610c876740d2a01cdd1cac7860c01b611156565b610c9b676545d9424f37f96960c01b611156565b7f361c14722cc344132c73396113f7164232448b09c544a149f09048648b43d87233868481518110610cc957fe5b602002602001015183604051610ce193929190612e9b565b60405180910390a1508080600101915050610a6c565b50610d0c677728c6b8ac36981860c01b611156565b610d2067525bb1495be5234360c01b611156565b80610d9c57610d39675e3936a6ac769cc960c01b611156565b610d4d6752887c54c4be9b9e60c01b611156565b610d616749f1236db1207ec760c01b611156565b6040517f08c379a0000000000000000000000000000000000000000000000000000000008152600401610d9390613113565b60405180910390fd5b610db0676fbce0a45d81c8a660c01b611156565b505050565b6000919050565b6000610dd267af82c1046377360460c01b611156565b610de6674039be855323d8d660c01b611156565b610dfa67cf045155f85786c160c01b611156565b610e1682600001518360200151846040015185606001516111f8565b9050919050565b6000610e3367e3b9509f75e5eb8f60c01b611156565b610e4767d5f865209da52da660c01b611156565b610e5b671deb6cb53ce04c8c60c01b611156565b610e7c82600001518360200151846040015185606001518660800151611cec565b9050919050565b610e9767c9e4754bee58077660c01b611156565b610eab6755041238e510c8a460c01b611156565b610ebf679b158f7ea217dd5060c01b611156565b610ecb8333848461159f565b505050565b600360009054906101000a900473ffffffffffffffffffffffffffffffffffffffff1681565b60015481565b610f10677463f60ab55aa43c60c01b611156565b610f2467310201c2495c1a7060c01b611156565b610f38679792be76dd7fb25a60c01b611156565b610f443333848461159f565b5050565b600060019050919050565b610f6767e2e28a3fd543159560c01b611156565b610f7b67ecd11683dce0448160c01b611156565b610f8f675f914ba846473bb960c01b611156565b610fa3672f7ced2e8998afa060c01b611156565b600460008673ffffffffffffffffffffffffffffffffffffffff1673ffffffffffffffffffffffffffffffffffffffff168152602001908152602001600020548411611024576040517f08c379a000000000000000000000000000000000000000000000000000000000815260040161101b90613013565b60405180910390fd5b611038677b910af083a9208f60c01b611156565b61104c67916f7b8e6d440ebc60c01b611156565b611060678027492c5b06d5cf60c01b611156565b600061108182611073888888883a611cec565b61129790919063ffffffff16565b905061109767e1c9417306b4124060c01b611156565b84600460008873ffffffffffffffffffffffffffffffffffffffff1673ffffffffffffffffffffffffffffffffffffffff168152602001908152602001600020819055506110ef671b875e4d0564a09360c01b611156565b611103675c1861a0762d6a8760c01b611156565b61110f8682868661159f565b505050505050565b50565b600060019050919050565b600060019050919050565b600260009054906101000a900473ffffffffffffffffffffffffffffffffffffffff1681565b50565b6000919050565b600061117667fc9e932269ec50dc60c01b611156565b61118a6725c1a24b83a9221a60c01b611156565b61119e678a8fbbe0a9c15aa760c01b611156565b6111f16001600460008573ffffffffffffffffffffffffffffffffffffffff1673ffffffffffffffffffffffffffffffffffffffff16815260200190815260200160002054611d8e90919063ffffffff16565b9050919050565b600061120e67eda742b77289556460c01b611156565b611222674b697a77cafec65a60c01b611156565b611236676541c42e522f19c060c01b611156565b61128d7f6848d0622081db2451400280dead7a739a080cb93852607c381af11e289769b286868661126687611e98565b6040516020016112799493929190612cff565b604051602081830303815290604052611fc4565b9050949350505050565b60006112ad670d75db982ec4597160c01b612041565b6112c16725c2c60ab754182560c01b612041565b6112d5673eb64a254569ed0660c01b612041565b60006112eb67fb2a2286066e15e460c01b612041565b6112ff67a440db11ec9e986d60c01b612041565b6041835114156115585761131d6704a5aada48e2763260c01b612041565b611331674b98cf1796e5c26660c01b612041565b61134567d2dfec7b159385fc60c01b612041565b600061135b6772c2a840621b4aa760c01b612041565b61136f67bfd411e6ba4d07c460c01b612041565b600061138567145d23f82764ba9960c01b612041565b61139967acdff958a9c6c5dd60c01b612041565b60006113af673b79e3a80932a6a160c01b612041565b6020860151925060408601519150606086015160001a90506113db679b0cdee01a57ea2f60c01b612041565b6113ef675dbf88583373227960c01b612041565b601b8160ff16101561142e5761140f670dc9a1836eb51c3260c01b612041565b611423677097d8456a6c3e1560c01b612041565b601b81019050611443565b6114426708b39c61216869e760c01b612041565b5b611457672ea4d6db7d2138c560c01b612041565b61146b679ad3f461195a5eee60c01b612041565b601b8160ff1614801561148e575061148d67a24e972b59dc7d0560c01b612044565b5b806114b85750601c8160ff161480156114b757506114b667934bee4849491d9560c01b612044565b5b5b1561153b576114d1676d6a491fc6e072fa60c01b612041565b6114e567aecd1690d1de9f1c60c01b612041565b600187828585604051600081526020016040526040516115089493929190612f38565b6020604051602081039080840390855afa15801561152a573d6000803e3d6000fd5b505050602060405103519350611550565b61154f67513fbc3b3a0ad1c060c01b612041565b5b50505061156d565b61156c6723d6d78de386c96660c01b612041565b5b6115816707d0c4f11e72cfc960c01b612041565b61159567b9689b22f403636c60c01b612041565b8091505092915050565b6115b3673dc6b1fd578a592f60c01b611156565b6115c7675b12e7ee60d8c7a460c01b611156565b6115db6716dd37c4e900fda160c01b611156565b6115ef67aef774dd43d78e1260c01b611156565b600073ffffffffffffffffffffffffffffffffffffffff168473ffffffffffffffffffffffffffffffffffffffff16141561165f576040517f08c379a000000000000000000000000000000000000000000000000000000000815260040161165690613033565b60405180910390fd5b61167367bb8ef6bfca66485960c01b611156565b6116876777214430d6b2247660c01b611156565b61169b67cc7243b862e92dc960c01b611156565b6116af674b1049b37cc0441a60c01b611156565b60008251116116f3576040517f08c379a00000000000000000000000000000000000000000000000000000000081526004016116ea906130f3565b60405180910390fd5b61170767a401c78b6842967b60c01b611156565b61171b676bc409b80f9cc97560c01b611156565b61172f670c21a13c3f0af80f60c01b611156565b61174367df236f0cb85aa7a760c01b611156565b8151815114611787576040517f08c379a000000000000000000000000000000000000000000000000000000000815260040161177e90613093565b60405180910390fd5b61179b673b0d47612c5bfcb060c01b611156565b6117af677383a757a10ce6a660c01b611156565b6117c367d54972dcc54da96a60c01b611156565b8273ffffffffffffffffffffffffffffffffffffffff168473ffffffffffffffffffffffffffffffffffffffff1614611a375761180a67695f0a5ed6645cb160c01b611156565b61181e673c678a99acd09dfe60c01b611156565b611832672e9b649e87fb1bf160c01b611156565b61184667d21d499d67dd50dd60c01b611156565b600360009054906101000a900473ffffffffffffffffffffffffffffffffffffffff1673ffffffffffffffffffffffffffffffffffffffff1663bb890d3f85856040518363ffffffff1660e01b81526004016118a3929190612ed9565b60206040518083038186803b1580156118bb57600080fd5b505afa1580156118cf573d6000803e3d6000fd5b505050506040513d601f19601f820116820180604052508101906118f3919061261f565b801561190f575061190e67a6bf4e6eca47d89260c01b61111a565b5b806119df5750600260009054906101000a900473ffffffffffffffffffffffffffffffffffffffff1673ffffffffffffffffffffffffffffffffffffffff1663bb890d3f85856040518363ffffffff1660e01b8152600401611972929190612ed9565b60206040518083038186803b15801561198a57600080fd5b505afa15801561199e573d6000803e3d6000fd5b505050506040513d601f19601f820116820180604052508101906119c2919061261f565b80156119de57506119dd678f8df1355d42245960c01b61111a565b5b5b611a1e576040517f08c379a0000000000000000000000000000000000000000000000000000000008152600401611a1590613073565b60405180910390fd5b611a326707751d0d2332acbb60c01b611156565b611a4c565b611a4b678e9477de75c4b33960c01b611156565b5b611a606732451c5d20fa0b0e60c01b611156565b611a7467bde85699afe47a2560c01b611156565b6000611a8a670ac7e6b247a1b23660c01b611156565b611a9e67a4b54381933286a160c01b611156565b60005b8251811015611ce457611abe67e7a575dd079f50e060c01b611156565b611ad267dc63add401f9859960c01b611156565b611ae667c37bca055481b01060c01b611156565b600073ffffffffffffffffffffffffffffffffffffffff16848281518110611b0a57fe5b602002602001015173ffffffffffffffffffffffffffffffffffffffff161415611b69576040517f08c379a0000000000000000000000000000000000000000000000000000000008152600401611b6090612fb3565b60405180910390fd5b611b7d67c419a2487f65256460c01b611156565b611b916756305d165003f7c060c01b611156565b838181518110611b9d57fe5b602002602001015173ffffffffffffffffffffffffffffffffffffffff16838281518110611bc757fe5b60200260200101518787604051602001611be393929190612db3565b604051602081830303815290604052604051611bff9190612d9c565b6000604051808303816000865af19150503d8060008114611c3c576040519150601f19603f3d011682016040523d82523d6000602084013e611c41565b606091505b505080925050611c5b670f9dfeab41fb8ea060c01b611156565b611c6f676d8a92db9e4d9eb760c01b611156565b611c836731620bc12623c2a460c01b611156565b81611cc3576040517f08c379a0000000000000000000000000000000000000000000000000000000008152600401611cba906130b3565b60405180910390fd5b611cd7678d59ec3587b5a94e60c01b611156565b8080600101915050611aa1565b505050505050565b6000611d02671ec04fa3e6433c7060c01b611156565b611d1667f636738c68fd79e260c01b611156565b611d2a6794bdd90ed43103ae60c01b611156565b611d837f6f4e1b2b1e5e49f4269e19e16e67a00cb0a796d96d30be3e4b540d3732e8bcad878787611d5a88611e98565b87604051602001611d6f959493929190612d45565b604051602081830303815290604052611fc4565b905095945050505050565b6000611da4672797d9bbee8e685760c01b61204f565b611db867e25930aa3032662f60c01b61204f565b611dcc673b804ace3fd44ea060c01b61204f565b60008284019050611de767e0d809daafe36a0460c01b61204f565b611dfb67d0d7b021c1a6823260c01b61204f565b611e0f6741f1099b5fa09b9360c01b61204f565b83811015611e52576040517f08c379a0000000000000000000000000000000000000000000000000000000008152600401611e49906130d3565b60405180910390fd5b611e666728a352a27e50889560c01b61204f565b611e7a67f55e5f024a80111c60c01b61204f565b611e8e67d865abdcb752192460c01b61204f565b8091505092915050565b6060611eae673d52b345085804d360c01b611156565b611ec267938a3fc7b0db7b7560c01b611156565b611ed667efd64ece1fcae34460c01b611156565b6060611eec678e4f8d3e667dc68060c01b611156565b611f0067058d193f1566526e60c01b611156565b600083519050611f1a678b29a7b925d3ac0a60c01b611156565b611f2e67ba6e3e037213797660c01b611156565b60005b81811015611f9157611f4d6757304e9d85c5f61a60c01b611156565b82858281518110611f5a57fe5b6020026020010151604051602001611f73929190612dec565b60405160208183030381529060405292508080600101915050611f31565b50611fa6672f36155ab352e49460c01b611156565b611fba6720ea1b68fe8bdcf860c01b611156565b8192505050919050565b6000611fda6771b334e2e3162d2e60c01b611117565b611fee6729046581cf97a49460c01b611117565b612002674f9e67c6b1f334b360c01b611117565b61203960015430858560405160200161201e9493929190612e36565b60405160208183030381529060405280519060200120612052565b905092915050565b50565b600060019050919050565b50565b600061206867f3d1beb9fba5b7be60c01b612041565b61207c676cd81a1865d6353260c01b612041565b612090676810828c21da671e60c01b612041565b816040516020016120a19190612e10565b604051602081830303815290604052805190602001209050919050565b6000813590506120cd81613432565b92915050565b600082601f8301126120e457600080fd5b81356120f76120f28261317b565b61314e565b9150818183526020840193506020810190508385602084028201111561211c57600080fd5b60005b8381101561214c578161213288826120be565b84526020840193506020830192505060018101905061211f565b5050505092915050565b600082601f83011261216757600080fd5b813561217a612175826131a3565b61314e565b9150818183526020840193506020810190508360005b838110156121c057813586016121a68882612209565b845260208401935060208301925050600181019050612190565b5050505092915050565b6000813590506121d981613449565b92915050565b6000815190506121ee81613449565b92915050565b60008135905061220381613460565b92915050565b600082601f83011261221a57600080fd5b813561222d612228826131cb565b61314e565b9150808252602083016020830185838301111561224957600080fd5b61225483828461339a565b50505092915050565b60008135905061226c81613477565b92915050565b6000813590506122818161348e565b92915050565b600060a0828403121561229957600080fd5b6122a360a061314e565b905060006122b3848285016120be565b60008301525060206122c7848285016123e3565b602083015250604082013567ffffffffffffffff8111156122e757600080fd5b6122f3848285016120d3565b604083015250606082013567ffffffffffffffff81111561231357600080fd5b61231f84828501612156565b6060830152506080612333848285016123e3565b60808301525092915050565b60006080828403121561235157600080fd5b61235b608061314e565b9050600061236b848285016120be565b600083015250602061237f848285016123e3565b602083015250604082013567ffffffffffffffff81111561239f57600080fd5b6123ab848285016120d3565b604083015250606082013567ffffffffffffffff8111156123cb57600080fd5b6123d784828501612156565b60608301525092915050565b6000813590506123f2816134a5565b92915050565b60006020828403121561240a57600080fd5b6000612418848285016120be565b91505092915050565b60008060006060848603121561243657600080fd5b6000612444868287016120be565b935050602084013567ffffffffffffffff81111561246157600080fd5b61246d868287016120d3565b925050604084013567ffffffffffffffff81111561248a57600080fd5b61249686828701612156565b9150509250925092565b600080600080600060a086880312156124b857600080fd5b60006124c6888289016120be565b95505060206124d7888289016123e3565b945050604086013567ffffffffffffffff8111156124f457600080fd5b612500888289016120d3565b935050606086013567ffffffffffffffff81111561251d57600080fd5b61252988828901612156565b925050608086013567ffffffffffffffff81111561254657600080fd5b61255288828901612209565b9150509295509295909350565b6000806040838503121561257257600080fd5b600083013567ffffffffffffffff81111561258c57600080fd5b612598858286016120d3565b925050602083013567ffffffffffffffff8111156125b557600080fd5b6125c185828601612156565b9150509250929050565b600080604083850312156125de57600080fd5b600083013567ffffffffffffffff8111156125f857600080fd5b61260485828601612156565b9250506020612615858286016121ca565b9150509250929050565b60006020828403121561263157600080fd5b600061263f848285016121df565b91505092915050565b60006020828403121561265a57600080fd5b6000612668848285016121f4565b91505092915050565b6000806040838503121561268457600080fd5b60006126928582860161225d565b92505060206126a385828601612272565b9150509250929050565b6000602082840312156126bf57600080fd5b600082013567ffffffffffffffff8111156126d957600080fd5b6126e584828501612287565b91505092915050565b60006020828403121561270057600080fd5b600082013567ffffffffffffffff81111561271a57600080fd5b6127268482850161233f565b91505092915050565b600061273b8383612765565b60208301905092915050565b6127508161331c565b82525050565b61275f8161326d565b82525050565b61276e8161326d565b82525050565b6127856127808261326d565b6133dc565b82525050565b600061279682613207565b6127a0818561322a565b93506127ab836131f7565b8060005b838110156127dc5781516127c3888261272f565b97506127ce8361321d565b9250506001810190506127af565b5085935050505092915050565b6127f28161327f565b82525050565b6128018161328b565b82525050565b6128186128138261328b565b6133ee565b82525050565b600061282982613212565b6128338185613235565b93506128438185602086016133a9565b61284c81613414565b840191505092915050565b600061286282613212565b61286c8185613246565b935061287c8185602086016133a9565b80840191505092915050565b6128918161332e565b82525050565b6128a081613352565b82525050565b60006128b3601b83613251565b91507f476174657761793a2063616e6e6f742073656e6420746f2030783000000000006000830152602082019050919050565b60006128f3601c83613262565b91507f19457468657265756d205369676e6564204d6573736167653a0a3332000000006000830152601c82019050919050565b6000612933602f83613251565b91507f496e697469616c697a61626c653a2074782e6f726967696e206973206e6f742060008301527f74686520696e697469616c697a657200000000000000000000000000000000006020830152604082019050919050565b6000612999601783613251565b91507f476174657761793a2062617463682072657665727465640000000000000000006000830152602082019050919050565b60006129d9603283613251565b91507f476174657761793a206e6f6e6365206973206c6f776572207468616e2063757260008301527f72656e74206163636f756e74206e6f6e636500000000000000000000000000006020830152604082019050919050565b6000612a3f602583613251565b91507f476174657761793a2063616e6e6f742073656e642066726f6d2030783020616360008301527f636f756e740000000000000000000000000000000000000000000000000000006020830152604082019050919050565b6000612aa5602683613251565b91507f476174657761793a2063616e6e6f742064656c656761746520656d707479206260008301527f61746368657300000000000000000000000000000000000000000000000000006020830152604082019050919050565b6000612b0b602883613251565b91507f476174657761793a2073656e646572206973206e6f7420746865206163636f7560008301527f6e74206f776e65720000000000000000000000000000000000000000000000006020830152604082019050919050565b6000612b71601683613251565b91507f476174657761793a20696e76616c6964206261746368000000000000000000006000830152602082019050919050565b6000612bb1602383613251565b91507f476174657761793a206261746368207472616e73616374696f6e20726576657260008301527f74656400000000000000000000000000000000000000000000000000000000006020830152604082019050919050565b6000612c17601e83613251565b91507f536166654d6174684c69623a206164646974696f6e206f766572666c6f7700006000830152602082019050919050565b6000612c57602083613251565b91507f476174657761793a2063616e6e6f742073656e6420656d7074792062617463686000830152602082019050919050565b6000612c97601d83613251565b91507f476174657761793a20616c6c20626174636865732072657665727465640000006000830152602082019050919050565b612cd381613305565b82525050565b612cea612ce582613305565b61340a565b82525050565b612cf98161330f565b82525050565b6000612d0b8287612774565b601482019150612d1b8286612cd9565b602082019150612d2b828561278b565b9150612d378284612857565b915081905095945050505050565b6000612d518288612774565b601482019150612d618287612cd9565b602082019150612d71828661278b565b9150612d7d8285612857565b9150612d898284612cd9565b6020820191508190509695505050505050565b6000612da88284612857565b915081905092915050565b6000612dbf8286612857565b9150612dcb8285612774565b601482019150612ddb8284612774565b601482019150819050949350505050565b6000612df88285612857565b9150612e048284612857565b91508190509392505050565b6000612e1b826128e6565b9150612e278284612807565b60208201915081905092915050565b6000612e428287612cd9565b602082019150612e528286612774565b601482019150612e628285612807565b602082019150612e728284612857565b915081905095945050505050565b6000602082019050612e956000830184612747565b92915050565b6000606082019050612eb06000830186612747565b8181036020830152612ec2818561281e565b9050612ed160408301846127e9565b949350505050565b6000604082019050612eee6000830185612756565b612efb6020830184612756565b9392505050565b6000602082019050612f1760008301846127e9565b92915050565b6000602082019050612f3260008301846127f8565b92915050565b6000608082019050612f4d60008301876127f8565b612f5a6020830186612cf0565b612f6760408301856127f8565b612f7460608301846127f8565b95945050505050565b6000602082019050612f926000830184612888565b92915050565b6000602082019050612fad6000830184612897565b92915050565b60006020820190508181036000830152612fcc816128a6565b9050919050565b60006020820190508181036000830152612fec81612926565b9050919050565b6000602082019050818103600083015261300c8161298c565b9050919050565b6000602082019050818103600083015261302c816129cc565b9050919050565b6000602082019050818103600083015261304c81612a32565b9050919050565b6000602082019050818103600083015261306c81612a98565b9050919050565b6000602082019050818103600083015261308c81612afe565b9050919050565b600060208201905081810360008301526130ac81612b64565b9050919050565b600060208201905081810360008301526130cc81612ba4565b9050919050565b600060208201905081810360008301526130ec81612c0a565b9050919050565b6000602082019050818103600083015261310c81612c4a565b9050919050565b6000602082019050818103600083015261312c81612c8a565b9050919050565b60006020820190506131486000830184612cca565b92915050565b6000604051905081810181811067ffffffffffffffff8211171561317157600080fd5b8060405250919050565b600067ffffffffffffffff82111561319257600080fd5b602082029050602081019050919050565b600067ffffffffffffffff8211156131ba57600080fd5b602082029050602081019050919050565b600067ffffffffffffffff8211156131e257600080fd5b601f19601f8301169050602081019050919050565b6000819050602082019050919050565b600081519050919050565b600081519050919050565b6000602082019050919050565b600081905092915050565b600082825260208201905092915050565b600081905092915050565b600082825260208201905092915050565b600081905092915050565b6000613278826132e5565b9050919050565b60008115159050919050565b6000819050919050565b60007fffffffffffffffff00000000000000000000000000000000000000000000000082169050919050565b60006132cc8261326d565b9050919050565b60006132de8261326d565b9050919050565b600073ffffffffffffffffffffffffffffffffffffffff82169050919050565b6000819050919050565b600060ff82169050919050565b600061332782613376565b9050919050565b600061333982613340565b9050919050565b600061334b826132e5565b9050919050565b600061335d82613364565b9050919050565b600061336f826132e5565b9050919050565b600061338182613388565b9050919050565b6000613393826132e5565b9050919050565b82818337600083830152505050565b60005b838110156133c75780820151818401526020810190506133ac565b838111156133d6576000848401525b50505050565b60006133e7826133f8565b9050919050565b6000819050919050565b600061340382613425565b9050919050565b6000819050919050565b6000601f19601f8301169050919050565b60008160601b9050919050565b61343b8161326d565b811461344657600080fd5b50565b6134528161327f565b811461345d57600080fd5b50565b61346981613295565b811461347457600080fd5b50565b613480816132c1565b811461348b57600080fd5b50565b613497816132d3565b81146134a257600080fd5b50565b6134ae81613305565b81146134b957600080fd5b5056fea164736f6c634300060c000a",
  "linkReferences": {},
  "deployedLinkReferences": {}
}