{
  "_format": "hh-sol-artifact-1",
  "contractName": "Gateway",
  "sourceName": "src/gateway/Gateway.sol",
  "abi": [
    {
      "inputs": [],
      "stateMutability": "nonpayable",
      "type": "constructor"
    },
    {
      "anonymous": false,
      "inputs": [
        {
          "indexed": false,
          "internalType": "address",
          "name": "sender",
          "type": "address"
        },
        {
          "indexed": false,
          "internalType": "bytes",
          "name": "batch",
          "type": "bytes"
        },
        {
          "indexed": false,
          "internalType": "bool",
          "name": "succeeded",
          "type": "bool"
        }
      ],
      "name": "BatchDelegated",
      "type": "event"
    },
    {
      "anonymous": false,
      "inputs": [
        {
          "indexed": false,
          "internalType": "address",
          "name": "initializer",
          "type": "address"
        }
      ],
      "name": "Initialized",
      "type": "event"
    },
    {
      "inputs": [
        {
          "internalType": "bytes8",
          "name": "c__1b54acf3",
          "type": "bytes8"
        }
      ],
      "name": "c_1b54acf3",
      "outputs": [],
      "stateMutability": "pure",
      "type": "function"
    },
    {
      "inputs": [
        {
          "internalType": "bytes8",
          "name": "c__c0828b70",
          "type": "bytes8"
        }
      ],
      "name": "c_c0828b70",
      "outputs": [],
      "stateMutability": "pure",
      "type": "function"
    },
    {
      "inputs": [
        {
          "internalType": "bytes8",
          "name": "c__db9228d3",
          "type": "bytes8"
        }
      ],
      "name": "c_db9228d3",
      "outputs": [],
      "stateMutability": "pure",
      "type": "function"
    },
    {
      "inputs": [
        {
          "internalType": "bytes8",
          "name": "c__1b54acf3",
          "type": "bytes8"
        }
      ],
      "name": "c_false1b54acf3",
      "outputs": [
        {
          "internalType": "bool",
          "name": "",
          "type": "bool"
        }
      ],
      "stateMutability": "pure",
      "type": "function"
    },
    {
      "inputs": [
        {
          "internalType": "bytes8",
          "name": "c__c0828b70",
          "type": "bytes8"
        }
      ],
      "name": "c_falsec0828b70",
      "outputs": [
        {
          "internalType": "bool",
          "name": "",
          "type": "bool"
        }
      ],
      "stateMutability": "pure",
      "type": "function"
    },
    {
      "inputs": [
        {
          "internalType": "bytes8",
          "name": "c__db9228d3",
          "type": "bytes8"
        }
      ],
      "name": "c_falsedb9228d3",
      "outputs": [
        {
          "internalType": "bool",
          "name": "",
          "type": "bool"
        }
      ],
      "stateMutability": "pure",
      "type": "function"
    },
    {
      "inputs": [
        {
          "internalType": "bytes8",
          "name": "c__1b54acf3",
          "type": "bytes8"
        }
      ],
      "name": "c_true1b54acf3",
      "outputs": [
        {
          "internalType": "bool",
          "name": "",
          "type": "bool"
        }
      ],
      "stateMutability": "pure",
      "type": "function"
    },
    {
      "inputs": [
        {
          "internalType": "bytes8",
          "name": "c__c0828b70",
          "type": "bytes8"
        }
      ],
      "name": "c_truec0828b70",
      "outputs": [
        {
          "internalType": "bool",
          "name": "",
          "type": "bool"
        }
      ],
      "stateMutability": "pure",
      "type": "function"
    },
    {
      "inputs": [
        {
          "internalType": "bytes8",
          "name": "c__db9228d3",
          "type": "bytes8"
        }
      ],
      "name": "c_truedb9228d3",
      "outputs": [
        {
          "internalType": "bool",
          "name": "",
          "type": "bool"
        }
      ],
      "stateMutability": "pure",
      "type": "function"
    },
    {
      "inputs": [],
      "name": "chainId",
      "outputs": [
        {
          "internalType": "uint256",
          "name": "",
          "type": "uint256"
        }
      ],
      "stateMutability": "view",
      "type": "function"
    },
    {
      "inputs": [
        {
          "internalType": "address",
          "name": "account",
          "type": "address"
        },
        {
          "internalType": "uint256",
          "name": "nonce",
          "type": "uint256"
        },
        {
          "internalType": "address[]",
          "name": "to",
          "type": "address[]"
        },
        {
          "internalType": "bytes[]",
          "name": "data",
          "type": "bytes[]"
        },
        {
          "internalType": "bytes",
          "name": "senderSignature",
          "type": "bytes"
        }
      ],
      "name": "delegateBatch",
      "outputs": [],
      "stateMutability": "nonpayable",
      "type": "function"
    },
    {
      "inputs": [
        {
          "internalType": "address",
          "name": "account",
          "type": "address"
        },
        {
          "internalType": "uint256",
          "name": "nonce",
          "type": "uint256"
        },
        {
          "internalType": "address[]",
          "name": "to",
          "type": "address[]"
        },
        {
          "internalType": "bytes[]",
          "name": "data",
          "type": "bytes[]"
        },
        {
          "internalType": "bytes",
          "name": "senderSignature",
          "type": "bytes"
        }
      ],
      "name": "delegateBatchWithGasPrice",
      "outputs": [],
      "stateMutability": "nonpayable",
      "type": "function"
    },
    {
      "inputs": [
        {
          "internalType": "bytes[]",
          "name": "batches",
          "type": "bytes[]"
        },
        {
          "internalType": "bool",
          "name": "revertOnFailure",
          "type": "bool"
        }
      ],
      "name": "delegateBatches",
      "outputs": [],
      "stateMutability": "nonpayable",
      "type": "function"
    },
    {
      "inputs": [],
      "name": "externalAccountRegistry",
      "outputs": [
        {
          "internalType": "contract ExternalAccountRegistry",
          "name": "",
          "type": "address"
        }
      ],
      "stateMutability": "view",
      "type": "function"
    },
    {
      "inputs": [
        {
          "internalType": "address",
          "name": "account",
          "type": "address"
        }
      ],
      "name": "getAccountNextNonce",
      "outputs": [
        {
          "internalType": "uint256",
          "name": "",
          "type": "uint256"
        }
      ],
      "stateMutability": "view",
      "type": "function"
    },
    {
      "inputs": [
        {
          "components": [
            {
              "internalType": "address",
              "name": "account",
              "type": "address"
            },
            {
              "internalType": "uint256",
              "name": "nonce",
              "type": "uint256"
            },
            {
              "internalType": "address[]",
              "name": "to",
              "type": "address[]"
            },
            {
              "internalType": "bytes[]",
              "name": "data",
              "type": "bytes[]"
            }
          ],
          "internalType": "struct Gateway.DelegatedBatch",
          "name": "delegatedBatch",
          "type": "tuple"
        }
      ],
      "name": "hashDelegatedBatch",
      "outputs": [
        {
          "internalType": "bytes32",
          "name": "",
          "type": "bytes32"
        }
      ],
      "stateMutability": "view",
      "type": "function"
    },
    {
      "inputs": [
        {
          "components": [
            {
              "internalType": "address",
              "name": "account",
              "type": "address"
            },
            {
              "internalType": "uint256",
              "name": "nonce",
              "type": "uint256"
            },
            {
              "internalType": "address[]",
              "name": "to",
              "type": "address[]"
            },
            {
              "internalType": "bytes[]",
              "name": "data",
              "type": "bytes[]"
            },
            {
              "internalType": "uint256",
              "name": "gasPrice",
              "type": "uint256"
            }
          ],
          "internalType": "struct Gateway.DelegatedBatchWithGasPrice",
          "name": "delegatedBatch",
          "type": "tuple"
        }
      ],
      "name": "hashDelegatedBatchWithGasPrice",
      "outputs": [
        {
          "internalType": "bytes32",
          "name": "",
          "type": "bytes32"
        }
      ],
      "stateMutability": "view",
      "type": "function"
    },
    {
      "inputs": [
        {
          "internalType": "contract ExternalAccountRegistry",
          "name": "externalAccountRegistry_",
          "type": "address"
        },
        {
          "internalType": "contract PersonalAccountRegistry",
          "name": "personalAccountRegistry_",
          "type": "address"
        }
      ],
      "name": "initialize",
      "outputs": [],
      "stateMutability": "nonpayable",
      "type": "function"
    },
    {
      "inputs": [],
      "name": "isInitialized",
      "outputs": [
        {
          "internalType": "bool",
          "name": "",
          "type": "bool"
        }
      ],
      "stateMutability": "view",
      "type": "function"
    },
    {
      "inputs": [],
      "name": "personalAccountRegistry",
      "outputs": [
        {
          "internalType": "contract PersonalAccountRegistry",
          "name": "",
          "type": "address"
        }
      ],
      "stateMutability": "view",
      "type": "function"
    },
    {
      "inputs": [
        {
          "internalType": "address[]",
          "name": "to",
          "type": "address[]"
        },
        {
          "internalType": "bytes[]",
          "name": "data",
          "type": "bytes[]"
        }
      ],
      "name": "sendBatch",
      "outputs": [],
      "stateMutability": "nonpayable",
      "type": "function"
    },
    {
      "inputs": [
        {
          "internalType": "address",
          "name": "account",
          "type": "address"
        },
        {
          "internalType": "address[]",
          "name": "to",
          "type": "address[]"
        },
        {
          "internalType": "bytes[]",
          "name": "data",
          "type": "bytes[]"
        }
      ],
      "name": "sendBatchFromAccount",
      "outputs": [],
      "stateMutability": "nonpayable",
      "type": "function"
    }
  ],
  "bytecode": "0x60806040523480156200001157600080fd5b506200002e676f8209dd9a63129460c01b6200014560201b60201c565b6200004a675c69c8f577e02d3d60c01b6200014560201b60201c565b326000806101000a81548173ffffffffffffffffffffffffffffffffffffffff021916908373ffffffffffffffffffffffffffffffffffffffff160217905550620000a667d43f7ebc8916ffb160c01b6200014860201b60201c565b620000c267b7a0f8f58fc547fe60c01b6200014860201b60201c565b620000de6709fb27c81b9e4b6460c01b6200014860201b60201c565b6000620000fc67ae8d657f7505e1fa60c01b6200014860201b60201c565b4690506200011b675f6af25379ff12a260c01b6200014860201b60201c565b80600181905550506200013f6787989af9ec05fece60c01b6200014b60201b60201c565b6200014e565b50565b50565b50565b6134c9806200015e6000396000f3fe608060405234801561001057600080fd5b50600436106101425760003560e01c80637f130864116100b8578063b5021b161161007c578063b5021b1614610385578063bbd3466c146103a1578063d2c83b9a146103d1578063e831bfba146103ef578063edf092b11461040b578063f92c5f7c1461043b57610142565b80637f130864146102e1578063867519c61461031157806387d313131461032d5780639a8a05921461034b5780639f2556261461036957610142565b8063485cc9551161010a578063485cc955146101fd578063589731f8146102195780635afaa7bb1461024957806373e5a13f146102655780637403056c1461029557806376db2b4c146102b157610142565b80631262ed1c146101475780631812164614610177578063231badaf146101935780632e6afd6e146101af578063392e53cd146101df575b600080fd5b610161600480360381019061015c9190612648565b61046b565b60405161016e9190612f02565b60405180910390f35b610191600480360381019061018c9190612648565b610476565b005b6101ad60048036038101906101a891906124a0565b610479565b005b6101c960048036038101906101c49190612648565b61063c565b6040516101d69190612f02565b60405180910390f35b6101e7610643565b6040516101f49190612f02565b60405180910390f35b61021760048036038101906102129190612671565b6106d6565b005b610233600480360381019061022e9190612648565b61097a565b6040516102409190612f02565b60405180910390f35b610263600480360381019061025e91906125cb565b610981565b005b61027f600480360381019061027a91906126ee565b610dc7565b60405161028c9190612f1d565b60405180910390f35b6102af60048036038101906102aa9190612648565b610e28565b005b6102cb60048036038101906102c691906126ad565b610e2b565b6040516102d89190612f1d565b60405180910390f35b6102fb60048036038101906102f69190612648565b610e91565b6040516103089190612f02565b60405180910390f35b61032b60048036038101906103269190612421565b610e9c565b005b610335610ee9565b6040516103429190612f98565b60405180910390f35b610353610f0f565b6040516103609190613133565b60405180910390f35b610383600480360381019061037e919061255f565b610f15565b005b61039f600480360381019061039a91906124a0565b610f61565b005b6103bb60048036038101906103b69190612648565b611125565b6040516103c89190612f02565b60405180910390f35b6103d9611130565b6040516103e69190612f7d565b60405180910390f35b61040960048036038101906104049190612648565b611156565b005b61042560048036038101906104209190612648565b611159565b6040516104329190612f02565b60405180910390f35b610455600480360381019061045091906123f8565b611160565b6040516104629190613133565b60405180910390f35b600060019050919050565b50565b61048d673800490ef5ef9f4c60c01b610e28565b6104a167f494168165cf0bac60c01b610e28565b6104b567cf40f2483e2b09f360c01b610e28565b6104c967ee567e03fe68185260c01b610e28565b600460008673ffffffffffffffffffffffffffffffffffffffff1673ffffffffffffffffffffffffffffffffffffffff16815260200190815260200160002054841161054a576040517f08c379a000000000000000000000000000000000000000000000000000000000815260040161054190613013565b60405180910390fd5b61055e670a61a1d50c6ca66660c01b610e28565b61057267a6715b8a86e2f2d260c01b610e28565b610586675389dfc6f0c3a27560c01b610e28565b60006105a682610598888888886111f8565b61129790919063ffffffff16565b90506105bc67ff533a346f90273e60c01b610e28565b84600460008873ffffffffffffffffffffffffffffffffffffffff1673ffffffffffffffffffffffffffffffffffffffff16815260200190815260200160002081905550610614670d4cac0a173ca5b260c01b610e28565b6106286751b8f322f996037160c01b610e28565b6106348682868661159f565b505050505050565b6000919050565b60006106596740898dd11e0e3e1060c01b610476565b61066d67730b1b0a3e6f252b60c01b610476565b610681670e31b01a086623bd60c01b610476565b600073ffffffffffffffffffffffffffffffffffffffff1660008054906101000a900473ffffffffffffffffffffffffffffffffffffffff1673ffffffffffffffffffffffffffffffffffffffff1614905090565b6106ea679250519788af38b760c01b610e28565b6106fe676c8c9b71ba9d910f60c01b610476565b61071267f602580a42808a9160c01b610476565b6107266707611d848241fec060c01b610476565b61073a6709ab29cd8b2d771d60c01b610476565b60008054906101000a900473ffffffffffffffffffffffffffffffffffffffff1673ffffffffffffffffffffffffffffffffffffffff163273ffffffffffffffffffffffffffffffffffffffff16146107c8576040517f08c379a00000000000000000000000000000000000000000000000000000000081526004016107bf90612fd3565b60405180910390fd5b6107dc6786eee1b275e13e0e60c01b610476565b6107f06715362633e8a83eba60c01b610476565b60008060006101000a81548173ffffffffffffffffffffffffffffffffffffffff021916908373ffffffffffffffffffffffffffffffffffffffff1602179055506108456738479f0480704ee560c01b610476565b61085967e961f14214dd6b3160c01b610e28565b61086d673e4942c11dbe47ee60c01b610e28565b61088167fcdd893193bacc1e60c01b610e28565b81600260006101000a81548173ffffffffffffffffffffffffffffffffffffffff021916908373ffffffffffffffffffffffffffffffffffffffff1602179055506108d6679668df93eb5fb10460c01b610e28565b80600360006101000a81548173ffffffffffffffffffffffffffffffffffffffff021916908373ffffffffffffffffffffffffffffffffffffffff16021790555061092b675d2d15dcccb96a8860c01b610476565b61093f6763708511b840b29260c01b610476565b7f908408e307fc569b417f6cbec5d5a06f44a0a505ac0479b47d421a4b2fd6a1e63260405161096e9190612e80565b60405180910390a15050565b6000919050565b61099567d722e2e89d84368260c01b610e28565b6109a9675e0ce7770bd6829c60c01b610e28565b6109bd672e58b358317bb9f960c01b610e28565b6109d1673b9cadd2b932cd5c60c01b610e28565b6000825111610a15576040517f08c379a0000000000000000000000000000000000000000000000000000000008152600401610a0c90613053565b60405180910390fd5b610a296795911ac1af534dab60c01b610e28565b610a3d677c41aeea055702b960c01b610e28565b610a5167fd32e56587372b0d60c01b610e28565b6000610a6767e85d3d6576865a6a60c01b610e28565b610a7b67e53cb0f8c477383560c01b610e28565b60005b8351811015610d0957610a9b675ffb82ae2ebe57a360c01b610e28565b610aaf671eadd736dd90ce4560c01b610e28565b60003073ffffffffffffffffffffffffffffffffffffffff16858381518110610ad457fe5b6020026020010151604051610ae99190612d9c565b6000604051808303816000865af19150503d8060008114610b26576040519150601f19603f3d011682016040523d82523d6000602084013e610b2b565b606091505b50509050610b4367020d4fea80315a6760c01b610e28565b610b57675d327c5f390e794060c01b610e28565b8315610c0657610b716767524a8f4b9d402260c01b610e28565b610b8567fb39919f2b2d424e60c01b610e28565b610b9967364a511c16d3eaea60c01b610e28565b610bad6769c602264807912a60c01b610e28565b80610bed576040517f08c379a0000000000000000000000000000000000000000000000000000000008152600401610be490612ff3565b60405180910390fd5b610c0167ac3176a3d8ad12cb60c01b610e28565b610c85565b610c1a676b1b25128e227a8a60c01b610e28565b610c2e674029b0223c7df5f160c01b610e28565b808015610c39575082155b15610c6f57610c526724b55b5b26fd18d760c01b610e28565b610c6667db56b83048adc01b60c01b610e28565b60019250610c84565b610c83677b046126c6e4222360c01b610e28565b5b5b610c9967208b63ffab5ddd4e60c01b610e28565b610cad67f3321c51dd457c2b60c01b610e28565b7f361c14722cc344132c73396113f7164232448b09c544a149f09048648b43d87233868481518110610cdb57fe5b602002602001015183604051610cf393929190612e9b565b60405180910390a1508080600101915050610a7e565b50610d1e670119ffd530242a5b60c01b610e28565b610d3267cd1bc02a5407f5e160c01b610e28565b80610dae57610d4b670c9ca02d5cd217f060c01b610e28565b610d5f671e4db682bd84127e60c01b610e28565b610d73674cdc925fe3529bbe60c01b610e28565b6040517f08c379a0000000000000000000000000000000000000000000000000000000008152600401610da590613113565b60405180910390fd5b610dc267872ba971add85d6260c01b610e28565b505050565b6000610ddd677ee6d7b84501932e60c01b610e28565b610df1677418717613be6e2d60c01b610e28565b610e0567a27620945e5bcfce60c01b610e28565b610e2182600001518360200151846040015185606001516111f8565b9050919050565b50565b6000610e41674a1b7276b3e8d7a260c01b610e28565b610e55678faf13623401f32d60c01b610e28565b610e69677ece697fce8f529660c01b610e28565b610e8a82600001518360200151846040015185606001518660800151611cec565b9050919050565b600060019050919050565b610eb0670223e6d2a4e430a860c01b610e28565b610ec467e83b06b3f581c3a560c01b610e28565b610ed8679fda8e700a99ac2c60c01b610e28565b610ee48333848461159f565b505050565b600360009054906101000a900473ffffffffffffffffffffffffffffffffffffffff1681565b60015481565b610f2967cf7d791cc845160c60c01b610e28565b610f3d6751c5978ee528727760c01b610e28565b610f516748797c16186fc0d460c01b610e28565b610f5d3333848461159f565b5050565b610f7567bc360aceef8b7c9360c01b610e28565b610f8967c9a9e21916cae3bf60c01b610e28565b610f9d67639f06ccde3d1a4660c01b610e28565b610fb167116be8155757e9ca60c01b610e28565b600460008673ffffffffffffffffffffffffffffffffffffffff1673ffffffffffffffffffffffffffffffffffffffff168152602001908152602001600020548411611032576040517f08c379a000000000000000000000000000000000000000000000000000000000815260040161102990613013565b60405180910390fd5b61104667649a5a3911852a9a60c01b610e28565b61105a67dde403579af371a760c01b610e28565b61106e67e3decf253fd0a59060c01b610e28565b600061108f82611081888888883a611cec565b61129790919063ffffffff16565b90506110a567e6e7c6e6ec97216e60c01b610e28565b84600460008873ffffffffffffffffffffffffffffffffffffffff1673ffffffffffffffffffffffffffffffffffffffff168152602001908152602001600020819055506110fd670a548a00c9e351bc60c01b610e28565b61111167b52ce47ff7a018ba60c01b610e28565b61111d8682868661159f565b505050505050565b600060019050919050565b600260009054906101000a900473ffffffffffffffffffffffffffffffffffffffff1681565b50565b6000919050565b600061117667ea965a6baab0d0aa60c01b610e28565b61118a67e145d9c08e07feb560c01b610e28565b61119e67adec72b51b385a5c60c01b610e28565b6111f16001600460008573ffffffffffffffffffffffffffffffffffffffff1673ffffffffffffffffffffffffffffffffffffffff16815260200190815260200160002054611d8e90919063ffffffff16565b9050919050565b600061120e6785d31681432a25bb60c01b610e28565b6112226767226cb2ac3f061960c01b610e28565b61123667404a5519d2854d8c60c01b610e28565b61128d7f6848d0622081db2451400280dead7a739a080cb93852607c381af11e289769b286868661126687611e98565b6040516020016112799493929190612cff565b604051602081830303815290604052611fc4565b9050949350505050565b60006112ad676de89ac9109535f060c01b612041565b6112c16738f07d032b69a0cc60c01b612041565b6112d5679a56bd737f9ec1c160c01b612041565b60006112eb6765ff8d1c809ca6df60c01b612041565b6112ff67b385de3f7dcc346760c01b612041565b6041835114156115585761131d67166e15f83f23170a60c01b612041565b61133167cd2d9c240be0a33460c01b612041565b611345671b08267e2ace419660c01b612041565b600061135b676bf79a26a2eb360d60c01b612041565b61136f67f6aaa0b497d5b8c960c01b612041565b600061138567e3bb8ebb94b2557260c01b612041565b6113996761e42a107c3e2f3560c01b612041565b60006113af67629bbeea2d8dae6c60c01b612041565b6020860151925060408601519150606086015160001a90506113db67c96eccbfec13453b60c01b612041565b6113ef670614339e5785cdba60c01b612041565b601b8160ff16101561142e5761140f67c25e4db51759311e60c01b612041565b6114236794a576c495e47bde60c01b612041565b601b81019050611443565b61144267b3c223547babc39660c01b612041565b5b611457676b258761bdd66fe460c01b612041565b61146b6744f25d0fe4c8b73f60c01b612041565b601b8160ff1614801561148e575061148d6787b517281dd8e34760c01b612044565b5b806114b85750601c8160ff161480156114b757506114b667faa29d490ca62b7160c01b612044565b5b5b1561153b576114d167a5480a7163bbe5f160c01b612041565b6114e567aee28416a483519060c01b612041565b600187828585604051600081526020016040526040516115089493929190612f38565b6020604051602081039080840390855afa15801561152a573d6000803e3d6000fd5b505050602060405103519350611550565b61154f672ad4d87bf39029de60c01b612041565b5b50505061156d565b61156c675c61079943debe0c60c01b612041565b5b6115816787ceeaaf3f2a20f460c01b612041565b61159567d9e6bd7b8159092260c01b612041565b8091505092915050565b6115b367f090ad8f34d8374260c01b610e28565b6115c7679b173da8e0d1d58d60c01b610e28565b6115db67bf0dcf18d9dda77360c01b610e28565b6115ef676da522628c8fb90e60c01b610e28565b600073ffffffffffffffffffffffffffffffffffffffff168473ffffffffffffffffffffffffffffffffffffffff16141561165f576040517f08c379a000000000000000000000000000000000000000000000000000000000815260040161165690613033565b60405180910390fd5b6116736782c7105ad68066b760c01b610e28565b61168767c7ad516acf17df6d60c01b610e28565b61169b672e841bbc752e307760c01b610e28565b6116af6780756eec711422c360c01b610e28565b60008251116116f3576040517f08c379a00000000000000000000000000000000000000000000000000000000081526004016116ea906130f3565b60405180910390fd5b61170767e729629226a8d69960c01b610e28565b61171b67c1697c09cd030a9960c01b610e28565b61172f67b921c36b24ece14f60c01b610e28565b61174367d3a3ddbc0f6224e560c01b610e28565b8151815114611787576040517f08c379a000000000000000000000000000000000000000000000000000000000815260040161177e90613093565b60405180910390fd5b61179b67529efcd601491d9460c01b610e28565b6117af6735e38233d31fbe3160c01b610e28565b6117c367abf5b34b87f3e13360c01b610e28565b8273ffffffffffffffffffffffffffffffffffffffff168473ffffffffffffffffffffffffffffffffffffffff1614611a375761180a6754f3dd4f52293b2560c01b610e28565b61181e67c0b61956e93a6e3460c01b610e28565b6118326777296577879b8c9f60c01b610e28565b61184667b9e73d2763e276cc60c01b610e28565b600360009054906101000a900473ffffffffffffffffffffffffffffffffffffffff1673ffffffffffffffffffffffffffffffffffffffff1663bb890d3f85856040518363ffffffff1660e01b81526004016118a3929190612ed9565b60206040518083038186803b1580156118bb57600080fd5b505afa1580156118cf573d6000803e3d6000fd5b505050506040513d601f19601f820116820180604052508101906118f3919061261f565b801561190f575061190e67be7effd65dd8314d60c01b611125565b5b806119df5750600260009054906101000a900473ffffffffffffffffffffffffffffffffffffffff1673ffffffffffffffffffffffffffffffffffffffff1663bb890d3f85856040518363ffffffff1660e01b8152600401611972929190612ed9565b60206040518083038186803b15801561198a57600080fd5b505afa15801561199e573d6000803e3d6000fd5b505050506040513d601f19601f820116820180604052508101906119c2919061261f565b80156119de57506119dd6779fd9b777152103c60c01b611125565b5b5b611a1e576040517f08c379a0000000000000000000000000000000000000000000000000000000008152600401611a1590613073565b60405180910390fd5b611a32676cba6b05eb54048d60c01b610e28565b611a4c565b611a4b678ec1432a4197989160c01b610e28565b5b611a606788e6318a633f8df660c01b610e28565b611a7467610fa35085b94f3060c01b610e28565b6000611a8a6763d6779da26a9ff660c01b610e28565b611a9e67db873dfbbd6a4aba60c01b610e28565b60005b8251811015611ce457611abe67bf145baa8de07acf60c01b610e28565b611ad267e59676b803667ed160c01b610e28565b611ae66767c2ae312506935d60c01b610e28565b600073ffffffffffffffffffffffffffffffffffffffff16848281518110611b0a57fe5b602002602001015173ffffffffffffffffffffffffffffffffffffffff161415611b69576040517f08c379a0000000000000000000000000000000000000000000000000000000008152600401611b6090612fb3565b60405180910390fd5b611b7d67572ca8a099c7491860c01b610e28565b611b9167668cda463425f64060c01b610e28565b838181518110611b9d57fe5b602002602001015173ffffffffffffffffffffffffffffffffffffffff16838281518110611bc757fe5b60200260200101518787604051602001611be393929190612db3565b604051602081830303815290604052604051611bff9190612d9c565b6000604051808303816000865af19150503d8060008114611c3c576040519150601f19603f3d011682016040523d82523d6000602084013e611c41565b606091505b505080925050611c5b675cbc0320e7c3119d60c01b610e28565b611c6f675d9d1409da3e3b7660c01b610e28565b611c836790eff8e448ba0e8760c01b610e28565b81611cc3576040517f08c379a0000000000000000000000000000000000000000000000000000000008152600401611cba906130b3565b60405180910390fd5b611cd767bba1e9e47517b17360c01b610e28565b8080600101915050611aa1565b505050505050565b6000611d026792f0cb51c140fbb860c01b610e28565b611d16677d5de162d9a5f1f260c01b610e28565b611d2a67661bad8363bb4f2c60c01b610e28565b611d837f6f4e1b2b1e5e49f4269e19e16e67a00cb0a796d96d30be3e4b540d3732e8bcad878787611d5a88611e98565b87604051602001611d6f959493929190612d45565b604051602081830303815290604052611fc4565b905095945050505050565b6000611da467ae1ef795eca3221560c01b61204f565b611db867d37ba4ba530b04ac60c01b61204f565b611dcc67fe2a147f5483f06360c01b61204f565b60008284019050611de767bb2e54790e211d3b60c01b61204f565b611dfb675078615359b7347060c01b61204f565b611e0f676fe1a185de5e7bf160c01b61204f565b83811015611e52576040517f08c379a0000000000000000000000000000000000000000000000000000000008152600401611e49906130d3565b60405180910390fd5b611e6667a3cfcf68469a2dd460c01b61204f565b611e7a6706858799e2509a6360c01b61204f565b611e8e674b63daab37e46ebb60c01b61204f565b8091505092915050565b6060611eae6751a260b66720537960c01b610e28565b611ec26702576d122b7bf3d960c01b610e28565b611ed66780d8cde6a3e4393860c01b610e28565b6060611eec673d9c784dab754f4660c01b610e28565b611f0067491c58db9a4dc0fc60c01b610e28565b600083519050611f1a67915283d826ea040d60c01b610e28565b611f2e67ffc9b790a3fc1dc860c01b610e28565b60005b81811015611f9157611f4d670ab0c5d08a2f905760c01b610e28565b82858281518110611f5a57fe5b6020026020010151604051602001611f73929190612dec565b60405160208183030381529060405292508080600101915050611f31565b50611fa66787f5686289be7a5260c01b610e28565b611fba67d8551c516b21e93d60c01b610e28565b8192505050919050565b6000611fda67c28073c085c0cb9e60c01b611156565b611fee6750c9eac71a66052560c01b611156565b612002674ea6a63c4a0ae5cf60c01b611156565b61203960015430858560405160200161201e9493929190612e36565b60405160208183030381529060405280519060200120612052565b905092915050565b50565b600060019050919050565b50565b600061206867287daf59cba0d52b60c01b612041565b61207c670696666c2d7382a160c01b612041565b612090670b7cc4199c01f54560c01b612041565b816040516020016120a19190612e10565b604051602081830303815290604052805190602001209050919050565b6000813590506120cd81613432565b92915050565b600082601f8301126120e457600080fd5b81356120f76120f28261317b565b61314e565b9150818183526020840193506020810190508385602084028201111561211c57600080fd5b60005b8381101561214c578161213288826120be565b84526020840193506020830192505060018101905061211f565b5050505092915050565b600082601f83011261216757600080fd5b813561217a612175826131a3565b61314e565b9150818183526020840193506020810190508360005b838110156121c057813586016121a68882612209565b845260208401935060208301925050600181019050612190565b5050505092915050565b6000813590506121d981613449565b92915050565b6000815190506121ee81613449565b92915050565b60008135905061220381613460565b92915050565b600082601f83011261221a57600080fd5b813561222d612228826131cb565b61314e565b9150808252602083016020830185838301111561224957600080fd5b61225483828461339a565b50505092915050565b60008135905061226c81613477565b92915050565b6000813590506122818161348e565b92915050565b600060a0828403121561229957600080fd5b6122a360a061314e565b905060006122b3848285016120be565b60008301525060206122c7848285016123e3565b602083015250604082013567ffffffffffffffff8111156122e757600080fd5b6122f3848285016120d3565b604083015250606082013567ffffffffffffffff81111561231357600080fd5b61231f84828501612156565b6060830152506080612333848285016123e3565b60808301525092915050565b60006080828403121561235157600080fd5b61235b608061314e565b9050600061236b848285016120be565b600083015250602061237f848285016123e3565b602083015250604082013567ffffffffffffffff81111561239f57600080fd5b6123ab848285016120d3565b604083015250606082013567ffffffffffffffff8111156123cb57600080fd5b6123d784828501612156565b60608301525092915050565b6000813590506123f2816134a5565b92915050565b60006020828403121561240a57600080fd5b6000612418848285016120be565b91505092915050565b60008060006060848603121561243657600080fd5b6000612444868287016120be565b935050602084013567ffffffffffffffff81111561246157600080fd5b61246d868287016120d3565b925050604084013567ffffffffffffffff81111561248a57600080fd5b61249686828701612156565b9150509250925092565b600080600080600060a086880312156124b857600080fd5b60006124c6888289016120be565b95505060206124d7888289016123e3565b945050604086013567ffffffffffffffff8111156124f457600080fd5b612500888289016120d3565b935050606086013567ffffffffffffffff81111561251d57600080fd5b61252988828901612156565b925050608086013567ffffffffffffffff81111561254657600080fd5b61255288828901612209565b9150509295509295909350565b6000806040838503121561257257600080fd5b600083013567ffffffffffffffff81111561258c57600080fd5b612598858286016120d3565b925050602083013567ffffffffffffffff8111156125b557600080fd5b6125c185828601612156565b9150509250929050565b600080604083850312156125de57600080fd5b600083013567ffffffffffffffff8111156125f857600080fd5b61260485828601612156565b9250506020612615858286016121ca565b9150509250929050565b60006020828403121561263157600080fd5b600061263f848285016121df565b91505092915050565b60006020828403121561265a57600080fd5b6000612668848285016121f4565b91505092915050565b6000806040838503121561268457600080fd5b60006126928582860161225d565b92505060206126a385828601612272565b9150509250929050565b6000602082840312156126bf57600080fd5b600082013567ffffffffffffffff8111156126d957600080fd5b6126e584828501612287565b91505092915050565b60006020828403121561270057600080fd5b600082013567ffffffffffffffff81111561271a57600080fd5b6127268482850161233f565b91505092915050565b600061273b8383612765565b60208301905092915050565b6127508161331c565b82525050565b61275f8161326d565b82525050565b61276e8161326d565b82525050565b6127856127808261326d565b6133dc565b82525050565b600061279682613207565b6127a0818561322a565b93506127ab836131f7565b8060005b838110156127dc5781516127c3888261272f565b97506127ce8361321d565b9250506001810190506127af565b5085935050505092915050565b6127f28161327f565b82525050565b6128018161328b565b82525050565b6128186128138261328b565b6133ee565b82525050565b600061282982613212565b6128338185613235565b93506128438185602086016133a9565b61284c81613414565b840191505092915050565b600061286282613212565b61286c8185613246565b935061287c8185602086016133a9565b80840191505092915050565b6128918161332e565b82525050565b6128a081613352565b82525050565b60006128b3601b83613251565b91507f476174657761793a2063616e6e6f742073656e6420746f2030783000000000006000830152602082019050919050565b60006128f3601c83613262565b91507f19457468657265756d205369676e6564204d6573736167653a0a3332000000006000830152601c82019050919050565b6000612933602f83613251565b91507f496e697469616c697a61626c653a2074782e6f726967696e206973206e6f742060008301527f74686520696e697469616c697a657200000000000000000000000000000000006020830152604082019050919050565b6000612999601783613251565b91507f476174657761793a2062617463682072657665727465640000000000000000006000830152602082019050919050565b60006129d9603283613251565b91507f476174657761793a206e6f6e6365206973206c6f776572207468616e2063757260008301527f72656e74206163636f756e74206e6f6e636500000000000000000000000000006020830152604082019050919050565b6000612a3f602583613251565b91507f476174657761793a2063616e6e6f742073656e642066726f6d2030783020616360008301527f636f756e740000000000000000000000000000000000000000000000000000006020830152604082019050919050565b6000612aa5602683613251565b91507f476174657761793a2063616e6e6f742064656c656761746520656d707479206260008301527f61746368657300000000000000000000000000000000000000000000000000006020830152604082019050919050565b6000612b0b602883613251565b91507f476174657761793a2073656e646572206973206e6f7420746865206163636f7560008301527f6e74206f776e65720000000000000000000000000000000000000000000000006020830152604082019050919050565b6000612b71601683613251565b91507f476174657761793a20696e76616c6964206261746368000000000000000000006000830152602082019050919050565b6000612bb1602383613251565b91507f476174657761793a206261746368207472616e73616374696f6e20726576657260008301527f74656400000000000000000000000000000000000000000000000000000000006020830152604082019050919050565b6000612c17601e83613251565b91507f536166654d6174684c69623a206164646974696f6e206f766572666c6f7700006000830152602082019050919050565b6000612c57602083613251565b91507f476174657761793a2063616e6e6f742073656e6420656d7074792062617463686000830152602082019050919050565b6000612c97601d83613251565b91507f476174657761793a20616c6c20626174636865732072657665727465640000006000830152602082019050919050565b612cd381613305565b82525050565b612cea612ce582613305565b61340a565b82525050565b612cf98161330f565b82525050565b6000612d0b8287612774565b601482019150612d1b8286612cd9565b602082019150612d2b828561278b565b9150612d378284612857565b915081905095945050505050565b6000612d518288612774565b601482019150612d618287612cd9565b602082019150612d71828661278b565b9150612d7d8285612857565b9150612d898284612cd9565b6020820191508190509695505050505050565b6000612da88284612857565b915081905092915050565b6000612dbf8286612857565b9150612dcb8285612774565b601482019150612ddb8284612774565b601482019150819050949350505050565b6000612df88285612857565b9150612e048284612857565b91508190509392505050565b6000612e1b826128e6565b9150612e278284612807565b60208201915081905092915050565b6000612e428287612cd9565b602082019150612e528286612774565b601482019150612e628285612807565b602082019150612e728284612857565b915081905095945050505050565b6000602082019050612e956000830184612747565b92915050565b6000606082019050612eb06000830186612747565b8181036020830152612ec2818561281e565b9050612ed160408301846127e9565b949350505050565b6000604082019050612eee6000830185612756565b612efb6020830184612756565b9392505050565b6000602082019050612f1760008301846127e9565b92915050565b6000602082019050612f3260008301846127f8565b92915050565b6000608082019050612f4d60008301876127f8565b612f5a6020830186612cf0565b612f6760408301856127f8565b612f7460608301846127f8565b95945050505050565b6000602082019050612f926000830184612888565b92915050565b6000602082019050612fad6000830184612897565b92915050565b60006020820190508181036000830152612fcc816128a6565b9050919050565b60006020820190508181036000830152612fec81612926565b9050919050565b6000602082019050818103600083015261300c8161298c565b9050919050565b6000602082019050818103600083015261302c816129cc565b9050919050565b6000602082019050818103600083015261304c81612a32565b9050919050565b6000602082019050818103600083015261306c81612a98565b9050919050565b6000602082019050818103600083015261308c81612afe565b9050919050565b600060208201905081810360008301526130ac81612b64565b9050919050565b600060208201905081810360008301526130cc81612ba4565b9050919050565b600060208201905081810360008301526130ec81612c0a565b9050919050565b6000602082019050818103600083015261310c81612c4a565b9050919050565b6000602082019050818103600083015261312c81612c8a565b9050919050565b60006020820190506131486000830184612cca565b92915050565b6000604051905081810181811067ffffffffffffffff8211171561317157600080fd5b8060405250919050565b600067ffffffffffffffff82111561319257600080fd5b602082029050602081019050919050565b600067ffffffffffffffff8211156131ba57600080fd5b602082029050602081019050919050565b600067ffffffffffffffff8211156131e257600080fd5b601f19601f8301169050602081019050919050565b6000819050602082019050919050565b600081519050919050565b600081519050919050565b6000602082019050919050565b600081905092915050565b600082825260208201905092915050565b600081905092915050565b600082825260208201905092915050565b600081905092915050565b6000613278826132e5565b9050919050565b60008115159050919050565b6000819050919050565b60007fffffffffffffffff00000000000000000000000000000000000000000000000082169050919050565b60006132cc8261326d565b9050919050565b60006132de8261326d565b9050919050565b600073ffffffffffffffffffffffffffffffffffffffff82169050919050565b6000819050919050565b600060ff82169050919050565b600061332782613376565b9050919050565b600061333982613340565b9050919050565b600061334b826132e5565b9050919050565b600061335d82613364565b9050919050565b600061336f826132e5565b9050919050565b600061338182613388565b9050919050565b6000613393826132e5565b9050919050565b82818337600083830152505050565b60005b838110156133c75780820151818401526020810190506133ac565b838111156133d6576000848401525b50505050565b60006133e7826133f8565b9050919050565b6000819050919050565b600061340382613425565b9050919050565b6000819050919050565b6000601f19601f8301169050919050565b60008160601b9050919050565b61343b8161326d565b811461344657600080fd5b50565b6134528161327f565b811461345d57600080fd5b50565b61346981613295565b811461347457600080fd5b50565b613480816132c1565b811461348b57600080fd5b50565b613497816132d3565b81146134a257600080fd5b50565b6134ae81613305565b81146134b957600080fd5b5056fea164736f6c634300060c000a",
  "linkReferences": {},
  "deployedLinkReferences": {}
}