{
  "_format": "hh-sol-artifact-1",
  "contractName": "Gateway",
  "sourceName": "src/gateway/Gateway.sol",
  "abi": [
    {
      "inputs": [],
      "stateMutability": "nonpayable",
      "type": "constructor"
    },
    {
      "anonymous": false,
      "inputs": [
        {
          "indexed": false,
          "internalType": "address",
          "name": "sender",
          "type": "address"
        },
        {
          "indexed": false,
          "internalType": "bytes",
          "name": "batch",
          "type": "bytes"
        },
        {
          "indexed": false,
          "internalType": "bool",
          "name": "succeeded",
          "type": "bool"
        }
      ],
      "name": "BatchDelegated",
      "type": "event"
    },
    {
      "anonymous": false,
      "inputs": [
        {
          "indexed": false,
          "internalType": "address",
          "name": "initializer",
          "type": "address"
        }
      ],
      "name": "Initialized",
      "type": "event"
    },
    {
      "inputs": [
        {
          "internalType": "bytes8",
          "name": "c__1b54acf3",
          "type": "bytes8"
        }
      ],
      "name": "c_1b54acf3",
      "outputs": [],
      "stateMutability": "pure",
      "type": "function"
    },
    {
      "inputs": [
        {
          "internalType": "bytes8",
          "name": "c__c0828b70",
          "type": "bytes8"
        }
      ],
      "name": "c_c0828b70",
      "outputs": [],
      "stateMutability": "pure",
      "type": "function"
    },
    {
      "inputs": [
        {
          "internalType": "bytes8",
          "name": "c__db9228d3",
          "type": "bytes8"
        }
      ],
      "name": "c_db9228d3",
      "outputs": [],
      "stateMutability": "pure",
      "type": "function"
    },
    {
      "inputs": [
        {
          "internalType": "bytes8",
          "name": "c__1b54acf3",
          "type": "bytes8"
        }
      ],
      "name": "c_false1b54acf3",
      "outputs": [
        {
          "internalType": "bool",
          "name": "",
          "type": "bool"
        }
      ],
      "stateMutability": "pure",
      "type": "function"
    },
    {
      "inputs": [
        {
          "internalType": "bytes8",
          "name": "c__c0828b70",
          "type": "bytes8"
        }
      ],
      "name": "c_falsec0828b70",
      "outputs": [
        {
          "internalType": "bool",
          "name": "",
          "type": "bool"
        }
      ],
      "stateMutability": "pure",
      "type": "function"
    },
    {
      "inputs": [
        {
          "internalType": "bytes8",
          "name": "c__db9228d3",
          "type": "bytes8"
        }
      ],
      "name": "c_falsedb9228d3",
      "outputs": [
        {
          "internalType": "bool",
          "name": "",
          "type": "bool"
        }
      ],
      "stateMutability": "pure",
      "type": "function"
    },
    {
      "inputs": [
        {
          "internalType": "bytes8",
          "name": "c__1b54acf3",
          "type": "bytes8"
        }
      ],
      "name": "c_true1b54acf3",
      "outputs": [
        {
          "internalType": "bool",
          "name": "",
          "type": "bool"
        }
      ],
      "stateMutability": "pure",
      "type": "function"
    },
    {
      "inputs": [
        {
          "internalType": "bytes8",
          "name": "c__c0828b70",
          "type": "bytes8"
        }
      ],
      "name": "c_truec0828b70",
      "outputs": [
        {
          "internalType": "bool",
          "name": "",
          "type": "bool"
        }
      ],
      "stateMutability": "pure",
      "type": "function"
    },
    {
      "inputs": [
        {
          "internalType": "bytes8",
          "name": "c__db9228d3",
          "type": "bytes8"
        }
      ],
      "name": "c_truedb9228d3",
      "outputs": [
        {
          "internalType": "bool",
          "name": "",
          "type": "bool"
        }
      ],
      "stateMutability": "pure",
      "type": "function"
    },
    {
      "inputs": [],
      "name": "chainId",
      "outputs": [
        {
          "internalType": "uint256",
          "name": "",
          "type": "uint256"
        }
      ],
      "stateMutability": "view",
      "type": "function"
    },
    {
      "inputs": [
        {
          "internalType": "address",
          "name": "account",
          "type": "address"
        },
        {
          "internalType": "uint256",
          "name": "nonce",
          "type": "uint256"
        },
        {
          "internalType": "address[]",
          "name": "to",
          "type": "address[]"
        },
        {
          "internalType": "bytes[]",
          "name": "data",
          "type": "bytes[]"
        },
        {
          "internalType": "bytes",
          "name": "senderSignature",
          "type": "bytes"
        }
      ],
      "name": "delegateBatch",
      "outputs": [],
      "stateMutability": "nonpayable",
      "type": "function"
    },
    {
      "inputs": [
        {
          "internalType": "address",
          "name": "account",
          "type": "address"
        },
        {
          "internalType": "uint256",
          "name": "nonce",
          "type": "uint256"
        },
        {
          "internalType": "address[]",
          "name": "to",
          "type": "address[]"
        },
        {
          "internalType": "bytes[]",
          "name": "data",
          "type": "bytes[]"
        },
        {
          "internalType": "bytes",
          "name": "senderSignature",
          "type": "bytes"
        }
      ],
      "name": "delegateBatchWithGasPrice",
      "outputs": [],
      "stateMutability": "nonpayable",
      "type": "function"
    },
    {
      "inputs": [
        {
          "internalType": "bytes[]",
          "name": "batches",
          "type": "bytes[]"
        },
        {
          "internalType": "bool",
          "name": "revertOnFailure",
          "type": "bool"
        }
      ],
      "name": "delegateBatches",
      "outputs": [],
      "stateMutability": "nonpayable",
      "type": "function"
    },
    {
      "inputs": [],
      "name": "externalAccountRegistry",
      "outputs": [
        {
          "internalType": "contract ExternalAccountRegistry",
          "name": "",
          "type": "address"
        }
      ],
      "stateMutability": "view",
      "type": "function"
    },
    {
      "inputs": [
        {
          "internalType": "address",
          "name": "account",
          "type": "address"
        }
      ],
      "name": "getAccountNextNonce",
      "outputs": [
        {
          "internalType": "uint256",
          "name": "",
          "type": "uint256"
        }
      ],
      "stateMutability": "view",
      "type": "function"
    },
    {
      "inputs": [
        {
          "components": [
            {
              "internalType": "address",
              "name": "account",
              "type": "address"
            },
            {
              "internalType": "uint256",
              "name": "nonce",
              "type": "uint256"
            },
            {
              "internalType": "address[]",
              "name": "to",
              "type": "address[]"
            },
            {
              "internalType": "bytes[]",
              "name": "data",
              "type": "bytes[]"
            }
          ],
          "internalType": "struct Gateway.DelegatedBatch",
          "name": "delegatedBatch",
          "type": "tuple"
        }
      ],
      "name": "hashDelegatedBatch",
      "outputs": [
        {
          "internalType": "bytes32",
          "name": "",
          "type": "bytes32"
        }
      ],
      "stateMutability": "view",
      "type": "function"
    },
    {
      "inputs": [
        {
          "components": [
            {
              "internalType": "address",
              "name": "account",
              "type": "address"
            },
            {
              "internalType": "uint256",
              "name": "nonce",
              "type": "uint256"
            },
            {
              "internalType": "address[]",
              "name": "to",
              "type": "address[]"
            },
            {
              "internalType": "bytes[]",
              "name": "data",
              "type": "bytes[]"
            },
            {
              "internalType": "uint256",
              "name": "gasPrice",
              "type": "uint256"
            }
          ],
          "internalType": "struct Gateway.DelegatedBatchWithGasPrice",
          "name": "delegatedBatch",
          "type": "tuple"
        }
      ],
      "name": "hashDelegatedBatchWithGasPrice",
      "outputs": [
        {
          "internalType": "bytes32",
          "name": "",
          "type": "bytes32"
        }
      ],
      "stateMutability": "view",
      "type": "function"
    },
    {
      "inputs": [
        {
          "internalType": "contract ExternalAccountRegistry",
          "name": "externalAccountRegistry_",
          "type": "address"
        },
        {
          "internalType": "contract PersonalAccountRegistry",
          "name": "personalAccountRegistry_",
          "type": "address"
        }
      ],
      "name": "initialize",
      "outputs": [],
      "stateMutability": "nonpayable",
      "type": "function"
    },
    {
      "inputs": [],
      "name": "isInitialized",
      "outputs": [
        {
          "internalType": "bool",
          "name": "",
          "type": "bool"
        }
      ],
      "stateMutability": "view",
      "type": "function"
    },
    {
      "inputs": [],
      "name": "personalAccountRegistry",
      "outputs": [
        {
          "internalType": "contract PersonalAccountRegistry",
          "name": "",
          "type": "address"
        }
      ],
      "stateMutability": "view",
      "type": "function"
    },
    {
      "inputs": [
        {
          "internalType": "address[]",
          "name": "to",
          "type": "address[]"
        },
        {
          "internalType": "bytes[]",
          "name": "data",
          "type": "bytes[]"
        }
      ],
      "name": "sendBatch",
      "outputs": [],
      "stateMutability": "nonpayable",
      "type": "function"
    },
    {
      "inputs": [
        {
          "internalType": "address",
          "name": "account",
          "type": "address"
        },
        {
          "internalType": "address[]",
          "name": "to",
          "type": "address[]"
        },
        {
          "internalType": "bytes[]",
          "name": "data",
          "type": "bytes[]"
        }
      ],
      "name": "sendBatchFromAccount",
      "outputs": [],
      "stateMutability": "nonpayable",
      "type": "function"
    }
  ],
  "bytecode": "0x60806040523480156200001157600080fd5b506200002e676dfe6291193cb09c60c01b6200014560201b60201c565b6200004a67e53a0351407a575160c01b6200014560201b60201c565b326000806101000a81548173ffffffffffffffffffffffffffffffffffffffff021916908373ffffffffffffffffffffffffffffffffffffffff160217905550620000a667cc0739d8b529ab1160c01b6200014860201b60201c565b620000c267630a1cb51704c18c60c01b6200014860201b60201c565b620000de6719ce34ff3088286260c01b6200014860201b60201c565b6000620000fc670b0fa3462988c3ce60c01b6200014860201b60201c565b4690506200011b67aa7c98b8449701be60c01b6200014860201b60201c565b80600181905550506200013f672e4cc654b434d07460c01b6200014b60201b60201c565b6200014e565b50565b50565b50565b6134c7806200015e6000396000f3fe608060405234801561001057600080fd5b50600436106101425760003560e01c80637f130864116100b8578063b5021b161161007c578063b5021b1614610385578063bbd3466c146103a1578063d2c83b9a146103d1578063e831bfba146103ef578063edf092b11461040b578063f92c5f7c1461043b57610142565b80637f130864146102e1578063867519c61461031157806387d313131461032d5780639a8a05921461034b5780639f2556261461036957610142565b8063485cc9551161010a578063485cc955146101fd578063589731f8146102195780635afaa7bb1461024957806373e5a13f146102655780637403056c1461029557806376db2b4c146102b157610142565b80631262ed1c146101475780631812164614610177578063231badaf146101935780632e6afd6e146101af578063392e53cd146101df575b600080fd5b610161600480360381019061015c9190612646565b61046b565b60405161016e9190612f00565b60405180910390f35b610191600480360381019061018c9190612646565b610476565b005b6101ad60048036038101906101a8919061249e565b610479565b005b6101c960048036038101906101c49190612646565b61063c565b6040516101d69190612f00565b60405180910390f35b6101e7610643565b6040516101f49190612f00565b60405180910390f35b6102176004803603810190610212919061266f565b6106d5565b005b610233600480360381019061022e9190612646565b610979565b6040516102409190612f00565b60405180910390f35b610263600480360381019061025e91906125c9565b610980565b005b61027f600480360381019061027a91906126ec565b610dc6565b60405161028c9190612f1b565b60405180910390f35b6102af60048036038101906102aa9190612646565b610e27565b005b6102cb60048036038101906102c691906126ab565b610e2a565b6040516102d89190612f1b565b60405180910390f35b6102fb60048036038101906102f69190612646565b610e90565b6040516103089190612f00565b60405180910390f35b61032b6004803603810190610326919061241f565b610e9b565b005b610335610ee8565b6040516103429190612f96565b60405180910390f35b610353610f0e565b6040516103609190613131565b60405180910390f35b610383600480360381019061037e919061255d565b610f14565b005b61039f600480360381019061039a919061249e565b610f60565b005b6103bb60048036038101906103b69190612646565b611124565b6040516103c89190612f00565b60405180910390f35b6103d961112f565b6040516103e69190612f7b565b60405180910390f35b61040960048036038101906104049190612646565b611155565b005b61042560048036038101906104209190612646565b611158565b6040516104329190612f00565b60405180910390f35b610455600480360381019061045091906123f6565b61115f565b6040516104629190613131565b60405180910390f35b600060019050919050565b50565b61048d67f762bbfaf54dc09b60c01b610e27565b6104a1675b6c97cb7e57939a60c01b610e27565b6104b5672635a88ea16edb3d60c01b610e27565b6104c9671822dd71d284197360c01b610e27565b600460008673ffffffffffffffffffffffffffffffffffffffff1673ffffffffffffffffffffffffffffffffffffffff16815260200190815260200160002054841161054a576040517f08c379a000000000000000000000000000000000000000000000000000000000815260040161054190613011565b60405180910390fd5b61055e67e59f33a455a7fd1a60c01b610e27565b6105726762294d076c31685960c01b610e27565b610586678748bb2290c7dfc860c01b610e27565b60006105a682610598888888886111f7565b61129690919063ffffffff16565b90506105bc674a5acc641b0ede4f60c01b610e27565b84600460008873ffffffffffffffffffffffffffffffffffffffff1673ffffffffffffffffffffffffffffffffffffffff16815260200190815260200160002081905550610614670f34183509a9a67a60c01b610e27565b61062867853456ae2f4ef8fb60c01b610e27565b6106348682868661159d565b505050505050565b6000919050565b600061065967f7e9d611cc9b61cc60c01b610476565b61066c663a321d7210235060c01b610476565b610680677835008d2fa130b460c01b610476565b600073ffffffffffffffffffffffffffffffffffffffff1660008054906101000a900473ffffffffffffffffffffffffffffffffffffffff1673ffffffffffffffffffffffffffffffffffffffff1614905090565b6106e967b20379d812eec91d60c01b610e27565b6106fd67fcfa9f56aa2da43760c01b610476565b61071167fb88de49e16e7f9a60c01b610476565b61072567b0390fd68bc3d08360c01b610476565b6107396736465d694fbcce6560c01b610476565b60008054906101000a900473ffffffffffffffffffffffffffffffffffffffff1673ffffffffffffffffffffffffffffffffffffffff163273ffffffffffffffffffffffffffffffffffffffff16146107c7576040517f08c379a00000000000000000000000000000000000000000000000000000000081526004016107be90612fd1565b60405180910390fd5b6107db670837dbff5fe2bf1560c01b610476565b6107ef6708a4449089149c9e60c01b610476565b60008060006101000a81548173ffffffffffffffffffffffffffffffffffffffff021916908373ffffffffffffffffffffffffffffffffffffffff160217905550610844677090866afaacfcb260c01b610476565b61085867c8395b7836ccfe8d60c01b610e27565b61086c676a93f4c161c4413460c01b610e27565b610880676d51668cfd40548160c01b610e27565b81600260006101000a81548173ffffffffffffffffffffffffffffffffffffffff021916908373ffffffffffffffffffffffffffffffffffffffff1602179055506108d567466e02745dc0a54e60c01b610e27565b80600360006101000a81548173ffffffffffffffffffffffffffffffffffffffff021916908373ffffffffffffffffffffffffffffffffffffffff16021790555061092a67fb94bf07355708f360c01b610476565b61093e67fe130d7f30f64fe360c01b610476565b7f908408e307fc569b417f6cbec5d5a06f44a0a505ac0479b47d421a4b2fd6a1e63260405161096d9190612e7e565b60405180910390a15050565b6000919050565b610994674e87bef286ae3d3b60c01b610e27565b6109a86724bbb66121d77ed360c01b610e27565b6109bc6711bb8343a1b1253e60c01b610e27565b6109d067ef6262af934fe11e60c01b610e27565b6000825111610a14576040517f08c379a0000000000000000000000000000000000000000000000000000000008152600401610a0b90613051565b60405180910390fd5b610a2867036db56505f9f4a060c01b610e27565b610a3c67c70080822ec2fca560c01b610e27565b610a50676f4d1d255c152ea460c01b610e27565b6000610a6667c6b9c3d1f310141e60c01b610e27565b610a7a677726287424ae517260c01b610e27565b60005b8351811015610d0857610a9a67a2628302bcd94a7560c01b610e27565b610aae67089b89ff5614b8f560c01b610e27565b60003073ffffffffffffffffffffffffffffffffffffffff16858381518110610ad357fe5b6020026020010151604051610ae89190612d9a565b6000604051808303816000865af19150503d8060008114610b25576040519150601f19603f3d011682016040523d82523d6000602084013e610b2a565b606091505b50509050610b426776a57ceb1122023660c01b610e27565b610b5667cc93eab22470562860c01b610e27565b8315610c0557610b70679b3d1e40dbb779ea60c01b610e27565b610b8467917ba166dae1f0ba60c01b610e27565b610b98672813d6bad8e872ae60c01b610e27565b610bac67123bb5f51298328860c01b610e27565b80610bec576040517f08c379a0000000000000000000000000000000000000000000000000000000008152600401610be390612ff1565b60405180910390fd5b610c00677bf85aad3bdacb7460c01b610e27565b610c84565b610c1967ace5622470c0c39760c01b610e27565b610c2d67c61da771b5e5b52260c01b610e27565b808015610c38575082155b15610c6e57610c5167023352a7c329183360c01b610e27565b610c6567900df2b381f974d460c01b610e27565b60019250610c83565b610c82675270a26fb7551a3960c01b610e27565b5b5b610c9867ac5c4e31b997718160c01b610e27565b610cac6768ae1feb2261004960c01b610e27565b7f361c14722cc344132c73396113f7164232448b09c544a149f09048648b43d87233868481518110610cda57fe5b602002602001015183604051610cf293929190612e99565b60405180910390a1508080600101915050610a7d565b50610d1d67080c4636e612e83a60c01b610e27565b610d316796a1f2ad80ba92d460c01b610e27565b80610dad57610d4a675cbb52fba3f161bc60c01b610e27565b610d5e67aeee67ee14405b3d60c01b610e27565b610d72676b395fdd888cf1d360c01b610e27565b6040517f08c379a0000000000000000000000000000000000000000000000000000000008152600401610da490613111565b60405180910390fd5b610dc167f404a77a192561d260c01b610e27565b505050565b6000610ddc6713eef26a866dadd060c01b610e27565b610df067e68f04257d2844f360c01b610e27565b610e0467a872885a7cc7d56b60c01b610e27565b610e2082600001518360200151846040015185606001516111f7565b9050919050565b50565b6000610e406718303ded2d6560c260c01b610e27565b610e5467ae9a0c0a980ad2b860c01b610e27565b610e68670e5897385b3aca1760c01b610e27565b610e8982600001518360200151846040015185606001518660800151611cea565b9050919050565b600060019050919050565b610eaf6775b5bb12396dfab860c01b610e27565b610ec367f467aad7c96bba9d60c01b610e27565b610ed767c632b771bad3995460c01b610e27565b610ee38333848461159d565b505050565b600360009054906101000a900473ffffffffffffffffffffffffffffffffffffffff1681565b60015481565b610f2867fe8170216eec9b3d60c01b610e27565b610f3c675a68d342131aa81c60c01b610e27565b610f506715f0ccca0328107660c01b610e27565b610f5c3333848461159d565b5050565b610f7467397eea3365c7350c60c01b610e27565b610f8867f5b6100f0f83a69c60c01b610e27565b610f9c67915c5b22f789783860c01b610e27565b610fb06774b8292ece3d3c8c60c01b610e27565b600460008673ffffffffffffffffffffffffffffffffffffffff1673ffffffffffffffffffffffffffffffffffffffff168152602001908152602001600020548411611031576040517f08c379a000000000000000000000000000000000000000000000000000000000815260040161102890613011565b60405180910390fd5b61104567823bf50952577e1b60c01b610e27565b611059676054bbac34d1f16360c01b610e27565b61106d67abe1834034eb5d3f60c01b610e27565b600061108e82611080888888883a611cea565b61129690919063ffffffff16565b90506110a467c477d10a6f8396c060c01b610e27565b84600460008873ffffffffffffffffffffffffffffffffffffffff1673ffffffffffffffffffffffffffffffffffffffff168152602001908152602001600020819055506110fc673b0e90fbb848d8d160c01b610e27565b61111067371c0099dc83528260c01b610e27565b61111c8682868661159d565b505050505050565b600060019050919050565b600260009054906101000a900473ffffffffffffffffffffffffffffffffffffffff1681565b50565b6000919050565b60006111756780bb3689c8b0cf9260c01b610e27565b611189671c0b88da0231b15d60c01b610e27565b61119d674f22ce53dc2599b360c01b610e27565b6111f06001600460008573ffffffffffffffffffffffffffffffffffffffff1673ffffffffffffffffffffffffffffffffffffffff16815260200190815260200160002054611d8c90919063ffffffff16565b9050919050565b600061120d677a5b58ea5ae5cf0160c01b610e27565b6112216749b3ff7e86e80efd60c01b610e27565b6112356773364346fd1a4e5560c01b610e27565b61128c7f6848d0622081db2451400280dead7a739a080cb93852607c381af11e289769b286868661126587611e96565b6040516020016112789493929190612cfd565b604051602081830303815290604052611fc2565b9050949350505050565b60006112ac67e710cfd691944ecc60c01b61203f565b6112c0670294e6bd98a0f62d60c01b61203f565b6112d4672ab65f4f031e9def60c01b61203f565b60006112ea67c6d253441a2ce96960c01b61203f565b6112fe67d507789c27b9728c60c01b61203f565b6041835114156115565761131c67c2aeb0e1af675d5460c01b61203f565b61133067132cb9b7d0d6e6fb60c01b61203f565b6113446733531d442010362560c01b61203f565b600061135a67fad8c7fceb31964660c01b61203f565b61136e67efaa9aab96f45ecf60c01b61203f565b600061138467a62978cc94671abb60c01b61203f565b6113986760b909685737ef6860c01b61203f565b60006113ae678e8a4f44537e79e560c01b61203f565b6020860151925060408601519150606086015160001a90506113da67284a83339c1f2f7260c01b61203f565b6113ee6737f23b19123b98a560c01b61203f565b601b8160ff16101561142d5761140e6740c617d25322a1e960c01b61203f565b61142267f2fa807318960d7060c01b61203f565b601b81019050611442565b61144167bf9557648bed897660c01b61203f565b5b61145667d900a81b8b38110a60c01b61203f565b61146a67c7a42d5f693bb07560c01b61203f565b601b8160ff1614801561148d575061148c67c15d680a0d1bdf9b60c01b612042565b5b806114b75750601c8160ff161480156114b657506114b5672aeb3fb673e7536760c01b612042565b5b5b15611539576114d0675c8ff17285f13d9760c01b61203f565b6114e366751e47d6c1350a60c01b61203f565b600187828585604051600081526020016040526040516115069493929190612f36565b6020604051602081039080840390855afa158015611528573d6000803e3d6000fd5b50505060206040510351935061154e565b61154d673685a6bcd969a27360c01b61203f565b5b50505061156b565b61156a67b007f12c841b69c460c01b61203f565b5b61157f6708a35a687b2ffbcd60c01b61203f565b611593675e1719d1223e5f0a60c01b61203f565b8091505092915050565b6115b167852ee24eb8cf03fc60c01b610e27565b6115c5675684eda2d6da4d0f60c01b610e27565b6115d967b1ff92ba629d1f1960c01b610e27565b6115ed671fbe882100a71a2560c01b610e27565b600073ffffffffffffffffffffffffffffffffffffffff168473ffffffffffffffffffffffffffffffffffffffff16141561165d576040517f08c379a000000000000000000000000000000000000000000000000000000000815260040161165490613031565b60405180910390fd5b61167167e59a10580eab4a6760c01b610e27565b6116856731a692513800cb9b60c01b610e27565b6116996709fdafb776588c6a60c01b610e27565b6116ad6760739c8145a0dc4260c01b610e27565b60008251116116f1576040517f08c379a00000000000000000000000000000000000000000000000000000000081526004016116e8906130f1565b60405180910390fd5b611705675b7dfb206f6b810660c01b610e27565b61171967a3eabcc5e801254e60c01b610e27565b61172d6734e9ead61fcd62a960c01b610e27565b611741675bc45efff29ab31860c01b610e27565b8151815114611785576040517f08c379a000000000000000000000000000000000000000000000000000000000815260040161177c90613091565b60405180910390fd5b61179967cbba5185b44c9b9f60c01b610e27565b6117ad67ed66cc45367002ae60c01b610e27565b6117c16786e19a64e13d84b760c01b610e27565b8273ffffffffffffffffffffffffffffffffffffffff168473ffffffffffffffffffffffffffffffffffffffff1614611a355761180867f07d88861695420560c01b610e27565b61181c67e4956d5caf70d84460c01b610e27565b61183067e729313141bcf21560c01b610e27565b611844679f4518cca881fbe760c01b610e27565b600360009054906101000a900473ffffffffffffffffffffffffffffffffffffffff1673ffffffffffffffffffffffffffffffffffffffff1663bb890d3f85856040518363ffffffff1660e01b81526004016118a1929190612ed7565b60206040518083038186803b1580156118b957600080fd5b505afa1580156118cd573d6000803e3d6000fd5b505050506040513d601f19601f820116820180604052508101906118f1919061261d565b801561190d575061190c67c0b57879951eb11260c01b611124565b5b806119dd5750600260009054906101000a900473ffffffffffffffffffffffffffffffffffffffff1673ffffffffffffffffffffffffffffffffffffffff1663bb890d3f85856040518363ffffffff1660e01b8152600401611970929190612ed7565b60206040518083038186803b15801561198857600080fd5b505afa15801561199c573d6000803e3d6000fd5b505050506040513d601f19601f820116820180604052508101906119c0919061261d565b80156119dc57506119db67a91e5483e9bfd8b360c01b611124565b5b5b611a1c576040517f08c379a0000000000000000000000000000000000000000000000000000000008152600401611a1390613071565b60405180910390fd5b611a306745984bf43721738260c01b610e27565b611a4a565b611a4967cd4836e6ec10932760c01b610e27565b5b611a5e6734e0329ac42c23bb60c01b610e27565b611a7267d3043eb9bebc1ed060c01b610e27565b6000611a88673b9b395e34f82c6260c01b610e27565b611a9c67bf09e88b6ead1f6f60c01b610e27565b60005b8251811015611ce257611abc678105358361ed3c1e60c01b610e27565b611ad06709e013565a88a8b860c01b610e27565b611ae46709ed9cfd3b893fb460c01b610e27565b600073ffffffffffffffffffffffffffffffffffffffff16848281518110611b0857fe5b602002602001015173ffffffffffffffffffffffffffffffffffffffff161415611b67576040517f08c379a0000000000000000000000000000000000000000000000000000000008152600401611b5e90612fb1565b60405180910390fd5b611b7b673f3ea012490e3c2360c01b610e27565b611b8f67afe45ab5187e267960c01b610e27565b838181518110611b9b57fe5b602002602001015173ffffffffffffffffffffffffffffffffffffffff16838281518110611bc557fe5b60200260200101518787604051602001611be193929190612db1565b604051602081830303815290604052604051611bfd9190612d9a565b6000604051808303816000865af19150503d8060008114611c3a576040519150601f19603f3d011682016040523d82523d6000602084013e611c3f565b606091505b505080925050611c596748115b791f829c5260c01b610e27565b611c6d6717bb68b1656bb88460c01b610e27565b611c81675b41b1b859fa852460c01b610e27565b81611cc1576040517f08c379a0000000000000000000000000000000000000000000000000000000008152600401611cb8906130b1565b60405180910390fd5b611cd56760ce1e7bf80815f060c01b610e27565b8080600101915050611a9f565b505050505050565b6000611d0067929a7e245a8deda460c01b610e27565b611d146701a4643318d46dfc60c01b610e27565b611d2867e4015d1e0b00558d60c01b610e27565b611d817f6f4e1b2b1e5e49f4269e19e16e67a00cb0a796d96d30be3e4b540d3732e8bcad878787611d5888611e96565b87604051602001611d6d959493929190612d43565b604051602081830303815290604052611fc2565b905095945050505050565b6000611da2672f7081d3ac69d64f60c01b61204d565b611db667e05e60bdd722f66160c01b61204d565b611dca6774c838bbf482bd8560c01b61204d565b60008284019050611de56791de80e355d3edb460c01b61204d565b611df9677ca3e91bc6a152c860c01b61204d565b611e0d6725c47f0291cfa2c760c01b61204d565b83811015611e50576040517f08c379a0000000000000000000000000000000000000000000000000000000008152600401611e47906130d1565b60405180910390fd5b611e646704329dbd22b9b98860c01b61204d565b611e786763377f755a44877e60c01b61204d565b611e8c676af9a393a18466ca60c01b61204d565b8091505092915050565b6060611eac676176b292f991aea160c01b610e27565b611ec067b6bd0bb98c333e6160c01b610e27565b611ed46713a958b1db85f97f60c01b610e27565b6060611eea6745f86f34c27dece960c01b610e27565b611efe67fe219e981499ae0260c01b610e27565b600083519050611f1867388feaf8c7bfd6f060c01b610e27565b611f2c6754ce31f384fee4c460c01b610e27565b60005b81811015611f8f57611f4b67c7fedde06f2cd2d960c01b610e27565b82858281518110611f5857fe5b6020026020010151604051602001611f71929190612dea565b60405160208183030381529060405292508080600101915050611f2f565b50611fa467cf34e81157ee09ea60c01b610e27565b611fb867dde9c269ed25fc9260c01b610e27565b8192505050919050565b6000611fd8673f80c4267c86569760c01b611155565b611fec677d2a3e6a09e2de5e60c01b611155565b612000673810f4d2678d92f560c01b611155565b61203760015430858560405160200161201c9493929190612e34565b60405160208183030381529060405280519060200120612050565b905092915050565b50565b600060019050919050565b50565b600061206667edd48b63a1fff58960c01b61203f565b61207a67811a5ae4ad13419260c01b61203f565b61208e672990291e8165170b60c01b61203f565b8160405160200161209f9190612e0e565b604051602081830303815290604052805190602001209050919050565b6000813590506120cb81613430565b92915050565b600082601f8301126120e257600080fd5b81356120f56120f082613179565b61314c565b9150818183526020840193506020810190508385602084028201111561211a57600080fd5b60005b8381101561214a578161213088826120bc565b84526020840193506020830192505060018101905061211d565b5050505092915050565b600082601f83011261216557600080fd5b8135612178612173826131a1565b61314c565b9150818183526020840193506020810190508360005b838110156121be57813586016121a48882612207565b84526020840193506020830192505060018101905061218e565b5050505092915050565b6000813590506121d781613447565b92915050565b6000815190506121ec81613447565b92915050565b6000813590506122018161345e565b92915050565b600082601f83011261221857600080fd5b813561222b612226826131c9565b61314c565b9150808252602083016020830185838301111561224757600080fd5b612252838284613398565b50505092915050565b60008135905061226a81613475565b92915050565b60008135905061227f8161348c565b92915050565b600060a0828403121561229757600080fd5b6122a160a061314c565b905060006122b1848285016120bc565b60008301525060206122c5848285016123e1565b602083015250604082013567ffffffffffffffff8111156122e557600080fd5b6122f1848285016120d1565b604083015250606082013567ffffffffffffffff81111561231157600080fd5b61231d84828501612154565b6060830152506080612331848285016123e1565b60808301525092915050565b60006080828403121561234f57600080fd5b612359608061314c565b90506000612369848285016120bc565b600083015250602061237d848285016123e1565b602083015250604082013567ffffffffffffffff81111561239d57600080fd5b6123a9848285016120d1565b604083015250606082013567ffffffffffffffff8111156123c957600080fd5b6123d584828501612154565b60608301525092915050565b6000813590506123f0816134a3565b92915050565b60006020828403121561240857600080fd5b6000612416848285016120bc565b91505092915050565b60008060006060848603121561243457600080fd5b6000612442868287016120bc565b935050602084013567ffffffffffffffff81111561245f57600080fd5b61246b868287016120d1565b925050604084013567ffffffffffffffff81111561248857600080fd5b61249486828701612154565b9150509250925092565b600080600080600060a086880312156124b657600080fd5b60006124c4888289016120bc565b95505060206124d5888289016123e1565b945050604086013567ffffffffffffffff8111156124f257600080fd5b6124fe888289016120d1565b935050606086013567ffffffffffffffff81111561251b57600080fd5b61252788828901612154565b925050608086013567ffffffffffffffff81111561254457600080fd5b61255088828901612207565b9150509295509295909350565b6000806040838503121561257057600080fd5b600083013567ffffffffffffffff81111561258a57600080fd5b612596858286016120d1565b925050602083013567ffffffffffffffff8111156125b357600080fd5b6125bf85828601612154565b9150509250929050565b600080604083850312156125dc57600080fd5b600083013567ffffffffffffffff8111156125f657600080fd5b61260285828601612154565b9250506020612613858286016121c8565b9150509250929050565b60006020828403121561262f57600080fd5b600061263d848285016121dd565b91505092915050565b60006020828403121561265857600080fd5b6000612666848285016121f2565b91505092915050565b6000806040838503121561268257600080fd5b60006126908582860161225b565b92505060206126a185828601612270565b9150509250929050565b6000602082840312156126bd57600080fd5b600082013567ffffffffffffffff8111156126d757600080fd5b6126e384828501612285565b91505092915050565b6000602082840312156126fe57600080fd5b600082013567ffffffffffffffff81111561271857600080fd5b6127248482850161233d565b91505092915050565b60006127398383612763565b60208301905092915050565b61274e8161331a565b82525050565b61275d8161326b565b82525050565b61276c8161326b565b82525050565b61278361277e8261326b565b6133da565b82525050565b600061279482613205565b61279e8185613228565b93506127a9836131f5565b8060005b838110156127da5781516127c1888261272d565b97506127cc8361321b565b9250506001810190506127ad565b5085935050505092915050565b6127f08161327d565b82525050565b6127ff81613289565b82525050565b61281661281182613289565b6133ec565b82525050565b600061282782613210565b6128318185613233565b93506128418185602086016133a7565b61284a81613412565b840191505092915050565b600061286082613210565b61286a8185613244565b935061287a8185602086016133a7565b80840191505092915050565b61288f8161332c565b82525050565b61289e81613350565b82525050565b60006128b1601b8361324f565b91507f476174657761793a2063616e6e6f742073656e6420746f2030783000000000006000830152602082019050919050565b60006128f1601c83613260565b91507f19457468657265756d205369676e6564204d6573736167653a0a3332000000006000830152601c82019050919050565b6000612931602f8361324f565b91507f496e697469616c697a61626c653a2074782e6f726967696e206973206e6f742060008301527f74686520696e697469616c697a657200000000000000000000000000000000006020830152604082019050919050565b600061299760178361324f565b91507f476174657761793a2062617463682072657665727465640000000000000000006000830152602082019050919050565b60006129d760328361324f565b91507f476174657761793a206e6f6e6365206973206c6f776572207468616e2063757260008301527f72656e74206163636f756e74206e6f6e636500000000000000000000000000006020830152604082019050919050565b6000612a3d60258361324f565b91507f476174657761793a2063616e6e6f742073656e642066726f6d2030783020616360008301527f636f756e740000000000000000000000000000000000000000000000000000006020830152604082019050919050565b6000612aa360268361324f565b91507f476174657761793a2063616e6e6f742064656c656761746520656d707479206260008301527f61746368657300000000000000000000000000000000000000000000000000006020830152604082019050919050565b6000612b0960288361324f565b91507f476174657761793a2073656e646572206973206e6f7420746865206163636f7560008301527f6e74206f776e65720000000000000000000000000000000000000000000000006020830152604082019050919050565b6000612b6f60168361324f565b91507f476174657761793a20696e76616c6964206261746368000000000000000000006000830152602082019050919050565b6000612baf60238361324f565b91507f476174657761793a206261746368207472616e73616374696f6e20726576657260008301527f74656400000000000000000000000000000000000000000000000000000000006020830152604082019050919050565b6000612c15601e8361324f565b91507f536166654d6174684c69623a206164646974696f6e206f766572666c6f7700006000830152602082019050919050565b6000612c5560208361324f565b91507f476174657761793a2063616e6e6f742073656e6420656d7074792062617463686000830152602082019050919050565b6000612c95601d8361324f565b91507f476174657761793a20616c6c20626174636865732072657665727465640000006000830152602082019050919050565b612cd181613303565b82525050565b612ce8612ce382613303565b613408565b82525050565b612cf78161330d565b82525050565b6000612d098287612772565b601482019150612d198286612cd7565b602082019150612d298285612789565b9150612d358284612855565b915081905095945050505050565b6000612d4f8288612772565b601482019150612d5f8287612cd7565b602082019150612d6f8286612789565b9150612d7b8285612855565b9150612d878284612cd7565b6020820191508190509695505050505050565b6000612da68284612855565b915081905092915050565b6000612dbd8286612855565b9150612dc98285612772565b601482019150612dd98284612772565b601482019150819050949350505050565b6000612df68285612855565b9150612e028284612855565b91508190509392505050565b6000612e19826128e4565b9150612e258284612805565b60208201915081905092915050565b6000612e408287612cd7565b602082019150612e508286612772565b601482019150612e608285612805565b602082019150612e708284612855565b915081905095945050505050565b6000602082019050612e936000830184612745565b92915050565b6000606082019050612eae6000830186612745565b8181036020830152612ec0818561281c565b9050612ecf60408301846127e7565b949350505050565b6000604082019050612eec6000830185612754565b612ef96020830184612754565b9392505050565b6000602082019050612f1560008301846127e7565b92915050565b6000602082019050612f3060008301846127f6565b92915050565b6000608082019050612f4b60008301876127f6565b612f586020830186612cee565b612f6560408301856127f6565b612f7260608301846127f6565b95945050505050565b6000602082019050612f906000830184612886565b92915050565b6000602082019050612fab6000830184612895565b92915050565b60006020820190508181036000830152612fca816128a4565b9050919050565b60006020820190508181036000830152612fea81612924565b9050919050565b6000602082019050818103600083015261300a8161298a565b9050919050565b6000602082019050818103600083015261302a816129ca565b9050919050565b6000602082019050818103600083015261304a81612a30565b9050919050565b6000602082019050818103600083015261306a81612a96565b9050919050565b6000602082019050818103600083015261308a81612afc565b9050919050565b600060208201905081810360008301526130aa81612b62565b9050919050565b600060208201905081810360008301526130ca81612ba2565b9050919050565b600060208201905081810360008301526130ea81612c08565b9050919050565b6000602082019050818103600083015261310a81612c48565b9050919050565b6000602082019050818103600083015261312a81612c88565b9050919050565b60006020820190506131466000830184612cc8565b92915050565b6000604051905081810181811067ffffffffffffffff8211171561316f57600080fd5b8060405250919050565b600067ffffffffffffffff82111561319057600080fd5b602082029050602081019050919050565b600067ffffffffffffffff8211156131b857600080fd5b602082029050602081019050919050565b600067ffffffffffffffff8211156131e057600080fd5b601f19601f8301169050602081019050919050565b6000819050602082019050919050565b600081519050919050565b600081519050919050565b6000602082019050919050565b600081905092915050565b600082825260208201905092915050565b600081905092915050565b600082825260208201905092915050565b600081905092915050565b6000613276826132e3565b9050919050565b60008115159050919050565b6000819050919050565b60007fffffffffffffffff00000000000000000000000000000000000000000000000082169050919050565b60006132ca8261326b565b9050919050565b60006132dc8261326b565b9050919050565b600073ffffffffffffffffffffffffffffffffffffffff82169050919050565b6000819050919050565b600060ff82169050919050565b600061332582613374565b9050919050565b60006133378261333e565b9050919050565b6000613349826132e3565b9050919050565b600061335b82613362565b9050919050565b600061336d826132e3565b9050919050565b600061337f82613386565b9050919050565b6000613391826132e3565b9050919050565b82818337600083830152505050565b60005b838110156133c55780820151818401526020810190506133aa565b838111156133d4576000848401525b50505050565b60006133e5826133f6565b9050919050565b6000819050919050565b600061340182613423565b9050919050565b6000819050919050565b6000601f19601f8301169050919050565b60008160601b9050919050565b6134398161326b565b811461344457600080fd5b50565b6134508161327d565b811461345b57600080fd5b50565b61346781613293565b811461347257600080fd5b50565b61347e816132bf565b811461348957600080fd5b50565b613495816132d1565b81146134a057600080fd5b50565b6134ac81613303565b81146134b757600080fd5b5056fea164736f6c634300060c000a",
  "linkReferences": {},
  "deployedLinkReferences": {}
}