{
  "_format": "hh-sol-artifact-1",
  "contractName": "GatewayV2",
  "sourceName": "src/gateway/GatewayV2.sol",
  "abi": [
    {
      "inputs": [],
      "stateMutability": "nonpayable",
      "type": "constructor"
    },
    {
      "anonymous": false,
      "inputs": [
        {
          "indexed": false,
          "internalType": "address",
          "name": "sender",
          "type": "address"
        },
        {
          "indexed": false,
          "internalType": "bytes",
          "name": "batch",
          "type": "bytes"
        },
        {
          "indexed": false,
          "internalType": "bool",
          "name": "succeeded",
          "type": "bool"
        }
      ],
      "name": "BatchDelegated",
      "type": "event"
    },
    {
      "anonymous": false,
      "inputs": [
        {
          "indexed": false,
          "internalType": "address",
          "name": "sender",
          "type": "address"
        },
        {
          "indexed": false,
          "internalType": "address",
          "name": "guardian",
          "type": "address"
        }
      ],
      "name": "GuardianAdded",
      "type": "event"
    },
    {
      "anonymous": false,
      "inputs": [
        {
          "indexed": false,
          "internalType": "address",
          "name": "sender",
          "type": "address"
        },
        {
          "indexed": false,
          "internalType": "address",
          "name": "guardian",
          "type": "address"
        }
      ],
      "name": "GuardianRemoved",
      "type": "event"
    },
    {
      "anonymous": false,
      "inputs": [
        {
          "indexed": false,
          "internalType": "address",
          "name": "initializer",
          "type": "address"
        }
      ],
      "name": "Initialized",
      "type": "event"
    },
    {
      "inputs": [
        {
          "internalType": "address",
          "name": "guardian",
          "type": "address"
        }
      ],
      "name": "addGuardian",
      "outputs": [],
      "stateMutability": "nonpayable",
      "type": "function"
    },
    {
      "inputs": [
        {
          "internalType": "bytes8",
          "name": "c__098c0657",
          "type": "bytes8"
        }
      ],
      "name": "c_098c0657",
      "outputs": [],
      "stateMutability": "pure",
      "type": "function"
    },
    {
      "inputs": [
        {
          "internalType": "bytes8",
          "name": "c__0b6945c4",
          "type": "bytes8"
        }
      ],
      "name": "c_0b6945c4",
      "outputs": [],
      "stateMutability": "pure",
      "type": "function"
    },
    {
      "inputs": [
        {
          "internalType": "bytes8",
          "name": "c__33f6a84f",
          "type": "bytes8"
        }
      ],
      "name": "c_33f6a84f",
      "outputs": [],
      "stateMutability": "pure",
      "type": "function"
    },
    {
      "inputs": [
        {
          "internalType": "bytes8",
          "name": "c__52615ca8",
          "type": "bytes8"
        }
      ],
      "name": "c_52615ca8",
      "outputs": [],
      "stateMutability": "pure",
      "type": "function"
    },
    {
      "inputs": [
        {
          "internalType": "bytes8",
          "name": "c__098c0657",
          "type": "bytes8"
        }
      ],
      "name": "c_false098c0657",
      "outputs": [
        {
          "internalType": "bool",
          "name": "",
          "type": "bool"
        }
      ],
      "stateMutability": "pure",
      "type": "function"
    },
    {
      "inputs": [
        {
          "internalType": "bytes8",
          "name": "c__0b6945c4",
          "type": "bytes8"
        }
      ],
      "name": "c_false0b6945c4",
      "outputs": [
        {
          "internalType": "bool",
          "name": "",
          "type": "bool"
        }
      ],
      "stateMutability": "pure",
      "type": "function"
    },
    {
      "inputs": [
        {
          "internalType": "bytes8",
          "name": "c__33f6a84f",
          "type": "bytes8"
        }
      ],
      "name": "c_false33f6a84f",
      "outputs": [
        {
          "internalType": "bool",
          "name": "",
          "type": "bool"
        }
      ],
      "stateMutability": "pure",
      "type": "function"
    },
    {
      "inputs": [
        {
          "internalType": "bytes8",
          "name": "c__52615ca8",
          "type": "bytes8"
        }
      ],
      "name": "c_false52615ca8",
      "outputs": [
        {
          "internalType": "bool",
          "name": "",
          "type": "bool"
        }
      ],
      "stateMutability": "pure",
      "type": "function"
    },
    {
      "inputs": [
        {
          "internalType": "bytes8",
          "name": "c__098c0657",
          "type": "bytes8"
        }
      ],
      "name": "c_true098c0657",
      "outputs": [
        {
          "internalType": "bool",
          "name": "",
          "type": "bool"
        }
      ],
      "stateMutability": "pure",
      "type": "function"
    },
    {
      "inputs": [
        {
          "internalType": "bytes8",
          "name": "c__0b6945c4",
          "type": "bytes8"
        }
      ],
      "name": "c_true0b6945c4",
      "outputs": [
        {
          "internalType": "bool",
          "name": "",
          "type": "bool"
        }
      ],
      "stateMutability": "pure",
      "type": "function"
    },
    {
      "inputs": [
        {
          "internalType": "bytes8",
          "name": "c__33f6a84f",
          "type": "bytes8"
        }
      ],
      "name": "c_true33f6a84f",
      "outputs": [
        {
          "internalType": "bool",
          "name": "",
          "type": "bool"
        }
      ],
      "stateMutability": "pure",
      "type": "function"
    },
    {
      "inputs": [
        {
          "internalType": "bytes8",
          "name": "c__52615ca8",
          "type": "bytes8"
        }
      ],
      "name": "c_true52615ca8",
      "outputs": [
        {
          "internalType": "bool",
          "name": "",
          "type": "bool"
        }
      ],
      "stateMutability": "pure",
      "type": "function"
    },
    {
      "inputs": [],
      "name": "chainId",
      "outputs": [
        {
          "internalType": "uint256",
          "name": "",
          "type": "uint256"
        }
      ],
      "stateMutability": "view",
      "type": "function"
    },
    {
      "inputs": [
        {
          "internalType": "address",
          "name": "account",
          "type": "address"
        },
        {
          "internalType": "uint256",
          "name": "nonce",
          "type": "uint256"
        },
        {
          "internalType": "address[]",
          "name": "to",
          "type": "address[]"
        },
        {
          "internalType": "bytes[]",
          "name": "data",
          "type": "bytes[]"
        },
        {
          "internalType": "bytes",
          "name": "senderSignature",
          "type": "bytes"
        }
      ],
      "name": "delegateBatch",
      "outputs": [],
      "stateMutability": "nonpayable",
      "type": "function"
    },
    {
      "inputs": [
        {
          "internalType": "address",
          "name": "account",
          "type": "address"
        },
        {
          "internalType": "uint256",
          "name": "nonce",
          "type": "uint256"
        },
        {
          "internalType": "address[]",
          "name": "to",
          "type": "address[]"
        },
        {
          "internalType": "bytes[]",
          "name": "data",
          "type": "bytes[]"
        },
        {
          "internalType": "bytes",
          "name": "senderSignature",
          "type": "bytes"
        }
      ],
      "name": "delegateBatchGuarded",
      "outputs": [],
      "stateMutability": "nonpayable",
      "type": "function"
    },
    {
      "inputs": [
        {
          "internalType": "address",
          "name": "account",
          "type": "address"
        },
        {
          "internalType": "uint256",
          "name": "nonce",
          "type": "uint256"
        },
        {
          "internalType": "address[]",
          "name": "to",
          "type": "address[]"
        },
        {
          "internalType": "bytes[]",
          "name": "data",
          "type": "bytes[]"
        },
        {
          "internalType": "bytes",
          "name": "senderSignature",
          "type": "bytes"
        }
      ],
      "name": "delegateBatchWithGasPrice",
      "outputs": [],
      "stateMutability": "nonpayable",
      "type": "function"
    },
    {
      "inputs": [
        {
          "internalType": "address",
          "name": "account",
          "type": "address"
        },
        {
          "internalType": "uint256",
          "name": "nonce",
          "type": "uint256"
        },
        {
          "internalType": "address[]",
          "name": "to",
          "type": "address[]"
        },
        {
          "internalType": "bytes[]",
          "name": "data",
          "type": "bytes[]"
        },
        {
          "internalType": "bytes",
          "name": "senderSignature",
          "type": "bytes"
        }
      ],
      "name": "delegateBatchWithGasPriceGuarded",
      "outputs": [],
      "stateMutability": "nonpayable",
      "type": "function"
    },
    {
      "inputs": [
        {
          "internalType": "bytes[]",
          "name": "batches",
          "type": "bytes[]"
        },
        {
          "internalType": "bool",
          "name": "revertOnFailure",
          "type": "bool"
        }
      ],
      "name": "delegateBatches",
      "outputs": [],
      "stateMutability": "nonpayable",
      "type": "function"
    },
    {
      "inputs": [
        {
          "internalType": "bytes[]",
          "name": "batches",
          "type": "bytes[]"
        },
        {
          "internalType": "bool",
          "name": "revertOnFailure",
          "type": "bool"
        }
      ],
      "name": "delegateBatchesGuarded",
      "outputs": [],
      "stateMutability": "nonpayable",
      "type": "function"
    },
    {
      "inputs": [],
      "name": "externalAccountRegistry",
      "outputs": [
        {
          "internalType": "contract ExternalAccountRegistry",
          "name": "",
          "type": "address"
        }
      ],
      "stateMutability": "view",
      "type": "function"
    },
    {
      "inputs": [
        {
          "internalType": "address",
          "name": "account",
          "type": "address"
        }
      ],
      "name": "getAccountNextNonce",
      "outputs": [
        {
          "internalType": "uint256",
          "name": "",
          "type": "uint256"
        }
      ],
      "stateMutability": "view",
      "type": "function"
    },
    {
      "inputs": [
        {
          "components": [
            {
              "internalType": "address",
              "name": "account",
              "type": "address"
            },
            {
              "internalType": "uint256",
              "name": "nonce",
              "type": "uint256"
            },
            {
              "internalType": "address[]",
              "name": "to",
              "type": "address[]"
            },
            {
              "internalType": "bytes[]",
              "name": "data",
              "type": "bytes[]"
            }
          ],
          "internalType": "struct GatewayV2.DelegatedBatch",
          "name": "delegatedBatch",
          "type": "tuple"
        }
      ],
      "name": "hashDelegatedBatch",
      "outputs": [
        {
          "internalType": "bytes32",
          "name": "",
          "type": "bytes32"
        }
      ],
      "stateMutability": "view",
      "type": "function"
    },
    {
      "inputs": [
        {
          "components": [
            {
              "internalType": "address",
              "name": "account",
              "type": "address"
            },
            {
              "internalType": "uint256",
              "name": "nonce",
              "type": "uint256"
            },
            {
              "internalType": "address[]",
              "name": "to",
              "type": "address[]"
            },
            {
              "internalType": "bytes[]",
              "name": "data",
              "type": "bytes[]"
            },
            {
              "internalType": "uint256",
              "name": "gasPrice",
              "type": "uint256"
            }
          ],
          "internalType": "struct GatewayV2.DelegatedBatchWithGasPrice",
          "name": "delegatedBatch",
          "type": "tuple"
        }
      ],
      "name": "hashDelegatedBatchWithGasPrice",
      "outputs": [
        {
          "internalType": "bytes32",
          "name": "",
          "type": "bytes32"
        }
      ],
      "stateMutability": "view",
      "type": "function"
    },
    {
      "inputs": [
        {
          "internalType": "contract ExternalAccountRegistry",
          "name": "externalAccountRegistry_",
          "type": "address"
        },
        {
          "internalType": "contract PersonalAccountRegistry",
          "name": "personalAccountRegistry_",
          "type": "address"
        }
      ],
      "name": "initialize",
      "outputs": [],
      "stateMutability": "nonpayable",
      "type": "function"
    },
    {
      "inputs": [
        {
          "internalType": "address",
          "name": "guardian",
          "type": "address"
        }
      ],
      "name": "isGuardian",
      "outputs": [
        {
          "internalType": "bool",
          "name": "",
          "type": "bool"
        }
      ],
      "stateMutability": "view",
      "type": "function"
    },
    {
      "inputs": [],
      "name": "isInitialized",
      "outputs": [
        {
          "internalType": "bool",
          "name": "",
          "type": "bool"
        }
      ],
      "stateMutability": "view",
      "type": "function"
    },
    {
      "inputs": [],
      "name": "personalAccountRegistry",
      "outputs": [
        {
          "internalType": "contract PersonalAccountRegistry",
          "name": "",
          "type": "address"
        }
      ],
      "stateMutability": "view",
      "type": "function"
    },
    {
      "inputs": [
        {
          "internalType": "address",
          "name": "guardian",
          "type": "address"
        }
      ],
      "name": "removeGuardian",
      "outputs": [],
      "stateMutability": "nonpayable",
      "type": "function"
    },
    {
      "inputs": [
        {
          "internalType": "address[]",
          "name": "to",
          "type": "address[]"
        },
        {
          "internalType": "bytes[]",
          "name": "data",
          "type": "bytes[]"
        }
      ],
      "name": "sendBatch",
      "outputs": [],
      "stateMutability": "nonpayable",
      "type": "function"
    },
    {
      "inputs": [
        {
          "internalType": "address",
          "name": "account",
          "type": "address"
        },
        {
          "internalType": "address[]",
          "name": "to",
          "type": "address[]"
        },
        {
          "internalType": "bytes[]",
          "name": "data",
          "type": "bytes[]"
        }
      ],
      "name": "sendBatchFromAccount",
      "outputs": [],
      "stateMutability": "nonpayable",
      "type": "function"
    },
    {
      "inputs": [
        {
          "internalType": "address",
          "name": "account",
          "type": "address"
        },
        {
          "internalType": "address[]",
          "name": "to",
          "type": "address[]"
        },
        {
          "internalType": "bytes[]",
          "name": "data",
          "type": "bytes[]"
        }
      ],
      "name": "sendBatchFromAccountGuarded",
      "outputs": [],
      "stateMutability": "nonpayable",
      "type": "function"
    },
    {
      "inputs": [
        {
          "internalType": "address[]",
          "name": "to",
          "type": "address[]"
        },
        {
          "internalType": "bytes[]",
          "name": "data",
          "type": "bytes[]"
        }
      ],
      "name": "sendBatchGuarded",
      "outputs": [],
      "stateMutability": "nonpayable",
      "type": "function"
    },
    {
      "inputs": [
        {
          "internalType": "bytes32",
          "name": "messageHash",
          "type": "bytes32"
        },
        {
          "internalType": "bytes",
          "name": "signature",
          "type": "bytes"
        }
      ],
      "name": "verifyGuardianSignature",
      "outputs": [
        {
          "internalType": "bool",
          "name": "",
          "type": "bool"
        }
      ],
      "stateMutability": "view",
      "type": "function"
    }
  ],
  "bytecode": "0x60806040523480156200001157600080fd5b506200002e67bcc9be562f8a4b0a60c01b6200016160201b60201c565b6200004a67579ae7209daca85260c01b6200016160201b60201c565b326000806101000a81548173ffffffffffffffffffffffffffffffffffffffff021916908373ffffffffffffffffffffffffffffffffffffffff160217905550620000a6676b19898ae2f7725060c01b6200016460201b60201c565b620000c2677c2d0c907f0deddc60c01b6200016460201b60201c565b620000de67f0d1a438b0305bb160c01b6200016460201b60201c565b6000620000fc6737bb5abaf3e7d9d360c01b6200016460201b60201c565b4690506200011b676f86a9c0c67bb39a60c01b6200016460201b60201c565b80600181905550506200013f67e6ad6dd6ee73072860c01b6200016760201b60201c565b6200015b674ac8a755b2af6d3f60c01b6200016a60201b60201c565b6200016d565b50565b50565b50565b50565b614ced806200017d6000396000f3fe608060405234801561001057600080fd5b50600436106102065760003560e01c806387d313131161011a578063bccb31c6116100ad578063d2c83b9a1161007c578063d2c83b9a14610619578063d305d0db14610637578063d84fa10c14610653578063d9f1302114610683578063f92c5f7c1461069f57610206565b8063bccb31c614610581578063bcd483641461059d578063c4543305146105b9578063d0f710d6146105e957610206565b8063a526d83b116100e9578063a526d83b146104fd578063ac2a08cd14610519578063ae1a7ece14610535578063b5021b161461056557610206565b806387d31313146104755780639a8a0592146104935780639f255626146104b1578063a3561e69146104cd57610206565b80633e260b131161019d5780635afaa7bb1161016c5780635afaa7bb146103c157806371404156146103dd57806373e5a13f146103f957806376db2b4c14610429578063867519c61461045957610206565b80633e260b131461033d578063485cc9551461035957806353890134146103755780635a06fb5f1461039157610206565b80632b49e989116101d95780632b49e989146102a35780632c4bbae6146102d3578063371aa71a14610303578063392e53cd1461031f57610206565b80630c68ba211461020b578063152ec1bc1461023b578063231badaf1461025757806329fbd95714610273575b600080fd5b6102256004803603810190610220919061397e565b6106cf565b604051610232919061466f565b60405180910390f35b61025560048036038101906102509190613c26565b610761565b005b610271600480360381019061026c9190613a26565b610764565b005b61028d60048036038101906102889190613c26565b610927565b60405161029a919061466f565b60405180910390f35b6102bd60048036038101906102b89190613c26565b610932565b6040516102ca919061466f565b60405180910390f35b6102ed60048036038101906102e89190613c26565b61093d565b6040516102fa919061466f565b60405180910390f35b61031d60048036038101906103189190613a26565b610944565b005b610327610ac0565b604051610334919061466f565b60405180910390f35b61035760048036038101906103529190613c26565b610b53565b005b610373600480360381019061036e9190613c4f565b610b56565b005b61038f600480360381019061038a9190613ae5565b610e56565b005b6103ab60048036038101906103a69190613c26565b610fcc565b6040516103b8919061466f565b60405180910390f35b6103db60048036038101906103d69190613b51565b610fd3565b005b6103f760048036038101906103f2919061397e565b611419565b005b610413600480360381019061040e9190613ccc565b6117c4565b604051610420919061468a565b60405180910390f35b610443600480360381019061043e9190613c8b565b611825565b604051610450919061468a565b60405180910390f35b610473600480360381019061046e91906139a7565b61188b565b005b61047d6118d8565b60405161048a9190614705565b60405180910390f35b61049b6118fe565b6040516104a89190614940565b60405180910390f35b6104cb60048036038101906104c69190613ae5565b611904565b005b6104e760048036038101906104e29190613c26565b611950565b6040516104f4919061466f565b60405180910390f35b6105176004803603810190610512919061397e565b611957565b005b610533600480360381019061052e9190613a26565b611acb565b005b61054f600480360381019061054a9190613c26565b611c47565b60405161055c919061466f565b60405180910390f35b61057f600480360381019061057a9190613a26565b611c52565b005b61059b60048036038101906105969190613c26565b611e16565b005b6105b760048036038101906105b29190613c26565b611e19565b005b6105d360048036038101906105ce9190613c26565b611e1c565b6040516105e0919061466f565b60405180910390f35b61060360048036038101906105fe9190613bce565b611e27565b604051610610919061466f565b60405180910390f35b610621611ebc565b60405161062e91906146ea565b60405180910390f35b610651600480360381019061064c91906139a7565b611ee2565b005b61066d60048036038101906106689190613c26565b61205a565b60405161067a919061466f565b60405180910390f35b61069d60048036038101906106989190613b51565b612061565b005b6106b960048036038101906106b4919061397e565b6121d7565b6040516106c69190614940565b60405180910390f35b60006106e5677ab52c65f999e01f60c01b611e16565b6106f96710268b7b424a1bd560c01b611e16565b61070d6713a157f311059a7b60c01b611e16565b600260008373ffffffffffffffffffffffffffffffffffffffff1673ffffffffffffffffffffffffffffffffffffffff16815260200190815260200160002060009054906101000a900460ff169050919050565b50565b610778672cb965356e53b62460c01b610761565b61078c6726d32791746dc3e760c01b610761565b6107a06716b60443ee3d484960c01b610761565b6107b467cec972bd94c2448360c01b610761565b600560008673ffffffffffffffffffffffffffffffffffffffff1673ffffffffffffffffffffffffffffffffffffffff168152602001908152602001600020548411610835576040517f08c379a000000000000000000000000000000000000000000000000000000000815260040161082c906147a0565b60405180910390fd5b610849676885a737ccda6b5b60c01b610761565b61085d67b7ec0f056156fc5760c01b610761565b61087167fa7e965b6a90871e60c01b610761565b6000610891826108838888888861226f565b61230e90919063ffffffff16565b90506108a767598623896aa1bd8160c01b610761565b84600560008873ffffffffffffffffffffffffffffffffffffffff1673ffffffffffffffffffffffffffffffffffffffff168152602001908152602001600020819055506108ff67c3db6fc8702a504560c01b610761565b61091367fbd88fe633d4bf3260c01b610761565b61091f86828686612616565b505050505050565b600060019050919050565b600060019050919050565b6000919050565b61095867f80918793645654b60c01b610761565b61096c67e0600b94c13d066760c01b611e16565b6109806755e8cedcdd449e2360c01b611e16565b61099467ab821ba7fedab67160c01b611e16565b6109a867c540fbd78e0e2a4960c01b611e16565b600260003273ffffffffffffffffffffffffffffffffffffffff1673ffffffffffffffffffffffffffffffffffffffff16815260200190815260200160002060009054906101000a900460ff16610a34576040517f08c379a0000000000000000000000000000000000000000000000000000000008152600401610a2b90614840565b60405180910390fd5b610a4867d014260b312542b460c01b611e16565b610a5c674e25985d1c99d1f260c01b611e16565b610a7067d9e2558f3071e89160c01b610761565b610a84673490315f4c7453b860c01b610761565b610a98675952ab5ca3321cf560c01b610761565b610aac679cb6b3466f5d6d7c60c01b610761565b610ab98585858585611c52565b5050505050565b6000610ad667e29fe2f351ca6b2760c01b610b53565b610aea676f5dd3f08b97747760c01b610b53565b610afe673a9488d62818322a60c01b610b53565b600073ffffffffffffffffffffffffffffffffffffffff1660008054906101000a900473ffffffffffffffffffffffffffffffffffffffff1673ffffffffffffffffffffffffffffffffffffffff1614905090565b50565b610b6a673697766a57f7a80b60c01b610761565b610b7e67d2ba19feb39e0b7f60c01b610b53565b610b92670c5ad53cdb9edd1560c01b610b53565b610ba667b6b588d2ebb9ae6960c01b610b53565b610bba67c4ec9a90a885875260c01b610b53565b60008054906101000a900473ffffffffffffffffffffffffffffffffffffffff1673ffffffffffffffffffffffffffffffffffffffff163273ffffffffffffffffffffffffffffffffffffffff1614610c48576040517f08c379a0000000000000000000000000000000000000000000000000000000008152600401610c3f90614760565b60405180910390fd5b610c5c67c3785ba1534db95460c01b610b53565b610c7067e4202927591248ef60c01b610b53565b60008060006101000a81548173ffffffffffffffffffffffffffffffffffffffff021916908373ffffffffffffffffffffffffffffffffffffffff160217905550610cc567531cfa2817fbdc8660c01b610b53565b610cd967bb0a8b65334dd2c460c01b610761565b610ced67b92403dbe97ab63260c01b610761565b610d01671b78f114fbb0b72060c01b610761565b81600360006101000a81548173ffffffffffffffffffffffffffffffffffffffff021916908373ffffffffffffffffffffffffffffffffffffffff160217905550610d5667b22295775e3c649e60c01b610761565b80600460006101000a81548173ffffffffffffffffffffffffffffffffffffffff021916908373ffffffffffffffffffffffffffffffffffffffff160217905550610dab6730acc016638bd43a60c01b610761565b610dbf67c9a34505f7a2971960c01b610761565b6060610dd56739403c970cf16b0b60c01b610761565b610de9673890f2fd064539ca60c01b610761565b610df281612d63565b50610e076701520f419008b58e60c01b610b53565b610e1b6775364c04848b013b60c01b610b53565b7f908408e307fc569b417f6cbec5d5a06f44a0a505ac0479b47d421a4b2fd6a1e632604051610e4a91906145c4565b60405180910390a15050565b610e6a6706786e491e3250c160c01b610761565b610e7e67e0600b94c13d066760c01b611e16565b610e926755e8cedcdd449e2360c01b611e16565b610ea667ab821ba7fedab67160c01b611e16565b610eba67c540fbd78e0e2a4960c01b611e16565b600260003273ffffffffffffffffffffffffffffffffffffffff1673ffffffffffffffffffffffffffffffffffffffff16815260200190815260200160002060009054906101000a900460ff16610f46576040517f08c379a0000000000000000000000000000000000000000000000000000000008152600401610f3d90614840565b60405180910390fd5b610f5a67d014260b312542b460c01b611e16565b610f6e674e25985d1c99d1f260c01b611e16565b610f8267aed871277ddbb64c60c01b610761565b610f96671ec4a771e62fadf860c01b610761565b610faa67f2c24f3ab45357f160c01b610761565b610fbe674a9776de3de1749a60c01b610761565b610fc88282611904565b5050565b6000919050565b610fe76727e530a65c18cf7760c01b610761565b610ffb673479b3b9839be87b60c01b610761565b61100f67ddf24acef953714a60c01b610761565b61102367bb03e151ac9c27de60c01b610761565b6000825111611067576040517f08c379a000000000000000000000000000000000000000000000000000000000815260040161105e906147e0565b60405180910390fd5b61107b67fbecfcb237fc946360c01b610761565b61108f67e27ec692e947323360c01b610761565b6110a367f14d14fac430da9560c01b610761565b60006110b96705f410059ee1a0f960c01b610761565b6110cd6738b1b2fe2e9d053a60c01b610761565b60005b835181101561135b576110ed67c75e73eb292eb02a60c01b610761565b61110167b78b62351a90d44360c01b610761565b60003073ffffffffffffffffffffffffffffffffffffffff1685838151811061112657fe5b602002602001015160405161113b91906144e0565b6000604051808303816000865af19150503d8060008114611178576040519150601f19603f3d011682016040523d82523d6000602084013e61117d565b606091505b5050905061119567736c6d76b82a9add60c01b610761565b6111a967d2553c434ed3db3260c01b610761565b8315611258576111c367deebfac5c773826c60c01b610761565b6111d7679fb439c60501b49f60c01b610761565b6111eb67b3057f4bca04838360c01b610761565b6111ff6730ecce8cedfe20fe60c01b610761565b8061123f576040517f08c379a000000000000000000000000000000000000000000000000000000000815260040161123690614780565b60405180910390fd5b61125367d86dd5b82a9e593660c01b610761565b6112d7565b61126c67346fc3cb5711a6b460c01b610761565b611280673f97de6e927ba93d60c01b610761565b80801561128b575082155b156112c1576112a46771ca7e173b61f90360c01b610761565b6112b867da44f1125610870660c01b610761565b600192506112d6565b6112d5675690ff7de2cfd4dd60c01b610761565b5b5b6112eb677421f9109195b65260c01b610761565b6112ff6701974b34eaa9b13c60c01b610761565b7f361c14722cc344132c73396113f7164232448b09c544a149f09048648b43d8723386848151811061132d57fe5b60200260200101518360405161134593929190614608565b60405180910390a15080806001019150506110d0565b506113706784acc65a9eec5b5f60c01b610761565b61138467c73482fe07164bae60c01b610761565b806114005761139d67504c1c7b7326af2c60c01b610761565b6113b1670e7869282d8fda6f60c01b610761565b6113c56720080506722517aa60c01b610761565b6040517f08c379a00000000000000000000000000000000000000000000000000000000081526004016113f790614920565b60405180910390fd5b611414673bc70d3d4324861e60c01b610761565b505050565b61142d6747dd6d4e27a092d260c01b611e16565b61144167e0600b94c13d066760c01b611e16565b6114556755e8cedcdd449e2360c01b611e16565b61146967ab821ba7fedab67160c01b611e16565b61147d67c540fbd78e0e2a4960c01b611e16565b600260003273ffffffffffffffffffffffffffffffffffffffff1673ffffffffffffffffffffffffffffffffffffffff16815260200190815260200160002060009054906101000a900460ff16611509576040517f08c379a000000000000000000000000000000000000000000000000000000000815260040161150090614840565b60405180910390fd5b61151d67d014260b312542b460c01b611e16565b611531674e25985d1c99d1f260c01b611e16565b61154567736984febec5fd2560c01b611e16565b61155967cbb923c66996310360c01b611e16565b61156d672c114aff1103564b60c01b611e16565b61158167a76a63e34be2bddb60c01b611e16565b61159567a220bc889ca09d2360c01b611e16565b8073ffffffffffffffffffffffffffffffffffffffff163273ffffffffffffffffffffffffffffffffffffffff161415611604576040517f08c379a00000000000000000000000000000000000000000000000000000000081526004016115fb90614900565b60405180910390fd5b611618679467d7af09c5944d60c01b611e16565b61162c67c28a58b1b15ad6de60c01b611e16565b61164067c70b0fecc7c6d3b160c01b611e16565b61165467e7892f9392d41a6760c01b611e16565b600260008273ffffffffffffffffffffffffffffffffffffffff1673ffffffffffffffffffffffffffffffffffffffff16815260200190815260200160002060009054906101000a900460ff166116e0576040517f08c379a00000000000000000000000000000000000000000000000000000000081526004016116d790614860565b60405180910390fd5b6116f4675a0de441d13969aa60c01b611e16565b611708674e473b0a29064fba60c01b611e16565b6000600260008373ffffffffffffffffffffffffffffffffffffffff1673ffffffffffffffffffffffffffffffffffffffff16815260200190815260200160002060006101000a81548160ff02191690831515021790555061177467e398e5606400274660c01b611e16565b6117886738c3bd156a3471c260c01b611e16565b7fee943cdb81826d5909c559c6b1ae6908fcaf2dbc16c4b730346736b486283e8b32826040516117b99291906145df565b60405180910390a150565b60006117da67b71cbc54b79642e460c01b610761565b6117ee671d727cf6c847c49660c01b610761565b61180267b20bfeafcd33afb660c01b610761565b61181e826000015183602001518460400151856060015161226f565b9050919050565b600061183b67b43ba9ef81a9b3fd60c01b610761565b61184f678dcdeb463de7515c60c01b610761565b6118636789a48b615adada4560c01b610761565b61188482600001518360200151846040015185606001518660800151612ebf565b9050919050565b61189f6790077d401774f15b60c01b610761565b6118b367dd8df7e804a647ab60c01b610761565b6118c767e91647c2d11d34f260c01b610761565b6118d383338484612616565b505050565b600460009054906101000a900473ffffffffffffffffffffffffffffffffffffffff1681565b60015481565b61191867305e7d085ffadf5d60c01b610761565b61192c6754042eeb653cce4660c01b610761565b6119406774bf17ed00241c8560c01b610761565b61194c33338484612616565b5050565b6000919050565b61196b67c17b66a0b198af7b60c01b611e16565b61197f67e0600b94c13d066760c01b611e16565b6119936755e8cedcdd449e2360c01b611e16565b6119a767ab821ba7fedab67160c01b611e16565b6119bb67c540fbd78e0e2a4960c01b611e16565b600260003273ffffffffffffffffffffffffffffffffffffffff1673ffffffffffffffffffffffffffffffffffffffff16815260200190815260200160002060009054906101000a900460ff16611a47576040517f08c379a0000000000000000000000000000000000000000000000000000000008152600401611a3e90614840565b60405180910390fd5b611a5b67d014260b312542b460c01b611e16565b611a6f674e25985d1c99d1f260c01b611e16565b611a8367dfa24a8cc198350160c01b611e16565b611a9767f9907d82cd18ee0760c01b611e16565b611aab67dd37ee49f553c5a760c01b611e16565b611abf679ad66b1d98f77fdf60c01b611e16565b611ac881612f61565b50565b611adf6759a806c25eead63f60c01b610761565b611af367e0600b94c13d066760c01b611e16565b611b076755e8cedcdd449e2360c01b611e16565b611b1b67ab821ba7fedab67160c01b611e16565b611b2f67c540fbd78e0e2a4960c01b611e16565b600260003273ffffffffffffffffffffffffffffffffffffffff1673ffffffffffffffffffffffffffffffffffffffff16815260200190815260200160002060009054906101000a900460ff16611bbb576040517f08c379a0000000000000000000000000000000000000000000000000000000008152600401611bb290614840565b60405180910390fd5b611bcf67d014260b312542b460c01b611e16565b611be3674e25985d1c99d1f260c01b611e16565b611bf767f9ea7b462cc4eda560c01b610761565b611c0b67d3d3cf6ca514249660c01b610761565b611c1f676ef2cd549351305b60c01b610761565b611c33672b1fcb01af64303060c01b610761565b611c408585858585610764565b5050505050565b600060019050919050565b611c666730a97bcc310e329660c01b610761565b611c7a67592cde26837dac1c60c01b610761565b611c8e67e369c1a0804a314e60c01b610761565b611ca2675e97b82ccfd1adc660c01b610761565b600560008673ffffffffffffffffffffffffffffffffffffffff1673ffffffffffffffffffffffffffffffffffffffff168152602001908152602001600020548411611d23576040517f08c379a0000000000000000000000000000000000000000000000000000000008152600401611d1a906147a0565b60405180910390fd5b611d3767bf862c95cc9f5d2260c01b610761565b611d4b67f9a3395c1202545060c01b610761565b611d5f677beaba84e36d3d4a60c01b610761565b6000611d8082611d72888888883a612ebf565b61230e90919063ffffffff16565b9050611d9667dc568d561866531460c01b610761565b84600560008873ffffffffffffffffffffffffffffffffffffffff1673ffffffffffffffffffffffffffffffffffffffff16815260200190815260200160002081905550611dee6768886f5dc5d732ec60c01b610761565b611e02672e35ca05a06d172160c01b610761565b611e0e86828686612616565b505050505050565b50565b50565b600060019050919050565b6000611e3d670fa739e07c029f9060c01b611e16565b611e5167406100042e7653bd60c01b611e16565b611e656784104632bda8198f60c01b611e16565b611eb38484848080601f016020809104026020016040519081016040528093929190818152602001838380828437600081840152601f19601f820116905080830192505050505050506131e2565b90509392505050565b600360009054906101000a900473ffffffffffffffffffffffffffffffffffffffff1681565b611ef667313903b59a995d7660c01b610761565b611f0a67e0600b94c13d066760c01b611e16565b611f1e6755e8cedcdd449e2360c01b611e16565b611f3267ab821ba7fedab67160c01b611e16565b611f4667c540fbd78e0e2a4960c01b611e16565b600260003273ffffffffffffffffffffffffffffffffffffffff1673ffffffffffffffffffffffffffffffffffffffff16815260200190815260200160002060009054906101000a900460ff16611fd2576040517f08c379a0000000000000000000000000000000000000000000000000000000008152600401611fc990614840565b60405180910390fd5b611fe667d014260b312542b460c01b611e16565b611ffa674e25985d1c99d1f260c01b611e16565b61200e671f7542edd3d74d2f60c01b610761565b612022677f6b1c92b6f5e5a960c01b610761565b61203667cad2aa7c334e8b3b60c01b610761565b61204a6703308feac1e8ee1360c01b610761565b61205583838361188b565b505050565b6000919050565b61207567fb2097e639da463260c01b610761565b61208967e0600b94c13d066760c01b611e16565b61209d6755e8cedcdd449e2360c01b611e16565b6120b167ab821ba7fedab67160c01b611e16565b6120c567c540fbd78e0e2a4960c01b611e16565b600260003273ffffffffffffffffffffffffffffffffffffffff1673ffffffffffffffffffffffffffffffffffffffff16815260200190815260200160002060009054906101000a900460ff16612151576040517f08c379a000000000000000000000000000000000000000000000000000000000815260040161214890614840565b60405180910390fd5b61216567d014260b312542b460c01b611e16565b612179674e25985d1c99d1f260c01b611e16565b61218d670a8996d09423e9a560c01b610761565b6121a1674c210d2c1091800160c01b610761565b6121b56793370d1f34f52d6160c01b610761565b6121c967cf247f4dcde0a80d60c01b610761565b6121d38282610fd3565b5050565b60006121ed67905ee8ae82cae5cb60c01b610761565b612201672ee07bb43076d99160c01b610761565b61221567798fd982696fe97360c01b610761565b6122686001600560008573ffffffffffffffffffffffffffffffffffffffff1673ffffffffffffffffffffffffffffffffffffffff168152602001908152602001600020546132b590919063ffffffff16565b9050919050565b600061228567d6536873dad1c60260c01b610761565b612299673f091c2291af034760c01b610761565b6122ad676c51c993615d51fc60c01b610761565b6123047f6848d0622081db2451400280dead7a739a080cb93852607c381af11e289769b28686866122dd876133bf565b6040516020016122f09493929190614443565b6040516020818303038152906040526134eb565b9050949350505050565b6000612324670d75db982ec4597160c01b613568565b6123386725c2c60ab754182560c01b613568565b61234c673eb64a254569ed0660c01b613568565b600061236267fb2a2286066e15e460c01b613568565b61237667a440db11ec9e986d60c01b613568565b6041835114156125cf576123946704a5aada48e2763260c01b613568565b6123a8674b98cf1796e5c26660c01b613568565b6123bc67d2dfec7b159385fc60c01b613568565b60006123d26772c2a840621b4aa760c01b613568565b6123e667bfd411e6ba4d07c460c01b613568565b60006123fc67145d23f82764ba9960c01b613568565b61241067acdff958a9c6c5dd60c01b613568565b6000612426673b79e3a80932a6a160c01b613568565b6020860151925060408601519150606086015160001a9050612452679b0cdee01a57ea2f60c01b613568565b612466675dbf88583373227960c01b613568565b601b8160ff1610156124a557612486670dc9a1836eb51c3260c01b613568565b61249a677097d8456a6c3e1560c01b613568565b601b810190506124ba565b6124b96708b39c61216869e760c01b613568565b5b6124ce672ea4d6db7d2138c560c01b613568565b6124e2679ad3f461195a5eee60c01b613568565b601b8160ff16148015612505575061250467a24e972b59dc7d0560c01b61356b565b5b8061252f5750601c8160ff1614801561252e575061252d67934bee4849491d9560c01b61356b565b5b5b156125b257612548676d6a491fc6e072fa60c01b613568565b61255c67aecd1690d1de9f1c60c01b613568565b6001878285856040516000815260200160405260405161257f94939291906146a5565b6020604051602081039080840390855afa1580156125a1573d6000803e3d6000fd5b5050506020604051035193506125c7565b6125c667513fbc3b3a0ad1c060c01b613568565b5b5050506125e4565b6125e36723d6d78de386c96660c01b613568565b5b6125f86707d0c4f11e72cfc960c01b613568565b61260c67b9689b22f403636c60c01b613568565b8091505092915050565b61262a6772b534df044a3e6960c01b610761565b61263e67c402abc06978619960c01b610761565b612652679e09810371489d9f60c01b610761565b612666677e7daf08d9a58adb60c01b610761565b600073ffffffffffffffffffffffffffffffffffffffff168473ffffffffffffffffffffffffffffffffffffffff1614156126d6576040517f08c379a00000000000000000000000000000000000000000000000000000000081526004016126cd906147c0565b60405180910390fd5b6126ea670b7cbb883e3651ec60c01b610761565b6126fe67d208ff6d7369e98860c01b610761565b61271267491a5cbad1055d5160c01b610761565b612726679e0ff894c768117960c01b610761565b600082511161276a576040517f08c379a0000000000000000000000000000000000000000000000000000000008152600401612761906148e0565b60405180910390fd5b61277e6745254922d222170960c01b610761565b6127926704e613e382681ef660c01b610761565b6127a6675557331c94961ac660c01b610761565b6127ba676a3e2fb0a667717a60c01b610761565b81518151146127fe576040517f08c379a00000000000000000000000000000000000000000000000000000000081526004016127f590614820565b60405180910390fd5b61281267f28a31992346aa2c60c01b610761565b612826676f88151307ba5cf160c01b610761565b61283a678b6e6de748ac3b0560c01b610761565b8273ffffffffffffffffffffffffffffffffffffffff168473ffffffffffffffffffffffffffffffffffffffff1614612aae57612881679b783d0da44a769760c01b610761565b612895672afe7fb31679725b60c01b610761565b6128a9675f21c809493b9d9c60c01b610761565b6128bd67c4c99b0c5a4bff8660c01b610761565b600460009054906101000a900473ffffffffffffffffffffffffffffffffffffffff1673ffffffffffffffffffffffffffffffffffffffff1663bb890d3f85856040518363ffffffff1660e01b815260040161291a929190614646565b60206040518083038186803b15801561293257600080fd5b505afa158015612946573d6000803e3d6000fd5b505050506040513d601f19601f8201168201806040525081019061296a9190613ba5565b8015612986575061298567212d2ce404fd77a760c01b610932565b5b80612a565750600360009054906101000a900473ffffffffffffffffffffffffffffffffffffffff1673ffffffffffffffffffffffffffffffffffffffff1663bb890d3f85856040518363ffffffff1660e01b81526004016129e9929190614646565b60206040518083038186803b158015612a0157600080fd5b505afa158015612a15573d6000803e3d6000fd5b505050506040513d601f19601f82011682018060405250810190612a399190613ba5565b8015612a555750612a5467d868be8222351b6f60c01b610932565b5b5b612a95576040517f08c379a0000000000000000000000000000000000000000000000000000000008152600401612a8c90614800565b60405180910390fd5b612aa9670d7297c082be9ec360c01b610761565b612ac3565b612ac2671c02678189e2da5e60c01b610761565b5b612ad767220aa3d0956cdf3860c01b610761565b612aeb672ff29057ca2d5a4960c01b610761565b6000612b0167736a7a13fde31abc60c01b610761565b612b1567ad98f24f057dfa4760c01b610761565b60005b8251811015612d5b57612b35673a43fbce6290f8a460c01b610761565b612b496775aca6a5cf35ff4a60c01b610761565b612b5d67fd57b4ad4a413b6860c01b610761565b600073ffffffffffffffffffffffffffffffffffffffff16848281518110612b8157fe5b602002602001015173ffffffffffffffffffffffffffffffffffffffff161415612be0576040517f08c379a0000000000000000000000000000000000000000000000000000000008152600401612bd790614720565b60405180910390fd5b612bf46767a6d9c274cadc9c60c01b610761565b612c0867cf1addfe3ca8b2bb60c01b610761565b838181518110612c1457fe5b602002602001015173ffffffffffffffffffffffffffffffffffffffff16838281518110612c3e57fe5b60200260200101518787604051602001612c5a939291906144f7565b604051602081830303815290604052604051612c7691906144e0565b6000604051808303816000865af19150503d8060008114612cb3576040519150601f19603f3d011682016040523d82523d6000602084013e612cb8565b606091505b505080925050612cd267e11e02c50ac3af5a60c01b610761565b612ce66791115981e7972f5360c01b610761565b612cfa671e9de5dd0811b3c160c01b610761565b81612d3a576040517f08c379a0000000000000000000000000000000000000000000000000000000008152600401612d3190614880565b60405180910390fd5b612d4e678f29e428e7b0acbe60c01b610761565b8080600101915050612b18565b505050505050565b612d7767f4de5e8e73d6ad8760c01b611e16565b612d8b67db1ce0981035d84760c01b611e16565b612d9f67e97a0a25809a3f0960c01b611e16565b600081511415612df357612dbd67de11b839232da49160c01b611e16565b612dd167b59bd2ea0c1c89a260c01b611e16565b612de567652fe2786000e62060c01b611e16565b612dee32612f61565b612ebc565b612e0767ad5f6f13dddc2ad960c01b611e16565b612e1b672af46088979bcb2160c01b611e16565b612e2f6796cb81cf0bf6606d60c01b611e16565b600081519050612e49672f4c11881b8dca8c60c01b611e16565b612e5d67cec4e8db5057edad60c01b611e16565b60005b81811015612eb957612e7c671a5cc94c8b734dd960c01b611e16565b612e9067e437d14e98e20b2f60c01b611e16565b612eac838281518110612e9f57fe5b6020026020010151612f61565b8080600101915050612e60565b50505b50565b6000612ed5679ee7bdbf7c6900a460c01b610761565b612ee967f0e928808634a64d60c01b610761565b612efd674075c359d3dd889d60c01b610761565b612f567f6f4e1b2b1e5e49f4269e19e16e67a00cb0a796d96d30be3e4b540d3732e8bcad878787612f2d886133bf565b87604051602001612f42959493929190614489565b6040516020818303038152906040526134eb565b905095945050505050565b612f756703611a9e4063d8ea60c01b611e16565b612f8967ee1baacaa033494260c01b611e16565b612f9d6751e5840de998a97760c01b611e16565b612fb1676f82de74e2e2e03560c01b611e16565b600073ffffffffffffffffffffffffffffffffffffffff168173ffffffffffffffffffffffffffffffffffffffff161415613021576040517f08c379a000000000000000000000000000000000000000000000000000000000815260040161301890614740565b60405180910390fd5b6130356717cb80dba7a8a0ea60c01b611e16565b61304967e2f8fabe2a63d8b660c01b611e16565b61305d677550a657f22d30dc60c01b611e16565b613071673c81d7073dbe6f3060c01b611e16565b600260008273ffffffffffffffffffffffffffffffffffffffff1673ffffffffffffffffffffffffffffffffffffffff16815260200190815260200160002060009054906101000a900460ff16156130fe576040517f08c379a00000000000000000000000000000000000000000000000000000000081526004016130f5906148c0565b60405180910390fd5b61311267bc5a1f0994a7f54e60c01b611e16565b613126679a7f014629c7374960c01b611e16565b6001600260008373ffffffffffffffffffffffffffffffffffffffff1673ffffffffffffffffffffffffffffffffffffffff16815260200190815260200160002060006101000a81548160ff02191690831515021790555061319267d71c83e9f3188e9d60c01b611e16565b6131a667e4bfbd26cb5c77e660c01b611e16565b7fbc3292102fa77e083913064b282926717cdfaede4d35f553d66366c0a3da755a32826040516131d79291906145df565b60405180910390a150565b60006131f867fbe9af14abc78ca860c01b611e16565b61320c67bd3616cf00f8ad2b60c01b611e16565b613220670aad941719c9b69b60c01b611e16565b6000613235838561230e90919063ffffffff16565b905061324b6706f556c4601e7cd060c01b611e16565b61325f67344e7bee2db8345860c01b611e16565b600260008273ffffffffffffffffffffffffffffffffffffffff1673ffffffffffffffffffffffffffffffffffffffff16815260200190815260200160002060009054906101000a900460ff1691505092915050565b60006132cb672797d9bbee8e685760c01b613576565b6132df67e25930aa3032662f60c01b613576565b6132f3673b804ace3fd44ea060c01b613576565b6000828401905061330e67e0d809daafe36a0460c01b613576565b61332267d0d7b021c1a6823260c01b613576565b6133366741f1099b5fa09b9360c01b613576565b83811015613379576040517f08c379a0000000000000000000000000000000000000000000000000000000008152600401613370906148a0565b60405180910390fd5b61338d6728a352a27e50889560c01b613576565b6133a167f55e5f024a80111c60c01b613576565b6133b567d865abdcb752192460c01b613576565b8091505092915050565b60606133d5673c65cd0d57a86f4160c01b610761565b6133e96787729e023af7ebe860c01b610761565b6133fd673eeba47bfbe297d660c01b610761565b606061341367cde6576faf313c1560c01b610761565b613427670ea3dcc6c000079a60c01b610761565b600083519050613441672040a6450836597360c01b610761565b6134556779cc921107583db360c01b610761565b60005b818110156134b8576134746713ae3bb0a3004f3660c01b610761565b8285828151811061348157fe5b602002602001015160405160200161349a929190614530565b60405160208183030381529060405292508080600101915050613458565b506134cd674b78578d8503215f60c01b610761565b6134e167842cae5512e7a35c60c01b610761565b8192505050919050565b60006135016771b334e2e3162d2e60c01b611e19565b6135156729046581cf97a49460c01b611e19565b613529674f9e67c6b1f334b360c01b611e19565b613560600154308585604051602001613545949392919061457a565b60405160208183030381529060405280519060200120613579565b905092915050565b50565b600060019050919050565b50565b600061358f67f3d1beb9fba5b7be60c01b613568565b6135a3676cd81a1865d6353260c01b613568565b6135b7676810828c21da671e60c01b613568565b816040516020016135c89190614554565b604051602081830303815290604052805190602001209050919050565b6000813590506135f481614c3f565b92915050565b600082601f83011261360b57600080fd5b813561361e61361982614988565b61495b565b9150818183526020840193506020810190508385602084028201111561364357600080fd5b60005b83811015613673578161365988826135e5565b845260208401935060208301925050600181019050613646565b5050505092915050565b600082601f83011261368e57600080fd5b81356136a161369c826149b0565b61495b565b9150818183526020840193506020810190508360005b838110156136e757813586016136cd888261378f565b8452602084019350602083019250506001810190506136b7565b5050505092915050565b60008135905061370081614c56565b92915050565b60008151905061371581614c56565b92915050565b60008135905061372a81614c6d565b92915050565b60008135905061373f81614c84565b92915050565b60008083601f84011261375757600080fd5b8235905067ffffffffffffffff81111561377057600080fd5b60208301915083600182028301111561378857600080fd5b9250929050565b600082601f8301126137a057600080fd5b81356137b36137ae826149d8565b61495b565b915080825260208301602083018583830111156137cf57600080fd5b6137da838284614ba7565b50505092915050565b6000813590506137f281614c9b565b92915050565b60008135905061380781614cb2565b92915050565b600060a0828403121561381f57600080fd5b61382960a061495b565b90506000613839848285016135e5565b600083015250602061384d84828501613969565b602083015250604082013567ffffffffffffffff81111561386d57600080fd5b613879848285016135fa565b604083015250606082013567ffffffffffffffff81111561389957600080fd5b6138a58482850161367d565b60608301525060806138b984828501613969565b60808301525092915050565b6000608082840312156138d757600080fd5b6138e1608061495b565b905060006138f1848285016135e5565b600083015250602061390584828501613969565b602083015250604082013567ffffffffffffffff81111561392557600080fd5b613931848285016135fa565b604083015250606082013567ffffffffffffffff81111561395157600080fd5b61395d8482850161367d565b60608301525092915050565b60008135905061397881614cc9565b92915050565b60006020828403121561399057600080fd5b600061399e848285016135e5565b91505092915050565b6000806000606084860312156139bc57600080fd5b60006139ca868287016135e5565b935050602084013567ffffffffffffffff8111156139e757600080fd5b6139f3868287016135fa565b925050604084013567ffffffffffffffff811115613a1057600080fd5b613a1c8682870161367d565b9150509250925092565b600080600080600060a08688031215613a3e57600080fd5b6000613a4c888289016135e5565b9550506020613a5d88828901613969565b945050604086013567ffffffffffffffff811115613a7a57600080fd5b613a86888289016135fa565b935050606086013567ffffffffffffffff811115613aa357600080fd5b613aaf8882890161367d565b925050608086013567ffffffffffffffff811115613acc57600080fd5b613ad88882890161378f565b9150509295509295909350565b60008060408385031215613af857600080fd5b600083013567ffffffffffffffff811115613b1257600080fd5b613b1e858286016135fa565b925050602083013567ffffffffffffffff811115613b3b57600080fd5b613b478582860161367d565b9150509250929050565b60008060408385031215613b6457600080fd5b600083013567ffffffffffffffff811115613b7e57600080fd5b613b8a8582860161367d565b9250506020613b9b858286016136f1565b9150509250929050565b600060208284031215613bb757600080fd5b6000613bc584828501613706565b91505092915050565b600080600060408486031215613be357600080fd5b6000613bf18682870161371b565b935050602084013567ffffffffffffffff811115613c0e57600080fd5b613c1a86828701613745565b92509250509250925092565b600060208284031215613c3857600080fd5b6000613c4684828501613730565b91505092915050565b60008060408385031215613c6257600080fd5b6000613c70858286016137e3565b9250506020613c81858286016137f8565b9150509250929050565b600060208284031215613c9d57600080fd5b600082013567ffffffffffffffff811115613cb757600080fd5b613cc38482850161380d565b91505092915050565b600060208284031215613cde57600080fd5b600082013567ffffffffffffffff811115613cf857600080fd5b613d04848285016138c5565b91505092915050565b6000613d198383613d43565b60208301905092915050565b613d2e81614b29565b82525050565b613d3d81614a7a565b82525050565b613d4c81614a7a565b82525050565b613d63613d5e82614a7a565b614be9565b82525050565b6000613d7482614a14565b613d7e8185614a37565b9350613d8983614a04565b8060005b83811015613dba578151613da18882613d0d565b9750613dac83614a2a565b925050600181019050613d8d565b5085935050505092915050565b613dd081614a8c565b82525050565b613ddf81614a98565b82525050565b613df6613df182614a98565b614bfb565b82525050565b6000613e0782614a1f565b613e118185614a42565b9350613e21818560208601614bb6565b613e2a81614c21565b840191505092915050565b6000613e4082614a1f565b613e4a8185614a53565b9350613e5a818560208601614bb6565b80840191505092915050565b613e6f81614b3b565b82525050565b613e7e81614b5f565b82525050565b6000613e91601b83614a5e565b91507f476174657761793a2063616e6e6f742073656e6420746f2030783000000000006000830152602082019050919050565b6000613ed1601c83614a6f565b91507f19457468657265756d205369676e6564204d6573736167653a0a3332000000006000830152601c82019050919050565b6000613f11602083614a5e565b91507f477561726465643a2063616e6e6f74206164642030783020677561726469616e6000830152602082019050919050565b6000613f51602f83614a5e565b91507f496e697469616c697a61626c653a2074782e6f726967696e206973206e6f742060008301527f74686520696e697469616c697a657200000000000000000000000000000000006020830152604082019050919050565b6000613fb7601783614a5e565b91507f476174657761793a2062617463682072657665727465640000000000000000006000830152602082019050919050565b6000613ff7603283614a5e565b91507f476174657761793a206e6f6e6365206973206c6f776572207468616e2063757260008301527f72656e74206163636f756e74206e6f6e636500000000000000000000000000006020830152604082019050919050565b600061405d602583614a5e565b91507f476174657761793a2063616e6e6f742073656e642066726f6d2030783020616360008301527f636f756e740000000000000000000000000000000000000000000000000000006020830152604082019050919050565b60006140c3602683614a5e565b91507f476174657761793a2063616e6e6f742064656c656761746520656d707479206260008301527f61746368657300000000000000000000000000000000000000000000000000006020830152604082019050919050565b6000614129602883614a5e565b91507f476174657761793a2073656e646572206973206e6f7420746865206163636f7560008301527f6e74206f776e65720000000000000000000000000000000000000000000000006020830152604082019050919050565b600061418f601683614a5e565b91507f476174657761793a20696e76616c6964206261746368000000000000000000006000830152602082019050919050565b60006141cf602683614a5e565b91507f477561726465643a2074782e6f726967696e206973206e6f742074686520677560008301527f61726469616e00000000000000000000000000000000000000000000000000006020830152604082019050919050565b6000614235601f83614a5e565b91507f477561726465643a20677561726469616e20646f65736e2774206578697374006000830152602082019050919050565b6000614275602383614a5e565b91507f476174657761793a206261746368207472616e73616374696f6e20726576657260008301527f74656400000000000000000000000000000000000000000000000000000000006020830152604082019050919050565b60006142db601e83614a5e565b91507f536166654d6174684c69623a206164646974696f6e206f766572666c6f7700006000830152602082019050919050565b600061431b602083614a5e565b91507f477561726465643a20677561726469616e20616c7265616479206578697374736000830152602082019050919050565b600061435b602083614a5e565b91507f476174657761793a2063616e6e6f742073656e6420656d7074792062617463686000830152602082019050919050565b600061439b601b83614a5e565b91507f477561726465643a2063616e6e6f742072656d6f76652073656c6600000000006000830152602082019050919050565b60006143db601d83614a5e565b91507f476174657761793a20616c6c20626174636865732072657665727465640000006000830152602082019050919050565b61441781614b12565b82525050565b61442e61442982614b12565b614c17565b82525050565b61443d81614b1c565b82525050565b600061444f8287613d52565b60148201915061445f828661441d565b60208201915061446f8285613d69565b915061447b8284613e35565b915081905095945050505050565b60006144958288613d52565b6014820191506144a5828761441d565b6020820191506144b58286613d69565b91506144c18285613e35565b91506144cd828461441d565b6020820191508190509695505050505050565b60006144ec8284613e35565b915081905092915050565b60006145038286613e35565b915061450f8285613d52565b60148201915061451f8284613d52565b601482019150819050949350505050565b600061453c8285613e35565b91506145488284613e35565b91508190509392505050565b600061455f82613ec4565b915061456b8284613de5565b60208201915081905092915050565b6000614586828761441d565b6020820191506145968286613d52565b6014820191506145a68285613de5565b6020820191506145b68284613e35565b915081905095945050505050565b60006020820190506145d96000830184613d25565b92915050565b60006040820190506145f46000830185613d25565b6146016020830184613d34565b9392505050565b600060608201905061461d6000830186613d25565b818103602083015261462f8185613dfc565b905061463e6040830184613dc7565b949350505050565b600060408201905061465b6000830185613d34565b6146686020830184613d34565b9392505050565b60006020820190506146846000830184613dc7565b92915050565b600060208201905061469f6000830184613dd6565b92915050565b60006080820190506146ba6000830187613dd6565b6146c76020830186614434565b6146d46040830185613dd6565b6146e16060830184613dd6565b95945050505050565b60006020820190506146ff6000830184613e66565b92915050565b600060208201905061471a6000830184613e75565b92915050565b6000602082019050818103600083015261473981613e84565b9050919050565b6000602082019050818103600083015261475981613f04565b9050919050565b6000602082019050818103600083015261477981613f44565b9050919050565b6000602082019050818103600083015261479981613faa565b9050919050565b600060208201905081810360008301526147b981613fea565b9050919050565b600060208201905081810360008301526147d981614050565b9050919050565b600060208201905081810360008301526147f9816140b6565b9050919050565b600060208201905081810360008301526148198161411c565b9050919050565b6000602082019050818103600083015261483981614182565b9050919050565b60006020820190508181036000830152614859816141c2565b9050919050565b6000602082019050818103600083015261487981614228565b9050919050565b6000602082019050818103600083015261489981614268565b9050919050565b600060208201905081810360008301526148b9816142ce565b9050919050565b600060208201905081810360008301526148d98161430e565b9050919050565b600060208201905081810360008301526148f98161434e565b9050919050565b600060208201905081810360008301526149198161438e565b9050919050565b60006020820190508181036000830152614939816143ce565b9050919050565b6000602082019050614955600083018461440e565b92915050565b6000604051905081810181811067ffffffffffffffff8211171561497e57600080fd5b8060405250919050565b600067ffffffffffffffff82111561499f57600080fd5b602082029050602081019050919050565b600067ffffffffffffffff8211156149c757600080fd5b602082029050602081019050919050565b600067ffffffffffffffff8211156149ef57600080fd5b601f19601f8301169050602081019050919050565b6000819050602082019050919050565b600081519050919050565b600081519050919050565b6000602082019050919050565b600081905092915050565b600082825260208201905092915050565b600081905092915050565b600082825260208201905092915050565b600081905092915050565b6000614a8582614af2565b9050919050565b60008115159050919050565b6000819050919050565b60007fffffffffffffffff00000000000000000000000000000000000000000000000082169050919050565b6000614ad982614a7a565b9050919050565b6000614aeb82614a7a565b9050919050565b600073ffffffffffffffffffffffffffffffffffffffff82169050919050565b6000819050919050565b600060ff82169050919050565b6000614b3482614b83565b9050919050565b6000614b4682614b4d565b9050919050565b6000614b5882614af2565b9050919050565b6000614b6a82614b71565b9050919050565b6000614b7c82614af2565b9050919050565b6000614b8e82614b95565b9050919050565b6000614ba082614af2565b9050919050565b82818337600083830152505050565b60005b83811015614bd4578082015181840152602081019050614bb9565b83811115614be3576000848401525b50505050565b6000614bf482614c05565b9050919050565b6000819050919050565b6000614c1082614c32565b9050919050565b6000819050919050565b6000601f19601f8301169050919050565b60008160601b9050919050565b614c4881614a7a565b8114614c5357600080fd5b50565b614c5f81614a8c565b8114614c6a57600080fd5b50565b614c7681614a98565b8114614c8157600080fd5b50565b614c8d81614aa2565b8114614c9857600080fd5b50565b614ca481614ace565b8114614caf57600080fd5b50565b614cbb81614ae0565b8114614cc657600080fd5b50565b614cd281614b12565b8114614cdd57600080fd5b5056fea164736f6c634300060c000a",
  "linkReferences": {},
  "deployedLinkReferences": {}
}