{
  "_format": "hh-sol-artifact-1",
  "contractName": "LibAsset",
  "sourceName": "src/bridges/libs/LibAsset.sol",
  "abi": [
    {
      "inputs": [
        {
          "internalType": "bytes8",
          "name": "c__61c7bb39",
          "type": "bytes8"
        }
      ],
      "name": "c_61c7bb39",
      "outputs": [],
      "stateMutability": "pure",
      "type": "function"
    },
    {
      "inputs": [
        {
          "internalType": "bytes8",
          "name": "c__61c7bb39",
          "type": "bytes8"
        }
      ],
      "name": "c_false61c7bb39",
      "outputs": [
        {
          "internalType": "bool",
          "name": "",
          "type": "bool"
        }
      ],
      "stateMutability": "pure",
      "type": "function"
    },
    {
      "inputs": [
        {
          "internalType": "bytes8",
          "name": "c__61c7bb39",
          "type": "bytes8"
        }
      ],
      "name": "c_true61c7bb39",
      "outputs": [
        {
          "internalType": "bool",
          "name": "",
          "type": "bool"
        }
      ],
      "stateMutability": "pure",
      "type": "function"
    }
  ],
  "bytecode": "0x6101a5610053600b82828239805160001a607314610046577f4e487b7100000000000000000000000000000000000000000000000000000000600052600060045260246000fd5b30600052607381538281f3fe730000000000000000000000000000000000000000301460806040526004361061004b5760003560e01c80632f016f6f146100505780636a550ef71461006c578063bb9e0f711461009c575b600080fd5b61006a600480360381019061006591906100f6565b6100cc565b005b610086600480360381019061008191906100f6565b6100cf565b604051610093919061012e565b60405180910390f35b6100b660048036038101906100b191906100f6565b6100da565b6040516100c3919061012e565b60405180910390f35b50565b600060019050919050565b6000919050565b6000813590506100f081610181565b92915050565b60006020828403121561010857600080fd5b6000610116848285016100e1565b91505092915050565b61012881610149565b82525050565b6000602082019050610143600083018461011f565b92915050565b60008115159050919050565b60007fffffffffffffffff00000000000000000000000000000000000000000000000082169050919050565b61018a81610155565b811461019557600080fd5b5056fea164736f6c6343000804000a",
  "linkReferences": {},
  "deployedLinkReferences": {}
}