{
  "_format": "hh-sol-artifact-1",
  "contractName": "LibAsset",
  "sourceName": "src/bridges/libs/LibAsset.sol",
  "abi": [
    {
      "inputs": [
        {
          "internalType": "bytes8",
          "name": "c__724619c6",
          "type": "bytes8"
        }
      ],
      "name": "c_724619c6",
      "outputs": [],
      "stateMutability": "pure",
      "type": "function"
    },
    {
      "inputs": [
        {
          "internalType": "bytes8",
          "name": "c__724619c6",
          "type": "bytes8"
        }
      ],
      "name": "c_false724619c6",
      "outputs": [
        {
          "internalType": "bool",
          "name": "",
          "type": "bool"
        }
      ],
      "stateMutability": "pure",
      "type": "function"
    },
    {
      "inputs": [
        {
          "internalType": "bytes8",
          "name": "c__724619c6",
          "type": "bytes8"
        }
      ],
      "name": "c_true724619c6",
      "outputs": [
        {
          "internalType": "bool",
          "name": "",
          "type": "bool"
        }
      ],
      "stateMutability": "pure",
      "type": "function"
    }
  ],
  "bytecode": "0x6101a5610053600b82828239805160001a607314610046577f4e487b7100000000000000000000000000000000000000000000000000000000600052600060045260246000fd5b30600052607381538281f3fe730000000000000000000000000000000000000000301460806040526004361061004b5760003560e01c80631133eca214610050578063d9e8719e14610080578063e12842d3146100b0575b600080fd5b61006a600480360381019061006591906100f6565b6100cc565b604051610077919061012e565b60405180910390f35b61009a600480360381019061009591906100f6565b6100d3565b6040516100a7919061012e565b60405180910390f35b6100ca60048036038101906100c591906100f6565b6100de565b005b6000919050565b600060019050919050565b50565b6000813590506100f081610181565b92915050565b60006020828403121561010857600080fd5b6000610116848285016100e1565b91505092915050565b61012881610149565b82525050565b6000602082019050610143600083018461011f565b92915050565b60008115159050919050565b60007fffffffffffffffff00000000000000000000000000000000000000000000000082169050919050565b61018a81610155565b811461019557600080fd5b5056fea164736f6c6343000804000a",
  "linkReferences": {},
  "deployedLinkReferences": {}
}