{
  "_format": "hh-sol-artifact-1",
  "contractName": "LibDiamond",
  "sourceName": "src/bridges/libs/LibDiamond.sol",
  "abi": [
    {
      "anonymous": false,
      "inputs": [
        {
          "components": [
            {
              "internalType": "address",
              "name": "facetAddress",
              "type": "address"
            },
            {
              "internalType": "enum IDiamondCut.FacetCutAction",
              "name": "action",
              "type": "uint8"
            },
            {
              "internalType": "bytes4[]",
              "name": "functionSelectors",
              "type": "bytes4[]"
            }
          ],
          "indexed": false,
          "internalType": "struct IDiamondCut.FacetCut[]",
          "name": "_diamondCut",
          "type": "tuple[]"
        },
        {
          "indexed": false,
          "internalType": "address",
          "name": "_init",
          "type": "address"
        },
        {
          "indexed": false,
          "internalType": "bytes",
          "name": "_calldata",
          "type": "bytes"
        }
      ],
      "name": "DiamondCut",
      "type": "event"
    },
    {
      "anonymous": false,
      "inputs": [
        {
          "indexed": true,
          "internalType": "address",
          "name": "previousOwner",
          "type": "address"
        },
        {
          "indexed": true,
          "internalType": "address",
          "name": "newOwner",
          "type": "address"
        }
      ],
      "name": "OwnershipTransferred",
      "type": "event"
    },
    {
      "inputs": [
        {
          "internalType": "bytes8",
          "name": "c__6505cd83",
          "type": "bytes8"
        }
      ],
      "name": "c_6505cd83",
      "outputs": [],
      "stateMutability": "pure",
      "type": "function"
    },
    {
      "inputs": [
        {
          "internalType": "bytes8",
          "name": "c__6505cd83",
          "type": "bytes8"
        }
      ],
      "name": "c_false6505cd83",
      "outputs": [
        {
          "internalType": "bool",
          "name": "",
          "type": "bool"
        }
      ],
      "stateMutability": "pure",
      "type": "function"
    },
    {
      "inputs": [
        {
          "internalType": "bytes8",
          "name": "c__6505cd83",
          "type": "bytes8"
        }
      ],
      "name": "c_true6505cd83",
      "outputs": [
        {
          "internalType": "bool",
          "name": "",
          "type": "bool"
        }
      ],
      "stateMutability": "pure",
      "type": "function"
    }
  ],
  "bytecode": "0x6101ae610053600b82828239805160001a607314610046577f4e487b7100000000000000000000000000000000000000000000000000000000600052600060045260246000fd5b30600052607381538281f3fe730000000000000000000000000000000000000000301460806040526004361061004b5760003560e01c80630252d3ab14610050578063ceeacd961461006c578063f0e7962b1461009c575b600080fd5b61006a6004803603810190610065919061013e565b6100cc565b005b6100866004803603810190610081919061013e565b6100cf565b6040516100939190610186565b60405180910390f35b6100b660048036038101906100b1919061013e565b6100da565b6040516100c39190610186565b60405180910390f35b50565b600060019050919050565b6000919050565b600080fd5b60007fffffffffffffffff00000000000000000000000000000000000000000000000082169050919050565b61011b816100e6565b811461012657600080fd5b50565b60008135905061013881610112565b92915050565b600060208284031215610154576101536100e1565b5b600061016284828501610129565b91505092915050565b60008115159050919050565b6101808161016b565b82525050565b600060208201905061019b6000830184610177565b9291505056fea164736f6c634300080b000a",
  "linkReferences": {},
  "deployedLinkReferences": {}
}