{
  "_format": "hh-sol-artifact-1",
  "contractName": "LibDiamond",
  "sourceName": "src/bridges/libs/LibDiamond.sol",
  "abi": [
    {
      "anonymous": false,
      "inputs": [
        {
          "components": [
            {
              "internalType": "address",
              "name": "facetAddress",
              "type": "address"
            },
            {
              "internalType": "enum IDiamondCut.FacetCutAction",
              "name": "action",
              "type": "uint8"
            },
            {
              "internalType": "bytes4[]",
              "name": "functionSelectors",
              "type": "bytes4[]"
            }
          ],
          "indexed": false,
          "internalType": "struct IDiamondCut.FacetCut[]",
          "name": "_diamondCut",
          "type": "tuple[]"
        },
        {
          "indexed": false,
          "internalType": "address",
          "name": "_init",
          "type": "address"
        },
        {
          "indexed": false,
          "internalType": "bytes",
          "name": "_calldata",
          "type": "bytes"
        }
      ],
      "name": "DiamondCut",
      "type": "event"
    },
    {
      "anonymous": false,
      "inputs": [
        {
          "indexed": true,
          "internalType": "address",
          "name": "previousOwner",
          "type": "address"
        },
        {
          "indexed": true,
          "internalType": "address",
          "name": "newOwner",
          "type": "address"
        }
      ],
      "name": "OwnershipTransferred",
      "type": "event"
    },
    {
      "inputs": [
        {
          "internalType": "bytes8",
          "name": "c__f9a76502",
          "type": "bytes8"
        }
      ],
      "name": "c_f9a76502",
      "outputs": [],
      "stateMutability": "pure",
      "type": "function"
    },
    {
      "inputs": [
        {
          "internalType": "bytes8",
          "name": "c__f9a76502",
          "type": "bytes8"
        }
      ],
      "name": "c_falsef9a76502",
      "outputs": [
        {
          "internalType": "bool",
          "name": "",
          "type": "bool"
        }
      ],
      "stateMutability": "pure",
      "type": "function"
    },
    {
      "inputs": [
        {
          "internalType": "bytes8",
          "name": "c__f9a76502",
          "type": "bytes8"
        }
      ],
      "name": "c_truef9a76502",
      "outputs": [
        {
          "internalType": "bool",
          "name": "",
          "type": "bool"
        }
      ],
      "stateMutability": "pure",
      "type": "function"
    }
  ],
  "bytecode": "0x6101d7610053600b82828239805160001a607314610046577f4e487b7100000000000000000000000000000000000000000000000000000000600052600060045260246000fd5b30600052607381538281f3fe730000000000000000000000000000000000000000301460806040526004361061004b5760003560e01c806332446555146100505780637b7164e014610080578063968b8c8b1461009c575b600080fd5b61006a6004803603810190610065919061013e565b6100cc565b6040516100779190610186565b60405180910390f35b61009a6004803603810190610095919061013e565b6100d7565b005b6100b660048036038101906100b1919061013e565b6100da565b6040516100c39190610186565b60405180910390f35b600060019050919050565b50565b6000919050565b600080fd5b60007fffffffffffffffff00000000000000000000000000000000000000000000000082169050919050565b61011b816100e6565b811461012657600080fd5b50565b60008135905061013881610112565b92915050565b600060208284031215610154576101536100e1565b5b600061016284828501610129565b91505092915050565b60008115159050919050565b6101808161016b565b82525050565b600060208201905061019b6000830184610177565b9291505056fea2646970667358221220bd3ed9c770c81adfc18ce730de0b9c81b3318fa299d0960ffbc5ed6f9f672d7464736f6c63430008110033",
  "linkReferences": {},
  "deployedLinkReferences": {}
}