{
  "_format": "hh-sol-artifact-1",
  "contractName": "MaliciousAccount",
  "sourceName": "src/4337_wallet/test/MaliciousAccount.sol",
  "abi": [
    {
      "inputs": [
        {
          "internalType": "contract IEntryPoint",
          "name": "_ep",
          "type": "address"
        }
      ],
      "stateMutability": "payable",
      "type": "constructor"
    },
    {
      "inputs": [
        {
          "components": [
            {
              "internalType": "address",
              "name": "sender",
              "type": "address"
            },
            {
              "internalType": "uint256",
              "name": "nonce",
              "type": "uint256"
            },
            {
              "internalType": "bytes",
              "name": "initCode",
              "type": "bytes"
            },
            {
              "internalType": "bytes",
              "name": "callData",
              "type": "bytes"
            },
            {
              "internalType": "uint256",
              "name": "callGasLimit",
              "type": "uint256"
            },
            {
              "internalType": "uint256",
              "name": "verificationGasLimit",
              "type": "uint256"
            },
            {
              "internalType": "uint256",
              "name": "preVerificationGas",
              "type": "uint256"
            },
            {
              "internalType": "uint256",
              "name": "maxFeePerGas",
              "type": "uint256"
            },
            {
              "internalType": "uint256",
              "name": "maxPriorityFeePerGas",
              "type": "uint256"
            },
            {
              "internalType": "bytes",
              "name": "paymasterAndData",
              "type": "bytes"
            },
            {
              "internalType": "bytes",
              "name": "signature",
              "type": "bytes"
            }
          ],
          "internalType": "struct UserOperation",
          "name": "userOp",
          "type": "tuple"
        },
        {
          "internalType": "bytes32",
          "name": "",
          "type": "bytes32"
        },
        {
          "internalType": "address",
          "name": "",
          "type": "address"
        },
        {
          "internalType": "uint256",
          "name": "missingAccountFunds",
          "type": "uint256"
        }
      ],
      "name": "validateUserOp",
      "outputs": [
        {
          "internalType": "uint256",
          "name": "sigTimeRange",
          "type": "uint256"
        }
      ],
      "stateMutability": "nonpayable",
      "type": "function"
    }
  ],
  "bytecode": "0x608060405260405161061f38038061061f833981810160405281019061002591906100e0565b806000806101000a81548173ffffffffffffffffffffffffffffffffffffffff021916908373ffffffffffffffffffffffffffffffffffffffff1602179055505061010d565b600080fd5b600073ffffffffffffffffffffffffffffffffffffffff82169050919050565b600061009b82610070565b9050919050565b60006100ad82610090565b9050919050565b6100bd816100a2565b81146100c857600080fd5b50565b6000815190506100da816100b4565b92915050565b6000602082840312156100f6576100f561006b565b5b6000610104848285016100cb565b91505092915050565b6105038061011c6000396000f3fe608060405234801561001057600080fd5b506004361061002b5760003560e01c80630825d1fc14610030575b600080fd5b61004a60048036038101906100459190610289565b610060565b604051610057919061031b565b60405180910390f35b60008060009054906101000a900473ffffffffffffffffffffffffffffffffffffffff1673ffffffffffffffffffffffffffffffffffffffff1663b760faf983306040518363ffffffff1660e01b81526004016100bd9190610345565b6000604051808303818588803b1580156100d657600080fd5b505af11580156100ea573d6000803e3d6000fd5b505050505060008560c001358660a00135876080013561010a919061038f565b610114919061038f565b9050600081846101249190610414565b90506000876101000135826101399190610445565b905087602001358114610181576040517f08c379a0000000000000000000000000000000000000000000000000000000008152600401610178906104d6565b60405180910390fd5b60009350505050949350505050565b600080fd5b600080fd5b600080fd5b600061016082840312156101b6576101b561019a565b5b81905092915050565b6000819050919050565b6101d2816101bf565b81146101dd57600080fd5b50565b6000813590506101ef816101c9565b92915050565b600073ffffffffffffffffffffffffffffffffffffffff82169050919050565b6000610220826101f5565b9050919050565b61023081610215565b811461023b57600080fd5b50565b60008135905061024d81610227565b92915050565b6000819050919050565b61026681610253565b811461027157600080fd5b50565b6000813590506102838161025d565b92915050565b600080600080608085870312156102a3576102a2610190565b5b600085013567ffffffffffffffff8111156102c1576102c0610195565b5b6102cd8782880161019f565b94505060206102de878288016101e0565b93505060406102ef8782880161023e565b925050606061030087828801610274565b91505092959194509250565b61031581610253565b82525050565b6000602082019050610330600083018461030c565b92915050565b61033f81610215565b82525050565b600060208201905061035a6000830184610336565b92915050565b7f4e487b7100000000000000000000000000000000000000000000000000000000600052601160045260246000fd5b600061039a82610253565b91506103a583610253565b9250827fffffffffffffffffffffffffffffffffffffffffffffffffffffffffffffffff038211156103da576103d9610360565b5b828201905092915050565b7f4e487b7100000000000000000000000000000000000000000000000000000000600052601260045260246000fd5b600061041f82610253565b915061042a83610253565b92508261043a576104396103e5565b5b828204905092915050565b600061045082610253565b915061045b83610253565b92508282101561046e5761046d610360565b5b828203905092915050565b600082825260208201905092915050565b7f5265766572742061667465722066697273742076616c69646174696f6e000000600082015250565b60006104c0601d83610479565b91506104cb8261048a565b602082019050919050565b600060208201905081810360008301526104ef816104b3565b905091905056fea164736f6c634300080c000a",
  "linkReferences": {},
  "deployedLinkReferences": {}
}