{
  "_format": "hh-sol-artifact-1",
  "contractName": "PaymentDepositAccount",
  "sourceName": "src/payments/PaymentDepositAccount.sol",
  "abi": [
    {
      "inputs": [],
      "stateMutability": "payable",
      "type": "constructor"
    },
    {
      "inputs": [
        {
          "internalType": "bytes8",
          "name": "c__624bed52",
          "type": "bytes8"
        }
      ],
      "name": "c_624bed52",
      "outputs": [],
      "stateMutability": "pure",
      "type": "function"
    },
    {
      "inputs": [
        {
          "internalType": "bytes8",
          "name": "c__e208e0f4",
          "type": "bytes8"
        }
      ],
      "name": "c_e208e0f4",
      "outputs": [],
      "stateMutability": "pure",
      "type": "function"
    },
    {
      "inputs": [
        {
          "internalType": "bytes8",
          "name": "c__624bed52",
          "type": "bytes8"
        }
      ],
      "name": "c_false624bed52",
      "outputs": [
        {
          "internalType": "bool",
          "name": "",
          "type": "bool"
        }
      ],
      "stateMutability": "pure",
      "type": "function"
    },
    {
      "inputs": [
        {
          "internalType": "bytes8",
          "name": "c__e208e0f4",
          "type": "bytes8"
        }
      ],
      "name": "c_falsee208e0f4",
      "outputs": [
        {
          "internalType": "bool",
          "name": "",
          "type": "bool"
        }
      ],
      "stateMutability": "pure",
      "type": "function"
    },
    {
      "inputs": [
        {
          "internalType": "bytes8",
          "name": "c__624bed52",
          "type": "bytes8"
        }
      ],
      "name": "c_true624bed52",
      "outputs": [
        {
          "internalType": "bool",
          "name": "",
          "type": "bool"
        }
      ],
      "stateMutability": "pure",
      "type": "function"
    },
    {
      "inputs": [
        {
          "internalType": "bytes8",
          "name": "c__e208e0f4",
          "type": "bytes8"
        }
      ],
      "name": "c_truee208e0f4",
      "outputs": [
        {
          "internalType": "bool",
          "name": "",
          "type": "bool"
        }
      ],
      "stateMutability": "pure",
      "type": "function"
    },
    {
      "inputs": [],
      "name": "controller",
      "outputs": [
        {
          "internalType": "address",
          "name": "",
          "type": "address"
        }
      ],
      "stateMutability": "view",
      "type": "function"
    },
    {
      "inputs": [
        {
          "internalType": "address",
          "name": "to",
          "type": "address"
        },
        {
          "internalType": "uint256",
          "name": "value",
          "type": "uint256"
        },
        {
          "internalType": "bytes",
          "name": "data",
          "type": "bytes"
        }
      ],
      "name": "executeTransaction",
      "outputs": [
        {
          "internalType": "bytes",
          "name": "",
          "type": "bytes"
        }
      ],
      "stateMutability": "nonpayable",
      "type": "function"
    },
    {
      "stateMutability": "payable",
      "type": "receive"
    }
  ],
  "bytecode": "0x608060405261001e67471bedfea992ac9e60c01b61009760201b60201c565b61003867ffbbdd64e968d82c60c01b61009760201b60201c565b336000806101000a81548173ffffffffffffffffffffffffffffffffffffffff021916908373ffffffffffffffffffffffffffffffffffffffff160217905550610092675375473dde517c6760c01b61009a60201b60201c565b61009d565b50565b50565b61080c806100ac6000396000f3fe60806040526004361061007f5760003560e01c8063abe124f61161004e578063abe124f6146102f8578063b719e0571461034e578063c25a4496146103ba578063f77c47911461041057610086565b8063062e4f9c1461008b5780633f579f42146100f75780636480a27b146102205780636c3da61f1461028c57610086565b3661008657005b600080fd5b34801561009757600080fd5b506100df600480360360208110156100ae57600080fd5b81019080803577ffffffffffffffffffffffffffffffffffffffffffffffff19169060200190929190505050610451565b60405180821515815260200191505060405180910390f35b34801561010357600080fd5b506101a56004803603606081101561011a57600080fd5b81019080803573ffffffffffffffffffffffffffffffffffffffff169060200190929190803590602001909291908035906020019064010000000081111561016157600080fd5b82018360208201111561017357600080fd5b8035906020019184600183028401116401000000008311171561019557600080fd5b9091929391929390505050610458565b6040518080602001828103825283818151815260200191508051906020019080838360005b838110156101e55780820151818401526020810190506101ca565b50505050905090810190601f1680156102125780820380516001836020036101000a031916815260200191505b509250505060405180910390f35b34801561022c57600080fd5b506102746004803603602081101561024357600080fd5b81019080803577ffffffffffffffffffffffffffffffffffffffffffffffff1916906020019092919050505061078c565b60405180821515815260200191505060405180910390f35b34801561029857600080fd5b506102e0600480360360208110156102af57600080fd5b81019080803577ffffffffffffffffffffffffffffffffffffffffffffffff19169060200190929190505050610797565b60405180821515815260200191505060405180910390f35b34801561030457600080fd5b5061034c6004803603602081101561031b57600080fd5b81019080803577ffffffffffffffffffffffffffffffffffffffffffffffff191690602001909291905050506107a2565b005b34801561035a57600080fd5b506103a26004803603602081101561037157600080fd5b81019080803577ffffffffffffffffffffffffffffffffffffffffffffffff191690602001909291905050506107a5565b60405180821515815260200191505060405180910390f35b3480156103c657600080fd5b5061040e600480360360208110156103dd57600080fd5b81019080803577ffffffffffffffffffffffffffffffffffffffffffffffff191690602001909291905050506107ac565b005b34801561041c57600080fd5b506104256107af565b604051808273ffffffffffffffffffffffffffffffffffffffff16815260200191505060405180910390f35b6000919050565b606061046e672b554754f2dbcb8c60c01b6107ac565b610482674942cb926bd63bf160c01b6107a2565b61049667ad93ce02bf35bdae60c01b6107a2565b6104aa679f617ec08a4dee0160c01b6107a2565b6104be67e08252734cb8a1f860c01b6107a2565b60008054906101000a900473ffffffffffffffffffffffffffffffffffffffff1673ffffffffffffffffffffffffffffffffffffffff163373ffffffffffffffffffffffffffffffffffffffff1614610562576040517f08c379a000000000000000000000000000000000000000000000000000000000815260040180806020018281038252602c8152602001806107d4602c913960400191505060405180910390fd5b61057667760347729cd54e1260c01b6107a2565b61058a6706d0fdb977bc52ba60c01b6107a2565b61059e67b1476304be752d8160c01b6107ac565b6105b267c6398dd7483aec8960c01b6107ac565b6105c667c44bd6e2723ca6a960c01b6107ac565b6105da67ec6ad2f3f3a6dc8e60c01b6107ac565b60606105f0670adcee2887bead3160c01b6107ac565b61060467d7cd4023e7daf0d860c01b6107ac565b600061061a675b68880816457ab360c01b6107ac565b8673ffffffffffffffffffffffffffffffffffffffff1686868660405180838380828437808301925050509250505060006040518083038185875af1925050503d8060008114610686576040519150601f19603f3d011682016040523d82523d6000602084013e61068b565b606091505b5080935081925050506106a867094641c97cbe3a1360c01b6107ac565b6106bc67ead2897ca1eff03860c01b6107ac565b6106d067058ed7f97fdc32b060c01b6107ac565b80610743576040517f08c379a000000000000000000000000000000000000000000000000000000000815260040180806020018281038252601d8152602001807f4163636f756e743a207472616e73616374696f6e20726576657274656400000081525060200191505060405180910390fd5b610757672ddd74edafd0694860c01b6107ac565b61076b67408337354b989dbb60c01b6107ac565b61077f6732508a1f33ede86a60c01b6107ac565b8192505050949350505050565b600060019050919050565b600060019050919050565b50565b6000919050565b50565b60008054906101000a900473ffffffffffffffffffffffffffffffffffffffff168156fe436f6e74726f6c6c65643a206d73672e73656e646572206973206e6f742074686520636f6e74726f6c6c6572a164736f6c634300060c000a",
  "linkReferences": {},
  "deployedLinkReferences": {}
}