{
  "_format": "hh-sol-artifact-1",
  "contractName": "PaymentRegistry",
  "sourceName": "src/payments/PaymentRegistry.sol",
  "abi": [
    {
      "inputs": [],
      "stateMutability": "nonpayable",
      "type": "constructor"
    },
    {
      "anonymous": false,
      "inputs": [
        {
          "indexed": false,
          "internalType": "address",
          "name": "depositAccount",
          "type": "address"
        },
        {
          "indexed": false,
          "internalType": "address",
          "name": "owner",
          "type": "address"
        }
      ],
      "name": "DepositAccountDeployed",
      "type": "event"
    },
    {
      "anonymous": false,
      "inputs": [
        {
          "indexed": false,
          "internalType": "address",
          "name": "depositAccount",
          "type": "address"
        },
        {
          "indexed": false,
          "internalType": "address",
          "name": "owner",
          "type": "address"
        },
        {
          "indexed": false,
          "internalType": "address",
          "name": "token",
          "type": "address"
        },
        {
          "indexed": false,
          "internalType": "uint256",
          "name": "amount",
          "type": "uint256"
        }
      ],
      "name": "DepositExitCompleted",
      "type": "event"
    },
    {
      "anonymous": false,
      "inputs": [
        {
          "indexed": false,
          "internalType": "address",
          "name": "depositAccount",
          "type": "address"
        },
        {
          "indexed": false,
          "internalType": "address",
          "name": "owner",
          "type": "address"
        },
        {
          "indexed": false,
          "internalType": "address",
          "name": "token",
          "type": "address"
        }
      ],
      "name": "DepositExitRejected",
      "type": "event"
    },
    {
      "anonymous": false,
      "inputs": [
        {
          "indexed": false,
          "internalType": "address",
          "name": "depositAccount",
          "type": "address"
        },
        {
          "indexed": false,
          "internalType": "address",
          "name": "owner",
          "type": "address"
        },
        {
          "indexed": false,
          "internalType": "address",
          "name": "token",
          "type": "address"
        },
        {
          "indexed": false,
          "internalType": "uint256",
          "name": "lockedUntil",
          "type": "uint256"
        }
      ],
      "name": "DepositExitRequested",
      "type": "event"
    },
    {
      "anonymous": false,
      "inputs": [
        {
          "indexed": false,
          "internalType": "address",
          "name": "depositAccount",
          "type": "address"
        },
        {
          "indexed": false,
          "internalType": "address",
          "name": "owner",
          "type": "address"
        },
        {
          "indexed": false,
          "internalType": "address",
          "name": "token",
          "type": "address"
        },
        {
          "indexed": false,
          "internalType": "uint256",
          "name": "amount",
          "type": "uint256"
        }
      ],
      "name": "DepositWithdrawn",
      "type": "event"
    },
    {
      "anonymous": false,
      "inputs": [
        {
          "indexed": false,
          "internalType": "address",
          "name": "sender",
          "type": "address"
        },
        {
          "indexed": false,
          "internalType": "address",
          "name": "guardian",
          "type": "address"
        }
      ],
      "name": "GuardianAdded",
      "type": "event"
    },
    {
      "anonymous": false,
      "inputs": [
        {
          "indexed": false,
          "internalType": "address",
          "name": "sender",
          "type": "address"
        },
        {
          "indexed": false,
          "internalType": "address",
          "name": "guardian",
          "type": "address"
        }
      ],
      "name": "GuardianRemoved",
      "type": "event"
    },
    {
      "anonymous": false,
      "inputs": [
        {
          "indexed": false,
          "internalType": "address",
          "name": "initializer",
          "type": "address"
        }
      ],
      "name": "Initialized",
      "type": "event"
    },
    {
      "anonymous": false,
      "inputs": [
        {
          "indexed": false,
          "internalType": "bytes32",
          "name": "hash",
          "type": "bytes32"
        },
        {
          "indexed": false,
          "internalType": "address",
          "name": "sender",
          "type": "address"
        },
        {
          "indexed": false,
          "internalType": "address",
          "name": "recipient",
          "type": "address"
        },
        {
          "indexed": false,
          "internalType": "address",
          "name": "token",
          "type": "address"
        },
        {
          "indexed": false,
          "internalType": "bytes32",
          "name": "uid",
          "type": "bytes32"
        },
        {
          "indexed": false,
          "internalType": "uint256",
          "name": "amount",
          "type": "uint256"
        }
      ],
      "name": "PaymentChannelCommitted",
      "type": "event"
    },
    {
      "anonymous": false,
      "inputs": [
        {
          "indexed": false,
          "internalType": "bytes32",
          "name": "channelHash",
          "type": "bytes32"
        },
        {
          "indexed": false,
          "internalType": "uint256",
          "name": "value",
          "type": "uint256"
        }
      ],
      "name": "PaymentDeposited",
      "type": "event"
    },
    {
      "anonymous": false,
      "inputs": [
        {
          "indexed": false,
          "internalType": "bytes32",
          "name": "channelHash",
          "type": "bytes32"
        },
        {
          "indexed": false,
          "internalType": "uint256",
          "name": "totalValue",
          "type": "uint256"
        },
        {
          "indexed": false,
          "internalType": "uint256",
          "name": "depositValue",
          "type": "uint256"
        }
      ],
      "name": "PaymentSplit",
      "type": "event"
    },
    {
      "anonymous": false,
      "inputs": [
        {
          "indexed": false,
          "internalType": "bytes32",
          "name": "channelHash",
          "type": "bytes32"
        },
        {
          "indexed": false,
          "internalType": "uint256",
          "name": "value",
          "type": "uint256"
        }
      ],
      "name": "PaymentWithdrawn",
      "type": "event"
    },
    {
      "inputs": [
        {
          "internalType": "address",
          "name": "guardian",
          "type": "address"
        }
      ],
      "name": "addGuardian",
      "outputs": [],
      "stateMutability": "nonpayable",
      "type": "function"
    },
    {
      "inputs": [],
      "name": "chainId",
      "outputs": [
        {
          "internalType": "uint256",
          "name": "",
          "type": "uint256"
        }
      ],
      "stateMutability": "view",
      "type": "function"
    },
    {
      "inputs": [
        {
          "internalType": "address",
          "name": "sender",
          "type": "address"
        },
        {
          "internalType": "address",
          "name": "token",
          "type": "address"
        },
        {
          "internalType": "bytes32",
          "name": "uid",
          "type": "bytes32"
        },
        {
          "internalType": "uint256",
          "name": "blockNumber",
          "type": "uint256"
        },
        {
          "internalType": "uint256",
          "name": "amount",
          "type": "uint256"
        },
        {
          "internalType": "bytes",
          "name": "senderSignature",
          "type": "bytes"
        },
        {
          "internalType": "bytes",
          "name": "guardianSignature",
          "type": "bytes"
        }
      ],
      "name": "commitPaymentChannelAndDeposit",
      "outputs": [],
      "stateMutability": "nonpayable",
      "type": "function"
    },
    {
      "inputs": [
        {
          "internalType": "address",
          "name": "sender",
          "type": "address"
        },
        {
          "internalType": "address",
          "name": "token",
          "type": "address"
        },
        {
          "internalType": "bytes32",
          "name": "uid",
          "type": "bytes32"
        },
        {
          "internalType": "uint256",
          "name": "blockNumber",
          "type": "uint256"
        },
        {
          "internalType": "uint256",
          "name": "amount",
          "type": "uint256"
        },
        {
          "internalType": "uint256",
          "name": "depositPaymentValue",
          "type": "uint256"
        },
        {
          "internalType": "bytes",
          "name": "senderSignature",
          "type": "bytes"
        },
        {
          "internalType": "bytes",
          "name": "guardianSignature",
          "type": "bytes"
        }
      ],
      "name": "commitPaymentChannelAndSplit",
      "outputs": [],
      "stateMutability": "nonpayable",
      "type": "function"
    },
    {
      "inputs": [
        {
          "internalType": "address",
          "name": "sender",
          "type": "address"
        },
        {
          "internalType": "address",
          "name": "token",
          "type": "address"
        },
        {
          "internalType": "bytes32",
          "name": "uid",
          "type": "bytes32"
        },
        {
          "internalType": "uint256",
          "name": "blockNumber",
          "type": "uint256"
        },
        {
          "internalType": "uint256",
          "name": "amount",
          "type": "uint256"
        },
        {
          "internalType": "bytes",
          "name": "senderSignature",
          "type": "bytes"
        },
        {
          "internalType": "bytes",
          "name": "guardianSignature",
          "type": "bytes"
        }
      ],
      "name": "commitPaymentChannelAndWithdraw",
      "outputs": [],
      "stateMutability": "nonpayable",
      "type": "function"
    },
    {
      "inputs": [
        {
          "internalType": "address",
          "name": "owner",
          "type": "address"
        }
      ],
      "name": "computeDepositAccountAddress",
      "outputs": [
        {
          "internalType": "address",
          "name": "",
          "type": "address"
        }
      ],
      "stateMutability": "view",
      "type": "function"
    },
    {
      "inputs": [
        {
          "internalType": "address",
          "name": "sender",
          "type": "address"
        },
        {
          "internalType": "address",
          "name": "recipient",
          "type": "address"
        },
        {
          "internalType": "address",
          "name": "token",
          "type": "address"
        },
        {
          "internalType": "bytes32",
          "name": "uid",
          "type": "bytes32"
        }
      ],
      "name": "computePaymentChannelHash",
      "outputs": [
        {
          "internalType": "bytes32",
          "name": "",
          "type": "bytes32"
        }
      ],
      "stateMutability": "pure",
      "type": "function"
    },
    {
      "inputs": [
        {
          "internalType": "address",
          "name": "owner",
          "type": "address"
        }
      ],
      "name": "deployDepositAccount",
      "outputs": [],
      "stateMutability": "nonpayable",
      "type": "function"
    },
    {
      "inputs": [],
      "name": "depositExitLockPeriod",
      "outputs": [
        {
          "internalType": "uint256",
          "name": "",
          "type": "uint256"
        }
      ],
      "stateMutability": "view",
      "type": "function"
    },
    {
      "inputs": [],
      "name": "externalAccountRegistry",
      "outputs": [
        {
          "internalType": "contract ExternalAccountRegistry",
          "name": "",
          "type": "address"
        }
      ],
      "stateMutability": "view",
      "type": "function"
    },
    {
      "inputs": [],
      "name": "gateway",
      "outputs": [
        {
          "internalType": "address",
          "name": "",
          "type": "address"
        }
      ],
      "stateMutability": "view",
      "type": "function"
    },
    {
      "inputs": [
        {
          "internalType": "address",
          "name": "owner",
          "type": "address"
        },
        {
          "internalType": "address",
          "name": "token",
          "type": "address"
        }
      ],
      "name": "getDepositExitLockedUntil",
      "outputs": [
        {
          "internalType": "uint256",
          "name": "",
          "type": "uint256"
        }
      ],
      "stateMutability": "view",
      "type": "function"
    },
    {
      "inputs": [
        {
          "internalType": "address",
          "name": "owner",
          "type": "address"
        },
        {
          "internalType": "address",
          "name": "token",
          "type": "address"
        }
      ],
      "name": "getDepositWithdrawnAmount",
      "outputs": [
        {
          "internalType": "uint256",
          "name": "",
          "type": "uint256"
        }
      ],
      "stateMutability": "view",
      "type": "function"
    },
    {
      "inputs": [
        {
          "internalType": "bytes32",
          "name": "hash",
          "type": "bytes32"
        }
      ],
      "name": "getPaymentChannelCommittedAmount",
      "outputs": [
        {
          "internalType": "uint256",
          "name": "",
          "type": "uint256"
        }
      ],
      "stateMutability": "view",
      "type": "function"
    },
    {
      "inputs": [
        {
          "components": [
            {
              "internalType": "address",
              "name": "owner",
              "type": "address"
            },
            {
              "internalType": "address",
              "name": "token",
              "type": "address"
            },
            {
              "internalType": "uint256",
              "name": "amount",
              "type": "uint256"
            }
          ],
          "internalType": "struct PaymentRegistry.DepositWithdrawal",
          "name": "depositWithdrawal",
          "type": "tuple"
        }
      ],
      "name": "hashDepositWithdrawal",
      "outputs": [
        {
          "internalType": "bytes32",
          "name": "",
          "type": "bytes32"
        }
      ],
      "stateMutability": "view",
      "type": "function"
    },
    {
      "inputs": [
        {
          "components": [
            {
              "internalType": "address",
              "name": "sender",
              "type": "address"
            },
            {
              "internalType": "address",
              "name": "recipient",
              "type": "address"
            },
            {
              "internalType": "address",
              "name": "token",
              "type": "address"
            },
            {
              "internalType": "bytes32",
              "name": "uid",
              "type": "bytes32"
            },
            {
              "internalType": "uint256",
              "name": "blockNumber",
              "type": "uint256"
            },
            {
              "internalType": "uint256",
              "name": "amount",
              "type": "uint256"
            }
          ],
          "internalType": "struct PaymentRegistry.PaymentChannelCommit",
          "name": "paymentChannelCommit",
          "type": "tuple"
        }
      ],
      "name": "hashPaymentChannelCommit",
      "outputs": [
        {
          "internalType": "bytes32",
          "name": "",
          "type": "bytes32"
        }
      ],
      "stateMutability": "view",
      "type": "function"
    },
    {
      "inputs": [
        {
          "internalType": "contract ExternalAccountRegistry",
          "name": "externalAccountRegistry_",
          "type": "address"
        },
        {
          "internalType": "contract PersonalAccountRegistry",
          "name": "personalAccountRegistry_",
          "type": "address"
        },
        {
          "internalType": "uint256",
          "name": "depositExitLockPeriod_",
          "type": "uint256"
        },
        {
          "internalType": "address[]",
          "name": "guardians_",
          "type": "address[]"
        },
        {
          "internalType": "address",
          "name": "gateway_",
          "type": "address"
        }
      ],
      "name": "initialize",
      "outputs": [],
      "stateMutability": "nonpayable",
      "type": "function"
    },
    {
      "inputs": [
        {
          "internalType": "address",
          "name": "owner",
          "type": "address"
        }
      ],
      "name": "isDepositAccountDeployed",
      "outputs": [
        {
          "internalType": "bool",
          "name": "",
          "type": "bool"
        }
      ],
      "stateMutability": "view",
      "type": "function"
    },
    {
      "inputs": [
        {
          "internalType": "address",
          "name": "guardian",
          "type": "address"
        }
      ],
      "name": "isGuardian",
      "outputs": [
        {
          "internalType": "bool",
          "name": "",
          "type": "bool"
        }
      ],
      "stateMutability": "view",
      "type": "function"
    },
    {
      "inputs": [],
      "name": "isInitialized",
      "outputs": [
        {
          "internalType": "bool",
          "name": "",
          "type": "bool"
        }
      ],
      "stateMutability": "view",
      "type": "function"
    },
    {
      "inputs": [],
      "name": "personalAccountRegistry",
      "outputs": [
        {
          "internalType": "contract PersonalAccountRegistry",
          "name": "",
          "type": "address"
        }
      ],
      "stateMutability": "view",
      "type": "function"
    },
    {
      "inputs": [
        {
          "internalType": "address",
          "name": "token",
          "type": "address"
        }
      ],
      "name": "processDepositExit",
      "outputs": [],
      "stateMutability": "nonpayable",
      "type": "function"
    },
    {
      "inputs": [
        {
          "internalType": "address",
          "name": "guardian",
          "type": "address"
        }
      ],
      "name": "removeGuardian",
      "outputs": [],
      "stateMutability": "nonpayable",
      "type": "function"
    },
    {
      "inputs": [
        {
          "internalType": "address",
          "name": "token",
          "type": "address"
        }
      ],
      "name": "requestDepositExit",
      "outputs": [],
      "stateMutability": "nonpayable",
      "type": "function"
    },
    {
      "inputs": [
        {
          "internalType": "bytes32",
          "name": "messageHash",
          "type": "bytes32"
        },
        {
          "internalType": "bytes",
          "name": "signature",
          "type": "bytes"
        }
      ],
      "name": "verifyGuardianSignature",
      "outputs": [
        {
          "internalType": "bool",
          "name": "",
          "type": "bool"
        }
      ],
      "stateMutability": "view",
      "type": "function"
    },
    {
      "inputs": [
        {
          "internalType": "address",
          "name": "token",
          "type": "address"
        },
        {
          "internalType": "uint256",
          "name": "amount",
          "type": "uint256"
        },
        {
          "internalType": "bytes",
          "name": "guardianSignature",
          "type": "bytes"
        }
      ],
      "name": "withdrawDeposit",
      "outputs": [],
      "stateMutability": "nonpayable",
      "type": "function"
    }
  ],
  "bytecode": "0x608060405234801561001057600080fd5b5032600160006101000a81548173ffffffffffffffffffffffffffffffffffffffff021916908373ffffffffffffffffffffffffffffffffffffffff16021790555060004690508060028190555050614bfd8061006e6000396000f3fe608060405234801561001057600080fd5b506004361061018e5760003560e01c80639130c06e116100de578063c36326e711610097578063da1b213d11610071578063da1b213d146104bb578063dc7d6c31146104d7578063df04338014610507578063e0fe396e146105235761018e565b8063c36326e71461043d578063d0f710d61461046d578063d2c83b9a1461049d5761018e565b80639130c06e146103915780639a85fae2146103ad5780639a8a0592146103c9578063a526d83b146103e7578063b0274a7314610403578063bdff4b3b1461041f5761018e565b80636121fcfc1161014b578063714041561161012557806371404156146102f757806384389a2b1461031357806387d31313146103435780638a1773ab146103615761018e565b80636121fcfc1461028f5780636524a947146102bf5780636866da52146102db5761018e565b80630c68ba2114610193578063116191b6146101c35780632e4f161e146101e15780632e7037a014610211578063392e53cd1461024157806360bf4df21461025f575b600080fd5b6101ad60048036038101906101a89190612fa2565b61053f565b6040516101ba9190614093565b60405180910390f35b6101cb610594565b6040516101d89190613e1b565b60405180910390f35b6101fb60048036038101906101f69190613007565b6105ba565b60405161020891906140ae565b60405180910390f35b61022b60048036038101906102269190613414565b6105d2565b60405161023891906140ae565b60405180910390f35b6102496105f2565b6040516102569190614093565b60405180910390f35b61027960048036038101906102749190612fa2565b61064a565b6040516102869190613e1b565b60405180910390f35b6102a960048036038101906102a49190612fa2565b61065c565b6040516102b69190614093565b60405180910390f35b6102d960048036038101906102d49190612fa2565b6106f7565b005b6102f560048036038101906102f0919061322b565b610703565b005b610311600480360381019061030c9190612fa2565b610a28565b005b61032d6004803603810190610328919061343d565b610c40565b60405161033a91906140ae565b60405180910390f35b61034b610c6f565b60405161035891906141ea565b60405180910390f35b61037b600480360381019061037691906132c0565b610c95565b6040516103889190614487565b60405180910390f35b6103ab60048036038101906103a69190612fa2565b610cb5565b005b6103c760048036038101906103c2919061306a565b610fe9565b005b6103d16110f4565b6040516103de9190614487565b60405180910390f35b61040160048036038101906103fc9190612fa2565b6110fa565b005b61041d60048036038101906104189190612fa2565b611191565b005b6104276113ac565b6040516104349190614487565b60405180910390f35b61045760048036038101906104529190612fcb565b6113b2565b6040516104649190614487565b60405180910390f35b610487600480360381019061048291906132e9565b61143c565b6040516104949190614093565b60405180910390f35b6104a5611495565b6040516104b291906141cf565b60405180910390f35b6104d560048036038101906104d09190613140565b6114bb565b005b6104f160048036038101906104ec9190612fcb565b6115c2565b6040516104fe9190614487565b60405180910390f35b610521600480360381019061051c919061306a565b61164c565b005b61053d60048036038101906105389190613382565b61174f565b005b60008060008373ffffffffffffffffffffffffffffffffffffffff1673ffffffffffffffffffffffffffffffffffffffff16815260200190815260200160002060009054906101000a900460ff169050919050565b600360009054906101000a900473ffffffffffffffffffffffffffffffffffffffff1681565b60006105c885858585611955565b9050949350505050565b60006105eb82600001518360200151846040015161198e565b9050919050565b60008073ffffffffffffffffffffffffffffffffffffffff16600160009054906101000a900473ffffffffffffffffffffffffffffffffffffffff1673ffffffffffffffffffffffffffffffffffffffff1614905090565b6000610655826119e6565b9050919050565b60008073ffffffffffffffffffffffffffffffffffffffff16600760008473ffffffffffffffffffffffffffffffffffffffff1673ffffffffffffffffffffffffffffffffffffffff16815260200190815260200160002060000160009054906101000a900473ffffffffffffffffffffffffffffffffffffffff1673ffffffffffffffffffffffffffffffffffffffff1614159050919050565b61070081611a84565b50565b600061070d611c94565b905060006107a3600760008473ffffffffffffffffffffffffffffffffffffffff1673ffffffffffffffffffffffffffffffffffffffff16815260200190815260200160002060010160008873ffffffffffffffffffffffffffffffffffffffff1673ffffffffffffffffffffffffffffffffffffffff1681526020019081526020016000205486611ca590919063ffffffff16565b9050600081116107e8576040517f08c379a00000000000000000000000000000000000000000000000000000000081526004016107df90614347565b60405180910390fd5b60006107f583888861198e565b90506108458186868080601f016020809104026020016040519081016040528093929190818152602001838380828437600081840152601f19601f82011690508083019250505050505050611cd2565b610884576040517f08c379a000000000000000000000000000000000000000000000000000000000815260040161087b90614467565b60405180910390fd5b85600760008573ffffffffffffffffffffffffffffffffffffffff1673ffffffffffffffffffffffffffffffffffffffff16815260200190815260200160002060010160008973ffffffffffffffffffffffffffffffffffffffff1673ffffffffffffffffffffffffffffffffffffffff168152602001908152602001600020819055506109128388611d3f565b610980600760008573ffffffffffffffffffffffffffffffffffffffff1673ffffffffffffffffffffffffffffffffffffffff16815260200190815260200160002060000160009054906101000a900473ffffffffffffffffffffffffffffffffffffffff16848985611efc565b7f95f66b073d65f18e43f6b76c7ab8557787f5f766d86cab7c9c76f41be9f8abc6600760008573ffffffffffffffffffffffffffffffffffffffff1673ffffffffffffffffffffffffffffffffffffffff16815260200190815260200160002060000160009054906101000a900473ffffffffffffffffffffffffffffffffffffffff16848989604051610a179493929190613f3b565b60405180910390a150505050505050565b6000803273ffffffffffffffffffffffffffffffffffffffff1673ffffffffffffffffffffffffffffffffffffffff16815260200190815260200160002060009054906101000a900460ff16610ab3576040517f08c379a0000000000000000000000000000000000000000000000000000000008152600401610aaa90614327565b60405180910390fd5b8073ffffffffffffffffffffffffffffffffffffffff163273ffffffffffffffffffffffffffffffffffffffff161415610b22576040517f08c379a0000000000000000000000000000000000000000000000000000000008152600401610b1990614427565b60405180910390fd5b6000808273ffffffffffffffffffffffffffffffffffffffff1673ffffffffffffffffffffffffffffffffffffffff16815260200190815260200160002060009054906101000a900460ff16610bad576040517f08c379a0000000000000000000000000000000000000000000000000000000008152600401610ba4906143c7565b60405180910390fd5b60008060008373ffffffffffffffffffffffffffffffffffffffff1673ffffffffffffffffffffffffffffffffffffffff16815260200190815260200160002060006101000a81548160ff0219169083151502179055507fee943cdb81826d5909c559c6b1ae6908fcaf2dbc16c4b730346736b486283e8b3282604051610c35929190613e51565b60405180910390a150565b6000610c68826000015183602001518460400151856060015186608001518760a0015161218c565b9050919050565b600560009054906101000a900473ffffffffffffffffffffffffffffffffffffffff1681565b600060086000838152602001908152602001600020600001549050919050565b6000610cbf611c94565b90506000600760008373ffffffffffffffffffffffffffffffffffffffff1673ffffffffffffffffffffffffffffffffffffffff16815260200190815260200160002060020160008473ffffffffffffffffffffffffffffffffffffffff1673ffffffffffffffffffffffffffffffffffffffff1681526020019081526020016000205490506000811415610d89576040517f08c379a0000000000000000000000000000000000000000000000000000000008152600401610d80906142e7565b60405180910390fd5b42811115610dcc576040517f08c379a0000000000000000000000000000000000000000000000000000000008152600401610dc390614367565b60405180910390fd5b6000600760008473ffffffffffffffffffffffffffffffffffffffff1673ffffffffffffffffffffffffffffffffffffffff16815260200190815260200160002060020160008573ffffffffffffffffffffffffffffffffffffffff1673ffffffffffffffffffffffffffffffffffffffff168152602001908152602001600020819055506000600760008473ffffffffffffffffffffffffffffffffffffffff1673ffffffffffffffffffffffffffffffffffffffff16815260200190815260200160002060000160009054906101000a900473ffffffffffffffffffffffffffffffffffffffff16905060008073ffffffffffffffffffffffffffffffffffffffff168573ffffffffffffffffffffffffffffffffffffffff161415610f0d578173ffffffffffffffffffffffffffffffffffffffff16319050610f99565b8473ffffffffffffffffffffffffffffffffffffffff166370a08231836040518263ffffffff1660e01b8152600401610f469190613e1b565b60206040518083038186803b158015610f5e57600080fd5b505afa158015610f72573d6000803e3d6000fd5b505050506040513d601f19601f82011682018060405250810190610f969190613466565b90505b610fa582858784611efc565b7f5300d9a2838baade7cdc628c82cb80c1298853ba5f389d51e2b47330336aeffc82858784604051610fda9493929190613f3b565b60405180910390a15050505050565b6000610ff3611c94565b905060008060006110928d858e8e8e8e8e8e8080601f016020809104026020016040519081016040528093929190818152602001838380828437600081840152601f19601f820116905080830192505050505050508d8d8080601f016020809104026020016040519081016040528093929190818152602001838380828437600081840152601f19601f820116905080830192505050505050506121ed565b9250925092506110ac826110a5866119e6565b8e84611efc565b7f771bc0494e1a2fcbef19a8762845000d8c4500454c756a7370c955e39ed60fd483826040516110dd92919061412a565b60405180910390a150505050505050505050505050565b60025481565b6000803273ffffffffffffffffffffffffffffffffffffffff1673ffffffffffffffffffffffffffffffffffffffff16815260200190815260200160002060009054906101000a900460ff16611185576040517f08c379a000000000000000000000000000000000000000000000000000000000815260040161117c90614327565b60405180910390fd5b61118e81612691565b50565b600061119b611c94565b90506000600760008373ffffffffffffffffffffffffffffffffffffffff1673ffffffffffffffffffffffffffffffffffffffff16815260200190815260200160002060020160008473ffffffffffffffffffffffffffffffffffffffff1673ffffffffffffffffffffffffffffffffffffffff16815260200190815260200160002054905060008114611264576040517f08c379a000000000000000000000000000000000000000000000000000000000815260040161125b90614287565b60405180910390fd5b61126d82611a84565b6112826006544261282090919063ffffffff16565b905080600760008473ffffffffffffffffffffffffffffffffffffffff1673ffffffffffffffffffffffffffffffffffffffff16815260200190815260200160002060020160008573ffffffffffffffffffffffffffffffffffffffff1673ffffffffffffffffffffffffffffffffffffffff168152602001908152602001600020819055507fed3c8c6cdfc6d7b91dc9db3e1f54866587c26c3c3e0f9e32cd1944974be43a50600760008473ffffffffffffffffffffffffffffffffffffffff1673ffffffffffffffffffffffffffffffffffffffff16815260200190815260200160002060000160009054906101000a900473ffffffffffffffffffffffffffffffffffffffff1683858460405161139f9493929190613f3b565b60405180910390a1505050565b60065481565b6000600760008473ffffffffffffffffffffffffffffffffffffffff1673ffffffffffffffffffffffffffffffffffffffff16815260200190815260200160002060010160008373ffffffffffffffffffffffffffffffffffffffff1673ffffffffffffffffffffffffffffffffffffffff16815260200190815260200160002054905092915050565b600061148c8484848080601f016020809104026020016040519081016040528093929190818152602001838380828437600081840152601f19601f82011690508083019250505050505050611cd2565b90509392505050565b600460009054906101000a900473ffffffffffffffffffffffffffffffffffffffff1681565b60006114c5611c94565b905060008060006115648e858f8f8f8f8e8e8080601f016020809104026020016040519081016040528093929190818152602001838380828437600081840152601f19601f820116905080830192505050505050508d8d8080601f016020809104026020016040519081016040528093929190818152602001838380828437600081840152601f19601f820116905080830192505050505050506121ed565b92509250925061157782858f848d612875565b7f8b67efde501ee9cd0e771f7436554c44a5c076239ff3a6fbb397646a4689c0f283828b6040516115aa93929190614153565b60405180910390a15050505050505050505050505050565b6000600760008473ffffffffffffffffffffffffffffffffffffffff1673ffffffffffffffffffffffffffffffffffffffff16815260200190815260200160002060020160008373ffffffffffffffffffffffffffffffffffffffff1673ffffffffffffffffffffffffffffffffffffffff16815260200190815260200160002054905092915050565b6000611656611c94565b905060008060006116f58d858e8e8e8e8e8e8080601f016020809104026020016040519081016040528093929190818152602001838380828437600081840152601f19601f820116905080830192505050505050508d8d8080601f016020809104026020016040519081016040528093929190818152602001838380828437600081840152601f19601f820116905080830192505050505050506121ed565b92509250925061170782858e84611efc565b7f6675346cd43846f7d47c310d39fb5c15bc7db66b3770338cdf1f133613a5ae98838260405161173892919061412a565b60405180910390a150505050505050505050505050565b600160009054906101000a900473ffffffffffffffffffffffffffffffffffffffff1673ffffffffffffffffffffffffffffffffffffffff163273ffffffffffffffffffffffffffffffffffffffff16146117df576040517f08c379a00000000000000000000000000000000000000000000000000000000081526004016117d690614267565b60405180910390fd5b6000600160006101000a81548173ffffffffffffffffffffffffffffffffffffffff021916908373ffffffffffffffffffffffffffffffffffffffff16021790555085600460006101000a81548173ffffffffffffffffffffffffffffffffffffffff021916908373ffffffffffffffffffffffffffffffffffffffff16021790555084600560006101000a81548173ffffffffffffffffffffffffffffffffffffffff021916908373ffffffffffffffffffffffffffffffffffffffff16021790555060008414156118bb576224ea006006819055506118c3565b836006819055505b61190d838380806020026020016040519081016040528093929190818152602001838360200280828437600081840152601f19601f8201169050808301925050505050505061293a565b61191681612992565b7f908408e307fc569b417f6cbec5d5a06f44a0a505ac0479b47d421a4b2fd6a1e6326040516119459190613e36565b60405180910390a1505050505050565b60008484848460405160200161196e9493929190613cf8565b604051602081830303815290604052805190602001209050949350505050565b60006119dd7f3b3087c8f883f1f44cabe66444f5f9d96f69de6a88f364ea10959eef0331414a8585856040516020016119c993929190613f80565b6040516020818303038152906040526129d6565b90509392505050565b600080826040516020016119fa9190613cdd565b604051602081830303815290604052805190602001209050606060405180602001611a2490612d1e565b6020820181038252601f19601f820116604052509050600060ff60f81b30848480519060200120604051602001611a5e9493929190613d46565b6040516020818303038152906040528051906020012090508060001c9350505050919050565b600073ffffffffffffffffffffffffffffffffffffffff16600760008373ffffffffffffffffffffffffffffffffffffffff1673ffffffffffffffffffffffffffffffffffffffff16815260200190815260200160002060000160009054906101000a900473ffffffffffffffffffffffffffffffffffffffff1673ffffffffffffffffffffffffffffffffffffffff161415611c9157600081604051602001611b2e9190613cdd565b60405160208183030381529060405280519060200120905080604051611b5390612d1e565b8190604051809103906000f5905080158015611b73573d6000803e3d6000fd5b50600760008473ffffffffffffffffffffffffffffffffffffffff1673ffffffffffffffffffffffffffffffffffffffff16815260200190815260200160002060000160006101000a81548173ffffffffffffffffffffffffffffffffffffffff021916908373ffffffffffffffffffffffffffffffffffffffff1602179055507fd80572c0f2f24f2d9d726d831bd860ed82b12bafaf01cfb6e4d38fb23c4347e9600760008473ffffffffffffffffffffffffffffffffffffffff1673ffffffffffffffffffffffffffffffffffffffff16815260200190815260200160002060000160009054906101000a900473ffffffffffffffffffffffffffffffffffffffff1683604051611c87929190613e7a565b60405180910390a1505b50565b6000611ca06028612a17565b905090565b6000611cca8383604051806060016040528060218152602001614bd060219139612aac565b905092915050565b600080611ce88385612b0190919063ffffffff16565b90506000808273ffffffffffffffffffffffffffffffffffffffff1673ffffffffffffffffffffffffffffffffffffffff16815260200190815260200160002060009054906101000a900460ff1691505092915050565b6000600760008473ffffffffffffffffffffffffffffffffffffffff1673ffffffffffffffffffffffffffffffffffffffff16815260200190815260200160002060020160008373ffffffffffffffffffffffffffffffffffffffff1673ffffffffffffffffffffffffffffffffffffffff168152602001908152602001600020541115611eee576000600760008473ffffffffffffffffffffffffffffffffffffffff1673ffffffffffffffffffffffffffffffffffffffff16815260200190815260200160002060020160008373ffffffffffffffffffffffffffffffffffffffff1673ffffffffffffffffffffffffffffffffffffffff168152602001908152602001600020819055507fa19281a6f3163da06f6b82f3ecf0130493c52aba23cdc2a312f652742f0d1801600760008473ffffffffffffffffffffffffffffffffffffffff1673ffffffffffffffffffffffffffffffffffffffff16815260200190815260200160002060000160009054906101000a900473ffffffffffffffffffffffffffffffffffffffff168383604051611ee193929190613ea3565b60405180910390a1611ef8565b611ef782611a84565b5b5050565b600073ffffffffffffffffffffffffffffffffffffffff168273ffffffffffffffffffffffffffffffffffffffff161415612016578373ffffffffffffffffffffffffffffffffffffffff16633f579f428483600067ffffffffffffffff81118015611f6757600080fd5b506040519080825280601f01601f191660200182016040528015611f9a5781602001600182028036833780820191505090505b506040518463ffffffff1660e01b8152600401611fb993929190614055565b600060405180830381600087803b158015611fd357600080fd5b505af1158015611fe7573d6000803e3d6000fd5b505050506040513d6000823e3d601f19601f820116820180604052508101906120109190613341565b50612186565b60608473ffffffffffffffffffffffffffffffffffffffff16633f579f4284600063a9059cbb60e01b888760405160240161205292919061402c565b604051602081830303815290604052907bffffffffffffffffffffffffffffffffffffffffffffffffffffffff19166020820180517bffffffffffffffffffffffffffffffffffffffffffffffffffffffff83818316178352505050506040518463ffffffff1660e01b81526004016120cd93929190613fee565b600060405180830381600087803b1580156120e757600080fd5b505af11580156120fb573d6000803e3d6000fd5b505050506040513d6000823e3d601f19601f820116820180604052508101906121249190613341565b905060008151111561218457808060200190518101906121449190613297565b612183576040517f08c379a000000000000000000000000000000000000000000000000000000000815260040161217a90614307565b60405180910390fd5b5b505b50505050565b60006121e17f745089e29f2abf28f618236a5dc04d214ac05ead3440ba532b69e9d160ba2e728888888888886040516020016121cd96959493929190613eda565b6040516020818303038152906040526129d6565b90509695505050505050565b6000806000806122018c8c8c8c8c8c61218c565b905060008651141561230057600460009054906101000a900473ffffffffffffffffffffffffffffffffffffffff1673ffffffffffffffffffffffffffffffffffffffff166359b52ef88d838b6040518463ffffffff1660e01b815260040161226c93929190613fb7565b60206040518083038186803b15801561228457600080fd5b505afa158015612298573d6000803e3d6000fd5b505050506040513d601f19601f820116820180604052508101906122bc9190613297565b6122fb576040517f08c379a00000000000000000000000000000000000000000000000000000000081526004016122f290614467565b60405180910390fd5b6124f1565b60006123158783612b0190919063ffffffff16565b90508073ffffffffffffffffffffffffffffffffffffffff168d73ffffffffffffffffffffffffffffffffffffffff16146124ef57600560009054906101000a900473ffffffffffffffffffffffffffffffffffffffff1673ffffffffffffffffffffffffffffffffffffffff166334d323a48e838c6040518463ffffffff1660e01b81526004016123a993929190613f80565b60206040518083038186803b1580156123c157600080fd5b505afa1580156123d5573d6000803e3d6000fd5b505050506040513d601f19601f820116820180604052508101906123f99190613297565b806124af5750600460009054906101000a900473ffffffffffffffffffffffffffffffffffffffff1673ffffffffffffffffffffffffffffffffffffffff166334d323a48e838c6040518463ffffffff1660e01b815260040161245e93929190613f80565b60206040518083038186803b15801561247657600080fd5b505afa15801561248a573d6000803e3d6000fd5b505050506040513d601f19601f820116820180604052508101906124ae9190613297565b5b6124ee576040517f08c379a00000000000000000000000000000000000000000000000000000000081526004016124e5906143a7565b60405180910390fd5b5b505b6124fb8186611cd2565b61253a576040517f08c379a000000000000000000000000000000000000000000000000000000000815260040161253190614467565b60405180910390fd5b6125468c8c8c8c611955565b9350612571600860008681526020019081526020016000206000015488611ca590919063ffffffff16565b915060008214156125b7576040517f08c379a00000000000000000000000000000000000000000000000000000000081526004016125ae906142a7565b60405180910390fd5b8660086000868152602001908152602001600020600001819055506125dc8c8b611d3f565b600760008d73ffffffffffffffffffffffffffffffffffffffff1673ffffffffffffffffffffffffffffffffffffffff16815260200190815260200160002060000160009054906101000a900473ffffffffffffffffffffffffffffffffffffffff1692507f0d1cb77d1fe491f98926195d0b885509da18bc305dd1489f45610237d971ed46848d8d8d8d8c60405161267a969594939291906140c9565b60405180910390a150985098509895505050505050565b600073ffffffffffffffffffffffffffffffffffffffff168173ffffffffffffffffffffffffffffffffffffffff161415612701576040517f08c379a00000000000000000000000000000000000000000000000000000000081526004016126f890614247565b60405180910390fd5b6000808273ffffffffffffffffffffffffffffffffffffffff1673ffffffffffffffffffffffffffffffffffffffff16815260200190815260200160002060009054906101000a900460ff161561278d576040517f08c379a000000000000000000000000000000000000000000000000000000000815260040161278490614407565b60405180910390fd5b60016000808373ffffffffffffffffffffffffffffffffffffffff1673ffffffffffffffffffffffffffffffffffffffff16815260200190815260200160002060006101000a81548160ff0219169083151502179055507fbc3292102fa77e083913064b282926717cdfaede4d35f553d66366c0a3da755a3282604051612815929190613e51565b60405180910390a150565b60008082840190508381101561286b576040517f08c379a0000000000000000000000000000000000000000000000000000000008152600401612862906143e7565b60405180910390fd5b8091505092915050565b600081116128b8576040517f08c379a00000000000000000000000000000000000000000000000000000000081526004016128af90614227565b60405180910390fd5b60006128cd8284611ca590919063ffffffff16565b905060008111612912576040517f08c379a000000000000000000000000000000000000000000000000000000000815260040161290990614387565b60405180910390fd5b61291e86868684611efc565b6129328661292b876119e6565b8685611efc565b505050505050565b6000815114156129525761294d32612691565b61298f565b60008151905060005b8181101561298c5761297f83828151811061297257fe5b6020026020010151612691565b808060010191505061295b565b50505b50565b80600360006101000a81548173ffffffffffffffffffffffffffffffffffffffff021916908373ffffffffffffffffffffffffffffffffffffffff16021790555050565b6000612a0f6002543085856040516020016129f49493929190613dd1565b60405160208183030381529060405280519060200120612bbc565b905092915050565b60008060009050612a26612c0b565b15612a9f576000836000369050039050612a9760003683906014850192612a4f93929190614549565b8080601f016020809104026020016040519081016040528093929190818152602001838380828437600081840152601f19601f82011690508083019250505050505050612cb8565b915050612aa3565b3390505b80915050919050565b6000838311158290612af4576040517f08c379a0000000000000000000000000000000000000000000000000000000008152600401612aeb9190614205565b60405180910390fd5b5082840390509392505050565b60008060009050604183511415612bb25760008060006020860151925060408601519150606086015160001a9050601b8160ff161015612b4257601b810190505b601b8160ff161480612b575750601c8160ff16145b15612bae5760018782858560405160008152602001604052604051612b7f949392919061418a565b6020604051602081039080840390855afa158015612ba1573d6000803e3d6000fd5b5050506020604051035193505b5050505b8091505092915050565b600081604051602001612bcf9190613d94565b604051602081830303815290604052604051602001612bee9190613daf565b604051602081830303815290604052805190602001209050919050565b600080600360009054906101000a900473ffffffffffffffffffffffffffffffffffffffff1673ffffffffffffffffffffffffffffffffffffffff163373ffffffffffffffffffffffffffffffffffffffff161415612cb157602c60003690501015612cac576040517f08c379a0000000000000000000000000000000000000000000000000000000008152600401612ca3906142c7565b60405180910390fd5b600190505b8091505090565b6000806014835114612cff576040517f08c379a0000000000000000000000000000000000000000000000000000000008152600401612cf690614447565b60405180910390fd5b6c01000000000000000000000000602084015104905080915050919050565b6103f7806147d983390190565b600081359050612d3a8161474e565b92915050565b60008083601f840112612d5257600080fd5b8235905067ffffffffffffffff811115612d6b57600080fd5b602083019150836020820283011115612d8357600080fd5b9250929050565b600081519050612d9981614765565b92915050565b600081359050612dae8161477c565b92915050565b60008083601f840112612dc657600080fd5b8235905067ffffffffffffffff811115612ddf57600080fd5b602083019150836001820283011115612df757600080fd5b9250929050565b600082601f830112612e0f57600080fd5b8151612e22612e1d826144cf565b6144a2565b91508082526020830160208301858383011115612e3e57600080fd5b612e498382846146bb565b50505092915050565b600081359050612e6181614793565b92915050565b600081359050612e76816147aa565b92915050565b600060608284031215612e8e57600080fd5b612e9860606144a2565b90506000612ea884828501612d2b565b6000830152506020612ebc84828501612d2b565b6020830152506040612ed084828501612f78565b60408301525092915050565b600060c08284031215612eee57600080fd5b612ef860c06144a2565b90506000612f0884828501612d2b565b6000830152506020612f1c84828501612d2b565b6020830152506040612f3084828501612d2b565b6040830152506060612f4484828501612d9f565b6060830152506080612f5884828501612f78565b60808301525060a0612f6c84828501612f78565b60a08301525092915050565b600081359050612f87816147c1565b92915050565b600081519050612f9c816147c1565b92915050565b600060208284031215612fb457600080fd5b6000612fc284828501612d2b565b91505092915050565b60008060408385031215612fde57600080fd5b6000612fec85828601612d2b565b9250506020612ffd85828601612d2b565b9150509250929050565b6000806000806080858703121561301d57600080fd5b600061302b87828801612d2b565b945050602061303c87828801612d2b565b935050604061304d87828801612d2b565b925050606061305e87828801612d9f565b91505092959194509250565b600080600080600080600080600060e08a8c03121561308857600080fd5b60006130968c828d01612d2b565b99505060206130a78c828d01612d2b565b98505060406130b88c828d01612d9f565b97505060606130c98c828d01612f78565b96505060806130da8c828d01612f78565b95505060a08a013567ffffffffffffffff8111156130f757600080fd5b6131038c828d01612db4565b945094505060c08a013567ffffffffffffffff81111561312257600080fd5b61312e8c828d01612db4565b92509250509295985092959850929598565b6000806000806000806000806000806101008b8d03121561316057600080fd5b600061316e8d828e01612d2b565b9a5050602061317f8d828e01612d2b565b99505060406131908d828e01612d9f565b98505060606131a18d828e01612f78565b97505060806131b28d828e01612f78565b96505060a06131c38d828e01612f78565b95505060c08b013567ffffffffffffffff8111156131e057600080fd5b6131ec8d828e01612db4565b945094505060e08b013567ffffffffffffffff81111561320b57600080fd5b6132178d828e01612db4565b92509250509295989b9194979a5092959850565b6000806000806060858703121561324157600080fd5b600061324f87828801612d2b565b945050602061326087828801612f78565b935050604085013567ffffffffffffffff81111561327d57600080fd5b61328987828801612db4565b925092505092959194509250565b6000602082840312156132a957600080fd5b60006132b784828501612d8a565b91505092915050565b6000602082840312156132d257600080fd5b60006132e084828501612d9f565b91505092915050565b6000806000604084860312156132fe57600080fd5b600061330c86828701612d9f565b935050602084013567ffffffffffffffff81111561332957600080fd5b61333586828701612db4565b92509250509250925092565b60006020828403121561335357600080fd5b600082015167ffffffffffffffff81111561336d57600080fd5b61337984828501612dfe565b91505092915050565b60008060008060008060a0878903121561339b57600080fd5b60006133a989828a01612e52565b96505060206133ba89828a01612e67565b95505060406133cb89828a01612f78565b945050606087013567ffffffffffffffff8111156133e857600080fd5b6133f489828a01612d40565b9350935050608061340789828a01612d2b565b9150509295509295509295565b60006060828403121561342657600080fd5b600061343484828501612e7c565b91505092915050565b600060c0828403121561344f57600080fd5b600061345d84828501612edc565b91505092915050565b60006020828403121561347857600080fd5b600061348684828501612f8d565b91505092915050565b6134988161462b565b82525050565b6134a78161457c565b82525050565b6134be6134b98261457c565b6146ee565b82525050565b6134cd8161458e565b82525050565b6134e46134df8261459a565b614700565b82525050565b6134f3816145c6565b82525050565b61350a613505826145c6565b61470a565b82525050565b600061351b826144fb565b6135258185614511565b93506135358185602086016146bb565b61353e81614730565b840191505092915050565b6000613554826144fb565b61355e8185614522565b935061356e8185602086016146bb565b80840191505092915050565b6135838161463d565b82525050565b61359281614661565b82525050565b6135a181614685565b82525050565b60006135b282614506565b6135bc818561452d565b93506135cc8185602086016146bb565b6135d581614730565b840191505092915050565b60006135ed60268361452d565b91507f5061796d656e7452656769737472793a20696e76616c6964206465706f73697460008301527f2076616c756500000000000000000000000000000000000000000000000000006020830152604082019050919050565b6000613653601c8361453e565b91507f19457468657265756d205369676e6564204d6573736167653a0a3332000000006000830152601c82019050919050565b600061369360208361452d565b91507f477561726465643a2063616e6e6f74206164642030783020677561726469616e6000830152602082019050919050565b60006136d3602f8361452d565b91507f496e697469616c697a61626c653a2074782e6f726967696e206973206e6f742060008301527f74686520696e697469616c697a657200000000000000000000000000000000006020830152604082019050919050565b6000613739602f8361452d565b91507f5061796d656e7452656769737472793a206465706f736974206578697420616c60008301527f72656164792072657175657374656400000000000000000000000000000000006020830152604082019050919050565b600061379f60268361452d565b91507f5061796d656e7452656769737472793a20696e76616c6964207061796d656e7460008301527f2076616c756500000000000000000000000000000000000000000000000000006020830152604082019050919050565b600061380560228361452d565b91507f47617465776179526563697069656e743a20696e76616c6964206d73672e646160008301527f74610000000000000000000000000000000000000000000000000000000000006020830152604082019050919050565b600061386b602b8361452d565b91507f5061796d656e7452656769737472793a206465706f7369742065786974206e6f60008301527f74207265717565737465640000000000000000000000000000000000000000006020830152604082019050919050565b60006138d1602d8361452d565b91507f5061796d656e7452656769737472793a204552433230546f6b656e207472616e60008301527f73666572207265766572746564000000000000000000000000000000000000006020830152604082019050919050565b600061393760268361452d565b91507f477561726465643a2074782e6f726967696e206973206e6f742074686520677560008301527f61726469616e00000000000000000000000000000000000000000000000000006020830152604082019050919050565b600061399d601f8361452d565b91507f5061796d656e7452656769737472793a20696e76616c696420616d6f756e74006000830152602082019050919050565b60006139dd60248361452d565b91507f5061796d656e7452656769737472793a206465706f7369742065786974206c6f60008301527f636b6564000000000000000000000000000000000000000000000000000000006020830152604082019050919050565b6000613a4360278361452d565b91507f5061796d656e7452656769737472793a20696e76616c6964207769746864726160008301527f772076616c7565000000000000000000000000000000000000000000000000006020830152604082019050919050565b6000613aa960298361452d565b91507f5061796d656e7452656769737472793a20696e76616c69642073656e6465722060008301527f7369676e617475726500000000000000000000000000000000000000000000006020830152604082019050919050565b6000613b0f601f8361452d565b91507f477561726465643a20677561726469616e20646f65736e2774206578697374006000830152602082019050919050565b6000613b4f601e8361452d565b91507f536166654d6174684c69623a206164646974696f6e206f766572666c6f7700006000830152602082019050919050565b6000613b8f60208361452d565b91507f477561726465643a20677561726469616e20616c7265616479206578697374736000830152602082019050919050565b6000613bcf601b8361452d565b91507f477561726465643a2063616e6e6f742072656d6f76652073656c6600000000006000830152602082019050919050565b6000613c0f601d8361452d565b91507f42797465734c69623a20696e76616c69642064617461206c656e6774680000006000830152602082019050919050565b6000613c4f602b8361452d565b91507f5061796d656e7452656769737472793a20696e76616c6964206775617264696160008301527f6e207369676e61747572650000000000000000000000000000000000000000006020830152604082019050919050565b613cb181614614565b82525050565b613cc8613cc382614614565b614726565b82525050565b613cd78161461e565b82525050565b6000613ce982846134ad565b60148201915081905092915050565b6000613d0482876134ad565b601482019150613d1482866134ad565b601482019150613d2482856134ad565b601482019150613d3482846134f9565b60208201915081905095945050505050565b6000613d5282876134d3565b600182019150613d6282866134ad565b601482019150613d7282856134f9565b602082019150613d8282846134f9565b60208201915081905095945050505050565b6000613da082846134f9565b60208201915081905092915050565b6000613dba82613646565b9150613dc68284613549565b915081905092915050565b6000613ddd8287613cb7565b602082019150613ded82866134ad565b601482019150613dfd82856134f9565b602082019150613e0d8284613549565b915081905095945050505050565b6000602082019050613e30600083018461349e565b92915050565b6000602082019050613e4b600083018461348f565b92915050565b6000604082019050613e66600083018561348f565b613e73602083018461349e565b9392505050565b6000604082019050613e8f600083018561349e565b613e9c602083018461349e565b9392505050565b6000606082019050613eb8600083018661349e565b613ec5602083018561349e565b613ed2604083018461349e565b949350505050565b600060c082019050613eef600083018961349e565b613efc602083018861349e565b613f09604083018761349e565b613f1660608301866134ea565b613f236080830185613ca8565b613f3060a0830184613ca8565b979650505050505050565b6000608082019050613f50600083018761349e565b613f5d602083018661349e565b613f6a604083018561349e565b613f776060830184613ca8565b95945050505050565b6000606082019050613f95600083018661349e565b613fa2602083018561349e565b613faf6040830184613ca8565b949350505050565b6000606082019050613fcc600083018661349e565b613fd960208301856134ea565b613fe66040830184613ca8565b949350505050565b6000606082019050614003600083018661349e565b6140106020830185613598565b81810360408301526140228184613510565b9050949350505050565b6000604082019050614041600083018561349e565b61404e6020830184613ca8565b9392505050565b600060608201905061406a600083018661349e565b6140776020830185613ca8565b81810360408301526140898184613510565b9050949350505050565b60006020820190506140a860008301846134c4565b92915050565b60006020820190506140c360008301846134ea565b92915050565b600060c0820190506140de60008301896134ea565b6140eb602083018861349e565b6140f8604083018761349e565b614105606083018661349e565b61411260808301856134ea565b61411f60a0830184613ca8565b979650505050505050565b600060408201905061413f60008301856134ea565b61414c6020830184613ca8565b9392505050565b600060608201905061416860008301866134ea565b6141756020830185613ca8565b6141826040830184613ca8565b949350505050565b600060808201905061419f60008301876134ea565b6141ac6020830186613cce565b6141b960408301856134ea565b6141c660608301846134ea565b95945050505050565b60006020820190506141e4600083018461357a565b92915050565b60006020820190506141ff6000830184613589565b92915050565b6000602082019050818103600083015261421f81846135a7565b905092915050565b60006020820190508181036000830152614240816135e0565b9050919050565b6000602082019050818103600083015261426081613686565b9050919050565b60006020820190508181036000830152614280816136c6565b9050919050565b600060208201905081810360008301526142a08161372c565b9050919050565b600060208201905081810360008301526142c081613792565b9050919050565b600060208201905081810360008301526142e0816137f8565b9050919050565b600060208201905081810360008301526143008161385e565b9050919050565b60006020820190508181036000830152614320816138c4565b9050919050565b600060208201905081810360008301526143408161392a565b9050919050565b6000602082019050818103600083015261436081613990565b9050919050565b60006020820190508181036000830152614380816139d0565b9050919050565b600060208201905081810360008301526143a081613a36565b9050919050565b600060208201905081810360008301526143c081613a9c565b9050919050565b600060208201905081810360008301526143e081613b02565b9050919050565b6000602082019050818103600083015261440081613b42565b9050919050565b6000602082019050818103600083015261442081613b82565b9050919050565b6000602082019050818103600083015261444081613bc2565b9050919050565b6000602082019050818103600083015261446081613c02565b9050919050565b6000602082019050818103600083015261448081613c42565b9050919050565b600060208201905061449c6000830184613ca8565b92915050565b6000604051905081810181811067ffffffffffffffff821117156144c557600080fd5b8060405250919050565b600067ffffffffffffffff8211156144e657600080fd5b601f19601f8301169050602081019050919050565b600081519050919050565b600081519050919050565b600082825260208201905092915050565b600081905092915050565b600082825260208201905092915050565b600081905092915050565b6000808585111561455957600080fd5b8386111561456657600080fd5b6001850283019150848603905094509492505050565b6000614587826145f4565b9050919050565b60008115159050919050565b60007fff0000000000000000000000000000000000000000000000000000000000000082169050919050565b6000819050919050565b60006145db8261457c565b9050919050565b60006145ed8261457c565b9050919050565b600073ffffffffffffffffffffffffffffffffffffffff82169050919050565b6000819050919050565b600060ff82169050919050565b600061463682614697565b9050919050565b60006146488261464f565b9050919050565b600061465a826145f4565b9050919050565b600061466c82614673565b9050919050565b600061467e826145f4565b9050919050565b600061469082614614565b9050919050565b60006146a2826146a9565b9050919050565b60006146b4826145f4565b9050919050565b60005b838110156146d95780820151818401526020810190506146be565b838111156146e8576000848401525b50505050565b60006146f982614714565b9050919050565b6000819050919050565b6000819050919050565b600061471f82614741565b9050919050565b6000819050919050565b6000601f19601f8301169050919050565b60008160601b9050919050565b6147578161457c565b811461476257600080fd5b50565b61476e8161458e565b811461477957600080fd5b50565b614785816145c6565b811461479057600080fd5b50565b61479c816145d0565b81146147a757600080fd5b50565b6147b3816145e2565b81146147be57600080fd5b50565b6147ca81614614565b81146147d557600080fd5b5056fe6080604052336000806101000a81548173ffffffffffffffffffffffffffffffffffffffff021916908373ffffffffffffffffffffffffffffffffffffffff1602179055506103a4806100536000396000f3fe60806040526004361061002d5760003560e01c80633f579f4214610039578063f77c47911461016257610034565b3661003457005b600080fd5b34801561004557600080fd5b506100e76004803603606081101561005c57600080fd5b81019080803573ffffffffffffffffffffffffffffffffffffffff16906020019092919080359060200190929190803590602001906401000000008111156100a357600080fd5b8201836020820111156100b557600080fd5b803590602001918460018302840111640100000000831117156100d757600080fd5b90919293919293905050506101a3565b6040518080602001828103825283818151815260200191508051906020019080838360005b8381101561012757808201518184015260208101905061010c565b50505050905090810190601f1680156101545780820380516001836020036101000a031916815260200191505b509250505060405180910390f35b34801561016e57600080fd5b50610177610347565b604051808273ffffffffffffffffffffffffffffffffffffffff16815260200191505060405180910390f35b606060008054906101000a900473ffffffffffffffffffffffffffffffffffffffff1673ffffffffffffffffffffffffffffffffffffffff163373ffffffffffffffffffffffffffffffffffffffff1614610249576040517f08c379a000000000000000000000000000000000000000000000000000000000815260040180806020018281038252602c81526020018061036c602c913960400191505060405180910390fd5b606060008673ffffffffffffffffffffffffffffffffffffffff1686868660405180838380828437808301925050509250505060006040518083038185875af1925050503d80600081146102b9576040519150601f19603f3d011682016040523d82523d6000602084013e6102be565b606091505b5080935081925050508061033a576040517f08c379a000000000000000000000000000000000000000000000000000000000815260040180806020018281038252601d8152602001807f4163636f756e743a207472616e73616374696f6e20726576657274656400000081525060200191505060405180910390fd5b8192505050949350505050565b60008054906101000a900473ffffffffffffffffffffffffffffffffffffffff168156fe436f6e74726f6c6c65643a206d73672e73656e646572206973206e6f742074686520636f6e74726f6c6c6572a164736f6c634300060c000a536166654d6174684c69623a207375627472616374696f6e206f766572666c6f77a164736f6c634300060c000a",
  "linkReferences": {},
  "deployedLinkReferences": {}
}