{
  "_format": "hh-sol-artifact-1",
  "contractName": "PaymentRegistry",
  "sourceName": "src/payment/PaymentRegistry.sol",
  "abi": [
    {
      "inputs": [],
      "stateMutability": "nonpayable",
      "type": "constructor"
    },
    {
      "anonymous": false,
      "inputs": [
        {
          "indexed": false,
          "internalType": "address",
          "name": "depositAccount",
          "type": "address"
        },
        {
          "indexed": false,
          "internalType": "address",
          "name": "owner",
          "type": "address"
        }
      ],
      "name": "DepositAccountDeployed",
      "type": "event"
    },
    {
      "anonymous": false,
      "inputs": [
        {
          "indexed": false,
          "internalType": "address",
          "name": "depositAccount",
          "type": "address"
        },
        {
          "indexed": false,
          "internalType": "address",
          "name": "owner",
          "type": "address"
        },
        {
          "indexed": false,
          "internalType": "address",
          "name": "token",
          "type": "address"
        }
      ],
      "name": "DepositWithdrawalRejected",
      "type": "event"
    },
    {
      "anonymous": false,
      "inputs": [
        {
          "indexed": false,
          "internalType": "address",
          "name": "depositAccount",
          "type": "address"
        },
        {
          "indexed": false,
          "internalType": "address",
          "name": "owner",
          "type": "address"
        },
        {
          "indexed": false,
          "internalType": "address",
          "name": "token",
          "type": "address"
        },
        {
          "indexed": false,
          "internalType": "uint256",
          "name": "lockedUntil",
          "type": "uint256"
        }
      ],
      "name": "DepositWithdrawalRequested",
      "type": "event"
    },
    {
      "anonymous": false,
      "inputs": [
        {
          "indexed": false,
          "internalType": "address",
          "name": "depositAccount",
          "type": "address"
        },
        {
          "indexed": false,
          "internalType": "address",
          "name": "owner",
          "type": "address"
        },
        {
          "indexed": false,
          "internalType": "address",
          "name": "token",
          "type": "address"
        },
        {
          "indexed": false,
          "internalType": "uint256",
          "name": "amount",
          "type": "uint256"
        }
      ],
      "name": "DepositWithdrawn",
      "type": "event"
    },
    {
      "anonymous": false,
      "inputs": [
        {
          "indexed": false,
          "internalType": "address",
          "name": "guardian",
          "type": "address"
        }
      ],
      "name": "GuardianAdded",
      "type": "event"
    },
    {
      "anonymous": false,
      "inputs": [
        {
          "indexed": false,
          "internalType": "address",
          "name": "guardian",
          "type": "address"
        }
      ],
      "name": "GuardianRemoved",
      "type": "event"
    },
    {
      "anonymous": false,
      "inputs": [],
      "name": "Initialized",
      "type": "event"
    },
    {
      "anonymous": false,
      "inputs": [
        {
          "indexed": false,
          "internalType": "bytes32",
          "name": "hash",
          "type": "bytes32"
        },
        {
          "indexed": false,
          "internalType": "address",
          "name": "sender",
          "type": "address"
        },
        {
          "indexed": false,
          "internalType": "address",
          "name": "recipient",
          "type": "address"
        },
        {
          "indexed": false,
          "internalType": "address",
          "name": "token",
          "type": "address"
        },
        {
          "indexed": false,
          "internalType": "bytes32",
          "name": "uid",
          "type": "bytes32"
        },
        {
          "indexed": false,
          "internalType": "uint256",
          "name": "amount",
          "type": "uint256"
        }
      ],
      "name": "PaymentChannelCommitted",
      "type": "event"
    },
    {
      "anonymous": false,
      "inputs": [
        {
          "indexed": false,
          "internalType": "bytes32",
          "name": "channelHash",
          "type": "bytes32"
        },
        {
          "indexed": false,
          "internalType": "uint256",
          "name": "value",
          "type": "uint256"
        }
      ],
      "name": "PaymentDeposited",
      "type": "event"
    },
    {
      "anonymous": false,
      "inputs": [
        {
          "indexed": false,
          "internalType": "bytes32",
          "name": "channelHash",
          "type": "bytes32"
        },
        {
          "indexed": false,
          "internalType": "uint256",
          "name": "totalValue",
          "type": "uint256"
        },
        {
          "indexed": false,
          "internalType": "uint256",
          "name": "depositValue",
          "type": "uint256"
        }
      ],
      "name": "PaymentSplit",
      "type": "event"
    },
    {
      "anonymous": false,
      "inputs": [
        {
          "indexed": false,
          "internalType": "bytes32",
          "name": "channelHash",
          "type": "bytes32"
        },
        {
          "indexed": false,
          "internalType": "uint256",
          "name": "value",
          "type": "uint256"
        }
      ],
      "name": "PaymentWithdrawn",
      "type": "event"
    },
    {
      "inputs": [],
      "name": "accountOwnerRegistry",
      "outputs": [
        {
          "internalType": "contract AccountOwnerRegistry",
          "name": "",
          "type": "address"
        }
      ],
      "stateMutability": "view",
      "type": "function"
    },
    {
      "inputs": [],
      "name": "accountProofRegistry",
      "outputs": [
        {
          "internalType": "contract AccountProofRegistry",
          "name": "",
          "type": "address"
        }
      ],
      "stateMutability": "view",
      "type": "function"
    },
    {
      "inputs": [
        {
          "internalType": "address",
          "name": "guardian",
          "type": "address"
        }
      ],
      "name": "addGuardian",
      "outputs": [],
      "stateMutability": "nonpayable",
      "type": "function"
    },
    {
      "inputs": [
        {
          "internalType": "address",
          "name": "sender",
          "type": "address"
        },
        {
          "internalType": "address",
          "name": "token",
          "type": "address"
        },
        {
          "internalType": "bytes32",
          "name": "uid",
          "type": "bytes32"
        },
        {
          "internalType": "uint256",
          "name": "blockNumber",
          "type": "uint256"
        },
        {
          "internalType": "uint256",
          "name": "amount",
          "type": "uint256"
        },
        {
          "internalType": "bytes",
          "name": "senderSignature",
          "type": "bytes"
        },
        {
          "internalType": "bytes",
          "name": "guardianSignature",
          "type": "bytes"
        }
      ],
      "name": "commitPaymentChannelAndDeposit",
      "outputs": [],
      "stateMutability": "nonpayable",
      "type": "function"
    },
    {
      "inputs": [
        {
          "internalType": "address",
          "name": "sender",
          "type": "address"
        },
        {
          "internalType": "address",
          "name": "token",
          "type": "address"
        },
        {
          "internalType": "bytes32",
          "name": "uid",
          "type": "bytes32"
        },
        {
          "internalType": "uint256",
          "name": "blockNumber",
          "type": "uint256"
        },
        {
          "internalType": "uint256",
          "name": "amount",
          "type": "uint256"
        },
        {
          "internalType": "uint256",
          "name": "depositPaymentValue",
          "type": "uint256"
        },
        {
          "internalType": "bytes",
          "name": "senderSignature",
          "type": "bytes"
        },
        {
          "internalType": "bytes",
          "name": "guardianSignature",
          "type": "bytes"
        }
      ],
      "name": "commitPaymentChannelAndSplit",
      "outputs": [],
      "stateMutability": "nonpayable",
      "type": "function"
    },
    {
      "inputs": [
        {
          "internalType": "address",
          "name": "sender",
          "type": "address"
        },
        {
          "internalType": "address",
          "name": "token",
          "type": "address"
        },
        {
          "internalType": "bytes32",
          "name": "uid",
          "type": "bytes32"
        },
        {
          "internalType": "uint256",
          "name": "blockNumber",
          "type": "uint256"
        },
        {
          "internalType": "uint256",
          "name": "amount",
          "type": "uint256"
        },
        {
          "internalType": "bytes",
          "name": "senderSignature",
          "type": "bytes"
        },
        {
          "internalType": "bytes",
          "name": "guardianSignature",
          "type": "bytes"
        }
      ],
      "name": "commitPaymentChannelAndWithdraw",
      "outputs": [],
      "stateMutability": "nonpayable",
      "type": "function"
    },
    {
      "inputs": [
        {
          "internalType": "address",
          "name": "owner",
          "type": "address"
        }
      ],
      "name": "computeDepositAccountAddress",
      "outputs": [
        {
          "internalType": "address",
          "name": "",
          "type": "address"
        }
      ],
      "stateMutability": "view",
      "type": "function"
    },
    {
      "inputs": [
        {
          "internalType": "address",
          "name": "sender",
          "type": "address"
        },
        {
          "internalType": "address",
          "name": "recipient",
          "type": "address"
        },
        {
          "internalType": "address",
          "name": "token",
          "type": "address"
        },
        {
          "internalType": "bytes32",
          "name": "uid",
          "type": "bytes32"
        }
      ],
      "name": "computePaymentChannelHash",
      "outputs": [
        {
          "internalType": "bytes32",
          "name": "",
          "type": "bytes32"
        }
      ],
      "stateMutability": "pure",
      "type": "function"
    },
    {
      "inputs": [
        {
          "internalType": "address",
          "name": "owner",
          "type": "address"
        }
      ],
      "name": "deployDepositAccount",
      "outputs": [],
      "stateMutability": "nonpayable",
      "type": "function"
    },
    {
      "inputs": [],
      "name": "depositWithdrawalLockPeriod",
      "outputs": [
        {
          "internalType": "uint256",
          "name": "",
          "type": "uint256"
        }
      ],
      "stateMutability": "view",
      "type": "function"
    },
    {
      "inputs": [],
      "name": "gateway",
      "outputs": [
        {
          "internalType": "address",
          "name": "",
          "type": "address"
        }
      ],
      "stateMutability": "view",
      "type": "function"
    },
    {
      "inputs": [
        {
          "internalType": "address",
          "name": "owner",
          "type": "address"
        },
        {
          "internalType": "address",
          "name": "token",
          "type": "address"
        }
      ],
      "name": "getDepositWithdrawalLockedUntil",
      "outputs": [
        {
          "internalType": "uint256",
          "name": "",
          "type": "uint256"
        }
      ],
      "stateMutability": "view",
      "type": "function"
    },
    {
      "inputs": [
        {
          "internalType": "bytes32",
          "name": "hash",
          "type": "bytes32"
        }
      ],
      "name": "getPaymentChannelCommittedAmount",
      "outputs": [
        {
          "internalType": "uint256",
          "name": "",
          "type": "uint256"
        }
      ],
      "stateMutability": "view",
      "type": "function"
    },
    {
      "inputs": [
        {
          "components": [
            {
              "internalType": "address",
              "name": "sender",
              "type": "address"
            },
            {
              "internalType": "address",
              "name": "recipient",
              "type": "address"
            },
            {
              "internalType": "address",
              "name": "token",
              "type": "address"
            },
            {
              "internalType": "bytes32",
              "name": "uid",
              "type": "bytes32"
            },
            {
              "internalType": "uint256",
              "name": "blockNumber",
              "type": "uint256"
            },
            {
              "internalType": "uint256",
              "name": "amount",
              "type": "uint256"
            }
          ],
          "internalType": "struct PaymentRegistry.PaymentChannelCommit",
          "name": "paymentChannelCommit",
          "type": "tuple"
        }
      ],
      "name": "hashPaymentChannelCommit",
      "outputs": [
        {
          "internalType": "bytes32",
          "name": "",
          "type": "bytes32"
        }
      ],
      "stateMutability": "view",
      "type": "function"
    },
    {
      "inputs": [
        {
          "internalType": "contract AccountOwnerRegistry",
          "name": "accountOwnerRegistry_",
          "type": "address"
        },
        {
          "internalType": "contract AccountProofRegistry",
          "name": "accountProofRegistry_",
          "type": "address"
        },
        {
          "internalType": "contract PersonalAccountRegistry",
          "name": "personalAccountRegistry_",
          "type": "address"
        },
        {
          "internalType": "uint256",
          "name": "depositWithdrawalLockPeriod_",
          "type": "uint256"
        },
        {
          "internalType": "address[]",
          "name": "guardians_",
          "type": "address[]"
        },
        {
          "internalType": "address",
          "name": "gateway_",
          "type": "address"
        },
        {
          "internalType": "bytes32",
          "name": "typedDataDomainNameHash",
          "type": "bytes32"
        },
        {
          "internalType": "bytes32",
          "name": "typedDataDomainVersionHash",
          "type": "bytes32"
        },
        {
          "internalType": "bytes32",
          "name": "typedDataDomainSalt",
          "type": "bytes32"
        }
      ],
      "name": "initialize",
      "outputs": [],
      "stateMutability": "nonpayable",
      "type": "function"
    },
    {
      "inputs": [
        {
          "internalType": "address",
          "name": "owner",
          "type": "address"
        }
      ],
      "name": "isDepositAccountDeployed",
      "outputs": [
        {
          "internalType": "bool",
          "name": "",
          "type": "bool"
        }
      ],
      "stateMutability": "view",
      "type": "function"
    },
    {
      "inputs": [
        {
          "internalType": "address",
          "name": "guardian",
          "type": "address"
        }
      ],
      "name": "isGuardian",
      "outputs": [
        {
          "internalType": "bool",
          "name": "",
          "type": "bool"
        }
      ],
      "stateMutability": "view",
      "type": "function"
    },
    {
      "inputs": [],
      "name": "isInitialized",
      "outputs": [
        {
          "internalType": "bool",
          "name": "",
          "type": "bool"
        }
      ],
      "stateMutability": "view",
      "type": "function"
    },
    {
      "inputs": [],
      "name": "personalAccountRegistry",
      "outputs": [
        {
          "internalType": "contract PersonalAccountRegistry",
          "name": "",
          "type": "address"
        }
      ],
      "stateMutability": "view",
      "type": "function"
    },
    {
      "inputs": [
        {
          "internalType": "address",
          "name": "guardian",
          "type": "address"
        }
      ],
      "name": "removeGuardian",
      "outputs": [],
      "stateMutability": "nonpayable",
      "type": "function"
    },
    {
      "inputs": [],
      "name": "typedDataDomainSeparator",
      "outputs": [
        {
          "internalType": "bytes32",
          "name": "",
          "type": "bytes32"
        }
      ],
      "stateMutability": "view",
      "type": "function"
    },
    {
      "inputs": [
        {
          "internalType": "bytes32",
          "name": "messageHash",
          "type": "bytes32"
        },
        {
          "internalType": "bytes",
          "name": "signature",
          "type": "bytes"
        }
      ],
      "name": "verifyGuardianSignature",
      "outputs": [
        {
          "internalType": "bool",
          "name": "",
          "type": "bool"
        }
      ],
      "stateMutability": "view",
      "type": "function"
    },
    {
      "inputs": [
        {
          "internalType": "address",
          "name": "token",
          "type": "address"
        }
      ],
      "name": "withdrawDeposit",
      "outputs": [],
      "stateMutability": "nonpayable",
      "type": "function"
    }
  ],
  "bytecode": "0x608060405234801561001057600080fd5b50600180546001600160a01b0319163317905561231a806100326000396000f3fe608060405234801561001057600080fd5b506004361061018d5760003560e01c806371404156116100e3578063bd106a021161008c578063df04338011610066578063df043380146102fe578063e372b55f14610311578063ffcdce31146103195761018d565b8063bd106a02146102d0578063d0f710d6146102d8578063da1b213d146102eb5761018d565b80638a1773ab116100bd5780638a1773ab146102975780639a85fae2146102aa578063a526d83b146102bd5761018d565b8063714041561461026957806384389a2b1461027c57806387d313131461028f5761018d565b8063392e53cd1161014557806360bf4df21161011f57806360bf4df2146102305780636121fcfc146102435780636524a947146102565761018d565b8063392e53cd1461020d57806351e4170014610215578063525fb194146102285761018d565b80632361a7b2116101765780632361a7b2146101d05780632e4f161e146101e557806333315deb146102055761018d565b80630c68ba2114610192578063116191b6146101bb575b600080fd5b6101a56101a0366004611820565b61032c565b6040516101b29190611ea3565b60405180910390f35b6101c361034a565b6040516101b29190611d80565b6101e36101de366004611b3f565b610359565b005b6101f86101f3366004611874565b61045d565b6040516101b29190611eae565b6101c3610474565b6101a5610483565b6101e3610223366004611820565b610493565b6101f86106aa565b6101c361023e366004611820565b6106b0565b6101a5610251366004611820565b6106c1565b6101e3610264366004611820565b6106e1565b6101e3610277366004611820565b6106ed565b6101f861028a366004611c20565b61079f565b6101c36107cf565b6101f86102a5366004611a51565b6107de565b6101e36102b83660046118c4565b6107f0565b6101e36102cb366004611820565b6108ed565b6101f8610912565b6101a56102e6366004611a69565b610918565b6101e36102f9366004611975565b610962565b6101e361030c3660046118c4565b610a5b565b6101c3610b39565b6101f861032736600461183c565b610b48565b6001600160a01b031660009081526020819052604090205460ff1690565b6003546001600160a01b031681565b6001546001600160a01b0316331461037057600080fd5b6001805473ffffffffffffffffffffffffffffffffffffffff199081169091556004805482166001600160a01b038d8116919091179091556005805483168c831617905560068054909216908a16179055866103d25762278d006007556103d8565b60078790555b610414868680806020026020016040519081016040528093929190818152602001838360200280828437600092019190915250610b7792505050565b61041d84610bcd565b610428838383610bfc565b6040517f5daa87a0e9463431830481fd4b6e3403442dfb9a12b9c07597e9f61d50b633c890600090a150505050505050505050565b600061046b85858585610c5a565b95945050505050565b6005546001600160a01b031681565b6001546001600160a01b03161590565b600061049d610c93565b6001600160a01b038082166000908152600860209081526040808320938716835260019093019052205490915080158015906104d95750428111155b15610616576001600160a01b0380831660008181526008602081815260408084208987168086526001820184529185208590559484529190529154909216919061052e57506001600160a01b038116316105c6565b6040517f70a082310000000000000000000000000000000000000000000000000000000081526001600160a01b038616906370a0823190610573908590600401611d80565b60206040518083038186803b15801561058b57600080fd5b505afa15801561059f573d6000803e3d6000fd5b505050506040513d601f19601f820116820180604052508101906105c39190611c98565b90505b6105d282858784610ca4565b7f95f66b073d65f18e43f6b76c7ab8557787f5f766d86cab7c9c76f41be9f8abc6828587846040516106079493929190611dd1565b60405180910390a150506106a5565b61061f82610d8d565b60075461062d904290610e5b565b6001600160a01b0380841660008181526008602081815260408084208a871685526001810183528185208890559490935252905490519293507f87c4cea7402ca14762efb564287f850e007a236145a58b3962c1c5cbfa1850769261069c929190911690859087908690611dd1565b60405180910390a15b505050565b60075481565b60006106bb82610e74565b92915050565b6001600160a01b0390811660009081526008602052604090205416151590565b6106ea81610d8d565b50565b3360009081526020819052604090205460ff1661070957600080fd5b336001600160a01b038216141561071f57600080fd5b6001600160a01b03811660009081526020819052604090205460ff1661074457600080fd5b6001600160a01b03811660009081526020819052604090819020805460ff19169055517fb8107d0c6b40be480ce3172ee66ba6d64b71f6b1685a851340036e6e2e3e3c5290610794908390611d80565b60405180910390a150565b60006106bb6107ca836000015184602001518560400151866060015187608001518860a00151610ea9565b610f0a565b6006546001600160a01b031681565b60009081526009602052604090205490565b60006107fa610c93565b9050600080600061088b8d858e8e8e8e8e8e8080601f016020809104026020016040519081016040528093929190818152602001838380828437600081840152601f19601f820116905080830192505050505050508d8d8080601f016020809104026020016040519081016040528093929190818152602001838380828437600092019190915250610f7592505050565b9250925092506108a58261089e86610e74565b8e84610ca4565b7f771bc0494e1a2fcbef19a8762845000d8c4500454c756a7370c955e39ed60fd483826040516108d6929190611f5c565b60405180910390a150505050505050505050505050565b3360009081526020819052604090205460ff1661090957600080fd5b6106ea816113a1565b60025481565b600061095a8484848080601f01602080910402602001604051908101604052809392919081815260200183838082843760009201919091525061142d92505050565b949350505050565b600061096c610c93565b905060008060006109fd8e858f8f8f8f8e8e8080601f016020809104026020016040519081016040528093929190818152602001838380828437600081840152601f19601f820116905080830192505050505050508d8d8080601f016020809104026020016040519081016040528093929190818152602001838380828437600092019190915250610f7592505050565b925092509250610a1082858f848d61145d565b7f8b67efde501ee9cd0e771f7436554c44a5c076239ff3a6fbb397646a4689c0f283828b604051610a4393929190611f6a565b60405180910390a15050505050505050505050505050565b6000610a65610c93565b90506000806000610af68d858e8e8e8e8e8e8080601f016020809104026020016040519081016040528093929190818152602001838380828437600081840152601f19601f820116905080830192505050505050508d8d8080601f016020809104026020016040519081016040528093929190818152602001838380828437600092019190915250610f7592505050565b925092509250610b0882858e84610ca4565b7f6675346cd43846f7d47c310d39fb5c15bc7db66b3770338cdf1f133613a5ae9883826040516108d6929190611f5c565b6004546001600160a01b031681565b6001600160a01b0391821660009081526008602090815260408083209390941682526001909201909152205490565b8051610b9c57336000908152602081905260409020805460ff191660011790556106ea565b805160005b818110156106a557610bc5838281518110610bb857fe5b60200260200101516113a1565b600101610ba1565b6003805473ffffffffffffffffffffffffffffffffffffffff19166001600160a01b0392909216919091179055565b6040514690610c39907fd87cd6ef79d4e2b95e15ce8abf732db51ec771f1ca2edccf22a46c729ac564729086908690859030908890602001611f2b565b60408051601f19818403018152919052805160209091012060025550505050565b600084848484604051602001610c739493929190611ccd565b604051602081830303815290604052805190602001209050949350505050565b6000610c9f60286114ad565b905090565b6001600160a01b038216610cd657604080516000815260208101909152610cd090859085908490611522565b50610d87565b6060610d5e8584600063a9059cbb60e01b8887604051602401610cfa929190611e40565b60408051601f198184030181529190526020810180517bffffffffffffffffffffffffffffffffffffffffffffffffffffffff167fffffffff0000000000000000000000000000000000000000000000000000000090931692909217909152611522565b805190915015610d855780806020019051810190610d7c9190611a31565b610d8557600080fd5b505b50505050565b6001600160a01b03818116600090815260086020526040902054166106ea57600081604051602001610dbf9190611cb0565b604051602081830303815290604052805190602001209050610de08161160b565b6001600160a01b0383811660009081526008602052604090819020805473ffffffffffffffffffffffffffffffffffffffff19169383169390931792839055517fd80572c0f2f24f2d9d726d831bd860ed82b12bafaf01cfb6e4d38fb23c4347e992610e4f9216908590611d94565b60405180910390a15050565b600082820183811015610e6d57600080fd5b9392505050565b60008082604051602001610e889190611cb0565b604051602081830303815290604052805190602001209050610e6d81611641565b60007f745089e29f2abf28f618236a5dc04d214ac05ead3440ba532b69e9d160ba2e72878787878787604051602001610ee89796959493929190611eec565b6040516020818303038152906040528051906020012090509695505050505050565b60006040518060400160405280600281526020017f190100000000000000000000000000000000000000000000000000000000000081525060025483604051602001610f5893929190611d59565b604051602081830303815290604052805190602001209050919050565b600080600080610f8c6107ca8d8d8d8d8d8d610ea9565b9050855160001415611043576005546040517f59b52ef80000000000000000000000000000000000000000000000000000000081526001600160a01b03909116906359b52ef890610fe5908f9085908d90600401611e1f565b60206040518083038186803b158015610ffd57600080fd5b505afa158015611011573d6000803e3d6000fd5b505050506040513d601f19601f820116820180604052508101906110359190611a31565b61103e57600080fd5b6111a5565b600061104f82886116af565b9050806001600160a01b03168d6001600160a01b0316146111a357600660009054906101000a90046001600160a01b03166001600160a01b03166334d323a48e838c6040518463ffffffff1660e01b81526004016110af93929190611dfb565b60206040518083038186803b1580156110c757600080fd5b505afa1580156110db573d6000803e3d6000fd5b505050506040513d601f19601f820116820180604052508101906110ff9190611a31565b8061119a5750600460009054906101000a90046001600160a01b03166001600160a01b03166334d323a48e838c6040518463ffffffff1660e01b815260040161114a93929190611dfb565b60206040518083038186803b15801561116257600080fd5b505afa158015611176573d6000803e3d6000fd5b505050506040513d601f19601f8201168201806040525081019061119a9190611a31565b6111a357600080fd5b505b6111af818661142d565b6111b857600080fd5b6111c48c8c8c8c610c5a565b6000818152600960205260409020549094506111e1908890611754565b9150816111ed57600080fd5b8660096000868152602001908152602001600020600001819055506000600860008e6001600160a01b03166001600160a01b0316815260200190815260200160002060010160008c6001600160a01b03166001600160a01b03168152602001908152602001600020541115611328576000600860008e6001600160a01b03166001600160a01b0316815260200190815260200160002060010160008c6001600160a01b03166001600160a01b03168152602001908152602001600020819055507f70a8adc5857fa7647cae18853809fcd84d03b8a6ab9cf7e8ba709b775897b617600860008e6001600160a01b03166001600160a01b0316815260200190815260200160002060000160009054906101000a90046001600160a01b03168d8c60405161131b93929190611dae565b60405180910390a1611331565b6113318c610d8d565b6001600160a01b03808d1660009081526008602052604090819020549051911693507f0d1cb77d1fe491f98926195d0b885509da18bc305dd1489f45610237d971ed469061138a9086908f908f908f908f908e90611eb7565b60405180910390a150985098509895505050505050565b6001600160a01b0381166113b457600080fd5b6001600160a01b03811660009081526020819052604090205460ff16156113da57600080fd5b6001600160a01b03811660009081526020819052604090819020805460ff19166001179055517f038596bb31e2e7d3d9f184d4c98b310103f6d7f5830e5eec32bffe6f1728f96990610794908390611d80565b60008061143a84846116af565b6001600160a01b031660009081526020819052604090205460ff16949350505050565b6000811161146a57600080fd5b60006114768383611754565b90506000811161148557600080fd5b61149186868684610ca4565b6114a58661149e87610e74565b8685610ca4565b505050505050565b6000806114b8611769565b1561151a573683810390611512906114d890601484019084906000611fc5565b8080601f01602080910402602001604051908101604052809392919081815260200183838082843760009201919091525061179792505050565b9150506106bb565b503392915050565b60606001600160a01b03841661153757600080fd5b6001600160a01b03841630141561154d57600080fd5b846001600160a01b0316846001600160a01b0316141561156c57600080fd5b6040517f3f579f420000000000000000000000000000000000000000000000000000000081526001600160a01b03861690633f579f42906115b590879087908790600401611e59565b600060405180830381600087803b1580156115cf57600080fd5b505af11580156115e3573d6000803e3d6000fd5b505050506040513d6000823e601f3d908101601f1916820160405261046b9190810190611ab3565b60008160405161161a906117c1565b8190604051809103906000f590508015801561163a573d6000803e3d6000fd5b5092915050565b6000606060405180602001611655906117c1565b6020820181038252601f19601f820116604052509050600060ff60f81b3085848051906020012060405160200161168f9493929190611d08565b60408051808303601f190181529190528051602090910120949350505050565b8051600090819060411415610e6d5760208301516040840151606085015160001a601b8110156116dd57601b015b8060ff16601b14806116f257508060ff16601c145b15611749576001878285856040516000815260200160405260405161171a9493929190611f80565b6020604051602081039080840390855afa15801561173c573d6000803e3d6000fd5b5050506020604051035193505b505050905092915050565b60008282111561176357600080fd5b50900390565b60035460009081906001600160a01b0316331415610c9f57602c36101561178f57600080fd5b506001905090565b60008082516014146117a857600080fd5b5050602001516c01000000000000000000000000900490565b6102b68061202f83390190565b80356106bb81612019565b60008083601f8401126117ea578182fd5b50813567ffffffffffffffff811115611801578182fd5b60208301915083602082850101111561181957600080fd5b9250929050565b600060208284031215611831578081fd5b8135610e6d81612019565b6000806040838503121561184e578081fd5b823561185981612019565b9150602083013561186981612019565b809150509250929050565b60008060008060808587031215611889578182fd5b843561189481612019565b935060208501356118a481612019565b925060408501356118b481612019565b9396929550929360600135925050565b600080600080600080600080600060e08a8c0312156118e1578485fd5b89356118ec81612019565b985060208a01356118fc81612019565b975060408a0135965060608a0135955060808a0135945060a08a013567ffffffffffffffff8082111561192d578586fd5b6119398d838e016117d9565b909650945060c08c0135915080821115611951578384fd5b5061195e8c828d016117d9565b915080935050809150509295985092959850929598565b6000806000806000806000806000806101008b8d031215611994578081fd5b8a3561199f81612019565b995060208b01356119af81612019565b985060408b0135975060608b0135965060808b0135955060a08b0135945060c08b013567ffffffffffffffff808211156119e7578283fd5b6119f38e838f016117d9565b909650945060e08d0135915080821115611a0b578283fd5b50611a188d828e016117d9565b915080935050809150509295989b9194979a5092959850565b600060208284031215611a42578081fd5b81518015158114610e6d578182fd5b600060208284031215611a62578081fd5b5035919050565b600080600060408486031215611a7d578283fd5b83359250602084013567ffffffffffffffff811115611a9a578283fd5b611aa6868287016117d9565b9497909650939450505050565b600060208284031215611ac4578081fd5b815167ffffffffffffffff80821115611adb578283fd5b818401915084601f830112611aee578283fd5b815181811115611afc578384fd5b611b0f6020601f19601f84011601611f9e565b9150808252856020828501011115611b25578384fd5b611b36816020840160208601611fed565b50949350505050565b6000806000806000806000806000806101208b8d031215611b5e578384fd5b8a35611b6981612019565b995060208b0135611b7981612019565b985060408b0135611b8981612019565b975060608b0135965060808b013567ffffffffffffffff80821115611bac578586fd5b818d0191508d601f830112611bbf578586fd5b813581811115611bcd578687fd5b8e60208083028501011115611be0578687fd5b602083019850809750505050611bf98c60a08d016117ce565b935060c08b0135925060e08b013591506101008b013590509295989b9194979a5092959850565b600060c08284031215611c31578081fd5b611c3b60c0611f9e565b8235611c4681612019565b81526020830135611c5681612019565b60208201526040830135611c6981612019565b80604083015250606083013560608201526080830135608082015260a083013560a08201528091505092915050565b600060208284031215611ca9578081fd5b5051919050565b60609190911b6bffffffffffffffffffffffff1916815260140190565b6bffffffffffffffffffffffff19606095861b8116825293851b841660148201529190931b9091166028820152603c810191909152605c0190565b7fff0000000000000000000000000000000000000000000000000000000000000094909416845260609290921b6bffffffffffffffffffffffff191660018401526015830152603582015260550190565b60008451611d6b818460208901611fed565b91909101928352506020820152604001919050565b6001600160a01b0391909116815260200190565b6001600160a01b0392831681529116602082015260400190565b6001600160a01b0393841681529183166020830152909116604082015260600190565b6001600160a01b039485168152928416602084015292166040820152606081019190915260800190565b6001600160a01b039384168152919092166020820152604081019190915260600190565b6001600160a01b039390931683526020830191909152604082015260600190565b6001600160a01b03929092168252602082015260400190565b60006001600160a01b0385168252836020830152606060408301528251806060840152611e8d816080850160208701611fed565b601f01601f191691909101608001949350505050565b901515815260200190565b90815260200190565b9586526001600160a01b039485166020870152928416604086015292166060840152608083019190915260a082015260c00190565b9687526001600160a01b0395861660208801529385166040870152919093166060850152608084019290925260a083019190915260c082015260e00190565b9586526020860194909452604085019290925260608401526001600160a01b0316608083015260a082015260c00190565b918252602082015260400190565b9283526020830191909152604082015260600190565b93845260ff9290921660208401526040830152606082015260800190565b60405181810167ffffffffffffffff81118282101715611fbd57600080fd5b604052919050565b60008085851115611fd4578182fd5b83861115611fe0578182fd5b5050820193919092039150565b60005b83811015612008578181015183820152602001611ff0565b83811115610d875750506000910152565b6001600160a01b03811681146106ea57600080fdfe6080604052600080546001600160a01b03191633179055610291806100256000396000f3fe60806040526004361061002d5760003560e01c80633f579f4214610039578063f77c47911461014d57610034565b3661003457005b600080fd5b34801561004557600080fd5b506100d86004803603606081101561005c57600080fd5b73ffffffffffffffffffffffffffffffffffffffff8235169160208101359181019060608101604082013564010000000081111561009957600080fd5b8201836020820111156100ab57600080fd5b803590602001918460018302840111640100000000831117156100cd57600080fd5b50909250905061018b565b6040805160208082528351818301528351919283929083019185019080838360005b838110156101125781810151838201526020016100fa565b50505050905090810190601f16801561013f5780820380516001836020036101000a031916815260200191505b509250505060405180910390f35b34801561015957600080fd5b5061016261023f565b6040805173ffffffffffffffffffffffffffffffffffffffff9092168252519081900360200190f35b60005460609073ffffffffffffffffffffffffffffffffffffffff1633146101b257600080fd5b606060008673ffffffffffffffffffffffffffffffffffffffff16868686604051808383808284376040519201945060009350909150508083038185875af1925050503d8060008114610221576040519150601f19603f3d011682016040523d82523d6000602084013e610226565b606091505b50925090508061023557600080fd5b5095945050505050565b60005473ffffffffffffffffffffffffffffffffffffffff168156fea2646970667358221220387b210b7074c6be7f3199d3be7aac69d43cb8f8667ac52866d1a9f1323c390e64736f6c634300060c0033a26469706673582212200d011db07f930398377ec9d43bf9616089e981bf30a899b8b357c285f659741364736f6c634300060c0033",
  "linkReferences": {},
  "deployedLinkReferences": {}
}