{
  "_format": "hh-sol-artifact-1",
  "contractName": "PaymentRegistry",
  "sourceName": "src/payments/PaymentRegistry.sol",
  "abi": [
    {
      "inputs": [],
      "stateMutability": "nonpayable",
      "type": "constructor"
    },
    {
      "anonymous": false,
      "inputs": [
        {
          "indexed": false,
          "internalType": "address",
          "name": "depositAccount",
          "type": "address"
        },
        {
          "indexed": false,
          "internalType": "address",
          "name": "owner",
          "type": "address"
        }
      ],
      "name": "DepositAccountDeployed",
      "type": "event"
    },
    {
      "anonymous": false,
      "inputs": [
        {
          "indexed": false,
          "internalType": "address",
          "name": "depositAccount",
          "type": "address"
        },
        {
          "indexed": false,
          "internalType": "address",
          "name": "owner",
          "type": "address"
        },
        {
          "indexed": false,
          "internalType": "address",
          "name": "token",
          "type": "address"
        },
        {
          "indexed": false,
          "internalType": "uint256",
          "name": "amount",
          "type": "uint256"
        }
      ],
      "name": "DepositExitCompleted",
      "type": "event"
    },
    {
      "anonymous": false,
      "inputs": [
        {
          "indexed": false,
          "internalType": "address",
          "name": "depositAccount",
          "type": "address"
        },
        {
          "indexed": false,
          "internalType": "address",
          "name": "owner",
          "type": "address"
        },
        {
          "indexed": false,
          "internalType": "address",
          "name": "token",
          "type": "address"
        }
      ],
      "name": "DepositExitRejected",
      "type": "event"
    },
    {
      "anonymous": false,
      "inputs": [
        {
          "indexed": false,
          "internalType": "address",
          "name": "depositAccount",
          "type": "address"
        },
        {
          "indexed": false,
          "internalType": "address",
          "name": "owner",
          "type": "address"
        },
        {
          "indexed": false,
          "internalType": "address",
          "name": "token",
          "type": "address"
        },
        {
          "indexed": false,
          "internalType": "uint256",
          "name": "lockedUntil",
          "type": "uint256"
        }
      ],
      "name": "DepositExitRequested",
      "type": "event"
    },
    {
      "anonymous": false,
      "inputs": [
        {
          "indexed": false,
          "internalType": "address",
          "name": "depositAccount",
          "type": "address"
        },
        {
          "indexed": false,
          "internalType": "address",
          "name": "owner",
          "type": "address"
        },
        {
          "indexed": false,
          "internalType": "address",
          "name": "token",
          "type": "address"
        },
        {
          "indexed": false,
          "internalType": "uint256",
          "name": "amount",
          "type": "uint256"
        }
      ],
      "name": "DepositWithdrawn",
      "type": "event"
    },
    {
      "anonymous": false,
      "inputs": [
        {
          "indexed": false,
          "internalType": "address",
          "name": "sender",
          "type": "address"
        },
        {
          "indexed": false,
          "internalType": "address",
          "name": "guardian",
          "type": "address"
        }
      ],
      "name": "GuardianAdded",
      "type": "event"
    },
    {
      "anonymous": false,
      "inputs": [
        {
          "indexed": false,
          "internalType": "address",
          "name": "sender",
          "type": "address"
        },
        {
          "indexed": false,
          "internalType": "address",
          "name": "guardian",
          "type": "address"
        }
      ],
      "name": "GuardianRemoved",
      "type": "event"
    },
    {
      "anonymous": false,
      "inputs": [
        {
          "indexed": false,
          "internalType": "address",
          "name": "initializer",
          "type": "address"
        }
      ],
      "name": "Initialized",
      "type": "event"
    },
    {
      "anonymous": false,
      "inputs": [
        {
          "indexed": false,
          "internalType": "bytes32",
          "name": "hash",
          "type": "bytes32"
        },
        {
          "indexed": false,
          "internalType": "address",
          "name": "sender",
          "type": "address"
        },
        {
          "indexed": false,
          "internalType": "address",
          "name": "recipient",
          "type": "address"
        },
        {
          "indexed": false,
          "internalType": "address",
          "name": "token",
          "type": "address"
        },
        {
          "indexed": false,
          "internalType": "bytes32",
          "name": "uid",
          "type": "bytes32"
        },
        {
          "indexed": false,
          "internalType": "uint256",
          "name": "amount",
          "type": "uint256"
        }
      ],
      "name": "PaymentChannelCommitted",
      "type": "event"
    },
    {
      "anonymous": false,
      "inputs": [
        {
          "indexed": false,
          "internalType": "bytes32",
          "name": "channelHash",
          "type": "bytes32"
        },
        {
          "indexed": false,
          "internalType": "uint256",
          "name": "value",
          "type": "uint256"
        }
      ],
      "name": "PaymentDeposited",
      "type": "event"
    },
    {
      "anonymous": false,
      "inputs": [
        {
          "indexed": false,
          "internalType": "bytes32",
          "name": "channelHash",
          "type": "bytes32"
        },
        {
          "indexed": false,
          "internalType": "uint256",
          "name": "totalValue",
          "type": "uint256"
        },
        {
          "indexed": false,
          "internalType": "uint256",
          "name": "depositValue",
          "type": "uint256"
        }
      ],
      "name": "PaymentSplit",
      "type": "event"
    },
    {
      "anonymous": false,
      "inputs": [
        {
          "indexed": false,
          "internalType": "bytes32",
          "name": "channelHash",
          "type": "bytes32"
        },
        {
          "indexed": false,
          "internalType": "uint256",
          "name": "value",
          "type": "uint256"
        }
      ],
      "name": "PaymentWithdrawn",
      "type": "event"
    },
    {
      "inputs": [
        {
          "internalType": "address",
          "name": "guardian",
          "type": "address"
        }
      ],
      "name": "addGuardian",
      "outputs": [],
      "stateMutability": "nonpayable",
      "type": "function"
    },
    {
      "inputs": [
        {
          "internalType": "bytes8",
          "name": "c__0ffe16b4",
          "type": "bytes8"
        }
      ],
      "name": "c_0ffe16b4",
      "outputs": [],
      "stateMutability": "pure",
      "type": "function"
    },
    {
      "inputs": [
        {
          "internalType": "bytes8",
          "name": "c__1b54acf3",
          "type": "bytes8"
        }
      ],
      "name": "c_1b54acf3",
      "outputs": [],
      "stateMutability": "pure",
      "type": "function"
    },
    {
      "inputs": [
        {
          "internalType": "bytes8",
          "name": "c__3029712e",
          "type": "bytes8"
        }
      ],
      "name": "c_3029712e",
      "outputs": [],
      "stateMutability": "pure",
      "type": "function"
    },
    {
      "inputs": [
        {
          "internalType": "bytes8",
          "name": "c__c0828b70",
          "type": "bytes8"
        }
      ],
      "name": "c_c0828b70",
      "outputs": [],
      "stateMutability": "pure",
      "type": "function"
    },
    {
      "inputs": [
        {
          "internalType": "bytes8",
          "name": "c__d5c463c2",
          "type": "bytes8"
        }
      ],
      "name": "c_d5c463c2",
      "outputs": [],
      "stateMutability": "pure",
      "type": "function"
    },
    {
      "inputs": [
        {
          "internalType": "bytes8",
          "name": "c__0ffe16b4",
          "type": "bytes8"
        }
      ],
      "name": "c_false0ffe16b4",
      "outputs": [
        {
          "internalType": "bool",
          "name": "",
          "type": "bool"
        }
      ],
      "stateMutability": "pure",
      "type": "function"
    },
    {
      "inputs": [
        {
          "internalType": "bytes8",
          "name": "c__1b54acf3",
          "type": "bytes8"
        }
      ],
      "name": "c_false1b54acf3",
      "outputs": [
        {
          "internalType": "bool",
          "name": "",
          "type": "bool"
        }
      ],
      "stateMutability": "pure",
      "type": "function"
    },
    {
      "inputs": [
        {
          "internalType": "bytes8",
          "name": "c__3029712e",
          "type": "bytes8"
        }
      ],
      "name": "c_false3029712e",
      "outputs": [
        {
          "internalType": "bool",
          "name": "",
          "type": "bool"
        }
      ],
      "stateMutability": "pure",
      "type": "function"
    },
    {
      "inputs": [
        {
          "internalType": "bytes8",
          "name": "c__c0828b70",
          "type": "bytes8"
        }
      ],
      "name": "c_falsec0828b70",
      "outputs": [
        {
          "internalType": "bool",
          "name": "",
          "type": "bool"
        }
      ],
      "stateMutability": "pure",
      "type": "function"
    },
    {
      "inputs": [
        {
          "internalType": "bytes8",
          "name": "c__d5c463c2",
          "type": "bytes8"
        }
      ],
      "name": "c_falsed5c463c2",
      "outputs": [
        {
          "internalType": "bool",
          "name": "",
          "type": "bool"
        }
      ],
      "stateMutability": "pure",
      "type": "function"
    },
    {
      "inputs": [
        {
          "internalType": "bytes8",
          "name": "c__0ffe16b4",
          "type": "bytes8"
        }
      ],
      "name": "c_true0ffe16b4",
      "outputs": [
        {
          "internalType": "bool",
          "name": "",
          "type": "bool"
        }
      ],
      "stateMutability": "pure",
      "type": "function"
    },
    {
      "inputs": [
        {
          "internalType": "bytes8",
          "name": "c__1b54acf3",
          "type": "bytes8"
        }
      ],
      "name": "c_true1b54acf3",
      "outputs": [
        {
          "internalType": "bool",
          "name": "",
          "type": "bool"
        }
      ],
      "stateMutability": "pure",
      "type": "function"
    },
    {
      "inputs": [
        {
          "internalType": "bytes8",
          "name": "c__3029712e",
          "type": "bytes8"
        }
      ],
      "name": "c_true3029712e",
      "outputs": [
        {
          "internalType": "bool",
          "name": "",
          "type": "bool"
        }
      ],
      "stateMutability": "pure",
      "type": "function"
    },
    {
      "inputs": [
        {
          "internalType": "bytes8",
          "name": "c__c0828b70",
          "type": "bytes8"
        }
      ],
      "name": "c_truec0828b70",
      "outputs": [
        {
          "internalType": "bool",
          "name": "",
          "type": "bool"
        }
      ],
      "stateMutability": "pure",
      "type": "function"
    },
    {
      "inputs": [
        {
          "internalType": "bytes8",
          "name": "c__d5c463c2",
          "type": "bytes8"
        }
      ],
      "name": "c_trued5c463c2",
      "outputs": [
        {
          "internalType": "bool",
          "name": "",
          "type": "bool"
        }
      ],
      "stateMutability": "pure",
      "type": "function"
    },
    {
      "inputs": [],
      "name": "chainId",
      "outputs": [
        {
          "internalType": "uint256",
          "name": "",
          "type": "uint256"
        }
      ],
      "stateMutability": "view",
      "type": "function"
    },
    {
      "inputs": [
        {
          "internalType": "address",
          "name": "sender",
          "type": "address"
        },
        {
          "internalType": "address",
          "name": "token",
          "type": "address"
        },
        {
          "internalType": "bytes32",
          "name": "uid",
          "type": "bytes32"
        },
        {
          "internalType": "uint256",
          "name": "blockNumber",
          "type": "uint256"
        },
        {
          "internalType": "uint256",
          "name": "amount",
          "type": "uint256"
        },
        {
          "internalType": "bytes",
          "name": "senderSignature",
          "type": "bytes"
        },
        {
          "internalType": "bytes",
          "name": "guardianSignature",
          "type": "bytes"
        }
      ],
      "name": "commitPaymentChannelAndDeposit",
      "outputs": [],
      "stateMutability": "nonpayable",
      "type": "function"
    },
    {
      "inputs": [
        {
          "internalType": "address",
          "name": "sender",
          "type": "address"
        },
        {
          "internalType": "address",
          "name": "token",
          "type": "address"
        },
        {
          "internalType": "bytes32",
          "name": "uid",
          "type": "bytes32"
        },
        {
          "internalType": "uint256",
          "name": "blockNumber",
          "type": "uint256"
        },
        {
          "internalType": "uint256",
          "name": "amount",
          "type": "uint256"
        },
        {
          "internalType": "uint256",
          "name": "depositPaymentValue",
          "type": "uint256"
        },
        {
          "internalType": "bytes",
          "name": "senderSignature",
          "type": "bytes"
        },
        {
          "internalType": "bytes",
          "name": "guardianSignature",
          "type": "bytes"
        }
      ],
      "name": "commitPaymentChannelAndSplit",
      "outputs": [],
      "stateMutability": "nonpayable",
      "type": "function"
    },
    {
      "inputs": [
        {
          "internalType": "address",
          "name": "sender",
          "type": "address"
        },
        {
          "internalType": "address",
          "name": "token",
          "type": "address"
        },
        {
          "internalType": "bytes32",
          "name": "uid",
          "type": "bytes32"
        },
        {
          "internalType": "uint256",
          "name": "blockNumber",
          "type": "uint256"
        },
        {
          "internalType": "uint256",
          "name": "amount",
          "type": "uint256"
        },
        {
          "internalType": "bytes",
          "name": "senderSignature",
          "type": "bytes"
        },
        {
          "internalType": "bytes",
          "name": "guardianSignature",
          "type": "bytes"
        }
      ],
      "name": "commitPaymentChannelAndWithdraw",
      "outputs": [],
      "stateMutability": "nonpayable",
      "type": "function"
    },
    {
      "inputs": [
        {
          "internalType": "address",
          "name": "owner",
          "type": "address"
        }
      ],
      "name": "computeDepositAccountAddress",
      "outputs": [
        {
          "internalType": "address",
          "name": "",
          "type": "address"
        }
      ],
      "stateMutability": "view",
      "type": "function"
    },
    {
      "inputs": [
        {
          "internalType": "address",
          "name": "sender",
          "type": "address"
        },
        {
          "internalType": "address",
          "name": "recipient",
          "type": "address"
        },
        {
          "internalType": "address",
          "name": "token",
          "type": "address"
        },
        {
          "internalType": "bytes32",
          "name": "uid",
          "type": "bytes32"
        }
      ],
      "name": "computePaymentChannelHash",
      "outputs": [
        {
          "internalType": "bytes32",
          "name": "",
          "type": "bytes32"
        }
      ],
      "stateMutability": "pure",
      "type": "function"
    },
    {
      "inputs": [
        {
          "internalType": "address",
          "name": "owner",
          "type": "address"
        }
      ],
      "name": "deployDepositAccount",
      "outputs": [],
      "stateMutability": "nonpayable",
      "type": "function"
    },
    {
      "inputs": [],
      "name": "depositExitLockPeriod",
      "outputs": [
        {
          "internalType": "uint256",
          "name": "",
          "type": "uint256"
        }
      ],
      "stateMutability": "view",
      "type": "function"
    },
    {
      "inputs": [],
      "name": "externalAccountRegistry",
      "outputs": [
        {
          "internalType": "contract ExternalAccountRegistry",
          "name": "",
          "type": "address"
        }
      ],
      "stateMutability": "view",
      "type": "function"
    },
    {
      "inputs": [],
      "name": "gateway",
      "outputs": [
        {
          "internalType": "address",
          "name": "",
          "type": "address"
        }
      ],
      "stateMutability": "view",
      "type": "function"
    },
    {
      "inputs": [
        {
          "internalType": "address",
          "name": "owner",
          "type": "address"
        },
        {
          "internalType": "address",
          "name": "token",
          "type": "address"
        }
      ],
      "name": "getDepositExitLockedUntil",
      "outputs": [
        {
          "internalType": "uint256",
          "name": "",
          "type": "uint256"
        }
      ],
      "stateMutability": "view",
      "type": "function"
    },
    {
      "inputs": [
        {
          "internalType": "address",
          "name": "owner",
          "type": "address"
        },
        {
          "internalType": "address",
          "name": "token",
          "type": "address"
        }
      ],
      "name": "getDepositWithdrawnAmount",
      "outputs": [
        {
          "internalType": "uint256",
          "name": "",
          "type": "uint256"
        }
      ],
      "stateMutability": "view",
      "type": "function"
    },
    {
      "inputs": [
        {
          "internalType": "bytes32",
          "name": "hash",
          "type": "bytes32"
        }
      ],
      "name": "getPaymentChannelCommittedAmount",
      "outputs": [
        {
          "internalType": "uint256",
          "name": "",
          "type": "uint256"
        }
      ],
      "stateMutability": "view",
      "type": "function"
    },
    {
      "inputs": [
        {
          "components": [
            {
              "internalType": "address",
              "name": "owner",
              "type": "address"
            },
            {
              "internalType": "address",
              "name": "token",
              "type": "address"
            },
            {
              "internalType": "uint256",
              "name": "amount",
              "type": "uint256"
            }
          ],
          "internalType": "struct PaymentRegistry.DepositWithdrawal",
          "name": "depositWithdrawal",
          "type": "tuple"
        }
      ],
      "name": "hashDepositWithdrawal",
      "outputs": [
        {
          "internalType": "bytes32",
          "name": "",
          "type": "bytes32"
        }
      ],
      "stateMutability": "view",
      "type": "function"
    },
    {
      "inputs": [
        {
          "components": [
            {
              "internalType": "address",
              "name": "sender",
              "type": "address"
            },
            {
              "internalType": "address",
              "name": "recipient",
              "type": "address"
            },
            {
              "internalType": "address",
              "name": "token",
              "type": "address"
            },
            {
              "internalType": "bytes32",
              "name": "uid",
              "type": "bytes32"
            },
            {
              "internalType": "uint256",
              "name": "blockNumber",
              "type": "uint256"
            },
            {
              "internalType": "uint256",
              "name": "amount",
              "type": "uint256"
            }
          ],
          "internalType": "struct PaymentRegistry.PaymentChannelCommit",
          "name": "paymentChannelCommit",
          "type": "tuple"
        }
      ],
      "name": "hashPaymentChannelCommit",
      "outputs": [
        {
          "internalType": "bytes32",
          "name": "",
          "type": "bytes32"
        }
      ],
      "stateMutability": "view",
      "type": "function"
    },
    {
      "inputs": [
        {
          "internalType": "contract ExternalAccountRegistry",
          "name": "externalAccountRegistry_",
          "type": "address"
        },
        {
          "internalType": "contract PersonalAccountRegistry",
          "name": "personalAccountRegistry_",
          "type": "address"
        },
        {
          "internalType": "uint256",
          "name": "depositExitLockPeriod_",
          "type": "uint256"
        },
        {
          "internalType": "address[]",
          "name": "guardians_",
          "type": "address[]"
        },
        {
          "internalType": "address",
          "name": "gateway_",
          "type": "address"
        }
      ],
      "name": "initialize",
      "outputs": [],
      "stateMutability": "nonpayable",
      "type": "function"
    },
    {
      "inputs": [
        {
          "internalType": "address",
          "name": "owner",
          "type": "address"
        }
      ],
      "name": "isDepositAccountDeployed",
      "outputs": [
        {
          "internalType": "bool",
          "name": "",
          "type": "bool"
        }
      ],
      "stateMutability": "view",
      "type": "function"
    },
    {
      "inputs": [
        {
          "internalType": "address",
          "name": "guardian",
          "type": "address"
        }
      ],
      "name": "isGuardian",
      "outputs": [
        {
          "internalType": "bool",
          "name": "",
          "type": "bool"
        }
      ],
      "stateMutability": "view",
      "type": "function"
    },
    {
      "inputs": [],
      "name": "isInitialized",
      "outputs": [
        {
          "internalType": "bool",
          "name": "",
          "type": "bool"
        }
      ],
      "stateMutability": "view",
      "type": "function"
    },
    {
      "inputs": [],
      "name": "personalAccountRegistry",
      "outputs": [
        {
          "internalType": "contract PersonalAccountRegistry",
          "name": "",
          "type": "address"
        }
      ],
      "stateMutability": "view",
      "type": "function"
    },
    {
      "inputs": [
        {
          "internalType": "address",
          "name": "token",
          "type": "address"
        }
      ],
      "name": "processDepositExit",
      "outputs": [],
      "stateMutability": "nonpayable",
      "type": "function"
    },
    {
      "inputs": [
        {
          "internalType": "address",
          "name": "guardian",
          "type": "address"
        }
      ],
      "name": "removeGuardian",
      "outputs": [],
      "stateMutability": "nonpayable",
      "type": "function"
    },
    {
      "inputs": [
        {
          "internalType": "address",
          "name": "token",
          "type": "address"
        }
      ],
      "name": "requestDepositExit",
      "outputs": [],
      "stateMutability": "nonpayable",
      "type": "function"
    },
    {
      "inputs": [
        {
          "internalType": "bytes32",
          "name": "messageHash",
          "type": "bytes32"
        },
        {
          "internalType": "bytes",
          "name": "signature",
          "type": "bytes"
        }
      ],
      "name": "verifyGuardianSignature",
      "outputs": [
        {
          "internalType": "bool",
          "name": "",
          "type": "bool"
        }
      ],
      "stateMutability": "view",
      "type": "function"
    },
    {
      "inputs": [
        {
          "internalType": "address",
          "name": "token",
          "type": "address"
        },
        {
          "internalType": "uint256",
          "name": "amount",
          "type": "uint256"
        },
        {
          "internalType": "bytes",
          "name": "guardianSignature",
          "type": "bytes"
        }
      ],
      "name": "withdrawDeposit",
      "outputs": [],
      "stateMutability": "nonpayable",
      "type": "function"
    }
  ],
  "bytecode": "0x60806040523480156200001157600080fd5b506200002e67413656f24fa6186560c01b6200017e60201b60201c565b6200004a676f8209dd9a63129460c01b6200018160201b60201c565b62000066675c69c8f577e02d3d60c01b6200018160201b60201c565b32600160006101000a81548173ffffffffffffffffffffffffffffffffffffffff021916908373ffffffffffffffffffffffffffffffffffffffff160217905550620000c367d43f7ebc8916ffb160c01b6200018460201b60201c565b620000df67b7a0f8f58fc547fe60c01b6200018460201b60201c565b620000fb6709fb27c81b9e4b6460c01b6200018460201b60201c565b60006200011967ae8d657f7505e1fa60c01b6200018460201b60201c565b46905062000138675f6af25379ff12a260c01b6200018460201b60201c565b80600281905550506200015c67f3f8abaddc57a31660c01b6200018760201b60201c565b6200017867a65aa10ea6fb2c1e60c01b6200018a60201b60201c565b6200018d565b50565b50565b50565b50565b50565b617d65806200019d6000396000f3fe60806040523480156200001157600080fd5b50600436106200028c5760003560e01c80638a1773ab1162000165578063bdff4b3b11620000d5578063d2c83b9a1162000093578063d2c83b9a146200089d578063da1b213d14620008bf578063dc7d6c3114620008df578063df0433801462000915578063e0fe396e1462000935578063e831bfba1462000955576200028c565b8063bdff4b3b14620007a3578063c1cad69e14620007c5578063c36326e714620007fb578063c369d5fe1462000831578063d0f710d61462000867576200028c565b8063a526d83b1162000123578063a526d83b14620006d7578063abafcde414620006f7578063acd2a8841462000717578063b0274a73146200074d578063bcc9b17d146200076d576200028c565b80638a1773ab14620006095780639130c06e146200063f5780639a85fae2146200065f5780639a8a0592146200067f578063a4db4b6b14620006a1576200028c565b80635405622e11620002015780636866da5211620001bf5780636866da52146200053b57806371404156146200055b5780637f130864146200057b57806384389a2b14620005b157806387d3131314620005e7576200028c565b80635405622e1462000459578063589731f8146200047957806360bf4df214620004af5780636121fcfc14620004e55780636524a947146200051b576200028c565b806321a5f5da116200024f57806321a5f5da146200035f5780632e4f161e14620003955780632e6afd6e14620003cb5780632e7037a01462000401578063392e53cd1462000437576200028c565b80630c4b1a1714620002915780630c68ba2114620002b1578063116191b614620002e75780631262ed1c146200030957806318121646146200033f575b600080fd5b620002af6004803603810190620002a9919062005ddf565b62000975565b005b620002cf6004803603810190620002c99190620059f7565b62000978565b604051620002de919062006c71565b60405180910390f35b620002f162000a0f565b60405162000300919062006a24565b60405180910390f35b62000327600480360381019062000321919062005ddf565b62000a35565b60405162000336919062006c71565b60405180910390f35b6200035d600480360381019062000357919062005ddf565b62000a40565b005b6200037d600480360381019062000377919062005ddf565b62000a43565b6040516200038c919062006c71565b60405180910390f35b620003b36004803603810190620003ad919062005a64565b62000a4e565b604051620003c2919062006c8e565b60405180910390f35b620003e96004803603810190620003e3919062005ddf565b62000aaa565b604051620003f8919062006c71565b60405180910390f35b6200041f600480360381019062000419919062005eee565b62000ab1565b6040516200042e919062006c8e565b60405180910390f35b6200044162000b15565b60405162000450919062006c71565b60405180910390f35b62000477600480360381019062000471919062005ddf565b62000bb0565b005b62000497600480360381019062000491919062005ddf565b62000bb3565b604051620004a6919062006c71565b60405180910390f35b620004cd6004803603810190620004c79190620059f7565b62000bba565b604051620004dc919062006a24565b60405180910390f35b620005036004803603810190620004fd9190620059f7565b62000c10565b60405162000512919062006c71565b60405180910390f35b620005396004803603810190620005339190620059f7565b62000cee565b005b62000559600480360381019062000553919062005cb5565b62000d3e565b005b620005796004803603810190620005739190620059f7565b6200125b565b005b62000599600480360381019062000593919062005ddf565b62001636565b604051620005a8919062006c71565b60405180910390f35b620005cf6004803603810190620005c9919062005f1a565b62001641565b604051620005de919062006c8e565b60405180910390f35b620005f1620016b4565b60405162000600919062006dec565b60405180910390f35b62000627600480360381019062000621919062005d55565b620016da565b604051620006369190620070b3565b60405180910390f35b6200065d6004803603810190620006579190620059f7565b6200173c565b005b6200067d600480360381019062000677919062005ad0565b62001cec565b005b6200068962001ec7565b604051620006989190620070b3565b60405180910390f35b620006bf6004803603810190620006b9919062005ddf565b62001ecd565b604051620006ce919062006c71565b60405180910390f35b620006f56004803603810190620006ef9190620059f7565b62001ed8565b005b6200071560048036038101906200070f919062005ddf565b62002066565b005b6200073560048036038101906200072f919062005ddf565b62002069565b60405162000744919062006c71565b60405180910390f35b6200076b6004803603810190620007659190620059f7565b62002070565b005b6200078b600480360381019062000785919062005ddf565b620023e0565b6040516200079a919062006c71565b60405180910390f35b620007ad620023eb565b604051620007bc9190620070b3565b60405180910390f35b620007e36004803603810190620007dd919062005ddf565b620023f1565b604051620007f2919062006c71565b60405180910390f35b62000819600480360381019062000813919062005a23565b620023f8565b604051620008289190620070b3565b60405180910390f35b6200084f600480360381019062000849919062005ddf565b620024c4565b6040516200085e919062006c71565b60405180910390f35b6200088560048036038101906200087f919062005d81565b620024cb565b60405162000894919062006c71565b60405180910390f35b620008a762002568565b604051620008b6919062006dcf565b60405180910390f35b620008dd6004803603810190620008d7919062005bb7565b6200258e565b005b620008fd6004803603810190620008f7919062005a23565b62002763565b6040516200090c9190620070b3565b60405180910390f35b6200093360048036038101906200092d919062005ad0565b6200282f565b005b6200095360048036038101906200094d919062005e50565b62002a00565b005b6200097360048036038101906200096d919062005ddf565b62002e21565b005b50565b6000620009906784ecf3118404f04560c01b62000bb0565b620009a667d4e99ee3a1201eec60c01b62000bb0565b620009bc67e4ba0959715ee5ac60c01b62000bb0565b6000808373ffffffffffffffffffffffffffffffffffffffff1673ffffffffffffffffffffffffffffffffffffffff16815260200190815260200160002060009054906101000a900460ff169050919050565b600360009054906101000a900473ffffffffffffffffffffffffffffffffffffffff1681565b600060019050919050565b50565b600060019050919050565b600062000a6667e5b60f4327280d5460c01b62002066565b62000a7c679af38e0b84ef2cc060c01b62002066565b62000a9267eff6b1ae7fa68da760c01b62002066565b62000aa08585858562002e24565b9050949350505050565b6000919050565b600062000ac9675dca3f0838edd19d60c01b62002066565b62000adf67b5aab7cd9836ce3a60c01b62002066565b62000af567c80e88d0a512fd0160c01b62002066565b62000b0e82600001518360200151846040015162002ea1565b9050919050565b600062000b2d6740898dd11e0e3e1060c01b62000a40565b62000b4367730b1b0a3e6f252b60c01b62000a40565b62000b59670e31b01a086623bd60c01b62000a40565b600073ffffffffffffffffffffffffffffffffffffffff16600160009054906101000a900473ffffffffffffffffffffffffffffffffffffffff1673ffffffffffffffffffffffffffffffffffffffff1614905090565b50565b6000919050565b600062000bd26761c5de02b7f1592d60c01b62002066565b62000be867663d78abf2ad6f3760c01b62002066565b62000bfe6784309e98070acadc60c01b62002066565b62000c098262002f3f565b9050919050565b600062000c2867992e7aa8fdaa65b660c01b62002066565b62000c3e6726b731d0fd5a665f60c01b62002066565b62000c54679b45898ce592da6360c01b62002066565b600073ffffffffffffffffffffffffffffffffffffffff16600760008473ffffffffffffffffffffffffffffffffffffffff1673ffffffffffffffffffffffffffffffffffffffff16815260200190815260200160002060000160009054906101000a900473ffffffffffffffffffffffffffffffffffffffff1673ffffffffffffffffffffffffffffffffffffffff1614159050919050565b62000d04672d4596f69d5742ca60c01b62002066565b62000d1a67d96c81502809989f60c01b62002066565b62000d3067a538f3ffba805f9360c01b62002066565b62000d3b81620030aa565b50565b62000d546781e2365ee2a7f44660c01b62002066565b62000d6a67200537e3281486a160c01b62002066565b62000d806705a92e2a2c1df37560c01b62002066565b600062000d8c620033a4565b905062000da46741a723b7c645436e60c01b62002066565b62000dba6719ad873125329ff260c01b62002066565b600062000e50600760008473ffffffffffffffffffffffffffffffffffffffff1673ffffffffffffffffffffffffffffffffffffffff16815260200190815260200160002060010160008873ffffffffffffffffffffffffffffffffffffffff1673ffffffffffffffffffffffffffffffffffffffff1681526020019081526020016000205486620033f990919063ffffffff16565b905062000e6867bc9810fd464b897e60c01b62002066565b62000e7e6795097ce9fb7841cb60c01b62002066565b62000e94673b42c610f0e10beb60c01b62002066565b6000811162000eda576040517f08c379a000000000000000000000000000000000000000000000000000000000815260040162000ed19062006f5f565b60405180910390fd5b62000ef067452db2dfea80639c60c01b62002066565b62000f0667f4cad00a89ae421560c01b62002066565b62000f1c67ad8fe1be9a8d224760c01b62002066565b600062000f2b83888862002ea1565b905062000f43671206cd96566122c160c01b62002066565b62000f5967412349189c0ef5fd60c01b62002066565b62000f6f67a6e014bddad8e2ae60c01b62002066565b62000fbf8186868080601f016020809104026020016040519081016040528093929190818152602001838380828437600081840152601f19601f820116905080830192505050505050506200346b565b62001001576040517f08c379a000000000000000000000000000000000000000000000000000000000815260040162000ff89062007091565b60405180910390fd5b6200101767dac2bf7ab044b48360c01b62002066565b6200102d675bd8c6c85912340060c01b62002066565b85600760008573ffffffffffffffffffffffffffffffffffffffff1673ffffffffffffffffffffffffffffffffffffffff16815260200190815260200160002060010160008973ffffffffffffffffffffffffffffffffffffffff1673ffffffffffffffffffffffffffffffffffffffff16815260200190815260200160002081905550620010c7671211d4d9e978401b60c01b62002066565b620010dd67943178bec99bb27b60c01b62002066565b620010e9838862003549565b620010ff677b6f0d079ed0316060c01b62002066565b6200111567e5cdea6191b3c89660c01b62002066565b62001185600760008573ffffffffffffffffffffffffffffffffffffffff1673ffffffffffffffffffffffffffffffffffffffff16815260200190815260200160002060000160009054906101000a900473ffffffffffffffffffffffffffffffffffffffff16848985620037e8565b6200119b6791f855492060b8eb60c01b62002066565b620011b1676213cac3746ab3d060c01b62002066565b7f95f66b073d65f18e43f6b76c7ab8557787f5f766d86cab7c9c76f41be9f8abc6600760008573ffffffffffffffffffffffffffffffffffffffff1673ffffffffffffffffffffffffffffffffffffffff16815260200190815260200160002060000160009054906101000a900473ffffffffffffffffffffffffffffffffffffffff168489896040516200124a949392919062006af5565b60405180910390a150505050505050565b62001271670caedbfd5abebf6160c01b62000bb0565b620012876742b0c1323c75dfb360c01b62000bb0565b6200129d679cd513b6eebced7560c01b62000bb0565b620012b367eeeaf063f577770960c01b62000bb0565b620012c967c60da70fe303492e60c01b62000bb0565b6000803273ffffffffffffffffffffffffffffffffffffffff1673ffffffffffffffffffffffffffffffffffffffff16815260200190815260200160002060009054906101000a900460ff1662001357576040517f08c379a00000000000000000000000000000000000000000000000000000000081526004016200134e9062006f3d565b60405180910390fd5b6200136d6794e8bc79e466100760c01b62000bb0565b6200138367bc04c894f3eba0c560c01b62000bb0565b62001399678b1796894f3ae9de60c01b62000bb0565b620013af67b72db77a2e7745ba60c01b62000bb0565b620013c567b1f370819c2c0df760c01b62000bb0565b620013db6748422319f9b5a9c160c01b62000bb0565b620013f167e3d81842942258fa60c01b62000bb0565b8073ffffffffffffffffffffffffffffffffffffffff163273ffffffffffffffffffffffffffffffffffffffff16141562001463576040517f08c379a00000000000000000000000000000000000000000000000000000000081526004016200145a906200704d565b60405180910390fd5b6200147967e46f534505dcf68e60c01b62000bb0565b6200148f67be3d1fc91d078bfa60c01b62000bb0565b620014a567bda141bb88f7425160c01b62000bb0565b620014bb67e9f4bbcb8bfedf3760c01b62000bb0565b6000808273ffffffffffffffffffffffffffffffffffffffff1673ffffffffffffffffffffffffffffffffffffffff16815260200190815260200160002060009054906101000a900460ff1662001549576040517f08c379a0000000000000000000000000000000000000000000000000000000008152600401620015409062006fe7565b60405180910390fd5b6200155f679d258db795e0520660c01b62000bb0565b6200157567b784b66d9c6c30c760c01b62000bb0565b60008060008373ffffffffffffffffffffffffffffffffffffffff1673ffffffffffffffffffffffffffffffffffffffff16815260200190815260200160002060006101000a81548160ff021916908315150217905550620015e267d3f8eee07042ad8560c01b62000bb0565b620015f86755080d54614d095f60c01b62000bb0565b7fee943cdb81826d5909c559c6b1ae6908fcaf2dbc16c4b730346736b486283e8b32826040516200162b92919062006a5e565b60405180910390a150565b600060019050919050565b60006200165967b8bf5d678da5c5fb60c01b62002066565b6200166f67d18eefdc943182a360c01b62002066565b6200168567b06b10a868d85a6660c01b62002066565b620016ad826000015183602001518460400151856060015186608001518760a0015162003c0c565b9050919050565b600560009054906101000a900473ffffffffffffffffffffffffffffffffffffffff1681565b6000620016f267eecae5b070e18fdc60c01b62002066565b6200170867ba66c014b8020fca60c01b62002066565b6200171e67102f4fa59138944960c01b62002066565b60086000838152602001908152602001600020600001549050919050565b6200175267f2b509bf1458477d60c01b62002066565b6200176867ccbcc54a0e45668b60c01b62002066565b6200177e6737b4b4f326c4dc6760c01b62002066565b60006200178a620033a4565b9050620017a2676d1914b0c9f69f4860c01b62002066565b620017b8678caf740d5ac572b560c01b62002066565b6000600760008373ffffffffffffffffffffffffffffffffffffffff1673ffffffffffffffffffffffffffffffffffffffff16815260200190815260200160002060020160008473ffffffffffffffffffffffffffffffffffffffff1673ffffffffffffffffffffffffffffffffffffffff168152602001908152602001600020549050620018526762ea97d5f338159260c01b62002066565b6200186867eeadbd4da8fa6aac60c01b62002066565b6200187e6725069c4fccc06dd260c01b62002066565b6000811415620018c5576040517f08c379a0000000000000000000000000000000000000000000000000000000008152600401620018bc9062006ef9565b60405180910390fd5b620018db6770c77a055929646460c01b62002066565b620018f167da36569c02c44e0860c01b62002066565b62001907679bd19bedf8df7fce60c01b62002066565b6200191d67dfbc14c6922f855660c01b62002066565b4281111562001963576040517f08c379a00000000000000000000000000000000000000000000000000000000081526004016200195a9062006f81565b60405180910390fd5b620019796790b48c5dfb6ccb7260c01b62002066565b6200198f67b1fc9c761c19373f60c01b62002066565b6000600760008473ffffffffffffffffffffffffffffffffffffffff1673ffffffffffffffffffffffffffffffffffffffff16815260200190815260200160002060020160008573ffffffffffffffffffffffffffffffffffffffff1673ffffffffffffffffffffffffffffffffffffffff1681526020019081526020016000208190555062001a2a67cd17e0923ada04bf60c01b62002066565b62001a4067e34ecd05410239ab60c01b62002066565b6000600760008473ffffffffffffffffffffffffffffffffffffffff1673ffffffffffffffffffffffffffffffffffffffff16815260200190815260200160002060000160009054906101000a900473ffffffffffffffffffffffffffffffffffffffff16905062001abd679543742b77f3085060c01b62002066565b62001ad36770cf790611d6c73e60c01b62002066565b600062001aeb67ee9171c42829f80e60c01b62002066565b62001b00668a4be8cd86cb4860c01b62002066565b600073ffffffffffffffffffffffffffffffffffffffff168573ffffffffffffffffffffffffffffffffffffffff16141562001b825762001b4c67c69df3f5a24f7bd560c01b62002066565b62001b626713d3731e9279c7d060c01b62002066565b8173ffffffffffffffffffffffffffffffffffffffff1631905062001c40565b62001b9867469e58ebe50f462860c01b62002066565b62001bae679b496b7e037d136060c01b62002066565b8473ffffffffffffffffffffffffffffffffffffffff166370a08231836040518263ffffffff1660e01b815260040162001be9919062006a24565b60206040518083038186803b15801562001c0257600080fd5b505afa15801562001c17573d6000803e3d6000fd5b505050506040513d601f19601f8201168201806040525081019062001c3d919062005f46565b90505b62001c5667f02d1c8605f8514260c01b62002066565b62001c6c6716ed27099a18aeef60c01b62002066565b62001c7a82858784620037e8565b62001c9067f97e1be8e319275a60c01b62002066565b62001ca66790c609c9b18b866660c01b62002066565b7f5300d9a2838baade7cdc628c82cb80c1298853ba5f389d51e2b47330336aeffc8285878460405162001cdd949392919062006af5565b60405180910390a15050505050565b62001d02673b0ba0b99d72628260c01b62002066565b62001d1867ddd7854478797c6760c01b62002066565b62001d2e677152f97f5cf10faf60c01b62002066565b600062001d3a620033a4565b905062001d5267d125d100dcd43dc860c01b62002066565b62001d68675293773841a4082d60c01b62002066565b600080600062001e078d858e8e8e8e8e8e8080601f016020809104026020016040519081016040528093929190818152602001838380828437600081840152601f19601f820116905080830192505050505050508d8d8080601f016020809104026020016040519081016040528093929190818152602001838380828437600081840152601f19601f8201169050808301925050505050505062003cb3565b92509250925062001e2367095b2f3e8d7178fd60c01b62002066565b62001e3967f5588fb60c8f0e3c60c01b62002066565b62001e518262001e498662002f3f565b8e84620037e8565b62001e676711777b1ccdcc318f60c01b62002066565b62001e7d6752e33a5f463d951a60c01b62002066565b7f771bc0494e1a2fcbef19a8762845000d8c4500454c756a7370c955e39ed60fd4838260405162001eb092919062006d18565b60405180910390a150505050505050505050505050565b60025481565b600060019050919050565b62001eee67dd930b6f9f95b76c60c01b62000bb0565b62001f046742b0c1323c75dfb360c01b62000bb0565b62001f1a679cd513b6eebced7560c01b62000bb0565b62001f3067eeeaf063f577770960c01b62000bb0565b62001f4667c60da70fe303492e60c01b62000bb0565b6000803273ffffffffffffffffffffffffffffffffffffffff1673ffffffffffffffffffffffffffffffffffffffff16815260200190815260200160002060009054906101000a900460ff1662001fd4576040517f08c379a000000000000000000000000000000000000000000000000000000000815260040162001fcb9062006f3d565b60405180910390fd5b62001fea6794e8bc79e466100760c01b62000bb0565b6200200067bc04c894f3eba0c560c01b62000bb0565b62002016670acb98e525a2992e60c01b62000bb0565b6200202c6702f83effb0603b2160c01b62000bb0565b6200204267cabbadae4ca9cb1560c01b62000bb0565b62002058676a8aed084b7a4f8a60c01b62000bb0565b620020638162004526565b50565b50565b6000919050565b6200208667dcbd2787d841f3f360c01b62002066565b6200209c6713e1f816d37c8c4960c01b62002066565b620020b2676c229f0ee6ea8b0760c01b62002066565b6000620020be620033a4565b9050620020d6678f3414585d2f39d060c01b62002066565b620020ec67def1b1cdd59e12a760c01b62002066565b6000600760008373ffffffffffffffffffffffffffffffffffffffff1673ffffffffffffffffffffffffffffffffffffffff16815260200190815260200160002060020160008473ffffffffffffffffffffffffffffffffffffffff1673ffffffffffffffffffffffffffffffffffffffff16815260200190815260200160002054905062002186671054d9df2364326460c01b62002066565b6200219c672e36a0f9922301d960c01b62002066565b620021b267e194ebe3bd3b2c0860c01b62002066565b60008114620021f8576040517f08c379a0000000000000000000000000000000000000000000000000000000008152600401620021ef9062006e93565b60405180910390fd5b6200220e67baf745cefd09621d60c01b62002066565b62002224672ae612e61197cfce60c01b62002066565b6200223a6719129e95d4519a7e60c01b62002066565b6200224582620030aa565b6200225b67ed235b5eba4e9d0160c01b62002066565b6200227260065442620047c590919063ffffffff16565b90506200228a67717053e0d65aa4c760c01b62002066565b80600760008473ffffffffffffffffffffffffffffffffffffffff1673ffffffffffffffffffffffffffffffffffffffff16815260200190815260200160002060020160008573ffffffffffffffffffffffffffffffffffffffff1673ffffffffffffffffffffffffffffffffffffffff1681526020019081526020016000208190555062002324678c541a71283631e460c01b62002066565b6200233a6704f2df7dc342b4c360c01b62002066565b7fed3c8c6cdfc6d7b91dc9db3e1f54866587c26c3c3e0f9e32cd1944974be43a50600760008473ffffffffffffffffffffffffffffffffffffffff1673ffffffffffffffffffffffffffffffffffffffff16815260200190815260200160002060000160009054906101000a900473ffffffffffffffffffffffffffffffffffffffff16838584604051620023d3949392919062006af5565b60405180910390a1505050565b600060019050919050565b60065481565b6000919050565b600062002410674321ddccfad545da60c01b62002066565b62002426677c3de2bec614a83360c01b62002066565b6200243c679d54f06edbcda0ee60c01b62002066565b600760008473ffffffffffffffffffffffffffffffffffffffff1673ffffffffffffffffffffffffffffffffffffffff16815260200190815260200160002060010160008373ffffffffffffffffffffffffffffffffffffffff1673ffffffffffffffffffffffffffffffffffffffff16815260200190815260200160002054905092915050565b6000919050565b6000620024e367c2603dd5511b499960c01b62000bb0565b620024f96764f96218f3a402c560c01b62000bb0565b6200250f679f7a32802dba8b6e60c01b62000bb0565b6200255f8484848080601f016020809104026020016040519081016040528093929190818152602001838380828437600081840152601f19601f820116905080830192505050505050506200346b565b90509392505050565b600460009054906101000a900473ffffffffffffffffffffffffffffffffffffffff1681565b620025a467dbe96f977cc16b9360c01b62002066565b620025ba67f673718b9df87aa560c01b62002066565b620025d067e98304fab8b407aa60c01b62002066565b6000620025dc620033a4565b9050620025f467f89001319996d0bb60c01b62002066565b6200260a672491b740dc44022a60c01b62002066565b6000806000620026a98e858f8f8f8f8e8e8080601f016020809104026020016040519081016040528093929190818152602001838380828437600081840152601f19601f820116905080830192505050505050508d8d8080601f016020809104026020016040519081016040528093929190818152602001838380828437600081840152601f19601f8201169050808301925050505050505062003cb3565b925092509250620026c567533acf062af4d6e860c01b62002066565b620026db674568394ffabda60660c01b62002066565b620026ea82858f848d620048e4565b620027006755821027e753b46960c01b62002066565b62002716678d38b0e9f45c574760c01b62002066565b7f8b67efde501ee9cd0e771f7436554c44a5c076239ff3a6fbb397646a4689c0f283828b6040516200274b9392919062006d45565b60405180910390a15050505050505050505050505050565b60006200277b67cb8b7da9fce829a260c01b62002066565b6200279167f72dd3ad0d9f931f60c01b62002066565b620027a76750c662a5bf4ffbdf60c01b62002066565b600760008473ffffffffffffffffffffffffffffffffffffffff1673ffffffffffffffffffffffffffffffffffffffff16815260200190815260200160002060020160008373ffffffffffffffffffffffffffffffffffffffff1673ffffffffffffffffffffffffffffffffffffffff16815260200190815260200160002054905092915050565b6200284567d4595f146fff1af260c01b62002066565b6200285b678f38397fe990166a60c01b62002066565b620028716782cd4fbb3bea52f560c01b62002066565b60006200287d620033a4565b9050620028956722f5b9676d9bef4960c01b62002066565b620028ab67b97d9277d077743a60c01b62002066565b60008060006200294a8d858e8e8e8e8e8e8080601f016020809104026020016040519081016040528093929190818152602001838380828437600081840152601f19601f820116905080830192505050505050508d8d8080601f016020809104026020016040519081016040528093929190818152602001838380828437600081840152601f19601f8201169050808301925050505050505062003cb3565b92509250925062002966678d6a012124813b7360c01b62002066565b6200297c67bab6e6730e29e72c60c01b62002066565b6200298a82858e84620037e8565b620029a067e6324c136819e60260c01b62002066565b620029b667a2d7b8aabcda30d560c01b62002066565b7f6675346cd43846f7d47c310d39fb5c15bc7db66b3770338cdf1f133613a5ae988382604051620029e992919062006d18565b60405180910390a150505050505050505050505050565b62002a16679a2d3e536a83989360c01b62002066565b62002a2c676c8c9b71ba9d910f60c01b62000a40565b62002a4267f602580a42808a9160c01b62000a40565b62002a586707611d848241fec060c01b62000a40565b62002a6e6709ab29cd8b2d771d60c01b62000a40565b600160009054906101000a900473ffffffffffffffffffffffffffffffffffffffff1673ffffffffffffffffffffffffffffffffffffffff163273ffffffffffffffffffffffffffffffffffffffff161462002b01576040517f08c379a000000000000000000000000000000000000000000000000000000000815260040162002af89062006e71565b60405180910390fd5b62002b176786eee1b275e13e0e60c01b62000a40565b62002b2d6715362633e8a83eba60c01b62000a40565b6000600160006101000a81548173ffffffffffffffffffffffffffffffffffffffff021916908373ffffffffffffffffffffffffffffffffffffffff16021790555062002b856738479f0480704ee560c01b62000a40565b62002b9b673774cd0b7fc6804b60c01b62002066565b62002bb167d4174f0ad80eb2eb60c01b62002066565b62002bc7674bf7753e326d9df160c01b62002066565b85600460006101000a81548173ffffffffffffffffffffffffffffffffffffffff021916908373ffffffffffffffffffffffffffffffffffffffff16021790555062002c1e67d558ff604648feff60c01b62002066565b84600560006101000a81548173ffffffffffffffffffffffffffffffffffffffff021916908373ffffffffffffffffffffffffffffffffffffffff16021790555062002c75676cbd762d5871985860c01b62002066565b62002c8b675db194b82954fc2b60c01b62002066565b600084141562002cd15762002cab6795693d765db064fc60c01b62002066565b62002cc167372d2604097abe7660c01b62002066565b6224ea0060068190555062002d05565b62002ce767c03a3d3662b767b360c01b62002066565b62002cfd67ff11043f88adad5e60c01b62002066565b836006819055505b62002d1b67b316284f0791ead060c01b62002066565b62002d3167ab74ee00530b636b60c01b62002066565b62002d7d838380806020026020016040519081016040528093929190818152602001838360200280828437600081840152601f19601f8201169050808301925050505050505062004b01565b62002d9367e58ac436f9eef80b60c01b62002066565b62002da967ef2d40544512748e60c01b62002066565b62002db48162004c80565b62002dca675d2d15dcccb96a8860c01b62000a40565b62002de06763708511b840b29260c01b62000a40565b7f908408e307fc569b417f6cbec5d5a06f44a0a505ac0479b47d421a4b2fd6a1e63260405162002e11919062006a41565b60405180910390a1505050505050565b50565b600062002e3c673e3a83d8da05406060c01b62002066565b62002e5267c704681e49f558d960c01b62002066565b62002e68678622f99ed7686c2c60c01b62002066565b8484848460405160200162002e8194939291906200683d565b604051602081830303815290604052805190602001209050949350505050565b600062002eb967296beda6436712be60c01b62002066565b62002ecf671bd5a589c8ad1ebe60c01b62002066565b62002ee567ead121614d8164a160c01b62002066565b62002f367f3b3087c8f883f1f44cabe66444f5f9d96f69de6a88f364ea10959eef0331414a85858560405160200162002f21939291906200690f565b60405160208183030381529060405262004cf0565b90509392505050565b600062002f5767a449d978a7af3cb260c01b62002066565b62002f6d678cd5ddfb9278711460c01b62002066565b62002f8367b2106ffaaff7bb0b60c01b62002066565b60008260405160200162002f98919062006820565b60405160208183030381529060405280519060200120905062002fc667660a3ee28e88769c60c01b62002066565b62002fdc67ebe9341272c61b5f60c01b62002066565b60606040518060200162002ff09062005727565b6020820181038252601f19601f8201166040525090506200301c675d5883882afe0f3160c01b62002066565b62003032670b5191781e83272460c01b62002066565b600060ff60f81b3084848051906020012060405160200162003058949392919062006952565b6040516020818303038152906040528051906020012090506200308667c6ab1a1709cce2c460c01b62002066565b6200309c6710c2934b226340d060c01b62002066565b8060001c9350505050919050565b620030c067a3358fc8bea81a4560c01b62002066565b620030d667cdf851add9ba841660c01b62002066565b620030ec67ebf60d56d5fbecea60c01b62002066565b600073ffffffffffffffffffffffffffffffffffffffff16600760008373ffffffffffffffffffffffffffffffffffffffff1673ffffffffffffffffffffffffffffffffffffffff16815260200190815260200160002060000160009054906101000a900473ffffffffffffffffffffffffffffffffffffffff1673ffffffffffffffffffffffffffffffffffffffff1614156200338a576200319a679e5b1abc155468e260c01b62002066565b620031b067dd607ade612f543b60c01b62002066565b620031c6670d31260123c184d360c01b62002066565b600081604051602001620031db919062006820565b604051602081830303815290604052805190602001209050620032096746dd74ea1f71523060c01b62002066565b80604051620032189062005727565b8190604051809103906000f590508015801562003239573d6000803e3d6000fd5b50600760008473ffffffffffffffffffffffffffffffffffffffff1673ffffffffffffffffffffffffffffffffffffffff16815260200190815260200160002060000160006101000a81548173ffffffffffffffffffffffffffffffffffffffff021916908373ffffffffffffffffffffffffffffffffffffffff160217905550620032d06770308577149272c060c01b62002066565b620032e6676d8ab5d89f469ee360c01b62002066565b7fd80572c0f2f24f2d9d726d831bd860ed82b12bafaf01cfb6e4d38fb23c4347e9600760008473ffffffffffffffffffffffffffffffffffffffff1673ffffffffffffffffffffffffffffffffffffffff16815260200190815260200160002060000160009054906101000a900473ffffffffffffffffffffffffffffffffffffffff16836040516200337b92919062006a8b565b60405180910390a150620033a1565b620033a067a6d53c307146552a60c01b62002066565b5b50565b6000620033bc671c7ff357d193636160c01b62000975565b620033d267ab8759dadf1f42b260c01b62000975565b620033e867125a6f506ec49d2c60c01b62000975565b620033f4602862004d77565b905090565b600062003411676815b78c941e66ad60c01b62004f2f565b6200342767abd52d16273593d460c01b62004f2f565b6200343d67e200e55d2d684b5f60c01b62004f2f565b62003463838360405180606001604052806021815260200162007d386021913962004f32565b905092915050565b60006200348367a8025e080327595360c01b62000bb0565b6200349967527ef727f456fc6060c01b62000bb0565b620034af67f6f0991f4f07cce960c01b62000bb0565b6000620034c683856200502490919063ffffffff16565b9050620034de67662ff5a5d873edfe60c01b62000bb0565b620034f467efbf0f200fbb2edf60c01b62000bb0565b6000808273ffffffffffffffffffffffffffffffffffffffff1673ffffffffffffffffffffffffffffffffffffffff16815260200190815260200160002060009054906101000a900460ff1691505092915050565b6200355f67213e1c99bc95351660c01b62002066565b62003575672cd2303a4a795cd760c01b62002066565b6200358b6722e9e0009ba3093f60c01b62002066565b6000600760008473ffffffffffffffffffffffffffffffffffffffff1673ffffffffffffffffffffffffffffffffffffffff16815260200190815260200160002060020160008373ffffffffffffffffffffffffffffffffffffffff1673ffffffffffffffffffffffffffffffffffffffff16815260200190815260200160002054111562003796576200362a67f788ef060d94405f60c01b62002066565b6200364067ee10f1f7fdcb81cd60c01b62002066565b6000600760008473ffffffffffffffffffffffffffffffffffffffff1673ffffffffffffffffffffffffffffffffffffffff16815260200190815260200160002060020160008373ffffffffffffffffffffffffffffffffffffffff1673ffffffffffffffffffffffffffffffffffffffff16815260200190815260200160002081905550620036db67bec817fd4eb07cfa60c01b62002066565b620036f167f299f492a9b6b28060c01b62002066565b7fa19281a6f3163da06f6b82f3ecf0130493c52aba23cdc2a312f652742f0d1801600760008473ffffffffffffffffffffffffffffffffffffffff1673ffffffffffffffffffffffffffffffffffffffff16815260200190815260200160002060000160009054906101000a900473ffffffffffffffffffffffffffffffffffffffff168383604051620037889392919062006ab8565b60405180910390a1620037e4565b620037ac67dd6706c8d5e08fa960c01b62002066565b620037c267ecc93041ec1a64bb60c01b62002066565b620037d8676e8f17b5c1d5e9bf60c01b62002066565b620037e382620030aa565b5b5050565b620037fe67d5c3f9a58ea9137f60c01b62002066565b6200381467cd47306a2a6f5eb960c01b62002066565b6200382a6746e85b91a47ac45960c01b62002066565b600073ffffffffffffffffffffffffffffffffffffffff168273ffffffffffffffffffffffffffffffffffffffff161415620039905762003876676a91873a9a58215260c01b62002066565b6200388c67d0a4ec0af77920f560c01b62002066565b620038a26719091d367be7049460c01b62002066565b8373ffffffffffffffffffffffffffffffffffffffff16633f579f428483600067ffffffffffffffff81118015620038d957600080fd5b506040519080825280601f01601f1916602001820160405280156200390d5781602001600182028036833780820191505090505b506040518463ffffffff1660e01b81526004016200392e9392919062006c2d565b600060405180830381600087803b1580156200394957600080fd5b505af11580156200395e573d6000803e3d6000fd5b505050506040513d6000823e3d601f19601f8201168201806040525081019062003989919062005e0b565b5062003c06565b620039a667baf3db273d8fa5fe60c01b62002066565b620039bc6743e746cd3a6d996660c01b62002066565b620039d267087e86375a7882c560c01b62002066565b60608473ffffffffffffffffffffffffffffffffffffffff16633f579f4284600063a9059cbb60e01b888760405160240162003a1092919062006c00565b604051602081830303815290604052907bffffffffffffffffffffffffffffffffffffffffffffffffffffffff19166020820180517bffffffffffffffffffffffffffffffffffffffffffffffffffffffff83818316178352505050506040518463ffffffff1660e01b815260040162003a8d9392919062006bbc565b600060405180830381600087803b15801562003aa857600080fd5b505af115801562003abd573d6000803e3d6000fd5b505050506040513d6000823e3d601f19601f8201168201806040525081019062003ae8919062005e0b565b905062003b0067d67624e01d5ff9d060c01b62002066565b62003b16677db32f028d16e8fb60c01b62002066565b60008151111562003bed5762003b3767203d41989feeb45560c01b62002066565b62003b4d6740fa45fdcb15a74160c01b62002066565b62003b636755590a563fdb481e60c01b62002066565b62003b796759f2c50ec7c3f3ce60c01b62002066565b8080602001905181019062003b8f919062005d29565b62003bd1576040517f08c379a000000000000000000000000000000000000000000000000000000000815260040162003bc89062006f1b565b60405180910390fd5b62003be767c98ee07ae2fefd8c60c01b62002066565b62003c04565b62003c03673d963c01e9f484cf60c01b62002066565b5b505b50505050565b600062003c24677f09bf3d4b6ef92260c01b62002066565b62003c3a6758eeec9fd886c65860c01b62002066565b62003c5067cb5593911da91f1960c01b62002066565b62003ca77f745089e29f2abf28f618236a5dc04d214ac05ead3440ba532b69e9d160ba2e7288888888888860405160200162003c929695949392919062006893565b60405160208183030381529060405262004cf0565b90509695505050505050565b600080600062003cce6723c343c031d77a9460c01b62002066565b62003ce467080126974edc5e6c60c01b62002066565b62003cfa6744b7268f41f6abb360c01b62002066565b600062003d0c8c8c8c8c8c8c62003c0c565b905062003d2467f30376c85e15b87060c01b62002066565b62003d3a67e052ef91ea57240160c01b62002066565b60008651141562003eb05762003d5b6709a359c921b3819760c01b62002066565b62003d7167b5e9ce01500ce4bd60c01b62002066565b62003d8767abbbb26fa7512e0560c01b62002066565b62003d9d670bfe3a8f3f06323e60c01b62002066565b600460009054906101000a900473ffffffffffffffffffffffffffffffffffffffff1673ffffffffffffffffffffffffffffffffffffffff166359b52ef88d838b6040518463ffffffff1660e01b815260040162003dfe9392919062006b7f565b60206040518083038186803b15801562003e1757600080fd5b505afa15801562003e2c573d6000803e3d6000fd5b505050506040513d601f19601f8201168201806040525081019062003e52919062005d29565b62003e94576040517f08c379a000000000000000000000000000000000000000000000000000000000815260040162003e8b9062007091565b60405180910390fd5b62003eaa678248319e084ea10e60c01b62002066565b620041ea565b62003ec6678f831a57f91c8dcd60c01b62002066565b62003edc67ded906b12366ce6060c01b62002066565b62003ef2670e689f14710a895560c01b62002066565b600062003f0987836200502490919063ffffffff16565b905062003f2167dccd9b70cf3349c360c01b62002066565b62003f376796e6158f7d6d760d60c01b62002066565b8073ffffffffffffffffffffffffffffffffffffffff168d73ffffffffffffffffffffffffffffffffffffffff1614620041d15762003f8167097344495d04775260c01b62002066565b62003f97679f7f8553d2ecb01360c01b62002066565b62003fad675f64b69e16e2d8ee60c01b62002066565b62003fc367ee54d4e8c05f981360c01b62002066565b600560009054906101000a900473ffffffffffffffffffffffffffffffffffffffff1673ffffffffffffffffffffffffffffffffffffffff166334d323a48e838c6040518463ffffffff1660e01b8152600401620040249392919062006b42565b60206040518083038186803b1580156200403d57600080fd5b505afa15801562004052573d6000803e3d6000fd5b505050506040513d601f19601f8201168201806040525081019062004078919062005d29565b80156200409757506200409667032a6ff9d26e6bc060c01b620023e0565b5b80620041735750600460009054906101000a900473ffffffffffffffffffffffffffffffffffffffff1673ffffffffffffffffffffffffffffffffffffffff166334d323a48e838c6040518463ffffffff1660e01b8152600401620040ff9392919062006b42565b60206040518083038186803b1580156200411857600080fd5b505afa1580156200412d573d6000803e3d6000fd5b505050506040513d601f19601f8201168201806040525081019062004153919062005d29565b80156200417257506200417167a8cd0085e7d1c76b60c01b620023e0565b5b5b620041b5576040517f08c379a0000000000000000000000000000000000000000000000000000000008152600401620041ac9062006fc5565b60405180910390fd5b620041cb679de3caa3c603237260c01b62002066565b620041e8565b620041e76761a5acc40063edd760c01b62002066565b5b505b6200420067c5cd29d6a2b8473560c01b62002066565b6200421667886d8eae7ef447da60c01b62002066565b6200422c671c72c01043e9cb2b60c01b62002066565b6200423881866200346b565b6200427a576040517f08c379a0000000000000000000000000000000000000000000000000000000008152600401620042719062007091565b60405180910390fd5b62004290671e536e102a39cc1960c01b62002066565b620042a66770150e50fdc4322160c01b62002066565b620042b48c8c8c8c62002e24565b9350620042cc670c2f5f602b1983d460c01b62002066565b620042f7600860008681526020019081526020016000206000015488620033f990919063ffffffff16565b91506200430f67c5f87ec1b9b8372460c01b62002066565b6200432567932d6524630accda60c01b62002066565b6200433b677cf8eee1ac6dd0ca60c01b62002066565b600082141562004382576040517f08c379a0000000000000000000000000000000000000000000000000000000008152600401620043799062006eb5565b60405180910390fd5b620043986776eded416903060960c01b62002066565b620043ae67ed6efe491c39390d60c01b62002066565b866008600086815260200190815260200160002060000181905550620043df67c494defb859874d860c01b62002066565b620043f5672f7150430cf8422d60c01b62002066565b620044018c8b62003549565b62004417675edb204d8ca89c8c60c01b62002066565b600760008d73ffffffffffffffffffffffffffffffffffffffff1673ffffffffffffffffffffffffffffffffffffffff16815260200190815260200160002060000160009054906101000a900473ffffffffffffffffffffffffffffffffffffffff169250620044926778d1cf34acbfb73860c01b62002066565b620044a86754fa3c1adf91f1ec60c01b62002066565b7f0d1cb77d1fe491f98926195d0b885509da18bc305dd1489f45610237d971ed46848d8d8d8d8c604051620044e39695949392919062006cab565b60405180910390a16200450167b0c2aa64d248ff1b60c01b62002066565b6200451767085f466ece8e8f2460c01b62002066565b50985098509895505050505050565b6200453c67bddd7115df1af29a60c01b62000bb0565b620045526701589f7184316ad060c01b62000bb0565b620045686749aec7233e10dc1c60c01b62000bb0565b6200457e672afcf6fb9885dea660c01b62000bb0565b600073ffffffffffffffffffffffffffffffffffffffff168173ffffffffffffffffffffffffffffffffffffffff161415620045f1576040517f08c379a0000000000000000000000000000000000000000000000000000000008152600401620045e89062006e4f565b60405180910390fd5b6200460767ad8ef681321284d460c01b62000bb0565b6200461d67c072d78627d5e68760c01b62000bb0565b62004633672e6f6d5be899e1b060c01b62000bb0565b6200464967608d488e1a35327760c01b62000bb0565b6000808273ffffffffffffffffffffffffffffffffffffffff1673ffffffffffffffffffffffffffffffffffffffff16815260200190815260200160002060009054906101000a900460ff1615620046d8576040517f08c379a0000000000000000000000000000000000000000000000000000000008152600401620046cf906200702b565b60405180910390fd5b620046ee6778d9ddea333c93e160c01b62000bb0565b62004704673e811494da954c4160c01b62000bb0565b60016000808373ffffffffffffffffffffffffffffffffffffffff1673ffffffffffffffffffffffffffffffffffffffff16815260200190815260200160002060006101000a81548160ff02191690831515021790555062004771671acb4adf2a964aa160c01b62000bb0565b6200478767ff72d8ebc11c766260c01b62000bb0565b7fbc3292102fa77e083913064b282926717cdfaede4d35f553d66366c0a3da755a3282604051620047ba92919062006a5e565b60405180910390a150565b6000620047dd67ae1ef795eca3221560c01b62004f2f565b620047f367d37ba4ba530b04ac60c01b62004f2f565b6200480967fe2a147f5483f06360c01b62004f2f565b600082840190506200482667bb2e54790e211d3b60c01b62004f2f565b6200483c675078615359b7347060c01b62004f2f565b62004852676fe1a185de5e7bf160c01b62004f2f565b8381101562004898576040517f08c379a00000000000000000000000000000000000000000000000000000000081526004016200488f9062007009565b60405180910390fd5b620048ae67a3cfcf68469a2dd460c01b62004f2f565b620048c46706858799e2509a6360c01b62004f2f565b620048da674b63daab37e46ebb60c01b62004f2f565b8091505092915050565b620048fa67546b2e096144977860c01b62002066565b6200491067dddc73bc8587470460c01b62002066565b62004926677d512a4f0cbb284460c01b62002066565b6200493c6790aaf1fa69e62ed560c01b62002066565b6000811162004982576040517f08c379a0000000000000000000000000000000000000000000000000000000008152600401620049799062006e2d565b60405180910390fd5b6200499867d485715f29c503b760c01b62002066565b620049ae6706596c2a5c986f0360c01b62002066565b620049c467444b37f6fd1cbf6a60c01b62002066565b6000620049db8284620033f990919063ffffffff16565b9050620049f367d194599cfb082db460c01b62002066565b62004a0967f3ecbc199dcf0d1960c01b62002066565b62004a1f67b370b894e494a1c460c01b62002066565b6000811162004a65576040517f08c379a000000000000000000000000000000000000000000000000000000000815260040162004a5c9062006fa3565b60405180910390fd5b62004a7b67247222db6dca19fc60c01b62002066565b62004a9167816e1904024e8f7e60c01b62002066565b62004aa767f19d3fa0a77b785f60c01b62002066565b62004ab586868684620037e8565b62004acb6798560c0d295c754460c01b62002066565b62004ae167f34e820e8da5294d60c01b62002066565b62004af98662004af18762002f3f565b8685620037e8565b505050505050565b62004b1767382b15100f1ea6e160c01b62000bb0565b62004b2d67bc01750d57db35d060c01b62000bb0565b62004b4367e50faf3ab907f62c60c01b62000bb0565b60008151141562004ba15762004b64677ef664711d6a7db260c01b62000bb0565b62004b7a6758b5d7b8e62671d960c01b62000bb0565b62004b90678cc441a589d12f3660c01b62000bb0565b62004b9b3262004526565b62004c7d565b62004bb767b5eaa5217834394c60c01b62000bb0565b62004bcd67e1b8c0b401a26d9b60c01b62000bb0565b62004be36753d9b2baeb60c5ae60c01b62000bb0565b60008151905062004bff67ac94bd2d4c55fae960c01b62000bb0565b62004c15675e26d50e743751d260c01b62000bb0565b60005b8181101562004c7a5762004c3767294278db644c36ac60c01b62000bb0565b62004c4d67a81590e94526336860c01b62000bb0565b62004c6c83828151811062004c5e57fe5b602002602001015162004526565b808060010191505062004c18565b50505b50565b62004c96679d7ccc1311d911f260c01b62000975565b62004cac675c759c22b9c661dc60c01b62000975565b80600360006101000a81548173ffffffffffffffffffffffffffffffffffffffff021916908373ffffffffffffffffffffffffffffffffffffffff16021790555050565b600062004d0867c28073c085c0cb9e60c01b62002e21565b62004d1e6750c9eac71a66052560c01b62002e21565b62004d34674ea6a63c4a0ae5cf60c01b62002e21565b62004d6f60025430858560405160200162004d539493929190620069d2565b6040516020818303038152906040528051906020012062005370565b905092915050565b600062004d8f67f97596c145c2643c60c01b62000975565b62004da567719767a6276b440260c01b62000975565b62004dbb67ff6cc0c52b772da360c01b62000975565b600062004dd367d55d1ee61f7caad060c01b62000975565b62004de967e00ca364820461b760c01b62000975565b62004df3620053e4565b1562004eca5762004e0f6752b2296e5485884f60c01b62000975565b62004e256731059657a58d110360c01b62000975565b62004e3b67d161cb06738c6bb060c01b62000975565b600083600036905003905062004e5c678376598f1a6671ee60c01b62000975565b62004ec16000368390601485019262004e789392919062007179565b8080601f016020809104026020016040519081016040528093929190818152602001838380828437600081840152601f19601f82011690508083019250505050505050620055d0565b91505062004efa565b62004ee067ed1fe281c58f00ab60c01b62000975565b62004ef667c577249a47fbafbc60c01b62000975565b3390505b62004f1067d840d7f568e7e8f360c01b62000975565b62004f26672f41cc642398b43e60c01b62000975565b80915050919050565b50565b600062004f4a67710c66660dda579660c01b62004f2f565b62004f6067a4d7ea1faf7de2de60c01b62004f2f565b62004f7667f667494d81fa64c360c01b62004f2f565b62004f8c67dbb66719998c3f6460c01b62004f2f565b83831115829062004fd5576040517f08c379a000000000000000000000000000000000000000000000000000000000815260040162004fcc919062006e09565b60405180910390fd5b5062004fec67184e1cdceebbd5e160c01b62004f2f565b62005002674d264a5bd71a704a60c01b62004f2f565b6200501867012d1142f699a68260c01b62004f2f565b82840390509392505050565b60006200503c676de89ac9109535f060c01b62005716565b620050526738f07d032b69a0cc60c01b62005716565b62005068679a56bd737f9ec1c160c01b62005716565b6000620050806765ff8d1c809ca6df60c01b62005716565b6200509667b385de3f7dcc346760c01b62005716565b6041835114156200532357620050b767166e15f83f23170a60c01b62005716565b620050cd67cd2d9c240be0a33460c01b62005716565b620050e3671b08267e2ace419660c01b62005716565b6000620050fb676bf79a26a2eb360d60c01b62005716565b6200511167f6aaa0b497d5b8c960c01b62005716565b60006200512967e3bb8ebb94b2557260c01b62005716565b6200513f6761e42a107c3e2f3560c01b62005716565b60006200515767629bbeea2d8dae6c60c01b62005716565b6020860151925060408601519150606086015160001a90506200518567c96eccbfec13453b60c01b62005716565b6200519b670614339e5785cdba60c01b62005716565b601b8160ff161015620051e057620051be67c25e4db51759311e60c01b62005716565b620051d46794a576c495e47bde60c01b62005716565b601b81019050620051f7565b620051f667b3c223547babc39660c01b62005716565b5b6200520d676b258761bdd66fe460c01b62005716565b620052236744f25d0fe4c8b73f60c01b62005716565b601b8160ff16148015620052495750620052486787b517281dd8e34760c01b62005719565b5b80620052775750601c8160ff161480156200527657506200527567faa29d490ca62b7160c01b62005719565b5b5b1562005303576200529367a5480a7163bbe5f160c01b62005716565b620052a967aee28416a483519060c01b62005716565b60018782858560405160008152602001604052604051620052ce949392919062006d82565b6020604051602081039080840390855afa158015620052f1573d6000803e3d6000fd5b5050506020604051035193506200531a565b62005319672ad4d87bf39029de60c01b62005716565b5b5050506200533a565b62005339675c61079943debe0c60c01b62005716565b5b620053506787ceeaaf3f2a20f460c01b62005716565b6200536667d9e6bd7b8159092260c01b62005716565b8091505092915050565b60006200538867287daf59cba0d52b60c01b62005716565b6200539e670696666c2d7382a160c01b62005716565b620053b4670b7cc4199c01f54560c01b62005716565b81604051602001620053c79190620069a8565b604051602081830303815290604052805190602001209050919050565b6000620053fc67b24a756293c07fff60c01b62000975565b6200541267fad27be25666a35560c01b62000975565b6200542867d5c957d7e9ed371260c01b62000975565b60006200544067780739a1dcfdcb2960c01b62000975565b6200545667c2c61d022ff8fe9c60c01b62000975565b600360009054906101000a900473ffffffffffffffffffffffffffffffffffffffff1673ffffffffffffffffffffffffffffffffffffffff163373ffffffffffffffffffffffffffffffffffffffff1614156200558657620054c367a838fa7fccd80d5f60c01b62000975565b620054d96718d71566f06a2d5960c01b62000975565b620054ef6719ef867e8bf1060d60c01b62000975565b62005505679d0e513a971c0b6160c01b62000975565b602c6000369050101562005550576040517f08c379a0000000000000000000000000000000000000000000000000000000008152600401620055479062006ed7565b60405180910390fd5b62005566678edf6ceda73addb260c01b62000975565b6200557c6787211d918602887760c01b62000975565b600190506200559d565b6200559c675539c133ed18bde460c01b62000975565b5b620055b36740acee34bffbf2ec60c01b62000975565b620055c967908c3807aad70fcf60c01b62000975565b8091505090565b6000620055e86745fe888f961edf9060c01b62005724565b620055fe67c128e14c9960586c60c01b62005724565b62005614679e4addf985cabeb360c01b62005724565b60006200562c67aab182be3934d1bf60c01b62005724565b6200564267339143ce5b10bc7a60c01b62005724565b6200565867e0ac55f3b55d06d860c01b62005724565b60148351146200569f576040517f08c379a000000000000000000000000000000000000000000000000000000000815260040162005696906200706f565b60405180910390fd5b620056b567eea605de5a7e45e660c01b62005724565b620056cb67df87c6a35e4a5c0d60c01b62005724565b6c010000000000000000000000006020840151049050620056f7670ed0f5a70872476160c01b62005724565b6200570d6746c545de0ca3a1af60c01b62005724565b80915050919050565b50565b600060019050919050565b50565b6108b8806200748083390190565b6000813590506200574681620073c9565b92915050565b60008083601f8401126200575f57600080fd5b8235905067ffffffffffffffff8111156200577957600080fd5b6020830191508360208202830111156200579257600080fd5b9250929050565b600081519050620057aa81620073e3565b92915050565b600081359050620057c181620073fd565b92915050565b600081359050620057d88162007417565b92915050565b60008083601f840112620057f157600080fd5b8235905067ffffffffffffffff8111156200580b57600080fd5b6020830191508360018202830111156200582457600080fd5b9250929050565b600082601f8301126200583d57600080fd5b8151620058546200584e82620070fe565b620070d0565b915080825260208301602083018583830111156200587157600080fd5b6200587e8382846200732f565b50505092915050565b600081359050620058988162007431565b92915050565b600081359050620058af816200744b565b92915050565b600060608284031215620058c857600080fd5b620058d46060620070d0565b90506000620058e68482850162005735565b6000830152506020620058fc8482850162005735565b60208301525060406200591284828501620059c9565b60408301525092915050565b600060c082840312156200593157600080fd5b6200593d60c0620070d0565b905060006200594f8482850162005735565b6000830152506020620059658482850162005735565b60208301525060406200597b8482850162005735565b60408301525060606200599184828501620057b0565b6060830152506080620059a784828501620059c9565b60808301525060a0620059bd84828501620059c9565b60a08301525092915050565b600081359050620059da8162007465565b92915050565b600081519050620059f18162007465565b92915050565b60006020828403121562005a0a57600080fd5b600062005a1a8482850162005735565b91505092915050565b6000806040838503121562005a3757600080fd5b600062005a478582860162005735565b925050602062005a5a8582860162005735565b9150509250929050565b6000806000806080858703121562005a7b57600080fd5b600062005a8b8782880162005735565b945050602062005a9e8782880162005735565b935050604062005ab18782880162005735565b925050606062005ac487828801620057b0565b91505092959194509250565b600080600080600080600080600060e08a8c03121562005aef57600080fd5b600062005aff8c828d0162005735565b995050602062005b128c828d0162005735565b985050604062005b258c828d01620057b0565b975050606062005b388c828d01620059c9565b965050608062005b4b8c828d01620059c9565b95505060a08a013567ffffffffffffffff81111562005b6957600080fd5b62005b778c828d01620057de565b945094505060c08a013567ffffffffffffffff81111562005b9757600080fd5b62005ba58c828d01620057de565b92509250509295985092959850929598565b6000806000806000806000806000806101008b8d03121562005bd857600080fd5b600062005be88d828e0162005735565b9a5050602062005bfb8d828e0162005735565b995050604062005c0e8d828e01620057b0565b985050606062005c218d828e01620059c9565b975050608062005c348d828e01620059c9565b96505060a062005c478d828e01620059c9565b95505060c08b013567ffffffffffffffff81111562005c6557600080fd5b62005c738d828e01620057de565b945094505060e08b013567ffffffffffffffff81111562005c9357600080fd5b62005ca18d828e01620057de565b92509250509295989b9194979a5092959850565b6000806000806060858703121562005ccc57600080fd5b600062005cdc8782880162005735565b945050602062005cef87828801620059c9565b935050604085013567ffffffffffffffff81111562005d0d57600080fd5b62005d1b87828801620057de565b925092505092959194509250565b60006020828403121562005d3c57600080fd5b600062005d4c8482850162005799565b91505092915050565b60006020828403121562005d6857600080fd5b600062005d7884828501620057b0565b91505092915050565b60008060006040848603121562005d9757600080fd5b600062005da786828701620057b0565b935050602084013567ffffffffffffffff81111562005dc557600080fd5b62005dd386828701620057de565b92509250509250925092565b60006020828403121562005df257600080fd5b600062005e0284828501620057c7565b91505092915050565b60006020828403121562005e1e57600080fd5b600082015167ffffffffffffffff81111562005e3957600080fd5b62005e47848285016200582b565b91505092915050565b60008060008060008060a0878903121562005e6a57600080fd5b600062005e7a89828a0162005887565b965050602062005e8d89828a016200589e565b955050604062005ea089828a01620059c9565b945050606087013567ffffffffffffffff81111562005ebe57600080fd5b62005ecc89828a016200574c565b9350935050608062005ee189828a0162005735565b9150509295509295509295565b60006060828403121562005f0157600080fd5b600062005f1184828501620058b5565b91505092915050565b600060c0828403121562005f2d57600080fd5b600062005f3d848285016200591e565b91505092915050565b60006020828403121562005f5957600080fd5b600062005f6984828501620059e0565b91505092915050565b62005f7d816200728f565b82525050565b62005f8e81620071ae565b82525050565b62005fa962005fa382620071ae565b62007365565b82525050565b62005fba81620071c2565b82525050565b62005fd562005fcf82620071ce565b62007379565b82525050565b62005fe681620071fa565b82525050565b6200600162005ffb82620071fa565b62007383565b82525050565b600062006014826200712b565b62006020818562007141565b9350620060328185602086016200732f565b6200603d81620073ab565b840191505092915050565b600062006055826200712b565b62006061818562007152565b9350620060738185602086016200732f565b80840191505092915050565b6200608a81620072a3565b82525050565b6200609b81620072cb565b82525050565b620060ac81620072f3565b82525050565b6000620060bf8262007136565b620060cb81856200715d565b9350620060dd8185602086016200732f565b620060e881620073ab565b840191505092915050565b6000620061026026836200715d565b91507f5061796d656e7452656769737472793a20696e76616c6964206465706f73697460008301527f2076616c756500000000000000000000000000000000000000000000000000006020830152604082019050919050565b60006200616a601c836200716e565b91507f19457468657265756d205369676e6564204d6573736167653a0a3332000000006000830152601c82019050919050565b6000620061ac6020836200715d565b91507f477561726465643a2063616e6e6f74206164642030783020677561726469616e6000830152602082019050919050565b6000620061ee602f836200715d565b91507f496e697469616c697a61626c653a2074782e6f726967696e206973206e6f742060008301527f74686520696e697469616c697a657200000000000000000000000000000000006020830152604082019050919050565b600062006256602f836200715d565b91507f5061796d656e7452656769737472793a206465706f736974206578697420616c60008301527f72656164792072657175657374656400000000000000000000000000000000006020830152604082019050919050565b6000620062be6026836200715d565b91507f5061796d656e7452656769737472793a20696e76616c6964207061796d656e7460008301527f2076616c756500000000000000000000000000000000000000000000000000006020830152604082019050919050565b6000620063266022836200715d565b91507f47617465776179526563697069656e743a20696e76616c6964206d73672e646160008301527f74610000000000000000000000000000000000000000000000000000000000006020830152604082019050919050565b60006200638e602b836200715d565b91507f5061796d656e7452656769737472793a206465706f7369742065786974206e6f60008301527f74207265717565737465640000000000000000000000000000000000000000006020830152604082019050919050565b6000620063f6602d836200715d565b91507f5061796d656e7452656769737472793a204552433230546f6b656e207472616e60008301527f73666572207265766572746564000000000000000000000000000000000000006020830152604082019050919050565b60006200645e6026836200715d565b91507f477561726465643a2074782e6f726967696e206973206e6f742074686520677560008301527f61726469616e00000000000000000000000000000000000000000000000000006020830152604082019050919050565b6000620064c6601f836200715d565b91507f5061796d656e7452656769737472793a20696e76616c696420616d6f756e74006000830152602082019050919050565b6000620065086024836200715d565b91507f5061796d656e7452656769737472793a206465706f7369742065786974206c6f60008301527f636b6564000000000000000000000000000000000000000000000000000000006020830152604082019050919050565b6000620065706027836200715d565b91507f5061796d656e7452656769737472793a20696e76616c6964207769746864726160008301527f772076616c7565000000000000000000000000000000000000000000000000006020830152604082019050919050565b6000620065d86029836200715d565b91507f5061796d656e7452656769737472793a20696e76616c69642073656e6465722060008301527f7369676e617475726500000000000000000000000000000000000000000000006020830152604082019050919050565b600062006640601f836200715d565b91507f477561726465643a20677561726469616e20646f65736e2774206578697374006000830152602082019050919050565b600062006682601e836200715d565b91507f536166654d6174684c69623a206164646974696f6e206f766572666c6f7700006000830152602082019050919050565b6000620066c46020836200715d565b91507f477561726465643a20677561726469616e20616c7265616479206578697374736000830152602082019050919050565b600062006706601b836200715d565b91507f477561726465643a2063616e6e6f742072656d6f76652073656c6600000000006000830152602082019050919050565b600062006748601d836200715d565b91507f42797465734c69623a20696e76616c69642064617461206c656e6774680000006000830152602082019050919050565b60006200678a602b836200715d565b91507f5061796d656e7452656769737472793a20696e76616c6964206775617264696160008301527f6e207369676e61747572650000000000000000000000000000000000000000006020830152604082019050919050565b620067ee8162007278565b82525050565b62006809620068038262007278565b620073a1565b82525050565b6200681a8162007282565b82525050565b60006200682e828462005f94565b60148201915081905092915050565b60006200684b828762005f94565b6014820191506200685d828662005f94565b6014820191506200686f828562005f94565b60148201915062006881828462005fec565b60208201915081905095945050505050565b6000620068a1828962005f94565b601482019150620068b3828862005f94565b601482019150620068c5828762005f94565b601482019150620068d7828662005fec565b602082019150620068e98285620067f4565b602082019150620068fb8284620067f4565b602082019150819050979650505050505050565b60006200691d828662005f94565b6014820191506200692f828562005f94565b601482019150620069418284620067f4565b602082019150819050949350505050565b600062006960828762005fc0565b60018201915062006972828662005f94565b60148201915062006984828562005fec565b60208201915062006996828462005fec565b60208201915081905095945050505050565b6000620069b5826200615b565b9150620069c3828462005fec565b60208201915081905092915050565b6000620069e08287620067f4565b602082019150620069f2828662005f94565b60148201915062006a04828562005fec565b60208201915062006a16828462006048565b915081905095945050505050565b600060208201905062006a3b600083018462005f83565b92915050565b600060208201905062006a58600083018462005f72565b92915050565b600060408201905062006a75600083018562005f72565b62006a84602083018462005f83565b9392505050565b600060408201905062006aa2600083018562005f83565b62006ab1602083018462005f83565b9392505050565b600060608201905062006acf600083018662005f83565b62006ade602083018562005f83565b62006aed604083018462005f83565b949350505050565b600060808201905062006b0c600083018762005f83565b62006b1b602083018662005f83565b62006b2a604083018562005f83565b62006b396060830184620067e3565b95945050505050565b600060608201905062006b59600083018662005f83565b62006b68602083018562005f83565b62006b776040830184620067e3565b949350505050565b600060608201905062006b96600083018662005f83565b62006ba5602083018562005fdb565b62006bb46040830184620067e3565b949350505050565b600060608201905062006bd3600083018662005f83565b62006be26020830185620060a1565b818103604083015262006bf6818462006007565b9050949350505050565b600060408201905062006c17600083018562005f83565b62006c266020830184620067e3565b9392505050565b600060608201905062006c44600083018662005f83565b62006c536020830185620067e3565b818103604083015262006c67818462006007565b9050949350505050565b600060208201905062006c88600083018462005faf565b92915050565b600060208201905062006ca5600083018462005fdb565b92915050565b600060c08201905062006cc2600083018962005fdb565b62006cd1602083018862005f83565b62006ce0604083018762005f83565b62006cef606083018662005f83565b62006cfe608083018562005fdb565b62006d0d60a0830184620067e3565b979650505050505050565b600060408201905062006d2f600083018562005fdb565b62006d3e6020830184620067e3565b9392505050565b600060608201905062006d5c600083018662005fdb565b62006d6b6020830185620067e3565b62006d7a6040830184620067e3565b949350505050565b600060808201905062006d99600083018762005fdb565b62006da860208301866200680f565b62006db7604083018562005fdb565b62006dc6606083018462005fdb565b95945050505050565b600060208201905062006de660008301846200607f565b92915050565b600060208201905062006e03600083018462006090565b92915050565b6000602082019050818103600083015262006e258184620060b2565b905092915050565b6000602082019050818103600083015262006e4881620060f3565b9050919050565b6000602082019050818103600083015262006e6a816200619d565b9050919050565b6000602082019050818103600083015262006e8c81620061df565b9050919050565b6000602082019050818103600083015262006eae8162006247565b9050919050565b6000602082019050818103600083015262006ed081620062af565b9050919050565b6000602082019050818103600083015262006ef28162006317565b9050919050565b6000602082019050818103600083015262006f14816200637f565b9050919050565b6000602082019050818103600083015262006f3681620063e7565b9050919050565b6000602082019050818103600083015262006f58816200644f565b9050919050565b6000602082019050818103600083015262006f7a81620064b7565b9050919050565b6000602082019050818103600083015262006f9c81620064f9565b9050919050565b6000602082019050818103600083015262006fbe8162006561565b9050919050565b6000602082019050818103600083015262006fe081620065c9565b9050919050565b60006020820190508181036000830152620070028162006631565b9050919050565b60006020820190508181036000830152620070248162006673565b9050919050565b600060208201905081810360008301526200704681620066b5565b9050919050565b600060208201905081810360008301526200706881620066f7565b9050919050565b600060208201905081810360008301526200708a8162006739565b9050919050565b60006020820190508181036000830152620070ac816200677b565b9050919050565b6000602082019050620070ca6000830184620067e3565b92915050565b6000604051905081810181811067ffffffffffffffff82111715620070f457600080fd5b8060405250919050565b600067ffffffffffffffff8211156200711657600080fd5b601f19601f8301169050602081019050919050565b600081519050919050565b600081519050919050565b600082825260208201905092915050565b600081905092915050565b600082825260208201905092915050565b600081905092915050565b600080858511156200718a57600080fd5b838611156200719857600080fd5b6001850283019150848603905094509492505050565b6000620071bb8262007258565b9050919050565b60008115159050919050565b60007fff0000000000000000000000000000000000000000000000000000000000000082169050919050565b6000819050919050565b60007fffffffffffffffff00000000000000000000000000000000000000000000000082169050919050565b60006200723d82620071ae565b9050919050565b60006200725182620071ae565b9050919050565b600073ffffffffffffffffffffffffffffffffffffffff82169050919050565b6000819050919050565b600060ff82169050919050565b60006200729c8262007307565b9050919050565b6000620072b082620072b7565b9050919050565b6000620072c48262007258565b9050919050565b6000620072d882620072df565b9050919050565b6000620072ec8262007258565b9050919050565b6000620073008262007278565b9050919050565b600062007314826200731b565b9050919050565b6000620073288262007258565b9050919050565b60005b838110156200734f57808201518184015260208101905062007332565b838111156200735f576000848401525b50505050565b600062007372826200738d565b9050919050565b6000819050919050565b6000819050919050565b60006200739a82620073bc565b9050919050565b6000819050919050565b6000601f19601f8301169050919050565b60008160601b9050919050565b620073d481620071ae565b8114620073e057600080fd5b50565b620073ee81620071c2565b8114620073fa57600080fd5b50565b6200740881620071fa565b81146200741457600080fd5b50565b620074228162007204565b81146200742e57600080fd5b50565b6200743c8162007230565b81146200744857600080fd5b50565b620074568162007244565b81146200746257600080fd5b50565b620074708162007278565b81146200747c57600080fd5b5056fe608060405261001e67b6012af9acb9264060c01b61009760201b60201c565b6100386727f467a9e7d89ff760c01b61009760201b60201c565b336000806101000a81548173ffffffffffffffffffffffffffffffffffffffff021916908373ffffffffffffffffffffffffffffffffffffffff160217905550610092679659be222464ef0a60c01b61009a60201b60201c565b61009d565b50565b50565b61080c806100ac6000396000f3fe60806040526004361061007f5760003560e01c8063abe124f61161004e578063abe124f6146102f8578063b719e0571461034e578063c25a4496146103ba578063f77c47911461041057610086565b8063062e4f9c1461008b5780633f579f42146100f75780636480a27b146102205780636c3da61f1461028c57610086565b3661008657005b600080fd5b34801561009757600080fd5b506100df600480360360208110156100ae57600080fd5b81019080803577ffffffffffffffffffffffffffffffffffffffffffffffff19169060200190929190505050610451565b60405180821515815260200191505060405180910390f35b34801561010357600080fd5b506101a56004803603606081101561011a57600080fd5b81019080803573ffffffffffffffffffffffffffffffffffffffff169060200190929190803590602001909291908035906020019064010000000081111561016157600080fd5b82018360208201111561017357600080fd5b8035906020019184600183028401116401000000008311171561019557600080fd5b9091929391929390505050610458565b6040518080602001828103825283818151815260200191508051906020019080838360005b838110156101e55780820151818401526020810190506101ca565b50505050905090810190601f1680156102125780820380516001836020036101000a031916815260200191505b509250505060405180910390f35b34801561022c57600080fd5b506102746004803603602081101561024357600080fd5b81019080803577ffffffffffffffffffffffffffffffffffffffffffffffff1916906020019092919050505061078c565b60405180821515815260200191505060405180910390f35b34801561029857600080fd5b506102e0600480360360208110156102af57600080fd5b81019080803577ffffffffffffffffffffffffffffffffffffffffffffffff19169060200190929190505050610797565b60405180821515815260200191505060405180910390f35b34801561030457600080fd5b5061034c6004803603602081101561031b57600080fd5b81019080803577ffffffffffffffffffffffffffffffffffffffffffffffff191690602001909291905050506107a2565b005b34801561035a57600080fd5b506103a26004803603602081101561037157600080fd5b81019080803577ffffffffffffffffffffffffffffffffffffffffffffffff191690602001909291905050506107a5565b60405180821515815260200191505060405180910390f35b3480156103c657600080fd5b5061040e600480360360208110156103dd57600080fd5b81019080803577ffffffffffffffffffffffffffffffffffffffffffffffff191690602001909291905050506107ac565b005b34801561041c57600080fd5b506104256107af565b604051808273ffffffffffffffffffffffffffffffffffffffff16815260200191505060405180910390f35b6000919050565b606061046e67908b2c0aed8b72c360c01b6107ac565b6104826784d0485b592a236360c01b6107a2565b6104966732d9e05dbcd2297760c01b6107a2565b6104aa671853580eb63b1ec060c01b6107a2565b6104be67a3f5c255d67cc36460c01b6107a2565b60008054906101000a900473ffffffffffffffffffffffffffffffffffffffff1673ffffffffffffffffffffffffffffffffffffffff163373ffffffffffffffffffffffffffffffffffffffff1614610562576040517f08c379a000000000000000000000000000000000000000000000000000000000815260040180806020018281038252602c8152602001806107d4602c913960400191505060405180910390fd5b61057667eac11ea12abcf59860c01b6107a2565b61058a6792057f91aa5d96c960c01b6107a2565b61059e67cf9ddb7b44654c0960c01b6107ac565b6105b267347d0dae68b764a060c01b6107ac565b6105c667e97edfce8c9f8d2860c01b6107ac565b6105da67cffac49f773743fb60c01b6107ac565b60606105f067e05282a115b9151660c01b6107ac565b61060467ede9303f9ed9e3f560c01b6107ac565b600061061a67e731e58e240d364860c01b6107ac565b8673ffffffffffffffffffffffffffffffffffffffff1686868660405180838380828437808301925050509250505060006040518083038185875af1925050503d8060008114610686576040519150601f19603f3d011682016040523d82523d6000602084013e61068b565b606091505b5080935081925050506106a86701c15e000842881f60c01b6107ac565b6106bc67b70f836a33dc9b2360c01b6107ac565b6106d06743db365e5ffa022060c01b6107ac565b80610743576040517f08c379a000000000000000000000000000000000000000000000000000000000815260040180806020018281038252601d8152602001807f4163636f756e743a207472616e73616374696f6e20726576657274656400000081525060200191505060405180910390fd5b610757676d8bb913195659a260c01b6107ac565b61076b67ec7a5eebb7a9ae4760c01b6107ac565b61077f67cb82a8bfb9168a4560c01b6107ac565b8192505050949350505050565b600060019050919050565b600060019050919050565b50565b6000919050565b50565b60008054906101000a900473ffffffffffffffffffffffffffffffffffffffff168156fe436f6e74726f6c6c65643a206d73672e73656e646572206973206e6f742074686520636f6e74726f6c6c6572a164736f6c634300060c000a536166654d6174684c69623a207375627472616374696f6e206f766572666c6f77a164736f6c634300060c000a",
  "linkReferences": {},
  "deployedLinkReferences": {}
}