{
  "_format": "hh-sol-artifact-1",
  "contractName": "PaymentRegistry",
  "sourceName": "src/payment/PaymentRegistry.sol",
  "abi": [
    {
      "inputs": [],
      "stateMutability": "nonpayable",
      "type": "constructor"
    },
    {
      "anonymous": false,
      "inputs": [
        {
          "indexed": false,
          "internalType": "address",
          "name": "depositAccount",
          "type": "address"
        },
        {
          "indexed": false,
          "internalType": "address",
          "name": "owner",
          "type": "address"
        }
      ],
      "name": "DepositAccountDeployed",
      "type": "event"
    },
    {
      "anonymous": false,
      "inputs": [
        {
          "indexed": false,
          "internalType": "address",
          "name": "depositAccount",
          "type": "address"
        },
        {
          "indexed": false,
          "internalType": "address",
          "name": "owner",
          "type": "address"
        },
        {
          "indexed": false,
          "internalType": "address",
          "name": "token",
          "type": "address"
        },
        {
          "indexed": false,
          "internalType": "uint256",
          "name": "amount",
          "type": "uint256"
        }
      ],
      "name": "DepositExitCompleted",
      "type": "event"
    },
    {
      "anonymous": false,
      "inputs": [
        {
          "indexed": false,
          "internalType": "address",
          "name": "depositAccount",
          "type": "address"
        },
        {
          "indexed": false,
          "internalType": "address",
          "name": "owner",
          "type": "address"
        },
        {
          "indexed": false,
          "internalType": "address",
          "name": "token",
          "type": "address"
        }
      ],
      "name": "DepositExitRejected",
      "type": "event"
    },
    {
      "anonymous": false,
      "inputs": [
        {
          "indexed": false,
          "internalType": "address",
          "name": "depositAccount",
          "type": "address"
        },
        {
          "indexed": false,
          "internalType": "address",
          "name": "owner",
          "type": "address"
        },
        {
          "indexed": false,
          "internalType": "address",
          "name": "token",
          "type": "address"
        },
        {
          "indexed": false,
          "internalType": "uint256",
          "name": "lockedUntil",
          "type": "uint256"
        }
      ],
      "name": "DepositExitRequested",
      "type": "event"
    },
    {
      "anonymous": false,
      "inputs": [
        {
          "indexed": false,
          "internalType": "address",
          "name": "depositAccount",
          "type": "address"
        },
        {
          "indexed": false,
          "internalType": "address",
          "name": "owner",
          "type": "address"
        },
        {
          "indexed": false,
          "internalType": "address",
          "name": "token",
          "type": "address"
        },
        {
          "indexed": false,
          "internalType": "uint256",
          "name": "amount",
          "type": "uint256"
        }
      ],
      "name": "DepositWithdrawn",
      "type": "event"
    },
    {
      "anonymous": false,
      "inputs": [
        {
          "indexed": false,
          "internalType": "address",
          "name": "sender",
          "type": "address"
        },
        {
          "indexed": false,
          "internalType": "address",
          "name": "guardian",
          "type": "address"
        }
      ],
      "name": "GuardianAdded",
      "type": "event"
    },
    {
      "anonymous": false,
      "inputs": [
        {
          "indexed": false,
          "internalType": "address",
          "name": "sender",
          "type": "address"
        },
        {
          "indexed": false,
          "internalType": "address",
          "name": "guardian",
          "type": "address"
        }
      ],
      "name": "GuardianRemoved",
      "type": "event"
    },
    {
      "anonymous": false,
      "inputs": [],
      "name": "Initialized",
      "type": "event"
    },
    {
      "anonymous": false,
      "inputs": [
        {
          "indexed": false,
          "internalType": "bytes32",
          "name": "hash",
          "type": "bytes32"
        },
        {
          "indexed": false,
          "internalType": "address",
          "name": "sender",
          "type": "address"
        },
        {
          "indexed": false,
          "internalType": "address",
          "name": "recipient",
          "type": "address"
        },
        {
          "indexed": false,
          "internalType": "address",
          "name": "token",
          "type": "address"
        },
        {
          "indexed": false,
          "internalType": "bytes32",
          "name": "uid",
          "type": "bytes32"
        },
        {
          "indexed": false,
          "internalType": "uint256",
          "name": "amount",
          "type": "uint256"
        }
      ],
      "name": "PaymentChannelCommitted",
      "type": "event"
    },
    {
      "anonymous": false,
      "inputs": [
        {
          "indexed": false,
          "internalType": "bytes32",
          "name": "channelHash",
          "type": "bytes32"
        },
        {
          "indexed": false,
          "internalType": "uint256",
          "name": "value",
          "type": "uint256"
        }
      ],
      "name": "PaymentDeposited",
      "type": "event"
    },
    {
      "anonymous": false,
      "inputs": [
        {
          "indexed": false,
          "internalType": "bytes32",
          "name": "channelHash",
          "type": "bytes32"
        },
        {
          "indexed": false,
          "internalType": "uint256",
          "name": "totalValue",
          "type": "uint256"
        },
        {
          "indexed": false,
          "internalType": "uint256",
          "name": "depositValue",
          "type": "uint256"
        }
      ],
      "name": "PaymentSplit",
      "type": "event"
    },
    {
      "anonymous": false,
      "inputs": [
        {
          "indexed": false,
          "internalType": "bytes32",
          "name": "channelHash",
          "type": "bytes32"
        },
        {
          "indexed": false,
          "internalType": "uint256",
          "name": "value",
          "type": "uint256"
        }
      ],
      "name": "PaymentWithdrawn",
      "type": "event"
    },
    {
      "inputs": [
        {
          "internalType": "address",
          "name": "guardian",
          "type": "address"
        }
      ],
      "name": "addGuardian",
      "outputs": [],
      "stateMutability": "nonpayable",
      "type": "function"
    },
    {
      "inputs": [
        {
          "internalType": "address",
          "name": "sender",
          "type": "address"
        },
        {
          "internalType": "address",
          "name": "token",
          "type": "address"
        },
        {
          "internalType": "bytes32",
          "name": "uid",
          "type": "bytes32"
        },
        {
          "internalType": "uint256",
          "name": "blockNumber",
          "type": "uint256"
        },
        {
          "internalType": "uint256",
          "name": "amount",
          "type": "uint256"
        },
        {
          "internalType": "bytes",
          "name": "senderSignature",
          "type": "bytes"
        },
        {
          "internalType": "bytes",
          "name": "guardianSignature",
          "type": "bytes"
        }
      ],
      "name": "commitPaymentChannelAndDeposit",
      "outputs": [],
      "stateMutability": "nonpayable",
      "type": "function"
    },
    {
      "inputs": [
        {
          "internalType": "address",
          "name": "sender",
          "type": "address"
        },
        {
          "internalType": "address",
          "name": "token",
          "type": "address"
        },
        {
          "internalType": "bytes32",
          "name": "uid",
          "type": "bytes32"
        },
        {
          "internalType": "uint256",
          "name": "blockNumber",
          "type": "uint256"
        },
        {
          "internalType": "uint256",
          "name": "amount",
          "type": "uint256"
        },
        {
          "internalType": "uint256",
          "name": "depositPaymentValue",
          "type": "uint256"
        },
        {
          "internalType": "bytes",
          "name": "senderSignature",
          "type": "bytes"
        },
        {
          "internalType": "bytes",
          "name": "guardianSignature",
          "type": "bytes"
        }
      ],
      "name": "commitPaymentChannelAndSplit",
      "outputs": [],
      "stateMutability": "nonpayable",
      "type": "function"
    },
    {
      "inputs": [
        {
          "internalType": "address",
          "name": "sender",
          "type": "address"
        },
        {
          "internalType": "address",
          "name": "token",
          "type": "address"
        },
        {
          "internalType": "bytes32",
          "name": "uid",
          "type": "bytes32"
        },
        {
          "internalType": "uint256",
          "name": "blockNumber",
          "type": "uint256"
        },
        {
          "internalType": "uint256",
          "name": "amount",
          "type": "uint256"
        },
        {
          "internalType": "bytes",
          "name": "senderSignature",
          "type": "bytes"
        },
        {
          "internalType": "bytes",
          "name": "guardianSignature",
          "type": "bytes"
        }
      ],
      "name": "commitPaymentChannelAndWithdraw",
      "outputs": [],
      "stateMutability": "nonpayable",
      "type": "function"
    },
    {
      "inputs": [
        {
          "internalType": "address",
          "name": "owner",
          "type": "address"
        }
      ],
      "name": "computeDepositAccountAddress",
      "outputs": [
        {
          "internalType": "address",
          "name": "",
          "type": "address"
        }
      ],
      "stateMutability": "view",
      "type": "function"
    },
    {
      "inputs": [
        {
          "internalType": "address",
          "name": "sender",
          "type": "address"
        },
        {
          "internalType": "address",
          "name": "recipient",
          "type": "address"
        },
        {
          "internalType": "address",
          "name": "token",
          "type": "address"
        },
        {
          "internalType": "bytes32",
          "name": "uid",
          "type": "bytes32"
        }
      ],
      "name": "computePaymentChannelHash",
      "outputs": [
        {
          "internalType": "bytes32",
          "name": "",
          "type": "bytes32"
        }
      ],
      "stateMutability": "pure",
      "type": "function"
    },
    {
      "inputs": [
        {
          "internalType": "address",
          "name": "owner",
          "type": "address"
        }
      ],
      "name": "deployDepositAccount",
      "outputs": [],
      "stateMutability": "nonpayable",
      "type": "function"
    },
    {
      "inputs": [],
      "name": "depositExitLockPeriod",
      "outputs": [
        {
          "internalType": "uint256",
          "name": "",
          "type": "uint256"
        }
      ],
      "stateMutability": "view",
      "type": "function"
    },
    {
      "inputs": [],
      "name": "externalAccountOwnerRegistry",
      "outputs": [
        {
          "internalType": "contract ExternalAccountOwnerRegistry",
          "name": "",
          "type": "address"
        }
      ],
      "stateMutability": "view",
      "type": "function"
    },
    {
      "inputs": [],
      "name": "externalAccountProofRegistry",
      "outputs": [
        {
          "internalType": "contract ExternalAccountProofRegistry",
          "name": "",
          "type": "address"
        }
      ],
      "stateMutability": "view",
      "type": "function"
    },
    {
      "inputs": [],
      "name": "gateway",
      "outputs": [
        {
          "internalType": "address",
          "name": "",
          "type": "address"
        }
      ],
      "stateMutability": "view",
      "type": "function"
    },
    {
      "inputs": [
        {
          "internalType": "address",
          "name": "owner",
          "type": "address"
        },
        {
          "internalType": "address",
          "name": "token",
          "type": "address"
        }
      ],
      "name": "getDepositExitLockedUntil",
      "outputs": [
        {
          "internalType": "uint256",
          "name": "",
          "type": "uint256"
        }
      ],
      "stateMutability": "view",
      "type": "function"
    },
    {
      "inputs": [
        {
          "internalType": "address",
          "name": "owner",
          "type": "address"
        },
        {
          "internalType": "address",
          "name": "token",
          "type": "address"
        }
      ],
      "name": "getDepositWithdrawnAmount",
      "outputs": [
        {
          "internalType": "uint256",
          "name": "",
          "type": "uint256"
        }
      ],
      "stateMutability": "view",
      "type": "function"
    },
    {
      "inputs": [
        {
          "internalType": "bytes32",
          "name": "hash",
          "type": "bytes32"
        }
      ],
      "name": "getPaymentChannelCommittedAmount",
      "outputs": [
        {
          "internalType": "uint256",
          "name": "",
          "type": "uint256"
        }
      ],
      "stateMutability": "view",
      "type": "function"
    },
    {
      "inputs": [
        {
          "components": [
            {
              "internalType": "address",
              "name": "owner",
              "type": "address"
            },
            {
              "internalType": "address",
              "name": "token",
              "type": "address"
            },
            {
              "internalType": "uint256",
              "name": "amount",
              "type": "uint256"
            }
          ],
          "internalType": "struct PaymentRegistry.DepositWithdrawal",
          "name": "depositWithdrawal",
          "type": "tuple"
        }
      ],
      "name": "hashDepositWithdrawal",
      "outputs": [
        {
          "internalType": "bytes32",
          "name": "",
          "type": "bytes32"
        }
      ],
      "stateMutability": "view",
      "type": "function"
    },
    {
      "inputs": [
        {
          "components": [
            {
              "internalType": "address",
              "name": "sender",
              "type": "address"
            },
            {
              "internalType": "address",
              "name": "recipient",
              "type": "address"
            },
            {
              "internalType": "address",
              "name": "token",
              "type": "address"
            },
            {
              "internalType": "bytes32",
              "name": "uid",
              "type": "bytes32"
            },
            {
              "internalType": "uint256",
              "name": "blockNumber",
              "type": "uint256"
            },
            {
              "internalType": "uint256",
              "name": "amount",
              "type": "uint256"
            }
          ],
          "internalType": "struct PaymentRegistry.PaymentChannelCommit",
          "name": "paymentChannelCommit",
          "type": "tuple"
        }
      ],
      "name": "hashPaymentChannelCommit",
      "outputs": [
        {
          "internalType": "bytes32",
          "name": "",
          "type": "bytes32"
        }
      ],
      "stateMutability": "view",
      "type": "function"
    },
    {
      "inputs": [
        {
          "internalType": "contract ExternalAccountOwnerRegistry",
          "name": "externalAccountOwnerRegistry_",
          "type": "address"
        },
        {
          "internalType": "contract ExternalAccountProofRegistry",
          "name": "externalAccountProofRegistry_",
          "type": "address"
        },
        {
          "internalType": "contract PersonalAccountRegistry",
          "name": "personalAccountRegistry_",
          "type": "address"
        },
        {
          "internalType": "uint256",
          "name": "depositExitLockPeriod_",
          "type": "uint256"
        },
        {
          "internalType": "address[]",
          "name": "guardians_",
          "type": "address[]"
        },
        {
          "internalType": "address",
          "name": "gateway_",
          "type": "address"
        },
        {
          "internalType": "bytes32",
          "name": "typedDataDomainNameHash",
          "type": "bytes32"
        },
        {
          "internalType": "bytes32",
          "name": "typedDataDomainVersionHash",
          "type": "bytes32"
        },
        {
          "internalType": "bytes32",
          "name": "typedDataDomainSalt",
          "type": "bytes32"
        }
      ],
      "name": "initialize",
      "outputs": [],
      "stateMutability": "nonpayable",
      "type": "function"
    },
    {
      "inputs": [
        {
          "internalType": "address",
          "name": "owner",
          "type": "address"
        }
      ],
      "name": "isDepositAccountDeployed",
      "outputs": [
        {
          "internalType": "bool",
          "name": "",
          "type": "bool"
        }
      ],
      "stateMutability": "view",
      "type": "function"
    },
    {
      "inputs": [
        {
          "internalType": "address",
          "name": "guardian",
          "type": "address"
        }
      ],
      "name": "isGuardian",
      "outputs": [
        {
          "internalType": "bool",
          "name": "",
          "type": "bool"
        }
      ],
      "stateMutability": "view",
      "type": "function"
    },
    {
      "inputs": [],
      "name": "isInitialized",
      "outputs": [
        {
          "internalType": "bool",
          "name": "",
          "type": "bool"
        }
      ],
      "stateMutability": "view",
      "type": "function"
    },
    {
      "inputs": [],
      "name": "personalAccountRegistry",
      "outputs": [
        {
          "internalType": "contract PersonalAccountRegistry",
          "name": "",
          "type": "address"
        }
      ],
      "stateMutability": "view",
      "type": "function"
    },
    {
      "inputs": [
        {
          "internalType": "address",
          "name": "token",
          "type": "address"
        }
      ],
      "name": "processDepositExit",
      "outputs": [],
      "stateMutability": "nonpayable",
      "type": "function"
    },
    {
      "inputs": [
        {
          "internalType": "address",
          "name": "guardian",
          "type": "address"
        }
      ],
      "name": "removeGuardian",
      "outputs": [],
      "stateMutability": "nonpayable",
      "type": "function"
    },
    {
      "inputs": [
        {
          "internalType": "address",
          "name": "token",
          "type": "address"
        }
      ],
      "name": "requestDepositExit",
      "outputs": [],
      "stateMutability": "nonpayable",
      "type": "function"
    },
    {
      "inputs": [],
      "name": "typedDataDomainSeparator",
      "outputs": [
        {
          "internalType": "bytes32",
          "name": "",
          "type": "bytes32"
        }
      ],
      "stateMutability": "view",
      "type": "function"
    },
    {
      "inputs": [
        {
          "internalType": "bytes32",
          "name": "messageHash",
          "type": "bytes32"
        },
        {
          "internalType": "bytes",
          "name": "signature",
          "type": "bytes"
        }
      ],
      "name": "verifyGuardianSignature",
      "outputs": [
        {
          "internalType": "bool",
          "name": "",
          "type": "bool"
        }
      ],
      "stateMutability": "view",
      "type": "function"
    },
    {
      "inputs": [
        {
          "internalType": "address",
          "name": "token",
          "type": "address"
        },
        {
          "internalType": "uint256",
          "name": "amount",
          "type": "uint256"
        },
        {
          "internalType": "bytes",
          "name": "guardianSignature",
          "type": "bytes"
        }
      ],
      "name": "withdrawDeposit",
      "outputs": [],
      "stateMutability": "nonpayable",
      "type": "function"
    }
  ],
  "bytecode": "0x608060405234801561001057600080fd5b5032600160006101000a81548173ffffffffffffffffffffffffffffffffffffffff021916908373ffffffffffffffffffffffffffffffffffffffff160217905550614ff5806100616000396000f3fe608060405234801561001057600080fd5b50600436106101a95760003560e01c806387d31313116100f9578063bdff4b3b11610097578063da1b213d11610071578063da1b213d146104f2578063dc12930e1461050e578063dc7d6c311461052c578063df0433801461055c576101a9565b8063bdff4b3b14610474578063c36326e714610492578063d0f710d6146104c2576101a9565b80639a85fae2116100d35780639a85fae214610402578063a526d83b1461041e578063b0274a731461043a578063bd106a0214610456576101a9565b806387d31313146103985780638a1773ab146103b65780639130c06e146103e6576101a9565b80635725839a116101665780636524a947116101405780636524a947146103145780636866da5214610330578063714041561461034c57806384389a2b14610368576101a9565b80635725839a1461029657806360bf4df2146102b45780636121fcfc146102e4576101a9565b80630c68ba21146101ae578063116191b6146101de5780632361a7b2146101fc5780632e4f161e146102185780632e7037a014610248578063392e53cd14610278575b600080fd5b6101c860048036038101906101c391906131c0565b610578565b6040516101d591906142d5565b60405180910390f35b6101e66105cd565b6040516101f39190614117565b60405180910390f35b610216600480360381019061021191906135a0565b6105f3565b005b610232600480360381019061022d9190613225565b61083e565b60405161023f91906142f0565b60405180910390f35b610262600480360381019061025d9190613683565b610856565b60405161026f91906142f0565b60405180910390f35b61028061087e565b60405161028d91906142d5565b60405180910390f35b61029e6108d6565b6040516102ab9190614541565b60405180910390f35b6102ce60048036038101906102c991906131c0565b6108fc565b6040516102db9190614117565b60405180910390f35b6102fe60048036038101906102f991906131c0565b61090e565b60405161030b91906142d5565b60405180910390f35b61032e600480360381019061032991906131c0565b6109a9565b005b61034a60048036038101906103459190613449565b6109b5565b005b610366600480360381019061036191906131c0565b610ce2565b005b610382600480360381019061037d91906136ac565b610efa565b60405161038f91906142f0565b60405180910390f35b6103a0610f31565b6040516103ad919061455c565b60405180910390f35b6103d060048036038101906103cb91906134de565b610f57565b6040516103dd9190614859565b60405180910390f35b61040060048036038101906103fb91906131c0565b610f77565b005b61041c60048036038101906104179190613288565b6112ab565b005b610438600480360381019061043391906131c0565b6113b6565b005b610454600480360381019061044f91906131c0565b61144d565b005b61045e611668565b60405161046b91906142f0565b60405180910390f35b61047c61166e565b6040516104899190614859565b60405180910390f35b6104ac60048036038101906104a791906131e9565b611674565b6040516104b99190614859565b60405180910390f35b6104dc60048036038101906104d79190613507565b6116fe565b6040516104e991906142d5565b60405180910390f35b61050c6004803603810190610507919061335e565b611757565b005b61051661185e565b6040516105239190614526565b60405180910390f35b610546600480360381019061054191906131e9565b611884565b6040516105539190614859565b60405180910390f35b61057660048036038101906105719190613288565b61190e565b005b60008060008373ffffffffffffffffffffffffffffffffffffffff1673ffffffffffffffffffffffffffffffffffffffff16815260200190815260200160002060009054906101000a900460ff169050919050565b600360009054906101000a900473ffffffffffffffffffffffffffffffffffffffff1681565b600160009054906101000a900473ffffffffffffffffffffffffffffffffffffffff1673ffffffffffffffffffffffffffffffffffffffff163273ffffffffffffffffffffffffffffffffffffffff1614610683576040517f08c379a000000000000000000000000000000000000000000000000000000000815260040161067a906145f9565b60405180910390fd5b6000600160006101000a81548173ffffffffffffffffffffffffffffffffffffffff021916908373ffffffffffffffffffffffffffffffffffffffff16021790555089600460006101000a81548173ffffffffffffffffffffffffffffffffffffffff021916908373ffffffffffffffffffffffffffffffffffffffff16021790555088600560006101000a81548173ffffffffffffffffffffffffffffffffffffffff021916908373ffffffffffffffffffffffffffffffffffffffff16021790555087600660006101000a81548173ffffffffffffffffffffffffffffffffffffffff021916908373ffffffffffffffffffffffffffffffffffffffff16021790555060008714156107a0576224ea006007819055506107a8565b866007819055505b6107f2868680806020026020016040519081016040528093929190818152602001838360200280828437600081840152601f19601f82011690508083019250505050505050611a11565b6107fb84611a69565b610806838383611aad565b7f5daa87a0e9463431830481fd4b6e3403442dfb9a12b9c07597e9f61d50b633c860405160405180910390a150505050505050505050565b600061084c85858585611b0f565b9050949350505050565b6000610877610872836000015184602001518560400151611b48565b611ba0565b9050919050565b60008073ffffffffffffffffffffffffffffffffffffffff16600160009054906101000a900473ffffffffffffffffffffffffffffffffffffffff1673ffffffffffffffffffffffffffffffffffffffff1614905090565b600560009054906101000a900473ffffffffffffffffffffffffffffffffffffffff1681565b600061090782611c0b565b9050919050565b60008073ffffffffffffffffffffffffffffffffffffffff16600860008473ffffffffffffffffffffffffffffffffffffffff1673ffffffffffffffffffffffffffffffffffffffff16815260200190815260200160002060000160009054906101000a900473ffffffffffffffffffffffffffffffffffffffff1673ffffffffffffffffffffffffffffffffffffffff1614159050919050565b6109b281611c48565b50565b60006109bf611e33565b90506000610a55600860008473ffffffffffffffffffffffffffffffffffffffff1673ffffffffffffffffffffffffffffffffffffffff16815260200190815260200160002060010160008873ffffffffffffffffffffffffffffffffffffffff1673ffffffffffffffffffffffffffffffffffffffff1681526020019081526020016000205486611e4490919063ffffffff16565b905060008111610a9a576040517f08c379a0000000000000000000000000000000000000000000000000000000008152600401610a91906146f9565b60405180910390fd5b6000610aaf610aaa848989611b48565b611ba0565b9050610aff8186868080601f016020809104026020016040519081016040528093929190818152602001838380828437600081840152601f19601f82011690508083019250505050505050611e71565b610b3e576040517f08c379a0000000000000000000000000000000000000000000000000000000008152600401610b3590614839565b60405180910390fd5b85600860008573ffffffffffffffffffffffffffffffffffffffff1673ffffffffffffffffffffffffffffffffffffffff16815260200190815260200160002060010160008973ffffffffffffffffffffffffffffffffffffffff1673ffffffffffffffffffffffffffffffffffffffff16815260200190815260200160002081905550610bcc8388611ede565b610c3a600860008573ffffffffffffffffffffffffffffffffffffffff1673ffffffffffffffffffffffffffffffffffffffff16815260200190815260200160002060000160009054906101000a900473ffffffffffffffffffffffffffffffffffffffff1684898561209b565b7f95f66b073d65f18e43f6b76c7ab8557787f5f766d86cab7c9c76f41be9f8abc6600860008573ffffffffffffffffffffffffffffffffffffffff1673ffffffffffffffffffffffffffffffffffffffff16815260200190815260200160002060000160009054906101000a900473ffffffffffffffffffffffffffffffffffffffff16848989604051610cd194939291906141bb565b60405180910390a150505050505050565b6000803273ffffffffffffffffffffffffffffffffffffffff1673ffffffffffffffffffffffffffffffffffffffff16815260200190815260200160002060009054906101000a900460ff16610d6d576040517f08c379a0000000000000000000000000000000000000000000000000000000008152600401610d64906146d9565b60405180910390fd5b8073ffffffffffffffffffffffffffffffffffffffff163273ffffffffffffffffffffffffffffffffffffffff161415610ddc576040517f08c379a0000000000000000000000000000000000000000000000000000000008152600401610dd3906147f9565b60405180910390fd5b6000808273ffffffffffffffffffffffffffffffffffffffff1673ffffffffffffffffffffffffffffffffffffffff16815260200190815260200160002060009054906101000a900460ff16610e67576040517f08c379a0000000000000000000000000000000000000000000000000000000008152600401610e5e90614799565b60405180910390fd5b60008060008373ffffffffffffffffffffffffffffffffffffffff1673ffffffffffffffffffffffffffffffffffffffff16815260200190815260200160002060006101000a81548160ff0219169083151502179055507fee943cdb81826d5909c559c6b1ae6908fcaf2dbc16c4b730346736b486283e8b3282604051610eef929190614132565b60405180910390a150565b6000610f2a610f25836000015184602001518560400151866060015187608001518860a0015161221b565b611ba0565b9050919050565b600660009054906101000a900473ffffffffffffffffffffffffffffffffffffffff1681565b600060096000838152602001908152602001600020600001549050919050565b6000610f81611e33565b90506000600860008373ffffffffffffffffffffffffffffffffffffffff1673ffffffffffffffffffffffffffffffffffffffff16815260200190815260200160002060020160008473ffffffffffffffffffffffffffffffffffffffff1673ffffffffffffffffffffffffffffffffffffffff168152602001908152602001600020549050600081141561104b576040517f08c379a000000000000000000000000000000000000000000000000000000000815260040161104290614699565b60405180910390fd5b4281111561108e576040517f08c379a000000000000000000000000000000000000000000000000000000000815260040161108590614719565b60405180910390fd5b6000600860008473ffffffffffffffffffffffffffffffffffffffff1673ffffffffffffffffffffffffffffffffffffffff16815260200190815260200160002060020160008573ffffffffffffffffffffffffffffffffffffffff1673ffffffffffffffffffffffffffffffffffffffff168152602001908152602001600020819055506000600860008473ffffffffffffffffffffffffffffffffffffffff1673ffffffffffffffffffffffffffffffffffffffff16815260200190815260200160002060000160009054906101000a900473ffffffffffffffffffffffffffffffffffffffff16905060008073ffffffffffffffffffffffffffffffffffffffff168573ffffffffffffffffffffffffffffffffffffffff1614156111cf578173ffffffffffffffffffffffffffffffffffffffff1631905061125b565b8473ffffffffffffffffffffffffffffffffffffffff166370a08231836040518263ffffffff1660e01b81526004016112089190614117565b60206040518083038186803b15801561122057600080fd5b505afa158015611234573d6000803e3d6000fd5b505050506040513d601f19601f8201168201806040525081019061125891906136d5565b90505b6112678285878461209b565b7f5300d9a2838baade7cdc628c82cb80c1298853ba5f389d51e2b47330336aeffc8285878460405161129c94939291906141bb565b60405180910390a15050505050565b60006112b5611e33565b905060008060006113548d858e8e8e8e8e8e8080601f016020809104026020016040519081016040528093929190818152602001838380828437600081840152601f19601f820116905080830192505050505050508d8d8080601f016020809104026020016040519081016040528093929190818152602001838380828437600081840152601f19601f8201169050808301925050505050505061227c565b92509250925061136e8261136786611c0b565b8e8461209b565b7f771bc0494e1a2fcbef19a8762845000d8c4500454c756a7370c955e39ed60fd4838260405161139f929190614481565b60405180910390a150505050505050505050505050565b6000803273ffffffffffffffffffffffffffffffffffffffff1673ffffffffffffffffffffffffffffffffffffffff16815260200190815260200160002060009054906101000a900460ff16611441576040517f08c379a0000000000000000000000000000000000000000000000000000000008152600401611438906146d9565b60405180910390fd5b61144a81612728565b50565b6000611457611e33565b90506000600860008373ffffffffffffffffffffffffffffffffffffffff1673ffffffffffffffffffffffffffffffffffffffff16815260200190815260200160002060020160008473ffffffffffffffffffffffffffffffffffffffff1673ffffffffffffffffffffffffffffffffffffffff16815260200190815260200160002054905060008114611520576040517f08c379a000000000000000000000000000000000000000000000000000000000815260040161151790614639565b60405180910390fd5b61152982611c48565b61153e600754426128b790919063ffffffff16565b905080600860008473ffffffffffffffffffffffffffffffffffffffff1673ffffffffffffffffffffffffffffffffffffffff16815260200190815260200160002060020160008573ffffffffffffffffffffffffffffffffffffffff1673ffffffffffffffffffffffffffffffffffffffff168152602001908152602001600020819055507fed3c8c6cdfc6d7b91dc9db3e1f54866587c26c3c3e0f9e32cd1944974be43a50600860008473ffffffffffffffffffffffffffffffffffffffff1673ffffffffffffffffffffffffffffffffffffffff16815260200190815260200160002060000160009054906101000a900473ffffffffffffffffffffffffffffffffffffffff1683858460405161165b94939291906141bb565b60405180910390a1505050565b60025481565b60075481565b6000600860008473ffffffffffffffffffffffffffffffffffffffff1673ffffffffffffffffffffffffffffffffffffffff16815260200190815260200160002060010160008373ffffffffffffffffffffffffffffffffffffffff1673ffffffffffffffffffffffffffffffffffffffff16815260200190815260200160002054905092915050565b600061174e8484848080601f016020809104026020016040519081016040528093929190818152602001838380828437600081840152601f19601f82011690508083019250505050505050611e71565b90509392505050565b6000611761611e33565b905060008060006118008e858f8f8f8f8e8e8080601f016020809104026020016040519081016040528093929190818152602001838380828437600081840152601f19601f820116905080830192505050505050508d8d8080601f016020809104026020016040519081016040528093929190818152602001838380828437600081840152601f19601f8201169050808301925050505050505061227c565b92509250925061181382858f848d61290c565b7f8b67efde501ee9cd0e771f7436554c44a5c076239ff3a6fbb397646a4689c0f283828b604051611846939291906144aa565b60405180910390a15050505050505050505050505050565b600460009054906101000a900473ffffffffffffffffffffffffffffffffffffffff1681565b6000600860008473ffffffffffffffffffffffffffffffffffffffff1673ffffffffffffffffffffffffffffffffffffffff16815260200190815260200160002060020160008373ffffffffffffffffffffffffffffffffffffffff1673ffffffffffffffffffffffffffffffffffffffff16815260200190815260200160002054905092915050565b6000611918611e33565b905060008060006119b78d858e8e8e8e8e8e8080601f016020809104026020016040519081016040528093929190818152602001838380828437600081840152601f19601f820116905080830192505050505050508d8d8080601f016020809104026020016040519081016040528093929190818152602001838380828437600081840152601f19601f8201169050808301925050505050505061227c565b9250925092506119c982858e8461209b565b7f6675346cd43846f7d47c310d39fb5c15bc7db66b3770338cdf1f133613a5ae9883826040516119fa929190614481565b60405180910390a150505050505050505050505050565b600081511415611a2957611a2432612728565b611a66565b60008151905060005b81811015611a6357611a56838281518110611a4957fe5b6020026020010151612728565b8080600101915050611a32565b50505b50565b80600360006101000a81548173ffffffffffffffffffffffffffffffffffffffff021916908373ffffffffffffffffffffffffffffffffffffffff16021790555050565b60004690507fd87cd6ef79d4e2b95e15ce8abf732db51ec771f1ca2edccf22a46c729ac564728484833086604051602001611aed96959493929190614420565b6040516020818303038152906040528051906020012060028190555050505050565b600084848484604051602001611b289493929190614042565b604051602081830303815290604052805190602001209050949350505050565b60007f3b3087c8f883f1f44cabe66444f5f9d96f69de6a88f364ea10959eef0331414a848484604051602001611b8194939291906143db565b6040516020818303038152906040528051906020012090509392505050565b60006040518060400160405280600281526020017f190100000000000000000000000000000000000000000000000000000000000081525060025483604051602001611bee939291906140de565b604051602081830303815290604052805190602001209050919050565b60008082604051602001611c1f9190614027565b604051602081830303815290604052805190602001209050611c40816129d1565b915050919050565b600073ffffffffffffffffffffffffffffffffffffffff16600860008373ffffffffffffffffffffffffffffffffffffffff1673ffffffffffffffffffffffffffffffffffffffff16815260200190815260200160002060000160009054906101000a900473ffffffffffffffffffffffffffffffffffffffff1673ffffffffffffffffffffffffffffffffffffffff161415611e3057600081604051602001611cf29190614027565b604051602081830303815290604052805190602001209050611d1381612a44565b600860008473ffffffffffffffffffffffffffffffffffffffff1673ffffffffffffffffffffffffffffffffffffffff16815260200190815260200160002060000160006101000a81548173ffffffffffffffffffffffffffffffffffffffff021916908373ffffffffffffffffffffffffffffffffffffffff1602179055507fd80572c0f2f24f2d9d726d831bd860ed82b12bafaf01cfb6e4d38fb23c4347e9600860008473ffffffffffffffffffffffffffffffffffffffff1673ffffffffffffffffffffffffffffffffffffffff16815260200190815260200160002060000160009054906101000a900473ffffffffffffffffffffffffffffffffffffffff1683604051611e2692919061415b565b60405180910390a1505b50565b6000611e3f6028612a7b565b905090565b6000611e698383604051806060016040528060218152602001614fc860219139612b10565b905092915050565b600080611e878385612b6b90919063ffffffff16565b90506000808273ffffffffffffffffffffffffffffffffffffffff1673ffffffffffffffffffffffffffffffffffffffff16815260200190815260200160002060009054906101000a900460ff1691505092915050565b6000600860008473ffffffffffffffffffffffffffffffffffffffff1673ffffffffffffffffffffffffffffffffffffffff16815260200190815260200160002060020160008373ffffffffffffffffffffffffffffffffffffffff1673ffffffffffffffffffffffffffffffffffffffff16815260200190815260200160002054111561208d576000600860008473ffffffffffffffffffffffffffffffffffffffff1673ffffffffffffffffffffffffffffffffffffffff16815260200190815260200160002060020160008373ffffffffffffffffffffffffffffffffffffffff1673ffffffffffffffffffffffffffffffffffffffff168152602001908152602001600020819055507fa19281a6f3163da06f6b82f3ecf0130493c52aba23cdc2a312f652742f0d1801600860008473ffffffffffffffffffffffffffffffffffffffff1673ffffffffffffffffffffffffffffffffffffffff16815260200190815260200160002060000160009054906101000a900473ffffffffffffffffffffffffffffffffffffffff16838360405161208093929190614184565b60405180910390a1612097565b61209682611c48565b5b5050565b600073ffffffffffffffffffffffffffffffffffffffff168273ffffffffffffffffffffffffffffffffffffffff16141561212d57612127848483600067ffffffffffffffff811180156120ee57600080fd5b506040519080825280601f01601f1916602001820160405280156121215781602001600182028036833780820191505090505b50612c26565b50612215565b60606121b38584600063a9059cbb60e01b888760405160240161215192919061426e565b604051602081830303815290604052907bffffffffffffffffffffffffffffffffffffffffffffffffffffffff19166020820180517bffffffffffffffffffffffffffffffffffffffffffffffffffffffff8381831617835250505050612c26565b905060008151111561221357808060200190518101906121d391906134b5565b612212576040517f08c379a0000000000000000000000000000000000000000000000000000000008152600401612209906146b9565b60405180910390fd5b5b505b50505050565b60007f745089e29f2abf28f618236a5dc04d214ac05ead3440ba532b69e9d160ba2e7287878787878760405160200161225a979695949392919061436c565b6040516020818303038152906040528051906020012090509695505050505050565b6000806000806122986122938d8d8d8d8d8d61221b565b611ba0565b905060008651141561239757600560009054906101000a900473ffffffffffffffffffffffffffffffffffffffff1673ffffffffffffffffffffffffffffffffffffffff166359b52ef88d838b6040518463ffffffff1660e01b815260040161230393929190614237565b60206040518083038186803b15801561231b57600080fd5b505afa15801561232f573d6000803e3d6000fd5b505050506040513d601f19601f8201168201806040525081019061235391906134b5565b612392576040517f08c379a000000000000000000000000000000000000000000000000000000000815260040161238990614839565b60405180910390fd5b612588565b60006123ac8783612b6b90919063ffffffff16565b90508073ffffffffffffffffffffffffffffffffffffffff168d73ffffffffffffffffffffffffffffffffffffffff161461258657600660009054906101000a900473ffffffffffffffffffffffffffffffffffffffff1673ffffffffffffffffffffffffffffffffffffffff166334d323a48e838c6040518463ffffffff1660e01b815260040161244093929190614200565b60206040518083038186803b15801561245857600080fd5b505afa15801561246c573d6000803e3d6000fd5b505050506040513d601f19601f8201168201806040525081019061249091906134b5565b806125465750600460009054906101000a900473ffffffffffffffffffffffffffffffffffffffff1673ffffffffffffffffffffffffffffffffffffffff166334d323a48e838c6040518463ffffffff1660e01b81526004016124f593929190614200565b60206040518083038186803b15801561250d57600080fd5b505afa158015612521573d6000803e3d6000fd5b505050506040513d601f19601f8201168201806040525081019061254591906134b5565b5b612585576040517f08c379a000000000000000000000000000000000000000000000000000000000815260040161257c90614779565b60405180910390fd5b5b505b6125928186611e71565b6125d1576040517f08c379a00000000000000000000000000000000000000000000000000000000081526004016125c890614839565b60405180910390fd5b6125dd8c8c8c8c611b0f565b9350612608600960008681526020019081526020016000206000015488611e4490919063ffffffff16565b9150600082141561264e576040517f08c379a000000000000000000000000000000000000000000000000000000000815260040161264590614659565b60405180910390fd5b8660096000868152602001908152602001600020600001819055506126738c8b611ede565b600860008d73ffffffffffffffffffffffffffffffffffffffff1673ffffffffffffffffffffffffffffffffffffffff16815260200190815260200160002060000160009054906101000a900473ffffffffffffffffffffffffffffffffffffffff1692507f0d1cb77d1fe491f98926195d0b885509da18bc305dd1489f45610237d971ed46848d8d8d8d8c6040516127119695949392919061430b565b60405180910390a150985098509895505050505050565b600073ffffffffffffffffffffffffffffffffffffffff168173ffffffffffffffffffffffffffffffffffffffff161415612798576040517f08c379a000000000000000000000000000000000000000000000000000000000815260040161278f906145d9565b60405180910390fd5b6000808273ffffffffffffffffffffffffffffffffffffffff1673ffffffffffffffffffffffffffffffffffffffff16815260200190815260200160002060009054906101000a900460ff1615612824576040517f08c379a000000000000000000000000000000000000000000000000000000000815260040161281b906147d9565b60405180910390fd5b60016000808373ffffffffffffffffffffffffffffffffffffffff1673ffffffffffffffffffffffffffffffffffffffff16815260200190815260200160002060006101000a81548160ff0219169083151502179055507fbc3292102fa77e083913064b282926717cdfaede4d35f553d66366c0a3da755a32826040516128ac929190614132565b60405180910390a150565b600080828401905083811015612902576040517f08c379a00000000000000000000000000000000000000000000000000000000081526004016128f9906147b9565b60405180910390fd5b8091505092915050565b6000811161294f576040517f08c379a000000000000000000000000000000000000000000000000000000000815260040161294690614599565b60405180910390fd5b60006129648284611e4490919063ffffffff16565b9050600081116129a9576040517f08c379a00000000000000000000000000000000000000000000000000000000081526004016129a090614739565b60405180910390fd5b6129b58686868461209b565b6129c9866129c287611c0b565b868561209b565b505050505050565b60006060604051806020016129e590612f27565b6020820181038252601f19601f820116604052509050600060ff60f81b30858480519060200120604051602001612a1f9493929190614090565b6040516020818303038152906040528051906020012090508060001c92505050919050565b600081604051612a5390612f27565b8190604051809103906000f5905080158015612a73573d6000803e3d6000fd5b509050919050565b60008060009050612a8a612e14565b15612b03576000836000369050039050612afb60003683906014850192612ab393929190614910565b8080601f016020809104026020016040519081016040528093929190818152602001838380828437600081840152601f19601f82011690508083019250505050505050612ec1565b915050612b07565b3390505b80915050919050565b6000838311158290612b58576040517f08c379a0000000000000000000000000000000000000000000000000000000008152600401612b4f9190614577565b60405180910390fd5b5060008385039050809150509392505050565b60008060009050604183511415612c1c5760008060006020860151925060408601519150606086015160001a9050601b8160ff161015612bac57601b810190505b601b8160ff161480612bc15750601c8160ff16145b15612c185760018782858560405160008152602001604052604051612be994939291906144e1565b6020604051602081039080840390855afa158015612c0b573d6000803e3d6000fd5b5050506020604051035193505b5050505b8091505092915050565b6060600073ffffffffffffffffffffffffffffffffffffffff168473ffffffffffffffffffffffffffffffffffffffff161415612c98576040517f08c379a0000000000000000000000000000000000000000000000000000000008152600401612c8f90614619565b60405180910390fd5b3073ffffffffffffffffffffffffffffffffffffffff168473ffffffffffffffffffffffffffffffffffffffff161415612d07576040517f08c379a0000000000000000000000000000000000000000000000000000000008152600401612cfe90614759565b60405180910390fd5b8473ffffffffffffffffffffffffffffffffffffffff168473ffffffffffffffffffffffffffffffffffffffff161415612d76576040517f08c379a0000000000000000000000000000000000000000000000000000000008152600401612d6d906145b9565b60405180910390fd5b8473ffffffffffffffffffffffffffffffffffffffff16633f579f428585856040518463ffffffff1660e01b8152600401612db393929190614297565b600060405180830381600087803b158015612dcd57600080fd5b505af1158015612de1573d6000803e3d6000fd5b505050506040513d6000823e3d601f19601f82011682018060405250810190612e0a919061355f565b9050949350505050565b600080600360009054906101000a900473ffffffffffffffffffffffffffffffffffffffff1673ffffffffffffffffffffffffffffffffffffffff163373ffffffffffffffffffffffffffffffffffffffff161415612eba57602c60003690501015612eb5576040517f08c379a0000000000000000000000000000000000000000000000000000000008152600401612eac90614679565b60405180910390fd5b600190505b8091505090565b6000806014835114612f08576040517f08c379a0000000000000000000000000000000000000000000000000000000008152600401612eff90614819565b60405180910390fd5b6c01000000000000000000000000602084015104905080915050919050565b6103f780614bd183390190565b600081359050612f4381614b2f565b92915050565b60008083601f840112612f5b57600080fd5b8235905067ffffffffffffffff811115612f7457600080fd5b602083019150836020820283011115612f8c57600080fd5b9250929050565b600081519050612fa281614b46565b92915050565b600081359050612fb781614b5d565b92915050565b60008083601f840112612fcf57600080fd5b8235905067ffffffffffffffff811115612fe857600080fd5b60208301915083600182028301111561300057600080fd5b9250929050565b600082601f83011261301857600080fd5b815161302b613026826148a1565b614874565b9150808252602083016020830185838301111561304757600080fd5b613052838284614aa6565b50505092915050565b60008135905061306a81614b74565b92915050565b60008135905061307f81614b8b565b92915050565b60008135905061309481614ba2565b92915050565b6000606082840312156130ac57600080fd5b6130b66060614874565b905060006130c684828501612f34565b60008301525060206130da84828501612f34565b60208301525060406130ee84828501613196565b60408301525092915050565b600060c0828403121561310c57600080fd5b61311660c0614874565b9050600061312684828501612f34565b600083015250602061313a84828501612f34565b602083015250604061314e84828501612f34565b604083015250606061316284828501612fa8565b606083015250608061317684828501613196565b60808301525060a061318a84828501613196565b60a08301525092915050565b6000813590506131a581614bb9565b92915050565b6000815190506131ba81614bb9565b92915050565b6000602082840312156131d257600080fd5b60006131e084828501612f34565b91505092915050565b600080604083850312156131fc57600080fd5b600061320a85828601612f34565b925050602061321b85828601612f34565b9150509250929050565b6000806000806080858703121561323b57600080fd5b600061324987828801612f34565b945050602061325a87828801612f34565b935050604061326b87828801612f34565b925050606061327c87828801612fa8565b91505092959194509250565b600080600080600080600080600060e08a8c0312156132a657600080fd5b60006132b48c828d01612f34565b99505060206132c58c828d01612f34565b98505060406132d68c828d01612fa8565b97505060606132e78c828d01613196565b96505060806132f88c828d01613196565b95505060a08a013567ffffffffffffffff81111561331557600080fd5b6133218c828d01612fbd565b945094505060c08a013567ffffffffffffffff81111561334057600080fd5b61334c8c828d01612fbd565b92509250509295985092959850929598565b6000806000806000806000806000806101008b8d03121561337e57600080fd5b600061338c8d828e01612f34565b9a5050602061339d8d828e01612f34565b99505060406133ae8d828e01612fa8565b98505060606133bf8d828e01613196565b97505060806133d08d828e01613196565b96505060a06133e18d828e01613196565b95505060c08b013567ffffffffffffffff8111156133fe57600080fd5b61340a8d828e01612fbd565b945094505060e08b013567ffffffffffffffff81111561342957600080fd5b6134358d828e01612fbd565b92509250509295989b9194979a5092959850565b6000806000806060858703121561345f57600080fd5b600061346d87828801612f34565b945050602061347e87828801613196565b935050604085013567ffffffffffffffff81111561349b57600080fd5b6134a787828801612fbd565b925092505092959194509250565b6000602082840312156134c757600080fd5b60006134d584828501612f93565b91505092915050565b6000602082840312156134f057600080fd5b60006134fe84828501612fa8565b91505092915050565b60008060006040848603121561351c57600080fd5b600061352a86828701612fa8565b935050602084013567ffffffffffffffff81111561354757600080fd5b61355386828701612fbd565b92509250509250925092565b60006020828403121561357157600080fd5b600082015167ffffffffffffffff81111561358b57600080fd5b61359784828501613007565b91505092915050565b6000806000806000806000806000806101208b8d0312156135c057600080fd5b60006135ce8d828e0161305b565b9a505060206135df8d828e01613070565b99505060406135f08d828e01613085565b98505060606136018d828e01613196565b97505060808b013567ffffffffffffffff81111561361e57600080fd5b61362a8d828e01612f49565b965096505060a061363d8d828e01612f34565b94505060c061364e8d828e01612fa8565b93505060e061365f8d828e01612fa8565b9250506101006136718d828e01612fa8565b9150509295989b9194979a5092959850565b60006060828403121561369557600080fd5b60006136a38482850161309a565b91505092915050565b600060c082840312156136be57600080fd5b60006136cc848285016130fa565b91505092915050565b6000602082840312156136e757600080fd5b60006136f5848285016131ab565b91505092915050565b61370781614a04565b82525050565b61371681614943565b82525050565b61372d61372882614943565b614ad9565b82525050565b61373c81614955565b82525050565b61375361374e82614961565b614aeb565b82525050565b6137628161498d565b82525050565b6137796137748261498d565b614af5565b82525050565b600061378a826148cd565b61379481856148e3565b93506137a4818560208601614aa6565b6137ad81614b11565b840191505092915050565b6137c181614a16565b82525050565b6137d081614a3a565b82525050565b6137df81614a5e565b82525050565b60006137f0826148d8565b6137fa81856148f4565b935061380a818560208601614aa6565b61381381614b11565b840191505092915050565b6000613829826148d8565b6138338185614905565b9350613843818560208601614aa6565b80840191505092915050565b600061385c6026836148f4565b91507f5061796d656e7452656769737472793a20696e76616c6964206465706f73697460008301527f2076616c756500000000000000000000000000000000000000000000000000006020830152604082019050919050565b60006138c26026836148f4565b91507f4163636f756e74436f6e74726f6c6c65723a2063616e6e6f742073656e64207460008301527f6f2073656c6600000000000000000000000000000000000000000000000000006020830152604082019050919050565b60006139286020836148f4565b91507f477561726465643a2063616e6e6f74206164642030783020677561726469616e6000830152602082019050919050565b6000613968602f836148f4565b91507f496e697469616c697a61626c653a2074782e6f726967696e206973206e6f742060008301527f74686520696e697469616c697a657200000000000000000000000000000000006020830152604082019050919050565b60006139ce6025836148f4565b91507f4163636f756e74436f6e74726f6c6c65723a2063616e6e6f742073656e64207460008301527f6f203078300000000000000000000000000000000000000000000000000000006020830152604082019050919050565b6000613a34602f836148f4565b91507f5061796d656e7452656769737472793a206465706f736974206578697420616c60008301527f72656164792072657175657374656400000000000000000000000000000000006020830152604082019050919050565b6000613a9a6026836148f4565b91507f5061796d656e7452656769737472793a20696e76616c6964207061796d656e7460008301527f2076616c756500000000000000000000000000000000000000000000000000006020830152604082019050919050565b6000613b006022836148f4565b91507f47617465776179526563697069656e743a20696e76616c6964206d73672e646160008301527f74610000000000000000000000000000000000000000000000000000000000006020830152604082019050919050565b6000613b66602b836148f4565b91507f5061796d656e7452656769737472793a206465706f7369742065786974206e6f60008301527f74207265717565737465640000000000000000000000000000000000000000006020830152604082019050919050565b6000613bcc602d836148f4565b91507f5061796d656e7452656769737472793a204552433230546f6b656e207472616e60008301527f73666572207265766572746564000000000000000000000000000000000000006020830152604082019050919050565b6000613c326026836148f4565b91507f477561726465643a2074782e6f726967696e206973206e6f742074686520677560008301527f61726469616e00000000000000000000000000000000000000000000000000006020830152604082019050919050565b6000613c98601f836148f4565b91507f5061796d656e7452656769737472793a20696e76616c696420616d6f756e74006000830152602082019050919050565b6000613cd86024836148f4565b91507f5061796d656e7452656769737472793a206465706f7369742065786974206c6f60008301527f636b6564000000000000000000000000000000000000000000000000000000006020830152604082019050919050565b6000613d3e6027836148f4565b91507f5061796d656e7452656769737472793a20696e76616c6964207769746864726160008301527f772076616c7565000000000000000000000000000000000000000000000000006020830152604082019050919050565b6000613da4602c836148f4565b91507f4163636f756e74436f6e74726f6c6c65723a2063616e6e6f742073656e64207460008301527f6f20636f6e74726f6c6c657200000000000000000000000000000000000000006020830152604082019050919050565b6000613e0a6029836148f4565b91507f5061796d656e7452656769737472793a20696e76616c69642073656e6465722060008301527f7369676e617475726500000000000000000000000000000000000000000000006020830152604082019050919050565b6000613e70601f836148f4565b91507f477561726465643a20677561726469616e20646f65736e2774206578697374006000830152602082019050919050565b6000613eb0601e836148f4565b91507f536166654d6174684c69623a206164646974696f6e206f766572666c6f7700006000830152602082019050919050565b6000613ef06020836148f4565b91507f477561726465643a20677561726469616e20616c7265616479206578697374736000830152602082019050919050565b6000613f30601b836148f4565b91507f477561726465643a2063616e6e6f742072656d6f76652073656c6600000000006000830152602082019050919050565b6000613f70601d836148f4565b91507f42797465734c69623a20696e76616c69642064617461206c656e6774680000006000830152602082019050919050565b6000613fb0602b836148f4565b91507f5061796d656e7452656769737472793a20696e76616c6964206775617264696160008301527f6e207369676e61747572650000000000000000000000000000000000000000006020830152604082019050919050565b614012816149ed565b82525050565b614021816149f7565b82525050565b6000614033828461371c565b60148201915081905092915050565b600061404e828761371c565b60148201915061405e828661371c565b60148201915061406e828561371c565b60148201915061407e8284613768565b60208201915081905095945050505050565b600061409c8287613742565b6001820191506140ac828661371c565b6014820191506140bc8285613768565b6020820191506140cc8284613768565b60208201915081905095945050505050565b60006140ea828661381e565b91506140f68285613768565b6020820191506141068284613768565b602082019150819050949350505050565b600060208201905061412c600083018461370d565b92915050565b600060408201905061414760008301856136fe565b614154602083018461370d565b9392505050565b6000604082019050614170600083018561370d565b61417d602083018461370d565b9392505050565b6000606082019050614199600083018661370d565b6141a6602083018561370d565b6141b3604083018461370d565b949350505050565b60006080820190506141d0600083018761370d565b6141dd602083018661370d565b6141ea604083018561370d565b6141f76060830184614009565b95945050505050565b6000606082019050614215600083018661370d565b614222602083018561370d565b61422f6040830184614009565b949350505050565b600060608201905061424c600083018661370d565b6142596020830185613759565b6142666040830184614009565b949350505050565b6000604082019050614283600083018561370d565b6142906020830184614009565b9392505050565b60006060820190506142ac600083018661370d565b6142b96020830185614009565b81810360408301526142cb818461377f565b9050949350505050565b60006020820190506142ea6000830184613733565b92915050565b60006020820190506143056000830184613759565b92915050565b600060c0820190506143206000830189613759565b61432d602083018861370d565b61433a604083018761370d565b614347606083018661370d565b6143546080830185613759565b61436160a0830184614009565b979650505050505050565b600060e082019050614381600083018a613759565b61438e602083018961370d565b61439b604083018861370d565b6143a8606083018761370d565b6143b56080830186613759565b6143c260a0830185614009565b6143cf60c0830184614009565b98975050505050505050565b60006080820190506143f06000830187613759565b6143fd602083018661370d565b61440a604083018561370d565b6144176060830184614009565b95945050505050565b600060c0820190506144356000830189613759565b6144426020830188613759565b61444f6040830187613759565b61445c6060830186614009565b614469608083018561370d565b61447660a0830184613759565b979650505050505050565b60006040820190506144966000830185613759565b6144a36020830184614009565b9392505050565b60006060820190506144bf6000830186613759565b6144cc6020830185614009565b6144d96040830184614009565b949350505050565b60006080820190506144f66000830187613759565b6145036020830186614018565b6145106040830185613759565b61451d6060830184613759565b95945050505050565b600060208201905061453b60008301846137b8565b92915050565b600060208201905061455660008301846137c7565b92915050565b600060208201905061457160008301846137d6565b92915050565b6000602082019050818103600083015261459181846137e5565b905092915050565b600060208201905081810360008301526145b28161384f565b9050919050565b600060208201905081810360008301526145d2816138b5565b9050919050565b600060208201905081810360008301526145f28161391b565b9050919050565b600060208201905081810360008301526146128161395b565b9050919050565b60006020820190508181036000830152614632816139c1565b9050919050565b6000602082019050818103600083015261465281613a27565b9050919050565b6000602082019050818103600083015261467281613a8d565b9050919050565b6000602082019050818103600083015261469281613af3565b9050919050565b600060208201905081810360008301526146b281613b59565b9050919050565b600060208201905081810360008301526146d281613bbf565b9050919050565b600060208201905081810360008301526146f281613c25565b9050919050565b6000602082019050818103600083015261471281613c8b565b9050919050565b6000602082019050818103600083015261473281613ccb565b9050919050565b6000602082019050818103600083015261475281613d31565b9050919050565b6000602082019050818103600083015261477281613d97565b9050919050565b6000602082019050818103600083015261479281613dfd565b9050919050565b600060208201905081810360008301526147b281613e63565b9050919050565b600060208201905081810360008301526147d281613ea3565b9050919050565b600060208201905081810360008301526147f281613ee3565b9050919050565b6000602082019050818103600083015261481281613f23565b9050919050565b6000602082019050818103600083015261483281613f63565b9050919050565b6000602082019050818103600083015261485281613fa3565b9050919050565b600060208201905061486e6000830184614009565b92915050565b6000604051905081810181811067ffffffffffffffff8211171561489757600080fd5b8060405250919050565b600067ffffffffffffffff8211156148b857600080fd5b601f19601f8301169050602081019050919050565b600081519050919050565b600081519050919050565b600082825260208201905092915050565b600082825260208201905092915050565b600081905092915050565b6000808585111561492057600080fd5b8386111561492d57600080fd5b6001850283019150848603905094509492505050565b600061494e826149cd565b9050919050565b60008115159050919050565b60007fff0000000000000000000000000000000000000000000000000000000000000082169050919050565b6000819050919050565b60006149a282614943565b9050919050565b60006149b482614943565b9050919050565b60006149c682614943565b9050919050565b600073ffffffffffffffffffffffffffffffffffffffff82169050919050565b6000819050919050565b600060ff82169050919050565b6000614a0f82614a82565b9050919050565b6000614a2182614a28565b9050919050565b6000614a33826149cd565b9050919050565b6000614a4582614a4c565b9050919050565b6000614a57826149cd565b9050919050565b6000614a6982614a70565b9050919050565b6000614a7b826149cd565b9050919050565b6000614a8d82614a94565b9050919050565b6000614a9f826149cd565b9050919050565b60005b83811015614ac4578082015181840152602081019050614aa9565b83811115614ad3576000848401525b50505050565b6000614ae482614aff565b9050919050565b6000819050919050565b6000819050919050565b6000614b0a82614b22565b9050919050565b6000601f19601f8301169050919050565b60008160601b9050919050565b614b3881614943565b8114614b4357600080fd5b50565b614b4f81614955565b8114614b5a57600080fd5b50565b614b668161498d565b8114614b7157600080fd5b50565b614b7d81614997565b8114614b8857600080fd5b50565b614b94816149a9565b8114614b9f57600080fd5b50565b614bab816149bb565b8114614bb657600080fd5b50565b614bc2816149ed565b8114614bcd57600080fd5b5056fe6080604052336000806101000a81548173ffffffffffffffffffffffffffffffffffffffff021916908373ffffffffffffffffffffffffffffffffffffffff1602179055506103a4806100536000396000f3fe60806040526004361061002d5760003560e01c80633f579f4214610039578063f77c47911461016257610034565b3661003457005b600080fd5b34801561004557600080fd5b506100e76004803603606081101561005c57600080fd5b81019080803573ffffffffffffffffffffffffffffffffffffffff16906020019092919080359060200190929190803590602001906401000000008111156100a357600080fd5b8201836020820111156100b557600080fd5b803590602001918460018302840111640100000000831117156100d757600080fd5b90919293919293905050506101a3565b6040518080602001828103825283818151815260200191508051906020019080838360005b8381101561012757808201518184015260208101905061010c565b50505050905090810190601f1680156101545780820380516001836020036101000a031916815260200191505b509250505060405180910390f35b34801561016e57600080fd5b50610177610347565b604051808273ffffffffffffffffffffffffffffffffffffffff16815260200191505060405180910390f35b606060008054906101000a900473ffffffffffffffffffffffffffffffffffffffff1673ffffffffffffffffffffffffffffffffffffffff163373ffffffffffffffffffffffffffffffffffffffff1614610249576040517f08c379a000000000000000000000000000000000000000000000000000000000815260040180806020018281038252602c81526020018061036c602c913960400191505060405180910390fd5b606060008673ffffffffffffffffffffffffffffffffffffffff1686868660405180838380828437808301925050509250505060006040518083038185875af1925050503d80600081146102b9576040519150601f19603f3d011682016040523d82523d6000602084013e6102be565b606091505b5080935081925050508061033a576040517f08c379a000000000000000000000000000000000000000000000000000000000815260040180806020018281038252601d8152602001807f4163636f756e743a207472616e73616374696f6e20726576657274656400000081525060200191505060405180910390fd5b8192505050949350505050565b60008054906101000a900473ffffffffffffffffffffffffffffffffffffffff168156fe436f6e74726f6c6c65643a206d73672e73656e646572206973206e6f742074686520636f6e74726f6c6c6572a164736f6c634300060c000a536166654d6174684c69623a207375627472616374696f6e206f766572666c6f77a164736f6c634300060c000a",
  "linkReferences": {},
  "deployedLinkReferences": {}
}