{
  "_format": "hh-sol-artifact-1",
  "contractName": "PaymentDepositAccount",
  "sourceName": "src/payments/PaymentDepositAccount.sol",
  "abi": [
    {
      "inputs": [],
      "stateMutability": "payable",
      "type": "constructor"
    },
    {
      "inputs": [
        {
          "internalType": "bytes8",
          "name": "c__495bfa8b",
          "type": "bytes8"
        }
      ],
      "name": "c_495bfa8b",
      "outputs": [],
      "stateMutability": "pure",
      "type": "function"
    },
    {
      "inputs": [
        {
          "internalType": "bytes8",
          "name": "c__90f8af33",
          "type": "bytes8"
        }
      ],
      "name": "c_90f8af33",
      "outputs": [],
      "stateMutability": "pure",
      "type": "function"
    },
    {
      "inputs": [
        {
          "internalType": "bytes8",
          "name": "c__495bfa8b",
          "type": "bytes8"
        }
      ],
      "name": "c_false495bfa8b",
      "outputs": [
        {
          "internalType": "bool",
          "name": "",
          "type": "bool"
        }
      ],
      "stateMutability": "pure",
      "type": "function"
    },
    {
      "inputs": [
        {
          "internalType": "bytes8",
          "name": "c__90f8af33",
          "type": "bytes8"
        }
      ],
      "name": "c_false90f8af33",
      "outputs": [
        {
          "internalType": "bool",
          "name": "",
          "type": "bool"
        }
      ],
      "stateMutability": "pure",
      "type": "function"
    },
    {
      "inputs": [
        {
          "internalType": "bytes8",
          "name": "c__495bfa8b",
          "type": "bytes8"
        }
      ],
      "name": "c_true495bfa8b",
      "outputs": [
        {
          "internalType": "bool",
          "name": "",
          "type": "bool"
        }
      ],
      "stateMutability": "pure",
      "type": "function"
    },
    {
      "inputs": [
        {
          "internalType": "bytes8",
          "name": "c__90f8af33",
          "type": "bytes8"
        }
      ],
      "name": "c_true90f8af33",
      "outputs": [
        {
          "internalType": "bool",
          "name": "",
          "type": "bool"
        }
      ],
      "stateMutability": "pure",
      "type": "function"
    },
    {
      "inputs": [],
      "name": "controller",
      "outputs": [
        {
          "internalType": "address",
          "name": "",
          "type": "address"
        }
      ],
      "stateMutability": "view",
      "type": "function"
    },
    {
      "inputs": [
        {
          "internalType": "address",
          "name": "to",
          "type": "address"
        },
        {
          "internalType": "uint256",
          "name": "value",
          "type": "uint256"
        },
        {
          "internalType": "bytes",
          "name": "data",
          "type": "bytes"
        }
      ],
      "name": "executeTransaction",
      "outputs": [
        {
          "internalType": "bytes",
          "name": "",
          "type": "bytes"
        }
      ],
      "stateMutability": "nonpayable",
      "type": "function"
    },
    {
      "stateMutability": "payable",
      "type": "receive"
    }
  ],
  "bytecode": "0x608060405261001e674c05ed6aa1cd281960c01b61009760201b60201c565b610038675db0dfd7018850c360c01b61009760201b60201c565b336000806101000a81548173ffffffffffffffffffffffffffffffffffffffff021916908373ffffffffffffffffffffffffffffffffffffffff160217905550610092679098f39fea0730f660c01b61009a60201b60201c565b61009d565b50565b50565b61080c806100ac6000396000f3fe60806040526004361061007f5760003560e01c8063bd04d1391161004e578063bd04d139146102f8578063c478196d14610364578063d1c43eae146103ba578063f77c47911461041057610086565b806326bebb521461008b5780633f579f42146100f7578063550648ff1461022057806356c2fc6c1461028c57610086565b3661008657005b600080fd5b34801561009757600080fd5b506100df600480360360208110156100ae57600080fd5b81019080803577ffffffffffffffffffffffffffffffffffffffffffffffff19169060200190929190505050610451565b60405180821515815260200191505060405180910390f35b34801561010357600080fd5b506101a56004803603606081101561011a57600080fd5b81019080803573ffffffffffffffffffffffffffffffffffffffff169060200190929190803590602001909291908035906020019064010000000081111561016157600080fd5b82018360208201111561017357600080fd5b8035906020019184600183028401116401000000008311171561019557600080fd5b9091929391929390505050610458565b6040518080602001828103825283818151815260200191508051906020019080838360005b838110156101e55780820151818401526020810190506101ca565b50505050905090810190601f1680156102125780820380516001836020036101000a031916815260200191505b509250505060405180910390f35b34801561022c57600080fd5b506102746004803603602081101561024357600080fd5b81019080803577ffffffffffffffffffffffffffffffffffffffffffffffff1916906020019092919050505061078c565b60405180821515815260200191505060405180910390f35b34801561029857600080fd5b506102e0600480360360208110156102af57600080fd5b81019080803577ffffffffffffffffffffffffffffffffffffffffffffffff19169060200190929190505050610793565b60405180821515815260200191505060405180910390f35b34801561030457600080fd5b5061034c6004803603602081101561031b57600080fd5b81019080803577ffffffffffffffffffffffffffffffffffffffffffffffff1916906020019092919050505061079e565b60405180821515815260200191505060405180910390f35b34801561037057600080fd5b506103b86004803603602081101561038757600080fd5b81019080803577ffffffffffffffffffffffffffffffffffffffffffffffff191690602001909291905050506107a9565b005b3480156103c657600080fd5b5061040e600480360360208110156103dd57600080fd5b81019080803577ffffffffffffffffffffffffffffffffffffffffffffffff191690602001909291905050506107ac565b005b34801561041c57600080fd5b506104256107af565b604051808273ffffffffffffffffffffffffffffffffffffffff16815260200191505060405180910390f35b6000919050565b606061046e6730a6ad52e198db9760c01b6107a9565b61048267f6266a592c249da560c01b6107ac565b6104966728279893f8537e1960c01b6107ac565b6104aa67d300d0a9ecbe6cac60c01b6107ac565b6104be678d5c0caa285e3ec560c01b6107ac565b60008054906101000a900473ffffffffffffffffffffffffffffffffffffffff1673ffffffffffffffffffffffffffffffffffffffff163373ffffffffffffffffffffffffffffffffffffffff1614610562576040517f08c379a000000000000000000000000000000000000000000000000000000000815260040180806020018281038252602c8152602001806107d4602c913960400191505060405180910390fd5b6105766718b2e4dd03bc759a60c01b6107ac565b61058a67f8b65e28b897a44f60c01b6107ac565b61059e67a0e46df01f8c97cb60c01b6107a9565b6105b267aa5eebb2652f143c60c01b6107a9565b6105c6676d9ffa8149f3dea060c01b6107a9565b6105da678cb9bb07d4779f7e60c01b6107a9565b60606105f067f5ddfa157613111160c01b6107a9565b610604676c82c2c1207b3b7760c01b6107a9565b600061061a673ff4b340667b124160c01b6107a9565b8673ffffffffffffffffffffffffffffffffffffffff1686868660405180838380828437808301925050509250505060006040518083038185875af1925050503d8060008114610686576040519150601f19603f3d011682016040523d82523d6000602084013e61068b565b606091505b5080935081925050506106a86756fbd48014b71d8b60c01b6107a9565b6106bc67e31d8723036de13060c01b6107a9565b6106d067d6b834fbc1dbf84c60c01b6107a9565b80610743576040517f08c379a000000000000000000000000000000000000000000000000000000000815260040180806020018281038252601d8152602001807f4163636f756e743a207472616e73616374696f6e20726576657274656400000081525060200191505060405180910390fd5b61075767836ca2ae34585e2360c01b6107a9565b61076b67fc0747958022859a60c01b6107a9565b61077f67127f08829e3f368c60c01b6107a9565b8192505050949350505050565b6000919050565b600060019050919050565b600060019050919050565b50565b50565b60008054906101000a900473ffffffffffffffffffffffffffffffffffffffff168156fe436f6e74726f6c6c65643a206d73672e73656e646572206973206e6f742074686520636f6e74726f6c6c6572a164736f6c634300060c000a",
  "linkReferences": {},
  "deployedLinkReferences": {}
}