{
  "_format": "hh-sol-artifact-1",
  "contractName": "PaymentRegistry",
  "sourceName": "src/payments/PaymentRegistry.sol",
  "abi": [
    {
      "inputs": [],
      "stateMutability": "nonpayable",
      "type": "constructor"
    },
    {
      "anonymous": false,
      "inputs": [
        {
          "indexed": false,
          "internalType": "address",
          "name": "depositAccount",
          "type": "address"
        },
        {
          "indexed": false,
          "internalType": "address",
          "name": "owner",
          "type": "address"
        }
      ],
      "name": "DepositAccountDeployed",
      "type": "event"
    },
    {
      "anonymous": false,
      "inputs": [
        {
          "indexed": false,
          "internalType": "address",
          "name": "depositAccount",
          "type": "address"
        },
        {
          "indexed": false,
          "internalType": "address",
          "name": "owner",
          "type": "address"
        },
        {
          "indexed": false,
          "internalType": "address",
          "name": "token",
          "type": "address"
        },
        {
          "indexed": false,
          "internalType": "uint256",
          "name": "amount",
          "type": "uint256"
        }
      ],
      "name": "DepositExitCompleted",
      "type": "event"
    },
    {
      "anonymous": false,
      "inputs": [
        {
          "indexed": false,
          "internalType": "address",
          "name": "depositAccount",
          "type": "address"
        },
        {
          "indexed": false,
          "internalType": "address",
          "name": "owner",
          "type": "address"
        },
        {
          "indexed": false,
          "internalType": "address",
          "name": "token",
          "type": "address"
        }
      ],
      "name": "DepositExitRejected",
      "type": "event"
    },
    {
      "anonymous": false,
      "inputs": [
        {
          "indexed": false,
          "internalType": "address",
          "name": "depositAccount",
          "type": "address"
        },
        {
          "indexed": false,
          "internalType": "address",
          "name": "owner",
          "type": "address"
        },
        {
          "indexed": false,
          "internalType": "address",
          "name": "token",
          "type": "address"
        },
        {
          "indexed": false,
          "internalType": "uint256",
          "name": "lockedUntil",
          "type": "uint256"
        }
      ],
      "name": "DepositExitRequested",
      "type": "event"
    },
    {
      "anonymous": false,
      "inputs": [
        {
          "indexed": false,
          "internalType": "address",
          "name": "depositAccount",
          "type": "address"
        },
        {
          "indexed": false,
          "internalType": "address",
          "name": "owner",
          "type": "address"
        },
        {
          "indexed": false,
          "internalType": "address",
          "name": "token",
          "type": "address"
        },
        {
          "indexed": false,
          "internalType": "uint256",
          "name": "amount",
          "type": "uint256"
        }
      ],
      "name": "DepositWithdrawn",
      "type": "event"
    },
    {
      "anonymous": false,
      "inputs": [
        {
          "indexed": false,
          "internalType": "address",
          "name": "sender",
          "type": "address"
        },
        {
          "indexed": false,
          "internalType": "address",
          "name": "guardian",
          "type": "address"
        }
      ],
      "name": "GuardianAdded",
      "type": "event"
    },
    {
      "anonymous": false,
      "inputs": [
        {
          "indexed": false,
          "internalType": "address",
          "name": "sender",
          "type": "address"
        },
        {
          "indexed": false,
          "internalType": "address",
          "name": "guardian",
          "type": "address"
        }
      ],
      "name": "GuardianRemoved",
      "type": "event"
    },
    {
      "anonymous": false,
      "inputs": [
        {
          "indexed": false,
          "internalType": "address",
          "name": "initializer",
          "type": "address"
        }
      ],
      "name": "Initialized",
      "type": "event"
    },
    {
      "anonymous": false,
      "inputs": [
        {
          "indexed": false,
          "internalType": "bytes32",
          "name": "hash",
          "type": "bytes32"
        },
        {
          "indexed": false,
          "internalType": "address",
          "name": "sender",
          "type": "address"
        },
        {
          "indexed": false,
          "internalType": "address",
          "name": "recipient",
          "type": "address"
        },
        {
          "indexed": false,
          "internalType": "address",
          "name": "token",
          "type": "address"
        },
        {
          "indexed": false,
          "internalType": "bytes32",
          "name": "uid",
          "type": "bytes32"
        },
        {
          "indexed": false,
          "internalType": "uint256",
          "name": "amount",
          "type": "uint256"
        }
      ],
      "name": "PaymentChannelCommitted",
      "type": "event"
    },
    {
      "anonymous": false,
      "inputs": [
        {
          "indexed": false,
          "internalType": "bytes32",
          "name": "channelHash",
          "type": "bytes32"
        },
        {
          "indexed": false,
          "internalType": "uint256",
          "name": "value",
          "type": "uint256"
        }
      ],
      "name": "PaymentDeposited",
      "type": "event"
    },
    {
      "anonymous": false,
      "inputs": [
        {
          "indexed": false,
          "internalType": "bytes32",
          "name": "channelHash",
          "type": "bytes32"
        },
        {
          "indexed": false,
          "internalType": "uint256",
          "name": "totalValue",
          "type": "uint256"
        },
        {
          "indexed": false,
          "internalType": "uint256",
          "name": "depositValue",
          "type": "uint256"
        }
      ],
      "name": "PaymentSplit",
      "type": "event"
    },
    {
      "anonymous": false,
      "inputs": [
        {
          "indexed": false,
          "internalType": "bytes32",
          "name": "channelHash",
          "type": "bytes32"
        },
        {
          "indexed": false,
          "internalType": "uint256",
          "name": "value",
          "type": "uint256"
        }
      ],
      "name": "PaymentWithdrawn",
      "type": "event"
    },
    {
      "inputs": [
        {
          "internalType": "address",
          "name": "guardian",
          "type": "address"
        }
      ],
      "name": "addGuardian",
      "outputs": [],
      "stateMutability": "nonpayable",
      "type": "function"
    },
    {
      "inputs": [
        {
          "internalType": "bytes8",
          "name": "c__0ffe16b4",
          "type": "bytes8"
        }
      ],
      "name": "c_0ffe16b4",
      "outputs": [],
      "stateMutability": "pure",
      "type": "function"
    },
    {
      "inputs": [
        {
          "internalType": "bytes8",
          "name": "c__1b54acf3",
          "type": "bytes8"
        }
      ],
      "name": "c_1b54acf3",
      "outputs": [],
      "stateMutability": "pure",
      "type": "function"
    },
    {
      "inputs": [
        {
          "internalType": "bytes8",
          "name": "c__3029712e",
          "type": "bytes8"
        }
      ],
      "name": "c_3029712e",
      "outputs": [],
      "stateMutability": "pure",
      "type": "function"
    },
    {
      "inputs": [
        {
          "internalType": "bytes8",
          "name": "c__c0828b70",
          "type": "bytes8"
        }
      ],
      "name": "c_c0828b70",
      "outputs": [],
      "stateMutability": "pure",
      "type": "function"
    },
    {
      "inputs": [
        {
          "internalType": "bytes8",
          "name": "c__d5c463c2",
          "type": "bytes8"
        }
      ],
      "name": "c_d5c463c2",
      "outputs": [],
      "stateMutability": "pure",
      "type": "function"
    },
    {
      "inputs": [
        {
          "internalType": "bytes8",
          "name": "c__0ffe16b4",
          "type": "bytes8"
        }
      ],
      "name": "c_false0ffe16b4",
      "outputs": [
        {
          "internalType": "bool",
          "name": "",
          "type": "bool"
        }
      ],
      "stateMutability": "pure",
      "type": "function"
    },
    {
      "inputs": [
        {
          "internalType": "bytes8",
          "name": "c__1b54acf3",
          "type": "bytes8"
        }
      ],
      "name": "c_false1b54acf3",
      "outputs": [
        {
          "internalType": "bool",
          "name": "",
          "type": "bool"
        }
      ],
      "stateMutability": "pure",
      "type": "function"
    },
    {
      "inputs": [
        {
          "internalType": "bytes8",
          "name": "c__3029712e",
          "type": "bytes8"
        }
      ],
      "name": "c_false3029712e",
      "outputs": [
        {
          "internalType": "bool",
          "name": "",
          "type": "bool"
        }
      ],
      "stateMutability": "pure",
      "type": "function"
    },
    {
      "inputs": [
        {
          "internalType": "bytes8",
          "name": "c__c0828b70",
          "type": "bytes8"
        }
      ],
      "name": "c_falsec0828b70",
      "outputs": [
        {
          "internalType": "bool",
          "name": "",
          "type": "bool"
        }
      ],
      "stateMutability": "pure",
      "type": "function"
    },
    {
      "inputs": [
        {
          "internalType": "bytes8",
          "name": "c__d5c463c2",
          "type": "bytes8"
        }
      ],
      "name": "c_falsed5c463c2",
      "outputs": [
        {
          "internalType": "bool",
          "name": "",
          "type": "bool"
        }
      ],
      "stateMutability": "pure",
      "type": "function"
    },
    {
      "inputs": [
        {
          "internalType": "bytes8",
          "name": "c__0ffe16b4",
          "type": "bytes8"
        }
      ],
      "name": "c_true0ffe16b4",
      "outputs": [
        {
          "internalType": "bool",
          "name": "",
          "type": "bool"
        }
      ],
      "stateMutability": "pure",
      "type": "function"
    },
    {
      "inputs": [
        {
          "internalType": "bytes8",
          "name": "c__1b54acf3",
          "type": "bytes8"
        }
      ],
      "name": "c_true1b54acf3",
      "outputs": [
        {
          "internalType": "bool",
          "name": "",
          "type": "bool"
        }
      ],
      "stateMutability": "pure",
      "type": "function"
    },
    {
      "inputs": [
        {
          "internalType": "bytes8",
          "name": "c__3029712e",
          "type": "bytes8"
        }
      ],
      "name": "c_true3029712e",
      "outputs": [
        {
          "internalType": "bool",
          "name": "",
          "type": "bool"
        }
      ],
      "stateMutability": "pure",
      "type": "function"
    },
    {
      "inputs": [
        {
          "internalType": "bytes8",
          "name": "c__c0828b70",
          "type": "bytes8"
        }
      ],
      "name": "c_truec0828b70",
      "outputs": [
        {
          "internalType": "bool",
          "name": "",
          "type": "bool"
        }
      ],
      "stateMutability": "pure",
      "type": "function"
    },
    {
      "inputs": [
        {
          "internalType": "bytes8",
          "name": "c__d5c463c2",
          "type": "bytes8"
        }
      ],
      "name": "c_trued5c463c2",
      "outputs": [
        {
          "internalType": "bool",
          "name": "",
          "type": "bool"
        }
      ],
      "stateMutability": "pure",
      "type": "function"
    },
    {
      "inputs": [],
      "name": "chainId",
      "outputs": [
        {
          "internalType": "uint256",
          "name": "",
          "type": "uint256"
        }
      ],
      "stateMutability": "view",
      "type": "function"
    },
    {
      "inputs": [
        {
          "internalType": "address",
          "name": "sender",
          "type": "address"
        },
        {
          "internalType": "address",
          "name": "token",
          "type": "address"
        },
        {
          "internalType": "bytes32",
          "name": "uid",
          "type": "bytes32"
        },
        {
          "internalType": "uint256",
          "name": "blockNumber",
          "type": "uint256"
        },
        {
          "internalType": "uint256",
          "name": "amount",
          "type": "uint256"
        },
        {
          "internalType": "bytes",
          "name": "senderSignature",
          "type": "bytes"
        },
        {
          "internalType": "bytes",
          "name": "guardianSignature",
          "type": "bytes"
        }
      ],
      "name": "commitPaymentChannelAndDeposit",
      "outputs": [],
      "stateMutability": "nonpayable",
      "type": "function"
    },
    {
      "inputs": [
        {
          "internalType": "address",
          "name": "sender",
          "type": "address"
        },
        {
          "internalType": "address",
          "name": "token",
          "type": "address"
        },
        {
          "internalType": "bytes32",
          "name": "uid",
          "type": "bytes32"
        },
        {
          "internalType": "uint256",
          "name": "blockNumber",
          "type": "uint256"
        },
        {
          "internalType": "uint256",
          "name": "amount",
          "type": "uint256"
        },
        {
          "internalType": "uint256",
          "name": "depositPaymentValue",
          "type": "uint256"
        },
        {
          "internalType": "bytes",
          "name": "senderSignature",
          "type": "bytes"
        },
        {
          "internalType": "bytes",
          "name": "guardianSignature",
          "type": "bytes"
        }
      ],
      "name": "commitPaymentChannelAndSplit",
      "outputs": [],
      "stateMutability": "nonpayable",
      "type": "function"
    },
    {
      "inputs": [
        {
          "internalType": "address",
          "name": "sender",
          "type": "address"
        },
        {
          "internalType": "address",
          "name": "token",
          "type": "address"
        },
        {
          "internalType": "bytes32",
          "name": "uid",
          "type": "bytes32"
        },
        {
          "internalType": "uint256",
          "name": "blockNumber",
          "type": "uint256"
        },
        {
          "internalType": "uint256",
          "name": "amount",
          "type": "uint256"
        },
        {
          "internalType": "bytes",
          "name": "senderSignature",
          "type": "bytes"
        },
        {
          "internalType": "bytes",
          "name": "guardianSignature",
          "type": "bytes"
        }
      ],
      "name": "commitPaymentChannelAndWithdraw",
      "outputs": [],
      "stateMutability": "nonpayable",
      "type": "function"
    },
    {
      "inputs": [
        {
          "internalType": "address",
          "name": "owner",
          "type": "address"
        }
      ],
      "name": "computeDepositAccountAddress",
      "outputs": [
        {
          "internalType": "address",
          "name": "",
          "type": "address"
        }
      ],
      "stateMutability": "view",
      "type": "function"
    },
    {
      "inputs": [
        {
          "internalType": "address",
          "name": "sender",
          "type": "address"
        },
        {
          "internalType": "address",
          "name": "recipient",
          "type": "address"
        },
        {
          "internalType": "address",
          "name": "token",
          "type": "address"
        },
        {
          "internalType": "bytes32",
          "name": "uid",
          "type": "bytes32"
        }
      ],
      "name": "computePaymentChannelHash",
      "outputs": [
        {
          "internalType": "bytes32",
          "name": "",
          "type": "bytes32"
        }
      ],
      "stateMutability": "pure",
      "type": "function"
    },
    {
      "inputs": [
        {
          "internalType": "address",
          "name": "owner",
          "type": "address"
        }
      ],
      "name": "deployDepositAccount",
      "outputs": [],
      "stateMutability": "nonpayable",
      "type": "function"
    },
    {
      "inputs": [],
      "name": "depositExitLockPeriod",
      "outputs": [
        {
          "internalType": "uint256",
          "name": "",
          "type": "uint256"
        }
      ],
      "stateMutability": "view",
      "type": "function"
    },
    {
      "inputs": [],
      "name": "externalAccountRegistry",
      "outputs": [
        {
          "internalType": "contract ExternalAccountRegistry",
          "name": "",
          "type": "address"
        }
      ],
      "stateMutability": "view",
      "type": "function"
    },
    {
      "inputs": [],
      "name": "gateway",
      "outputs": [
        {
          "internalType": "address",
          "name": "",
          "type": "address"
        }
      ],
      "stateMutability": "view",
      "type": "function"
    },
    {
      "inputs": [
        {
          "internalType": "address",
          "name": "owner",
          "type": "address"
        },
        {
          "internalType": "address",
          "name": "token",
          "type": "address"
        }
      ],
      "name": "getDepositExitLockedUntil",
      "outputs": [
        {
          "internalType": "uint256",
          "name": "",
          "type": "uint256"
        }
      ],
      "stateMutability": "view",
      "type": "function"
    },
    {
      "inputs": [
        {
          "internalType": "address",
          "name": "owner",
          "type": "address"
        },
        {
          "internalType": "address",
          "name": "token",
          "type": "address"
        }
      ],
      "name": "getDepositWithdrawnAmount",
      "outputs": [
        {
          "internalType": "uint256",
          "name": "",
          "type": "uint256"
        }
      ],
      "stateMutability": "view",
      "type": "function"
    },
    {
      "inputs": [
        {
          "internalType": "bytes32",
          "name": "hash",
          "type": "bytes32"
        }
      ],
      "name": "getPaymentChannelCommittedAmount",
      "outputs": [
        {
          "internalType": "uint256",
          "name": "",
          "type": "uint256"
        }
      ],
      "stateMutability": "view",
      "type": "function"
    },
    {
      "inputs": [
        {
          "components": [
            {
              "internalType": "address",
              "name": "owner",
              "type": "address"
            },
            {
              "internalType": "address",
              "name": "token",
              "type": "address"
            },
            {
              "internalType": "uint256",
              "name": "amount",
              "type": "uint256"
            }
          ],
          "internalType": "struct PaymentRegistry.DepositWithdrawal",
          "name": "depositWithdrawal",
          "type": "tuple"
        }
      ],
      "name": "hashDepositWithdrawal",
      "outputs": [
        {
          "internalType": "bytes32",
          "name": "",
          "type": "bytes32"
        }
      ],
      "stateMutability": "view",
      "type": "function"
    },
    {
      "inputs": [
        {
          "components": [
            {
              "internalType": "address",
              "name": "sender",
              "type": "address"
            },
            {
              "internalType": "address",
              "name": "recipient",
              "type": "address"
            },
            {
              "internalType": "address",
              "name": "token",
              "type": "address"
            },
            {
              "internalType": "bytes32",
              "name": "uid",
              "type": "bytes32"
            },
            {
              "internalType": "uint256",
              "name": "blockNumber",
              "type": "uint256"
            },
            {
              "internalType": "uint256",
              "name": "amount",
              "type": "uint256"
            }
          ],
          "internalType": "struct PaymentRegistry.PaymentChannelCommit",
          "name": "paymentChannelCommit",
          "type": "tuple"
        }
      ],
      "name": "hashPaymentChannelCommit",
      "outputs": [
        {
          "internalType": "bytes32",
          "name": "",
          "type": "bytes32"
        }
      ],
      "stateMutability": "view",
      "type": "function"
    },
    {
      "inputs": [
        {
          "internalType": "contract ExternalAccountRegistry",
          "name": "externalAccountRegistry_",
          "type": "address"
        },
        {
          "internalType": "contract PersonalAccountRegistry",
          "name": "personalAccountRegistry_",
          "type": "address"
        },
        {
          "internalType": "uint256",
          "name": "depositExitLockPeriod_",
          "type": "uint256"
        },
        {
          "internalType": "address[]",
          "name": "guardians_",
          "type": "address[]"
        },
        {
          "internalType": "address",
          "name": "gateway_",
          "type": "address"
        }
      ],
      "name": "initialize",
      "outputs": [],
      "stateMutability": "nonpayable",
      "type": "function"
    },
    {
      "inputs": [
        {
          "internalType": "address",
          "name": "owner",
          "type": "address"
        }
      ],
      "name": "isDepositAccountDeployed",
      "outputs": [
        {
          "internalType": "bool",
          "name": "",
          "type": "bool"
        }
      ],
      "stateMutability": "view",
      "type": "function"
    },
    {
      "inputs": [
        {
          "internalType": "address",
          "name": "guardian",
          "type": "address"
        }
      ],
      "name": "isGuardian",
      "outputs": [
        {
          "internalType": "bool",
          "name": "",
          "type": "bool"
        }
      ],
      "stateMutability": "view",
      "type": "function"
    },
    {
      "inputs": [],
      "name": "isInitialized",
      "outputs": [
        {
          "internalType": "bool",
          "name": "",
          "type": "bool"
        }
      ],
      "stateMutability": "view",
      "type": "function"
    },
    {
      "inputs": [],
      "name": "personalAccountRegistry",
      "outputs": [
        {
          "internalType": "contract PersonalAccountRegistry",
          "name": "",
          "type": "address"
        }
      ],
      "stateMutability": "view",
      "type": "function"
    },
    {
      "inputs": [
        {
          "internalType": "address",
          "name": "token",
          "type": "address"
        }
      ],
      "name": "processDepositExit",
      "outputs": [],
      "stateMutability": "nonpayable",
      "type": "function"
    },
    {
      "inputs": [
        {
          "internalType": "address",
          "name": "guardian",
          "type": "address"
        }
      ],
      "name": "removeGuardian",
      "outputs": [],
      "stateMutability": "nonpayable",
      "type": "function"
    },
    {
      "inputs": [
        {
          "internalType": "address",
          "name": "token",
          "type": "address"
        }
      ],
      "name": "requestDepositExit",
      "outputs": [],
      "stateMutability": "nonpayable",
      "type": "function"
    },
    {
      "inputs": [
        {
          "internalType": "bytes32",
          "name": "messageHash",
          "type": "bytes32"
        },
        {
          "internalType": "bytes",
          "name": "signature",
          "type": "bytes"
        }
      ],
      "name": "verifyGuardianSignature",
      "outputs": [
        {
          "internalType": "bool",
          "name": "",
          "type": "bool"
        }
      ],
      "stateMutability": "view",
      "type": "function"
    },
    {
      "inputs": [
        {
          "internalType": "address",
          "name": "token",
          "type": "address"
        },
        {
          "internalType": "uint256",
          "name": "amount",
          "type": "uint256"
        },
        {
          "internalType": "bytes",
          "name": "guardianSignature",
          "type": "bytes"
        }
      ],
      "name": "withdrawDeposit",
      "outputs": [],
      "stateMutability": "nonpayable",
      "type": "function"
    }
  ],
  "bytecode": "0x60806040523480156200001157600080fd5b506200002e67e4182926f2998e2e60c01b6200017e60201b60201c565b6200004a676dfe6291193cb09c60c01b6200018160201b60201c565b6200006667e53a0351407a575160c01b6200018160201b60201c565b32600160006101000a81548173ffffffffffffffffffffffffffffffffffffffff021916908373ffffffffffffffffffffffffffffffffffffffff160217905550620000c367cc0739d8b529ab1160c01b6200018460201b60201c565b620000df67630a1cb51704c18c60c01b6200018460201b60201c565b620000fb6719ce34ff3088286260c01b6200018460201b60201c565b600062000119670b0fa3462988c3ce60c01b6200018460201b60201c565b4690506200013867aa7c98b8449701be60c01b6200018460201b60201c565b80600281905550506200015c679c44b4ea1e8a0c2d60c01b6200018760201b60201c565b6200017867f849d65be594d4f060c01b6200018a60201b60201c565b6200018d565b50565b50565b50565b50565b50565b617d64806200019d6000396000f3fe60806040523480156200001157600080fd5b50600436106200028c5760003560e01c80638a1773ab1162000165578063bdff4b3b11620000d5578063d2c83b9a1162000093578063d2c83b9a146200089d578063da1b213d14620008bf578063dc7d6c3114620008df578063df0433801462000915578063e0fe396e1462000935578063e831bfba1462000955576200028c565b8063bdff4b3b14620007a3578063c1cad69e14620007c5578063c36326e714620007fb578063c369d5fe1462000831578063d0f710d61462000867576200028c565b8063a526d83b1162000123578063a526d83b14620006d7578063abafcde414620006f7578063acd2a8841462000717578063b0274a73146200074d578063bcc9b17d146200076d576200028c565b80638a1773ab14620006095780639130c06e146200063f5780639a85fae2146200065f5780639a8a0592146200067f578063a4db4b6b14620006a1576200028c565b80635405622e11620002015780636866da5211620001bf5780636866da52146200053b57806371404156146200055b5780637f130864146200057b57806384389a2b14620005b157806387d3131314620005e7576200028c565b80635405622e1462000459578063589731f8146200047957806360bf4df214620004af5780636121fcfc14620004e55780636524a947146200051b576200028c565b806321a5f5da116200024f57806321a5f5da146200035f5780632e4f161e14620003955780632e6afd6e14620003cb5780632e7037a01462000401578063392e53cd1462000437576200028c565b80630c4b1a1714620002915780630c68ba2114620002b1578063116191b614620002e75780631262ed1c146200030957806318121646146200033f575b600080fd5b620002af6004803603810190620002a9919062005dde565b62000975565b005b620002cf6004803603810190620002c99190620059f6565b62000978565b604051620002de919062006c70565b60405180910390f35b620002f162000a0f565b60405162000300919062006a23565b60405180910390f35b62000327600480360381019062000321919062005dde565b62000a35565b60405162000336919062006c70565b60405180910390f35b6200035d600480360381019062000357919062005dde565b62000a40565b005b6200037d600480360381019062000377919062005dde565b62000a43565b6040516200038c919062006c70565b60405180910390f35b620003b36004803603810190620003ad919062005a63565b62000a4e565b604051620003c2919062006c8d565b60405180910390f35b620003e96004803603810190620003e3919062005dde565b62000aaa565b604051620003f8919062006c70565b60405180910390f35b6200041f600480360381019062000419919062005eed565b62000ab1565b6040516200042e919062006c8d565b60405180910390f35b6200044162000b15565b60405162000450919062006c70565b60405180910390f35b62000477600480360381019062000471919062005dde565b62000baf565b005b62000497600480360381019062000491919062005dde565b62000bb2565b604051620004a6919062006c70565b60405180910390f35b620004cd6004803603810190620004c79190620059f6565b62000bb9565b604051620004dc919062006a23565b60405180910390f35b620005036004803603810190620004fd9190620059f6565b62000c0f565b60405162000512919062006c70565b60405180910390f35b620005396004803603810190620005339190620059f6565b62000ced565b005b62000559600480360381019062000553919062005cb4565b62000d3d565b005b620005796004803603810190620005739190620059f6565b6200125a565b005b62000599600480360381019062000593919062005dde565b62001635565b604051620005a8919062006c70565b60405180910390f35b620005cf6004803603810190620005c9919062005f19565b62001640565b604051620005de919062006c8d565b60405180910390f35b620005f1620016b3565b60405162000600919062006deb565b60405180910390f35b62000627600480360381019062000621919062005d54565b620016d9565b604051620006369190620070b2565b60405180910390f35b6200065d6004803603810190620006579190620059f6565b6200173b565b005b6200067d600480360381019062000677919062005acf565b62001cec565b005b6200068962001ec7565b604051620006989190620070b2565b60405180910390f35b620006bf6004803603810190620006b9919062005dde565b62001ecd565b604051620006ce919062006c70565b60405180910390f35b620006f56004803603810190620006ef9190620059f6565b62001ed8565b005b6200071560048036038101906200070f919062005dde565b62002066565b005b6200073560048036038101906200072f919062005dde565b62002069565b60405162000744919062006c70565b60405180910390f35b6200076b6004803603810190620007659190620059f6565b62002070565b005b6200078b600480360381019062000785919062005dde565b620023e0565b6040516200079a919062006c70565b60405180910390f35b620007ad620023eb565b604051620007bc9190620070b2565b60405180910390f35b620007e36004803603810190620007dd919062005dde565b620023f1565b604051620007f2919062006c70565b60405180910390f35b62000819600480360381019062000813919062005a22565b620023f8565b604051620008289190620070b2565b60405180910390f35b6200084f600480360381019062000849919062005dde565b620024c4565b6040516200085e919062006c70565b60405180910390f35b6200088560048036038101906200087f919062005d80565b620024cb565b60405162000894919062006c70565b60405180910390f35b620008a762002568565b604051620008b6919062006dce565b60405180910390f35b620008dd6004803603810190620008d7919062005bb6565b6200258e565b005b620008fd6004803603810190620008f7919062005a22565b62002763565b6040516200090c9190620070b2565b60405180910390f35b6200093360048036038101906200092d919062005acf565b6200282f565b005b6200095360048036038101906200094d919062005e4f565b62002a00565b005b6200097360048036038101906200096d919062005dde565b62002e21565b005b50565b60006200099067a9a1f991398c14f060c01b62000baf565b620009a667c57bae75bdea93e560c01b62000baf565b620009bc6773d8acd1ac33ece460c01b62000baf565b6000808373ffffffffffffffffffffffffffffffffffffffff1673ffffffffffffffffffffffffffffffffffffffff16815260200190815260200160002060009054906101000a900460ff169050919050565b600360009054906101000a900473ffffffffffffffffffffffffffffffffffffffff1681565b600060019050919050565b50565b600060019050919050565b600062000a666741f4597deb01636a60c01b62002066565b62000a7c67477d8927880c335860c01b62002066565b62000a9267de6e1d355234411d60c01b62002066565b62000aa08585858562002e24565b9050949350505050565b6000919050565b600062000ac9673e2619a43fba443160c01b62002066565b62000adf671715ce1a79c2a6a460c01b62002066565b62000af5677607ec3ab24dd09860c01b62002066565b62000b0e82600001518360200151846040015162002ea1565b9050919050565b600062000b2d67f7e9d611cc9b61cc60c01b62000a40565b62000b42663a321d7210235060c01b62000a40565b62000b58677835008d2fa130b460c01b62000a40565b600073ffffffffffffffffffffffffffffffffffffffff16600160009054906101000a900473ffffffffffffffffffffffffffffffffffffffff1673ffffffffffffffffffffffffffffffffffffffff1614905090565b50565b6000919050565b600062000bd167a0fac7d85e6e9aea60c01b62002066565b62000be76760e8c60dd681c64660c01b62002066565b62000bfd6766f642f0ceb6dd4960c01b62002066565b62000c088262002f3f565b9050919050565b600062000c2767e12e6a508f9d1dd460c01b62002066565b62000c3d670f9053da201146bb60c01b62002066565b62000c5367757e9ea267f04c0060c01b62002066565b600073ffffffffffffffffffffffffffffffffffffffff16600760008473ffffffffffffffffffffffffffffffffffffffff1673ffffffffffffffffffffffffffffffffffffffff16815260200190815260200160002060000160009054906101000a900473ffffffffffffffffffffffffffffffffffffffff1673ffffffffffffffffffffffffffffffffffffffff1614159050919050565b62000d036761b7e3a484d1710660c01b62002066565b62000d1967434325d92a86893560c01b62002066565b62000d2f671ab4c17c8e19c4a060c01b62002066565b62000d3a81620030aa565b50565b62000d53673bb7ac636aff2d8c60c01b62002066565b62000d6967e82822245fa89b9e60c01b62002066565b62000d7f67ed83c80f69677bf360c01b62002066565b600062000d8b620033a4565b905062000da3676af3707d46fe68a960c01b62002066565b62000db967faa52c8dcfeb655660c01b62002066565b600062000e4f600760008473ffffffffffffffffffffffffffffffffffffffff1673ffffffffffffffffffffffffffffffffffffffff16815260200190815260200160002060010160008873ffffffffffffffffffffffffffffffffffffffff1673ffffffffffffffffffffffffffffffffffffffff1681526020019081526020016000205486620033f990919063ffffffff16565b905062000e67672171941990bc47d960c01b62002066565b62000e7d676633762152dad90f60c01b62002066565b62000e9367f7e978f2ecbc9b1960c01b62002066565b6000811162000ed9576040517f08c379a000000000000000000000000000000000000000000000000000000000815260040162000ed09062006f5e565b60405180910390fd5b62000eef67b3704ade510adadc60c01b62002066565b62000f05679461bac524d5840960c01b62002066565b62000f1b679b91687b0a6fdf4d60c01b62002066565b600062000f2a83888862002ea1565b905062000f4267d5fe3e7f521a9ff660c01b62002066565b62000f58676e5daaeb407355ab60c01b62002066565b62000f6e678391047b89dd65a360c01b62002066565b62000fbe8186868080601f016020809104026020016040519081016040528093929190818152602001838380828437600081840152601f19601f820116905080830192505050505050506200346b565b62001000576040517f08c379a000000000000000000000000000000000000000000000000000000000815260040162000ff79062007090565b60405180910390fd5b6200101667c2f12fd629e0586f60c01b62002066565b6200102c67df096627967a22a660c01b62002066565b85600760008573ffffffffffffffffffffffffffffffffffffffff1673ffffffffffffffffffffffffffffffffffffffff16815260200190815260200160002060010160008973ffffffffffffffffffffffffffffffffffffffff1673ffffffffffffffffffffffffffffffffffffffff16815260200190815260200160002081905550620010c66792a94835b1a7cfbe60c01b62002066565b620010dc67c51cc758b177e57960c01b62002066565b620010e8838862003549565b620010fe67e198d4353cb2d78760c01b62002066565b6200111467dc10432eced2ecc960c01b62002066565b62001184600760008573ffffffffffffffffffffffffffffffffffffffff1673ffffffffffffffffffffffffffffffffffffffff16815260200190815260200160002060000160009054906101000a900473ffffffffffffffffffffffffffffffffffffffff16848985620037e8565b6200119a67981ce0b46d0aafed60c01b62002066565b620011b067cd1bd479663dcb1560c01b62002066565b7f95f66b073d65f18e43f6b76c7ab8557787f5f766d86cab7c9c76f41be9f8abc6600760008573ffffffffffffffffffffffffffffffffffffffff1673ffffffffffffffffffffffffffffffffffffffff16815260200190815260200160002060000160009054906101000a900473ffffffffffffffffffffffffffffffffffffffff1684898960405162001249949392919062006af4565b60405180910390a150505050505050565b6200127067e053295a377bc81560c01b62000baf565b6200128667d2c29ef13b805ccb60c01b62000baf565b6200129c67623eca7ba38e838260c01b62000baf565b620012b26723fb90b9db18499560c01b62000baf565b620012c867d3ce94283a69a5e360c01b62000baf565b6000803273ffffffffffffffffffffffffffffffffffffffff1673ffffffffffffffffffffffffffffffffffffffff16815260200190815260200160002060009054906101000a900460ff1662001356576040517f08c379a00000000000000000000000000000000000000000000000000000000081526004016200134d9062006f3c565b60405180910390fd5b6200136c67c9850be77c9514e060c01b62000baf565b620013826785b6ada70a70c80f60c01b62000baf565b620013986744c683030aa42fc760c01b62000baf565b620013ae6749cdfb9afb49042160c01b62000baf565b620013c467d14515cec6df5eaf60c01b62000baf565b620013da67fae595354cb0f0ee60c01b62000baf565b620013f06713dec1df48d41b3c60c01b62000baf565b8073ffffffffffffffffffffffffffffffffffffffff163273ffffffffffffffffffffffffffffffffffffffff16141562001462576040517f08c379a000000000000000000000000000000000000000000000000000000000815260040162001459906200704c565b60405180910390fd5b6200147867a9c036c94cd54edc60c01b62000baf565b6200148e6763f6695639916c6e60c01b62000baf565b620014a467b0a79d5adabc3b5b60c01b62000baf565b620014ba67b600d829ed1153c060c01b62000baf565b6000808273ffffffffffffffffffffffffffffffffffffffff1673ffffffffffffffffffffffffffffffffffffffff16815260200190815260200160002060009054906101000a900460ff1662001548576040517f08c379a00000000000000000000000000000000000000000000000000000000081526004016200153f9062006fe6565b60405180910390fd5b6200155e674029e73f004e4ecc60c01b62000baf565b62001574672ed33cd7b187417b60c01b62000baf565b60008060008373ffffffffffffffffffffffffffffffffffffffff1673ffffffffffffffffffffffffffffffffffffffff16815260200190815260200160002060006101000a81548160ff021916908315150217905550620015e16749938a384c2ceb6860c01b62000baf565b620015f7674d20265a5c483ab460c01b62000baf565b7fee943cdb81826d5909c559c6b1ae6908fcaf2dbc16c4b730346736b486283e8b32826040516200162a92919062006a5d565b60405180910390a150565b600060019050919050565b600062001658677df8dd108a0bb99760c01b62002066565b6200166e6776817f6604cbdc1c60c01b62002066565b6200168467e3b881ef4f629cef60c01b62002066565b620016ac826000015183602001518460400151856060015186608001518760a0015162003c0c565b9050919050565b600560009054906101000a900473ffffffffffffffffffffffffffffffffffffffff1681565b6000620016f167ab127391da299b9060c01b62002066565b6200170767e66a388f9045e95160c01b62002066565b6200171d67ad2dbd00c3d7be3d60c01b62002066565b60086000838152602001908152602001600020600001549050919050565b6200175167df74d2a7ad884bce60c01b62002066565b6200176767f8063587baa438a060c01b62002066565b6200177d6731e4f7b2d15abb5160c01b62002066565b600062001789620033a4565b9050620017a167a13dbf60b367e83f60c01b62002066565b620017b767af2190861373587860c01b62002066565b6000600760008373ffffffffffffffffffffffffffffffffffffffff1673ffffffffffffffffffffffffffffffffffffffff16815260200190815260200160002060020160008473ffffffffffffffffffffffffffffffffffffffff1673ffffffffffffffffffffffffffffffffffffffff1681526020019081526020016000205490506200185167c04cfc4d5467de4260c01b62002066565b6200186767aaeb2b3d7c9ef7da60c01b62002066565b6200187d670f442ff8595cff0260c01b62002066565b6000811415620018c4576040517f08c379a0000000000000000000000000000000000000000000000000000000008152600401620018bb9062006ef8565b60405180910390fd5b620018da679165284ffb72aca560c01b62002066565b620018f0676bb1af0dec9a036260c01b62002066565b62001906670315535f685f2ec260c01b62002066565b6200191c677321cc3a07ac3bd360c01b62002066565b4281111562001962576040517f08c379a0000000000000000000000000000000000000000000000000000000008152600401620019599062006f80565b60405180910390fd5b62001978677935bbce73f1fa3060c01b62002066565b6200198e677a7c7d925517144660c01b62002066565b6000600760008473ffffffffffffffffffffffffffffffffffffffff1673ffffffffffffffffffffffffffffffffffffffff16815260200190815260200160002060020160008573ffffffffffffffffffffffffffffffffffffffff1673ffffffffffffffffffffffffffffffffffffffff1681526020019081526020016000208190555062001a29676c6dd554df22b67160c01b62002066565b62001a3f67a87c2ececa14ebf160c01b62002066565b6000600760008473ffffffffffffffffffffffffffffffffffffffff1673ffffffffffffffffffffffffffffffffffffffff16815260200190815260200160002060000160009054906101000a900473ffffffffffffffffffffffffffffffffffffffff16905062001abc67dda07c5d3bff4c9d60c01b62002066565b62001ad267251f1cee50a8e3d460c01b62002066565b600062001aea67cb001c106a2c8e0f60c01b62002066565b62001b0067644d47775461631360c01b62002066565b600073ffffffffffffffffffffffffffffffffffffffff168573ffffffffffffffffffffffffffffffffffffffff16141562001b825762001b4c67c71ceaa344c025a060c01b62002066565b62001b62672761002843b750cf60c01b62002066565b8173ffffffffffffffffffffffffffffffffffffffff1631905062001c40565b62001b9867364a8444664f6f8060c01b62002066565b62001bae67af875e7c835bbc3c60c01b62002066565b8473ffffffffffffffffffffffffffffffffffffffff166370a08231836040518263ffffffff1660e01b815260040162001be9919062006a23565b60206040518083038186803b15801562001c0257600080fd5b505afa15801562001c17573d6000803e3d6000fd5b505050506040513d601f19601f8201168201806040525081019062001c3d919062005f45565b90505b62001c566726e234a5a183de6260c01b62002066565b62001c6c671d0c500836a0039660c01b62002066565b62001c7a82858784620037e8565b62001c9067692dc6731f23b2a160c01b62002066565b62001ca667070dd133133782c160c01b62002066565b7f5300d9a2838baade7cdc628c82cb80c1298853ba5f389d51e2b47330336aeffc8285878460405162001cdd949392919062006af4565b60405180910390a15050505050565b62001d0267555b043c6a67a4ed60c01b62002066565b62001d1867aa67934fea7b762c60c01b62002066565b62001d2e67adb5369763e400c560c01b62002066565b600062001d3a620033a4565b905062001d52679d4c3f4c251d7eec60c01b62002066565b62001d6867f0aeb0474a3018dd60c01b62002066565b600080600062001e078d858e8e8e8e8e8e8080601f016020809104026020016040519081016040528093929190818152602001838380828437600081840152601f19601f820116905080830192505050505050508d8d8080601f016020809104026020016040519081016040528093929190818152602001838380828437600081840152601f19601f8201169050808301925050505050505062003cb3565b92509250925062001e236796d37322adc43dd860c01b62002066565b62001e39672cbf4b53b831224660c01b62002066565b62001e518262001e498662002f3f565b8e84620037e8565b62001e6767fd324676ae7d857760c01b62002066565b62001e7d67f445f225011772f860c01b62002066565b7f771bc0494e1a2fcbef19a8762845000d8c4500454c756a7370c955e39ed60fd4838260405162001eb092919062006d17565b60405180910390a150505050505050505050505050565b60025481565b600060019050919050565b62001eee67676e9566cc8e513560c01b62000baf565b62001f0467d2c29ef13b805ccb60c01b62000baf565b62001f1a67623eca7ba38e838260c01b62000baf565b62001f306723fb90b9db18499560c01b62000baf565b62001f4667d3ce94283a69a5e360c01b62000baf565b6000803273ffffffffffffffffffffffffffffffffffffffff1673ffffffffffffffffffffffffffffffffffffffff16815260200190815260200160002060009054906101000a900460ff1662001fd4576040517f08c379a000000000000000000000000000000000000000000000000000000000815260040162001fcb9062006f3c565b60405180910390fd5b62001fea67c9850be77c9514e060c01b62000baf565b620020006785b6ada70a70c80f60c01b62000baf565b62002016674e23c8ed74539bb760c01b62000baf565b6200202c67959eff609d24b8da60c01b62000baf565b62002042671687f63f7d071f0a60c01b62000baf565b6200205867125f211dc364ece160c01b62000baf565b620020638162004526565b50565b50565b6000919050565b6200208667e22d059d1ca1d38b60c01b62002066565b6200209c67da9e525d3e47d20260c01b62002066565b620020b26729cb7eba6aa7acf560c01b62002066565b6000620020be620033a4565b9050620020d66705debf1f70ef1fb460c01b62002066565b620020ec672a59f3be6eaf093360c01b62002066565b6000600760008373ffffffffffffffffffffffffffffffffffffffff1673ffffffffffffffffffffffffffffffffffffffff16815260200190815260200160002060020160008473ffffffffffffffffffffffffffffffffffffffff1673ffffffffffffffffffffffffffffffffffffffff1681526020019081526020016000205490506200218667a1b6aac50e6a45b460c01b62002066565b6200219c672053f0abd568b76360c01b62002066565b620021b2679f2d7eae900cd5c960c01b62002066565b60008114620021f8576040517f08c379a0000000000000000000000000000000000000000000000000000000008152600401620021ef9062006e92565b60405180910390fd5b6200220e67f70c1aee0f8d00ee60c01b62002066565b620022246713d18d94ab218c6860c01b62002066565b6200223a671a8fa1efd6dde7d960c01b62002066565b6200224582620030aa565b6200225b674c7b044a0fabb92e60c01b62002066565b6200227260065442620047c590919063ffffffff16565b90506200228a67287ebb355aeb7c3560c01b62002066565b80600760008473ffffffffffffffffffffffffffffffffffffffff1673ffffffffffffffffffffffffffffffffffffffff16815260200190815260200160002060020160008573ffffffffffffffffffffffffffffffffffffffff1673ffffffffffffffffffffffffffffffffffffffff16815260200190815260200160002081905550620023246714f37546a3feb9da60c01b62002066565b6200233a674c18b40b2af3f5c460c01b62002066565b7fed3c8c6cdfc6d7b91dc9db3e1f54866587c26c3c3e0f9e32cd1944974be43a50600760008473ffffffffffffffffffffffffffffffffffffffff1673ffffffffffffffffffffffffffffffffffffffff16815260200190815260200160002060000160009054906101000a900473ffffffffffffffffffffffffffffffffffffffff16838584604051620023d3949392919062006af4565b60405180910390a1505050565b600060019050919050565b60065481565b6000919050565b60006200241067fee696d73d0229cb60c01b62002066565b62002426677b4941bd58a429f260c01b62002066565b6200243c67b7df2deb26ecca5460c01b62002066565b600760008473ffffffffffffffffffffffffffffffffffffffff1673ffffffffffffffffffffffffffffffffffffffff16815260200190815260200160002060010160008373ffffffffffffffffffffffffffffffffffffffff1673ffffffffffffffffffffffffffffffffffffffff16815260200190815260200160002054905092915050565b6000919050565b6000620024e367a793ccf70eef8a0560c01b62000baf565b620024f9676aa7f30eac16e53860c01b62000baf565b6200250f674a73c9ff6ac4de1e60c01b62000baf565b6200255f8484848080601f016020809104026020016040519081016040528093929190818152602001838380828437600081840152601f19601f820116905080830192505050505050506200346b565b90509392505050565b600460009054906101000a900473ffffffffffffffffffffffffffffffffffffffff1681565b620025a46701ec8e0862cdf5b760c01b62002066565b620025ba6794935ad857d3f68660c01b62002066565b620025d067fec94ac1b49af0ab60c01b62002066565b6000620025dc620033a4565b9050620025f467da685bb6c85af94860c01b62002066565b6200260a67141ff9aeaf8438ec60c01b62002066565b6000806000620026a98e858f8f8f8f8e8e8080601f016020809104026020016040519081016040528093929190818152602001838380828437600081840152601f19601f820116905080830192505050505050508d8d8080601f016020809104026020016040519081016040528093929190818152602001838380828437600081840152601f19601f8201169050808301925050505050505062003cb3565b925092509250620026c56789d79359e10615d960c01b62002066565b620026db6750a9c68486a4c39b60c01b62002066565b620026ea82858f848d620048e4565b6200270067d49057e607ef51fe60c01b62002066565b6200271667bceb2e77b6dc1d5560c01b62002066565b7f8b67efde501ee9cd0e771f7436554c44a5c076239ff3a6fbb397646a4689c0f283828b6040516200274b9392919062006d44565b60405180910390a15050505050505050505050505050565b60006200277b67eeb1253f4883981b60c01b62002066565b620027916791f8a3b57cb9f4d260c01b62002066565b620027a76743644b563e6997d360c01b62002066565b600760008473ffffffffffffffffffffffffffffffffffffffff1673ffffffffffffffffffffffffffffffffffffffff16815260200190815260200160002060020160008373ffffffffffffffffffffffffffffffffffffffff1673ffffffffffffffffffffffffffffffffffffffff16815260200190815260200160002054905092915050565b62002845673f712ae30581365860c01b62002066565b6200285b67a3e5e22425f616ff60c01b62002066565b6200287167d6c92792c56ad01960c01b62002066565b60006200287d620033a4565b90506200289567e41a1c511d45bc6360c01b62002066565b620028ab671eebe64168f5f15c60c01b62002066565b60008060006200294a8d858e8e8e8e8e8e8080601f016020809104026020016040519081016040528093929190818152602001838380828437600081840152601f19601f820116905080830192505050505050508d8d8080601f016020809104026020016040519081016040528093929190818152602001838380828437600081840152601f19601f8201169050808301925050505050505062003cb3565b925092509250620029666782f4d73e66c1c69460c01b62002066565b6200297c676be21aaa10f4a5d460c01b62002066565b6200298a82858e84620037e8565b620029a0673bbf5e51527e882d60c01b62002066565b620029b667dd6578fc5d1ec3c060c01b62002066565b7f6675346cd43846f7d47c310d39fb5c15bc7db66b3770338cdf1f133613a5ae988382604051620029e992919062006d17565b60405180910390a150505050505050505050505050565b62002a1667d0e308d3e2019b4f60c01b62002066565b62002a2c67fcfa9f56aa2da43760c01b62000a40565b62002a4267fb88de49e16e7f9a60c01b62000a40565b62002a5867b0390fd68bc3d08360c01b62000a40565b62002a6e6736465d694fbcce6560c01b62000a40565b600160009054906101000a900473ffffffffffffffffffffffffffffffffffffffff1673ffffffffffffffffffffffffffffffffffffffff163273ffffffffffffffffffffffffffffffffffffffff161462002b01576040517f08c379a000000000000000000000000000000000000000000000000000000000815260040162002af89062006e70565b60405180910390fd5b62002b17670837dbff5fe2bf1560c01b62000a40565b62002b2d6708a4449089149c9e60c01b62000a40565b6000600160006101000a81548173ffffffffffffffffffffffffffffffffffffffff021916908373ffffffffffffffffffffffffffffffffffffffff16021790555062002b85677090866afaacfcb260c01b62000a40565b62002b9b6738a55f8c5f288ea260c01b62002066565b62002bb167a0c3e7e88721f76860c01b62002066565b62002bc76704057584012acabc60c01b62002066565b85600460006101000a81548173ffffffffffffffffffffffffffffffffffffffff021916908373ffffffffffffffffffffffffffffffffffffffff16021790555062002c1e672466688ebaed92ac60c01b62002066565b84600560006101000a81548173ffffffffffffffffffffffffffffffffffffffff021916908373ffffffffffffffffffffffffffffffffffffffff16021790555062002c7567092a00b6b4ad73e560c01b62002066565b62002c8b67687bafa3bb3d6e7560c01b62002066565b600084141562002cd15762002cab67f0a01d643754323f60c01b62002066565b62002cc167ccdfca60dfb94edd60c01b62002066565b6224ea0060068190555062002d05565b62002ce767919dce6945b8417260c01b62002066565b62002cfd67bfb2fea35ee47c9f60c01b62002066565b836006819055505b62002d1b672ba67b1bc89ec8fa60c01b62002066565b62002d31676f2b4a127d6f94de60c01b62002066565b62002d7d838380806020026020016040519081016040528093929190818152602001838360200280828437600081840152601f19601f8201169050808301925050505050505062004b01565b62002d93675eca74ef62a6bcc560c01b62002066565b62002da96738160d9d204d6c9560c01b62002066565b62002db48162004c80565b62002dca67fb94bf07355708f360c01b62000a40565b62002de067fe130d7f30f64fe360c01b62000a40565b7f908408e307fc569b417f6cbec5d5a06f44a0a505ac0479b47d421a4b2fd6a1e63260405162002e11919062006a40565b60405180910390a1505050505050565b50565b600062002e3c671c7eddc9dd430ec360c01b62002066565b62002e5267dddfcb5ce0bef81e60c01b62002066565b62002e68675dcf5741af89233160c01b62002066565b8484848460405160200162002e8194939291906200683c565b604051602081830303815290604052805190602001209050949350505050565b600062002eb96701281008318d74bb60c01b62002066565b62002ecf670124c2122e31f9c560c01b62002066565b62002ee567a44ed991e6049e4160c01b62002066565b62002f367f3b3087c8f883f1f44cabe66444f5f9d96f69de6a88f364ea10959eef0331414a85858560405160200162002f21939291906200690e565b60405160208183030381529060405262004cf0565b90509392505050565b600062002f5767fb47bc40f78afdb660c01b62002066565b62002f6d675756a040833238e060c01b62002066565b62002f8367ba19ba3b70bf5f7b60c01b62002066565b60008260405160200162002f9891906200681f565b60405160208183030381529060405280519060200120905062002fc66780c2c32b21ef5ccb60c01b62002066565b62002fdc67bce8b6b93af3d43f60c01b62002066565b60606040518060200162002ff09062005726565b6020820181038252601f19601f8201166040525090506200301c674de53742dd1233b560c01b62002066565b62003032672a946814a076797560c01b62002066565b600060ff60f81b3084848051906020012060405160200162003058949392919062006951565b604051602081830303815290604052805190602001209050620030866746896c1544bf2af860c01b62002066565b6200309c6734ddab59057577d060c01b62002066565b8060001c9350505050919050565b620030c067b634d5909112f95260c01b62002066565b620030d667cb21e10cf4c7d36760c01b62002066565b620030ec671a8e758e001c4bb860c01b62002066565b600073ffffffffffffffffffffffffffffffffffffffff16600760008373ffffffffffffffffffffffffffffffffffffffff1673ffffffffffffffffffffffffffffffffffffffff16815260200190815260200160002060000160009054906101000a900473ffffffffffffffffffffffffffffffffffffffff1673ffffffffffffffffffffffffffffffffffffffff1614156200338a576200319a67f087c912bf79fb7560c01b62002066565b620031b0674e6fa3ab3bf6a7e060c01b62002066565b620031c667f44612b56d43a58c60c01b62002066565b600081604051602001620031db91906200681f565b6040516020818303038152906040528051906020012090506200320967fbee472d7dbde49e60c01b62002066565b80604051620032189062005726565b8190604051809103906000f590508015801562003239573d6000803e3d6000fd5b50600760008473ffffffffffffffffffffffffffffffffffffffff1673ffffffffffffffffffffffffffffffffffffffff16815260200190815260200160002060000160006101000a81548173ffffffffffffffffffffffffffffffffffffffff021916908373ffffffffffffffffffffffffffffffffffffffff160217905550620032d067f1a870d6c1a5172560c01b62002066565b620032e667996536973e52357260c01b62002066565b7fd80572c0f2f24f2d9d726d831bd860ed82b12bafaf01cfb6e4d38fb23c4347e9600760008473ffffffffffffffffffffffffffffffffffffffff1673ffffffffffffffffffffffffffffffffffffffff16815260200190815260200160002060000160009054906101000a900473ffffffffffffffffffffffffffffffffffffffff16836040516200337b92919062006a8a565b60405180910390a150620033a1565b620033a067d0c0203ef118ad3260c01b62002066565b5b50565b6000620033bc67710f16ba5255f93760c01b62000975565b620033d267dec5e520002c7ac460c01b62000975565b620033e867fcbf731da3f60f0860c01b62000975565b620033f4602862004d77565b905090565b60006200341167f07c528a28352d4060c01b62004f2f565b6200342767cc1a79359b83ee1b60c01b62004f2f565b6200343d67eb8b52f5078d79ff60c01b62004f2f565b62003463838360405180606001604052806021815260200162007d376021913962004f32565b905092915050565b600062003483674a9a42792ffe0a1d60c01b62000baf565b6200349967526179c808a7370c60c01b62000baf565b620034af677dd49387f02ed72e60c01b62000baf565b6000620034c683856200502490919063ffffffff16565b9050620034de679314107d128b1f0260c01b62000baf565b620034f4671c43e63cea00f45a60c01b62000baf565b6000808273ffffffffffffffffffffffffffffffffffffffff1673ffffffffffffffffffffffffffffffffffffffff16815260200190815260200160002060009054906101000a900460ff1691505092915050565b6200355f67e04bf4afe78713b160c01b62002066565b6200357567cb62b0d64bd1ed7660c01b62002066565b6200358b677395c9bf6d517bda60c01b62002066565b6000600760008473ffffffffffffffffffffffffffffffffffffffff1673ffffffffffffffffffffffffffffffffffffffff16815260200190815260200160002060020160008373ffffffffffffffffffffffffffffffffffffffff1673ffffffffffffffffffffffffffffffffffffffff16815260200190815260200160002054111562003796576200362a67ebf416b93de4eef460c01b62002066565b6200364067483634d7926c600860c01b62002066565b6000600760008473ffffffffffffffffffffffffffffffffffffffff1673ffffffffffffffffffffffffffffffffffffffff16815260200190815260200160002060020160008373ffffffffffffffffffffffffffffffffffffffff1673ffffffffffffffffffffffffffffffffffffffff16815260200190815260200160002081905550620036db6711e1d4dcd355b40960c01b62002066565b620036f16725f60c20789ebb4f60c01b62002066565b7fa19281a6f3163da06f6b82f3ecf0130493c52aba23cdc2a312f652742f0d1801600760008473ffffffffffffffffffffffffffffffffffffffff1673ffffffffffffffffffffffffffffffffffffffff16815260200190815260200160002060000160009054906101000a900473ffffffffffffffffffffffffffffffffffffffff168383604051620037889392919062006ab7565b60405180910390a1620037e4565b620037ac671595fd4689e9876260c01b62002066565b620037c2671abc8ccc3d8bc2ab60c01b62002066565b620037d86761071968c562582660c01b62002066565b620037e382620030aa565b5b5050565b620037fe67df5bc005feac5a3160c01b62002066565b620038146743eb4dde7568166e60c01b62002066565b6200382a677cdfb6e7e732ca9560c01b62002066565b600073ffffffffffffffffffffffffffffffffffffffff168273ffffffffffffffffffffffffffffffffffffffff161415620039905762003876672e858396f900037760c01b62002066565b6200388c6746cef0ebbb25576960c01b62002066565b620038a267ae58ebdbb740483a60c01b62002066565b8373ffffffffffffffffffffffffffffffffffffffff16633f579f428483600067ffffffffffffffff81118015620038d957600080fd5b506040519080825280601f01601f1916602001820160405280156200390d5781602001600182028036833780820191505090505b506040518463ffffffff1660e01b81526004016200392e9392919062006c2c565b600060405180830381600087803b1580156200394957600080fd5b505af11580156200395e573d6000803e3d6000fd5b505050506040513d6000823e3d601f19601f8201168201806040525081019062003989919062005e0a565b5062003c06565b620039a667a31e6cba292b0a2160c01b62002066565b620039bc679ff27b583e456f8f60c01b62002066565b620039d267326c7868b4728fbb60c01b62002066565b60608473ffffffffffffffffffffffffffffffffffffffff16633f579f4284600063a9059cbb60e01b888760405160240162003a1092919062006bff565b604051602081830303815290604052907bffffffffffffffffffffffffffffffffffffffffffffffffffffffff19166020820180517bffffffffffffffffffffffffffffffffffffffffffffffffffffffff83818316178352505050506040518463ffffffff1660e01b815260040162003a8d9392919062006bbb565b600060405180830381600087803b15801562003aa857600080fd5b505af115801562003abd573d6000803e3d6000fd5b505050506040513d6000823e3d601f19601f8201168201806040525081019062003ae8919062005e0a565b905062003b00673d15514f7dece65a60c01b62002066565b62003b1667f22ce2ab76d09b0760c01b62002066565b60008151111562003bed5762003b3767c054c960f693693960c01b62002066565b62003b4d67a81c61698d7fe5f660c01b62002066565b62003b6367cc1686ffb1bf716060c01b62002066565b62003b796783eb6f2dc9dee5e060c01b62002066565b8080602001905181019062003b8f919062005d28565b62003bd1576040517f08c379a000000000000000000000000000000000000000000000000000000000815260040162003bc89062006f1a565b60405180910390fd5b62003be767b43b4f9f17f325ee60c01b62002066565b62003c04565b62003c0367f9cf8def0814dc0960c01b62002066565b5b505b50505050565b600062003c2467f094ff1a4ce0f7b860c01b62002066565b62003c3a67f6c19f5b5925123260c01b62002066565b62003c506732400904ddc7917560c01b62002066565b62003ca77f745089e29f2abf28f618236a5dc04d214ac05ead3440ba532b69e9d160ba2e7288888888888860405160200162003c929695949392919062006892565b60405160208183030381529060405262004cf0565b90509695505050505050565b600080600062003cce670717b526e798c13460c01b62002066565b62003ce4673f04230d955b910a60c01b62002066565b62003cfa67b41accefaf7137d660c01b62002066565b600062003d0c8c8c8c8c8c8c62003c0c565b905062003d2467f64414ab442020f260c01b62002066565b62003d3a6728354a46e8bc143260c01b62002066565b60008651141562003eb05762003d5b672a37aefe20e8624b60c01b62002066565b62003d7167b478601aff2db6e460c01b62002066565b62003d876738a03c26bc19770660c01b62002066565b62003d9d675b76e98eb711095a60c01b62002066565b600460009054906101000a900473ffffffffffffffffffffffffffffffffffffffff1673ffffffffffffffffffffffffffffffffffffffff166359b52ef88d838b6040518463ffffffff1660e01b815260040162003dfe9392919062006b7e565b60206040518083038186803b15801562003e1757600080fd5b505afa15801562003e2c573d6000803e3d6000fd5b505050506040513d601f19601f8201168201806040525081019062003e52919062005d28565b62003e94576040517f08c379a000000000000000000000000000000000000000000000000000000000815260040162003e8b9062007090565b60405180910390fd5b62003eaa67b4c10f0bc29145e360c01b62002066565b620041ea565b62003ec6676634d829b20ea0bb60c01b62002066565b62003edc67c858bf5725ae843f60c01b62002066565b62003ef267ccd6dc2829ec0e6760c01b62002066565b600062003f0987836200502490919063ffffffff16565b905062003f216764e8cf17fbc182eb60c01b62002066565b62003f3767ae01a2596ee0324560c01b62002066565b8073ffffffffffffffffffffffffffffffffffffffff168d73ffffffffffffffffffffffffffffffffffffffff1614620041d15762003f816723b41d5c48edabb960c01b62002066565b62003f9767fe994d1c0facf1f460c01b62002066565b62003fad67c64338ff6f853e1960c01b62002066565b62003fc3674963d35374bff64760c01b62002066565b600560009054906101000a900473ffffffffffffffffffffffffffffffffffffffff1673ffffffffffffffffffffffffffffffffffffffff166334d323a48e838c6040518463ffffffff1660e01b8152600401620040249392919062006b41565b60206040518083038186803b1580156200403d57600080fd5b505afa15801562004052573d6000803e3d6000fd5b505050506040513d601f19601f8201168201806040525081019062004078919062005d28565b8015620040975750620040966787599a089faf9fb860c01b620023e0565b5b80620041735750600460009054906101000a900473ffffffffffffffffffffffffffffffffffffffff1673ffffffffffffffffffffffffffffffffffffffff166334d323a48e838c6040518463ffffffff1660e01b8152600401620040ff9392919062006b41565b60206040518083038186803b1580156200411857600080fd5b505afa1580156200412d573d6000803e3d6000fd5b505050506040513d601f19601f8201168201806040525081019062004153919062005d28565b801562004172575062004171672e9412e3d804175f60c01b620023e0565b5b5b620041b5576040517f08c379a0000000000000000000000000000000000000000000000000000000008152600401620041ac9062006fc4565b60405180910390fd5b620041cb672a4c1774d6a15ae460c01b62002066565b620041e8565b620041e767edcb842566fb7e9f60c01b62002066565b5b505b6200420067aa0080f1435c172760c01b62002066565b6200421667587d7be0abb8ec8360c01b62002066565b6200422c671997b7d4b0e2955660c01b62002066565b6200423881866200346b565b6200427a576040517f08c379a0000000000000000000000000000000000000000000000000000000008152600401620042719062007090565b60405180910390fd5b62004290670ff5aad21a4d615660c01b62002066565b620042a667a5afac06df4b9e7a60c01b62002066565b620042b48c8c8c8c62002e24565b9350620042cc6740f6615e3a98803760c01b62002066565b620042f7600860008681526020019081526020016000206000015488620033f990919063ffffffff16565b91506200430f67fa07c34dd468bcf360c01b62002066565b620043256702960e246e46312060c01b62002066565b6200433b67c85560b9f744461a60c01b62002066565b600082141562004382576040517f08c379a0000000000000000000000000000000000000000000000000000000008152600401620043799062006eb4565b60405180910390fd5b62004398676051e739b7ca5cee60c01b62002066565b620043ae677805a8cbdc0139cc60c01b62002066565b866008600086815260200190815260200160002060000181905550620043df671747dd0f51e18f1f60c01b62002066565b620043f56772cfb7421538c65460c01b62002066565b620044018c8b62003549565b62004417678af851a8e052bcd460c01b62002066565b600760008d73ffffffffffffffffffffffffffffffffffffffff1673ffffffffffffffffffffffffffffffffffffffff16815260200190815260200160002060000160009054906101000a900473ffffffffffffffffffffffffffffffffffffffff1692506200449267fb9ad4e1cf34d6f760c01b62002066565b620044a8672e8038beb97c15f260c01b62002066565b7f0d1cb77d1fe491f98926195d0b885509da18bc305dd1489f45610237d971ed46848d8d8d8d8c604051620044e39695949392919062006caa565b60405180910390a16200450167c0abbd97508f8a0860c01b62002066565b6200451767e2f80807ff8dc31460c01b62002066565b50985098509895505050505050565b6200453c67f65b93de862ebbb760c01b62000baf565b6200455267aa647d61fc6ef91160c01b62000baf565b6200456867ad9a5a517ee3870f60c01b62000baf565b6200457e6756b48614f1a13b7760c01b62000baf565b600073ffffffffffffffffffffffffffffffffffffffff168173ffffffffffffffffffffffffffffffffffffffff161415620045f1576040517f08c379a0000000000000000000000000000000000000000000000000000000008152600401620045e89062006e4e565b60405180910390fd5b620046076702e33590863478fd60c01b62000baf565b6200461d67ddc1872f8ab92daf60c01b62000baf565b62004633673abc31a91fe568fb60c01b62000baf565b6200464967a10033962d34182960c01b62000baf565b6000808273ffffffffffffffffffffffffffffffffffffffff1673ffffffffffffffffffffffffffffffffffffffff16815260200190815260200160002060009054906101000a900460ff1615620046d8576040517f08c379a0000000000000000000000000000000000000000000000000000000008152600401620046cf906200702a565b60405180910390fd5b620046ee67077620d6fcfbfb7560c01b62000baf565b6200470467e85030ecd37db18d60c01b62000baf565b60016000808373ffffffffffffffffffffffffffffffffffffffff1673ffffffffffffffffffffffffffffffffffffffff16815260200190815260200160002060006101000a81548160ff0219169083151502179055506200477167aabb31e67d7c312160c01b62000baf565b6200478767fd2bdd152b51cb5c60c01b62000baf565b7fbc3292102fa77e083913064b282926717cdfaede4d35f553d66366c0a3da755a3282604051620047ba92919062006a5d565b60405180910390a150565b6000620047dd672f7081d3ac69d64f60c01b62004f2f565b620047f367e05e60bdd722f66160c01b62004f2f565b620048096774c838bbf482bd8560c01b62004f2f565b60008284019050620048266791de80e355d3edb460c01b62004f2f565b6200483c677ca3e91bc6a152c860c01b62004f2f565b620048526725c47f0291cfa2c760c01b62004f2f565b8381101562004898576040517f08c379a00000000000000000000000000000000000000000000000000000000081526004016200488f9062007008565b60405180910390fd5b620048ae6704329dbd22b9b98860c01b62004f2f565b620048c46763377f755a44877e60c01b62004f2f565b620048da676af9a393a18466ca60c01b62004f2f565b8091505092915050565b620048fa67d26159458138d29960c01b62002066565b62004910672615a526c6d92c3a60c01b62002066565b620049266789bab65abcd7631060c01b62002066565b6200493c6794619bf2fc60727460c01b62002066565b6000811162004982576040517f08c379a0000000000000000000000000000000000000000000000000000000008152600401620049799062006e2c565b60405180910390fd5b62004998674cf9f4b264fe535b60c01b62002066565b620049ae6729d9d32042f204ff60c01b62002066565b620049c467051a9559c5b3022060c01b62002066565b6000620049db8284620033f990919063ffffffff16565b9050620049f3675a9445aa836ccccd60c01b62002066565b62004a0967afc8af9fc287f16460c01b62002066565b62004a1f677783c695f185d9d760c01b62002066565b6000811162004a65576040517f08c379a000000000000000000000000000000000000000000000000000000000815260040162004a5c9062006fa2565b60405180910390fd5b62004a7b67cb21c3165315c01360c01b62002066565b62004a916738618bef40229fff60c01b62002066565b62004aa7678c7c04afaa78b24960c01b62002066565b62004ab586868684620037e8565b62004acb676e7e37c83cca912160c01b62002066565b62004ae167ed686dfe6ad9d9c060c01b62002066565b62004af98662004af18762002f3f565b8685620037e8565b505050505050565b62004b17678da7ec38a2ce7b5460c01b62000baf565b62004b2d6735e17b9212dd5aa560c01b62000baf565b62004b4367aee748f088e665ff60c01b62000baf565b60008151141562004ba15762004b6467f1b977514e06d6ec60c01b62000baf565b62004b7a67246d9b20f61a2c7060c01b62000baf565b62004b9067b0140aff1a51a88460c01b62000baf565b62004b9b3262004526565b62004c7d565b62004bb7673bbca7f2af47981f60c01b62000baf565b62004bcd677ce04423f50d9aa560c01b62000baf565b62004be3674f94a445d27b292360c01b62000baf565b60008151905062004bff67b464ad0e2dfc622d60c01b62000baf565b62004c15675259874965568d7360c01b62000baf565b60005b8181101562004c7a5762004c376787c98506eba6e7f460c01b62000baf565b62004c4d674ca430d71f82feb760c01b62000baf565b62004c6c83828151811062004c5e57fe5b602002602001015162004526565b808060010191505062004c18565b50505b50565b62004c966746882e2c11ed46c160c01b62000975565b62004cac676c36f6d39584376f60c01b62000975565b80600360006101000a81548173ffffffffffffffffffffffffffffffffffffffff021916908373ffffffffffffffffffffffffffffffffffffffff16021790555050565b600062004d08673f80c4267c86569760c01b62002e21565b62004d1e677d2a3e6a09e2de5e60c01b62002e21565b62004d34673810f4d2678d92f560c01b62002e21565b62004d6f60025430858560405160200162004d539493929190620069d1565b604051602081830303815290604052805190602001206200536f565b905092915050565b600062004d8f671937c50f8ee6bd7560c01b62000975565b62004da5677f2470542d8b582160c01b62000975565b62004dbb6772cd915f3c4fd20860c01b62000975565b600062004dd36735924b777f91851660c01b62000975565b62004de9677be5caa912ec003360c01b62000975565b62004df3620053e3565b1562004eca5762004e0f67c7d00f041d47a82e60c01b62000975565b62004e256761b9edb74a77024f60c01b62000975565b62004e3b67adada370c372082760c01b62000975565b600083600036905003905062004e5c6774ad170529f9b0c460c01b62000975565b62004ec16000368390601485019262004e789392919062007178565b8080601f016020809104026020016040519081016040528093929190818152602001838380828437600081840152601f19601f82011690508083019250505050505050620055cf565b91505062004efa565b62004ee067aa51540a2b49838f60c01b62000975565b62004ef667d956dbe7e93a8e5560c01b62000975565b3390505b62004f1067f02d02d05627bfd960c01b62000975565b62004f26675181fa575ff3293260c01b62000975565b80915050919050565b50565b600062004f4a678680f8fac0535b9060c01b62004f2f565b62004f6067013fb5b238aa794060c01b62004f2f565b62004f7667fd5553d5c4bf584d60c01b62004f2f565b62004f8c67152453631826b96f60c01b62004f2f565b83831115829062004fd5576040517f08c379a000000000000000000000000000000000000000000000000000000000815260040162004fcc919062006e08565b60405180910390fd5b5062004fec67908af84e0adf7a1e60c01b62004f2f565b620050026788fe378e46199cbd60c01b62004f2f565b620050186770e0c4e60857f8bf60c01b62004f2f565b82840390509392505050565b60006200503c67e710cfd691944ecc60c01b62005715565b62005052670294e6bd98a0f62d60c01b62005715565b62005068672ab65f4f031e9def60c01b62005715565b60006200508067c6d253441a2ce96960c01b62005715565b6200509667d507789c27b9728c60c01b62005715565b6041835114156200532257620050b767c2aeb0e1af675d5460c01b62005715565b620050cd67132cb9b7d0d6e6fb60c01b62005715565b620050e36733531d442010362560c01b62005715565b6000620050fb67fad8c7fceb31964660c01b62005715565b6200511167efaa9aab96f45ecf60c01b62005715565b60006200512967a62978cc94671abb60c01b62005715565b6200513f6760b909685737ef6860c01b62005715565b600062005157678e8a4f44537e79e560c01b62005715565b6020860151925060408601519150606086015160001a90506200518567284a83339c1f2f7260c01b62005715565b6200519b6737f23b19123b98a560c01b62005715565b601b8160ff161015620051e057620051be6740c617d25322a1e960c01b62005715565b620051d467f2fa807318960d7060c01b62005715565b601b81019050620051f7565b620051f667bf9557648bed897660c01b62005715565b5b6200520d67d900a81b8b38110a60c01b62005715565b6200522367c7a42d5f693bb07560c01b62005715565b601b8160ff161480156200524957506200524867c15d680a0d1bdf9b60c01b62005718565b5b80620052775750601c8160ff1614801562005276575062005275672aeb3fb673e7536760c01b62005718565b5b5b15620053025762005293675c8ff17285f13d9760c01b62005715565b620052a866751e47d6c1350a60c01b62005715565b60018782858560405160008152602001604052604051620052cd949392919062006d81565b6020604051602081039080840390855afa158015620052f0573d6000803e3d6000fd5b50505060206040510351935062005319565b62005318673685a6bcd969a27360c01b62005715565b5b50505062005339565b6200533867b007f12c841b69c460c01b62005715565b5b6200534f6708a35a687b2ffbcd60c01b62005715565b62005365675e1719d1223e5f0a60c01b62005715565b8091505092915050565b60006200538767edd48b63a1fff58960c01b62005715565b6200539d67811a5ae4ad13419260c01b62005715565b620053b3672990291e8165170b60c01b62005715565b81604051602001620053c69190620069a7565b604051602081830303815290604052805190602001209050919050565b6000620053fb670b25216ab3d4433960c01b62000975565b6200541167e7b20be58871ffb360c01b62000975565b62005427673c460f0ecb611b1d60c01b62000975565b60006200543f678461386c4c1e838a60c01b62000975565b62005455676a84a32d8b43a81660c01b62000975565b600360009054906101000a900473ffffffffffffffffffffffffffffffffffffffff1673ffffffffffffffffffffffffffffffffffffffff163373ffffffffffffffffffffffffffffffffffffffff1614156200558557620054c2670c955600d9acf0ae60c01b62000975565b620054d867b95d47fbc23eb84c60c01b62000975565b620054ee674edf613cbbc70c6b60c01b62000975565b6200550467d2db6cfd17ba402f60c01b62000975565b602c600036905010156200554f576040517f08c379a0000000000000000000000000000000000000000000000000000000008152600401620055469062006ed6565b60405180910390fd5b6200556567e643a98589414bb060c01b62000975565b6200557b673b6204683fe0453c60c01b62000975565b600190506200559c565b6200559b674a33ca0e31062c0760c01b62000975565b5b620055b267621001fad667c71760c01b62000975565b620055c8677097454f18ff0f0260c01b62000975565b8091505090565b6000620055e7671f96e198dbf0a1c860c01b62005723565b620055fd675e7b9bf5baedcd4760c01b62005723565b6200561367f5b1e5612b820b8c60c01b62005723565b60006200562b677d45556fe872c97c60c01b62005723565b6200564167e6ad8335897552fd60c01b62005723565b62005657679bd4247e4a5c097060c01b62005723565b60148351146200569e576040517f08c379a000000000000000000000000000000000000000000000000000000000815260040162005695906200706e565b60405180910390fd5b620056b467e246a942ede40e8660c01b62005723565b620056ca67949d489fd89d5f7d60c01b62005723565b6c010000000000000000000000006020840151049050620056f667ad8d88c2f58cd52d60c01b62005723565b6200570c67aec607b0982999cb60c01b62005723565b80915050919050565b50565b600060019050919050565b50565b6108b8806200747f83390190565b6000813590506200574581620073c8565b92915050565b60008083601f8401126200575e57600080fd5b8235905067ffffffffffffffff8111156200577857600080fd5b6020830191508360208202830111156200579157600080fd5b9250929050565b600081519050620057a981620073e2565b92915050565b600081359050620057c081620073fc565b92915050565b600081359050620057d78162007416565b92915050565b60008083601f840112620057f057600080fd5b8235905067ffffffffffffffff8111156200580a57600080fd5b6020830191508360018202830111156200582357600080fd5b9250929050565b600082601f8301126200583c57600080fd5b8151620058536200584d82620070fd565b620070cf565b915080825260208301602083018583830111156200587057600080fd5b6200587d8382846200732e565b50505092915050565b600081359050620058978162007430565b92915050565b600081359050620058ae816200744a565b92915050565b600060608284031215620058c757600080fd5b620058d36060620070cf565b90506000620058e58482850162005734565b6000830152506020620058fb8482850162005734565b60208301525060406200591184828501620059c8565b60408301525092915050565b600060c082840312156200593057600080fd5b6200593c60c0620070cf565b905060006200594e8482850162005734565b6000830152506020620059648482850162005734565b60208301525060406200597a8482850162005734565b60408301525060606200599084828501620057af565b6060830152506080620059a684828501620059c8565b60808301525060a0620059bc84828501620059c8565b60a08301525092915050565b600081359050620059d98162007464565b92915050565b600081519050620059f08162007464565b92915050565b60006020828403121562005a0957600080fd5b600062005a198482850162005734565b91505092915050565b6000806040838503121562005a3657600080fd5b600062005a468582860162005734565b925050602062005a598582860162005734565b9150509250929050565b6000806000806080858703121562005a7a57600080fd5b600062005a8a8782880162005734565b945050602062005a9d8782880162005734565b935050604062005ab08782880162005734565b925050606062005ac387828801620057af565b91505092959194509250565b600080600080600080600080600060e08a8c03121562005aee57600080fd5b600062005afe8c828d0162005734565b995050602062005b118c828d0162005734565b985050604062005b248c828d01620057af565b975050606062005b378c828d01620059c8565b965050608062005b4a8c828d01620059c8565b95505060a08a013567ffffffffffffffff81111562005b6857600080fd5b62005b768c828d01620057dd565b945094505060c08a013567ffffffffffffffff81111562005b9657600080fd5b62005ba48c828d01620057dd565b92509250509295985092959850929598565b6000806000806000806000806000806101008b8d03121562005bd757600080fd5b600062005be78d828e0162005734565b9a5050602062005bfa8d828e0162005734565b995050604062005c0d8d828e01620057af565b985050606062005c208d828e01620059c8565b975050608062005c338d828e01620059c8565b96505060a062005c468d828e01620059c8565b95505060c08b013567ffffffffffffffff81111562005c6457600080fd5b62005c728d828e01620057dd565b945094505060e08b013567ffffffffffffffff81111562005c9257600080fd5b62005ca08d828e01620057dd565b92509250509295989b9194979a5092959850565b6000806000806060858703121562005ccb57600080fd5b600062005cdb8782880162005734565b945050602062005cee87828801620059c8565b935050604085013567ffffffffffffffff81111562005d0c57600080fd5b62005d1a87828801620057dd565b925092505092959194509250565b60006020828403121562005d3b57600080fd5b600062005d4b8482850162005798565b91505092915050565b60006020828403121562005d6757600080fd5b600062005d7784828501620057af565b91505092915050565b60008060006040848603121562005d9657600080fd5b600062005da686828701620057af565b935050602084013567ffffffffffffffff81111562005dc457600080fd5b62005dd286828701620057dd565b92509250509250925092565b60006020828403121562005df157600080fd5b600062005e0184828501620057c6565b91505092915050565b60006020828403121562005e1d57600080fd5b600082015167ffffffffffffffff81111562005e3857600080fd5b62005e46848285016200582a565b91505092915050565b60008060008060008060a0878903121562005e6957600080fd5b600062005e7989828a0162005886565b965050602062005e8c89828a016200589d565b955050604062005e9f89828a01620059c8565b945050606087013567ffffffffffffffff81111562005ebd57600080fd5b62005ecb89828a016200574b565b9350935050608062005ee089828a0162005734565b9150509295509295509295565b60006060828403121562005f0057600080fd5b600062005f1084828501620058b4565b91505092915050565b600060c0828403121562005f2c57600080fd5b600062005f3c848285016200591d565b91505092915050565b60006020828403121562005f5857600080fd5b600062005f6884828501620059df565b91505092915050565b62005f7c816200728e565b82525050565b62005f8d81620071ad565b82525050565b62005fa862005fa282620071ad565b62007364565b82525050565b62005fb981620071c1565b82525050565b62005fd462005fce82620071cd565b62007378565b82525050565b62005fe581620071f9565b82525050565b6200600062005ffa82620071f9565b62007382565b82525050565b600062006013826200712a565b6200601f818562007140565b9350620060318185602086016200732e565b6200603c81620073aa565b840191505092915050565b600062006054826200712a565b62006060818562007151565b9350620060728185602086016200732e565b80840191505092915050565b6200608981620072a2565b82525050565b6200609a81620072ca565b82525050565b620060ab81620072f2565b82525050565b6000620060be8262007135565b620060ca81856200715c565b9350620060dc8185602086016200732e565b620060e781620073aa565b840191505092915050565b6000620061016026836200715c565b91507f5061796d656e7452656769737472793a20696e76616c6964206465706f73697460008301527f2076616c756500000000000000000000000000000000000000000000000000006020830152604082019050919050565b600062006169601c836200716d565b91507f19457468657265756d205369676e6564204d6573736167653a0a3332000000006000830152601c82019050919050565b6000620061ab6020836200715c565b91507f477561726465643a2063616e6e6f74206164642030783020677561726469616e6000830152602082019050919050565b6000620061ed602f836200715c565b91507f496e697469616c697a61626c653a2074782e6f726967696e206973206e6f742060008301527f74686520696e697469616c697a657200000000000000000000000000000000006020830152604082019050919050565b600062006255602f836200715c565b91507f5061796d656e7452656769737472793a206465706f736974206578697420616c60008301527f72656164792072657175657374656400000000000000000000000000000000006020830152604082019050919050565b6000620062bd6026836200715c565b91507f5061796d656e7452656769737472793a20696e76616c6964207061796d656e7460008301527f2076616c756500000000000000000000000000000000000000000000000000006020830152604082019050919050565b6000620063256022836200715c565b91507f47617465776179526563697069656e743a20696e76616c6964206d73672e646160008301527f74610000000000000000000000000000000000000000000000000000000000006020830152604082019050919050565b60006200638d602b836200715c565b91507f5061796d656e7452656769737472793a206465706f7369742065786974206e6f60008301527f74207265717565737465640000000000000000000000000000000000000000006020830152604082019050919050565b6000620063f5602d836200715c565b91507f5061796d656e7452656769737472793a204552433230546f6b656e207472616e60008301527f73666572207265766572746564000000000000000000000000000000000000006020830152604082019050919050565b60006200645d6026836200715c565b91507f477561726465643a2074782e6f726967696e206973206e6f742074686520677560008301527f61726469616e00000000000000000000000000000000000000000000000000006020830152604082019050919050565b6000620064c5601f836200715c565b91507f5061796d656e7452656769737472793a20696e76616c696420616d6f756e74006000830152602082019050919050565b6000620065076024836200715c565b91507f5061796d656e7452656769737472793a206465706f7369742065786974206c6f60008301527f636b6564000000000000000000000000000000000000000000000000000000006020830152604082019050919050565b60006200656f6027836200715c565b91507f5061796d656e7452656769737472793a20696e76616c6964207769746864726160008301527f772076616c7565000000000000000000000000000000000000000000000000006020830152604082019050919050565b6000620065d76029836200715c565b91507f5061796d656e7452656769737472793a20696e76616c69642073656e6465722060008301527f7369676e617475726500000000000000000000000000000000000000000000006020830152604082019050919050565b60006200663f601f836200715c565b91507f477561726465643a20677561726469616e20646f65736e2774206578697374006000830152602082019050919050565b600062006681601e836200715c565b91507f536166654d6174684c69623a206164646974696f6e206f766572666c6f7700006000830152602082019050919050565b6000620066c36020836200715c565b91507f477561726465643a20677561726469616e20616c7265616479206578697374736000830152602082019050919050565b600062006705601b836200715c565b91507f477561726465643a2063616e6e6f742072656d6f76652073656c6600000000006000830152602082019050919050565b600062006747601d836200715c565b91507f42797465734c69623a20696e76616c69642064617461206c656e6774680000006000830152602082019050919050565b600062006789602b836200715c565b91507f5061796d656e7452656769737472793a20696e76616c6964206775617264696160008301527f6e207369676e61747572650000000000000000000000000000000000000000006020830152604082019050919050565b620067ed8162007277565b82525050565b62006808620068028262007277565b620073a0565b82525050565b620068198162007281565b82525050565b60006200682d828462005f93565b60148201915081905092915050565b60006200684a828762005f93565b6014820191506200685c828662005f93565b6014820191506200686e828562005f93565b60148201915062006880828462005feb565b60208201915081905095945050505050565b6000620068a0828962005f93565b601482019150620068b2828862005f93565b601482019150620068c4828762005f93565b601482019150620068d6828662005feb565b602082019150620068e88285620067f3565b602082019150620068fa8284620067f3565b602082019150819050979650505050505050565b60006200691c828662005f93565b6014820191506200692e828562005f93565b601482019150620069408284620067f3565b602082019150819050949350505050565b60006200695f828762005fbf565b60018201915062006971828662005f93565b60148201915062006983828562005feb565b60208201915062006995828462005feb565b60208201915081905095945050505050565b6000620069b4826200615a565b9150620069c2828462005feb565b60208201915081905092915050565b6000620069df8287620067f3565b602082019150620069f1828662005f93565b60148201915062006a03828562005feb565b60208201915062006a15828462006047565b915081905095945050505050565b600060208201905062006a3a600083018462005f82565b92915050565b600060208201905062006a57600083018462005f71565b92915050565b600060408201905062006a74600083018562005f71565b62006a83602083018462005f82565b9392505050565b600060408201905062006aa1600083018562005f82565b62006ab0602083018462005f82565b9392505050565b600060608201905062006ace600083018662005f82565b62006add602083018562005f82565b62006aec604083018462005f82565b949350505050565b600060808201905062006b0b600083018762005f82565b62006b1a602083018662005f82565b62006b29604083018562005f82565b62006b386060830184620067e2565b95945050505050565b600060608201905062006b58600083018662005f82565b62006b67602083018562005f82565b62006b766040830184620067e2565b949350505050565b600060608201905062006b95600083018662005f82565b62006ba4602083018562005fda565b62006bb36040830184620067e2565b949350505050565b600060608201905062006bd2600083018662005f82565b62006be16020830185620060a0565b818103604083015262006bf5818462006006565b9050949350505050565b600060408201905062006c16600083018562005f82565b62006c256020830184620067e2565b9392505050565b600060608201905062006c43600083018662005f82565b62006c526020830185620067e2565b818103604083015262006c66818462006006565b9050949350505050565b600060208201905062006c87600083018462005fae565b92915050565b600060208201905062006ca4600083018462005fda565b92915050565b600060c08201905062006cc1600083018962005fda565b62006cd0602083018862005f82565b62006cdf604083018762005f82565b62006cee606083018662005f82565b62006cfd608083018562005fda565b62006d0c60a0830184620067e2565b979650505050505050565b600060408201905062006d2e600083018562005fda565b62006d3d6020830184620067e2565b9392505050565b600060608201905062006d5b600083018662005fda565b62006d6a6020830185620067e2565b62006d796040830184620067e2565b949350505050565b600060808201905062006d98600083018762005fda565b62006da760208301866200680e565b62006db6604083018562005fda565b62006dc5606083018462005fda565b95945050505050565b600060208201905062006de560008301846200607e565b92915050565b600060208201905062006e0260008301846200608f565b92915050565b6000602082019050818103600083015262006e248184620060b1565b905092915050565b6000602082019050818103600083015262006e4781620060f2565b9050919050565b6000602082019050818103600083015262006e69816200619c565b9050919050565b6000602082019050818103600083015262006e8b81620061de565b9050919050565b6000602082019050818103600083015262006ead8162006246565b9050919050565b6000602082019050818103600083015262006ecf81620062ae565b9050919050565b6000602082019050818103600083015262006ef18162006316565b9050919050565b6000602082019050818103600083015262006f13816200637e565b9050919050565b6000602082019050818103600083015262006f3581620063e6565b9050919050565b6000602082019050818103600083015262006f57816200644e565b9050919050565b6000602082019050818103600083015262006f7981620064b6565b9050919050565b6000602082019050818103600083015262006f9b81620064f8565b9050919050565b6000602082019050818103600083015262006fbd8162006560565b9050919050565b6000602082019050818103600083015262006fdf81620065c8565b9050919050565b60006020820190508181036000830152620070018162006630565b9050919050565b60006020820190508181036000830152620070238162006672565b9050919050565b600060208201905081810360008301526200704581620066b4565b9050919050565b600060208201905081810360008301526200706781620066f6565b9050919050565b60006020820190508181036000830152620070898162006738565b9050919050565b60006020820190508181036000830152620070ab816200677a565b9050919050565b6000602082019050620070c96000830184620067e2565b92915050565b6000604051905081810181811067ffffffffffffffff82111715620070f357600080fd5b8060405250919050565b600067ffffffffffffffff8211156200711557600080fd5b601f19601f8301169050602081019050919050565b600081519050919050565b600081519050919050565b600082825260208201905092915050565b600081905092915050565b600082825260208201905092915050565b600081905092915050565b600080858511156200718957600080fd5b838611156200719757600080fd5b6001850283019150848603905094509492505050565b6000620071ba8262007257565b9050919050565b60008115159050919050565b60007fff0000000000000000000000000000000000000000000000000000000000000082169050919050565b6000819050919050565b60007fffffffffffffffff00000000000000000000000000000000000000000000000082169050919050565b60006200723c82620071ad565b9050919050565b60006200725082620071ad565b9050919050565b600073ffffffffffffffffffffffffffffffffffffffff82169050919050565b6000819050919050565b600060ff82169050919050565b60006200729b8262007306565b9050919050565b6000620072af82620072b6565b9050919050565b6000620072c38262007257565b9050919050565b6000620072d782620072de565b9050919050565b6000620072eb8262007257565b9050919050565b6000620072ff8262007277565b9050919050565b600062007313826200731a565b9050919050565b6000620073278262007257565b9050919050565b60005b838110156200734e57808201518184015260208101905062007331565b838111156200735e576000848401525b50505050565b600062007371826200738c565b9050919050565b6000819050919050565b6000819050919050565b60006200739982620073bb565b9050919050565b6000819050919050565b6000601f19601f8301169050919050565b60008160601b9050919050565b620073d381620071ad565b8114620073df57600080fd5b50565b620073ed81620071c1565b8114620073f957600080fd5b50565b6200740781620071f9565b81146200741357600080fd5b50565b620074218162007203565b81146200742d57600080fd5b50565b6200743b816200722f565b81146200744757600080fd5b50565b620074558162007243565b81146200746157600080fd5b50565b6200746f8162007277565b81146200747b57600080fd5b5056fe608060405261001e67fa591a50d6ccb7c660c01b61009760201b60201c565b61003867080c07b1d9e436cd60c01b61009760201b60201c565b336000806101000a81548173ffffffffffffffffffffffffffffffffffffffff021916908373ffffffffffffffffffffffffffffffffffffffff160217905550610092673ef1d470167d7bd160c01b61009a60201b60201c565b61009d565b50565b50565b61080c806100ac6000396000f3fe60806040526004361061007f5760003560e01c8063abe124f61161004e578063abe124f6146102f8578063b719e0571461034e578063c25a4496146103ba578063f77c47911461041057610086565b8063062e4f9c1461008b5780633f579f42146100f75780636480a27b146102205780636c3da61f1461028c57610086565b3661008657005b600080fd5b34801561009757600080fd5b506100df600480360360208110156100ae57600080fd5b81019080803577ffffffffffffffffffffffffffffffffffffffffffffffff19169060200190929190505050610451565b60405180821515815260200191505060405180910390f35b34801561010357600080fd5b506101a56004803603606081101561011a57600080fd5b81019080803573ffffffffffffffffffffffffffffffffffffffff169060200190929190803590602001909291908035906020019064010000000081111561016157600080fd5b82018360208201111561017357600080fd5b8035906020019184600183028401116401000000008311171561019557600080fd5b9091929391929390505050610458565b6040518080602001828103825283818151815260200191508051906020019080838360005b838110156101e55780820151818401526020810190506101ca565b50505050905090810190601f1680156102125780820380516001836020036101000a031916815260200191505b509250505060405180910390f35b34801561022c57600080fd5b506102746004803603602081101561024357600080fd5b81019080803577ffffffffffffffffffffffffffffffffffffffffffffffff1916906020019092919050505061078c565b60405180821515815260200191505060405180910390f35b34801561029857600080fd5b506102e0600480360360208110156102af57600080fd5b81019080803577ffffffffffffffffffffffffffffffffffffffffffffffff19169060200190929190505050610797565b60405180821515815260200191505060405180910390f35b34801561030457600080fd5b5061034c6004803603602081101561031b57600080fd5b81019080803577ffffffffffffffffffffffffffffffffffffffffffffffff191690602001909291905050506107a2565b005b34801561035a57600080fd5b506103a26004803603602081101561037157600080fd5b81019080803577ffffffffffffffffffffffffffffffffffffffffffffffff191690602001909291905050506107a5565b60405180821515815260200191505060405180910390f35b3480156103c657600080fd5b5061040e600480360360208110156103dd57600080fd5b81019080803577ffffffffffffffffffffffffffffffffffffffffffffffff191690602001909291905050506107ac565b005b34801561041c57600080fd5b506104256107af565b604051808273ffffffffffffffffffffffffffffffffffffffff16815260200191505060405180910390f35b6000919050565b606061046e67d25d065a02cea32e60c01b6107ac565b610482679b1b4ff5635d341560c01b6107a2565b6104966792b32b40b36afd0f60c01b6107a2565b6104aa67dca6cfd808198a3b60c01b6107a2565b6104be6783128efefd80bf9860c01b6107a2565b60008054906101000a900473ffffffffffffffffffffffffffffffffffffffff1673ffffffffffffffffffffffffffffffffffffffff163373ffffffffffffffffffffffffffffffffffffffff1614610562576040517f08c379a000000000000000000000000000000000000000000000000000000000815260040180806020018281038252602c8152602001806107d4602c913960400191505060405180910390fd5b61057667b339bde214d0b98f60c01b6107a2565b61058a6739e84d7e9d9ffaf360c01b6107a2565b61059e673b6333035ff3766f60c01b6107ac565b6105b267f5d993a45804b5da60c01b6107ac565b6105c667da4c51a85ab5b69260c01b6107ac565b6105da67eec5934511adab7660c01b6107ac565b60606105f0679184e13ba5a2b77c60c01b6107ac565b61060467308acef04ceed49760c01b6107ac565b600061061a67c5cbad591fa593fe60c01b6107ac565b8673ffffffffffffffffffffffffffffffffffffffff1686868660405180838380828437808301925050509250505060006040518083038185875af1925050503d8060008114610686576040519150601f19603f3d011682016040523d82523d6000602084013e61068b565b606091505b5080935081925050506106a86701887a2cf57f848160c01b6107ac565b6106bc67cef9ef7040691f7360c01b6107ac565b6106d067d8afa064110905d660c01b6107ac565b80610743576040517f08c379a000000000000000000000000000000000000000000000000000000000815260040180806020018281038252601d8152602001807f4163636f756e743a207472616e73616374696f6e20726576657274656400000081525060200191505060405180910390fd5b61075767630e14183aac5cd660c01b6107ac565b61076b6798b8adeaadf712a860c01b6107ac565b61077f67345c777dd51554b660c01b6107ac565b8192505050949350505050565b600060019050919050565b600060019050919050565b50565b6000919050565b50565b60008054906101000a900473ffffffffffffffffffffffffffffffffffffffff168156fe436f6e74726f6c6c65643a206d73672e73656e646572206973206e6f742074686520636f6e74726f6c6c6572a164736f6c634300060c000a536166654d6174684c69623a207375627472616374696f6e206f766572666c6f77a164736f6c634300060c000a",
  "linkReferences": {},
  "deployedLinkReferences": {}
}