{
  "_format": "hh-sol-artifact-1",
  "contractName": "PersonalAccountRegistry",
  "sourceName": "src/personal/PersonalAccountRegistry.sol",
  "abi": [
    {
      "inputs": [],
      "stateMutability": "nonpayable",
      "type": "constructor"
    },
    {
      "anonymous": false,
      "inputs": [
        {
          "indexed": false,
          "internalType": "address",
          "name": "account",
          "type": "address"
        },
        {
          "indexed": false,
          "internalType": "address",
          "name": "beneficiary",
          "type": "address"
        },
        {
          "indexed": false,
          "internalType": "address",
          "name": "token",
          "type": "address"
        },
        {
          "indexed": false,
          "internalType": "uint256",
          "name": "value",
          "type": "uint256"
        }
      ],
      "name": "AccountCallRefunded",
      "type": "event"
    },
    {
      "anonymous": false,
      "inputs": [
        {
          "indexed": false,
          "internalType": "address",
          "name": "account",
          "type": "address"
        },
        {
          "indexed": false,
          "internalType": "address",
          "name": "accountImplementation",
          "type": "address"
        }
      ],
      "name": "AccountDeployed",
      "type": "event"
    },
    {
      "anonymous": false,
      "inputs": [
        {
          "indexed": false,
          "internalType": "address",
          "name": "accountImplementation",
          "type": "address"
        }
      ],
      "name": "AccountImplementationUpdated",
      "type": "event"
    },
    {
      "anonymous": false,
      "inputs": [
        {
          "indexed": false,
          "internalType": "address",
          "name": "account",
          "type": "address"
        },
        {
          "indexed": false,
          "internalType": "address",
          "name": "owner",
          "type": "address"
        }
      ],
      "name": "AccountOwnerAdded",
      "type": "event"
    },
    {
      "anonymous": false,
      "inputs": [
        {
          "indexed": false,
          "internalType": "address",
          "name": "account",
          "type": "address"
        },
        {
          "indexed": false,
          "internalType": "address",
          "name": "owner",
          "type": "address"
        }
      ],
      "name": "AccountOwnerRemoved",
      "type": "event"
    },
    {
      "anonymous": false,
      "inputs": [
        {
          "indexed": false,
          "internalType": "address",
          "name": "accountRegistry",
          "type": "address"
        }
      ],
      "name": "AccountRegistryUpdated",
      "type": "event"
    },
    {
      "anonymous": false,
      "inputs": [
        {
          "indexed": false,
          "internalType": "address",
          "name": "account",
          "type": "address"
        },
        {
          "indexed": false,
          "internalType": "address",
          "name": "to",
          "type": "address"
        },
        {
          "indexed": false,
          "internalType": "uint256",
          "name": "value",
          "type": "uint256"
        },
        {
          "indexed": false,
          "internalType": "bytes",
          "name": "data",
          "type": "bytes"
        },
        {
          "indexed": false,
          "internalType": "bytes",
          "name": "response",
          "type": "bytes"
        }
      ],
      "name": "AccountTransactionExecuted",
      "type": "event"
    },
    {
      "anonymous": false,
      "inputs": [
        {
          "indexed": false,
          "internalType": "address",
          "name": "account",
          "type": "address"
        },
        {
          "indexed": false,
          "internalType": "address",
          "name": "accountImplementation",
          "type": "address"
        }
      ],
      "name": "AccountUpgraded",
      "type": "event"
    },
    {
      "anonymous": false,
      "inputs": [
        {
          "indexed": false,
          "internalType": "address",
          "name": "sender",
          "type": "address"
        },
        {
          "indexed": false,
          "internalType": "address",
          "name": "guardian",
          "type": "address"
        }
      ],
      "name": "GuardianAdded",
      "type": "event"
    },
    {
      "anonymous": false,
      "inputs": [
        {
          "indexed": false,
          "internalType": "address",
          "name": "sender",
          "type": "address"
        },
        {
          "indexed": false,
          "internalType": "address",
          "name": "guardian",
          "type": "address"
        }
      ],
      "name": "GuardianRemoved",
      "type": "event"
    },
    {
      "anonymous": false,
      "inputs": [
        {
          "indexed": false,
          "internalType": "address",
          "name": "initializer",
          "type": "address"
        }
      ],
      "name": "Initialized",
      "type": "event"
    },
    {
      "inputs": [],
      "name": "accountImplementation",
      "outputs": [
        {
          "internalType": "address",
          "name": "",
          "type": "address"
        }
      ],
      "stateMutability": "view",
      "type": "function"
    },
    {
      "inputs": [],
      "name": "accountRegistry",
      "outputs": [
        {
          "internalType": "address",
          "name": "",
          "type": "address"
        }
      ],
      "stateMutability": "view",
      "type": "function"
    },
    {
      "inputs": [
        {
          "internalType": "address",
          "name": "account",
          "type": "address"
        },
        {
          "internalType": "address",
          "name": "owner",
          "type": "address"
        }
      ],
      "name": "addAccountOwner",
      "outputs": [],
      "stateMutability": "nonpayable",
      "type": "function"
    },
    {
      "inputs": [
        {
          "internalType": "address",
          "name": "guardian",
          "type": "address"
        }
      ],
      "name": "addGuardian",
      "outputs": [],
      "stateMutability": "nonpayable",
      "type": "function"
    },
    {
      "inputs": [
        {
          "internalType": "bytes8",
          "name": "c__0ffe16b4",
          "type": "bytes8"
        }
      ],
      "name": "c_0ffe16b4",
      "outputs": [],
      "stateMutability": "pure",
      "type": "function"
    },
    {
      "inputs": [
        {
          "internalType": "bytes8",
          "name": "c__19d98a43",
          "type": "bytes8"
        }
      ],
      "name": "c_19d98a43",
      "outputs": [],
      "stateMutability": "pure",
      "type": "function"
    },
    {
      "inputs": [
        {
          "internalType": "bytes8",
          "name": "c__203cf0ac",
          "type": "bytes8"
        }
      ],
      "name": "c_203cf0ac",
      "outputs": [],
      "stateMutability": "pure",
      "type": "function"
    },
    {
      "inputs": [
        {
          "internalType": "bytes8",
          "name": "c__9b6befd1",
          "type": "bytes8"
        }
      ],
      "name": "c_9b6befd1",
      "outputs": [],
      "stateMutability": "pure",
      "type": "function"
    },
    {
      "inputs": [
        {
          "internalType": "bytes8",
          "name": "c__c0828b70",
          "type": "bytes8"
        }
      ],
      "name": "c_c0828b70",
      "outputs": [],
      "stateMutability": "pure",
      "type": "function"
    },
    {
      "inputs": [
        {
          "internalType": "bytes8",
          "name": "c__d5c463c2",
          "type": "bytes8"
        }
      ],
      "name": "c_d5c463c2",
      "outputs": [],
      "stateMutability": "pure",
      "type": "function"
    },
    {
      "inputs": [
        {
          "internalType": "bytes8",
          "name": "c__0ffe16b4",
          "type": "bytes8"
        }
      ],
      "name": "c_false0ffe16b4",
      "outputs": [
        {
          "internalType": "bool",
          "name": "",
          "type": "bool"
        }
      ],
      "stateMutability": "pure",
      "type": "function"
    },
    {
      "inputs": [
        {
          "internalType": "bytes8",
          "name": "c__19d98a43",
          "type": "bytes8"
        }
      ],
      "name": "c_false19d98a43",
      "outputs": [
        {
          "internalType": "bool",
          "name": "",
          "type": "bool"
        }
      ],
      "stateMutability": "pure",
      "type": "function"
    },
    {
      "inputs": [
        {
          "internalType": "bytes8",
          "name": "c__203cf0ac",
          "type": "bytes8"
        }
      ],
      "name": "c_false203cf0ac",
      "outputs": [
        {
          "internalType": "bool",
          "name": "",
          "type": "bool"
        }
      ],
      "stateMutability": "pure",
      "type": "function"
    },
    {
      "inputs": [
        {
          "internalType": "bytes8",
          "name": "c__9b6befd1",
          "type": "bytes8"
        }
      ],
      "name": "c_false9b6befd1",
      "outputs": [
        {
          "internalType": "bool",
          "name": "",
          "type": "bool"
        }
      ],
      "stateMutability": "pure",
      "type": "function"
    },
    {
      "inputs": [
        {
          "internalType": "bytes8",
          "name": "c__c0828b70",
          "type": "bytes8"
        }
      ],
      "name": "c_falsec0828b70",
      "outputs": [
        {
          "internalType": "bool",
          "name": "",
          "type": "bool"
        }
      ],
      "stateMutability": "pure",
      "type": "function"
    },
    {
      "inputs": [
        {
          "internalType": "bytes8",
          "name": "c__d5c463c2",
          "type": "bytes8"
        }
      ],
      "name": "c_falsed5c463c2",
      "outputs": [
        {
          "internalType": "bool",
          "name": "",
          "type": "bool"
        }
      ],
      "stateMutability": "pure",
      "type": "function"
    },
    {
      "inputs": [
        {
          "internalType": "bytes8",
          "name": "c__0ffe16b4",
          "type": "bytes8"
        }
      ],
      "name": "c_true0ffe16b4",
      "outputs": [
        {
          "internalType": "bool",
          "name": "",
          "type": "bool"
        }
      ],
      "stateMutability": "pure",
      "type": "function"
    },
    {
      "inputs": [
        {
          "internalType": "bytes8",
          "name": "c__19d98a43",
          "type": "bytes8"
        }
      ],
      "name": "c_true19d98a43",
      "outputs": [
        {
          "internalType": "bool",
          "name": "",
          "type": "bool"
        }
      ],
      "stateMutability": "pure",
      "type": "function"
    },
    {
      "inputs": [
        {
          "internalType": "bytes8",
          "name": "c__203cf0ac",
          "type": "bytes8"
        }
      ],
      "name": "c_true203cf0ac",
      "outputs": [
        {
          "internalType": "bool",
          "name": "",
          "type": "bool"
        }
      ],
      "stateMutability": "pure",
      "type": "function"
    },
    {
      "inputs": [
        {
          "internalType": "bytes8",
          "name": "c__9b6befd1",
          "type": "bytes8"
        }
      ],
      "name": "c_true9b6befd1",
      "outputs": [
        {
          "internalType": "bool",
          "name": "",
          "type": "bool"
        }
      ],
      "stateMutability": "pure",
      "type": "function"
    },
    {
      "inputs": [
        {
          "internalType": "bytes8",
          "name": "c__c0828b70",
          "type": "bytes8"
        }
      ],
      "name": "c_truec0828b70",
      "outputs": [
        {
          "internalType": "bool",
          "name": "",
          "type": "bool"
        }
      ],
      "stateMutability": "pure",
      "type": "function"
    },
    {
      "inputs": [
        {
          "internalType": "bytes8",
          "name": "c__d5c463c2",
          "type": "bytes8"
        }
      ],
      "name": "c_trued5c463c2",
      "outputs": [
        {
          "internalType": "bool",
          "name": "",
          "type": "bool"
        }
      ],
      "stateMutability": "pure",
      "type": "function"
    },
    {
      "inputs": [
        {
          "internalType": "address",
          "name": "saltOwner",
          "type": "address"
        }
      ],
      "name": "computeAccountAddress",
      "outputs": [
        {
          "internalType": "address",
          "name": "",
          "type": "address"
        }
      ],
      "stateMutability": "view",
      "type": "function"
    },
    {
      "inputs": [
        {
          "internalType": "address",
          "name": "account",
          "type": "address"
        }
      ],
      "name": "deployAccount",
      "outputs": [],
      "stateMutability": "nonpayable",
      "type": "function"
    },
    {
      "inputs": [
        {
          "internalType": "address",
          "name": "account",
          "type": "address"
        },
        {
          "internalType": "address",
          "name": "to",
          "type": "address"
        },
        {
          "internalType": "uint256",
          "name": "value",
          "type": "uint256"
        },
        {
          "internalType": "bytes",
          "name": "data",
          "type": "bytes"
        }
      ],
      "name": "executeAccountTransaction",
      "outputs": [],
      "stateMutability": "nonpayable",
      "type": "function"
    },
    {
      "inputs": [],
      "name": "gateway",
      "outputs": [
        {
          "internalType": "address",
          "name": "",
          "type": "address"
        }
      ],
      "stateMutability": "view",
      "type": "function"
    },
    {
      "inputs": [
        {
          "internalType": "address[]",
          "name": "guardians_",
          "type": "address[]"
        },
        {
          "internalType": "address",
          "name": "accountImplementation_",
          "type": "address"
        },
        {
          "internalType": "address",
          "name": "gateway_",
          "type": "address"
        }
      ],
      "name": "initialize",
      "outputs": [],
      "stateMutability": "nonpayable",
      "type": "function"
    },
    {
      "inputs": [
        {
          "internalType": "address",
          "name": "account",
          "type": "address"
        }
      ],
      "name": "isAccountDeployed",
      "outputs": [
        {
          "internalType": "bool",
          "name": "",
          "type": "bool"
        }
      ],
      "stateMutability": "view",
      "type": "function"
    },
    {
      "inputs": [
        {
          "internalType": "address",
          "name": "guardian",
          "type": "address"
        }
      ],
      "name": "isGuardian",
      "outputs": [
        {
          "internalType": "bool",
          "name": "",
          "type": "bool"
        }
      ],
      "stateMutability": "view",
      "type": "function"
    },
    {
      "inputs": [],
      "name": "isInitialized",
      "outputs": [
        {
          "internalType": "bool",
          "name": "",
          "type": "bool"
        }
      ],
      "stateMutability": "view",
      "type": "function"
    },
    {
      "inputs": [
        {
          "internalType": "address",
          "name": "account",
          "type": "address"
        },
        {
          "internalType": "bytes",
          "name": "message",
          "type": "bytes"
        },
        {
          "internalType": "bytes",
          "name": "signature",
          "type": "bytes"
        }
      ],
      "name": "isValidAccountSignature",
      "outputs": [
        {
          "internalType": "bool",
          "name": "",
          "type": "bool"
        }
      ],
      "stateMutability": "view",
      "type": "function"
    },
    {
      "inputs": [
        {
          "internalType": "address",
          "name": "account",
          "type": "address"
        },
        {
          "internalType": "bytes32",
          "name": "messageHash",
          "type": "bytes32"
        },
        {
          "internalType": "bytes",
          "name": "signature",
          "type": "bytes"
        }
      ],
      "name": "isValidAccountSignature",
      "outputs": [
        {
          "internalType": "bool",
          "name": "",
          "type": "bool"
        }
      ],
      "stateMutability": "view",
      "type": "function"
    },
    {
      "inputs": [
        {
          "internalType": "address",
          "name": "account",
          "type": "address"
        },
        {
          "internalType": "address",
          "name": "token",
          "type": "address"
        },
        {
          "internalType": "uint256",
          "name": "value",
          "type": "uint256"
        }
      ],
      "name": "refundAccountCall",
      "outputs": [],
      "stateMutability": "nonpayable",
      "type": "function"
    },
    {
      "inputs": [
        {
          "internalType": "address",
          "name": "account",
          "type": "address"
        },
        {
          "internalType": "address",
          "name": "owner",
          "type": "address"
        }
      ],
      "name": "removeAccountOwner",
      "outputs": [],
      "stateMutability": "nonpayable",
      "type": "function"
    },
    {
      "inputs": [
        {
          "internalType": "address",
          "name": "guardian",
          "type": "address"
        }
      ],
      "name": "removeGuardian",
      "outputs": [],
      "stateMutability": "nonpayable",
      "type": "function"
    },
    {
      "inputs": [
        {
          "internalType": "address",
          "name": "accountImplementation_",
          "type": "address"
        }
      ],
      "name": "upgrade",
      "outputs": [],
      "stateMutability": "nonpayable",
      "type": "function"
    },
    {
      "inputs": [
        {
          "internalType": "address",
          "name": "account",
          "type": "address"
        }
      ],
      "name": "upgradeAccount",
      "outputs": [],
      "stateMutability": "nonpayable",
      "type": "function"
    },
    {
      "inputs": [
        {
          "internalType": "address",
          "name": "account",
          "type": "address"
        },
        {
          "internalType": "address",
          "name": "owner",
          "type": "address"
        }
      ],
      "name": "verifyAccountOwner",
      "outputs": [
        {
          "internalType": "bool",
          "name": "",
          "type": "bool"
        }
      ],
      "stateMutability": "view",
      "type": "function"
    },
    {
      "inputs": [
        {
          "internalType": "address",
          "name": "account",
          "type": "address"
        },
        {
          "internalType": "address",
          "name": "owner",
          "type": "address"
        },
        {
          "internalType": "uint256",
          "name": "blockNumber",
          "type": "uint256"
        }
      ],
      "name": "verifyAccountOwnerAtBlock",
      "outputs": [
        {
          "internalType": "bool",
          "name": "",
          "type": "bool"
        }
      ],
      "stateMutability": "view",
      "type": "function"
    },
    {
      "inputs": [
        {
          "internalType": "bytes32",
          "name": "messageHash",
          "type": "bytes32"
        },
        {
          "internalType": "bytes",
          "name": "signature",
          "type": "bytes"
        }
      ],
      "name": "verifyGuardianSignature",
      "outputs": [
        {
          "internalType": "bool",
          "name": "",
          "type": "bool"
        }
      ],
      "stateMutability": "view",
      "type": "function"
    }
  ],
  "bytecode": "0x60806040523480156200001157600080fd5b506200002e67413656f24fa6186560c01b6200010160201b60201c565b6200004a670cdabaa809e28a7b60c01b6200010460201b60201c565b62000066676f8209dd9a63129460c01b6200010760201b60201c565b62000082675c69c8f577e02d3d60c01b6200010760201b60201c565b32600360006101000a81548173ffffffffffffffffffffffffffffffffffffffff021916908373ffffffffffffffffffffffffffffffffffffffff160217905550620000df67f3f8abaddc57a31660c01b6200010a60201b60201c565b620000fb675fad3b04b1d497b260c01b6200010d60201b60201c565b62000110565b50565b50565b50565b50565b50565b617d4b80620001206000396000f3fe60806040523480156200001157600080fd5b5060043610620002805760003560e01c80635967b7ac1162000159578063cade6a5d11620000c9578063da9fc1ae1162000087578063da9fc1ae1462000fd0578063db63f5821462001017578063e1e382ce146200107e578063e5c7278f146200113d578063f4876c7414620012065762000280565b8063cade6a5d1462000ddc578063d089e11a1462000e4d578063d0f710d61462000e83578063d53641231462000f22578063d628d0861462000f845762000280565b8063a4db4b6b1162000117578063a4db4b6b1462000bf2578063a526d83b1462000c54578063bb890d3f1462000c9b578063c1cad69e1462000d18578063c369d5fe1462000d7a5762000280565b80635967b7ac14620009dc578063714041561462000a3e5780637663f44c1462000a8557806390482d721462000ad1578063a23441e71462000b905762000280565b80631a84140311620001f557806334d323a411620001b357806334d323a4146200083e578063392e53cd14620008c557806343013c2414620008e75780634623ec77146200092e5780635405622e14620009905762000280565b80631a841403146200064a5780631dccb78714620006bb57806321a5f5da146200071d5780632e6afd6e146200077f5780633164b5e114620007e15762000280565b806311464fbe116200024357806311464fbe1462000423578063116191b61462000459578063124e9eb3146200048f5780631262ed1c146200059c5780631812164614620005fe5762000280565b806301883a24146200028557806305ae19e614620002d15780630900f01014620003335780630c4b1a17146200037a5780630c68ba2114620003c6575b600080fd5b620002cf600480360360208110156200029d57600080fd5b81019080803577ffffffffffffffffffffffffffffffffffffffffffffffff191690602001909291905050506200126d565b005b6200031b60048036036020811015620002e957600080fd5b81019080803577ffffffffffffffffffffffffffffffffffffffffffffffff1916906020019092919050505062001270565b60405180821515815260200191505060405180910390f35b62000378600480360360208110156200034b57600080fd5b81019080803573ffffffffffffffffffffffffffffffffffffffff1690602001909291905050506200127b565b005b620003c4600480360360208110156200039257600080fd5b81019080803577ffffffffffffffffffffffffffffffffffffffffffffffff1916906020019092919050505062001420565b005b6200040b60048036036020811015620003de57600080fd5b81019080803573ffffffffffffffffffffffffffffffffffffffff16906020019092919050505062001423565b60405180821515815260200191505060405180910390f35b6200042d620014ba565b604051808273ffffffffffffffffffffffffffffffffffffffff16815260200191505060405180910390f35b62000463620014e0565b604051808273ffffffffffffffffffffffffffffffffffffffff16815260200191505060405180910390f35b6200058460048036036060811015620004a757600080fd5b81019080803573ffffffffffffffffffffffffffffffffffffffff16906020019092919080359060200190640100000000811115620004e557600080fd5b820183602082011115620004f857600080fd5b803590602001918460018302840111640100000000831117156200051b57600080fd5b9091929391929390803590602001906401000000008111156200053d57600080fd5b8201836020820111156200055057600080fd5b803590602001918460018302840111640100000000831117156200057357600080fd5b909192939192939050505062001506565b60405180821515815260200191505060405180910390f35b620005e660048036036020811015620005b457600080fd5b81019080803577ffffffffffffffffffffffffffffffffffffffffffffffff1916906020019092919050505062001607565b60405180821515815260200191505060405180910390f35b62000648600480360360208110156200061657600080fd5b81019080803577ffffffffffffffffffffffffffffffffffffffffffffffff1916906020019092919050505062001612565b005b620006b9600480360360608110156200066257600080fd5b81019080803573ffffffffffffffffffffffffffffffffffffffff169060200190929190803573ffffffffffffffffffffffffffffffffffffffff1690602001909291908035906020019092919050505062001615565b005b6200070560048036036020811015620006d357600080fd5b81019080803577ffffffffffffffffffffffffffffffffffffffffffffffff1916906020019092919050505062001a90565b60405180821515815260200191505060405180910390f35b62000767600480360360208110156200073557600080fd5b81019080803577ffffffffffffffffffffffffffffffffffffffffffffffff1916906020019092919050505062001a97565b60405180821515815260200191505060405180910390f35b620007c9600480360360208110156200079757600080fd5b81019080803577ffffffffffffffffffffffffffffffffffffffffffffffff1916906020019092919050505062001aa2565b60405180821515815260200191505060405180910390f35b6200082660048036036020811015620007f957600080fd5b81019080803573ffffffffffffffffffffffffffffffffffffffff16906020019092919050505062001aa9565b60405180821515815260200191505060405180910390f35b620008ad600480360360608110156200085657600080fd5b81019080803573ffffffffffffffffffffffffffffffffffffffff169060200190929190803573ffffffffffffffffffffffffffffffffffffffff1690602001909291908035906020019092919050505062001b44565b60405180821515815260200191505060405180910390f35b620008cf62001d27565b60405180821515815260200191505060405180910390f35b6200092c60048036036020811015620008ff57600080fd5b81019080803573ffffffffffffffffffffffffffffffffffffffff16906020019092919050505062001dc2565b005b62000978600480360360208110156200094657600080fd5b81019080803577ffffffffffffffffffffffffffffffffffffffffffffffff1916906020019092919050505062001e4c565b60405180821515815260200191505060405180910390f35b620009da60048036036020811015620009a857600080fd5b81019080803577ffffffffffffffffffffffffffffffffffffffffffffffff1916906020019092919050505062001e57565b005b62000a2660048036036020811015620009f457600080fd5b81019080803577ffffffffffffffffffffffffffffffffffffffffffffffff1916906020019092919050505062001e5a565b60405180821515815260200191505060405180910390f35b62000a836004803603602081101562000a5657600080fd5b81019080803573ffffffffffffffffffffffffffffffffffffffff16906020019092919050505062001e61565b005b62000acf6004803603602081101562000a9d57600080fd5b81019080803577ffffffffffffffffffffffffffffffffffffffffffffffff19169060200190929190505050620022e3565b005b62000b8e6004803603606081101562000ae957600080fd5b810190808035906020019064010000000081111562000b0757600080fd5b82018360208201111562000b1a57600080fd5b8035906020019184602083028401116401000000008311171562000b3d57600080fd5b9091929391929390803573ffffffffffffffffffffffffffffffffffffffff169060200190929190803573ffffffffffffffffffffffffffffffffffffffff169060200190929190505050620022e6565b005b62000bda6004803603602081101562000ba857600080fd5b81019080803577ffffffffffffffffffffffffffffffffffffffffffffffff1916906020019092919050505062002612565b60405180821515815260200191505060405180910390f35b62000c3c6004803603602081101562000c0a57600080fd5b81019080803577ffffffffffffffffffffffffffffffffffffffffffffffff1916906020019092919050505062002619565b60405180821515815260200191505060405180910390f35b62000c996004803603602081101562000c6c57600080fd5b81019080803573ffffffffffffffffffffffffffffffffffffffff16906020019092919050505062002624565b005b62000d006004803603604081101562000cb357600080fd5b81019080803573ffffffffffffffffffffffffffffffffffffffff169060200190929190803573ffffffffffffffffffffffffffffffffffffffff169060200190929190505050620027c7565b60405180821515815260200191505060405180910390f35b62000d626004803603602081101562000d3057600080fd5b81019080803577ffffffffffffffffffffffffffffffffffffffffffffffff191690602001909291905050506200281f565b60405180821515815260200191505060405180910390f35b62000dc46004803603602081101562000d9257600080fd5b81019080803577ffffffffffffffffffffffffffffffffffffffffffffffff1916906020019092919050505062002826565b60405180821515815260200191505060405180910390f35b62000e216004803603602081101562000df457600080fd5b81019080803573ffffffffffffffffffffffffffffffffffffffff1690602001909291905050506200282d565b604051808273ffffffffffffffffffffffffffffffffffffffff16815260200191505060405180910390f35b62000e5762002883565b604051808273ffffffffffffffffffffffffffffffffffffffff16815260200191505060405180910390f35b62000f0a6004803603604081101562000e9b57600080fd5b81019080803590602001909291908035906020019064010000000081111562000ec357600080fd5b82018360208201111562000ed657600080fd5b8035906020019184600183028401116401000000008311171562000ef957600080fd5b9091929391929390505050620028a9565b60405180821515815260200191505060405180910390f35b62000f6c6004803603602081101562000f3a57600080fd5b81019080803577ffffffffffffffffffffffffffffffffffffffffffffffff1916906020019092919050505062002946565b60405180821515815260200191505060405180910390f35b62000fce6004803603602081101562000f9c57600080fd5b81019080803577ffffffffffffffffffffffffffffffffffffffffffffffff1916906020019092919050505062002951565b005b620010156004803603602081101562000fe857600080fd5b81019080803573ffffffffffffffffffffffffffffffffffffffff16906020019092919050505062002954565b005b6200107c600480360360408110156200102f57600080fd5b81019080803573ffffffffffffffffffffffffffffffffffffffff169060200190929190803573ffffffffffffffffffffffffffffffffffffffff169060200190929190505050620029dc565b005b62001125600480360360608110156200109657600080fd5b81019080803573ffffffffffffffffffffffffffffffffffffffff1690602001909291908035906020019092919080359060200190640100000000811115620010de57600080fd5b820183602082011115620010f157600080fd5b803590602001918460018302840111640100000000831117156200111457600080fd5b909192939192939050505062002dad565b60405180821515815260200191505060405180910390f35b62001204600480360360808110156200115557600080fd5b81019080803573ffffffffffffffffffffffffffffffffffffffff169060200190929190803573ffffffffffffffffffffffffffffffffffffffff1690602001909291908035906020019092919080359060200190640100000000811115620011bd57600080fd5b820183602082011115620011d057600080fd5b80359060200191846001830284011164010000000083111715620011f357600080fd5b909192939192939050505062002e5f565b005b6200126b600480360360408110156200121e57600080fd5b81019080803573ffffffffffffffffffffffffffffffffffffffff169060200190929190803573ffffffffffffffffffffffffffffffffffffffff16906020019092919050505062002f6c565b005b50565b600060019050919050565b62001291674813fc526fdecf6560c01b6200126d565b620012a76742b0c1323c75dfb360c01b62001e57565b620012bd679cd513b6eebced7560c01b62001e57565b620012d367eeeaf063f577770960c01b62001e57565b620012e967c60da70fe303492e60c01b62001e57565b6000803273ffffffffffffffffffffffffffffffffffffffff1673ffffffffffffffffffffffffffffffffffffffff16815260200190815260200160002060009054906101000a900460ff166200138c576040517f08c379a000000000000000000000000000000000000000000000000000000000815260040180806020018281038252602681526020018062007c5e6026913960400191505060405180910390fd5b620013a26794e8bc79e466100760c01b62001e57565b620013b867bc04c894f3eba0c560c01b62001e57565b620013ce67e6936fcb25c079c160c01b6200126d565b620013e467ed9ed5e3c555756a60c01b6200126d565b620013fa67510121cd933677a960c01b6200126d565b620014106794dd79b9a1a445da60c01b6200126d565b6200141d816001620033ed565b50565b50565b60006200143b6784ecf3118404f04560c01b62001e57565b6200145167d4e99ee3a1201eec60c01b62001e57565b6200146767e4ba0959715ee5ac60c01b62001e57565b6000808373ffffffffffffffffffffffffffffffffffffffff1673ffffffffffffffffffffffffffffffffffffffff16815260200190815260200160002060009054906101000a900460ff169050919050565b600260009054906101000a900473ffffffffffffffffffffffffffffffffffffffff1681565b600460009054906101000a900473ffffffffffffffffffffffffffffffffffffffff1681565b60006200151e67cbe99178c5e30ea760c01b6200126d565b6200153467be766a6ecbd2a7a660c01b6200126d565b6200154a67a97cb1417f80420760c01b6200126d565b620015fc86620015f685858080601f016020809104026020016040519081016040528093929190818152602001838380828437600081840152601f19601f82011690508083019250505050505050620015e789898080601f016020809104026020016040519081016040528093929190818152602001838380828437600081840152601f19601f820116905080830192505050505050506200363f565b620037f290919063ffffffff16565b62003b51565b905095945050505050565b600060019050919050565b50565b6200162b67ebb433ce3169521060c01b6200126d565b62001641674adb41e92dcb4a5760c01b6200126d565b62001657675710d82ff3eb0bd960c01b6200126d565b620016628362003e47565b506200167967ac969177a475260460c01b6200126d565b6200168f6732e2eb51f23c9c9860c01b6200126d565b6200169a83620044ed565b620016b067a41b706691741a9060c01b6200126d565b620016c6678d620dd375ae3e8d60c01b6200126d565b600073ffffffffffffffffffffffffffffffffffffffff168273ffffffffffffffffffffffffffffffffffffffff161415620017a257620017126741dc06d081f652cb60c01b6200126d565b6200172867a0ea42e20c0bf45e60c01b6200126d565b6200173e67b5535acc6497233b60c01b6200126d565b6200179b833283600067ffffffffffffffff811180156200175e57600080fd5b506040519080825280601f01601f191660200182016040528015620017925781602001600182028036833780820191505090505b506000620046a7565b50620019ce565b620017b86732bb33efc63ee8a160c01b6200126d565b620017ce67111f0995c8dddb0e60c01b6200126d565b620017e46769795fad898139f760c01b6200126d565b60606200188a8484600063a9059cbb60e01b3287604051602401808373ffffffffffffffffffffffffffffffffffffffff16815260200182815260200192505050604051602081830303815290604052907bffffffffffffffffffffffffffffffffffffffffffffffffffffffff19166020820180517bffffffffffffffffffffffffffffffffffffffffffffffffffffffff83818316178352505050506000620046a7565b9050620018a26788559bc3d89c15df60c01b6200126d565b620018b867c3708ab25c93db7160c01b6200126d565b600081511115620019b557620018d9675f4f0eb0c19b2fa760c01b6200126d565b620018ef6736eb501aa929d58860c01b6200126d565b6200190567150ed9171f12b4f760c01b6200126d565b6200191b67151ff0c46cb3f58260c01b6200126d565b8080602001905160208110156200193157600080fd5b810190808051906020019092919050505062001999576040517f08c379a000000000000000000000000000000000000000000000000000000000815260040180806020018281038252603581526020018062007c846035913960400191505060405180910390fd5b620019af678d13b2368cbbdd7160c01b6200126d565b620019cc565b620019cb676656bb83e35fa75160c01b6200126d565b5b505b620019e467f74b9d05580163e360c01b6200126d565b620019fa670852f7f0f4d79bba60c01b6200126d565b7feb5511fbef89123439f12682f0e9d0fc9696913b26eee55434c77d62c30aa7ca83328484604051808573ffffffffffffffffffffffffffffffffffffffff1681526020018473ffffffffffffffffffffffffffffffffffffffff1681526020018373ffffffffffffffffffffffffffffffffffffffff16815260200182815260200194505050505060405180910390a1505050565b6000919050565b600060019050919050565b6000919050565b600062001ac1677f5ab07a6143d29060c01b6200126d565b62001ad767c1e630c54a5a8f5260c01b6200126d565b62001aed67d17b714e68a0bd6f60c01b6200126d565b600560008373ffffffffffffffffffffffffffffffffffffffff1673ffffffffffffffffffffffffffffffffffffffff16815260200190815260200160002060000160009054906101000a900460ff169050919050565b600062001b5c67bad84fc8446c6bcc60c01b6200126d565b62001b7267b0601cac5043fc7a60c01b6200126d565b62001b8867efaf967a78aa13cc60c01b6200126d565b600062001ba067646a9b941c743dbc60c01b6200126d565b62001bb66776e7d715f72c70de60c01b6200126d565b62001bc2858562003b51565b1562001bfe5762001bde67380f8934246fc07760c01b6200126d565b62001bf4673424abb8ec70813c60c01b6200126d565b6001905062001cf0565b62001c146777a69d5f0e56879e60c01b6200126d565b62001c2a67c3682fa547d7b0d860c01b6200126d565b62001ced83600560008873ffffffffffffffffffffffffffffffffffffffff1673ffffffffffffffffffffffffffffffffffffffff16815260200190815260200160002060020160008773ffffffffffffffffffffffffffffffffffffffff1673ffffffffffffffffffffffffffffffffffffffff1681526020019081526020016000206040518060400160405290816000820160009054906101000a900460ff1615151515815260200160018201548152505062004d8e90919063ffffffff16565b90505b62001d0667db5c2987d2e6998b60c01b6200126d565b62001d1c67966042b91c09ded260c01b6200126d565b809150509392505050565b600062001d3f6740898dd11e0e3e1060c01b62001612565b62001d5567730b1b0a3e6f252b60c01b62001612565b62001d6b670e31b01a086623bd60c01b62001612565b600073ffffffffffffffffffffffffffffffffffffffff16600360009054906101000a900473ffffffffffffffffffffffffffffffffffffffff1673ffffffffffffffffffffffffffffffffffffffff1614905090565b62001dd867215fc219652799c860c01b6200126d565b62001dee677a5fc14df7f2996260c01b6200126d565b62001e04679d6cd29543f3eda660c01b6200126d565b62001e0f8162003e47565b5062001e266784259b2b88d5856d60c01b6200126d565b62001e3c67305ed720a75224c360c01b6200126d565b62001e4981600162004f87565b50565b600060019050919050565b50565b6000919050565b62001e77670caedbfd5abebf6160c01b62001e57565b62001e8d6742b0c1323c75dfb360c01b62001e57565b62001ea3679cd513b6eebced7560c01b62001e57565b62001eb967eeeaf063f577770960c01b62001e57565b62001ecf67c60da70fe303492e60c01b62001e57565b6000803273ffffffffffffffffffffffffffffffffffffffff1673ffffffffffffffffffffffffffffffffffffffff16815260200190815260200160002060009054906101000a900460ff1662001f72576040517f08c379a000000000000000000000000000000000000000000000000000000000815260040180806020018281038252602681526020018062007c5e6026913960400191505060405180910390fd5b62001f886794e8bc79e466100760c01b62001e57565b62001f9e67bc04c894f3eba0c560c01b62001e57565b62001fb4678b1796894f3ae9de60c01b62001e57565b62001fca67b72db77a2e7745ba60c01b62001e57565b62001fe067b1f370819c2c0df760c01b62001e57565b62001ff66748422319f9b5a9c160c01b62001e57565b6200200c67e3d81842942258fa60c01b62001e57565b8073ffffffffffffffffffffffffffffffffffffffff163273ffffffffffffffffffffffffffffffffffffffff161415620020af576040517f08c379a000000000000000000000000000000000000000000000000000000000815260040180806020018281038252601b8152602001807f477561726465643a2063616e6e6f742072656d6f76652073656c66000000000081525060200191505060405180910390fd5b620020c567e46f534505dcf68e60c01b62001e57565b620020db67be3d1fc91d078bfa60c01b62001e57565b620020f167bda141bb88f7425160c01b62001e57565b6200210767e9f4bbcb8bfedf3760c01b62001e57565b6000808273ffffffffffffffffffffffffffffffffffffffff1673ffffffffffffffffffffffffffffffffffffffff16815260200190815260200160002060009054906101000a900460ff16620021c6576040517f08c379a000000000000000000000000000000000000000000000000000000000815260040180806020018281038252601f8152602001807f477561726465643a20677561726469616e20646f65736e27742065786973740081525060200191505060405180910390fd5b620021dc679d258db795e0520660c01b62001e57565b620021f267b784b66d9c6c30c760c01b62001e57565b60008060008373ffffffffffffffffffffffffffffffffffffffff1673ffffffffffffffffffffffffffffffffffffffff16815260200190815260200160002060006101000a81548160ff0219169083151502179055506200225f67d3f8eee07042ad8560c01b62001e57565b620022756755080d54614d095f60c01b62001e57565b7fee943cdb81826d5909c559c6b1ae6908fcaf2dbc16c4b730346736b486283e8b3282604051808373ffffffffffffffffffffffffffffffffffffffff1681526020018273ffffffffffffffffffffffffffffffffffffffff1681526020019250505060405180910390a150565b50565b620022fc67fe5cb6e1f427a2cf60c01b6200126d565b62002312676c8c9b71ba9d910f60c01b62001612565b6200232867f602580a42808a9160c01b62001612565b6200233e6707611d848241fec060c01b62001612565b620023546709ab29cd8b2d771d60c01b62001612565b600360009054906101000a900473ffffffffffffffffffffffffffffffffffffffff1673ffffffffffffffffffffffffffffffffffffffff163273ffffffffffffffffffffffffffffffffffffffff1614620023fc576040517f08c379a000000000000000000000000000000000000000000000000000000000815260040180806020018281038252602f81526020018062007b92602f913960400191505060405180910390fd5b620024126786eee1b275e13e0e60c01b62001612565b620024286715362633e8a83eba60c01b62001612565b6000600360006101000a81548173ffffffffffffffffffffffffffffffffffffffff021916908373ffffffffffffffffffffffffffffffffffffffff160217905550620024806738479f0480704ee560c01b62001612565b62002496675aa31f9881ba043a60c01b6200126d565b620024ac67d426563771d079b860c01b6200126d565b620024c2672445946cde3633c960c01b6200126d565b620024d8677f8612bd38dc2cfc60c01b6200126d565b62002524848480806020026020016040519081016040528093929190818152602001838360200280828437600081840152601f19601f8201169050808301925050505050505062005315565b6200253a67d4229303e774fda960c01b6200126d565b62002550679ffd9874d2c0887060c01b6200126d565b6200255c308362005494565b620025726769a97990cc596a5660c01b6200126d565b620025886725b51a52484c796360c01b6200126d565b620025938162005520565b620025a9675d2d15dcccb96a8860c01b62001612565b620025bf6763708511b840b29260c01b62001612565b7f908408e307fc569b417f6cbec5d5a06f44a0a505ac0479b47d421a4b2fd6a1e632604051808273ffffffffffffffffffffffffffffffffffffffff16815260200191505060405180910390a150505050565b6000919050565b600060019050919050565b6200263a67dd930b6f9f95b76c60c01b62001e57565b620026506742b0c1323c75dfb360c01b62001e57565b62002666679cd513b6eebced7560c01b62001e57565b6200267c67eeeaf063f577770960c01b62001e57565b6200269267c60da70fe303492e60c01b62001e57565b6000803273ffffffffffffffffffffffffffffffffffffffff1673ffffffffffffffffffffffffffffffffffffffff16815260200190815260200160002060009054906101000a900460ff1662002735576040517f08c379a000000000000000000000000000000000000000000000000000000000815260040180806020018281038252602681526020018062007c5e6026913960400191505060405180910390fd5b6200274b6794e8bc79e466100760c01b62001e57565b6200276167bc04c894f3eba0c560c01b62001e57565b62002777670acb98e525a2992e60c01b62001e57565b6200278d6702f83effb0603b2160c01b62001e57565b620027a367cabbadae4ca9cb1560c01b62001e57565b620027b9676a8aed084b7a4f8a60c01b62001e57565b620027c48162005590565b50565b6000620027df6737f1456e402050b760c01b6200126d565b620027f567c6c51b6b5de5c55f60c01b6200126d565b6200280b67add41accd6dd638960c01b6200126d565b62002817838362003b51565b905092915050565b6000919050565b6000919050565b6000620028456770295e76fd3606e860c01b6200126d565b6200285b67c1b41f9ab8af392860c01b6200126d565b620028716759dfab38aed2961660c01b6200126d565b6200287c82620058c1565b9050919050565b600160009054906101000a900473ffffffffffffffffffffffffffffffffffffffff1681565b6000620028c167c2603dd5511b499960c01b62001e57565b620028d76764f96218f3a402c560c01b62001e57565b620028ed679f7a32802dba8b6e60c01b62001e57565b6200293d8484848080601f016020809104026020016040519081016040528093929190818152602001838380828437600081840152601f19601f8201169050808301925050505050505062005988565b90509392505050565b600060019050919050565b50565b6200296a67048917178b6fd9c260c01b6200126d565b6200298067615d9b6e4e4bb8fa60c01b6200126d565b62002996675497c8a0bbc61d7260c01b6200126d565b620029a18162003e47565b50620029b8672fb8f1d2e901d24560c01b6200126d565b620029ce6705f1bcff4ce431e660c01b6200126d565b620029d981620044ed565b50565b620029f267c94598dff1c260ed60c01b6200126d565b62002a0867ea32a7b873d6650e60c01b6200126d565b62002a1e673da19387c67c79eb60c01b6200126d565b600062002a2b8362003e47565b905062002a436732dfed52ba5cf73560c01b6200126d565b62002a5967b5d80ed7bb12439660c01b6200126d565b62002a6f67fc0b5f21f1c32cd260c01b6200126d565b8073ffffffffffffffffffffffffffffffffffffffff168273ffffffffffffffffffffffffffffffffffffffff16141562002af6576040517f08c379a000000000000000000000000000000000000000000000000000000000815260040180806020018281038252602b81526020018062007c33602b913960400191505060405180910390fd5b62002b0c67fb1403565ea34a5460c01b6200126d565b62002b22679770f4b7d2f941d960c01b6200126d565b62002b3867ac1ee1378496825960c01b6200126d565b62002b4e676d4049ac4f4acf5160c01b6200126d565b62002c07600560008573ffffffffffffffffffffffffffffffffffffffff1673ffffffffffffffffffffffffffffffffffffffff16815260200190815260200160002060020160008473ffffffffffffffffffffffffffffffffffffffff1673ffffffffffffffffffffffffffffffffffffffff1681526020019081526020016000206040518060400160405290816000820160009054906101000a900460ff1615151515815260200160018201548152505062005a66565b62002c5e576040517f08c379a000000000000000000000000000000000000000000000000000000000815260040180806020018281038252602c81526020018062007b31602c913960400191505060405180910390fd5b62002c7467799b5008fbd1770960c01b6200126d565b62002c8a67a955ce2c33e3994560c01b6200126d565b43600560008573ffffffffffffffffffffffffffffffffffffffff1673ffffffffffffffffffffffffffffffffffffffff16815260200190815260200160002060020160008473ffffffffffffffffffffffffffffffffffffffff1673ffffffffffffffffffffffffffffffffffffffff1681526020019081526020016000206001018190555062002d2767f856d64ff733508260c01b6200126d565b62002d3d67febf2cfa1547c8be60c01b6200126d565b7f1ce3cbbc43ee231e5b950332f2b0b9dd7d349291a3ee411ce5c5c7ed745661bb8383604051808373ffffffffffffffffffffffffffffffffffffffff1681526020018273ffffffffffffffffffffffffffffffffffffffff1681526020019250505060405180910390a1505050565b600062002dc567a5917f483fbbcc7360c01b6200126d565b62002ddb6768fd9d05cd97256360c01b6200126d565b62002df1671d877a233f2b5a8760c01b6200126d565b62002e558562002e4f85858080601f016020809104026020016040519081016040528093929190818152602001838380828437600081840152601f19601f8201169050808301925050505050505087620037f290919063ffffffff16565b62003b51565b9050949350505050565b62002e75671ea77a899724d80260c01b6200126d565b62002e8b67e4c3b6425bf75e5360c01b6200126d565b62002ea1676de7b6dbf09eee5d60c01b6200126d565b62002eac8562003e47565b5062002ec367574348cc95986d7760c01b6200126d565b62002ed96768e9f576e6f4abae60c01b6200126d565b62002ee485620044ed565b62002efa67c50a9c59c74a0ea760c01b6200126d565b62002f1067dfa45ff4a620f4da60c01b6200126d565b62002f6485858585858080601f016020809104026020016040519081016040528093929190818152602001838380828437600081840152601f19601f820116905080830192505050505050506001620046a7565b505050505050565b62002f8267d9f79768769f2f9260c01b6200126d565b62002f9867860630aea3989d0560c01b6200126d565b62002fae6769ab0ed81c39ef2d60c01b6200126d565b62002fb98262003e47565b5062002fd067b9ad2bff7fd0739560c01b6200126d565b62002fe667d1c6c2859471ed2560c01b6200126d565b62002ffc67caf841b95517faa560c01b6200126d565b600073ffffffffffffffffffffffffffffffffffffffff168173ffffffffffffffffffffffffffffffffffffffff16141562003084576040517f08c379a000000000000000000000000000000000000000000000000000000000815260040180806020018281038252602d81526020018062007d12602d913960400191505060405180910390fd5b6200309a67b0d1707a66e1ea2e60c01b6200126d565b620030b0672c4dcece98dfa9f160c01b6200126d565b620030c667bc167590d151e8c560c01b6200126d565b620030dc67275bde60f078ffdc60c01b6200126d565b62003195600560008473ffffffffffffffffffffffffffffffffffffffff1673ffffffffffffffffffffffffffffffffffffffff16815260200190815260200160002060020160008373ffffffffffffffffffffffffffffffffffffffff1673ffffffffffffffffffffffffffffffffffffffff1681526020019081526020016000206040518060400160405290816000820160009054906101000a900460ff1615151515815260200160018201548152505062005a66565b15620031ed576040517f08c379a000000000000000000000000000000000000000000000000000000000815260040180806020018281038252602d81526020018062007ce5602d913960400191505060405180910390fd5b6200320367ab3aea439d6c71fb60c01b6200126d565b62003219674c36e3fb603be83260c01b6200126d565b6001600560008473ffffffffffffffffffffffffffffffffffffffff1673ffffffffffffffffffffffffffffffffffffffff16815260200190815260200160002060020160008373ffffffffffffffffffffffffffffffffffffffff1673ffffffffffffffffffffffffffffffffffffffff16815260200190815260200160002060000160006101000a81548160ff021916908315150217905550620032ca676e18e17ab250eff260c01b6200126d565b6000600560008473ffffffffffffffffffffffffffffffffffffffff1673ffffffffffffffffffffffffffffffffffffffff16815260200190815260200160002060020160008373ffffffffffffffffffffffffffffffffffffffff1673ffffffffffffffffffffffffffffffffffffffff168152602001908152602001600020600101819055506200336867d0431d8e007d946960c01b6200126d565b6200337e676b99d1731ea9e40160c01b6200126d565b7f27e282f7712c5b4617277759c834b86d163dfc1aad25c8c3c5926a1c9e5644688282604051808373ffffffffffffffffffffffffffffffffffffffff1681526020018273ffffffffffffffffffffffffffffffffffffffff1681526020019250505060405180910390a15050565b620034036783c2d9600ceceeaf60c01b620022e3565b62003419679f53a9694754505360c01b620022e3565b6200342f674e667d4d7ad8af5160c01b620022e3565b6200344567723f9a679b9f061360c01b620022e3565b600073ffffffffffffffffffffffffffffffffffffffff168273ffffffffffffffffffffffffffffffffffffffff161415620034cd576040517f08c379a000000000000000000000000000000000000000000000000000000000815260040180806020018281038252603b81526020018062007a98603b913960400191505060405180910390fd5b620034e367f9cb5c5e3bd4d0ea60c01b620022e3565b620034f967335ed371d47bd49b60c01b620022e3565b81600260006101000a81548173ffffffffffffffffffffffffffffffffffffffff021916908373ffffffffffffffffffffffffffffffffffffffff1602179055506200355067095b2b8506839bb960c01b620022e3565b6200356667c2cbd28cf17a42f160c01b620022e3565b8015620036245762003583679ba037499bcc570860c01b620022e3565b6200359967f6d4a8c41f3ac22560c01b620022e3565b620035af679ed29a61e951e55e60c01b620022e3565b7f70d9f5a076620216a6050e493f3ce69749de0b68fa4b839ba2518660ba8b9cf0600260009054906101000a900473ffffffffffffffffffffffffffffffffffffffff16604051808273ffffffffffffffffffffffffffffffffffffffff16815260200191505060405180910390a16200363b565b6200363a674e1a55814846cb8760c01b620022e3565b5b5050565b60006200365767f15cd92bcdf13ee760c01b62005abd565b6200366d67cd3004ad314d8ec960c01b62005abd565b620036836744faae015a91faba60c01b62005abd565b6200368f825162005ac0565b826040516020018082805190602001908083835b60208310620036c85780518252602082019150602081019050602083039250620036a3565b6001836020036101000a03801982511681845116808217855250505050505090500191505060405160208183030381529060405260405160200180807f19457468657265756d205369676e6564204d6573736167653a0a000000000000815250601a0183805190602001908083835b602083106200375c578051825260208201915060208101905060208303925062003737565b6001836020036101000a03801982511681845116808217855250505050505090500182805190602001908083835b60208310620037af57805182526020820191506020810190506020830392506200378a565b6001836020036101000a03801982511681845116808217855250505050505090500192505050604051602081830303815290604052805190602001209050919050565b60006200380a676de89ac9109535f060c01b62005e4f565b620038206738f07d032b69a0cc60c01b62005e4f565b62003836679a56bd737f9ec1c160c01b62005e4f565b60006200384e6765ff8d1c809ca6df60c01b62005e4f565b6200386467b385de3f7dcc346760c01b62005e4f565b60418351141562003b04576200388567166e15f83f23170a60c01b62005e4f565b6200389b67cd2d9c240be0a33460c01b62005e4f565b620038b1671b08267e2ace419660c01b62005e4f565b6000620038c9676bf79a26a2eb360d60c01b62005e4f565b620038df67f6aaa0b497d5b8c960c01b62005e4f565b6000620038f767e3bb8ebb94b2557260c01b62005e4f565b6200390d6761e42a107c3e2f3560c01b62005e4f565b60006200392567629bbeea2d8dae6c60c01b62005e4f565b6020860151925060408601519150606086015160001a90506200395367c96eccbfec13453b60c01b62005e4f565b62003969670614339e5785cdba60c01b62005e4f565b601b8160ff161015620039ae576200398c67c25e4db51759311e60c01b62005e4f565b620039a26794a576c495e47bde60c01b62005e4f565b601b81019050620039c5565b620039c467b3c223547babc39660c01b62005e4f565b5b620039db676b258761bdd66fe460c01b62005e4f565b620039f16744f25d0fe4c8b73f60c01b62005e4f565b601b8160ff1614801562003a17575062003a166787b517281dd8e34760c01b62005e52565b5b8062003a455750601c8160ff1614801562003a44575062003a4367faa29d490ca62b7160c01b62005e52565b5b5b1562003ae45762003a6167a5480a7163bbe5f160c01b62005e4f565b62003a7767aee28416a483519060c01b62005e4f565b60018782858560405160008152602001604052604051808581526020018460ff1681526020018381526020018281526020019450505050506020604051602081039080840390855afa15801562003ad2573d6000803e3d6000fd5b50505060206040510351935062003afb565b62003afa672ad4d87bf39029de60c01b62005e4f565b5b50505062003b1b565b62003b1a675c61079943debe0c60c01b62005e4f565b5b62003b316787ceeaaf3f2a20f460c01b62005e4f565b62003b4767d9e6bd7b8159092260c01b62005e4f565b8091505092915050565b600062003b696763f0cbbcb702b5ee60c01b6200126d565b62003b7f6798359777b3145ba260c01b6200126d565b62003b95678584f8e5fd1559c360c01b6200126d565b600062003bad679a1e45859765beaf60c01b6200126d565b62003bc367cb0c891617c7e53760c01b6200126d565b600560008573ffffffffffffffffffffffffffffffffffffffff1673ffffffffffffffffffffffffffffffffffffffff16815260200190815260200160002060020160008473ffffffffffffffffffffffffffffffffffffffff1673ffffffffffffffffffffffffffffffffffffffff16815260200190815260200160002060000160009054906101000a900460ff161562003d135762003c6f67f52cb1149e43ec1460c01b6200126d565b62003c85671d9614375a655d3d60c01b6200126d565b6000600560008673ffffffffffffffffffffffffffffffffffffffff1673ffffffffffffffffffffffffffffffffffffffff16815260200190815260200160002060020160008573ffffffffffffffffffffffffffffffffffffffff1673ffffffffffffffffffffffffffffffffffffffff1681526020019081526020016000206001015414905062003e11565b62003d29677737bcc2db51ae0e60c01b6200126d565b62003d3f67bec0568471c0ce1760c01b6200126d565b6000801b600560008673ffffffffffffffffffffffffffffffffffffffff1673ffffffffffffffffffffffffffffffffffffffff16815260200190815260200160002060010154141562003df95762003da266e8c8653ac109a560c01b6200126d565b62003db86709c07facba711ae460c01b6200126d565b62003dc383620058c1565b73ffffffffffffffffffffffffffffffffffffffff168473ffffffffffffffffffffffffffffffffffffffff1614905062003e10565b62003e0f6716a05a753417858d60c01b6200126d565b5b5b62003e2767b54063099cfe0bc460c01b6200126d565b62003e3d6708fb14465da4875b60c01b6200126d565b8091505092915050565b600062003e5f678c9961c011bcf4ab60c01b6200126d565b62003e75675568eac8728e247760c01b6200126d565b62003e8b670bcb1ea2faf9a16b60c01b6200126d565b600062003e9762005e5d565b905062003eaf67418e4211336c266d60c01b6200126d565b62003ec56763e5499fbd94b7b260c01b6200126d565b600560008473ffffffffffffffffffffffffffffffffffffffff1673ffffffffffffffffffffffffffffffffffffffff16815260200190815260200160002060020160008273ffffffffffffffffffffffffffffffffffffffff1673ffffffffffffffffffffffffffffffffffffffff16815260200190815260200160002060000160009054906101000a900460ff1615620040ac5762003f7167c81febcf5025f68960c01b6200126d565b62003f8767a5fd9d78b54e3bf160c01b6200126d565b62003f9d6736641034d020a9e160c01b6200126d565b62003fb3679737bada6a000d3e60c01b6200126d565b6000600560008573ffffffffffffffffffffffffffffffffffffffff1673ffffffffffffffffffffffffffffffffffffffff16815260200190815260200160002060020160008373ffffffffffffffffffffffffffffffffffffffff1673ffffffffffffffffffffffffffffffffffffffff168152602001908152602001600020600101541462004090576040517f08c379a000000000000000000000000000000000000000000000000000000000815260040180806020018281038252603881526020018062007ad36038913960400191505060405180910390fd5b620040a667f0f5ac6c230deafe60c01b6200126d565b620044b8565b620040c2674d4de8fa3b26322060c01b6200126d565b620040d867e62aed5104795ff660c01b6200126d565b620040ee678cebeae989f21bb860c01b6200126d565b62004104671749085617448f9960c01b6200126d565b6000801b600560008573ffffffffffffffffffffffffffffffffffffffff1673ffffffffffffffffffffffffffffffffffffffff1681526020019081526020016000206001015414620041a3576040517f08c379a000000000000000000000000000000000000000000000000000000000815260040180806020018281038252603881526020018062007ad36038913960400191505060405180910390fd5b620041b967cfb129f5b8ff421a60c01b6200126d565b620041cf6787e8ff442ad0efcf60c01b6200126d565b620041e567820a4d545415c37a60c01b6200126d565b600081604051602001808273ffffffffffffffffffffffffffffffffffffffff1660601b81526014019150506040516020818303038152906040528051906020012090506200423f6740db9b9332b5334560c01b6200126d565b6200425567701286873423c5ae60c01b6200126d565b6200426b6781899eb1f655da9860c01b6200126d565b620042768162005eb2565b73ffffffffffffffffffffffffffffffffffffffff168473ffffffffffffffffffffffffffffffffffffffff1614620042fb576040517f08c379a000000000000000000000000000000000000000000000000000000000815260040180806020018281038252603881526020018062007ad36038913960400191505060405180910390fd5b62004311675e4042aa2e8f7b4d60c01b6200126d565b62004327676557022667e296e560c01b6200126d565b80600560008673ffffffffffffffffffffffffffffffffffffffff1673ffffffffffffffffffffffffffffffffffffffff168152602001908152602001600020600101819055506200438467a0e11635a06403cd60c01b6200126d565b6001600560008673ffffffffffffffffffffffffffffffffffffffff1673ffffffffffffffffffffffffffffffffffffffff16815260200190815260200160002060020160008473ffffffffffffffffffffffffffffffffffffffff1673ffffffffffffffffffffffffffffffffffffffff16815260200190815260200160002060000160006101000a81548160ff02191690831515021790555062004435676369446ab4a10a1f60c01b6200126d565b6200444b672801c1cbbb63f13f60c01b6200126d565b7f27e282f7712c5b4617277759c834b86d163dfc1aad25c8c3c5926a1c9e5644688483604051808373ffffffffffffffffffffffffffffffffffffffff1681526020018273ffffffffffffffffffffffffffffffffffffffff1681526020019250505060405180910390a1505b620044ce67268a20f490e2f05760c01b6200126d565b620044e4671c0ebe1f88c834b660c01b6200126d565b80915050919050565b6200450367d41bdbde363e11d260c01b6200126d565b620045196758bdd3204327d22b60c01b6200126d565b6200452f67a6bbce05bef2d1f760c01b6200126d565b600560008273ffffffffffffffffffffffffffffffffffffffff1673ffffffffffffffffffffffffffffffffffffffff16815260200190815260200160002060000160009054906101000a900460ff166200468d576200459a672df7c8469ee6f88f60c01b6200126d565b620045b067ea826ef7b7df60aa60c01b6200126d565b620045c66738dcfa167109d4ff60c01b6200126d565b62004615600560008373ffffffffffffffffffffffffffffffffffffffff1673ffffffffffffffffffffffffffffffffffffffff16815260200190815260200160002060010154600162006146565b506200462c6765820e54c9b0c5f960c01b6200126d565b6001600560008373ffffffffffffffffffffffffffffffffffffffff1673ffffffffffffffffffffffffffffffffffffffff16815260200190815260200160002060000160006101000a81548160ff021916908315150217905550620046a4565b620046a367398223adf3186dbb60c01b6200126d565b5b50565b6060620046bf67814286c67294274f60c01b620022e3565b620046d567d0d16f1b8fc356b560c01b620022e3565b620046eb67472c5e9e216fb45c60c01b620022e3565b620047016789fb98f438a6f12760c01b620022e3565b600073ffffffffffffffffffffffffffffffffffffffff168573ffffffffffffffffffffffffffffffffffffffff16141562004789576040517f08c379a000000000000000000000000000000000000000000000000000000000815260040180806020018281038252602581526020018062007bc16025913960400191505060405180910390fd5b6200479f6787fd09fd3c3e3f3960c01b620022e3565b620047b567524744b09449860960c01b620022e3565b620047cb673236b0973d64465a60c01b620022e3565b620047e16732c4c78506603f6e60c01b620022e3565b3073ffffffffffffffffffffffffffffffffffffffff168573ffffffffffffffffffffffffffffffffffffffff16141562004868576040517f08c379a000000000000000000000000000000000000000000000000000000000815260040180806020018281038252602c81526020018062007cb9602c913960400191505060405180910390fd5b6200487e67a265539070ced0a060c01b620022e3565b6200489467d30ac36fed552ccf60c01b620022e3565b620048aa6780fd837f8ef149c260c01b620022e3565b620048c067288c5d3d81d6014b60c01b620022e3565b8573ffffffffffffffffffffffffffffffffffffffff168573ffffffffffffffffffffffffffffffffffffffff16141562004947576040517f08c379a000000000000000000000000000000000000000000000000000000000815260040180806020018281038252602681526020018062007b0b6026913960400191505060405180910390fd5b6200495d672fe5da791f71fd0260c01b620022e3565b62004973671e6c858814b5ee5960c01b620022e3565b62004989671d05f6292d669dbe60c01b620022e3565b60608673ffffffffffffffffffffffffffffffffffffffff16633f579f428787876040518463ffffffff1660e01b8152600401808473ffffffffffffffffffffffffffffffffffffffff16815260200183815260200180602001828103825283818151815260200191508051906020019080838360005b8381101562004a1d57808201518184015260208101905062004a00565b50505050905090810190601f16801562004a4b5780820380516001836020036101000a031916815260200191505b50945050505050600060405180830381600087803b15801562004a6d57600080fd5b505af115801562004a82573d6000803e3d6000fd5b505050506040513d6000823e3d601f19601f82011682018060405250602081101562004aad57600080fd5b810190808051604051939291908464010000000082111562004ace57600080fd5b8382019150602082018581111562004ae557600080fd5b825186600182028301116401000000008211171562004b0357600080fd5b8083526020830192505050908051906020019080838360005b8381101562004b3957808201518184015260208101905062004b1c565b50505050905090810190601f16801562004b675780820380516001836020036101000a031916815260200191505b50604052505050905062004b8667a86be8a6197d8f7160c01b620022e3565b62004b9c6704c45898d7a3dc4960c01b620022e3565b821562004d3e5762004bb9677cf9f736f125866560c01b620022e3565b62004bcf67529d2735d132cf1560c01b620022e3565b62004be567b057ac5e90ed49b660c01b620022e3565b7f99eeae1fb8801e2e878e060ec5e5b3557b3c4f8106e35d88cb573f293dae4e248787878785604051808673ffffffffffffffffffffffffffffffffffffffff1681526020018573ffffffffffffffffffffffffffffffffffffffff1681526020018481526020018060200180602001838103835285818151815260200191508051906020019080838360005b8381101562004c8f57808201518184015260208101905062004c72565b50505050905090810190601f16801562004cbd5780820380516001836020036101000a031916815260200191505b50838103825284818151815260200191508051906020019080838360005b8381101562004cf857808201518184015260208101905062004cdb565b50505050905090810190601f16801562004d265780820380516001836020036101000a031916815260200191505b5097505050505050505060405180910390a162004d55565b62004d54674acbed85c648bd9f60c01b620022e3565b5b62004d6b67bfd3d2acf9c6fd0360c01b620022e3565b62004d8167af52996cec740e0c60c01b620022e3565b8091505095945050505050565b600062004da6673b635e384cadbd5a60c01b62006397565b62004dbc6749cb5be08e68fbdd60c01b62006397565b62004dd267aef07de83d834c1e60c01b62006397565b600062004dea67f20ba4e9a0af4e9f60c01b62006397565b62004e00674e6f9bae09b2598e60c01b62006397565b83600001511562004f3a5762004e21671843ed553598822a60c01b62006397565b62004e3767fad08b54711ac51660c01b62006397565b62004e4d676e01e9d8c8255c0260c01b62006397565b60008460200151141562004e915762004e7167c603398633f5e80e60c01b62006397565b62004e876716652c62c12d160760c01b62006397565b6001905062004f34565b62004ea76721efa8a4a4a7b2c960c01b62006397565b62004ebd672554a5b85780fa0860c01b62006397565b600083141562004efd5762004edd676dd5fed330029df660c01b62006397565b62004ef3671e07fb77fe22fe6f60c01b62006397565b6001905062004f33565b62004f1367f855e82a3edb797160c01b62006397565b62004f29677c36e0ca6a0853da60c01b62006397565b8284602001511190505b5b62004f51565b62004f5067ac1cefc0f2a5df1860c01b62006397565b5b62004f676752af1a66b351418c60c01b62006397565b62004f7d6774bd2ce3ad9889f960c01b62006397565b8091505092915050565b62004f9d675b435ac4f7c5314d60c01b620022e3565b62004fb3675c1473c960b0672d60c01b620022e3565b62004fc967527f76481462b8e860c01b620022e3565b62004fdf67c1d949efa570b63960c01b620022e3565b600260009054906101000a900473ffffffffffffffffffffffffffffffffffffffff1673ffffffffffffffffffffffffffffffffffffffff168273ffffffffffffffffffffffffffffffffffffffff16635c60da1b6040518163ffffffff1660e01b815260040160206040518083038186803b1580156200505f57600080fd5b505afa15801562005074573d6000803e3d6000fd5b505050506040513d60208110156200508b57600080fd5b810190808051906020019092919050505073ffffffffffffffffffffffffffffffffffffffff1614156200510b576040517f08c379a000000000000000000000000000000000000000000000000000000000815260040180806020018281038252602b81526020018062007c08602b913960400191505060405180910390fd5b6200512167608efe7a7852fb7460c01b620022e3565b6200513767e8d7960c14a18e7e60c01b620022e3565b6200514d678d54d91ac1eb113b60c01b620022e3565b8173ffffffffffffffffffffffffffffffffffffffff1663d784d426600260009054906101000a900473ffffffffffffffffffffffffffffffffffffffff166040518263ffffffff1660e01b8152600401808273ffffffffffffffffffffffffffffffffffffffff168152602001915050600060405180830381600087803b158015620051d957600080fd5b505af1158015620051ee573d6000803e3d6000fd5b5050505062005208670c103b9d4691d31c60c01b620022e3565b6200521e678aa71f047967730960c01b620022e3565b8015620052fa576200523b67ed4cd76a89a0c09960c01b620022e3565b62005251676d18076aa1a4f40760c01b620022e3565b62005267672947c11eac063e5660c01b620022e3565b7feec27cdb8bd6f55c2c537deb52ab094a2437e85ef5197e6f064f90bff3ff563f82600260009054906101000a900473ffffffffffffffffffffffffffffffffffffffff16604051808373ffffffffffffffffffffffffffffffffffffffff1681526020018273ffffffffffffffffffffffffffffffffffffffff1681526020019250505060405180910390a162005311565b6200531067f6f725560d9d712960c01b620022e3565b5b5050565b6200532b67382b15100f1ea6e160c01b62001e57565b6200534167bc01750d57db35d060c01b62001e57565b6200535767e50faf3ab907f62c60c01b62001e57565b600081511415620053b55762005378677ef664711d6a7db260c01b62001e57565b6200538e6758b5d7b8e62671d960c01b62001e57565b620053a4678cc441a589d12f3660c01b62001e57565b620053af3262005590565b62005491565b620053cb67b5eaa5217834394c60c01b62001e57565b620053e167e1b8c0b401a26d9b60c01b62001e57565b620053f76753d9b2baeb60c5ae60c01b62001e57565b6000815190506200541367ac94bd2d4c55fae960c01b62001e57565b62005429675e26d50e743751d260c01b62001e57565b60005b818110156200548e576200544b67294278db644c36ac60c01b62001e57565b6200546167a81590e94526336860c01b62001e57565b620054808382815181106200547257fe5b602002602001015162005590565b80806001019150506200542c565b50505b50565b620054aa6769144185cabb2a6460c01b620022e3565b620054c067c7eff070cc97002f60c01b620022e3565b620054d6676e2aae8dcdc8007c60c01b620022e3565b620054e38260006200639a565b620054f9676940548be3f2a9b960c01b620022e3565b6200550f67a4ea0ed61ccdc75260c01b620022e3565b6200551c816000620033ed565b5050565b62005536679d7ccc1311d911f260c01b62001420565b6200554c675c759c22b9c661dc60c01b62001420565b80600460006101000a81548173ffffffffffffffffffffffffffffffffffffffff021916908373ffffffffffffffffffffffffffffffffffffffff16021790555050565b620055a667bddd7115df1af29a60c01b62001e57565b620055bc6701589f7184316ad060c01b62001e57565b620055d26749aec7233e10dc1c60c01b62001e57565b620055e8672afcf6fb9885dea660c01b62001e57565b600073ffffffffffffffffffffffffffffffffffffffff168173ffffffffffffffffffffffffffffffffffffffff1614156200568c576040517f08c379a00000000000000000000000000000000000000000000000000000000081526004018080602001828103825260208152602001807f477561726465643a2063616e6e6f74206164642030783020677561726469616e81525060200191505060405180910390fd5b620056a267ad8ef681321284d460c01b62001e57565b620056b867c072d78627d5e68760c01b62001e57565b620056ce672e6f6d5be899e1b060c01b62001e57565b620056e467608d488e1a35327760c01b62001e57565b6000808273ffffffffffffffffffffffffffffffffffffffff1673ffffffffffffffffffffffffffffffffffffffff16815260200190815260200160002060009054906101000a900460ff1615620057a4576040517f08c379a00000000000000000000000000000000000000000000000000000000081526004018080602001828103825260208152602001807f477561726465643a20677561726469616e20616c72656164792065786973747381525060200191505060405180910390fd5b620057ba6778d9ddea333c93e160c01b62001e57565b620057d0673e811494da954c4160c01b62001e57565b60016000808373ffffffffffffffffffffffffffffffffffffffff1673ffffffffffffffffffffffffffffffffffffffff16815260200190815260200160002060006101000a81548160ff0219169083151502179055506200583d671acb4adf2a964aa160c01b62001e57565b6200585367ff72d8ebc11c766260c01b62001e57565b7fbc3292102fa77e083913064b282926717cdfaede4d35f553d66366c0a3da755a3282604051808373ffffffffffffffffffffffffffffffffffffffff1681526020018273ffffffffffffffffffffffffffffffffffffffff1681526020019250505060405180910390a150565b6000620058d967fa7be581ab72df8960c01b6200126d565b620058ef67f0df5b27ab06d4b560c01b6200126d565b62005905678c8b4ef19ab069df60c01b6200126d565b600082604051602001808273ffffffffffffffffffffffffffffffffffffffff1660601b81526014019150506040516020818303038152906040528051906020012090506200595f67450109b31e0e043f60c01b6200126d565b62005975671718879031a3f8d860c01b6200126d565b620059808162005eb2565b915050919050565b6000620059a067a8025e080327595360c01b62001e57565b620059b667527ef727f456fc6060c01b62001e57565b620059cc67f6f0991f4f07cce960c01b62001e57565b6000620059e38385620037f290919063ffffffff16565b9050620059fb67662ff5a5d873edfe60c01b62001e57565b62005a1167efbf0f200fbb2edf60c01b62001e57565b6000808273ffffffffffffffffffffffffffffffffffffffff1673ffffffffffffffffffffffffffffffffffffffff16815260200190815260200160002060009054906101000a900460ff1691505092915050565b600062005a7e67d6af43e18a982f2360c01b62006397565b62005a946762c8f3ec97bdf6f160c01b62006397565b62005aaa6788044af19313f6f360c01b62006397565b62005ab6824362004d8e565b9050919050565b50565b606062005ad8679decfef42222e0a260c01b620065ec565b62005aee67b157c85f1ab079a760c01b620065ec565b62005b0467968324522627457d60c01b620065ec565b600082141562005b8e5762005b246771941266e040c30560c01b620065ec565b62005b3a67a21e8abc3b18942460c01b620065ec565b62005b5067d7989e74fd6df78160c01b620065ec565b6040518060400160405280600181526020017f3000000000000000000000000000000000000000000000000000000000000000815250905062005e4a565b62005ba467b98056763140a70c60c01b620065ec565b62005bba6797e9c9a97b5eb40e60c01b620065ec565b62005bd06791bab60050aeb29360c01b620065ec565b600082905062005beb67d49e835e045b370c60c01b620065ec565b62005c0167bec74138ebf7e3e760c01b620065ec565b600062005c1967501529dac2991ae760c01b620065ec565b62005c2f673abcac612ea4766c60c01b620065ec565b5b6000821462005c815762005c4f6775f814db6e0a416160c01b620065ec565b808060010191505062005c6d67229195bb046e357060c01b620065ec565b600a828162005c7857fe5b04915062005c30565b62005c9767e95a3cd4fb775b6d60c01b620065ec565b62005cad67828e963a6299010b60c01b620065ec565b60608167ffffffffffffffff8111801562005cc757600080fd5b506040519080825280601f01601f19166020018201604052801562005cfb5781602001600182028036833780820191505090505b50905062005d1467cd2dd5b1810cec7960c01b620065ec565b62005d2a672296f8197e05a42c60c01b620065ec565b600060018303905062005d4867df64927dd5e500f660c01b620065ec565b85935062005d616792742c796eab0f4b60c01b620065ec565b62005d77674917cb6688c6a16d60c01b620065ec565b5b6000841462005e165762005d9767d02297652318384860c01b620065ec565b600a848162005da257fe5b0660300160f81b8282806001900393508151811062005dbd57fe5b60200101907effffffffffffffffffffffffffffffffffffffffffffffffffffffffffffff1916908160001a90535062005e02678ec57bd9873aca2460c01b620065ec565b600a848162005e0d57fe5b04935062005d78565b62005e2c6752a3ca82c1f7fbdf60c01b620065ec565b62005e42679a97978311b49f4360c01b620065ec565b819450505050505b919050565b50565b600060019050919050565b600062005e7567eceaa95f825f3a4260c01b62001420565b62005e8b678f7872b50d8894f260c01b62001420565b62005ea1673638c588541bbf8f60c01b62001420565b62005ead6014620065ef565b905090565b600062005eca67e34840e82a0c604360c01b620022e3565b62005ee067bbb8008e86a360a860c01b620022e3565b62005ef66783c253153d0dcf3160c01b620022e3565b60606040518060200162005f0a9062006b22565b6020820181038252601f19601f82011660405250600060a01b600160009054906101000a900473ffffffffffffffffffffffffffffffffffffffff16600060a01b600260009054906101000a900473ffffffffffffffffffffffffffffffffffffffff166040516020018086805190602001908083835b6020831062005fa6578051825260208201915060208101905060208303925062005f81565b6001836020036101000a0380198251168184511680821785525050505050509050018573ffffffffffffffffffffffffffffffffffffffff19168152600c018473ffffffffffffffffffffffffffffffffffffffff1660601b81526014018373ffffffffffffffffffffffffffffffffffffffff19168152600c018273ffffffffffffffffffffffffffffffffffffffff1660601b81526014019550505050505060405160208183030381529060405290506200606e674bd1c5f95652595a60c01b620022e3565b62006084675b5c321849615de260c01b620022e3565b600060ff60f81b3085848051906020012060405160200180857effffffffffffffffffffffffffffffffffffffffffffffffffffffffffffff191681526001018473ffffffffffffffffffffffffffffffffffffffff1660601b81526014018381526020018281526020019450505050506040516020818303038152906040528051906020012090506200612367842ebf405acd05c960c01b620022e3565b62006139671ca9d4333618394f60c01b620022e3565b8060001c92505050919050565b60006200615e673e395782e91e1bb860c01b620022e3565b6200617467dfbee3ef6e6a74ff60c01b620022e3565b6200618a67dea9206de3f4d66360c01b620022e3565b600083600160009054906101000a900473ffffffffffffffffffffffffffffffffffffffff16600260009054906101000a900473ffffffffffffffffffffffffffffffffffffffff16604051620061e19062006b22565b808373ffffffffffffffffffffffffffffffffffffffff1681526020018273ffffffffffffffffffffffffffffffffffffffff168152602001925050508190604051809103906000f59050801580156200623f573d6000803e3d6000fd5b509050620062586749857d637a1b37da60c01b620022e3565b6200626e67eb8b6945057b86b760c01b620022e3565b82156200634a576200628b672b4a877eda1b5c8d60c01b620022e3565b620062a167820d658cad88fb5360c01b620022e3565b620062b767398bd7078b270ab660c01b620022e3565b7f2682a218602b9036c9869f006c5405ee4a1a65267653eb7e286123e5e1afde4c81600260009054906101000a900473ffffffffffffffffffffffffffffffffffffffff16604051808373ffffffffffffffffffffffffffffffffffffffff1681526020018273ffffffffffffffffffffffffffffffffffffffff1681526020019250505060405180910390a162006361565b6200636067de18f757957f228b60c01b620022e3565b5b62006377673197d506bcf2602460c01b620022e3565b6200638d67b473c319a76b760d60c01b620022e3565b8091505092915050565b50565b620063b06759257e484349f60a60c01b620022e3565b620063c667f4e4eed174a3a9ee60c01b620022e3565b620063dc67720b1c7d7b0af4a860c01b620022e3565b620063f267e56ad534d5106c0860c01b620022e3565b600073ffffffffffffffffffffffffffffffffffffffff168273ffffffffffffffffffffffffffffffffffffffff1614156200647a576040517f08c379a000000000000000000000000000000000000000000000000000000000815260040180806020018281038252603581526020018062007b5d6035913960400191505060405180910390fd5b62006490675d8e1e3e728ccb2960c01b620022e3565b620064a6679ef789fd3bc59dcd60c01b620022e3565b81600160006101000a81548173ffffffffffffffffffffffffffffffffffffffff021916908373ffffffffffffffffffffffffffffffffffffffff160217905550620064fd67a6ba364fe1a9813460c01b620022e3565b6200651367707b8f92126b8c5360c01b620022e3565b8015620065d1576200653067f9b4bf5b3daf568960c01b620022e3565b62006546677ccd242611ca419760c01b620022e3565b6200655c673d936fe1014799fe60c01b620022e3565b7f02e3c47057b8dc27a0929d3c394c314c73aa002d46939c31c9f71d1e77e86c10600160009054906101000a900473ffffffffffffffffffffffffffffffffffffffff16604051808273ffffffffffffffffffffffffffffffffffffffff16815260200191505060405180910390a1620065e8565b620065e7673f51aa24584f51c260c01b620022e3565b5b5050565b50565b60006200660767f97596c145c2643c60c01b62001420565b6200661d67719767a6276b440260c01b62001420565b6200663367ff6cc0c52b772da360c01b62001420565b60006200664b67d55d1ee61f7caad060c01b62001420565b6200666167e00ca364820461b760c01b62001420565b6200666b620067a7565b156200674257620066876752b2296e5485884f60c01b62001420565b6200669d6731059657a58d110360c01b62001420565b620066b367d161cb06738c6bb060c01b62001420565b6000836000369050039050620066d4678376598f1a6671ee60c01b62001420565b6200673960003683906014850192620066f09392919062006b30565b8080601f016020809104026020016040519081016040528093929190818152602001838380828437600081840152601f19601f82011690508083019250505050505050620069a8565b91505062006772565b6200675867ed1fe281c58f00ab60c01b62001420565b6200676e67c577249a47fbafbc60c01b62001420565b3390505b6200678867d840d7f568e7e8f360c01b62001420565b6200679e672f41cc642398b43e60c01b62001420565b80915050919050565b6000620067bf67b24a756293c07fff60c01b62001420565b620067d567fad27be25666a35560c01b62001420565b620067eb67d5c957d7e9ed371260c01b62001420565b60006200680367780739a1dcfdcb2960c01b62001420565b6200681967c2c61d022ff8fe9c60c01b62001420565b600460009054906101000a900473ffffffffffffffffffffffffffffffffffffffff1673ffffffffffffffffffffffffffffffffffffffff163373ffffffffffffffffffffffffffffffffffffffff1614156200695e576200688667a838fa7fccd80d5f60c01b62001420565b6200689c6718d71566f06a2d5960c01b62001420565b620068b26719ef867e8bf1060d60c01b62001420565b620068c8679d0e513a971c0b6160c01b62001420565b602c6000369050101562006928576040517f08c379a000000000000000000000000000000000000000000000000000000000815260040180806020018281038252602281526020018062007be66022913960400191505060405180910390fd5b6200693e678edf6ceda73addb260c01b62001420565b620069546787211d918602887760c01b62001420565b6001905062006975565b62006974675539c133ed18bde460c01b62001420565b5b6200698b6740acee34bffbf2ec60c01b62001420565b620069a167908c3807aad70fcf60c01b62001420565b8091505090565b6000620069c06745fe888f961edf9060c01b62006b1f565b620069d667c128e14c9960586c60c01b62006b1f565b620069ec679e4addf985cabeb360c01b62006b1f565b600062006a0467aab182be3934d1bf60c01b62006b1f565b62006a1a67339143ce5b10bc7a60c01b62006b1f565b62006a3067e0ac55f3b55d06d860c01b62006b1f565b601483511462006aa8576040517f08c379a000000000000000000000000000000000000000000000000000000000815260040180806020018281038252601d8152602001807f42797465734c69623a20696e76616c69642064617461206c656e67746800000081525060200191505060405180910390fd5b62006abe67eea605de5a7e45e660c01b62006b1f565b62006ad467df87c6a35e4a5c0d60c01b62006b1f565b6c01000000000000000000000000602084015104905062006b00670ed0f5a70872476160c01b62006b1f565b62006b166746c545de0ca3a1af60c01b62006b1f565b80915050919050565b50565b610f328062006b6683390190565b6000808585111562006b4157600080fd5b8386111562006b4f57600080fd5b600185028301915084860390509450949250505056fe608060405234801561001057600080fd5b50604051610f32380380610f328339818101604052604081101561003357600080fd5b81019080805190602001909291908051906020019092919050505061006867b6012af9acb9264060c01b61019960201b60201c565b6100826727f467a9e7d89ff760c01b61019960201b60201c565b336000806101000a81548173ffffffffffffffffffffffffffffffffffffffff021916908373ffffffffffffffffffffffffffffffffffffffff1602179055506100dc67f175c5ef2e49c6f360c01b61019c60201b60201c565b6100f667c318ba095176bebb60c01b61019c60201b60201c565b81600160006101000a81548173ffffffffffffffffffffffffffffffffffffffff021916908373ffffffffffffffffffffffffffffffffffffffff160217905550610151672a8b2ea5e921c9d460c01b61019c60201b60201c565b80600260006101000a81548173ffffffffffffffffffffffffffffffffffffffff021916908373ffffffffffffffffffffffffffffffffffffffff160217905550505061019f565b50565b50565b610d84806101ae6000396000f3fe6080604052600436106100e15760003560e01c80637b1039991161007f578063b49762a111610059578063b49762a114610664578063d784d426146106d0578063dd54622814610721578063f77c479114610777576100e8565b80637b103999146105775780638f27e6b6146105b8578063abe124f61461060e576100e8565b806334d23875116100bb57806334d23875146103355780633f579f42146103a15780635c60da1b146104ca5780636480a27b1461050b576100e8565b8063062e4f9c146101f15780631454d4701461025d5780632486e26f146102c9576100e8565b366100e857005b3480156100f457600080fd5b506101096709619ef9c11b3b8060c01b6107b8565b61011d67f676fea30541dd5560c01b6107b8565b61013167e5c11d251eb5286460c01b6107b8565b600080369050146101db5761015067c2d6781a706852d860c01b6107b8565b610164670eb6c0c0d55e29ed60c01b6107b8565b61017867bb9b653a710e7d3460c01b6107b8565b6000600260009054906101000a900473ffffffffffffffffffffffffffffffffffffffff1690506101b3671b09e5380a92fb0b60c01b6107b8565b368060008037600080826000855af43d806000803e81600081146101d657816000f35b816000fd5b6101ef6750d3724dcbeedf9a60c01b6107b8565b005b3480156101fd57600080fd5b506102456004803603602081101561021457600080fd5b81019080803577ffffffffffffffffffffffffffffffffffffffffffffffff191690602001909291905050506107bb565b60405180821515815260200191505060405180910390f35b34801561026957600080fd5b506102b16004803603602081101561028057600080fd5b81019080803577ffffffffffffffffffffffffffffffffffffffffffffffff191690602001909291905050506107c2565b60405180821515815260200191505060405180910390f35b3480156102d557600080fd5b5061031d600480360360208110156102ec57600080fd5b81019080803577ffffffffffffffffffffffffffffffffffffffffffffffff191690602001909291905050506107c9565b60405180821515815260200191505060405180910390f35b34801561034157600080fd5b506103896004803603602081101561035857600080fd5b81019080803577ffffffffffffffffffffffffffffffffffffffffffffffff191690602001909291905050506107d4565b60405180821515815260200191505060405180910390f35b3480156103ad57600080fd5b5061044f600480360360608110156103c457600080fd5b81019080803573ffffffffffffffffffffffffffffffffffffffff169060200190929190803590602001909291908035906020019064010000000081111561040b57600080fd5b82018360208201111561041d57600080fd5b8035906020019184600183028401116401000000008311171561043f57600080fd5b90919293919293905050506107df565b6040518080602001828103825283818151815260200191508051906020019080838360005b8381101561048f578082015181840152602081019050610474565b50505050905090810190601f1680156104bc5780820380516001836020036101000a031916815260200191505b509250505060405180910390f35b3480156104d657600080fd5b506104df610b13565b604051808273ffffffffffffffffffffffffffffffffffffffff16815260200191505060405180910390f35b34801561051757600080fd5b5061055f6004803603602081101561052e57600080fd5b81019080803577ffffffffffffffffffffffffffffffffffffffffffffffff19169060200190929190505050610b39565b60405180821515815260200191505060405180910390f35b34801561058357600080fd5b5061058c610b44565b604051808273ffffffffffffffffffffffffffffffffffffffff16815260200191505060405180910390f35b3480156105c457600080fd5b5061060c600480360360208110156105db57600080fd5b81019080803577ffffffffffffffffffffffffffffffffffffffffffffffff19169060200190929190505050610b6a565b005b34801561061a57600080fd5b506106626004803603602081101561063157600080fd5b81019080803577ffffffffffffffffffffffffffffffffffffffffffffffff19169060200190929190505050610b6d565b005b34801561067057600080fd5b506106b86004803603602081101561068757600080fd5b81019080803577ffffffffffffffffffffffffffffffffffffffffffffffff19169060200190929190505050610b70565b60405180821515815260200191505060405180910390f35b3480156106dc57600080fd5b5061071f600480360360208110156106f357600080fd5b81019080803573ffffffffffffffffffffffffffffffffffffffff169060200190929190505050610b77565b005b34801561072d57600080fd5b506107756004803603602081101561074457600080fd5b81019080803577ffffffffffffffffffffffffffffffffffffffffffffffff191690602001909291905050506107b8565b005b34801561078357600080fd5b5061078c610d27565b604051808273ffffffffffffffffffffffffffffffffffffffff16815260200191505060405180910390f35b50565b6000919050565b6000919050565b600060019050919050565b600060019050919050565b60606107f567eee3f9ec5935eb6860c01b6107b8565b6108096784d0485b592a236360c01b610b6d565b61081d6732d9e05dbcd2297760c01b610b6d565b610831671853580eb63b1ec060c01b610b6d565b61084567a3f5c255d67cc36460c01b610b6d565b60008054906101000a900473ffffffffffffffffffffffffffffffffffffffff1673ffffffffffffffffffffffffffffffffffffffff163373ffffffffffffffffffffffffffffffffffffffff16146108e9576040517f08c379a000000000000000000000000000000000000000000000000000000000815260040180806020018281038252602c815260200180610d4c602c913960400191505060405180910390fd5b6108fd67eac11ea12abcf59860c01b610b6d565b6109116792057f91aa5d96c960c01b610b6d565b610925678a63af5cb8a3f79c60c01b6107b8565b610939676598b80b54afdc5160c01b6107b8565b61094d67ef93835eacac185c60c01b6107b8565b61096167e414a8c47c82cfe160c01b6107b8565b60606109776774502289d71b0ce760c01b6107b8565b61098b67a95b6c2f179d571c60c01b6107b8565b60006109a167a757a69782eceed560c01b6107b8565b8673ffffffffffffffffffffffffffffffffffffffff1686868660405180838380828437808301925050509250505060006040518083038185875af1925050503d8060008114610a0d576040519150601f19603f3d011682016040523d82523d6000602084013e610a12565b606091505b508093508192505050610a2f673d0da100db52b18f60c01b6107b8565b610a4367995eab671c21703e60c01b6107b8565b610a5767998bc87c43b4a23d60c01b6107b8565b80610aca576040517f08c379a000000000000000000000000000000000000000000000000000000000815260040180806020018281038252601d8152602001807f4163636f756e743a207472616e73616374696f6e20726576657274656400000081525060200191505060405180910390fd5b610ade6798bf417d73919c8760c01b6107b8565b610af26799a21a792479403360c01b6107b8565b610b066738a58038f9ebb1bf60c01b6107b8565b8192505050949350505050565b600260009054906101000a900473ffffffffffffffffffffffffffffffffffffffff1681565b600060019050919050565b600160009054906101000a900473ffffffffffffffffffffffffffffffffffffffff1681565b50565b50565b6000919050565b610b8b6762ddd258e77e4f4e60c01b6107b8565b610b9f6784d0485b592a236360c01b610b6d565b610bb36732d9e05dbcd2297760c01b610b6d565b610bc7671853580eb63b1ec060c01b610b6d565b610bdb67a3f5c255d67cc36460c01b610b6d565b60008054906101000a900473ffffffffffffffffffffffffffffffffffffffff1673ffffffffffffffffffffffffffffffffffffffff163373ffffffffffffffffffffffffffffffffffffffff1614610c7f576040517f08c379a000000000000000000000000000000000000000000000000000000000815260040180806020018281038252602c815260200180610d4c602c913960400191505060405180910390fd5b610c9367eac11ea12abcf59860c01b610b6d565b610ca76792057f91aa5d96c960c01b610b6d565b610cbb6787a1956e91409be260c01b6107b8565b610ccf67a3446e657e0ae27560c01b6107b8565b610ce367e77ac8bbf78e87cf60c01b6107b8565b80600260006101000a81548173ffffffffffffffffffffffffffffffffffffffff021916908373ffffffffffffffffffffffffffffffffffffffff16021790555050565b60008054906101000a900473ffffffffffffffffffffffffffffffffffffffff168156fe436f6e74726f6c6c65643a206d73672e73656e646572206973206e6f742074686520636f6e74726f6c6c6572a164736f6c634300060c000a4163636f756e74436f6e74726f6c6c65723a2063616e6e6f7420736574206163636f756e7420496d706c656d656e746174696f6e20746f20307830506572736f6e616c4163636f756e7452656769737472793a2073656e646572206973206e6f7420746865206163636f756e74206f776e65724163636f756e74436f6e74726f6c6c65723a2063616e6e6f742073656e6420746f2073656c66506572736f6e616c4163636f756e7452656769737472793a206f776e657220646f65736e27742065786973744163636f756e74436f6e74726f6c6c65723a2063616e6e6f7420736574206163636f756e7420726567697374727920746f20307830496e697469616c697a61626c653a2074782e6f726967696e206973206e6f742074686520696e697469616c697a65724163636f756e74436f6e74726f6c6c65723a2063616e6e6f742073656e6420746f2030783047617465776179526563697069656e743a20696e76616c6964206d73672e646174614163636f756e74436f6e74726f6c6c65723a206163636f756e7420616c7265616479207570677261646564506572736f6e616c4163636f756e7452656769737472793a2063616e6e6f742072656d6f76652073656c66477561726465643a2074782e6f726967696e206973206e6f742074686520677561726469616e506572736f6e616c4163636f756e7452656769737472793a204552433230546f6b656e207472616e736665722072657665727465644163636f756e74436f6e74726f6c6c65723a2063616e6e6f742073656e6420746f20636f6e74726f6c6c6572506572736f6e616c4163636f756e7452656769737472793a206f776e657220616c726561647920657869737473506572736f6e616c4163636f756e7452656769737472793a2063616e6e6f742061646420307830206f776e6572a164736f6c634300060c000a",
  "linkReferences": {},
  "deployedLinkReferences": {}
}