{
  "_format": "hh-sol-artifact-1",
  "contractName": "PersonalAccountRegistry",
  "sourceName": "src/personal/PersonalAccountRegistry.sol",
  "abi": [
    {
      "inputs": [],
      "stateMutability": "nonpayable",
      "type": "constructor"
    },
    {
      "anonymous": false,
      "inputs": [
        {
          "indexed": false,
          "internalType": "address",
          "name": "account",
          "type": "address"
        },
        {
          "indexed": false,
          "internalType": "address",
          "name": "beneficiary",
          "type": "address"
        },
        {
          "indexed": false,
          "internalType": "address",
          "name": "token",
          "type": "address"
        },
        {
          "indexed": false,
          "internalType": "uint256",
          "name": "value",
          "type": "uint256"
        }
      ],
      "name": "AccountCallRefunded",
      "type": "event"
    },
    {
      "anonymous": false,
      "inputs": [
        {
          "indexed": false,
          "internalType": "address",
          "name": "account",
          "type": "address"
        },
        {
          "indexed": false,
          "internalType": "address",
          "name": "accountImplementation",
          "type": "address"
        }
      ],
      "name": "AccountDeployed",
      "type": "event"
    },
    {
      "anonymous": false,
      "inputs": [
        {
          "indexed": false,
          "internalType": "address",
          "name": "accountImplementation",
          "type": "address"
        }
      ],
      "name": "AccountImplementationUpdated",
      "type": "event"
    },
    {
      "anonymous": false,
      "inputs": [
        {
          "indexed": false,
          "internalType": "address",
          "name": "account",
          "type": "address"
        },
        {
          "indexed": false,
          "internalType": "address",
          "name": "owner",
          "type": "address"
        }
      ],
      "name": "AccountOwnerAdded",
      "type": "event"
    },
    {
      "anonymous": false,
      "inputs": [
        {
          "indexed": false,
          "internalType": "address",
          "name": "account",
          "type": "address"
        },
        {
          "indexed": false,
          "internalType": "address",
          "name": "owner",
          "type": "address"
        }
      ],
      "name": "AccountOwnerRemoved",
      "type": "event"
    },
    {
      "anonymous": false,
      "inputs": [
        {
          "indexed": false,
          "internalType": "address",
          "name": "accountRegistry",
          "type": "address"
        }
      ],
      "name": "AccountRegistryUpdated",
      "type": "event"
    },
    {
      "anonymous": false,
      "inputs": [
        {
          "indexed": false,
          "internalType": "address",
          "name": "account",
          "type": "address"
        },
        {
          "indexed": false,
          "internalType": "address",
          "name": "to",
          "type": "address"
        },
        {
          "indexed": false,
          "internalType": "uint256",
          "name": "value",
          "type": "uint256"
        },
        {
          "indexed": false,
          "internalType": "bytes",
          "name": "data",
          "type": "bytes"
        },
        {
          "indexed": false,
          "internalType": "bytes",
          "name": "response",
          "type": "bytes"
        }
      ],
      "name": "AccountTransactionExecuted",
      "type": "event"
    },
    {
      "anonymous": false,
      "inputs": [
        {
          "indexed": false,
          "internalType": "address",
          "name": "account",
          "type": "address"
        },
        {
          "indexed": false,
          "internalType": "address",
          "name": "accountImplementation",
          "type": "address"
        }
      ],
      "name": "AccountUpgraded",
      "type": "event"
    },
    {
      "anonymous": false,
      "inputs": [
        {
          "indexed": false,
          "internalType": "address",
          "name": "sender",
          "type": "address"
        },
        {
          "indexed": false,
          "internalType": "address",
          "name": "guardian",
          "type": "address"
        }
      ],
      "name": "GuardianAdded",
      "type": "event"
    },
    {
      "anonymous": false,
      "inputs": [
        {
          "indexed": false,
          "internalType": "address",
          "name": "sender",
          "type": "address"
        },
        {
          "indexed": false,
          "internalType": "address",
          "name": "guardian",
          "type": "address"
        }
      ],
      "name": "GuardianRemoved",
      "type": "event"
    },
    {
      "anonymous": false,
      "inputs": [
        {
          "indexed": false,
          "internalType": "address",
          "name": "initializer",
          "type": "address"
        }
      ],
      "name": "Initialized",
      "type": "event"
    },
    {
      "inputs": [],
      "name": "accountImplementation",
      "outputs": [
        {
          "internalType": "address",
          "name": "",
          "type": "address"
        }
      ],
      "stateMutability": "view",
      "type": "function"
    },
    {
      "inputs": [],
      "name": "accountRegistry",
      "outputs": [
        {
          "internalType": "address",
          "name": "",
          "type": "address"
        }
      ],
      "stateMutability": "view",
      "type": "function"
    },
    {
      "inputs": [
        {
          "internalType": "address",
          "name": "account",
          "type": "address"
        },
        {
          "internalType": "address",
          "name": "owner",
          "type": "address"
        }
      ],
      "name": "addAccountOwner",
      "outputs": [],
      "stateMutability": "nonpayable",
      "type": "function"
    },
    {
      "inputs": [
        {
          "internalType": "address",
          "name": "guardian",
          "type": "address"
        }
      ],
      "name": "addGuardian",
      "outputs": [],
      "stateMutability": "nonpayable",
      "type": "function"
    },
    {
      "inputs": [
        {
          "internalType": "bytes8",
          "name": "c__0ffe16b4",
          "type": "bytes8"
        }
      ],
      "name": "c_0ffe16b4",
      "outputs": [],
      "stateMutability": "pure",
      "type": "function"
    },
    {
      "inputs": [
        {
          "internalType": "bytes8",
          "name": "c__19d98a43",
          "type": "bytes8"
        }
      ],
      "name": "c_19d98a43",
      "outputs": [],
      "stateMutability": "pure",
      "type": "function"
    },
    {
      "inputs": [
        {
          "internalType": "bytes8",
          "name": "c__203cf0ac",
          "type": "bytes8"
        }
      ],
      "name": "c_203cf0ac",
      "outputs": [],
      "stateMutability": "pure",
      "type": "function"
    },
    {
      "inputs": [
        {
          "internalType": "bytes8",
          "name": "c__9b6befd1",
          "type": "bytes8"
        }
      ],
      "name": "c_9b6befd1",
      "outputs": [],
      "stateMutability": "pure",
      "type": "function"
    },
    {
      "inputs": [
        {
          "internalType": "bytes8",
          "name": "c__c0828b70",
          "type": "bytes8"
        }
      ],
      "name": "c_c0828b70",
      "outputs": [],
      "stateMutability": "pure",
      "type": "function"
    },
    {
      "inputs": [
        {
          "internalType": "bytes8",
          "name": "c__d5c463c2",
          "type": "bytes8"
        }
      ],
      "name": "c_d5c463c2",
      "outputs": [],
      "stateMutability": "pure",
      "type": "function"
    },
    {
      "inputs": [
        {
          "internalType": "bytes8",
          "name": "c__0ffe16b4",
          "type": "bytes8"
        }
      ],
      "name": "c_false0ffe16b4",
      "outputs": [
        {
          "internalType": "bool",
          "name": "",
          "type": "bool"
        }
      ],
      "stateMutability": "pure",
      "type": "function"
    },
    {
      "inputs": [
        {
          "internalType": "bytes8",
          "name": "c__19d98a43",
          "type": "bytes8"
        }
      ],
      "name": "c_false19d98a43",
      "outputs": [
        {
          "internalType": "bool",
          "name": "",
          "type": "bool"
        }
      ],
      "stateMutability": "pure",
      "type": "function"
    },
    {
      "inputs": [
        {
          "internalType": "bytes8",
          "name": "c__203cf0ac",
          "type": "bytes8"
        }
      ],
      "name": "c_false203cf0ac",
      "outputs": [
        {
          "internalType": "bool",
          "name": "",
          "type": "bool"
        }
      ],
      "stateMutability": "pure",
      "type": "function"
    },
    {
      "inputs": [
        {
          "internalType": "bytes8",
          "name": "c__9b6befd1",
          "type": "bytes8"
        }
      ],
      "name": "c_false9b6befd1",
      "outputs": [
        {
          "internalType": "bool",
          "name": "",
          "type": "bool"
        }
      ],
      "stateMutability": "pure",
      "type": "function"
    },
    {
      "inputs": [
        {
          "internalType": "bytes8",
          "name": "c__c0828b70",
          "type": "bytes8"
        }
      ],
      "name": "c_falsec0828b70",
      "outputs": [
        {
          "internalType": "bool",
          "name": "",
          "type": "bool"
        }
      ],
      "stateMutability": "pure",
      "type": "function"
    },
    {
      "inputs": [
        {
          "internalType": "bytes8",
          "name": "c__d5c463c2",
          "type": "bytes8"
        }
      ],
      "name": "c_falsed5c463c2",
      "outputs": [
        {
          "internalType": "bool",
          "name": "",
          "type": "bool"
        }
      ],
      "stateMutability": "pure",
      "type": "function"
    },
    {
      "inputs": [
        {
          "internalType": "bytes8",
          "name": "c__0ffe16b4",
          "type": "bytes8"
        }
      ],
      "name": "c_true0ffe16b4",
      "outputs": [
        {
          "internalType": "bool",
          "name": "",
          "type": "bool"
        }
      ],
      "stateMutability": "pure",
      "type": "function"
    },
    {
      "inputs": [
        {
          "internalType": "bytes8",
          "name": "c__19d98a43",
          "type": "bytes8"
        }
      ],
      "name": "c_true19d98a43",
      "outputs": [
        {
          "internalType": "bool",
          "name": "",
          "type": "bool"
        }
      ],
      "stateMutability": "pure",
      "type": "function"
    },
    {
      "inputs": [
        {
          "internalType": "bytes8",
          "name": "c__203cf0ac",
          "type": "bytes8"
        }
      ],
      "name": "c_true203cf0ac",
      "outputs": [
        {
          "internalType": "bool",
          "name": "",
          "type": "bool"
        }
      ],
      "stateMutability": "pure",
      "type": "function"
    },
    {
      "inputs": [
        {
          "internalType": "bytes8",
          "name": "c__9b6befd1",
          "type": "bytes8"
        }
      ],
      "name": "c_true9b6befd1",
      "outputs": [
        {
          "internalType": "bool",
          "name": "",
          "type": "bool"
        }
      ],
      "stateMutability": "pure",
      "type": "function"
    },
    {
      "inputs": [
        {
          "internalType": "bytes8",
          "name": "c__c0828b70",
          "type": "bytes8"
        }
      ],
      "name": "c_truec0828b70",
      "outputs": [
        {
          "internalType": "bool",
          "name": "",
          "type": "bool"
        }
      ],
      "stateMutability": "pure",
      "type": "function"
    },
    {
      "inputs": [
        {
          "internalType": "bytes8",
          "name": "c__d5c463c2",
          "type": "bytes8"
        }
      ],
      "name": "c_trued5c463c2",
      "outputs": [
        {
          "internalType": "bool",
          "name": "",
          "type": "bool"
        }
      ],
      "stateMutability": "pure",
      "type": "function"
    },
    {
      "inputs": [
        {
          "internalType": "address",
          "name": "saltOwner",
          "type": "address"
        }
      ],
      "name": "computeAccountAddress",
      "outputs": [
        {
          "internalType": "address",
          "name": "",
          "type": "address"
        }
      ],
      "stateMutability": "view",
      "type": "function"
    },
    {
      "inputs": [
        {
          "internalType": "address",
          "name": "account",
          "type": "address"
        }
      ],
      "name": "deployAccount",
      "outputs": [],
      "stateMutability": "nonpayable",
      "type": "function"
    },
    {
      "inputs": [
        {
          "internalType": "address",
          "name": "account",
          "type": "address"
        },
        {
          "internalType": "address",
          "name": "to",
          "type": "address"
        },
        {
          "internalType": "uint256",
          "name": "value",
          "type": "uint256"
        },
        {
          "internalType": "bytes",
          "name": "data",
          "type": "bytes"
        }
      ],
      "name": "executeAccountTransaction",
      "outputs": [],
      "stateMutability": "nonpayable",
      "type": "function"
    },
    {
      "inputs": [],
      "name": "gateway",
      "outputs": [
        {
          "internalType": "address",
          "name": "",
          "type": "address"
        }
      ],
      "stateMutability": "view",
      "type": "function"
    },
    {
      "inputs": [
        {
          "internalType": "address[]",
          "name": "guardians_",
          "type": "address[]"
        },
        {
          "internalType": "address",
          "name": "accountImplementation_",
          "type": "address"
        },
        {
          "internalType": "address",
          "name": "gateway_",
          "type": "address"
        }
      ],
      "name": "initialize",
      "outputs": [],
      "stateMutability": "nonpayable",
      "type": "function"
    },
    {
      "inputs": [
        {
          "internalType": "address",
          "name": "account",
          "type": "address"
        }
      ],
      "name": "isAccountDeployed",
      "outputs": [
        {
          "internalType": "bool",
          "name": "",
          "type": "bool"
        }
      ],
      "stateMutability": "view",
      "type": "function"
    },
    {
      "inputs": [
        {
          "internalType": "address",
          "name": "guardian",
          "type": "address"
        }
      ],
      "name": "isGuardian",
      "outputs": [
        {
          "internalType": "bool",
          "name": "",
          "type": "bool"
        }
      ],
      "stateMutability": "view",
      "type": "function"
    },
    {
      "inputs": [],
      "name": "isInitialized",
      "outputs": [
        {
          "internalType": "bool",
          "name": "",
          "type": "bool"
        }
      ],
      "stateMutability": "view",
      "type": "function"
    },
    {
      "inputs": [
        {
          "internalType": "address",
          "name": "account",
          "type": "address"
        },
        {
          "internalType": "bytes",
          "name": "message",
          "type": "bytes"
        },
        {
          "internalType": "bytes",
          "name": "signature",
          "type": "bytes"
        }
      ],
      "name": "isValidAccountSignature",
      "outputs": [
        {
          "internalType": "bool",
          "name": "",
          "type": "bool"
        }
      ],
      "stateMutability": "view",
      "type": "function"
    },
    {
      "inputs": [
        {
          "internalType": "address",
          "name": "account",
          "type": "address"
        },
        {
          "internalType": "bytes32",
          "name": "messageHash",
          "type": "bytes32"
        },
        {
          "internalType": "bytes",
          "name": "signature",
          "type": "bytes"
        }
      ],
      "name": "isValidAccountSignature",
      "outputs": [
        {
          "internalType": "bool",
          "name": "",
          "type": "bool"
        }
      ],
      "stateMutability": "view",
      "type": "function"
    },
    {
      "inputs": [
        {
          "internalType": "address",
          "name": "account",
          "type": "address"
        },
        {
          "internalType": "address",
          "name": "token",
          "type": "address"
        },
        {
          "internalType": "uint256",
          "name": "value",
          "type": "uint256"
        }
      ],
      "name": "refundAccountCall",
      "outputs": [],
      "stateMutability": "nonpayable",
      "type": "function"
    },
    {
      "inputs": [
        {
          "internalType": "address",
          "name": "account",
          "type": "address"
        },
        {
          "internalType": "address",
          "name": "owner",
          "type": "address"
        }
      ],
      "name": "removeAccountOwner",
      "outputs": [],
      "stateMutability": "nonpayable",
      "type": "function"
    },
    {
      "inputs": [
        {
          "internalType": "address",
          "name": "guardian",
          "type": "address"
        }
      ],
      "name": "removeGuardian",
      "outputs": [],
      "stateMutability": "nonpayable",
      "type": "function"
    },
    {
      "inputs": [
        {
          "internalType": "address",
          "name": "accountImplementation_",
          "type": "address"
        }
      ],
      "name": "upgrade",
      "outputs": [],
      "stateMutability": "nonpayable",
      "type": "function"
    },
    {
      "inputs": [
        {
          "internalType": "address",
          "name": "account",
          "type": "address"
        }
      ],
      "name": "upgradeAccount",
      "outputs": [],
      "stateMutability": "nonpayable",
      "type": "function"
    },
    {
      "inputs": [
        {
          "internalType": "address",
          "name": "account",
          "type": "address"
        },
        {
          "internalType": "address",
          "name": "owner",
          "type": "address"
        }
      ],
      "name": "verifyAccountOwner",
      "outputs": [
        {
          "internalType": "bool",
          "name": "",
          "type": "bool"
        }
      ],
      "stateMutability": "view",
      "type": "function"
    },
    {
      "inputs": [
        {
          "internalType": "address",
          "name": "account",
          "type": "address"
        },
        {
          "internalType": "address",
          "name": "owner",
          "type": "address"
        },
        {
          "internalType": "uint256",
          "name": "blockNumber",
          "type": "uint256"
        }
      ],
      "name": "verifyAccountOwnerAtBlock",
      "outputs": [
        {
          "internalType": "bool",
          "name": "",
          "type": "bool"
        }
      ],
      "stateMutability": "view",
      "type": "function"
    },
    {
      "inputs": [
        {
          "internalType": "bytes32",
          "name": "messageHash",
          "type": "bytes32"
        },
        {
          "internalType": "bytes",
          "name": "signature",
          "type": "bytes"
        }
      ],
      "name": "verifyGuardianSignature",
      "outputs": [
        {
          "internalType": "bool",
          "name": "",
          "type": "bool"
        }
      ],
      "stateMutability": "view",
      "type": "function"
    }
  ],
  "bytecode": "0x60806040523480156200001157600080fd5b506200002e67cac0dc68f7cb855960c01b6200010160201b60201c565b6200004a67ed35f7a3189875fb60c01b6200010460201b60201c565b6200006667a79944efae3efdb160c01b6200010760201b60201c565b62000082676842a75f5077f4b960c01b6200010760201b60201c565b32600360006101000a81548173ffffffffffffffffffffffffffffffffffffffff021916908373ffffffffffffffffffffffffffffffffffffffff160217905550620000df6789a8def7746ca9f960c01b6200010a60201b60201c565b620000fb67c080ceb8d92bf52e60c01b6200010d60201b60201c565b62000110565b50565b50565b50565b50565b50565b617d4b80620001206000396000f3fe60806040523480156200001157600080fd5b5060043610620002805760003560e01c80635967b7ac1162000159578063cade6a5d11620000c9578063da9fc1ae1162000087578063da9fc1ae1462000fd0578063db63f5821462001017578063e1e382ce146200107e578063e5c7278f146200113d578063f4876c7414620012065762000280565b8063cade6a5d1462000ddc578063d089e11a1462000e4d578063d0f710d61462000e83578063d53641231462000f22578063d628d0861462000f845762000280565b8063a4db4b6b1162000117578063a4db4b6b1462000bf2578063a526d83b1462000c54578063bb890d3f1462000c9b578063c1cad69e1462000d18578063c369d5fe1462000d7a5762000280565b80635967b7ac14620009dc578063714041561462000a3e5780637663f44c1462000a8557806390482d721462000ad1578063a23441e71462000b905762000280565b80631a84140311620001f557806334d323a411620001b357806334d323a4146200083e578063392e53cd14620008c557806343013c2414620008e75780634623ec77146200092e5780635405622e14620009905762000280565b80631a841403146200064a5780631dccb78714620006bb57806321a5f5da146200071d5780632e6afd6e146200077f5780633164b5e114620007e15762000280565b806311464fbe116200024357806311464fbe1462000423578063116191b61462000459578063124e9eb3146200048f5780631262ed1c146200059c5780631812164614620005fe5762000280565b806301883a24146200028557806305ae19e614620002d15780630900f01014620003335780630c4b1a17146200037a5780630c68ba2114620003c6575b600080fd5b620002cf600480360360208110156200029d57600080fd5b81019080803577ffffffffffffffffffffffffffffffffffffffffffffffff191690602001909291905050506200126d565b005b6200031b60048036036020811015620002e957600080fd5b81019080803577ffffffffffffffffffffffffffffffffffffffffffffffff1916906020019092919050505062001270565b60405180821515815260200191505060405180910390f35b62000378600480360360208110156200034b57600080fd5b81019080803573ffffffffffffffffffffffffffffffffffffffff1690602001909291905050506200127b565b005b620003c4600480360360208110156200039257600080fd5b81019080803577ffffffffffffffffffffffffffffffffffffffffffffffff1916906020019092919050505062001420565b005b6200040b60048036036020811015620003de57600080fd5b81019080803573ffffffffffffffffffffffffffffffffffffffff16906020019092919050505062001423565b60405180821515815260200191505060405180910390f35b6200042d620014ba565b604051808273ffffffffffffffffffffffffffffffffffffffff16815260200191505060405180910390f35b62000463620014e0565b604051808273ffffffffffffffffffffffffffffffffffffffff16815260200191505060405180910390f35b6200058460048036036060811015620004a757600080fd5b81019080803573ffffffffffffffffffffffffffffffffffffffff16906020019092919080359060200190640100000000811115620004e557600080fd5b820183602082011115620004f857600080fd5b803590602001918460018302840111640100000000831117156200051b57600080fd5b9091929391929390803590602001906401000000008111156200053d57600080fd5b8201836020820111156200055057600080fd5b803590602001918460018302840111640100000000831117156200057357600080fd5b909192939192939050505062001506565b60405180821515815260200191505060405180910390f35b620005e660048036036020811015620005b457600080fd5b81019080803577ffffffffffffffffffffffffffffffffffffffffffffffff1916906020019092919050505062001607565b60405180821515815260200191505060405180910390f35b62000648600480360360208110156200061657600080fd5b81019080803577ffffffffffffffffffffffffffffffffffffffffffffffff1916906020019092919050505062001612565b005b620006b9600480360360608110156200066257600080fd5b81019080803573ffffffffffffffffffffffffffffffffffffffff169060200190929190803573ffffffffffffffffffffffffffffffffffffffff1690602001909291908035906020019092919050505062001615565b005b6200070560048036036020811015620006d357600080fd5b81019080803577ffffffffffffffffffffffffffffffffffffffffffffffff1916906020019092919050505062001a8f565b60405180821515815260200191505060405180910390f35b62000767600480360360208110156200073557600080fd5b81019080803577ffffffffffffffffffffffffffffffffffffffffffffffff1916906020019092919050505062001a96565b60405180821515815260200191505060405180910390f35b620007c9600480360360208110156200079757600080fd5b81019080803577ffffffffffffffffffffffffffffffffffffffffffffffff1916906020019092919050505062001aa1565b60405180821515815260200191505060405180910390f35b6200082660048036036020811015620007f957600080fd5b81019080803573ffffffffffffffffffffffffffffffffffffffff16906020019092919050505062001aa8565b60405180821515815260200191505060405180910390f35b620008ad600480360360608110156200085657600080fd5b81019080803573ffffffffffffffffffffffffffffffffffffffff169060200190929190803573ffffffffffffffffffffffffffffffffffffffff1690602001909291908035906020019092919050505062001b43565b60405180821515815260200191505060405180910390f35b620008cf62001d26565b60405180821515815260200191505060405180910390f35b6200092c60048036036020811015620008ff57600080fd5b81019080803573ffffffffffffffffffffffffffffffffffffffff16906020019092919050505062001dc1565b005b62000978600480360360208110156200094657600080fd5b81019080803577ffffffffffffffffffffffffffffffffffffffffffffffff1916906020019092919050505062001e4b565b60405180821515815260200191505060405180910390f35b620009da60048036036020811015620009a857600080fd5b81019080803577ffffffffffffffffffffffffffffffffffffffffffffffff1916906020019092919050505062001e56565b005b62000a2660048036036020811015620009f457600080fd5b81019080803577ffffffffffffffffffffffffffffffffffffffffffffffff1916906020019092919050505062001e59565b60405180821515815260200191505060405180910390f35b62000a836004803603602081101562000a5657600080fd5b81019080803573ffffffffffffffffffffffffffffffffffffffff16906020019092919050505062001e60565b005b62000acf6004803603602081101562000a9d57600080fd5b81019080803577ffffffffffffffffffffffffffffffffffffffffffffffff19169060200190929190505050620022e2565b005b62000b8e6004803603606081101562000ae957600080fd5b810190808035906020019064010000000081111562000b0757600080fd5b82018360208201111562000b1a57600080fd5b8035906020019184602083028401116401000000008311171562000b3d57600080fd5b9091929391929390803573ffffffffffffffffffffffffffffffffffffffff169060200190929190803573ffffffffffffffffffffffffffffffffffffffff169060200190929190505050620022e5565b005b62000bda6004803603602081101562000ba857600080fd5b81019080803577ffffffffffffffffffffffffffffffffffffffffffffffff1916906020019092919050505062002611565b60405180821515815260200191505060405180910390f35b62000c3c6004803603602081101562000c0a57600080fd5b81019080803577ffffffffffffffffffffffffffffffffffffffffffffffff1916906020019092919050505062002618565b60405180821515815260200191505060405180910390f35b62000c996004803603602081101562000c6c57600080fd5b81019080803573ffffffffffffffffffffffffffffffffffffffff16906020019092919050505062002623565b005b62000d006004803603604081101562000cb357600080fd5b81019080803573ffffffffffffffffffffffffffffffffffffffff169060200190929190803573ffffffffffffffffffffffffffffffffffffffff169060200190929190505050620027c6565b60405180821515815260200191505060405180910390f35b62000d626004803603602081101562000d3057600080fd5b81019080803577ffffffffffffffffffffffffffffffffffffffffffffffff191690602001909291905050506200281e565b60405180821515815260200191505060405180910390f35b62000dc46004803603602081101562000d9257600080fd5b81019080803577ffffffffffffffffffffffffffffffffffffffffffffffff1916906020019092919050505062002825565b60405180821515815260200191505060405180910390f35b62000e216004803603602081101562000df457600080fd5b81019080803573ffffffffffffffffffffffffffffffffffffffff1690602001909291905050506200282c565b604051808273ffffffffffffffffffffffffffffffffffffffff16815260200191505060405180910390f35b62000e5762002882565b604051808273ffffffffffffffffffffffffffffffffffffffff16815260200191505060405180910390f35b62000f0a6004803603604081101562000e9b57600080fd5b81019080803590602001909291908035906020019064010000000081111562000ec357600080fd5b82018360208201111562000ed657600080fd5b8035906020019184600183028401116401000000008311171562000ef957600080fd5b9091929391929390505050620028a8565b60405180821515815260200191505060405180910390f35b62000f6c6004803603602081101562000f3a57600080fd5b81019080803577ffffffffffffffffffffffffffffffffffffffffffffffff1916906020019092919050505062002945565b60405180821515815260200191505060405180910390f35b62000fce6004803603602081101562000f9c57600080fd5b81019080803577ffffffffffffffffffffffffffffffffffffffffffffffff1916906020019092919050505062002950565b005b620010156004803603602081101562000fe857600080fd5b81019080803573ffffffffffffffffffffffffffffffffffffffff16906020019092919050505062002953565b005b6200107c600480360360408110156200102f57600080fd5b81019080803573ffffffffffffffffffffffffffffffffffffffff169060200190929190803573ffffffffffffffffffffffffffffffffffffffff169060200190929190505050620029db565b005b62001125600480360360608110156200109657600080fd5b81019080803573ffffffffffffffffffffffffffffffffffffffff1690602001909291908035906020019092919080359060200190640100000000811115620010de57600080fd5b820183602082011115620010f157600080fd5b803590602001918460018302840111640100000000831117156200111457600080fd5b909192939192939050505062002dac565b60405180821515815260200191505060405180910390f35b62001204600480360360808110156200115557600080fd5b81019080803573ffffffffffffffffffffffffffffffffffffffff169060200190929190803573ffffffffffffffffffffffffffffffffffffffff1690602001909291908035906020019092919080359060200190640100000000811115620011bd57600080fd5b820183602082011115620011d057600080fd5b80359060200191846001830284011164010000000083111715620011f357600080fd5b909192939192939050505062002e5e565b005b6200126b600480360360408110156200121e57600080fd5b81019080803573ffffffffffffffffffffffffffffffffffffffff169060200190929190803573ffffffffffffffffffffffffffffffffffffffff16906020019092919050505062002f6b565b005b50565b600060019050919050565b62001291678bfefe38b79760f960c01b6200126d565b620012a7673140390e5e09720560c01b62001e56565b620012bd679a930a1e29b657f960c01b62001e56565b620012d36713d0baae263dfefa60c01b62001e56565b620012e96738eceab2adca511260c01b62001e56565b6000803273ffffffffffffffffffffffffffffffffffffffff1673ffffffffffffffffffffffffffffffffffffffff16815260200190815260200160002060009054906101000a900460ff166200138c576040517f08c379a000000000000000000000000000000000000000000000000000000000815260040180806020018281038252602681526020018062007c5e6026913960400191505060405180910390fd5b620013a267ca80fb733a0cf30e60c01b62001e56565b620013b867595eae6a0eab3fd360c01b62001e56565b620013ce671394e4f02d9c30f260c01b6200126d565b620013e467b6f982c1c6d1289760c01b6200126d565b620013fa67f8a2545a499f390760c01b6200126d565b6200141067f45357fabdb931f560c01b6200126d565b6200141d816001620033ec565b50565b50565b60006200143b677440efdd3ec50f3960c01b62001e56565b6200145167be7fafe5532c86cd60c01b62001e56565b6200146767ad3a056851daffa960c01b62001e56565b6000808373ffffffffffffffffffffffffffffffffffffffff1673ffffffffffffffffffffffffffffffffffffffff16815260200190815260200160002060009054906101000a900460ff169050919050565b600260009054906101000a900473ffffffffffffffffffffffffffffffffffffffff1681565b600460009054906101000a900473ffffffffffffffffffffffffffffffffffffffff1681565b60006200151e675e93b77815f10d1960c01b6200126d565b6200153467ae204f9f2025a22660c01b6200126d565b6200154a674cbcb366ec48de9960c01b6200126d565b620015fc86620015f685858080601f016020809104026020016040519081016040528093929190818152602001838380828437600081840152601f19601f82011690508083019250505050505050620015e789898080601f016020809104026020016040519081016040528093929190818152602001838380828437600081840152601f19601f820116905080830192505050505050506200363e565b620037f190919063ffffffff16565b62003b50565b905095945050505050565b600060019050919050565b50565b6200162b672cbfd2b4012ac7d160c01b6200126d565b6200164167809d15e492ee6a9460c01b6200126d565b620016576773bd8b27db5b3e6360c01b6200126d565b620016628362003e47565b506200167967eec3f19a95faa3a060c01b6200126d565b6200168f67d744c292d34ce72a60c01b6200126d565b6200169a83620044ed565b620016b067851dacaf946e594c60c01b6200126d565b620016c667e7f33a337e8af6b360c01b6200126d565b600073ffffffffffffffffffffffffffffffffffffffff168273ffffffffffffffffffffffffffffffffffffffff161415620017a157620017126715cfe61e7ef781cc60c01b6200126d565b6200172867a26ec8c0a871398560c01b6200126d565b6200173d6659aafa856bc7b760c01b6200126d565b6200179a833283600067ffffffffffffffff811180156200175d57600080fd5b506040519080825280601f01601f191660200182016040528015620017915781602001600182028036833780820191505090505b506000620046a7565b50620019cd565b620017b7677de8979f5dfd952e60c01b6200126d565b620017cd67ab3c890a80f94edc60c01b6200126d565b620017e367accd76e89407b45860c01b6200126d565b6060620018898484600063a9059cbb60e01b3287604051602401808373ffffffffffffffffffffffffffffffffffffffff16815260200182815260200192505050604051602081830303815290604052907bffffffffffffffffffffffffffffffffffffffffffffffffffffffff19166020820180517bffffffffffffffffffffffffffffffffffffffffffffffffffffffff83818316178352505050506000620046a7565b9050620018a16741088391311e3d8160c01b6200126d565b620018b767b7240f2ccf68381960c01b6200126d565b600081511115620019b457620018d867027916992434c2d560c01b6200126d565b620018ee678f1618c57b7b87aa60c01b6200126d565b62001904676407171870e3444960c01b6200126d565b6200191a67e4f8cc0097e01d8260c01b6200126d565b8080602001905160208110156200193057600080fd5b810190808051906020019092919050505062001998576040517f08c379a000000000000000000000000000000000000000000000000000000000815260040180806020018281038252603581526020018062007c846035913960400191505060405180910390fd5b620019ae6797be4eaa4d5d949760c01b6200126d565b620019cb565b620019ca67ad0768e8e553792560c01b6200126d565b5b505b620019e367eac0739c9785794860c01b6200126d565b620019f9676834045ff20bd2e160c01b6200126d565b7feb5511fbef89123439f12682f0e9d0fc9696913b26eee55434c77d62c30aa7ca83328484604051808573ffffffffffffffffffffffffffffffffffffffff1681526020018473ffffffffffffffffffffffffffffffffffffffff1681526020018373ffffffffffffffffffffffffffffffffffffffff16815260200182815260200194505050505060405180910390a1505050565b6000919050565b600060019050919050565b6000919050565b600062001ac0675a78583862dd6df560c01b6200126d565b62001ad66729abcbac79e6bfd960c01b6200126d565b62001aec67fdc90e040021bd2c60c01b6200126d565b600560008373ffffffffffffffffffffffffffffffffffffffff1673ffffffffffffffffffffffffffffffffffffffff16815260200190815260200160002060000160009054906101000a900460ff169050919050565b600062001b5b6704873f0ac6af520b60c01b6200126d565b62001b7167be4e61f900d6790360c01b6200126d565b62001b87678a31962eba6a76ac60c01b6200126d565b600062001b9f67125e9f08e3d3a94860c01b6200126d565b62001bb5676e838cb692a5556a60c01b6200126d565b62001bc1858562003b50565b1562001bfd5762001bdd679707f16c0604407760c01b6200126d565b62001bf3671144beaea99d3df460c01b6200126d565b6001905062001cef565b62001c1367af079d8c38d5e07260c01b6200126d565b62001c2967cb59b96fdcbbf81c60c01b6200126d565b62001cec83600560008873ffffffffffffffffffffffffffffffffffffffff1673ffffffffffffffffffffffffffffffffffffffff16815260200190815260200160002060020160008773ffffffffffffffffffffffffffffffffffffffff1673ffffffffffffffffffffffffffffffffffffffff1681526020019081526020016000206040518060400160405290816000820160009054906101000a900460ff1615151515815260200160018201548152505062004d8e90919063ffffffff16565b90505b62001d05675c6727d9d43d81ba60c01b6200126d565b62001d1b675c2259ce31eabb8660c01b6200126d565b809150509392505050565b600062001d3e675611340c75798f9d60c01b62001612565b62001d54672f64a7e0e1844bee60c01b62001612565b62001d6a677c1a6d31ef190d7560c01b62001612565b600073ffffffffffffffffffffffffffffffffffffffff16600360009054906101000a900473ffffffffffffffffffffffffffffffffffffffff1673ffffffffffffffffffffffffffffffffffffffff1614905090565b62001dd767b5638b4311418cd260c01b6200126d565b62001ded67b603bcde7cc8ec5d60c01b6200126d565b62001e0367045a4f7481335d7e60c01b6200126d565b62001e0e8162003e47565b5062001e25671d7db9a8b726dde160c01b6200126d565b62001e3b676eedba26dd2d1a4460c01b6200126d565b62001e4881600162004f87565b50565b600060019050919050565b50565b6000919050565b62001e7667f9644ff5e35fcd5560c01b62001e56565b62001e8c673140390e5e09720560c01b62001e56565b62001ea2679a930a1e29b657f960c01b62001e56565b62001eb86713d0baae263dfefa60c01b62001e56565b62001ece6738eceab2adca511260c01b62001e56565b6000803273ffffffffffffffffffffffffffffffffffffffff1673ffffffffffffffffffffffffffffffffffffffff16815260200190815260200160002060009054906101000a900460ff1662001f71576040517f08c379a000000000000000000000000000000000000000000000000000000000815260040180806020018281038252602681526020018062007c5e6026913960400191505060405180910390fd5b62001f8767ca80fb733a0cf30e60c01b62001e56565b62001f9d67595eae6a0eab3fd360c01b62001e56565b62001fb36784de5589af77308860c01b62001e56565b62001fc967a7bc68185a734e0e60c01b62001e56565b62001fdf676dd563da51888dfa60c01b62001e56565b62001ff5673ebb9819b4252d2d60c01b62001e56565b6200200b6753782ccab7c6c9bc60c01b62001e56565b8073ffffffffffffffffffffffffffffffffffffffff163273ffffffffffffffffffffffffffffffffffffffff161415620020ae576040517f08c379a000000000000000000000000000000000000000000000000000000000815260040180806020018281038252601b8152602001807f477561726465643a2063616e6e6f742072656d6f76652073656c66000000000081525060200191505060405180910390fd5b620020c46727a162bfc3f5a9e460c01b62001e56565b620020da6710353db3bff3c4b160c01b62001e56565b620020f067672993dda327b98560c01b62001e56565b62002106677ac342f4f0a6362a60c01b62001e56565b6000808273ffffffffffffffffffffffffffffffffffffffff1673ffffffffffffffffffffffffffffffffffffffff16815260200190815260200160002060009054906101000a900460ff16620021c5576040517f08c379a000000000000000000000000000000000000000000000000000000000815260040180806020018281038252601f8152602001807f477561726465643a20677561726469616e20646f65736e27742065786973740081525060200191505060405180910390fd5b620021db67ebaa7d6908ea52ea60c01b62001e56565b620021f16702e2ed9df6733c7f60c01b62001e56565b60008060008373ffffffffffffffffffffffffffffffffffffffff1673ffffffffffffffffffffffffffffffffffffffff16815260200190815260200160002060006101000a81548160ff0219169083151502179055506200225e67f54cd4685571295c60c01b62001e56565b62002274676f0cfcbd11656ced60c01b62001e56565b7fee943cdb81826d5909c559c6b1ae6908fcaf2dbc16c4b730346736b486283e8b3282604051808373ffffffffffffffffffffffffffffffffffffffff1681526020018273ffffffffffffffffffffffffffffffffffffffff1681526020019250505060405180910390a150565b50565b620022fb67a1be04dd7e815d2460c01b6200126d565b62002311672d06730e86d3c85660c01b62001612565b6200232767d597201330834cbf60c01b62001612565b6200233d675505e0a48812ca6460c01b62001612565b6200235367c60476dd5e6a171060c01b62001612565b600360009054906101000a900473ffffffffffffffffffffffffffffffffffffffff1673ffffffffffffffffffffffffffffffffffffffff163273ffffffffffffffffffffffffffffffffffffffff1614620023fb576040517f08c379a000000000000000000000000000000000000000000000000000000000815260040180806020018281038252602f81526020018062007b92602f913960400191505060405180910390fd5b6200241167a668ad6df6cee05760c01b62001612565b620024276767fae2475bebd9d260c01b62001612565b6000600360006101000a81548173ffffffffffffffffffffffffffffffffffffffff021916908373ffffffffffffffffffffffffffffffffffffffff1602179055506200247f6750e66fb25893dbc160c01b62001612565b620024956730c6b18bbdcb6b2f60c01b6200126d565b620024ab675e11cac75e2c9d8060c01b6200126d565b620024c167fdb92870d459409e60c01b6200126d565b620024d76790dd8b2dea64cb7660c01b6200126d565b62002523848480806020026020016040519081016040528093929190818152602001838360200280828437600081840152601f19601f8201169050808301925050505050505062005315565b62002539672fe2bc14186412bd60c01b6200126d565b6200254f67db02bd19784a972f60c01b6200126d565b6200255b308362005494565b62002571674d4aaf323275279260c01b6200126d565b62002587672f195a9b13a7f8d560c01b6200126d565b620025928162005520565b620025a8673bff2d399a469bf760c01b62001612565b620025be679efe014cf6ff001660c01b62001612565b7f908408e307fc569b417f6cbec5d5a06f44a0a505ac0479b47d421a4b2fd6a1e632604051808273ffffffffffffffffffffffffffffffffffffffff16815260200191505060405180910390a150505050565b6000919050565b600060019050919050565b6200263967d094de4125d4cc4560c01b62001e56565b6200264f673140390e5e09720560c01b62001e56565b62002665679a930a1e29b657f960c01b62001e56565b6200267b6713d0baae263dfefa60c01b62001e56565b620026916738eceab2adca511260c01b62001e56565b6000803273ffffffffffffffffffffffffffffffffffffffff1673ffffffffffffffffffffffffffffffffffffffff16815260200190815260200160002060009054906101000a900460ff1662002734576040517f08c379a000000000000000000000000000000000000000000000000000000000815260040180806020018281038252602681526020018062007c5e6026913960400191505060405180910390fd5b6200274a67ca80fb733a0cf30e60c01b62001e56565b6200276067595eae6a0eab3fd360c01b62001e56565b62002776676bc4fc420671443160c01b62001e56565b6200278c67ddb3300d52f8183f60c01b62001e56565b620027a26780bf12055928522f60c01b62001e56565b620027b8672dbcb5811d66550160c01b62001e56565b620027c38162005590565b50565b6000620027de67177e2c2ea6bfd0ba60c01b6200126d565b620027f4675cf1a15cdc494e3c60c01b6200126d565b6200280a675d6751bb0ea9059160c01b6200126d565b62002816838362003b50565b905092915050565b6000919050565b6000919050565b600062002844678560b4356751953860c01b6200126d565b6200285a674d8b37fb100d1bab60c01b6200126d565b6200287067e37d0b5dd298b94160c01b6200126d565b6200287b82620058c1565b9050919050565b600160009054906101000a900473ffffffffffffffffffffffffffffffffffffffff1681565b6000620028c067e06ee7e2292f91d760c01b62001e56565b620028d6674f36bceb0078b8c660c01b62001e56565b620028ec67eacf6133da2848ce60c01b62001e56565b6200293c8484848080601f016020809104026020016040519081016040528093929190818152602001838380828437600081840152601f19601f8201169050808301925050505050505062005988565b90509392505050565b600060019050919050565b50565b6200296967f6f90881617ed37960c01b6200126d565b6200297f67993d480a14fd88bc60c01b6200126d565b6200299567e10a8748d6b81a9960c01b6200126d565b620029a08162003e47565b50620029b7676796e5198ab0d43060c01b6200126d565b620029cd675cec9a07df5b13a060c01b6200126d565b620029d881620044ed565b50565b620029f1674dd59f1ff126c2db60c01b6200126d565b62002a0767bfb1dc494f0e642d60c01b6200126d565b62002a1d6706aadb2374df457a60c01b6200126d565b600062002a2a8362003e47565b905062002a4267b0d28e6d2d3ecf1960c01b6200126d565b62002a5867a406bdb38e249aec60c01b6200126d565b62002a6e67154fd0b2808ed96660c01b6200126d565b8073ffffffffffffffffffffffffffffffffffffffff168273ffffffffffffffffffffffffffffffffffffffff16141562002af5576040517f08c379a000000000000000000000000000000000000000000000000000000000815260040180806020018281038252602b81526020018062007c33602b913960400191505060405180910390fd5b62002b0b672f244ab239b8f0b460c01b6200126d565b62002b21676b47fb4a4bcc6a1660c01b6200126d565b62002b3767bb0af55524bbb8d560c01b6200126d565b62002b4d67786744ca7409ed3f60c01b6200126d565b62002c06600560008573ffffffffffffffffffffffffffffffffffffffff1673ffffffffffffffffffffffffffffffffffffffff16815260200190815260200160002060020160008473ffffffffffffffffffffffffffffffffffffffff1673ffffffffffffffffffffffffffffffffffffffff1681526020019081526020016000206040518060400160405290816000820160009054906101000a900460ff1615151515815260200160018201548152505062005a66565b62002c5d576040517f08c379a000000000000000000000000000000000000000000000000000000000815260040180806020018281038252602c81526020018062007b31602c913960400191505060405180910390fd5b62002c7367f9ae730e7fa73b7860c01b6200126d565b62002c8967cac4dcbf7362ed4a60c01b6200126d565b43600560008573ffffffffffffffffffffffffffffffffffffffff1673ffffffffffffffffffffffffffffffffffffffff16815260200190815260200160002060020160008473ffffffffffffffffffffffffffffffffffffffff1673ffffffffffffffffffffffffffffffffffffffff1681526020019081526020016000206001018190555062002d26676596bcd9787255e760c01b6200126d565b62002d3c677304d3719379608060c01b6200126d565b7f1ce3cbbc43ee231e5b950332f2b0b9dd7d349291a3ee411ce5c5c7ed745661bb8383604051808373ffffffffffffffffffffffffffffffffffffffff1681526020018273ffffffffffffffffffffffffffffffffffffffff1681526020019250505060405180910390a1505050565b600062002dc467fdf02fd261d2868b60c01b6200126d565b62002dda67448965b57ee8a47360c01b6200126d565b62002df0673d2d6b7d1ab8bcf960c01b6200126d565b62002e548562002e4e85858080601f016020809104026020016040519081016040528093929190818152602001838380828437600081840152601f19601f8201169050808301925050505050505087620037f190919063ffffffff16565b62003b50565b9050949350505050565b62002e7467ccc51dcb93b786e060c01b6200126d565b62002e8a67388e2dd4da2fc12f60c01b6200126d565b62002ea067da7c35ce90cc906e60c01b6200126d565b62002eab8562003e47565b5062002ec26772516ef57273944660c01b6200126d565b62002ed867852ee3881eeb23f560c01b6200126d565b62002ee385620044ed565b62002ef9678cf7715857d58c4f60c01b6200126d565b62002f0f6703a4dff1046086ed60c01b6200126d565b62002f6385858585858080601f016020809104026020016040519081016040528093929190818152602001838380828437600081840152601f19601f820116905080830192505050505050506001620046a7565b505050505050565b62002f8167080f7af35bc8f4a460c01b6200126d565b62002f976733697a7b84a4b38f60c01b6200126d565b62002fad6784bee49d771788d760c01b6200126d565b62002fb88262003e47565b5062002fcf67b2a2482c6ff08d2160c01b6200126d565b62002fe56767e35d0b7ec8b96b60c01b6200126d565b62002ffb67d0a128f4c18b91c860c01b6200126d565b600073ffffffffffffffffffffffffffffffffffffffff168173ffffffffffffffffffffffffffffffffffffffff16141562003083576040517f08c379a000000000000000000000000000000000000000000000000000000000815260040180806020018281038252602d81526020018062007d12602d913960400191505060405180910390fd5b620030996748d61c332f1d9de760c01b6200126d565b620030af6747e1b986ee0ade8960c01b6200126d565b620030c56725b3d1e6c1fc32c860c01b6200126d565b620030db672e681a90269cfbc760c01b6200126d565b62003194600560008473ffffffffffffffffffffffffffffffffffffffff1673ffffffffffffffffffffffffffffffffffffffff16815260200190815260200160002060020160008373ffffffffffffffffffffffffffffffffffffffff1673ffffffffffffffffffffffffffffffffffffffff1681526020019081526020016000206040518060400160405290816000820160009054906101000a900460ff1615151515815260200160018201548152505062005a66565b15620031ec576040517f08c379a000000000000000000000000000000000000000000000000000000000815260040180806020018281038252602d81526020018062007ce5602d913960400191505060405180910390fd5b62003202675f65e5a1b089f22d60c01b6200126d565b62003218674cec18fcedef6bb660c01b6200126d565b6001600560008473ffffffffffffffffffffffffffffffffffffffff1673ffffffffffffffffffffffffffffffffffffffff16815260200190815260200160002060020160008373ffffffffffffffffffffffffffffffffffffffff1673ffffffffffffffffffffffffffffffffffffffff16815260200190815260200160002060000160006101000a81548160ff021916908315150217905550620032c96752071e2c7c36c76d60c01b6200126d565b6000600560008473ffffffffffffffffffffffffffffffffffffffff1673ffffffffffffffffffffffffffffffffffffffff16815260200190815260200160002060020160008373ffffffffffffffffffffffffffffffffffffffff1673ffffffffffffffffffffffffffffffffffffffff168152602001908152602001600020600101819055506200336767d7fcbd03032e188460c01b6200126d565b6200337d67249a67a76e9328a960c01b6200126d565b7f27e282f7712c5b4617277759c834b86d163dfc1aad25c8c3c5926a1c9e5644688282604051808373ffffffffffffffffffffffffffffffffffffffff1681526020018273ffffffffffffffffffffffffffffffffffffffff1681526020019250505060405180910390a15050565b620034026722155153c40a1b5f60c01b620022e2565b6200341867f20e9c66d2e35a3160c01b620022e2565b6200342e67db72e4e2ad93d98560c01b620022e2565b6200344467f0e859e97d05275260c01b620022e2565b600073ffffffffffffffffffffffffffffffffffffffff168273ffffffffffffffffffffffffffffffffffffffff161415620034cc576040517f08c379a000000000000000000000000000000000000000000000000000000000815260040180806020018281038252603b81526020018062007a98603b913960400191505060405180910390fd5b620034e267d7c01e77cc7e1c1d60c01b620022e2565b620034f867f01653ca7b735fca60c01b620022e2565b81600260006101000a81548173ffffffffffffffffffffffffffffffffffffffff021916908373ffffffffffffffffffffffffffffffffffffffff1602179055506200354f67ebbcda681215081760c01b620022e2565b6200356567affc4d1625d390ed60c01b620022e2565b801562003623576200358267bb4ed37871a1a8bb60c01b620022e2565b6200359867570a96d870ee580460c01b620022e2565b620035ae67f35a720d6b78a2a760c01b620022e2565b7f70d9f5a076620216a6050e493f3ce69749de0b68fa4b839ba2518660ba8b9cf0600260009054906101000a900473ffffffffffffffffffffffffffffffffffffffff16604051808273ffffffffffffffffffffffffffffffffffffffff16815260200191505060405180910390a16200363a565b62003639671e3026b95074bc9a60c01b620022e2565b5b5050565b60006200365667f3021be47900540860c01b62005abd565b6200366c67ca8d178db33f948f60c01b62005abd565b6200368267825ed52ad6cdd3bc60c01b62005abd565b6200368e825162005ac0565b826040516020018082805190602001908083835b60208310620036c75780518252602082019150602081019050602083039250620036a2565b6001836020036101000a03801982511681845116808217855250505050505090500191505060405160208183030381529060405260405160200180807f19457468657265756d205369676e6564204d6573736167653a0a000000000000815250601a0183805190602001908083835b602083106200375b578051825260208201915060208101905060208303925062003736565b6001836020036101000a03801982511681845116808217855250505050505090500182805190602001908083835b60208310620037ae578051825260208201915060208101905060208303925062003789565b6001836020036101000a03801982511681845116808217855250505050505090500192505050604051602081830303815290604052805190602001209050919050565b60006200380967a7d1b72465578cb660c01b62005e4f565b6200381f6766b1ecb2b7a10d5b60c01b62005e4f565b62003835679d3ace2dfb9870a460c01b62005e4f565b60006200384d670d54dc48819ca7d660c01b62005e4f565b620038636739799aef7a5b8a9860c01b62005e4f565b60418351141562003b03576200388467f5894b14d45360cb60c01b62005e4f565b6200389a67121e6bf9d969d4c660c01b62005e4f565b620038b0675a79672778abc9ff60c01b62005e4f565b6000620038c8676793c86a9af5dbba60c01b62005e4f565b620038de67090369452f75790a60c01b62005e4f565b6000620038f66778fd61ee19efbc5960c01b62005e4f565b6200390c67fdd839914abecb7e60c01b62005e4f565b60006200392467e4e7fec31e292cff60c01b62005e4f565b6020860151925060408601519150606086015160001a9050620039526733522a9152422c9960c01b62005e4f565b620039686781737d4a582627e660c01b62005e4f565b601b8160ff161015620039ad576200398b67ba99160947ce2a7860c01b62005e4f565b620039a167bda5d012d6789ab760c01b62005e4f565b601b81019050620039c4565b620039c367151d688c2807546860c01b62005e4f565b5b620039da6719fdb35078ee4f3c60c01b62005e4f565b620039f0676f017cd3596d56dc60c01b62005e4f565b601b8160ff1614801562003a16575062003a1567b15ac16fa8be67c560c01b62005e52565b5b8062003a445750601c8160ff1614801562003a43575062003a4267092bc9c83cdc070260c01b62005e52565b5b5b1562003ae35762003a6067d110be92a8ae591e60c01b62005e4f565b62003a76674c97edc98e34cf4560c01b62005e4f565b60018782858560405160008152602001604052604051808581526020018460ff1681526020018381526020018281526020019450505050506020604051602081039080840390855afa15801562003ad1573d6000803e3d6000fd5b50505060206040510351935062003afa565b62003af96744918d4e3d03bb9c60c01b62005e4f565b5b50505062003b1a565b62003b19674d8a5e0ff772c62460c01b62005e4f565b5b62003b3067a0ef2082f192617760c01b62005e4f565b62003b4667ad98f58f1b4ee68d60c01b62005e4f565b8091505092915050565b600062003b68679687d3a51b4e6f8d60c01b6200126d565b62003b7e67ede2102f9218483e60c01b6200126d565b62003b94677d188ee16402590160c01b6200126d565b600062003bac67f8564c44552b028160c01b6200126d565b62003bc267e270bf702c58ca3760c01b6200126d565b600560008573ffffffffffffffffffffffffffffffffffffffff1673ffffffffffffffffffffffffffffffffffffffff16815260200190815260200160002060020160008473ffffffffffffffffffffffffffffffffffffffff1673ffffffffffffffffffffffffffffffffffffffff16815260200190815260200160002060000160009054906101000a900460ff161562003d125762003c6e67b92b3bddebdb5f5f60c01b6200126d565b62003c8467c4ba0b34c5620aa960c01b6200126d565b6000600560008673ffffffffffffffffffffffffffffffffffffffff1673ffffffffffffffffffffffffffffffffffffffff16815260200190815260200160002060020160008573ffffffffffffffffffffffffffffffffffffffff1673ffffffffffffffffffffffffffffffffffffffff1681526020019081526020016000206001015414905062003e11565b62003d286742e11780ca0c89b960c01b6200126d565b62003d3e67609ade69313a7c9560c01b6200126d565b6000801b600560008673ffffffffffffffffffffffffffffffffffffffff1673ffffffffffffffffffffffffffffffffffffffff16815260200190815260200160002060010154141562003df95762003da267f77ae43db68fc14a60c01b6200126d565b62003db867fe28c84cd08445a460c01b6200126d565b62003dc383620058c1565b73ffffffffffffffffffffffffffffffffffffffff168473ffffffffffffffffffffffffffffffffffffffff1614905062003e10565b62003e0f67a945d7798baaf63e60c01b6200126d565b5b5b62003e2767d1469b5a36c20efb60c01b6200126d565b62003e3d6718cbc73d84aa6f9f60c01b6200126d565b8091505092915050565b600062003e5f671cf8287bb6f770ce60c01b6200126d565b62003e75676aa612c014462f8760c01b6200126d565b62003e8b67209e9c9e963c979f60c01b6200126d565b600062003e9762005e5d565b905062003eaf67d40270c12a84f01960c01b6200126d565b62003ec567b356c397de53ae1360c01b6200126d565b600560008473ffffffffffffffffffffffffffffffffffffffff1673ffffffffffffffffffffffffffffffffffffffff16815260200190815260200160002060020160008273ffffffffffffffffffffffffffffffffffffffff1673ffffffffffffffffffffffffffffffffffffffff16815260200190815260200160002060000160009054906101000a900460ff1615620040ac5762003f7167db896b66f28d620960c01b6200126d565b62003f876764f16dc1f60e1faf60c01b6200126d565b62003f9d670e339d1126d161a760c01b6200126d565b62003fb3670a69a5a2e015b53060c01b6200126d565b6000600560008573ffffffffffffffffffffffffffffffffffffffff1673ffffffffffffffffffffffffffffffffffffffff16815260200190815260200160002060020160008373ffffffffffffffffffffffffffffffffffffffff1673ffffffffffffffffffffffffffffffffffffffff168152602001908152602001600020600101541462004090576040517f08c379a000000000000000000000000000000000000000000000000000000000815260040180806020018281038252603881526020018062007ad36038913960400191505060405180910390fd5b620040a667d1077d6ce3c3dd1660c01b6200126d565b620044b8565b620040c2670d0180acdebad26c60c01b6200126d565b620040d8675c666b98bbedefd760c01b6200126d565b620040ee67c1b1009c41bed1d660c01b6200126d565b62004104679053f20ff4a8e06a60c01b6200126d565b6000801b600560008573ffffffffffffffffffffffffffffffffffffffff1673ffffffffffffffffffffffffffffffffffffffff1681526020019081526020016000206001015414620041a3576040517f08c379a000000000000000000000000000000000000000000000000000000000815260040180806020018281038252603881526020018062007ad36038913960400191505060405180910390fd5b620041b96719c27647724f23d760c01b6200126d565b620041cf678481145f13433bca60c01b6200126d565b620041e5671db3bc1be8c5a2db60c01b6200126d565b600081604051602001808273ffffffffffffffffffffffffffffffffffffffff1660601b81526014019150506040516020818303038152906040528051906020012090506200423f67d76fba81bf3528c860c01b6200126d565b6200425567296be10c5d93759260c01b6200126d565b6200426b67cc05ee6c1c270fac60c01b6200126d565b620042768162005eb2565b73ffffffffffffffffffffffffffffffffffffffff168473ffffffffffffffffffffffffffffffffffffffff1614620042fb576040517f08c379a000000000000000000000000000000000000000000000000000000000815260040180806020018281038252603881526020018062007ad36038913960400191505060405180910390fd5b6200431167f9ad73fe88a5e62d60c01b6200126d565b6200432767f7b2a195f00881c160c01b6200126d565b80600560008673ffffffffffffffffffffffffffffffffffffffff1673ffffffffffffffffffffffffffffffffffffffff168152602001908152602001600020600101819055506200438467bc82c59ff336929e60c01b6200126d565b6001600560008673ffffffffffffffffffffffffffffffffffffffff1673ffffffffffffffffffffffffffffffffffffffff16815260200190815260200160002060020160008473ffffffffffffffffffffffffffffffffffffffff1673ffffffffffffffffffffffffffffffffffffffff16815260200190815260200160002060000160006101000a81548160ff0219169083151502179055506200443567015144c9588d581960c01b6200126d565b6200444b67163327099537ff3960c01b6200126d565b7f27e282f7712c5b4617277759c834b86d163dfc1aad25c8c3c5926a1c9e5644688483604051808373ffffffffffffffffffffffffffffffffffffffff1681526020018273ffffffffffffffffffffffffffffffffffffffff1681526020019250505060405180910390a1505b620044ce674750b458c127f46260c01b6200126d565b620044e467965345428872db2060c01b6200126d565b80915050919050565b6200450367cc0fd7a106f8226d60c01b6200126d565b6200451967fd96176ebed72c1860c01b6200126d565b6200452f67ddcb55479ea7599c60c01b6200126d565b600560008273ffffffffffffffffffffffffffffffffffffffff1673ffffffffffffffffffffffffffffffffffffffff16815260200190815260200160002060000160009054906101000a900460ff166200468d576200459a67e194cfe8cc37632e60c01b6200126d565b620045b0673dee962349afe96a60c01b6200126d565b620045c6678fded3cf04735f6e60c01b6200126d565b62004615600560008373ffffffffffffffffffffffffffffffffffffffff1673ffffffffffffffffffffffffffffffffffffffff16815260200190815260200160002060010154600162006146565b506200462c67d9f2c14c19d3a26060c01b6200126d565b6001600560008373ffffffffffffffffffffffffffffffffffffffff1673ffffffffffffffffffffffffffffffffffffffff16815260200190815260200160002060000160006101000a81548160ff021916908315150217905550620046a4565b620046a36786bf5b6daaf15dc160c01b6200126d565b5b50565b6060620046bf6714b348dd74a0589a60c01b620022e2565b620046d567a4e12246e11c405360c01b620022e2565b620046eb67ec852a336af6297760c01b620022e2565b6200470167c1a38b62066025c060c01b620022e2565b600073ffffffffffffffffffffffffffffffffffffffff168573ffffffffffffffffffffffffffffffffffffffff16141562004789576040517f08c379a000000000000000000000000000000000000000000000000000000000815260040180806020018281038252602581526020018062007bc16025913960400191505060405180910390fd5b6200479f67fac2583ae8c90b8b60c01b620022e2565b620047b5678bf253bfb35241b260c01b620022e2565b620047cb6799051d8455f27cae60c01b620022e2565b620047e167eb6984018178d3d860c01b620022e2565b3073ffffffffffffffffffffffffffffffffffffffff168573ffffffffffffffffffffffffffffffffffffffff16141562004868576040517f08c379a000000000000000000000000000000000000000000000000000000000815260040180806020018281038252602c81526020018062007cb9602c913960400191505060405180910390fd5b6200487e67ae8d8659bf4a71ff60c01b620022e2565b620048946795cdcbc902d83d5f60c01b620022e2565b620048aa6708a707cf364ec96660c01b620022e2565b620048c0675acbe141f9f070ed60c01b620022e2565b8573ffffffffffffffffffffffffffffffffffffffff168573ffffffffffffffffffffffffffffffffffffffff16141562004947576040517f08c379a000000000000000000000000000000000000000000000000000000000815260040180806020018281038252602681526020018062007b0b6026913960400191505060405180910390fd5b6200495d6743d42e9f54fc8cc460c01b620022e2565b62004973678ce3637596b502c460c01b620022e2565b6200498967e6db984a386aba2c60c01b620022e2565b60608673ffffffffffffffffffffffffffffffffffffffff16633f579f428787876040518463ffffffff1660e01b8152600401808473ffffffffffffffffffffffffffffffffffffffff16815260200183815260200180602001828103825283818151815260200191508051906020019080838360005b8381101562004a1d57808201518184015260208101905062004a00565b50505050905090810190601f16801562004a4b5780820380516001836020036101000a031916815260200191505b50945050505050600060405180830381600087803b15801562004a6d57600080fd5b505af115801562004a82573d6000803e3d6000fd5b505050506040513d6000823e3d601f19601f82011682018060405250602081101562004aad57600080fd5b810190808051604051939291908464010000000082111562004ace57600080fd5b8382019150602082018581111562004ae557600080fd5b825186600182028301116401000000008211171562004b0357600080fd5b8083526020830192505050908051906020019080838360005b8381101562004b3957808201518184015260208101905062004b1c565b50505050905090810190601f16801562004b675780820380516001836020036101000a031916815260200191505b50604052505050905062004b86677603e15a62cf534f60c01b620022e2565b62004b9c67f8b2cfc274061ebd60c01b620022e2565b821562004d3e5762004bb967c8f174bcc31b73cf60c01b620022e2565b62004bcf67242e0542658aa42960c01b620022e2565b62004be56742ba8f2511a37cc760c01b620022e2565b7f99eeae1fb8801e2e878e060ec5e5b3557b3c4f8106e35d88cb573f293dae4e248787878785604051808673ffffffffffffffffffffffffffffffffffffffff1681526020018573ffffffffffffffffffffffffffffffffffffffff1681526020018481526020018060200180602001838103835285818151815260200191508051906020019080838360005b8381101562004c8f57808201518184015260208101905062004c72565b50505050905090810190601f16801562004cbd5780820380516001836020036101000a031916815260200191505b50838103825284818151815260200191508051906020019080838360005b8381101562004cf857808201518184015260208101905062004cdb565b50505050905090810190601f16801562004d265780820380516001836020036101000a031916815260200191505b5097505050505050505060405180910390a162004d55565b62004d546740f6a25f6b1535fe60c01b620022e2565b5b62004d6b6704c815f4ec92c8a660c01b620022e2565b62004d81674dee101f14ab7ca760c01b620022e2565b8091505095945050505050565b600062004da6671144096310ea862460c01b62006397565b62004dbc67ccb193c1d70d4f2d60c01b62006397565b62004dd267c4edd14fe4d5717d60c01b62006397565b600062004dea67cc22b304773d3df460c01b62006397565b62004e0067e8542ed48c287f5960c01b62006397565b83600001511562004f3a5762004e2167e10357517882bc5660c01b62006397565b62004e3767e61b7ae6e2a21e4460c01b62006397565b62004e4d6731991fbb0a86cb8160c01b62006397565b60008460200151141562004e915762004e7167199bb5624cc15e4b60c01b62006397565b62004e8767b6ac26078985937c60c01b62006397565b6001905062004f34565b62004ea7677ef33d6bba57c29160c01b62006397565b62004ebd67cf24d1788013297b60c01b62006397565b600083141562004efd5762004edd6755705221aa1e447060c01b62006397565b62004ef3679cd0d8177f361b5a60c01b62006397565b6001905062004f33565b62004f136791918ba395bef8ec60c01b62006397565b62004f2967c888e9ccf04b85c560c01b62006397565b8284602001511190505b5b62004f51565b62004f5067638195b8907d337960c01b62006397565b5b62004f6767494b10f3b699fc4660c01b62006397565b62004f7d6775523eddeb60429e60c01b62006397565b8091505092915050565b62004f9d6783bc461093211d3060c01b620022e2565b62004fb367617e9b3d3be0998260c01b620022e2565b62004fc967c56eea6a8eb29d2660c01b620022e2565b62004fdf67e1061eb3258a678560c01b620022e2565b600260009054906101000a900473ffffffffffffffffffffffffffffffffffffffff1673ffffffffffffffffffffffffffffffffffffffff168273ffffffffffffffffffffffffffffffffffffffff16635c60da1b6040518163ffffffff1660e01b815260040160206040518083038186803b1580156200505f57600080fd5b505afa15801562005074573d6000803e3d6000fd5b505050506040513d60208110156200508b57600080fd5b810190808051906020019092919050505073ffffffffffffffffffffffffffffffffffffffff1614156200510b576040517f08c379a000000000000000000000000000000000000000000000000000000000815260040180806020018281038252602b81526020018062007c08602b913960400191505060405180910390fd5b6200512167902b425eef99e09160c01b620022e2565b62005137673ec947506b40999760c01b620022e2565b6200514d67324538136ed2b8d160c01b620022e2565b8173ffffffffffffffffffffffffffffffffffffffff1663d784d426600260009054906101000a900473ffffffffffffffffffffffffffffffffffffffff166040518263ffffffff1660e01b8152600401808273ffffffffffffffffffffffffffffffffffffffff168152602001915050600060405180830381600087803b158015620051d957600080fd5b505af1158015620051ee573d6000803e3d6000fd5b5050505062005208677255e205202bfa4c60c01b620022e2565b6200521e67aea7be51d4635a2360c01b620022e2565b8015620052fa576200523b674e29f1020f1024f360c01b620022e2565b62005251677c29b4b2bd2fba7860c01b620022e2565b62005267677de244ccb8c8bb7a60c01b620022e2565b7feec27cdb8bd6f55c2c537deb52ab094a2437e85ef5197e6f064f90bff3ff563f82600260009054906101000a900473ffffffffffffffffffffffffffffffffffffffff16604051808373ffffffffffffffffffffffffffffffffffffffff1681526020018273ffffffffffffffffffffffffffffffffffffffff1681526020019250505060405180910390a162005311565b6200531067e28f65ded3d13a6260c01b620022e2565b5b5050565b6200532b67ea6659a67554377560c01b62001e56565b62005341673f57bc1d84bc70c560c01b62001e56565b62005357671844b355b66a453760c01b62001e56565b600081511415620053b557620053786787d11e8f796f3ebc60c01b62001e56565b6200538e670e9dd83a3af8e95860c01b62001e56565b620053a4672ea5c88aefc1785060c01b62001e56565b620053af3262005590565b62005491565b620053cb67bb31dc4d5f5f4ac860c01b62001e56565b620053e1679bee217b20e2207b60c01b62001e56565b620053f7675b9ad81f6086459160c01b62001e56565b6000815190506200541367324e7178768e62a760c01b62001e56565b620054296770fc86bc922e649160c01b62001e56565b60005b818110156200548e576200544b6720b064839ce17c0c60c01b62001e56565b6200546167be025102fa8957b060c01b62001e56565b620054808382815181106200547257fe5b602002602001015162005590565b80806001019150506200542c565b50505b50565b620054aa6772ec7301e42c8a1d60c01b620022e2565b620054c06721d2d4f3b7b051ed60c01b620022e2565b620054d667db49d23a799ff00d60c01b620022e2565b620054e38260006200639a565b620054f9674799610ec63c6d2560c01b620022e2565b6200550f672c1030cdc95e910160c01b620022e2565b6200551c816000620033ec565b5050565b6200553667acc543fa1b541b9760c01b62001420565b6200554c6745b6904116eed90f60c01b62001420565b80600460006101000a81548173ffffffffffffffffffffffffffffffffffffffff021916908373ffffffffffffffffffffffffffffffffffffffff16021790555050565b620055a66787c6ba160fdcbcc960c01b62001e56565b620055bc670af3052235812df860c01b62001e56565b620055d2676abd6987875e59dd60c01b62001e56565b620055e867e10dc39bcbaabf2f60c01b62001e56565b600073ffffffffffffffffffffffffffffffffffffffff168173ffffffffffffffffffffffffffffffffffffffff1614156200568c576040517f08c379a00000000000000000000000000000000000000000000000000000000081526004018080602001828103825260208152602001807f477561726465643a2063616e6e6f74206164642030783020677561726469616e81525060200191505060405180910390fd5b620056a26716396074aa13c44c60c01b62001e56565b620056b86715ced25ada1990da60c01b62001e56565b620056ce6792ed078530acc19160c01b62001e56565b620056e467200e0e06d2f3ae3e60c01b62001e56565b6000808273ffffffffffffffffffffffffffffffffffffffff1673ffffffffffffffffffffffffffffffffffffffff16815260200190815260200160002060009054906101000a900460ff1615620057a4576040517f08c379a00000000000000000000000000000000000000000000000000000000081526004018080602001828103825260208152602001807f477561726465643a20677561726469616e20616c72656164792065786973747381525060200191505060405180910390fd5b620057ba67d731f063ae4f6b1160c01b62001e56565b620057d06782528510c123ffea60c01b62001e56565b60016000808373ffffffffffffffffffffffffffffffffffffffff1673ffffffffffffffffffffffffffffffffffffffff16815260200190815260200160002060006101000a81548160ff0219169083151502179055506200583d6733e2d1a69fe92b2f60c01b62001e56565b6200585367fcfdd6789abca2ce60c01b62001e56565b7fbc3292102fa77e083913064b282926717cdfaede4d35f553d66366c0a3da755a3282604051808373ffffffffffffffffffffffffffffffffffffffff1681526020018273ffffffffffffffffffffffffffffffffffffffff1681526020019250505060405180910390a150565b6000620058d96702ac4684d1793ce860c01b6200126d565b620058ef67266307eac3244d8460c01b6200126d565b620059056716a92662de2f69c460c01b6200126d565b600082604051602001808273ffffffffffffffffffffffffffffffffffffffff1660601b81526014019150506040516020818303038152906040528051906020012090506200595f672541f262340c5ab160c01b6200126d565b620059756706cd03cd59fb6d5160c01b6200126d565b620059808162005eb2565b915050919050565b6000620059a067c413be33cede683c60c01b62001e56565b620059b667aab9e66231391cdd60c01b62001e56565b620059cc67c5aa5b73c63f34ca60c01b62001e56565b6000620059e38385620037f190919063ffffffff16565b9050620059fb67cc71125efbe5c81560c01b62001e56565b62005a1167716e9880163b9ce860c01b62001e56565b6000808273ffffffffffffffffffffffffffffffffffffffff1673ffffffffffffffffffffffffffffffffffffffff16815260200190815260200160002060009054906101000a900460ff1691505092915050565b600062005a7e67f30c2ff94090645360c01b62006397565b62005a9467d1f07971ac04448f60c01b62006397565b62005aaa67a01f666428e7433960c01b62006397565b62005ab6824362004d8e565b9050919050565b50565b606062005ad8673b8e90b1f0045d9560c01b620065ec565b62005aee675092c4de9b4b5a5d60c01b620065ec565b62005b04671f973f2666a1273860c01b620065ec565b600082141562005b8e5762005b2467a02cf737480a405d60c01b620065ec565b62005b3a673e81a4dfb3fc990560c01b620065ec565b62005b5067f2d815d7dc0628fd60c01b620065ec565b6040518060400160405280600181526020017f3000000000000000000000000000000000000000000000000000000000000000815250905062005e4a565b62005ba467cafc75a4aea5b6ce60c01b620065ec565b62005bba67f435c06cf56b4bcb60c01b620065ec565b62005bd067a7e173e6502a9a4760c01b620065ec565b600082905062005beb6798df160ea903df6560c01b620065ec565b62005c016717cd8fb39d85f3fc60c01b620065ec565b600062005c19671678407216fa7cfa60c01b620065ec565b62005c2f6721b3098045a3489360c01b620065ec565b5b6000821462005c815762005c4f67d5e579d004155a9260c01b620065ec565b808060010191505062005c6d673d7dab52096625aa60c01b620065ec565b600a828162005c7857fe5b04915062005c30565b62005c9767bdddf8247d167ce960c01b620065ec565b62005cad67e38ef20a48872fdb60c01b620065ec565b60608167ffffffffffffffff8111801562005cc757600080fd5b506040519080825280601f01601f19166020018201604052801562005cfb5781602001600182028036833780820191505090505b50905062005d14671f152d4b5948bdb260c01b620065ec565b62005d2a67a6ca46a1993a002b60c01b620065ec565b600060018303905062005d486796f0612b81ee912e60c01b620065ec565b85935062005d6167ff90d58705c6749260c01b620065ec565b62005d77670ef6969e6485fb4e60c01b620065ec565b5b6000841462005e165762005d97671287ae8c3f2341e960c01b620065ec565b600a848162005da257fe5b0660300160f81b8282806001900393508151811062005dbd57fe5b60200101907effffffffffffffffffffffffffffffffffffffffffffffffffffffffffffff1916908160001a90535062005e0267221933d8fee4e4a260c01b620065ec565b600a848162005e0d57fe5b04935062005d78565b62005e2c676af8a474444cb5ac60c01b620065ec565b62005e42670b7d58623f7a5a7a60c01b620065ec565b819450505050505b919050565b50565b600060019050919050565b600062005e7567a276b4e8b680777360c01b62001420565b62005e8b67fca2d877ee539c9860c01b62001420565b62005ea16750f09a8716632a5e60c01b62001420565b62005ead6014620065ef565b905090565b600062005eca67d4b3f64c630a4ce860c01b620022e2565b62005ee0678a40bda45de85f3f60c01b620022e2565b62005ef6676c7db5bc49bb2b0360c01b620022e2565b60606040518060200162005f0a9062006b22565b6020820181038252601f19601f82011660405250600060a01b600160009054906101000a900473ffffffffffffffffffffffffffffffffffffffff16600060a01b600260009054906101000a900473ffffffffffffffffffffffffffffffffffffffff166040516020018086805190602001908083835b6020831062005fa6578051825260208201915060208101905060208303925062005f81565b6001836020036101000a0380198251168184511680821785525050505050509050018573ffffffffffffffffffffffffffffffffffffffff19168152600c018473ffffffffffffffffffffffffffffffffffffffff1660601b81526014018373ffffffffffffffffffffffffffffffffffffffff19168152600c018273ffffffffffffffffffffffffffffffffffffffff1660601b81526014019550505050505060405160208183030381529060405290506200606e67679523aa80c5906c60c01b620022e2565b6200608467f39ec9d42861761660c01b620022e2565b600060ff60f81b3085848051906020012060405160200180857effffffffffffffffffffffffffffffffffffffffffffffffffffffffffffff191681526001018473ffffffffffffffffffffffffffffffffffffffff1660601b8152601401838152602001828152602001945050505050604051602081830303815290604052805190602001209050620061236762bfbc1a20b53a1c60c01b620022e2565b62006139679f7108ab066024f760c01b620022e2565b8060001c92505050919050565b60006200615e679d389de6d68d241660c01b620022e2565b620061746748b3214db43af81260c01b620022e2565b6200618a6786335e4138f9c31b60c01b620022e2565b600083600160009054906101000a900473ffffffffffffffffffffffffffffffffffffffff16600260009054906101000a900473ffffffffffffffffffffffffffffffffffffffff16604051620061e19062006b22565b808373ffffffffffffffffffffffffffffffffffffffff1681526020018273ffffffffffffffffffffffffffffffffffffffff168152602001925050508190604051809103906000f59050801580156200623f573d6000803e3d6000fd5b50905062006258671d71f50b8832468860c01b620022e2565b6200626e67932720351f5db02e60c01b620022e2565b82156200634a576200628b67cb6fd4a3465cd33e60c01b620022e2565b620062a1678a137017d97a8f9260c01b620022e2565b620062b767ff330ffc3759e4fe60c01b620022e2565b7f2682a218602b9036c9869f006c5405ee4a1a65267653eb7e286123e5e1afde4c81600260009054906101000a900473ffffffffffffffffffffffffffffffffffffffff16604051808373ffffffffffffffffffffffffffffffffffffffff1681526020018273ffffffffffffffffffffffffffffffffffffffff1681526020019250505060405180910390a162006361565b620063606765386ca46668cd5d60c01b620022e2565b5b62006377673a15f96670c128ec60c01b620022e2565b6200638d673623e84ed338a3a560c01b620022e2565b8091505092915050565b50565b620063b0675968fe1ec898767460c01b620022e2565b620063c6679d220815fc66b35760c01b620022e2565b620063dc675b9a14e7f46828c260c01b620022e2565b620063f267a4b0dd0d65987fd860c01b620022e2565b600073ffffffffffffffffffffffffffffffffffffffff168273ffffffffffffffffffffffffffffffffffffffff1614156200647a576040517f08c379a000000000000000000000000000000000000000000000000000000000815260040180806020018281038252603581526020018062007b5d6035913960400191505060405180910390fd5b6200649067c8ecba52843914e660c01b620022e2565b620064a6679c9ebb999c0d025960c01b620022e2565b81600160006101000a81548173ffffffffffffffffffffffffffffffffffffffff021916908373ffffffffffffffffffffffffffffffffffffffff160217905550620064fd67ee9141a77b29e56e60c01b620022e2565b620065136738228049f4d0ba4360c01b620022e2565b8015620065d1576200653067853c0f3d2713cf7060c01b620022e2565b6200654667e0863fd1e259a80360c01b620022e2565b6200655c67ff6d0cec4dac9e7960c01b620022e2565b7f02e3c47057b8dc27a0929d3c394c314c73aa002d46939c31c9f71d1e77e86c10600160009054906101000a900473ffffffffffffffffffffffffffffffffffffffff16604051808273ffffffffffffffffffffffffffffffffffffffff16815260200191505060405180910390a1620065e8565b620065e7670f951329ff63bec160c01b620022e2565b5b5050565b50565b60006200660767772a91b96de17dad60c01b62001420565b6200661d670bccad2f0bdd31ff60c01b62001420565b62006633672926a43bd618754960c01b62001420565b60006200664b6732a18237a34b56fc60c01b62001420565b62006661673c6e4f378359208560c01b62001420565b6200666b620067a7565b156200674257620066876738aef6c832f61fa160c01b62001420565b6200669d6773de43eb740fd94260c01b62001420565b620066b3671a79731e867b884e60c01b62001420565b6000836000369050039050620066d46780fcc39b774739ce60c01b62001420565b6200673960003683906014850192620066f09392919062006b30565b8080601f016020809104026020016040519081016040528093929190818152602001838380828437600081840152601f19601f82011690508083019250505050505050620069a8565b91505062006772565b6200675867d791575e9a77c3b360c01b62001420565b6200676e67d5f2dfe665b92a0760c01b62001420565b3390505b620067886732af8de234d9261260c01b62001420565b6200679e67c1233a9a4a37cbe260c01b62001420565b80915050919050565b6000620067bf67d69a0630f85cccd960c01b62001420565b620067d56761da87153b21fa4e60c01b62001420565b620067eb671a47b3ddf4ac6dd860c01b62001420565b6000620068036795a5c08572e155d060c01b62001420565b6200681967104e9630cce4d6fe60c01b62001420565b600460009054906101000a900473ffffffffffffffffffffffffffffffffffffffff1673ffffffffffffffffffffffffffffffffffffffff163373ffffffffffffffffffffffffffffffffffffffff1614156200695e576200688667ca3b6f3f0b5da39b60c01b62001420565b6200689c67fc6ee57264ed379c60c01b62001420565b620068b267a440e18dce17aeab60c01b62001420565b620068c867192a05873f3db5f260c01b62001420565b602c6000369050101562006928576040517f08c379a000000000000000000000000000000000000000000000000000000000815260040180806020018281038252602281526020018062007be66022913960400191505060405180910390fd5b6200693e67da7cfd61ffe88fda60c01b62001420565b620069546717400c6c53de5f0560c01b62001420565b6001905062006975565b6200697467390e9d8548c1ed9c60c01b62001420565b5b6200698b67e814b23d00c6f48060c01b62001420565b620069a16728fe60e7a7a5712860c01b62001420565b8091505090565b6000620069c0673996a0d04c88d9a460c01b62006b1f565b620069d66783c007718ca1efac60c01b62006b1f565b620069ec67499c6e4ee1cb642760c01b62006b1f565b600062006a046748c82eb6a4e79fb360c01b62006b1f565b62006a1a67feb27027632755a460c01b62006b1f565b62006a3067a2cb1447ede72f6660c01b62006b1f565b601483511462006aa8576040517f08c379a000000000000000000000000000000000000000000000000000000000815260040180806020018281038252601d8152602001807f42797465734c69623a20696e76616c69642064617461206c656e67746800000081525060200191505060405180910390fd5b62006abe677c1f66eeec4c6b8b60c01b62006b1f565b62006ad467cb392aa5dde1d72e60c01b62006b1f565b6c01000000000000000000000000602084015104905062006b0067177898a349e9545960c01b62006b1f565b62006b16675e11b686ccbb0c5f60c01b62006b1f565b80915050919050565b50565b610f328062006b6683390190565b6000808585111562006b4157600080fd5b8386111562006b4f57600080fd5b600185028301915084860390509450949250505056fe608060405234801561001057600080fd5b50604051610f32380380610f328339818101604052604081101561003357600080fd5b81019080805190602001909291908051906020019092919050505061006867471bedfea992ac9e60c01b61019960201b60201c565b61008267ffbbdd64e968d82c60c01b61019960201b60201c565b336000806101000a81548173ffffffffffffffffffffffffffffffffffffffff021916908373ffffffffffffffffffffffffffffffffffffffff1602179055506100dc675b991842533372b860c01b61019c60201b60201c565b6100f667d2d8914cc8fad59b60c01b61019c60201b60201c565b81600160006101000a81548173ffffffffffffffffffffffffffffffffffffffff021916908373ffffffffffffffffffffffffffffffffffffffff16021790555061015167d1f631705cef9e2e60c01b61019c60201b60201c565b80600260006101000a81548173ffffffffffffffffffffffffffffffffffffffff021916908373ffffffffffffffffffffffffffffffffffffffff160217905550505061019f565b50565b50565b610d84806101ae6000396000f3fe6080604052600436106100e15760003560e01c80637b1039991161007f578063b49762a111610059578063b49762a114610664578063d784d426146106d0578063dd54622814610721578063f77c479114610777576100e8565b80637b103999146105775780638f27e6b6146105b8578063abe124f61461060e576100e8565b806334d23875116100bb57806334d23875146103355780633f579f42146103a15780635c60da1b146104ca5780636480a27b1461050b576100e8565b8063062e4f9c146101f15780631454d4701461025d5780632486e26f146102c9576100e8565b366100e857005b3480156100f457600080fd5b50610109672d966d96fd7e7b2e60c01b6107b8565b61011d6790effab3f6b29ec960c01b6107b8565b61013167267c769ec81b145660c01b6107b8565b600080369050146101db576101506793df8308117162f860c01b6107b8565b610164679684421dcf31f23160c01b6107b8565b6101786733a9ec42372d700960c01b6107b8565b6000600260009054906101000a900473ffffffffffffffffffffffffffffffffffffffff1690506101b367e173c6e5f14b9c0e60c01b6107b8565b368060008037600080826000855af43d806000803e81600081146101d657816000f35b816000fd5b6101ef675d8752c41446766660c01b6107b8565b005b3480156101fd57600080fd5b506102456004803603602081101561021457600080fd5b81019080803577ffffffffffffffffffffffffffffffffffffffffffffffff191690602001909291905050506107bb565b60405180821515815260200191505060405180910390f35b34801561026957600080fd5b506102b16004803603602081101561028057600080fd5b81019080803577ffffffffffffffffffffffffffffffffffffffffffffffff191690602001909291905050506107c2565b60405180821515815260200191505060405180910390f35b3480156102d557600080fd5b5061031d600480360360208110156102ec57600080fd5b81019080803577ffffffffffffffffffffffffffffffffffffffffffffffff191690602001909291905050506107c9565b60405180821515815260200191505060405180910390f35b34801561034157600080fd5b506103896004803603602081101561035857600080fd5b81019080803577ffffffffffffffffffffffffffffffffffffffffffffffff191690602001909291905050506107d4565b60405180821515815260200191505060405180910390f35b3480156103ad57600080fd5b5061044f600480360360608110156103c457600080fd5b81019080803573ffffffffffffffffffffffffffffffffffffffff169060200190929190803590602001909291908035906020019064010000000081111561040b57600080fd5b82018360208201111561041d57600080fd5b8035906020019184600183028401116401000000008311171561043f57600080fd5b90919293919293905050506107df565b6040518080602001828103825283818151815260200191508051906020019080838360005b8381101561048f578082015181840152602081019050610474565b50505050905090810190601f1680156104bc5780820380516001836020036101000a031916815260200191505b509250505060405180910390f35b3480156104d657600080fd5b506104df610b13565b604051808273ffffffffffffffffffffffffffffffffffffffff16815260200191505060405180910390f35b34801561051757600080fd5b5061055f6004803603602081101561052e57600080fd5b81019080803577ffffffffffffffffffffffffffffffffffffffffffffffff19169060200190929190505050610b39565b60405180821515815260200191505060405180910390f35b34801561058357600080fd5b5061058c610b44565b604051808273ffffffffffffffffffffffffffffffffffffffff16815260200191505060405180910390f35b3480156105c457600080fd5b5061060c600480360360208110156105db57600080fd5b81019080803577ffffffffffffffffffffffffffffffffffffffffffffffff19169060200190929190505050610b6a565b005b34801561061a57600080fd5b506106626004803603602081101561063157600080fd5b81019080803577ffffffffffffffffffffffffffffffffffffffffffffffff19169060200190929190505050610b6d565b005b34801561067057600080fd5b506106b86004803603602081101561068757600080fd5b81019080803577ffffffffffffffffffffffffffffffffffffffffffffffff19169060200190929190505050610b70565b60405180821515815260200191505060405180910390f35b3480156106dc57600080fd5b5061071f600480360360208110156106f357600080fd5b81019080803573ffffffffffffffffffffffffffffffffffffffff169060200190929190505050610b77565b005b34801561072d57600080fd5b506107756004803603602081101561074457600080fd5b81019080803577ffffffffffffffffffffffffffffffffffffffffffffffff191690602001909291905050506107b8565b005b34801561078357600080fd5b5061078c610d27565b604051808273ffffffffffffffffffffffffffffffffffffffff16815260200191505060405180910390f35b50565b6000919050565b6000919050565b600060019050919050565b600060019050919050565b60606107f5679c85e5eeeeacb2eb60c01b6107b8565b610809674942cb926bd63bf160c01b610b6d565b61081d67ad93ce02bf35bdae60c01b610b6d565b610831679f617ec08a4dee0160c01b610b6d565b61084567e08252734cb8a1f860c01b610b6d565b60008054906101000a900473ffffffffffffffffffffffffffffffffffffffff1673ffffffffffffffffffffffffffffffffffffffff163373ffffffffffffffffffffffffffffffffffffffff16146108e9576040517f08c379a000000000000000000000000000000000000000000000000000000000815260040180806020018281038252602c815260200180610d4c602c913960400191505060405180910390fd5b6108fd67760347729cd54e1260c01b610b6d565b6109116706d0fdb977bc52ba60c01b610b6d565b610925671c5ef2c5410ecced60c01b6107b8565b610939677d92c04994b6611360c01b6107b8565b61094d675f11463de051704d60c01b6107b8565b61096167b05962998d315e4460c01b6107b8565b6060610977674e22c6186f0f4bbf60c01b6107b8565b61098b67752b5dd9ffa3e84a60c01b6107b8565b60006109a167beb2e3555778182260c01b6107b8565b8673ffffffffffffffffffffffffffffffffffffffff1686868660405180838380828437808301925050509250505060006040518083038185875af1925050503d8060008114610a0d576040519150601f19603f3d011682016040523d82523d6000602084013e610a12565b606091505b508093508192505050610a2f675a8e58a520e9396a60c01b6107b8565b610a43674ed41c8d60a8531e60c01b6107b8565b610a576711731ff7b4d130dd60c01b6107b8565b80610aca576040517f08c379a000000000000000000000000000000000000000000000000000000000815260040180806020018281038252601d8152602001807f4163636f756e743a207472616e73616374696f6e20726576657274656400000081525060200191505060405180910390fd5b610ade675c5a9353efd3cdb060c01b6107b8565b610af2673cc492a5c7f0811560c01b6107b8565b610b0667aa5e7050f2e2e6d060c01b6107b8565b8192505050949350505050565b600260009054906101000a900473ffffffffffffffffffffffffffffffffffffffff1681565b600060019050919050565b600160009054906101000a900473ffffffffffffffffffffffffffffffffffffffff1681565b50565b50565b6000919050565b610b8b673438f7a345e0ba0360c01b6107b8565b610b9f674942cb926bd63bf160c01b610b6d565b610bb367ad93ce02bf35bdae60c01b610b6d565b610bc7679f617ec08a4dee0160c01b610b6d565b610bdb67e08252734cb8a1f860c01b610b6d565b60008054906101000a900473ffffffffffffffffffffffffffffffffffffffff1673ffffffffffffffffffffffffffffffffffffffff163373ffffffffffffffffffffffffffffffffffffffff1614610c7f576040517f08c379a000000000000000000000000000000000000000000000000000000000815260040180806020018281038252602c815260200180610d4c602c913960400191505060405180910390fd5b610c9367760347729cd54e1260c01b610b6d565b610ca76706d0fdb977bc52ba60c01b610b6d565b610cbb679a568a7aac48109460c01b6107b8565b610ccf67ed292e5a6813d7ec60c01b6107b8565b610ce367c6fcc459c0a5125160c01b6107b8565b80600260006101000a81548173ffffffffffffffffffffffffffffffffffffffff021916908373ffffffffffffffffffffffffffffffffffffffff16021790555050565b60008054906101000a900473ffffffffffffffffffffffffffffffffffffffff168156fe436f6e74726f6c6c65643a206d73672e73656e646572206973206e6f742074686520636f6e74726f6c6c6572a164736f6c634300060c000a4163636f756e74436f6e74726f6c6c65723a2063616e6e6f7420736574206163636f756e7420496d706c656d656e746174696f6e20746f20307830506572736f6e616c4163636f756e7452656769737472793a2073656e646572206973206e6f7420746865206163636f756e74206f776e65724163636f756e74436f6e74726f6c6c65723a2063616e6e6f742073656e6420746f2073656c66506572736f6e616c4163636f756e7452656769737472793a206f776e657220646f65736e27742065786973744163636f756e74436f6e74726f6c6c65723a2063616e6e6f7420736574206163636f756e7420726567697374727920746f20307830496e697469616c697a61626c653a2074782e6f726967696e206973206e6f742074686520696e697469616c697a65724163636f756e74436f6e74726f6c6c65723a2063616e6e6f742073656e6420746f2030783047617465776179526563697069656e743a20696e76616c6964206d73672e646174614163636f756e74436f6e74726f6c6c65723a206163636f756e7420616c7265616479207570677261646564506572736f6e616c4163636f756e7452656769737472793a2063616e6e6f742072656d6f76652073656c66477561726465643a2074782e6f726967696e206973206e6f742074686520677561726469616e506572736f6e616c4163636f756e7452656769737472793a204552433230546f6b656e207472616e736665722072657665727465644163636f756e74436f6e74726f6c6c65723a2063616e6e6f742073656e6420746f20636f6e74726f6c6c6572506572736f6e616c4163636f756e7452656769737472793a206f776e657220616c726561647920657869737473506572736f6e616c4163636f756e7452656769737472793a2063616e6e6f742061646420307830206f776e6572a164736f6c634300060c000a",
  "linkReferences": {},
  "deployedLinkReferences": {}
}