{
  "_format": "hh-sol-artifact-1",
  "contractName": "PersonalAccountImplementationV1",
  "sourceName": "src/personal/PersonalAccountImplementationV1.sol",
  "abi": [
    {
      "inputs": [],
      "stateMutability": "nonpayable",
      "type": "constructor"
    },
    {
      "anonymous": false,
      "inputs": [
        {
          "indexed": false,
          "internalType": "address",
          "name": "initializer",
          "type": "address"
        }
      ],
      "name": "Initialized",
      "type": "event"
    },
    {
      "inputs": [
        {
          "internalType": "bytes8",
          "name": "c__305923d6",
          "type": "bytes8"
        }
      ],
      "name": "c_305923d6",
      "outputs": [],
      "stateMutability": "pure",
      "type": "function"
    },
    {
      "inputs": [
        {
          "internalType": "bytes8",
          "name": "c__3add61c5",
          "type": "bytes8"
        }
      ],
      "name": "c_3add61c5",
      "outputs": [],
      "stateMutability": "pure",
      "type": "function"
    },
    {
      "inputs": [
        {
          "internalType": "bytes8",
          "name": "c__c0828b70",
          "type": "bytes8"
        }
      ],
      "name": "c_c0828b70",
      "outputs": [],
      "stateMutability": "pure",
      "type": "function"
    },
    {
      "inputs": [
        {
          "internalType": "bytes8",
          "name": "c__d5fdf5ee",
          "type": "bytes8"
        }
      ],
      "name": "c_d5fdf5ee",
      "outputs": [],
      "stateMutability": "pure",
      "type": "function"
    },
    {
      "inputs": [
        {
          "internalType": "bytes8",
          "name": "c__305923d6",
          "type": "bytes8"
        }
      ],
      "name": "c_false305923d6",
      "outputs": [
        {
          "internalType": "bool",
          "name": "",
          "type": "bool"
        }
      ],
      "stateMutability": "pure",
      "type": "function"
    },
    {
      "inputs": [
        {
          "internalType": "bytes8",
          "name": "c__3add61c5",
          "type": "bytes8"
        }
      ],
      "name": "c_false3add61c5",
      "outputs": [
        {
          "internalType": "bool",
          "name": "",
          "type": "bool"
        }
      ],
      "stateMutability": "pure",
      "type": "function"
    },
    {
      "inputs": [
        {
          "internalType": "bytes8",
          "name": "c__c0828b70",
          "type": "bytes8"
        }
      ],
      "name": "c_falsec0828b70",
      "outputs": [
        {
          "internalType": "bool",
          "name": "",
          "type": "bool"
        }
      ],
      "stateMutability": "pure",
      "type": "function"
    },
    {
      "inputs": [
        {
          "internalType": "bytes8",
          "name": "c__d5fdf5ee",
          "type": "bytes8"
        }
      ],
      "name": "c_falsed5fdf5ee",
      "outputs": [
        {
          "internalType": "bool",
          "name": "",
          "type": "bool"
        }
      ],
      "stateMutability": "pure",
      "type": "function"
    },
    {
      "inputs": [
        {
          "internalType": "bytes8",
          "name": "c__305923d6",
          "type": "bytes8"
        }
      ],
      "name": "c_true305923d6",
      "outputs": [
        {
          "internalType": "bool",
          "name": "",
          "type": "bool"
        }
      ],
      "stateMutability": "pure",
      "type": "function"
    },
    {
      "inputs": [
        {
          "internalType": "bytes8",
          "name": "c__3add61c5",
          "type": "bytes8"
        }
      ],
      "name": "c_true3add61c5",
      "outputs": [
        {
          "internalType": "bool",
          "name": "",
          "type": "bool"
        }
      ],
      "stateMutability": "pure",
      "type": "function"
    },
    {
      "inputs": [
        {
          "internalType": "bytes8",
          "name": "c__c0828b70",
          "type": "bytes8"
        }
      ],
      "name": "c_truec0828b70",
      "outputs": [
        {
          "internalType": "bool",
          "name": "",
          "type": "bool"
        }
      ],
      "stateMutability": "pure",
      "type": "function"
    },
    {
      "inputs": [
        {
          "internalType": "bytes8",
          "name": "c__d5fdf5ee",
          "type": "bytes8"
        }
      ],
      "name": "c_trued5fdf5ee",
      "outputs": [
        {
          "internalType": "bool",
          "name": "",
          "type": "bool"
        }
      ],
      "stateMutability": "pure",
      "type": "function"
    },
    {
      "inputs": [
        {
          "internalType": "bytes32",
          "name": "interfaceHash",
          "type": "bytes32"
        },
        {
          "internalType": "address",
          "name": "addr",
          "type": "address"
        }
      ],
      "name": "canImplementInterfaceForAddress",
      "outputs": [
        {
          "internalType": "bytes32",
          "name": "",
          "type": "bytes32"
        }
      ],
      "stateMutability": "view",
      "type": "function"
    },
    {
      "inputs": [
        {
          "internalType": "address",
          "name": "registry_",
          "type": "address"
        }
      ],
      "name": "initialize",
      "outputs": [],
      "stateMutability": "nonpayable",
      "type": "function"
    },
    {
      "inputs": [],
      "name": "isInitialized",
      "outputs": [
        {
          "internalType": "bool",
          "name": "",
          "type": "bool"
        }
      ],
      "stateMutability": "view",
      "type": "function"
    },
    {
      "inputs": [
        {
          "internalType": "bytes32",
          "name": "messageHash",
          "type": "bytes32"
        },
        {
          "internalType": "bytes",
          "name": "signature",
          "type": "bytes"
        }
      ],
      "name": "isValidSignature",
      "outputs": [
        {
          "internalType": "bytes4",
          "name": "",
          "type": "bytes4"
        }
      ],
      "stateMutability": "view",
      "type": "function"
    },
    {
      "inputs": [
        {
          "internalType": "bytes",
          "name": "message",
          "type": "bytes"
        },
        {
          "internalType": "bytes",
          "name": "signature",
          "type": "bytes"
        }
      ],
      "name": "isValidSignature",
      "outputs": [
        {
          "internalType": "bytes4",
          "name": "",
          "type": "bytes4"
        }
      ],
      "stateMutability": "view",
      "type": "function"
    },
    {
      "inputs": [
        {
          "internalType": "address",
          "name": "",
          "type": "address"
        },
        {
          "internalType": "address",
          "name": "",
          "type": "address"
        },
        {
          "internalType": "uint256",
          "name": "",
          "type": "uint256"
        },
        {
          "internalType": "uint256",
          "name": "",
          "type": "uint256"
        },
        {
          "internalType": "bytes",
          "name": "",
          "type": "bytes"
        }
      ],
      "name": "onERC1155Received",
      "outputs": [
        {
          "internalType": "bytes4",
          "name": "",
          "type": "bytes4"
        }
      ],
      "stateMutability": "pure",
      "type": "function"
    },
    {
      "inputs": [
        {
          "internalType": "address",
          "name": "",
          "type": "address"
        },
        {
          "internalType": "address",
          "name": "",
          "type": "address"
        },
        {
          "internalType": "uint256",
          "name": "",
          "type": "uint256"
        },
        {
          "internalType": "bytes",
          "name": "",
          "type": "bytes"
        }
      ],
      "name": "onERC721Received",
      "outputs": [
        {
          "internalType": "bytes4",
          "name": "",
          "type": "bytes4"
        }
      ],
      "stateMutability": "pure",
      "type": "function"
    },
    {
      "inputs": [],
      "name": "registry",
      "outputs": [
        {
          "internalType": "address",
          "name": "",
          "type": "address"
        }
      ],
      "stateMutability": "view",
      "type": "function"
    },
    {
      "inputs": [
        {
          "internalType": "address",
          "name": "",
          "type": "address"
        },
        {
          "internalType": "address",
          "name": "",
          "type": "address"
        },
        {
          "internalType": "address",
          "name": "",
          "type": "address"
        },
        {
          "internalType": "uint256",
          "name": "",
          "type": "uint256"
        },
        {
          "internalType": "bytes",
          "name": "",
          "type": "bytes"
        },
        {
          "internalType": "bytes",
          "name": "",
          "type": "bytes"
        }
      ],
      "name": "tokensReceived",
      "outputs": [],
      "stateMutability": "pure",
      "type": "function"
    }
  ],
  "bytecode": "0x608060405234801561001057600080fd5b5061002b676f8209dd9a63129460c01b6100be60201b60201c565b610045675c69c8f577e02d3d60c01b6100be60201b60201c565b326000806101000a81548173ffffffffffffffffffffffffffffffffffffffff021916908373ffffffffffffffffffffffffffffffffffffffff16021790555061009f6725973a7bbd989ab460c01b6100c160201b60201c565b6100b967cc746c54cb936c6460c01b6100c460201b60201c565b6100c7565b50565b50565b50565b61153f806100d66000396000f3fe608060405234801561001057600080fd5b50600436106101365760003560e01c8063392e53cd116100b85780638f27e6b61161007c5780638f27e6b6146108a2578063aec6b680146108eb578063b49762a114610934578063c4d66de814610993578063ddd007be146109d7578063f23a6e6114610a3657610136565b8063392e53cd1461073157806345ebf7af146107515780634f952741146107b057806377dbbbcf1461080f5780637b1039991461086e57610136565b806318121646116100ff57806318121646146104c757806320c13b0b14610510578063249cb3fa146106115780632e6afd6e1461067357806334d23875146106d257610136565b806223de291461013b57806302f64b7c146102735780631262ed1c146102bc578063150b7a021461031b5780631626ba7e14610411575b600080fd5b610271600480360360c081101561015157600080fd5b81019080803573ffffffffffffffffffffffffffffffffffffffff169060200190929190803573ffffffffffffffffffffffffffffffffffffffff169060200190929190803573ffffffffffffffffffffffffffffffffffffffff16906020019092919080359060200190929190803590602001906401000000008111156101d857600080fd5b8201836020820111156101ea57600080fd5b8035906020019184600183028401116401000000008311171561020c57600080fd5b90919293919293908035906020019064010000000081111561022d57600080fd5b82018360208201111561023f57600080fd5b8035906020019184600183028401116401000000008311171561026157600080fd5b9091929391929390505050610b36565b005b6102ba6004803603602081101561028957600080fd5b81019080803577ffffffffffffffffffffffffffffffffffffffffffffffff19169060200190929190505050610b54565b005b610303600480360360208110156102d257600080fd5b81019080803577ffffffffffffffffffffffffffffffffffffffffffffffff19169060200190929190505050610b57565b60405180821515815260200191505060405180910390f35b6103dc6004803603608081101561033157600080fd5b81019080803573ffffffffffffffffffffffffffffffffffffffff169060200190929190803573ffffffffffffffffffffffffffffffffffffffff169060200190929190803590602001909291908035906020019064010000000081111561039857600080fd5b8201836020820111156103aa57600080fd5b803590602001918460018302840111640100000000831117156103cc57600080fd5b9091929391929390505050610b62565b60405180827bffffffffffffffffffffffffffffffffffffffffffffffffffffffff1916815260200191505060405180910390f35b6104926004803603604081101561042757600080fd5b81019080803590602001909291908035906020019064010000000081111561044e57600080fd5b82018360208201111561046057600080fd5b8035906020019184600183028401116401000000008311171561048257600080fd5b9091929391929390505050610bb3565b60405180827bffffffffffffffffffffffffffffffffffffffffffffffffffffffff1916815260200191505060405180910390f35b61050e600480360360208110156104dd57600080fd5b81019080803577ffffffffffffffffffffffffffffffffffffffffffffffff19169060200190929190505050610d8a565b005b6105dc6004803603604081101561052657600080fd5b810190808035906020019064010000000081111561054357600080fd5b82018360208201111561055557600080fd5b8035906020019184600183028401116401000000008311171561057757600080fd5b90919293919293908035906020019064010000000081111561059857600080fd5b8201836020820111156105aa57600080fd5b803590602001918460018302840111640100000000831117156105cc57600080fd5b9091929391929390505050610d8d565b60405180827bffffffffffffffffffffffffffffffffffffffffffffffffffffffff1916815260200191505060405180910390f35b61065d6004803603604081101561062757600080fd5b8101908080359060200190929190803573ffffffffffffffffffffffffffffffffffffffff169060200190929190505050610f91565b6040518082815260200191505060405180910390f35b6106ba6004803603602081101561068957600080fd5b81019080803577ffffffffffffffffffffffffffffffffffffffffffffffff1916906020019092919050505061113b565b60405180821515815260200191505060405180910390f35b610719600480360360208110156106e857600080fd5b81019080803577ffffffffffffffffffffffffffffffffffffffffffffffff19169060200190929190505050611142565b60405180821515815260200191505060405180910390f35b61073961114d565b60405180821515815260200191505060405180910390f35b6107986004803603602081101561076757600080fd5b81019080803577ffffffffffffffffffffffffffffffffffffffffffffffff191690602001909291905050506111e0565b60405180821515815260200191505060405180910390f35b6107f7600480360360208110156107c657600080fd5b81019080803577ffffffffffffffffffffffffffffffffffffffffffffffff191690602001909291905050506111e7565b60405180821515815260200191505060405180910390f35b6108566004803603602081101561082557600080fd5b81019080803577ffffffffffffffffffffffffffffffffffffffffffffffff191690602001909291905050506111ee565b60405180821515815260200191505060405180910390f35b6108766111f9565b604051808273ffffffffffffffffffffffffffffffffffffffff16815260200191505060405180910390f35b6108e9600480360360208110156108b857600080fd5b81019080803577ffffffffffffffffffffffffffffffffffffffffffffffff1916906020019092919050505061121f565b005b6109326004803603602081101561090157600080fd5b81019080803577ffffffffffffffffffffffffffffffffffffffffffffffff19169060200190929190505050611222565b005b61097b6004803603602081101561094a57600080fd5b81019080803577ffffffffffffffffffffffffffffffffffffffffffffffff19169060200190929190505050611225565b60405180821515815260200191505060405180910390f35b6109d5600480360360208110156109a957600080fd5b81019080803573ffffffffffffffffffffffffffffffffffffffff16906020019092919050505061122c565b005b610a1e600480360360208110156109ed57600080fd5b81019080803577ffffffffffffffffffffffffffffffffffffffffffffffff191690602001909291905050506114a6565b60405180821515815260200191505060405180910390f35b610b01600480360360a0811015610a4c57600080fd5b81019080803573ffffffffffffffffffffffffffffffffffffffff169060200190929190803573ffffffffffffffffffffffffffffffffffffffff169060200190929190803590602001909291908035906020019092919080359060200190640100000000811115610abd57600080fd5b820183602082011115610acf57600080fd5b80359060200191846001830284011164010000000083111715610af157600080fd5b90919293919293905050506114b1565b60405180827bffffffffffffffffffffffffffffffffffffffffffffffffffffffff1916815260200191505060405180910390f35b610b4a67627d922f412d8e0a60c01b610b54565b5050505050505050565b50565b600060019050919050565b6000610b786740b60389693f60e660c01b610b54565b610b8c67285bd88d8bb4894360c01b610b54565b610ba0670ea1e24b258f8f7f60c01b610b54565b63150b7a0260e01b905095945050505050565b6000610bc967735a82bc0140504760c01b610b54565b610bdd67aa07e8876967819b60c01b610b54565b610bf167e670250c14dafce960c01b610b54565b600160009054906101000a900473ffffffffffffffffffffffffffffffffffffffff1673ffffffffffffffffffffffffffffffffffffffff1663e1e382ce308686866040518563ffffffff1660e01b8152600401808573ffffffffffffffffffffffffffffffffffffffff168152602001848152602001806020018281038252848482818152602001925080828437600081840152601f19601f8201169050808301925050509550505050505060206040518083038186803b158015610cb657600080fd5b505afa158015610cca573d6000803e3d6000fd5b505050506040513d6020811015610ce057600080fd5b81019080805190602001909291905050508015610d0d5750610d0c67cc443ef738b8339860c01b6111ee565b5b80610d285750610d27670d0d3e54713cea3e60c01b6111e0565b5b610d395763ffffffff60e01b610d81565b60405160200180807f697356616c69645369676e617475726528627974657333322c62797465732900815250601f019050604051602081830303815290604052805190602001205b90509392505050565b50565b6000610da367aee4f71ab6710dfc60c01b610b54565b610db76723de7508dc192f0260c01b610b54565b610dcb67b843cc764852707d60c01b610b54565b600160009054906101000a900473ffffffffffffffffffffffffffffffffffffffff1673ffffffffffffffffffffffffffffffffffffffff1663124e9eb330878787876040518663ffffffff1660e01b8152600401808673ffffffffffffffffffffffffffffffffffffffff16815260200180602001806020018381038352878782818152602001925080828437600081840152601f19601f8201169050808301925050508381038252858582818152602001925080828437600081840152601f19601f82011690508083019250505097505050505050505060206040518083038186803b158015610ebc57600080fd5b505afa158015610ed0573d6000803e3d6000fd5b505050506040513d6020811015610ee657600080fd5b81019080805190602001909291905050508015610f135750610f1267c7f55395d739033960c01b6111ee565b5b80610f2e5750610f2d679450ebdc5b478b8860c01b6111e0565b5b610f3f5763ffffffff60e01b610f87565b60405160200180807f697356616c69645369676e61747572652862797465732c627974657329000000815250601d019050604051602081830303815290604052805190602001205b9050949350505050565b6000610fa767dbdfe593d03a89b760c01b610b54565b610fbb678932ff1c0478897660c01b610b54565b610fcf67dc7ce7fdcf1c2df260c01b610b54565b6000610fe5676f51de635eb2abc160c01b610b54565b610ff967c1e91ae43454b43060c01b610b54565b60405160200180807f455243373737546f6b656e73526563697069656e7400000000000000000000008152506015019050604051602081830303815290604052805190602001208414801561107957503073ffffffffffffffffffffffffffffffffffffffff168373ffffffffffffffffffffffffffffffffffffffff16145b156110f45761109267682f11ebc579043c60c01b610b54565b6110a66783b1bc1234cef4b560c01b610b54565b60405160200180807f455243313832305f4143434550545f4d414749430000000000000000000000008152506014019050604051602081830303815290604052805190602001209050611109565b611108672197a919fc790bc660c01b610b54565b5b61111d6722f48a9875509f5860c01b610b54565b61113167edddbe97e823fa0c60c01b610b54565b8091505092915050565b6000919050565b600060019050919050565b60006111636740898dd11e0e3e1060c01b610d8a565b61117767730b1b0a3e6f252b60c01b610d8a565b61118b670e31b01a086623bd60c01b610d8a565b600073ffffffffffffffffffffffffffffffffffffffff1660008054906101000a900473ffffffffffffffffffffffffffffffffffffffff1673ffffffffffffffffffffffffffffffffffffffff1614905090565b6000919050565b6000919050565b600060019050919050565b600160009054906101000a900473ffffffffffffffffffffffffffffffffffffffff1681565b50565b50565b6000919050565b611240678b2fd1f12214671660c01b610b54565b611254676c8c9b71ba9d910f60c01b610d8a565b61126867f602580a42808a9160c01b610d8a565b61127c6707611d848241fec060c01b610d8a565b6112906709ab29cd8b2d771d60c01b610d8a565b60008054906101000a900473ffffffffffffffffffffffffffffffffffffffff1673ffffffffffffffffffffffffffffffffffffffff163273ffffffffffffffffffffffffffffffffffffffff1614611334576040517f08c379a000000000000000000000000000000000000000000000000000000000815260040180806020018281038252602f815260200180611504602f913960400191505060405180910390fd5b6113486786eee1b275e13e0e60c01b610d8a565b61135c6715362633e8a83eba60c01b610d8a565b60008060006101000a81548173ffffffffffffffffffffffffffffffffffffffff021916908373ffffffffffffffffffffffffffffffffffffffff1602179055506113b16738479f0480704ee560c01b610d8a565b6113c5673b9074cc0535cdbe60c01b610b54565b6113d96726485c791d23438060c01b610b54565b6113ed67d3febfc3a12c1c2460c01b610b54565b80600160006101000a81548173ffffffffffffffffffffffffffffffffffffffff021916908373ffffffffffffffffffffffffffffffffffffffff160217905550611442675d2d15dcccb96a8860c01b610d8a565b6114566763708511b840b29260c01b610d8a565b7f908408e307fc569b417f6cbec5d5a06f44a0a505ac0479b47d421a4b2fd6a1e632604051808273ffffffffffffffffffffffffffffffffffffffff16815260200191505060405180910390a150565b600060019050919050565b60006114c7675022687839d6be4d60c01b610b54565b6114db67c0862f8487bdabbe60c01b610b54565b6114ef679bb879bbbdcbd79c60c01b610b54565b63f23a6e6160e01b9050969550505050505056fe496e697469616c697a61626c653a2074782e6f726967696e206973206e6f742074686520696e697469616c697a6572a164736f6c634300060c000a",
  "linkReferences": {},
  "deployedLinkReferences": {}
}