{
  "_format": "hh-sol-artifact-1",
  "contractName": "PersonalAccountRegistry",
  "sourceName": "src/personal/PersonalAccountRegistry.sol",
  "abi": [
    {
      "inputs": [],
      "stateMutability": "nonpayable",
      "type": "constructor"
    },
    {
      "anonymous": false,
      "inputs": [
        {
          "indexed": false,
          "internalType": "address",
          "name": "account",
          "type": "address"
        },
        {
          "indexed": false,
          "internalType": "address",
          "name": "beneficiary",
          "type": "address"
        },
        {
          "indexed": false,
          "internalType": "address",
          "name": "token",
          "type": "address"
        },
        {
          "indexed": false,
          "internalType": "uint256",
          "name": "value",
          "type": "uint256"
        }
      ],
      "name": "AccountCallRefunded",
      "type": "event"
    },
    {
      "anonymous": false,
      "inputs": [
        {
          "indexed": false,
          "internalType": "address",
          "name": "account",
          "type": "address"
        },
        {
          "indexed": false,
          "internalType": "address",
          "name": "accountImplementation",
          "type": "address"
        }
      ],
      "name": "AccountDeployed",
      "type": "event"
    },
    {
      "anonymous": false,
      "inputs": [
        {
          "indexed": false,
          "internalType": "address",
          "name": "accountImplementation",
          "type": "address"
        }
      ],
      "name": "AccountImplementationUpdated",
      "type": "event"
    },
    {
      "anonymous": false,
      "inputs": [
        {
          "indexed": false,
          "internalType": "address",
          "name": "account",
          "type": "address"
        },
        {
          "indexed": false,
          "internalType": "address",
          "name": "owner",
          "type": "address"
        }
      ],
      "name": "AccountOwnerAdded",
      "type": "event"
    },
    {
      "anonymous": false,
      "inputs": [
        {
          "indexed": false,
          "internalType": "address",
          "name": "account",
          "type": "address"
        },
        {
          "indexed": false,
          "internalType": "address",
          "name": "owner",
          "type": "address"
        }
      ],
      "name": "AccountOwnerRemoved",
      "type": "event"
    },
    {
      "anonymous": false,
      "inputs": [
        {
          "indexed": false,
          "internalType": "address",
          "name": "accountRegistry",
          "type": "address"
        }
      ],
      "name": "AccountRegistryUpdated",
      "type": "event"
    },
    {
      "anonymous": false,
      "inputs": [
        {
          "indexed": false,
          "internalType": "address",
          "name": "account",
          "type": "address"
        },
        {
          "indexed": false,
          "internalType": "address",
          "name": "to",
          "type": "address"
        },
        {
          "indexed": false,
          "internalType": "uint256",
          "name": "value",
          "type": "uint256"
        },
        {
          "indexed": false,
          "internalType": "bytes",
          "name": "data",
          "type": "bytes"
        },
        {
          "indexed": false,
          "internalType": "bytes",
          "name": "response",
          "type": "bytes"
        }
      ],
      "name": "AccountTransactionExecuted",
      "type": "event"
    },
    {
      "anonymous": false,
      "inputs": [
        {
          "indexed": false,
          "internalType": "address",
          "name": "account",
          "type": "address"
        },
        {
          "indexed": false,
          "internalType": "address",
          "name": "accountImplementation",
          "type": "address"
        }
      ],
      "name": "AccountUpgraded",
      "type": "event"
    },
    {
      "anonymous": false,
      "inputs": [
        {
          "indexed": false,
          "internalType": "address",
          "name": "sender",
          "type": "address"
        },
        {
          "indexed": false,
          "internalType": "address",
          "name": "guardian",
          "type": "address"
        }
      ],
      "name": "GuardianAdded",
      "type": "event"
    },
    {
      "anonymous": false,
      "inputs": [
        {
          "indexed": false,
          "internalType": "address",
          "name": "sender",
          "type": "address"
        },
        {
          "indexed": false,
          "internalType": "address",
          "name": "guardian",
          "type": "address"
        }
      ],
      "name": "GuardianRemoved",
      "type": "event"
    },
    {
      "anonymous": false,
      "inputs": [
        {
          "indexed": false,
          "internalType": "address",
          "name": "initializer",
          "type": "address"
        }
      ],
      "name": "Initialized",
      "type": "event"
    },
    {
      "inputs": [],
      "name": "accountImplementation",
      "outputs": [
        {
          "internalType": "address",
          "name": "",
          "type": "address"
        }
      ],
      "stateMutability": "view",
      "type": "function"
    },
    {
      "inputs": [],
      "name": "accountRegistry",
      "outputs": [
        {
          "internalType": "address",
          "name": "",
          "type": "address"
        }
      ],
      "stateMutability": "view",
      "type": "function"
    },
    {
      "inputs": [
        {
          "internalType": "address",
          "name": "account",
          "type": "address"
        },
        {
          "internalType": "address",
          "name": "owner",
          "type": "address"
        }
      ],
      "name": "addAccountOwner",
      "outputs": [],
      "stateMutability": "nonpayable",
      "type": "function"
    },
    {
      "inputs": [
        {
          "internalType": "address",
          "name": "guardian",
          "type": "address"
        }
      ],
      "name": "addGuardian",
      "outputs": [],
      "stateMutability": "nonpayable",
      "type": "function"
    },
    {
      "inputs": [
        {
          "internalType": "address",
          "name": "saltOwner",
          "type": "address"
        }
      ],
      "name": "computeAccountAddress",
      "outputs": [
        {
          "internalType": "address",
          "name": "",
          "type": "address"
        }
      ],
      "stateMutability": "view",
      "type": "function"
    },
    {
      "inputs": [
        {
          "internalType": "address",
          "name": "account",
          "type": "address"
        }
      ],
      "name": "deployAccount",
      "outputs": [],
      "stateMutability": "nonpayable",
      "type": "function"
    },
    {
      "inputs": [
        {
          "internalType": "address",
          "name": "account",
          "type": "address"
        },
        {
          "internalType": "address",
          "name": "to",
          "type": "address"
        },
        {
          "internalType": "uint256",
          "name": "value",
          "type": "uint256"
        },
        {
          "internalType": "bytes",
          "name": "data",
          "type": "bytes"
        }
      ],
      "name": "executeAccountTransaction",
      "outputs": [],
      "stateMutability": "nonpayable",
      "type": "function"
    },
    {
      "inputs": [],
      "name": "gateway",
      "outputs": [
        {
          "internalType": "address",
          "name": "",
          "type": "address"
        }
      ],
      "stateMutability": "view",
      "type": "function"
    },
    {
      "inputs": [
        {
          "internalType": "address[]",
          "name": "guardians_",
          "type": "address[]"
        },
        {
          "internalType": "address",
          "name": "accountImplementation_",
          "type": "address"
        },
        {
          "internalType": "address",
          "name": "gateway_",
          "type": "address"
        }
      ],
      "name": "initialize",
      "outputs": [],
      "stateMutability": "nonpayable",
      "type": "function"
    },
    {
      "inputs": [
        {
          "internalType": "address",
          "name": "account",
          "type": "address"
        }
      ],
      "name": "isAccountDeployed",
      "outputs": [
        {
          "internalType": "bool",
          "name": "",
          "type": "bool"
        }
      ],
      "stateMutability": "view",
      "type": "function"
    },
    {
      "inputs": [
        {
          "internalType": "address",
          "name": "guardian",
          "type": "address"
        }
      ],
      "name": "isGuardian",
      "outputs": [
        {
          "internalType": "bool",
          "name": "",
          "type": "bool"
        }
      ],
      "stateMutability": "view",
      "type": "function"
    },
    {
      "inputs": [],
      "name": "isInitialized",
      "outputs": [
        {
          "internalType": "bool",
          "name": "",
          "type": "bool"
        }
      ],
      "stateMutability": "view",
      "type": "function"
    },
    {
      "inputs": [
        {
          "internalType": "address",
          "name": "account",
          "type": "address"
        },
        {
          "internalType": "bytes",
          "name": "message",
          "type": "bytes"
        },
        {
          "internalType": "bytes",
          "name": "signature",
          "type": "bytes"
        }
      ],
      "name": "isValidAccountSignature",
      "outputs": [
        {
          "internalType": "bool",
          "name": "",
          "type": "bool"
        }
      ],
      "stateMutability": "view",
      "type": "function"
    },
    {
      "inputs": [
        {
          "internalType": "address",
          "name": "account",
          "type": "address"
        },
        {
          "internalType": "bytes32",
          "name": "messageHash",
          "type": "bytes32"
        },
        {
          "internalType": "bytes",
          "name": "signature",
          "type": "bytes"
        }
      ],
      "name": "isValidAccountSignature",
      "outputs": [
        {
          "internalType": "bool",
          "name": "",
          "type": "bool"
        }
      ],
      "stateMutability": "view",
      "type": "function"
    },
    {
      "inputs": [
        {
          "internalType": "address",
          "name": "account",
          "type": "address"
        },
        {
          "internalType": "address",
          "name": "token",
          "type": "address"
        },
        {
          "internalType": "uint256",
          "name": "value",
          "type": "uint256"
        }
      ],
      "name": "refundAccountCall",
      "outputs": [],
      "stateMutability": "nonpayable",
      "type": "function"
    },
    {
      "inputs": [
        {
          "internalType": "address",
          "name": "account",
          "type": "address"
        },
        {
          "internalType": "address",
          "name": "owner",
          "type": "address"
        }
      ],
      "name": "removeAccountOwner",
      "outputs": [],
      "stateMutability": "nonpayable",
      "type": "function"
    },
    {
      "inputs": [
        {
          "internalType": "address",
          "name": "guardian",
          "type": "address"
        }
      ],
      "name": "removeGuardian",
      "outputs": [],
      "stateMutability": "nonpayable",
      "type": "function"
    },
    {
      "inputs": [
        {
          "internalType": "address",
          "name": "accountImplementation_",
          "type": "address"
        }
      ],
      "name": "upgrade",
      "outputs": [],
      "stateMutability": "nonpayable",
      "type": "function"
    },
    {
      "inputs": [
        {
          "internalType": "address",
          "name": "account",
          "type": "address"
        }
      ],
      "name": "upgradeAccount",
      "outputs": [],
      "stateMutability": "nonpayable",
      "type": "function"
    },
    {
      "inputs": [
        {
          "internalType": "address",
          "name": "account",
          "type": "address"
        },
        {
          "internalType": "address",
          "name": "owner",
          "type": "address"
        }
      ],
      "name": "verifyAccountOwner",
      "outputs": [
        {
          "internalType": "bool",
          "name": "",
          "type": "bool"
        }
      ],
      "stateMutability": "view",
      "type": "function"
    },
    {
      "inputs": [
        {
          "internalType": "address",
          "name": "account",
          "type": "address"
        },
        {
          "internalType": "address",
          "name": "owner",
          "type": "address"
        },
        {
          "internalType": "uint256",
          "name": "blockNumber",
          "type": "uint256"
        }
      ],
      "name": "verifyAccountOwnerAtBlock",
      "outputs": [
        {
          "internalType": "bool",
          "name": "",
          "type": "bool"
        }
      ],
      "stateMutability": "view",
      "type": "function"
    },
    {
      "inputs": [
        {
          "internalType": "bytes32",
          "name": "messageHash",
          "type": "bytes32"
        },
        {
          "internalType": "bytes",
          "name": "signature",
          "type": "bytes"
        }
      ],
      "name": "verifyGuardianSignature",
      "outputs": [
        {
          "internalType": "bool",
          "name": "",
          "type": "bool"
        }
      ],
      "stateMutability": "view",
      "type": "function"
    }
  ],
  "bytecode": "0x608060405234801561001057600080fd5b5032600360006101000a81548173ffffffffffffffffffffffffffffffffffffffff021916908373ffffffffffffffffffffffffffffffffffffffff16021790555061451a806100616000396000f3fe608060405234801561001057600080fd5b50600436106101425760003560e01c806390482d72116100b8578063d0f710d61161007c578063d0f710d61461075e578063da9fc1ae146107f7578063db63f5821461083b578063e1e382ce1461089f578063e5c7278f14610958578063f4876c7414610a1b57610142565b806390482d7214610545578063a526d83b146105fe578063bb890d3f14610642578063cade6a5d146106bc578063d089e11a1461072a57610142565b80631a8414031161010a5780631a841403146103515780633164b5e1146103bf57806334d323a414610419578063392e53cd1461049d57806343013c24146104bd578063714041561461050157610142565b80630900f010146101475780630c68ba211461018b57806311464fbe146101e5578063116191b614610219578063124e9eb31461024d575b600080fd5b6101896004803603602081101561015d57600080fd5b81019080803573ffffffffffffffffffffffffffffffffffffffff169060200190929190505050610a7f565b005b6101cd600480360360208110156101a157600080fd5b81019080803573ffffffffffffffffffffffffffffffffffffffff169060200190929190505050610b2e565b60405180821515815260200191505060405180910390f35b6101ed610b83565b604051808273ffffffffffffffffffffffffffffffffffffffff16815260200191505060405180910390f35b610221610ba9565b604051808273ffffffffffffffffffffffffffffffffffffffff16815260200191505060405180910390f35b6103396004803603606081101561026357600080fd5b81019080803573ffffffffffffffffffffffffffffffffffffffff169060200190929190803590602001906401000000008111156102a057600080fd5b8201836020820111156102b257600080fd5b803590602001918460018302840111640100000000831117156102d457600080fd5b9091929391929390803590602001906401000000008111156102f557600080fd5b82018360208201111561030757600080fd5b8035906020019184600183028401116401000000008311171561032957600080fd5b9091929391929390505050610bcf565b60405180821515815260200191505060405180910390f35b6103bd6004803603606081101561036757600080fd5b81019080803573ffffffffffffffffffffffffffffffffffffffff169060200190929190803573ffffffffffffffffffffffffffffffffffffffff16906020019092919080359060200190929190505050610c88565b005b610401600480360360208110156103d557600080fd5b81019080803573ffffffffffffffffffffffffffffffffffffffff169060200190929190505050610ef3565b60405180821515815260200191505060405180910390f35b6104856004803603606081101561042f57600080fd5b81019080803573ffffffffffffffffffffffffffffffffffffffff169060200190929190803573ffffffffffffffffffffffffffffffffffffffff16906020019092919080359060200190929190505050610f4c565b60405180821515815260200191505060405180910390f35b6104a561103a565b60405180821515815260200191505060405180910390f35b6104ff600480360360208110156104d357600080fd5b81019080803573ffffffffffffffffffffffffffffffffffffffff169060200190929190505050611092565b005b6105436004803603602081101561051757600080fd5b81019080803573ffffffffffffffffffffffffffffffffffffffff1690602001909291905050506110aa565b005b6105fc6004803603606081101561055b57600080fd5b810190808035906020019064010000000081111561057857600080fd5b82018360208201111561058a57600080fd5b803590602001918460208302840111640100000000831117156105ac57600080fd5b9091929391929390803573ffffffffffffffffffffffffffffffffffffffff169060200190929190803573ffffffffffffffffffffffffffffffffffffffff169060200190929190505050611370565b005b6106406004803603602081101561061457600080fd5b81019080803573ffffffffffffffffffffffffffffffffffffffff169060200190929190505050611508565b005b6106a46004803603604081101561065857600080fd5b81019080803573ffffffffffffffffffffffffffffffffffffffff169060200190929190803573ffffffffffffffffffffffffffffffffffffffff1690602001909291905050506115b5565b60405180821515815260200191505060405180910390f35b6106fe600480360360208110156106d257600080fd5b81019080803573ffffffffffffffffffffffffffffffffffffffff1690602001909291905050506115c9565b604051808273ffffffffffffffffffffffffffffffffffffffff16815260200191505060405180910390f35b6107326115db565b604051808273ffffffffffffffffffffffffffffffffffffffff16815260200191505060405180910390f35b6107df6004803603604081101561077457600080fd5b81019080803590602001909291908035906020019064010000000081111561079b57600080fd5b8201836020820111156107ad57600080fd5b803590602001918460018302840111640100000000831117156107cf57600080fd5b9091929391929390505050611601565b60405180821515815260200191505060405180910390f35b6108396004803603602081101561080d57600080fd5b81019080803573ffffffffffffffffffffffffffffffffffffffff16906020019092919050505061165a565b005b61089d6004803603604081101561085157600080fd5b81019080803573ffffffffffffffffffffffffffffffffffffffff169060200190929190803573ffffffffffffffffffffffffffffffffffffffff169060200190929190505050611670565b005b610940600480360360608110156108b557600080fd5b81019080803573ffffffffffffffffffffffffffffffffffffffff16906020019092919080359060200190929190803590602001906401000000008111156108fc57600080fd5b82018360208201111561090e57600080fd5b8035906020019184600183028401116401000000008311171561093057600080fd5b9091929391929390505050611905565b60405180821515815260200191505060405180910390f35b610a196004803603608081101561096e57600080fd5b81019080803573ffffffffffffffffffffffffffffffffffffffff169060200190929190803573ffffffffffffffffffffffffffffffffffffffff16906020019092919080359060200190929190803590602001906401000000008111156109d557600080fd5b8201836020820111156109e757600080fd5b80359060200191846001830284011164010000000083111715610a0957600080fd5b9091929391929390505050611971565b005b610a7d60048036036040811015610a3157600080fd5b81019080803573ffffffffffffffffffffffffffffffffffffffff169060200190929190803573ffffffffffffffffffffffffffffffffffffffff1690602001909291905050506119de565b005b6000803273ffffffffffffffffffffffffffffffffffffffff1673ffffffffffffffffffffffffffffffffffffffff16815260200190815260200160002060009054906101000a900460ff16610b20576040517f08c379a000000000000000000000000000000000000000000000000000000000815260040180806020018281038252602681526020018061442d6026913960400191505060405180910390fd5b610b2b816001611d0d565b50565b60008060008373ffffffffffffffffffffffffffffffffffffffff1673ffffffffffffffffffffffffffffffffffffffff16815260200190815260200160002060009054906101000a900460ff169050919050565b600260009054906101000a900473ffffffffffffffffffffffffffffffffffffffff1681565b600460009054906101000a900473ffffffffffffffffffffffffffffffffffffffff1681565b6000610c7d86610c7885858080601f016020809104026020016040519081016040528093929190818152602001838380828437600081840152601f19601f82011690508083019250505050505050610c6a89898080601f016020809104026020016040519081016040528093929190818152602001838380828437600081840152601f19601f82011690508083019250505050505050611e4e565b611fb790919063ffffffff16565b612087565b905095945050505050565b610c918361223e565b50610c9b83612685565b600073ffffffffffffffffffffffffffffffffffffffff168273ffffffffffffffffffffffffffffffffffffffff161415610d2f57610d29833283600067ffffffffffffffff81118015610cee57600080fd5b506040519080825280601f01601f191660200182016040528015610d215781602001600182028036833780820191505090505b506000612786565b50610e5d565b6060610dd38484600063a9059cbb60e01b3287604051602401808373ffffffffffffffffffffffffffffffffffffffff16815260200182815260200192505050604051602081830303815290604052907bffffffffffffffffffffffffffffffffffffffffffffffffffffffff19166020820180517bffffffffffffffffffffffffffffffffffffffffffffffffffffffff83818316178352505050506000612786565b9050600081511115610e5b57808060200190516020811015610df457600080fd5b8101908080519060200190929190505050610e5a576040517f08c379a00000000000000000000000000000000000000000000000000000000081526004018080602001828103825260358152602001806144536035913960400191505060405180910390fd5b5b505b7feb5511fbef89123439f12682f0e9d0fc9696913b26eee55434c77d62c30aa7ca83328484604051808573ffffffffffffffffffffffffffffffffffffffff1681526020018473ffffffffffffffffffffffffffffffffffffffff1681526020018373ffffffffffffffffffffffffffffffffffffffff16815260200182815260200194505050505060405180910390a1505050565b6000600560008373ffffffffffffffffffffffffffffffffffffffff1673ffffffffffffffffffffffffffffffffffffffff16815260200190815260200160002060000160009054906101000a900460ff169050919050565b60008060009050610f5d8585612087565b15610f6b576001905061102f565b61102c83600560008873ffffffffffffffffffffffffffffffffffffffff1673ffffffffffffffffffffffffffffffffffffffff16815260200190815260200160002060020160008773ffffffffffffffffffffffffffffffffffffffff1673ffffffffffffffffffffffffffffffffffffffff1681526020019081526020016000206040518060400160405290816000820160009054906101000a900460ff16151515158152602001600182015481525050612c5490919063ffffffff16565b90505b809150509392505050565b60008073ffffffffffffffffffffffffffffffffffffffff16600360009054906101000a900473ffffffffffffffffffffffffffffffffffffffff1673ffffffffffffffffffffffffffffffffffffffff1614905090565b61109b8161223e565b506110a7816001612ca3565b50565b6000803273ffffffffffffffffffffffffffffffffffffffff1673ffffffffffffffffffffffffffffffffffffffff16815260200190815260200160002060009054906101000a900460ff1661114b576040517f08c379a000000000000000000000000000000000000000000000000000000000815260040180806020018281038252602681526020018061442d6026913960400191505060405180910390fd5b8073ffffffffffffffffffffffffffffffffffffffff163273ffffffffffffffffffffffffffffffffffffffff1614156111ed576040517f08c379a000000000000000000000000000000000000000000000000000000000815260040180806020018281038252601b8152602001807f477561726465643a2063616e6e6f742072656d6f76652073656c66000000000081525060200191505060405180910390fd5b6000808273ffffffffffffffffffffffffffffffffffffffff1673ffffffffffffffffffffffffffffffffffffffff16815260200190815260200160002060009054906101000a900460ff166112ab576040517f08c379a000000000000000000000000000000000000000000000000000000000815260040180806020018281038252601f8152602001807f477561726465643a20677561726469616e20646f65736e27742065786973740081525060200191505060405180910390fd5b60008060008373ffffffffffffffffffffffffffffffffffffffff1673ffffffffffffffffffffffffffffffffffffffff16815260200190815260200160002060006101000a81548160ff0219169083151502179055507fee943cdb81826d5909c559c6b1ae6908fcaf2dbc16c4b730346736b486283e8b3282604051808373ffffffffffffffffffffffffffffffffffffffff1681526020018273ffffffffffffffffffffffffffffffffffffffff1681526020019250505060405180910390a150565b600360009054906101000a900473ffffffffffffffffffffffffffffffffffffffff1673ffffffffffffffffffffffffffffffffffffffff163273ffffffffffffffffffffffffffffffffffffffff1614611416576040517f08c379a000000000000000000000000000000000000000000000000000000000815260040180806020018281038252602f815260200180614361602f913960400191505060405180910390fd5b6000600360006101000a81548173ffffffffffffffffffffffffffffffffffffffff021916908373ffffffffffffffffffffffffffffffffffffffff1602179055506114a2848480806020026020016040519081016040528093929190818152602001838360200280828437600081840152601f19601f82011690508083019250505050505050612f05565b6114ac3083612f5d565b6114b581612f77565b7f908408e307fc569b417f6cbec5d5a06f44a0a505ac0479b47d421a4b2fd6a1e632604051808273ffffffffffffffffffffffffffffffffffffffff16815260200191505060405180910390a150505050565b6000803273ffffffffffffffffffffffffffffffffffffffff1673ffffffffffffffffffffffffffffffffffffffff16815260200190815260200160002060009054906101000a900460ff166115a9576040517f08c379a000000000000000000000000000000000000000000000000000000000815260040180806020018281038252602681526020018061442d6026913960400191505060405180910390fd5b6115b281612fbb565b50565b60006115c18383612087565b905092915050565b60006115d4826131e2565b9050919050565b600160009054906101000a900473ffffffffffffffffffffffffffffffffffffffff1681565b60006116518484848080601f016020809104026020016040519081016040528093929190818152602001838380828437600081840152601f19601f82011690508083019250505050505050613238565b90509392505050565b6116638161223e565b5061166d81612685565b50565b600061167b8361223e565b90508073ffffffffffffffffffffffffffffffffffffffff168273ffffffffffffffffffffffffffffffffffffffff161415611702576040517f08c379a000000000000000000000000000000000000000000000000000000000815260040180806020018281038252602b815260200180614402602b913960400191505060405180910390fd5b6117b9600560008573ffffffffffffffffffffffffffffffffffffffff1673ffffffffffffffffffffffffffffffffffffffff16815260200190815260200160002060020160008473ffffffffffffffffffffffffffffffffffffffff1673ffffffffffffffffffffffffffffffffffffffff1681526020019081526020016000206040518060400160405290816000820160009054906101000a900460ff161515151581526020016001820154815250506132a5565b61180e576040517f08c379a000000000000000000000000000000000000000000000000000000000815260040180806020018281038252602c815260200180614300602c913960400191505060405180910390fd5b43600560008573ffffffffffffffffffffffffffffffffffffffff1673ffffffffffffffffffffffffffffffffffffffff16815260200190815260200160002060020160008473ffffffffffffffffffffffffffffffffffffffff1673ffffffffffffffffffffffffffffffffffffffff168152602001908152602001600020600101819055507f1ce3cbbc43ee231e5b950332f2b0b9dd7d349291a3ee411ce5c5c7ed745661bb8383604051808373ffffffffffffffffffffffffffffffffffffffff1681526020018273ffffffffffffffffffffffffffffffffffffffff1681526020019250505060405180910390a1505050565b60006119678561196285858080601f016020809104026020016040519081016040528093929190818152602001838380828437600081840152601f19601f8201169050808301925050505050505087611fb790919063ffffffff16565b612087565b9050949350505050565b61197a8561223e565b5061198485612685565b6119d685858585858080601f016020809104026020016040519081016040528093929190818152602001838380828437600081840152601f19601f820116905080830192505050505050506001612786565b505050505050565b6119e78261223e565b50600073ffffffffffffffffffffffffffffffffffffffff168173ffffffffffffffffffffffffffffffffffffffff161415611a6e576040517f08c379a000000000000000000000000000000000000000000000000000000000815260040180806020018281038252602d8152602001806144e1602d913960400191505060405180910390fd5b611b25600560008473ffffffffffffffffffffffffffffffffffffffff1673ffffffffffffffffffffffffffffffffffffffff16815260200190815260200160002060020160008373ffffffffffffffffffffffffffffffffffffffff1673ffffffffffffffffffffffffffffffffffffffff1681526020019081526020016000206040518060400160405290816000820160009054906101000a900460ff161515151581526020016001820154815250506132a5565b15611b7b576040517f08c379a000000000000000000000000000000000000000000000000000000000815260040180806020018281038252602d8152602001806144b4602d913960400191505060405180910390fd5b6001600560008473ffffffffffffffffffffffffffffffffffffffff1673ffffffffffffffffffffffffffffffffffffffff16815260200190815260200160002060020160008373ffffffffffffffffffffffffffffffffffffffff1673ffffffffffffffffffffffffffffffffffffffff16815260200190815260200160002060000160006101000a81548160ff0219169083151502179055506000600560008473ffffffffffffffffffffffffffffffffffffffff1673ffffffffffffffffffffffffffffffffffffffff16815260200190815260200160002060020160008373ffffffffffffffffffffffffffffffffffffffff1673ffffffffffffffffffffffffffffffffffffffff168152602001908152602001600020600101819055507f27e282f7712c5b4617277759c834b86d163dfc1aad25c8c3c5926a1c9e5644688282604051808373ffffffffffffffffffffffffffffffffffffffff1681526020018273ffffffffffffffffffffffffffffffffffffffff1681526020019250505060405180910390a15050565b600073ffffffffffffffffffffffffffffffffffffffff168273ffffffffffffffffffffffffffffffffffffffff161415611d93576040517f08c379a000000000000000000000000000000000000000000000000000000000815260040180806020018281038252603b815260200180614267603b913960400191505060405180910390fd5b81600260006101000a81548173ffffffffffffffffffffffffffffffffffffffff021916908373ffffffffffffffffffffffffffffffffffffffff1602179055508015611e4a577f70d9f5a076620216a6050e493f3ce69749de0b68fa4b839ba2518660ba8b9cf0600260009054906101000a900473ffffffffffffffffffffffffffffffffffffffff16604051808273ffffffffffffffffffffffffffffffffffffffff16815260200191505060405180910390a15b5050565b6000611e5a82516132b8565b826040516020018082805190602001908083835b60208310611e915780518252602082019150602081019050602083039250611e6e565b6001836020036101000a03801982511681845116808217855250505050505090500191505060405160208183030381529060405260405160200180807f19457468657265756d205369676e6564204d6573736167653a0a000000000000815250601a0183805190602001908083835b60208310611f235780518252602082019150602081019050602083039250611f00565b6001836020036101000a03801982511681845116808217855250505050505090500182805190602001908083835b60208310611f745780518252602082019150602081019050602083039250611f51565b6001836020036101000a03801982511681845116808217855250505050505090500192505050604051602081830303815290604052805190602001209050919050565b6000806000905060418351141561207d5760008060006020860151925060408601519150606086015160001a9050601b8160ff161015611ff857601b810190505b601b8160ff16148061200d5750601c8160ff16145b156120795760018782858560405160008152602001604052604051808581526020018460ff1681526020018381526020018281526020019450505050506020604051602081039080840390855afa15801561206c573d6000803e3d6000fd5b5050506020604051035193505b5050505b8091505092915050565b600080600560008573ffffffffffffffffffffffffffffffffffffffff1673ffffffffffffffffffffffffffffffffffffffff16815260200190815260200160002060020160008473ffffffffffffffffffffffffffffffffffffffff1673ffffffffffffffffffffffffffffffffffffffff16815260200190815260200160002060000160009054906101000a900460ff16156121ac576000600560008673ffffffffffffffffffffffffffffffffffffffff1673ffffffffffffffffffffffffffffffffffffffff16815260200190815260200160002060020160008573ffffffffffffffffffffffffffffffffffffffff1673ffffffffffffffffffffffffffffffffffffffff16815260200190815260200160002060010154149050612234565b6000801b600560008673ffffffffffffffffffffffffffffffffffffffff1673ffffffffffffffffffffffffffffffffffffffff16815260200190815260200160002060010154141561223357612202836131e2565b73ffffffffffffffffffffffffffffffffffffffff168473ffffffffffffffffffffffffffffffffffffffff161490505b5b8091505092915050565b600080612249613448565b9050600560008473ffffffffffffffffffffffffffffffffffffffff1673ffffffffffffffffffffffffffffffffffffffff16815260200190815260200160002060020160008273ffffffffffffffffffffffffffffffffffffffff1673ffffffffffffffffffffffffffffffffffffffff16815260200190815260200160002060000160009054906101000a900460ff16156123c0576000600560008573ffffffffffffffffffffffffffffffffffffffff1673ffffffffffffffffffffffffffffffffffffffff16815260200190815260200160002060020160008373ffffffffffffffffffffffffffffffffffffffff1673ffffffffffffffffffffffffffffffffffffffff16815260200190815260200160002060010154146123bb576040517f08c379a00000000000000000000000000000000000000000000000000000000081526004018080602001828103825260388152602001806142a26038913960400191505060405180910390fd5b61267c565b6000801b600560008573ffffffffffffffffffffffffffffffffffffffff1673ffffffffffffffffffffffffffffffffffffffff168152602001908152602001600020600101541461245d576040517f08c379a00000000000000000000000000000000000000000000000000000000081526004018080602001828103825260388152602001806142a26038913960400191505060405180910390fd5b600081604051602001808273ffffffffffffffffffffffffffffffffffffffff1660601b81526014019150506040516020818303038152906040528051906020012090506124aa81613459565b73ffffffffffffffffffffffffffffffffffffffff168473ffffffffffffffffffffffffffffffffffffffff161461252d576040517f08c379a00000000000000000000000000000000000000000000000000000000081526004018080602001828103825260388152602001806142a26038913960400191505060405180910390fd5b80600560008673ffffffffffffffffffffffffffffffffffffffff1673ffffffffffffffffffffffffffffffffffffffff168152602001908152602001600020600101819055506001600560008673ffffffffffffffffffffffffffffffffffffffff1673ffffffffffffffffffffffffffffffffffffffff16815260200190815260200160002060020160008473ffffffffffffffffffffffffffffffffffffffff1673ffffffffffffffffffffffffffffffffffffffff16815260200190815260200160002060000160006101000a81548160ff0219169083151502179055507f27e282f7712c5b4617277759c834b86d163dfc1aad25c8c3c5926a1c9e5644688483604051808373ffffffffffffffffffffffffffffffffffffffff1681526020018273ffffffffffffffffffffffffffffffffffffffff1681526020019250505060405180910390a1505b80915050919050565b600560008273ffffffffffffffffffffffffffffffffffffffff1673ffffffffffffffffffffffffffffffffffffffff16815260200190815260200160002060000160009054906101000a900460ff1661278357612726600560008373ffffffffffffffffffffffffffffffffffffffff1673ffffffffffffffffffffffffffffffffffffffff16815260200190815260200160002060010154600161364f565b506001600560008373ffffffffffffffffffffffffffffffffffffffff1673ffffffffffffffffffffffffffffffffffffffff16815260200190815260200160002060000160006101000a81548160ff0219169083151502179055505b50565b6060600073ffffffffffffffffffffffffffffffffffffffff168573ffffffffffffffffffffffffffffffffffffffff16141561280e576040517f08c379a00000000000000000000000000000000000000000000000000000000081526004018080602001828103825260258152602001806143906025913960400191505060405180910390fd5b3073ffffffffffffffffffffffffffffffffffffffff168573ffffffffffffffffffffffffffffffffffffffff161415612893576040517f08c379a000000000000000000000000000000000000000000000000000000000815260040180806020018281038252602c815260200180614488602c913960400191505060405180910390fd5b8573ffffffffffffffffffffffffffffffffffffffff168573ffffffffffffffffffffffffffffffffffffffff161415612918576040517f08c379a00000000000000000000000000000000000000000000000000000000081526004018080602001828103825260268152602001806142da6026913960400191505060405180910390fd5b60608673ffffffffffffffffffffffffffffffffffffffff16633f579f428787876040518463ffffffff1660e01b8152600401808473ffffffffffffffffffffffffffffffffffffffff16815260200183815260200180602001828103825283818151815260200191508051906020019080838360005b838110156129aa57808201518184015260208101905061298f565b50505050905090810190601f1680156129d75780820380516001836020036101000a031916815260200191505b50945050505050600060405180830381600087803b1580156129f857600080fd5b505af1158015612a0c573d6000803e3d6000fd5b505050506040513d6000823e3d601f19601f820116820180604052506020811015612a3657600080fd5b8101908080516040519392919084640100000000821115612a5657600080fd5b83820191506020820185811115612a6c57600080fd5b8251866001820283011164010000000082111715612a8957600080fd5b8083526020830192505050908051906020019080838360005b83811015612abd578082015181840152602081019050612aa2565b50505050905090810190601f168015612aea5780820380516001836020036101000a031916815260200191505b5060405250505090508215612c47577f99eeae1fb8801e2e878e060ec5e5b3557b3c4f8106e35d88cb573f293dae4e248787878785604051808673ffffffffffffffffffffffffffffffffffffffff1681526020018573ffffffffffffffffffffffffffffffffffffffff1681526020018481526020018060200180602001838103835285818151815260200191508051906020019080838360005b83811015612ba1578082015181840152602081019050612b86565b50505050905090810190601f168015612bce5780820380516001836020036101000a031916815260200191505b50838103825284818151815260200191508051906020019080838360005b83811015612c07578082015181840152602081019050612bec565b50505050905090810190601f168015612c345780820380516001836020036101000a031916815260200191505b5097505050505050505060405180910390a15b8091505095945050505050565b60008060009050836000015115612c9957600084602001511415612c7b5760019050612c98565b6000831415612c8d5760019050612c97565b8284602001511190505b5b5b8091505092915050565b600260009054906101000a900473ffffffffffffffffffffffffffffffffffffffff1673ffffffffffffffffffffffffffffffffffffffff168273ffffffffffffffffffffffffffffffffffffffff16635c60da1b6040518163ffffffff1660e01b815260040160206040518083038186803b158015612d2257600080fd5b505afa158015612d36573d6000803e3d6000fd5b505050506040513d6020811015612d4c57600080fd5b810190808051906020019092919050505073ffffffffffffffffffffffffffffffffffffffff161415612dca576040517f08c379a000000000000000000000000000000000000000000000000000000000815260040180806020018281038252602b8152602001806143d7602b913960400191505060405180910390fd5b8173ffffffffffffffffffffffffffffffffffffffff1663d784d426600260009054906101000a900473ffffffffffffffffffffffffffffffffffffffff166040518263ffffffff1660e01b8152600401808273ffffffffffffffffffffffffffffffffffffffff168152602001915050600060405180830381600087803b158015612e5557600080fd5b505af1158015612e69573d6000803e3d6000fd5b505050508015612f01577feec27cdb8bd6f55c2c537deb52ab094a2437e85ef5197e6f064f90bff3ff563f82600260009054906101000a900473ffffffffffffffffffffffffffffffffffffffff16604051808373ffffffffffffffffffffffffffffffffffffffff1681526020018273ffffffffffffffffffffffffffffffffffffffff1681526020019250505060405180910390a15b5050565b600081511415612f1d57612f1832612fbb565b612f5a565b60008151905060005b81811015612f5757612f4a838281518110612f3d57fe5b6020026020010151612fbb565b8080600101915050612f26565b50505b50565b612f688260006137a3565b612f73816000611d0d565b5050565b80600460006101000a81548173ffffffffffffffffffffffffffffffffffffffff021916908373ffffffffffffffffffffffffffffffffffffffff16021790555050565b600073ffffffffffffffffffffffffffffffffffffffff168173ffffffffffffffffffffffffffffffffffffffff16141561305e576040517f08c379a00000000000000000000000000000000000000000000000000000000081526004018080602001828103825260208152602001807f477561726465643a2063616e6e6f74206164642030783020677561726469616e81525060200191505060405180910390fd5b6000808273ffffffffffffffffffffffffffffffffffffffff1673ffffffffffffffffffffffffffffffffffffffff16815260200190815260200160002060009054906101000a900460ff161561311d576040517f08c379a00000000000000000000000000000000000000000000000000000000081526004018080602001828103825260208152602001807f477561726465643a20677561726469616e20616c72656164792065786973747381525060200191505060405180910390fd5b60016000808373ffffffffffffffffffffffffffffffffffffffff1673ffffffffffffffffffffffffffffffffffffffff16815260200190815260200160002060006101000a81548160ff0219169083151502179055507fbc3292102fa77e083913064b282926717cdfaede4d35f553d66366c0a3da755a3282604051808373ffffffffffffffffffffffffffffffffffffffff1681526020018273ffffffffffffffffffffffffffffffffffffffff1681526020019250505060405180910390a150565b60008082604051602001808273ffffffffffffffffffffffffffffffffffffffff1660601b815260140191505060405160208183030381529060405280519060200120905061323081613459565b915050919050565b60008061324e8385611fb790919063ffffffff16565b90506000808273ffffffffffffffffffffffffffffffffffffffff1673ffffffffffffffffffffffffffffffffffffffff16815260200190815260200160002060009054906101000a900460ff1691505092915050565b60006132b18243612c54565b9050919050565b60606000821415613300576040518060400160405280600181526020017f30000000000000000000000000000000000000000000000000000000000000008152509050613443565b6020821415613346576040518060400160405280600281526020017f33320000000000000000000000000000000000000000000000000000000000008152509050613443565b6000829050600083905060005b60008214613375578080600101915050600a828161336d57fe5b049150613353565b60608167ffffffffffffffff8111801561338e57600080fd5b506040519080825280601f01601f1916602001820160405280156133c15781602001600182028036833780820191505090505b50905060006001830390505b6000851461343a57600a85816133df57fe5b0660300160f81b828280600190039350815181106133f957fe5b60200101907effffffffffffffffffffffffffffffffffffffffffffffffffffffffffffff1916908160001a905350600a858161343257fe5b0494506133cd565b81955050505050505b919050565b600061345460146138e4565b905090565b600060606040518060200161346d90613ad5565b6020820181038252601f19601f82011660405250600060a01b600160009054906101000a900473ffffffffffffffffffffffffffffffffffffffff16600060a01b600260009054906101000a900473ffffffffffffffffffffffffffffffffffffffff166040516020018086805190602001908083835b6020831061350757805182526020820191506020810190506020830392506134e4565b6001836020036101000a0380198251168184511680821785525050505050509050018573ffffffffffffffffffffffffffffffffffffffff19168152600c018473ffffffffffffffffffffffffffffffffffffffff1660601b81526014018373ffffffffffffffffffffffffffffffffffffffff19168152600c018273ffffffffffffffffffffffffffffffffffffffff1660601b8152601401955050505050506040516020818303038152906040529050600060ff60f81b3085848051906020012060405160200180857effffffffffffffffffffffffffffffffffffffffffffffffffffffffffffff191681526001018473ffffffffffffffffffffffffffffffffffffffff1660601b81526014018381526020018281526020019450505050506040516020818303038152906040528051906020012090508060001c92505050919050565b60008083600160009054906101000a900473ffffffffffffffffffffffffffffffffffffffff16600260009054906101000a900473ffffffffffffffffffffffffffffffffffffffff166040516136a590613ad5565b808373ffffffffffffffffffffffffffffffffffffffff1681526020018273ffffffffffffffffffffffffffffffffffffffff168152602001925050508190604051809103906000f5905080158015613702573d6000803e3d6000fd5b5090508215613799577f2682a218602b9036c9869f006c5405ee4a1a65267653eb7e286123e5e1afde4c81600260009054906101000a900473ffffffffffffffffffffffffffffffffffffffff16604051808373ffffffffffffffffffffffffffffffffffffffff1681526020018273ffffffffffffffffffffffffffffffffffffffff1681526020019250505060405180910390a15b8091505092915050565b600073ffffffffffffffffffffffffffffffffffffffff168273ffffffffffffffffffffffffffffffffffffffff161415613829576040517f08c379a000000000000000000000000000000000000000000000000000000000815260040180806020018281038252603581526020018061432c6035913960400191505060405180910390fd5b81600160006101000a81548173ffffffffffffffffffffffffffffffffffffffff021916908373ffffffffffffffffffffffffffffffffffffffff16021790555080156138e0577f02e3c47057b8dc27a0929d3c394c314c73aa002d46939c31c9f71d1e77e86c10600160009054906101000a900473ffffffffffffffffffffffffffffffffffffffff16604051808273ffffffffffffffffffffffffffffffffffffffff16815260200191505060405180910390a15b5050565b600080600090506138f3613979565b1561396c5760008360003690500390506139646000368390601485019261391c93929190613ae2565b8080601f016020809104026020016040519081016040528093929190818152602001838380828437600081840152601f19601f82011690508083019250505050505050613a3c565b915050613970565b3390505b80915050919050565b600080600460009054906101000a900473ffffffffffffffffffffffffffffffffffffffff1673ffffffffffffffffffffffffffffffffffffffff163373ffffffffffffffffffffffffffffffffffffffff161415613a3557602c60003690501015613a30576040517f08c379a00000000000000000000000000000000000000000000000000000000081526004018080602001828103825260228152602001806143b56022913960400191505060405180910390fd5b600190505b8091505090565b6000806014835114613ab6576040517f08c379a000000000000000000000000000000000000000000000000000000000815260040180806020018281038252601d8152602001807f42797465734c69623a20696e76616c69642064617461206c656e67746800000081525060200191505060405180910390fd5b6c01000000000000000000000000602084015104905080915050919050565b61075180613b1683390190565b60008085851115613af257600080fd5b83861115613aff57600080fd5b600185028301915084860390509450949250505056fe608060405234801561001057600080fd5b506040516107513803806107518339818101604052604081101561003357600080fd5b810190808051906020019092919080519060200190929190505050336000806101000a81548173ffffffffffffffffffffffffffffffffffffffff021916908373ffffffffffffffffffffffffffffffffffffffff16021790555081600160006101000a81548173ffffffffffffffffffffffffffffffffffffffff021916908373ffffffffffffffffffffffffffffffffffffffff16021790555080600260006101000a81548173ffffffffffffffffffffffffffffffffffffffff021916908373ffffffffffffffffffffffffffffffffffffffff1602179055505050610630806101216000396000f3fe60806040526004361061004e5760003560e01c80633f579f42146100be5780635c60da1b146101e75780637b10399914610228578063d784d42614610269578063f77c4791146102ba57610055565b3661005557005b34801561006157600080fd5b50600080369050146100bc576000600260009054906101000a900473ffffffffffffffffffffffffffffffffffffffff169050368060008037600080826000855af43d806000803e81600081146100b757816000f35b816000fd5b005b3480156100ca57600080fd5b5061016c600480360360608110156100e157600080fd5b81019080803573ffffffffffffffffffffffffffffffffffffffff169060200190929190803590602001909291908035906020019064010000000081111561012857600080fd5b82018360208201111561013a57600080fd5b8035906020019184600183028401116401000000008311171561015c57600080fd5b90919293919293905050506102fb565b6040518080602001828103825283818151815260200191508051906020019080838360005b838110156101ac578082015181840152602081019050610191565b50505050905090810190601f1680156101d95780820380516001836020036101000a031916815260200191505b509250505060405180910390f35b3480156101f357600080fd5b506101fc61049f565b604051808273ffffffffffffffffffffffffffffffffffffffff16815260200191505060405180910390f35b34801561023457600080fd5b5061023d6104c5565b604051808273ffffffffffffffffffffffffffffffffffffffff16815260200191505060405180910390f35b34801561027557600080fd5b506102b86004803603602081101561028c57600080fd5b81019080803573ffffffffffffffffffffffffffffffffffffffff1690602001909291905050506104eb565b005b3480156102c657600080fd5b506102cf6105d3565b604051808273ffffffffffffffffffffffffffffffffffffffff16815260200191505060405180910390f35b606060008054906101000a900473ffffffffffffffffffffffffffffffffffffffff1673ffffffffffffffffffffffffffffffffffffffff163373ffffffffffffffffffffffffffffffffffffffff16146103a1576040517f08c379a000000000000000000000000000000000000000000000000000000000815260040180806020018281038252602c8152602001806105f8602c913960400191505060405180910390fd5b606060008673ffffffffffffffffffffffffffffffffffffffff1686868660405180838380828437808301925050509250505060006040518083038185875af1925050503d8060008114610411576040519150601f19603f3d011682016040523d82523d6000602084013e610416565b606091505b50809350819250505080610492576040517f08c379a000000000000000000000000000000000000000000000000000000000815260040180806020018281038252601d8152602001807f4163636f756e743a207472616e73616374696f6e20726576657274656400000081525060200191505060405180910390fd5b8192505050949350505050565b600260009054906101000a900473ffffffffffffffffffffffffffffffffffffffff1681565b600160009054906101000a900473ffffffffffffffffffffffffffffffffffffffff1681565b60008054906101000a900473ffffffffffffffffffffffffffffffffffffffff1673ffffffffffffffffffffffffffffffffffffffff163373ffffffffffffffffffffffffffffffffffffffff161461058f576040517f08c379a000000000000000000000000000000000000000000000000000000000815260040180806020018281038252602c8152602001806105f8602c913960400191505060405180910390fd5b80600260006101000a81548173ffffffffffffffffffffffffffffffffffffffff021916908373ffffffffffffffffffffffffffffffffffffffff16021790555050565b60008054906101000a900473ffffffffffffffffffffffffffffffffffffffff168156fe436f6e74726f6c6c65643a206d73672e73656e646572206973206e6f742074686520636f6e74726f6c6c6572a164736f6c634300060c000a4163636f756e74436f6e74726f6c6c65723a2063616e6e6f7420736574206163636f756e7420496d706c656d656e746174696f6e20746f20307830506572736f6e616c4163636f756e7452656769737472793a2073656e646572206973206e6f7420746865206163636f756e74206f776e65724163636f756e74436f6e74726f6c6c65723a2063616e6e6f742073656e6420746f2073656c66506572736f6e616c4163636f756e7452656769737472793a206f776e657220646f65736e27742065786973744163636f756e74436f6e74726f6c6c65723a2063616e6e6f7420736574206163636f756e7420726567697374727920746f20307830496e697469616c697a61626c653a2074782e6f726967696e206973206e6f742074686520696e697469616c697a65724163636f756e74436f6e74726f6c6c65723a2063616e6e6f742073656e6420746f2030783047617465776179526563697069656e743a20696e76616c6964206d73672e646174614163636f756e74436f6e74726f6c6c65723a206163636f756e7420616c7265616479207570677261646564506572736f6e616c4163636f756e7452656769737472793a2063616e6e6f742072656d6f76652073656c66477561726465643a2074782e6f726967696e206973206e6f742074686520677561726469616e506572736f6e616c4163636f756e7452656769737472793a204552433230546f6b656e207472616e736665722072657665727465644163636f756e74436f6e74726f6c6c65723a2063616e6e6f742073656e6420746f20636f6e74726f6c6c6572506572736f6e616c4163636f756e7452656769737472793a206f776e657220616c726561647920657869737473506572736f6e616c4163636f756e7452656769737472793a2063616e6e6f742061646420307830206f776e6572a164736f6c634300060c000a",
  "linkReferences": {},
  "deployedLinkReferences": {}
}