{
  "_format": "hh-sol-artifact-1",
  "contractName": "PersonalAccountRegistry",
  "sourceName": "src/personal/PersonalAccountRegistry.sol",
  "abi": [
    {
      "inputs": [],
      "stateMutability": "nonpayable",
      "type": "constructor"
    },
    {
      "anonymous": false,
      "inputs": [
        {
          "indexed": false,
          "internalType": "address",
          "name": "account",
          "type": "address"
        },
        {
          "indexed": false,
          "internalType": "address",
          "name": "beneficiary",
          "type": "address"
        },
        {
          "indexed": false,
          "internalType": "address",
          "name": "token",
          "type": "address"
        },
        {
          "indexed": false,
          "internalType": "uint256",
          "name": "value",
          "type": "uint256"
        }
      ],
      "name": "AccountCallRefunded",
      "type": "event"
    },
    {
      "anonymous": false,
      "inputs": [
        {
          "indexed": false,
          "internalType": "address",
          "name": "account",
          "type": "address"
        }
      ],
      "name": "AccountDeployed",
      "type": "event"
    },
    {
      "anonymous": false,
      "inputs": [
        {
          "indexed": false,
          "internalType": "address",
          "name": "account",
          "type": "address"
        },
        {
          "indexed": false,
          "internalType": "address",
          "name": "owner",
          "type": "address"
        }
      ],
      "name": "AccountOwnerAdded",
      "type": "event"
    },
    {
      "anonymous": false,
      "inputs": [
        {
          "indexed": false,
          "internalType": "address",
          "name": "account",
          "type": "address"
        },
        {
          "indexed": false,
          "internalType": "address",
          "name": "owner",
          "type": "address"
        }
      ],
      "name": "AccountOwnerRemoved",
      "type": "event"
    },
    {
      "anonymous": false,
      "inputs": [
        {
          "indexed": false,
          "internalType": "address",
          "name": "account",
          "type": "address"
        },
        {
          "indexed": false,
          "internalType": "address",
          "name": "to",
          "type": "address"
        },
        {
          "indexed": false,
          "internalType": "uint256",
          "name": "value",
          "type": "uint256"
        },
        {
          "indexed": false,
          "internalType": "bytes",
          "name": "data",
          "type": "bytes"
        },
        {
          "indexed": false,
          "internalType": "bytes",
          "name": "response",
          "type": "bytes"
        }
      ],
      "name": "AccountTransactionExecuted",
      "type": "event"
    },
    {
      "anonymous": false,
      "inputs": [
        {
          "indexed": false,
          "internalType": "address",
          "name": "initializer",
          "type": "address"
        }
      ],
      "name": "Initialized",
      "type": "event"
    },
    {
      "inputs": [
        {
          "internalType": "address",
          "name": "account",
          "type": "address"
        },
        {
          "internalType": "address",
          "name": "owner",
          "type": "address"
        }
      ],
      "name": "addAccountOwner",
      "outputs": [],
      "stateMutability": "nonpayable",
      "type": "function"
    },
    {
      "inputs": [
        {
          "internalType": "address",
          "name": "saltOwner",
          "type": "address"
        }
      ],
      "name": "computeAccountAddress",
      "outputs": [
        {
          "internalType": "address",
          "name": "",
          "type": "address"
        }
      ],
      "stateMutability": "view",
      "type": "function"
    },
    {
      "inputs": [
        {
          "internalType": "address",
          "name": "account",
          "type": "address"
        },
        {
          "internalType": "address",
          "name": "to",
          "type": "address"
        },
        {
          "internalType": "uint256",
          "name": "value",
          "type": "uint256"
        },
        {
          "internalType": "bytes",
          "name": "data",
          "type": "bytes"
        }
      ],
      "name": "executeAccountTransaction",
      "outputs": [],
      "stateMutability": "nonpayable",
      "type": "function"
    },
    {
      "inputs": [],
      "name": "gateway",
      "outputs": [
        {
          "internalType": "address",
          "name": "",
          "type": "address"
        }
      ],
      "stateMutability": "view",
      "type": "function"
    },
    {
      "inputs": [
        {
          "internalType": "address",
          "name": "gateway_",
          "type": "address"
        }
      ],
      "name": "initialize",
      "outputs": [],
      "stateMutability": "nonpayable",
      "type": "function"
    },
    {
      "inputs": [
        {
          "internalType": "address",
          "name": "account",
          "type": "address"
        }
      ],
      "name": "isAccountDeployed",
      "outputs": [
        {
          "internalType": "bool",
          "name": "",
          "type": "bool"
        }
      ],
      "stateMutability": "view",
      "type": "function"
    },
    {
      "inputs": [],
      "name": "isInitialized",
      "outputs": [
        {
          "internalType": "bool",
          "name": "",
          "type": "bool"
        }
      ],
      "stateMutability": "view",
      "type": "function"
    },
    {
      "inputs": [
        {
          "internalType": "address",
          "name": "account",
          "type": "address"
        },
        {
          "internalType": "address",
          "name": "token",
          "type": "address"
        },
        {
          "internalType": "uint256",
          "name": "value",
          "type": "uint256"
        }
      ],
      "name": "refundAccountCall",
      "outputs": [],
      "stateMutability": "nonpayable",
      "type": "function"
    },
    {
      "inputs": [
        {
          "internalType": "address",
          "name": "account",
          "type": "address"
        },
        {
          "internalType": "address",
          "name": "owner",
          "type": "address"
        }
      ],
      "name": "removeAccountOwner",
      "outputs": [],
      "stateMutability": "nonpayable",
      "type": "function"
    },
    {
      "inputs": [
        {
          "internalType": "address",
          "name": "account",
          "type": "address"
        },
        {
          "internalType": "address",
          "name": "owner",
          "type": "address"
        }
      ],
      "name": "verifyAccountOwner",
      "outputs": [
        {
          "internalType": "bool",
          "name": "",
          "type": "bool"
        }
      ],
      "stateMutability": "view",
      "type": "function"
    },
    {
      "inputs": [
        {
          "internalType": "address",
          "name": "account",
          "type": "address"
        },
        {
          "internalType": "address",
          "name": "owner",
          "type": "address"
        },
        {
          "internalType": "uint256",
          "name": "blockNumber",
          "type": "uint256"
        }
      ],
      "name": "verifyAccountOwnerAtBlock",
      "outputs": [
        {
          "internalType": "bool",
          "name": "",
          "type": "bool"
        }
      ],
      "stateMutability": "view",
      "type": "function"
    }
  ],
  "bytecode": "0x608060405234801561001057600080fd5b50326000806101000a81548173ffffffffffffffffffffffffffffffffffffffff021916908373ffffffffffffffffffffffffffffffffffffffff1602179055506126b6806100606000396000f3fe608060405234801561001057600080fd5b50600436106100a95760003560e01c8063bb890d3f11610071578063bb890d3f1461024e578063c4d66de8146102c8578063cade6a5d1461030c578063db63f5821461037a578063e5c7278f146103de578063f4876c74146104a1576100a9565b8063116191b6146100ae5780631a841403146100e25780633164b5e11461015057806334d323a4146101aa578063392e53cd1461022e575b600080fd5b6100b6610505565b604051808273ffffffffffffffffffffffffffffffffffffffff16815260200191505060405180910390f35b61014e600480360360608110156100f857600080fd5b81019080803573ffffffffffffffffffffffffffffffffffffffff169060200190929190803573ffffffffffffffffffffffffffffffffffffffff1690602001909291908035906020019092919050505061052b565b005b6101926004803603602081101561016657600080fd5b81019080803573ffffffffffffffffffffffffffffffffffffffff169060200190929190505050610792565b60405180821515815260200191505060405180910390f35b610216600480360360608110156101c057600080fd5b81019080803573ffffffffffffffffffffffffffffffffffffffff169060200190929190803573ffffffffffffffffffffffffffffffffffffffff169060200190929190803590602001909291905050506107eb565b60405180821515815260200191505060405180910390f35b6102366108d9565b60405180821515815260200191505060405180910390f35b6102b06004803603604081101561026457600080fd5b81019080803573ffffffffffffffffffffffffffffffffffffffff169060200190929190803573ffffffffffffffffffffffffffffffffffffffff16906020019092919050505061092f565b60405180821515815260200191505060405180910390f35b61030a600480360360208110156102de57600080fd5b81019080803573ffffffffffffffffffffffffffffffffffffffff169060200190929190505050610943565b005b61034e6004803603602081101561032257600080fd5b81019080803573ffffffffffffffffffffffffffffffffffffffff169060200190929190505050610a81565b604051808273ffffffffffffffffffffffffffffffffffffffff16815260200191505060405180910390f35b6103dc6004803603604081101561039057600080fd5b81019080803573ffffffffffffffffffffffffffffffffffffffff169060200190929190803573ffffffffffffffffffffffffffffffffffffffff169060200190929190505050610a93565b005b61049f600480360360808110156103f457600080fd5b81019080803573ffffffffffffffffffffffffffffffffffffffff169060200190929190803573ffffffffffffffffffffffffffffffffffffffff169060200190929190803590602001909291908035906020019064010000000081111561045b57600080fd5b82018360208201111561046d57600080fd5b8035906020019184600183028401116401000000008311171561048f57600080fd5b9091929391929390505050610d28565b005b610503600480360360408110156104b757600080fd5b81019080803573ffffffffffffffffffffffffffffffffffffffff169060200190929190803573ffffffffffffffffffffffffffffffffffffffff169060200190929190505050610eab565b005b600160009054906101000a900473ffffffffffffffffffffffffffffffffffffffff1681565b610534836111da565b5061053e83611621565b600073ffffffffffffffffffffffffffffffffffffffff168273ffffffffffffffffffffffffffffffffffffffff1614156105d0576105ca833283600067ffffffffffffffff8111801561059157600080fd5b506040519080825280601f01601f1916602001820160405280156105c45781602001600182028036833780820191505090505b5061176d565b506106fc565b60606106728484600063a9059cbb60e01b3287604051602401808373ffffffffffffffffffffffffffffffffffffffff16815260200182815260200192505050604051602081830303815290604052907bffffffffffffffffffffffffffffffffffffffffffffffffffffffff19166020820180517bffffffffffffffffffffffffffffffffffffffffffffffffffffffff838183161783525050505061176d565b90506000815111156106fa5780806020019051602081101561069357600080fd5b81019080805190602001909291905050506106f9576040517f08c379a00000000000000000000000000000000000000000000000000000000081526004018080602001828103825260358152602001806125ef6035913960400191505060405180910390fd5b5b505b7feb5511fbef89123439f12682f0e9d0fc9696913b26eee55434c77d62c30aa7ca83328484604051808573ffffffffffffffffffffffffffffffffffffffff1681526020018473ffffffffffffffffffffffffffffffffffffffff1681526020018373ffffffffffffffffffffffffffffffffffffffff16815260200182815260200194505050505060405180910390a1505050565b6000600260008373ffffffffffffffffffffffffffffffffffffffff1673ffffffffffffffffffffffffffffffffffffffff16815260200190815260200160002060000160009054906101000a900460ff169050919050565b600080600090506107fc8585611ae0565b1561080a57600190506108ce565b6108cb83600260008873ffffffffffffffffffffffffffffffffffffffff1673ffffffffffffffffffffffffffffffffffffffff16815260200190815260200160002060020160008773ffffffffffffffffffffffffffffffffffffffff1673ffffffffffffffffffffffffffffffffffffffff1681526020019081526020016000206040518060400160405290816000820160009054906101000a900460ff16151515158152602001600182015481525050611c9790919063ffffffff16565b90505b809150509392505050565b60008073ffffffffffffffffffffffffffffffffffffffff1660008054906101000a900473ffffffffffffffffffffffffffffffffffffffff1673ffffffffffffffffffffffffffffffffffffffff1614905090565b600061093b8383611ae0565b905092915050565b60008054906101000a900473ffffffffffffffffffffffffffffffffffffffff1673ffffffffffffffffffffffffffffffffffffffff163273ffffffffffffffffffffffffffffffffffffffff16146109e7576040517f08c379a000000000000000000000000000000000000000000000000000000000815260040180806020018281038252602f81526020018061254e602f913960400191505060405180910390fd5b60008060006101000a81548173ffffffffffffffffffffffffffffffffffffffff021916908373ffffffffffffffffffffffffffffffffffffffff160217905550610a3181611ce6565b7f908408e307fc569b417f6cbec5d5a06f44a0a505ac0479b47d421a4b2fd6a1e632604051808273ffffffffffffffffffffffffffffffffffffffff16815260200191505060405180910390a150565b6000610a8c82611d2a565b9050919050565b6000610a9e836111da565b90508073ffffffffffffffffffffffffffffffffffffffff168273ffffffffffffffffffffffffffffffffffffffff161415610b25576040517f08c379a000000000000000000000000000000000000000000000000000000000815260040180806020018281038252602b8152602001806125c4602b913960400191505060405180910390fd5b610bdc600260008573ffffffffffffffffffffffffffffffffffffffff1673ffffffffffffffffffffffffffffffffffffffff16815260200190815260200160002060020160008473ffffffffffffffffffffffffffffffffffffffff1673ffffffffffffffffffffffffffffffffffffffff1681526020019081526020016000206040518060400160405290816000820160009054906101000a900460ff16151515158152602001600182015481525050611d80565b610c31576040517f08c379a000000000000000000000000000000000000000000000000000000000815260040180806020018281038252602c815260200180612522602c913960400191505060405180910390fd5b43600260008573ffffffffffffffffffffffffffffffffffffffff1673ffffffffffffffffffffffffffffffffffffffff16815260200190815260200160002060020160008473ffffffffffffffffffffffffffffffffffffffff1673ffffffffffffffffffffffffffffffffffffffff168152602001908152602001600020600101819055507f1ce3cbbc43ee231e5b950332f2b0b9dd7d349291a3ee411ce5c5c7ed745661bb8383604051808373ffffffffffffffffffffffffffffffffffffffff1681526020018273ffffffffffffffffffffffffffffffffffffffff1681526020019250505060405180910390a1505050565b610d31856111da565b50610d3b85611621565b6060610d8d86868686868080601f016020809104026020016040519081016040528093929190818152602001838380828437600081840152601f19601f8201169050808301925050505050505061176d565b90507f99eeae1fb8801e2e878e060ec5e5b3557b3c4f8106e35d88cb573f293dae4e24868686868686604051808773ffffffffffffffffffffffffffffffffffffffff1681526020018673ffffffffffffffffffffffffffffffffffffffff16815260200185815260200180602001806020018381038352868682818152602001925080828437600081840152601f19601f820116905080830192505050838103825284818151815260200191508051906020019080838360005b83811015610e63578082015181840152602081019050610e48565b50505050905090810190601f168015610e905780820380516001836020036101000a031916815260200191505b509850505050505050505060405180910390a1505050505050565b610eb4826111da565b50600073ffffffffffffffffffffffffffffffffffffffff168173ffffffffffffffffffffffffffffffffffffffff161415610f3b576040517f08c379a000000000000000000000000000000000000000000000000000000000815260040180806020018281038252602d81526020018061267d602d913960400191505060405180910390fd5b610ff2600260008473ffffffffffffffffffffffffffffffffffffffff1673ffffffffffffffffffffffffffffffffffffffff16815260200190815260200160002060020160008373ffffffffffffffffffffffffffffffffffffffff1673ffffffffffffffffffffffffffffffffffffffff1681526020019081526020016000206040518060400160405290816000820160009054906101000a900460ff16151515158152602001600182015481525050611d80565b15611048576040517f08c379a000000000000000000000000000000000000000000000000000000000815260040180806020018281038252602d815260200180612650602d913960400191505060405180910390fd5b6001600260008473ffffffffffffffffffffffffffffffffffffffff1673ffffffffffffffffffffffffffffffffffffffff16815260200190815260200160002060020160008373ffffffffffffffffffffffffffffffffffffffff1673ffffffffffffffffffffffffffffffffffffffff16815260200190815260200160002060000160006101000a81548160ff0219169083151502179055506000600260008473ffffffffffffffffffffffffffffffffffffffff1673ffffffffffffffffffffffffffffffffffffffff16815260200190815260200160002060020160008373ffffffffffffffffffffffffffffffffffffffff1673ffffffffffffffffffffffffffffffffffffffff168152602001908152602001600020600101819055507f27e282f7712c5b4617277759c834b86d163dfc1aad25c8c3c5926a1c9e5644688282604051808373ffffffffffffffffffffffffffffffffffffffff1681526020018273ffffffffffffffffffffffffffffffffffffffff1681526020019250505060405180910390a15050565b6000806111e5611d93565b9050600260008473ffffffffffffffffffffffffffffffffffffffff1673ffffffffffffffffffffffffffffffffffffffff16815260200190815260200160002060020160008273ffffffffffffffffffffffffffffffffffffffff1673ffffffffffffffffffffffffffffffffffffffff16815260200190815260200160002060000160009054906101000a900460ff161561135c576000600260008573ffffffffffffffffffffffffffffffffffffffff1673ffffffffffffffffffffffffffffffffffffffff16815260200190815260200160002060020160008373ffffffffffffffffffffffffffffffffffffffff1673ffffffffffffffffffffffffffffffffffffffff1681526020019081526020016000206001015414611357576040517f08c379a00000000000000000000000000000000000000000000000000000000081526004018080602001828103825260388152602001806124c46038913960400191505060405180910390fd5b611618565b6000801b600260008573ffffffffffffffffffffffffffffffffffffffff1673ffffffffffffffffffffffffffffffffffffffff16815260200190815260200160002060010154146113f9576040517f08c379a00000000000000000000000000000000000000000000000000000000081526004018080602001828103825260388152602001806124c46038913960400191505060405180910390fd5b600081604051602001808273ffffffffffffffffffffffffffffffffffffffff1660601b815260140191505060405160208183030381529060405280519060200120905061144681611da4565b73ffffffffffffffffffffffffffffffffffffffff168473ffffffffffffffffffffffffffffffffffffffff16146114c9576040517f08c379a00000000000000000000000000000000000000000000000000000000081526004018080602001828103825260388152602001806124c46038913960400191505060405180910390fd5b80600260008673ffffffffffffffffffffffffffffffffffffffff1673ffffffffffffffffffffffffffffffffffffffff168152602001908152602001600020600101819055506001600260008673ffffffffffffffffffffffffffffffffffffffff1673ffffffffffffffffffffffffffffffffffffffff16815260200190815260200160002060020160008473ffffffffffffffffffffffffffffffffffffffff1673ffffffffffffffffffffffffffffffffffffffff16815260200190815260200160002060000160006101000a81548160ff0219169083151502179055507f27e282f7712c5b4617277759c834b86d163dfc1aad25c8c3c5926a1c9e5644688483604051808373ffffffffffffffffffffffffffffffffffffffff1681526020018273ffffffffffffffffffffffffffffffffffffffff1681526020019250505060405180910390a1505b80915050919050565b600260008273ffffffffffffffffffffffffffffffffffffffff1673ffffffffffffffffffffffffffffffffffffffff16815260200190815260200160002060000160009054906101000a900460ff1661176a576116c0600260008373ffffffffffffffffffffffffffffffffffffffff1673ffffffffffffffffffffffffffffffffffffffff16815260200190815260200160002060010154611e64565b506001600260008373ffffffffffffffffffffffffffffffffffffffff1673ffffffffffffffffffffffffffffffffffffffff16815260200190815260200160002060000160006101000a81548160ff0219169083151502179055507fc696b81c0117824045f3a89b5f4db265a7cfbc16cc9a43222f39d91a1ca1975781604051808273ffffffffffffffffffffffffffffffffffffffff16815260200191505060405180910390a15b50565b6060600073ffffffffffffffffffffffffffffffffffffffff168473ffffffffffffffffffffffffffffffffffffffff1614156117f5576040517f08c379a000000000000000000000000000000000000000000000000000000000815260040180806020018281038252602581526020018061257d6025913960400191505060405180910390fd5b3073ffffffffffffffffffffffffffffffffffffffff168473ffffffffffffffffffffffffffffffffffffffff16141561187a576040517f08c379a000000000000000000000000000000000000000000000000000000000815260040180806020018281038252602c815260200180612624602c913960400191505060405180910390fd5b8473ffffffffffffffffffffffffffffffffffffffff168473ffffffffffffffffffffffffffffffffffffffff1614156118ff576040517f08c379a00000000000000000000000000000000000000000000000000000000081526004018080602001828103825260268152602001806124fc6026913960400191505060405180910390fd5b8473ffffffffffffffffffffffffffffffffffffffff16633f579f428585856040518463ffffffff1660e01b8152600401808473ffffffffffffffffffffffffffffffffffffffff16815260200183815260200180602001828103825283818151815260200191508051906020019080838360005b8381101561198f578082015181840152602081019050611974565b50505050905090810190601f1680156119bc5780820380516001836020036101000a031916815260200191505b50945050505050600060405180830381600087803b1580156119dd57600080fd5b505af11580156119f1573d6000803e3d6000fd5b505050506040513d6000823e3d601f19601f820116820180604052506020811015611a1b57600080fd5b8101908080516040519392919084640100000000821115611a3b57600080fd5b83820191506020820185811115611a5157600080fd5b8251866001820283011164010000000082111715611a6e57600080fd5b8083526020830192505050908051906020019080838360005b83811015611aa2578082015181840152602081019050611a87565b50505050905090810190601f168015611acf5780820380516001836020036101000a031916815260200191505b506040525050509050949350505050565b600080600260008573ffffffffffffffffffffffffffffffffffffffff1673ffffffffffffffffffffffffffffffffffffffff16815260200190815260200160002060020160008473ffffffffffffffffffffffffffffffffffffffff1673ffffffffffffffffffffffffffffffffffffffff16815260200190815260200160002060000160009054906101000a900460ff1615611c05576000600260008673ffffffffffffffffffffffffffffffffffffffff1673ffffffffffffffffffffffffffffffffffffffff16815260200190815260200160002060020160008573ffffffffffffffffffffffffffffffffffffffff1673ffffffffffffffffffffffffffffffffffffffff16815260200190815260200160002060010154149050611c8d565b6000801b600260008673ffffffffffffffffffffffffffffffffffffffff1673ffffffffffffffffffffffffffffffffffffffff168152602001908152602001600020600101541415611c8c57611c5b83611d2a565b73ffffffffffffffffffffffffffffffffffffffff168473ffffffffffffffffffffffffffffffffffffffff161490505b5b8091505092915050565b60008060009050836000015115611cdc57600084602001511415611cbe5760019050611cdb565b6000831415611cd05760019050611cda565b8284602001511190505b5b5b8091505092915050565b80600160006101000a81548173ffffffffffffffffffffffffffffffffffffffff021916908373ffffffffffffffffffffffffffffffffffffffff16021790555050565b60008082604051602001808273ffffffffffffffffffffffffffffffffffffffff1660601b8152601401915050604051602081830303815290604052805190602001209050611d7881611da4565b915050919050565b6000611d8c8243611c97565b9050919050565b6000611d9f6014611e9b565b905090565b6000606060405180602001611db89061208c565b6020820181038252601f19601f820116604052509050600060ff60f81b3085848051906020012060405160200180857effffffffffffffffffffffffffffffffffffffffffffffffffffffffffffff191681526001018473ffffffffffffffffffffffffffffffffffffffff1660601b81526014018381526020018281526020019450505050506040516020818303038152906040528051906020012090508060001c92505050919050565b600081604051611e739061208c565b8190604051809103906000f5905080158015611e93573d6000803e3d6000fd5b509050919050565b60008060009050611eaa611f30565b15611f23576000836000369050039050611f1b60003683906014850192611ed393929190612099565b8080601f016020809104026020016040519081016040528093929190818152602001838380828437600081840152601f19601f82011690508083019250505050505050611ff3565b915050611f27565b3390505b80915050919050565b600080600160009054906101000a900473ffffffffffffffffffffffffffffffffffffffff1673ffffffffffffffffffffffffffffffffffffffff163373ffffffffffffffffffffffffffffffffffffffff161415611fec57602c60003690501015611fe7576040517f08c379a00000000000000000000000000000000000000000000000000000000081526004018080602001828103825260228152602001806125a26022913960400191505060405180910390fd5b600190505b8091505090565b600080601483511461206d576040517f08c379a000000000000000000000000000000000000000000000000000000000815260040180806020018281038252601d8152602001807f42797465734c69623a20696e76616c69642064617461206c656e67746800000081525060200191505060405180910390fd5b6c01000000000000000000000000602084015104905080915050919050565b6103f7806120cd83390190565b600080858511156120a957600080fd5b838611156120b657600080fd5b600185028301915084860390509450949250505056fe6080604052336000806101000a81548173ffffffffffffffffffffffffffffffffffffffff021916908373ffffffffffffffffffffffffffffffffffffffff1602179055506103a4806100536000396000f3fe60806040526004361061002d5760003560e01c80633f579f4214610039578063f77c47911461016257610034565b3661003457005b600080fd5b34801561004557600080fd5b506100e76004803603606081101561005c57600080fd5b81019080803573ffffffffffffffffffffffffffffffffffffffff16906020019092919080359060200190929190803590602001906401000000008111156100a357600080fd5b8201836020820111156100b557600080fd5b803590602001918460018302840111640100000000831117156100d757600080fd5b90919293919293905050506101a3565b6040518080602001828103825283818151815260200191508051906020019080838360005b8381101561012757808201518184015260208101905061010c565b50505050905090810190601f1680156101545780820380516001836020036101000a031916815260200191505b509250505060405180910390f35b34801561016e57600080fd5b50610177610347565b604051808273ffffffffffffffffffffffffffffffffffffffff16815260200191505060405180910390f35b606060008054906101000a900473ffffffffffffffffffffffffffffffffffffffff1673ffffffffffffffffffffffffffffffffffffffff163373ffffffffffffffffffffffffffffffffffffffff1614610249576040517f08c379a000000000000000000000000000000000000000000000000000000000815260040180806020018281038252602c81526020018061036c602c913960400191505060405180910390fd5b606060008673ffffffffffffffffffffffffffffffffffffffff1686868660405180838380828437808301925050509250505060006040518083038185875af1925050503d80600081146102b9576040519150601f19603f3d011682016040523d82523d6000602084013e6102be565b606091505b5080935081925050508061033a576040517f08c379a000000000000000000000000000000000000000000000000000000000815260040180806020018281038252601d8152602001807f4163636f756e743a207472616e73616374696f6e20726576657274656400000081525060200191505060405180910390fd5b8192505050949350505050565b60008054906101000a900473ffffffffffffffffffffffffffffffffffffffff168156fe436f6e74726f6c6c65643a206d73672e73656e646572206973206e6f742074686520636f6e74726f6c6c6572a164736f6c634300060c000a506572736f6e616c4163636f756e7452656769737472793a2073656e646572206973206e6f7420746865206163636f756e74206f776e65724163636f756e74436f6e74726f6c6c65723a2063616e6e6f742073656e6420746f2073656c66506572736f6e616c4163636f756e7452656769737472793a206f776e657220646f65736e2774206578697374496e697469616c697a61626c653a2074782e6f726967696e206973206e6f742074686520696e697469616c697a65724163636f756e74436f6e74726f6c6c65723a2063616e6e6f742073656e6420746f2030783047617465776179526563697069656e743a20696e76616c6964206d73672e64617461506572736f6e616c4163636f756e7452656769737472793a2063616e6e6f742072656d6f76652073656c66506572736f6e616c4163636f756e7452656769737472793a204552433230546f6b656e207472616e736665722072657665727465644163636f756e74436f6e74726f6c6c65723a2063616e6e6f742073656e6420746f20636f6e74726f6c6c6572506572736f6e616c4163636f756e7452656769737472793a206f776e657220616c726561647920657869737473506572736f6e616c4163636f756e7452656769737472793a2063616e6e6f742061646420307830206f776e6572a164736f6c634300060c000a",
  "linkReferences": {},
  "deployedLinkReferences": {}
}