{
  "_format": "hh-sol-artifact-1",
  "contractName": "PromiseRouter",
  "sourceName": "@connext/nxtp-contracts/contracts/core/promise/PromiseRouter.sol",
  "abi": [
    {
      "inputs": [],
      "name": "PromiseRouter__bumpCallbackFee_messageUnavailable",
      "type": "error"
    },
    {
      "inputs": [],
      "name": "PromiseRouter__bumpCallbackFee_valueIsZero",
      "type": "error"
    },
    {
      "inputs": [],
      "name": "PromiseRouter__initCallbackFee_valueIsZero",
      "type": "error"
    },
    {
      "inputs": [],
      "name": "PromiseRouter__onlyConnext_notConnext",
      "type": "error"
    },
    {
      "inputs": [],
      "name": "PromiseRouter__process_insufficientCallbackFee",
      "type": "error"
    },
    {
      "inputs": [],
      "name": "PromiseRouter__process_invalidMessage",
      "type": "error"
    },
    {
      "inputs": [],
      "name": "PromiseRouter__process_invalidTransferId",
      "type": "error"
    },
    {
      "inputs": [],
      "name": "PromiseRouter__process_notApprovedRelayer",
      "type": "error"
    },
    {
      "inputs": [],
      "name": "PromiseRouter__process_notContractCallback",
      "type": "error"
    },
    {
      "inputs": [],
      "name": "PromiseRouter__send_callbackEmpty",
      "type": "error"
    },
    {
      "inputs": [],
      "name": "PromiseRouter__send_returndataEmpty",
      "type": "error"
    },
    {
      "inputs": [],
      "name": "ProposedOwnable__acceptProposedOwner_delayNotElapsed",
      "type": "error"
    },
    {
      "inputs": [],
      "name": "ProposedOwnable__onlyOwner_notOwner",
      "type": "error"
    },
    {
      "inputs": [],
      "name": "ProposedOwnable__onlyProposed_notProposedOwner",
      "type": "error"
    },
    {
      "inputs": [],
      "name": "ProposedOwnable__proposeNewOwner_invalidProposal",
      "type": "error"
    },
    {
      "inputs": [],
      "name": "ProposedOwnable__proposeNewOwner_noOwnershipChange",
      "type": "error"
    },
    {
      "inputs": [],
      "name": "ProposedOwnable__renounceOwnership_delayNotElapsed",
      "type": "error"
    },
    {
      "inputs": [],
      "name": "ProposedOwnable__renounceOwnership_invalidProposal",
      "type": "error"
    },
    {
      "inputs": [],
      "name": "ProposedOwnable__renounceOwnership_noProposal",
      "type": "error"
    },
    {
      "anonymous": false,
      "inputs": [
        {
          "indexed": true,
          "internalType": "bytes32",
          "name": "transferId",
          "type": "bytes32"
        },
        {
          "indexed": false,
          "internalType": "address",
          "name": "relayer",
          "type": "address"
        }
      ],
      "name": "CallbackExecuted",
      "type": "event"
    },
    {
      "anonymous": false,
      "inputs": [
        {
          "indexed": true,
          "internalType": "bytes32",
          "name": "transferId",
          "type": "bytes32"
        },
        {
          "indexed": false,
          "internalType": "uint256",
          "name": "addedFee",
          "type": "uint256"
        },
        {
          "indexed": false,
          "internalType": "uint256",
          "name": "totalFee",
          "type": "uint256"
        },
        {
          "indexed": false,
          "internalType": "address",
          "name": "caller",
          "type": "address"
        }
      ],
      "name": "CallbackFeeAdded",
      "type": "event"
    },
    {
      "anonymous": false,
      "inputs": [
        {
          "indexed": false,
          "internalType": "uint8",
          "name": "version",
          "type": "uint8"
        }
      ],
      "name": "Initialized",
      "type": "event"
    },
    {
      "anonymous": false,
      "inputs": [
        {
          "indexed": true,
          "internalType": "address",
          "name": "proposedOwner",
          "type": "address"
        }
      ],
      "name": "OwnershipProposed",
      "type": "event"
    },
    {
      "anonymous": false,
      "inputs": [
        {
          "indexed": true,
          "internalType": "address",
          "name": "previousOwner",
          "type": "address"
        },
        {
          "indexed": true,
          "internalType": "address",
          "name": "newOwner",
          "type": "address"
        }
      ],
      "name": "OwnershipTransferred",
      "type": "event"
    },
    {
      "anonymous": false,
      "inputs": [
        {
          "indexed": true,
          "internalType": "uint64",
          "name": "originAndNonce",
          "type": "uint64"
        },
        {
          "indexed": true,
          "internalType": "uint32",
          "name": "origin",
          "type": "uint32"
        },
        {
          "indexed": false,
          "internalType": "bytes32",
          "name": "transferId",
          "type": "bytes32"
        },
        {
          "indexed": false,
          "internalType": "address",
          "name": "callbackAddress",
          "type": "address"
        },
        {
          "indexed": false,
          "internalType": "bool",
          "name": "success",
          "type": "bool"
        },
        {
          "indexed": false,
          "internalType": "bytes",
          "name": "data",
          "type": "bytes"
        },
        {
          "indexed": false,
          "internalType": "bytes",
          "name": "message",
          "type": "bytes"
        }
      ],
      "name": "Receive",
      "type": "event"
    },
    {
      "anonymous": false,
      "inputs": [
        {
          "indexed": false,
          "internalType": "uint32",
          "name": "domain",
          "type": "uint32"
        },
        {
          "indexed": false,
          "internalType": "bytes32",
          "name": "remote",
          "type": "bytes32"
        },
        {
          "indexed": false,
          "internalType": "bytes32",
          "name": "transferId",
          "type": "bytes32"
        },
        {
          "indexed": false,
          "internalType": "address",
          "name": "callbackAddress",
          "type": "address"
        },
        {
          "indexed": false,
          "internalType": "bool",
          "name": "success",
          "type": "bool"
        },
        {
          "indexed": false,
          "internalType": "bytes",
          "name": "data",
          "type": "bytes"
        },
        {
          "indexed": false,
          "internalType": "bytes",
          "name": "message",
          "type": "bytes"
        }
      ],
      "name": "Send",
      "type": "event"
    },
    {
      "anonymous": false,
      "inputs": [
        {
          "indexed": true,
          "internalType": "address",
          "name": "connext",
          "type": "address"
        }
      ],
      "name": "SetConnext",
      "type": "event"
    },
    {
      "inputs": [],
      "name": "VERSION",
      "outputs": [
        {
          "internalType": "uint8",
          "name": "",
          "type": "uint8"
        }
      ],
      "stateMutability": "view",
      "type": "function"
    },
    {
      "inputs": [],
      "name": "acceptProposedOwner",
      "outputs": [],
      "stateMutability": "nonpayable",
      "type": "function"
    },
    {
      "inputs": [
        {
          "internalType": "bytes32",
          "name": "_transferId",
          "type": "bytes32"
        }
      ],
      "name": "bumpCallbackFee",
      "outputs": [],
      "stateMutability": "payable",
      "type": "function"
    },
    {
      "inputs": [
        {
          "internalType": "bytes32",
          "name": "",
          "type": "bytes32"
        }
      ],
      "name": "callbackFees",
      "outputs": [
        {
          "internalType": "uint256",
          "name": "",
          "type": "uint256"
        }
      ],
      "stateMutability": "view",
      "type": "function"
    },
    {
      "inputs": [],
      "name": "connext",
      "outputs": [
        {
          "internalType": "contract IConnextHandler",
          "name": "",
          "type": "address"
        }
      ],
      "stateMutability": "view",
      "type": "function"
    },
    {
      "inputs": [],
      "name": "delay",
      "outputs": [
        {
          "internalType": "uint256",
          "name": "",
          "type": "uint256"
        }
      ],
      "stateMutability": "view",
      "type": "function"
    },
    {
      "inputs": [
        {
          "internalType": "uint32",
          "name": "_domain",
          "type": "uint32"
        },
        {
          "internalType": "bytes32",
          "name": "_router",
          "type": "bytes32"
        }
      ],
      "name": "enrollRemoteRouter",
      "outputs": [],
      "stateMutability": "nonpayable",
      "type": "function"
    },
    {
      "inputs": [
        {
          "internalType": "uint32",
          "name": "_origin",
          "type": "uint32"
        },
        {
          "internalType": "uint32",
          "name": "_nonce",
          "type": "uint32"
        },
        {
          "internalType": "bytes32",
          "name": "_sender",
          "type": "bytes32"
        },
        {
          "internalType": "bytes",
          "name": "_message",
          "type": "bytes"
        }
      ],
      "name": "handle",
      "outputs": [],
      "stateMutability": "nonpayable",
      "type": "function"
    },
    {
      "inputs": [
        {
          "internalType": "bytes32",
          "name": "_transferId",
          "type": "bytes32"
        }
      ],
      "name": "initCallbackFee",
      "outputs": [],
      "stateMutability": "payable",
      "type": "function"
    },
    {
      "inputs": [
        {
          "internalType": "address",
          "name": "_xAppConnectionManager",
          "type": "address"
        }
      ],
      "name": "initialize",
      "outputs": [],
      "stateMutability": "nonpayable",
      "type": "function"
    },
    {
      "inputs": [
        {
          "internalType": "bytes32",
          "name": "",
          "type": "bytes32"
        }
      ],
      "name": "messageHashes",
      "outputs": [
        {
          "internalType": "bytes32",
          "name": "",
          "type": "bytes32"
        }
      ],
      "stateMutability": "view",
      "type": "function"
    },
    {
      "inputs": [],
      "name": "owner",
      "outputs": [
        {
          "internalType": "address",
          "name": "",
          "type": "address"
        }
      ],
      "stateMutability": "view",
      "type": "function"
    },
    {
      "inputs": [
        {
          "internalType": "bytes32",
          "name": "transferId",
          "type": "bytes32"
        },
        {
          "internalType": "bytes",
          "name": "_message",
          "type": "bytes"
        }
      ],
      "name": "process",
      "outputs": [],
      "stateMutability": "nonpayable",
      "type": "function"
    },
    {
      "inputs": [
        {
          "internalType": "address",
          "name": "newlyProposed",
          "type": "address"
        }
      ],
      "name": "proposeNewOwner",
      "outputs": [],
      "stateMutability": "nonpayable",
      "type": "function"
    },
    {
      "inputs": [],
      "name": "proposed",
      "outputs": [
        {
          "internalType": "address",
          "name": "",
          "type": "address"
        }
      ],
      "stateMutability": "view",
      "type": "function"
    },
    {
      "inputs": [],
      "name": "proposedTimestamp",
      "outputs": [
        {
          "internalType": "uint256",
          "name": "",
          "type": "uint256"
        }
      ],
      "stateMutability": "view",
      "type": "function"
    },
    {
      "inputs": [
        {
          "internalType": "uint32",
          "name": "",
          "type": "uint32"
        }
      ],
      "name": "remotes",
      "outputs": [
        {
          "internalType": "bytes32",
          "name": "",
          "type": "bytes32"
        }
      ],
      "stateMutability": "view",
      "type": "function"
    },
    {
      "inputs": [],
      "name": "renounceOwnership",
      "outputs": [],
      "stateMutability": "nonpayable",
      "type": "function"
    },
    {
      "inputs": [],
      "name": "renounced",
      "outputs": [
        {
          "internalType": "bool",
          "name": "",
          "type": "bool"
        }
      ],
      "stateMutability": "view",
      "type": "function"
    },
    {
      "inputs": [
        {
          "internalType": "uint32",
          "name": "_domain",
          "type": "uint32"
        },
        {
          "internalType": "bytes32",
          "name": "_transferId",
          "type": "bytes32"
        },
        {
          "internalType": "address",
          "name": "_callbackAddress",
          "type": "address"
        },
        {
          "internalType": "bool",
          "name": "_returnSuccess",
          "type": "bool"
        },
        {
          "internalType": "bytes",
          "name": "_returnData",
          "type": "bytes"
        }
      ],
      "name": "send",
      "outputs": [],
      "stateMutability": "nonpayable",
      "type": "function"
    },
    {
      "inputs": [
        {
          "internalType": "address",
          "name": "_connext",
          "type": "address"
        }
      ],
      "name": "setConnext",
      "outputs": [],
      "stateMutability": "nonpayable",
      "type": "function"
    },
    {
      "inputs": [
        {
          "internalType": "address",
          "name": "_xAppConnectionManager",
          "type": "address"
        }
      ],
      "name": "setXAppConnectionManager",
      "outputs": [],
      "stateMutability": "nonpayable",
      "type": "function"
    },
    {
      "inputs": [],
      "name": "xAppConnectionManager",
      "outputs": [
        {
          "internalType": "contract XAppConnectionManager",
          "name": "",
          "type": "address"
        }
      ],
      "stateMutability": "view",
      "type": "function"
    }
  ],
  "bytecode": "0x608060405234801561001057600080fd5b50613101806100206000396000f3fe6080604052600436106101805760003560e01c80638da5cb5b116100d6578063d1851c921161007f578063dfefb7d711610059578063dfefb7d714610483578063fc89d377146104a3578063ffa1ad74146104b657600080fd5b8063d1851c92146103e8578063d232c22014610413578063de4b05481461045657600080fd5b8063b49c53a7116100b0578063b49c53a714610393578063c4d66de8146103b3578063c5b350df146103d357600080fd5b80638da5cb5b14610322578063ab2dc3f514610353578063b1f8100d1461037357600080fd5b80635540f1c0116101385780637080f771116101125780637080f771146102b3578063715018a6146102e057806383bbb806146102f557600080fd5b80635540f1c01461026a57806365d82b8b1461027d5780636a42b8f81461029d57600080fd5b806341bdc8b51161016957806341bdc8b5146101fb5780634d6f20131461021d5780634fa6b6341461023d57600080fd5b80633339df96146101855780633cf52ffb146101dc575b600080fd5b34801561019157600080fd5b506034546101b29073ffffffffffffffffffffffffffffffffffffffff1681565b60405173ffffffffffffffffffffffffffffffffffffffff90911681526020015b60405180910390f35b3480156101e857600080fd5b506002545b6040519081526020016101d3565b34801561020757600080fd5b5061021b6102163660046129a5565b6104dd565b005b34801561022957600080fd5b5061021b6102383660046129a5565b61057b565b34801561024957600080fd5b506101ed6102583660046129c2565b60cc6020526000908152604090205481565b61021b6102783660046129c2565b610641565b34801561028957600080fd5b5061021b610298366004612a46565b610742565b3480156102a957600080fd5b5062093a806101ed565b3480156102bf57600080fd5b506101ed6102ce3660046129c2565b60cb6020526000908152604090205481565b3480156102ec57600080fd5b5061021b610987565b34801561030157600080fd5b506101ed610310366004612ac9565b60666020526000908152604090205481565b34801561032e57600080fd5b5060005462010000900473ffffffffffffffffffffffffffffffffffffffff166101b2565b34801561035f57600080fd5b5061021b61036e366004612b13565b610ad7565b34801561037f57600080fd5b5061021b61038e3660046129a5565b610d77565b34801561039f57600080fd5b5061021b6103ae366004612c0d565b610eaa565b3480156103bf57600080fd5b5061021b6103ce3660046129a5565b610f1a565b3480156103df57600080fd5b5061021b610fcb565b3480156103f457600080fd5b5060015473ffffffffffffffffffffffffffffffffffffffff166101b2565b34801561041f57600080fd5b5061044660005462010000900473ffffffffffffffffffffffffffffffffffffffff161590565b60405190151581526020016101d3565b34801561046257600080fd5b5060ca546101b29073ffffffffffffffffffffffffffffffffffffffff1681565b34801561048f57600080fd5b5061021b61049e366004612c37565b611065565b61021b6104b13660046129c2565b611449565b3480156104c257600080fd5b506104cb600081565b60405160ff90911681526020016101d3565b60005462010000900473ffffffffffffffffffffffffffffffffffffffff163314610534576040517f8d450dd800000000000000000000000000000000000000000000000000000000815260040160405180910390fd5b603480547fffffffffffffffffffffffff00000000000000000000000000000000000000001673ffffffffffffffffffffffffffffffffffffffff92909216919091179055565b60005462010000900473ffffffffffffffffffffffffffffffffffffffff1633146105d2576040517f8d450dd800000000000000000000000000000000000000000000000000000000815260040160405180910390fd5b60ca80547fffffffffffffffffffffffff00000000000000000000000000000000000000001673ffffffffffffffffffffffffffffffffffffffff83169081179091556040517f8ff00ea0f06ea523b8f4b80a53bb86b4967c9909b4e354b47a83371249ad57f390600090a250565b60ca5473ffffffffffffffffffffffffffffffffffffffff163314610692576040517f2c4b07cf00000000000000000000000000000000000000000000000000000000815260040160405180910390fd5b346000036106cc576040517fff4355d900000000000000000000000000000000000000000000000000000000815260040160405180910390fd5b600081815260cc6020526040812080543492906106ea908490612cb2565b9091555050600081815260cc6020908152604091829020548251348152918201523381830152905182917fe01346f7c5b12b318c8239d37465281e572012b3f898085a3d2ed142ba2fa15d919081900360600190a250565b60ca5473ffffffffffffffffffffffffffffffffffffffff163314610793576040517f2c4b07cf00000000000000000000000000000000000000000000000000000000815260040160405180910390fd5b60008190036107ce576040517f49f88d8300000000000000000000000000000000000000000000000000000000815260040160405180910390fd5b73ffffffffffffffffffffffffffffffffffffffff841661081b576040517f8676471700000000000000000000000000000000000000000000000000000000815260040160405180910390fd5b6000610826876114c8565b90506000610837878787878761154a565b9050603460009054906101000a900473ffffffffffffffffffffffffffffffffffffffff1673ffffffffffffffffffffffffffffffffffffffff16639fa92f9d6040518163ffffffff1660e01b8152600401602060405180830381865afa1580156108a6573d6000803e3d6000fd5b505050506040513d601f19601f820116820180604052508101906108ca9190612cca565b73ffffffffffffffffffffffffffffffffffffffff1663fa31de018984846040518463ffffffff1660e01b815260040161090693929190612d52565b600060405180830381600087803b15801561092057600080fd5b505af1158015610934573d6000803e3d6000fd5b505050507fa1d84c22c68d469068eaf6be2c49fd6f9120f7e4176ba1dc8027e5e1cdce1f918883898989898988604051610975989796959493929190612d77565b60405180910390a15050505050505050565b60005462010000900473ffffffffffffffffffffffffffffffffffffffff1633146109de576040517f8d450dd800000000000000000000000000000000000000000000000000000000815260040160405180910390fd5b600254600003610a1a576040517f392cc0fc00000000000000000000000000000000000000000000000000000000815260040160405180910390fd5b62093a8060025442610a2c9190612e1e565b11610a63576040517f86d4b3f100000000000000000000000000000000000000000000000000000000815260040160405180910390fd5b60015473ffffffffffffffffffffffffffffffffffffffff1615610ab3576040517f23295ef900000000000000000000000000000000000000000000000000000000815260040160405180910390fd5b600154610ad59073ffffffffffffffffffffffffffffffffffffffff16611592565b565b610ae03361163d565b610b4b576040517f08c379a000000000000000000000000000000000000000000000000000000000815260206004820152600860248201527f217265706c69636100000000000000000000000000000000000000000000000060448201526064015b60405180910390fd5b63ffffffff8416600090815260666020526040902054849083908114610bcd576040517f08c379a000000000000000000000000000000000000000000000000000000000815260206004820152600e60248201527f2172656d6f746520726f757465720000000000000000000000000000000000006044820152606401610b42565b6000610c03610bdc85836116d8565b7fffffffffffffffffffffffffffffffffffffffffffffffffffffffffff000000166116fc565b90506000610c327fffffffffffffffffffffffffffffffffffffffffffffffffffffffffff0000008316611731565b90506000610c617fffffffffffffffffffffffffffffffffffffffffffffffffffffffffff000000841661179c565b90506000610c907fffffffffffffffffffffffffffffffffffffffffffffffffffffffffff00000085166117d8565b90506000610cbf7fffffffffffffffffffffffffffffffffffffffffffffffffffffffffff0000008616611821565b9050610cec7fffffffffffffffffffffffffffffffffffffffffffffffffffffffffff0000008616611897565b600085815260cb602052604090205563ffffffff8b16610d218c8c63ffffffff1660209190911b67ffffffff00000000161790565b67ffffffffffffffff167f878c51ec082a65de8c0a9e68ec34c48c86f4d76ae6d693587eb4420611ae0f51868686868e604051610d62959493929190612e35565b60405180910390a35050505050505050505050565b60005462010000900473ffffffffffffffffffffffffffffffffffffffff163314610dce576040517f8d450dd800000000000000000000000000000000000000000000000000000000815260040160405180910390fd5b60015473ffffffffffffffffffffffffffffffffffffffff8281169116148015610e0d575073ffffffffffffffffffffffffffffffffffffffff811615155b15610e44576040517f23780cca00000000000000000000000000000000000000000000000000000000815260040160405180910390fd5b60005473ffffffffffffffffffffffffffffffffffffffff808316620100009092041603610e9e576040517f945f6e7e00000000000000000000000000000000000000000000000000000000815260040160405180910390fd5b610ea7816118f4565b50565b60005462010000900473ffffffffffffffffffffffffffffffffffffffff163314610f01576040517f8d450dd800000000000000000000000000000000000000000000000000000000815260040160405180910390fd5b63ffffffff909116600090815260666020526040902055565b6000610f266001611967565b90508015610f5b57600080547fffffffffffffffffffffffffffffffffffffffffffffffffffffffffffff00ff166101001790555b610f6482611aed565b8015610fc757600080547fffffffffffffffffffffffffffffffffffffffffffffffffffffffffffff00ff169055604051600181527f7f26b83ff96e1f2b6a682f133852f6798a09c465da95921460cefb38474024989060200160405180910390a15b5050565b60015473ffffffffffffffffffffffffffffffffffffffff16331461101c576040517f234fe4e200000000000000000000000000000000000000000000000000000000815260040160405180910390fd5b62093a806002544261102e9190612e1e565b11610ab3576040517fd39c12bb00000000000000000000000000000000000000000000000000000000815260040160405180910390fd5b6002609854036110d1576040517f08c379a000000000000000000000000000000000000000000000000000000000815260206004820152601f60248201527f5265656e7472616e637947756172643a207265656e7472616e742063616c6c006044820152606401610b42565b6002609855600083815260cb60205260409020548061111c576040517f3099ed6300000000000000000000000000000000000000000000000000000000815260040160405180910390fd5b6000611165610bdc600086868080601f01602080910402602001604051908101604052809392919081815260200183838082843760009201919091525092939250506116d89050565b90506111927fffffffffffffffffffffffffffffffffffffffffffffffffffffffffff0000008216611897565b82146111ca576040517f1048e03a00000000000000000000000000000000000000000000000000000000815260040160405180910390fd5b60ca546040517f8cba8b6a00000000000000000000000000000000000000000000000000000000815233600482015273ffffffffffffffffffffffffffffffffffffffff90911690638cba8b6a90602401602060405180830381865afa158015611238573d6000803e3d6000fd5b505050506040513d601f19601f8201168201806040525081019061125c9190612e90565b611292576040517fbe95c75000000000000000000000000000000000000000000000000000000000815260040160405180910390fd5b60006112bf7fffffffffffffffffffffffffffffffffffffffffffffffffffffffffff000000831661179c565b905073ffffffffffffffffffffffffffffffffffffffff81163b61130f576040517fe94778c200000000000000000000000000000000000000000000000000000000815260040160405180910390fd5b600086815260cc60208181526040808420805460cb84529185208590559290915291905573ffffffffffffffffffffffffffffffffffffffff821663034baf0e8861137b7fffffffffffffffffffffffffffffffffffffffffffffffffffffffffff00000087166117d8565b6113a67fffffffffffffffffffffffffffffffffffffffffffffffffffffffffff0000008816611821565b6040518463ffffffff1660e01b81526004016113c493929190612ead565b600060405180830381600087803b1580156113de57600080fd5b505af11580156113f2573d6000803e3d6000fd5b50506040513381528992507f25639428fb03bb25e9ccc77977e8f4ed022248bae7422d898c57f328d21ad75d915060200160405180910390a2801561143b5761143b3382611b76565b505060016098555050505050565b34600003611483576040517ffc7f537c00000000000000000000000000000000000000000000000000000000815260040160405180910390fd5b600081815260cb60205260409020546106cc576040517f53b0f6d900000000000000000000000000000000000000000000000000000000815260040160405180910390fd5b63ffffffff811660009081526066602052604090205480611545576040517f08c379a000000000000000000000000000000000000000000000000000000000815260206004820152600760248201527f2172656d6f7465000000000000000000000000000000000000000000000000006044820152606401610b42565b919050565b6060600186868661155c57600061155f565b60015b6040516115789493929190879089908290602001612ece565b604051602081830303815290604052905095945050505050565b6000805473ffffffffffffffffffffffffffffffffffffffff838116620100008181027fffffffffffffffffffff0000000000000000000000000000000000000000ffff85161785556002859055600180547fffffffffffffffffffffffff000000000000000000000000000000000000000016905560405193049190911692909183917f8be0079c531659141344cd1fd0a4f28419497f9722a3daafe3b4186f6b6457e091a35050565b6034546040517f5190bc5300000000000000000000000000000000000000000000000000000000815273ffffffffffffffffffffffffffffffffffffffff83811660048301526000921690635190bc5390602401602060405180830381865afa1580156116ae573d6000803e3d6000fd5b505050506040513d601f19601f820116820180604052508101906116d29190612e90565b92915050565b8151600090602084016116f364ffffffffff85168284611cd5565b95945050505050565b60006116d261170a83611d3b565b7fffffffffffffffffffffffffffffffffffffffffffffffffffffffffff00000016611db2565b6000816001611764815b7fffffffffffffffffffffffffffffffffffffffffffffffffffffffffff000000841690611e27565b506117947fffffffffffffffffffffffffffffffffffffffffffffffffffffffffff000000851660016020611f42565b949350505050565b60008160016117aa8161173b565b506117947fffffffffffffffffffffffffffffffffffffffffffffffffffffffffff00000085166021612134565b60008160016117e68161173b565b506118167fffffffffffffffffffffffffffffffffffffffffffffffffffffffffff00000085166035600161213e565b600114949350505050565b606081600161182f8161173b565b50600061183b8561216e565b90506116f36118707fffffffffffffffffffffffffffffffffffffffffffffffffffffffffff0000008716605684600061219f565b7fffffffffffffffffffffffffffffffffffffffffffffffffffffffffff0000001661223f565b6000806118b28360781c6bffffffffffffffffffffffff1690565b6bffffffffffffffffffffffff16905060006118dc8460181c6bffffffffffffffffffffffff1690565b6bffffffffffffffffffffffff169091209392505050565b42600255600180547fffffffffffffffffffffffff00000000000000000000000000000000000000001673ffffffffffffffffffffffffffffffffffffffff83169081179091556040517f6ab4d119f23076e8ad491bc65ce85f017fb0591dce08755ba8591059cc51737a90600090a250565b60008054610100900460ff1615611a1e578160ff16600114801561198a5750303b155b611a16576040517f08c379a000000000000000000000000000000000000000000000000000000000815260206004820152602e60248201527f496e697469616c697a61626c653a20636f6e747261637420697320616c72656160448201527f647920696e697469616c697a65640000000000000000000000000000000000006064820152608401610b42565b506000919050565b60005460ff808416911610611ab5576040517f08c379a000000000000000000000000000000000000000000000000000000000815260206004820152602e60248201527f496e697469616c697a61626c653a20636f6e747261637420697320616c72656160448201527f647920696e697469616c697a65640000000000000000000000000000000000006064820152608401610b42565b50600080547fffffffffffffffffffffffffffffffffffffffffffffffffffffffffffffff001660ff92909216919091179055600190565b6000611af96001611967565b90508015611b2e57600080547fffffffffffffffffffffffffffffffffffffffffffffffffffffffffffff00ff166101001790555b603480547fffffffffffffffffffffffff00000000000000000000000000000000000000001673ffffffffffffffffffffffffffffffffffffffff8416179055610f64612292565b80471015611be0576040517f08c379a000000000000000000000000000000000000000000000000000000000815260206004820152601d60248201527f416464726573733a20696e73756666696369656e742062616c616e63650000006044820152606401610b42565b60008273ffffffffffffffffffffffffffffffffffffffff168260405160006040518083038185875af1925050503d8060008114611c3a576040519150601f19603f3d011682016040523d82523d6000602084013e611c3f565b606091505b5050905080611cd0576040517f08c379a000000000000000000000000000000000000000000000000000000000815260206004820152603a60248201527f416464726573733a20756e61626c6520746f2073656e642076616c75652c207260448201527f6563697069656e74206d617920686176652072657665727465640000000000006064820152608401610b42565b505050565b600080611ce28385612cb2565b9050604051811115611cf2575060005b80600003611d23577fffffffffffffffffffffffffffffffffffffffffffffffffffffffffff000000915050611d34565b5050606083811b8317901b811760181b5b9392505050565b6000611d4682612331565b15611d8c577affffffffffffffffffffffffffffffffffffffffffffffff00000082167b01000000000000000000000000000000000000000000000000000000176116d2565b7fffffffffffffffffffffffffffffffffffffffffffffffffffffffffff0000006116d2565b6000611dbd82612379565b611e23576040517f08c379a000000000000000000000000000000000000000000000000000000000815260206004820152601960248201527f56616c696469747920617373657274696f6e206661696c6564000000000000006044820152606401610b42565b5090565b6000611e3383836123b6565b611f3b576000611e52611e468560d81c90565b64ffffffffff166123d9565b9150506000611e678464ffffffffff166123d9565b6040517f5479706520617373657274696f6e206661696c65642e20476f7420307800000060208201527fffffffffffffffffffff0000000000000000000000000000000000000000000060b086811b8216603d8401527f2e20457870656374656420307800000000000000000000000000000000000000604784015283901b16605482015290925060009150605e016040516020818303038152906040529050806040517f08c379a0000000000000000000000000000000000000000000000000000000008152600401610b429190612f58565b5090919050565b60008160ff16600003611f5757506000611d34565b611f6f8460181c6bffffffffffffffffffffffff1690565b6bffffffffffffffffffffffff16611f8a60ff841685612cb2565b111561201c57611fe9611fab8560781c6bffffffffffffffffffffffff1690565b6bffffffffffffffffffffffff16611fd18660181c6bffffffffffffffffffffffff1690565b6bffffffffffffffffffffffff16858560ff166124c3565b6040517f08c379a0000000000000000000000000000000000000000000000000000000008152600401610b429190612f58565b60208260ff1611156120b0576040517f08c379a000000000000000000000000000000000000000000000000000000000815260206004820152603a60248201527f54797065644d656d566965772f696e646578202d20417474656d70746564207460448201527f6f20696e646578206d6f7265207468616e2033322062797465730000000000006064820152608401610b42565b6008820260006120ce8660781c6bffffffffffffffffffffffff1690565b6bffffffffffffffffffffffff16905060007f80000000000000000000000000000000000000000000000000000000000000007fffffffffffffffffffffffffffffffffffffffffffffffffffffffffffffffff84011d91909501511695945050505050565b6000611d34838360145b600061214b826020612f6b565b612156906008612f8e565b60ff16612164858585611f42565b901c949350505050565b60006116d27fffffffffffffffffffffffffffffffffffffffffffffffffffffffffff00000083166036602061213e565b6000806121ba8660781c6bffffffffffffffffffffffff1690565b6bffffffffffffffffffffffff1690506121d386612531565b846121de8784612cb2565b6121e89190612cb2565b1115612217577fffffffffffffffffffffffffffffffffffffffffffffffffffffffffff000000915050611794565b6122218582612cb2565b90506122358364ffffffffff168286611cd5565b9695505050505050565b606060008061225c8460181c6bffffffffffffffffffffffff1690565b6bffffffffffffffffffffffff16905060405191508192506122818483602001612579565b508181016020016040529052919050565b600054610100900460ff16612329576040517f08c379a000000000000000000000000000000000000000000000000000000000815260206004820152602b60248201527f496e697469616c697a61626c653a20636f6e7472616374206973206e6f74206960448201527f6e697469616c697a696e670000000000000000000000000000000000000000006064820152608401610b42565b610ad5612764565b6000601882901c6bffffffffffffffffffffffff16603681116123575750600092915050565b60006123628461216e565b905081612370826056612cb2565b14949350505050565b60006123858260d81c90565b64ffffffffff1664ffffffffff0361239f57506000919050565b60006123aa83612531565b60405110199392505050565b60008164ffffffffff166123ca8460d81c90565b64ffffffffff16149392505050565b600080601f5b600f8160ff16111561244c5760006123f8826008612f8e565b60ff1685901c905061240981612804565b61ffff16841793508160ff1660101461242457601084901b93505b507fffffffffffffffffffffffffffffffffffffffffffffffffffffffffffffffff016123df565b50600f5b60ff8160ff1610156124bd576000612469826008612f8e565b60ff1685901c905061247a81612804565b61ffff16831792508160ff1660001461249557601083901b92505b507fffffffffffffffffffffffffffffffffffffffffffffffffffffffffffffffff01612450565b50915091565b606060006124d0866123d9565b91505060006124de866123d9565b91505060006124ec866123d9565b91505060006124fa866123d9565b915050838383836040516020016125149493929190612fb7565b604051602081830303815290604052945050505050949350505050565b600061254b8260181c6bffffffffffffffffffffffff1690565b6125638360781c6bffffffffffffffffffffffff1690565b016bffffffffffffffffffffffff169050919050565b60007fffffffffffffffffffffffffffffffffffffffffffffffffffffffffff0000008084160361262c576040517f08c379a000000000000000000000000000000000000000000000000000000000815260206004820152602860248201527f54797065644d656d566965772f636f7079546f202d204e756c6c20706f696e7460448201527f65722064657265660000000000000000000000000000000000000000000000006064820152608401610b42565b61263583612379565b6126c1576040517f08c379a000000000000000000000000000000000000000000000000000000000815260206004820152602b60248201527f54797065644d656d566965772f636f7079546f202d20496e76616c696420706f60448201527f696e7465722064657265660000000000000000000000000000000000000000006064820152608401610b42565b60006126db8460181c6bffffffffffffffffffffffff1690565b6bffffffffffffffffffffffff16905060006127058560781c6bffffffffffffffffffffffff1690565b6bffffffffffffffffffffffff169050600060405190508481111561272a5760206060fd5b8285848460045afa506122356127408760d81c90565b70ffffffffff000000000000000000000000606091821b168717901b841760181b90565b600054610100900460ff166127fb576040517f08c379a000000000000000000000000000000000000000000000000000000000815260206004820152602b60248201527f496e697469616c697a61626c653a20636f6e7472616374206973206e6f74206960448201527f6e697469616c697a696e670000000000000000000000000000000000000000006064820152608401610b42565b610ad533611592565b600061281660048360ff16901c612836565b60ff1661ffff919091161760081b61282d82612836565b60ff1617919050565b600060f08083179060ff821690036128515750603092915050565b8060ff1660f1036128655750603192915050565b8060ff1660f2036128795750603292915050565b8060ff1660f30361288d5750603392915050565b8060ff1660f4036128a15750603492915050565b8060ff1660f5036128b55750603592915050565b8060ff1660f6036128c95750603692915050565b8060ff1660f7036128dd5750603792915050565b8060ff1660f8036128f15750603892915050565b8060ff1660f9036129055750603992915050565b8060ff1660fa036129195750606192915050565b8060ff1660fb0361292d5750606292915050565b8060ff1660fc036129415750606392915050565b8060ff1660fd036129555750606492915050565b8060ff1660fe036129695750606592915050565b8060ff1660ff0361297d5750606692915050565b50919050565b73ffffffffffffffffffffffffffffffffffffffff81168114610ea757600080fd5b6000602082840312156129b757600080fd5b8135611d3481612983565b6000602082840312156129d457600080fd5b5035919050565b803563ffffffff8116811461154557600080fd5b8015158114610ea757600080fd5b60008083601f840112612a0f57600080fd5b50813567ffffffffffffffff811115612a2757600080fd5b602083019150836020828501011115612a3f57600080fd5b9250929050565b60008060008060008060a08789031215612a5f57600080fd5b612a68876129db565b9550602087013594506040870135612a7f81612983565b93506060870135612a8f816129ef565b9250608087013567ffffffffffffffff811115612aab57600080fd5b612ab789828a016129fd565b979a9699509497509295939492505050565b600060208284031215612adb57600080fd5b611d34826129db565b7f4e487b7100000000000000000000000000000000000000000000000000000000600052604160045260246000fd5b60008060008060808587031215612b2957600080fd5b612b32856129db565b9350612b40602086016129db565b925060408501359150606085013567ffffffffffffffff80821115612b6457600080fd5b818701915087601f830112612b7857600080fd5b813581811115612b8a57612b8a612ae4565b604051601f82017fffffffffffffffffffffffffffffffffffffffffffffffffffffffffffffffe0908116603f01168101908382118183101715612bd057612bd0612ae4565b816040528281528a6020848701011115612be957600080fd5b82602086016020830137600060208483010152809550505050505092959194509250565b60008060408385031215612c2057600080fd5b612c29836129db565b946020939093013593505050565b600080600060408486031215612c4c57600080fd5b83359250602084013567ffffffffffffffff811115612c6a57600080fd5b612c76868287016129fd565b9497909650939450505050565b7f4e487b7100000000000000000000000000000000000000000000000000000000600052601160045260246000fd5b60008219821115612cc557612cc5612c83565b500190565b600060208284031215612cdc57600080fd5b8151611d3481612983565b6000815180845260005b81811015612d0d57602081850181015186830182015201612cf1565b81811115612d1f576000602083870101525b50601f017fffffffffffffffffffffffffffffffffffffffffffffffffffffffffffffffe0169290920160200192915050565b63ffffffff841681528260208201526060604082015260006116f36060830184612ce7565b63ffffffff8916815287602082015286604082015273ffffffffffffffffffffffffffffffffffffffff86166060820152841515608082015260e060a08201528260e0820152600061010084868285013760008186850101527fffffffffffffffffffffffffffffffffffffffffffffffffffffffffffffffe0601f8601168301818482030160c0850152612e0e82820186612ce7565b9c9b505050505050505050505050565b600082821015612e3057612e30612c83565b500390565b85815273ffffffffffffffffffffffffffffffffffffffff85166020820152831515604082015260a060608201526000612e7260a0830185612ce7565b8281036080840152612e848185612ce7565b98975050505050505050565b600060208284031215612ea257600080fd5b8151611d34816129ef565b83815282151560208201526060604082015260006116f36060830184612ce7565b60007fff00000000000000000000000000000000000000000000000000000000000000808a60f81b1683528860018401527fffffffffffffffffffffffffffffffffffffffff0000000000000000000000008860601b166021840152808760f81b166035840152508460368301528284605684013750600091016056019081529695505050505050565b602081526000611d346020830184612ce7565b600060ff821660ff841680821015612f8557612f85612c83565b90039392505050565b600060ff821660ff84168160ff0481118215151615612faf57612faf612c83565b029392505050565b7f54797065644d656d566965772f696e646578202d204f76657272616e2074686581527f20766965772e20536c696365206973206174203078000000000000000000000060208201527fffffffffffff000000000000000000000000000000000000000000000000000060d086811b821660358401527f2077697468206c656e6774682030780000000000000000000000000000000000603b840181905286821b8316604a8501527f2e20417474656d7074656420746f20696e646578206174206f6666736574203060508501527f7800000000000000000000000000000000000000000000000000000000000000607085015285821b83166071850152607784015283901b1660868201527f2e00000000000000000000000000000000000000000000000000000000000000608c8201526000608d820161223556fea164736f6c634300080f000a",
  "linkReferences": {},
  "deployedLinkReferences": {}
}