{
  "_format": "hh-sol-artifact-1",
  "contractName": "RainbowBridgeFacet",
  "sourceName": "src/bridges/facets/RainbowBridgeFacet.sol",
  "abi": [
    {
      "inputs": [],
      "name": "InvalidConfig",
      "type": "error"
    },
    {
      "inputs": [],
      "name": "NoTransferToNullAddress",
      "type": "error"
    },
    {
      "inputs": [],
      "name": "NullAddrIsNotAnERC20Token",
      "type": "error"
    },
    {
      "inputs": [],
      "name": "ReentrancyError",
      "type": "error"
    },
    {
      "anonymous": false,
      "inputs": [
        {
          "indexed": false,
          "internalType": "address",
          "name": "ethCustodian",
          "type": "address"
        }
      ],
      "name": "RainbowBridgeInitialized",
      "type": "event"
    },
    {
      "anonymous": false,
      "inputs": [
        {
          "indexed": false,
          "internalType": "string",
          "name": "bridgeUsed",
          "type": "string"
        },
        {
          "indexed": false,
          "internalType": "address",
          "name": "tokenAddress",
          "type": "address"
        },
        {
          "indexed": false,
          "internalType": "address",
          "name": "from",
          "type": "address"
        },
        {
          "indexed": false,
          "internalType": "string",
          "name": "to",
          "type": "string"
        },
        {
          "indexed": false,
          "internalType": "uint256",
          "name": "amount",
          "type": "uint256"
        },
        {
          "indexed": false,
          "internalType": "uint256",
          "name": "fee",
          "type": "uint256"
        }
      ],
      "name": "TransferStarted",
      "type": "event"
    },
    {
      "anonymous": false,
      "inputs": [
        {
          "indexed": false,
          "internalType": "address",
          "name": "newAddress",
          "type": "address"
        }
      ],
      "name": "UpdatedEthCustodianAddress",
      "type": "event"
    },
    {
      "inputs": [
        {
          "internalType": "address",
          "name": "_ethCustodian",
          "type": "address"
        }
      ],
      "name": "initializeRainbowBridge",
      "outputs": [],
      "stateMutability": "nonpayable",
      "type": "function"
    },
    {
      "inputs": [
        {
          "components": [
            {
              "internalType": "address",
              "name": "token",
              "type": "address"
            },
            {
              "internalType": "string",
              "name": "recipient",
              "type": "string"
            },
            {
              "internalType": "uint256",
              "name": "amount",
              "type": "uint256"
            },
            {
              "internalType": "uint256",
              "name": "transferFee",
              "type": "uint256"
            }
          ],
          "internalType": "struct RainbowBridgeFacet.RainbowBridgeData",
          "name": "_rainbowData",
          "type": "tuple"
        }
      ],
      "name": "rainbowBridgeTokensToAurora",
      "outputs": [],
      "stateMutability": "payable",
      "type": "function"
    },
    {
      "inputs": [
        {
          "internalType": "address",
          "name": "_newAddress",
          "type": "address"
        }
      ],
      "name": "updateEthCustodianAddress",
      "outputs": [],
      "stateMutability": "nonpayable",
      "type": "function"
    }
  ],
  "bytecode": "0x608060405234801561001057600080fd5b506110d1806100206000396000f3fe6080604052600436106100345760003560e01c80634d3bc12c1461003957806383c4e45714610055578063ccda49401461007e575b600080fd5b610053600480360381019061004e9190610a9d565b6100a7565b005b34801561006157600080fd5b5061007c60048036038101906100779190610a4b565b61021e565b005b34801561008a57600080fd5b506100a560048036038101906100a09190610a4b565b610317565b005b60006100b1610410565b90506001816000015414156100f2576040517f29f745a700000000000000000000000000000000000000000000000000000000815260040160405180910390fd5b60018160000181905550600061010661043d565b905060008160000160009054906101000a900473ffffffffffffffffffffffffffffffffffffffff16905061014584600001513330876040015161046a565b8073ffffffffffffffffffffffffffffffffffffffff1663ed940ed78560400151866020015187606001516040518463ffffffff1660e01b815260040161018d929190610ca0565b6000604051808303818588803b1580156101a657600080fd5b505af11580156101ba573d6000803e3d6000fd5b50505050507f32e11063077f1bde693298b794b8849a29590289ac43cc36ae2e31a8d4bc33a0846000015133866020015187604001518860600151604051610206959493929190610d10565b60405180910390a15050600081600001819055505050565b61022661054a565b600073ffffffffffffffffffffffffffffffffffffffff168173ffffffffffffffffffffffffffffffffffffffff16141561028d576040517f35be3ac800000000000000000000000000000000000000000000000000000000815260040160405180910390fd5b600061029761043d565b9050818160000160006101000a81548173ffffffffffffffffffffffffffffffffffffffff021916908373ffffffffffffffffffffffffffffffffffffffff1602179055507f0e271e5092994f3619f3081d006332faea7f9677a46ae6ae30bfb308354317af8260405161030b9190610c2c565b60405180910390a15050565b61031f61054a565b600073ffffffffffffffffffffffffffffffffffffffff168173ffffffffffffffffffffffffffffffffffffffff161415610386576040517f35be3ac800000000000000000000000000000000000000000000000000000000815260040160405180910390fd5b600061039061043d565b9050818160000160006101000a81548173ffffffffffffffffffffffffffffffffffffffff021916908373ffffffffffffffffffffffffffffffffffffffff1602179055507f5f9a3cd1af676f2af793b5dbea602a96fd95c2b6076fb22bc31758a9f21b716e826040516104049190610c2c565b60405180910390a15050565b6000807fa65bb2f450488ab0858c00edc14abc5297769bf42adb48cfb77752890e8b697b90508091505090565b6000807fc203df12897ecaf407602e68fbf27d8a4ac88606ba199b78ba452fde50bcfa7f90508091505090565b600073ffffffffffffffffffffffffffffffffffffffff168473ffffffffffffffffffffffffffffffffffffffff1614156104d1576040517fd1bebf0c00000000000000000000000000000000000000000000000000000000815260040160405180910390fd5b600073ffffffffffffffffffffffffffffffffffffffff168273ffffffffffffffffffffffffffffffffffffffff161415610538576040517f21f7434500000000000000000000000000000000000000000000000000000000815260040160405180910390fd5b610544848484846105e5565b50505050565b61055261066e565b60040160009054906101000a900473ffffffffffffffffffffffffffffffffffffffff1673ffffffffffffffffffffffffffffffffffffffff163373ffffffffffffffffffffffffffffffffffffffff16146105e3576040517f08c379a00000000000000000000000000000000000000000000000000000000081526004016105da90610cd0565b60405180910390fd5b565b610668846323b872dd60e01b85858560405160240161060693929190610c47565b604051602081830303815290604052907bffffffffffffffffffffffffffffffffffffffffffffffffffffffff19166020820180517bffffffffffffffffffffffffffffffffffffffffffffffffffffffff838183161783525050505061069b565b50505050565b6000807fc8fcad8db84d3cc18b4c41d551ea0ee66dd599cde068d998e57d5e09332c131c90508091505090565b60006106fd826040518060400160405280602081526020017f5361666545524332303a206c6f772d6c6576656c2063616c6c206661696c65648152508573ffffffffffffffffffffffffffffffffffffffff166107629092919063ffffffff16565b905060008151111561075d578080602001905181019061071d9190610a74565b61075c576040517f08c379a000000000000000000000000000000000000000000000000000000000815260040161075390610d9d565b60405180910390fd5b5b505050565b6060610771848460008561077a565b90509392505050565b6060824710156107bf576040517f08c379a00000000000000000000000000000000000000000000000000000000081526004016107b690610cf0565b60405180910390fd5b6107c88561088e565b610807576040517f08c379a00000000000000000000000000000000000000000000000000000000081526004016107fe90610d7d565b60405180910390fd5b6000808673ffffffffffffffffffffffffffffffffffffffff1685876040516108309190610c15565b60006040518083038185875af1925050503d806000811461086d576040519150601f19603f3d011682016040523d82523d6000602084013e610872565b606091505b50915091506108828282866108b1565b92505050949350505050565b6000808273ffffffffffffffffffffffffffffffffffffffff163b119050919050565b606083156108c157829050610911565b6000835111156108d45782518084602001fd5b816040517f08c379a00000000000000000000000000000000000000000000000000000000081526004016109089190610c7e565b60405180910390fd5b9392505050565b600061092b61092684610de2565b610dbd565b90508281526020810184848401111561094357600080fd5b61094e848285610e8d565b509392505050565b6000813590506109658161107f565b92915050565b60008151905061097a81611096565b92915050565b600082601f83011261099157600080fd5b81356109a1848260208601610918565b91505092915050565b6000608082840312156109bc57600080fd5b6109c66080610dbd565b905060006109d684828501610956565b600083015250602082013567ffffffffffffffff8111156109f657600080fd5b610a0284828501610980565b6020830152506040610a1684828501610a36565b6040830152506060610a2a84828501610a36565b60608301525092915050565b600081359050610a45816110ad565b92915050565b600060208284031215610a5d57600080fd5b6000610a6b84828501610956565b91505092915050565b600060208284031215610a8657600080fd5b6000610a948482850161096b565b91505092915050565b600060208284031215610aaf57600080fd5b600082013567ffffffffffffffff811115610ac957600080fd5b610ad5848285016109aa565b91505092915050565b610ae781610e45565b82525050565b6000610af882610e13565b610b028185610e29565b9350610b12818560208601610e9c565b80840191505092915050565b6000610b2982610e1e565b610b338185610e34565b9350610b43818560208601610e9c565b610b4c81610f2f565b840191505092915050565b6000610b64602283610e34565b9150610b6f82610f40565b604082019050919050565b6000610b87602683610e34565b9150610b9282610f8f565b604082019050919050565b6000610baa600d83610e34565b9150610bb582610fde565b602082019050919050565b6000610bcd601d83610e34565b9150610bd882611007565b602082019050919050565b6000610bf0602a83610e34565b9150610bfb82611030565b604082019050919050565b610c0f81610e83565b82525050565b6000610c218284610aed565b915081905092915050565b6000602082019050610c416000830184610ade565b92915050565b6000606082019050610c5c6000830186610ade565b610c696020830185610ade565b610c766040830184610c06565b949350505050565b60006020820190508181036000830152610c988184610b1e565b905092915050565b60006040820190508181036000830152610cba8185610b1e565b9050610cc96020830184610c06565b9392505050565b60006020820190508181036000830152610ce981610b57565b9050919050565b60006020820190508181036000830152610d0981610b7a565b9050919050565b600060c0820190508181036000830152610d2981610b9d565b9050610d386020830188610ade565b610d456040830187610ade565b8181036060830152610d578186610b1e565b9050610d666080830185610c06565b610d7360a0830184610c06565b9695505050505050565b60006020820190508181036000830152610d9681610bc0565b9050919050565b60006020820190508181036000830152610db681610be3565b9050919050565b6000610dc7610dd8565b9050610dd38282610ecf565b919050565b6000604051905090565b600067ffffffffffffffff821115610dfd57610dfc610f00565b5b610e0682610f2f565b9050602081019050919050565b600081519050919050565b600081519050919050565b600081905092915050565b600082825260208201905092915050565b6000610e5082610e63565b9050919050565b60008115159050919050565b600073ffffffffffffffffffffffffffffffffffffffff82169050919050565b6000819050919050565b82818337600083830152505050565b60005b83811015610eba578082015181840152602081019050610e9f565b83811115610ec9576000848401525b50505050565b610ed882610f2f565b810181811067ffffffffffffffff82111715610ef757610ef6610f00565b5b80604052505050565b7f4e487b7100000000000000000000000000000000000000000000000000000000600052604160045260246000fd5b6000601f19601f8301169050919050565b7f4c69624469616d6f6e643a204d75737420626520636f6e7472616374206f776e60008201527f6572000000000000000000000000000000000000000000000000000000000000602082015250565b7f416464726573733a20696e73756666696369656e742062616c616e636520666f60008201527f722063616c6c0000000000000000000000000000000000000000000000000000602082015250565b7f7261696e626f7742726964676500000000000000000000000000000000000000600082015250565b7f416464726573733a2063616c6c20746f206e6f6e2d636f6e7472616374000000600082015250565b7f5361666545524332303a204552433230206f7065726174696f6e20646964206e60008201527f6f74207375636365656400000000000000000000000000000000000000000000602082015250565b61108881610e45565b811461109357600080fd5b50565b61109f81610e57565b81146110aa57600080fd5b50565b6110b681610e83565b81146110c157600080fd5b5056fea164736f6c6343000804000a",
  "linkReferences": {},
  "deployedLinkReferences": {}
}