{
  "_format": "hh-sol-artifact-1",
  "contractName": "StargateFacet",
  "sourceName": "src/bridges/facets/StargateFacet.sol",
  "abi": [
    {
      "inputs": [],
      "name": "InvalidAmount",
      "type": "error"
    },
    {
      "inputs": [],
      "name": "InvalidConfig",
      "type": "error"
    },
    {
      "inputs": [],
      "name": "InvalidSourcePoolId",
      "type": "error"
    },
    {
      "inputs": [],
      "name": "ReentrancyError",
      "type": "error"
    },
    {
      "inputs": [],
      "name": "SenderNotStargateRouter",
      "type": "error"
    },
    {
      "inputs": [],
      "name": "StargateRouterAddressZero",
      "type": "error"
    },
    {
      "anonymous": false,
      "inputs": [
        {
          "indexed": false,
          "internalType": "uint16",
          "name": "chainId",
          "type": "uint16"
        },
        {
          "indexed": false,
          "internalType": "address",
          "name": "token",
          "type": "address"
        },
        {
          "indexed": false,
          "internalType": "uint16",
          "name": "poolId",
          "type": "uint16"
        }
      ],
      "name": "SGAddedPool",
      "type": "event"
    },
    {
      "anonymous": false,
      "inputs": [
        {
          "indexed": false,
          "internalType": "address",
          "name": "stargate",
          "type": "address"
        },
        {
          "indexed": false,
          "internalType": "uint16",
          "name": "chainId",
          "type": "uint16"
        }
      ],
      "name": "SGInitialized",
      "type": "event"
    },
    {
      "anonymous": false,
      "inputs": [
        {
          "indexed": false,
          "internalType": "address",
          "name": "token",
          "type": "address"
        },
        {
          "indexed": false,
          "internalType": "uint256",
          "name": "amount",
          "type": "uint256"
        }
      ],
      "name": "SGReceivedOnDestination",
      "type": "event"
    },
    {
      "anonymous": false,
      "inputs": [
        {
          "indexed": false,
          "internalType": "string",
          "name": "bridgeUsed",
          "type": "string"
        },
        {
          "indexed": false,
          "internalType": "address",
          "name": "fromToken",
          "type": "address"
        },
        {
          "indexed": false,
          "internalType": "address",
          "name": "toToken",
          "type": "address"
        },
        {
          "indexed": false,
          "internalType": "address",
          "name": "from",
          "type": "address"
        },
        {
          "indexed": false,
          "internalType": "address",
          "name": "to",
          "type": "address"
        },
        {
          "indexed": false,
          "internalType": "uint256",
          "name": "amount",
          "type": "uint256"
        },
        {
          "indexed": false,
          "internalType": "uint16",
          "name": "chainIdTo",
          "type": "uint16"
        }
      ],
      "name": "SGTransferStarted",
      "type": "event"
    },
    {
      "anonymous": false,
      "inputs": [
        {
          "indexed": false,
          "internalType": "address",
          "name": "newAddress",
          "type": "address"
        }
      ],
      "name": "SGUpdatedRouter",
      "type": "event"
    },
    {
      "anonymous": false,
      "inputs": [
        {
          "indexed": false,
          "internalType": "uint256",
          "name": "newSlippage",
          "type": "uint256"
        }
      ],
      "name": "SGUpdatedSlippageTolerance",
      "type": "event"
    },
    {
      "inputs": [
        {
          "internalType": "bytes8",
          "name": "c__2ea48871",
          "type": "bytes8"
        }
      ],
      "name": "c_2ea48871",
      "outputs": [],
      "stateMutability": "pure",
      "type": "function"
    },
    {
      "inputs": [
        {
          "internalType": "bytes8",
          "name": "c__58fae2aa",
          "type": "bytes8"
        }
      ],
      "name": "c_58fae2aa",
      "outputs": [],
      "stateMutability": "pure",
      "type": "function"
    },
    {
      "inputs": [
        {
          "internalType": "bytes8",
          "name": "c__2ea48871",
          "type": "bytes8"
        }
      ],
      "name": "c_false2ea48871",
      "outputs": [
        {
          "internalType": "bool",
          "name": "",
          "type": "bool"
        }
      ],
      "stateMutability": "pure",
      "type": "function"
    },
    {
      "inputs": [
        {
          "internalType": "bytes8",
          "name": "c__58fae2aa",
          "type": "bytes8"
        }
      ],
      "name": "c_false58fae2aa",
      "outputs": [
        {
          "internalType": "bool",
          "name": "",
          "type": "bool"
        }
      ],
      "stateMutability": "pure",
      "type": "function"
    },
    {
      "inputs": [
        {
          "internalType": "bytes8",
          "name": "c__2ea48871",
          "type": "bytes8"
        }
      ],
      "name": "c_true2ea48871",
      "outputs": [
        {
          "internalType": "bool",
          "name": "",
          "type": "bool"
        }
      ],
      "stateMutability": "pure",
      "type": "function"
    },
    {
      "inputs": [
        {
          "internalType": "bytes8",
          "name": "c__58fae2aa",
          "type": "bytes8"
        }
      ],
      "name": "c_true58fae2aa",
      "outputs": [
        {
          "internalType": "bool",
          "name": "",
          "type": "bool"
        }
      ],
      "stateMutability": "pure",
      "type": "function"
    },
    {
      "inputs": [
        {
          "internalType": "uint16",
          "name": "_chainId",
          "type": "uint16"
        },
        {
          "internalType": "address",
          "name": "_token",
          "type": "address"
        },
        {
          "internalType": "uint16",
          "name": "_poolId",
          "type": "uint16"
        }
      ],
      "name": "sgAddPool",
      "outputs": [],
      "stateMutability": "nonpayable",
      "type": "function"
    },
    {
      "inputs": [
        {
          "components": [
            {
              "internalType": "uint256",
              "name": "qty",
              "type": "uint256"
            },
            {
              "internalType": "address",
              "name": "fromToken",
              "type": "address"
            },
            {
              "internalType": "address",
              "name": "toToken",
              "type": "address"
            },
            {
              "internalType": "uint16",
              "name": "dstChainId",
              "type": "uint16"
            },
            {
              "internalType": "address",
              "name": "to",
              "type": "address"
            },
            {
              "internalType": "address",
              "name": "destStargateComposed",
              "type": "address"
            }
          ],
          "internalType": "struct StargateFacet.StargateData",
          "name": "_sgData",
          "type": "tuple"
        }
      ],
      "name": "sgBridgeTokens",
      "outputs": [],
      "stateMutability": "payable",
      "type": "function"
    },
    {
      "inputs": [
        {
          "internalType": "uint16",
          "name": "_destChain",
          "type": "uint16"
        },
        {
          "internalType": "address",
          "name": "_receiver",
          "type": "address"
        },
        {
          "internalType": "address",
          "name": "_router",
          "type": "address"
        }
      ],
      "name": "sgCalculateFees",
      "outputs": [
        {
          "internalType": "uint256",
          "name": "",
          "type": "uint256"
        }
      ],
      "stateMutability": "view",
      "type": "function"
    },
    {
      "inputs": [
        {
          "internalType": "uint16",
          "name": "_chainId",
          "type": "uint16"
        },
        {
          "internalType": "address",
          "name": "_token",
          "type": "address"
        },
        {
          "internalType": "uint16",
          "name": "_poolId",
          "type": "uint16"
        }
      ],
      "name": "sgCheckPoolId",
      "outputs": [
        {
          "internalType": "bool",
          "name": "",
          "type": "bool"
        }
      ],
      "stateMutability": "view",
      "type": "function"
    },
    {
      "inputs": [
        {
          "internalType": "address",
          "name": "_stargateRouter",
          "type": "address"
        },
        {
          "internalType": "uint16",
          "name": "_chainId",
          "type": "uint16"
        }
      ],
      "name": "sgInitialize",
      "outputs": [],
      "stateMutability": "nonpayable",
      "type": "function"
    },
    {
      "inputs": [
        {
          "internalType": "uint256",
          "name": "_amount",
          "type": "uint256"
        }
      ],
      "name": "sgMinAmountOut",
      "outputs": [
        {
          "internalType": "uint256",
          "name": "",
          "type": "uint256"
        }
      ],
      "stateMutability": "view",
      "type": "function"
    },
    {
      "inputs": [
        {
          "internalType": "uint16",
          "name": "_chainId",
          "type": "uint16"
        },
        {
          "internalType": "bytes",
          "name": "_srcAddress",
          "type": "bytes"
        },
        {
          "internalType": "uint256",
          "name": "_nonce",
          "type": "uint256"
        },
        {
          "internalType": "address",
          "name": "_token",
          "type": "address"
        },
        {
          "internalType": "uint256",
          "name": "amountLD",
          "type": "uint256"
        },
        {
          "internalType": "bytes",
          "name": "_payload",
          "type": "bytes"
        }
      ],
      "name": "sgReceive",
      "outputs": [],
      "stateMutability": "nonpayable",
      "type": "function"
    },
    {
      "inputs": [
        {
          "internalType": "uint16",
          "name": "_chainId",
          "type": "uint16"
        },
        {
          "internalType": "address",
          "name": "_token",
          "type": "address"
        }
      ],
      "name": "sgRetrievePoolId",
      "outputs": [
        {
          "internalType": "uint16",
          "name": "",
          "type": "uint16"
        }
      ],
      "stateMutability": "view",
      "type": "function"
    },
    {
      "inputs": [
        {
          "internalType": "address",
          "name": "_newAddress",
          "type": "address"
        }
      ],
      "name": "sgUpdateRouter",
      "outputs": [],
      "stateMutability": "nonpayable",
      "type": "function"
    },
    {
      "inputs": [
        {
          "internalType": "uint256",
          "name": "_newSlippage",
          "type": "uint256"
        }
      ],
      "name": "sgUpdateSlippageTolerance",
      "outputs": [],
      "stateMutability": "nonpayable",
      "type": "function"
    },
    {
      "inputs": [
        {
          "internalType": "address",
          "name": "_token",
          "type": "address"
        },
        {
          "internalType": "address",
          "name": "_user",
          "type": "address"
        },
        {
          "internalType": "uint256",
          "name": "_amount",
          "type": "uint256"
        }
      ],
      "name": "sgWithdraw",
      "outputs": [],
      "stateMutability": "payable",
      "type": "function"
    },
    {
      "stateMutability": "payable",
      "type": "receive"
    }
  ],
  "bytecode": "0x608060405234801561001057600080fd5b506138ad806100206000396000f3fe6080604052600436106101025760003560e01c8063430dbc3a116100955780639206af4c116100645780639206af4c14610365578063ab8236f3146103a2578063b8c06ccc146103cb578063c722a336146103f4578063d63f8bf41461041057610109565b8063430dbc3a14610299578063498ee469146102d65780634be85c35146102ff578063618c3f291461032857610109565b80632a8dcdb7116100d15780632a8dcdb7146101b95780632b80b66e146101f65780633f02651f1461023357806342d910c61461025c57610109565b8063057945b81461010e5780631f8097fb1461014b578063217aabb714610167578063221263de1461019057610109565b3661010957005b600080fd5b34801561011a57600080fd5b5061013560048036038101906101309190612a07565b61044d565b6040516101429190613029565b60405180910390f35b61016560048036038101906101609190612a30565b610454565b005b34801561017357600080fd5b5061018e60048036038101906101899190612bec565b610d69565b005b34801561019c57600080fd5b506101b760048036038101906101b29190612a07565b610e61565b005b3480156101c557600080fd5b506101e060048036038101906101db9190612ae4565b610e64565b6040516101ed9190613029565b60405180910390f35b34801561020257600080fd5b5061021d60048036038101906102189190612a07565b610f98565b60405161022a9190613029565b60405180910390f35b34801561023f57600080fd5b5061025a60048036038101906102559190612a07565b610f9f565b005b34801561026857600080fd5b50610283600480360381019061027e9190612a95565b610fa2565b60405161029091906132d4565b60405180910390f35b3480156102a557600080fd5b506102c060048036038101906102bb9190612a59565b611119565b6040516102cd919061317a565b60405180910390f35b3480156102e257600080fd5b506102fd60048036038101906102f891906129a2565b6111fd565b005b34801561030b57600080fd5b5061032660048036038101906103219190612901565b6117a6565b005b34801561033457600080fd5b5061034f600480360381019061034a9190612bec565b61198f565b60405161035c91906132d4565b60405180910390f35b34801561037157600080fd5b5061038c60048036038101906103879190612a07565b611a33565b6040516103999190613029565b60405180910390f35b3480156103ae57600080fd5b506103c960048036038101906103c49190612b33565b611a3e565b005b3480156103d757600080fd5b506103f260048036038101906103ed9190612ae4565b611cd4565b005b61040e60048036038101906104099190612953565b611e3e565b005b34801561041c57600080fd5b5061043760048036038101906104329190612a07565b61207f565b6040516104449190613029565b60405180910390f35b6000919050565b61046867ff4f7db26440a02660c01b610f9f565b61047c67ed34654b514a8ff060c01b610e61565b610490673f4617df78674d5a60c01b610e61565b6104a467519d079d60a15b4760c01b610e61565b60006104ae61208a565b90506104c4676880c0414426e83260c01b610e61565b6104d8675fe6aaaae971a37f60c01b610e61565b60018160000154141561052b576104f967881ec2006250a9fd60c01b610e61565b6040517f29f745a700000000000000000000000000000000000000000000000000000000815260040160405180910390fd5b61053f678ccd59e8a194343760c01b610e61565b61055367b9f22ba89f7e50fe60c01b610e61565b60018160000181905550610571679c6cee2b6ec49b4760c01b610e61565b61058567135d6593171001b660c01b610f9f565b6105996707e790b6b58f3c3b60c01b610f9f565b6105ad67f80266cfd052db5360c01b610f9f565b6105c167b9de00d76c9772c860c01b610f9f565b6000826000015111610613576105e167c320c19bd5fb88d060c01b610f9f565b6040517f2c5211c600000000000000000000000000000000000000000000000000000000815260040160405180910390fd5b6106276763b7c2056b8fac5e60c01b610f9f565b61063b6707e47f0139a31bc060c01b610f9f565b61064f670b4eeba1f899cd3a60c01b610f9f565b600073ffffffffffffffffffffffffffffffffffffffff16826020015173ffffffffffffffffffffffffffffffffffffffff1614801561069f575061069e67579ce05a34d8b39360c01b61207f565b5b806107125750600073ffffffffffffffffffffffffffffffffffffffff16826040015173ffffffffffffffffffffffffffffffffffffffff161480156106f557506106f46717ce53d9b2eb88f760c01b61207f565b5b80156107115750610710670163f85a06a3640b60c01b61207f565b5b5b806107855750600073ffffffffffffffffffffffffffffffffffffffff16826080015173ffffffffffffffffffffffffffffffffffffffff16148015610768575061076767ed008fbb89095af660c01b61207f565b5b801561078457506107836741f41d351137c33760c01b61207f565b5b5b806107dc5750600073ffffffffffffffffffffffffffffffffffffffff168260a0015173ffffffffffffffffffffffffffffffffffffffff161480156107db57506107da67bf5eb249638a74a760c01b61207f565b5b5b15610827576107f567d488906625d7e55e60c01b610f9f565b6040517f35be3ac800000000000000000000000000000000000000000000000000000000815260040160405180910390fd5b61083b67e686f539333514df60c01b610f9f565b61084f67e434c77d894c890660c01b610f9f565b6108636728b9e2138bfd5c6f60c01b610f9f565b600061086d612108565b9050610883674a28c290530cf20c60c01b610f9f565b6108976722216be74418f68f60c01b610f9f565b60006108b98260000160149054906101000a900461ffff168560200151611119565b90506108cf67a18aa4049d5d32c460c01b610f9f565b6108e3672a35a35937fcc6c760c01b610f9f565b60008161ffff1614156109365761090467125a6c52c90f8c9160c01b610f9f565b6040517f7790ca9900000000000000000000000000000000000000000000000000000000815260040160405180910390fd5b61094a67292380b7da813d1b60c01b610f9f565b61095e6782682c9bc766a24c60c01b610f9f565b610972674791f2824aa26aac60c01b610f9f565b600061098685606001518660400151611119565b905061099c67f9eb4087dc5c21cc60c01b610f9f565b6109b06704bf12c89a59c9b660c01b610f9f565b60006109e9866060015187608001518660000160009054906101000a900473ffffffffffffffffffffffffffffffffffffffff16610fa2565b90506109ff67b9a7da3480af592360c01b610f9f565b610a1367e391c24f236c3a8860c01b610f9f565b6000610a22876000015161198f565b9050610a386704b2220d94c8815c60c01b610f9f565b610a4c67187ce34316ca5f2260c01b610f9f565b60008760a00151604051602001610a639190612f2a565b6040516020818303038152906040529050610a8867da4a3408a72829da60c01b610f9f565b610a9c67fdeec8b8ceec3cb260c01b610f9f565b60008860800151604051602001610ab39190612f5c565b6040516020818303038152906040529050610ad86731636c1a9f5f29f060c01b610f9f565b610aec678cefa71eee10601c60c01b610f9f565b610b2133308b600001518c6020015173ffffffffffffffffffffffffffffffffffffffff16612186909392919063ffffffff16565b610b3567c15acb8b40ab87f760c01b610f9f565b610b4967c8010bf0ac8e244860c01b610f9f565b610ba08760000160009054906101000a900473ffffffffffffffffffffffffffffffffffffffff168a600001518b6020015173ffffffffffffffffffffffffffffffffffffffff1661220f9092919063ffffffff16565b610bb4675d4fc585a5634ba360c01b610f9f565b610bc867f33a637dcba2c92160c01b610f9f565b8660000160009054906101000a900473ffffffffffffffffffffffffffffffffffffffff1673ffffffffffffffffffffffffffffffffffffffff16639fbf10fc858b606001518989338f600001518a604051806060016040528062030d408152602001600081526020016040518060400160405280600281526020017f30780000000000000000000000000000000000000000000000000000000000008152508152508b8b6040518b63ffffffff1660e01b8152600401610c9199989796959493929190613232565b6000604051808303818588803b158015610caa57600080fd5b505af1158015610cbe573d6000803e3d6000fd5b5050505050610cd767c185340ba719733560c01b610f9f565b610ceb677fd250cd7dd4130160c01b610f9f565b7f7a72e6f4a3d77f8a5a6c536a973421c5bf00107f9aec7995661537673b8be08789602001518a60400151338c608001518d600001518e60600151604051610d38969594939291906130a6565b60405180910390a150505050505050610d5b6757388ee8b85d3f8a60c01b610e61565b600081600001819055505050565b610d7d67469741801c6cd23260c01b610f9f565b610d91672faad0c9da40791860c01b610f9f565b610da567e5f29a5cf24664bc60c01b610f9f565b610dad61236d565b610dc1679ea5c5f765d42f3060c01b610f9f565b610dd567aee28a1b2941d32b60c01b610f9f565b6000610ddf612108565b9050610df567efe88c0b52f5701860c01b610f9f565b818160020181905550610e1267824716ab907fccd260c01b610f9f565b610e26679f9e22fb4ba6f52460c01b610f9f565b7f45934903f6b10aff9d3435b8362d284d95d14ca68e8554f05f04c7856a6003c082604051610e5591906132d4565b60405180910390a15050565b50565b6000610e7a67360564bf03d5093d60c01b610f9f565b610e8e6738afcee12f7d8cae60c01b610f9f565b610ea26712f6fe0f0e98b7a060c01b610f9f565b6000610eac612108565b9050610ec2671175a921f664974560c01b610f9f565b610ed667abacba59d49fdb7160c01b610f9f565b8261ffff168160030160008761ffff1661ffff16815260200190815260200160002060008673ffffffffffffffffffffffffffffffffffffffff1673ffffffffffffffffffffffffffffffffffffffff16815260200190815260200160002060009054906101000a900461ffff1661ffff16148015610f655750610f6467416d67a08120da8060c01b61207f565b5b80610f805750610f7f67043d813655cb266e60c01b61044d565b5b610f8b576000610f8e565b60015b9150509392505050565b6000919050565b50565b6000610fb867196630a6f767dbc360c01b610f9f565b610fcc6766abea27a922a86c60c01b610f9f565b610fe0679736d544176bfc4060c01b610f9f565b60008273ffffffffffffffffffffffffffffffffffffffff16630a512369866001876040516020016110129190612f2a565b604051602081830303815290604052604051806060016040528062030d408152602001600081526020016040518060400160405280600281526020017f30780000000000000000000000000000000000000000000000000000000000008152508152506040518563ffffffff1660e01b815260040161109494939291906131cc565b604080518083038186803b1580156110ab57600080fd5b505afa1580156110bf573d6000803e3d6000fd5b505050506040513d601f19601f820116820180604052508101906110e39190612c3e565b5090506110fa67c1c0181139788cb860c01b610f9f565b61110e67892a1b1c8ef8d12e60c01b610f9f565b809150509392505050565b600061112f67bb4855240254666060c01b610f9f565b6111436768e136277fa1b69c60c01b610f9f565b6111576756aeb48d62a6971660c01b610f9f565b6000611161612108565b905061117767c89c4ae5ab92dc6060c01b610f9f565b61118b679b058eae11c9bc9e60c01b610f9f565b8060030160008561ffff1661ffff16815260200190815260200160002060008473ffffffffffffffffffffffffffffffffffffffff1673ffffffffffffffffffffffffffffffffffffffff16815260200190815260200160002060009054906101000a900461ffff1691505092915050565b6112116727cf68443d3fa8ba60c01b610f9f565b611225679db7f91e3c80bc8460c01b610f9f565b6112396779ff1e24b9ddf61560c01b610f9f565b600073ffffffffffffffffffffffffffffffffffffffff168273ffffffffffffffffffffffffffffffffffffffff1614156112b45761128267e0fc4287288ee52b60c01b610f9f565b6040517f35be3ac800000000000000000000000000000000000000000000000000000000815260040160405180910390fd5b6112c8674f7d73a7812c774460c01b610f9f565b6112dc67ca59e4e45117104f60c01b610f9f565b6112f067a534283b8d32e77960c01b610f9f565b6112f861236d565b61130c67c2a0dcc59bd6090860c01b610f9f565b61132067db968beb431f698360c01b610f9f565b600061132a612108565b905061134067715ffb9a6801264960c01b610f9f565b828160000160006101000a81548173ffffffffffffffffffffffffffffffffffffffff021916908373ffffffffffffffffffffffffffffffffffffffff16021790555061139767c20766dd5db6f1cf60c01b610f9f565b818160000160146101000a81548161ffff021916908361ffff1602179055506113ca67464179c15b1c5dea60c01b610f9f565b603281600201819055506113e86796c2a071dfcb306e60c01b610f9f565b6113fc67c85fb3ce7070de1d60c01b610f9f565b61141d600173a0b86991c6218b36c1d19d4a2e9eb0ce3606eb486001611cd4565b611431674cbbbb76483f76ce60c01b610f9f565b61144567a04c786ed5c5d95060c01b610f9f565b611466600173dac17f958d2ee523a2206206994597c13d831ec76002611cd4565b61147a6715d0a28bab7f28c060c01b610f9f565b61148e67051951248be2978860c01b610f9f565b6114af60027355d398326f99059ff775485246999027b31979556002611cd4565b6114c367f15a3d11f57fcfee60c01b610f9f565b6114d76753e95d703c8deae860c01b610f9f565b6114f8600273e9e7cea3dedca5984780bafc599bd69add087d566005611cd4565b61150c67d226222cb10e9b4960c01b610f9f565b611520672f264c97e50c9e2160c01b610f9f565b611541600673b97ef9ef8734c71904d8002f8b6bc66dd9c48a6e6001611cd4565b61155567d27c0e7c85f9e9ca60c01b610f9f565b61156967bb7fda2e345c1ab760c01b610f9f565b61158a6006739702230a8ea53601f5cd2dc00fdbc13d4df4a8c76002611cd4565b61159e677b298bbf27a2896460c01b610f9f565b6115b267764f770273ade54b60c01b610f9f565b6115d36009732791bca1f2de4661ed88a30c99a7a9449aa841746001611cd4565b6115e767ab1d068f541d567a60c01b610f9f565b6115fb6739bb97859f7eef5d60c01b610f9f565b61161c600973c2132d05d31c914a87c6611c10748aeb04b58e8f6002611cd4565b61163067ebb82407102f0c6d60c01b610f9f565b61164467cfc26d6ced12b6c360c01b610f9f565b611665600a73ff970a61a04b1ca14834a43f5de4533ebddb5cc86001611cd4565b611679676757a17c33c2083060c01b610f9f565b61168d67e1af62a0d5016f5760c01b610f9f565b6116ae600a73fd086bc7cd5c481dcc9c85ebe478a1c0b69fcbb96002611cd4565b6116c2672067c6dcad8e268460c01b610f9f565b6116d6676dc9bc119990823a60c01b610f9f565b6116f7600b737f5c764cbc14f9669b88837ca1490cca17c316076001611cd4565b61170b679a126d706ae5e6c560c01b610f9f565b61171f6756915595f36c9f2f60c01b610f9f565b611740600c7304068da6c83afcfa0e13ba15a6696662335d5b756001611cd4565b611754678d8d17a0d776d8f360c01b610f9f565b61176867b2df66e403ef66af60c01b610f9f565b7fc8ec31998a27444f477c01de93c393769fd4fc017fb63163f71f8a8ab72ccd508383604051611799929190612fd7565b60405180910390a1505050565b6117ba677d30eb9e6167a00360c01b610f9f565b6117ce6767051394131e137760c01b610f9f565b6117e267ccb4048dfb64428c60c01b610f9f565b6117ea61236d565b6117fe675597ea8ef20822c460c01b610f9f565b61181267935959826207e35560c01b610f9f565b600073ffffffffffffffffffffffffffffffffffffffff168173ffffffffffffffffffffffffffffffffffffffff16141561188d5761185b6731fdef993f1ce75a60c01b610f9f565b6040517f3911c65500000000000000000000000000000000000000000000000000000000815260040160405180910390fd5b6118a167a8c61c2bc20fcf6e60c01b610f9f565b6118b567130a00ea67790fb260c01b610f9f565b6118c967023d71c008786c9260c01b610f9f565b60006118d3612108565b90506118e96702d58906469b87ca60c01b610f9f565b818160000160006101000a81548173ffffffffffffffffffffffffffffffffffffffff021916908373ffffffffffffffffffffffffffffffffffffffff16021790555061194067da74c03b7843ff5960c01b610f9f565b6119546772fcce2998646f7060c01b610f9f565b7f9ac04272c4559bf7459414abb5568dc1df58ab649f0af4afd1510074f5cc2fec826040516119839190612f5c565b60405180910390a15050565b60006119a5674ee6fd8eb8f4660360c01b610f9f565b6119b967e82dd026583e415160c01b610f9f565b6119cd6704f912d134b7fa3460c01b610f9f565b60006119d7612108565b90506119ed6708c46d19845de98860c01b610f9f565b611a01670b02cf78a5ade0bf60c01b610f9f565b6127108160020154612710611a169190613424565b84611a2191906133ca565b611a2b9190613399565b915050919050565b600060019050919050565b611a52673ce37857b1b0bcab60c01b610f9f565b611a666734a76f396393df1a60c01b610f9f565b611a7a677e8e5d43632d683360c01b610f9f565b6000611a84612108565b9050611a9a675fece9faa68edb5a60c01b610f9f565b611aae67dda016891e3524e760c01b610f9f565b8060000160009054906101000a900473ffffffffffffffffffffffffffffffffffffffff1673ffffffffffffffffffffffffffffffffffffffff163373ffffffffffffffffffffffffffffffffffffffff1614611b5f57611b1967f0340b4ad859bc0360c01b610f9f565b611b2d67484188cff0967d7e60c01b610f9f565b6040517fdade3c7100000000000000000000000000000000000000000000000000000000815260040160405180910390fd5b611b73677994cc1074f9400160c01b610f9f565b611b87671a8733d1dd2cae1260c01b610f9f565b611b9b67c0b056000463558a60c01b610f9f565b600082806020019051810190611bb1919061292a565b9050611bc7679ef22d3fd2a7499460c01b610f9f565b611bdb676fa8740f9a8a1a0860c01b610f9f565b8473ffffffffffffffffffffffffffffffffffffffff1663a9059cbb82866040518363ffffffff1660e01b8152600401611c16929190613000565b602060405180830381600087803b158015611c3057600080fd5b505af1158015611c44573d6000803e3d6000fd5b505050506040513d601f19601f82011682018060405250810190611c6891906129de565b50611c7d67c277b202b6c8b17560c01b610f9f565b611c91678eb15eb1e084990860c01b610f9f565b7f827e3293895509ef037b7438d4e009f37ad7b2562a14695d9dfd9cb0659842188585604051611cc2929190613000565b60405180910390a15050505050505050565b611ce86708f4576e63dc96cd60c01b610f9f565b611cfc67a7f75e23db1cf89460c01b610f9f565b611d10678aa5e6a4ae0f688160c01b610f9f565b611d1861236d565b611d2c67239ed1c64fac39b660c01b610f9f565b611d4067d3c36e1d3ff7074760c01b610f9f565b6000611d4a612108565b9050611d606709fec7210575d7a160c01b610f9f565b818160030160008661ffff1661ffff16815260200190815260200160002060008573ffffffffffffffffffffffffffffffffffffffff1673ffffffffffffffffffffffffffffffffffffffff16815260200190815260200160002060006101000a81548161ffff021916908361ffff160217905550611de967d632a6d340e8f42d60c01b610f9f565b611dfd67457ef8af7bc831ac60c01b610f9f565b7f85adba3a23dc45072c12199244adfbf4c1d736a46ac453eb732f4e5158af5867848484604051611e3093929190613195565b60405180910390a150505050565b611e52674984ba2757f6d00a60c01b610f9f565b611e6667ed34654b514a8ff060c01b610e61565b611e7a673f4617df78674d5a60c01b610e61565b611e8e67519d079d60a15b4760c01b610e61565b6000611e9861208a565b9050611eae676880c0414426e83260c01b610e61565b611ec2675fe6aaaae971a37f60c01b610e61565b600181600001541415611f1557611ee367881ec2006250a9fd60c01b610e61565b6040517f29f745a700000000000000000000000000000000000000000000000000000000815260040160405180910390fd5b611f29678ccd59e8a194343760c01b610e61565b611f3d67b9f22ba89f7e50fe60c01b610e61565b60018160000181905550611f5b679c6cee2b6ec49b4760c01b610e61565b611f6f670507df9054806be860c01b610f9f565b611f83679ea1808ac3c5c2e560c01b610f9f565b611f9767c5df6dcbee998e7960c01b610f9f565b611fab67df4587f1f2371f3960c01b610f9f565b611fb361236d565b611fc767895df5681a19285a60c01b610f9f565b611fdb6743513d677c981e7d60c01b610f9f565b61200630838673ffffffffffffffffffffffffffffffffffffffff1661220f9092919063ffffffff16565b61201a67dcea2ab88d6d423f60c01b610f9f565b61202e67720443338bdb400b60c01b610f9f565b61205b3084848773ffffffffffffffffffffffffffffffffffffffff16612186909392919063ffffffff16565b61206f6757388ee8b85d3f8a60c01b610e61565b6000816000018190555050505050565b600060019050919050565b60006120a067acf0e1e36a3da72f60c01b610e61565b6120b4674c484ef5662c249360c01b610e61565b6120c8679b14dfb6ef1e64ca60c01b610e61565b60007fc59b5acc5a6673a6c49ca2de898f87adbd9fdfdff36f689476b1c9e0c50964b49050612101678744af7b077ce36c60c01b610e61565b8091505090565b600061211e67ebd2f79328b7c05b60c01b610f9f565b61213267e68d975da0e27b5b60c01b610f9f565b612146679e199d331df0df2260c01b610f9f565b60007fbaeadb48cbcf0176d6c6ac156b0140abe0fb28a100a9a6a8b5df37e55693b1c8905061217f67b8b77df4fbfd99f460c01b610f9f565b8091505090565b612209846323b872dd60e01b8585856040516024016121a793929190612fa0565b604051602081830303815290604052907bffffffffffffffffffffffffffffffffffffffffffffffffffffffff19166020820180517bffffffffffffffffffffffffffffffffffffffffffffffffffffffff838183161783525050505061246c565b50505050565b60008114806122a8575060008373ffffffffffffffffffffffffffffffffffffffff1663dd62ed3e30856040518363ffffffff1660e01b8152600401612256929190612f77565b60206040518083038186803b15801561226e57600080fd5b505afa158015612282573d6000803e3d6000fd5b505050506040513d601f19601f820116820180604052508101906122a69190612c15565b145b6122e7576040517f08c379a00000000000000000000000000000000000000000000000000000000081526004016122de9061315a565b60405180910390fd5b6123688363095ea7b360e01b8484604051602401612306929190613000565b604051602081830303815290604052907bffffffffffffffffffffffffffffffffffffffffffffffffffffffff19166020820180517bffffffffffffffffffffffffffffffffffffffffffffffffffffffff838183161783525050505061246c565b505050565b6123816776efe7f9a3f3bf8460c01b612533565b6123956713b5651d33e3ab7f60c01b612533565b6123a967142703995f8e23ac60c01b612533565b6123bd67464721b4be2bc29360c01b612533565b6123c5612536565b60040160009054906101000a900473ffffffffffffffffffffffffffffffffffffffff1673ffffffffffffffffffffffffffffffffffffffff163373ffffffffffffffffffffffffffffffffffffffff1614612456576040517f08c379a000000000000000000000000000000000000000000000000000000000815260040161244d90613066565b60405180910390fd5b61246a67891fe59a8eb7459060c01b612533565b565b60006124ce826040518060400160405280602081526020017f5361666545524332303a206c6f772d6c6576656c2063616c6c206661696c65648152508573ffffffffffffffffffffffffffffffffffffffff166125b49092919063ffffffff16565b905060008151111561252e57808060200190518101906124ee91906129de565b61252d576040517f08c379a00000000000000000000000000000000000000000000000000000000081526004016125249061313a565b60405180910390fd5b5b505050565b50565b600061254c679a33882304e088fd60c01b612533565b612560673ebfa44d2bd9e44b60c01b612533565b612574672ff7fef2f0b4005460c01b612533565b60007fc8fcad8db84d3cc18b4c41d551ea0ee66dd599cde068d998e57d5e09332c131c90506125ad6728a2d055fd7f2d6e60c01b612533565b8091505090565b60606125c384846000856125cc565b90509392505050565b606082471015612611576040517f08c379a000000000000000000000000000000000000000000000000000000000815260040161260890613086565b60405180910390fd5b61261a856126e0565b612659576040517f08c379a00000000000000000000000000000000000000000000000000000000081526004016126509061311a565b60405180910390fd5b6000808673ffffffffffffffffffffffffffffffffffffffff1685876040516126829190612f45565b60006040518083038185875af1925050503d80600081146126bf576040519150601f19603f3d011682016040523d82523d6000602084013e6126c4565b606091505b50915091506126d4828286612703565b92505050949350505050565b6000808273ffffffffffffffffffffffffffffffffffffffff163b119050919050565b6060831561271357829050612763565b6000835111156127265782518084602001fd5b816040517f08c379a000000000000000000000000000000000000000000000000000000000815260040161275a9190613044565b60405180910390fd5b9392505050565b600061277d61277884613314565b6132ef565b90508281526020810184848401111561279557600080fd5b6127a084828561351d565b509392505050565b6000813590506127b781613816565b92915050565b6000815190506127cc8161382d565b92915050565b6000815190506127e181613844565b92915050565b6000813590506127f68161385b565b92915050565b600082601f83011261280d57600080fd5b813561281d84826020860161276a565b91505092915050565b600060c0828403121561283857600080fd5b61284260c06132ef565b90506000612852848285016128d7565b6000830152506020612866848285016127a8565b602083015250604061287a848285016127a8565b604083015250606061288e848285016128c2565b60608301525060806128a2848285016127a8565b60808301525060a06128b6848285016127a8565b60a08301525092915050565b6000813590506128d181613872565b92915050565b6000813590506128e681613889565b92915050565b6000815190506128fb81613889565b92915050565b60006020828403121561291357600080fd5b6000612921848285016127a8565b91505092915050565b60006020828403121561293c57600080fd5b600061294a848285016127bd565b91505092915050565b60008060006060848603121561296857600080fd5b6000612976868287016127a8565b9350506020612987868287016127a8565b9250506040612998868287016128d7565b9150509250925092565b600080604083850312156129b557600080fd5b60006129c3858286016127a8565b92505060206129d4858286016128c2565b9150509250929050565b6000602082840312156129f057600080fd5b60006129fe848285016127d2565b91505092915050565b600060208284031215612a1957600080fd5b6000612a27848285016127e7565b91505092915050565b600060c08284031215612a4257600080fd5b6000612a5084828501612826565b91505092915050565b60008060408385031215612a6c57600080fd5b6000612a7a858286016128c2565b9250506020612a8b858286016127a8565b9150509250929050565b600080600060608486031215612aaa57600080fd5b6000612ab8868287016128c2565b9350506020612ac9868287016127a8565b9250506040612ada868287016127a8565b9150509250925092565b600080600060608486031215612af957600080fd5b6000612b07868287016128c2565b9350506020612b18868287016127a8565b9250506040612b29868287016128c2565b9150509250925092565b60008060008060008060c08789031215612b4c57600080fd5b6000612b5a89828a016128c2565b965050602087013567ffffffffffffffff811115612b7757600080fd5b612b8389828a016127fc565b9550506040612b9489828a016128d7565b9450506060612ba589828a016127a8565b9350506080612bb689828a016128d7565b92505060a087013567ffffffffffffffff811115612bd357600080fd5b612bdf89828a016127fc565b9150509295509295509295565b600060208284031215612bfe57600080fd5b6000612c0c848285016128d7565b91505092915050565b600060208284031215612c2757600080fd5b6000612c35848285016128ec565b91505092915050565b60008060408385031215612c5157600080fd5b6000612c5f858286016128ec565b9250506020612c70858286016128ec565b9150509250929050565b612c838161346a565b82525050565b612c9281613458565b82525050565b612ca9612ca482613458565b613590565b82525050565b612cb88161347c565b82525050565b6000612cc982613345565b612cd3818561335b565b9350612ce381856020860161352c565b612cec81613641565b840191505092915050565b6000612d0282613345565b612d0c818561336c565b9350612d1c81856020860161352c565b612d2581613641565b840191505092915050565b6000612d3b82613345565b612d45818561337d565b9350612d5581856020860161352c565b80840191505092915050565b612d6a816134f9565b82525050565b6000612d7b82613350565b612d858185613388565b9350612d9581856020860161352c565b612d9e81613641565b840191505092915050565b6000612db6602283613388565b9150612dc18261365f565b604082019050919050565b6000612dd960028361336c565b9150612de4826136ae565b602082019050919050565b6000612dfc602683613388565b9150612e07826136d7565b604082019050919050565b6000612e1f600883613388565b9150612e2a82613726565b602082019050919050565b6000612e42601d83613388565b9150612e4d8261374f565b602082019050919050565b6000612e65602a83613388565b9150612e7082613778565b604082019050919050565b6000612e88603683613388565b9150612e93826137c7565b604082019050919050565b6000606083016000830151612eb66000860182612f0c565b506020830151612ec96020860182612f0c565b5060408301518482036040860152612ee18282612cbe565b9150508091505092915050565b612ef7816134b4565b82525050565b612f068161350b565b82525050565b612f15816134e2565b82525050565b612f24816134e2565b82525050565b6000612f368284612c98565b60148201915081905092915050565b6000612f518284612d30565b915081905092915050565b6000602082019050612f716000830184612c89565b92915050565b6000604082019050612f8c6000830185612c89565b612f996020830184612c89565b9392505050565b6000606082019050612fb56000830186612c89565b612fc26020830185612c89565b612fcf6040830184612f1b565b949350505050565b6000604082019050612fec6000830185612c89565b612ff96020830184612eee565b9392505050565b60006040820190506130156000830185612c89565b6130226020830184612f1b565b9392505050565b600060208201905061303e6000830184612caf565b92915050565b6000602082019050818103600083015261305e8184612d70565b905092915050565b6000602082019050818103600083015261307f81612da9565b9050919050565b6000602082019050818103600083015261309f81612def565b9050919050565b600060e08201905081810360008301526130bf81612e12565b90506130ce6020830189612c89565b6130db6040830188612c89565b6130e86060830187612c89565b6130f56080830186612c89565b61310260a0830185612f1b565b61310f60c0830184612eee565b979650505050505050565b6000602082019050818103600083015261313381612e35565b9050919050565b6000602082019050818103600083015261315381612e58565b9050919050565b6000602082019050818103600083015261317381612e7b565b9050919050565b600060208201905061318f6000830184612eee565b92915050565b60006060820190506131aa6000830186612eee565b6131b76020830185612c89565b6131c46040830184612eee565b949350505050565b600060a0820190506131e16000830187612eee565b6131ee6020830186612d61565b81810360408301526132008185612cf7565b9050818103606083015261321381612dcc565b905081810360808301526132278184612e9e565b905095945050505050565b600061012082019050613248600083018c612eee565b613255602083018b612efd565b613262604083018a612efd565b61326f6060830189612c7a565b61327c6080830188612f1b565b61328960a0830187612f1b565b81810360c083015261329b8186612e9e565b905081810360e08301526132af8185612cf7565b90508181036101008301526132c48184612cf7565b90509a9950505050505050505050565b60006020820190506132e96000830184612f1b565b92915050565b60006132f961330a565b9050613305828261355f565b919050565b6000604051905090565b600067ffffffffffffffff82111561332f5761332e613612565b5b61333882613641565b9050602081019050919050565b600081519050919050565b600081519050919050565b600082825260208201905092915050565b600082825260208201905092915050565b600081905092915050565b600082825260208201905092915050565b60006133a4826134e2565b91506133af836134e2565b9250826133bf576133be6135e3565b5b828204905092915050565b60006133d5826134e2565b91506133e0836134e2565b9250817fffffffffffffffffffffffffffffffffffffffffffffffffffffffffffffffff0483118215151615613419576134186135b4565b5b828202905092915050565b600061342f826134e2565b915061343a836134e2565b92508282101561344d5761344c6135b4565b5b828203905092915050565b6000613463826134c2565b9050919050565b6000613475826134c2565b9050919050565b60008115159050919050565b60007fffffffffffffffff00000000000000000000000000000000000000000000000082169050919050565b600061ffff82169050919050565b600073ffffffffffffffffffffffffffffffffffffffff82169050919050565b6000819050919050565b600060ff82169050919050565b6000613504826134ec565b9050919050565b6000613516826134b4565b9050919050565b82818337600083830152505050565b60005b8381101561354a57808201518184015260208101905061352f565b83811115613559576000848401525b50505050565b61356882613641565b810181811067ffffffffffffffff8211171561358757613586613612565b5b80604052505050565b600061359b826135a2565b9050919050565b60006135ad82613652565b9050919050565b7f4e487b7100000000000000000000000000000000000000000000000000000000600052601160045260246000fd5b7f4e487b7100000000000000000000000000000000000000000000000000000000600052601260045260246000fd5b7f4e487b7100000000000000000000000000000000000000000000000000000000600052604160045260246000fd5b6000601f19601f8301169050919050565b60008160601b9050919050565b7f4c69624469616d6f6e643a204d75737420626520636f6e7472616374206f776e60008201527f6572000000000000000000000000000000000000000000000000000000000000602082015250565b7f3078000000000000000000000000000000000000000000000000000000000000600082015250565b7f416464726573733a20696e73756666696369656e742062616c616e636520666f60008201527f722063616c6c0000000000000000000000000000000000000000000000000000602082015250565b7f7374617267617465000000000000000000000000000000000000000000000000600082015250565b7f416464726573733a2063616c6c20746f206e6f6e2d636f6e7472616374000000600082015250565b7f5361666545524332303a204552433230206f7065726174696f6e20646964206e60008201527f6f74207375636365656400000000000000000000000000000000000000000000602082015250565b7f5361666545524332303a20617070726f76652066726f6d206e6f6e2d7a65726f60008201527f20746f206e6f6e2d7a65726f20616c6c6f77616e636500000000000000000000602082015250565b61381f81613458565b811461382a57600080fd5b50565b6138368161346a565b811461384157600080fd5b50565b61384d8161347c565b811461385857600080fd5b50565b61386481613488565b811461386f57600080fd5b50565b61387b816134b4565b811461388657600080fd5b50565b613892816134e2565b811461389d57600080fd5b5056fea164736f6c6343000804000a",
  "linkReferences": {},
  "deployedLinkReferences": {}
}