{
  "_format": "hh-sol-artifact-1",
  "contractName": "StargateFacet",
  "sourceName": "src/bridges/facets/StargateFacet.sol",
  "abi": [
    {
      "inputs": [],
      "name": "ReentrancyError",
      "type": "error"
    },
    {
      "anonymous": false,
      "inputs": [
        {
          "indexed": false,
          "internalType": "uint256",
          "name": "chainId",
          "type": "uint256"
        },
        {
          "indexed": false,
          "internalType": "uint16",
          "name": "lzChainId",
          "type": "uint16"
        }
      ],
      "name": "LzChainIdSet",
      "type": "event"
    },
    {
      "anonymous": false,
      "inputs": [
        {
          "indexed": false,
          "internalType": "address",
          "name": "from",
          "type": "address"
        },
        {
          "indexed": false,
          "internalType": "address",
          "name": "to",
          "type": "address"
        },
        {
          "indexed": false,
          "internalType": "uint256",
          "name": "amount",
          "type": "uint256"
        },
        {
          "indexed": false,
          "internalType": "uint16",
          "name": "chainIdTo",
          "type": "uint16"
        }
      ],
      "name": "StargateETHSwap",
      "type": "event"
    },
    {
      "anonymous": false,
      "inputs": [
        {
          "indexed": false,
          "internalType": "address",
          "name": "stargateRouter",
          "type": "address"
        },
        {
          "indexed": false,
          "internalType": "address",
          "name": "stargateETHRouter",
          "type": "address"
        },
        {
          "indexed": false,
          "internalType": "uint16",
          "name": "chainId",
          "type": "uint16"
        }
      ],
      "name": "StargateInitialized",
      "type": "event"
    },
    {
      "anonymous": false,
      "inputs": [
        {
          "indexed": false,
          "internalType": "address",
          "name": "token",
          "type": "address"
        },
        {
          "indexed": false,
          "internalType": "uint256",
          "name": "amount",
          "type": "uint256"
        }
      ],
      "name": "StargateReceivedOnDestination",
      "type": "event"
    },
    {
      "anonymous": false,
      "inputs": [
        {
          "indexed": false,
          "internalType": "address",
          "name": "fromToken",
          "type": "address"
        },
        {
          "indexed": false,
          "internalType": "address",
          "name": "from",
          "type": "address"
        },
        {
          "indexed": false,
          "internalType": "address",
          "name": "to",
          "type": "address"
        },
        {
          "indexed": false,
          "internalType": "uint256",
          "name": "amount",
          "type": "uint256"
        },
        {
          "indexed": false,
          "internalType": "uint16",
          "name": "chainIdTo",
          "type": "uint16"
        }
      ],
      "name": "StargateTokenSwap",
      "type": "event"
    },
    {
      "inputs": [
        {
          "internalType": "uint256",
          "name": "_chainId",
          "type": "uint256"
        }
      ],
      "name": "getLzChainId",
      "outputs": [
        {
          "internalType": "uint16",
          "name": "",
          "type": "uint16"
        }
      ],
      "stateMutability": "view",
      "type": "function"
    },
    {
      "inputs": [
        {
          "internalType": "address",
          "name": "_stargateRouter",
          "type": "address"
        },
        {
          "internalType": "address",
          "name": "_stargateETHRouter",
          "type": "address"
        },
        {
          "internalType": "uint16",
          "name": "_chainId",
          "type": "uint16"
        },
        {
          "components": [
            {
              "internalType": "uint256",
              "name": "chainId",
              "type": "uint256"
            },
            {
              "internalType": "uint16",
              "name": "layerZeroChainId",
              "type": "uint16"
            }
          ],
          "internalType": "struct StargateFacet.ChainIdConfig[]",
          "name": "_chainIdConfigs",
          "type": "tuple[]"
        }
      ],
      "name": "initStargate",
      "outputs": [],
      "stateMutability": "nonpayable",
      "type": "function"
    },
    {
      "inputs": [
        {
          "internalType": "uint256",
          "name": "_chainId",
          "type": "uint256"
        },
        {
          "internalType": "uint16",
          "name": "_lzChainId",
          "type": "uint16"
        }
      ],
      "name": "setLzChainId",
      "outputs": [],
      "stateMutability": "nonpayable",
      "type": "function"
    },
    {
      "inputs": [
        {
          "internalType": "uint16",
          "name": "",
          "type": "uint16"
        },
        {
          "internalType": "bytes",
          "name": "",
          "type": "bytes"
        },
        {
          "internalType": "uint256",
          "name": "",
          "type": "uint256"
        },
        {
          "internalType": "address",
          "name": "_token",
          "type": "address"
        },
        {
          "internalType": "uint256",
          "name": "_amountLD",
          "type": "uint256"
        },
        {
          "internalType": "bytes",
          "name": "_payload",
          "type": "bytes"
        }
      ],
      "name": "sgReceive",
      "outputs": [],
      "stateMutability": "nonpayable",
      "type": "function"
    },
    {
      "inputs": [
        {
          "components": [
            {
              "internalType": "uint256",
              "name": "amount",
              "type": "uint256"
            },
            {
              "internalType": "uint16",
              "name": "dstChainId",
              "type": "uint16"
            },
            {
              "internalType": "address",
              "name": "to",
              "type": "address"
            },
            {
              "internalType": "uint16",
              "name": "slippage",
              "type": "uint16"
            }
          ],
          "internalType": "struct StargateFacet.StargateETHData",
          "name": "_data",
          "type": "tuple"
        }
      ],
      "name": "stargateETHTransfer",
      "outputs": [],
      "stateMutability": "payable",
      "type": "function"
    },
    {
      "inputs": [
        {
          "components": [
            {
              "internalType": "uint256",
              "name": "amount",
              "type": "uint256"
            },
            {
              "internalType": "address",
              "name": "bridgeToken",
              "type": "address"
            },
            {
              "internalType": "uint16",
              "name": "dstChainId",
              "type": "uint16"
            },
            {
              "internalType": "uint16",
              "name": "srcPoolId",
              "type": "uint16"
            },
            {
              "internalType": "uint16",
              "name": "dstPoolId",
              "type": "uint16"
            },
            {
              "internalType": "address",
              "name": "to",
              "type": "address"
            },
            {
              "internalType": "uint16",
              "name": "slippage",
              "type": "uint16"
            },
            {
              "internalType": "address",
              "name": "destStargateComposed",
              "type": "address"
            }
          ],
          "internalType": "struct StargateFacet.StargateData",
          "name": "_data",
          "type": "tuple"
        },
        {
          "internalType": "contract IStargateRouter",
          "name": "_router",
          "type": "address"
        }
      ],
      "name": "stargateFees",
      "outputs": [
        {
          "internalType": "uint256",
          "name": "",
          "type": "uint256"
        }
      ],
      "stateMutability": "view",
      "type": "function"
    },
    {
      "inputs": [
        {
          "components": [
            {
              "internalType": "uint256",
              "name": "amount",
              "type": "uint256"
            },
            {
              "internalType": "address",
              "name": "bridgeToken",
              "type": "address"
            },
            {
              "internalType": "uint16",
              "name": "dstChainId",
              "type": "uint16"
            },
            {
              "internalType": "uint16",
              "name": "srcPoolId",
              "type": "uint16"
            },
            {
              "internalType": "uint16",
              "name": "dstPoolId",
              "type": "uint16"
            },
            {
              "internalType": "address",
              "name": "to",
              "type": "address"
            },
            {
              "internalType": "uint16",
              "name": "slippage",
              "type": "uint16"
            },
            {
              "internalType": "address",
              "name": "destStargateComposed",
              "type": "address"
            }
          ],
          "internalType": "struct StargateFacet.StargateData",
          "name": "_data",
          "type": "tuple"
        }
      ],
      "name": "stargateTokenTransfer",
      "outputs": [],
      "stateMutability": "payable",
      "type": "function"
    }
  ],
  "bytecode": "0x60a060405261271060809081525034801561001957600080fd5b50608051612c8261004a600039600081816103210152818161035901528181610b680152610ba00152612c826000f3fe6080604052600436106100705760003560e01c8063be9899101161004e578063be989910146100e3578063ce36ebd314610120578063d61bf1fa1461013c578063e08e50711461016557610070565b8063295d4d41146100755780638083a0db1461009e578063ab8236f3146100ba575b600080fd5b34801561008157600080fd5b5061009c60048036038101906100979190611ace565b6101a2565b005b6100b860048036038101906100b39190611909565b610224565b005b3480156100c657600080fd5b506100e160048036038101906100dc91906119c3565b61062e565b005b3480156100ef57600080fd5b5061010a60048036038101906101059190611933565b610728565b6040516101179190612425565b60405180910390f35b61013a60048036038101906101359190611971565b610887565b005b34801561014857600080fd5b50610163600480360381019061015e9190611860565b610cf1565b005b34801561017157600080fd5b5061018c60048036038101906101879190611a7c565b610f78565b60405161019991906122a6565b60405180910390f35b6101aa610fff565b60006101b461109a565b90508181600201600085815260200190815260200160002060006101000a81548161ffff021916908361ffff1602179055507f50cfe49eeb0e0291ed2de7bb42b55c6edb09463f1e8d96e373069cf1430e33fc8383604051610217929190612440565b60405180910390a1505050565b600061022e6110c7565b905060018160000154141561026f576040517f29f745a700000000000000000000000000000000000000000000000000000000815260040160405180910390fd5b60018160000181905550600034116102bc576040517f08c379a00000000000000000000000000000000000000000000000000000000081526004016102b390612146565b60405180910390fd5b6000826000013511610303576040517f08c379a00000000000000000000000000000000000000000000000000000000081526004016102fa90612226565b60405180910390fd5b600061030d6110f4565b9050600061031b8483610728565b905060007f00000000000000000000000000000000000000000000000000000000000000008560c0016020810190610353919061199a565b61ffff167f0000000000000000000000000000000000000000000000000000000000000000610382919061259e565b86600001356103919190612544565b61039b9190612513565b905060008560e00160208101906103b2919061180e565b6040516020016103c29190611eff565b604051602081830303815290604052905060008660a00160208101906103e8919061180e565b6040516020016103f89190611f31565b604051602081830303815290604052905061044c333089600001358a6020016020810190610426919061180e565b73ffffffffffffffffffffffffffffffffffffffff16611127909392919063ffffffff16565b61048d858860000135896020016020810190610468919061180e565b73ffffffffffffffffffffffffffffffffffffffff166111b09092919063ffffffff16565b8473ffffffffffffffffffffffffffffffffffffffff16639fbf10fc856104c98a60400160208101906104c0919061199a565b61ffff16610f78565b8a60600160208101906104dc919061199a565b8b60800160208101906104ef919061199a565b338d600001358a60405180606001604052806207a1208152602001600081526020016040518060400160405280600281526020017f30780000000000000000000000000000000000000000000000000000000000008152508152508b8b6040518b63ffffffff1660e01b815260040161057099989796959493929190612383565b6000604051808303818588803b15801561058957600080fd5b505af115801561059d573d6000803e3d6000fd5b50505050507f31eb00194969f6cba80ac5ec213e3be164bc8c1e075f8a154dc31856b946a8668760200160208101906105d6919061180e565b338960a00160208101906105ea919061180e565b8a600001358b6040016020810190610602919061199a565b604051610613959493929190611f75565b60405180910390a15050505050600081600001819055505050565b6106366110f4565b73ffffffffffffffffffffffffffffffffffffffff163373ffffffffffffffffffffffffffffffffffffffff16146106a3576040517f08c379a000000000000000000000000000000000000000000000000000000000815260040161069a906121a6565b60405180910390fd5b6000818060200190518101906106b99190611837565b90506106e681848673ffffffffffffffffffffffffffffffffffffffff1661130e9092919063ffffffff16565b7fa99538de04029bcd6cc1a8af32ebefef188052f963f80ab67b7fc49e23d0cd4c848460405161071792919061207b565b60405180910390a150505050505050565b6000808273ffffffffffffffffffffffffffffffffffffffff16630a51236961076686604001602081019061075d919061199a565b61ffff16610f78565b60018760e001602081019061077b919061180e565b60405160200161078b9190611eff565b6040516020818303038152906040528860a00160208101906107ad919061180e565b6040516020016107bd9190611f31565b60405160208183030381529060405260405180606001604052806207a12081526020016000815260200160006040516020016107f99190611eff565b6040516020818303038152906040528152506040518663ffffffff1660e01b815260040161082b95949392919061231b565b604080518083038186803b15801561084257600080fd5b505afa158015610856573d6000803e3d6000fd5b505050506040513d601f19601f8201168201806040525081019061087a9190611b0a565b5090508091505092915050565b60006108916110c7565b90506001816000015414156108d2576040517f29f745a700000000000000000000000000000000000000000000000000000000815260040160405180910390fd5b6001816000018190555060006108e6611394565b61ffff16905060018114806108fc575061a4b181145b806109075750600a81145b610946576040517f08c379a000000000000000000000000000000000000000000000000000000000815260040161093d906120c6565b60405180910390fd5b600183602001602081019061095b919061199a565b61ffff161480610982575061a4b183602001602081019061097c919061199a565b61ffff16145b806109a35750600a83602001602081019061099d919061199a565b61ffff16145b6109e2576040517f08c379a00000000000000000000000000000000000000000000000000000000081526004016109d990612286565b60405180910390fd5b60003411610a25576040517f08c379a0000000000000000000000000000000000000000000000000000000008152600401610a1c90612246565b60405180910390fd5b6000836000013511610a6c576040517f08c379a0000000000000000000000000000000000000000000000000000000008152600401610a6390612226565b60405180910390fd5b82600001353411610ab2576040517f08c379a0000000000000000000000000000000000000000000000000000000008152600401610aa990612166565b60405180910390fd5b6000610abc6113b5565b9050600073ffffffffffffffffffffffffffffffffffffffff168173ffffffffffffffffffffffffffffffffffffffff161415610b2e576040517f08c379a0000000000000000000000000000000000000000000000000000000008152600401610b2590612106565b60405180910390fd5b6000846040016020810190610b43919061180e565b604051602001610b539190611eff565b604051602081830303815290604052905060007f0000000000000000000000000000000000000000000000000000000000000000866060016020810190610b9a919061199a565b61ffff167f0000000000000000000000000000000000000000000000000000000000000000610bc9919061259e565b8760000135610bd89190612544565b610be29190612513565b90508273ffffffffffffffffffffffffffffffffffffffff16631114cd2a34610c20896020016020810190610c17919061199a565b61ffff16610f78565b33868b60000135876040518763ffffffff1660e01b8152600401610c489594939291906122c1565b6000604051808303818588803b158015610c6157600080fd5b505af1158015610c75573d6000803e3d6000fd5b50505050507f96d8881a4aa5dbc2504224c656dc33918e070ada05b7379f89ef88e706bec7ce33876040016020810190610caf919061180e565b8860000135896020016020810190610cc7919061199a565b604051610cd79493929190612036565b60405180910390a150505050600081600001819055505050565b600073ffffffffffffffffffffffffffffffffffffffff168573ffffffffffffffffffffffffffffffffffffffff1614158015610d5b5750600073ffffffffffffffffffffffffffffffffffffffff168473ffffffffffffffffffffffffffffffffffffffff1614155b610d9a576040517f08c379a0000000000000000000000000000000000000000000000000000000008152600401610d91906121c6565b60405180910390fd5b610da2610fff565b6000610dac61109a565b9050858160000160006101000a81548173ffffffffffffffffffffffffffffffffffffffff021916908373ffffffffffffffffffffffffffffffffffffffff160217905550848160010160006101000a81548173ffffffffffffffffffffffffffffffffffffffff021916908373ffffffffffffffffffffffffffffffffffffffff160217905550838160010160146101000a81548161ffff021916908361ffff16021790555060005b83839050811015610f3457838382818110610e9a577f4e487b7100000000000000000000000000000000000000000000000000000000600052603260045260246000fd5b9050604002016020016020810190610eb2919061199a565b826002016000868685818110610ef1577f4e487b7100000000000000000000000000000000000000000000000000000000600052603260045260246000fd5b90506040020160000135815260200190815260200160002060006101000a81548161ffff021916908361ffff16021790555080610f2d906126f0565b9050610e56565b507ff8e02de410f1c38e546e1d21837caec2532bb788d33a385f7946d40c99b4addb868686604051610f6893929190611fc8565b60405180910390a1505050505050565b600080610f8361109a565b9050600081600201600085815260200190815260200160002060009054906101000a900461ffff16905060008161ffff161415610ff5576040517f08c379a0000000000000000000000000000000000000000000000000000000008152600401610fec90612186565b60405180910390fd5b8092505050919050565b6110076113e8565b60040160009054906101000a900473ffffffffffffffffffffffffffffffffffffffff1673ffffffffffffffffffffffffffffffffffffffff163373ffffffffffffffffffffffffffffffffffffffff1614611098576040517f08c379a000000000000000000000000000000000000000000000000000000000815260040161108f906120e6565b60405180910390fd5b565b6000807fbaeadb48cbcf0176d6c6ac156b0140abe0fb28a100a9a6a8b5df37e55693b1c890508091505090565b6000807fc59b5acc5a6673a6c49ca2de898f87adbd9fdfdff36f689476b1c9e0c50964b490508091505090565b60006110fe61109a565b60000160009054906101000a900473ffffffffffffffffffffffffffffffffffffffff16905090565b6111aa846323b872dd60e01b85858560405160240161114893929190611fff565b604051602081830303815290604052907bffffffffffffffffffffffffffffffffffffffffffffffffffffffff19166020820180517bffffffffffffffffffffffffffffffffffffffffffffffffffffffff8381831617835250505050611415565b50505050565b6000811480611249575060008373ffffffffffffffffffffffffffffffffffffffff1663dd62ed3e30856040518363ffffffff1660e01b81526004016111f7929190611f4c565b60206040518083038186803b15801561120f57600080fd5b505afa158015611223573d6000803e3d6000fd5b505050506040513d601f19601f820116820180604052508101906112479190611aa5565b145b611288576040517f08c379a000000000000000000000000000000000000000000000000000000000815260040161127f90612266565b60405180910390fd5b6113098363095ea7b360e01b84846040516024016112a792919061207b565b604051602081830303815290604052907bffffffffffffffffffffffffffffffffffffffffffffffffffffffff19166020820180517bffffffffffffffffffffffffffffffffffffffffffffffffffffffff8381831617835250505050611415565b505050565b61138f8363a9059cbb60e01b848460405160240161132d92919061207b565b604051602081830303815290604052907bffffffffffffffffffffffffffffffffffffffffffffffffffffffff19166020820180517bffffffffffffffffffffffffffffffffffffffffffffffffffffffff8381831617835250505050611415565b505050565b600061139e61109a565b60010160149054906101000a900461ffff16905090565b60006113bf61109a565b60010160009054906101000a900473ffffffffffffffffffffffffffffffffffffffff16905090565b6000807fc8fcad8db84d3cc18b4c41d551ea0ee66dd599cde068d998e57d5e09332c131c90508091505090565b6000611477826040518060400160405280602081526020017f5361666545524332303a206c6f772d6c6576656c2063616c6c206661696c65648152508573ffffffffffffffffffffffffffffffffffffffff166114dc9092919063ffffffff16565b90506000815111156114d7578080602001905181019061149791906118e0565b6114d6576040517f08c379a00000000000000000000000000000000000000000000000000000000081526004016114cd90612206565b60405180910390fd5b5b505050565b60606114eb84846000856114f4565b90509392505050565b606082471015611539576040517f08c379a000000000000000000000000000000000000000000000000000000000815260040161153090612126565b60405180910390fd5b61154285611608565b611581576040517f08c379a0000000000000000000000000000000000000000000000000000000008152600401611578906121e6565b60405180910390fd5b6000808673ffffffffffffffffffffffffffffffffffffffff1685876040516115aa9190611f1a565b60006040518083038185875af1925050503d80600081146115e7576040519150601f19603f3d011682016040523d82523d6000602084013e6115ec565b606091505b50915091506115fc82828661162b565b92505050949350505050565b6000808273ffffffffffffffffffffffffffffffffffffffff163b119050919050565b6060831561163b5782905061168b565b60008351111561164e5782518084602001fd5b816040517f08c379a000000000000000000000000000000000000000000000000000000000815260040161168291906120a4565b60405180910390fd5b9392505050565b60006116a56116a08461248e565b612469565b9050828152602081018484840111156116bd57600080fd5b6116c884828561267d565b509392505050565b6000813590506116df81612beb565b92915050565b6000815190506116f481612c02565b92915050565b60008083601f84011261170c57600080fd5b8235905067ffffffffffffffff81111561172557600080fd5b60208301915083604082028301111561173d57600080fd5b9250929050565b60008151905061175381612c19565b92915050565b600082601f83011261176a57600080fd5b813561177a848260208601611692565b91505092915050565b60008135905061179281612c30565b92915050565b600061010082840312156117ab57600080fd5b81905092915050565b6000608082840312156117c657600080fd5b81905092915050565b6000813590506117de81612c47565b92915050565b6000813590506117f381612c5e565b92915050565b60008151905061180881612c5e565b92915050565b60006020828403121561182057600080fd5b600061182e848285016116d0565b91505092915050565b60006020828403121561184957600080fd5b6000611857848285016116e5565b91505092915050565b60008060008060006080868803121561187857600080fd5b6000611886888289016116d0565b9550506020611897888289016116d0565b94505060406118a8888289016117cf565b935050606086013567ffffffffffffffff8111156118c557600080fd5b6118d1888289016116fa565b92509250509295509295909350565b6000602082840312156118f257600080fd5b600061190084828501611744565b91505092915050565b6000610100828403121561191c57600080fd5b600061192a84828501611798565b91505092915050565b600080610120838503121561194757600080fd5b600061195585828601611798565b92505061010061196785828601611783565b9150509250929050565b60006080828403121561198357600080fd5b6000611991848285016117b4565b91505092915050565b6000602082840312156119ac57600080fd5b60006119ba848285016117cf565b91505092915050565b60008060008060008060c087890312156119dc57600080fd5b60006119ea89828a016117cf565b965050602087013567ffffffffffffffff811115611a0757600080fd5b611a1389828a01611759565b9550506040611a2489828a016117e4565b9450506060611a3589828a016116d0565b9350506080611a4689828a016117e4565b92505060a087013567ffffffffffffffff811115611a6357600080fd5b611a6f89828a01611759565b9150509295509295509295565b600060208284031215611a8e57600080fd5b6000611a9c848285016117e4565b91505092915050565b600060208284031215611ab757600080fd5b6000611ac5848285016117f9565b91505092915050565b60008060408385031215611ae157600080fd5b6000611aef858286016117e4565b9250506020611b00858286016117cf565b9150509250929050565b60008060408385031215611b1d57600080fd5b6000611b2b858286016117f9565b9250506020611b3c858286016117f9565b9150509250929050565b611b4f816125e4565b82525050565b611b5e816125d2565b82525050565b611b75611b70826125d2565b612739565b82525050565b6000611b86826124bf565b611b9081856124d5565b9350611ba081856020860161268c565b611ba9816127ea565b840191505092915050565b6000611bbf826124bf565b611bc981856124e6565b9350611bd981856020860161268c565b611be2816127ea565b840191505092915050565b6000611bf8826124bf565b611c0281856124f7565b9350611c1281856020860161268c565b80840191505092915050565b611c2781612659565b82525050565b6000611c38826124ca565b611c428185612502565b9350611c5281856020860161268c565b611c5b816127ea565b840191505092915050565b6000611c73603583612502565b9150611c7e82612808565b604082019050919050565b6000611c96602283612502565b9150611ca182612857565b604082019050919050565b6000611cb9602583612502565b9150611cc4826128a6565b604082019050919050565b6000611cdc602683612502565b9150611ce7826128f5565b604082019050919050565b6000611cff602c83612502565b9150611d0a82612944565b604082019050919050565b6000611d22602883612502565b9150611d2d82612993565b604082019050919050565b6000611d45603183612502565b9150611d50826129e2565b604082019050919050565b6000611d68601f83612502565b9150611d7382612a31565b602082019050919050565b6000611d8b601a83612502565b9150611d9682612a5a565b602082019050919050565b6000611dae601d83612502565b9150611db982612a83565b602082019050919050565b6000611dd1602a83612502565b9150611ddc82612aac565b604082019050919050565b6000611df4601b83612502565b9150611dff82612afb565b602082019050919050565b6000611e17601d83612502565b9150611e2282612b24565b602082019050919050565b6000611e3a603683612502565b9150611e4582612b4d565b604082019050919050565b6000611e5d603383612502565b9150611e6882612b9c565b604082019050919050565b6000606083016000830151611e8b6000860182611ee1565b506020830151611e9e6020860182611ee1565b5060408301518482036040860152611eb68282611b7b565b9150508091505092915050565b611ecc81612614565b82525050565b611edb8161266b565b82525050565b611eea81612642565b82525050565b611ef981612642565b82525050565b6000611f0b8284611b64565b60148201915081905092915050565b6000611f268284611bed565b915081905092915050565b6000602082019050611f466000830184611b55565b92915050565b6000604082019050611f616000830185611b55565b611f6e6020830184611b55565b9392505050565b600060a082019050611f8a6000830188611b55565b611f976020830187611b55565b611fa46040830186611b55565b611fb16060830185611ef0565b611fbe6080830184611ec3565b9695505050505050565b6000606082019050611fdd6000830186611b55565b611fea6020830185611b55565b611ff76040830184611ec3565b949350505050565b60006060820190506120146000830186611b55565b6120216020830185611b55565b61202e6040830184611ef0565b949350505050565b600060808201905061204b6000830187611b55565b6120586020830186611b55565b6120656040830185611ef0565b6120726060830184611ec3565b95945050505050565b60006040820190506120906000830185611b55565b61209d6020830184611ef0565b9392505050565b600060208201905081810360008301526120be8184611c2d565b905092915050565b600060208201905081810360008301526120df81611c66565b9050919050565b600060208201905081810360008301526120ff81611c89565b9050919050565b6000602082019050818103600083015261211f81611cac565b9050919050565b6000602082019050818103600083015261213f81611ccf565b9050919050565b6000602082019050818103600083015261215f81611cf2565b9050919050565b6000602082019050818103600083015261217f81611d15565b9050919050565b6000602082019050818103600083015261219f81611d38565b9050919050565b600060208201905081810360008301526121bf81611d5b565b9050919050565b600060208201905081810360008301526121df81611d7e565b9050919050565b600060208201905081810360008301526121ff81611da1565b9050919050565b6000602082019050818103600083015261221f81611dc4565b9050919050565b6000602082019050818103600083015261223f81611de7565b9050919050565b6000602082019050818103600083015261225f81611e0a565b9050919050565b6000602082019050818103600083015261227f81611e2d565b9050919050565b6000602082019050818103600083015261229f81611e50565b9050919050565b60006020820190506122bb6000830184611ec3565b92915050565b600060a0820190506122d66000830188611ec3565b6122e36020830187611b46565b81810360408301526122f58186611bb4565b90506123046060830185611ef0565b6123116080830184611ef0565b9695505050505050565b600060a0820190506123306000830188611ec3565b61233d6020830187611c1e565b818103604083015261234f8186611bb4565b905081810360608301526123638185611bb4565b905081810360808301526123778184611e73565b90509695505050505050565b600061012082019050612399600083018c611ec3565b6123a6602083018b611ed2565b6123b3604083018a611ed2565b6123c06060830189611b46565b6123cd6080830188611ef0565b6123da60a0830187611ef0565b81810360c08301526123ec8186611e73565b905081810360e08301526124008185611bb4565b90508181036101008301526124158184611bb4565b90509a9950505050505050505050565b600060208201905061243a6000830184611ef0565b92915050565b60006040820190506124556000830185611ef0565b6124626020830184611ec3565b9392505050565b6000612473612484565b905061247f82826126bf565b919050565b6000604051905090565b600067ffffffffffffffff8211156124a9576124a86127bb565b5b6124b2826127ea565b9050602081019050919050565b600081519050919050565b600081519050919050565b600082825260208201905092915050565b600082825260208201905092915050565b600081905092915050565b600082825260208201905092915050565b600061251e82612642565b915061252983612642565b9250826125395761253861278c565b5b828204905092915050565b600061254f82612642565b915061255a83612642565b9250817fffffffffffffffffffffffffffffffffffffffffffffffffffffffffffffffff04831182151516156125935761259261275d565b5b828202905092915050565b60006125a982612642565b91506125b483612642565b9250828210156125c7576125c661275d565b5b828203905092915050565b60006125dd82612622565b9050919050565b60006125ef82612622565b9050919050565b60008115159050919050565b600061260d826125d2565b9050919050565b600061ffff82169050919050565b600073ffffffffffffffffffffffffffffffffffffffff82169050919050565b6000819050919050565b600060ff82169050919050565b60006126648261264c565b9050919050565b600061267682612614565b9050919050565b82818337600083830152505050565b60005b838110156126aa57808201518184015260208101905061268f565b838111156126b9576000848401525b50505050565b6126c8826127ea565b810181811067ffffffffffffffff821117156126e7576126e66127bb565b5b80604052505050565b60006126fb82612642565b91507fffffffffffffffffffffffffffffffffffffffffffffffffffffffffffffffff82141561272e5761272d61275d565b5b600182019050919050565b60006127448261274b565b9050919050565b6000612756826127fb565b9050919050565b7f4e487b7100000000000000000000000000000000000000000000000000000000600052601160045260246000fd5b7f4e487b7100000000000000000000000000000000000000000000000000000000600052601260045260246000fd5b7f4e487b7100000000000000000000000000000000000000000000000000000000600052604160045260246000fd5b6000601f19601f8301169050919050565b60008160601b9050919050565b7f53746172676174653a3a2043616e6e6f74206469726563746c7920627269646760008201527f65204554482066726f6d207468697320636861696e0000000000000000000000602082015250565b7f4c69624469616d6f6e643a204d75737420626520636f6e7472616374206f776e60008201527f6572000000000000000000000000000000000000000000000000000000000000602082015250565b7f53746172676174653a3a20455448207472616e73666572206e6f74206176616960008201527f6c61626c65000000000000000000000000000000000000000000000000000000602082015250565b7f416464726573733a20696e73756666696369656e742062616c616e636520666f60008201527f722063616c6c0000000000000000000000000000000000000000000000000000602082015250565b7f53746172676174653a3a206d73672e76616c756520726571756972656420746f60008201527f20706179206d6573736167650000000000000000000000000000000000000000602082015250565b7f53746172676174653a206e6f206665657320616464656420666f72204554482060008201527f7472616e73666572000000000000000000000000000000000000000000000000602082015250565b7f53746172676174653a3a20636861696e206e6f742061737369676e6564206c6160008201527f796572207a65726f20636861696e206964000000000000000000000000000000602082015250565b7f53746172676174653a3a206f6e6c7920737461726761746520726f7574657200600082015250565b7f53746172676174653a3a20696e76616c69642061646472657373000000000000600082015250565b7f416464726573733a2063616c6c20746f206e6f6e2d636f6e7472616374000000600082015250565b7f5361666545524332303a204552433230206f7065726174696f6e20646964206e60008201527f6f74207375636365656400000000000000000000000000000000000000000000602082015250565b7f53746172676174653a3a20696e76616c6964207175616e746974790000000000600082015250565b7f53746172676174653a3a206d73672e76616c7565207265717569726564000000600082015250565b7f5361666545524332303a20617070726f76652066726f6d206e6f6e2d7a65726f60008201527f20746f206e6f6e2d7a65726f20616c6c6f77616e636500000000000000000000602082015250565b7f53746172676174653a3a2043616e6e6f74206469726563746c7920627269646760008201527f652045544820746f207468697320636861696e00000000000000000000000000602082015250565b612bf4816125d2565b8114612bff57600080fd5b50565b612c0b816125e4565b8114612c1657600080fd5b50565b612c22816125f6565b8114612c2d57600080fd5b50565b612c3981612602565b8114612c4457600080fd5b50565b612c5081612614565b8114612c5b57600080fd5b50565b612c6781612642565b8114612c7257600080fd5b5056fea164736f6c6343000804000a",
  "linkReferences": {},
  "deployedLinkReferences": {}
}