{
  "_format": "hh-sol-artifact-1",
  "contractName": "StargateFacet",
  "sourceName": "src/bridges/facets/StargateFacet.sol",
  "abi": [
    {
      "inputs": [],
      "name": "ReentrancyError",
      "type": "error"
    },
    {
      "anonymous": false,
      "inputs": [
        {
          "indexed": false,
          "internalType": "address",
          "name": "from",
          "type": "address"
        },
        {
          "indexed": false,
          "internalType": "address",
          "name": "to",
          "type": "address"
        },
        {
          "indexed": false,
          "internalType": "uint256",
          "name": "amount",
          "type": "uint256"
        },
        {
          "indexed": false,
          "internalType": "uint16",
          "name": "chainIdTo",
          "type": "uint16"
        }
      ],
      "name": "StargateETHTokenSwap",
      "type": "event"
    },
    {
      "anonymous": false,
      "inputs": [
        {
          "indexed": false,
          "internalType": "address",
          "name": "stargateRouter",
          "type": "address"
        },
        {
          "indexed": false,
          "internalType": "address",
          "name": "stargateETHRouter",
          "type": "address"
        },
        {
          "indexed": false,
          "internalType": "uint16",
          "name": "chainId",
          "type": "uint16"
        }
      ],
      "name": "StargateInitialized",
      "type": "event"
    },
    {
      "anonymous": false,
      "inputs": [
        {
          "indexed": false,
          "internalType": "address",
          "name": "token",
          "type": "address"
        },
        {
          "indexed": false,
          "internalType": "uint256",
          "name": "amount",
          "type": "uint256"
        }
      ],
      "name": "StargateReceivedOnDestination",
      "type": "event"
    },
    {
      "anonymous": false,
      "inputs": [
        {
          "indexed": false,
          "internalType": "address",
          "name": "fromToken",
          "type": "address"
        },
        {
          "indexed": false,
          "internalType": "address",
          "name": "from",
          "type": "address"
        },
        {
          "indexed": false,
          "internalType": "address",
          "name": "to",
          "type": "address"
        },
        {
          "indexed": false,
          "internalType": "uint256",
          "name": "amount",
          "type": "uint256"
        },
        {
          "indexed": false,
          "internalType": "uint16",
          "name": "chainIdTo",
          "type": "uint16"
        }
      ],
      "name": "StargateTokenSwap",
      "type": "event"
    },
    {
      "inputs": [
        {
          "internalType": "address",
          "name": "_stargateRouter",
          "type": "address"
        },
        {
          "internalType": "address",
          "name": "_stargateETHRouter",
          "type": "address"
        },
        {
          "internalType": "uint16",
          "name": "_chainId",
          "type": "uint16"
        }
      ],
      "name": "initStargate",
      "outputs": [],
      "stateMutability": "nonpayable",
      "type": "function"
    },
    {
      "inputs": [
        {
          "internalType": "uint16",
          "name": "",
          "type": "uint16"
        },
        {
          "internalType": "bytes",
          "name": "",
          "type": "bytes"
        },
        {
          "internalType": "uint256",
          "name": "",
          "type": "uint256"
        },
        {
          "internalType": "address",
          "name": "_token",
          "type": "address"
        },
        {
          "internalType": "uint256",
          "name": "_amountLD",
          "type": "uint256"
        },
        {
          "internalType": "bytes",
          "name": "_payload",
          "type": "bytes"
        }
      ],
      "name": "sgReceive",
      "outputs": [],
      "stateMutability": "nonpayable",
      "type": "function"
    },
    {
      "inputs": [
        {
          "components": [
            {
              "internalType": "uint256",
              "name": "amount",
              "type": "uint256"
            },
            {
              "internalType": "uint16",
              "name": "dstChainId",
              "type": "uint16"
            },
            {
              "internalType": "address",
              "name": "to",
              "type": "address"
            },
            {
              "internalType": "uint16",
              "name": "slippage",
              "type": "uint16"
            }
          ],
          "internalType": "struct StargateFacet.StargateETHTransferData",
          "name": "_data",
          "type": "tuple"
        }
      ],
      "name": "stargateETHTransfer",
      "outputs": [],
      "stateMutability": "payable",
      "type": "function"
    },
    {
      "inputs": [
        {
          "internalType": "uint16",
          "name": "_destChain",
          "type": "uint16"
        },
        {
          "internalType": "address",
          "name": "_receiver",
          "type": "address"
        },
        {
          "internalType": "contract IStargateRouter",
          "name": "_router",
          "type": "address"
        }
      ],
      "name": "stargateFees",
      "outputs": [
        {
          "internalType": "uint256",
          "name": "",
          "type": "uint256"
        }
      ],
      "stateMutability": "view",
      "type": "function"
    },
    {
      "inputs": [
        {
          "components": [
            {
              "internalType": "uint256",
              "name": "amount",
              "type": "uint256"
            },
            {
              "internalType": "address",
              "name": "bridgeToken",
              "type": "address"
            },
            {
              "internalType": "uint16",
              "name": "dstChainId",
              "type": "uint16"
            },
            {
              "internalType": "uint16",
              "name": "srcPoolId",
              "type": "uint16"
            },
            {
              "internalType": "uint16",
              "name": "dstPoolId",
              "type": "uint16"
            },
            {
              "internalType": "address",
              "name": "to",
              "type": "address"
            },
            {
              "internalType": "uint16",
              "name": "slippage",
              "type": "uint16"
            },
            {
              "internalType": "uint256",
              "name": "destStargateComposed",
              "type": "uint256"
            }
          ],
          "internalType": "struct StargateFacet.StargateTransferData",
          "name": "_data",
          "type": "tuple"
        }
      ],
      "name": "stargateTokenTransfer",
      "outputs": [],
      "stateMutability": "payable",
      "type": "function"
    }
  ],
  "bytecode": "0x608060405234801561001057600080fd5b5061257a806100206000396000f3fe60806040526004361061004a5760003560e01c80632d64c4d61461004f578063a7e7ba7814610078578063ab8236f314610094578063ce36ebd3146100bd578063eff1bb1f146100d9575b600080fd5b34801561005b57600080fd5b506100766004803603810190610071919061139a565b610116565b005b610092600480360381019061008d919061143b565b6102b9565b005b3480156100a057600080fd5b506100bb60048036038101906100b691906114dd565b610692565b005b6100d760048036038101906100d29190611412565b61078c565b005b3480156100e557600080fd5b5061010060048036038101906100fb919061148e565b610aa7565b60405161010d9190611e49565b60405180910390f35b600073ffffffffffffffffffffffffffffffffffffffff168373ffffffffffffffffffffffffffffffffffffffff16141580156101805750600073ffffffffffffffffffffffffffffffffffffffff168273ffffffffffffffffffffffffffffffffffffffff1614155b6101bf576040517f08c379a00000000000000000000000000000000000000000000000000000000081526004016101b690611c27565b60405180910390fd5b6101c7610ba4565b60006101d1610c3f565b9050838160000160006101000a81548173ffffffffffffffffffffffffffffffffffffffff021916908373ffffffffffffffffffffffffffffffffffffffff160217905550828160010160006101000a81548173ffffffffffffffffffffffffffffffffffffffff021916908373ffffffffffffffffffffffffffffffffffffffff160217905550818160010160146101000a81548161ffff021916908361ffff1602179055507ff8e02de410f1c38e546e1d21837caec2532bb788d33a385f7946d40c99b4addb8484846040516102ab93929190611a69565b60405180910390a150505050565b60006102c3610c6c565b9050600181600001541415610304576040517f29f745a700000000000000000000000000000000000000000000000000000000815260040160405180910390fd5b6001816000018190555060003411610351576040517f08c379a000000000000000000000000000000000000000000000000000000000815260040161034890611bc7565b60405180910390fd5b6000826000013511610398576040517f08c379a000000000000000000000000000000000000000000000000000000000815260040161038f90611c87565b60405180910390fd5b60006103a2610c99565b905060006103d58460400160208101906103bc9190611465565b8560a00160208101906103cf9190611348565b84610aa7565b905060006127108560c00160208101906103ef9190611465565b6127106103fc9190611f99565b61ffff16866000013561040f9190611f3f565b6104199190611f0e565b905060008560e0013560405160200161043291906119b7565b604051602081830303815290604052905060008660a00160208101906104589190611348565b60405160200161046891906119d2565b60405160208183030381529060405290506104bc333089600001358a60200160208101906104969190611348565b73ffffffffffffffffffffffffffffffffffffffff16610ccc909392919063ffffffff16565b6104fd8588600001358960200160208101906104d89190611348565b73ffffffffffffffffffffffffffffffffffffffff16610d559092919063ffffffff16565b8473ffffffffffffffffffffffffffffffffffffffff16639fbf10fc8589604001602081019061052d9190611465565b8a60600160208101906105409190611465565b8b60800160208101906105539190611465565b338d600001358a60405180606001604052806207a1208152602001600081526020016040518060400160405280600281526020017f30780000000000000000000000000000000000000000000000000000000000008152508152508b8b6040518b63ffffffff1660e01b81526004016105d499989796959493929190611da7565b6000604051808303818588803b1580156105ed57600080fd5b505af1158015610601573d6000803e3d6000fd5b50505050507f31eb00194969f6cba80ac5ec213e3be164bc8c1e075f8a154dc31856b946a86687602001602081019061063a9190611348565b338960a001602081019061064e9190611348565b8a600001358b60400160208101906106669190611465565b604051610677959493929190611a16565b60405180910390a15050505050600081600001819055505050565b61069a610c99565b73ffffffffffffffffffffffffffffffffffffffff163373ffffffffffffffffffffffffffffffffffffffff1614610707576040517f08c379a00000000000000000000000000000000000000000000000000000000081526004016106fe90611c07565b60405180910390fd5b60008180602001905181019061071d9190611371565b905061074a81848673ffffffffffffffffffffffffffffffffffffffff16610eb39092919063ffffffff16565b7fa99538de04029bcd6cc1a8af32ebefef188052f963f80ab67b7fc49e23d0cd4c848460405161077b929190611b1c565b60405180910390a150505050505050565b6000610796610c6c565b90506001816000015414156107d7576040517f29f745a700000000000000000000000000000000000000000000000000000000815260040160405180910390fd5b6001816000018190555060003411610824576040517f08c379a000000000000000000000000000000000000000000000000000000000815260040161081b90611ca7565b60405180910390fd5b600082600001351161086b576040517f08c379a000000000000000000000000000000000000000000000000000000000815260040161086290611c87565b60405180910390fd5b816000013534116108b1576040517f08c379a00000000000000000000000000000000000000000000000000000000081526004016108a890611be7565b60405180910390fd5b60006108bb610f39565b9050600073ffffffffffffffffffffffffffffffffffffffff168173ffffffffffffffffffffffffffffffffffffffff16141561092d576040517f08c379a000000000000000000000000000000000000000000000000000000000815260040161092490611b87565b60405180910390fd5b60008360400160208101906109429190611348565b6040516020016109529190611985565b6040516020818303038152906040529050600061271085606001602081019061097b9190611465565b6127106109889190611f99565b61ffff16866000013561099b9190611f3f565b6109a59190611f0e565b90508273ffffffffffffffffffffffffffffffffffffffff16631114cd2a348760200160208101906109d79190611465565b33868a60000135876040518763ffffffff1660e01b81526004016109ff959493929190611ce7565b6000604051808303818588803b158015610a1857600080fd5b505af1158015610a2c573d6000803e3d6000fd5b50505050507f080b5c39604783610b00b0195fe910d6da4148788b0ce0726bd8c6821227394733866040016020810190610a669190611348565b8760000135886020016020810190610a7e9190611465565b604051610a8e9493929190611ad7565b60405180910390a1505050600081600001819055505050565b6000808273ffffffffffffffffffffffffffffffffffffffff16630a51236986600187604051602001610ada9190611985565b604051602081830303815290604052604051806060016040528062030d408152602001600081526020016000604051602001610b169190611985565b6040516020818303038152906040528152506040518563ffffffff1660e01b8152600401610b479493929190611d41565b604080518083038186803b158015610b5e57600080fd5b505afa158015610b72573d6000803e3d6000fd5b505050506040513d601f19601f82011682018060405250810190610b9691906115bf565b509050809150509392505050565b610bac610f6c565b60040160009054906101000a900473ffffffffffffffffffffffffffffffffffffffff1673ffffffffffffffffffffffffffffffffffffffff163373ffffffffffffffffffffffffffffffffffffffff1614610c3d576040517f08c379a0000000000000000000000000000000000000000000000000000000008152600401610c3490611b67565b60405180910390fd5b565b6000807fbaeadb48cbcf0176d6c6ac156b0140abe0fb28a100a9a6a8b5df37e55693b1c890508091505090565b6000807fc59b5acc5a6673a6c49ca2de898f87adbd9fdfdff36f689476b1c9e0c50964b490508091505090565b6000610ca3610c3f565b60000160009054906101000a900473ffffffffffffffffffffffffffffffffffffffff16905090565b610d4f846323b872dd60e01b858585604051602401610ced93929190611aa0565b604051602081830303815290604052907bffffffffffffffffffffffffffffffffffffffffffffffffffffffff19166020820180517bffffffffffffffffffffffffffffffffffffffffffffffffffffffff8381831617835250505050610f99565b50505050565b6000811480610dee575060008373ffffffffffffffffffffffffffffffffffffffff1663dd62ed3e30856040518363ffffffff1660e01b8152600401610d9c9291906119ed565b60206040518083038186803b158015610db457600080fd5b505afa158015610dc8573d6000803e3d6000fd5b505050506040513d601f19601f82011682018060405250810190610dec9190611596565b145b610e2d576040517f08c379a0000000000000000000000000000000000000000000000000000000008152600401610e2490611cc7565b60405180910390fd5b610eae8363095ea7b360e01b8484604051602401610e4c929190611b1c565b604051602081830303815290604052907bffffffffffffffffffffffffffffffffffffffffffffffffffffffff19166020820180517bffffffffffffffffffffffffffffffffffffffffffffffffffffffff8381831617835250505050610f99565b505050565b610f348363a9059cbb60e01b8484604051602401610ed2929190611b1c565b604051602081830303815290604052907bffffffffffffffffffffffffffffffffffffffffffffffffffffffff19166020820180517bffffffffffffffffffffffffffffffffffffffffffffffffffffffff8381831617835250505050610f99565b505050565b6000610f43610c3f565b60010160009054906101000a900473ffffffffffffffffffffffffffffffffffffffff16905090565b6000807fc8fcad8db84d3cc18b4c41d551ea0ee66dd599cde068d998e57d5e09332c131c90508091505090565b6000610ffb826040518060400160405280602081526020017f5361666545524332303a206c6f772d6c6576656c2063616c6c206661696c65648152508573ffffffffffffffffffffffffffffffffffffffff166110609092919063ffffffff16565b905060008151111561105b578080602001905181019061101b91906113e9565b61105a576040517f08c379a000000000000000000000000000000000000000000000000000000000815260040161105190611c67565b60405180910390fd5b5b505050565b606061106f8484600085611078565b90509392505050565b6060824710156110bd576040517f08c379a00000000000000000000000000000000000000000000000000000000081526004016110b490611ba7565b60405180910390fd5b6110c68561118c565b611105576040517f08c379a00000000000000000000000000000000000000000000000000000000081526004016110fc90611c47565b60405180910390fd5b6000808673ffffffffffffffffffffffffffffffffffffffff16858760405161112e91906119a0565b60006040518083038185875af1925050503d806000811461116b576040519150601f19603f3d011682016040523d82523d6000602084013e611170565b606091505b50915091506111808282866111af565b92505050949350505050565b6000808273ffffffffffffffffffffffffffffffffffffffff163b119050919050565b606083156111bf5782905061120f565b6000835111156111d25782518084602001fd5b816040517f08c379a00000000000000000000000000000000000000000000000000000000081526004016112069190611b45565b60405180910390fd5b9392505050565b600061122961122484611e89565b611e64565b90508281526020810184848401111561124157600080fd5b61124c848285612078565b509392505050565b600081359050611263816124e3565b92915050565b600081519050611278816124fa565b92915050565b60008151905061128d81612511565b92915050565b600082601f8301126112a457600080fd5b81356112b4848260208601611216565b91505092915050565b6000813590506112cc81612528565b92915050565b6000608082840312156112e457600080fd5b81905092915050565b6000610100828403121561130057600080fd5b81905092915050565b6000813590506113188161253f565b92915050565b60008135905061132d81612556565b92915050565b60008151905061134281612556565b92915050565b60006020828403121561135a57600080fd5b600061136884828501611254565b91505092915050565b60006020828403121561138357600080fd5b600061139184828501611269565b91505092915050565b6000806000606084860312156113af57600080fd5b60006113bd86828701611254565b93505060206113ce86828701611254565b92505060406113df86828701611309565b9150509250925092565b6000602082840312156113fb57600080fd5b60006114098482850161127e565b91505092915050565b60006080828403121561142457600080fd5b6000611432848285016112d2565b91505092915050565b6000610100828403121561144e57600080fd5b600061145c848285016112ed565b91505092915050565b60006020828403121561147757600080fd5b600061148584828501611309565b91505092915050565b6000806000606084860312156114a357600080fd5b60006114b186828701611309565b93505060206114c286828701611254565b92505060406114d3868287016112bd565b9150509250925092565b60008060008060008060c087890312156114f657600080fd5b600061150489828a01611309565b965050602087013567ffffffffffffffff81111561152157600080fd5b61152d89828a01611293565b955050604061153e89828a0161131e565b945050606061154f89828a01611254565b935050608061156089828a0161131e565b92505060a087013567ffffffffffffffff81111561157d57600080fd5b61158989828a01611293565b9150509295509295509295565b6000602082840312156115a857600080fd5b60006115b684828501611333565b91505092915050565b600080604083850312156115d257600080fd5b60006115e085828601611333565b92505060206115f185828601611333565b9150509250929050565b61160481611fdf565b82525050565b61161381611fcd565b82525050565b61162a61162582611fcd565b6120eb565b82525050565b600061163b82611eba565b6116458185611ed0565b9350611655818560208601612087565b61165e816121a6565b840191505092915050565b600061167482611eba565b61167e8185611ee1565b935061168e818560208601612087565b611697816121a6565b840191505092915050565b60006116ad82611eba565b6116b78185611ef2565b93506116c7818560208601612087565b80840191505092915050565b6116dc81612054565b82525050565b60006116ed82611ec5565b6116f78185611efd565b9350611707818560208601612087565b611710816121a6565b840191505092915050565b6000611728602283611efd565b9150611733826121c4565b604082019050919050565b600061174b602583611efd565b915061175682612213565b604082019050919050565b600061176e600283611ee1565b915061177982612262565b602082019050919050565b6000611791602683611efd565b915061179c8261228b565b604082019050919050565b60006117b4602c83611efd565b91506117bf826122da565b604082019050919050565b60006117d7602883611efd565b91506117e282612329565b604082019050919050565b60006117fa601f83611efd565b915061180582612378565b602082019050919050565b600061181d601a83611efd565b9150611828826123a1565b602082019050919050565b6000611840601d83611efd565b915061184b826123ca565b602082019050919050565b6000611863602a83611efd565b915061186e826123f3565b604082019050919050565b6000611886601b83611efd565b915061189182612442565b602082019050919050565b60006118a9601d83611efd565b91506118b48261246b565b602082019050919050565b60006118cc603683611efd565b91506118d782612494565b604082019050919050565b60006060830160008301516118fa6000860182611950565b50602083015161190d6020860182611950565b50604083015184820360408601526119258282611630565b9150508091505092915050565b61193b8161200f565b82525050565b61194a81612066565b82525050565b6119598161203d565b82525050565b6119688161203d565b82525050565b61197f61197a8261203d565b61210f565b82525050565b60006119918284611619565b60148201915081905092915050565b60006119ac82846116a2565b915081905092915050565b60006119c3828461196e565b60208201915081905092915050565b60006020820190506119e7600083018461160a565b92915050565b6000604082019050611a02600083018561160a565b611a0f602083018461160a565b9392505050565b600060a082019050611a2b600083018861160a565b611a38602083018761160a565b611a45604083018661160a565b611a52606083018561195f565b611a5f6080830184611932565b9695505050505050565b6000606082019050611a7e600083018661160a565b611a8b602083018561160a565b611a986040830184611932565b949350505050565b6000606082019050611ab5600083018661160a565b611ac2602083018561160a565b611acf604083018461195f565b949350505050565b6000608082019050611aec600083018761160a565b611af9602083018661160a565b611b06604083018561195f565b611b136060830184611932565b95945050505050565b6000604082019050611b31600083018561160a565b611b3e602083018461195f565b9392505050565b60006020820190508181036000830152611b5f81846116e2565b905092915050565b60006020820190508181036000830152611b808161171b565b9050919050565b60006020820190508181036000830152611ba08161173e565b9050919050565b60006020820190508181036000830152611bc081611784565b9050919050565b60006020820190508181036000830152611be0816117a7565b9050919050565b60006020820190508181036000830152611c00816117ca565b9050919050565b60006020820190508181036000830152611c20816117ed565b9050919050565b60006020820190508181036000830152611c4081611810565b9050919050565b60006020820190508181036000830152611c6081611833565b9050919050565b60006020820190508181036000830152611c8081611856565b9050919050565b60006020820190508181036000830152611ca081611879565b9050919050565b60006020820190508181036000830152611cc08161189c565b9050919050565b60006020820190508181036000830152611ce0816118bf565b9050919050565b600060a082019050611cfc6000830188611932565b611d0960208301876115fb565b8181036040830152611d1b8186611669565b9050611d2a606083018561195f565b611d37608083018461195f565b9695505050505050565b600060a082019050611d566000830187611932565b611d6360208301866116d3565b8181036040830152611d758185611669565b90508181036060830152611d8881611761565b90508181036080830152611d9c81846118e2565b905095945050505050565b600061012082019050611dbd600083018c611932565b611dca602083018b611941565b611dd7604083018a611941565b611de460608301896115fb565b611df1608083018861195f565b611dfe60a083018761195f565b81810360c0830152611e1081866118e2565b905081810360e0830152611e248185611669565b9050818103610100830152611e398184611669565b90509a9950505050505050505050565b6000602082019050611e5e600083018461195f565b92915050565b6000611e6e611e7f565b9050611e7a82826120ba565b919050565b6000604051905090565b600067ffffffffffffffff821115611ea457611ea3612177565b5b611ead826121a6565b9050602081019050919050565b600081519050919050565b600081519050919050565b600082825260208201905092915050565b600082825260208201905092915050565b600081905092915050565b600082825260208201905092915050565b6000611f198261203d565b9150611f248361203d565b925082611f3457611f33612148565b5b828204905092915050565b6000611f4a8261203d565b9150611f558361203d565b9250817fffffffffffffffffffffffffffffffffffffffffffffffffffffffffffffffff0483118215151615611f8e57611f8d612119565b5b828202905092915050565b6000611fa48261200f565b9150611faf8361200f565b925082821015611fc257611fc1612119565b5b828203905092915050565b6000611fd88261201d565b9050919050565b6000611fea8261201d565b9050919050565b60008115159050919050565b600061200882611fcd565b9050919050565b600061ffff82169050919050565b600073ffffffffffffffffffffffffffffffffffffffff82169050919050565b6000819050919050565b600060ff82169050919050565b600061205f82612047565b9050919050565b60006120718261200f565b9050919050565b82818337600083830152505050565b60005b838110156120a557808201518184015260208101905061208a565b838111156120b4576000848401525b50505050565b6120c3826121a6565b810181811067ffffffffffffffff821117156120e2576120e1612177565b5b80604052505050565b60006120f6826120fd565b9050919050565b6000612108826121b7565b9050919050565b6000819050919050565b7f4e487b7100000000000000000000000000000000000000000000000000000000600052601160045260246000fd5b7f4e487b7100000000000000000000000000000000000000000000000000000000600052601260045260246000fd5b7f4e487b7100000000000000000000000000000000000000000000000000000000600052604160045260246000fd5b6000601f19601f8301169050919050565b60008160601b9050919050565b7f4c69624469616d6f6e643a204d75737420626520636f6e7472616374206f776e60008201527f6572000000000000000000000000000000000000000000000000000000000000602082015250565b7f53746172676174653a3a20455448207472616e73666572206e6f74206176616960008201527f6c61626c65000000000000000000000000000000000000000000000000000000602082015250565b7f3078000000000000000000000000000000000000000000000000000000000000600082015250565b7f416464726573733a20696e73756666696369656e742062616c616e636520666f60008201527f722063616c6c0000000000000000000000000000000000000000000000000000602082015250565b7f53746172676174653a3a206d73672e76616c756520726571756972656420746f60008201527f20706179206d6573736167650000000000000000000000000000000000000000602082015250565b7f53746172676174653a206e6f206665657320616464656420666f72204554482060008201527f7472616e73666572000000000000000000000000000000000000000000000000602082015250565b7f53746172676174653a3a206f6e6c7920737461726761746520726f7574657200600082015250565b7f53746172676174653a3a20696e76616c69642061646472657373000000000000600082015250565b7f416464726573733a2063616c6c20746f206e6f6e2d636f6e7472616374000000600082015250565b7f5361666545524332303a204552433230206f7065726174696f6e20646964206e60008201527f6f74207375636365656400000000000000000000000000000000000000000000602082015250565b7f53746172676174653a3a20696e76616c6964207175616e746974790000000000600082015250565b7f53746172676174653a3a206d73672e76616c7565207265717569726564000000600082015250565b7f5361666545524332303a20617070726f76652066726f6d206e6f6e2d7a65726f60008201527f20746f206e6f6e2d7a65726f20616c6c6f77616e636500000000000000000000602082015250565b6124ec81611fcd565b81146124f757600080fd5b50565b61250381611fdf565b811461250e57600080fd5b50565b61251a81611ff1565b811461252557600080fd5b50565b61253181611ffd565b811461253c57600080fd5b50565b6125488161200f565b811461255357600080fd5b50565b61255f8161203d565b811461256a57600080fd5b5056fea164736f6c6343000804000a",
  "linkReferences": {},
  "deployedLinkReferences": {}
}