{
  "_format": "hh-sol-artifact-1",
  "contractName": "TestCounter",
  "sourceName": "src/4337_wallet/test/TestCounter.sol",
  "abi": [
    {
      "anonymous": false,
      "inputs": [
        {
          "indexed": false,
          "internalType": "address",
          "name": "sender",
          "type": "address"
        }
      ],
      "name": "CalledFrom",
      "type": "event"
    },
    {
      "inputs": [],
      "name": "count",
      "outputs": [],
      "stateMutability": "nonpayable",
      "type": "function"
    },
    {
      "inputs": [
        {
          "internalType": "address",
          "name": "",
          "type": "address"
        }
      ],
      "name": "counters",
      "outputs": [
        {
          "internalType": "uint256",
          "name": "",
          "type": "uint256"
        }
      ],
      "stateMutability": "view",
      "type": "function"
    },
    {
      "inputs": [
        {
          "internalType": "uint256",
          "name": "repeat",
          "type": "uint256"
        },
        {
          "internalType": "string",
          "name": "",
          "type": "string"
        }
      ],
      "name": "gasWaster",
      "outputs": [],
      "stateMutability": "nonpayable",
      "type": "function"
    },
    {
      "inputs": [],
      "name": "justemit",
      "outputs": [],
      "stateMutability": "nonpayable",
      "type": "function"
    },
    {
      "inputs": [],
      "name": "offset",
      "outputs": [
        {
          "internalType": "uint256",
          "name": "",
          "type": "uint256"
        }
      ],
      "stateMutability": "view",
      "type": "function"
    },
    {
      "inputs": [
        {
          "internalType": "uint256",
          "name": "",
          "type": "uint256"
        }
      ],
      "name": "xxx",
      "outputs": [
        {
          "internalType": "uint256",
          "name": "",
          "type": "uint256"
        }
      ],
      "stateMutability": "view",
      "type": "function"
    }
  ],
  "bytecode": "0x608060405234801561001057600080fd5b50610557806100206000396000f3fe608060405234801561001057600080fd5b50600436106100625760003560e01c806306661abd14610067578063278ddd3c14610071578063a1b468901461007b578063a5e9585f14610097578063be65ab8c146100c7578063d5556544146100f7575b600080fd5b61006f610115565b005b6100796101a4565b005b61009560048036038101906100909190610311565b6101dd565b005b6100b160048036038101906100ac9190610371565b610236565b6040516100be91906103ad565b60405180910390f35b6100e160048036038101906100dc9190610426565b61024e565b6040516100ee91906103ad565b60405180910390f35b6100ff610266565b60405161010c91906103ad565b60405180910390f35b60016000803373ffffffffffffffffffffffffffffffffffffffff1673ffffffffffffffffffffffffffffffffffffffff168152602001908152602001600020546101609190610482565b6000803373ffffffffffffffffffffffffffffffffffffffff1673ffffffffffffffffffffffffffffffffffffffff16815260200190815260200160002081905550565b7ffb3b4d6258432a9a3d78dd9bffbcb6cfb1bd94f58da35fd530d08da7d1d05832336040516101d391906104e7565b60405180910390a1565b6000600190505b83811161023057600260008154809291906101fe90610502565b91905055508060016000600254815260200190815260200160002081905550808061022890610502565b9150506101e4565b50505050565b60016020528060005260406000206000915090505481565b60006020528060005260406000206000915090505481565b60025481565b600080fd5b600080fd5b6000819050919050565b61028981610276565b811461029457600080fd5b50565b6000813590506102a681610280565b92915050565b600080fd5b600080fd5b600080fd5b60008083601f8401126102d1576102d06102ac565b5b8235905067ffffffffffffffff8111156102ee576102ed6102b1565b5b60208301915083600182028301111561030a576103096102b6565b5b9250929050565b60008060006040848603121561032a5761032961026c565b5b600061033886828701610297565b935050602084013567ffffffffffffffff81111561035957610358610271565b5b610365868287016102bb565b92509250509250925092565b6000602082840312156103875761038661026c565b5b600061039584828501610297565b91505092915050565b6103a781610276565b82525050565b60006020820190506103c2600083018461039e565b92915050565b600073ffffffffffffffffffffffffffffffffffffffff82169050919050565b60006103f3826103c8565b9050919050565b610403816103e8565b811461040e57600080fd5b50565b600081359050610420816103fa565b92915050565b60006020828403121561043c5761043b61026c565b5b600061044a84828501610411565b91505092915050565b7f4e487b7100000000000000000000000000000000000000000000000000000000600052601160045260246000fd5b600061048d82610276565b915061049883610276565b9250827fffffffffffffffffffffffffffffffffffffffffffffffffffffffffffffffff038211156104cd576104cc610453565b5b828201905092915050565b6104e1816103e8565b82525050565b60006020820190506104fc60008301846104d8565b92915050565b600061050d82610276565b91507fffffffffffffffffffffffffffffffffffffffffffffffffffffffffffffffff820361053f5761053e610453565b5b60018201905091905056fea164736f6c634300080f000a",
  "linkReferences": {},
  "deployedLinkReferences": {}
}