{
  "_format": "hh-sol-artifact-1",
  "contractName": "TestAggregatedAccount",
  "sourceName": "src/4337_wallet/samples/TestAggregatedAccount.sol",
  "abi": [
    {
      "inputs": [
        {
          "internalType": "contract IEntryPoint",
          "name": "anEntryPoint",
          "type": "address"
        },
        {
          "internalType": "address",
          "name": "anAggregator",
          "type": "address"
        }
      ],
      "stateMutability": "nonpayable",
      "type": "constructor"
    },
    {
      "anonymous": false,
      "inputs": [
        {
          "indexed": true,
          "internalType": "address",
          "name": "oldEntryPoint",
          "type": "address"
        },
        {
          "indexed": true,
          "internalType": "address",
          "name": "newEntryPoint",
          "type": "address"
        }
      ],
      "name": "EntryPointChanged",
      "type": "event"
    },
    {
      "inputs": [],
      "name": "addDeposit",
      "outputs": [],
      "stateMutability": "payable",
      "type": "function"
    },
    {
      "inputs": [],
      "name": "aggregator",
      "outputs": [
        {
          "internalType": "address",
          "name": "",
          "type": "address"
        }
      ],
      "stateMutability": "view",
      "type": "function"
    },
    {
      "inputs": [],
      "name": "entryPoint",
      "outputs": [
        {
          "internalType": "contract IEntryPoint",
          "name": "",
          "type": "address"
        }
      ],
      "stateMutability": "view",
      "type": "function"
    },
    {
      "inputs": [
        {
          "internalType": "address",
          "name": "dest",
          "type": "address"
        },
        {
          "internalType": "uint256",
          "name": "value",
          "type": "uint256"
        },
        {
          "internalType": "bytes",
          "name": "func",
          "type": "bytes"
        }
      ],
      "name": "exec",
      "outputs": [],
      "stateMutability": "nonpayable",
      "type": "function"
    },
    {
      "inputs": [
        {
          "internalType": "address[]",
          "name": "dest",
          "type": "address[]"
        },
        {
          "internalType": "bytes[]",
          "name": "func",
          "type": "bytes[]"
        }
      ],
      "name": "execBatch",
      "outputs": [],
      "stateMutability": "nonpayable",
      "type": "function"
    },
    {
      "inputs": [
        {
          "internalType": "address",
          "name": "dest",
          "type": "address"
        },
        {
          "internalType": "uint256",
          "name": "value",
          "type": "uint256"
        },
        {
          "internalType": "bytes",
          "name": "func",
          "type": "bytes"
        }
      ],
      "name": "execFromEntryPoint",
      "outputs": [],
      "stateMutability": "nonpayable",
      "type": "function"
    },
    {
      "inputs": [],
      "name": "getAggregator",
      "outputs": [
        {
          "internalType": "address",
          "name": "",
          "type": "address"
        }
      ],
      "stateMutability": "view",
      "type": "function"
    },
    {
      "inputs": [],
      "name": "getDeposit",
      "outputs": [
        {
          "internalType": "uint256",
          "name": "",
          "type": "uint256"
        }
      ],
      "stateMutability": "view",
      "type": "function"
    },
    {
      "inputs": [],
      "name": "nonce",
      "outputs": [
        {
          "internalType": "uint256",
          "name": "",
          "type": "uint256"
        }
      ],
      "stateMutability": "view",
      "type": "function"
    },
    {
      "inputs": [],
      "name": "owner",
      "outputs": [
        {
          "internalType": "address",
          "name": "",
          "type": "address"
        }
      ],
      "stateMutability": "view",
      "type": "function"
    },
    {
      "inputs": [
        {
          "internalType": "address payable",
          "name": "dest",
          "type": "address"
        },
        {
          "internalType": "uint256",
          "name": "amount",
          "type": "uint256"
        }
      ],
      "name": "transfer",
      "outputs": [],
      "stateMutability": "nonpayable",
      "type": "function"
    },
    {
      "inputs": [
        {
          "internalType": "address",
          "name": "newEntryPoint",
          "type": "address"
        }
      ],
      "name": "updateEntryPoint",
      "outputs": [],
      "stateMutability": "nonpayable",
      "type": "function"
    },
    {
      "inputs": [
        {
          "components": [
            {
              "internalType": "address",
              "name": "sender",
              "type": "address"
            },
            {
              "internalType": "uint256",
              "name": "nonce",
              "type": "uint256"
            },
            {
              "internalType": "bytes",
              "name": "initCode",
              "type": "bytes"
            },
            {
              "internalType": "bytes",
              "name": "callData",
              "type": "bytes"
            },
            {
              "internalType": "uint256",
              "name": "callGasLimit",
              "type": "uint256"
            },
            {
              "internalType": "uint256",
              "name": "verificationGasLimit",
              "type": "uint256"
            },
            {
              "internalType": "uint256",
              "name": "preVerificationGas",
              "type": "uint256"
            },
            {
              "internalType": "uint256",
              "name": "maxFeePerGas",
              "type": "uint256"
            },
            {
              "internalType": "uint256",
              "name": "maxPriorityFeePerGas",
              "type": "uint256"
            },
            {
              "internalType": "bytes",
              "name": "paymasterAndData",
              "type": "bytes"
            },
            {
              "internalType": "bytes",
              "name": "signature",
              "type": "bytes"
            }
          ],
          "internalType": "struct UserOperation",
          "name": "userOp",
          "type": "tuple"
        },
        {
          "internalType": "bytes32",
          "name": "userOpHash",
          "type": "bytes32"
        },
        {
          "internalType": "address",
          "name": "aggregator",
          "type": "address"
        },
        {
          "internalType": "uint256",
          "name": "missingAccountFunds",
          "type": "uint256"
        }
      ],
      "name": "validateUserOp",
      "outputs": [
        {
          "internalType": "uint256",
          "name": "deadline",
          "type": "uint256"
        }
      ],
      "stateMutability": "nonpayable",
      "type": "function"
    },
    {
      "inputs": [
        {
          "internalType": "address payable",
          "name": "withdrawAddress",
          "type": "address"
        },
        {
          "internalType": "uint256",
          "name": "amount",
          "type": "uint256"
        }
      ],
      "name": "withdrawDepositTo",
      "outputs": [],
      "stateMutability": "nonpayable",
      "type": "function"
    },
    {
      "stateMutability": "payable",
      "type": "receive"
    }
  ],
  "bytecode": "0x60a06040523480156200001157600080fd5b506040516200186a3803806200186a8339818101604052810190620000379190620001a9565b81600081600160006101000a81548173ffffffffffffffffffffffffffffffffffffffff021916908373ffffffffffffffffffffffffffffffffffffffff160217905550806000600c6101000a81548173ffffffffffffffffffffffffffffffffffffffff021916908373ffffffffffffffffffffffffffffffffffffffff16021790555050508073ffffffffffffffffffffffffffffffffffffffff1660808173ffffffffffffffffffffffffffffffffffffffff16815250505050620001f0565b600080fd5b600073ffffffffffffffffffffffffffffffffffffffff82169050919050565b60006200012c82620000ff565b9050919050565b600062000140826200011f565b9050919050565b620001528162000133565b81146200015e57600080fd5b50565b600081519050620001728162000147565b92915050565b62000183816200011f565b81146200018f57600080fd5b50565b600081519050620001a38162000178565b92915050565b60008060408385031215620001c357620001c2620000fa565b5b6000620001d38582860162000161565b9250506020620001e68582860162000192565b9150509250929050565b6080516116506200021a600039600081816103eb0152818161041101526109c501526116506000f3fe6080604052600436106100e15760003560e01c806380c5c7d01161007f578063affed0e011610059578063affed0e014610282578063b0d691fe146102ad578063c399ec88146102d8578063d0cb75fa14610303576100e8565b806380c5c7d0146102055780638da5cb5b1461022e578063a9059cbb14610259576100e8565b8063245a7bfc116100bb578063245a7bfc1461017c5780633ad59dbc146101a75780634a58db19146101d25780634d44560d146101dc576100e8565b80630565bb67146100ed5780630825d1fc146101165780631b71bb6e14610153576100e8565b366100e857005b600080fd5b3480156100f957600080fd5b50610114600480360381019061010f9190610d72565b61032c565b005b34801561012257600080fd5b5061013d60048036038101906101389190610e41565b610389565b60405161014a9190610ed3565b60405180910390f35b34801561015f57600080fd5b5061017a60048036038101906101759190610eee565b6103d5565b005b34801561018857600080fd5b506101916103e9565b60405161019e9190610f2a565b60405180910390f35b3480156101b357600080fd5b506101bc61040d565b6040516101c99190610f2a565b60405180910390f35b6101da610435565b005b3480156101e857600080fd5b5061020360048036038101906101fe9190610f83565b6104b5565b005b34801561021157600080fd5b5061022c60048036038101906102279190610d72565b610535565b005b34801561023a57600080fd5b50610243610592565b6040516102509190610f2a565b60405180910390f35b34801561026557600080fd5b50610280600480360381019061027b9190610f83565b6105b8565b005b34801561028e57600080fd5b5061029761060b565b6040516102a49190610ed3565b60405180910390f35b3480156102b957600080fd5b506102c261063a565b6040516102cf9190611022565b60405180910390f35b3480156102e457600080fd5b506102ed610664565b6040516102fa9190610ed3565b60405180910390f35b34801561030f57600080fd5b5061032a600480360381019061032591906110e9565b6106ec565b005b6103346107fe565b610383848484848080601f016020809104026020016040519081016040528093929190818152602001838380828437600081840152601f19601f820116905080830192505050505050506108c6565b50505050565b600061039361094a565b61039e8585856109c1565b905060008580604001906103b29190611179565b905014156103c4576103c385610a5c565b5b6103cd82610b09565b949350505050565b6103dd610ba5565b6103e681610baf565b50565b7f000000000000000000000000000000000000000000000000000000000000000081565b60007f0000000000000000000000000000000000000000000000000000000000000000905090565b600061043f61063a565b73ffffffffffffffffffffffffffffffffffffffff16346040516104629061120d565b60006040518083038185875af1925050503d806000811461049f576040519150601f19603f3d011682016040523d82523d6000602084013e6104a4565b606091505b50509050806104b257600080fd5b50565b6104bd6107fe565b6104c561063a565b73ffffffffffffffffffffffffffffffffffffffff1663205c287883836040518363ffffffff1660e01b81526004016104ff929190611231565b600060405180830381600087803b15801561051957600080fd5b505af115801561052d573d6000803e3d6000fd5b505050505050565b61053d61094a565b61058c848484848080601f016020809104026020016040519081016040528093929190818152602001838380828437600081840152601f19601f820116905080830192505050505050506108c6565b50505050565b6000600c9054906101000a900473ffffffffffffffffffffffffffffffffffffffff1681565b6105c06107fe565b8173ffffffffffffffffffffffffffffffffffffffff166108fc829081150290604051600060405180830381858888f19350505050158015610606573d6000803e3d6000fd5b505050565b60008060009054906101000a90046bffffffffffffffffffffffff166bffffffffffffffffffffffff16905090565b6000600160009054906101000a900473ffffffffffffffffffffffffffffffffffffffff16905090565b600061066e61063a565b73ffffffffffffffffffffffffffffffffffffffff166370a08231306040518263ffffffff1660e01b81526004016106a69190610f2a565b602060405180830381865afa1580156106c3573d6000803e3d6000fd5b505050506040513d601f19601f820116820180604052508101906106e7919061126f565b905090565b6106f46107fe565b81819050848490501461073c576040517f08c379a0000000000000000000000000000000000000000000000000000000008152600401610733906112f9565b60405180910390fd5b60005b848490508110156107f7576107e48585838181106107605761075f611319565b5b90506020020160208101906107759190610eee565b600085858581811061078a57610789611319565b5b905060200281019061079c9190611179565b8080601f016020809104026020016040519081016040528093929190818152602001838380828437600081840152601f19601f820116905080830192505050505050506108c6565b80806107ef90611377565b91505061073f565b5050505050565b6000600c9054906101000a900473ffffffffffffffffffffffffffffffffffffffff1673ffffffffffffffffffffffffffffffffffffffff163373ffffffffffffffffffffffffffffffffffffffff16148061088557503073ffffffffffffffffffffffffffffffffffffffff163373ffffffffffffffffffffffffffffffffffffffff16145b6108c4576040517f08c379a00000000000000000000000000000000000000000000000000000000081526004016108bb9061140c565b60405180910390fd5b565b6000808473ffffffffffffffffffffffffffffffffffffffff1684846040516108ef919061149b565b60006040518083038185875af1925050503d806000811461092c576040519150601f19603f3d011682016040523d82523d6000602084013e610931565b606091505b50915091508161094357805160208201fd5b5050505050565b61095261063a565b73ffffffffffffffffffffffffffffffffffffffff163373ffffffffffffffffffffffffffffffffffffffff16146109bf576040517f08c379a00000000000000000000000000000000000000000000000000000000081526004016109b6906114fe565b60405180910390fd5b565b60007f000000000000000000000000000000000000000000000000000000000000000073ffffffffffffffffffffffffffffffffffffffff168273ffffffffffffffffffffffffffffffffffffffff1614610a51576040517f08c379a0000000000000000000000000000000000000000000000000000000008152600401610a489061156a565b60405180910390fd5b600090509392505050565b806020013560008081819054906101000a90046bffffffffffffffffffffffff1680929190610a8a906115a2565b91906101000a8154816bffffffffffffffffffffffff02191690836bffffffffffffffffffffffff1602179055506bffffffffffffffffffffffff1614610b06576040517f08c379a0000000000000000000000000000000000000000000000000000000008152600401610afd90611623565b60405180910390fd5b50565b60008114610ba25760003373ffffffffffffffffffffffffffffffffffffffff16827fffffffffffffffffffffffffffffffffffffffffffffffffffffffffffffffff90604051610b599061120d565b600060405180830381858888f193505050503d8060008114610b97576040519150601f19603f3d011682016040523d82523d6000602084013e610b9c565b606091505b50509050505b50565b610bad6107fe565b565b8073ffffffffffffffffffffffffffffffffffffffff16600160009054906101000a900473ffffffffffffffffffffffffffffffffffffffff1673ffffffffffffffffffffffffffffffffffffffff167f450909c1478d09248269d4ad4fa8cba61ca3f50faed58c7aedefa51c7f62b83a60405160405180910390a380600160006101000a81548173ffffffffffffffffffffffffffffffffffffffff021916908373ffffffffffffffffffffffffffffffffffffffff16021790555050565b600080fd5b600080fd5b600073ffffffffffffffffffffffffffffffffffffffff82169050919050565b6000610ca482610c79565b9050919050565b610cb481610c99565b8114610cbf57600080fd5b50565b600081359050610cd181610cab565b92915050565b6000819050919050565b610cea81610cd7565b8114610cf557600080fd5b50565b600081359050610d0781610ce1565b92915050565b600080fd5b600080fd5b600080fd5b60008083601f840112610d3257610d31610d0d565b5b8235905067ffffffffffffffff811115610d4f57610d4e610d12565b5b602083019150836001820283011115610d6b57610d6a610d17565b5b9250929050565b60008060008060608587031215610d8c57610d8b610c6f565b5b6000610d9a87828801610cc2565b9450506020610dab87828801610cf8565b935050604085013567ffffffffffffffff811115610dcc57610dcb610c74565b5b610dd887828801610d1c565b925092505092959194509250565b600080fd5b60006101608284031215610e0257610e01610de6565b5b81905092915050565b6000819050919050565b610e1e81610e0b565b8114610e2957600080fd5b50565b600081359050610e3b81610e15565b92915050565b60008060008060808587031215610e5b57610e5a610c6f565b5b600085013567ffffffffffffffff811115610e7957610e78610c74565b5b610e8587828801610deb565b9450506020610e9687828801610e2c565b9350506040610ea787828801610cc2565b9250506060610eb887828801610cf8565b91505092959194509250565b610ecd81610cd7565b82525050565b6000602082019050610ee86000830184610ec4565b92915050565b600060208284031215610f0457610f03610c6f565b5b6000610f1284828501610cc2565b91505092915050565b610f2481610c99565b82525050565b6000602082019050610f3f6000830184610f1b565b92915050565b6000610f5082610c79565b9050919050565b610f6081610f45565b8114610f6b57600080fd5b50565b600081359050610f7d81610f57565b92915050565b60008060408385031215610f9a57610f99610c6f565b5b6000610fa885828601610f6e565b9250506020610fb985828601610cf8565b9150509250929050565b6000819050919050565b6000610fe8610fe3610fde84610c79565b610fc3565b610c79565b9050919050565b6000610ffa82610fcd565b9050919050565b600061100c82610fef565b9050919050565b61101c81611001565b82525050565b60006020820190506110376000830184611013565b92915050565b60008083601f84011261105357611052610d0d565b5b8235905067ffffffffffffffff8111156110705761106f610d12565b5b60208301915083602082028301111561108c5761108b610d17565b5b9250929050565b60008083601f8401126110a9576110a8610d0d565b5b8235905067ffffffffffffffff8111156110c6576110c5610d12565b5b6020830191508360208202830111156110e2576110e1610d17565b5b9250929050565b6000806000806040858703121561110357611102610c6f565b5b600085013567ffffffffffffffff81111561112157611120610c74565b5b61112d8782880161103d565b9450945050602085013567ffffffffffffffff8111156111505761114f610c74565b5b61115c87828801611093565b925092505092959194509250565b600080fd5b600080fd5b600080fd5b600080833560016020038436030381126111965761119561116a565b5b80840192508235915067ffffffffffffffff8211156111b8576111b761116f565b5b6020830192506001820236038313156111d4576111d3611174565b5b509250929050565b600081905092915050565b50565b60006111f76000836111dc565b9150611202826111e7565b600082019050919050565b6000611218826111ea565b9150819050919050565b61122b81610f45565b82525050565b60006040820190506112466000830185611222565b6112536020830184610ec4565b9392505050565b60008151905061126981610ce1565b92915050565b60006020828403121561128557611284610c6f565b5b60006112938482850161125a565b91505092915050565b600082825260208201905092915050565b7f77726f6e67206172726179206c656e6774687300000000000000000000000000600082015250565b60006112e360138361129c565b91506112ee826112ad565b602082019050919050565b60006020820190508181036000830152611312816112d6565b9050919050565b7f4e487b7100000000000000000000000000000000000000000000000000000000600052603260045260246000fd5b7f4e487b7100000000000000000000000000000000000000000000000000000000600052601160045260246000fd5b600061138282610cd7565b91507fffffffffffffffffffffffffffffffffffffffffffffffffffffffffffffffff8214156113b5576113b4611348565b5b600182019050919050565b7f6f6e6c79206f776e657200000000000000000000000000000000000000000000600082015250565b60006113f6600a8361129c565b9150611401826113c0565b602082019050919050565b60006020820190508181036000830152611425816113e9565b9050919050565b600081519050919050565b60005b8381101561145557808201518184015260208101905061143a565b83811115611464576000848401525b50505050565b60006114758261142c565b61147f81856111dc565b935061148f818560208601611437565b80840191505092915050565b60006114a7828461146a565b915081905092915050565b7f6163636f756e743a206e6f742066726f6d20456e747279506f696e7400000000600082015250565b60006114e8601c8361129c565b91506114f3826114b2565b602082019050919050565b60006020820190508181036000830152611517816114db565b9050919050565b7f77726f6e672061676772656761746f7200000000000000000000000000000000600082015250565b600061155460108361129c565b915061155f8261151e565b602082019050919050565b6000602082019050818103600083015261158381611547565b9050919050565b60006bffffffffffffffffffffffff82169050919050565b60006115ad8261158a565b91506bffffffffffffffffffffffff8214156115cc576115cb611348565b5b600182019050919050565b7f6163636f756e743a20696e76616c6964206e6f6e636500000000000000000000600082015250565b600061160d60168361129c565b9150611618826115d7565b602082019050919050565b6000602082019050818103600083015261163c81611600565b905091905056fea164736f6c634300080c000a",
  "linkReferences": {},
  "deployedLinkReferences": {}
}