{
  "_format": "hh-sol-artifact-1",
  "contractName": "TestExpiryAccount",
  "sourceName": "src/4337_wallet/test/TestExpiryAccount.sol",
  "abi": [
    {
      "inputs": [
        {
          "internalType": "contract IEntryPoint",
          "name": "anEntryPoint",
          "type": "address"
        },
        {
          "internalType": "address",
          "name": "anOwner",
          "type": "address"
        }
      ],
      "stateMutability": "nonpayable",
      "type": "constructor"
    },
    {
      "anonymous": false,
      "inputs": [
        {
          "indexed": true,
          "internalType": "address",
          "name": "oldEntryPoint",
          "type": "address"
        },
        {
          "indexed": true,
          "internalType": "address",
          "name": "newEntryPoint",
          "type": "address"
        }
      ],
      "name": "EntryPointChanged",
      "type": "event"
    },
    {
      "inputs": [],
      "name": "addDeposit",
      "outputs": [],
      "stateMutability": "payable",
      "type": "function"
    },
    {
      "inputs": [
        {
          "internalType": "address",
          "name": "owner",
          "type": "address"
        },
        {
          "internalType": "uint256",
          "name": "deadline",
          "type": "uint256"
        }
      ],
      "name": "addTemporaryOwner",
      "outputs": [],
      "stateMutability": "nonpayable",
      "type": "function"
    },
    {
      "inputs": [],
      "name": "entryPoint",
      "outputs": [
        {
          "internalType": "contract IEntryPoint",
          "name": "",
          "type": "address"
        }
      ],
      "stateMutability": "view",
      "type": "function"
    },
    {
      "inputs": [
        {
          "internalType": "address",
          "name": "dest",
          "type": "address"
        },
        {
          "internalType": "uint256",
          "name": "value",
          "type": "uint256"
        },
        {
          "internalType": "bytes",
          "name": "func",
          "type": "bytes"
        }
      ],
      "name": "exec",
      "outputs": [],
      "stateMutability": "nonpayable",
      "type": "function"
    },
    {
      "inputs": [
        {
          "internalType": "address[]",
          "name": "dest",
          "type": "address[]"
        },
        {
          "internalType": "bytes[]",
          "name": "func",
          "type": "bytes[]"
        }
      ],
      "name": "execBatch",
      "outputs": [],
      "stateMutability": "nonpayable",
      "type": "function"
    },
    {
      "inputs": [
        {
          "internalType": "address",
          "name": "dest",
          "type": "address"
        },
        {
          "internalType": "uint256",
          "name": "value",
          "type": "uint256"
        },
        {
          "internalType": "bytes",
          "name": "func",
          "type": "bytes"
        }
      ],
      "name": "execFromEntryPoint",
      "outputs": [],
      "stateMutability": "nonpayable",
      "type": "function"
    },
    {
      "inputs": [],
      "name": "getDeposit",
      "outputs": [
        {
          "internalType": "uint256",
          "name": "",
          "type": "uint256"
        }
      ],
      "stateMutability": "view",
      "type": "function"
    },
    {
      "inputs": [],
      "name": "nonce",
      "outputs": [
        {
          "internalType": "uint256",
          "name": "",
          "type": "uint256"
        }
      ],
      "stateMutability": "view",
      "type": "function"
    },
    {
      "inputs": [],
      "name": "owner",
      "outputs": [
        {
          "internalType": "address",
          "name": "",
          "type": "address"
        }
      ],
      "stateMutability": "view",
      "type": "function"
    },
    {
      "inputs": [
        {
          "internalType": "address",
          "name": "",
          "type": "address"
        }
      ],
      "name": "ownerDeadlines",
      "outputs": [
        {
          "internalType": "uint256",
          "name": "",
          "type": "uint256"
        }
      ],
      "stateMutability": "view",
      "type": "function"
    },
    {
      "inputs": [
        {
          "internalType": "address payable",
          "name": "dest",
          "type": "address"
        },
        {
          "internalType": "uint256",
          "name": "amount",
          "type": "uint256"
        }
      ],
      "name": "transfer",
      "outputs": [],
      "stateMutability": "nonpayable",
      "type": "function"
    },
    {
      "inputs": [
        {
          "internalType": "address",
          "name": "newEntryPoint",
          "type": "address"
        }
      ],
      "name": "updateEntryPoint",
      "outputs": [],
      "stateMutability": "nonpayable",
      "type": "function"
    },
    {
      "inputs": [
        {
          "components": [
            {
              "internalType": "address",
              "name": "sender",
              "type": "address"
            },
            {
              "internalType": "uint256",
              "name": "nonce",
              "type": "uint256"
            },
            {
              "internalType": "bytes",
              "name": "initCode",
              "type": "bytes"
            },
            {
              "internalType": "bytes",
              "name": "callData",
              "type": "bytes"
            },
            {
              "internalType": "uint256",
              "name": "callGasLimit",
              "type": "uint256"
            },
            {
              "internalType": "uint256",
              "name": "verificationGasLimit",
              "type": "uint256"
            },
            {
              "internalType": "uint256",
              "name": "preVerificationGas",
              "type": "uint256"
            },
            {
              "internalType": "uint256",
              "name": "maxFeePerGas",
              "type": "uint256"
            },
            {
              "internalType": "uint256",
              "name": "maxPriorityFeePerGas",
              "type": "uint256"
            },
            {
              "internalType": "bytes",
              "name": "paymasterAndData",
              "type": "bytes"
            },
            {
              "internalType": "bytes",
              "name": "signature",
              "type": "bytes"
            }
          ],
          "internalType": "struct UserOperation",
          "name": "userOp",
          "type": "tuple"
        },
        {
          "internalType": "bytes32",
          "name": "userOpHash",
          "type": "bytes32"
        },
        {
          "internalType": "address",
          "name": "aggregator",
          "type": "address"
        },
        {
          "internalType": "uint256",
          "name": "missingAccountFunds",
          "type": "uint256"
        }
      ],
      "name": "validateUserOp",
      "outputs": [
        {
          "internalType": "uint256",
          "name": "deadline",
          "type": "uint256"
        }
      ],
      "stateMutability": "nonpayable",
      "type": "function"
    },
    {
      "inputs": [
        {
          "internalType": "address payable",
          "name": "withdrawAddress",
          "type": "address"
        },
        {
          "internalType": "uint256",
          "name": "amount",
          "type": "uint256"
        }
      ],
      "name": "withdrawDepositTo",
      "outputs": [],
      "stateMutability": "nonpayable",
      "type": "function"
    },
    {
      "stateMutability": "payable",
      "type": "receive"
    }
  ],
  "bytecode": "0x60806040523480156200001157600080fd5b5060405162002276380380620022768339818101604052810190620000379190620002ca565b818181600160006101000a81548173ffffffffffffffffffffffffffffffffffffffff021916908373ffffffffffffffffffffffffffffffffffffffff160217905550806000600c6101000a81548173ffffffffffffffffffffffffffffffffffffffff021916908373ffffffffffffffffffffffffffffffffffffffff1602179055505050620000ef817fffffffffffffffffffffffffffffffffffffffffffffffffffffffffffffffff620000f760201b60201c565b505062000394565b620001076200014f60201b60201c565b80600260008473ffffffffffffffffffffffffffffffffffffffff1673ffffffffffffffffffffffffffffffffffffffff168152602001908152602001600020819055505050565b6000600c9054906101000a900473ffffffffffffffffffffffffffffffffffffffff1673ffffffffffffffffffffffffffffffffffffffff163373ffffffffffffffffffffffffffffffffffffffff161480620001d757503073ffffffffffffffffffffffffffffffffffffffff163373ffffffffffffffffffffffffffffffffffffffff16145b62000219576040517f08c379a0000000000000000000000000000000000000000000000000000000008152600401620002109062000372565b60405180910390fd5b565b600080fd5b600073ffffffffffffffffffffffffffffffffffffffff82169050919050565b60006200024d8262000220565b9050919050565b6000620002618262000240565b9050919050565b620002738162000254565b81146200027f57600080fd5b50565b600081519050620002938162000268565b92915050565b620002a48162000240565b8114620002b057600080fd5b50565b600081519050620002c48162000299565b92915050565b60008060408385031215620002e457620002e36200021b565b5b6000620002f48582860162000282565b92505060206200030785828601620002b3565b9150509250929050565b600082825260208201905092915050565b7f6f6e6c79206f776e657200000000000000000000000000000000000000000000600082015250565b60006200035a600a8362000311565b9150620003678262000322565b602082019050919050565b600060208201905081810360008301526200038d816200034b565b9050919050565b611ed280620003a46000396000f3fe6080604052600436106100e15760003560e01c80638da5cb5b1161007f578063affed0e011610059578063affed0e014610292578063b0d691fe146102bd578063c399ec88146102e8578063d0cb75fa14610313576100e8565b80638da5cb5b14610215578063a3450e4414610240578063a9059cbb14610269576100e8565b8063424a0b3e116100bb578063424a0b3e1461017c5780634a58db19146101b95780634d44560d146101c357806380c5c7d0146101ec576100e8565b80630565bb67146100ed5780630825d1fc146101165780631b71bb6e14610153576100e8565b366100e857005b600080fd5b3480156100f957600080fd5b50610114600480360381019061010f9190611225565b61033c565b005b34801561012257600080fd5b5061013d600480360381019061013891906112f4565b610399565b60405161014a9190611386565b60405180910390f35b34801561015f57600080fd5b5061017a600480360381019061017591906113a1565b6103e5565b005b34801561018857600080fd5b506101a3600480360381019061019e91906113a1565b6103f9565b6040516101b09190611386565b60405180910390f35b6101c1610411565b005b3480156101cf57600080fd5b506101ea60048036038101906101e5919061140c565b610491565b005b3480156101f857600080fd5b50610213600480360381019061020e9190611225565b610511565b005b34801561022157600080fd5b5061022a61056e565b604051610237919061145b565b60405180910390f35b34801561024c57600080fd5b5061026760048036038101906102629190611476565b610594565b005b34801561027557600080fd5b50610290600480360381019061028b919061140c565b6105e4565b005b34801561029e57600080fd5b506102a7610637565b6040516102b49190611386565b60405180910390f35b3480156102c957600080fd5b506102d2610666565b6040516102df9190611515565b60405180910390f35b3480156102f457600080fd5b506102fd610690565b60405161030a9190611386565b60405180910390f35b34801561031f57600080fd5b5061033a600480360381019061033591906115dc565b610718565b005b61034461082a565b610393848484848080601f016020809104026020016040519081016040528093929190818152602001838380828437600081840152601f19601f820116905080830192505050505050506108f2565b50505050565b60006103a3610976565b6103ae8585856109ed565b905060008580604001906103c2919061166c565b905014156103d4576103d385610af4565b5b6103dd82610ba1565b949350505050565b6103ed610c3d565b6103f681610c47565b50565b60026020528060005260406000206000915090505481565b600061041b610666565b73ffffffffffffffffffffffffffffffffffffffff163460405161043e90611700565b60006040518083038185875af1925050503d806000811461047b576040519150601f19603f3d011682016040523d82523d6000602084013e610480565b606091505b505090508061048e57600080fd5b50565b61049961082a565b6104a1610666565b73ffffffffffffffffffffffffffffffffffffffff1663205c287883836040518363ffffffff1660e01b81526004016104db929190611724565b600060405180830381600087803b1580156104f557600080fd5b505af1158015610509573d6000803e3d6000fd5b505050505050565b610519610976565b610568848484848080601f016020809104026020016040519081016040528093929190818152602001838380828437600081840152601f19601f820116905080830192505050505050506108f2565b50505050565b6000600c9054906101000a900473ffffffffffffffffffffffffffffffffffffffff1681565b61059c61082a565b80600260008473ffffffffffffffffffffffffffffffffffffffff1673ffffffffffffffffffffffffffffffffffffffff168152602001908152602001600020819055505050565b6105ec61082a565b8173ffffffffffffffffffffffffffffffffffffffff166108fc829081150290604051600060405180830381858888f19350505050158015610632573d6000803e3d6000fd5b505050565b60008060009054906101000a90046bffffffffffffffffffffffff166bffffffffffffffffffffffff16905090565b6000600160009054906101000a900473ffffffffffffffffffffffffffffffffffffffff16905090565b600061069a610666565b73ffffffffffffffffffffffffffffffffffffffff166370a08231306040518263ffffffff1660e01b81526004016106d2919061145b565b602060405180830381865afa1580156106ef573d6000803e3d6000fd5b505050506040513d601f19601f820116820180604052508101906107139190611762565b905090565b61072061082a565b818190508484905014610768576040517f08c379a000000000000000000000000000000000000000000000000000000000815260040161075f906117ec565b60405180910390fd5b60005b848490508110156108235761081085858381811061078c5761078b61180c565b5b90506020020160208101906107a191906113a1565b60008585858181106107b6576107b561180c565b5b90506020028101906107c8919061166c565b8080601f016020809104026020016040519081016040528093929190818152602001838380828437600081840152601f19601f820116905080830192505050505050506108f2565b808061081b9061186a565b91505061076b565b5050505050565b6000600c9054906101000a900473ffffffffffffffffffffffffffffffffffffffff1673ffffffffffffffffffffffffffffffffffffffff163373ffffffffffffffffffffffffffffffffffffffff1614806108b157503073ffffffffffffffffffffffffffffffffffffffff163373ffffffffffffffffffffffffffffffffffffffff16145b6108f0576040517f08c379a00000000000000000000000000000000000000000000000000000000081526004016108e7906118ff565b60405180910390fd5b565b6000808473ffffffffffffffffffffffffffffffffffffffff16848460405161091b919061198e565b60006040518083038185875af1925050503d8060008114610958576040519150601f19603f3d011682016040523d82523d6000602084013e61095d565b606091505b50915091508161096f57805160208201fd5b5050505050565b61097e610666565b73ffffffffffffffffffffffffffffffffffffffff163373ffffffffffffffffffffffffffffffffffffffff16146109eb576040517f08c379a00000000000000000000000000000000000000000000000000000000081526004016109e2906119f1565b60405180910390fd5b565b6000806109f984610d07565b90506000610a6386806101400190610a11919061166c565b8080601f016020809104026020016040519081016040528093929190818152602001838380828437600081840152601f19601f8201169050808301925050505050505083610d3790919063ffffffff16565b9050600260008273ffffffffffffffffffffffffffffffffffffffff1673ffffffffffffffffffffffffffffffffffffffff1681526020019081526020016000205492506000831415610aeb576040517f08c379a0000000000000000000000000000000000000000000000000000000008152600401610ae290611a5d565b60405180910390fd5b50509392505050565b806020013560008081819054906101000a90046bffffffffffffffffffffffff1680929190610b2290611a95565b91906101000a8154816bffffffffffffffffffffffff02191690836bffffffffffffffffffffffff1602179055506bffffffffffffffffffffffff1614610b9e576040517f08c379a0000000000000000000000000000000000000000000000000000000008152600401610b9590611b16565b60405180910390fd5b50565b60008114610c3a5760003373ffffffffffffffffffffffffffffffffffffffff16827fffffffffffffffffffffffffffffffffffffffffffffffffffffffffffffffff90604051610bf190611700565b600060405180830381858888f193505050503d8060008114610c2f576040519150601f19603f3d011682016040523d82523d6000602084013e610c34565b606091505b50509050505b50565b610c4561082a565b565b8073ffffffffffffffffffffffffffffffffffffffff16600160009054906101000a900473ffffffffffffffffffffffffffffffffffffffff1673ffffffffffffffffffffffffffffffffffffffff167f450909c1478d09248269d4ad4fa8cba61ca3f50faed58c7aedefa51c7f62b83a60405160405180910390a380600160006101000a81548173ffffffffffffffffffffffffffffffffffffffff021916908373ffffffffffffffffffffffffffffffffffffffff16021790555050565b600081604051602001610d1a9190611bae565b604051602081830303815290604052805190602001209050919050565b6000806000610d468585610d5e565b91509150610d5381610de1565b819250505092915050565b600080604183511415610da05760008060006020860151925060408601519150606086015160001a9050610d9487828585610fb6565b94509450505050610dda565b604083511415610dd1576000806020850151915060408501519050610dc68683836110c3565b935093505050610dda565b60006002915091505b9250929050565b60006004811115610df557610df4611bd4565b5b816004811115610e0857610e07611bd4565b5b1415610e1357610fb3565b60016004811115610e2757610e26611bd4565b5b816004811115610e3a57610e39611bd4565b5b1415610e7b576040517f08c379a0000000000000000000000000000000000000000000000000000000008152600401610e7290611c4f565b60405180910390fd5b60026004811115610e8f57610e8e611bd4565b5b816004811115610ea257610ea1611bd4565b5b1415610ee3576040517f08c379a0000000000000000000000000000000000000000000000000000000008152600401610eda90611cbb565b60405180910390fd5b60036004811115610ef757610ef6611bd4565b5b816004811115610f0a57610f09611bd4565b5b1415610f4b576040517f08c379a0000000000000000000000000000000000000000000000000000000008152600401610f4290611d4d565b60405180910390fd5b600480811115610f5e57610f5d611bd4565b5b816004811115610f7157610f70611bd4565b5b1415610fb2576040517f08c379a0000000000000000000000000000000000000000000000000000000008152600401610fa990611ddf565b60405180910390fd5b5b50565b6000807f7fffffffffffffffffffffffffffffff5d576e7357a4501ddfe92f46681b20a08360001c1115610ff15760006003915091506110ba565b601b8560ff16141580156110095750601c8560ff1614155b1561101b5760006004915091506110ba565b6000600187878787604051600081526020016040526040516110409493929190611e2a565b6020604051602081039080840390855afa158015611062573d6000803e3d6000fd5b505050602060405103519050600073ffffffffffffffffffffffffffffffffffffffff168173ffffffffffffffffffffffffffffffffffffffff1614156110b1576000600192509250506110ba565b80600092509250505b94509492505050565b60008060007f7fffffffffffffffffffffffffffffffffffffffffffffffffffffffffffffff60001b841690506000601b60ff8660001c901c6111069190611e6f565b905061111487828885610fb6565b935093505050935093915050565b600080fd5b600080fd5b600073ffffffffffffffffffffffffffffffffffffffff82169050919050565b60006111578261112c565b9050919050565b6111678161114c565b811461117257600080fd5b50565b6000813590506111848161115e565b92915050565b6000819050919050565b61119d8161118a565b81146111a857600080fd5b50565b6000813590506111ba81611194565b92915050565b600080fd5b600080fd5b600080fd5b60008083601f8401126111e5576111e46111c0565b5b8235905067ffffffffffffffff811115611202576112016111c5565b5b60208301915083600182028301111561121e5761121d6111ca565b5b9250929050565b6000806000806060858703121561123f5761123e611122565b5b600061124d87828801611175565b945050602061125e878288016111ab565b935050604085013567ffffffffffffffff81111561127f5761127e611127565b5b61128b878288016111cf565b925092505092959194509250565b600080fd5b600061016082840312156112b5576112b4611299565b5b81905092915050565b6000819050919050565b6112d1816112be565b81146112dc57600080fd5b50565b6000813590506112ee816112c8565b92915050565b6000806000806080858703121561130e5761130d611122565b5b600085013567ffffffffffffffff81111561132c5761132b611127565b5b6113388782880161129e565b9450506020611349878288016112df565b935050604061135a87828801611175565b925050606061136b878288016111ab565b91505092959194509250565b6113808161118a565b82525050565b600060208201905061139b6000830184611377565b92915050565b6000602082840312156113b7576113b6611122565b5b60006113c584828501611175565b91505092915050565b60006113d98261112c565b9050919050565b6113e9816113ce565b81146113f457600080fd5b50565b600081359050611406816113e0565b92915050565b6000806040838503121561142357611422611122565b5b6000611431858286016113f7565b9250506020611442858286016111ab565b9150509250929050565b6114558161114c565b82525050565b6000602082019050611470600083018461144c565b92915050565b6000806040838503121561148d5761148c611122565b5b600061149b85828601611175565b92505060206114ac858286016111ab565b9150509250929050565b6000819050919050565b60006114db6114d66114d18461112c565b6114b6565b61112c565b9050919050565b60006114ed826114c0565b9050919050565b60006114ff826114e2565b9050919050565b61150f816114f4565b82525050565b600060208201905061152a6000830184611506565b92915050565b60008083601f840112611546576115456111c0565b5b8235905067ffffffffffffffff811115611563576115626111c5565b5b60208301915083602082028301111561157f5761157e6111ca565b5b9250929050565b60008083601f84011261159c5761159b6111c0565b5b8235905067ffffffffffffffff8111156115b9576115b86111c5565b5b6020830191508360208202830111156115d5576115d46111ca565b5b9250929050565b600080600080604085870312156115f6576115f5611122565b5b600085013567ffffffffffffffff81111561161457611613611127565b5b61162087828801611530565b9450945050602085013567ffffffffffffffff81111561164357611642611127565b5b61164f87828801611586565b925092505092959194509250565b600080fd5b600080fd5b600080fd5b600080833560016020038436030381126116895761168861165d565b5b80840192508235915067ffffffffffffffff8211156116ab576116aa611662565b5b6020830192506001820236038313156116c7576116c6611667565b5b509250929050565b600081905092915050565b50565b60006116ea6000836116cf565b91506116f5826116da565b600082019050919050565b600061170b826116dd565b9150819050919050565b61171e816113ce565b82525050565b60006040820190506117396000830185611715565b6117466020830184611377565b9392505050565b60008151905061175c81611194565b92915050565b60006020828403121561177857611777611122565b5b60006117868482850161174d565b91505092915050565b600082825260208201905092915050565b7f77726f6e67206172726179206c656e6774687300000000000000000000000000600082015250565b60006117d660138361178f565b91506117e1826117a0565b602082019050919050565b60006020820190508181036000830152611805816117c9565b9050919050565b7f4e487b7100000000000000000000000000000000000000000000000000000000600052603260045260246000fd5b7f4e487b7100000000000000000000000000000000000000000000000000000000600052601160045260246000fd5b60006118758261118a565b91507fffffffffffffffffffffffffffffffffffffffffffffffffffffffffffffffff8214156118a8576118a761183b565b5b600182019050919050565b7f6f6e6c79206f776e657200000000000000000000000000000000000000000000600082015250565b60006118e9600a8361178f565b91506118f4826118b3565b602082019050919050565b60006020820190508181036000830152611918816118dc565b9050919050565b600081519050919050565b60005b8381101561194857808201518184015260208101905061192d565b83811115611957576000848401525b50505050565b60006119688261191f565b61197281856116cf565b935061198281856020860161192a565b80840191505092915050565b600061199a828461195d565b915081905092915050565b7f6163636f756e743a206e6f742066726f6d20456e747279506f696e7400000000600082015250565b60006119db601c8361178f565b91506119e6826119a5565b602082019050919050565b60006020820190508181036000830152611a0a816119ce565b9050919050565b7f6163636f756e743a2077726f6e67207369676e61747572650000000000000000600082015250565b6000611a4760188361178f565b9150611a5282611a11565b602082019050919050565b60006020820190508181036000830152611a7681611a3a565b9050919050565b60006bffffffffffffffffffffffff82169050919050565b6000611aa082611a7d565b91506bffffffffffffffffffffffff821415611abf57611abe61183b565b5b600182019050919050565b7f6163636f756e743a20696e76616c6964206e6f6e636500000000000000000000600082015250565b6000611b0060168361178f565b9150611b0b82611aca565b602082019050919050565b60006020820190508181036000830152611b2f81611af3565b9050919050565b600081905092915050565b7f19457468657265756d205369676e6564204d6573736167653a0a333200000000600082015250565b6000611b77601c83611b36565b9150611b8282611b41565b601c82019050919050565b6000819050919050565b611ba8611ba3826112be565b611b8d565b82525050565b6000611bb982611b6a565b9150611bc58284611b97565b60208201915081905092915050565b7f4e487b7100000000000000000000000000000000000000000000000000000000600052602160045260246000fd5b7f45434453413a20696e76616c6964207369676e61747572650000000000000000600082015250565b6000611c3960188361178f565b9150611c4482611c03565b602082019050919050565b60006020820190508181036000830152611c6881611c2c565b9050919050565b7f45434453413a20696e76616c6964207369676e6174757265206c656e67746800600082015250565b6000611ca5601f8361178f565b9150611cb082611c6f565b602082019050919050565b60006020820190508181036000830152611cd481611c98565b9050919050565b7f45434453413a20696e76616c6964207369676e6174757265202773272076616c60008201527f7565000000000000000000000000000000000000000000000000000000000000602082015250565b6000611d3760228361178f565b9150611d4282611cdb565b604082019050919050565b60006020820190508181036000830152611d6681611d2a565b9050919050565b7f45434453413a20696e76616c6964207369676e6174757265202776272076616c60008201527f7565000000000000000000000000000000000000000000000000000000000000602082015250565b6000611dc960228361178f565b9150611dd482611d6d565b604082019050919050565b60006020820190508181036000830152611df881611dbc565b9050919050565b611e08816112be565b82525050565b600060ff82169050919050565b611e2481611e0e565b82525050565b6000608082019050611e3f6000830187611dff565b611e4c6020830186611e1b565b611e596040830185611dff565b611e666060830184611dff565b95945050505050565b6000611e7a8261118a565b9150611e858361118a565b9250827fffffffffffffffffffffffffffffffffffffffffffffffffffffffffffffffff03821115611eba57611eb961183b565b5b82820190509291505056fea164736f6c634300080c000a",
  "linkReferences": {},
  "deployedLinkReferences": {}
}