{
  "_format": "hh-sol-artifact-1",
  "contractName": "TestExpirePaymaster",
  "sourceName": "src/4337_wallet/test/TestExpirePaymaster.sol",
  "abi": [
    {
      "inputs": [
        {
          "internalType": "contract IEntryPoint",
          "name": "_entryPoint",
          "type": "address"
        }
      ],
      "stateMutability": "nonpayable",
      "type": "constructor"
    },
    {
      "anonymous": false,
      "inputs": [
        {
          "indexed": true,
          "internalType": "address",
          "name": "previousOwner",
          "type": "address"
        },
        {
          "indexed": true,
          "internalType": "address",
          "name": "newOwner",
          "type": "address"
        }
      ],
      "name": "OwnershipTransferred",
      "type": "event"
    },
    {
      "inputs": [
        {
          "internalType": "uint32",
          "name": "unstakeDelaySec",
          "type": "uint32"
        }
      ],
      "name": "addStake",
      "outputs": [],
      "stateMutability": "payable",
      "type": "function"
    },
    {
      "inputs": [],
      "name": "deposit",
      "outputs": [],
      "stateMutability": "payable",
      "type": "function"
    },
    {
      "inputs": [],
      "name": "entryPoint",
      "outputs": [
        {
          "internalType": "contract IEntryPoint",
          "name": "",
          "type": "address"
        }
      ],
      "stateMutability": "view",
      "type": "function"
    },
    {
      "inputs": [],
      "name": "getDeposit",
      "outputs": [
        {
          "internalType": "uint256",
          "name": "",
          "type": "uint256"
        }
      ],
      "stateMutability": "view",
      "type": "function"
    },
    {
      "inputs": [],
      "name": "owner",
      "outputs": [
        {
          "internalType": "address",
          "name": "",
          "type": "address"
        }
      ],
      "stateMutability": "view",
      "type": "function"
    },
    {
      "inputs": [
        {
          "internalType": "enum IPaymaster.PostOpMode",
          "name": "mode",
          "type": "uint8"
        },
        {
          "internalType": "bytes",
          "name": "context",
          "type": "bytes"
        },
        {
          "internalType": "uint256",
          "name": "actualGasCost",
          "type": "uint256"
        }
      ],
      "name": "postOp",
      "outputs": [],
      "stateMutability": "nonpayable",
      "type": "function"
    },
    {
      "inputs": [],
      "name": "renounceOwnership",
      "outputs": [],
      "stateMutability": "nonpayable",
      "type": "function"
    },
    {
      "inputs": [
        {
          "internalType": "contract IEntryPoint",
          "name": "_entryPoint",
          "type": "address"
        }
      ],
      "name": "setEntryPoint",
      "outputs": [],
      "stateMutability": "nonpayable",
      "type": "function"
    },
    {
      "inputs": [
        {
          "internalType": "address",
          "name": "newOwner",
          "type": "address"
        }
      ],
      "name": "transferOwnership",
      "outputs": [],
      "stateMutability": "nonpayable",
      "type": "function"
    },
    {
      "inputs": [],
      "name": "unlockStake",
      "outputs": [],
      "stateMutability": "nonpayable",
      "type": "function"
    },
    {
      "inputs": [
        {
          "components": [
            {
              "internalType": "address",
              "name": "sender",
              "type": "address"
            },
            {
              "internalType": "uint256",
              "name": "nonce",
              "type": "uint256"
            },
            {
              "internalType": "bytes",
              "name": "initCode",
              "type": "bytes"
            },
            {
              "internalType": "bytes",
              "name": "callData",
              "type": "bytes"
            },
            {
              "internalType": "uint256",
              "name": "callGasLimit",
              "type": "uint256"
            },
            {
              "internalType": "uint256",
              "name": "verificationGasLimit",
              "type": "uint256"
            },
            {
              "internalType": "uint256",
              "name": "preVerificationGas",
              "type": "uint256"
            },
            {
              "internalType": "uint256",
              "name": "maxFeePerGas",
              "type": "uint256"
            },
            {
              "internalType": "uint256",
              "name": "maxPriorityFeePerGas",
              "type": "uint256"
            },
            {
              "internalType": "bytes",
              "name": "paymasterAndData",
              "type": "bytes"
            },
            {
              "internalType": "bytes",
              "name": "signature",
              "type": "bytes"
            }
          ],
          "internalType": "struct UserOperation",
          "name": "userOp",
          "type": "tuple"
        },
        {
          "internalType": "bytes32",
          "name": "userOpHash",
          "type": "bytes32"
        },
        {
          "internalType": "uint256",
          "name": "maxCost",
          "type": "uint256"
        }
      ],
      "name": "validatePaymasterUserOp",
      "outputs": [
        {
          "internalType": "bytes",
          "name": "context",
          "type": "bytes"
        },
        {
          "internalType": "uint256",
          "name": "sigTimeRange",
          "type": "uint256"
        }
      ],
      "stateMutability": "view",
      "type": "function"
    },
    {
      "inputs": [
        {
          "internalType": "address payable",
          "name": "withdrawAddress",
          "type": "address"
        }
      ],
      "name": "withdrawStake",
      "outputs": [],
      "stateMutability": "nonpayable",
      "type": "function"
    },
    {
      "inputs": [
        {
          "internalType": "address payable",
          "name": "withdrawAddress",
          "type": "address"
        },
        {
          "internalType": "uint256",
          "name": "amount",
          "type": "uint256"
        }
      ],
      "name": "withdrawTo",
      "outputs": [],
      "stateMutability": "nonpayable",
      "type": "function"
    }
  ],
  "bytecode": "0x60806040523480156200001157600080fd5b5060405162001951380380620019518339818101604052810190620000379190620002b7565b80620000586200004c6200007160201b60201c565b6200007960201b60201c565b62000069816200013d60201b60201c565b50506200036c565b600033905090565b60008060009054906101000a900473ffffffffffffffffffffffffffffffffffffffff169050816000806101000a81548173ffffffffffffffffffffffffffffffffffffffff021916908373ffffffffffffffffffffffffffffffffffffffff1602179055508173ffffffffffffffffffffffffffffffffffffffff168173ffffffffffffffffffffffffffffffffffffffff167f8be0079c531659141344cd1fd0a4f28419497f9722a3daafe3b4186f6b6457e060405160405180910390a35050565b6200014d6200007160201b60201c565b73ffffffffffffffffffffffffffffffffffffffff16620001736200021060201b60201c565b73ffffffffffffffffffffffffffffffffffffffff1614620001cc576040517f08c379a0000000000000000000000000000000000000000000000000000000008152600401620001c3906200034a565b60405180910390fd5b80600160006101000a81548173ffffffffffffffffffffffffffffffffffffffff021916908373ffffffffffffffffffffffffffffffffffffffff16021790555050565b60008060009054906101000a900473ffffffffffffffffffffffffffffffffffffffff16905090565b600080fd5b600073ffffffffffffffffffffffffffffffffffffffff82169050919050565b60006200026b826200023e565b9050919050565b60006200027f826200025e565b9050919050565b620002918162000272565b81146200029d57600080fd5b50565b600081519050620002b18162000286565b92915050565b600060208284031215620002d057620002cf62000239565b5b6000620002e084828501620002a0565b91505092915050565b600082825260208201905092915050565b7f4f776e61626c653a2063616c6c6572206973206e6f7420746865206f776e6572600082015250565b600062000332602083620002e9565b91506200033f82620002fa565b602082019050919050565b60006020820190508181036000830152620003658162000323565b9050919050565b6115d5806200037c6000396000f3fe6080604052600436106100c25760003560e01c8063b0d691fe1161007f578063c399ec8811610059578063c399ec881461020b578063d0e30db014610236578063f2fde38b14610240578063f465c77e14610269576100c2565b8063b0d691fe146101a0578063bb9fe6bf146101cb578063c23a5cea146101e2576100c2565b80630396cb60146100c7578063205c2878146100e3578063584465f21461010c578063715018a6146101355780638da5cb5b1461014c578063a9a2340914610177575b600080fd5b6100e160048036038101906100dc9190610cf4565b6102a7565b005b3480156100ef57600080fd5b5061010a60048036038101906101059190610db5565b6103b4565b005b34801561011857600080fd5b50610133600480360381019061012e9190610e45565b6104c3565b005b34801561014157600080fd5b5061014a610583565b005b34801561015857600080fd5b5061016161060b565b60405161016e9190610e81565b60405180910390f35b34801561018357600080fd5b5061019e60048036038101906101999190610f26565b610634565b005b3480156101ac57600080fd5b506101b561064e565b6040516101c29190610ff9565b60405180910390f35b3480156101d757600080fd5b506101e0610674565b005b3480156101ee57600080fd5b5061020960048036038101906102049190611014565b610774565b005b34801561021757600080fd5b50610220610880565b60405161022d9190611050565b60405180910390f35b61023e610923565b005b34801561024c57600080fd5b5061026760048036038101906102629190611097565b6109b3565b005b34801561027557600080fd5b50610290600480360381019061028b919061111f565b610aab565b60405161029e929190611227565b60405180910390f35b6102af610b22565b73ffffffffffffffffffffffffffffffffffffffff166102cd61060b565b73ffffffffffffffffffffffffffffffffffffffff1614610323576040517f08c379a000000000000000000000000000000000000000000000000000000000815260040161031a906112b4565b60405180910390fd5b600160009054906101000a900473ffffffffffffffffffffffffffffffffffffffff1673ffffffffffffffffffffffffffffffffffffffff16630396cb6034836040518363ffffffff1660e01b815260040161037f91906112e3565b6000604051808303818588803b15801561039857600080fd5b505af11580156103ac573d6000803e3d6000fd5b505050505050565b6103bc610b22565b73ffffffffffffffffffffffffffffffffffffffff166103da61060b565b73ffffffffffffffffffffffffffffffffffffffff1614610430576040517f08c379a0000000000000000000000000000000000000000000000000000000008152600401610427906112b4565b60405180910390fd5b600160009054906101000a900473ffffffffffffffffffffffffffffffffffffffff1673ffffffffffffffffffffffffffffffffffffffff1663205c287883836040518363ffffffff1660e01b815260040161048d92919061130d565b600060405180830381600087803b1580156104a757600080fd5b505af11580156104bb573d6000803e3d6000fd5b505050505050565b6104cb610b22565b73ffffffffffffffffffffffffffffffffffffffff166104e961060b565b73ffffffffffffffffffffffffffffffffffffffff161461053f576040517f08c379a0000000000000000000000000000000000000000000000000000000008152600401610536906112b4565b60405180910390fd5b80600160006101000a81548173ffffffffffffffffffffffffffffffffffffffff021916908373ffffffffffffffffffffffffffffffffffffffff16021790555050565b61058b610b22565b73ffffffffffffffffffffffffffffffffffffffff166105a961060b565b73ffffffffffffffffffffffffffffffffffffffff16146105ff576040517f08c379a00000000000000000000000000000000000000000000000000000000081526004016105f6906112b4565b60405180910390fd5b6106096000610b2a565b565b60008060009054906101000a900473ffffffffffffffffffffffffffffffffffffffff16905090565b61063c610bee565b61064884848484610c4a565b50505050565b600160009054906101000a900473ffffffffffffffffffffffffffffffffffffffff1681565b61067c610b22565b73ffffffffffffffffffffffffffffffffffffffff1661069a61060b565b73ffffffffffffffffffffffffffffffffffffffff16146106f0576040517f08c379a00000000000000000000000000000000000000000000000000000000081526004016106e7906112b4565b60405180910390fd5b600160009054906101000a900473ffffffffffffffffffffffffffffffffffffffff1673ffffffffffffffffffffffffffffffffffffffff1663bb9fe6bf6040518163ffffffff1660e01b8152600401600060405180830381600087803b15801561075a57600080fd5b505af115801561076e573d6000803e3d6000fd5b50505050565b61077c610b22565b73ffffffffffffffffffffffffffffffffffffffff1661079a61060b565b73ffffffffffffffffffffffffffffffffffffffff16146107f0576040517f08c379a00000000000000000000000000000000000000000000000000000000081526004016107e7906112b4565b60405180910390fd5b600160009054906101000a900473ffffffffffffffffffffffffffffffffffffffff1673ffffffffffffffffffffffffffffffffffffffff1663c23a5cea826040518263ffffffff1660e01b815260040161084b9190611336565b600060405180830381600087803b15801561086557600080fd5b505af1158015610879573d6000803e3d6000fd5b5050505050565b6000600160009054906101000a900473ffffffffffffffffffffffffffffffffffffffff1673ffffffffffffffffffffffffffffffffffffffff166370a08231306040518263ffffffff1660e01b81526004016108dd9190610e81565b602060405180830381865afa1580156108fa573d6000803e3d6000fd5b505050506040513d601f19601f8201168201806040525081019061091e9190611366565b905090565b600160009054906101000a900473ffffffffffffffffffffffffffffffffffffffff1673ffffffffffffffffffffffffffffffffffffffff1663b760faf934306040518363ffffffff1660e01b815260040161097f9190610e81565b6000604051808303818588803b15801561099857600080fd5b505af11580156109ac573d6000803e3d6000fd5b5050505050565b6109bb610b22565b73ffffffffffffffffffffffffffffffffffffffff166109d961060b565b73ffffffffffffffffffffffffffffffffffffffff1614610a2f576040517f08c379a0000000000000000000000000000000000000000000000000000000008152600401610a26906112b4565b60405180910390fd5b600073ffffffffffffffffffffffffffffffffffffffff168173ffffffffffffffffffffffffffffffffffffffff161415610a9f576040517f08c379a0000000000000000000000000000000000000000000000000000000008152600401610a9690611405565b60405180910390fd5b610aa881610b2a565b50565b60606000808086806101200190610ac29190611434565b6014908092610ad3939291906114a1565b810190610ae0919061151c565b91509150610b0460008267ffffffffffffffff168467ffffffffffffffff16610c85565b92506040518060200160405280600081525093505050935093915050565b600033905090565b60008060009054906101000a900473ffffffffffffffffffffffffffffffffffffffff169050816000806101000a81548173ffffffffffffffffffffffffffffffffffffffff021916908373ffffffffffffffffffffffffffffffffffffffff1602179055508173ffffffffffffffffffffffffffffffffffffffff168173ffffffffffffffffffffffffffffffffffffffff167f8be0079c531659141344cd1fd0a4f28419497f9722a3daafe3b4186f6b6457e060405160405180910390a35050565b600160009054906101000a900473ffffffffffffffffffffffffffffffffffffffff1673ffffffffffffffffffffffffffffffffffffffff163373ffffffffffffffffffffffffffffffffffffffff1614610c4857600080fd5b565b6040517f08c379a0000000000000000000000000000000000000000000000000000000008152600401610c7c906115a8565b60405180910390fd5b6000604882901b600884901b85610c9d576000610ca0565b60015b60ff16171790509392505050565b600080fd5b600080fd5b600063ffffffff82169050919050565b610cd181610cb8565b8114610cdc57600080fd5b50565b600081359050610cee81610cc8565b92915050565b600060208284031215610d0a57610d09610cae565b5b6000610d1884828501610cdf565b91505092915050565b600073ffffffffffffffffffffffffffffffffffffffff82169050919050565b6000610d4c82610d21565b9050919050565b610d5c81610d41565b8114610d6757600080fd5b50565b600081359050610d7981610d53565b92915050565b6000819050919050565b610d9281610d7f565b8114610d9d57600080fd5b50565b600081359050610daf81610d89565b92915050565b60008060408385031215610dcc57610dcb610cae565b5b6000610dda85828601610d6a565b9250506020610deb85828601610da0565b9150509250929050565b6000610e0082610d21565b9050919050565b6000610e1282610df5565b9050919050565b610e2281610e07565b8114610e2d57600080fd5b50565b600081359050610e3f81610e19565b92915050565b600060208284031215610e5b57610e5a610cae565b5b6000610e6984828501610e30565b91505092915050565b610e7b81610df5565b82525050565b6000602082019050610e966000830184610e72565b92915050565b60038110610ea957600080fd5b50565b600081359050610ebb81610e9c565b92915050565b600080fd5b600080fd5b600080fd5b60008083601f840112610ee657610ee5610ec1565b5b8235905067ffffffffffffffff811115610f0357610f02610ec6565b5b602083019150836001820283011115610f1f57610f1e610ecb565b5b9250929050565b60008060008060608587031215610f4057610f3f610cae565b5b6000610f4e87828801610eac565b945050602085013567ffffffffffffffff811115610f6f57610f6e610cb3565b5b610f7b87828801610ed0565b93509350506040610f8e87828801610da0565b91505092959194509250565b6000819050919050565b6000610fbf610fba610fb584610d21565b610f9a565b610d21565b9050919050565b6000610fd182610fa4565b9050919050565b6000610fe382610fc6565b9050919050565b610ff381610fd8565b82525050565b600060208201905061100e6000830184610fea565b92915050565b60006020828403121561102a57611029610cae565b5b600061103884828501610d6a565b91505092915050565b61104a81610d7f565b82525050565b60006020820190506110656000830184611041565b92915050565b61107481610df5565b811461107f57600080fd5b50565b6000813590506110918161106b565b92915050565b6000602082840312156110ad576110ac610cae565b5b60006110bb84828501611082565b91505092915050565b600080fd5b600061016082840312156110e0576110df6110c4565b5b81905092915050565b6000819050919050565b6110fc816110e9565b811461110757600080fd5b50565b600081359050611119816110f3565b92915050565b60008060006060848603121561113857611137610cae565b5b600084013567ffffffffffffffff81111561115657611155610cb3565b5b611162868287016110c9565b93505060206111738682870161110a565b925050604061118486828701610da0565b9150509250925092565b600081519050919050565b600082825260208201905092915050565b60005b838110156111c85780820151818401526020810190506111ad565b838111156111d7576000848401525b50505050565b6000601f19601f8301169050919050565b60006111f98261118e565b6112038185611199565b93506112138185602086016111aa565b61121c816111dd565b840191505092915050565b6000604082019050818103600083015261124181856111ee565b90506112506020830184611041565b9392505050565b600082825260208201905092915050565b7f4f776e61626c653a2063616c6c6572206973206e6f7420746865206f776e6572600082015250565b600061129e602083611257565b91506112a982611268565b602082019050919050565b600060208201905081810360008301526112cd81611291565b9050919050565b6112dd81610cb8565b82525050565b60006020820190506112f860008301846112d4565b92915050565b61130781610d41565b82525050565b600060408201905061132260008301856112fe565b61132f6020830184611041565b9392505050565b600060208201905061134b60008301846112fe565b92915050565b60008151905061136081610d89565b92915050565b60006020828403121561137c5761137b610cae565b5b600061138a84828501611351565b91505092915050565b7f4f776e61626c653a206e6577206f776e657220697320746865207a65726f206160008201527f6464726573730000000000000000000000000000000000000000000000000000602082015250565b60006113ef602683611257565b91506113fa82611393565b604082019050919050565b6000602082019050818103600083015261141e816113e2565b9050919050565b600080fd5b600080fd5b600080fd5b6000808335600160200384360303811261145157611450611425565b5b80840192508235915067ffffffffffffffff8211156114735761147261142a565b5b60208301925060018202360383131561148f5761148e61142f565b5b509250929050565b600080fd5b600080fd5b600080858511156114b5576114b4611497565b5b838611156114c6576114c561149c565b5b6001850283019150848603905094509492505050565b600067ffffffffffffffff82169050919050565b6114f9816114dc565b811461150457600080fd5b50565b600081359050611516816114f0565b92915050565b6000806040838503121561153357611532610cae565b5b600061154185828601611507565b925050602061155285828601611507565b9150509250929050565b7f6d757374206f7665727269646500000000000000000000000000000000000000600082015250565b6000611592600d83611257565b915061159d8261155c565b602082019050919050565b600060208201905081810360008301526115c181611585565b905091905056fea164736f6c634300080c000a",
  "linkReferences": {},
  "deployedLinkReferences": {}
}