{
  "_format": "hh-sol-artifact-1",
  "contractName": "TypedMemView",
  "sourceName": "@connext/nxtp-contracts/contracts/shared/libraries/TypedMemView.sol",
  "abi": [
    {
      "inputs": [
        {
          "internalType": "uint256",
          "name": "actual",
          "type": "uint256"
        },
        {
          "internalType": "uint256",
          "name": "expected",
          "type": "uint256"
        }
      ],
      "name": "TypedMemView__assertType_typeAssertionFailed",
      "type": "error"
    },
    {
      "inputs": [],
      "name": "TypedMemView__assertValid_validityAssertionFailed",
      "type": "error"
    },
    {
      "inputs": [],
      "name": "TypedMemView__index_indexMoreThan32Bytes",
      "type": "error"
    },
    {
      "inputs": [
        {
          "internalType": "uint256",
          "name": "loc",
          "type": "uint256"
        },
        {
          "internalType": "uint256",
          "name": "len",
          "type": "uint256"
        },
        {
          "internalType": "uint256",
          "name": "index",
          "type": "uint256"
        },
        {
          "internalType": "uint256",
          "name": "slice",
          "type": "uint256"
        }
      ],
      "name": "TypedMemView__index_overrun",
      "type": "error"
    },
    {
      "inputs": [],
      "name": "TypedMemView__unsafeCopyTo_identityOOG",
      "type": "error"
    },
    {
      "inputs": [],
      "name": "TypedMemView__unsafeCopyTo_invalidPointer",
      "type": "error"
    },
    {
      "inputs": [],
      "name": "TypedMemView__unsafeCopyTo_nullPointer",
      "type": "error"
    },
    {
      "inputs": [],
      "name": "NULL",
      "outputs": [
        {
          "internalType": "bytes29",
          "name": "",
          "type": "bytes29"
        }
      ],
      "stateMutability": "view",
      "type": "function"
    }
  ],
  "bytecode": "0x60fe610052600b82828239805160001a607314610045577f4e487b7100000000000000000000000000000000000000000000000000000000600052600060045260246000fd5b30600052607381538281f3fe730000000000000000000000000000000000000000301460806040526004361060335760003560e01c8063f26be3fc146038575b600080fd5b603e6052565b6040516049919060af565b60405180910390f35b7fffffffffffffffffffffffffffffffffffffffffffffffffffffffffff00000081565b60007fffffffffffffffffffffffffffffffffffffffffffffffffffffffffff00000082169050919050565b60a9816076565b82525050565b600060208201905060c2600083018460a2565b9291505056fea2646970667358221220b4c6d51394dd56dea414ace3c64f6f6657812e662d881bbae525d54dbb571f8364736f6c63430008110033",
  "linkReferences": {},
  "deployedLinkReferences": {}
}