{
  "_format": "hh-sol-artifact-1",
  "contractName": "Version",
  "sourceName": "@connext/nxtp-contracts/contracts/core/shared/Version.sol",
  "abi": [
    {
      "inputs": [],
      "name": "VERSION",
      "outputs": [
        {
          "internalType": "uint8",
          "name": "",
          "type": "uint8"
        }
      ],
      "stateMutability": "view",
      "type": "function"
    }
  ],
  "bytecode": "0x608060405234801561001057600080fd5b50608c8061001f6000396000f3fe6080604052348015600f57600080fd5b506004361060285760003560e01c8063ffa1ad7414602d575b600080fd5b60336047565b604051603e91906066565b60405180910390f35b600081565b600060ff82169050919050565b606081604c565b82525050565b6000602082019050607960008301846059565b9291505056fea164736f6c634300080f000a",
  "linkReferences": {},
  "deployedLinkReferences": {}
}