{
  "_format": "hh-sol-artifact-1",
  "contractName": "Version0",
  "sourceName": "@connext/nxtp-contracts/contracts/nomad-core/contracts/Version0.sol",
  "abi": [
    {
      "inputs": [],
      "name": "VERSION",
      "outputs": [
        {
          "internalType": "uint8",
          "name": "",
          "type": "uint8"
        }
      ],
      "stateMutability": "view",
      "type": "function"
    }
  ],
  "bytecode": "0x6080604052348015600f57600080fd5b50605780601d6000396000f3fe6080604052348015600f57600080fd5b506004361060285760003560e01c8063ffa1ad7414602d575b600080fd5b6034600081565b60405160ff909116815260200160405180910390f3fea164736f6c634300080f000a",
  "deployedBytecode": "0x6080604052348015600f57600080fd5b506004361060285760003560e01c8063ffa1ad7414602d575b600080fd5b6034600081565b60405160ff909116815260200160405180910390f3fea164736f6c634300080f000a",
  "linkReferences": {},
  "deployedLinkReferences": {}
}