{
  "_format": "hh-sol-artifact-1",
  "contractName": "WrappedWeiToken",
  "sourceName": "src/tokens/WrappedWeiToken.sol",
  "abi": [
    {
      "inputs": [],
      "stateMutability": "nonpayable",
      "type": "constructor"
    },
    {
      "anonymous": false,
      "inputs": [
        {
          "indexed": true,
          "internalType": "address",
          "name": "owner",
          "type": "address"
        },
        {
          "indexed": true,
          "internalType": "address",
          "name": "spender",
          "type": "address"
        },
        {
          "indexed": false,
          "internalType": "uint256",
          "name": "value",
          "type": "uint256"
        }
      ],
      "name": "Approval",
      "type": "event"
    },
    {
      "anonymous": false,
      "inputs": [
        {
          "indexed": false,
          "internalType": "address",
          "name": "consumer",
          "type": "address"
        }
      ],
      "name": "ConsumerAdded",
      "type": "event"
    },
    {
      "anonymous": false,
      "inputs": [
        {
          "indexed": false,
          "internalType": "address",
          "name": "consumer",
          "type": "address"
        }
      ],
      "name": "ConsumerRemoved",
      "type": "event"
    },
    {
      "anonymous": false,
      "inputs": [
        {
          "indexed": false,
          "internalType": "address",
          "name": "initializer",
          "type": "address"
        }
      ],
      "name": "Initialized",
      "type": "event"
    },
    {
      "anonymous": false,
      "inputs": [
        {
          "indexed": true,
          "internalType": "address",
          "name": "from",
          "type": "address"
        },
        {
          "indexed": true,
          "internalType": "address",
          "name": "to",
          "type": "address"
        },
        {
          "indexed": false,
          "internalType": "uint256",
          "name": "value",
          "type": "uint256"
        }
      ],
      "name": "Transfer",
      "type": "event"
    },
    {
      "inputs": [
        {
          "internalType": "address",
          "name": "owner",
          "type": "address"
        },
        {
          "internalType": "address",
          "name": "spender",
          "type": "address"
        }
      ],
      "name": "allowance",
      "outputs": [
        {
          "internalType": "uint256",
          "name": "",
          "type": "uint256"
        }
      ],
      "stateMutability": "view",
      "type": "function"
    },
    {
      "inputs": [
        {
          "internalType": "address",
          "name": "spender",
          "type": "address"
        },
        {
          "internalType": "uint256",
          "name": "value",
          "type": "uint256"
        }
      ],
      "name": "approve",
      "outputs": [
        {
          "internalType": "bool",
          "name": "",
          "type": "bool"
        }
      ],
      "stateMutability": "nonpayable",
      "type": "function"
    },
    {
      "inputs": [
        {
          "internalType": "address",
          "name": "owner",
          "type": "address"
        }
      ],
      "name": "balanceOf",
      "outputs": [
        {
          "internalType": "uint256",
          "name": "",
          "type": "uint256"
        }
      ],
      "stateMutability": "view",
      "type": "function"
    },
    {
      "inputs": [
        {
          "internalType": "bytes8",
          "name": "c__230891fc",
          "type": "bytes8"
        }
      ],
      "name": "c_230891fc",
      "outputs": [],
      "stateMutability": "pure",
      "type": "function"
    },
    {
      "inputs": [
        {
          "internalType": "bytes8",
          "name": "c__5838cc23",
          "type": "bytes8"
        }
      ],
      "name": "c_5838cc23",
      "outputs": [],
      "stateMutability": "pure",
      "type": "function"
    },
    {
      "inputs": [
        {
          "internalType": "bytes8",
          "name": "c__c0828b70",
          "type": "bytes8"
        }
      ],
      "name": "c_c0828b70",
      "outputs": [],
      "stateMutability": "pure",
      "type": "function"
    },
    {
      "inputs": [
        {
          "internalType": "bytes8",
          "name": "c__d5c463c2",
          "type": "bytes8"
        }
      ],
      "name": "c_d5c463c2",
      "outputs": [],
      "stateMutability": "pure",
      "type": "function"
    },
    {
      "inputs": [
        {
          "internalType": "bytes8",
          "name": "c__230891fc",
          "type": "bytes8"
        }
      ],
      "name": "c_false230891fc",
      "outputs": [
        {
          "internalType": "bool",
          "name": "",
          "type": "bool"
        }
      ],
      "stateMutability": "pure",
      "type": "function"
    },
    {
      "inputs": [
        {
          "internalType": "bytes8",
          "name": "c__5838cc23",
          "type": "bytes8"
        }
      ],
      "name": "c_false5838cc23",
      "outputs": [
        {
          "internalType": "bool",
          "name": "",
          "type": "bool"
        }
      ],
      "stateMutability": "pure",
      "type": "function"
    },
    {
      "inputs": [
        {
          "internalType": "bytes8",
          "name": "c__c0828b70",
          "type": "bytes8"
        }
      ],
      "name": "c_falsec0828b70",
      "outputs": [
        {
          "internalType": "bool",
          "name": "",
          "type": "bool"
        }
      ],
      "stateMutability": "pure",
      "type": "function"
    },
    {
      "inputs": [
        {
          "internalType": "bytes8",
          "name": "c__d5c463c2",
          "type": "bytes8"
        }
      ],
      "name": "c_falsed5c463c2",
      "outputs": [
        {
          "internalType": "bool",
          "name": "",
          "type": "bool"
        }
      ],
      "stateMutability": "pure",
      "type": "function"
    },
    {
      "inputs": [
        {
          "internalType": "bytes8",
          "name": "c__230891fc",
          "type": "bytes8"
        }
      ],
      "name": "c_true230891fc",
      "outputs": [
        {
          "internalType": "bool",
          "name": "",
          "type": "bool"
        }
      ],
      "stateMutability": "pure",
      "type": "function"
    },
    {
      "inputs": [
        {
          "internalType": "bytes8",
          "name": "c__5838cc23",
          "type": "bytes8"
        }
      ],
      "name": "c_true5838cc23",
      "outputs": [
        {
          "internalType": "bool",
          "name": "",
          "type": "bool"
        }
      ],
      "stateMutability": "pure",
      "type": "function"
    },
    {
      "inputs": [
        {
          "internalType": "bytes8",
          "name": "c__c0828b70",
          "type": "bytes8"
        }
      ],
      "name": "c_truec0828b70",
      "outputs": [
        {
          "internalType": "bool",
          "name": "",
          "type": "bool"
        }
      ],
      "stateMutability": "pure",
      "type": "function"
    },
    {
      "inputs": [
        {
          "internalType": "bytes8",
          "name": "c__d5c463c2",
          "type": "bytes8"
        }
      ],
      "name": "c_trued5c463c2",
      "outputs": [
        {
          "internalType": "bool",
          "name": "",
          "type": "bool"
        }
      ],
      "stateMutability": "pure",
      "type": "function"
    },
    {
      "inputs": [],
      "name": "decimals",
      "outputs": [
        {
          "internalType": "uint8",
          "name": "",
          "type": "uint8"
        }
      ],
      "stateMutability": "view",
      "type": "function"
    },
    {
      "inputs": [
        {
          "internalType": "address",
          "name": "to",
          "type": "address"
        }
      ],
      "name": "depositTo",
      "outputs": [],
      "stateMutability": "payable",
      "type": "function"
    },
    {
      "inputs": [],
      "name": "gateway",
      "outputs": [
        {
          "internalType": "address",
          "name": "",
          "type": "address"
        }
      ],
      "stateMutability": "view",
      "type": "function"
    },
    {
      "inputs": [
        {
          "internalType": "address[]",
          "name": "consumers_",
          "type": "address[]"
        },
        {
          "internalType": "address",
          "name": "gateway_",
          "type": "address"
        }
      ],
      "name": "initialize",
      "outputs": [],
      "stateMutability": "nonpayable",
      "type": "function"
    },
    {
      "inputs": [
        {
          "internalType": "address",
          "name": "consumer",
          "type": "address"
        }
      ],
      "name": "isConsumer",
      "outputs": [
        {
          "internalType": "bool",
          "name": "",
          "type": "bool"
        }
      ],
      "stateMutability": "view",
      "type": "function"
    },
    {
      "inputs": [],
      "name": "isInitialized",
      "outputs": [
        {
          "internalType": "bool",
          "name": "",
          "type": "bool"
        }
      ],
      "stateMutability": "view",
      "type": "function"
    },
    {
      "inputs": [],
      "name": "name",
      "outputs": [
        {
          "internalType": "string",
          "name": "",
          "type": "string"
        }
      ],
      "stateMutability": "view",
      "type": "function"
    },
    {
      "inputs": [],
      "name": "startConsuming",
      "outputs": [],
      "stateMutability": "nonpayable",
      "type": "function"
    },
    {
      "inputs": [],
      "name": "stopConsuming",
      "outputs": [],
      "stateMutability": "nonpayable",
      "type": "function"
    },
    {
      "inputs": [],
      "name": "symbol",
      "outputs": [
        {
          "internalType": "string",
          "name": "",
          "type": "string"
        }
      ],
      "stateMutability": "view",
      "type": "function"
    },
    {
      "inputs": [],
      "name": "totalSupply",
      "outputs": [
        {
          "internalType": "uint256",
          "name": "",
          "type": "uint256"
        }
      ],
      "stateMutability": "view",
      "type": "function"
    },
    {
      "inputs": [
        {
          "internalType": "address",
          "name": "to",
          "type": "address"
        },
        {
          "internalType": "uint256",
          "name": "value",
          "type": "uint256"
        }
      ],
      "name": "transfer",
      "outputs": [
        {
          "internalType": "bool",
          "name": "",
          "type": "bool"
        }
      ],
      "stateMutability": "nonpayable",
      "type": "function"
    },
    {
      "inputs": [
        {
          "internalType": "address",
          "name": "from",
          "type": "address"
        },
        {
          "internalType": "address",
          "name": "to",
          "type": "address"
        },
        {
          "internalType": "uint256",
          "name": "value",
          "type": "uint256"
        }
      ],
      "name": "transferFrom",
      "outputs": [
        {
          "internalType": "bool",
          "name": "",
          "type": "bool"
        }
      ],
      "stateMutability": "nonpayable",
      "type": "function"
    },
    {
      "inputs": [
        {
          "internalType": "uint256",
          "name": "value",
          "type": "uint256"
        }
      ],
      "name": "withdraw",
      "outputs": [],
      "stateMutability": "nonpayable",
      "type": "function"
    },
    {
      "inputs": [],
      "name": "withdrawAll",
      "outputs": [],
      "stateMutability": "nonpayable",
      "type": "function"
    },
    {
      "inputs": [
        {
          "internalType": "address",
          "name": "to",
          "type": "address"
        }
      ],
      "name": "withdrawAllTo",
      "outputs": [],
      "stateMutability": "nonpayable",
      "type": "function"
    },
    {
      "inputs": [
        {
          "internalType": "address",
          "name": "to",
          "type": "address"
        },
        {
          "internalType": "uint256",
          "name": "value",
          "type": "uint256"
        }
      ],
      "name": "withdrawTo",
      "outputs": [],
      "stateMutability": "nonpayable",
      "type": "function"
    },
    {
      "stateMutability": "payable",
      "type": "receive"
    }
  ],
  "bytecode": "0x60806040523480156200001157600080fd5b506200002e676dfe6291193cb09c60c01b620001b860201b60201c565b6200004a67e53a0351407a575160c01b620001b860201b60201c565b326000806101000a81548173ffffffffffffffffffffffffffffffffffffffff021916908373ffffffffffffffffffffffffffffffffffffffff160217905550620000a667406061a8cbccf67160c01b620001bb60201b60201c565b620000c2679c44b4ea1e8a0c2d60c01b620001be60201b60201c565b620000de67dd598fd3b2e87a2160c01b620001c160201b60201c565b620000fa6779273f150d0feb3560c01b620001c160201b60201c565b6040518060400160405280600b81526020017f57726170706564205765690000000000000000000000000000000000000000008152506001908051906020019062000147929190620001c4565b5062000164674de011b911fb8c1a60c01b620001c160201b60201c565b6040518060400160405280600481526020017f575745490000000000000000000000000000000000000000000000000000000081525060029080519060200190620001b1929190620001c4565b506200026a565b50565b50565b50565b50565b828054600181600116156101000203166002900490600052602060002090601f016020900481019282601f106200020757805160ff191683800117855562000238565b8280016001018555821562000238579182015b82811115620002375782518255916020019190600101906200021a565b5b5090506200024791906200024b565b5090565b5b80821115620002665760008160009055506001016200024c565b5090565b6137fd806200027a6000396000f3fe6080604052600436106101e75760003560e01c8063462d0b2e11610102578063b760faf911610095578063d4aae83411610064578063d4aae83414610c33578063dd62ed3e14610c89578063ee2c757e14610d0e578063f55647e014610d7a57610213565b8063b760faf914610adc578063c369d5fe14610b20578063ca9add8f14610b8c578063ca9b3ac414610bdd57610213565b8063853828b6116100d1578063853828b61461095857806385ad59e31461096f57806395d89b41146109db578063a9059cbb14610a6b57610213565b8063462d0b2e146107cf57806356a3b64b1461087557806370a082311461088c578063834ff739146108f157610213565b8063205c28781161017a5780632e1a7d4d116101495780632e1a7d4d146106cd5780632e6afd6e14610708578063313ce56714610774578063392e53cd146107a257610213565b8063205c28781461050957806321a5f5da1461056457806323b872dd146105d057806326a9683f1461066157610213565b80631262ed1c116101b65780631262ed1c146103b0578063181216461461041c57806318160ddd146104725780631bb5c2981461049d57610213565b806306fdde0314610218578063095ea7b3146102a85780630c4b1a1714610319578063116191b61461036f57610213565b36610213576102006740017012365119b560c01b610d91565b61021161020b610d94565b34610ddf565b005b600080fd5b34801561022457600080fd5b5061022d6110f9565b6040518080602001828103825283818151815260200191508051906020019080838360005b8381101561026d578082015181840152602081019050610252565b50505050905090810190601f16801561029a5780820380516001836020036101000a031916815260200191505b509250505060405180910390f35b3480156102b457600080fd5b50610301600480360360408110156102cb57600080fd5b81019080803573ffffffffffffffffffffffffffffffffffffffff16906020019092919080359060200190929190505050611197565b60405180821515815260200191505060405180910390f35b34801561032557600080fd5b5061036d6004803603602081101561033c57600080fd5b81019080803577ffffffffffffffffffffffffffffffffffffffffffffffff19169060200190929190505050611219565b005b34801561037b57600080fd5b5061038461121c565b604051808273ffffffffffffffffffffffffffffffffffffffff16815260200191505060405180910390f35b3480156103bc57600080fd5b50610404600480360360208110156103d357600080fd5b81019080803577ffffffffffffffffffffffffffffffffffffffffffffffff19169060200190929190505050611242565b60405180821515815260200191505060405180910390f35b34801561042857600080fd5b506104706004803603602081101561043f57600080fd5b81019080803577ffffffffffffffffffffffffffffffffffffffffffffffff1916906020019092919050505061124d565b005b34801561047e57600080fd5b50610487611250565b6040518082815260200191505060405180910390f35b3480156104a957600080fd5b506104f1600480360360208110156104c057600080fd5b81019080803577ffffffffffffffffffffffffffffffffffffffffffffffff19169060200190929190505050611256565b60405180821515815260200191505060405180910390f35b34801561051557600080fd5b506105626004803603604081101561052c57600080fd5b81019080803573ffffffffffffffffffffffffffffffffffffffff16906020019092919080359060200190929190505050611261565b005b34801561057057600080fd5b506105b86004803603602081101561058757600080fd5b81019080803577ffffffffffffffffffffffffffffffffffffffffffffffff191690602001909291905050506112b3565b60405180821515815260200191505060405180910390f35b3480156105dc57600080fd5b50610649600480360360608110156105f357600080fd5b81019080803573ffffffffffffffffffffffffffffffffffffffff169060200190929190803573ffffffffffffffffffffffffffffffffffffffff169060200190929190803590602001909291905050506112be565b60405180821515815260200191505060405180910390f35b34801561066d57600080fd5b506106b56004803603602081101561068457600080fd5b81019080803577ffffffffffffffffffffffffffffffffffffffffffffffff19169060200190929190505050611430565b60405180821515815260200191505060405180910390f35b3480156106d957600080fd5b50610706600480360360208110156106f057600080fd5b8101908080359060200190929190505050611437565b005b34801561071457600080fd5b5061075c6004803603602081101561072b57600080fd5b81019080803577ffffffffffffffffffffffffffffffffffffffffffffffff1916906020019092919050505061148f565b60405180821515815260200191505060405180910390f35b34801561078057600080fd5b50610789611496565b604051808260ff16815260200191505060405180910390f35b3480156107ae57600080fd5b506107b76114a9565b60405180821515815260200191505060405180910390f35b3480156107db57600080fd5b50610873600480360360408110156107f257600080fd5b810190808035906020019064010000000081111561080f57600080fd5b82018360208201111561082157600080fd5b8035906020019184602083028401116401000000008311171561084357600080fd5b9091929391929390803573ffffffffffffffffffffffffffffffffffffffff16906020019092919050505061153b565b005b34801561088157600080fd5b5061088a6118bf565b005b34801561089857600080fd5b506108db600480360360208110156108af57600080fd5b81019080803573ffffffffffffffffffffffffffffffffffffffff16906020019092919050505061190d565b6040518082815260200191505060405180910390f35b3480156108fd57600080fd5b506109406004803603602081101561091457600080fd5b81019080803573ffffffffffffffffffffffffffffffffffffffff169060200190929190505050611992565b60405180821515815260200191505060405180910390f35b34801561096457600080fd5b5061096d611a24565b005b34801561097b57600080fd5b506109c36004803603602081101561099257600080fd5b81019080803577ffffffffffffffffffffffffffffffffffffffffffffffff19169060200190929190505050611ae1565b60405180821515815260200191505060405180910390f35b3480156109e757600080fd5b506109f0611aec565b6040518080602001828103825283818151815260200191508051906020019080838360005b83811015610a30578082015181840152602081019050610a15565b50505050905090810190601f168015610a5d5780820380516001836020036101000a031916815260200191505b509250505060405180910390f35b348015610a7757600080fd5b50610ac460048036036040811015610a8e57600080fd5b81019080803573ffffffffffffffffffffffffffffffffffffffff16906020019092919080359060200190929190505050611b8a565b60405180821515815260200191505060405180910390f35b610b1e60048036036020811015610af257600080fd5b81019080803573ffffffffffffffffffffffffffffffffffffffff169060200190929190505050611c0c565b005b348015610b2c57600080fd5b50610b7460048036036020811015610b4357600080fd5b81019080803577ffffffffffffffffffffffffffffffffffffffffffffffff19169060200190929190505050611c55565b60405180821515815260200191505060405180910390f35b348015610b9857600080fd5b50610bdb60048036036020811015610baf57600080fd5b81019080803573ffffffffffffffffffffffffffffffffffffffff169060200190929190505050611c5c565b005b348015610be957600080fd5b50610c3160048036036020811015610c0057600080fd5b81019080803577ffffffffffffffffffffffffffffffffffffffffffffffff19169060200190929190505050611d1a565b005b348015610c3f57600080fd5b50610c8760048036036020811015610c5657600080fd5b81019080803577ffffffffffffffffffffffffffffffffffffffffffffffff19169060200190929190505050610d91565b005b348015610c9557600080fd5b50610cf860048036036040811015610cac57600080fd5b81019080803573ffffffffffffffffffffffffffffffffffffffff169060200190929190803573ffffffffffffffffffffffffffffffffffffffff169060200190929190505050611d1d565b6040518082815260200191505060405180910390f35b348015610d1a57600080fd5b50610d6260048036036020811015610d3157600080fd5b81019080803577ffffffffffffffffffffffffffffffffffffffffffffffff19169060200190929190505050611de0565b60405180821515815260200191505060405180910390f35b348015610d8657600080fd5b50610d8f611de7565b005b50565b6000610daa670d1f7621b9338a2b60c01b610d91565b610dbe67cbed8c249726d55c60c01b610d91565b610dd267ce8111824a303d4660c01b610d91565b610dda612005565b905090565b610df3676c3d7019f8bedabd60c01b611d1a565b610e07670ad0524239d5012760c01b611d1a565b610e1b67fd4c3622cc37b97660c01b611d1a565b610e2f67813cede33cf6607b60c01b611d1a565b600073ffffffffffffffffffffffffffffffffffffffff168273ffffffffffffffffffffffffffffffffffffffff161415610eb5576040517f08c379a00000000000000000000000000000000000000000000000000000000081526004018080602001828103825260268152602001806137036026913960400191505060405180910390fd5b610ec9674cc252e9bb01ed5960c01b611d1a565b610edd677ecf7e365f04cff760c01b611d1a565b610ef1671b27fd3b053abf0160c01b611d1a565b610f056722833b1075dbc0df60c01b611d1a565b60008111610f7b576040517f08c379a000000000000000000000000000000000000000000000000000000000815260040180806020018281038252601f8152602001807f4552433230546f6b656e3a2063616e6e6f74206d696e7420302076616c75650081525060200191505060405180910390fd5b610f8f67f4cdd15cf01f877560c01b611d1a565b610fa367e7e172fbe7d3833060c01b611d1a565b610ff581600560008573ffffffffffffffffffffffffffffffffffffffff1673ffffffffffffffffffffffffffffffffffffffff1681526020019081526020016000205461205290919063ffffffff16565b600560008473ffffffffffffffffffffffffffffffffffffffff1673ffffffffffffffffffffffffffffffffffffffff1681526020019081526020016000208190555061104c67117fc6a612484f0e60c01b611d1a565b6110618160045461205290919063ffffffff16565b60048190555061107b673f9aded154d0ecf060c01b611d1a565b61108f67e0e52a88ad300e5860c01b611d1a565b8173ffffffffffffffffffffffffffffffffffffffff16600073ffffffffffffffffffffffffffffffffffffffff167fddf252ad1be2c89b69c2b068fc378daa952ba7f163c4a11628f55a4df523b3ef836040518082815260200191505060405180910390a35050565b60018054600181600116156101000203166002900480601f01602080910402602001604051908101604052809291908181526020018280546001816001161561010002031660029004801561118f5780601f106111645761010080835404028352916020019161118f565b820191906000526020600020905b81548152906001019060200180831161117257829003601f168201915b505050505081565b60006111ad6781aaaead8a2eb43360c01b611d1a565b6111c167b719f0ceb5145f7760c01b611d1a565b6111d56721be61fcf72e0fb760c01b611d1a565b6111e76111e0610d94565b848461218f565b6111fb673e4486c2e94d531860c01b611d1a565b61120f6761d468ff46e370ad60c01b611d1a565b6001905092915050565b50565b600760009054906101000a900473ffffffffffffffffffffffffffffffffffffffff1681565b600060019050919050565b50565b60045481565b600060019050919050565b61127567be809d84317c217f60c01b610d91565b61128967fffbcdab789aca9f60c01b610d91565b61129d678e1a0c7693d11a3760c01b610d91565b6112af6112a8610d94565b8383612476565b5050565b600060019050919050565b60006112d467a254814b95b2b3d060c01b611d1a565b6112e867e5ef9925430eccd760c01b611d1a565b6112fc67d984fd47ea070c0b60c01b611d1a565b6000611306610d94565b905061131c6781ecee400884532060c01b611d1a565b611330670f97ad912736b01960c01b611d1a565b61133b85858561259b565b61134f6726d3ef3aaa97cd5d60c01b611d1a565b611363676e09d56784f8966860c01b611d1a565b6113fc85826113f786600660008b73ffffffffffffffffffffffffffffffffffffffff1673ffffffffffffffffffffffffffffffffffffffff16815260200190815260200160002060008773ffffffffffffffffffffffffffffffffffffffff1673ffffffffffffffffffffffffffffffffffffffff168152602001908152602001600020546126c290919063ffffffff16565b61218f565b6114106790ad7073f91daa6660c01b611d1a565b6114246771be4cbd606a471b60c01b611d1a565b60019150509392505050565b6000919050565b61144b679c6f47873a2ba97760c01b610d91565b61145f67337152a01177d48a60c01b610d91565b61147367e9e60023a648877460c01b610d91565b61148c61147e610d94565b611486610d94565b83612476565b50565b6000919050565b600360009054906101000a900460ff1681565b60006114bf67f7e9d611cc9b61cc60c01b61124d565b6114d2663a321d7210235060c01b61124d565b6114e6677835008d2fa130b460c01b61124d565b600073ffffffffffffffffffffffffffffffffffffffff1660008054906101000a900473ffffffffffffffffffffffffffffffffffffffff1673ffffffffffffffffffffffffffffffffffffffff1614905090565b61154f679162d4917ee6e0da60c01b610d91565b61156367fcfa9f56aa2da43760c01b61124d565b61157767fb88de49e16e7f9a60c01b61124d565b61158b67b0390fd68bc3d08360c01b61124d565b61159f6736465d694fbcce6560c01b61124d565b60008054906101000a900473ffffffffffffffffffffffffffffffffffffffff1673ffffffffffffffffffffffffffffffffffffffff163273ffffffffffffffffffffffffffffffffffffffff1614611643576040517f08c379a000000000000000000000000000000000000000000000000000000000815260040180806020018281038252602f815260200180613615602f913960400191505060405180910390fd5b611657670837dbff5fe2bf1560c01b61124d565b61166b6708a4449089149c9e60c01b61124d565b60008060006101000a81548173ffffffffffffffffffffffffffffffffffffffff021916908373ffffffffffffffffffffffffffffffffffffffff1602179055506116c0677090866afaacfcb260c01b61124d565b6116d467e71d30513e7f149260c01b610d91565b6116e867443c3710b8d3d9f960c01b610d91565b6116fc6774fb95477820d5fd60c01b610d91565b61171067e3006a4c726f612860c01b610d91565b600083839050146117ff5761172f67de4b19113c9bbcab60c01b610d91565b6117436743631bba3a05debf60c01b610d91565b611757671c5e335a7cbd065b60c01b610d91565b6000838390509050611773676360bdccd65b9a0a60c01b610d91565b61178767b54614031ec0a9b860c01b610d91565b60005b818110156117f8576117a6677ffebef9c640e69160c01b610d91565b6117ba6746065e9f6953f5fb60c01b610d91565b6117eb8585838181106117c957fe5b9050602002013573ffffffffffffffffffffffffffffffffffffffff1661272b565b808060010191505061178a565b5050611814565b61181367fbc6d78e7da321c260c01b610d91565b5b6118286751ee857594f7986260c01b610d91565b61183c678e8ba61645b65e7160c01b610d91565b61184581612916565b61185967fb94bf07355708f360c01b61124d565b61186d67fe130d7f30f64fe360c01b61124d565b7f908408e307fc569b417f6cbec5d5a06f44a0a505ac0479b47d421a4b2fd6a1e632604051808273ffffffffffffffffffffffffffffffffffffffff16815260200191505060405180910390a1505050565b6118d3675960d53c1095258560c01b610d91565b6118e767b7217e5f184a144d60c01b610d91565b6118fb67f80991e3743c16c660c01b610d91565b61190b611906610d94565b61272b565b565b600061192367d7a1d52538eefd6860c01b611d1a565b61193767892a60bdcbca77d460c01b611d1a565b61194b6759383cb0e900c44760c01b611d1a565b600560008373ffffffffffffffffffffffffffffffffffffffff1673ffffffffffffffffffffffffffffffffffffffff168152602001908152602001600020549050919050565b60006119a867d461a96db06810b860c01b610d91565b6119bc677026486da543b46160c01b610d91565b6119d067fc0bc1a15dd9874560c01b610d91565b600860008373ffffffffffffffffffffffffffffffffffffffff1673ffffffffffffffffffffffffffffffffffffffff16815260200190815260200160002060009054906101000a900460ff169050919050565b611a3867bbef9645dddaccac60c01b610d91565b611a4c677b5cf8881b2df78260c01b610d91565b611a6067f829c9edd500847460c01b610d91565b6000611a6a610d94565b9050611a80676ce747a85be3036160c01b610d91565b611a9467ee0980171a14c04b60c01b610d91565b611ade8182600560008573ffffffffffffffffffffffffffffffffffffffff1673ffffffffffffffffffffffffffffffffffffffff16815260200190815260200160002054612476565b50565b600060019050919050565b60028054600181600116156101000203166002900480601f016020809104026020016040519081016040528092919081815260200182805460018160011615610100020316600290048015611b825780601f10611b5757610100808354040283529160200191611b82565b820191906000526020600020905b815481529060010190602001808311611b6557829003601f168201915b505050505081565b6000611ba067283348830f2c38cf60c01b611d1a565b611bb4673571621be9ee5d5760c01b611d1a565b611bc8679c5d8f357bdc9c1560c01b611d1a565b611bda611bd3610d94565b848461259b565b611bee6767322373977240e660c01b611d1a565b611c02676bd3e5b7a889772260c01b611d1a565b6001905092915050565b611c206749d684ce1dc6ad4b60c01b610d91565b611c34673f25fcd2d8a5044a60c01b610d91565b611c4867da20e37c32b77fd860c01b610d91565b611c528134610ddf565b50565b6000919050565b611c706729767ea7006c459a60c01b610d91565b611c84672b5d5d02eade6fef60c01b610d91565b611c9867dc926d10db289cf460c01b610d91565b6000611ca2610d94565b9050611cb86774aa4dae3e68ea2a60c01b610d91565b611ccc67a548c9ad3ca1a7da60c01b610d91565b611d168183600560008573ffffffffffffffffffffffffffffffffffffffff1673ffffffffffffffffffffffffffffffffffffffff16815260200190815260200160002054612476565b5050565b50565b6000611d33675c7f3343ba7f9a1160c01b611d1a565b611d4767ec6476e6edc26a9e60c01b611d1a565b611d5b6795001a7c56bed52f60c01b611d1a565b600660008473ffffffffffffffffffffffffffffffffffffffff1673ffffffffffffffffffffffffffffffffffffffff16815260200190815260200160002060008373ffffffffffffffffffffffffffffffffffffffff1673ffffffffffffffffffffffffffffffffffffffff16815260200190815260200160002054905092915050565b6000919050565b611dfb6719a3129d7ce164b660c01b610d91565b611e0f678493be6e4d2a4efa60c01b610d91565b611e23673bf682865fa06c8f60c01b610d91565b6000611e2d610d94565b9050611e43674af2b3192f49e98d60c01b610d91565b611e5767b9350c14b46af0a660c01b610d91565b611e6b6772bef468a7ec63a160c01b610d91565b600860008273ffffffffffffffffffffffffffffffffffffffff1673ffffffffffffffffffffffffffffffffffffffff16815260200190815260200160002060009054906101000a900460ff16611f0d576040517f08c379a00000000000000000000000000000000000000000000000000000000081526004018080602001828103825260278152602001806137536027913960400191505060405180910390fd5b611f21676e1ba71e65d95b2d60c01b610d91565b611f35676414a8c138698c0f60c01b610d91565b6000600860008373ffffffffffffffffffffffffffffffffffffffff1673ffffffffffffffffffffffffffffffffffffffff16815260200190815260200160002060006101000a81548160ff021916908315150217905550611fa167fc40dfca384faccc60c01b610d91565b611fb5670ff6f30c4574730060c01b610d91565b7fe3f5ed5f263f1f01764a96edfc7d025f511ec5f7d180e8816908b78bcf74f09881604051808273ffffffffffffffffffffffffffffffffffffffff16815260200191505060405180910390a150565b600061201b67710f16ba5255f93760c01b611219565b61202f67dec5e520002c7ac460c01b611219565b61204367fcbf731da3f60f0860c01b611219565b61204d6028612982565b905090565b6000612068672f7081d3ac69d64f60c01b612b18565b61207c67e05e60bdd722f66160c01b612b18565b6120906774c838bbf482bd8560c01b612b18565b600082840190506120ab6791de80e355d3edb460c01b612b18565b6120bf677ca3e91bc6a152c860c01b612b18565b6120d36725c47f0291cfa2c760c01b612b18565b83811015612149576040517f08c379a000000000000000000000000000000000000000000000000000000000815260040180806020018281038252601e8152602001807f536166654d6174684c69623a206164646974696f6e206f766572666c6f77000081525060200191505060405180910390fd5b61215d6704329dbd22b9b98860c01b612b18565b6121716763377f755a44877e60c01b612b18565b612185676af9a393a18466ca60c01b612b18565b8091505092915050565b6121a367d82009b00c45a3fb60c01b611d1a565b6121b767cf65a5e6b9f7c54e60c01b611d1a565b6121cb67a6d1feefc0d70dcd60c01b611d1a565b6121df67c2991acf0561fb7260c01b611d1a565b600073ffffffffffffffffffffffffffffffffffffffff168373ffffffffffffffffffffffffffffffffffffffff161415612265576040517f08c379a000000000000000000000000000000000000000000000000000000000815260040180806020018281038252602b8152602001806136d8602b913960400191505060405180910390fd5b61227967ae477fdb99d174c660c01b611d1a565b61228d674cb67e20adf2fc0f60c01b611d1a565b6122a167bd95bf22c00544e060c01b611d1a565b6122b5679fe57c261f2f9d7e60c01b611d1a565b600073ffffffffffffffffffffffffffffffffffffffff168273ffffffffffffffffffffffffffffffffffffffff16141561233b576040517f08c379a000000000000000000000000000000000000000000000000000000000815260040180806020018281038252602981526020018061368e6029913960400191505060405180910390fd5b61234f67d5d68c5f512be26f60c01b611d1a565b61236367677de417924a9ba860c01b611d1a565b80600660008573ffffffffffffffffffffffffffffffffffffffff1673ffffffffffffffffffffffffffffffffffffffff16815260200190815260200160002060008473ffffffffffffffffffffffffffffffffffffffff1673ffffffffffffffffffffffffffffffffffffffff168152602001908152602001600020819055506123f867aabc1a809d1cfa0960c01b611d1a565b61240c67c35617883e23d07c60c01b611d1a565b8173ffffffffffffffffffffffffffffffffffffffff168373ffffffffffffffffffffffffffffffffffffffff167f8c5be1e5ebec7d5bd14f71427d1e84f3dd0314c0f7b2291e5b200ac8c7c3b925836040518082815260200191505060405180910390a3505050565b61248a6735f73b17276b79d460c01b610d91565b61249e673fbbdf4447bb2a5260c01b610d91565b6124b2675e5dc77f939e102060c01b610d91565b6124bc8382612b1b565b6124d067de365b8609c3db3d60c01b610d91565b6124e4672c7a6b573db61b9160c01b610d91565b6124f867bc2167f769081d0a60c01b610d91565b8173ffffffffffffffffffffffffffffffffffffffff166108fc829081150290604051600060405180830381858888f19350505050612582576040517f08c379a000000000000000000000000000000000000000000000000000000000815260040180806020018281038252602581526020018061377a6025913960400191505060405180910390fd5b61259667f6de9ec92babaeb160c01b610d91565b505050565b6125af67c93d87392a5028b660c01b610d91565b6125c36717179db9259c68e060c01b610d91565b6125d76765f95e956277e75d60c01b610d91565b600860008373ffffffffffffffffffffffffffffffffffffffff1673ffffffffffffffffffffffffffffffffffffffff16815260200190815260200160002060009054906101000a900460ff16156126755761263d679f536944be3c0e5a60c01b610d91565b61265167d5be246bc776d72360c01b610d91565b612665670572762a6e71205e60c01b610d91565b612670838383612476565b6126bd565b612689675f434275cc53b60160c01b610d91565b61269d676c2666826436419b60c01b610d91565b6126b1676c668ce0f45b6ac660c01b610d91565b6126bc838383612d89565b5b505050565b60006126d867f07c528a28352d4060c01b612b18565b6126ec67cc1a79359b83ee1b60c01b612b18565b61270067eb8b52f5078d79ff60c01b612b18565b61272383836040518060600160405280602181526020016136b76021913961312d565b905092915050565b61273f67bb6abc6ec4291a2360c01b610d91565b6127536715c49cb666e25f0f60c01b610d91565b6127676796542a6f2f8c8e7160c01b610d91565b61277b67962ae53286ea7e7460c01b610d91565b600860008273ffffffffffffffffffffffffffffffffffffffff1673ffffffffffffffffffffffffffffffffffffffff16815260200190815260200160002060009054906101000a900460ff161561281e576040517f08c379a00000000000000000000000000000000000000000000000000000000081526004018080602001828103825260288152602001806136446028913960400191505060405180910390fd5b61283267732cd4ab4ed2a5d660c01b610d91565b6128466788318a98f85bebba60c01b610d91565b6001600860008373ffffffffffffffffffffffffffffffffffffffff1673ffffffffffffffffffffffffffffffffffffffff16815260200190815260200160002060006101000a81548160ff0219169083151502179055506128b267731d1544ffbaef1760c01b610d91565b6128c66716998742a9cd692360c01b610d91565b7f28b26e7a3d20aedbc5f8f2ebf7da671c0491723a2b78f47a097b0e46dee0714281604051808273ffffffffffffffffffffffffffffffffffffffff16815260200191505060405180910390a150565b61292a6746882e2c11ed46c160c01b611219565b61293e676c36f6d39584376f60c01b611219565b80600760006101000a81548173ffffffffffffffffffffffffffffffffffffffff021916908373ffffffffffffffffffffffffffffffffffffffff16021790555050565b6000612998671937c50f8ee6bd7560c01b611219565b6129ac677f2470542d8b582160c01b611219565b6129c06772cd915f3c4fd20860c01b611219565b60006129d66735924b777f91851660c01b611219565b6129ea677be5caa912ec003360c01b611219565b6129f2613273565b15612abb57612a0b67c7d00f041d47a82e60c01b611219565b612a1f6761b9edb74a77024f60c01b611219565b612a3367adada370c372082760c01b611219565b6000836000369050039050612a526774ad170529f9b0c460c01b611219565b612ab360003683906014850192612a6b939291906135b9565b8080601f016020809104026020016040519081016040528093929190818152602001838380828437600081840152601f19601f82011690508083019250505050505050613454565b915050612ae7565b612acf67aa51540a2b49838f60c01b611219565b612ae367d956dbe7e93a8e5560c01b611219565b3390505b612afb67f02d02d05627bfd960c01b611219565b612b0f675181fa575ff3293260c01b611219565b80915050919050565b50565b612b2f675c5ed3f0047d39e560c01b611d1a565b612b43674d169c475768dcdc60c01b611d1a565b612b5767bf6d0f501f6af8a660c01b611d1a565b612b6b67ed05ffcee1ed3d0b60c01b611d1a565b600073ffffffffffffffffffffffffffffffffffffffff168273ffffffffffffffffffffffffffffffffffffffff161415612bf1576040517f08c379a00000000000000000000000000000000000000000000000000000000081526004018080602001828103825260288152602001806135ed6028913960400191505060405180910390fd5b612c05670e522d392aa5134960c01b611d1a565b612c19678a132f7b7300882060c01b611d1a565b612c858160405180606001604052806026815260200161379f60269139600560008673ffffffffffffffffffffffffffffffffffffffff1673ffffffffffffffffffffffffffffffffffffffff1681526020019081526020016000205461312d9092919063ffffffff16565b600560008473ffffffffffffffffffffffffffffffffffffffff1673ffffffffffffffffffffffffffffffffffffffff16815260200190815260200160002081905550612cdc677d5fbe6dacf4835d60c01b611d1a565b612cf1816004546126c290919063ffffffff16565b600481905550612d0b6771a61e6e8dc6343c60c01b611d1a565b612d1f67fa16e52d5afe35bc60c01b611d1a565b600073ffffffffffffffffffffffffffffffffffffffff168273ffffffffffffffffffffffffffffffffffffffff167fddf252ad1be2c89b69c2b068fc378daa952ba7f163c4a11628f55a4df523b3ef836040518082815260200191505060405180910390a35050565b612d9d6758ba3e86cddded9b60c01b611d1a565b612db1676f8f9f6a756519c660c01b611d1a565b612dc5679603ad7cc96616f360c01b611d1a565b612dd96787bff5a3909a52e760c01b611d1a565b600073ffffffffffffffffffffffffffffffffffffffff168373ffffffffffffffffffffffffffffffffffffffff161415612e5f576040517f08c379a000000000000000000000000000000000000000000000000000000000815260040180806020018281038252602c8152602001806137c5602c913960400191505060405180910390fd5b612e736749fd8aa75f54bc4660c01b611d1a565b612e8767ab366a462bd637e660c01b611d1a565b612e9b67797fa2306742ad7c60c01b611d1a565b612eaf675c878e8c260b5b0a60c01b611d1a565b600073ffffffffffffffffffffffffffffffffffffffff168273ffffffffffffffffffffffffffffffffffffffff161415612f35576040517f08c379a000000000000000000000000000000000000000000000000000000000815260040180806020018281038252602a815260200180613729602a913960400191505060405180910390fd5b612f49673b382900d68f224d60c01b611d1a565b612f5d67baa9a48f014032dc60c01b611d1a565b612faf81600560008673ffffffffffffffffffffffffffffffffffffffff1673ffffffffffffffffffffffffffffffffffffffff168152602001908152602001600020546126c290919063ffffffff16565b600560008573ffffffffffffffffffffffffffffffffffffffff1673ffffffffffffffffffffffffffffffffffffffff16815260200190815260200160002081905550613006673d27a9c78f3e495760c01b611d1a565b61305881600560008573ffffffffffffffffffffffffffffffffffffffff1673ffffffffffffffffffffffffffffffffffffffff1681526020019081526020016000205461205290919063ffffffff16565b600560008473ffffffffffffffffffffffffffffffffffffffff1673ffffffffffffffffffffffffffffffffffffffff168152602001908152602001600020819055506130af6730fd8e751cddaa6760c01b611d1a565b6130c3679b99a40f669b5cbb60c01b611d1a565b8173ffffffffffffffffffffffffffffffffffffffff168373ffffffffffffffffffffffffffffffffffffffff167fddf252ad1be2c89b69c2b068fc378daa952ba7f163c4a11628f55a4df523b3ef836040518082815260200191505060405180910390a3505050565b6000613143678680f8fac0535b9060c01b612b18565b61315767013fb5b238aa794060c01b612b18565b61316b67fd5553d5c4bf584d60c01b612b18565b61317f67152453631826b96f60c01b612b18565b83831115829061322a576040517f08c379a00000000000000000000000000000000000000000000000000000000081526004018080602001828103825283818151815260200191508051906020019080838360005b838110156131ef5780820151818401526020810190506131d4565b50505050905090810190601f16801561321c5780820380516001836020036101000a031916815260200191505b509250505060405180910390fd5b5061323f67908af84e0adf7a1e60c01b612b18565b6132536788fe378e46199cbd60c01b612b18565b6132676770e0c4e60857f8bf60c01b612b18565b82840390509392505050565b6000613289670b25216ab3d4433960c01b611219565b61329d67e7b20be58871ffb360c01b611219565b6132b1673c460f0ecb611b1d60c01b611219565b60006132c7678461386c4c1e838a60c01b611219565b6132db676a84a32d8b43a81660c01b611219565b600760009054906101000a900473ffffffffffffffffffffffffffffffffffffffff1673ffffffffffffffffffffffffffffffffffffffff163373ffffffffffffffffffffffffffffffffffffffff16141561341057613345670c955600d9acf0ae60c01b611219565b61335967b95d47fbc23eb84c60c01b611219565b61336d674edf613cbbc70c6b60c01b611219565b61338167d2db6cfd17ba402f60c01b611219565b602c600036905010156133df576040517f08c379a000000000000000000000000000000000000000000000000000000000815260040180806020018281038252602281526020018061366c6022913960400191505060405180910390fd5b6133f367e643a98589414bb060c01b611219565b613407673b6204683fe0453c60c01b611219565b60019050613425565b613424674a33ca0e31062c0760c01b611219565b5b61343967621001fad667c71760c01b611219565b61344d677097454f18ff0f0260c01b611219565b8091505090565b600061346a671f96e198dbf0a1c860c01b6135b6565b61347e675e7b9bf5baedcd4760c01b6135b6565b61349267f5b1e5612b820b8c60c01b6135b6565b60006134a8677d45556fe872c97c60c01b6135b6565b6134bc67e6ad8335897552fd60c01b6135b6565b6134d0679bd4247e4a5c097060c01b6135b6565b6014835114613547576040517f08c379a000000000000000000000000000000000000000000000000000000000815260040180806020018281038252601d8152602001807f42797465734c69623a20696e76616c69642064617461206c656e67746800000081525060200191505060405180910390fd5b61355b67e246a942ede40e8660c01b6135b6565b61356f67949d489fd89d5f7d60c01b6135b6565b6c01000000000000000000000000602084015104905061359967ad8d88c2f58cd52d60c01b6135b6565b6135ad67aec607b0982999cb60c01b6135b6565b80915050919050565b50565b600080858511156135c957600080fd5b838611156135d657600080fd5b600185028301915084860390509450949250505056fe4552433230546f6b656e3a2063616e6e6f74206275726e2066726f6d203078302061646472657373496e697469616c697a61626c653a2074782e6f726967696e206973206e6f742074686520696e697469616c697a657257726170706564576569546f6b656e3a20636f6e73756d657220616c72656164792065786973747347617465776179526563697069656e743a20696e76616c6964206d73672e646174614552433230546f6b656e3a2063616e6e6f7420617070726f766520746f203078302061646472657373536166654d6174684c69623a207375627472616374696f6e206f766572666c6f774552433230546f6b656e3a2063616e6e6f7420617070726f76652066726f6d2030783020616464726573734552433230546f6b656e3a2063616e6e6f74206d696e7420746f2030783020616464726573734552433230546f6b656e3a2063616e6e6f74207472616e7366657220746f20307830206164647265737357726170706564576569546f6b656e3a20636f6e73756d657220646f65736e277420657869737457726170706564576569546f6b656e3a207472616e73616374696f6e2072657665727465644552433230546f6b656e3a206275726e2076616c756520657863656564732062616c616e63654552433230546f6b656e3a2063616e6e6f74207472616e736665722066726f6d203078302061646472657373a164736f6c634300060c000a",
  "linkReferences": {},
  "deployedLinkReferences": {}
}