{
  "_format": "hh-sol-artifact-1",
  "contractName": "WrappedWeiToken",
  "sourceName": "src/tokens/WrappedWeiToken.sol",
  "abi": [
    {
      "inputs": [],
      "stateMutability": "payable",
      "type": "constructor"
    },
    {
      "anonymous": false,
      "inputs": [
        {
          "indexed": true,
          "internalType": "address",
          "name": "owner",
          "type": "address"
        },
        {
          "indexed": true,
          "internalType": "address",
          "name": "spender",
          "type": "address"
        },
        {
          "indexed": false,
          "internalType": "uint256",
          "name": "value",
          "type": "uint256"
        }
      ],
      "name": "Approval",
      "type": "event"
    },
    {
      "anonymous": false,
      "inputs": [
        {
          "indexed": false,
          "internalType": "address",
          "name": "consumer",
          "type": "address"
        }
      ],
      "name": "ConsumerAdded",
      "type": "event"
    },
    {
      "anonymous": false,
      "inputs": [
        {
          "indexed": false,
          "internalType": "address",
          "name": "consumer",
          "type": "address"
        }
      ],
      "name": "ConsumerRemoved",
      "type": "event"
    },
    {
      "anonymous": false,
      "inputs": [],
      "name": "Initialized",
      "type": "event"
    },
    {
      "anonymous": false,
      "inputs": [
        {
          "indexed": true,
          "internalType": "address",
          "name": "from",
          "type": "address"
        },
        {
          "indexed": true,
          "internalType": "address",
          "name": "to",
          "type": "address"
        },
        {
          "indexed": false,
          "internalType": "uint256",
          "name": "value",
          "type": "uint256"
        }
      ],
      "name": "Transfer",
      "type": "event"
    },
    {
      "inputs": [
        {
          "internalType": "address",
          "name": "owner",
          "type": "address"
        },
        {
          "internalType": "address",
          "name": "spender",
          "type": "address"
        }
      ],
      "name": "allowance",
      "outputs": [
        {
          "internalType": "uint256",
          "name": "",
          "type": "uint256"
        }
      ],
      "stateMutability": "view",
      "type": "function"
    },
    {
      "inputs": [
        {
          "internalType": "address",
          "name": "spender",
          "type": "address"
        },
        {
          "internalType": "uint256",
          "name": "value",
          "type": "uint256"
        }
      ],
      "name": "approve",
      "outputs": [
        {
          "internalType": "bool",
          "name": "",
          "type": "bool"
        }
      ],
      "stateMutability": "nonpayable",
      "type": "function"
    },
    {
      "inputs": [
        {
          "internalType": "address",
          "name": "owner",
          "type": "address"
        }
      ],
      "name": "balanceOf",
      "outputs": [
        {
          "internalType": "uint256",
          "name": "",
          "type": "uint256"
        }
      ],
      "stateMutability": "view",
      "type": "function"
    },
    {
      "inputs": [],
      "name": "decimals",
      "outputs": [
        {
          "internalType": "uint8",
          "name": "",
          "type": "uint8"
        }
      ],
      "stateMutability": "view",
      "type": "function"
    },
    {
      "inputs": [
        {
          "internalType": "address",
          "name": "to",
          "type": "address"
        }
      ],
      "name": "depositTo",
      "outputs": [],
      "stateMutability": "payable",
      "type": "function"
    },
    {
      "inputs": [
        {
          "internalType": "address[]",
          "name": "consumers_",
          "type": "address[]"
        }
      ],
      "name": "initialize",
      "outputs": [],
      "stateMutability": "nonpayable",
      "type": "function"
    },
    {
      "inputs": [
        {
          "internalType": "address",
          "name": "consumer",
          "type": "address"
        }
      ],
      "name": "isConsumer",
      "outputs": [
        {
          "internalType": "bool",
          "name": "",
          "type": "bool"
        }
      ],
      "stateMutability": "view",
      "type": "function"
    },
    {
      "inputs": [],
      "name": "isInitialized",
      "outputs": [
        {
          "internalType": "bool",
          "name": "",
          "type": "bool"
        }
      ],
      "stateMutability": "view",
      "type": "function"
    },
    {
      "inputs": [],
      "name": "name",
      "outputs": [
        {
          "internalType": "string",
          "name": "",
          "type": "string"
        }
      ],
      "stateMutability": "view",
      "type": "function"
    },
    {
      "inputs": [],
      "name": "startConsuming",
      "outputs": [],
      "stateMutability": "nonpayable",
      "type": "function"
    },
    {
      "inputs": [],
      "name": "stopConsuming",
      "outputs": [],
      "stateMutability": "nonpayable",
      "type": "function"
    },
    {
      "inputs": [],
      "name": "symbol",
      "outputs": [
        {
          "internalType": "string",
          "name": "",
          "type": "string"
        }
      ],
      "stateMutability": "view",
      "type": "function"
    },
    {
      "inputs": [],
      "name": "totalSupply",
      "outputs": [
        {
          "internalType": "uint256",
          "name": "",
          "type": "uint256"
        }
      ],
      "stateMutability": "view",
      "type": "function"
    },
    {
      "inputs": [
        {
          "internalType": "address",
          "name": "to",
          "type": "address"
        },
        {
          "internalType": "uint256",
          "name": "value",
          "type": "uint256"
        }
      ],
      "name": "transfer",
      "outputs": [
        {
          "internalType": "bool",
          "name": "",
          "type": "bool"
        }
      ],
      "stateMutability": "nonpayable",
      "type": "function"
    },
    {
      "inputs": [
        {
          "internalType": "address",
          "name": "from",
          "type": "address"
        },
        {
          "internalType": "address",
          "name": "to",
          "type": "address"
        },
        {
          "internalType": "uint256",
          "name": "value",
          "type": "uint256"
        }
      ],
      "name": "transferFrom",
      "outputs": [
        {
          "internalType": "bool",
          "name": "",
          "type": "bool"
        }
      ],
      "stateMutability": "nonpayable",
      "type": "function"
    },
    {
      "inputs": [
        {
          "internalType": "uint256",
          "name": "value",
          "type": "uint256"
        }
      ],
      "name": "withdraw",
      "outputs": [],
      "stateMutability": "nonpayable",
      "type": "function"
    },
    {
      "inputs": [],
      "name": "withdrawAll",
      "outputs": [],
      "stateMutability": "nonpayable",
      "type": "function"
    },
    {
      "inputs": [
        {
          "internalType": "address",
          "name": "to",
          "type": "address"
        }
      ],
      "name": "withdrawAllTo",
      "outputs": [],
      "stateMutability": "nonpayable",
      "type": "function"
    },
    {
      "inputs": [
        {
          "internalType": "address",
          "name": "to",
          "type": "address"
        },
        {
          "internalType": "uint256",
          "name": "value",
          "type": "uint256"
        }
      ],
      "name": "withdrawTo",
      "outputs": [],
      "stateMutability": "nonpayable",
      "type": "function"
    },
    {
      "stateMutability": "payable",
      "type": "receive"
    }
  ],
  "bytecode": "0x6080604052326000806101000a81548173ffffffffffffffffffffffffffffffffffffffff021916908373ffffffffffffffffffffffffffffffffffffffff1602179055506040518060400160405280600b81526020017f57726170706564205765690000000000000000000000000000000000000000008152506001908051906020019062000091929190620003b3565b506040518060400160405280600481526020017f575745490000000000000000000000000000000000000000000000000000000081525060029080519060200190620000df929190620003b3565b506000341115620000fd57620000fc33346200010360201b60201c565b5b62000459565b600073ffffffffffffffffffffffffffffffffffffffff168273ffffffffffffffffffffffffffffffffffffffff1614156200018b576040517f08c379a0000000000000000000000000000000000000000000000000000000008152600401808060200182810382526026815260200180620021b26026913960400191505060405180910390fd5b6000811162000202576040517f08c379a000000000000000000000000000000000000000000000000000000000815260040180806020018281038252601f8152602001807f4552433230546f6b656e3a2063616e6e6f74206d696e7420302076616c75650081525060200191505060405180910390fd5b6200025b81600560008573ffffffffffffffffffffffffffffffffffffffff1673ffffffffffffffffffffffffffffffffffffffff168152602001908152602001600020546200032a60201b6200113d1790919060201c565b600560008473ffffffffffffffffffffffffffffffffffffffff1673ffffffffffffffffffffffffffffffffffffffff16815260200190815260200160002081905550620002ba816004546200032a60201b6200113d1790919060201c565b6004819055508173ffffffffffffffffffffffffffffffffffffffff16600073ffffffffffffffffffffffffffffffffffffffff167fddf252ad1be2c89b69c2b068fc378daa952ba7f163c4a11628f55a4df523b3ef836040518082815260200191505060405180910390a35050565b600080828401905083811015620003a9576040517f08c379a000000000000000000000000000000000000000000000000000000000815260040180806020018281038252601e8152602001807f536166654d6174684c69623a206164646974696f6e206f766572666c6f77000081525060200191505060405180910390fd5b8091505092915050565b828054600181600116156101000203166002900490600052602060002090601f016020900481019282601f10620003f657805160ff191683800117855562000427565b8280016001018555821562000427579182015b828111156200042657825182559160200191906001019062000409565b5b5090506200043691906200043a565b5090565b5b80821115620004555760008160009055506001016200043b565b5090565b611d4980620004696000396000f3fe6080604052600436106101185760003560e01c806370a08231116100a0578063a9059cbb11610064578063a9059cbb146105ec578063b760faf91461065d578063ca9add8f146106a1578063dd62ed3e146106f2578063f55647e01461077757610129565b806370a08231146103f3578063834ff73914610458578063853828b6146104bf57806395d89b41146104d6578063a224cee71461056657610129565b806323b872dd116100e757806323b872dd146102b55780632e1a7d4d14610346578063313ce56714610381578063392e53cd146103af57806356a3b64b146103dc57610129565b806306fdde031461012e578063095ea7b3146101be57806318160ddd1461022f578063205c28781461025a57610129565b3661012957610127333461078e565b005b600080fd5b34801561013a57600080fd5b506101436109a4565b6040518080602001828103825283818151815260200191508051906020019080838360005b83811015610183578082015181840152602081019050610168565b50505050905090810190601f1680156101b05780820380516001836020036101000a031916815260200191505b509250505060405180910390f35b3480156101ca57600080fd5b50610217600480360360408110156101e157600080fd5b81019080803573ffffffffffffffffffffffffffffffffffffffff16906020019092919080359060200190929190505050610a42565b60405180821515815260200191505060405180910390f35b34801561023b57600080fd5b50610244610a59565b6040518082815260200191505060405180910390f35b34801561026657600080fd5b506102b36004803603604081101561027d57600080fd5b81019080803573ffffffffffffffffffffffffffffffffffffffff16906020019092919080359060200190929190505050610a5f565b005b3480156102c157600080fd5b5061032e600480360360608110156102d857600080fd5b81019080803573ffffffffffffffffffffffffffffffffffffffff169060200190929190803573ffffffffffffffffffffffffffffffffffffffff16906020019092919080359060200190929190505050610a6e565b60405180821515815260200191505060405180910390f35b34801561035257600080fd5b5061037f6004803603602081101561036957600080fd5b8101908080359060200190929190505050610b1f565b005b34801561038d57600080fd5b50610396610b2d565b604051808260ff16815260200191505060405180910390f35b3480156103bb57600080fd5b506103c4610b40565b60405180821515815260200191505060405180910390f35b3480156103e857600080fd5b506103f1610b96565b005b3480156103ff57600080fd5b506104426004803603602081101561041657600080fd5b81019080803573ffffffffffffffffffffffffffffffffffffffff169060200190929190505050610ba1565b6040518082815260200191505060405180910390f35b34801561046457600080fd5b506104a76004803603602081101561047b57600080fd5b81019080803573ffffffffffffffffffffffffffffffffffffffff169060200190929190505050610bea565b60405180821515815260200191505060405180910390f35b3480156104cb57600080fd5b506104d4610c40565b005b3480156104e257600080fd5b506104eb610c8c565b6040518080602001828103825283818151815260200191508051906020019080838360005b8381101561052b578082015181840152602081019050610510565b50505050905090810190601f1680156105585780820380516001836020036101000a031916815260200191505b509250505060405180910390f35b34801561057257600080fd5b506105ea6004803603602081101561058957600080fd5b81019080803590602001906401000000008111156105a657600080fd5b8201836020820111156105b857600080fd5b803590602001918460208302840111640100000000831117156105da57600080fd5b9091929391929390505050610d2a565b005b3480156105f857600080fd5b506106456004803603604081101561060f57600080fd5b81019080803573ffffffffffffffffffffffffffffffffffffffff16906020019092919080359060200190929190505050610efc565b60405180821515815260200191505060405180910390f35b61069f6004803603602081101561067357600080fd5b81019080803573ffffffffffffffffffffffffffffffffffffffff169060200190929190505050610f13565b005b3480156106ad57600080fd5b506106f0600480360360208110156106c457600080fd5b81019080803573ffffffffffffffffffffffffffffffffffffffff169060200190929190505050610f20565b005b3480156106fe57600080fd5b506107616004803603604081101561071557600080fd5b81019080803573ffffffffffffffffffffffffffffffffffffffff169060200190929190803573ffffffffffffffffffffffffffffffffffffffff169060200190929190505050610f6d565b6040518082815260200191505060405180910390f35b34801561078357600080fd5b5061078c610ff4565b005b600073ffffffffffffffffffffffffffffffffffffffff168273ffffffffffffffffffffffffffffffffffffffff161415610814576040517f08c379a0000000000000000000000000000000000000000000000000000000008152600401808060200182810382526026815260200180611c4f6026913960400191505060405180910390fd5b6000811161088a576040517f08c379a000000000000000000000000000000000000000000000000000000000815260040180806020018281038252601f8152602001807f4552433230546f6b656e3a2063616e6e6f74206d696e7420302076616c75650081525060200191505060405180910390fd5b6108dc81600560008573ffffffffffffffffffffffffffffffffffffffff1673ffffffffffffffffffffffffffffffffffffffff1681526020019081526020016000205461113d90919063ffffffff16565b600560008473ffffffffffffffffffffffffffffffffffffffff1673ffffffffffffffffffffffffffffffffffffffff168152602001908152602001600020819055506109348160045461113d90919063ffffffff16565b6004819055508173ffffffffffffffffffffffffffffffffffffffff16600073ffffffffffffffffffffffffffffffffffffffff167fddf252ad1be2c89b69c2b068fc378daa952ba7f163c4a11628f55a4df523b3ef836040518082815260200191505060405180910390a35050565b60018054600181600116156101000203166002900480601f016020809104026020016040519081016040528092919081815260200182805460018160011615610100020316600290048015610a3a5780601f10610a0f57610100808354040283529160200191610a3a565b820191906000526020600020905b815481529060010190602001808311610a1d57829003601f168201915b505050505081565b6000610a4f3384846111c5565b6001905092915050565b60045481565b610a6a3383836113bc565b5050565b6000610a7b848484611455565b610b148433610b0f85600660008a73ffffffffffffffffffffffffffffffffffffffff1673ffffffffffffffffffffffffffffffffffffffff16815260200190815260200160002060003373ffffffffffffffffffffffffffffffffffffffff1673ffffffffffffffffffffffffffffffffffffffff168152602001908152602001600020546114c890919063ffffffff16565b6111c5565b600190509392505050565b610b2a3333836113bc565b50565b600360009054906101000a900460ff1681565b60008073ffffffffffffffffffffffffffffffffffffffff1660008054906101000a900473ffffffffffffffffffffffffffffffffffffffff1673ffffffffffffffffffffffffffffffffffffffff1614905090565b610b9f336114f5565b565b6000600560008373ffffffffffffffffffffffffffffffffffffffff1673ffffffffffffffffffffffffffffffffffffffff168152602001908152602001600020549050919050565b6000600760008373ffffffffffffffffffffffffffffffffffffffff1673ffffffffffffffffffffffffffffffffffffffff16815260200190815260200160002060009054906101000a900460ff169050919050565b610c8a3333600560003373ffffffffffffffffffffffffffffffffffffffff1673ffffffffffffffffffffffffffffffffffffffff168152602001908152602001600020546113bc565b565b60028054600181600116156101000203166002900480601f016020809104026020016040519081016040528092919081815260200182805460018160011615610100020316600290048015610d225780601f10610cf757610100808354040283529160200191610d22565b820191906000526020600020905b815481529060010190602001808311610d0557829003601f168201915b505050505081565b60008054906101000a900473ffffffffffffffffffffffffffffffffffffffff1673ffffffffffffffffffffffffffffffffffffffff163273ffffffffffffffffffffffffffffffffffffffff1614610dce576040517f08c379a000000000000000000000000000000000000000000000000000000000815260040180806020018281038252602f815260200180611b83602f913960400191505060405180910390fd5b60008060006101000a81548173ffffffffffffffffffffffffffffffffffffffff021916908373ffffffffffffffffffffffffffffffffffffffff1602179055506000828290501415610e78576001600760003373ffffffffffffffffffffffffffffffffffffffff1673ffffffffffffffffffffffffffffffffffffffff16815260200190815260200160002060006101000a81548160ff021916908315150217905550610ecc565b600082829050905060005b81811015610ec957610ebc848483818110610e9a57fe5b9050602002013573ffffffffffffffffffffffffffffffffffffffff166114f5565b8080600101915050610e83565b50505b7f5daa87a0e9463431830481fd4b6e3403442dfb9a12b9c07597e9f61d50b633c860405160405180910390a15050565b6000610f09338484611455565b6001905092915050565b610f1d813461078e565b50565b610f6a3382600560003373ffffffffffffffffffffffffffffffffffffffff1673ffffffffffffffffffffffffffffffffffffffff168152602001908152602001600020546113bc565b50565b6000600660008473ffffffffffffffffffffffffffffffffffffffff1673ffffffffffffffffffffffffffffffffffffffff16815260200190815260200160002060008373ffffffffffffffffffffffffffffffffffffffff1673ffffffffffffffffffffffffffffffffffffffff16815260200190815260200160002054905092915050565b600760003373ffffffffffffffffffffffffffffffffffffffff1673ffffffffffffffffffffffffffffffffffffffff16815260200190815260200160002060009054906101000a900460ff16611096576040517f08c379a0000000000000000000000000000000000000000000000000000000008152600401808060200182810382526027815260200180611c9f6027913960400191505060405180910390fd5b6000600760003373ffffffffffffffffffffffffffffffffffffffff1673ffffffffffffffffffffffffffffffffffffffff16815260200190815260200160002060006101000a81548160ff0219169083151502179055507fe3f5ed5f263f1f01764a96edfc7d025f511ec5f7d180e8816908b78bcf74f09833604051808273ffffffffffffffffffffffffffffffffffffffff16815260200191505060405180910390a1565b6000808284019050838110156111bb576040517f08c379a000000000000000000000000000000000000000000000000000000000815260040180806020018281038252601e8152602001807f536166654d6174684c69623a206164646974696f6e206f766572666c6f77000081525060200191505060405180910390fd5b8091505092915050565b600073ffffffffffffffffffffffffffffffffffffffff168373ffffffffffffffffffffffffffffffffffffffff16141561124b576040517f08c379a000000000000000000000000000000000000000000000000000000000815260040180806020018281038252602b815260200180611c24602b913960400191505060405180910390fd5b600073ffffffffffffffffffffffffffffffffffffffff168273ffffffffffffffffffffffffffffffffffffffff1614156112d1576040517f08c379a0000000000000000000000000000000000000000000000000000000008152600401808060200182810382526029815260200180611bda6029913960400191505060405180910390fd5b80600660008573ffffffffffffffffffffffffffffffffffffffff1673ffffffffffffffffffffffffffffffffffffffff16815260200190815260200160002060008473ffffffffffffffffffffffffffffffffffffffff1673ffffffffffffffffffffffffffffffffffffffff168152602001908152602001600020819055508173ffffffffffffffffffffffffffffffffffffffff168373ffffffffffffffffffffffffffffffffffffffff167f8c5be1e5ebec7d5bd14f71427d1e84f3dd0314c0f7b2291e5b200ac8c7c3b925836040518082815260200191505060405180910390a3505050565b6113c68382611640565b8173ffffffffffffffffffffffffffffffffffffffff166108fc829081150290604051600060405180830381858888f19350505050611450576040517f08c379a0000000000000000000000000000000000000000000000000000000008152600401808060200182810382526025815260200180611cc66025913960400191505060405180910390fd5b505050565b600760008373ffffffffffffffffffffffffffffffffffffffff1673ffffffffffffffffffffffffffffffffffffffff16815260200190815260200160002060009054906101000a900460ff16156114b7576114b28383836113bc565b6114c3565b6114c28383836117fa565b5b505050565b60006114ed8383604051806060016040528060218152602001611c0360219139611a9a565b905092915050565b600760008273ffffffffffffffffffffffffffffffffffffffff1673ffffffffffffffffffffffffffffffffffffffff16815260200190815260200160002060009054906101000a900460ff1615611598576040517f08c379a0000000000000000000000000000000000000000000000000000000008152600401808060200182810382526028815260200180611bb26028913960400191505060405180910390fd5b6001600760008373ffffffffffffffffffffffffffffffffffffffff1673ffffffffffffffffffffffffffffffffffffffff16815260200190815260200160002060006101000a81548160ff0219169083151502179055507f28b26e7a3d20aedbc5f8f2ebf7da671c0491723a2b78f47a097b0e46dee0714281604051808273ffffffffffffffffffffffffffffffffffffffff16815260200191505060405180910390a150565b600073ffffffffffffffffffffffffffffffffffffffff168273ffffffffffffffffffffffffffffffffffffffff1614156116c6576040517f08c379a0000000000000000000000000000000000000000000000000000000008152600401808060200182810382526028815260200180611b5b6028913960400191505060405180910390fd5b61173281604051806060016040528060268152602001611ceb60269139600560008673ffffffffffffffffffffffffffffffffffffffff1673ffffffffffffffffffffffffffffffffffffffff16815260200190815260200160002054611a9a9092919063ffffffff16565b600560008473ffffffffffffffffffffffffffffffffffffffff1673ffffffffffffffffffffffffffffffffffffffff1681526020019081526020016000208190555061178a816004546114c890919063ffffffff16565b600481905550600073ffffffffffffffffffffffffffffffffffffffff168273ffffffffffffffffffffffffffffffffffffffff167fddf252ad1be2c89b69c2b068fc378daa952ba7f163c4a11628f55a4df523b3ef836040518082815260200191505060405180910390a35050565b600073ffffffffffffffffffffffffffffffffffffffff168373ffffffffffffffffffffffffffffffffffffffff161415611880576040517f08c379a000000000000000000000000000000000000000000000000000000000815260040180806020018281038252602c815260200180611d11602c913960400191505060405180910390fd5b600073ffffffffffffffffffffffffffffffffffffffff168273ffffffffffffffffffffffffffffffffffffffff161415611906576040517f08c379a000000000000000000000000000000000000000000000000000000000815260040180806020018281038252602a815260200180611c75602a913960400191505060405180910390fd5b61195881600560008673ffffffffffffffffffffffffffffffffffffffff1673ffffffffffffffffffffffffffffffffffffffff168152602001908152602001600020546114c890919063ffffffff16565b600560008573ffffffffffffffffffffffffffffffffffffffff1673ffffffffffffffffffffffffffffffffffffffff168152602001908152602001600020819055506119ed81600560008573ffffffffffffffffffffffffffffffffffffffff1673ffffffffffffffffffffffffffffffffffffffff1681526020019081526020016000205461113d90919063ffffffff16565b600560008473ffffffffffffffffffffffffffffffffffffffff1673ffffffffffffffffffffffffffffffffffffffff168152602001908152602001600020819055508173ffffffffffffffffffffffffffffffffffffffff168373ffffffffffffffffffffffffffffffffffffffff167fddf252ad1be2c89b69c2b068fc378daa952ba7f163c4a11628f55a4df523b3ef836040518082815260200191505060405180910390a3505050565b6000838311158290611b47576040517f08c379a00000000000000000000000000000000000000000000000000000000081526004018080602001828103825283818151815260200191508051906020019080838360005b83811015611b0c578082015181840152602081019050611af1565b50505050905090810190601f168015611b395780820380516001836020036101000a031916815260200191505b509250505060405180910390fd5b506000838503905080915050939250505056fe4552433230546f6b656e3a2063616e6e6f74206275726e2066726f6d203078302061646472657373496e697469616c697a61626c653a2074782e6f726967696e206973206e6f742074686520696e697469616c697a657257726170706564576569546f6b656e3a20636f6e73756d657220616c7265616479206578697374734552433230546f6b656e3a2063616e6e6f7420617070726f766520746f203078302061646472657373536166654d6174684c69623a207375627472616374696f6e206f766572666c6f774552433230546f6b656e3a2063616e6e6f7420617070726f76652066726f6d2030783020616464726573734552433230546f6b656e3a2063616e6e6f74206d696e7420746f2030783020616464726573734552433230546f6b656e3a2063616e6e6f74207472616e7366657220746f20307830206164647265737357726170706564576569546f6b656e3a20636f6e73756d657220646f65736e277420657869737457726170706564576569546f6b656e3a207472616e73616374696f6e2072657665727465644552433230546f6b656e3a206275726e2076616c756520657863656564732062616c616e63654552433230546f6b656e3a2063616e6e6f74207472616e736665722066726f6d203078302061646472657373a164736f6c634300060c000a4552433230546f6b656e3a2063616e6e6f74206d696e7420746f203078302061646472657373",
  "linkReferences": {},
  "deployedLinkReferences": {}
}