{
  "_format": "hh-sol-artifact-1",
  "contractName": "WrappedWeiToken",
  "sourceName": "src/tokens/WrappedWeiToken.sol",
  "abi": [
    {
      "inputs": [],
      "stateMutability": "nonpayable",
      "type": "constructor"
    },
    {
      "anonymous": false,
      "inputs": [
        {
          "indexed": true,
          "internalType": "address",
          "name": "owner",
          "type": "address"
        },
        {
          "indexed": true,
          "internalType": "address",
          "name": "spender",
          "type": "address"
        },
        {
          "indexed": false,
          "internalType": "uint256",
          "name": "value",
          "type": "uint256"
        }
      ],
      "name": "Approval",
      "type": "event"
    },
    {
      "anonymous": false,
      "inputs": [
        {
          "indexed": false,
          "internalType": "address",
          "name": "consumer",
          "type": "address"
        }
      ],
      "name": "ConsumerAdded",
      "type": "event"
    },
    {
      "anonymous": false,
      "inputs": [
        {
          "indexed": false,
          "internalType": "address",
          "name": "consumer",
          "type": "address"
        }
      ],
      "name": "ConsumerRemoved",
      "type": "event"
    },
    {
      "anonymous": false,
      "inputs": [
        {
          "indexed": false,
          "internalType": "address",
          "name": "initializer",
          "type": "address"
        }
      ],
      "name": "Initialized",
      "type": "event"
    },
    {
      "anonymous": false,
      "inputs": [
        {
          "indexed": true,
          "internalType": "address",
          "name": "from",
          "type": "address"
        },
        {
          "indexed": true,
          "internalType": "address",
          "name": "to",
          "type": "address"
        },
        {
          "indexed": false,
          "internalType": "uint256",
          "name": "value",
          "type": "uint256"
        }
      ],
      "name": "Transfer",
      "type": "event"
    },
    {
      "inputs": [
        {
          "internalType": "address",
          "name": "owner",
          "type": "address"
        },
        {
          "internalType": "address",
          "name": "spender",
          "type": "address"
        }
      ],
      "name": "allowance",
      "outputs": [
        {
          "internalType": "uint256",
          "name": "",
          "type": "uint256"
        }
      ],
      "stateMutability": "view",
      "type": "function"
    },
    {
      "inputs": [
        {
          "internalType": "address",
          "name": "spender",
          "type": "address"
        },
        {
          "internalType": "uint256",
          "name": "value",
          "type": "uint256"
        }
      ],
      "name": "approve",
      "outputs": [
        {
          "internalType": "bool",
          "name": "",
          "type": "bool"
        }
      ],
      "stateMutability": "nonpayable",
      "type": "function"
    },
    {
      "inputs": [
        {
          "internalType": "address",
          "name": "owner",
          "type": "address"
        }
      ],
      "name": "balanceOf",
      "outputs": [
        {
          "internalType": "uint256",
          "name": "",
          "type": "uint256"
        }
      ],
      "stateMutability": "view",
      "type": "function"
    },
    {
      "inputs": [
        {
          "internalType": "bytes8",
          "name": "c__230891fc",
          "type": "bytes8"
        }
      ],
      "name": "c_230891fc",
      "outputs": [],
      "stateMutability": "pure",
      "type": "function"
    },
    {
      "inputs": [
        {
          "internalType": "bytes8",
          "name": "c__5838cc23",
          "type": "bytes8"
        }
      ],
      "name": "c_5838cc23",
      "outputs": [],
      "stateMutability": "pure",
      "type": "function"
    },
    {
      "inputs": [
        {
          "internalType": "bytes8",
          "name": "c__c0828b70",
          "type": "bytes8"
        }
      ],
      "name": "c_c0828b70",
      "outputs": [],
      "stateMutability": "pure",
      "type": "function"
    },
    {
      "inputs": [
        {
          "internalType": "bytes8",
          "name": "c__d5c463c2",
          "type": "bytes8"
        }
      ],
      "name": "c_d5c463c2",
      "outputs": [],
      "stateMutability": "pure",
      "type": "function"
    },
    {
      "inputs": [
        {
          "internalType": "bytes8",
          "name": "c__230891fc",
          "type": "bytes8"
        }
      ],
      "name": "c_false230891fc",
      "outputs": [
        {
          "internalType": "bool",
          "name": "",
          "type": "bool"
        }
      ],
      "stateMutability": "pure",
      "type": "function"
    },
    {
      "inputs": [
        {
          "internalType": "bytes8",
          "name": "c__5838cc23",
          "type": "bytes8"
        }
      ],
      "name": "c_false5838cc23",
      "outputs": [
        {
          "internalType": "bool",
          "name": "",
          "type": "bool"
        }
      ],
      "stateMutability": "pure",
      "type": "function"
    },
    {
      "inputs": [
        {
          "internalType": "bytes8",
          "name": "c__c0828b70",
          "type": "bytes8"
        }
      ],
      "name": "c_falsec0828b70",
      "outputs": [
        {
          "internalType": "bool",
          "name": "",
          "type": "bool"
        }
      ],
      "stateMutability": "pure",
      "type": "function"
    },
    {
      "inputs": [
        {
          "internalType": "bytes8",
          "name": "c__d5c463c2",
          "type": "bytes8"
        }
      ],
      "name": "c_falsed5c463c2",
      "outputs": [
        {
          "internalType": "bool",
          "name": "",
          "type": "bool"
        }
      ],
      "stateMutability": "pure",
      "type": "function"
    },
    {
      "inputs": [
        {
          "internalType": "bytes8",
          "name": "c__230891fc",
          "type": "bytes8"
        }
      ],
      "name": "c_true230891fc",
      "outputs": [
        {
          "internalType": "bool",
          "name": "",
          "type": "bool"
        }
      ],
      "stateMutability": "pure",
      "type": "function"
    },
    {
      "inputs": [
        {
          "internalType": "bytes8",
          "name": "c__5838cc23",
          "type": "bytes8"
        }
      ],
      "name": "c_true5838cc23",
      "outputs": [
        {
          "internalType": "bool",
          "name": "",
          "type": "bool"
        }
      ],
      "stateMutability": "pure",
      "type": "function"
    },
    {
      "inputs": [
        {
          "internalType": "bytes8",
          "name": "c__c0828b70",
          "type": "bytes8"
        }
      ],
      "name": "c_truec0828b70",
      "outputs": [
        {
          "internalType": "bool",
          "name": "",
          "type": "bool"
        }
      ],
      "stateMutability": "pure",
      "type": "function"
    },
    {
      "inputs": [
        {
          "internalType": "bytes8",
          "name": "c__d5c463c2",
          "type": "bytes8"
        }
      ],
      "name": "c_trued5c463c2",
      "outputs": [
        {
          "internalType": "bool",
          "name": "",
          "type": "bool"
        }
      ],
      "stateMutability": "pure",
      "type": "function"
    },
    {
      "inputs": [],
      "name": "decimals",
      "outputs": [
        {
          "internalType": "uint8",
          "name": "",
          "type": "uint8"
        }
      ],
      "stateMutability": "view",
      "type": "function"
    },
    {
      "inputs": [
        {
          "internalType": "address",
          "name": "to",
          "type": "address"
        }
      ],
      "name": "depositTo",
      "outputs": [],
      "stateMutability": "payable",
      "type": "function"
    },
    {
      "inputs": [],
      "name": "gateway",
      "outputs": [
        {
          "internalType": "address",
          "name": "",
          "type": "address"
        }
      ],
      "stateMutability": "view",
      "type": "function"
    },
    {
      "inputs": [
        {
          "internalType": "address[]",
          "name": "consumers_",
          "type": "address[]"
        },
        {
          "internalType": "address",
          "name": "gateway_",
          "type": "address"
        }
      ],
      "name": "initialize",
      "outputs": [],
      "stateMutability": "nonpayable",
      "type": "function"
    },
    {
      "inputs": [
        {
          "internalType": "address",
          "name": "consumer",
          "type": "address"
        }
      ],
      "name": "isConsumer",
      "outputs": [
        {
          "internalType": "bool",
          "name": "",
          "type": "bool"
        }
      ],
      "stateMutability": "view",
      "type": "function"
    },
    {
      "inputs": [],
      "name": "isInitialized",
      "outputs": [
        {
          "internalType": "bool",
          "name": "",
          "type": "bool"
        }
      ],
      "stateMutability": "view",
      "type": "function"
    },
    {
      "inputs": [],
      "name": "name",
      "outputs": [
        {
          "internalType": "string",
          "name": "",
          "type": "string"
        }
      ],
      "stateMutability": "view",
      "type": "function"
    },
    {
      "inputs": [],
      "name": "startConsuming",
      "outputs": [],
      "stateMutability": "nonpayable",
      "type": "function"
    },
    {
      "inputs": [],
      "name": "stopConsuming",
      "outputs": [],
      "stateMutability": "nonpayable",
      "type": "function"
    },
    {
      "inputs": [],
      "name": "symbol",
      "outputs": [
        {
          "internalType": "string",
          "name": "",
          "type": "string"
        }
      ],
      "stateMutability": "view",
      "type": "function"
    },
    {
      "inputs": [],
      "name": "totalSupply",
      "outputs": [
        {
          "internalType": "uint256",
          "name": "",
          "type": "uint256"
        }
      ],
      "stateMutability": "view",
      "type": "function"
    },
    {
      "inputs": [
        {
          "internalType": "address",
          "name": "to",
          "type": "address"
        },
        {
          "internalType": "uint256",
          "name": "value",
          "type": "uint256"
        }
      ],
      "name": "transfer",
      "outputs": [
        {
          "internalType": "bool",
          "name": "",
          "type": "bool"
        }
      ],
      "stateMutability": "nonpayable",
      "type": "function"
    },
    {
      "inputs": [
        {
          "internalType": "address",
          "name": "from",
          "type": "address"
        },
        {
          "internalType": "address",
          "name": "to",
          "type": "address"
        },
        {
          "internalType": "uint256",
          "name": "value",
          "type": "uint256"
        }
      ],
      "name": "transferFrom",
      "outputs": [
        {
          "internalType": "bool",
          "name": "",
          "type": "bool"
        }
      ],
      "stateMutability": "nonpayable",
      "type": "function"
    },
    {
      "inputs": [
        {
          "internalType": "uint256",
          "name": "value",
          "type": "uint256"
        }
      ],
      "name": "withdraw",
      "outputs": [],
      "stateMutability": "nonpayable",
      "type": "function"
    },
    {
      "inputs": [],
      "name": "withdrawAll",
      "outputs": [],
      "stateMutability": "nonpayable",
      "type": "function"
    },
    {
      "inputs": [
        {
          "internalType": "address",
          "name": "to",
          "type": "address"
        }
      ],
      "name": "withdrawAllTo",
      "outputs": [],
      "stateMutability": "nonpayable",
      "type": "function"
    },
    {
      "inputs": [
        {
          "internalType": "address",
          "name": "to",
          "type": "address"
        },
        {
          "internalType": "uint256",
          "name": "value",
          "type": "uint256"
        }
      ],
      "name": "withdrawTo",
      "outputs": [],
      "stateMutability": "nonpayable",
      "type": "function"
    },
    {
      "stateMutability": "payable",
      "type": "receive"
    }
  ],
  "bytecode": "0x60806040523480156200001157600080fd5b506200002e676f8209dd9a63129460c01b620001b860201b60201c565b6200004a675c69c8f577e02d3d60c01b620001b860201b60201c565b326000806101000a81548173ffffffffffffffffffffffffffffffffffffffff021916908373ffffffffffffffffffffffffffffffffffffffff160217905550620000a66748489317a8aff0c860c01b620001bb60201b60201c565b620000c267f3f8abaddc57a31660c01b620001be60201b60201c565b620000de67c1b58ceb128170dd60c01b620001c160201b60201c565b620000fa67312560397b6a41d360c01b620001c160201b60201c565b6040518060400160405280600b81526020017f57726170706564205765690000000000000000000000000000000000000000008152506001908051906020019062000147929190620001c4565b5062000164670cbb5062a57dfa4360c01b620001c160201b60201c565b6040518060400160405280600481526020017f575745490000000000000000000000000000000000000000000000000000000081525060029080519060200190620001b1929190620001c4565b506200026a565b50565b50565b50565b50565b828054600181600116156101000203166002900490600052602060002090601f016020900481019282601f106200020757805160ff191683800117855562000238565b8280016001018555821562000238579182015b82811115620002375782518255916020019190600101906200021a565b5b5090506200024791906200024b565b5090565b5b80821115620002665760008160009055506001016200024c565b5090565b6137fe806200027a6000396000f3fe6080604052600436106101e75760003560e01c8063462d0b2e11610102578063b760faf911610095578063d4aae83411610064578063d4aae83414610c33578063dd62ed3e14610c89578063ee2c757e14610d0e578063f55647e014610d7a57610213565b8063b760faf914610adc578063c369d5fe14610b20578063ca9add8f14610b8c578063ca9b3ac414610bdd57610213565b8063853828b6116100d1578063853828b61461095857806385ad59e31461096f57806395d89b41146109db578063a9059cbb14610a6b57610213565b8063462d0b2e146107cf57806356a3b64b1461087557806370a082311461088c578063834ff739146108f157610213565b8063205c28781161017a5780632e1a7d4d116101495780632e1a7d4d146106cd5780632e6afd6e14610708578063313ce56714610774578063392e53cd146107a257610213565b8063205c28781461050957806321a5f5da1461056457806323b872dd146105d057806326a9683f1461066157610213565b80631262ed1c116101b65780631262ed1c146103b0578063181216461461041c57806318160ddd146104725780631bb5c2981461049d57610213565b806306fdde0314610218578063095ea7b3146102a85780630c4b1a1714610319578063116191b61461036f57610213565b36610213576102006753bbd68d10f5e41560c01b610d91565b61021161020b610d94565b34610ddf565b005b600080fd5b34801561022457600080fd5b5061022d6110f9565b6040518080602001828103825283818151815260200191508051906020019080838360005b8381101561026d578082015181840152602081019050610252565b50505050905090810190601f16801561029a5780820380516001836020036101000a031916815260200191505b509250505060405180910390f35b3480156102b457600080fd5b50610301600480360360408110156102cb57600080fd5b81019080803573ffffffffffffffffffffffffffffffffffffffff16906020019092919080359060200190929190505050611197565b60405180821515815260200191505060405180910390f35b34801561032557600080fd5b5061036d6004803603602081101561033c57600080fd5b81019080803577ffffffffffffffffffffffffffffffffffffffffffffffff19169060200190929190505050611219565b005b34801561037b57600080fd5b5061038461121c565b604051808273ffffffffffffffffffffffffffffffffffffffff16815260200191505060405180910390f35b3480156103bc57600080fd5b50610404600480360360208110156103d357600080fd5b81019080803577ffffffffffffffffffffffffffffffffffffffffffffffff19169060200190929190505050611242565b60405180821515815260200191505060405180910390f35b34801561042857600080fd5b506104706004803603602081101561043f57600080fd5b81019080803577ffffffffffffffffffffffffffffffffffffffffffffffff1916906020019092919050505061124d565b005b34801561047e57600080fd5b50610487611250565b6040518082815260200191505060405180910390f35b3480156104a957600080fd5b506104f1600480360360208110156104c057600080fd5b81019080803577ffffffffffffffffffffffffffffffffffffffffffffffff19169060200190929190505050611256565b60405180821515815260200191505060405180910390f35b34801561051557600080fd5b506105626004803603604081101561052c57600080fd5b81019080803573ffffffffffffffffffffffffffffffffffffffff16906020019092919080359060200190929190505050611261565b005b34801561057057600080fd5b506105b86004803603602081101561058757600080fd5b81019080803577ffffffffffffffffffffffffffffffffffffffffffffffff191690602001909291905050506112b3565b60405180821515815260200191505060405180910390f35b3480156105dc57600080fd5b50610649600480360360608110156105f357600080fd5b81019080803573ffffffffffffffffffffffffffffffffffffffff169060200190929190803573ffffffffffffffffffffffffffffffffffffffff169060200190929190803590602001909291905050506112be565b60405180821515815260200191505060405180910390f35b34801561066d57600080fd5b506106b56004803603602081101561068457600080fd5b81019080803577ffffffffffffffffffffffffffffffffffffffffffffffff19169060200190929190505050611430565b60405180821515815260200191505060405180910390f35b3480156106d957600080fd5b50610706600480360360208110156106f057600080fd5b8101908080359060200190929190505050611437565b005b34801561071457600080fd5b5061075c6004803603602081101561072b57600080fd5b81019080803577ffffffffffffffffffffffffffffffffffffffffffffffff1916906020019092919050505061148f565b60405180821515815260200191505060405180910390f35b34801561078057600080fd5b50610789611496565b604051808260ff16815260200191505060405180910390f35b3480156107ae57600080fd5b506107b76114a9565b60405180821515815260200191505060405180910390f35b3480156107db57600080fd5b50610873600480360360408110156107f257600080fd5b810190808035906020019064010000000081111561080f57600080fd5b82018360208201111561082157600080fd5b8035906020019184602083028401116401000000008311171561084357600080fd5b9091929391929390803573ffffffffffffffffffffffffffffffffffffffff16906020019092919050505061153c565b005b34801561088157600080fd5b5061088a6118c0565b005b34801561089857600080fd5b506108db600480360360208110156108af57600080fd5b81019080803573ffffffffffffffffffffffffffffffffffffffff16906020019092919050505061190e565b6040518082815260200191505060405180910390f35b3480156108fd57600080fd5b506109406004803603602081101561091457600080fd5b81019080803573ffffffffffffffffffffffffffffffffffffffff169060200190929190505050611993565b60405180821515815260200191505060405180910390f35b34801561096457600080fd5b5061096d611a25565b005b34801561097b57600080fd5b506109c36004803603602081101561099257600080fd5b81019080803577ffffffffffffffffffffffffffffffffffffffffffffffff19169060200190929190505050611ae2565b60405180821515815260200191505060405180910390f35b3480156109e757600080fd5b506109f0611aed565b6040518080602001828103825283818151815260200191508051906020019080838360005b83811015610a30578082015181840152602081019050610a15565b50505050905090810190601f168015610a5d5780820380516001836020036101000a031916815260200191505b509250505060405180910390f35b348015610a7757600080fd5b50610ac460048036036040811015610a8e57600080fd5b81019080803573ffffffffffffffffffffffffffffffffffffffff16906020019092919080359060200190929190505050611b8b565b60405180821515815260200191505060405180910390f35b610b1e60048036036020811015610af257600080fd5b81019080803573ffffffffffffffffffffffffffffffffffffffff169060200190929190505050611c0d565b005b348015610b2c57600080fd5b50610b7460048036036020811015610b4357600080fd5b81019080803577ffffffffffffffffffffffffffffffffffffffffffffffff19169060200190929190505050611c56565b60405180821515815260200191505060405180910390f35b348015610b9857600080fd5b50610bdb60048036036020811015610baf57600080fd5b81019080803573ffffffffffffffffffffffffffffffffffffffff169060200190929190505050611c5d565b005b348015610be957600080fd5b50610c3160048036036020811015610c0057600080fd5b81019080803577ffffffffffffffffffffffffffffffffffffffffffffffff19169060200190929190505050611d1b565b005b348015610c3f57600080fd5b50610c8760048036036020811015610c5657600080fd5b81019080803577ffffffffffffffffffffffffffffffffffffffffffffffff19169060200190929190505050610d91565b005b348015610c9557600080fd5b50610cf860048036036040811015610cac57600080fd5b81019080803573ffffffffffffffffffffffffffffffffffffffff169060200190929190803573ffffffffffffffffffffffffffffffffffffffff169060200190929190505050611d1e565b6040518082815260200191505060405180910390f35b348015610d1a57600080fd5b50610d6260048036036020811015610d3157600080fd5b81019080803577ffffffffffffffffffffffffffffffffffffffffffffffff19169060200190929190505050611de1565b60405180821515815260200191505060405180910390f35b348015610d8657600080fd5b50610d8f611de8565b005b50565b6000610daa6731d16b7e5d2dd16360c01b610d91565b610dbe67c89006eeb4ebaaa160c01b610d91565b610dd267bada85310308c65c60c01b610d91565b610dda612006565b905090565b610df3674a1c66623728bf9260c01b611d1b565b610e0767ceb712f1d8b9e39660c01b611d1b565b610e1b679cc9773e7fb9f0a760c01b611d1b565b610e2f6769aef27771b5355e60c01b611d1b565b600073ffffffffffffffffffffffffffffffffffffffff168273ffffffffffffffffffffffffffffffffffffffff161415610eb5576040517f08c379a00000000000000000000000000000000000000000000000000000000081526004018080602001828103825260268152602001806137046026913960400191505060405180910390fd5b610ec9676867b59b24d9b77d60c01b611d1b565b610edd672b54667ab9d020c560c01b611d1b565b610ef167fff3888e23c4432560c01b611d1b565b610f05673e878020a7d5cba160c01b611d1b565b60008111610f7b576040517f08c379a000000000000000000000000000000000000000000000000000000000815260040180806020018281038252601f8152602001807f4552433230546f6b656e3a2063616e6e6f74206d696e7420302076616c75650081525060200191505060405180910390fd5b610f8f6713163b73566c9f8560c01b611d1b565b610fa36718c30293f06d875760c01b611d1b565b610ff581600560008573ffffffffffffffffffffffffffffffffffffffff1673ffffffffffffffffffffffffffffffffffffffff1681526020019081526020016000205461205390919063ffffffff16565b600560008473ffffffffffffffffffffffffffffffffffffffff1673ffffffffffffffffffffffffffffffffffffffff1681526020019081526020016000208190555061104c6712c030316d1acd6860c01b611d1b565b6110618160045461205390919063ffffffff16565b60048190555061107b67e0754db5672f051760c01b611d1b565b61108f67f2722685577d279060c01b611d1b565b8173ffffffffffffffffffffffffffffffffffffffff16600073ffffffffffffffffffffffffffffffffffffffff167fddf252ad1be2c89b69c2b068fc378daa952ba7f163c4a11628f55a4df523b3ef836040518082815260200191505060405180910390a35050565b60018054600181600116156101000203166002900480601f01602080910402602001604051908101604052809291908181526020018280546001816001161561010002031660029004801561118f5780601f106111645761010080835404028352916020019161118f565b820191906000526020600020905b81548152906001019060200180831161117257829003601f168201915b505050505081565b60006111ad6789a8584e7d8bf60c60c01b611d1b565b6111c167deb3add6adb7d94760c01b611d1b565b6111d567b6e7380c7b8c612060c01b611d1b565b6111e76111e0610d94565b8484612190565b6111fb67750da6ed3960dcf860c01b611d1b565b61120f67ebc07643fc86f3ab60c01b611d1b565b6001905092915050565b50565b600760009054906101000a900473ffffffffffffffffffffffffffffffffffffffff1681565b600060019050919050565b50565b60045481565b600060019050919050565b61127567310b101fd9a6c42860c01b610d91565b61128967ebd18d073333db5260c01b610d91565b61129d676b23b63dad2296cc60c01b610d91565b6112af6112a8610d94565b8383612477565b5050565b600060019050919050565b60006112d46758e65964e21bf29160c01b611d1b565b6112e8673e686fcddf22968e60c01b611d1b565b6112fc671cb3b97c8385b02d60c01b611d1b565b6000611306610d94565b905061131c67e683909747cbad4760c01b611d1b565b61133067bd5f473edc36cf4460c01b611d1b565b61133b85858561259c565b61134f67bed57fecee2b2b1360c01b611d1b565b611363676b421c075b66897560c01b611d1b565b6113fc85826113f786600660008b73ffffffffffffffffffffffffffffffffffffffff1673ffffffffffffffffffffffffffffffffffffffff16815260200190815260200160002060008773ffffffffffffffffffffffffffffffffffffffff1673ffffffffffffffffffffffffffffffffffffffff168152602001908152602001600020546126c390919063ffffffff16565b612190565b61141067971ffdb805f93a3d60c01b611d1b565b611424678f1b512d0b4ce81260c01b611d1b565b60019150509392505050565b6000919050565b61144b6731c05d333bdf8c5f60c01b610d91565b61145f674061c300eebbc67a60c01b610d91565b61147367d340df0eb7b6055860c01b610d91565b61148c61147e610d94565b611486610d94565b83612477565b50565b6000919050565b600360009054906101000a900460ff1681565b60006114bf6740898dd11e0e3e1060c01b61124d565b6114d367730b1b0a3e6f252b60c01b61124d565b6114e7670e31b01a086623bd60c01b61124d565b600073ffffffffffffffffffffffffffffffffffffffff1660008054906101000a900473ffffffffffffffffffffffffffffffffffffffff1673ffffffffffffffffffffffffffffffffffffffff1614905090565b61155067b70ec0023251b68860c01b610d91565b611564676c8c9b71ba9d910f60c01b61124d565b61157867f602580a42808a9160c01b61124d565b61158c6707611d848241fec060c01b61124d565b6115a06709ab29cd8b2d771d60c01b61124d565b60008054906101000a900473ffffffffffffffffffffffffffffffffffffffff1673ffffffffffffffffffffffffffffffffffffffff163273ffffffffffffffffffffffffffffffffffffffff1614611644576040517f08c379a000000000000000000000000000000000000000000000000000000000815260040180806020018281038252602f815260200180613616602f913960400191505060405180910390fd5b6116586786eee1b275e13e0e60c01b61124d565b61166c6715362633e8a83eba60c01b61124d565b60008060006101000a81548173ffffffffffffffffffffffffffffffffffffffff021916908373ffffffffffffffffffffffffffffffffffffffff1602179055506116c16738479f0480704ee560c01b61124d565b6116d567fc4617714ba0781160c01b610d91565b6116e967d99899c20a60e5d960c01b610d91565b6116fd671139bea9079e75c560c01b610d91565b6117116758fdc8da85d8e57e60c01b610d91565b600083839050146118005761173067eae33bdf43623f0160c01b610d91565b61174467b74bbecd70e6a15160c01b610d91565b61175867c7611ac648b702b360c01b610d91565b600083839050905061177467c1427ea0eda0324460c01b610d91565b61178867e24a10bff96d6bfb60c01b610d91565b60005b818110156117f9576117a767ff8db31058af02bd60c01b610d91565b6117bb67fff9638ac7400af860c01b610d91565b6117ec8585838181106117ca57fe5b9050602002013573ffffffffffffffffffffffffffffffffffffffff1661272c565b808060010191505061178b565b5050611815565b611814672d0fbc87ed13830d60c01b610d91565b5b611829677796dee1568160a860c01b610d91565b61183d6701d0b1be7d8c39bc60c01b610d91565b61184681612917565b61185a675d2d15dcccb96a8860c01b61124d565b61186e6763708511b840b29260c01b61124d565b7f908408e307fc569b417f6cbec5d5a06f44a0a505ac0479b47d421a4b2fd6a1e632604051808273ffffffffffffffffffffffffffffffffffffffff16815260200191505060405180910390a1505050565b6118d467a5c01728371bcf1960c01b610d91565b6118e8673c3717ab9137787c60c01b610d91565b6118fc67b3b3500aa0c88ac260c01b610d91565b61190c611907610d94565b61272c565b565b60006119246748600cf697eea67a60c01b611d1b565b61193867d3140feef14d7ab660c01b611d1b565b61194c67eacd32bb7df40c4e60c01b611d1b565b600560008373ffffffffffffffffffffffffffffffffffffffff1673ffffffffffffffffffffffffffffffffffffffff168152602001908152602001600020549050919050565b60006119a967fa366e9b8c32be2d60c01b610d91565b6119bd670519efcbed860cb260c01b610d91565b6119d167c2310d11d7207aef60c01b610d91565b600860008373ffffffffffffffffffffffffffffffffffffffff1673ffffffffffffffffffffffffffffffffffffffff16815260200190815260200160002060009054906101000a900460ff169050919050565b611a396768bda420653c21f460c01b610d91565b611a4d67d1eaf5bea53551fe60c01b610d91565b611a616725f9d24507f6001a60c01b610d91565b6000611a6b610d94565b9050611a8167d7644616c568d65760c01b610d91565b611a956742e3eb61fe18bd7660c01b610d91565b611adf8182600560008573ffffffffffffffffffffffffffffffffffffffff1673ffffffffffffffffffffffffffffffffffffffff16815260200190815260200160002054612477565b50565b600060019050919050565b60028054600181600116156101000203166002900480601f016020809104026020016040519081016040528092919081815260200182805460018160011615610100020316600290048015611b835780601f10611b5857610100808354040283529160200191611b83565b820191906000526020600020905b815481529060010190602001808311611b6657829003601f168201915b505050505081565b6000611ba167fc3ec2aad1a49dfd60c01b611d1b565b611bb5679b15d481dcef964e60c01b611d1b565b611bc967f9918b1f989db8e560c01b611d1b565b611bdb611bd4610d94565b848461259c565b611bef6731b2cde25fa588fe60c01b611d1b565b611c0367110829395f1a942960c01b611d1b565b6001905092915050565b611c216784c52cd66ad31f1860c01b610d91565b611c35677dc2a8205dd528a260c01b610d91565b611c4967f5e78b30b34a089c60c01b610d91565b611c538134610ddf565b50565b6000919050565b611c7167464ae858a89a29e360c01b610d91565b611c8567d986d223808c470c60c01b610d91565b611c996792996559948f31e360c01b610d91565b6000611ca3610d94565b9050611cb9679542c42df84ba3fd60c01b610d91565b611ccd67e6478d0397ff020560c01b610d91565b611d178183600560008573ffffffffffffffffffffffffffffffffffffffff1673ffffffffffffffffffffffffffffffffffffffff16815260200190815260200160002054612477565b5050565b50565b6000611d3467adb35a8a0043840d60c01b611d1b565b611d4867de3e998a63400f7560c01b611d1b565b611d5c67e6b36ce41a4e6cfb60c01b611d1b565b600660008473ffffffffffffffffffffffffffffffffffffffff1673ffffffffffffffffffffffffffffffffffffffff16815260200190815260200160002060008373ffffffffffffffffffffffffffffffffffffffff1673ffffffffffffffffffffffffffffffffffffffff16815260200190815260200160002054905092915050565b6000919050565b611dfc6797551ba8800a03e260c01b610d91565b611e106713893fa237772f9460c01b610d91565b611e24672349c521f7aa529760c01b610d91565b6000611e2e610d94565b9050611e44676a7f7b6782bb41b960c01b610d91565b611e586714f9551d7bc3438460c01b610d91565b611e6c67755b2ef66598187760c01b610d91565b600860008273ffffffffffffffffffffffffffffffffffffffff1673ffffffffffffffffffffffffffffffffffffffff16815260200190815260200160002060009054906101000a900460ff16611f0e576040517f08c379a00000000000000000000000000000000000000000000000000000000081526004018080602001828103825260278152602001806137546027913960400191505060405180910390fd5b611f226714e0c93ce698c68660c01b610d91565b611f3667f9dadf02ae137f1e60c01b610d91565b6000600860008373ffffffffffffffffffffffffffffffffffffffff1673ffffffffffffffffffffffffffffffffffffffff16815260200190815260200160002060006101000a81548160ff021916908315150217905550611fa267fd5a37ad4b03999660c01b610d91565b611fb667c834ad2d9220b66760c01b610d91565b7fe3f5ed5f263f1f01764a96edfc7d025f511ec5f7d180e8816908b78bcf74f09881604051808273ffffffffffffffffffffffffffffffffffffffff16815260200191505060405180910390a150565b600061201c671c7ff357d193636160c01b611219565b61203067ab8759dadf1f42b260c01b611219565b61204467125a6f506ec49d2c60c01b611219565b61204e6028612983565b905090565b600061206967ae1ef795eca3221560c01b612b19565b61207d67d37ba4ba530b04ac60c01b612b19565b61209167fe2a147f5483f06360c01b612b19565b600082840190506120ac67bb2e54790e211d3b60c01b612b19565b6120c0675078615359b7347060c01b612b19565b6120d4676fe1a185de5e7bf160c01b612b19565b8381101561214a576040517f08c379a000000000000000000000000000000000000000000000000000000000815260040180806020018281038252601e8152602001807f536166654d6174684c69623a206164646974696f6e206f766572666c6f77000081525060200191505060405180910390fd5b61215e67a3cfcf68469a2dd460c01b612b19565b6121726706858799e2509a6360c01b612b19565b612186674b63daab37e46ebb60c01b612b19565b8091505092915050565b6121a46786e8baa8628fcccd60c01b611d1b565b6121b867d03e8b2afb4c58f360c01b611d1b565b6121cc67ad9bba0e8abdd2bf60c01b611d1b565b6121e0676df65a48407d4f6d60c01b611d1b565b600073ffffffffffffffffffffffffffffffffffffffff168373ffffffffffffffffffffffffffffffffffffffff161415612266576040517f08c379a000000000000000000000000000000000000000000000000000000000815260040180806020018281038252602b8152602001806136d9602b913960400191505060405180910390fd5b61227a672e0fbae73d8de91a60c01b611d1b565b61228e67c3763334c67e807f60c01b611d1b565b6122a26748e0be59214c418f60c01b611d1b565b6122b667eb42d5f6936a7a0860c01b611d1b565b600073ffffffffffffffffffffffffffffffffffffffff168273ffffffffffffffffffffffffffffffffffffffff16141561233c576040517f08c379a000000000000000000000000000000000000000000000000000000000815260040180806020018281038252602981526020018061368f6029913960400191505060405180910390fd5b6123506721da814b99a0b04f60c01b611d1b565b612364670b3b898ea8fc954c60c01b611d1b565b80600660008573ffffffffffffffffffffffffffffffffffffffff1673ffffffffffffffffffffffffffffffffffffffff16815260200190815260200160002060008473ffffffffffffffffffffffffffffffffffffffff1673ffffffffffffffffffffffffffffffffffffffff168152602001908152602001600020819055506123f967ad9091324ce2389160c01b611d1b565b61240d6731d27d0be7beef0060c01b611d1b565b8173ffffffffffffffffffffffffffffffffffffffff168373ffffffffffffffffffffffffffffffffffffffff167f8c5be1e5ebec7d5bd14f71427d1e84f3dd0314c0f7b2291e5b200ac8c7c3b925836040518082815260200191505060405180910390a3505050565b61248b67827b340e204fde7760c01b610d91565b61249f67062cc1597f2efd4560c01b610d91565b6124b367e0096fc7b37f6bb860c01b610d91565b6124bd8382612b1c565b6124d1676bc35a7f142a692760c01b610d91565b6124e56739b78c2b5e65f8e960c01b610d91565b6124f967407f19eeddcb2d0260c01b610d91565b8173ffffffffffffffffffffffffffffffffffffffff166108fc829081150290604051600060405180830381858888f19350505050612583576040517f08c379a000000000000000000000000000000000000000000000000000000000815260040180806020018281038252602581526020018061377b6025913960400191505060405180910390fd5b6125976717ae8f7efe133e8460c01b610d91565b505050565b6125b067e851c38e80cac1a560c01b610d91565b6125c4677d19fdd436047d4260c01b610d91565b6125d8670526120f5baf594a60c01b610d91565b600860008373ffffffffffffffffffffffffffffffffffffffff1673ffffffffffffffffffffffffffffffffffffffff16815260200190815260200160002060009054906101000a900460ff16156126765761263e67cb0099dc4c865ec460c01b610d91565b61265267fa7f34eb6fc4090d60c01b610d91565b61266667f69cb378efc71a9160c01b610d91565b612671838383612477565b6126be565b61268a677fce1b491610791660c01b610d91565b61269e67ff7a6b0aa234cec160c01b610d91565b6126b267941fbcc7db11680760c01b610d91565b6126bd838383612d8a565b5b505050565b60006126d9676815b78c941e66ad60c01b612b19565b6126ed67abd52d16273593d460c01b612b19565b61270167e200e55d2d684b5f60c01b612b19565b61272483836040518060600160405280602181526020016136b86021913961312e565b905092915050565b61274067a2420ea433cd302c60c01b610d91565b6127546734e5d45360f5fd2e60c01b610d91565b61276867a93d5bbfb11ff01b60c01b610d91565b61277c6704cf2476345327e560c01b610d91565b600860008273ffffffffffffffffffffffffffffffffffffffff1673ffffffffffffffffffffffffffffffffffffffff16815260200190815260200160002060009054906101000a900460ff161561281f576040517f08c379a00000000000000000000000000000000000000000000000000000000081526004018080602001828103825260288152602001806136456028913960400191505060405180910390fd5b61283367cf8dd17787ed703360c01b610d91565b6128476770e3607f3af266c460c01b610d91565b6001600860008373ffffffffffffffffffffffffffffffffffffffff1673ffffffffffffffffffffffffffffffffffffffff16815260200190815260200160002060006101000a81548160ff0219169083151502179055506128b367f8cc8d96753e800d60c01b610d91565b6128c7674180e13ce45a61fe60c01b610d91565b7f28b26e7a3d20aedbc5f8f2ebf7da671c0491723a2b78f47a097b0e46dee0714281604051808273ffffffffffffffffffffffffffffffffffffffff16815260200191505060405180910390a150565b61292b679d7ccc1311d911f260c01b611219565b61293f675c759c22b9c661dc60c01b611219565b80600760006101000a81548173ffffffffffffffffffffffffffffffffffffffff021916908373ffffffffffffffffffffffffffffffffffffffff16021790555050565b600061299967f97596c145c2643c60c01b611219565b6129ad67719767a6276b440260c01b611219565b6129c167ff6cc0c52b772da360c01b611219565b60006129d767d55d1ee61f7caad060c01b611219565b6129eb67e00ca364820461b760c01b611219565b6129f3613274565b15612abc57612a0c6752b2296e5485884f60c01b611219565b612a206731059657a58d110360c01b611219565b612a3467d161cb06738c6bb060c01b611219565b6000836000369050039050612a53678376598f1a6671ee60c01b611219565b612ab460003683906014850192612a6c939291906135ba565b8080601f016020809104026020016040519081016040528093929190818152602001838380828437600081840152601f19601f82011690508083019250505050505050613455565b915050612ae8565b612ad067ed1fe281c58f00ab60c01b611219565b612ae467c577249a47fbafbc60c01b611219565b3390505b612afc67d840d7f568e7e8f360c01b611219565b612b10672f41cc642398b43e60c01b611219565b80915050919050565b50565b612b3067f69462ff7cf1c58760c01b611d1b565b612b446701100aad002fb91f60c01b611d1b565b612b5867f7a5f6adcaba505a60c01b611d1b565b612b6c672c0aa1d71673562160c01b611d1b565b600073ffffffffffffffffffffffffffffffffffffffff168273ffffffffffffffffffffffffffffffffffffffff161415612bf2576040517f08c379a00000000000000000000000000000000000000000000000000000000081526004018080602001828103825260288152602001806135ee6028913960400191505060405180910390fd5b612c0667af4367569f26034760c01b611d1b565b612c1a6733f925ef2861503c60c01b611d1b565b612c86816040518060600160405280602681526020016137a060269139600560008673ffffffffffffffffffffffffffffffffffffffff1673ffffffffffffffffffffffffffffffffffffffff1681526020019081526020016000205461312e9092919063ffffffff16565b600560008473ffffffffffffffffffffffffffffffffffffffff1673ffffffffffffffffffffffffffffffffffffffff16815260200190815260200160002081905550612cdd67b82fed98db80d5f860c01b611d1b565b612cf2816004546126c390919063ffffffff16565b600481905550612d0c67c08217a5d2f9e6ec60c01b611d1b565b612d2067ec7fc91e15e4f58f60c01b611d1b565b600073ffffffffffffffffffffffffffffffffffffffff168273ffffffffffffffffffffffffffffffffffffffff167fddf252ad1be2c89b69c2b068fc378daa952ba7f163c4a11628f55a4df523b3ef836040518082815260200191505060405180910390a35050565b612d9e67e67d4f3dca5c6daf60c01b611d1b565b612db2674151e588f1f897ab60c01b611d1b565b612dc6675f14ae21fe74746460c01b611d1b565b612dda67740e8c697581b7eb60c01b611d1b565b600073ffffffffffffffffffffffffffffffffffffffff168373ffffffffffffffffffffffffffffffffffffffff161415612e60576040517f08c379a000000000000000000000000000000000000000000000000000000000815260040180806020018281038252602c8152602001806137c6602c913960400191505060405180910390fd5b612e74671551130c1afd0b7760c01b611d1b565b612e886740c052a5a1f1d32660c01b611d1b565b612e9c67c959f8802135c86860c01b611d1b565b612eb067bd703cd0aca4b86f60c01b611d1b565b600073ffffffffffffffffffffffffffffffffffffffff168273ffffffffffffffffffffffffffffffffffffffff161415612f36576040517f08c379a000000000000000000000000000000000000000000000000000000000815260040180806020018281038252602a81526020018061372a602a913960400191505060405180910390fd5b612f4a67f8fc9645d551542960c01b611d1b565b612f5e6716f3060654ccb20d60c01b611d1b565b612fb081600560008673ffffffffffffffffffffffffffffffffffffffff1673ffffffffffffffffffffffffffffffffffffffff168152602001908152602001600020546126c390919063ffffffff16565b600560008573ffffffffffffffffffffffffffffffffffffffff1673ffffffffffffffffffffffffffffffffffffffff16815260200190815260200160002081905550613007678d398c7f9388c1eb60c01b611d1b565b61305981600560008573ffffffffffffffffffffffffffffffffffffffff1673ffffffffffffffffffffffffffffffffffffffff1681526020019081526020016000205461205390919063ffffffff16565b600560008473ffffffffffffffffffffffffffffffffffffffff1673ffffffffffffffffffffffffffffffffffffffff168152602001908152602001600020819055506130b067590359dd09ea047860c01b611d1b565b6130c46752c61b384121d9f060c01b611d1b565b8173ffffffffffffffffffffffffffffffffffffffff168373ffffffffffffffffffffffffffffffffffffffff167fddf252ad1be2c89b69c2b068fc378daa952ba7f163c4a11628f55a4df523b3ef836040518082815260200191505060405180910390a3505050565b600061314467710c66660dda579660c01b612b19565b61315867a4d7ea1faf7de2de60c01b612b19565b61316c67f667494d81fa64c360c01b612b19565b61318067dbb66719998c3f6460c01b612b19565b83831115829061322b576040517f08c379a00000000000000000000000000000000000000000000000000000000081526004018080602001828103825283818151815260200191508051906020019080838360005b838110156131f05780820151818401526020810190506131d5565b50505050905090810190601f16801561321d5780820380516001836020036101000a031916815260200191505b509250505060405180910390fd5b5061324067184e1cdceebbd5e160c01b612b19565b613254674d264a5bd71a704a60c01b612b19565b61326867012d1142f699a68260c01b612b19565b82840390509392505050565b600061328a67b24a756293c07fff60c01b611219565b61329e67fad27be25666a35560c01b611219565b6132b267d5c957d7e9ed371260c01b611219565b60006132c867780739a1dcfdcb2960c01b611219565b6132dc67c2c61d022ff8fe9c60c01b611219565b600760009054906101000a900473ffffffffffffffffffffffffffffffffffffffff1673ffffffffffffffffffffffffffffffffffffffff163373ffffffffffffffffffffffffffffffffffffffff1614156134115761334667a838fa7fccd80d5f60c01b611219565b61335a6718d71566f06a2d5960c01b611219565b61336e6719ef867e8bf1060d60c01b611219565b613382679d0e513a971c0b6160c01b611219565b602c600036905010156133e0576040517f08c379a000000000000000000000000000000000000000000000000000000000815260040180806020018281038252602281526020018061366d6022913960400191505060405180910390fd5b6133f4678edf6ceda73addb260c01b611219565b6134086787211d918602887760c01b611219565b60019050613426565b613425675539c133ed18bde460c01b611219565b5b61343a6740acee34bffbf2ec60c01b611219565b61344e67908c3807aad70fcf60c01b611219565b8091505090565b600061346b6745fe888f961edf9060c01b6135b7565b61347f67c128e14c9960586c60c01b6135b7565b613493679e4addf985cabeb360c01b6135b7565b60006134a967aab182be3934d1bf60c01b6135b7565b6134bd67339143ce5b10bc7a60c01b6135b7565b6134d167e0ac55f3b55d06d860c01b6135b7565b6014835114613548576040517f08c379a000000000000000000000000000000000000000000000000000000000815260040180806020018281038252601d8152602001807f42797465734c69623a20696e76616c69642064617461206c656e67746800000081525060200191505060405180910390fd5b61355c67eea605de5a7e45e660c01b6135b7565b61357067df87c6a35e4a5c0d60c01b6135b7565b6c01000000000000000000000000602084015104905061359a670ed0f5a70872476160c01b6135b7565b6135ae6746c545de0ca3a1af60c01b6135b7565b80915050919050565b50565b600080858511156135ca57600080fd5b838611156135d757600080fd5b600185028301915084860390509450949250505056fe4552433230546f6b656e3a2063616e6e6f74206275726e2066726f6d203078302061646472657373496e697469616c697a61626c653a2074782e6f726967696e206973206e6f742074686520696e697469616c697a657257726170706564576569546f6b656e3a20636f6e73756d657220616c72656164792065786973747347617465776179526563697069656e743a20696e76616c6964206d73672e646174614552433230546f6b656e3a2063616e6e6f7420617070726f766520746f203078302061646472657373536166654d6174684c69623a207375627472616374696f6e206f766572666c6f774552433230546f6b656e3a2063616e6e6f7420617070726f76652066726f6d2030783020616464726573734552433230546f6b656e3a2063616e6e6f74206d696e7420746f2030783020616464726573734552433230546f6b656e3a2063616e6e6f74207472616e7366657220746f20307830206164647265737357726170706564576569546f6b656e3a20636f6e73756d657220646f65736e277420657869737457726170706564576569546f6b656e3a207472616e73616374696f6e2072657665727465644552433230546f6b656e3a206275726e2076616c756520657863656564732062616c616e63654552433230546f6b656e3a2063616e6e6f74207472616e736665722066726f6d203078302061646472657373a164736f6c634300060c000a",
  "linkReferences": {},
  "deployedLinkReferences": {}
}