{
  "_format": "hh-sol-artifact-1",
  "contractName": "XAppConnectionManager",
  "sourceName": "@connext/nxtp-contracts/contracts/nomad-core/contracts/XAppConnectionManager.sol",
  "abi": [
    {
      "inputs": [],
      "stateMutability": "nonpayable",
      "type": "constructor"
    },
    {
      "anonymous": false,
      "inputs": [
        {
          "indexed": true,
          "internalType": "address",
          "name": "previousOwner",
          "type": "address"
        },
        {
          "indexed": true,
          "internalType": "address",
          "name": "newOwner",
          "type": "address"
        }
      ],
      "name": "OwnershipTransferred",
      "type": "event"
    },
    {
      "anonymous": false,
      "inputs": [
        {
          "indexed": true,
          "internalType": "uint32",
          "name": "domain",
          "type": "uint32"
        },
        {
          "indexed": false,
          "internalType": "address",
          "name": "replica",
          "type": "address"
        }
      ],
      "name": "ReplicaEnrolled",
      "type": "event"
    },
    {
      "anonymous": false,
      "inputs": [
        {
          "indexed": true,
          "internalType": "uint32",
          "name": "domain",
          "type": "uint32"
        },
        {
          "indexed": false,
          "internalType": "address",
          "name": "replica",
          "type": "address"
        }
      ],
      "name": "ReplicaUnenrolled",
      "type": "event"
    },
    {
      "anonymous": false,
      "inputs": [
        {
          "indexed": true,
          "internalType": "uint32",
          "name": "domain",
          "type": "uint32"
        },
        {
          "indexed": false,
          "internalType": "address",
          "name": "watcher",
          "type": "address"
        },
        {
          "indexed": false,
          "internalType": "bool",
          "name": "access",
          "type": "bool"
        }
      ],
      "name": "WatcherPermissionSet",
      "type": "event"
    },
    {
      "inputs": [
        {
          "internalType": "uint32",
          "name": "",
          "type": "uint32"
        }
      ],
      "name": "domainToReplica",
      "outputs": [
        {
          "internalType": "address",
          "name": "",
          "type": "address"
        }
      ],
      "stateMutability": "view",
      "type": "function"
    },
    {
      "inputs": [],
      "name": "home",
      "outputs": [
        {
          "internalType": "contract Home",
          "name": "",
          "type": "address"
        }
      ],
      "stateMutability": "view",
      "type": "function"
    },
    {
      "inputs": [
        {
          "internalType": "address",
          "name": "_replica",
          "type": "address"
        }
      ],
      "name": "isReplica",
      "outputs": [
        {
          "internalType": "bool",
          "name": "",
          "type": "bool"
        }
      ],
      "stateMutability": "view",
      "type": "function"
    },
    {
      "inputs": [],
      "name": "localDomain",
      "outputs": [
        {
          "internalType": "uint32",
          "name": "",
          "type": "uint32"
        }
      ],
      "stateMutability": "view",
      "type": "function"
    },
    {
      "inputs": [],
      "name": "owner",
      "outputs": [
        {
          "internalType": "address",
          "name": "",
          "type": "address"
        }
      ],
      "stateMutability": "view",
      "type": "function"
    },
    {
      "inputs": [
        {
          "internalType": "address",
          "name": "_replica",
          "type": "address"
        },
        {
          "internalType": "uint32",
          "name": "_domain",
          "type": "uint32"
        }
      ],
      "name": "ownerEnrollReplica",
      "outputs": [],
      "stateMutability": "nonpayable",
      "type": "function"
    },
    {
      "inputs": [
        {
          "internalType": "address",
          "name": "_replica",
          "type": "address"
        }
      ],
      "name": "ownerUnenrollReplica",
      "outputs": [],
      "stateMutability": "nonpayable",
      "type": "function"
    },
    {
      "inputs": [],
      "name": "renounceOwnership",
      "outputs": [],
      "stateMutability": "nonpayable",
      "type": "function"
    },
    {
      "inputs": [
        {
          "internalType": "address",
          "name": "",
          "type": "address"
        }
      ],
      "name": "replicaToDomain",
      "outputs": [
        {
          "internalType": "uint32",
          "name": "",
          "type": "uint32"
        }
      ],
      "stateMutability": "view",
      "type": "function"
    },
    {
      "inputs": [
        {
          "internalType": "address",
          "name": "_home",
          "type": "address"
        }
      ],
      "name": "setHome",
      "outputs": [],
      "stateMutability": "nonpayable",
      "type": "function"
    },
    {
      "inputs": [
        {
          "internalType": "address",
          "name": "_watcher",
          "type": "address"
        },
        {
          "internalType": "uint32",
          "name": "_domain",
          "type": "uint32"
        },
        {
          "internalType": "bool",
          "name": "_access",
          "type": "bool"
        }
      ],
      "name": "setWatcherPermission",
      "outputs": [],
      "stateMutability": "nonpayable",
      "type": "function"
    },
    {
      "inputs": [
        {
          "internalType": "address",
          "name": "newOwner",
          "type": "address"
        }
      ],
      "name": "transferOwnership",
      "outputs": [],
      "stateMutability": "nonpayable",
      "type": "function"
    },
    {
      "inputs": [
        {
          "internalType": "uint32",
          "name": "_domain",
          "type": "uint32"
        },
        {
          "internalType": "bytes32",
          "name": "_updater",
          "type": "bytes32"
        },
        {
          "internalType": "bytes",
          "name": "_signature",
          "type": "bytes"
        }
      ],
      "name": "unenrollReplica",
      "outputs": [],
      "stateMutability": "nonpayable",
      "type": "function"
    },
    {
      "inputs": [
        {
          "internalType": "address",
          "name": "_watcher",
          "type": "address"
        },
        {
          "internalType": "uint32",
          "name": "_domain",
          "type": "uint32"
        }
      ],
      "name": "watcherPermission",
      "outputs": [
        {
          "internalType": "bool",
          "name": "",
          "type": "bool"
        }
      ],
      "stateMutability": "view",
      "type": "function"
    }
  ],
  "bytecode": "0x608060405234801561001057600080fd5b5061001a3361001f565b61006f565b600080546001600160a01b038381166001600160a01b0319831681178455604051919092169283917f8be0079c531659141344cd1fd0a4f28419497f9722a3daafe3b4186f6b6457e09190a35050565b61152c8061007e6000396000f3fe608060405234801561001057600080fd5b50600436106100ea5760003560e01c80638f5d90e01161008c578063b9cff16211610066578063b9cff16214610275578063e0e7a913146102ab578063f2fde38b146102be578063f31faefb146102d157600080fd5b80638f5d90e01461022f578063916c3470146102425780639fa92f9d1461025557600080fd5b80636ef0f37f116100c85780636ef0f37f146101cb578063715018a6146101e05780638d3638f4146101e85780638da5cb5b146101f057600080fd5b8063427ebef5146100ef5780635190bc53146101525780635f8b1dba14610190575b600080fd5b61013d6100fd36600461127a565b73ffffffffffffffffffffffffffffffffffffffff8216600090815260046020908152604080832063ffffffff8516845290915290205460ff1692915050565b60405190151581526020015b60405180910390f35b61013d6101603660046112b3565b73ffffffffffffffffffffffffffffffffffffffff1660009081526002602052604090205463ffffffff16151590565b6101b661019e3660046112b3565b60026020526000908152604090205463ffffffff1681565b60405163ffffffff9091168152602001610149565b6101de6101d93660046112b3565b6102e4565b005b6101de6103b1565b6101b661043e565b60005473ffffffffffffffffffffffffffffffffffffffff165b60405173ffffffffffffffffffffffffffffffffffffffff9091168152602001610149565b6101de61023d3660046112b3565b6104d7565b6101de6102503660046112d7565b610564565b60015461020a9073ffffffffffffffffffffffffffffffffffffffff1681565b61020a610283366004611327565b60036020526000908152604090205473ffffffffffffffffffffffffffffffffffffffff1681565b6101de6102b9366004611373565b610689565b6101de6102cc3660046112b3565b6108f6565b6101de6102df36600461127a565b610a23565b60005473ffffffffffffffffffffffffffffffffffffffff16331461036a576040517f08c379a000000000000000000000000000000000000000000000000000000000815260206004820181905260248201527f4f776e61626c653a2063616c6c6572206973206e6f7420746865206f776e657260448201526064015b60405180910390fd5b600180547fffffffffffffffffffffffff00000000000000000000000000000000000000001673ffffffffffffffffffffffffffffffffffffffff92909216919091179055565b60005473ffffffffffffffffffffffffffffffffffffffff163314610432576040517f08c379a000000000000000000000000000000000000000000000000000000000815260206004820181905260248201527f4f776e61626c653a2063616c6c6572206973206e6f7420746865206f776e65726044820152606401610361565b61043c6000610b6f565b565b600154604080517f8d3638f4000000000000000000000000000000000000000000000000000000008152905160009273ffffffffffffffffffffffffffffffffffffffff1691638d3638f49160048083019260209291908290030181865afa1580156104ae573d6000803e3d6000fd5b505050506040513d601f19601f820116820180604052508101906104d2919061145e565b905090565b60005473ffffffffffffffffffffffffffffffffffffffff163314610558576040517f08c379a000000000000000000000000000000000000000000000000000000000815260206004820181905260248201527f4f776e61626c653a2063616c6c6572206973206e6f7420746865206f776e65726044820152606401610361565b61056181610be4565b50565b60005473ffffffffffffffffffffffffffffffffffffffff1633146105e5576040517f08c379a000000000000000000000000000000000000000000000000000000000815260206004820181905260248201527f4f776e61626c653a2063616c6c6572206973206e6f7420746865206f776e65726044820152606401610361565b73ffffffffffffffffffffffffffffffffffffffff8316600081815260046020908152604080832063ffffffff87168085529083529281902080547fffffffffffffffffffffffffffffffffffffffffffffffffffffffffffffff001686151590811790915581519485529184019190915290917f517de16b526853f481451c5151e87484e1b251ec7d0302efa1019c2ece179c2c910160405180910390a2505050565b63ffffffff831660009081526003602052604090205473ffffffffffffffffffffffffffffffffffffffff168061071c576040517f08c379a000000000000000000000000000000000000000000000000000000000815260206004820152600f60248201527f217265706c6963612065786973747300000000000000000000000000000000006044820152606401610361565b8273ffffffffffffffffffffffffffffffffffffffff168173ffffffffffffffffffffffffffffffffffffffff1663df034cd06040518163ffffffff1660e01b8152600401602060405180830381865afa15801561077e573d6000803e3d6000fd5b505050506040513d601f19601f820116820180604052508101906107a2919061147b565b73ffffffffffffffffffffffffffffffffffffffff161461081f576040517f08c379a000000000000000000000000000000000000000000000000000000000815260206004820152601060248201527f2163757272656e742075706461746572000000000000000000000000000000006044820152606401610361565b60006108438573ffffffffffffffffffffffffffffffffffffffff84168686610ca3565b73ffffffffffffffffffffffffffffffffffffffff8116600090815260046020908152604080832063ffffffff8a16845290915290205490915060ff166108e6576040517f08c379a000000000000000000000000000000000000000000000000000000000815260206004820152600e60248201527f2176616c696420776174636865720000000000000000000000000000000000006044820152606401610361565b6108ef82610be4565b5050505050565b60005473ffffffffffffffffffffffffffffffffffffffff163314610977576040517f08c379a000000000000000000000000000000000000000000000000000000000815260206004820181905260248201527f4f776e61626c653a2063616c6c6572206973206e6f7420746865206f776e65726044820152606401610361565b73ffffffffffffffffffffffffffffffffffffffff8116610a1a576040517f08c379a000000000000000000000000000000000000000000000000000000000815260206004820152602660248201527f4f776e61626c653a206e6577206f776e657220697320746865207a65726f206160448201527f64647265737300000000000000000000000000000000000000000000000000006064820152608401610361565b61056181610b6f565b60005473ffffffffffffffffffffffffffffffffffffffff163314610aa4576040517f08c379a000000000000000000000000000000000000000000000000000000000815260206004820181905260248201527f4f776e61626c653a2063616c6c6572206973206e6f7420746865206f776e65726044820152606401610361565b610aad82610be4565b73ffffffffffffffffffffffffffffffffffffffff8216600081815260026020908152604080832080547fffffffffffffffffffffffffffffffffffffffffffffffffffffffff000000001663ffffffff8716908117909155808452600383529281902080547fffffffffffffffffffffffff000000000000000000000000000000000000000016851790555192835290917f8440df9bf8a8542634a9eb196da1735b786ed9aa2fc12b080ac34c5fa81a923491015b60405180910390a25050565b6000805473ffffffffffffffffffffffffffffffffffffffff8381167fffffffffffffffffffffffff0000000000000000000000000000000000000000831681178455604051919092169283917f8be0079c531659141344cd1fd0a4f28419497f9722a3daafe3b4186f6b6457e09190a35050565b73ffffffffffffffffffffffffffffffffffffffff81166000818152600260208181526040808420805463ffffffff168086526003845282862080547fffffffffffffffffffffffff00000000000000000000000000000000000000001690559486905292825282547fffffffffffffffffffffffffffffffffffffffffffffffffffffffff00000000169092559051928352909182917fce1533133fb359ace801d3176bbad25ace030d714aed35e38a6293c8a60b115b9101610b63565b6000808473ffffffffffffffffffffffffffffffffffffffff166345630b1a6040518163ffffffff1660e01b8152600401602060405180830381865afa158015610cf1573d6000803e3d6000fd5b505050506040513d601f19601f82011682018060405250810190610d159190611498565b90506000818786604051602001610d649392919092835260e09190911b7fffffffff00000000000000000000000000000000000000000000000000000000166020830152602482015260440190565b604080518083037fffffffffffffffffffffffffffffffffffffffffffffffffffffffffffffffe001815282825280516020918201207f19457468657265756d205369676e6564204d6573736167653a0a33320000000082850152603c8085019190915282518085039091018152605c90930190915281519101209050610deb8185610df6565b979650505050505050565b6000806000610e058585610e1a565b91509150610e1281610e88565b509392505050565b6000808251604103610e505760208301516040840151606085015160001a610e44878285856110dc565b94509450505050610e81565b8251604003610e795760208301516040840151610e6e8683836111f4565b935093505050610e81565b506000905060025b9250929050565b6000816004811115610e9c57610e9c6114b1565b03610ea45750565b6001816004811115610eb857610eb86114b1565b03610f1f576040517f08c379a000000000000000000000000000000000000000000000000000000000815260206004820152601860248201527f45434453413a20696e76616c6964207369676e617475726500000000000000006044820152606401610361565b6002816004811115610f3357610f336114b1565b03610f9a576040517f08c379a000000000000000000000000000000000000000000000000000000000815260206004820152601f60248201527f45434453413a20696e76616c6964207369676e6174757265206c656e677468006044820152606401610361565b6003816004811115610fae57610fae6114b1565b0361103b576040517f08c379a000000000000000000000000000000000000000000000000000000000815260206004820152602260248201527f45434453413a20696e76616c6964207369676e6174757265202773272076616c60448201527f75650000000000000000000000000000000000000000000000000000000000006064820152608401610361565b600481600481111561104f5761104f6114b1565b03610561576040517f08c379a000000000000000000000000000000000000000000000000000000000815260206004820152602260248201527f45434453413a20696e76616c6964207369676e6174757265202776272076616c60448201527f75650000000000000000000000000000000000000000000000000000000000006064820152608401610361565b6000807f7fffffffffffffffffffffffffffffff5d576e7357a4501ddfe92f46681b20a083111561111357506000905060036111eb565b8460ff16601b1415801561112b57508460ff16601c14155b1561113c57506000905060046111eb565b6040805160008082526020820180845289905260ff881692820192909252606081018690526080810185905260019060a0016020604051602081039080840390855afa158015611190573d6000803e3d6000fd5b50506040517fffffffffffffffffffffffffffffffffffffffffffffffffffffffffffffffe0015191505073ffffffffffffffffffffffffffffffffffffffff81166111e4576000600192509250506111eb565b9150600090505b94509492505050565b6000807f7fffffffffffffffffffffffffffffffffffffffffffffffffffffffffffffff83168161122a60ff86901c601b6114e0565b9050611238878288856110dc565b935093505050935093915050565b73ffffffffffffffffffffffffffffffffffffffff8116811461056157600080fd5b63ffffffff8116811461056157600080fd5b6000806040838503121561128d57600080fd5b823561129881611246565b915060208301356112a881611268565b809150509250929050565b6000602082840312156112c557600080fd5b81356112d081611246565b9392505050565b6000806000606084860312156112ec57600080fd5b83356112f781611246565b9250602084013561130781611268565b91506040840135801515811461131c57600080fd5b809150509250925092565b60006020828403121561133957600080fd5b81356112d081611268565b7f4e487b7100000000000000000000000000000000000000000000000000000000600052604160045260246000fd5b60008060006060848603121561138857600080fd5b833561139381611268565b925060208401359150604084013567ffffffffffffffff808211156113b757600080fd5b818601915086601f8301126113cb57600080fd5b8135818111156113dd576113dd611344565b604051601f82017fffffffffffffffffffffffffffffffffffffffffffffffffffffffffffffffe0908116603f0116810190838211818310171561142357611423611344565b8160405282815289602084870101111561143c57600080fd5b8260208601602083013760006020848301015280955050505050509250925092565b60006020828403121561147057600080fd5b81516112d081611268565b60006020828403121561148d57600080fd5b81516112d081611246565b6000602082840312156114aa57600080fd5b5051919050565b7f4e487b7100000000000000000000000000000000000000000000000000000000600052602160045260246000fd5b6000821982111561151a577f4e487b7100000000000000000000000000000000000000000000000000000000600052601160045260246000fd5b50019056fea164736f6c634300080f000a",
  "linkReferences": {},
  "deployedLinkReferences": {}
}